{
  "_format": "hh-sol-artifact-1",
  "contractName": "MultiplePriorityNominee",
  "sourceName": "contracts/MultiplePriorityNominee.sol",
  "abi": [
    {
      "inputs": [
        {
          "internalType": "address",
          "name": "_inheritokensAddress",
          "type": "address"
        },
        {
          "internalType": "address",
          "name": "_charityContractAddress",
          "type": "address"
        }
      ],
      "stateMutability": "nonpayable",
      "type": "constructor"
    },
    {
      "anonymous": false,
      "inputs": [
        {
          "indexed": true,
          "internalType": "address",
          "name": "_owner",
          "type": "address"
        },
        {
          "indexed": true,
          "internalType": "address",
          "name": "_nominee",
          "type": "address"
        },
        {
          "indexed": true,
          "internalType": "address",
          "name": "_tokenAddress",
          "type": "address"
        },
        {
          "indexed": false,
          "internalType": "uint256",
          "name": "_tokenId",
          "type": "uint256"
        },
        {
          "indexed": false,
          "internalType": "uint256",
          "name": "_amount",
          "type": "uint256"
        },
        {
          "indexed": false,
          "internalType": "uint256",
          "name": "_category",
          "type": "uint256"
        }
      ],
      "name": "Claimed",
      "type": "event"
    },
    {
      "anonymous": false,
      "inputs": [
        {
          "indexed": true,
          "internalType": "address",
          "name": "previousOwner",
          "type": "address"
        },
        {
          "indexed": true,
          "internalType": "address",
          "name": "newOwner",
          "type": "address"
        }
      ],
      "name": "OwnershipTransferred",
      "type": "event"
    },
    {
      "anonymous": false,
      "inputs": [
        {
          "indexed": true,
          "internalType": "address",
          "name": "_owner",
          "type": "address"
        },
        {
          "indexed": true,
          "internalType": "address",
          "name": "_tokenAddress",
          "type": "address"
        },
        {
          "indexed": false,
          "internalType": "uint256",
          "name": "_tokenId",
          "type": "uint256"
        },
        {
          "indexed": false,
          "internalType": "uint256",
          "name": "_amount",
          "type": "uint256"
        },
        {
          "indexed": false,
          "internalType": "uint256",
          "name": "_category",
          "type": "uint256"
        }
      ],
      "name": "Recovered",
      "type": "event"
    },
    {
      "anonymous": false,
      "inputs": [
        {
          "indexed": true,
          "internalType": "address",
          "name": "_owner",
          "type": "address"
        },
        {
          "indexed": false,
          "internalType": "address",
          "name": "_tokenAddress",
          "type": "address"
        },
        {
          "indexed": false,
          "internalType": "uint256",
          "name": "_tokenId",
          "type": "uint256"
        },
        {
          "indexed": false,
          "internalType": "uint256",
          "name": "_category",
          "type": "uint256"
        }
      ],
      "name": "TokensAssigned",
      "type": "event"
    },
    {
      "inputs": [
        {
          "internalType": "address",
          "name": "_tokenAddress",
          "type": "address"
        },
        {
          "internalType": "string",
          "name": "_tokenName",
          "type": "string"
        },
        {
          "internalType": "uint256",
          "name": "_category",
          "type": "uint256"
        },
        {
          "internalType": "uint256",
          "name": "_tokenId",
          "type": "uint256"
        },
        {
          "components": [
            {
              "internalType": "uint256",
              "name": "share",
              "type": "uint256"
            },
            {
              "internalType": "uint256",
              "name": "charityId",
              "type": "uint256"
            },
            {
              "internalType": "address[]",
              "name": "nominee",
              "type": "address[]"
            },
            {
              "internalType": "bool[]",
              "name": "isNotAvailable",
              "type": "bool[]"
            },
            {
              "internalType": "bool[]",
              "name": "isClaimed",
              "type": "bool[]"
            },
            {
              "internalType": "bool",
              "name": "isDone",
              "type": "bool"
            }
          ],
          "internalType": "struct MultiplePriorityNominee.MultiplePriority[]",
          "name": "data",
          "type": "tuple[]"
        }
      ],
      "name": "assignTokensToMultipleNominees",
      "outputs": [],
      "stateMutability": "nonpayable",
      "type": "function"
    },
    {
      "inputs": [
        {
          "internalType": "address",
          "name": "_tokenAddress",
          "type": "address"
        },
        {
          "internalType": "uint256",
          "name": "_tokenCharge",
          "type": "uint256"
        },
        {
          "internalType": "uint256",
          "name": "_nftCharge",
          "type": "uint256"
        },
        {
          "internalType": "uint256",
          "name": "_percentage",
          "type": "uint256"
        }
      ],
      "name": "changeCharges",
      "outputs": [],
      "stateMutability": "nonpayable",
      "type": "function"
    },
    {
      "inputs": [],
      "name": "chargeTokenAddress",
      "outputs": [
        {
          "internalType": "address",
          "name": "",
          "type": "address"
        }
      ],
      "stateMutability": "view",
      "type": "function"
    },
    {
      "inputs": [
        {
          "internalType": "address",
          "name": "_owner",
          "type": "address"
        },
        {
          "internalType": "address",
          "name": "_tokenAddress",
          "type": "address"
        },
        {
          "internalType": "uint256",
          "name": "_tokenId",
          "type": "uint256"
        },
        {
          "internalType": "uint256",
          "name": "_category",
          "type": "uint256"
        }
      ],
      "name": "charityClaim",
      "outputs": [],
      "stateMutability": "payable",
      "type": "function"
    },
    {
      "inputs": [],
      "name": "charityContract",
      "outputs": [
        {
          "internalType": "contract CharityContract",
          "name": "",
          "type": "address"
        }
      ],
      "stateMutability": "view",
      "type": "function"
    },
    {
      "inputs": [],
      "name": "charityContractAddress",
      "outputs": [
        {
          "internalType": "address",
          "name": "",
          "type": "address"
        }
      ],
      "stateMutability": "view",
      "type": "function"
    },
    {
      "inputs": [
        {
          "internalType": "address",
          "name": "_owner",
          "type": "address"
        },
        {
          "internalType": "address",
          "name": "_tokenAddress",
          "type": "address"
        },
        {
          "internalType": "uint256",
          "name": "_tokenId",
          "type": "uint256"
        },
        {
          "internalType": "uint256",
          "name": "_category",
          "type": "uint256"
        }
      ],
      "name": "claim",
      "outputs": [],
      "stateMutability": "nonpayable",
      "type": "function"
    },
    {
      "inputs": [],
      "name": "inheritokens",
      "outputs": [
        {
          "internalType": "contract Inheritokens",
          "name": "",
          "type": "address"
        }
      ],
      "stateMutability": "view",
      "type": "function"
    },
    {
      "inputs": [],
      "name": "inheritokensAddress",
      "outputs": [
        {
          "internalType": "address",
          "name": "",
          "type": "address"
        }
      ],
      "stateMutability": "view",
      "type": "function"
    },
    {
      "inputs": [],
      "name": "nftCharge",
      "outputs": [
        {
          "internalType": "uint256",
          "name": "",
          "type": "uint256"
        }
      ],
      "stateMutability": "view",
      "type": "function"
    },
    {
      "inputs": [],
      "name": "owner",
      "outputs": [
        {
          "internalType": "address",
          "name": "",
          "type": "address"
        }
      ],
      "stateMutability": "view",
      "type": "function"
    },
    {
      "inputs": [
        {
          "internalType": "address",
          "name": "",
          "type": "address"
        },
        {
          "internalType": "address",
          "name": "",
          "type": "address"
        },
        {
          "internalType": "uint256",
          "name": "",
          "type": "uint256"
        },
        {
          "internalType": "uint256",
          "name": "",
          "type": "uint256"
        }
      ],
      "name": "ownerToNFTToStruct",
      "outputs": [
        {
          "internalType": "uint256",
          "name": "share",
          "type": "uint256"
        },
        {
          "internalType": "uint256",
          "name": "charityId",
          "type": "uint256"
        },
        {
          "internalType": "bool",
          "name": "isDone",
          "type": "bool"
        }
      ],
      "stateMutability": "view",
      "type": "function"
    },
    {
      "inputs": [
        {
          "internalType": "address",
          "name": "",
          "type": "address"
        },
        {
          "internalType": "address",
          "name": "",
          "type": "address"
        },
        {
          "internalType": "uint256",
          "name": "",
          "type": "uint256"
        }
      ],
      "name": "ownerToTokenToStruct",
      "outputs": [
        {
          "internalType": "uint256",
          "name": "share",
          "type": "uint256"
        },
        {
          "internalType": "uint256",
          "name": "charityId",
          "type": "uint256"
        },
        {
          "internalType": "bool",
          "name": "isDone",
          "type": "bool"
        }
      ],
      "stateMutability": "view",
      "type": "function"
    },
    {
      "inputs": [],
      "name": "percentage",
      "outputs": [
        {
          "internalType": "uint256",
          "name": "",
          "type": "uint256"
        }
      ],
      "stateMutability": "view",
      "type": "function"
    },
    {
      "inputs": [
        {
          "internalType": "address",
          "name": "_owner",
          "type": "address"
        },
        {
          "internalType": "address",
          "name": "_tokenAddress",
          "type": "address"
        },
        {
          "internalType": "uint256",
          "name": "_tokenId",
          "type": "uint256"
        },
        {
          "internalType": "uint256",
          "name": "_category",
          "type": "uint256"
        }
      ],
      "name": "recoveryClaim",
      "outputs": [],
      "stateMutability": "nonpayable",
      "type": "function"
    },
    {
      "inputs": [],
      "name": "renounceOwnership",
      "outputs": [],
      "stateMutability": "nonpayable",
      "type": "function"
    },
    {
      "inputs": [],
      "name": "tokenCharge",
      "outputs": [
        {
          "internalType": "uint256",
          "name": "",
          "type": "uint256"
        }
      ],
      "stateMutability": "view",
      "type": "function"
    },
    {
      "inputs": [
        {
          "internalType": "address",
          "name": "newOwner",
          "type": "address"
        }
      ],
      "name": "transferOwnership",
      "outputs": [],
      "stateMutability": "nonpayable",
      "type": "function"
    },
    {
      "inputs": [
        {
          "internalType": "uint256",
          "name": "_amount",
          "type": "uint256"
        },
        {
          "internalType": "address",
          "name": "_tokenAddress",
          "type": "address"
        }
      ],
      "name": "withdrawFromContract",
      "outputs": [],
      "stateMutability": "payable",
      "type": "function"
    }
  ],
  "bytecode": "0x6080604052620f4240600555624c4b40600655600160075573e9dce89b076ba6107bb64ef30678efec11939234600860006101000a81548173ffffffffffffffffffffffffffffffffffffffff021916908373ffffffffffffffffffffffffffffffffffffffff1602179055503480156200007957600080fd5b5060405162005e4f38038062005e4f83398181016040528101906200009f919062000345565b620000bf620000b36200020f60201b60201c565b6200021760201b60201c565b81600160006101000a81548173ffffffffffffffffffffffffffffffffffffffff021916908373ffffffffffffffffffffffffffffffffffffffff160217905550600160009054906101000a900473ffffffffffffffffffffffffffffffffffffffff16600260006101000a81548173ffffffffffffffffffffffffffffffffffffffff021916908373ffffffffffffffffffffffffffffffffffffffff16021790555080600360006101000a81548173ffffffffffffffffffffffffffffffffffffffff021916908373ffffffffffffffffffffffffffffffffffffffff160217905550600360009054906101000a900473ffffffffffffffffffffffffffffffffffffffff16600460006101000a81548173ffffffffffffffffffffffffffffffffffffffff021916908373ffffffffffffffffffffffffffffffffffffffff16021790555050506200038c565b600033905090565b60008060009054906101000a900473ffffffffffffffffffffffffffffffffffffffff169050816000806101000a81548173ffffffffffffffffffffffffffffffffffffffff021916908373ffffffffffffffffffffffffffffffffffffffff1602179055508173ffffffffffffffffffffffffffffffffffffffff168173ffffffffffffffffffffffffffffffffffffffff167f8be0079c531659141344cd1fd0a4f28419497f9722a3daafe3b4186f6b6457e060405160405180910390a35050565b600080fd5b600073ffffffffffffffffffffffffffffffffffffffff82169050919050565b60006200030d82620002e0565b9050919050565b6200031f8162000300565b81146200032b57600080fd5b50565b6000815190506200033f8162000314565b92915050565b600080604083850312156200035f576200035e620002db565b5b60006200036f858286016200032e565b925050602062000382858286016200032e565b9150509250929050565b615ab3806200039c6000396000f3fe6080604052600436106101145760003560e01c80639605f505116100a0578063c407695b11610064578063c407695b14610361578063c78ad77f1461038c578063f1d8eefc146103b7578063f2fde38b146103e2578063f4cd54651461040b57610114565b80639605f505146102715780639b2520231461028d578063a64ad61f146102b8578063be27c3fe146102f7578063bea7d6ac1461032257610114565b806346f17152116100e757806346f17152146101b05780634ab3a732146101db5780635c042ae714610204578063715018a61461022f5780638da5cb5b1461024657610114565b80630135ef0c1461011957806303cd4248146101425780631a2411651461016b57806326af483214610187575b600080fd5b34801561012557600080fd5b50610140600480360381019061013b919061444d565b610436565b005b34801561014e57600080fd5b5061016960048036038101906101649190614500565b611348565b005b61018560048036038101906101809190614567565b6113ac565b005b34801561019357600080fd5b506101ae60048036038101906101a99190614567565b61238c565b005b3480156101bc57600080fd5b506101c5612fce565b6040516101d291906145dd565b60405180910390f35b3480156101e757600080fd5b5061020260048036038101906101fd9190614567565b612ff4565b005b34801561021057600080fd5b506102196133b9565b60405161022691906145dd565b60405180910390f35b34801561023b57600080fd5b506102446133df565b005b34801561025257600080fd5b5061025b6133f3565b60405161026891906145dd565b60405180910390f35b61028b600480360381019061028691906145f8565b61341c565b005b34801561029957600080fd5b506102a26134ad565b6040516102af9190614647565b60405180910390f35b3480156102c457600080fd5b506102df60048036038101906102da9190614567565b6134b3565b6040516102ee93929190614671565b60405180910390f35b34801561030357600080fd5b5061030c613521565b6040516103199190614707565b60405180910390f35b34801561032e57600080fd5b5061034960048036038101906103449190614722565b613547565b60405161035893929190614671565b60405180910390f35b34801561036d57600080fd5b506103766135a8565b6040516103839190614647565b60405180910390f35b34801561039857600080fd5b506103a16135ae565b6040516103ae9190614647565b60405180910390f35b3480156103c357600080fd5b506103cc6135b4565b6040516103d991906145dd565b60405180910390f35b3480156103ee57600080fd5b5061040960048036038101906104049190614775565b6135da565b005b34801561041757600080fd5b5061042061365d565b60405161042d91906147c3565b60405180910390f35b600260009054906101000a900473ffffffffffffffffffffffffffffffffffffffff1673ffffffffffffffffffffffffffffffffffffffff16630f1f8c05336040518263ffffffff1660e01b815260040161049191906145dd565b602060405180830381865afa1580156104ae573d6000803e3d6000fd5b505050506040513d601f19601f820116820180604052508101906104d291906147f3565b610511576040517f08c379a0000000000000000000000000000000000000000000000000000000008152600401610508906148a3565b60405180910390fd5b600260009054906101000a900473ffffffffffffffffffffffffffffffffffffffff1673ffffffffffffffffffffffffffffffffffffffff166315b79630336040518263ffffffff1660e01b815260040161056c91906145dd565b602060405180830381865afa158015610589573d6000803e3d6000fd5b505050506040513d601f19601f820116820180604052508101906105ad91906147f3565b6105ec576040517f08c379a00000000000000000000000000000000000000000000000000000000081526004016105e39061495b565b60405180910390fd5b6000600260009054906101000a900473ffffffffffffffffffffffffffffffffffffffff1673ffffffffffffffffffffffffffffffffffffffff166320e4ab6a336040518263ffffffff1660e01b815260040161064991906145dd565b600060405180830381865afa158015610666573d6000803e3d6000fd5b505050506040513d6000823e3d601f19601f8201168201806040525081019061068f9190614a27565b9050600080600260009054906101000a900473ffffffffffffffffffffffffffffffffffffffff1673ffffffffffffffffffffffffffffffffffffffff166345bceabd336040518263ffffffff1660e01b81526004016106ef91906145dd565b600060405180830381865afa15801561070c573d6000803e3d6000fd5b505050506040513d6000823e3d601f19601f820116820180604052508101906107359190614b48565b9050600080600090505b85518110156109415760005b86828151811061075e5761075d614b91565b5b6020026020010151604001515181101561087e576000945060005b86518110156108235786818151811061079557610794614b91565b5b602002602001015173ffffffffffffffffffffffffffffffffffffffff168884815181106107c6576107c5614b91565b5b60200260200101516040015183815181106107e4576107e3614b91565b5b602002602001015173ffffffffffffffffffffffffffffffffffffffff16036108105760019550610823565b808061081b90614bef565b915050610779565b50600015158515150361086b576040517f08c379a000000000000000000000000000000000000000000000000000000000815260040161086290614ccf565b60405180910390fd5b808061087690614bef565b91505061074b565b5060005b835181101561092d5783818151811061089e5761089d614b91565b5b60200260200101518783815181106108b9576108b8614b91565b5b602002602001015160200151036108d3576001925061092d565b600015158315150361091a576040517f08c379a000000000000000000000000000000000000000000000000000000000815260040161091190614d87565b60405180910390fd5b808061092590614bef565b915050610882565b50808061093990614bef565b91505061073f565b506000600260009054906101000a900473ffffffffffffffffffffffffffffffffffffffff1673ffffffffffffffffffffffffffffffffffffffff1663de508c5b338c6040518363ffffffff1660e01b81526004016109a1929190614da7565b600060405180830381865afa1580156109be573d6000803e3d6000fd5b505050506040513d6000823e3d601f19601f820116820180604052508101906109e79190614e6a565b909192939450909192935090919250909150905080915050600080600090505b8751811015610a4f57878181518110610a2357610a22614b91565b5b60200260200101516000015182610a3a9190614f13565b91508080610a4790614bef565b915050610a07565b506064811115610a94576040517f08c379a0000000000000000000000000000000000000000000000000000000008152600401610a8b90614fdf565b60405180910390fd5b81610b3557600260009054906101000a900473ffffffffffffffffffffffffffffffffffffffff1673ffffffffffffffffffffffffffffffffffffffff166325cb763a338d8d8d868e6040518763ffffffff1660e01b8152600401610afe96959493929190615043565b600060405180830381600087803b158015610b1857600080fd5b505af1158015610b2c573d6000803e3d6000fd5b50505050610f5b565b6000600860009054906101000a900473ffffffffffffffffffffffffffffffffffffffff16905060008a03610d34576005548173ffffffffffffffffffffffffffffffffffffffff1663dd62ed3e33306040518363ffffffff1660e01b8152600401610ba2929190614da7565b602060405180830381865afa158015610bbf573d6000803e3d6000fd5b505050506040513d601f19601f82011682018060405250810190610be391906150ab565b1015610c24576040517f08c379a0000000000000000000000000000000000000000000000000000000008152600401610c1b9061514a565b60405180910390fd5b8073ffffffffffffffffffffffffffffffffffffffff166323b872dd33306005546040518463ffffffff1660e01b8152600401610c639392919061516a565b6020604051808303816000875af1158015610c82573d6000803e3d6000fd5b505050506040513d601f19601f82011682018060405250810190610ca691906147f3565b50600960003373ffffffffffffffffffffffffffffffffffffffff1673ffffffffffffffffffffffffffffffffffffffff16815260200190815260200160002060008d73ffffffffffffffffffffffffffffffffffffffff1673ffffffffffffffffffffffffffffffffffffffff1681526020019081526020016000206000610d2f9190613c98565b610f59565b60018a03610f1d576006548173ffffffffffffffffffffffffffffffffffffffff1663dd62ed3e33306040518363ffffffff1660e01b8152600401610d7a929190614da7565b602060405180830381865afa158015610d97573d6000803e3d6000fd5b505050506040513d601f19601f82011682018060405250810190610dbb91906150ab565b1015610dfc576040517f08c379a0000000000000000000000000000000000000000000000000000000008152600401610df39061514a565b60405180910390fd5b8073ffffffffffffffffffffffffffffffffffffffff166323b872dd33306006546040518463ffffffff1660e01b8152600401610e3b9392919061516a565b6020604051808303816000875af1158015610e5a573d6000803e3d6000fd5b505050506040513d601f19601f82011682018060405250810190610e7e91906147f3565b50600a60003373ffffffffffffffffffffffffffffffffffffffff1673ffffffffffffffffffffffffffffffffffffffff16815260200190815260200160002060008d73ffffffffffffffffffffffffffffffffffffffff1673ffffffffffffffffffffffffffffffffffffffff16815260200190815260200160002060008a81526020019081526020016000206000610f189190613c98565b610f58565b6040517f08c379a0000000000000000000000000000000000000000000000000000000008152600401610f4f90615213565b60405180910390fd5b5b505b600260009054906101000a900473ffffffffffffffffffffffffffffffffffffffff1673ffffffffffffffffffffffffffffffffffffffff1663b69bd77f338d8b858e6040518663ffffffff1660e01b8152600401610fbe959493929190615233565b600060405180830381600087803b158015610fd857600080fd5b505af1158015610fec573d6000803e3d6000fd5b505050506000890361116a5760005b875181101561116457600960003373ffffffffffffffffffffffffffffffffffffffff1673ffffffffffffffffffffffffffffffffffffffff16815260200190815260200160002060008d73ffffffffffffffffffffffffffffffffffffffff1673ffffffffffffffffffffffffffffffffffffffff16815260200190815260200160002088828151811061109357611092614b91565b5b60200260200101519080600181540180825580915050600190039060005260206000209060060201600090919091909150600082015181600001556020820151816001015560408201518160020190805190602001906110f4929190613cbc565b506060820151816003019080519060200190611111929190613d46565b50608082015181600401908051906020019061112e929190613d46565b5060a08201518160050160006101000a81548160ff0219169083151502179055505050808061115c90614bef565b915050610ffb565b506112e9565b60005b87518110156112e757600a60003373ffffffffffffffffffffffffffffffffffffffff1673ffffffffffffffffffffffffffffffffffffffff16815260200190815260200160002060008d73ffffffffffffffffffffffffffffffffffffffff1673ffffffffffffffffffffffffffffffffffffffff16815260200190815260200160002060008a815260200190815260200160002088828151811061121657611215614b91565b5b6020026020010151908060018154018082558091505060019003906000526020600020906006020160009091909190915060008201518160000155602082015181600101556040820151816002019080519060200190611277929190613cbc565b506060820151816003019080519060200190611294929190613d46565b5060808201518160040190805190602001906112b1929190613d46565b5060a08201518160050160006101000a81548160ff021916908315150217905550505080806112df90614bef565b91505061116d565b505b3373ffffffffffffffffffffffffffffffffffffffff167f356b94cb07d152dfb4f8876f9a6f4c7007027dd30aecb0ac9b698849e14e0e718c8a8c60405161133393929190615286565b60405180910390a25050505050505050505050565b611350613683565b83600860006101000a81548173ffffffffffffffffffffffffffffffffffffffff021916908373ffffffffffffffffffffffffffffffffffffffff16021790555082600581905550816006819055508060078190555050505050565b6000600260009054906101000a900473ffffffffffffffffffffffffffffffffffffffff1673ffffffffffffffffffffffffffffffffffffffff166345bceabd866040518263ffffffff1660e01b815260040161140991906145dd565b600060405180830381865afa158015611426573d6000803e3d6000fd5b505050506040513d6000823e3d601f19601f8201168201806040525081019061144f9190614b48565b90506000808303611cb95760005b600960008873ffffffffffffffffffffffffffffffffffffffff1673ffffffffffffffffffffffffffffffffffffffff16815260200190815260200160002060008773ffffffffffffffffffffffffffffffffffffffff1673ffffffffffffffffffffffffffffffffffffffff16815260200190815260200160002080549050811015611cb35760001515600960008973ffffffffffffffffffffffffffffffffffffffff1673ffffffffffffffffffffffffffffffffffffffff16815260200190815260200160002060008873ffffffffffffffffffffffffffffffffffffffff1673ffffffffffffffffffffffffffffffffffffffff168152602001908152602001600020828154811061157657611575614b91565b5b906000526020600020906006020160050160009054906101000a900460ff16151503611ca05760005b600960008973ffffffffffffffffffffffffffffffffffffffff1673ffffffffffffffffffffffffffffffffffffffff16815260200190815260200160002060008873ffffffffffffffffffffffffffffffffffffffff1673ffffffffffffffffffffffffffffffffffffffff168152602001908152602001600020828154811061162d5761162c614b91565b5b9060005260206000209060060201600301805490508110156118545760001515600960008a73ffffffffffffffffffffffffffffffffffffffff1673ffffffffffffffffffffffffffffffffffffffff16815260200190815260200160002060008973ffffffffffffffffffffffffffffffffffffffff1673ffffffffffffffffffffffffffffffffffffffff16815260200190815260200160002083815481106116db576116da614b91565b5b906000526020600020906006020160030182815481106116fe576116fd614b91565b5b90600052602060002090602091828204019190069054906101000a900460ff161515148015611801575060011515600960008a73ffffffffffffffffffffffffffffffffffffffff1673ffffffffffffffffffffffffffffffffffffffff16815260200190815260200160002060008973ffffffffffffffffffffffffffffffffffffffff1673ffffffffffffffffffffffffffffffffffffffff16815260200190815260200160002083815481106117ba576117b9614b91565b5b906000526020600020906006020160040182815481106117dd576117dc614b91565b5b90600052602060002090602091828204019190069054906101000a900460ff161515145b15611841576040517f08c379a000000000000000000000000000000000000000000000000000000000815260040161183890615355565b60405180910390fd5b808061184c90614bef565b91505061159f565b5060005b8351811015611c9e57600460009054906101000a900473ffffffffffffffffffffffffffffffffffffffff1673ffffffffffffffffffffffffffffffffffffffff16637f3d39bd8583815181106118b2576118b1614b91565b5b60200260200101516040518263ffffffff1660e01b81526004016118d69190614647565b600060405180830381865afa1580156118f3573d6000803e3d6000fd5b505050506040513d6000823e3d601f19601f8201168201806040525081019061191c9190615375565b9091929350909150905050809350503373ffffffffffffffffffffffffffffffffffffffff168373ffffffffffffffffffffffffffffffffffffffff1603611c8b576000600960008a73ffffffffffffffffffffffffffffffffffffffff1673ffffffffffffffffffffffffffffffffffffffff16815260200190815260200160002060008973ffffffffffffffffffffffffffffffffffffffff1673ffffffffffffffffffffffffffffffffffffffff16815260200190815260200160002083815481106119ee576119ed614b91565b5b9060005260206000209060060201600001549050600088905060006064838373ffffffffffffffffffffffffffffffffffffffff166370a082318e6040518263ffffffff1660e01b8152600401611a4591906145dd565b602060405180830381865afa158015611a62573d6000803e3d6000fd5b505050506040513d601f19601f82011682018060405250810190611a8691906150ab565b611a909190615444565b611a9a91906154b5565b9050600061271060075483611aaf9190615444565b611ab991906154b5565b905060008183611ac991906154e6565b90508373ffffffffffffffffffffffffffffffffffffffff166323b872dd8e30856040518463ffffffff1660e01b8152600401611b089392919061516a565b6020604051808303816000875af1158015611b27573d6000803e3d6000fd5b505050506040513d601f19601f82011682018060405250810190611b4b91906147f3565b508373ffffffffffffffffffffffffffffffffffffffff166323b872dd8e33846040518463ffffffff1660e01b8152600401611b899392919061516a565b6020604051808303816000875af1158015611ba8573d6000803e3d6000fd5b505050506040513d601f19601f82011682018060405250810190611bcc91906147f3565b506001600960008f73ffffffffffffffffffffffffffffffffffffffff1673ffffffffffffffffffffffffffffffffffffffff16815260200190815260200160002060008e73ffffffffffffffffffffffffffffffffffffffff1673ffffffffffffffffffffffffffffffffffffffff1681526020019081526020016000208881548110611c5d57611c5c614b91565b5b906000526020600020906006020160050160006101000a81548160ff02191690831515021790555050505050505b8080611c9690614bef565b915050611858565b505b8080611cab90614bef565b91505061145d565b50612384565b600183036123835760005b600a60008873ffffffffffffffffffffffffffffffffffffffff1673ffffffffffffffffffffffffffffffffffffffff16815260200190815260200160002060008773ffffffffffffffffffffffffffffffffffffffff1673ffffffffffffffffffffffffffffffffffffffff1681526020019081526020016000206000868152602001908152602001600020805490508110156123815760001515600a60008973ffffffffffffffffffffffffffffffffffffffff1673ffffffffffffffffffffffffffffffffffffffff16815260200190815260200160002060008873ffffffffffffffffffffffffffffffffffffffff1673ffffffffffffffffffffffffffffffffffffffff16815260200190815260200160002060008781526020019081526020016000208281548110611dff57611dfe614b91565b5b906000526020600020906006020160050160009054906101000a900460ff1615150361236e5760005b600a60008973ffffffffffffffffffffffffffffffffffffffff1673ffffffffffffffffffffffffffffffffffffffff16815260200190815260200160002060008873ffffffffffffffffffffffffffffffffffffffff1673ffffffffffffffffffffffffffffffffffffffff16815260200190815260200160002060008781526020019081526020016000208281548110611ec757611ec6614b91565b5b9060005260206000209060060201600301805490508110156121105760001515600a60008a73ffffffffffffffffffffffffffffffffffffffff1673ffffffffffffffffffffffffffffffffffffffff16815260200190815260200160002060008973ffffffffffffffffffffffffffffffffffffffff1673ffffffffffffffffffffffffffffffffffffffff16815260200190815260200160002060008881526020019081526020016000208381548110611f8657611f85614b91565b5b90600052602060002090600602016003018281548110611fa957611fa8614b91565b5b90600052602060002090602091828204019190069054906101000a900460ff1615151480156120bd575060011515600a60008a73ffffffffffffffffffffffffffffffffffffffff1673ffffffffffffffffffffffffffffffffffffffff16815260200190815260200160002060008973ffffffffffffffffffffffffffffffffffffffff1673ffffffffffffffffffffffffffffffffffffffff1681526020019081526020016000206000888152602001908152602001600020838154811061207657612075614b91565b5b9060005260206000209060060201600401828154811061209957612098614b91565b5b90600052602060002090602091828204019190069054906101000a900460ff161515145b156120fd576040517f08c379a00000000000000000000000000000000000000000000000000000000081526004016120f490615355565b60405180910390fd5b808061210890614bef565b915050611e28565b5060005b835181101561236c57600460009054906101000a900473ffffffffffffffffffffffffffffffffffffffff1673ffffffffffffffffffffffffffffffffffffffff16637f3d39bd85838151811061216e5761216d614b91565b5b60200260200101516040518263ffffffff1660e01b81526004016121929190614647565b600060405180830381865afa1580156121af573d6000803e3d6000fd5b505050506040513d6000823e3d601f19601f820116820180604052508101906121d89190615375565b9091929350909150905050809350503373ffffffffffffffffffffffffffffffffffffffff168373ffffffffffffffffffffffffffffffffffffffff16036123595760008790508073ffffffffffffffffffffffffffffffffffffffff166323b872dd8a338a6040518463ffffffff1660e01b815260040161225c9392919061516a565b600060405180830381600087803b15801561227657600080fd5b505af115801561228a573d6000803e3d6000fd5b505050506001600a60008b73ffffffffffffffffffffffffffffffffffffffff1673ffffffffffffffffffffffffffffffffffffffff16815260200190815260200160002060008a73ffffffffffffffffffffffffffffffffffffffff1673ffffffffffffffffffffffffffffffffffffffff1681526020019081526020016000206000898152602001908152602001600020848154811061232f5761232e614b91565b5b906000526020600020906006020160050160006101000a81548160ff021916908315150217905550505b808061236490614bef565b915050612114565b505b808061237990614bef565b915050611cc4565b505b5b505050505050565b6000600260009054906101000a900473ffffffffffffffffffffffffffffffffffffffff1673ffffffffffffffffffffffffffffffffffffffff16633d4c12d7866040518263ffffffff1660e01b81526004016123e991906145dd565b602060405180830381865afa158015612406573d6000803e3d6000fd5b505050506040513d601f19601f8201168201806040525081019061242a91906147f3565b90508061246c576040517f08c379a00000000000000000000000000000000000000000000000000000000081526004016124639061558c565b60405180910390fd5b6000600260009054906101000a900473ffffffffffffffffffffffffffffffffffffffff1673ffffffffffffffffffffffffffffffffffffffff166320e4ab6a876040518263ffffffff1660e01b81526004016124c991906145dd565b600060405180830381865afa1580156124e6573d6000803e3d6000fd5b505050506040513d6000823e3d601f19601f8201168201806040525081019061250f9190614a27565b9050600080600090505b8251811015612fc4573373ffffffffffffffffffffffffffffffffffffffff1683828151811061254c5761254b614b91565b5b602002602001015173ffffffffffffffffffffffffffffffffffffffff1603612f315760008503612a415760005b600960008a73ffffffffffffffffffffffffffffffffffffffff1673ffffffffffffffffffffffffffffffffffffffff16815260200190815260200160002060008973ffffffffffffffffffffffffffffffffffffffff1673ffffffffffffffffffffffffffffffffffffffff16815260200190815260200160002080549050811015612a3b5760005b600960008b73ffffffffffffffffffffffffffffffffffffffff1673ffffffffffffffffffffffffffffffffffffffff16815260200190815260200160002060008a73ffffffffffffffffffffffffffffffffffffffff1673ffffffffffffffffffffffffffffffffffffffff168152602001908152602001600020828154811061269257612691614b91565b5b906000526020600020906006020160020180549050811015612a27578483815181106126c1576126c0614b91565b5b602002602001015173ffffffffffffffffffffffffffffffffffffffff16600960008c73ffffffffffffffffffffffffffffffffffffffff1673ffffffffffffffffffffffffffffffffffffffff16815260200190815260200160002060008b73ffffffffffffffffffffffffffffffffffffffff1673ffffffffffffffffffffffffffffffffffffffff168152602001908152602001600020838154811061276d5761276c614b91565b5b906000526020600020906006020160020182815481106127905761278f614b91565b5b9060005260206000200160009054906101000a900473ffffffffffffffffffffffffffffffffffffffff1673ffffffffffffffffffffffffffffffffffffffff1603612a1457600081036127f1576127ea82828b8d613701565b9350612a27565b60011515600960008c73ffffffffffffffffffffffffffffffffffffffff1673ffffffffffffffffffffffffffffffffffffffff16815260200190815260200160002060008b73ffffffffffffffffffffffffffffffffffffffff1673ffffffffffffffffffffffffffffffffffffffff168152602001908152602001600020838154811061288357612882614b91565b5b90600052602060002090600602016003016001836128a191906154e6565b815481106128b2576128b1614b91565b5b90600052602060002090602091828204019190069054906101000a900460ff1615151480156129c1575060001515600960008c73ffffffffffffffffffffffffffffffffffffffff1673ffffffffffffffffffffffffffffffffffffffff16815260200190815260200160002060008b73ffffffffffffffffffffffffffffffffffffffff1673ffffffffffffffffffffffffffffffffffffffff168152602001908152602001600020838154811061296e5761296d614b91565b5b906000526020600020906006020160040160018361298c91906154e6565b8154811061299d5761299c614b91565b5b90600052602060002090602091828204019190069054906101000a900460ff161515145b156129d9576129d282828b8d613701565b9350612a27565b6040517f08c379a0000000000000000000000000000000000000000000000000000000008152600401612a0b90615644565b60405180910390fd5b8080612a1f90614bef565b915050612604565b508080612a3390614bef565b91505061257a565b50612f30565b60018503612f2f5760005b600960008a73ffffffffffffffffffffffffffffffffffffffff1673ffffffffffffffffffffffffffffffffffffffff16815260200190815260200160002060008973ffffffffffffffffffffffffffffffffffffffff1673ffffffffffffffffffffffffffffffffffffffff16815260200190815260200160002080549050811015612f2d5760005b600a60008b73ffffffffffffffffffffffffffffffffffffffff1673ffffffffffffffffffffffffffffffffffffffff16815260200190815260200160002060008a73ffffffffffffffffffffffffffffffffffffffff1673ffffffffffffffffffffffffffffffffffffffff16815260200190815260200160002060008981526020019081526020016000208281548110612b7557612b74614b91565b5b906000526020600020906006020160020180549050811015612f1957848381518110612ba457612ba3614b91565b5b602002602001015173ffffffffffffffffffffffffffffffffffffffff16600a60008c73ffffffffffffffffffffffffffffffffffffffff1673ffffffffffffffffffffffffffffffffffffffff16815260200190815260200160002060008b73ffffffffffffffffffffffffffffffffffffffff1673ffffffffffffffffffffffffffffffffffffffff16815260200190815260200160002060008a81526020019081526020016000208381548110612c6157612c60614b91565b5b90600052602060002090600602016002018281548110612c8457612c83614b91565b5b9060005260206000200160009054906101000a900473ffffffffffffffffffffffffffffffffffffffff1673ffffffffffffffffffffffffffffffffffffffff1603612f065760008103612ce457612cdf82838a8c8e613a63565b612f19565b60011515600960008c73ffffffffffffffffffffffffffffffffffffffff1673ffffffffffffffffffffffffffffffffffffffff16815260200190815260200160002060008b73ffffffffffffffffffffffffffffffffffffffff1673ffffffffffffffffffffffffffffffffffffffff1681526020019081526020016000208381548110612d7657612d75614b91565b5b9060005260206000209060060201600301600183612d9491906154e6565b81548110612da557612da4614b91565b5b90600052602060002090602091828204019190069054906101000a900460ff161515148015612eb4575060001515600960008c73ffffffffffffffffffffffffffffffffffffffff1673ffffffffffffffffffffffffffffffffffffffff16815260200190815260200160002060008b73ffffffffffffffffffffffffffffffffffffffff1673ffffffffffffffffffffffffffffffffffffffff1681526020019081526020016000208381548110612e6157612e60614b91565b5b9060005260206000209060060201600401600183612e7f91906154e6565b81548110612e9057612e8f614b91565b5b90600052602060002090602091828204019190069054906101000a900460ff161515145b15612ecb57612ec682838a8c8e613a63565b612f19565b6040517f08c379a0000000000000000000000000000000000000000000000000000000008152600401612efd90615644565b60405180910390fd5b8080612f1190614bef565b915050612ad6565b508080612f2590614bef565b915050612a4c565b505b5b5b8673ffffffffffffffffffffffffffffffffffffffff163373ffffffffffffffffffffffffffffffffffffffff168973ffffffffffffffffffffffffffffffffffffffff167f5ccac6a981ee0d2404d2487672d204c80cc526da4f51e90dd5ae4cfe880a9add89868a604051612fa993929190615664565b60405180910390a48080612fbc90614bef565b915050612519565b5050505050505050565b600160009054906101000a900473ffffffffffffffffffffffffffffffffffffffff1681565b3373ffffffffffffffffffffffffffffffffffffffff16600260009054906101000a900473ffffffffffffffffffffffffffffffffffffffff1673ffffffffffffffffffffffffffffffffffffffff1663c3bb8121866040518263ffffffff1660e01b815260040161306691906145dd565b600060405180830381865afa158015613083573d6000803e3d6000fd5b505050506040513d6000823e3d601f19601f820116820180604052508101906130ac919061587b565b60e0015173ffffffffffffffffffffffffffffffffffffffff1614613106576040517f08c379a00000000000000000000000000000000000000000000000000000000081526004016130fd90615936565b60405180910390fd5b60008082036132c95760008490508073ffffffffffffffffffffffffffffffffffffffff166370a08231876040518263ffffffff1660e01b815260040161314d91906145dd565b602060405180830381865afa15801561316a573d6000803e3d6000fd5b505050506040513d601f19601f8201168201806040525081019061318e91906150ab565b91506000612710600754846131a39190615444565b6131ad91906154b5565b9050600081846131bd91906154e6565b90508273ffffffffffffffffffffffffffffffffffffffff166323b872dd8930856040518463ffffffff1660e01b81526004016131fc9392919061516a565b6020604051808303816000875af115801561321b573d6000803e3d6000fd5b505050506040513d601f19601f8201168201806040525081019061323f91906147f3565b508273ffffffffffffffffffffffffffffffffffffffff166323b872dd8933846040518463ffffffff1660e01b815260040161327d9392919061516a565b6020604051808303816000875af115801561329c573d6000803e3d6000fd5b505050506040513d601f19601f820116820180604052508101906132c091906147f3565b50505050613349565b60008311156133485760008490508073ffffffffffffffffffffffffffffffffffffffff166323b872dd8733876040518463ffffffff1660e01b81526004016133149392919061516a565b600060405180830381600087803b15801561332e57600080fd5b505af1158015613342573d6000803e3d6000fd5b50505050505b5b8373ffffffffffffffffffffffffffffffffffffffff168573ffffffffffffffffffffffffffffffffffffffff167faa3446f866f557932f6c5a4933379c0e3e3fd6dcc0a20cfae5222255ffd16bdd8584866040516133aa93929190615664565b60405180910390a35050505050565b600860009054906101000a900473ffffffffffffffffffffffffffffffffffffffff1681565b6133e7613683565b6133f16000613bcc565b565b60008060009054906101000a900473ffffffffffffffffffffffffffffffffffffffff16905090565b613424613683565b60008190508073ffffffffffffffffffffffffffffffffffffffff1663a9059cbb33856040518363ffffffff1660e01b8152600401613464929190615956565b6020604051808303816000875af1158015613483573d6000803e3d6000fd5b505050506040513d601f19601f820116820180604052508101906134a791906147f3565b50505050565b60055481565b600a60205283600052604060002060205282600052604060002060205281600052604060002081815481106134e757600080fd5b90600052602060002090600602016000935093505050508060000154908060010154908060050160009054906101000a900460ff16905083565b600260009054906101000a900473ffffffffffffffffffffffffffffffffffffffff1681565b6009602052826000526040600020602052816000526040600020818154811061356f57600080fd5b906000526020600020906006020160009250925050508060000154908060010154908060050160009054906101000a900460ff16905083565b60065481565b60075481565b600360009054906101000a900473ffffffffffffffffffffffffffffffffffffffff1681565b6135e2613683565b600073ffffffffffffffffffffffffffffffffffffffff168173ffffffffffffffffffffffffffffffffffffffff1603613651576040517f08c379a0000000000000000000000000000000000000000000000000000000008152600401613648906159f1565b60405180910390fd5b61365a81613bcc565b50565b600460009054906101000a900473ffffffffffffffffffffffffffffffffffffffff1681565b61368b613c90565b73ffffffffffffffffffffffffffffffffffffffff166136a96133f3565b73ffffffffffffffffffffffffffffffffffffffff16146136ff576040517f08c379a00000000000000000000000000000000000000000000000000000000081526004016136f690615a5d565b60405180910390fd5b565b600080600960008473ffffffffffffffffffffffffffffffffffffffff1673ffffffffffffffffffffffffffffffffffffffff16815260200190815260200160002060008573ffffffffffffffffffffffffffffffffffffffff1673ffffffffffffffffffffffffffffffffffffffff168152602001908152602001600020868154811061379257613791614b91565b5b90600052602060002090600602016000015490506001600960008573ffffffffffffffffffffffffffffffffffffffff1673ffffffffffffffffffffffffffffffffffffffff16815260200190815260200160002060008673ffffffffffffffffffffffffffffffffffffffff1673ffffffffffffffffffffffffffffffffffffffff168152602001908152602001600020878154811061383657613835614b91565b5b9060005260206000209060060201600401868154811061385957613858614b91565b5b90600052602060002090602091828204019190066101000a81548160ff021916908315150217905550600084905060008173ffffffffffffffffffffffffffffffffffffffff166370a08231866040518263ffffffff1660e01b81526004016138c291906145dd565b602060405180830381865afa1580156138df573d6000803e3d6000fd5b505050506040513d601f19601f8201168201806040525081019061390391906150ab565b90506000606484836139159190615444565b61391f91906154b5565b90506000612710600754836139349190615444565b61393e91906154b5565b90506000818361394e91906154e6565b90508473ffffffffffffffffffffffffffffffffffffffff166323b872dd8930856040518463ffffffff1660e01b815260040161398d9392919061516a565b6020604051808303816000875af11580156139ac573d6000803e3d6000fd5b505050506040513d601f19601f820116820180604052508101906139d091906147f3565b508473ffffffffffffffffffffffffffffffffffffffff166323b872dd8933846040518463ffffffff1660e01b8152600401613a0e9392919061516a565b6020604051808303816000875af1158015613a2d573d6000803e3d6000fd5b505050506040513d601f19601f82011682018060405250810190613a5191906147f3565b50809650505050505050949350505050565b60008290508073ffffffffffffffffffffffffffffffffffffffff166323b872dd8333876040518463ffffffff1660e01b8152600401613aa59392919061516a565b600060405180830381600087803b158015613abf57600080fd5b505af1158015613ad3573d6000803e3d6000fd5b505050506001600a60008473ffffffffffffffffffffffffffffffffffffffff1673ffffffffffffffffffffffffffffffffffffffff16815260200190815260200160002060008573ffffffffffffffffffffffffffffffffffffffff1673ffffffffffffffffffffffffffffffffffffffff16815260200190815260200160002060008681526020019081526020016000208781548110613b7857613b77614b91565b5b90600052602060002090600602016004018681548110613b9b57613b9a614b91565b5b90600052602060002090602091828204019190066101000a81548160ff021916908315150217905550505050505050565b60008060009054906101000a900473ffffffffffffffffffffffffffffffffffffffff169050816000806101000a81548173ffffffffffffffffffffffffffffffffffffffff021916908373ffffffffffffffffffffffffffffffffffffffff1602179055508173ffffffffffffffffffffffffffffffffffffffff168173ffffffffffffffffffffffffffffffffffffffff167f8be0079c531659141344cd1fd0a4f28419497f9722a3daafe3b4186f6b6457e060405160405180910390a35050565b600033905090565b5080546000825560060290600052602060002090810190613cb99190613dec565b50565b828054828255906000526020600020908101928215613d35579160200282015b82811115613d345782518260006101000a81548173ffffffffffffffffffffffffffffffffffffffff021916908373ffffffffffffffffffffffffffffffffffffffff16021790555091602001919060010190613cdc565b5b509050613d429190613e57565b5090565b82805482825590600052602060002090601f01602090048101928215613ddb5791602002820160005b83821115613dac57835183826101000a81548160ff0219169083151502179055509260200192600101602081600001049283019260010302613d6f565b8015613dd95782816101000a81549060ff0219169055600101602081600001049283019260010302613dac565b505b509050613de89190613e57565b5090565b5b80821115613e53576000808201600090556001820160009055600282016000613e169190613e74565b600382016000613e269190613e95565b600482016000613e369190613e95565b6005820160006101000a81549060ff021916905550600601613ded565b5090565b5b80821115613e70576000816000905550600101613e58565b5090565b5080546000825590600052602060002090810190613e929190613e57565b50565b50805460008255601f016020900490600052602060002090810190613eba9190613e57565b50565b6000604051905090565b600080fd5b600080fd5b600073ffffffffffffffffffffffffffffffffffffffff82169050919050565b6000613efc82613ed1565b9050919050565b613f0c81613ef1565b8114613f1757600080fd5b50565b600081359050613f2981613f03565b92915050565b600080fd5b600080fd5b6000601f19601f8301169050919050565b7f4e487b7100000000000000000000000000000000000000000000000000000000600052604160045260246000fd5b613f8282613f39565b810181811067ffffffffffffffff82111715613fa157613fa0613f4a565b5b80604052505050565b6000613fb4613ebd565b9050613fc08282613f79565b919050565b600067ffffffffffffffff821115613fe057613fdf613f4a565b5b613fe982613f39565b9050602081019050919050565b82818337600083830152505050565b600061401861401384613fc5565b613faa565b90508281526020810184848401111561403457614033613f34565b5b61403f848285613ff6565b509392505050565b600082601f83011261405c5761405b613f2f565b5b813561406c848260208601614005565b91505092915050565b6000819050919050565b61408881614075565b811461409357600080fd5b50565b6000813590506140a58161407f565b92915050565b600067ffffffffffffffff8211156140c6576140c5613f4a565b5b602082029050602081019050919050565b600080fd5b600080fd5b600080fd5b600067ffffffffffffffff82111561410157614100613f4a565b5b602082029050602081019050919050565b6000614125614120846140e6565b613faa565b90508083825260208201905060208402830185811115614148576141476140d7565b5b835b81811015614171578061415d8882613f1a565b84526020840193505060208101905061414a565b5050509392505050565b600082601f8301126141905761418f613f2f565b5b81356141a0848260208601614112565b91505092915050565b600067ffffffffffffffff8211156141c4576141c3613f4a565b5b602082029050602081019050919050565b60008115159050919050565b6141ea816141d5565b81146141f557600080fd5b50565b600081359050614207816141e1565b92915050565b600061422061421b846141a9565b613faa565b90508083825260208201905060208402830185811115614243576142426140d7565b5b835b8181101561426c578061425888826141f8565b845260208401935050602081019050614245565b5050509392505050565b600082601f83011261428b5761428a613f2f565b5b813561429b84826020860161420d565b91505092915050565b600060c082840312156142ba576142b96140dc565b5b6142c460c0613faa565b905060006142d484828501614096565b60008301525060206142e884828501614096565b602083015250604082013567ffffffffffffffff81111561430c5761430b6140e1565b5b6143188482850161417b565b604083015250606082013567ffffffffffffffff81111561433c5761433b6140e1565b5b61434884828501614276565b606083015250608082013567ffffffffffffffff81111561436c5761436b6140e1565b5b61437884828501614276565b60808301525060a061438c848285016141f8565b60a08301525092915050565b60006143ab6143a6846140ab565b613faa565b905080838252602082019050602084028301858111156143ce576143cd6140d7565b5b835b8181101561441557803567ffffffffffffffff8111156143f3576143f2613f2f565b5b80860161440089826142a4565b855260208501945050506020810190506143d0565b5050509392505050565b600082601f83011261443457614433613f2f565b5b8135614444848260208601614398565b91505092915050565b600080600080600060a0868803121561446957614468613ec7565b5b600061447788828901613f1a565b955050602086013567ffffffffffffffff81111561449857614497613ecc565b5b6144a488828901614047565b94505060406144b588828901614096565b93505060606144c688828901614096565b925050608086013567ffffffffffffffff8111156144e7576144e6613ecc565b5b6144f38882890161441f565b9150509295509295909350565b6000806000806080858703121561451a57614519613ec7565b5b600061452887828801613f1a565b945050602061453987828801614096565b935050604061454a87828801614096565b925050606061455b87828801614096565b91505092959194509250565b6000806000806080858703121561458157614580613ec7565b5b600061458f87828801613f1a565b94505060206145a087828801613f1a565b93505060406145b187828801614096565b92505060606145c287828801614096565b91505092959194509250565b6145d781613ef1565b82525050565b60006020820190506145f260008301846145ce565b92915050565b6000806040838503121561460f5761460e613ec7565b5b600061461d85828601614096565b925050602061462e85828601613f1a565b9150509250929050565b61464181614075565b82525050565b600060208201905061465c6000830184614638565b92915050565b61466b816141d5565b82525050565b60006060820190506146866000830186614638565b6146936020830185614638565b6146a06040830184614662565b949350505050565b6000819050919050565b60006146cd6146c86146c384613ed1565b6146a8565b613ed1565b9050919050565b60006146df826146b2565b9050919050565b60006146f1826146d4565b9050919050565b614701816146e6565b82525050565b600060208201905061471c60008301846146f8565b92915050565b60008060006060848603121561473b5761473a613ec7565b5b600061474986828701613f1a565b935050602061475a86828701613f1a565b925050604061476b86828701614096565b9150509250925092565b60006020828403121561478b5761478a613ec7565b5b600061479984828501613f1a565b91505092915050565b60006147ad826146d4565b9050919050565b6147bd816147a2565b82525050565b60006020820190506147d860008301846147b4565b92915050565b6000815190506147ed816141e1565b92915050565b60006020828403121561480957614808613ec7565b5b6000614817848285016147de565b91505092915050565b600082825260208201905092915050565b7f596f75206d757374206669727374207369676e20757020666f7220616e20616360008201527f636f756e742e0000000000000000000000000000000000000000000000000000602082015250565b600061488d602683614820565b915061489882614831565b604082019050919050565b600060208201905081810360008301526148bc81614880565b9050919050565b7f596f757220656d61696c20686173206e6f7420796574206265656e2076616c6960008201527f64617465642e2056657269667920796f7572207265676973746572656420656d60208201527f61696c20616464726573732066697273742e0000000000000000000000000000604082015250565b6000614945605283614820565b9150614950826148c3565b606082019050919050565b6000602082019050818103600083015261497481614938565b9050919050565b60008151905061498a81613f03565b92915050565b60006149a361499e846140e6565b613faa565b905080838252602082019050602084028301858111156149c6576149c56140d7565b5b835b818110156149ef57806149db888261497b565b8452602084019350506020810190506149c8565b5050509392505050565b600082601f830112614a0e57614a0d613f2f565b5b8151614a1e848260208601614990565b91505092915050565b600060208284031215614a3d57614a3c613ec7565b5b600082015167ffffffffffffffff811115614a5b57614a5a613ecc565b5b614a67848285016149f9565b91505092915050565b600067ffffffffffffffff821115614a8b57614a8a613f4a565b5b602082029050602081019050919050565b600081519050614aab8161407f565b92915050565b6000614ac4614abf84614a70565b613faa565b90508083825260208201905060208402830185811115614ae757614ae66140d7565b5b835b81811015614b105780614afc8882614a9c565b845260208401935050602081019050614ae9565b5050509392505050565b600082601f830112614b2f57614b2e613f2f565b5b8151614b3f848260208601614ab1565b91505092915050565b600060208284031215614b5e57614b5d613ec7565b5b600082015167ffffffffffffffff811115614b7c57614b7b613ecc565b5b614b8884828501614b1a565b91505092915050565b7f4e487b7100000000000000000000000000000000000000000000000000000000600052603260045260246000fd5b7f4e487b7100000000000000000000000000000000000000000000000000000000600052601160045260246000fd5b6000614bfa82614075565b91507fffffffffffffffffffffffffffffffffffffffffffffffffffffffffffffffff8203614c2c57614c2b614bc0565b5b600182019050919050565b7f436865636b207468617420616c6c20746865206e6f6d696e65657320796f752060008201527f617265206e6f6d696e6174696e6720617265206164646564206173206e6f6d6960208201527f6e6565732e000000000000000000000000000000000000000000000000000000604082015250565b6000614cb9604583614820565b9150614cc482614c37565b606082019050919050565b60006020820190508181036000830152614ce881614cac565b9050919050565b7f436865636b207468617420746865206368617269747920796f7520617265206e60008201527f6f6d696e6174696e67206973206c697374656420617320612077686974652d6c60208201527f697374656420636861726974792e000000000000000000000000000000000000604082015250565b6000614d71604e83614820565b9150614d7c82614cef565b606082019050919050565b60006020820190508181036000830152614da081614d64565b9050919050565b6000604082019050614dbc60008301856145ce565b614dc960208301846145ce565b9392505050565b60005b83811015614dee578082015181840152602081019050614dd3565b60008484015250505050565b6000614e0d614e0884613fc5565b613faa565b905082815260208101848484011115614e2957614e28613f34565b5b614e34848285614dd0565b509392505050565b600082601f830112614e5157614e50613f2f565b5b8151614e61848260208601614dfa565b91505092915050565b60008060008060008060c08789031215614e8757614e86613ec7565b5b6000614e9589828a0161497b565b965050602087015167ffffffffffffffff811115614eb657614eb5613ecc565b5b614ec289828a01614e3c565b9550506040614ed389828a01614a9c565b9450506060614ee489828a01614a9c565b9350506080614ef589828a01614a9c565b92505060a0614f0689828a016147de565b9150509295509295509295565b6000614f1e82614075565b9150614f2983614075565b9250828201905080821115614f4157614f40614bc0565b5b92915050565b7f4f6f70732120596f752063616e206f6e6c7920616c6c6f63617465206120313060008201527f30252073686172652e2054727920746f2072656475636520746865207368617260208201527f6520616d6f756e742e0000000000000000000000000000000000000000000000604082015250565b6000614fc9604983614820565b9150614fd482614f47565b606082019050919050565b60006020820190508181036000830152614ff881614fbc565b9050919050565b600081519050919050565b600061501582614fff565b61501f8185614820565b935061502f818560208601614dd0565b61503881613f39565b840191505092915050565b600060c08201905061505860008301896145ce565b61506560208301886145ce565b8181036040830152615077818761500a565b90506150866060830186614638565b6150936080830185614638565b6150a060a0830184614638565b979650505050505050565b6000602082840312156150c1576150c0613ec7565b5b60006150cf84828501614a9c565b91505092915050565b7f54686520616c6c6f77616e636520746f2074686520636f6e747261637420697360008201527f206e6f7420656e6f756768210000000000000000000000000000000000000000602082015250565b6000615134602c83614820565b915061513f826150d8565b604082019050919050565b6000602082019050818103600083015261516381615127565b9050919050565b600060608201905061517f60008301866145ce565b61518c60208301856145ce565b6151996040830184614638565b949350505050565b7f5468652063617465676f72792076616c7565206d757374206265203020666f7260008201527f20746f6b656e7320616e64203120666f72204e46542e00000000000000000000602082015250565b60006151fd603683614820565b9150615208826151a1565b604082019050919050565b6000602082019050818103600083015261522c816151f0565b9050919050565b600060a08201905061524860008301886145ce565b61525560208301876145ce565b6152626040830186614638565b61526f6060830185614638565b61527c6080830184614638565b9695505050505050565b600060608201905061529b60008301866145ce565b6152a86020830185614638565b6152b56040830184614638565b949350505050565b7f536f7272792120596f752063616e6e6f7420636c61696d206974206e6f772e2060008201527f4966204e6f6d696e656520646f6573206e6f7420636c61696d2c207468656e2060208201527f77652077696c6c20696e666f726d20796f752e00000000000000000000000000604082015250565b600061533f605383614820565b915061534a826152bd565b606082019050919050565b6000602082019050818103600083015261536e81615332565b9050919050565b600080600080600060a0868803121561539157615390613ec7565b5b600061539f88828901614a9c565b95505060206153b08882890161497b565b945050604086015167ffffffffffffffff8111156153d1576153d0613ecc565b5b6153dd88828901614e3c565b935050606086015167ffffffffffffffff8111156153fe576153fd613ecc565b5b61540a88828901614e3c565b925050608086015167ffffffffffffffff81111561542b5761542a613ecc565b5b61543788828901614e3c565b9150509295509295909350565b600061544f82614075565b915061545a83614075565b925082820261546881614075565b9150828204841483151761547f5761547e614bc0565b5b5092915050565b7f4e487b7100000000000000000000000000000000000000000000000000000000600052601260045260246000fd5b60006154c082614075565b91506154cb83614075565b9250826154db576154da615486565b5b828204905092915050565b60006154f182614075565b91506154fc83614075565b925082820390508181111561551457615513614bc0565b5b92915050565b7f536f7272792120596f752063616e277420636c61696d20746869732e2057652060008201527f77696c6c206d61696c20796f7520746f20636c61696d20746869732e00000000602082015250565b6000615576603c83614820565b91506155818261551a565b604082019050919050565b600060208201905081810360008301526155a581615569565b9050919050565b7f4f6f70732120596f752063616e277420636c61696d207468697320726967687460008201527f206e6f772e2057652077696c6c20696e666f726d20796f75207768656e20796f60208201527f752063616e20636c61696d2074686520746f6b656e2e00000000000000000000604082015250565b600061562e605683614820565b9150615639826155ac565b606082019050919050565b6000602082019050818103600083015261565d81615621565b9050919050565b60006060820190506156796000830186614638565b6156866020830185614638565b6156936040830184614638565b949350505050565b60006101a082840312156156b2576156b16140dc565b5b6156bd6101a0613faa565b9050600082015167ffffffffffffffff8111156156dd576156dc6140e1565b5b6156e984828501614e3c565b600083015250602082015167ffffffffffffffff81111561570d5761570c6140e1565b5b61571984828501614e3c565b602083015250604082015167ffffffffffffffff81111561573d5761573c6140e1565b5b61574984828501614e3c565b604083015250606082015167ffffffffffffffff81111561576d5761576c6140e1565b5b61577984828501614e3c565b606083015250608061578d848285016147de565b60808301525060a06157a1848285016147de565b60a08301525060c06157b5848285016147de565b60c08301525060e06157c98482850161497b565b60e08301525061010082015167ffffffffffffffff8111156157ee576157ed6140e1565b5b6157fa848285016149f9565b6101008301525061012082015167ffffffffffffffff8111156158205761581f6140e1565b5b61582c84828501614b1a565b6101208301525061014061584284828501614a9c565b6101408301525061016061585884828501614a9c565b6101608301525061018061586e84828501614a9c565b6101808301525092915050565b60006020828403121561589157615890613ec7565b5b600082015167ffffffffffffffff8111156158af576158ae613ecc565b5b6158bb8482850161569b565b91505092915050565b7f546865207265636f766572792061646472657373206f72206f776e657220616460008201527f647265737320697320696e636f72726563742100000000000000000000000000602082015250565b6000615920603383614820565b915061592b826158c4565b604082019050919050565b6000602082019050818103600083015261594f81615913565b9050919050565b600060408201905061596b60008301856145ce565b6159786020830184614638565b9392505050565b7f4f776e61626c653a206e6577206f776e657220697320746865207a65726f206160008201527f6464726573730000000000000000000000000000000000000000000000000000602082015250565b60006159db602683614820565b91506159e68261597f565b604082019050919050565b60006020820190508181036000830152615a0a816159ce565b9050919050565b7f4f776e61626c653a2063616c6c6572206973206e6f7420746865206f776e6572600082015250565b6000615a47602083614820565b9150615a5282615a11565b602082019050919050565b60006020820190508181036000830152615a7681615a3a565b905091905056fea264697066735822122054e731610d0c38959be0ebdea0f2f2284dc198604bf1105d3c4ee532dac6533a64736f6c63430008110033",
  "linkReferences": {},
  "deployedLinkReferences": {}
}