{
  "_format": "hh-sol-artifact-1",
  "contractName": "MultiplePriorityNominee",
  "sourceName": "contracts/MultiplePriorityNominee.sol",
  "abi": [
    {
      "inputs": [
        {
          "internalType": "address",
          "name": "_inheritokensAddress",
          "type": "address"
        }
      ],
      "stateMutability": "nonpayable",
      "type": "constructor"
    },
    {
      "anonymous": false,
      "inputs": [
        {
          "indexed": true,
          "internalType": "address",
          "name": "_owner",
          "type": "address"
        },
        {
          "indexed": true,
          "internalType": "address",
          "name": "_nominee",
          "type": "address"
        },
        {
          "indexed": true,
          "internalType": "address",
          "name": "_tokenAddress",
          "type": "address"
        },
        {
          "indexed": false,
          "internalType": "uint256",
          "name": "_tokenId",
          "type": "uint256"
        },
        {
          "indexed": false,
          "internalType": "uint256",
          "name": "_amount",
          "type": "uint256"
        },
        {
          "indexed": false,
          "internalType": "uint256",
          "name": "_category",
          "type": "uint256"
        }
      ],
      "name": "Claimed",
      "type": "event"
    },
    {
      "anonymous": false,
      "inputs": [
        {
          "indexed": true,
          "internalType": "address",
          "name": "previousOwner",
          "type": "address"
        },
        {
          "indexed": true,
          "internalType": "address",
          "name": "newOwner",
          "type": "address"
        }
      ],
      "name": "OwnershipTransferred",
      "type": "event"
    },
    {
      "anonymous": false,
      "inputs": [
        {
          "indexed": true,
          "internalType": "address",
          "name": "_owner",
          "type": "address"
        },
        {
          "indexed": true,
          "internalType": "address",
          "name": "_tokenAddress",
          "type": "address"
        },
        {
          "indexed": false,
          "internalType": "uint256",
          "name": "_tokenId",
          "type": "uint256"
        },
        {
          "indexed": false,
          "internalType": "uint256",
          "name": "_amount",
          "type": "uint256"
        },
        {
          "indexed": false,
          "internalType": "uint256",
          "name": "_category",
          "type": "uint256"
        }
      ],
      "name": "Recovered",
      "type": "event"
    },
    {
      "anonymous": false,
      "inputs": [
        {
          "indexed": true,
          "internalType": "address",
          "name": "_owner",
          "type": "address"
        },
        {
          "indexed": false,
          "internalType": "address",
          "name": "_tokenAddress",
          "type": "address"
        },
        {
          "indexed": false,
          "internalType": "uint256",
          "name": "_tokenId",
          "type": "uint256"
        },
        {
          "indexed": false,
          "internalType": "uint256",
          "name": "_category",
          "type": "uint256"
        }
      ],
      "name": "TokensAssigned",
      "type": "event"
    },
    {
      "inputs": [
        {
          "internalType": "address",
          "name": "_tokenAddress",
          "type": "address"
        },
        {
          "internalType": "string",
          "name": "_tokenName",
          "type": "string"
        },
        {
          "internalType": "uint256",
          "name": "_category",
          "type": "uint256"
        },
        {
          "internalType": "uint256",
          "name": "_tokenId",
          "type": "uint256"
        },
        {
          "components": [
            {
              "internalType": "uint256",
              "name": "share",
              "type": "uint256"
            },
            {
              "internalType": "address[]",
              "name": "nominee",
              "type": "address[]"
            },
            {
              "internalType": "bool[]",
              "name": "isNotAvailable",
              "type": "bool[]"
            },
            {
              "internalType": "bool[]",
              "name": "isClaimed",
              "type": "bool[]"
            }
          ],
          "internalType": "struct MultiplePriorityNominee.MultiplePriority[]",
          "name": "data",
          "type": "tuple[]"
        }
      ],
      "name": "assignTokensToMultipleNominees",
      "outputs": [],
      "stateMutability": "nonpayable",
      "type": "function"
    },
    {
      "inputs": [
        {
          "internalType": "address",
          "name": "_tokenAddress",
          "type": "address"
        }
      ],
      "name": "changeChargeTokenAddress",
      "outputs": [],
      "stateMutability": "nonpayable",
      "type": "function"
    },
    {
      "inputs": [
        {
          "internalType": "uint256",
          "name": "_charge",
          "type": "uint256"
        }
      ],
      "name": "changeNFTCharge",
      "outputs": [],
      "stateMutability": "nonpayable",
      "type": "function"
    },
    {
      "inputs": [
        {
          "internalType": "uint256",
          "name": "_amount",
          "type": "uint256"
        }
      ],
      "name": "changePercentage",
      "outputs": [],
      "stateMutability": "nonpayable",
      "type": "function"
    },
    {
      "inputs": [
        {
          "internalType": "uint256",
          "name": "_charge",
          "type": "uint256"
        }
      ],
      "name": "changeTokenCharge",
      "outputs": [],
      "stateMutability": "nonpayable",
      "type": "function"
    },
    {
      "inputs": [],
      "name": "chargeTokenAddress",
      "outputs": [
        {
          "internalType": "address",
          "name": "",
          "type": "address"
        }
      ],
      "stateMutability": "view",
      "type": "function"
    },
    {
      "inputs": [
        {
          "internalType": "address",
          "name": "_owner",
          "type": "address"
        },
        {
          "internalType": "address",
          "name": "_tokenAddress",
          "type": "address"
        },
        {
          "internalType": "uint256",
          "name": "_tokenId",
          "type": "uint256"
        },
        {
          "internalType": "uint256",
          "name": "_category",
          "type": "uint256"
        }
      ],
      "name": "claim",
      "outputs": [],
      "stateMutability": "nonpayable",
      "type": "function"
    },
    {
      "inputs": [
        {
          "internalType": "address",
          "name": "_owner",
          "type": "address"
        },
        {
          "internalType": "address",
          "name": "_tokenAddress",
          "type": "address"
        },
        {
          "internalType": "uint256",
          "name": "_tokenId",
          "type": "uint256"
        },
        {
          "internalType": "uint256",
          "name": "_category",
          "type": "uint256"
        }
      ],
      "name": "getAllStructs",
      "outputs": [
        {
          "components": [
            {
              "internalType": "uint256",
              "name": "share",
              "type": "uint256"
            },
            {
              "internalType": "address[]",
              "name": "nominee",
              "type": "address[]"
            },
            {
              "internalType": "bool[]",
              "name": "isNotAvailable",
              "type": "bool[]"
            },
            {
              "internalType": "bool[]",
              "name": "isClaimed",
              "type": "bool[]"
            }
          ],
          "internalType": "struct MultiplePriorityNominee.MultiplePriority[]",
          "name": "",
          "type": "tuple[]"
        }
      ],
      "stateMutability": "view",
      "type": "function"
    },
    {
      "inputs": [],
      "name": "getValues",
      "outputs": [
        {
          "internalType": "address",
          "name": "",
          "type": "address"
        },
        {
          "internalType": "uint256",
          "name": "",
          "type": "uint256"
        },
        {
          "internalType": "uint256",
          "name": "",
          "type": "uint256"
        },
        {
          "internalType": "uint256",
          "name": "",
          "type": "uint256"
        }
      ],
      "stateMutability": "view",
      "type": "function"
    },
    {
      "inputs": [],
      "name": "inheritokens",
      "outputs": [
        {
          "internalType": "contract Inheritokens",
          "name": "",
          "type": "address"
        }
      ],
      "stateMutability": "view",
      "type": "function"
    },
    {
      "inputs": [],
      "name": "inheritokensAddress",
      "outputs": [
        {
          "internalType": "address",
          "name": "",
          "type": "address"
        }
      ],
      "stateMutability": "view",
      "type": "function"
    },
    {
      "inputs": [],
      "name": "nftCharge",
      "outputs": [
        {
          "internalType": "uint256",
          "name": "",
          "type": "uint256"
        }
      ],
      "stateMutability": "view",
      "type": "function"
    },
    {
      "inputs": [],
      "name": "owner",
      "outputs": [
        {
          "internalType": "address",
          "name": "",
          "type": "address"
        }
      ],
      "stateMutability": "view",
      "type": "function"
    },
    {
      "inputs": [
        {
          "internalType": "address",
          "name": "",
          "type": "address"
        },
        {
          "internalType": "address",
          "name": "",
          "type": "address"
        },
        {
          "internalType": "uint256",
          "name": "",
          "type": "uint256"
        },
        {
          "internalType": "uint256",
          "name": "",
          "type": "uint256"
        }
      ],
      "name": "ownerToNFTToStruct",
      "outputs": [
        {
          "internalType": "uint256",
          "name": "share",
          "type": "uint256"
        }
      ],
      "stateMutability": "view",
      "type": "function"
    },
    {
      "inputs": [
        {
          "internalType": "address",
          "name": "",
          "type": "address"
        },
        {
          "internalType": "address",
          "name": "",
          "type": "address"
        },
        {
          "internalType": "uint256",
          "name": "",
          "type": "uint256"
        }
      ],
      "name": "ownerToTokenToStruct",
      "outputs": [
        {
          "internalType": "uint256",
          "name": "share",
          "type": "uint256"
        }
      ],
      "stateMutability": "view",
      "type": "function"
    },
    {
      "inputs": [],
      "name": "percentage",
      "outputs": [
        {
          "internalType": "uint256",
          "name": "",
          "type": "uint256"
        }
      ],
      "stateMutability": "view",
      "type": "function"
    },
    {
      "inputs": [
        {
          "internalType": "address",
          "name": "_owner",
          "type": "address"
        },
        {
          "internalType": "address",
          "name": "_tokenAddress",
          "type": "address"
        },
        {
          "internalType": "uint256",
          "name": "_tokenId",
          "type": "uint256"
        },
        {
          "internalType": "uint256",
          "name": "_category",
          "type": "uint256"
        }
      ],
      "name": "recoveryClaim",
      "outputs": [],
      "stateMutability": "nonpayable",
      "type": "function"
    },
    {
      "inputs": [],
      "name": "renounceOwnership",
      "outputs": [],
      "stateMutability": "nonpayable",
      "type": "function"
    },
    {
      "inputs": [],
      "name": "tokenCharge",
      "outputs": [
        {
          "internalType": "uint256",
          "name": "",
          "type": "uint256"
        }
      ],
      "stateMutability": "view",
      "type": "function"
    },
    {
      "inputs": [
        {
          "internalType": "address",
          "name": "newOwner",
          "type": "address"
        }
      ],
      "name": "transferOwnership",
      "outputs": [],
      "stateMutability": "nonpayable",
      "type": "function"
    },
    {
      "inputs": [
        {
          "internalType": "uint256",
          "name": "_amount",
          "type": "uint256"
        },
        {
          "internalType": "address",
          "name": "_tokenAddress",
          "type": "address"
        }
      ],
      "name": "withdrawFromContract",
      "outputs": [],
      "stateMutability": "payable",
      "type": "function"
    }
  ],
  "bytecode": "0x60806040523480156200001157600080fd5b5060405162004a6238038062004a628339818101604052810190620000379190620002a9565b620000576200004b6200017360201b60201c565b6200017b60201b60201c565b80600160006101000a81548173ffffffffffffffffffffffffffffffffffffffff021916908373ffffffffffffffffffffffffffffffffffffffff160217905550600160009054906101000a900473ffffffffffffffffffffffffffffffffffffffff16600260006101000a81548173ffffffffffffffffffffffffffffffffffffffff021916908373ffffffffffffffffffffffffffffffffffffffff160217905550620f4240600381905550624c4b40600481905550600160058190555073e9dce89b076ba6107bb64ef30678efec11939234600660006101000a81548173ffffffffffffffffffffffffffffffffffffffff021916908373ffffffffffffffffffffffffffffffffffffffff16021790555050620002db565b600033905090565b60008060009054906101000a900473ffffffffffffffffffffffffffffffffffffffff169050816000806101000a81548173ffffffffffffffffffffffffffffffffffffffff021916908373ffffffffffffffffffffffffffffffffffffffff1602179055508173ffffffffffffffffffffffffffffffffffffffff168173ffffffffffffffffffffffffffffffffffffffff167f8be0079c531659141344cd1fd0a4f28419497f9722a3daafe3b4186f6b6457e060405160405180910390a35050565b600080fd5b600073ffffffffffffffffffffffffffffffffffffffff82169050919050565b6000620002718262000244565b9050919050565b620002838162000264565b81146200028f57600080fd5b50565b600081519050620002a38162000278565b92915050565b600060208284031215620002c257620002c16200023f565b5b6000620002d28482850162000292565b91505092915050565b61477780620002eb6000396000f3fe60806040526004361061012a5760003560e01c80638df61325116100ab578063be27c3fe1161006f578063be27c3fe146103ac578063bea7d6ac146103d7578063c407695b14610414578063c78ad77f1461043f578063d41ab7b51461046a578063f2fde38b146104935761012a565b80638df61325146102d65780639605f505146102ff5780639b2520231461031b5780639b785daa14610346578063a64ad61f1461036f5761012a565b80635128eeef116100f25780635128eeef146102035780635c042ae71461022c5780635cdb4ce414610257578063715018a6146102945780638da5cb5b146102ab5761012a565b806319eb4a901461012f57806326af48321461015d578063397e2f1a1461018657806346f17152146101af5780634ab3a732146101da575b600080fd5b34801561013b57600080fd5b506101446104bc565b6040516101549493929190612d6c565b60405180910390f35b34801561016957600080fd5b50610184600480360381019061017f9190612e1d565b6104fc565b005b34801561019257600080fd5b506101ad60048036038101906101a89190613344565b61109e565b005b3480156101bb57600080fd5b506101c4611e11565b6040516101d191906133f7565b60405180910390f35b3480156101e657600080fd5b5061020160048036038101906101fc9190612e1d565b611e37565b005b34801561020f57600080fd5b5061022a60048036038101906102259190613412565b6121fc565b005b34801561023857600080fd5b5061024161220e565b60405161024e91906133f7565b60405180910390f35b34801561026357600080fd5b5061027e60048036038101906102799190612e1d565b612234565b60405161028b91906136fd565b60405180910390f35b3480156102a057600080fd5b506102a9612729565b005b3480156102b757600080fd5b506102c061273d565b6040516102cd91906133f7565b60405180910390f35b3480156102e257600080fd5b506102fd60048036038101906102f89190613412565b612766565b005b6103196004803603810190610314919061371f565b612778565b005b34801561032757600080fd5b50610330612809565b60405161033d919061375f565b60405180910390f35b34801561035257600080fd5b5061036d6004803603810190610368919061377a565b61280f565b005b34801561037b57600080fd5b5061039660048036038101906103919190612e1d565b61285b565b6040516103a3919061375f565b60405180910390f35b3480156103b857600080fd5b506103c16128b0565b6040516103ce9190613806565b60405180910390f35b3480156103e357600080fd5b506103fe60048036038101906103f99190613821565b6128d6565b60405161040b919061375f565b60405180910390f35b34801561042057600080fd5b5061042961291e565b604051610436919061375f565b60405180910390f35b34801561044b57600080fd5b50610454612924565b604051610461919061375f565b60405180910390f35b34801561047657600080fd5b50610491600480360381019061048c9190613412565b61292a565b005b34801561049f57600080fd5b506104ba60048036038101906104b5919061377a565b61293c565b005b600080600080600660009054906101000a900473ffffffffffffffffffffffffffffffffffffffff16600354600454600554935093509350935090919293565b6000600260009054906101000a900473ffffffffffffffffffffffffffffffffffffffff1673ffffffffffffffffffffffffffffffffffffffff166320e4ab6a866040518263ffffffff1660e01b815260040161055991906133f7565b600060405180830381865afa158015610576573d6000803e3d6000fd5b505050506040513d6000823e3d601f19601f8201168201806040525081019061059f9190613920565b905060008060005b8351811015611094573373ffffffffffffffffffffffffffffffffffffffff168482815181106105da576105d9613969565b5b602002602001015173ffffffffffffffffffffffffffffffffffffffff16036110015760008503610be65760005b600760008a73ffffffffffffffffffffffffffffffffffffffff1673ffffffffffffffffffffffffffffffffffffffff16815260200190815260200160002060008973ffffffffffffffffffffffffffffffffffffffff1673ffffffffffffffffffffffffffffffffffffffff16815260200190815260200160002080549050811015610a0e5760005b600760008b73ffffffffffffffffffffffffffffffffffffffff1673ffffffffffffffffffffffffffffffffffffffff16815260200190815260200160002060008a73ffffffffffffffffffffffffffffffffffffffff1673ffffffffffffffffffffffffffffffffffffffff16815260200190815260200160002082815481106107205761071f613969565b5b9060005260206000209060040201600101805490508110156109fa5785838151811061074f5761074e613969565b5b602002602001015173ffffffffffffffffffffffffffffffffffffffff16600760008c73ffffffffffffffffffffffffffffffffffffffff1673ffffffffffffffffffffffffffffffffffffffff16815260200190815260200160002060008b73ffffffffffffffffffffffffffffffffffffffff1673ffffffffffffffffffffffffffffffffffffffff16815260200190815260200160002083815481106107fb576107fa613969565b5b9060005260206000209060040201600101828154811061081e5761081d613969565b5b9060005260206000200160009054906101000a900473ffffffffffffffffffffffffffffffffffffffff1673ffffffffffffffffffffffffffffffffffffffff16036109e757600760008b73ffffffffffffffffffffffffffffffffffffffff1673ffffffffffffffffffffffffffffffffffffffff16815260200190815260200160002060008a73ffffffffffffffffffffffffffffffffffffffff1673ffffffffffffffffffffffffffffffffffffffff16815260200190815260200160002082815481106108f2576108f1613969565b5b90600052602060002090600402016000015494506001600760008c73ffffffffffffffffffffffffffffffffffffffff1673ffffffffffffffffffffffffffffffffffffffff16815260200190815260200160002060008b73ffffffffffffffffffffffffffffffffffffffff1673ffffffffffffffffffffffffffffffffffffffff168152602001908152602001600020838154811061099657610995613969565b5b906000526020600020906004020160030182815481106109b9576109b8613969565b5b90600052602060002090602091828204019190066101000a81548160ff0219169083151502179055506109fa565b80806109f2906139c7565b915050610692565b508080610a06906139c7565b915050610608565b50600087905060008173ffffffffffffffffffffffffffffffffffffffff166370a082318b6040518263ffffffff1660e01b8152600401610a4f91906133f7565b602060405180830381865afa158015610a6c573d6000803e3d6000fd5b505050506040513d601f19601f82011682018060405250810190610a909190613a24565b9050600060648683610aa29190613a51565b610aac9190613ac2565b9050600061271060055483610ac19190613a51565b610acb9190613ac2565b90508082610ad99190613af3565b95508373ffffffffffffffffffffffffffffffffffffffff166323b872dd8d30846040518463ffffffff1660e01b8152600401610b1893929190613b27565b6020604051808303816000875af1158015610b37573d6000803e3d6000fd5b505050506040513d601f19601f82011682018060405250810190610b5b9190613b73565b508373ffffffffffffffffffffffffffffffffffffffff166323b872dd8d33896040518463ffffffff1660e01b8152600401610b9993929190613b27565b6020604051808303816000875af1158015610bb8573d6000803e3d6000fd5b505050506040513d601f19601f82011682018060405250810190610bdc9190613b73565b5050505050611000565b60018503610fff5760008790508073ffffffffffffffffffffffffffffffffffffffff166323b872dd8a338a6040518463ffffffff1660e01b8152600401610c3093929190613b27565b600060405180830381600087803b158015610c4a57600080fd5b505af1158015610c5e573d6000803e3d6000fd5b5050505060005b600760008b73ffffffffffffffffffffffffffffffffffffffff1673ffffffffffffffffffffffffffffffffffffffff16815260200190815260200160002060008a73ffffffffffffffffffffffffffffffffffffffff1673ffffffffffffffffffffffffffffffffffffffff16815260200190815260200160002080549050811015610ffc5760005b600860008c73ffffffffffffffffffffffffffffffffffffffff1673ffffffffffffffffffffffffffffffffffffffff16815260200190815260200160002060008b73ffffffffffffffffffffffffffffffffffffffff1673ffffffffffffffffffffffffffffffffffffffff16815260200190815260200160002060008a81526020019081526020016000208281548110610d8e57610d8d613969565b5b906000526020600020906004020160010180549050811015610fe857868481518110610dbd57610dbc613969565b5b602002602001015173ffffffffffffffffffffffffffffffffffffffff16600860008d73ffffffffffffffffffffffffffffffffffffffff1673ffffffffffffffffffffffffffffffffffffffff16815260200190815260200160002060008c73ffffffffffffffffffffffffffffffffffffffff1673ffffffffffffffffffffffffffffffffffffffff16815260200190815260200160002060008b81526020019081526020016000208381548110610e7a57610e79613969565b5b90600052602060002090600402016001018281548110610e9d57610e9c613969565b5b9060005260206000200160009054906101000a900473ffffffffffffffffffffffffffffffffffffffff1673ffffffffffffffffffffffffffffffffffffffff1603610fd5576001600860008d73ffffffffffffffffffffffffffffffffffffffff1673ffffffffffffffffffffffffffffffffffffffff16815260200190815260200160002060008c73ffffffffffffffffffffffffffffffffffffffff1673ffffffffffffffffffffffffffffffffffffffff16815260200190815260200160002060008b81526020019081526020016000208381548110610f8457610f83613969565b5b90600052602060002090600402016003018281548110610fa757610fa6613969565b5b90600052602060002090602091828204019190066101000a81548160ff021916908315150217905550610fe8565b8080610fe0906139c7565b915050610cef565b508080610ff4906139c7565b915050610c65565b50505b5b5b8673ffffffffffffffffffffffffffffffffffffffff163373ffffffffffffffffffffffffffffffffffffffff168973ffffffffffffffffffffffffffffffffffffffff167f5ccac6a981ee0d2404d2487672d204c80cc526da4f51e90dd5ae4cfe880a9add89868a60405161107993929190613ba0565b60405180910390a4808061108c906139c7565b9150506105a7565b5050505050505050565b6000600260009054906101000a900473ffffffffffffffffffffffffffffffffffffffff1673ffffffffffffffffffffffffffffffffffffffff16630f1f8c05336040518263ffffffff1660e01b81526004016110fb91906133f7565b602060405180830381865afa158015611118573d6000803e3d6000fd5b505050506040513d601f19601f8201168201806040525081019061113c9190613b73565b90506000600260009054906101000a900473ffffffffffffffffffffffffffffffffffffffff1673ffffffffffffffffffffffffffffffffffffffff166315b79630336040518263ffffffff1660e01b815260040161119b91906133f7565b602060405180830381865afa1580156111b8573d6000803e3d6000fd5b505050506040513d601f19601f820116820180604052508101906111dc9190613b73565b90508161121e576040517f08c379a000000000000000000000000000000000000000000000000000000000815260040161121590613c5a565b60405180910390fd5b8061125e576040517f08c379a000000000000000000000000000000000000000000000000000000000815260040161125590613d12565b60405180910390fd5b6000600260009054906101000a900473ffffffffffffffffffffffffffffffffffffffff1673ffffffffffffffffffffffffffffffffffffffff166320e4ab6a336040518263ffffffff1660e01b81526004016112bb91906133f7565b600060405180830381865afa1580156112d8573d6000803e3d6000fd5b505050506040513d6000823e3d601f19601f820116820180604052508101906113019190613920565b9050600080600090505b855181101561145e5760005b86828151811061132a57611329613969565b5b6020026020010151602001515181101561144a576000925060005b84518110156113ef5784818151811061136157611360613969565b5b602002602001015173ffffffffffffffffffffffffffffffffffffffff1688848151811061139257611391613969565b5b60200260200101516020015183815181106113b0576113af613969565b5b602002602001015173ffffffffffffffffffffffffffffffffffffffff16036113dc57600193506113ef565b80806113e7906139c7565b915050611345565b506000151583151503611437576040517f08c379a000000000000000000000000000000000000000000000000000000000815260040161142e90613dca565b60405180910390fd5b8080611442906139c7565b915050611317565b508080611456906139c7565b91505061130b565b506000600260009054906101000a900473ffffffffffffffffffffffffffffffffffffffff1673ffffffffffffffffffffffffffffffffffffffff1663de508c5b338c6040518363ffffffff1660e01b81526004016114be929190613dea565b600060405180830381865afa1580156114db573d6000803e3d6000fd5b505050506040513d6000823e3d601f19601f820116820180604052508101906115049190613ead565b909192939450909192935090919250909150905080915050600080600090505b875181101561156c578781815181106115405761153f613969565b5b602002602001015160000151826115579190613f56565b91508080611564906139c7565b915050611524565b5060648111156115b1576040517f08c379a00000000000000000000000000000000000000000000000000000000081526004016115a890614022565b60405180910390fd5b8161165257600260009054906101000a900473ffffffffffffffffffffffffffffffffffffffff1673ffffffffffffffffffffffffffffffffffffffff166325cb763a338d8d8d868e6040518763ffffffff1660e01b815260040161161b96959493929190614086565b600060405180830381600087803b15801561163557600080fd5b505af1158015611649573d6000803e3d6000fd5b50505050611a78565b6000600660009054906101000a900473ffffffffffffffffffffffffffffffffffffffff16905060008a03611851576003548173ffffffffffffffffffffffffffffffffffffffff1663dd62ed3e33306040518363ffffffff1660e01b81526004016116bf929190613dea565b602060405180830381865afa1580156116dc573d6000803e3d6000fd5b505050506040513d601f19601f820116820180604052508101906117009190613a24565b1015611741576040517f08c379a000000000000000000000000000000000000000000000000000000000815260040161173890614160565b60405180910390fd5b8073ffffffffffffffffffffffffffffffffffffffff166323b872dd33306003546040518463ffffffff1660e01b815260040161178093929190613b27565b6020604051808303816000875af115801561179f573d6000803e3d6000fd5b505050506040513d601f19601f820116820180604052508101906117c39190613b73565b50600760003373ffffffffffffffffffffffffffffffffffffffff1673ffffffffffffffffffffffffffffffffffffffff16815260200190815260200160002060008d73ffffffffffffffffffffffffffffffffffffffff1673ffffffffffffffffffffffffffffffffffffffff168152602001908152602001600020600061184c9190612b09565b611a76565b60018a03611a3a576004548173ffffffffffffffffffffffffffffffffffffffff1663dd62ed3e33306040518363ffffffff1660e01b8152600401611897929190613dea565b602060405180830381865afa1580156118b4573d6000803e3d6000fd5b505050506040513d601f19601f820116820180604052508101906118d89190613a24565b1015611919576040517f08c379a000000000000000000000000000000000000000000000000000000000815260040161191090614160565b60405180910390fd5b8073ffffffffffffffffffffffffffffffffffffffff166323b872dd33306004546040518463ffffffff1660e01b815260040161195893929190613b27565b6020604051808303816000875af1158015611977573d6000803e3d6000fd5b505050506040513d601f19601f8201168201806040525081019061199b9190613b73565b50600860003373ffffffffffffffffffffffffffffffffffffffff1673ffffffffffffffffffffffffffffffffffffffff16815260200190815260200160002060008d73ffffffffffffffffffffffffffffffffffffffff1673ffffffffffffffffffffffffffffffffffffffff16815260200190815260200160002060008a81526020019081526020016000206000611a359190612b09565b611a75565b6040517f08c379a0000000000000000000000000000000000000000000000000000000008152600401611a6c906141f2565b60405180910390fd5b5b505b600260009054906101000a900473ffffffffffffffffffffffffffffffffffffffff1673ffffffffffffffffffffffffffffffffffffffff1663b69bd77f338d8b858e6040518663ffffffff1660e01b8152600401611adb959493929190614212565b600060405180830381600087803b158015611af557600080fd5b505af1158015611b09573d6000803e3d6000fd5b5050505060008903611c5d5760005b8751811015611c5757600760003373ffffffffffffffffffffffffffffffffffffffff1673ffffffffffffffffffffffffffffffffffffffff16815260200190815260200160002060008d73ffffffffffffffffffffffffffffffffffffffff1673ffffffffffffffffffffffffffffffffffffffff168152602001908152602001600020888281518110611bb057611baf613969565b5b60200260200101519080600181540180825580915050600190039060005260206000209060040201600090919091909150600082015181600001556020820151816001019080519060200190611c07929190612b2d565b506040820151816002019080519060200190611c24929190612bb7565b506060820151816003019080519060200190611c41929190612bb7565b5050508080611c4f906139c7565b915050611b18565b50611db2565b60005b8751811015611db057600860003373ffffffffffffffffffffffffffffffffffffffff1673ffffffffffffffffffffffffffffffffffffffff16815260200190815260200160002060008d73ffffffffffffffffffffffffffffffffffffffff1673ffffffffffffffffffffffffffffffffffffffff16815260200190815260200160002060008a8152602001908152602001600020888281518110611d0957611d08613969565b5b60200260200101519080600181540180825580915050600190039060005260206000209060040201600090919091909150600082015181600001556020820151816001019080519060200190611d60929190612b2d565b506040820151816002019080519060200190611d7d929190612bb7565b506060820151816003019080519060200190611d9a929190612bb7565b5050508080611da8906139c7565b915050611c60565b505b3373ffffffffffffffffffffffffffffffffffffffff167f356b94cb07d152dfb4f8876f9a6f4c7007027dd30aecb0ac9b698849e14e0e718c8a8c604051611dfc93929190614265565b60405180910390a25050505050505050505050565b600160009054906101000a900473ffffffffffffffffffffffffffffffffffffffff1681565b3373ffffffffffffffffffffffffffffffffffffffff16600260009054906101000a900473ffffffffffffffffffffffffffffffffffffffff1673ffffffffffffffffffffffffffffffffffffffff1663c3bb8121866040518263ffffffff1660e01b8152600401611ea991906133f7565b600060405180830381865afa158015611ec6573d6000803e3d6000fd5b505050506040513d6000823e3d601f19601f82011682018060405250810190611eef919061453f565b60e0015173ffffffffffffffffffffffffffffffffffffffff1614611f49576040517f08c379a0000000000000000000000000000000000000000000000000000000008152600401611f40906145fa565b60405180910390fd5b600080820361210c5760008490508073ffffffffffffffffffffffffffffffffffffffff166370a08231876040518263ffffffff1660e01b8152600401611f9091906133f7565b602060405180830381865afa158015611fad573d6000803e3d6000fd5b505050506040513d601f19601f82011682018060405250810190611fd19190613a24565b9150600061271060055484611fe69190613a51565b611ff09190613ac2565b9050600081846120009190613af3565b90508273ffffffffffffffffffffffffffffffffffffffff166323b872dd8930856040518463ffffffff1660e01b815260040161203f93929190613b27565b6020604051808303816000875af115801561205e573d6000803e3d6000fd5b505050506040513d601f19601f820116820180604052508101906120829190613b73565b508273ffffffffffffffffffffffffffffffffffffffff166323b872dd8933846040518463ffffffff1660e01b81526004016120c093929190613b27565b6020604051808303816000875af11580156120df573d6000803e3d6000fd5b505050506040513d601f19601f820116820180604052508101906121039190613b73565b5050505061218c565b600083111561218b5760008490508073ffffffffffffffffffffffffffffffffffffffff166323b872dd8733876040518463ffffffff1660e01b815260040161215793929190613b27565b600060405180830381600087803b15801561217157600080fd5b505af1158015612185573d6000803e3d6000fd5b50505050505b5b8373ffffffffffffffffffffffffffffffffffffffff168573ffffffffffffffffffffffffffffffffffffffff167faa3446f866f557932f6c5a4933379c0e3e3fd6dcc0a20cfae5222255ffd16bdd8584866040516121ed93929190613ba0565b60405180910390a35050505050565b6122046129bf565b8060038190555050565b600660009054906101000a900473ffffffffffffffffffffffffffffffffffffffff1681565b6060600082036124a957600760008673ffffffffffffffffffffffffffffffffffffffff1673ffffffffffffffffffffffffffffffffffffffff16815260200190815260200160002060008573ffffffffffffffffffffffffffffffffffffffff1673ffffffffffffffffffffffffffffffffffffffff168152602001908152602001600020805480602002602001604051908101604052809291908181526020016000905b8282101561249e5783829060005260206000209060040201604051806080016040529081600082015481526020016001820180548060200260200160405190810160405280929190818152602001828054801561238c57602002820191906000526020600020905b8160009054906101000a900473ffffffffffffffffffffffffffffffffffffffff1673ffffffffffffffffffffffffffffffffffffffff1681526020019060010190808311612342575b505050505081526020016002820180548060200260200160405190810160405280929190818152602001828054801561240957602002820191906000526020600020906000905b82829054906101000a900460ff161515815260200190600101906020826000010492830192600103820291508084116123d35790505b505050505081526020016003820180548060200260200160405190810160405280929190818152602001828054801561248657602002820191906000526020600020906000905b82829054906101000a900460ff161515815260200190600101906020826000010492830192600103820291508084116124505790505b505050505081525050815260200190600101906122da565b505050509050612721565b600860008673ffffffffffffffffffffffffffffffffffffffff1673ffffffffffffffffffffffffffffffffffffffff16815260200190815260200160002060008573ffffffffffffffffffffffffffffffffffffffff1673ffffffffffffffffffffffffffffffffffffffff1681526020019081526020016000206000848152602001908152602001600020805480602002602001604051908101604052809291908181526020016000905b8282101561271a5783829060005260206000209060040201604051806080016040529081600082015481526020016001820180548060200260200160405190810160405280929190818152602001828054801561260857602002820191906000526020600020905b8160009054906101000a900473ffffffffffffffffffffffffffffffffffffffff1673ffffffffffffffffffffffffffffffffffffffff16815260200190600101908083116125be575b505050505081526020016002820180548060200260200160405190810160405280929190818152602001828054801561268557602002820191906000526020600020906000905b82829054906101000a900460ff1615158152602001906001019060208260000104928301926001038202915080841161264f5790505b505050505081526020016003820180548060200260200160405190810160405280929190818152602001828054801561270257602002820191906000526020600020906000905b82829054906101000a900460ff161515815260200190600101906020826000010492830192600103820291508084116126cc5790505b50505050508152505081526020019060010190612556565b5050505090505b949350505050565b6127316129bf565b61273b6000612a3d565b565b60008060009054906101000a900473ffffffffffffffffffffffffffffffffffffffff16905090565b61276e6129bf565b8060048190555050565b6127806129bf565b60008190508073ffffffffffffffffffffffffffffffffffffffff1663a9059cbb33856040518363ffffffff1660e01b81526004016127c092919061461a565b6020604051808303816000875af11580156127df573d6000803e3d6000fd5b505050506040513d601f19601f820116820180604052508101906128039190613b73565b50505050565b60035481565b6128176129bf565b80600660006101000a81548173ffffffffffffffffffffffffffffffffffffffff021916908373ffffffffffffffffffffffffffffffffffffffff16021790555050565b6008602052836000526040600020602052826000526040600020602052816000526040600020818154811061288f57600080fd5b90600052602060002090600402016000935093505050508060000154905081565b600260009054906101000a900473ffffffffffffffffffffffffffffffffffffffff1681565b600760205282600052604060002060205281600052604060002081815481106128fe57600080fd5b906000526020600020906004020160009250925050508060000154905081565b60045481565b60055481565b6129326129bf565b8060058190555050565b6129446129bf565b600073ffffffffffffffffffffffffffffffffffffffff168173ffffffffffffffffffffffffffffffffffffffff16036129b3576040517f08c379a00000000000000000000000000000000000000000000000000000000081526004016129aa906146b5565b60405180910390fd5b6129bc81612a3d565b50565b6129c7612b01565b73ffffffffffffffffffffffffffffffffffffffff166129e561273d565b73ffffffffffffffffffffffffffffffffffffffff1614612a3b576040517f08c379a0000000000000000000000000000000000000000000000000000000008152600401612a3290614721565b60405180910390fd5b565b60008060009054906101000a900473ffffffffffffffffffffffffffffffffffffffff169050816000806101000a81548173ffffffffffffffffffffffffffffffffffffffff021916908373ffffffffffffffffffffffffffffffffffffffff1602179055508173ffffffffffffffffffffffffffffffffffffffff168173ffffffffffffffffffffffffffffffffffffffff167f8be0079c531659141344cd1fd0a4f28419497f9722a3daafe3b4186f6b6457e060405160405180910390a35050565b600033905090565b5080546000825560040290600052602060002090810190612b2a9190612c5d565b50565b828054828255906000526020600020908101928215612ba6579160200282015b82811115612ba55782518260006101000a81548173ffffffffffffffffffffffffffffffffffffffff021916908373ffffffffffffffffffffffffffffffffffffffff16021790555091602001919060010190612b4d565b5b509050612bb39190612cac565b5090565b82805482825590600052602060002090601f01602090048101928215612c4c5791602002820160005b83821115612c1d57835183826101000a81548160ff0219169083151502179055509260200192600101602081600001049283019260010302612be0565b8015612c4a5782816101000a81549060ff0219169055600101602081600001049283019260010302612c1d565b505b509050612c599190612cac565b5090565b5b80821115612ca857600080820160009055600182016000612c7f9190612cc9565b600282016000612c8f9190612cea565b600382016000612c9f9190612cea565b50600401612c5e565b5090565b5b80821115612cc5576000816000905550600101612cad565b5090565b5080546000825590600052602060002090810190612ce79190612cac565b50565b50805460008255601f016020900490600052602060002090810190612d0f9190612cac565b50565b600073ffffffffffffffffffffffffffffffffffffffff82169050919050565b6000612d3d82612d12565b9050919050565b612d4d81612d32565b82525050565b6000819050919050565b612d6681612d53565b82525050565b6000608082019050612d816000830187612d44565b612d8e6020830186612d5d565b612d9b6040830185612d5d565b612da86060830184612d5d565b95945050505050565b6000604051905090565b600080fd5b600080fd5b612dce81612d32565b8114612dd957600080fd5b50565b600081359050612deb81612dc5565b92915050565b612dfa81612d53565b8114612e0557600080fd5b50565b600081359050612e1781612df1565b92915050565b60008060008060808587031215612e3757612e36612dbb565b5b6000612e4587828801612ddc565b9450506020612e5687828801612ddc565b9350506040612e6787828801612e08565b9250506060612e7887828801612e08565b91505092959194509250565b600080fd5b600080fd5b6000601f19601f8301169050919050565b7f4e487b7100000000000000000000000000000000000000000000000000000000600052604160045260246000fd5b612ed782612e8e565b810181811067ffffffffffffffff82111715612ef657612ef5612e9f565b5b80604052505050565b6000612f09612db1565b9050612f158282612ece565b919050565b600067ffffffffffffffff821115612f3557612f34612e9f565b5b612f3e82612e8e565b9050602081019050919050565b82818337600083830152505050565b6000612f6d612f6884612f1a565b612eff565b905082815260208101848484011115612f8957612f88612e89565b5b612f94848285612f4b565b509392505050565b600082601f830112612fb157612fb0612e84565b5b8135612fc1848260208601612f5a565b91505092915050565b600067ffffffffffffffff821115612fe557612fe4612e9f565b5b602082029050602081019050919050565b600080fd5b600080fd5b600080fd5b600067ffffffffffffffff8211156130205761301f612e9f565b5b602082029050602081019050919050565b600061304461303f84613005565b612eff565b9050808382526020820190506020840283018581111561306757613066612ff6565b5b835b81811015613090578061307c8882612ddc565b845260208401935050602081019050613069565b5050509392505050565b600082601f8301126130af576130ae612e84565b5b81356130bf848260208601613031565b91505092915050565b600067ffffffffffffffff8211156130e3576130e2612e9f565b5b602082029050602081019050919050565b60008115159050919050565b613109816130f4565b811461311457600080fd5b50565b60008135905061312681613100565b92915050565b600061313f61313a846130c8565b612eff565b9050808382526020820190506020840283018581111561316257613161612ff6565b5b835b8181101561318b57806131778882613117565b845260208401935050602081019050613164565b5050509392505050565b600082601f8301126131aa576131a9612e84565b5b81356131ba84826020860161312c565b91505092915050565b6000608082840312156131d9576131d8612ffb565b5b6131e36080612eff565b905060006131f384828501612e08565b600083015250602082013567ffffffffffffffff81111561321757613216613000565b5b6132238482850161309a565b602083015250604082013567ffffffffffffffff81111561324757613246613000565b5b61325384828501613195565b604083015250606082013567ffffffffffffffff81111561327757613276613000565b5b61328384828501613195565b60608301525092915050565b60006132a261329d84612fca565b612eff565b905080838252602082019050602084028301858111156132c5576132c4612ff6565b5b835b8181101561330c57803567ffffffffffffffff8111156132ea576132e9612e84565b5b8086016132f789826131c3565b855260208501945050506020810190506132c7565b5050509392505050565b600082601f83011261332b5761332a612e84565b5b813561333b84826020860161328f565b91505092915050565b600080600080600060a086880312156133605761335f612dbb565b5b600061336e88828901612ddc565b955050602086013567ffffffffffffffff81111561338f5761338e612dc0565b5b61339b88828901612f9c565b94505060406133ac88828901612e08565b93505060606133bd88828901612e08565b925050608086013567ffffffffffffffff8111156133de576133dd612dc0565b5b6133ea88828901613316565b9150509295509295909350565b600060208201905061340c6000830184612d44565b92915050565b60006020828403121561342857613427612dbb565b5b600061343684828501612e08565b91505092915050565b600081519050919050565b600082825260208201905092915050565b6000819050602082019050919050565b61347481612d53565b82525050565b600081519050919050565b600082825260208201905092915050565b6000819050602082019050919050565b6134af81612d32565b82525050565b60006134c183836134a6565b60208301905092915050565b6000602082019050919050565b60006134e58261347a565b6134ef8185613485565b93506134fa83613496565b8060005b8381101561352b57815161351288826134b5565b975061351d836134cd565b9250506001810190506134fe565b5085935050505092915050565b600081519050919050565b600082825260208201905092915050565b6000819050602082019050919050565b61356d816130f4565b82525050565b600061357f8383613564565b60208301905092915050565b6000602082019050919050565b60006135a382613538565b6135ad8185613543565b93506135b883613554565b8060005b838110156135e95781516135d08882613573565b97506135db8361358b565b9250506001810190506135bc565b5085935050505092915050565b600060808301600083015161360e600086018261346b565b506020830151848203602086015261362682826134da565b915050604083015184820360408601526136408282613598565b9150506060830151848203606086015261365a8282613598565b9150508091505092915050565b600061367383836135f6565b905092915050565b6000602082019050919050565b60006136938261343f565b61369d818561344a565b9350836020820285016136af8561345b565b8060005b858110156136eb57848403895281516136cc8582613667565b94506136d78361367b565b925060208a019950506001810190506136b3565b50829750879550505050505092915050565b600060208201905081810360008301526137178184613688565b905092915050565b6000806040838503121561373657613735612dbb565b5b600061374485828601612e08565b925050602061375585828601612ddc565b9150509250929050565b60006020820190506137746000830184612d5d565b92915050565b6000602082840312156137905761378f612dbb565b5b600061379e84828501612ddc565b91505092915050565b6000819050919050565b60006137cc6137c76137c284612d12565b6137a7565b612d12565b9050919050565b60006137de826137b1565b9050919050565b60006137f0826137d3565b9050919050565b613800816137e5565b82525050565b600060208201905061381b60008301846137f7565b92915050565b60008060006060848603121561383a57613839612dbb565b5b600061384886828701612ddc565b935050602061385986828701612ddc565b925050604061386a86828701612e08565b9150509250925092565b60008151905061388381612dc5565b92915050565b600061389c61389784613005565b612eff565b905080838252602082019050602084028301858111156138bf576138be612ff6565b5b835b818110156138e857806138d48882613874565b8452602084019350506020810190506138c1565b5050509392505050565b600082601f83011261390757613906612e84565b5b8151613917848260208601613889565b91505092915050565b60006020828403121561393657613935612dbb565b5b600082015167ffffffffffffffff81111561395457613953612dc0565b5b613960848285016138f2565b91505092915050565b7f4e487b7100000000000000000000000000000000000000000000000000000000600052603260045260246000fd5b7f4e487b7100000000000000000000000000000000000000000000000000000000600052601160045260246000fd5b60006139d282612d53565b91507fffffffffffffffffffffffffffffffffffffffffffffffffffffffffffffffff8203613a0457613a03613998565b5b600182019050919050565b600081519050613a1e81612df1565b92915050565b600060208284031215613a3a57613a39612dbb565b5b6000613a4884828501613a0f565b91505092915050565b6000613a5c82612d53565b9150613a6783612d53565b9250828202613a7581612d53565b91508282048414831517613a8c57613a8b613998565b5b5092915050565b7f4e487b7100000000000000000000000000000000000000000000000000000000600052601260045260246000fd5b6000613acd82612d53565b9150613ad883612d53565b925082613ae857613ae7613a93565b5b828204905092915050565b6000613afe82612d53565b9150613b0983612d53565b9250828203905081811115613b2157613b20613998565b5b92915050565b6000606082019050613b3c6000830186612d44565b613b496020830185612d44565b613b566040830184612d5d565b949350505050565b600081519050613b6d81613100565b92915050565b600060208284031215613b8957613b88612dbb565b5b6000613b9784828501613b5e565b91505092915050565b6000606082019050613bb56000830186612d5d565b613bc26020830185612d5d565b613bcf6040830184612d5d565b949350505050565b600082825260208201905092915050565b7f596f75206d757374206669727374207369676e20757020666f7220616e20616360008201527f636f756e742e0000000000000000000000000000000000000000000000000000602082015250565b6000613c44602683613bd7565b9150613c4f82613be8565b604082019050919050565b60006020820190508181036000830152613c7381613c37565b9050919050565b7f596f757220656d61696c20686173206e6f7420796574206265656e2076616c6960008201527f64617465642e2056657269667920796f7572207265676973746572656420656d60208201527f61696c20616464726573732066697273742e0000000000000000000000000000604082015250565b6000613cfc605283613bd7565b9150613d0782613c7a565b606082019050919050565b60006020820190508181036000830152613d2b81613cef565b9050919050565b7f436865636b207468617420616c6c20746865206e6f6d696e65657320796f752060008201527f617265206e6f6d696e6174696e6720617265206164646564206173206e6f6d6960208201527f6e6565732e000000000000000000000000000000000000000000000000000000604082015250565b6000613db4604583613bd7565b9150613dbf82613d32565b606082019050919050565b60006020820190508181036000830152613de381613da7565b9050919050565b6000604082019050613dff6000830185612d44565b613e0c6020830184612d44565b9392505050565b60005b83811015613e31578082015181840152602081019050613e16565b60008484015250505050565b6000613e50613e4b84612f1a565b612eff565b905082815260208101848484011115613e6c57613e6b612e89565b5b613e77848285613e13565b509392505050565b600082601f830112613e9457613e93612e84565b5b8151613ea4848260208601613e3d565b91505092915050565b60008060008060008060c08789031215613eca57613ec9612dbb565b5b6000613ed889828a01613874565b965050602087015167ffffffffffffffff811115613ef957613ef8612dc0565b5b613f0589828a01613e7f565b9550506040613f1689828a01613a0f565b9450506060613f2789828a01613a0f565b9350506080613f3889828a01613a0f565b92505060a0613f4989828a01613b5e565b9150509295509295509295565b6000613f6182612d53565b9150613f6c83612d53565b9250828201905080821115613f8457613f83613998565b5b92915050565b7f4f6f70732120596f752063616e206f6e6c7920616c6c6f63617465206120313060008201527f30252073686172652e2054727920746f2072656475636520746865207368617260208201527f6520616d6f756e742e0000000000000000000000000000000000000000000000604082015250565b600061400c604983613bd7565b915061401782613f8a565b606082019050919050565b6000602082019050818103600083015261403b81613fff565b9050919050565b600081519050919050565b600061405882614042565b6140628185613bd7565b9350614072818560208601613e13565b61407b81612e8e565b840191505092915050565b600060c08201905061409b6000830189612d44565b6140a86020830188612d44565b81810360408301526140ba818761404d565b90506140c96060830186612d5d565b6140d66080830185612d5d565b6140e360a0830184612d5d565b979650505050505050565b7f54686520616c6c6f77616e636520746f2074686520636f6e747261637420697360008201527f206e6f7420656e6f756768210000000000000000000000000000000000000000602082015250565b600061414a602c83613bd7565b9150614155826140ee565b604082019050919050565b600060208201905081810360008301526141798161413d565b9050919050565b7f5468652063617465676f72792076616c7565206d757374206265203020666f7260008201527f20746f6b656e7320616e64203120666f72204e46542e00000000000000000000602082015250565b60006141dc603683613bd7565b91506141e782614180565b604082019050919050565b6000602082019050818103600083015261420b816141cf565b9050919050565b600060a0820190506142276000830188612d44565b6142346020830187612d44565b6142416040830186612d5d565b61424e6060830185612d5d565b61425b6080830184612d5d565b9695505050505050565b600060608201905061427a6000830186612d44565b6142876020830185612d5d565b6142946040830184612d5d565b949350505050565b600067ffffffffffffffff8211156142b7576142b6612e9f565b5b602082029050602081019050919050565b60006142db6142d68461429c565b612eff565b905080838252602082019050602084028301858111156142fe576142fd612ff6565b5b835b8181101561432757806143138882613a0f565b845260208401935050602081019050614300565b5050509392505050565b600082601f83011261434657614345612e84565b5b81516143568482602086016142c8565b91505092915050565b60006101a0828403121561437657614375612ffb565b5b6143816101a0612eff565b9050600082015167ffffffffffffffff8111156143a1576143a0613000565b5b6143ad84828501613e7f565b600083015250602082015167ffffffffffffffff8111156143d1576143d0613000565b5b6143dd84828501613e7f565b602083015250604082015167ffffffffffffffff81111561440157614400613000565b5b61440d84828501613e7f565b604083015250606082015167ffffffffffffffff81111561443157614430613000565b5b61443d84828501613e7f565b606083015250608061445184828501613b5e565b60808301525060a061446584828501613b5e565b60a08301525060c061447984828501613b5e565b60c08301525060e061448d84828501613874565b60e08301525061010082015167ffffffffffffffff8111156144b2576144b1613000565b5b6144be848285016138f2565b6101008301525061012082015167ffffffffffffffff8111156144e4576144e3613000565b5b6144f084828501614331565b6101208301525061014061450684828501613a0f565b6101408301525061016061451c84828501613a0f565b6101608301525061018061453284828501613a0f565b6101808301525092915050565b60006020828403121561455557614554612dbb565b5b600082015167ffffffffffffffff81111561457357614572612dc0565b5b61457f8482850161435f565b91505092915050565b7f546865207265636f766572792061646472657373206f72206f776e657220616460008201527f647265737320697320696e636f72726563742100000000000000000000000000602082015250565b60006145e4603383613bd7565b91506145ef82614588565b604082019050919050565b60006020820190508181036000830152614613816145d7565b9050919050565b600060408201905061462f6000830185612d44565b61463c6020830184612d5d565b9392505050565b7f4f776e61626c653a206e6577206f776e657220697320746865207a65726f206160008201527f6464726573730000000000000000000000000000000000000000000000000000602082015250565b600061469f602683613bd7565b91506146aa82614643565b604082019050919050565b600060208201905081810360008301526146ce81614692565b9050919050565b7f4f776e61626c653a2063616c6c6572206973206e6f7420746865206f776e6572600082015250565b600061470b602083613bd7565b9150614716826146d5565b602082019050919050565b6000602082019050818103600083015261473a816146fe565b905091905056fea26469706673582212203f38111e546fff98dadbd09f17779db63aabc58e0417b9a67d6b14c09b68eaa864736f6c63430008110033",
  "linkReferences": {},
  "deployedLinkReferences": {}
}