{
  "_format": "hh-sol-artifact-1",
  "contractName": "MultiplePriorityNominee",
  "sourceName": "contracts/MultiplePriorityNominee.sol",
  "abi": [
    {
      "inputs": [
        {
          "internalType": "address",
          "name": "_inheritokensAddress",
          "type": "address"
        },
        {
          "internalType": "address",
          "name": "_charityContractAddress",
          "type": "address"
        }
      ],
      "stateMutability": "nonpayable",
      "type": "constructor"
    },
    {
      "anonymous": false,
      "inputs": [
        {
          "indexed": true,
          "internalType": "address",
          "name": "_owner",
          "type": "address"
        },
        {
          "indexed": true,
          "internalType": "address",
          "name": "_nominee",
          "type": "address"
        },
        {
          "indexed": true,
          "internalType": "address",
          "name": "_tokenAddress",
          "type": "address"
        },
        {
          "indexed": false,
          "internalType": "uint256",
          "name": "_tokenId",
          "type": "uint256"
        },
        {
          "indexed": false,
          "internalType": "uint256",
          "name": "_amount",
          "type": "uint256"
        },
        {
          "indexed": false,
          "internalType": "uint256",
          "name": "_category",
          "type": "uint256"
        }
      ],
      "name": "Claimed",
      "type": "event"
    },
    {
      "anonymous": false,
      "inputs": [
        {
          "indexed": true,
          "internalType": "address",
          "name": "previousOwner",
          "type": "address"
        },
        {
          "indexed": true,
          "internalType": "address",
          "name": "newOwner",
          "type": "address"
        }
      ],
      "name": "OwnershipTransferred",
      "type": "event"
    },
    {
      "anonymous": false,
      "inputs": [
        {
          "indexed": true,
          "internalType": "address",
          "name": "_owner",
          "type": "address"
        },
        {
          "indexed": true,
          "internalType": "address",
          "name": "_tokenAddress",
          "type": "address"
        },
        {
          "indexed": false,
          "internalType": "uint256",
          "name": "_tokenId",
          "type": "uint256"
        },
        {
          "indexed": false,
          "internalType": "uint256",
          "name": "_amount",
          "type": "uint256"
        },
        {
          "indexed": false,
          "internalType": "uint256",
          "name": "_category",
          "type": "uint256"
        }
      ],
      "name": "Recovered",
      "type": "event"
    },
    {
      "anonymous": false,
      "inputs": [
        {
          "indexed": true,
          "internalType": "address",
          "name": "_owner",
          "type": "address"
        },
        {
          "indexed": false,
          "internalType": "address",
          "name": "_tokenAddress",
          "type": "address"
        },
        {
          "indexed": false,
          "internalType": "uint256",
          "name": "_tokenId",
          "type": "uint256"
        },
        {
          "indexed": false,
          "internalType": "uint256",
          "name": "_category",
          "type": "uint256"
        }
      ],
      "name": "TokensAssigned",
      "type": "event"
    },
    {
      "inputs": [
        {
          "internalType": "address",
          "name": "_tokenAddress",
          "type": "address"
        },
        {
          "internalType": "string",
          "name": "_tokenName",
          "type": "string"
        },
        {
          "internalType": "uint256",
          "name": "_category",
          "type": "uint256"
        },
        {
          "internalType": "uint256",
          "name": "_tokenId",
          "type": "uint256"
        },
        {
          "components": [
            {
              "internalType": "uint256",
              "name": "share",
              "type": "uint256"
            },
            {
              "internalType": "address",
              "name": "charityAddress",
              "type": "address"
            },
            {
              "internalType": "address",
              "name": "canClaim",
              "type": "address"
            },
            {
              "internalType": "address[]",
              "name": "nominee",
              "type": "address[]"
            },
            {
              "internalType": "bool[]",
              "name": "isNotAvailable",
              "type": "bool[]"
            },
            {
              "internalType": "bool[]",
              "name": "isClaimed",
              "type": "bool[]"
            },
            {
              "internalType": "bool",
              "name": "isDone",
              "type": "bool"
            }
          ],
          "internalType": "struct MultiplePriorityNominee.MultiplePriority[]",
          "name": "data",
          "type": "tuple[]"
        }
      ],
      "name": "assignTokensToMultipleNominees",
      "outputs": [],
      "stateMutability": "nonpayable",
      "type": "function"
    },
    {
      "inputs": [
        {
          "internalType": "address",
          "name": "_tokenAddress",
          "type": "address"
        },
        {
          "internalType": "uint256",
          "name": "_tokenCharge",
          "type": "uint256"
        },
        {
          "internalType": "uint256",
          "name": "_nftCharge",
          "type": "uint256"
        },
        {
          "internalType": "uint256",
          "name": "_percentage",
          "type": "uint256"
        }
      ],
      "name": "changeCharges",
      "outputs": [],
      "stateMutability": "nonpayable",
      "type": "function"
    },
    {
      "inputs": [],
      "name": "chargeTokenAddress",
      "outputs": [
        {
          "internalType": "address",
          "name": "",
          "type": "address"
        }
      ],
      "stateMutability": "view",
      "type": "function"
    },
    {
      "inputs": [
        {
          "internalType": "address",
          "name": "_owner",
          "type": "address"
        },
        {
          "internalType": "address",
          "name": "_tokenAddress",
          "type": "address"
        },
        {
          "internalType": "uint256",
          "name": "_tokenId",
          "type": "uint256"
        },
        {
          "internalType": "uint256",
          "name": "_category",
          "type": "uint256"
        }
      ],
      "name": "charityClaim",
      "outputs": [],
      "stateMutability": "payable",
      "type": "function"
    },
    {
      "inputs": [],
      "name": "charityContract",
      "outputs": [
        {
          "internalType": "contract CharityContract",
          "name": "",
          "type": "address"
        }
      ],
      "stateMutability": "view",
      "type": "function"
    },
    {
      "inputs": [],
      "name": "charityContractAddress",
      "outputs": [
        {
          "internalType": "address",
          "name": "",
          "type": "address"
        }
      ],
      "stateMutability": "view",
      "type": "function"
    },
    {
      "inputs": [
        {
          "internalType": "address",
          "name": "_owner",
          "type": "address"
        },
        {
          "internalType": "address",
          "name": "_tokenAddress",
          "type": "address"
        },
        {
          "internalType": "uint256",
          "name": "_tokenId",
          "type": "uint256"
        },
        {
          "internalType": "uint256",
          "name": "_category",
          "type": "uint256"
        }
      ],
      "name": "claim",
      "outputs": [],
      "stateMutability": "nonpayable",
      "type": "function"
    },
    {
      "inputs": [],
      "name": "inheritokens",
      "outputs": [
        {
          "internalType": "contract Inheritokens",
          "name": "",
          "type": "address"
        }
      ],
      "stateMutability": "view",
      "type": "function"
    },
    {
      "inputs": [],
      "name": "inheritokensAddress",
      "outputs": [
        {
          "internalType": "address",
          "name": "",
          "type": "address"
        }
      ],
      "stateMutability": "view",
      "type": "function"
    },
    {
      "inputs": [],
      "name": "nftCharge",
      "outputs": [
        {
          "internalType": "uint256",
          "name": "",
          "type": "uint256"
        }
      ],
      "stateMutability": "view",
      "type": "function"
    },
    {
      "inputs": [
        {
          "internalType": "address",
          "name": "_owner",
          "type": "address"
        },
        {
          "internalType": "address",
          "name": "_tokenAddress",
          "type": "address"
        },
        {
          "internalType": "uint256",
          "name": "_tokenId",
          "type": "uint256"
        }
      ],
      "name": "nftTransferLogic",
      "outputs": [],
      "stateMutability": "nonpayable",
      "type": "function"
    },
    {
      "inputs": [],
      "name": "owner",
      "outputs": [
        {
          "internalType": "address",
          "name": "",
          "type": "address"
        }
      ],
      "stateMutability": "view",
      "type": "function"
    },
    {
      "inputs": [
        {
          "internalType": "address",
          "name": "",
          "type": "address"
        },
        {
          "internalType": "address",
          "name": "",
          "type": "address"
        },
        {
          "internalType": "uint256",
          "name": "",
          "type": "uint256"
        },
        {
          "internalType": "uint256",
          "name": "",
          "type": "uint256"
        }
      ],
      "name": "ownerToNFTToStruct",
      "outputs": [
        {
          "internalType": "uint256",
          "name": "share",
          "type": "uint256"
        },
        {
          "internalType": "address",
          "name": "charityAddress",
          "type": "address"
        },
        {
          "internalType": "address",
          "name": "canClaim",
          "type": "address"
        },
        {
          "internalType": "bool",
          "name": "isDone",
          "type": "bool"
        }
      ],
      "stateMutability": "view",
      "type": "function"
    },
    {
      "inputs": [
        {
          "internalType": "address",
          "name": "",
          "type": "address"
        },
        {
          "internalType": "address",
          "name": "",
          "type": "address"
        },
        {
          "internalType": "uint256",
          "name": "",
          "type": "uint256"
        }
      ],
      "name": "ownerToTokenToStruct",
      "outputs": [
        {
          "internalType": "uint256",
          "name": "share",
          "type": "uint256"
        },
        {
          "internalType": "address",
          "name": "charityAddress",
          "type": "address"
        },
        {
          "internalType": "address",
          "name": "canClaim",
          "type": "address"
        },
        {
          "internalType": "bool",
          "name": "isDone",
          "type": "bool"
        }
      ],
      "stateMutability": "view",
      "type": "function"
    },
    {
      "inputs": [],
      "name": "percentage",
      "outputs": [
        {
          "internalType": "uint256",
          "name": "",
          "type": "uint256"
        }
      ],
      "stateMutability": "view",
      "type": "function"
    },
    {
      "inputs": [
        {
          "internalType": "address",
          "name": "_owner",
          "type": "address"
        },
        {
          "internalType": "address",
          "name": "_tokenAddress",
          "type": "address"
        },
        {
          "internalType": "uint256",
          "name": "_tokenId",
          "type": "uint256"
        },
        {
          "internalType": "uint256",
          "name": "_category",
          "type": "uint256"
        }
      ],
      "name": "recoveryClaim",
      "outputs": [],
      "stateMutability": "nonpayable",
      "type": "function"
    },
    {
      "inputs": [],
      "name": "renounceOwnership",
      "outputs": [],
      "stateMutability": "nonpayable",
      "type": "function"
    },
    {
      "inputs": [],
      "name": "tokenCharge",
      "outputs": [
        {
          "internalType": "uint256",
          "name": "",
          "type": "uint256"
        }
      ],
      "stateMutability": "view",
      "type": "function"
    },
    {
      "inputs": [
        {
          "internalType": "address",
          "name": "_owner",
          "type": "address"
        },
        {
          "internalType": "address",
          "name": "_tokenAddress",
          "type": "address"
        },
        {
          "internalType": "uint256",
          "name": "_share",
          "type": "uint256"
        }
      ],
      "name": "tokenTransferLogic",
      "outputs": [],
      "stateMutability": "nonpayable",
      "type": "function"
    },
    {
      "inputs": [
        {
          "internalType": "address",
          "name": "newOwner",
          "type": "address"
        }
      ],
      "name": "transferOwnership",
      "outputs": [],
      "stateMutability": "nonpayable",
      "type": "function"
    },
    {
      "inputs": [
        {
          "internalType": "uint256",
          "name": "_amount",
          "type": "uint256"
        },
        {
          "internalType": "address",
          "name": "_tokenAddress",
          "type": "address"
        }
      ],
      "name": "withdrawFromContract",
      "outputs": [],
      "stateMutability": "payable",
      "type": "function"
    }
  ],
  "bytecode": "0x6080604052620f4240600555624c4b40600655600160075573e9dce89b076ba6107bb64ef30678efec11939234600860006101000a81548173ffffffffffffffffffffffffffffffffffffffff021916908373ffffffffffffffffffffffffffffffffffffffff1602179055503480156200007957600080fd5b506040516200508e3803806200508e83398181016040528101906200009f919062000345565b620000bf620000b36200020f60201b60201c565b6200021760201b60201c565b81600160006101000a81548173ffffffffffffffffffffffffffffffffffffffff021916908373ffffffffffffffffffffffffffffffffffffffff160217905550600160009054906101000a900473ffffffffffffffffffffffffffffffffffffffff16600260006101000a81548173ffffffffffffffffffffffffffffffffffffffff021916908373ffffffffffffffffffffffffffffffffffffffff16021790555080600360006101000a81548173ffffffffffffffffffffffffffffffffffffffff021916908373ffffffffffffffffffffffffffffffffffffffff160217905550600360009054906101000a900473ffffffffffffffffffffffffffffffffffffffff16600460006101000a81548173ffffffffffffffffffffffffffffffffffffffff021916908373ffffffffffffffffffffffffffffffffffffffff16021790555050506200038c565b600033905090565b60008060009054906101000a900473ffffffffffffffffffffffffffffffffffffffff169050816000806101000a81548173ffffffffffffffffffffffffffffffffffffffff021916908373ffffffffffffffffffffffffffffffffffffffff1602179055508173ffffffffffffffffffffffffffffffffffffffff168173ffffffffffffffffffffffffffffffffffffffff167f8be0079c531659141344cd1fd0a4f28419497f9722a3daafe3b4186f6b6457e060405160405180910390a35050565b600080fd5b600073ffffffffffffffffffffffffffffffffffffffff82169050919050565b60006200030d82620002e0565b9050919050565b6200031f8162000300565b81146200032b57600080fd5b50565b6000815190506200033f8162000314565b92915050565b600080604083850312156200035f576200035e620002db565b5b60006200036f858286016200032e565b925050602062000382858286016200032e565b9150509250929050565b614cf2806200039c6000396000f3fe60806040526004361061012a5760003560e01c80639605f505116100ab578063c14394301161006f578063c1439430146103a2578063c407695b146103cb578063c78ad77f146103f6578063f1d8eefc14610421578063f2fde38b1461044c578063f4cd5465146104755761012a565b80639605f505146102b05780639b252023146102cc578063a64ad61f146102f7578063be27c3fe14610337578063bea7d6ac146103625761012a565b80634ab3a732116100f25780634ab3a732146101f15780635c042ae71461021a578063715018a61461024557806379cf30771461025c5780638da5cb5b146102855761012a565b806303cd42481461012f5780631a2411651461015857806322d5dfbf1461017457806326af48321461019d57806346f17152146101c6575b600080fd5b34801561013b57600080fd5b50610156600480360381019061015191906131a8565b6104a0565b005b610172600480360381019061016d919061320f565b610504565b005b34801561018057600080fd5b5061019b60048036038101906101969190613276565b610cb9565b005b3480156101a957600080fd5b506101c460048036038101906101bf919061320f565b610d33565b005b3480156101d257600080fd5b506101db61133c565b6040516101e891906132d8565b60405180910390f35b3480156101fd57600080fd5b506102186004803603810190610213919061320f565b611362565b005b34801561022657600080fd5b5061022f611727565b60405161023c91906132d8565b60405180910390f35b34801561025157600080fd5b5061025a61174d565b005b34801561026857600080fd5b50610283600480360381019061027e9190613276565b611761565b005b34801561029157600080fd5b5061029a611935565b6040516102a791906132d8565b60405180910390f35b6102ca60048036038101906102c591906132f3565b61195e565b005b3480156102d857600080fd5b506102e16119ef565b6040516102ee9190613342565b60405180910390f35b34801561030357600080fd5b5061031e6004803603810190610319919061320f565b6119f5565b60405161032e9493929190613378565b60405180910390f35b34801561034357600080fd5b5061034c611aa9565b604051610359919061341c565b60405180910390f35b34801561036e57600080fd5b5061038960048036038101906103849190613276565b611acf565b6040516103999493929190613378565b60405180910390f35b3480156103ae57600080fd5b506103c960048036038101906103c49190613927565b611b76565b005b3480156103d757600080fd5b506103e0612c70565b6040516103ed9190613342565b60405180910390f35b34801561040257600080fd5b5061040b612c76565b6040516104189190613342565b60405180910390f35b34801561042d57600080fd5b50610436612c7c565b60405161044391906132d8565b60405180910390f35b34801561045857600080fd5b50610473600480360381019061046e91906139da565b612ca2565b005b34801561048157600080fd5b5061048a612d25565b6040516104979190613a28565b60405180910390f35b6104a8612d4b565b83600860006101000a81548173ffffffffffffffffffffffffffffffffffffffff021916908373ffffffffffffffffffffffffffffffffffffffff16021790555082600581905550816006819055508060078190555050505050565b6000600260009054906101000a900473ffffffffffffffffffffffffffffffffffffffff1673ffffffffffffffffffffffffffffffffffffffff166345bceabd866040518263ffffffff1660e01b815260040161056191906132d8565b600060405180830381865afa15801561057e573d6000803e3d6000fd5b505050506040513d6000823e3d601f19601f820116820180604052508101906105a79190613b1b565b905060008060005b83518110156106d157600460009054906101000a900473ffffffffffffffffffffffffffffffffffffffff1673ffffffffffffffffffffffffffffffffffffffff16637f3d39bd85838151811061060957610608613b64565b5b60200260200101516040518263ffffffff1660e01b815260040161062d9190613342565b600060405180830381865afa15801561064a573d6000803e3d6000fd5b505050506040513d6000823e3d601f19601f820116820180604052508101906106739190613c42565b9091929350909150905050809350503373ffffffffffffffffffffffffffffffffffffffff168373ffffffffffffffffffffffffffffffffffffffff16036106be57600191506106d1565b80806106c990613d40565b9150506105af565b506000151581151503610719576040517f08c379a000000000000000000000000000000000000000000000000000000000815260040161071090613e0b565b60405180910390fd5b60008403610a1f5760005b600960008973ffffffffffffffffffffffffffffffffffffffff1673ffffffffffffffffffffffffffffffffffffffff16815260200190815260200160002060008873ffffffffffffffffffffffffffffffffffffffff1673ffffffffffffffffffffffffffffffffffffffff16815260200190815260200160002080549050811015610a19573373ffffffffffffffffffffffffffffffffffffffff16600960008a73ffffffffffffffffffffffffffffffffffffffff1673ffffffffffffffffffffffffffffffffffffffff16815260200190815260200160002060008973ffffffffffffffffffffffffffffffffffffffff1673ffffffffffffffffffffffffffffffffffffffff16815260200190815260200160002082815481106108505761084f613b64565b5b906000526020600020906007020160020160009054906101000a900473ffffffffffffffffffffffffffffffffffffffff1673ffffffffffffffffffffffffffffffffffffffff1603610a06576000600960008a73ffffffffffffffffffffffffffffffffffffffff1673ffffffffffffffffffffffffffffffffffffffff16815260200190815260200160002060008973ffffffffffffffffffffffffffffffffffffffff1673ffffffffffffffffffffffffffffffffffffffff168152602001908152602001600020828154811061092d5761092c613b64565b5b906000526020600020906007020160000154905061094c898983611761565b6001600960008b73ffffffffffffffffffffffffffffffffffffffff1673ffffffffffffffffffffffffffffffffffffffff16815260200190815260200160002060008a73ffffffffffffffffffffffffffffffffffffffff1673ffffffffffffffffffffffffffffffffffffffff16815260200190815260200160002083815481106109dc576109db613b64565b5b906000526020600020906007020160060160006101000a81548160ff021916908315150217905550505b8080610a1190613d40565b915050610724565b50610cb0565b60018403610caf5760005b600a60008973ffffffffffffffffffffffffffffffffffffffff1673ffffffffffffffffffffffffffffffffffffffff16815260200190815260200160002060008873ffffffffffffffffffffffffffffffffffffffff1673ffffffffffffffffffffffffffffffffffffffff168152602001908152602001600020600087815260200190815260200160002080549050811015610cad573373ffffffffffffffffffffffffffffffffffffffff16600a60008a73ffffffffffffffffffffffffffffffffffffffff1673ffffffffffffffffffffffffffffffffffffffff16815260200190815260200160002060008973ffffffffffffffffffffffffffffffffffffffff1673ffffffffffffffffffffffffffffffffffffffff16815260200190815260200160002060008881526020019081526020016000208281548110610b7857610b77613b64565b5b906000526020600020906007020160020160009054906101000a900473ffffffffffffffffffffffffffffffffffffffff1673ffffffffffffffffffffffffffffffffffffffff1603610c9a57610bd0888888610cb9565b6001600a60008a73ffffffffffffffffffffffffffffffffffffffff1673ffffffffffffffffffffffffffffffffffffffff16815260200190815260200160002060008973ffffffffffffffffffffffffffffffffffffffff1673ffffffffffffffffffffffffffffffffffffffff16815260200190815260200160002060008881526020019081526020016000208281548110610c7157610c70613b64565b5b906000526020600020906007020160060160006101000a81548160ff0219169083151502179055505b8080610ca590613d40565b915050610a2a565b505b5b50505050505050565b60008290508073ffffffffffffffffffffffffffffffffffffffff166323b872dd8533856040518463ffffffff1660e01b8152600401610cfb93929190613e2b565b600060405180830381600087803b158015610d1557600080fd5b505af1158015610d29573d6000803e3d6000fd5b5050505050505050565b600260009054906101000a900473ffffffffffffffffffffffffffffffffffffffff1673ffffffffffffffffffffffffffffffffffffffff16633d4c12d7856040518263ffffffff1660e01b8152600401610d8e91906132d8565b602060405180830381865afa158015610dab573d6000803e3d6000fd5b505050506040513d601f19601f82011682018060405250810190610dcf9190613e77565b610e0e576040517f08c379a0000000000000000000000000000000000000000000000000000000008152600401610e0590613f16565b60405180910390fd5b600080600083036110ae5760005b600960008873ffffffffffffffffffffffffffffffffffffffff1673ffffffffffffffffffffffffffffffffffffffff16815260200190815260200160002060008773ffffffffffffffffffffffffffffffffffffffff1673ffffffffffffffffffffffffffffffffffffffff16815260200190815260200160002080549050811015611061573373ffffffffffffffffffffffffffffffffffffffff16600960008973ffffffffffffffffffffffffffffffffffffffff1673ffffffffffffffffffffffffffffffffffffffff16815260200190815260200160002060008873ffffffffffffffffffffffffffffffffffffffff1673ffffffffffffffffffffffffffffffffffffffff1681526020019081526020016000208281548110610f4857610f47613b64565b5b906000526020600020906007020160020160009054906101000a900473ffffffffffffffffffffffffffffffffffffffff1673ffffffffffffffffffffffffffffffffffffffff160361104e576000600960008973ffffffffffffffffffffffffffffffffffffffff1673ffffffffffffffffffffffffffffffffffffffff16815260200190815260200160002060008873ffffffffffffffffffffffffffffffffffffffff1673ffffffffffffffffffffffffffffffffffffffff168152602001908152602001600020828154811061102557611024613b64565b5b9060005260206000209060070201600001549050611044888883611761565b6001925050611061565b808061105990613d40565b915050610e1c565b5060001515811515036110a9576040517f08c379a00000000000000000000000000000000000000000000000000000000081526004016110a090613fce565b60405180910390fd5b6112b4565b600183036112b35760005b600960008873ffffffffffffffffffffffffffffffffffffffff1673ffffffffffffffffffffffffffffffffffffffff16815260200190815260200160002060008773ffffffffffffffffffffffffffffffffffffffff1673ffffffffffffffffffffffffffffffffffffffff1681526020019081526020016000208054905081101561126a573373ffffffffffffffffffffffffffffffffffffffff16600a60008973ffffffffffffffffffffffffffffffffffffffff1673ffffffffffffffffffffffffffffffffffffffff16815260200190815260200160002060008873ffffffffffffffffffffffffffffffffffffffff1673ffffffffffffffffffffffffffffffffffffffff168152602001908152602001600020600087815260200190815260200160002082815481106111f6576111f5613b64565b5b906000526020600020906007020160020160009054906101000a900473ffffffffffffffffffffffffffffffffffffffff1673ffffffffffffffffffffffffffffffffffffffff16036112575761124e878787610cb9565b6001915061126a565b808061126290613d40565b9150506110b9565b5060001515811515036112b2576040517f08c379a00000000000000000000000000000000000000000000000000000000081526004016112a990613fce565b60405180910390fd5b5b5b8473ffffffffffffffffffffffffffffffffffffffff163373ffffffffffffffffffffffffffffffffffffffff168773ffffffffffffffffffffffffffffffffffffffff167f5ccac6a981ee0d2404d2487672d204c80cc526da4f51e90dd5ae4cfe880a9add87868860405161132c93929190613fee565b60405180910390a4505050505050565b600160009054906101000a900473ffffffffffffffffffffffffffffffffffffffff1681565b3373ffffffffffffffffffffffffffffffffffffffff16600260009054906101000a900473ffffffffffffffffffffffffffffffffffffffff1673ffffffffffffffffffffffffffffffffffffffff1663c3bb8121866040518263ffffffff1660e01b81526004016113d491906132d8565b600060405180830381865afa1580156113f1573d6000803e3d6000fd5b505050506040513d6000823e3d601f19601f8201168201806040525081019061141a919061429c565b60e0015173ffffffffffffffffffffffffffffffffffffffff1614611474576040517f08c379a000000000000000000000000000000000000000000000000000000000815260040161146b90614357565b60405180910390fd5b60008082036116375760008490508073ffffffffffffffffffffffffffffffffffffffff166370a08231876040518263ffffffff1660e01b81526004016114bb91906132d8565b602060405180830381865afa1580156114d8573d6000803e3d6000fd5b505050506040513d601f19601f820116820180604052508101906114fc9190614377565b915060006127106007548461151191906143a4565b61151b9190614415565b90506000818461152b9190614446565b90508273ffffffffffffffffffffffffffffffffffffffff166323b872dd8930856040518463ffffffff1660e01b815260040161156a93929190613e2b565b6020604051808303816000875af1158015611589573d6000803e3d6000fd5b505050506040513d601f19601f820116820180604052508101906115ad9190613e77565b508273ffffffffffffffffffffffffffffffffffffffff166323b872dd8933846040518463ffffffff1660e01b81526004016115eb93929190613e2b565b6020604051808303816000875af115801561160a573d6000803e3d6000fd5b505050506040513d601f19601f8201168201806040525081019061162e9190613e77565b505050506116b7565b60008311156116b65760008490508073ffffffffffffffffffffffffffffffffffffffff166323b872dd8733876040518463ffffffff1660e01b815260040161168293929190613e2b565b600060405180830381600087803b15801561169c57600080fd5b505af11580156116b0573d6000803e3d6000fd5b50505050505b5b8373ffffffffffffffffffffffffffffffffffffffff168573ffffffffffffffffffffffffffffffffffffffff167faa3446f866f557932f6c5a4933379c0e3e3fd6dcc0a20cfae5222255ffd16bdd85848660405161171893929190613fee565b60405180910390a35050505050565b600860009054906101000a900473ffffffffffffffffffffffffffffffffffffffff1681565b611755612d4b565b61175f6000612dc9565b565b600082905060006064838373ffffffffffffffffffffffffffffffffffffffff166370a08231886040518263ffffffff1660e01b81526004016117a491906132d8565b602060405180830381865afa1580156117c1573d6000803e3d6000fd5b505050506040513d601f19601f820116820180604052508101906117e59190614377565b6117ef91906143a4565b6117f99190614415565b905060006127106007548361180e91906143a4565b6118189190614415565b9050600081836118289190614446565b90508373ffffffffffffffffffffffffffffffffffffffff166323b872dd8830856040518463ffffffff1660e01b815260040161186793929190613e2b565b6020604051808303816000875af1158015611886573d6000803e3d6000fd5b505050506040513d601f19601f820116820180604052508101906118aa9190613e77565b508373ffffffffffffffffffffffffffffffffffffffff166323b872dd8833846040518463ffffffff1660e01b81526004016118e893929190613e2b565b6020604051808303816000875af1158015611907573d6000803e3d6000fd5b505050506040513d601f19601f8201168201806040525081019061192b9190613e77565b5050505050505050565b60008060009054906101000a900473ffffffffffffffffffffffffffffffffffffffff16905090565b611966612d4b565b60008190508073ffffffffffffffffffffffffffffffffffffffff1663a9059cbb33856040518363ffffffff1660e01b81526004016119a692919061447a565b6020604051808303816000875af11580156119c5573d6000803e3d6000fd5b505050506040513d601f19601f820116820180604052508101906119e99190613e77565b50505050565b60055481565b600a6020528360005260406000206020528260005260406000206020528160005260406000208181548110611a2957600080fd5b90600052602060002090600702016000935093505050508060000154908060010160009054906101000a900473ffffffffffffffffffffffffffffffffffffffff16908060020160009054906101000a900473ffffffffffffffffffffffffffffffffffffffff16908060060160009054906101000a900460ff16905084565b600260009054906101000a900473ffffffffffffffffffffffffffffffffffffffff1681565b60096020528260005260406000206020528160005260406000208181548110611af757600080fd5b906000526020600020906007020160009250925050508060000154908060010160009054906101000a900473ffffffffffffffffffffffffffffffffffffffff16908060020160009054906101000a900473ffffffffffffffffffffffffffffffffffffffff16908060060160009054906101000a900460ff16905084565b600260009054906101000a900473ffffffffffffffffffffffffffffffffffffffff1673ffffffffffffffffffffffffffffffffffffffff16630f1f8c05336040518263ffffffff1660e01b8152600401611bd191906132d8565b602060405180830381865afa158015611bee573d6000803e3d6000fd5b505050506040513d601f19601f82011682018060405250810190611c129190613e77565b611c51576040517f08c379a0000000000000000000000000000000000000000000000000000000008152600401611c4890614515565b60405180910390fd5b600260009054906101000a900473ffffffffffffffffffffffffffffffffffffffff1673ffffffffffffffffffffffffffffffffffffffff166315b79630336040518263ffffffff1660e01b8152600401611cac91906132d8565b602060405180830381865afa158015611cc9573d6000803e3d6000fd5b505050506040513d601f19601f82011682018060405250810190611ced9190613e77565b611d2c576040517f08c379a0000000000000000000000000000000000000000000000000000000008152600401611d23906145cd565b60405180910390fd5b6000600260009054906101000a900473ffffffffffffffffffffffffffffffffffffffff1673ffffffffffffffffffffffffffffffffffffffff166320e4ab6a336040518263ffffffff1660e01b8152600401611d8991906132d8565b600060405180830381865afa158015611da6573d6000803e3d6000fd5b505050506040513d6000823e3d601f19601f82011682018060405250810190611dcf91906145ed565b9050600080600260009054906101000a900473ffffffffffffffffffffffffffffffffffffffff1673ffffffffffffffffffffffffffffffffffffffff166345bceabd336040518263ffffffff1660e01b8152600401611e2f91906132d8565b600060405180830381865afa158015611e4c573d6000803e3d6000fd5b505050506040513d6000823e3d601f19601f82011682018060405250810190611e759190613b1b565b9050600080600090505b85518110156121615760005b868281518110611e9e57611e9d613b64565b5b60200260200101516060015151811015611fbe576000945060005b8651811015611f6357868181518110611ed557611ed4613b64565b5b602002602001015173ffffffffffffffffffffffffffffffffffffffff16888481518110611f0657611f05613b64565b5b6020026020010151606001518381518110611f2457611f23613b64565b5b602002602001015173ffffffffffffffffffffffffffffffffffffffff1603611f505760019550611f63565b8080611f5b90613d40565b915050611eb9565b506000151585151503611fab576040517f08c379a0000000000000000000000000000000000000000000000000000000008152600401611fa2906146ce565b60405180910390fd5b8080611fb690613d40565b915050611e8b565b5060005b835181101561214d576000600460009054906101000a900473ffffffffffffffffffffffffffffffffffffffff1673ffffffffffffffffffffffffffffffffffffffff16637f3d39bd86858151811061201e5761201d613b64565b5b60200260200101516040518263ffffffff1660e01b81526004016120429190613342565b600060405180830381865afa15801561205f573d6000803e3d6000fd5b505050506040513d6000823e3d601f19601f820116820180604052508101906120889190613c42565b9091929350909150905050809150508073ffffffffffffffffffffffffffffffffffffffff168884815181106120c1576120c0613b64565b5b60200260200101516020015173ffffffffffffffffffffffffffffffffffffffff16036120f257600193505061214d565b6000151584151503612139576040517f08c379a000000000000000000000000000000000000000000000000000000000815260040161213090614786565b60405180910390fd5b50808061214590613d40565b915050611fc2565b50808061215990613d40565b915050611e7f565b506000600260009054906101000a900473ffffffffffffffffffffffffffffffffffffffff1673ffffffffffffffffffffffffffffffffffffffff1663de508c5b338c6040518363ffffffff1660e01b81526004016121c19291906147a6565b600060405180830381865afa1580156121de573d6000803e3d6000fd5b505050506040513d6000823e3d601f19601f8201168201806040525081019061220791906147cf565b909192939450909192935090919250909150905080915050600080600090505b875181101561226f5787818151811061224357612242613b64565b5b6020026020010151600001518261225a9190614878565b9150808061226790613d40565b915050612227565b5060648111156122b4576040517f08c379a00000000000000000000000000000000000000000000000000000000081526004016122ab90614944565b60405180910390fd5b8161235557600260009054906101000a900473ffffffffffffffffffffffffffffffffffffffff1673ffffffffffffffffffffffffffffffffffffffff166325cb763a338d8d8d868e6040518763ffffffff1660e01b815260040161231e969594939291906149a8565b600060405180830381600087803b15801561233857600080fd5b505af115801561234c573d6000803e3d6000fd5b5050505061277b565b6000600860009054906101000a900473ffffffffffffffffffffffffffffffffffffffff16905060008a03612554576005548173ffffffffffffffffffffffffffffffffffffffff1663dd62ed3e33306040518363ffffffff1660e01b81526004016123c29291906147a6565b602060405180830381865afa1580156123df573d6000803e3d6000fd5b505050506040513d601f19601f820116820180604052508101906124039190614377565b1015612444576040517f08c379a000000000000000000000000000000000000000000000000000000000815260040161243b90614a82565b60405180910390fd5b8073ffffffffffffffffffffffffffffffffffffffff166323b872dd33306005546040518463ffffffff1660e01b815260040161248393929190613e2b565b6020604051808303816000875af11580156124a2573d6000803e3d6000fd5b505050506040513d601f19601f820116820180604052508101906124c69190613e77565b50600960003373ffffffffffffffffffffffffffffffffffffffff1673ffffffffffffffffffffffffffffffffffffffff16815260200190815260200160002060008d73ffffffffffffffffffffffffffffffffffffffff1673ffffffffffffffffffffffffffffffffffffffff168152602001908152602001600020600061254f9190612e95565b612779565b60018a0361273d576006548173ffffffffffffffffffffffffffffffffffffffff1663dd62ed3e33306040518363ffffffff1660e01b815260040161259a9291906147a6565b602060405180830381865afa1580156125b7573d6000803e3d6000fd5b505050506040513d601f19601f820116820180604052508101906125db9190614377565b101561261c576040517f08c379a000000000000000000000000000000000000000000000000000000000815260040161261390614a82565b60405180910390fd5b8073ffffffffffffffffffffffffffffffffffffffff166323b872dd33306006546040518463ffffffff1660e01b815260040161265b93929190613e2b565b6020604051808303816000875af115801561267a573d6000803e3d6000fd5b505050506040513d601f19601f8201168201806040525081019061269e9190613e77565b50600a60003373ffffffffffffffffffffffffffffffffffffffff1673ffffffffffffffffffffffffffffffffffffffff16815260200190815260200160002060008d73ffffffffffffffffffffffffffffffffffffffff1673ffffffffffffffffffffffffffffffffffffffff16815260200190815260200160002060008a815260200190815260200160002060006127389190612e95565b612778565b6040517f08c379a000000000000000000000000000000000000000000000000000000000815260040161276f90614b14565b60405180910390fd5b5b505b600260009054906101000a900473ffffffffffffffffffffffffffffffffffffffff1673ffffffffffffffffffffffffffffffffffffffff1663b69bd77f338d8b858e6040518663ffffffff1660e01b81526004016127de959493929190614b34565b600060405180830381600087803b1580156127f857600080fd5b505af115801561280c573d6000803e3d6000fd5b5050505060008903612a0e5760005b8751811015612a0857600960003373ffffffffffffffffffffffffffffffffffffffff1673ffffffffffffffffffffffffffffffffffffffff16815260200190815260200160002060008d73ffffffffffffffffffffffffffffffffffffffff1673ffffffffffffffffffffffffffffffffffffffff1681526020019081526020016000208882815181106128b3576128b2613b64565b5b602002602001015190806001815401808255809150506001900390600052602060002090600702016000909190919091506000820151816000015560208201518160010160006101000a81548173ffffffffffffffffffffffffffffffffffffffff021916908373ffffffffffffffffffffffffffffffffffffffff16021790555060408201518160020160006101000a81548173ffffffffffffffffffffffffffffffffffffffff021916908373ffffffffffffffffffffffffffffffffffffffff1602179055506060820151816003019080519060200190612998929190612eb9565b5060808201518160040190805190602001906129b5929190612f43565b5060a08201518160050190805190602001906129d2929190612f43565b5060c08201518160060160006101000a81548160ff02191690831515021790555050508080612a0090613d40565b91505061281b565b50612c11565b60005b8751811015612c0f57600a60003373ffffffffffffffffffffffffffffffffffffffff1673ffffffffffffffffffffffffffffffffffffffff16815260200190815260200160002060008d73ffffffffffffffffffffffffffffffffffffffff1673ffffffffffffffffffffffffffffffffffffffff16815260200190815260200160002060008a8152602001908152602001600020888281518110612aba57612ab9613b64565b5b602002602001015190806001815401808255809150506001900390600052602060002090600702016000909190919091506000820151816000015560208201518160010160006101000a81548173ffffffffffffffffffffffffffffffffffffffff021916908373ffffffffffffffffffffffffffffffffffffffff16021790555060408201518160020160006101000a81548173ffffffffffffffffffffffffffffffffffffffff021916908373ffffffffffffffffffffffffffffffffffffffff1602179055506060820151816003019080519060200190612b9f929190612eb9565b506080820151816004019080519060200190612bbc929190612f43565b5060a0820151816005019080519060200190612bd9929190612f43565b5060c08201518160060160006101000a81548160ff02191690831515021790555050508080612c0790613d40565b915050612a11565b505b3373ffffffffffffffffffffffffffffffffffffffff167f356b94cb07d152dfb4f8876f9a6f4c7007027dd30aecb0ac9b698849e14e0e718c8a8c604051612c5b93929190614b87565b60405180910390a25050505050505050505050565b60065481565b60075481565b600360009054906101000a900473ffffffffffffffffffffffffffffffffffffffff1681565b612caa612d4b565b600073ffffffffffffffffffffffffffffffffffffffff168173ffffffffffffffffffffffffffffffffffffffff1603612d19576040517f08c379a0000000000000000000000000000000000000000000000000000000008152600401612d1090614c30565b60405180910390fd5b612d2281612dc9565b50565b600460009054906101000a900473ffffffffffffffffffffffffffffffffffffffff1681565b612d53612e8d565b73ffffffffffffffffffffffffffffffffffffffff16612d71611935565b73ffffffffffffffffffffffffffffffffffffffff1614612dc7576040517f08c379a0000000000000000000000000000000000000000000000000000000008152600401612dbe90614c9c565b60405180910390fd5b565b60008060009054906101000a900473ffffffffffffffffffffffffffffffffffffffff169050816000806101000a81548173ffffffffffffffffffffffffffffffffffffffff021916908373ffffffffffffffffffffffffffffffffffffffff1602179055508173ffffffffffffffffffffffffffffffffffffffff168173ffffffffffffffffffffffffffffffffffffffff167f8be0079c531659141344cd1fd0a4f28419497f9722a3daafe3b4186f6b6457e060405160405180910390a35050565b600033905090565b5080546000825560070290600052602060002090810190612eb69190612fe9565b50565b828054828255906000526020600020908101928215612f32579160200282015b82811115612f315782518260006101000a81548173ffffffffffffffffffffffffffffffffffffffff021916908373ffffffffffffffffffffffffffffffffffffffff16021790555091602001919060010190612ed9565b5b509050612f3f919061309a565b5090565b82805482825590600052602060002090601f01602090048101928215612fd85791602002820160005b83821115612fa957835183826101000a81548160ff0219169083151502179055509260200192600101602081600001049283019260010302612f6c565b8015612fd65782816101000a81549060ff0219169055600101602081600001049283019260010302612fa9565b505b509050612fe5919061309a565b5090565b5b80821115613096576000808201600090556001820160006101000a81549073ffffffffffffffffffffffffffffffffffffffff02191690556002820160006101000a81549073ffffffffffffffffffffffffffffffffffffffff021916905560038201600061305991906130b7565b60048201600061306991906130d8565b60058201600061307991906130d8565b6006820160006101000a81549060ff021916905550600701612fea565b5090565b5b808211156130b357600081600090555060010161309b565b5090565b50805460008255906000526020600020908101906130d5919061309a565b50565b50805460008255601f0160209004906000526020600020908101906130fd919061309a565b50565b6000604051905090565b600080fd5b600080fd5b600073ffffffffffffffffffffffffffffffffffffffff82169050919050565b600061313f82613114565b9050919050565b61314f81613134565b811461315a57600080fd5b50565b60008135905061316c81613146565b92915050565b6000819050919050565b61318581613172565b811461319057600080fd5b50565b6000813590506131a28161317c565b92915050565b600080600080608085870312156131c2576131c161310a565b5b60006131d08782880161315d565b94505060206131e187828801613193565b93505060406131f287828801613193565b925050606061320387828801613193565b91505092959194509250565b600080600080608085870312156132295761322861310a565b5b60006132378782880161315d565b94505060206132488782880161315d565b935050604061325987828801613193565b925050606061326a87828801613193565b91505092959194509250565b60008060006060848603121561328f5761328e61310a565b5b600061329d8682870161315d565b93505060206132ae8682870161315d565b92505060406132bf86828701613193565b9150509250925092565b6132d281613134565b82525050565b60006020820190506132ed60008301846132c9565b92915050565b6000806040838503121561330a5761330961310a565b5b600061331885828601613193565b92505060206133298582860161315d565b9150509250929050565b61333c81613172565b82525050565b60006020820190506133576000830184613333565b92915050565b60008115159050919050565b6133728161335d565b82525050565b600060808201905061338d6000830187613333565b61339a60208301866132c9565b6133a760408301856132c9565b6133b46060830184613369565b95945050505050565b6000819050919050565b60006133e26133dd6133d884613114565b6133bd565b613114565b9050919050565b60006133f4826133c7565b9050919050565b6000613406826133e9565b9050919050565b613416816133fb565b82525050565b6000602082019050613431600083018461340d565b92915050565b600080fd5b600080fd5b6000601f19601f8301169050919050565b7f4e487b7100000000000000000000000000000000000000000000000000000000600052604160045260246000fd5b61348a82613441565b810181811067ffffffffffffffff821117156134a9576134a8613452565b5b80604052505050565b60006134bc613100565b90506134c88282613481565b919050565b600067ffffffffffffffff8211156134e8576134e7613452565b5b6134f182613441565b9050602081019050919050565b82818337600083830152505050565b600061352061351b846134cd565b6134b2565b90508281526020810184848401111561353c5761353b61343c565b5b6135478482856134fe565b509392505050565b600082601f83011261356457613563613437565b5b813561357484826020860161350d565b91505092915050565b600067ffffffffffffffff82111561359857613597613452565b5b602082029050602081019050919050565b600080fd5b600080fd5b600080fd5b600067ffffffffffffffff8211156135d3576135d2613452565b5b602082029050602081019050919050565b60006135f76135f2846135b8565b6134b2565b9050808382526020820190506020840283018581111561361a576136196135a9565b5b835b81811015613643578061362f888261315d565b84526020840193505060208101905061361c565b5050509392505050565b600082601f83011261366257613661613437565b5b81356136728482602086016135e4565b91505092915050565b600067ffffffffffffffff82111561369657613695613452565b5b602082029050602081019050919050565b6136b08161335d565b81146136bb57600080fd5b50565b6000813590506136cd816136a7565b92915050565b60006136e66136e18461367b565b6134b2565b90508083825260208201905060208402830185811115613709576137086135a9565b5b835b81811015613732578061371e88826136be565b84526020840193505060208101905061370b565b5050509392505050565b600082601f83011261375157613750613437565b5b81356137618482602086016136d3565b91505092915050565b600060e082840312156137805761377f6135ae565b5b61378a60e06134b2565b9050600061379a84828501613193565b60008301525060206137ae8482850161315d565b60208301525060406137c28482850161315d565b604083015250606082013567ffffffffffffffff8111156137e6576137e56135b3565b5b6137f28482850161364d565b606083015250608082013567ffffffffffffffff811115613816576138156135b3565b5b6138228482850161373c565b60808301525060a082013567ffffffffffffffff811115613846576138456135b3565b5b6138528482850161373c565b60a08301525060c0613866848285016136be565b60c08301525092915050565b60006138856138808461357d565b6134b2565b905080838252602082019050602084028301858111156138a8576138a76135a9565b5b835b818110156138ef57803567ffffffffffffffff8111156138cd576138cc613437565b5b8086016138da898261376a565b855260208501945050506020810190506138aa565b5050509392505050565b600082601f83011261390e5761390d613437565b5b813561391e848260208601613872565b91505092915050565b600080600080600060a086880312156139435761394261310a565b5b60006139518882890161315d565b955050602086013567ffffffffffffffff8111156139725761397161310f565b5b61397e8882890161354f565b945050604061398f88828901613193565b93505060606139a088828901613193565b925050608086013567ffffffffffffffff8111156139c1576139c061310f565b5b6139cd888289016138f9565b9150509295509295909350565b6000602082840312156139f0576139ef61310a565b5b60006139fe8482850161315d565b91505092915050565b6000613a12826133e9565b9050919050565b613a2281613a07565b82525050565b6000602082019050613a3d6000830184613a19565b92915050565b600067ffffffffffffffff821115613a5e57613a5d613452565b5b602082029050602081019050919050565b600081519050613a7e8161317c565b92915050565b6000613a97613a9284613a43565b6134b2565b90508083825260208201905060208402830185811115613aba57613ab96135a9565b5b835b81811015613ae35780613acf8882613a6f565b845260208401935050602081019050613abc565b5050509392505050565b600082601f830112613b0257613b01613437565b5b8151613b12848260208601613a84565b91505092915050565b600060208284031215613b3157613b3061310a565b5b600082015167ffffffffffffffff811115613b4f57613b4e61310f565b5b613b5b84828501613aed565b91505092915050565b7f4e487b7100000000000000000000000000000000000000000000000000000000600052603260045260246000fd5b600081519050613ba281613146565b92915050565b60005b83811015613bc6578082015181840152602081019050613bab565b60008484015250505050565b6000613be5613be0846134cd565b6134b2565b905082815260208101848484011115613c0157613c0061343c565b5b613c0c848285613ba8565b509392505050565b600082601f830112613c2957613c28613437565b5b8151613c39848260208601613bd2565b91505092915050565b600080600080600060a08688031215613c5e57613c5d61310a565b5b6000613c6c88828901613a6f565b9550506020613c7d88828901613b93565b945050604086015167ffffffffffffffff811115613c9e57613c9d61310f565b5b613caa88828901613c14565b935050606086015167ffffffffffffffff811115613ccb57613cca61310f565b5b613cd788828901613c14565b925050608086015167ffffffffffffffff811115613cf857613cf761310f565b5b613d0488828901613c14565b9150509295509295909350565b7f4e487b7100000000000000000000000000000000000000000000000000000000600052601160045260246000fd5b6000613d4b82613172565b91507fffffffffffffffffffffffffffffffffffffffffffffffffffffffffffffffff8203613d7d57613d7c613d11565b5b600182019050919050565b600082825260208201905092915050565b7f536f7272792120596f7520617265206e6f74206e6f6d696e617465642062792060008201527f74686973206f776e657200000000000000000000000000000000000000000000602082015250565b6000613df5602a83613d88565b9150613e0082613d99565b604082019050919050565b60006020820190508181036000830152613e2481613de8565b9050919050565b6000606082019050613e4060008301866132c9565b613e4d60208301856132c9565b613e5a6040830184613333565b949350505050565b600081519050613e71816136a7565b92915050565b600060208284031215613e8d57613e8c61310a565b5b6000613e9b84828501613e62565b91505092915050565b7f536f7272792120596f752063616e277420636c61696d20746869732e2057652060008201527f77696c6c206d61696c20796f7520746f20636c61696d20746869732e00000000602082015250565b6000613f00603c83613d88565b9150613f0b82613ea4565b604082019050919050565b60006020820190508181036000830152613f2f81613ef3565b9050919050565b7f4f6f70732120596f752063616e277420636c61696d207468697320726967687460008201527f206e6f772e2057652077696c6c20696e666f726d20796f75207768656e20796f60208201527f752063616e20636c61696d2074686520746f6b656e2e00000000000000000000604082015250565b6000613fb8605683613d88565b9150613fc382613f36565b606082019050919050565b60006020820190508181036000830152613fe781613fab565b9050919050565b60006060820190506140036000830186613333565b6140106020830185613333565b61401d6040830184613333565b949350505050565b6000614038614033846135b8565b6134b2565b9050808382526020820190506020840283018581111561405b5761405a6135a9565b5b835b8181101561408457806140708882613b93565b84526020840193505060208101905061405d565b5050509392505050565b600082601f8301126140a3576140a2613437565b5b81516140b3848260208601614025565b91505092915050565b60006101a082840312156140d3576140d26135ae565b5b6140de6101a06134b2565b9050600082015167ffffffffffffffff8111156140fe576140fd6135b3565b5b61410a84828501613c14565b600083015250602082015167ffffffffffffffff81111561412e5761412d6135b3565b5b61413a84828501613c14565b602083015250604082015167ffffffffffffffff81111561415e5761415d6135b3565b5b61416a84828501613c14565b604083015250606082015167ffffffffffffffff81111561418e5761418d6135b3565b5b61419a84828501613c14565b60608301525060806141ae84828501613e62565b60808301525060a06141c284828501613e62565b60a08301525060c06141d684828501613e62565b60c08301525060e06141ea84828501613b93565b60e08301525061010082015167ffffffffffffffff81111561420f5761420e6135b3565b5b61421b8482850161408e565b6101008301525061012082015167ffffffffffffffff811115614241576142406135b3565b5b61424d84828501613aed565b6101208301525061014061426384828501613a6f565b6101408301525061016061427984828501613a6f565b6101608301525061018061428f84828501613a6f565b6101808301525092915050565b6000602082840312156142b2576142b161310a565b5b600082015167ffffffffffffffff8111156142d0576142cf61310f565b5b6142dc848285016140bc565b91505092915050565b7f546865207265636f766572792061646472657373206f72206f776e657220616460008201527f647265737320697320696e636f72726563742100000000000000000000000000602082015250565b6000614341603383613d88565b915061434c826142e5565b604082019050919050565b6000602082019050818103600083015261437081614334565b9050919050565b60006020828403121561438d5761438c61310a565b5b600061439b84828501613a6f565b91505092915050565b60006143af82613172565b91506143ba83613172565b92508282026143c881613172565b915082820484148315176143df576143de613d11565b5b5092915050565b7f4e487b7100000000000000000000000000000000000000000000000000000000600052601260045260246000fd5b600061442082613172565b915061442b83613172565b92508261443b5761443a6143e6565b5b828204905092915050565b600061445182613172565b915061445c83613172565b925082820390508181111561447457614473613d11565b5b92915050565b600060408201905061448f60008301856132c9565b61449c6020830184613333565b9392505050565b7f596f75206d757374206669727374207369676e20757020666f7220616e20616360008201527f636f756e742e0000000000000000000000000000000000000000000000000000602082015250565b60006144ff602683613d88565b915061450a826144a3565b604082019050919050565b6000602082019050818103600083015261452e816144f2565b9050919050565b7f596f757220656d61696c20686173206e6f7420796574206265656e2076616c6960008201527f64617465642e2056657269667920796f7572207265676973746572656420656d60208201527f61696c20616464726573732066697273742e0000000000000000000000000000604082015250565b60006145b7605283613d88565b91506145c282614535565b606082019050919050565b600060208201905081810360008301526145e6816145aa565b9050919050565b6000602082840312156146035761460261310a565b5b600082015167ffffffffffffffff8111156146215761462061310f565b5b61462d8482850161408e565b91505092915050565b7f436865636b207468617420616c6c20746865206e6f6d696e65657320796f752060008201527f617265206e6f6d696e6174696e6720617265206164646564206173206e6f6d6960208201527f6e6565732e000000000000000000000000000000000000000000000000000000604082015250565b60006146b8604583613d88565b91506146c382614636565b606082019050919050565b600060208201905081810360008301526146e7816146ab565b9050919050565b7f436865636b207468617420746865206368617269747920796f7520617265206e60008201527f6f6d696e6174696e67206973206c697374656420617320612077686974652d6c60208201527f697374656420636861726974792e000000000000000000000000000000000000604082015250565b6000614770604e83613d88565b915061477b826146ee565b606082019050919050565b6000602082019050818103600083015261479f81614763565b9050919050565b60006040820190506147bb60008301856132c9565b6147c860208301846132c9565b9392505050565b60008060008060008060c087890312156147ec576147eb61310a565b5b60006147fa89828a01613b93565b965050602087015167ffffffffffffffff81111561481b5761481a61310f565b5b61482789828a01613c14565b955050604061483889828a01613a6f565b945050606061484989828a01613a6f565b935050608061485a89828a01613a6f565b92505060a061486b89828a01613e62565b9150509295509295509295565b600061488382613172565b915061488e83613172565b92508282019050808211156148a6576148a5613d11565b5b92915050565b7f4f6f70732120596f752063616e206f6e6c7920616c6c6f63617465206120313060008201527f30252073686172652e2054727920746f2072656475636520746865207368617260208201527f6520616d6f756e742e0000000000000000000000000000000000000000000000604082015250565b600061492e604983613d88565b9150614939826148ac565b606082019050919050565b6000602082019050818103600083015261495d81614921565b9050919050565b600081519050919050565b600061497a82614964565b6149848185613d88565b9350614994818560208601613ba8565b61499d81613441565b840191505092915050565b600060c0820190506149bd60008301896132c9565b6149ca60208301886132c9565b81810360408301526149dc818761496f565b90506149eb6060830186613333565b6149f86080830185613333565b614a0560a0830184613333565b979650505050505050565b7f54686520616c6c6f77616e636520746f2074686520636f6e747261637420697360008201527f206e6f7420656e6f756768210000000000000000000000000000000000000000602082015250565b6000614a6c602c83613d88565b9150614a7782614a10565b604082019050919050565b60006020820190508181036000830152614a9b81614a5f565b9050919050565b7f5468652063617465676f72792076616c7565206d757374206265203020666f7260008201527f20746f6b656e7320616e64203120666f72204e46542e00000000000000000000602082015250565b6000614afe603683613d88565b9150614b0982614aa2565b604082019050919050565b60006020820190508181036000830152614b2d81614af1565b9050919050565b600060a082019050614b4960008301886132c9565b614b5660208301876132c9565b614b636040830186613333565b614b706060830185613333565b614b7d6080830184613333565b9695505050505050565b6000606082019050614b9c60008301866132c9565b614ba96020830185613333565b614bb66040830184613333565b949350505050565b7f4f776e61626c653a206e6577206f776e657220697320746865207a65726f206160008201527f6464726573730000000000000000000000000000000000000000000000000000602082015250565b6000614c1a602683613d88565b9150614c2582614bbe565b604082019050919050565b60006020820190508181036000830152614c4981614c0d565b9050919050565b7f4f776e61626c653a2063616c6c6572206973206e6f7420746865206f776e6572600082015250565b6000614c86602083613d88565b9150614c9182614c50565b602082019050919050565b60006020820190508181036000830152614cb581614c79565b905091905056fea264697066735822122093a2d577b0373817c2710389964ae348e5911426baeb37ea1bc9e8bbc470ade064736f6c63430008110033",
  "linkReferences": {},
  "deployedLinkReferences": {}
}