{
  "_format": "hh-sol-artifact-1",
  "contractName": "MultiplePriorityNominee",
  "sourceName": "contracts/MultiplePriorityNominee.sol",
  "abi": [
    {
      "inputs": [
        {
          "internalType": "address",
          "name": "_inheritokensAddress",
          "type": "address"
        }
      ],
      "stateMutability": "nonpayable",
      "type": "constructor"
    },
    {
      "anonymous": false,
      "inputs": [
        {
          "indexed": true,
          "internalType": "address",
          "name": "_owner",
          "type": "address"
        },
        {
          "indexed": true,
          "internalType": "address",
          "name": "_nominee",
          "type": "address"
        },
        {
          "indexed": true,
          "internalType": "address",
          "name": "_tokenAddress",
          "type": "address"
        },
        {
          "indexed": false,
          "internalType": "uint256",
          "name": "_tokenId",
          "type": "uint256"
        }
      ],
      "name": "Claimed",
      "type": "event"
    },
    {
      "anonymous": false,
      "inputs": [
        {
          "indexed": true,
          "internalType": "address",
          "name": "_owner",
          "type": "address"
        },
        {
          "indexed": false,
          "internalType": "address",
          "name": "_tokenAddress",
          "type": "address"
        },
        {
          "indexed": false,
          "internalType": "uint256",
          "name": "_tokenId",
          "type": "uint256"
        }
      ],
      "name": "TokensAssigned",
      "type": "event"
    },
    {
      "inputs": [
        {
          "internalType": "address",
          "name": "_tokenAddress",
          "type": "address"
        },
        {
          "internalType": "string",
          "name": "_tokenName",
          "type": "string"
        },
        {
          "internalType": "uint256",
          "name": "_category",
          "type": "uint256"
        },
        {
          "internalType": "uint256",
          "name": "_tokenId",
          "type": "uint256"
        },
        {
          "components": [
            {
              "internalType": "uint256",
              "name": "share",
              "type": "uint256"
            },
            {
              "internalType": "address[]",
              "name": "nominee",
              "type": "address[]"
            },
            {
              "internalType": "bool[]",
              "name": "isNotAvailable",
              "type": "bool[]"
            },
            {
              "internalType": "bool[]",
              "name": "isClaimed",
              "type": "bool[]"
            }
          ],
          "internalType": "struct MultiplePriorityNominee.MultiplePriority[]",
          "name": "data",
          "type": "tuple[]"
        }
      ],
      "name": "assignTokensToMultipleNominees",
      "outputs": [],
      "stateMutability": "nonpayable",
      "type": "function"
    },
    {
      "inputs": [
        {
          "internalType": "address",
          "name": "_owner",
          "type": "address"
        },
        {
          "internalType": "address",
          "name": "_tokenAddress",
          "type": "address"
        },
        {
          "internalType": "uint256",
          "name": "_amount",
          "type": "uint256"
        },
        {
          "internalType": "uint256",
          "name": "_tokenId",
          "type": "uint256"
        },
        {
          "internalType": "uint256",
          "name": "_category",
          "type": "uint256"
        }
      ],
      "name": "claim",
      "outputs": [],
      "stateMutability": "nonpayable",
      "type": "function"
    },
    {
      "inputs": [
        {
          "internalType": "address",
          "name": "_owner",
          "type": "address"
        },
        {
          "internalType": "address",
          "name": "_tokenAddress",
          "type": "address"
        },
        {
          "internalType": "uint256",
          "name": "_tokenId",
          "type": "uint256"
        },
        {
          "internalType": "uint256",
          "name": "_category",
          "type": "uint256"
        }
      ],
      "name": "getAllStructs",
      "outputs": [
        {
          "components": [
            {
              "internalType": "uint256",
              "name": "share",
              "type": "uint256"
            },
            {
              "internalType": "address[]",
              "name": "nominee",
              "type": "address[]"
            },
            {
              "internalType": "bool[]",
              "name": "isNotAvailable",
              "type": "bool[]"
            },
            {
              "internalType": "bool[]",
              "name": "isClaimed",
              "type": "bool[]"
            }
          ],
          "internalType": "struct MultiplePriorityNominee.MultiplePriority[]",
          "name": "",
          "type": "tuple[]"
        }
      ],
      "stateMutability": "view",
      "type": "function"
    },
    {
      "inputs": [],
      "name": "inheritokens",
      "outputs": [
        {
          "internalType": "contract Inheritokens",
          "name": "",
          "type": "address"
        }
      ],
      "stateMutability": "view",
      "type": "function"
    },
    {
      "inputs": [],
      "name": "inheritokensAddress",
      "outputs": [
        {
          "internalType": "address",
          "name": "",
          "type": "address"
        }
      ],
      "stateMutability": "view",
      "type": "function"
    },
    {
      "inputs": [
        {
          "internalType": "address",
          "name": "",
          "type": "address"
        },
        {
          "internalType": "address",
          "name": "",
          "type": "address"
        },
        {
          "internalType": "uint256",
          "name": "",
          "type": "uint256"
        },
        {
          "internalType": "uint256",
          "name": "",
          "type": "uint256"
        }
      ],
      "name": "ownerToNFTToStruct",
      "outputs": [
        {
          "internalType": "uint256",
          "name": "share",
          "type": "uint256"
        }
      ],
      "stateMutability": "view",
      "type": "function"
    },
    {
      "inputs": [
        {
          "internalType": "address",
          "name": "",
          "type": "address"
        },
        {
          "internalType": "address",
          "name": "",
          "type": "address"
        },
        {
          "internalType": "uint256",
          "name": "",
          "type": "uint256"
        }
      ],
      "name": "ownerToTokenToStruct",
      "outputs": [
        {
          "internalType": "uint256",
          "name": "share",
          "type": "uint256"
        }
      ],
      "stateMutability": "view",
      "type": "function"
    }
  ],
  "bytecode": "0x60806040523480156200001157600080fd5b506040516200320738038062003207833981810160405281019062000037919062000149565b806000806101000a81548173ffffffffffffffffffffffffffffffffffffffff021916908373ffffffffffffffffffffffffffffffffffffffff16021790555060008054906101000a900473ffffffffffffffffffffffffffffffffffffffff16600160006101000a81548173ffffffffffffffffffffffffffffffffffffffff021916908373ffffffffffffffffffffffffffffffffffffffff160217905550506200017b565b600080fd5b600073ffffffffffffffffffffffffffffffffffffffff82169050919050565b60006200011182620000e4565b9050919050565b620001238162000104565b81146200012f57600080fd5b50565b600081519050620001438162000118565b92915050565b600060208284031215620001625762000161620000df565b5b6000620001728482850162000132565b91505092915050565b61307c806200018b6000396000f3fe608060405234801561001057600080fd5b506004361061007d5760003560e01c80635cdb4ce41161005b5780635cdb4ce4146100d8578063a64ad61f14610108578063be27c3fe14610138578063bea7d6ac146101565761007d565b8063397e2f1a146100825780633c8249191461009e57806346f17152146100ba575b600080fd5b61009c600480360381019061009791906123d8565b610186565b005b6100b860048036038101906100b3919061248b565b610cdd565b005b6100c261168b565b6040516100cf9190612515565b60405180910390f35b6100f260048036038101906100ed9190612530565b6116af565b6040516100ff9190612855565b60405180910390f35b610122600480360381019061011d9190612530565b611ba4565b60405161012f9190612886565b60405180910390f35b610140611bf9565b60405161014d9190612900565b60405180910390f35b610170600480360381019061016b919061291b565b611c1f565b60405161017d9190612886565b60405180910390f35b6000600160009054906101000a900473ffffffffffffffffffffffffffffffffffffffff1673ffffffffffffffffffffffffffffffffffffffff16630f1f8c05336040518263ffffffff1660e01b81526004016101e39190612515565b602060405180830381865afa158015610200573d6000803e3d6000fd5b505050506040513d601f19601f820116820180604052508101906102249190612983565b90506000600160009054906101000a900473ffffffffffffffffffffffffffffffffffffffff1673ffffffffffffffffffffffffffffffffffffffff166315b79630336040518263ffffffff1660e01b81526004016102839190612515565b602060405180830381865afa1580156102a0573d6000803e3d6000fd5b505050506040513d601f19601f820116820180604052508101906102c49190612983565b905081610306576040517f08c379a00000000000000000000000000000000000000000000000000000000081526004016102fd90612a0d565b60405180910390fd5b80610346576040517f08c379a000000000000000000000000000000000000000000000000000000000815260040161033d90612a79565b60405180910390fd5b6000600160009054906101000a900473ffffffffffffffffffffffffffffffffffffffff1673ffffffffffffffffffffffffffffffffffffffff166320e4ab6a336040518263ffffffff1660e01b81526004016103a39190612515565b600060405180830381865afa1580156103c0573d6000803e3d6000fd5b505050506040513d6000823e3d601f19601f820116820180604052508101906103e99190612b45565b90506000805b85518110156104fc5760005b83518110156104a15783818151811061041757610416612b8e565b5b602002602001015173ffffffffffffffffffffffffffffffffffffffff1687838151811061044857610447612b8e565b5b602002602001015160200151838151811061046657610465612b8e565b5b602002602001015173ffffffffffffffffffffffffffffffffffffffff160361048e57600192505b808061049990612bec565b9150506103fb565b5060011515821515146104e9576040517f08c379a00000000000000000000000000000000000000000000000000000000081526004016104e090612ca6565b60405180910390fd5b80806104f490612bec565b9150506103ef565b506000600160009054906101000a900473ffffffffffffffffffffffffffffffffffffffff1673ffffffffffffffffffffffffffffffffffffffff1663de508c5b338c6040518363ffffffff1660e01b815260040161055c929190612cc6565b600060405180830381865afa158015610579573d6000803e3d6000fd5b505050506040513d6000823e3d601f19601f820116820180604052508101906105a29190612d9e565b909192939450909192935090919250909150905080915050600080600090505b875181101561060a578781815181106105de576105dd612b8e565b5b602002602001015160000151826105f59190612e47565b9150808061060290612bec565b9150506105c2565b50606481111561064f576040517f08c379a000000000000000000000000000000000000000000000000000000000815260040161064690612ec7565b60405180910390fd5b816106ec57600160009054906101000a900473ffffffffffffffffffffffffffffffffffffffff1673ffffffffffffffffffffffffffffffffffffffff166325cb763a338d8d8d868e6040518763ffffffff1660e01b81526004016106b996959493929190612f2b565b600060405180830381600087803b1580156106d357600080fd5b505af11580156106e7573d6000803e3d6000fd5b505050505b6000808a0361080e57600260003373ffffffffffffffffffffffffffffffffffffffff1673ffffffffffffffffffffffffffffffffffffffff16815260200190815260200160002060008d73ffffffffffffffffffffffffffffffffffffffff1673ffffffffffffffffffffffffffffffffffffffff168152602001908152602001600020805490509050600081111561080957600260003373ffffffffffffffffffffffffffffffffffffffff1673ffffffffffffffffffffffffffffffffffffffff16815260200190815260200160002060008d73ffffffffffffffffffffffffffffffffffffffff1673ffffffffffffffffffffffffffffffffffffffff16815260200190815260200160002060006108089190611c67565b5b610945565b600360003373ffffffffffffffffffffffffffffffffffffffff1673ffffffffffffffffffffffffffffffffffffffff16815260200190815260200160002060008d73ffffffffffffffffffffffffffffffffffffffff1673ffffffffffffffffffffffffffffffffffffffff16815260200190815260200160002060008a8152602001908152602001600020805490509050600081111561094457600360003373ffffffffffffffffffffffffffffffffffffffff1673ffffffffffffffffffffffffffffffffffffffff16815260200190815260200160002060008d73ffffffffffffffffffffffffffffffffffffffff1673ffffffffffffffffffffffffffffffffffffffff16815260200190815260200160002060008a815260200190815260200160002060006109439190611c67565b5b5b600160009054906101000a900473ffffffffffffffffffffffffffffffffffffffff1673ffffffffffffffffffffffffffffffffffffffff1663b69bd77f338e8c868f6040518663ffffffff1660e01b81526004016109a8959493929190612f93565b600060405180830381600087803b1580156109c257600080fd5b505af11580156109d6573d6000803e3d6000fd5b5050505060008a03610b2a5760005b8851811015610b2457600260003373ffffffffffffffffffffffffffffffffffffffff1673ffffffffffffffffffffffffffffffffffffffff16815260200190815260200160002060008e73ffffffffffffffffffffffffffffffffffffffff1673ffffffffffffffffffffffffffffffffffffffff168152602001908152602001600020898281518110610a7d57610a7c612b8e565b5b60200260200101519080600181540180825580915050600190039060005260206000209060040201600090919091909150600082015181600001556020820151816001019080519060200190610ad4929190611c8b565b506040820151816002019080519060200190610af1929190611d15565b506060820151816003019080519060200190610b0e929190611d15565b5050508080610b1c90612bec565b9150506109e5565b50610c7f565b60005b8851811015610c7d57600360003373ffffffffffffffffffffffffffffffffffffffff1673ffffffffffffffffffffffffffffffffffffffff16815260200190815260200160002060008e73ffffffffffffffffffffffffffffffffffffffff1673ffffffffffffffffffffffffffffffffffffffff16815260200190815260200160002060008b8152602001908152602001600020898281518110610bd657610bd5612b8e565b5b60200260200101519080600181540180825580915050600190039060005260206000209060040201600090919091909150600082015181600001556020820151816001019080519060200190610c2d929190611c8b565b506040820151816002019080519060200190610c4a929190611d15565b506060820151816003019080519060200190610c67929190611d15565b5050508080610c7590612bec565b915050610b2d565b505b3373ffffffffffffffffffffffffffffffffffffffff167f82a2341a42c146a8b1818f7e04fe56be41f008d10c140cf4fe8b4ef801628ea18d8b604051610cc7929190612fe6565b60405180910390a2505050505050505050505050565b6000600160009054906101000a900473ffffffffffffffffffffffffffffffffffffffff1673ffffffffffffffffffffffffffffffffffffffff166320e4ab6a876040518263ffffffff1660e01b8152600401610d3a9190612515565b600060405180830381865afa158015610d57573d6000803e3d6000fd5b505050506040513d6000823e3d601f19601f82011682018060405250810190610d809190612b45565b905060005b8151811015611682573373ffffffffffffffffffffffffffffffffffffffff16828281518110610db857610db7612b8e565b5b602002602001015173ffffffffffffffffffffffffffffffffffffffff16036115f357600083036111d75760008690508073ffffffffffffffffffffffffffffffffffffffff166323b872dd8933896040518463ffffffff1660e01b8152600401610e259392919061300f565b6020604051808303816000875af1158015610e44573d6000803e3d6000fd5b505050506040513d601f19601f82011682018060405250810190610e689190612983565b5060005b600260008a73ffffffffffffffffffffffffffffffffffffffff1673ffffffffffffffffffffffffffffffffffffffff16815260200190815260200160002060008973ffffffffffffffffffffffffffffffffffffffff1673ffffffffffffffffffffffffffffffffffffffff168152602001908152602001600020805490508110156111d05760005b600260008b73ffffffffffffffffffffffffffffffffffffffff1673ffffffffffffffffffffffffffffffffffffffff16815260200190815260200160002060008a73ffffffffffffffffffffffffffffffffffffffff1673ffffffffffffffffffffffffffffffffffffffff1681526020019081526020016000208281548110610f8457610f83612b8e565b5b9060005260206000209060040201600101805490508110156111bc57848481518110610fb357610fb2612b8e565b5b602002602001015173ffffffffffffffffffffffffffffffffffffffff16600260008c73ffffffffffffffffffffffffffffffffffffffff1673ffffffffffffffffffffffffffffffffffffffff16815260200190815260200160002060008b73ffffffffffffffffffffffffffffffffffffffff1673ffffffffffffffffffffffffffffffffffffffff168152602001908152602001600020838154811061105f5761105e612b8e565b5b9060005260206000209060040201600101828154811061108257611081612b8e565b5b9060005260206000200160009054906101000a900473ffffffffffffffffffffffffffffffffffffffff1673ffffffffffffffffffffffffffffffffffffffff16036111a9576001600260008c73ffffffffffffffffffffffffffffffffffffffff1673ffffffffffffffffffffffffffffffffffffffff16815260200190815260200160002060008b73ffffffffffffffffffffffffffffffffffffffff1673ffffffffffffffffffffffffffffffffffffffff168152602001908152602001600020838154811061115857611157612b8e565b5b9060005260206000209060040201600301828154811061117b5761117a612b8e565b5b90600052602060002090602091828204019190066101000a81548160ff0219169083151502179055506111bc565b80806111b490612bec565b915050610ef6565b5080806111c890612bec565b915050610e6c565b50506115f2565b60008411156115f15760008690508073ffffffffffffffffffffffffffffffffffffffff166323b872dd8933886040518463ffffffff1660e01b81526004016112229392919061300f565b600060405180830381600087803b15801561123c57600080fd5b505af1158015611250573d6000803e3d6000fd5b5050505060005b600260008a73ffffffffffffffffffffffffffffffffffffffff1673ffffffffffffffffffffffffffffffffffffffff16815260200190815260200160002060008973ffffffffffffffffffffffffffffffffffffffff1673ffffffffffffffffffffffffffffffffffffffff168152602001908152602001600020805490508110156115ee5760005b600360008b73ffffffffffffffffffffffffffffffffffffffff1673ffffffffffffffffffffffffffffffffffffffff16815260200190815260200160002060008a73ffffffffffffffffffffffffffffffffffffffff1673ffffffffffffffffffffffffffffffffffffffff168152602001908152602001600020600088815260200190815260200160002082815481106113805761137f612b8e565b5b9060005260206000209060040201600101805490508110156115da578484815181106113af576113ae612b8e565b5b602002602001015173ffffffffffffffffffffffffffffffffffffffff16600360008c73ffffffffffffffffffffffffffffffffffffffff1673ffffffffffffffffffffffffffffffffffffffff16815260200190815260200160002060008b73ffffffffffffffffffffffffffffffffffffffff1673ffffffffffffffffffffffffffffffffffffffff1681526020019081526020016000206000898152602001908152602001600020838154811061146c5761146b612b8e565b5b9060005260206000209060040201600101828154811061148f5761148e612b8e565b5b9060005260206000200160009054906101000a900473ffffffffffffffffffffffffffffffffffffffff1673ffffffffffffffffffffffffffffffffffffffff16036115c7576001600360008c73ffffffffffffffffffffffffffffffffffffffff1673ffffffffffffffffffffffffffffffffffffffff16815260200190815260200160002060008b73ffffffffffffffffffffffffffffffffffffffff1673ffffffffffffffffffffffffffffffffffffffff1681526020019081526020016000206000898152602001908152602001600020838154811061157657611575612b8e565b5b9060005260206000209060040201600301828154811061159957611598612b8e565b5b90600052602060002090602091828204019190066101000a81548160ff0219169083151502179055506115da565b80806115d290612bec565b9150506112e1565b5080806115e690612bec565b915050611257565b50505b5b5b8573ffffffffffffffffffffffffffffffffffffffff163373ffffffffffffffffffffffffffffffffffffffff168873ffffffffffffffffffffffffffffffffffffffff167f913c992353dc81b7a8ba31496c484e9b6306bd2f6c509a649a38fdf5e1c953b2876040516116679190612886565b60405180910390a4808061167a90612bec565b915050610d85565b50505050505050565b60008054906101000a900473ffffffffffffffffffffffffffffffffffffffff1681565b60606000820361192457600260008673ffffffffffffffffffffffffffffffffffffffff1673ffffffffffffffffffffffffffffffffffffffff16815260200190815260200160002060008573ffffffffffffffffffffffffffffffffffffffff1673ffffffffffffffffffffffffffffffffffffffff168152602001908152602001600020805480602002602001604051908101604052809291908181526020016000905b828210156119195783829060005260206000209060040201604051806080016040529081600082015481526020016001820180548060200260200160405190810160405280929190818152602001828054801561180757602002820191906000526020600020905b8160009054906101000a900473ffffffffffffffffffffffffffffffffffffffff1673ffffffffffffffffffffffffffffffffffffffff16815260200190600101908083116117bd575b505050505081526020016002820180548060200260200160405190810160405280929190818152602001828054801561188457602002820191906000526020600020906000905b82829054906101000a900460ff1615158152602001906001019060208260000104928301926001038202915080841161184e5790505b505050505081526020016003820180548060200260200160405190810160405280929190818152602001828054801561190157602002820191906000526020600020906000905b82829054906101000a900460ff161515815260200190600101906020826000010492830192600103820291508084116118cb5790505b50505050508152505081526020019060010190611755565b505050509050611b9c565b600360008673ffffffffffffffffffffffffffffffffffffffff1673ffffffffffffffffffffffffffffffffffffffff16815260200190815260200160002060008573ffffffffffffffffffffffffffffffffffffffff1673ffffffffffffffffffffffffffffffffffffffff1681526020019081526020016000206000848152602001908152602001600020805480602002602001604051908101604052809291908181526020016000905b82821015611b9557838290600052602060002090600402016040518060800160405290816000820154815260200160018201805480602002602001604051908101604052809291908181526020018280548015611a8357602002820191906000526020600020905b8160009054906101000a900473ffffffffffffffffffffffffffffffffffffffff1673ffffffffffffffffffffffffffffffffffffffff1681526020019060010190808311611a39575b5050505050815260200160028201805480602002602001604051908101604052809291908181526020018280548015611b0057602002820191906000526020600020906000905b82829054906101000a900460ff16151581526020019060010190602082600001049283019260010382029150808411611aca5790505b5050505050815260200160038201805480602002602001604051908101604052809291908181526020018280548015611b7d57602002820191906000526020600020906000905b82829054906101000a900460ff16151581526020019060010190602082600001049283019260010382029150808411611b475790505b505050505081525050815260200190600101906119d1565b5050505090505b949350505050565b60036020528360005260406000206020528260005260406000206020528160005260406000208181548110611bd857600080fd5b90600052602060002090600402016000935093505050508060000154905081565b600160009054906101000a900473ffffffffffffffffffffffffffffffffffffffff1681565b60026020528260005260406000206020528160005260406000208181548110611c4757600080fd5b906000526020600020906004020160009250925050508060000154905081565b5080546000825560040290600052602060002090810190611c889190611dbb565b50565b828054828255906000526020600020908101928215611d04579160200282015b82811115611d035782518260006101000a81548173ffffffffffffffffffffffffffffffffffffffff021916908373ffffffffffffffffffffffffffffffffffffffff16021790555091602001919060010190611cab565b5b509050611d119190611e0a565b5090565b82805482825590600052602060002090601f01602090048101928215611daa5791602002820160005b83821115611d7b57835183826101000a81548160ff0219169083151502179055509260200192600101602081600001049283019260010302611d3e565b8015611da85782816101000a81549060ff0219169055600101602081600001049283019260010302611d7b565b505b509050611db79190611e0a565b5090565b5b80821115611e0657600080820160009055600182016000611ddd9190611e27565b600282016000611ded9190611e48565b600382016000611dfd9190611e48565b50600401611dbc565b5090565b5b80821115611e23576000816000905550600101611e0b565b5090565b5080546000825590600052602060002090810190611e459190611e0a565b50565b50805460008255601f016020900490600052602060002090810190611e6d9190611e0a565b50565b6000604051905090565b600080fd5b600080fd5b600073ffffffffffffffffffffffffffffffffffffffff82169050919050565b6000611eaf82611e84565b9050919050565b611ebf81611ea4565b8114611eca57600080fd5b50565b600081359050611edc81611eb6565b92915050565b600080fd5b600080fd5b6000601f19601f8301169050919050565b7f4e487b7100000000000000000000000000000000000000000000000000000000600052604160045260246000fd5b611f3582611eec565b810181811067ffffffffffffffff82111715611f5457611f53611efd565b5b80604052505050565b6000611f67611e70565b9050611f738282611f2c565b919050565b600067ffffffffffffffff821115611f9357611f92611efd565b5b611f9c82611eec565b9050602081019050919050565b82818337600083830152505050565b6000611fcb611fc684611f78565b611f5d565b905082815260208101848484011115611fe757611fe6611ee7565b5b611ff2848285611fa9565b509392505050565b600082601f83011261200f5761200e611ee2565b5b813561201f848260208601611fb8565b91505092915050565b6000819050919050565b61203b81612028565b811461204657600080fd5b50565b60008135905061205881612032565b92915050565b600067ffffffffffffffff82111561207957612078611efd565b5b602082029050602081019050919050565b600080fd5b600080fd5b600080fd5b600067ffffffffffffffff8211156120b4576120b3611efd565b5b602082029050602081019050919050565b60006120d86120d384612099565b611f5d565b905080838252602082019050602084028301858111156120fb576120fa61208a565b5b835b8181101561212457806121108882611ecd565b8452602084019350506020810190506120fd565b5050509392505050565b600082601f83011261214357612142611ee2565b5b81356121538482602086016120c5565b91505092915050565b600067ffffffffffffffff82111561217757612176611efd565b5b602082029050602081019050919050565b60008115159050919050565b61219d81612188565b81146121a857600080fd5b50565b6000813590506121ba81612194565b92915050565b60006121d36121ce8461215c565b611f5d565b905080838252602082019050602084028301858111156121f6576121f561208a565b5b835b8181101561221f578061220b88826121ab565b8452602084019350506020810190506121f8565b5050509392505050565b600082601f83011261223e5761223d611ee2565b5b813561224e8482602086016121c0565b91505092915050565b60006080828403121561226d5761226c61208f565b5b6122776080611f5d565b9050600061228784828501612049565b600083015250602082013567ffffffffffffffff8111156122ab576122aa612094565b5b6122b78482850161212e565b602083015250604082013567ffffffffffffffff8111156122db576122da612094565b5b6122e784828501612229565b604083015250606082013567ffffffffffffffff81111561230b5761230a612094565b5b61231784828501612229565b60608301525092915050565b60006123366123318461205e565b611f5d565b905080838252602082019050602084028301858111156123595761235861208a565b5b835b818110156123a057803567ffffffffffffffff81111561237e5761237d611ee2565b5b80860161238b8982612257565b8552602085019450505060208101905061235b565b5050509392505050565b600082601f8301126123bf576123be611ee2565b5b81356123cf848260208601612323565b91505092915050565b600080600080600060a086880312156123f4576123f3611e7a565b5b600061240288828901611ecd565b955050602086013567ffffffffffffffff81111561242357612422611e7f565b5b61242f88828901611ffa565b945050604061244088828901612049565b935050606061245188828901612049565b925050608086013567ffffffffffffffff81111561247257612471611e7f565b5b61247e888289016123aa565b9150509295509295909350565b600080600080600060a086880312156124a7576124a6611e7a565b5b60006124b588828901611ecd565b95505060206124c688828901611ecd565b94505060406124d788828901612049565b93505060606124e888828901612049565b92505060806124f988828901612049565b9150509295509295909350565b61250f81611ea4565b82525050565b600060208201905061252a6000830184612506565b92915050565b6000806000806080858703121561254a57612549611e7a565b5b600061255887828801611ecd565b945050602061256987828801611ecd565b935050604061257a87828801612049565b925050606061258b87828801612049565b91505092959194509250565b600081519050919050565b600082825260208201905092915050565b6000819050602082019050919050565b6125cc81612028565b82525050565b600081519050919050565b600082825260208201905092915050565b6000819050602082019050919050565b61260781611ea4565b82525050565b600061261983836125fe565b60208301905092915050565b6000602082019050919050565b600061263d826125d2565b61264781856125dd565b9350612652836125ee565b8060005b8381101561268357815161266a888261260d565b975061267583612625565b925050600181019050612656565b5085935050505092915050565b600081519050919050565b600082825260208201905092915050565b6000819050602082019050919050565b6126c581612188565b82525050565b60006126d783836126bc565b60208301905092915050565b6000602082019050919050565b60006126fb82612690565b612705818561269b565b9350612710836126ac565b8060005b8381101561274157815161272888826126cb565b9750612733836126e3565b925050600181019050612714565b5085935050505092915050565b600060808301600083015161276660008601826125c3565b506020830151848203602086015261277e8282612632565b9150506040830151848203604086015261279882826126f0565b915050606083015184820360608601526127b282826126f0565b9150508091505092915050565b60006127cb838361274e565b905092915050565b6000602082019050919050565b60006127eb82612597565b6127f581856125a2565b935083602082028501612807856125b3565b8060005b85811015612843578484038952815161282485826127bf565b945061282f836127d3565b925060208a0199505060018101905061280b565b50829750879550505050505092915050565b6000602082019050818103600083015261286f81846127e0565b905092915050565b61288081612028565b82525050565b600060208201905061289b6000830184612877565b92915050565b6000819050919050565b60006128c66128c16128bc84611e84565b6128a1565b611e84565b9050919050565b60006128d8826128ab565b9050919050565b60006128ea826128cd565b9050919050565b6128fa816128df565b82525050565b600060208201905061291560008301846128f1565b92915050565b60008060006060848603121561293457612933611e7a565b5b600061294286828701611ecd565b935050602061295386828701611ecd565b925050604061296486828701612049565b9150509250925092565b60008151905061297d81612194565b92915050565b60006020828403121561299957612998611e7a565b5b60006129a78482850161296e565b91505092915050565b600082825260208201905092915050565b7f466972737420726567697374657220796f757273656c66210000000000000000600082015250565b60006129f76018836129b0565b9150612a02826129c1565b602082019050919050565b60006020820190508181036000830152612a26816129ea565b9050919050565b7f46697273742076657269667920796f757220656d61696c000000000000000000600082015250565b6000612a636017836129b0565b9150612a6e82612a2d565b602082019050919050565b60006020820190508181036000830152612a9281612a56565b9050919050565b600081519050612aa881611eb6565b92915050565b6000612ac1612abc84612099565b611f5d565b90508083825260208201905060208402830185811115612ae457612ae361208a565b5b835b81811015612b0d5780612af98882612a99565b845260208401935050602081019050612ae6565b5050509392505050565b600082601f830112612b2c57612b2b611ee2565b5b8151612b3c848260208601612aae565b91505092915050565b600060208284031215612b5b57612b5a611e7a565b5b600082015167ffffffffffffffff811115612b7957612b78611e7f565b5b612b8584828501612b17565b91505092915050565b7f4e487b7100000000000000000000000000000000000000000000000000000000600052603260045260246000fd5b7f4e487b7100000000000000000000000000000000000000000000000000000000600052601160045260246000fd5b6000612bf782612028565b91507fffffffffffffffffffffffffffffffffffffffffffffffffffffffffffffffff8203612c2957612c28612bbd565b5b600182019050919050565b7f636865636b20616c6c20746865206e6f6d696e65657320796f7520617265206560008201527f6e746572696e67206172652061646465642e0000000000000000000000000000602082015250565b6000612c906032836129b0565b9150612c9b82612c34565b604082019050919050565b60006020820190508181036000830152612cbf81612c83565b9050919050565b6000604082019050612cdb6000830185612506565b612ce86020830184612506565b9392505050565b60005b83811015612d0d578082015181840152602081019050612cf2565b60008484015250505050565b6000612d2c612d2784611f78565b611f5d565b905082815260208101848484011115612d4857612d47611ee7565b5b612d53848285612cef565b509392505050565b600082601f830112612d7057612d6f611ee2565b5b8151612d80848260208601612d19565b91505092915050565b600081519050612d9881612032565b92915050565b60008060008060008060c08789031215612dbb57612dba611e7a565b5b6000612dc989828a01612a99565b965050602087015167ffffffffffffffff811115612dea57612de9611e7f565b5b612df689828a01612d5b565b9550506040612e0789828a01612d89565b9450506060612e1889828a01612d89565b9350506080612e2989828a01612d89565b92505060a0612e3a89828a0161296e565b9150509295509295509295565b6000612e5282612028565b9150612e5d83612028565b9250828201905080821115612e7557612e74612bbd565b5b92915050565b7f5265647563652074686520736861726520616d6f756e742e2e2e000000000000600082015250565b6000612eb1601a836129b0565b9150612ebc82612e7b565b602082019050919050565b60006020820190508181036000830152612ee081612ea4565b9050919050565b600081519050919050565b6000612efd82612ee7565b612f0781856129b0565b9350612f17818560208601612cef565b612f2081611eec565b840191505092915050565b600060c082019050612f406000830189612506565b612f4d6020830188612506565b8181036040830152612f5f8187612ef2565b9050612f6e6060830186612877565b612f7b6080830185612877565b612f8860a0830184612877565b979650505050505050565b600060a082019050612fa86000830188612506565b612fb56020830187612506565b612fc26040830186612877565b612fcf6060830185612877565b612fdc6080830184612877565b9695505050505050565b6000604082019050612ffb6000830185612506565b6130086020830184612877565b9392505050565b60006060820190506130246000830186612506565b6130316020830185612506565b61303e6040830184612877565b94935050505056fea2646970667358221220694e3b6d653f96f9cd97baab7c33f14a0198d370d5a27f70ba50da8b2d4be60164736f6c63430008110033",
  "linkReferences": {},
  "deployedLinkReferences": {}
}