{
  "_format": "hh-sol-artifact-1",
  "contractName": "MultiplePriorityNominee",
  "sourceName": "contracts/MultiplePriorityNominee.sol",
  "abi": [
    {
      "inputs": [
        {
          "internalType": "address",
          "name": "_inheritokensAddress",
          "type": "address"
        },
        {
          "internalType": "address",
          "name": "_charityContractAddress",
          "type": "address"
        }
      ],
      "stateMutability": "nonpayable",
      "type": "constructor"
    },
    {
      "anonymous": false,
      "inputs": [
        {
          "indexed": true,
          "internalType": "address",
          "name": "_owner",
          "type": "address"
        },
        {
          "indexed": true,
          "internalType": "address",
          "name": "_nominee",
          "type": "address"
        },
        {
          "indexed": true,
          "internalType": "address",
          "name": "_tokenAddress",
          "type": "address"
        },
        {
          "indexed": false,
          "internalType": "uint256",
          "name": "_tokenId",
          "type": "uint256"
        },
        {
          "indexed": false,
          "internalType": "uint256",
          "name": "_amount",
          "type": "uint256"
        },
        {
          "indexed": false,
          "internalType": "uint256",
          "name": "_category",
          "type": "uint256"
        }
      ],
      "name": "Claimed",
      "type": "event"
    },
    {
      "anonymous": false,
      "inputs": [
        {
          "indexed": true,
          "internalType": "address",
          "name": "previousOwner",
          "type": "address"
        },
        {
          "indexed": true,
          "internalType": "address",
          "name": "newOwner",
          "type": "address"
        }
      ],
      "name": "OwnershipTransferred",
      "type": "event"
    },
    {
      "anonymous": false,
      "inputs": [
        {
          "indexed": true,
          "internalType": "address",
          "name": "_owner",
          "type": "address"
        },
        {
          "indexed": true,
          "internalType": "address",
          "name": "_tokenAddress",
          "type": "address"
        },
        {
          "indexed": false,
          "internalType": "uint256",
          "name": "_tokenId",
          "type": "uint256"
        },
        {
          "indexed": false,
          "internalType": "uint256",
          "name": "_amount",
          "type": "uint256"
        },
        {
          "indexed": false,
          "internalType": "uint256",
          "name": "_category",
          "type": "uint256"
        }
      ],
      "name": "Recovered",
      "type": "event"
    },
    {
      "anonymous": false,
      "inputs": [
        {
          "indexed": true,
          "internalType": "address",
          "name": "_owner",
          "type": "address"
        },
        {
          "indexed": false,
          "internalType": "address",
          "name": "_tokenAddress",
          "type": "address"
        },
        {
          "indexed": false,
          "internalType": "uint256",
          "name": "_tokenId",
          "type": "uint256"
        },
        {
          "indexed": false,
          "internalType": "uint256",
          "name": "_category",
          "type": "uint256"
        }
      ],
      "name": "TokensAssigned",
      "type": "event"
    },
    {
      "inputs": [
        {
          "internalType": "address",
          "name": "_tokenAddress",
          "type": "address"
        },
        {
          "internalType": "string",
          "name": "_tokenName",
          "type": "string"
        },
        {
          "internalType": "uint256",
          "name": "_category",
          "type": "uint256"
        },
        {
          "internalType": "uint256",
          "name": "_tokenId",
          "type": "uint256"
        },
        {
          "components": [
            {
              "internalType": "uint256",
              "name": "share",
              "type": "uint256"
            },
            {
              "internalType": "address",
              "name": "charityAddress",
              "type": "address"
            },
            {
              "internalType": "address",
              "name": "canClaim",
              "type": "address"
            },
            {
              "internalType": "address[]",
              "name": "nominee",
              "type": "address[]"
            },
            {
              "internalType": "bool",
              "name": "isClaimed",
              "type": "bool"
            }
          ],
          "internalType": "struct MultiplePriorityNominee.MultiplePriority[]",
          "name": "data",
          "type": "tuple[]"
        }
      ],
      "name": "assignTokensToMultipleNominees",
      "outputs": [],
      "stateMutability": "nonpayable",
      "type": "function"
    },
    {
      "inputs": [
        {
          "internalType": "address",
          "name": "_tokenAddress",
          "type": "address"
        },
        {
          "internalType": "uint256",
          "name": "_tokenCharge",
          "type": "uint256"
        },
        {
          "internalType": "uint256",
          "name": "_nftCharge",
          "type": "uint256"
        },
        {
          "internalType": "uint256",
          "name": "_percentage",
          "type": "uint256"
        }
      ],
      "name": "changeCharges",
      "outputs": [],
      "stateMutability": "nonpayable",
      "type": "function"
    },
    {
      "inputs": [],
      "name": "chargeTokenAddress",
      "outputs": [
        {
          "internalType": "address",
          "name": "",
          "type": "address"
        }
      ],
      "stateMutability": "view",
      "type": "function"
    },
    {
      "inputs": [],
      "name": "charityContract",
      "outputs": [
        {
          "internalType": "contract CharityContract",
          "name": "",
          "type": "address"
        }
      ],
      "stateMutability": "view",
      "type": "function"
    },
    {
      "inputs": [],
      "name": "charityContractAddress",
      "outputs": [
        {
          "internalType": "address",
          "name": "",
          "type": "address"
        }
      ],
      "stateMutability": "view",
      "type": "function"
    },
    {
      "inputs": [
        {
          "internalType": "address",
          "name": "_owner",
          "type": "address"
        },
        {
          "internalType": "address",
          "name": "_tokenAddress",
          "type": "address"
        },
        {
          "internalType": "uint256",
          "name": "_tokenId",
          "type": "uint256"
        },
        {
          "internalType": "uint256",
          "name": "_category",
          "type": "uint256"
        }
      ],
      "name": "claim",
      "outputs": [],
      "stateMutability": "nonpayable",
      "type": "function"
    },
    {
      "inputs": [],
      "name": "inheritokens",
      "outputs": [
        {
          "internalType": "contract Inheritokens",
          "name": "",
          "type": "address"
        }
      ],
      "stateMutability": "view",
      "type": "function"
    },
    {
      "inputs": [],
      "name": "inheritokensAddress",
      "outputs": [
        {
          "internalType": "address",
          "name": "",
          "type": "address"
        }
      ],
      "stateMutability": "view",
      "type": "function"
    },
    {
      "inputs": [],
      "name": "nftCharge",
      "outputs": [
        {
          "internalType": "uint256",
          "name": "",
          "type": "uint256"
        }
      ],
      "stateMutability": "view",
      "type": "function"
    },
    {
      "inputs": [
        {
          "internalType": "address",
          "name": "_owner",
          "type": "address"
        },
        {
          "internalType": "address",
          "name": "_tokenAddress",
          "type": "address"
        },
        {
          "internalType": "uint256",
          "name": "_tokenId",
          "type": "uint256"
        }
      ],
      "name": "nftTransferLogic",
      "outputs": [],
      "stateMutability": "nonpayable",
      "type": "function"
    },
    {
      "inputs": [
        {
          "internalType": "address",
          "name": "",
          "type": "address"
        },
        {
          "internalType": "address",
          "name": "",
          "type": "address"
        }
      ],
      "name": "notFirst",
      "outputs": [
        {
          "internalType": "bool",
          "name": "",
          "type": "bool"
        }
      ],
      "stateMutability": "view",
      "type": "function"
    },
    {
      "inputs": [],
      "name": "owner",
      "outputs": [
        {
          "internalType": "address",
          "name": "",
          "type": "address"
        }
      ],
      "stateMutability": "view",
      "type": "function"
    },
    {
      "inputs": [
        {
          "internalType": "address",
          "name": "",
          "type": "address"
        },
        {
          "internalType": "address",
          "name": "",
          "type": "address"
        },
        {
          "internalType": "uint256",
          "name": "",
          "type": "uint256"
        },
        {
          "internalType": "uint256",
          "name": "",
          "type": "uint256"
        }
      ],
      "name": "ownerToNFTToStruct",
      "outputs": [
        {
          "internalType": "uint256",
          "name": "share",
          "type": "uint256"
        },
        {
          "internalType": "address",
          "name": "charityAddress",
          "type": "address"
        },
        {
          "internalType": "address",
          "name": "canClaim",
          "type": "address"
        },
        {
          "internalType": "bool",
          "name": "isClaimed",
          "type": "bool"
        }
      ],
      "stateMutability": "view",
      "type": "function"
    },
    {
      "inputs": [
        {
          "internalType": "address",
          "name": "",
          "type": "address"
        },
        {
          "internalType": "address",
          "name": "",
          "type": "address"
        },
        {
          "internalType": "uint256",
          "name": "",
          "type": "uint256"
        }
      ],
      "name": "ownerToTokenToStruct",
      "outputs": [
        {
          "internalType": "uint256",
          "name": "share",
          "type": "uint256"
        },
        {
          "internalType": "address",
          "name": "charityAddress",
          "type": "address"
        },
        {
          "internalType": "address",
          "name": "canClaim",
          "type": "address"
        },
        {
          "internalType": "bool",
          "name": "isClaimed",
          "type": "bool"
        }
      ],
      "stateMutability": "view",
      "type": "function"
    },
    {
      "inputs": [],
      "name": "percentage",
      "outputs": [
        {
          "internalType": "uint256",
          "name": "",
          "type": "uint256"
        }
      ],
      "stateMutability": "view",
      "type": "function"
    },
    {
      "inputs": [
        {
          "internalType": "address",
          "name": "_owner",
          "type": "address"
        },
        {
          "internalType": "address",
          "name": "_tokenAddress",
          "type": "address"
        },
        {
          "internalType": "uint256",
          "name": "_tokenId",
          "type": "uint256"
        },
        {
          "internalType": "uint256",
          "name": "_category",
          "type": "uint256"
        }
      ],
      "name": "recoveryClaim",
      "outputs": [],
      "stateMutability": "nonpayable",
      "type": "function"
    },
    {
      "inputs": [],
      "name": "renounceOwnership",
      "outputs": [],
      "stateMutability": "nonpayable",
      "type": "function"
    },
    {
      "inputs": [],
      "name": "tokenCharge",
      "outputs": [
        {
          "internalType": "uint256",
          "name": "",
          "type": "uint256"
        }
      ],
      "stateMutability": "view",
      "type": "function"
    },
    {
      "inputs": [
        {
          "internalType": "address",
          "name": "_owner",
          "type": "address"
        },
        {
          "internalType": "address",
          "name": "_tokenAddress",
          "type": "address"
        },
        {
          "internalType": "uint256",
          "name": "_share",
          "type": "uint256"
        }
      ],
      "name": "tokenTransferLogic",
      "outputs": [],
      "stateMutability": "nonpayable",
      "type": "function"
    },
    {
      "inputs": [
        {
          "internalType": "address",
          "name": "",
          "type": "address"
        },
        {
          "internalType": "address",
          "name": "",
          "type": "address"
        }
      ],
      "name": "totalAmount",
      "outputs": [
        {
          "internalType": "uint256",
          "name": "",
          "type": "uint256"
        }
      ],
      "stateMutability": "view",
      "type": "function"
    },
    {
      "inputs": [
        {
          "internalType": "address",
          "name": "newOwner",
          "type": "address"
        }
      ],
      "name": "transferOwnership",
      "outputs": [],
      "stateMutability": "nonpayable",
      "type": "function"
    },
    {
      "inputs": [
        {
          "internalType": "uint256",
          "name": "_amount",
          "type": "uint256"
        },
        {
          "internalType": "address",
          "name": "_tokenAddress",
          "type": "address"
        }
      ],
      "name": "withdrawFromContract",
      "outputs": [],
      "stateMutability": "payable",
      "type": "function"
    }
  ],
  "bytecode": "0x6080604052620f4240600555624c4b40600655600160075573e9dce89b076ba6107bb64ef30678efec11939234600860006101000a81548173ffffffffffffffffffffffffffffffffffffffff021916908373ffffffffffffffffffffffffffffffffffffffff1602179055503480156200007957600080fd5b50604051620049303803806200493083398181016040528101906200009f919062000345565b620000bf620000b36200020f60201b60201c565b6200021760201b60201c565b81600160006101000a81548173ffffffffffffffffffffffffffffffffffffffff021916908373ffffffffffffffffffffffffffffffffffffffff160217905550600160009054906101000a900473ffffffffffffffffffffffffffffffffffffffff16600260006101000a81548173ffffffffffffffffffffffffffffffffffffffff021916908373ffffffffffffffffffffffffffffffffffffffff16021790555080600360006101000a81548173ffffffffffffffffffffffffffffffffffffffff021916908373ffffffffffffffffffffffffffffffffffffffff160217905550600360009054906101000a900473ffffffffffffffffffffffffffffffffffffffff16600460006101000a81548173ffffffffffffffffffffffffffffffffffffffff021916908373ffffffffffffffffffffffffffffffffffffffff16021790555050506200038c565b600033905090565b60008060009054906101000a900473ffffffffffffffffffffffffffffffffffffffff169050816000806101000a81548173ffffffffffffffffffffffffffffffffffffffff021916908373ffffffffffffffffffffffffffffffffffffffff1602179055508173ffffffffffffffffffffffffffffffffffffffff168173ffffffffffffffffffffffffffffffffffffffff167f8be0079c531659141344cd1fd0a4f28419497f9722a3daafe3b4186f6b6457e060405160405180910390a35050565b600080fd5b600073ffffffffffffffffffffffffffffffffffffffff82169050919050565b60006200030d82620002e0565b9050919050565b6200031f8162000300565b81146200032b57600080fd5b50565b6000815190506200033f8162000314565b92915050565b600080604083850312156200035f576200035e620002db565b5b60006200036f858286016200032e565b925050602062000382858286016200032e565b9150509250929050565b614594806200039c6000396000f3fe6080604052600436106101355760003560e01c80639605f505116100ab578063c407695b1161006f578063c407695b146103f7578063c78ad77f14610422578063d8948a891461044d578063f1d8eefc1461048a578063f2fde38b146104b5578063f4cd5465146104de57610135565b80639605f505146103055780639b25202314610321578063a64ad61f1461034c578063be27c3fe1461038c578063bea7d6ac146103b757610135565b80634ab3a732116100fd5780634ab3a7321461021d5780635c042ae7146102465780635e77177514610271578063715018a61461029a57806379cf3077146102b15780638da5cb5b146102da57610135565b806303cd42481461013a57806322d5dfbf1461016357806326af48321461018c5780633765aae8146101b557806346f17152146101f2575b600080fd5b34801561014657600080fd5b50610161600480360381019061015c9190612ba4565b610509565b005b34801561016f57600080fd5b5061018a60048036038101906101859190612c0b565b61056d565b005b34801561019857600080fd5b506101b360048036038101906101ae9190612c5e565b6105e7565b005b3480156101c157600080fd5b506101dc60048036038101906101d79190612cc5565b610d5c565b6040516101e99190612d20565b60405180910390f35b3480156101fe57600080fd5b50610207610d8b565b6040516102149190612d4a565b60405180910390f35b34801561022957600080fd5b50610244600480360381019061023f9190612c5e565b610db1565b005b34801561025257600080fd5b5061025b610f63565b6040516102689190612d4a565b60405180910390f35b34801561027d57600080fd5b5061029860048036038101906102939190613132565b610f89565b005b3480156102a657600080fd5b506102af6120eb565b005b3480156102bd57600080fd5b506102d860048036038101906102d39190612c0b565b6120ff565b005b3480156102e657600080fd5b506102ef6124f4565b6040516102fc9190612d4a565b60405180910390f35b61031f600480360381019061031a91906131e5565b61251d565b005b34801561032d57600080fd5b506103366125ae565b6040516103439190613234565b60405180910390f35b34801561035857600080fd5b50610373600480360381019061036e9190612c5e565b6125b4565b604051610383949392919061324f565b60405180910390f35b34801561039857600080fd5b506103a1612668565b6040516103ae91906132f3565b60405180910390f35b3480156103c357600080fd5b506103de60048036038101906103d99190612c0b565b61268e565b6040516103ee949392919061324f565b60405180910390f35b34801561040357600080fd5b5061040c612735565b6040516104199190613234565b60405180910390f35b34801561042e57600080fd5b5061043761273b565b6040516104449190613234565b60405180910390f35b34801561045957600080fd5b50610474600480360381019061046f9190612cc5565b612741565b6040516104819190613234565b60405180910390f35b34801561049657600080fd5b5061049f612766565b6040516104ac9190612d4a565b60405180910390f35b3480156104c157600080fd5b506104dc60048036038101906104d7919061330e565b61278c565b005b3480156104ea57600080fd5b506104f361280f565b604051610500919061335c565b60405180910390f35b610511612835565b83600860006101000a81548173ffffffffffffffffffffffffffffffffffffffff021916908373ffffffffffffffffffffffffffffffffffffffff16021790555082600581905550816006819055508060078190555050505050565b60008290508073ffffffffffffffffffffffffffffffffffffffff166323b872dd8533856040518463ffffffff1660e01b81526004016105af93929190613377565b600060405180830381600087803b1580156105c957600080fd5b505af11580156105dd573d6000803e3d6000fd5b5050505050505050565b600260009054906101000a900473ffffffffffffffffffffffffffffffffffffffff1673ffffffffffffffffffffffffffffffffffffffff16633d4c12d7856040518263ffffffff1660e01b81526004016106429190612d4a565b602060405180830381865afa15801561065f573d6000803e3d6000fd5b505050506040513d601f19601f8201168201806040525081019061068391906133c3565b6106c2576040517f08c379a00000000000000000000000000000000000000000000000000000000081526004016106b990613473565b60405180910390fd5b60008060008303610a165760005b600960008873ffffffffffffffffffffffffffffffffffffffff1673ffffffffffffffffffffffffffffffffffffffff16815260200190815260200160002060008773ffffffffffffffffffffffffffffffffffffffff1673ffffffffffffffffffffffffffffffffffffffff168152602001908152602001600020805490508110156109c9573373ffffffffffffffffffffffffffffffffffffffff16600960008973ffffffffffffffffffffffffffffffffffffffff1673ffffffffffffffffffffffffffffffffffffffff16815260200190815260200160002060008873ffffffffffffffffffffffffffffffffffffffff1673ffffffffffffffffffffffffffffffffffffffff16815260200190815260200160002082815481106107fc576107fb613493565b5b906000526020600020906005020160020160009054906101000a900473ffffffffffffffffffffffffffffffffffffffff1673ffffffffffffffffffffffffffffffffffffffff16036109b6576000600960008973ffffffffffffffffffffffffffffffffffffffff1673ffffffffffffffffffffffffffffffffffffffff16815260200190815260200160002060008873ffffffffffffffffffffffffffffffffffffffff1673ffffffffffffffffffffffffffffffffffffffff16815260200190815260200160002082815481106108d9576108d8613493565b5b90600052602060002090600502016000015490506108f88888836120ff565b6001600960008a73ffffffffffffffffffffffffffffffffffffffff1673ffffffffffffffffffffffffffffffffffffffff16815260200190815260200160002060008973ffffffffffffffffffffffffffffffffffffffff1673ffffffffffffffffffffffffffffffffffffffff168152602001908152602001600020838154811061098857610987613493565b5b906000526020600020906005020160040160006101000a81548160ff02191690831515021790555060019250505b80806109c1906134f1565b9150506106d0565b506000151581151503610a11576040517f08c379a0000000000000000000000000000000000000000000000000000000008152600401610a08906135d1565b60405180910390fd5b610cd4565b60018303610cd35760005b600960008873ffffffffffffffffffffffffffffffffffffffff1673ffffffffffffffffffffffffffffffffffffffff16815260200190815260200160002060008773ffffffffffffffffffffffffffffffffffffffff1673ffffffffffffffffffffffffffffffffffffffff16815260200190815260200160002080549050811015610c8a573373ffffffffffffffffffffffffffffffffffffffff16600c60008973ffffffffffffffffffffffffffffffffffffffff1673ffffffffffffffffffffffffffffffffffffffff16815260200190815260200160002060008873ffffffffffffffffffffffffffffffffffffffff1673ffffffffffffffffffffffffffffffffffffffff16815260200190815260200160002060008781526020019081526020016000208281548110610b5e57610b5d613493565b5b906000526020600020906005020160020160009054906101000a900473ffffffffffffffffffffffffffffffffffffffff1673ffffffffffffffffffffffffffffffffffffffff1603610c7757610bb687878761056d565b6001600960008973ffffffffffffffffffffffffffffffffffffffff1673ffffffffffffffffffffffffffffffffffffffff16815260200190815260200160002060008873ffffffffffffffffffffffffffffffffffffffff1673ffffffffffffffffffffffffffffffffffffffff1681526020019081526020016000208281548110610c4657610c45613493565b5b906000526020600020906005020160040160006101000a81548160ff02191690831515021790555060019150610c8a565b8080610c82906134f1565b915050610a21565b506000151581151503610cd2576040517f08c379a0000000000000000000000000000000000000000000000000000000008152600401610cc9906135d1565b60405180910390fd5b5b5b8473ffffffffffffffffffffffffffffffffffffffff163373ffffffffffffffffffffffffffffffffffffffff168773ffffffffffffffffffffffffffffffffffffffff167f5ccac6a981ee0d2404d2487672d204c80cc526da4f51e90dd5ae4cfe880a9add878688604051610d4c939291906135f1565b60405180910390a4505050505050565b600b6020528160005260406000206020528060005260406000206000915091509054906101000a900460ff1681565b600160009054906101000a900473ffffffffffffffffffffffffffffffffffffffff1681565b3373ffffffffffffffffffffffffffffffffffffffff16600260009054906101000a900473ffffffffffffffffffffffffffffffffffffffff1673ffffffffffffffffffffffffffffffffffffffff1663c3bb8121866040518263ffffffff1660e01b8152600401610e239190612d4a565b600060405180830381865afa158015610e40573d6000803e3d6000fd5b505050506040513d6000823e3d601f19601f82011682018060405250810190610e699190613a26565b60e0015173ffffffffffffffffffffffffffffffffffffffff1614610ec3576040517f08c379a0000000000000000000000000000000000000000000000000000000008152600401610eba90613ae1565b60405180910390fd5b6000808203610edd57610ed8858560646120ff565b610ef3565b6000831115610ef257610ef185858561056d565b5b5b8373ffffffffffffffffffffffffffffffffffffffff168573ffffffffffffffffffffffffffffffffffffffff167faa3446f866f557932f6c5a4933379c0e3e3fd6dcc0a20cfae5222255ffd16bdd858486604051610f54939291906135f1565b60405180910390a35050505050565b600860009054906101000a900473ffffffffffffffffffffffffffffffffffffffff1681565b600260009054906101000a900473ffffffffffffffffffffffffffffffffffffffff1673ffffffffffffffffffffffffffffffffffffffff16630f1f8c05336040518263ffffffff1660e01b8152600401610fe49190612d4a565b602060405180830381865afa158015611001573d6000803e3d6000fd5b505050506040513d601f19601f8201168201806040525081019061102591906133c3565b611064576040517f08c379a000000000000000000000000000000000000000000000000000000000815260040161105b90613b73565b60405180910390fd5b600260009054906101000a900473ffffffffffffffffffffffffffffffffffffffff1673ffffffffffffffffffffffffffffffffffffffff166315b79630336040518263ffffffff1660e01b81526004016110bf9190612d4a565b602060405180830381865afa1580156110dc573d6000803e3d6000fd5b505050506040513d601f19601f8201168201806040525081019061110091906133c3565b61113f576040517f08c379a000000000000000000000000000000000000000000000000000000000815260040161113690613c2b565b60405180910390fd5b6000600260009054906101000a900473ffffffffffffffffffffffffffffffffffffffff1673ffffffffffffffffffffffffffffffffffffffff166320e4ab6a336040518263ffffffff1660e01b815260040161119c9190612d4a565b600060405180830381865afa1580156111b9573d6000803e3d6000fd5b505050506040513d6000823e3d601f19601f820116820180604052508101906111e29190613c4b565b9050600080600260009054906101000a900473ffffffffffffffffffffffffffffffffffffffff1673ffffffffffffffffffffffffffffffffffffffff166345bceabd336040518263ffffffff1660e01b81526004016112429190612d4a565b600060405180830381865afa15801561125f573d6000803e3d6000fd5b505050506040513d6000823e3d601f19601f820116820180604052508101906112889190613c94565b9050600080600090505b85518110156115745760005b8682815181106112b1576112b0613493565b5b602002602001015160600151518110156113d1576000945060005b8651811015611376578681815181106112e8576112e7613493565b5b602002602001015173ffffffffffffffffffffffffffffffffffffffff1688848151811061131957611318613493565b5b602002602001015160600151838151811061133757611336613493565b5b602002602001015173ffffffffffffffffffffffffffffffffffffffff16036113635760019550611376565b808061136e906134f1565b9150506112cc565b5060001515851515036113be576040517f08c379a00000000000000000000000000000000000000000000000000000000081526004016113b590613d75565b60405180910390fd5b80806113c9906134f1565b91505061129e565b5060005b8351811015611519576000600460009054906101000a900473ffffffffffffffffffffffffffffffffffffffff1673ffffffffffffffffffffffffffffffffffffffff16637f3d39bd86848151811061143157611430613493565b5b60200260200101516040518263ffffffff1660e01b81526004016114559190613234565b600060405180830381865afa158015611472573d6000803e3d6000fd5b505050506040513d6000823e3d601f19601f8201168201806040525081019061149b9190613d95565b9091929350909150905050809150508073ffffffffffffffffffffffffffffffffffffffff168884815181106114d4576114d3613493565b5b60200260200101516020015173ffffffffffffffffffffffffffffffffffffffff1603611505576001935050611519565b508080611511906134f1565b9150506113d5565b506000151582151503611561576040517f08c379a000000000000000000000000000000000000000000000000000000000815260040161155890613efc565b60405180910390fd5b808061156c906134f1565b915050611292565b50600080880361163e57600260009054906101000a900473ffffffffffffffffffffffffffffffffffffffff1673ffffffffffffffffffffffffffffffffffffffff1663de508c5b338c6040518363ffffffff1660e01b81526004016115db929190613f1c565b600060405180830381865afa1580156115f8573d6000803e3d6000fd5b505050506040513d6000823e3d601f19601f820116820180604052508101906116219190613f45565b909192939450909192935090919250909150905080915050611705565b6001880361170457600260009054906101000a900473ffffffffffffffffffffffffffffffffffffffff1673ffffffffffffffffffffffffffffffffffffffff16630220044b338c8a6040518463ffffffff1660e01b81526004016116a593929190613377565b600060405180830381865afa1580156116c2573d6000803e3d6000fd5b505050506040513d6000823e3d601f19601f820116820180604052508101906116eb9190613f45565b9091929394509091929350909192509091509050809150505b5b600080600090505b87518110156117555787818151811061172957611728613493565b5b602002602001015160000151826117409190613fee565b9150808061174d906134f1565b91505061170d565b50606481111561179a576040517f08c379a0000000000000000000000000000000000000000000000000000000008152600401611791906140ba565b60405180910390fd5b8161183b57600260009054906101000a900473ffffffffffffffffffffffffffffffffffffffff1673ffffffffffffffffffffffffffffffffffffffff166325cb763a338d8d8d8d876040518763ffffffff1660e01b81526004016118049695949392919061411e565b600060405180830381600087803b15801561181e57600080fd5b505af1158015611832573d6000803e3d6000fd5b50505050611c61565b6000600860009054906101000a900473ffffffffffffffffffffffffffffffffffffffff16905060008a03611a3a576005548173ffffffffffffffffffffffffffffffffffffffff1663dd62ed3e33306040518363ffffffff1660e01b81526004016118a8929190613f1c565b602060405180830381865afa1580156118c5573d6000803e3d6000fd5b505050506040513d601f19601f820116820180604052508101906118e99190614186565b101561192a576040517f08c379a000000000000000000000000000000000000000000000000000000000815260040161192190614225565b60405180910390fd5b8073ffffffffffffffffffffffffffffffffffffffff166323b872dd33306005546040518463ffffffff1660e01b815260040161196993929190613377565b6020604051808303816000875af1158015611988573d6000803e3d6000fd5b505050506040513d601f19601f820116820180604052508101906119ac91906133c3565b50600960003373ffffffffffffffffffffffffffffffffffffffff1673ffffffffffffffffffffffffffffffffffffffff16815260200190815260200160002060008d73ffffffffffffffffffffffffffffffffffffffff1673ffffffffffffffffffffffffffffffffffffffff1681526020019081526020016000206000611a35919061297f565b611c5f565b60018a03611c23576006548173ffffffffffffffffffffffffffffffffffffffff1663dd62ed3e33306040518363ffffffff1660e01b8152600401611a80929190613f1c565b602060405180830381865afa158015611a9d573d6000803e3d6000fd5b505050506040513d601f19601f82011682018060405250810190611ac19190614186565b1015611b02576040517f08c379a0000000000000000000000000000000000000000000000000000000008152600401611af990614225565b60405180910390fd5b8073ffffffffffffffffffffffffffffffffffffffff166323b872dd33306006546040518463ffffffff1660e01b8152600401611b4193929190613377565b6020604051808303816000875af1158015611b60573d6000803e3d6000fd5b505050506040513d601f19601f82011682018060405250810190611b8491906133c3565b50600c60003373ffffffffffffffffffffffffffffffffffffffff1673ffffffffffffffffffffffffffffffffffffffff16815260200190815260200160002060008d73ffffffffffffffffffffffffffffffffffffffff1673ffffffffffffffffffffffffffffffffffffffff16815260200190815260200160002060008a81526020019081526020016000206000611c1e919061297f565b611c5e565b6040517f08c379a0000000000000000000000000000000000000000000000000000000008152600401611c55906142b7565b60405180910390fd5b5b505b600260009054906101000a900473ffffffffffffffffffffffffffffffffffffffff1673ffffffffffffffffffffffffffffffffffffffff1663b69bd77f338d8b858e6040518663ffffffff1660e01b8152600401611cc49594939291906142d7565b600060405180830381600087803b158015611cde57600080fd5b505af1158015611cf2573d6000803e3d6000fd5b5050505060008903611eba5760005b8751811015611eb457600960003373ffffffffffffffffffffffffffffffffffffffff1673ffffffffffffffffffffffffffffffffffffffff16815260200190815260200160002060008d73ffffffffffffffffffffffffffffffffffffffff1673ffffffffffffffffffffffffffffffffffffffff168152602001908152602001600020888281518110611d9957611d98613493565b5b602002602001015190806001815401808255809150506001900390600052602060002090600502016000909190919091506000820151816000015560208201518160010160006101000a81548173ffffffffffffffffffffffffffffffffffffffff021916908373ffffffffffffffffffffffffffffffffffffffff16021790555060408201518160020160006101000a81548173ffffffffffffffffffffffffffffffffffffffff021916908373ffffffffffffffffffffffffffffffffffffffff1602179055506060820151816003019080519060200190611e7e9291906129a3565b5060808201518160040160006101000a81548160ff02191690831515021790555050508080611eac906134f1565b915050611d01565b5061208c565b6001890361208b5760005b875181101561208957600c60003373ffffffffffffffffffffffffffffffffffffffff1673ffffffffffffffffffffffffffffffffffffffff16815260200190815260200160002060008d73ffffffffffffffffffffffffffffffffffffffff1673ffffffffffffffffffffffffffffffffffffffff16815260200190815260200160002060008a8152602001908152602001600020888281518110611f6e57611f6d613493565b5b602002602001015190806001815401808255809150506001900390600052602060002090600502016000909190919091506000820151816000015560208201518160010160006101000a81548173ffffffffffffffffffffffffffffffffffffffff021916908373ffffffffffffffffffffffffffffffffffffffff16021790555060408201518160020160006101000a81548173ffffffffffffffffffffffffffffffffffffffff021916908373ffffffffffffffffffffffffffffffffffffffff16021790555060608201518160030190805190602001906120539291906129a3565b5060808201518160040160006101000a81548160ff02191690831515021790555050508080612081906134f1565b915050611ec5565b505b5b3373ffffffffffffffffffffffffffffffffffffffff167f356b94cb07d152dfb4f8876f9a6f4c7007027dd30aecb0ac9b698849e14e0e718c8a8c6040516120d69392919061432a565b60405180910390a25050505050505050505050565b6120f3612835565b6120fd60006128b3565b565b6000829050600b60008573ffffffffffffffffffffffffffffffffffffffff1673ffffffffffffffffffffffffffffffffffffffff16815260200190815260200160002060008473ffffffffffffffffffffffffffffffffffffffff1673ffffffffffffffffffffffffffffffffffffffff16815260200190815260200160002060009054906101000a900460ff16612322578073ffffffffffffffffffffffffffffffffffffffff166370a08231856040518263ffffffff1660e01b81526004016121cb9190612d4a565b602060405180830381865afa1580156121e8573d6000803e3d6000fd5b505050506040513d601f19601f8201168201806040525081019061220c9190614186565b600a60008673ffffffffffffffffffffffffffffffffffffffff1673ffffffffffffffffffffffffffffffffffffffff16815260200190815260200160002060008573ffffffffffffffffffffffffffffffffffffffff1673ffffffffffffffffffffffffffffffffffffffff168152602001908152602001600020819055506001600b60008673ffffffffffffffffffffffffffffffffffffffff1673ffffffffffffffffffffffffffffffffffffffff16815260200190815260200160002060008573ffffffffffffffffffffffffffffffffffffffff1673ffffffffffffffffffffffffffffffffffffffff16815260200190815260200160002060006101000a81548160ff0219169083151502179055505b6000606483600a60008873ffffffffffffffffffffffffffffffffffffffff1673ffffffffffffffffffffffffffffffffffffffff16815260200190815260200160002060008773ffffffffffffffffffffffffffffffffffffffff1673ffffffffffffffffffffffffffffffffffffffff168152602001908152602001600020546123ae9190614361565b6123b891906143d2565b90506000612710600754836123cd9190614361565b6123d791906143d2565b9050600081836123e79190614403565b90508373ffffffffffffffffffffffffffffffffffffffff166323b872dd8830856040518463ffffffff1660e01b815260040161242693929190613377565b6020604051808303816000875af1158015612445573d6000803e3d6000fd5b505050506040513d601f19601f8201168201806040525081019061246991906133c3565b508373ffffffffffffffffffffffffffffffffffffffff166323b872dd8833846040518463ffffffff1660e01b81526004016124a793929190613377565b6020604051808303816000875af11580156124c6573d6000803e3d6000fd5b505050506040513d601f19601f820116820180604052508101906124ea91906133c3565b5050505050505050565b60008060009054906101000a900473ffffffffffffffffffffffffffffffffffffffff16905090565b612525612835565b60008190508073ffffffffffffffffffffffffffffffffffffffff1663a9059cbb33856040518363ffffffff1660e01b8152600401612565929190614437565b6020604051808303816000875af1158015612584573d6000803e3d6000fd5b505050506040513d601f19601f820116820180604052508101906125a891906133c3565b50505050565b60055481565b600c60205283600052604060002060205282600052604060002060205281600052604060002081815481106125e857600080fd5b90600052602060002090600502016000935093505050508060000154908060010160009054906101000a900473ffffffffffffffffffffffffffffffffffffffff16908060020160009054906101000a900473ffffffffffffffffffffffffffffffffffffffff16908060040160009054906101000a900460ff16905084565b600260009054906101000a900473ffffffffffffffffffffffffffffffffffffffff1681565b600960205282600052604060002060205281600052604060002081815481106126b657600080fd5b906000526020600020906005020160009250925050508060000154908060010160009054906101000a900473ffffffffffffffffffffffffffffffffffffffff16908060020160009054906101000a900473ffffffffffffffffffffffffffffffffffffffff16908060040160009054906101000a900460ff16905084565b60065481565b60075481565b600a602052816000526040600020602052806000526040600020600091509150505481565b600360009054906101000a900473ffffffffffffffffffffffffffffffffffffffff1681565b612794612835565b600073ffffffffffffffffffffffffffffffffffffffff168173ffffffffffffffffffffffffffffffffffffffff1603612803576040517f08c379a00000000000000000000000000000000000000000000000000000000081526004016127fa906144d2565b60405180910390fd5b61280c816128b3565b50565b600460009054906101000a900473ffffffffffffffffffffffffffffffffffffffff1681565b61283d612977565b73ffffffffffffffffffffffffffffffffffffffff1661285b6124f4565b73ffffffffffffffffffffffffffffffffffffffff16146128b1576040517f08c379a00000000000000000000000000000000000000000000000000000000081526004016128a89061453e565b60405180910390fd5b565b60008060009054906101000a900473ffffffffffffffffffffffffffffffffffffffff169050816000806101000a81548173ffffffffffffffffffffffffffffffffffffffff021916908373ffffffffffffffffffffffffffffffffffffffff1602179055508173ffffffffffffffffffffffffffffffffffffffff168173ffffffffffffffffffffffffffffffffffffffff167f8be0079c531659141344cd1fd0a4f28419497f9722a3daafe3b4186f6b6457e060405160405180910390a35050565b600033905090565b50805460008255600502906000526020600020908101906129a09190612a2d565b50565b828054828255906000526020600020908101928215612a1c579160200282015b82811115612a1b5782518260006101000a81548173ffffffffffffffffffffffffffffffffffffffff021916908373ffffffffffffffffffffffffffffffffffffffff160217905550916020019190600101906129c3565b5b509050612a299190612abe565b5090565b5b80821115612aba576000808201600090556001820160006101000a81549073ffffffffffffffffffffffffffffffffffffffff02191690556002820160006101000a81549073ffffffffffffffffffffffffffffffffffffffff0219169055600382016000612a9d9190612adb565b6004820160006101000a81549060ff021916905550600501612a2e565b5090565b5b80821115612ad7576000816000905550600101612abf565b5090565b5080546000825590600052602060002090810190612af99190612abe565b50565b6000604051905090565b600080fd5b600080fd5b600073ffffffffffffffffffffffffffffffffffffffff82169050919050565b6000612b3b82612b10565b9050919050565b612b4b81612b30565b8114612b5657600080fd5b50565b600081359050612b6881612b42565b92915050565b6000819050919050565b612b8181612b6e565b8114612b8c57600080fd5b50565b600081359050612b9e81612b78565b92915050565b60008060008060808587031215612bbe57612bbd612b06565b5b6000612bcc87828801612b59565b9450506020612bdd87828801612b8f565b9350506040612bee87828801612b8f565b9250506060612bff87828801612b8f565b91505092959194509250565b600080600060608486031215612c2457612c23612b06565b5b6000612c3286828701612b59565b9350506020612c4386828701612b59565b9250506040612c5486828701612b8f565b9150509250925092565b60008060008060808587031215612c7857612c77612b06565b5b6000612c8687828801612b59565b9450506020612c9787828801612b59565b9350506040612ca887828801612b8f565b9250506060612cb987828801612b8f565b91505092959194509250565b60008060408385031215612cdc57612cdb612b06565b5b6000612cea85828601612b59565b9250506020612cfb85828601612b59565b9150509250929050565b60008115159050919050565b612d1a81612d05565b82525050565b6000602082019050612d356000830184612d11565b92915050565b612d4481612b30565b82525050565b6000602082019050612d5f6000830184612d3b565b92915050565b600080fd5b600080fd5b6000601f19601f8301169050919050565b7f4e487b7100000000000000000000000000000000000000000000000000000000600052604160045260246000fd5b612db882612d6f565b810181811067ffffffffffffffff82111715612dd757612dd6612d80565b5b80604052505050565b6000612dea612afc565b9050612df68282612daf565b919050565b600067ffffffffffffffff821115612e1657612e15612d80565b5b612e1f82612d6f565b9050602081019050919050565b82818337600083830152505050565b6000612e4e612e4984612dfb565b612de0565b905082815260208101848484011115612e6a57612e69612d6a565b5b612e75848285612e2c565b509392505050565b600082601f830112612e9257612e91612d65565b5b8135612ea2848260208601612e3b565b91505092915050565b600067ffffffffffffffff821115612ec657612ec5612d80565b5b602082029050602081019050919050565b600080fd5b600080fd5b600080fd5b600067ffffffffffffffff821115612f0157612f00612d80565b5b602082029050602081019050919050565b6000612f25612f2084612ee6565b612de0565b90508083825260208201905060208402830185811115612f4857612f47612ed7565b5b835b81811015612f715780612f5d8882612b59565b845260208401935050602081019050612f4a565b5050509392505050565b600082601f830112612f9057612f8f612d65565b5b8135612fa0848260208601612f12565b91505092915050565b612fb281612d05565b8114612fbd57600080fd5b50565b600081359050612fcf81612fa9565b92915050565b600060a08284031215612feb57612fea612edc565b5b612ff560a0612de0565b9050600061300584828501612b8f565b600083015250602061301984828501612b59565b602083015250604061302d84828501612b59565b604083015250606082013567ffffffffffffffff81111561305157613050612ee1565b5b61305d84828501612f7b565b606083015250608061307184828501612fc0565b60808301525092915050565b600061309061308b84612eab565b612de0565b905080838252602082019050602084028301858111156130b3576130b2612ed7565b5b835b818110156130fa57803567ffffffffffffffff8111156130d8576130d7612d65565b5b8086016130e58982612fd5565b855260208501945050506020810190506130b5565b5050509392505050565b600082601f83011261311957613118612d65565b5b813561312984826020860161307d565b91505092915050565b600080600080600060a0868803121561314e5761314d612b06565b5b600061315c88828901612b59565b955050602086013567ffffffffffffffff81111561317d5761317c612b0b565b5b61318988828901612e7d565b945050604061319a88828901612b8f565b93505060606131ab88828901612b8f565b925050608086013567ffffffffffffffff8111156131cc576131cb612b0b565b5b6131d888828901613104565b9150509295509295909350565b600080604083850312156131fc576131fb612b06565b5b600061320a85828601612b8f565b925050602061321b85828601612b59565b9150509250929050565b61322e81612b6e565b82525050565b60006020820190506132496000830184613225565b92915050565b60006080820190506132646000830187613225565b6132716020830186612d3b565b61327e6040830185612d3b565b61328b6060830184612d11565b95945050505050565b6000819050919050565b60006132b96132b46132af84612b10565b613294565b612b10565b9050919050565b60006132cb8261329e565b9050919050565b60006132dd826132c0565b9050919050565b6132ed816132d2565b82525050565b600060208201905061330860008301846132e4565b92915050565b60006020828403121561332457613323612b06565b5b600061333284828501612b59565b91505092915050565b6000613346826132c0565b9050919050565b6133568161333b565b82525050565b6000602082019050613371600083018461334d565b92915050565b600060608201905061338c6000830186612d3b565b6133996020830185612d3b565b6133a66040830184613225565b949350505050565b6000815190506133bd81612fa9565b92915050565b6000602082840312156133d9576133d8612b06565b5b60006133e7848285016133ae565b91505092915050565b600082825260208201905092915050565b7f536f7272792120596f752063616e277420636c61696d20746869732e2057652060008201527f77696c6c206d61696c20796f7520746f20636c61696d20746869732e00000000602082015250565b600061345d603c836133f0565b915061346882613401565b604082019050919050565b6000602082019050818103600083015261348c81613450565b9050919050565b7f4e487b7100000000000000000000000000000000000000000000000000000000600052603260045260246000fd5b7f4e487b7100000000000000000000000000000000000000000000000000000000600052601160045260246000fd5b60006134fc82612b6e565b91507fffffffffffffffffffffffffffffffffffffffffffffffffffffffffffffffff820361352e5761352d6134c2565b5b600182019050919050565b7f4f6f70732120596f752063616e277420636c61696d207468697320726967687460008201527f206e6f772e2057652077696c6c20696e666f726d20796f75207768656e20796f60208201527f752063616e20636c61696d2074686520746f6b656e2e00000000000000000000604082015250565b60006135bb6056836133f0565b91506135c682613539565b606082019050919050565b600060208201905081810360008301526135ea816135ae565b9050919050565b60006060820190506136066000830186613225565b6136136020830185613225565b6136206040830184613225565b949350505050565b60005b8381101561364657808201518184015260208101905061362b565b60008484015250505050565b600061366561366084612dfb565b612de0565b90508281526020810184848401111561368157613680612d6a565b5b61368c848285613628565b509392505050565b600082601f8301126136a9576136a8612d65565b5b81516136b9848260208601613652565b91505092915050565b6000815190506136d181612b42565b92915050565b60006136ea6136e584612ee6565b612de0565b9050808382526020820190506020840283018581111561370d5761370c612ed7565b5b835b81811015613736578061372288826136c2565b84526020840193505060208101905061370f565b5050509392505050565b600082601f83011261375557613754612d65565b5b81516137658482602086016136d7565b91505092915050565b600067ffffffffffffffff82111561378957613788612d80565b5b602082029050602081019050919050565b6000815190506137a981612b78565b92915050565b60006137c26137bd8461376e565b612de0565b905080838252602082019050602084028301858111156137e5576137e4612ed7565b5b835b8181101561380e57806137fa888261379a565b8452602084019350506020810190506137e7565b5050509392505050565b600082601f83011261382d5761382c612d65565b5b815161383d8482602086016137af565b91505092915050565b60006101a0828403121561385d5761385c612edc565b5b6138686101a0612de0565b9050600082015167ffffffffffffffff81111561388857613887612ee1565b5b61389484828501613694565b600083015250602082015167ffffffffffffffff8111156138b8576138b7612ee1565b5b6138c484828501613694565b602083015250604082015167ffffffffffffffff8111156138e8576138e7612ee1565b5b6138f484828501613694565b604083015250606082015167ffffffffffffffff81111561391857613917612ee1565b5b61392484828501613694565b6060830152506080613938848285016133ae565b60808301525060a061394c848285016133ae565b60a08301525060c0613960848285016133ae565b60c08301525060e0613974848285016136c2565b60e08301525061010082015167ffffffffffffffff81111561399957613998612ee1565b5b6139a584828501613740565b6101008301525061012082015167ffffffffffffffff8111156139cb576139ca612ee1565b5b6139d784828501613818565b610120830152506101406139ed8482850161379a565b61014083015250610160613a038482850161379a565b61016083015250610180613a198482850161379a565b6101808301525092915050565b600060208284031215613a3c57613a3b612b06565b5b600082015167ffffffffffffffff811115613a5a57613a59612b0b565b5b613a6684828501613846565b91505092915050565b7f546865207265636f766572792061646472657373206f72206f776e657220616460008201527f647265737320697320696e636f72726563742100000000000000000000000000602082015250565b6000613acb6033836133f0565b9150613ad682613a6f565b604082019050919050565b60006020820190508181036000830152613afa81613abe565b9050919050565b7f596f75206d757374206669727374207369676e20757020666f7220616e20616360008201527f636f756e742e0000000000000000000000000000000000000000000000000000602082015250565b6000613b5d6026836133f0565b9150613b6882613b01565b604082019050919050565b60006020820190508181036000830152613b8c81613b50565b9050919050565b7f596f757220656d61696c20686173206e6f7420796574206265656e2076616c6960008201527f64617465642e2056657269667920796f7572207265676973746572656420656d60208201527f61696c20616464726573732066697273742e0000000000000000000000000000604082015250565b6000613c156052836133f0565b9150613c2082613b93565b606082019050919050565b60006020820190508181036000830152613c4481613c08565b9050919050565b600060208284031215613c6157613c60612b06565b5b600082015167ffffffffffffffff811115613c7f57613c7e612b0b565b5b613c8b84828501613740565b91505092915050565b600060208284031215613caa57613ca9612b06565b5b600082015167ffffffffffffffff811115613cc857613cc7612b0b565b5b613cd484828501613818565b91505092915050565b7f436865636b207468617420616c6c20746865206e6f6d696e65657320796f752060008201527f617265206e6f6d696e6174696e6720617265206164646564206173206e6f6d6960208201527f6e6565732e000000000000000000000000000000000000000000000000000000604082015250565b6000613d5f6045836133f0565b9150613d6a82613cdd565b606082019050919050565b60006020820190508181036000830152613d8e81613d52565b9050919050565b600080600080600060a08688031215613db157613db0612b06565b5b6000613dbf8882890161379a565b9550506020613dd0888289016136c2565b945050604086015167ffffffffffffffff811115613df157613df0612b0b565b5b613dfd88828901613694565b935050606086015167ffffffffffffffff811115613e1e57613e1d612b0b565b5b613e2a88828901613694565b925050608086015167ffffffffffffffff811115613e4b57613e4a612b0b565b5b613e5788828901613694565b9150509295509295909350565b7f436865636b207468617420746865206368617269747920796f7520617265206e60008201527f6f6d696e6174696e67206973206c697374656420617320612077686974652d6c60208201527f697374656420636861726974792e000000000000000000000000000000000000604082015250565b6000613ee6604e836133f0565b9150613ef182613e64565b606082019050919050565b60006020820190508181036000830152613f1581613ed9565b9050919050565b6000604082019050613f316000830185612d3b565b613f3e6020830184612d3b565b9392505050565b60008060008060008060c08789031215613f6257613f61612b06565b5b6000613f7089828a016136c2565b965050602087015167ffffffffffffffff811115613f9157613f90612b0b565b5b613f9d89828a01613694565b9550506040613fae89828a0161379a565b9450506060613fbf89828a0161379a565b9350506080613fd089828a0161379a565b92505060a0613fe189828a016133ae565b9150509295509295509295565b6000613ff982612b6e565b915061400483612b6e565b925082820190508082111561401c5761401b6134c2565b5b92915050565b7f4f6f70732120596f752063616e206f6e6c7920616c6c6f63617465206120313060008201527f30252073686172652e2054727920746f2072656475636520746865207368617260208201527f6520616d6f756e742e0000000000000000000000000000000000000000000000604082015250565b60006140a46049836133f0565b91506140af82614022565b606082019050919050565b600060208201905081810360008301526140d381614097565b9050919050565b600081519050919050565b60006140f0826140da565b6140fa81856133f0565b935061410a818560208601613628565b61411381612d6f565b840191505092915050565b600060c0820190506141336000830189612d3b565b6141406020830188612d3b565b818103604083015261415281876140e5565b90506141616060830186613225565b61416e6080830185613225565b61417b60a0830184613225565b979650505050505050565b60006020828403121561419c5761419b612b06565b5b60006141aa8482850161379a565b91505092915050565b7f54686520616c6c6f77616e636520746f2074686520636f6e747261637420697360008201527f206e6f7420656e6f756768210000000000000000000000000000000000000000602082015250565b600061420f602c836133f0565b915061421a826141b3565b604082019050919050565b6000602082019050818103600083015261423e81614202565b9050919050565b7f5468652063617465676f72792076616c7565206d757374206265203020666f7260008201527f20746f6b656e7320616e64203120666f72204e46542e00000000000000000000602082015250565b60006142a16036836133f0565b91506142ac82614245565b604082019050919050565b600060208201905081810360008301526142d081614294565b9050919050565b600060a0820190506142ec6000830188612d3b565b6142f96020830187612d3b565b6143066040830186613225565b6143136060830185613225565b6143206080830184613225565b9695505050505050565b600060608201905061433f6000830186612d3b565b61434c6020830185613225565b6143596040830184613225565b949350505050565b600061436c82612b6e565b915061437783612b6e565b925082820261438581612b6e565b9150828204841483151761439c5761439b6134c2565b5b5092915050565b7f4e487b7100000000000000000000000000000000000000000000000000000000600052601260045260246000fd5b60006143dd82612b6e565b91506143e883612b6e565b9250826143f8576143f76143a3565b5b828204905092915050565b600061440e82612b6e565b915061441983612b6e565b9250828203905081811115614431576144306134c2565b5b92915050565b600060408201905061444c6000830185612d3b565b6144596020830184613225565b9392505050565b7f4f776e61626c653a206e6577206f776e657220697320746865207a65726f206160008201527f6464726573730000000000000000000000000000000000000000000000000000602082015250565b60006144bc6026836133f0565b91506144c782614460565b604082019050919050565b600060208201905081810360008301526144eb816144af565b9050919050565b7f4f776e61626c653a2063616c6c6572206973206e6f7420746865206f776e6572600082015250565b60006145286020836133f0565b9150614533826144f2565b602082019050919050565b600060208201905081810360008301526145578161451b565b905091905056fea264697066735822122051b3221afcaddbebaf52e71d4c04dcecf5b3387dac95416924139dc4e0c4d6af64736f6c63430008110033",
  "linkReferences": {},
  "deployedLinkReferences": {}
}