{
  "_format": "hh-sol-artifact-1",
  "contractName": "MultiplePriorityNominee",
  "sourceName": "contracts/MultiplePriorityNominee.sol",
  "abi": [
    {
      "inputs": [
        {
          "internalType": "address",
          "name": "_inheritokensAddress",
          "type": "address"
        },
        {
          "internalType": "address",
          "name": "_charityContractAddress",
          "type": "address"
        }
      ],
      "stateMutability": "nonpayable",
      "type": "constructor"
    },
    {
      "anonymous": false,
      "inputs": [
        {
          "indexed": true,
          "internalType": "address",
          "name": "_owner",
          "type": "address"
        },
        {
          "indexed": true,
          "internalType": "address",
          "name": "_nominee",
          "type": "address"
        },
        {
          "indexed": true,
          "internalType": "address",
          "name": "_tokenAddress",
          "type": "address"
        },
        {
          "indexed": false,
          "internalType": "uint256",
          "name": "_tokenId",
          "type": "uint256"
        },
        {
          "indexed": false,
          "internalType": "uint256",
          "name": "_amount",
          "type": "uint256"
        },
        {
          "indexed": false,
          "internalType": "uint256",
          "name": "_category",
          "type": "uint256"
        }
      ],
      "name": "Claimed",
      "type": "event"
    },
    {
      "anonymous": false,
      "inputs": [
        {
          "indexed": true,
          "internalType": "address",
          "name": "previousOwner",
          "type": "address"
        },
        {
          "indexed": true,
          "internalType": "address",
          "name": "newOwner",
          "type": "address"
        }
      ],
      "name": "OwnershipTransferred",
      "type": "event"
    },
    {
      "anonymous": false,
      "inputs": [
        {
          "indexed": true,
          "internalType": "address",
          "name": "_owner",
          "type": "address"
        },
        {
          "indexed": true,
          "internalType": "address",
          "name": "_tokenAddress",
          "type": "address"
        },
        {
          "indexed": false,
          "internalType": "uint256",
          "name": "_tokenId",
          "type": "uint256"
        },
        {
          "indexed": false,
          "internalType": "uint256",
          "name": "_amount",
          "type": "uint256"
        },
        {
          "indexed": false,
          "internalType": "uint256",
          "name": "_category",
          "type": "uint256"
        }
      ],
      "name": "Recovered",
      "type": "event"
    },
    {
      "anonymous": false,
      "inputs": [
        {
          "indexed": true,
          "internalType": "address",
          "name": "_owner",
          "type": "address"
        },
        {
          "indexed": false,
          "internalType": "address",
          "name": "_tokenAddress",
          "type": "address"
        },
        {
          "indexed": false,
          "internalType": "uint256",
          "name": "_tokenId",
          "type": "uint256"
        },
        {
          "indexed": false,
          "internalType": "uint256",
          "name": "_category",
          "type": "uint256"
        }
      ],
      "name": "TokensAssigned",
      "type": "event"
    },
    {
      "inputs": [
        {
          "internalType": "address",
          "name": "_tokenAddress",
          "type": "address"
        },
        {
          "internalType": "string",
          "name": "_tokenName",
          "type": "string"
        },
        {
          "internalType": "uint256",
          "name": "_category",
          "type": "uint256"
        },
        {
          "internalType": "uint256",
          "name": "_tokenId",
          "type": "uint256"
        },
        {
          "components": [
            {
              "internalType": "uint256",
              "name": "share",
              "type": "uint256"
            },
            {
              "internalType": "address",
              "name": "charityAddress",
              "type": "address"
            },
            {
              "internalType": "address",
              "name": "canClaim",
              "type": "address"
            },
            {
              "internalType": "address[]",
              "name": "nominee",
              "type": "address[]"
            },
            {
              "internalType": "bool",
              "name": "isClaimed",
              "type": "bool"
            }
          ],
          "internalType": "struct MultiplePriorityNominee.MultiplePriority[]",
          "name": "data",
          "type": "tuple[]"
        }
      ],
      "name": "assignTokensToMultipleNominees",
      "outputs": [],
      "stateMutability": "nonpayable",
      "type": "function"
    },
    {
      "inputs": [
        {
          "internalType": "address",
          "name": "_tokenAddress",
          "type": "address"
        },
        {
          "internalType": "uint256",
          "name": "_tokenCharge",
          "type": "uint256"
        },
        {
          "internalType": "uint256",
          "name": "_nftCharge",
          "type": "uint256"
        },
        {
          "internalType": "uint256",
          "name": "_percentage",
          "type": "uint256"
        }
      ],
      "name": "changeCharges",
      "outputs": [],
      "stateMutability": "nonpayable",
      "type": "function"
    },
    {
      "inputs": [],
      "name": "chargeTokenAddress",
      "outputs": [
        {
          "internalType": "address",
          "name": "",
          "type": "address"
        }
      ],
      "stateMutability": "view",
      "type": "function"
    },
    {
      "inputs": [],
      "name": "charityContract",
      "outputs": [
        {
          "internalType": "contract CharityContract",
          "name": "",
          "type": "address"
        }
      ],
      "stateMutability": "view",
      "type": "function"
    },
    {
      "inputs": [],
      "name": "charityContractAddress",
      "outputs": [
        {
          "internalType": "address",
          "name": "",
          "type": "address"
        }
      ],
      "stateMutability": "view",
      "type": "function"
    },
    {
      "inputs": [
        {
          "internalType": "address",
          "name": "_owner",
          "type": "address"
        },
        {
          "internalType": "address",
          "name": "_tokenAddress",
          "type": "address"
        },
        {
          "internalType": "uint256",
          "name": "_tokenId",
          "type": "uint256"
        },
        {
          "internalType": "uint256",
          "name": "_category",
          "type": "uint256"
        }
      ],
      "name": "claim",
      "outputs": [],
      "stateMutability": "nonpayable",
      "type": "function"
    },
    {
      "inputs": [],
      "name": "inheritokens",
      "outputs": [
        {
          "internalType": "contract Inheritokens",
          "name": "",
          "type": "address"
        }
      ],
      "stateMutability": "view",
      "type": "function"
    },
    {
      "inputs": [],
      "name": "inheritokensAddress",
      "outputs": [
        {
          "internalType": "address",
          "name": "",
          "type": "address"
        }
      ],
      "stateMutability": "view",
      "type": "function"
    },
    {
      "inputs": [],
      "name": "nftCharge",
      "outputs": [
        {
          "internalType": "uint256",
          "name": "",
          "type": "uint256"
        }
      ],
      "stateMutability": "view",
      "type": "function"
    },
    {
      "inputs": [
        {
          "internalType": "address",
          "name": "_owner",
          "type": "address"
        },
        {
          "internalType": "address",
          "name": "_tokenAddress",
          "type": "address"
        },
        {
          "internalType": "uint256",
          "name": "_tokenId",
          "type": "uint256"
        }
      ],
      "name": "nftTransferLogic",
      "outputs": [],
      "stateMutability": "nonpayable",
      "type": "function"
    },
    {
      "inputs": [],
      "name": "owner",
      "outputs": [
        {
          "internalType": "address",
          "name": "",
          "type": "address"
        }
      ],
      "stateMutability": "view",
      "type": "function"
    },
    {
      "inputs": [
        {
          "internalType": "address",
          "name": "",
          "type": "address"
        },
        {
          "internalType": "address",
          "name": "",
          "type": "address"
        },
        {
          "internalType": "uint256",
          "name": "",
          "type": "uint256"
        },
        {
          "internalType": "uint256",
          "name": "",
          "type": "uint256"
        }
      ],
      "name": "ownerToNFTToStruct",
      "outputs": [
        {
          "internalType": "uint256",
          "name": "share",
          "type": "uint256"
        },
        {
          "internalType": "address",
          "name": "charityAddress",
          "type": "address"
        },
        {
          "internalType": "address",
          "name": "canClaim",
          "type": "address"
        },
        {
          "internalType": "bool",
          "name": "isClaimed",
          "type": "bool"
        }
      ],
      "stateMutability": "view",
      "type": "function"
    },
    {
      "inputs": [
        {
          "internalType": "address",
          "name": "",
          "type": "address"
        },
        {
          "internalType": "address",
          "name": "",
          "type": "address"
        },
        {
          "internalType": "uint256",
          "name": "",
          "type": "uint256"
        }
      ],
      "name": "ownerToTokenToStruct",
      "outputs": [
        {
          "internalType": "uint256",
          "name": "share",
          "type": "uint256"
        },
        {
          "internalType": "address",
          "name": "charityAddress",
          "type": "address"
        },
        {
          "internalType": "address",
          "name": "canClaim",
          "type": "address"
        },
        {
          "internalType": "bool",
          "name": "isClaimed",
          "type": "bool"
        }
      ],
      "stateMutability": "view",
      "type": "function"
    },
    {
      "inputs": [],
      "name": "percentage",
      "outputs": [
        {
          "internalType": "uint256",
          "name": "",
          "type": "uint256"
        }
      ],
      "stateMutability": "view",
      "type": "function"
    },
    {
      "inputs": [
        {
          "internalType": "address",
          "name": "_owner",
          "type": "address"
        },
        {
          "internalType": "address",
          "name": "_tokenAddress",
          "type": "address"
        },
        {
          "internalType": "uint256",
          "name": "_tokenId",
          "type": "uint256"
        },
        {
          "internalType": "uint256",
          "name": "_category",
          "type": "uint256"
        }
      ],
      "name": "recoveryClaim",
      "outputs": [],
      "stateMutability": "nonpayable",
      "type": "function"
    },
    {
      "inputs": [],
      "name": "renounceOwnership",
      "outputs": [],
      "stateMutability": "nonpayable",
      "type": "function"
    },
    {
      "inputs": [],
      "name": "tokenCharge",
      "outputs": [
        {
          "internalType": "uint256",
          "name": "",
          "type": "uint256"
        }
      ],
      "stateMutability": "view",
      "type": "function"
    },
    {
      "inputs": [
        {
          "internalType": "address",
          "name": "_owner",
          "type": "address"
        },
        {
          "internalType": "address",
          "name": "_tokenAddress",
          "type": "address"
        },
        {
          "internalType": "uint256",
          "name": "_share",
          "type": "uint256"
        }
      ],
      "name": "tokenTransferLogic",
      "outputs": [],
      "stateMutability": "nonpayable",
      "type": "function"
    },
    {
      "inputs": [
        {
          "internalType": "address",
          "name": "newOwner",
          "type": "address"
        }
      ],
      "name": "transferOwnership",
      "outputs": [],
      "stateMutability": "nonpayable",
      "type": "function"
    },
    {
      "inputs": [
        {
          "internalType": "uint256",
          "name": "_amount",
          "type": "uint256"
        },
        {
          "internalType": "address",
          "name": "_tokenAddress",
          "type": "address"
        }
      ],
      "name": "withdrawFromContract",
      "outputs": [],
      "stateMutability": "payable",
      "type": "function"
    }
  ],
  "bytecode": "0x6080604052620f4240600555624c4b40600655600160075573e9dce89b076ba6107bb64ef30678efec11939234600860006101000a81548173ffffffffffffffffffffffffffffffffffffffff021916908373ffffffffffffffffffffffffffffffffffffffff1602179055503480156200007957600080fd5b50604051620045d0380380620045d083398181016040528101906200009f919062000345565b620000bf620000b36200020f60201b60201c565b6200021760201b60201c565b81600160006101000a81548173ffffffffffffffffffffffffffffffffffffffff021916908373ffffffffffffffffffffffffffffffffffffffff160217905550600160009054906101000a900473ffffffffffffffffffffffffffffffffffffffff16600260006101000a81548173ffffffffffffffffffffffffffffffffffffffff021916908373ffffffffffffffffffffffffffffffffffffffff16021790555080600360006101000a81548173ffffffffffffffffffffffffffffffffffffffff021916908373ffffffffffffffffffffffffffffffffffffffff160217905550600360009054906101000a900473ffffffffffffffffffffffffffffffffffffffff16600460006101000a81548173ffffffffffffffffffffffffffffffffffffffff021916908373ffffffffffffffffffffffffffffffffffffffff16021790555050506200038c565b600033905090565b60008060009054906101000a900473ffffffffffffffffffffffffffffffffffffffff169050816000806101000a81548173ffffffffffffffffffffffffffffffffffffffff021916908373ffffffffffffffffffffffffffffffffffffffff1602179055508173ffffffffffffffffffffffffffffffffffffffff168173ffffffffffffffffffffffffffffffffffffffff167f8be0079c531659141344cd1fd0a4f28419497f9722a3daafe3b4186f6b6457e060405160405180910390a35050565b600080fd5b600073ffffffffffffffffffffffffffffffffffffffff82169050919050565b60006200030d82620002e0565b9050919050565b6200031f8162000300565b81146200032b57600080fd5b50565b6000815190506200033f8162000314565b92915050565b600080604083850312156200035f576200035e620002db565b5b60006200036f858286016200032e565b925050602062000382858286016200032e565b9150509250929050565b614234806200039c6000396000f3fe60806040526004361061011f5760003560e01c80639605f505116100a0578063c407695b11610064578063c407695b146103a4578063c78ad77f146103cf578063f1d8eefc146103fa578063f2fde38b14610425578063f4cd54651461044e5761011f565b80639605f505146102b25780639b252023146102ce578063a64ad61f146102f9578063be27c3fe14610339578063bea7d6ac146103645761011f565b80635c042ae7116100e75780635c042ae7146101f35780635e7717751461021e578063715018a61461024757806379cf30771461025e5780638da5cb5b146102875761011f565b806303cd42481461012457806322d5dfbf1461014d57806326af48321461017657806346f171521461019f5780634ab3a732146101ca575b600080fd5b34801561013057600080fd5b5061014b6004803603810190610146919061289f565b610479565b005b34801561015957600080fd5b50610174600480360381019061016f9190612906565b6104dd565b005b34801561018257600080fd5b5061019d60048036038101906101989190612959565b610557565b005b3480156101ab57600080fd5b506101b4610ccc565b6040516101c191906129cf565b60405180910390f35b3480156101d657600080fd5b506101f160048036038101906101ec9190612959565b610cf2565b005b3480156101ff57600080fd5b50610208610ea4565b60405161021591906129cf565b60405180910390f35b34801561022a57600080fd5b5061024560048036038101906102409190612dc3565b610eca565b005b34801561025357600080fd5b5061025c61202c565b005b34801561026a57600080fd5b5061028560048036038101906102809190612906565b612040565b005b34801561029357600080fd5b5061029c612214565b6040516102a991906129cf565b60405180910390f35b6102cc60048036038101906102c79190612e76565b61223d565b005b3480156102da57600080fd5b506102e36122ce565b6040516102f09190612ec5565b60405180910390f35b34801561030557600080fd5b50610320600480360381019061031b9190612959565b6122d4565b6040516103309493929190612eef565b60405180910390f35b34801561034557600080fd5b5061034e612388565b60405161035b9190612f93565b60405180910390f35b34801561037057600080fd5b5061038b60048036038101906103869190612906565b6123ae565b60405161039b9493929190612eef565b60405180910390f35b3480156103b057600080fd5b506103b9612455565b6040516103c69190612ec5565b60405180910390f35b3480156103db57600080fd5b506103e461245b565b6040516103f19190612ec5565b60405180910390f35b34801561040657600080fd5b5061040f612461565b60405161041c91906129cf565b60405180910390f35b34801561043157600080fd5b5061044c60048036038101906104479190612fae565b612487565b005b34801561045a57600080fd5b5061046361250a565b6040516104709190612ffc565b60405180910390f35b610481612530565b83600860006101000a81548173ffffffffffffffffffffffffffffffffffffffff021916908373ffffffffffffffffffffffffffffffffffffffff16021790555082600581905550816006819055508060078190555050505050565b60008290508073ffffffffffffffffffffffffffffffffffffffff166323b872dd8533856040518463ffffffff1660e01b815260040161051f93929190613017565b600060405180830381600087803b15801561053957600080fd5b505af115801561054d573d6000803e3d6000fd5b5050505050505050565b600260009054906101000a900473ffffffffffffffffffffffffffffffffffffffff1673ffffffffffffffffffffffffffffffffffffffff16633d4c12d7856040518263ffffffff1660e01b81526004016105b291906129cf565b602060405180830381865afa1580156105cf573d6000803e3d6000fd5b505050506040513d601f19601f820116820180604052508101906105f39190613063565b610632576040517f08c379a000000000000000000000000000000000000000000000000000000000815260040161062990613113565b60405180910390fd5b600080600083036109865760005b600960008873ffffffffffffffffffffffffffffffffffffffff1673ffffffffffffffffffffffffffffffffffffffff16815260200190815260200160002060008773ffffffffffffffffffffffffffffffffffffffff1673ffffffffffffffffffffffffffffffffffffffff16815260200190815260200160002080549050811015610939573373ffffffffffffffffffffffffffffffffffffffff16600960008973ffffffffffffffffffffffffffffffffffffffff1673ffffffffffffffffffffffffffffffffffffffff16815260200190815260200160002060008873ffffffffffffffffffffffffffffffffffffffff1673ffffffffffffffffffffffffffffffffffffffff168152602001908152602001600020828154811061076c5761076b613133565b5b906000526020600020906005020160020160009054906101000a900473ffffffffffffffffffffffffffffffffffffffff1673ffffffffffffffffffffffffffffffffffffffff1603610926576000600960008973ffffffffffffffffffffffffffffffffffffffff1673ffffffffffffffffffffffffffffffffffffffff16815260200190815260200160002060008873ffffffffffffffffffffffffffffffffffffffff1673ffffffffffffffffffffffffffffffffffffffff168152602001908152602001600020828154811061084957610848613133565b5b9060005260206000209060050201600001549050610868888883612040565b6001600960008a73ffffffffffffffffffffffffffffffffffffffff1673ffffffffffffffffffffffffffffffffffffffff16815260200190815260200160002060008973ffffffffffffffffffffffffffffffffffffffff1673ffffffffffffffffffffffffffffffffffffffff16815260200190815260200160002083815481106108f8576108f7613133565b5b906000526020600020906005020160040160006101000a81548160ff02191690831515021790555060019250505b808061093190613191565b915050610640565b506000151581151503610981576040517f08c379a000000000000000000000000000000000000000000000000000000000815260040161097890613271565b60405180910390fd5b610c44565b60018303610c435760005b600960008873ffffffffffffffffffffffffffffffffffffffff1673ffffffffffffffffffffffffffffffffffffffff16815260200190815260200160002060008773ffffffffffffffffffffffffffffffffffffffff1673ffffffffffffffffffffffffffffffffffffffff16815260200190815260200160002080549050811015610bfa573373ffffffffffffffffffffffffffffffffffffffff16600a60008973ffffffffffffffffffffffffffffffffffffffff1673ffffffffffffffffffffffffffffffffffffffff16815260200190815260200160002060008873ffffffffffffffffffffffffffffffffffffffff1673ffffffffffffffffffffffffffffffffffffffff16815260200190815260200160002060008781526020019081526020016000208281548110610ace57610acd613133565b5b906000526020600020906005020160020160009054906101000a900473ffffffffffffffffffffffffffffffffffffffff1673ffffffffffffffffffffffffffffffffffffffff1603610be757610b268787876104dd565b6001600960008973ffffffffffffffffffffffffffffffffffffffff1673ffffffffffffffffffffffffffffffffffffffff16815260200190815260200160002060008873ffffffffffffffffffffffffffffffffffffffff1673ffffffffffffffffffffffffffffffffffffffff1681526020019081526020016000208281548110610bb657610bb5613133565b5b906000526020600020906005020160040160006101000a81548160ff02191690831515021790555060019150610bfa565b8080610bf290613191565b915050610991565b506000151581151503610c42576040517f08c379a0000000000000000000000000000000000000000000000000000000008152600401610c3990613271565b60405180910390fd5b5b5b8473ffffffffffffffffffffffffffffffffffffffff163373ffffffffffffffffffffffffffffffffffffffff168773ffffffffffffffffffffffffffffffffffffffff167f5ccac6a981ee0d2404d2487672d204c80cc526da4f51e90dd5ae4cfe880a9add878688604051610cbc93929190613291565b60405180910390a4505050505050565b600160009054906101000a900473ffffffffffffffffffffffffffffffffffffffff1681565b3373ffffffffffffffffffffffffffffffffffffffff16600260009054906101000a900473ffffffffffffffffffffffffffffffffffffffff1673ffffffffffffffffffffffffffffffffffffffff1663c3bb8121866040518263ffffffff1660e01b8152600401610d6491906129cf565b600060405180830381865afa158015610d81573d6000803e3d6000fd5b505050506040513d6000823e3d601f19601f82011682018060405250810190610daa91906136c6565b60e0015173ffffffffffffffffffffffffffffffffffffffff1614610e04576040517f08c379a0000000000000000000000000000000000000000000000000000000008152600401610dfb90613781565b60405180910390fd5b6000808203610e1e57610e1985856064612040565b610e34565b6000831115610e3357610e328585856104dd565b5b5b8373ffffffffffffffffffffffffffffffffffffffff168573ffffffffffffffffffffffffffffffffffffffff167faa3446f866f557932f6c5a4933379c0e3e3fd6dcc0a20cfae5222255ffd16bdd858486604051610e9593929190613291565b60405180910390a35050505050565b600860009054906101000a900473ffffffffffffffffffffffffffffffffffffffff1681565b600260009054906101000a900473ffffffffffffffffffffffffffffffffffffffff1673ffffffffffffffffffffffffffffffffffffffff16630f1f8c05336040518263ffffffff1660e01b8152600401610f2591906129cf565b602060405180830381865afa158015610f42573d6000803e3d6000fd5b505050506040513d601f19601f82011682018060405250810190610f669190613063565b610fa5576040517f08c379a0000000000000000000000000000000000000000000000000000000008152600401610f9c90613813565b60405180910390fd5b600260009054906101000a900473ffffffffffffffffffffffffffffffffffffffff1673ffffffffffffffffffffffffffffffffffffffff166315b79630336040518263ffffffff1660e01b815260040161100091906129cf565b602060405180830381865afa15801561101d573d6000803e3d6000fd5b505050506040513d601f19601f820116820180604052508101906110419190613063565b611080576040517f08c379a0000000000000000000000000000000000000000000000000000000008152600401611077906138cb565b60405180910390fd5b6000600260009054906101000a900473ffffffffffffffffffffffffffffffffffffffff1673ffffffffffffffffffffffffffffffffffffffff166320e4ab6a336040518263ffffffff1660e01b81526004016110dd91906129cf565b600060405180830381865afa1580156110fa573d6000803e3d6000fd5b505050506040513d6000823e3d601f19601f8201168201806040525081019061112391906138eb565b9050600080600260009054906101000a900473ffffffffffffffffffffffffffffffffffffffff1673ffffffffffffffffffffffffffffffffffffffff166345bceabd336040518263ffffffff1660e01b815260040161118391906129cf565b600060405180830381865afa1580156111a0573d6000803e3d6000fd5b505050506040513d6000823e3d601f19601f820116820180604052508101906111c99190613934565b9050600080600090505b85518110156114b55760005b8682815181106111f2576111f1613133565b5b60200260200101516060015151811015611312576000945060005b86518110156112b75786818151811061122957611228613133565b5b602002602001015173ffffffffffffffffffffffffffffffffffffffff1688848151811061125a57611259613133565b5b602002602001015160600151838151811061127857611277613133565b5b602002602001015173ffffffffffffffffffffffffffffffffffffffff16036112a457600195506112b7565b80806112af90613191565b91505061120d565b5060001515851515036112ff576040517f08c379a00000000000000000000000000000000000000000000000000000000081526004016112f690613a15565b60405180910390fd5b808061130a90613191565b9150506111df565b5060005b835181101561145a576000600460009054906101000a900473ffffffffffffffffffffffffffffffffffffffff1673ffffffffffffffffffffffffffffffffffffffff16637f3d39bd86848151811061137257611371613133565b5b60200260200101516040518263ffffffff1660e01b81526004016113969190612ec5565b600060405180830381865afa1580156113b3573d6000803e3d6000fd5b505050506040513d6000823e3d601f19601f820116820180604052508101906113dc9190613a35565b9091929350909150905050809150508073ffffffffffffffffffffffffffffffffffffffff1688848151811061141557611414613133565b5b60200260200101516020015173ffffffffffffffffffffffffffffffffffffffff160361144657600193505061145a565b50808061145290613191565b915050611316565b5060001515821515036114a2576040517f08c379a000000000000000000000000000000000000000000000000000000000815260040161149990613b9c565b60405180910390fd5b80806114ad90613191565b9150506111d3565b50600080880361157f57600260009054906101000a900473ffffffffffffffffffffffffffffffffffffffff1673ffffffffffffffffffffffffffffffffffffffff1663de508c5b338c6040518363ffffffff1660e01b815260040161151c929190613bbc565b600060405180830381865afa158015611539573d6000803e3d6000fd5b505050506040513d6000823e3d601f19601f820116820180604052508101906115629190613be5565b909192939450909192935090919250909150905080915050611646565b6001880361164557600260009054906101000a900473ffffffffffffffffffffffffffffffffffffffff1673ffffffffffffffffffffffffffffffffffffffff16630220044b338c8a6040518463ffffffff1660e01b81526004016115e693929190613017565b600060405180830381865afa158015611603573d6000803e3d6000fd5b505050506040513d6000823e3d601f19601f8201168201806040525081019061162c9190613be5565b9091929394509091929350909192509091509050809150505b5b600080600090505b87518110156116965787818151811061166a57611669613133565b5b602002602001015160000151826116819190613c8e565b9150808061168e90613191565b91505061164e565b5060648111156116db576040517f08c379a00000000000000000000000000000000000000000000000000000000081526004016116d290613d5a565b60405180910390fd5b8161177c57600260009054906101000a900473ffffffffffffffffffffffffffffffffffffffff1673ffffffffffffffffffffffffffffffffffffffff166325cb763a338d8d8d868e6040518763ffffffff1660e01b815260040161174596959493929190613dbe565b600060405180830381600087803b15801561175f57600080fd5b505af1158015611773573d6000803e3d6000fd5b50505050611ba2565b6000600860009054906101000a900473ffffffffffffffffffffffffffffffffffffffff16905060008a0361197b576005548173ffffffffffffffffffffffffffffffffffffffff1663dd62ed3e33306040518363ffffffff1660e01b81526004016117e9929190613bbc565b602060405180830381865afa158015611806573d6000803e3d6000fd5b505050506040513d601f19601f8201168201806040525081019061182a9190613e26565b101561186b576040517f08c379a000000000000000000000000000000000000000000000000000000000815260040161186290613ec5565b60405180910390fd5b8073ffffffffffffffffffffffffffffffffffffffff166323b872dd33306005546040518463ffffffff1660e01b81526004016118aa93929190613017565b6020604051808303816000875af11580156118c9573d6000803e3d6000fd5b505050506040513d601f19601f820116820180604052508101906118ed9190613063565b50600960003373ffffffffffffffffffffffffffffffffffffffff1673ffffffffffffffffffffffffffffffffffffffff16815260200190815260200160002060008d73ffffffffffffffffffffffffffffffffffffffff1673ffffffffffffffffffffffffffffffffffffffff1681526020019081526020016000206000611976919061267a565b611ba0565b60018a03611b64576006548173ffffffffffffffffffffffffffffffffffffffff1663dd62ed3e33306040518363ffffffff1660e01b81526004016119c1929190613bbc565b602060405180830381865afa1580156119de573d6000803e3d6000fd5b505050506040513d601f19601f82011682018060405250810190611a029190613e26565b1015611a43576040517f08c379a0000000000000000000000000000000000000000000000000000000008152600401611a3a90613ec5565b60405180910390fd5b8073ffffffffffffffffffffffffffffffffffffffff166323b872dd33306006546040518463ffffffff1660e01b8152600401611a8293929190613017565b6020604051808303816000875af1158015611aa1573d6000803e3d6000fd5b505050506040513d601f19601f82011682018060405250810190611ac59190613063565b50600a60003373ffffffffffffffffffffffffffffffffffffffff1673ffffffffffffffffffffffffffffffffffffffff16815260200190815260200160002060008d73ffffffffffffffffffffffffffffffffffffffff1673ffffffffffffffffffffffffffffffffffffffff16815260200190815260200160002060008a81526020019081526020016000206000611b5f919061267a565b611b9f565b6040517f08c379a0000000000000000000000000000000000000000000000000000000008152600401611b9690613f57565b60405180910390fd5b5b505b600260009054906101000a900473ffffffffffffffffffffffffffffffffffffffff1673ffffffffffffffffffffffffffffffffffffffff1663b69bd77f338d8b858e6040518663ffffffff1660e01b8152600401611c05959493929190613f77565b600060405180830381600087803b158015611c1f57600080fd5b505af1158015611c33573d6000803e3d6000fd5b5050505060008903611dfb5760005b8751811015611df557600960003373ffffffffffffffffffffffffffffffffffffffff1673ffffffffffffffffffffffffffffffffffffffff16815260200190815260200160002060008d73ffffffffffffffffffffffffffffffffffffffff1673ffffffffffffffffffffffffffffffffffffffff168152602001908152602001600020888281518110611cda57611cd9613133565b5b602002602001015190806001815401808255809150506001900390600052602060002090600502016000909190919091506000820151816000015560208201518160010160006101000a81548173ffffffffffffffffffffffffffffffffffffffff021916908373ffffffffffffffffffffffffffffffffffffffff16021790555060408201518160020160006101000a81548173ffffffffffffffffffffffffffffffffffffffff021916908373ffffffffffffffffffffffffffffffffffffffff1602179055506060820151816003019080519060200190611dbf92919061269e565b5060808201518160040160006101000a81548160ff02191690831515021790555050508080611ded90613191565b915050611c42565b50611fcd565b60018903611fcc5760005b8751811015611fca57600a60003373ffffffffffffffffffffffffffffffffffffffff1673ffffffffffffffffffffffffffffffffffffffff16815260200190815260200160002060008d73ffffffffffffffffffffffffffffffffffffffff1673ffffffffffffffffffffffffffffffffffffffff16815260200190815260200160002060008a8152602001908152602001600020888281518110611eaf57611eae613133565b5b602002602001015190806001815401808255809150506001900390600052602060002090600502016000909190919091506000820151816000015560208201518160010160006101000a81548173ffffffffffffffffffffffffffffffffffffffff021916908373ffffffffffffffffffffffffffffffffffffffff16021790555060408201518160020160006101000a81548173ffffffffffffffffffffffffffffffffffffffff021916908373ffffffffffffffffffffffffffffffffffffffff1602179055506060820151816003019080519060200190611f9492919061269e565b5060808201518160040160006101000a81548160ff02191690831515021790555050508080611fc290613191565b915050611e06565b505b5b3373ffffffffffffffffffffffffffffffffffffffff167f356b94cb07d152dfb4f8876f9a6f4c7007027dd30aecb0ac9b698849e14e0e718c8a8c60405161201793929190613fca565b60405180910390a25050505050505050505050565b612034612530565b61203e60006125ae565b565b600082905060006064838373ffffffffffffffffffffffffffffffffffffffff166370a08231886040518263ffffffff1660e01b815260040161208391906129cf565b602060405180830381865afa1580156120a0573d6000803e3d6000fd5b505050506040513d601f19601f820116820180604052508101906120c49190613e26565b6120ce9190614001565b6120d89190614072565b90506000612710600754836120ed9190614001565b6120f79190614072565b90506000818361210791906140a3565b90508373ffffffffffffffffffffffffffffffffffffffff166323b872dd8830856040518463ffffffff1660e01b815260040161214693929190613017565b6020604051808303816000875af1158015612165573d6000803e3d6000fd5b505050506040513d601f19601f820116820180604052508101906121899190613063565b508373ffffffffffffffffffffffffffffffffffffffff166323b872dd8833846040518463ffffffff1660e01b81526004016121c793929190613017565b6020604051808303816000875af11580156121e6573d6000803e3d6000fd5b505050506040513d601f19601f8201168201806040525081019061220a9190613063565b5050505050505050565b60008060009054906101000a900473ffffffffffffffffffffffffffffffffffffffff16905090565b612245612530565b60008190508073ffffffffffffffffffffffffffffffffffffffff1663a9059cbb33856040518363ffffffff1660e01b81526004016122859291906140d7565b6020604051808303816000875af11580156122a4573d6000803e3d6000fd5b505050506040513d601f19601f820116820180604052508101906122c89190613063565b50505050565b60055481565b600a602052836000526040600020602052826000526040600020602052816000526040600020818154811061230857600080fd5b90600052602060002090600502016000935093505050508060000154908060010160009054906101000a900473ffffffffffffffffffffffffffffffffffffffff16908060020160009054906101000a900473ffffffffffffffffffffffffffffffffffffffff16908060040160009054906101000a900460ff16905084565b600260009054906101000a900473ffffffffffffffffffffffffffffffffffffffff1681565b600960205282600052604060002060205281600052604060002081815481106123d657600080fd5b906000526020600020906005020160009250925050508060000154908060010160009054906101000a900473ffffffffffffffffffffffffffffffffffffffff16908060020160009054906101000a900473ffffffffffffffffffffffffffffffffffffffff16908060040160009054906101000a900460ff16905084565b60065481565b60075481565b600360009054906101000a900473ffffffffffffffffffffffffffffffffffffffff1681565b61248f612530565b600073ffffffffffffffffffffffffffffffffffffffff168173ffffffffffffffffffffffffffffffffffffffff16036124fe576040517f08c379a00000000000000000000000000000000000000000000000000000000081526004016124f590614172565b60405180910390fd5b612507816125ae565b50565b600460009054906101000a900473ffffffffffffffffffffffffffffffffffffffff1681565b612538612672565b73ffffffffffffffffffffffffffffffffffffffff16612556612214565b73ffffffffffffffffffffffffffffffffffffffff16146125ac576040517f08c379a00000000000000000000000000000000000000000000000000000000081526004016125a3906141de565b60405180910390fd5b565b60008060009054906101000a900473ffffffffffffffffffffffffffffffffffffffff169050816000806101000a81548173ffffffffffffffffffffffffffffffffffffffff021916908373ffffffffffffffffffffffffffffffffffffffff1602179055508173ffffffffffffffffffffffffffffffffffffffff168173ffffffffffffffffffffffffffffffffffffffff167f8be0079c531659141344cd1fd0a4f28419497f9722a3daafe3b4186f6b6457e060405160405180910390a35050565b600033905090565b508054600082556005029060005260206000209081019061269b9190612728565b50565b828054828255906000526020600020908101928215612717579160200282015b828111156127165782518260006101000a81548173ffffffffffffffffffffffffffffffffffffffff021916908373ffffffffffffffffffffffffffffffffffffffff160217905550916020019190600101906126be565b5b50905061272491906127b9565b5090565b5b808211156127b5576000808201600090556001820160006101000a81549073ffffffffffffffffffffffffffffffffffffffff02191690556002820160006101000a81549073ffffffffffffffffffffffffffffffffffffffff021916905560038201600061279891906127d6565b6004820160006101000a81549060ff021916905550600501612729565b5090565b5b808211156127d25760008160009055506001016127ba565b5090565b50805460008255906000526020600020908101906127f491906127b9565b50565b6000604051905090565b600080fd5b600080fd5b600073ffffffffffffffffffffffffffffffffffffffff82169050919050565b60006128368261280b565b9050919050565b6128468161282b565b811461285157600080fd5b50565b6000813590506128638161283d565b92915050565b6000819050919050565b61287c81612869565b811461288757600080fd5b50565b60008135905061289981612873565b92915050565b600080600080608085870312156128b9576128b8612801565b5b60006128c787828801612854565b94505060206128d88782880161288a565b93505060406128e98782880161288a565b92505060606128fa8782880161288a565b91505092959194509250565b60008060006060848603121561291f5761291e612801565b5b600061292d86828701612854565b935050602061293e86828701612854565b925050604061294f8682870161288a565b9150509250925092565b6000806000806080858703121561297357612972612801565b5b600061298187828801612854565b945050602061299287828801612854565b93505060406129a38782880161288a565b92505060606129b48782880161288a565b91505092959194509250565b6129c98161282b565b82525050565b60006020820190506129e460008301846129c0565b92915050565b600080fd5b600080fd5b6000601f19601f8301169050919050565b7f4e487b7100000000000000000000000000000000000000000000000000000000600052604160045260246000fd5b612a3d826129f4565b810181811067ffffffffffffffff82111715612a5c57612a5b612a05565b5b80604052505050565b6000612a6f6127f7565b9050612a7b8282612a34565b919050565b600067ffffffffffffffff821115612a9b57612a9a612a05565b5b612aa4826129f4565b9050602081019050919050565b82818337600083830152505050565b6000612ad3612ace84612a80565b612a65565b905082815260208101848484011115612aef57612aee6129ef565b5b612afa848285612ab1565b509392505050565b600082601f830112612b1757612b166129ea565b5b8135612b27848260208601612ac0565b91505092915050565b600067ffffffffffffffff821115612b4b57612b4a612a05565b5b602082029050602081019050919050565b600080fd5b600080fd5b600080fd5b600067ffffffffffffffff821115612b8657612b85612a05565b5b602082029050602081019050919050565b6000612baa612ba584612b6b565b612a65565b90508083825260208201905060208402830185811115612bcd57612bcc612b5c565b5b835b81811015612bf65780612be28882612854565b845260208401935050602081019050612bcf565b5050509392505050565b600082601f830112612c1557612c146129ea565b5b8135612c25848260208601612b97565b91505092915050565b60008115159050919050565b612c4381612c2e565b8114612c4e57600080fd5b50565b600081359050612c6081612c3a565b92915050565b600060a08284031215612c7c57612c7b612b61565b5b612c8660a0612a65565b90506000612c968482850161288a565b6000830152506020612caa84828501612854565b6020830152506040612cbe84828501612854565b604083015250606082013567ffffffffffffffff811115612ce257612ce1612b66565b5b612cee84828501612c00565b6060830152506080612d0284828501612c51565b60808301525092915050565b6000612d21612d1c84612b30565b612a65565b90508083825260208201905060208402830185811115612d4457612d43612b5c565b5b835b81811015612d8b57803567ffffffffffffffff811115612d6957612d686129ea565b5b808601612d768982612c66565b85526020850194505050602081019050612d46565b5050509392505050565b600082601f830112612daa57612da96129ea565b5b8135612dba848260208601612d0e565b91505092915050565b600080600080600060a08688031215612ddf57612dde612801565b5b6000612ded88828901612854565b955050602086013567ffffffffffffffff811115612e0e57612e0d612806565b5b612e1a88828901612b02565b9450506040612e2b8882890161288a565b9350506060612e3c8882890161288a565b925050608086013567ffffffffffffffff811115612e5d57612e5c612806565b5b612e6988828901612d95565b9150509295509295909350565b60008060408385031215612e8d57612e8c612801565b5b6000612e9b8582860161288a565b9250506020612eac85828601612854565b9150509250929050565b612ebf81612869565b82525050565b6000602082019050612eda6000830184612eb6565b92915050565b612ee981612c2e565b82525050565b6000608082019050612f046000830187612eb6565b612f1160208301866129c0565b612f1e60408301856129c0565b612f2b6060830184612ee0565b95945050505050565b6000819050919050565b6000612f59612f54612f4f8461280b565b612f34565b61280b565b9050919050565b6000612f6b82612f3e565b9050919050565b6000612f7d82612f60565b9050919050565b612f8d81612f72565b82525050565b6000602082019050612fa86000830184612f84565b92915050565b600060208284031215612fc457612fc3612801565b5b6000612fd284828501612854565b91505092915050565b6000612fe682612f60565b9050919050565b612ff681612fdb565b82525050565b60006020820190506130116000830184612fed565b92915050565b600060608201905061302c60008301866129c0565b61303960208301856129c0565b6130466040830184612eb6565b949350505050565b60008151905061305d81612c3a565b92915050565b60006020828403121561307957613078612801565b5b60006130878482850161304e565b91505092915050565b600082825260208201905092915050565b7f536f7272792120596f752063616e277420636c61696d20746869732e2057652060008201527f77696c6c206d61696c20796f7520746f20636c61696d20746869732e00000000602082015250565b60006130fd603c83613090565b9150613108826130a1565b604082019050919050565b6000602082019050818103600083015261312c816130f0565b9050919050565b7f4e487b7100000000000000000000000000000000000000000000000000000000600052603260045260246000fd5b7f4e487b7100000000000000000000000000000000000000000000000000000000600052601160045260246000fd5b600061319c82612869565b91507fffffffffffffffffffffffffffffffffffffffffffffffffffffffffffffffff82036131ce576131cd613162565b5b600182019050919050565b7f4f6f70732120596f752063616e277420636c61696d207468697320726967687460008201527f206e6f772e2057652077696c6c20696e666f726d20796f75207768656e20796f60208201527f752063616e20636c61696d2074686520746f6b656e2e00000000000000000000604082015250565b600061325b605683613090565b9150613266826131d9565b606082019050919050565b6000602082019050818103600083015261328a8161324e565b9050919050565b60006060820190506132a66000830186612eb6565b6132b36020830185612eb6565b6132c06040830184612eb6565b949350505050565b60005b838110156132e65780820151818401526020810190506132cb565b60008484015250505050565b600061330561330084612a80565b612a65565b905082815260208101848484011115613321576133206129ef565b5b61332c8482856132c8565b509392505050565b600082601f830112613349576133486129ea565b5b81516133598482602086016132f2565b91505092915050565b6000815190506133718161283d565b92915050565b600061338a61338584612b6b565b612a65565b905080838252602082019050602084028301858111156133ad576133ac612b5c565b5b835b818110156133d657806133c28882613362565b8452602084019350506020810190506133af565b5050509392505050565b600082601f8301126133f5576133f46129ea565b5b8151613405848260208601613377565b91505092915050565b600067ffffffffffffffff82111561342957613428612a05565b5b602082029050602081019050919050565b60008151905061344981612873565b92915050565b600061346261345d8461340e565b612a65565b9050808382526020820190506020840283018581111561348557613484612b5c565b5b835b818110156134ae578061349a888261343a565b845260208401935050602081019050613487565b5050509392505050565b600082601f8301126134cd576134cc6129ea565b5b81516134dd84826020860161344f565b91505092915050565b60006101a082840312156134fd576134fc612b61565b5b6135086101a0612a65565b9050600082015167ffffffffffffffff81111561352857613527612b66565b5b61353484828501613334565b600083015250602082015167ffffffffffffffff81111561355857613557612b66565b5b61356484828501613334565b602083015250604082015167ffffffffffffffff81111561358857613587612b66565b5b61359484828501613334565b604083015250606082015167ffffffffffffffff8111156135b8576135b7612b66565b5b6135c484828501613334565b60608301525060806135d88482850161304e565b60808301525060a06135ec8482850161304e565b60a08301525060c06136008482850161304e565b60c08301525060e061361484828501613362565b60e08301525061010082015167ffffffffffffffff81111561363957613638612b66565b5b613645848285016133e0565b6101008301525061012082015167ffffffffffffffff81111561366b5761366a612b66565b5b613677848285016134b8565b6101208301525061014061368d8482850161343a565b610140830152506101606136a38482850161343a565b610160830152506101806136b98482850161343a565b6101808301525092915050565b6000602082840312156136dc576136db612801565b5b600082015167ffffffffffffffff8111156136fa576136f9612806565b5b613706848285016134e6565b91505092915050565b7f546865207265636f766572792061646472657373206f72206f776e657220616460008201527f647265737320697320696e636f72726563742100000000000000000000000000602082015250565b600061376b603383613090565b91506137768261370f565b604082019050919050565b6000602082019050818103600083015261379a8161375e565b9050919050565b7f596f75206d757374206669727374207369676e20757020666f7220616e20616360008201527f636f756e742e0000000000000000000000000000000000000000000000000000602082015250565b60006137fd602683613090565b9150613808826137a1565b604082019050919050565b6000602082019050818103600083015261382c816137f0565b9050919050565b7f596f757220656d61696c20686173206e6f7420796574206265656e2076616c6960008201527f64617465642e2056657269667920796f7572207265676973746572656420656d60208201527f61696c20616464726573732066697273742e0000000000000000000000000000604082015250565b60006138b5605283613090565b91506138c082613833565b606082019050919050565b600060208201905081810360008301526138e4816138a8565b9050919050565b60006020828403121561390157613900612801565b5b600082015167ffffffffffffffff81111561391f5761391e612806565b5b61392b848285016133e0565b91505092915050565b60006020828403121561394a57613949612801565b5b600082015167ffffffffffffffff81111561396857613967612806565b5b613974848285016134b8565b91505092915050565b7f436865636b207468617420616c6c20746865206e6f6d696e65657320796f752060008201527f617265206e6f6d696e6174696e6720617265206164646564206173206e6f6d6960208201527f6e6565732e000000000000000000000000000000000000000000000000000000604082015250565b60006139ff604583613090565b9150613a0a8261397d565b606082019050919050565b60006020820190508181036000830152613a2e816139f2565b9050919050565b600080600080600060a08688031215613a5157613a50612801565b5b6000613a5f8882890161343a565b9550506020613a7088828901613362565b945050604086015167ffffffffffffffff811115613a9157613a90612806565b5b613a9d88828901613334565b935050606086015167ffffffffffffffff811115613abe57613abd612806565b5b613aca88828901613334565b925050608086015167ffffffffffffffff811115613aeb57613aea612806565b5b613af788828901613334565b9150509295509295909350565b7f436865636b207468617420746865206368617269747920796f7520617265206e60008201527f6f6d696e6174696e67206973206c697374656420617320612077686974652d6c60208201527f697374656420636861726974792e000000000000000000000000000000000000604082015250565b6000613b86604e83613090565b9150613b9182613b04565b606082019050919050565b60006020820190508181036000830152613bb581613b79565b9050919050565b6000604082019050613bd160008301856129c0565b613bde60208301846129c0565b9392505050565b60008060008060008060c08789031215613c0257613c01612801565b5b6000613c1089828a01613362565b965050602087015167ffffffffffffffff811115613c3157613c30612806565b5b613c3d89828a01613334565b9550506040613c4e89828a0161343a565b9450506060613c5f89828a0161343a565b9350506080613c7089828a0161343a565b92505060a0613c8189828a0161304e565b9150509295509295509295565b6000613c9982612869565b9150613ca483612869565b9250828201905080821115613cbc57613cbb613162565b5b92915050565b7f4f6f70732120596f752063616e206f6e6c7920616c6c6f63617465206120313060008201527f30252073686172652e2054727920746f2072656475636520746865207368617260208201527f6520616d6f756e742e0000000000000000000000000000000000000000000000604082015250565b6000613d44604983613090565b9150613d4f82613cc2565b606082019050919050565b60006020820190508181036000830152613d7381613d37565b9050919050565b600081519050919050565b6000613d9082613d7a565b613d9a8185613090565b9350613daa8185602086016132c8565b613db3816129f4565b840191505092915050565b600060c082019050613dd360008301896129c0565b613de060208301886129c0565b8181036040830152613df28187613d85565b9050613e016060830186612eb6565b613e0e6080830185612eb6565b613e1b60a0830184612eb6565b979650505050505050565b600060208284031215613e3c57613e3b612801565b5b6000613e4a8482850161343a565b91505092915050565b7f54686520616c6c6f77616e636520746f2074686520636f6e747261637420697360008201527f206e6f7420656e6f756768210000000000000000000000000000000000000000602082015250565b6000613eaf602c83613090565b9150613eba82613e53565b604082019050919050565b60006020820190508181036000830152613ede81613ea2565b9050919050565b7f5468652063617465676f72792076616c7565206d757374206265203020666f7260008201527f20746f6b656e7320616e64203120666f72204e46542e00000000000000000000602082015250565b6000613f41603683613090565b9150613f4c82613ee5565b604082019050919050565b60006020820190508181036000830152613f7081613f34565b9050919050565b600060a082019050613f8c60008301886129c0565b613f9960208301876129c0565b613fa66040830186612eb6565b613fb36060830185612eb6565b613fc06080830184612eb6565b9695505050505050565b6000606082019050613fdf60008301866129c0565b613fec6020830185612eb6565b613ff96040830184612eb6565b949350505050565b600061400c82612869565b915061401783612869565b925082820261402581612869565b9150828204841483151761403c5761403b613162565b5b5092915050565b7f4e487b7100000000000000000000000000000000000000000000000000000000600052601260045260246000fd5b600061407d82612869565b915061408883612869565b92508261409857614097614043565b5b828204905092915050565b60006140ae82612869565b91506140b983612869565b92508282039050818111156140d1576140d0613162565b5b92915050565b60006040820190506140ec60008301856129c0565b6140f96020830184612eb6565b9392505050565b7f4f776e61626c653a206e6577206f776e657220697320746865207a65726f206160008201527f6464726573730000000000000000000000000000000000000000000000000000602082015250565b600061415c602683613090565b915061416782614100565b604082019050919050565b6000602082019050818103600083015261418b8161414f565b9050919050565b7f4f776e61626c653a2063616c6c6572206973206e6f7420746865206f776e6572600082015250565b60006141c8602083613090565b91506141d382614192565b602082019050919050565b600060208201905081810360008301526141f7816141bb565b905091905056fea264697066735822122060386ba75b89cbd64b3ab3f4f0d21824d9395cfcf914b4342192217665b01f4664736f6c63430008110033",
  "linkReferences": {},
  "deployedLinkReferences": {}
}