{
  "_format": "hh-sol-artifact-1",
  "contractName": "MultiplePriorityNominee",
  "sourceName": "contracts/MultiplePriorityNominee.sol",
  "abi": [
    {
      "inputs": [
        {
          "internalType": "address",
          "name": "_inheritokensAddress",
          "type": "address"
        }
      ],
      "stateMutability": "nonpayable",
      "type": "constructor"
    },
    {
      "anonymous": false,
      "inputs": [
        {
          "indexed": true,
          "internalType": "address",
          "name": "_owner",
          "type": "address"
        },
        {
          "indexed": false,
          "internalType": "address",
          "name": "_tokenAddress",
          "type": "address"
        },
        {
          "indexed": false,
          "internalType": "uint256",
          "name": "_tokenId",
          "type": "uint256"
        }
      ],
      "name": "TokensAssigned",
      "type": "event"
    },
    {
      "inputs": [
        {
          "internalType": "address",
          "name": "_tokenAddress",
          "type": "address"
        },
        {
          "internalType": "string",
          "name": "_tokenName",
          "type": "string"
        },
        {
          "internalType": "uint256",
          "name": "_category",
          "type": "uint256"
        },
        {
          "internalType": "uint256",
          "name": "_tokenId",
          "type": "uint256"
        },
        {
          "components": [
            {
              "internalType": "uint256",
              "name": "share",
              "type": "uint256"
            },
            {
              "internalType": "address[]",
              "name": "nominee",
              "type": "address[]"
            },
            {
              "internalType": "bool[]",
              "name": "isNotAvailable",
              "type": "bool[]"
            },
            {
              "internalType": "bool[]",
              "name": "isClaimed",
              "type": "bool[]"
            }
          ],
          "internalType": "struct MultiplePriorityNominee.MultiplePriority[]",
          "name": "data",
          "type": "tuple[]"
        }
      ],
      "name": "assignTokensToMultipleNominees",
      "outputs": [],
      "stateMutability": "nonpayable",
      "type": "function"
    },
    {
      "inputs": [
        {
          "internalType": "address",
          "name": "_owner",
          "type": "address"
        },
        {
          "internalType": "address",
          "name": "_tokenAddress",
          "type": "address"
        },
        {
          "internalType": "uint256",
          "name": "_tokenId",
          "type": "uint256"
        },
        {
          "internalType": "uint256",
          "name": "_category",
          "type": "uint256"
        }
      ],
      "name": "getAllStructs",
      "outputs": [
        {
          "components": [
            {
              "internalType": "uint256",
              "name": "share",
              "type": "uint256"
            },
            {
              "internalType": "address[]",
              "name": "nominee",
              "type": "address[]"
            },
            {
              "internalType": "bool[]",
              "name": "isNotAvailable",
              "type": "bool[]"
            },
            {
              "internalType": "bool[]",
              "name": "isClaimed",
              "type": "bool[]"
            }
          ],
          "internalType": "struct MultiplePriorityNominee.MultiplePriority[]",
          "name": "",
          "type": "tuple[]"
        }
      ],
      "stateMutability": "view",
      "type": "function"
    },
    {
      "inputs": [],
      "name": "inheritokens",
      "outputs": [
        {
          "internalType": "contract Inheritokens",
          "name": "",
          "type": "address"
        }
      ],
      "stateMutability": "view",
      "type": "function"
    },
    {
      "inputs": [],
      "name": "inheritokensAddress",
      "outputs": [
        {
          "internalType": "address",
          "name": "",
          "type": "address"
        }
      ],
      "stateMutability": "view",
      "type": "function"
    },
    {
      "inputs": [
        {
          "internalType": "address",
          "name": "",
          "type": "address"
        },
        {
          "internalType": "address",
          "name": "",
          "type": "address"
        },
        {
          "internalType": "uint256",
          "name": "",
          "type": "uint256"
        },
        {
          "internalType": "uint256",
          "name": "",
          "type": "uint256"
        }
      ],
      "name": "ownerToNFTToStruct",
      "outputs": [
        {
          "internalType": "uint256",
          "name": "share",
          "type": "uint256"
        }
      ],
      "stateMutability": "view",
      "type": "function"
    },
    {
      "inputs": [
        {
          "internalType": "address",
          "name": "",
          "type": "address"
        },
        {
          "internalType": "address",
          "name": "",
          "type": "address"
        },
        {
          "internalType": "uint256",
          "name": "",
          "type": "uint256"
        }
      ],
      "name": "ownerToTokenToStruct",
      "outputs": [
        {
          "internalType": "uint256",
          "name": "share",
          "type": "uint256"
        }
      ],
      "stateMutability": "view",
      "type": "function"
    }
  ],
  "bytecode": "0x60806040523480156200001157600080fd5b506040516200217e3803806200217e833981810160405281019062000037919062000149565b806000806101000a81548173ffffffffffffffffffffffffffffffffffffffff021916908373ffffffffffffffffffffffffffffffffffffffff16021790555060008054906101000a900473ffffffffffffffffffffffffffffffffffffffff16600160006101000a81548173ffffffffffffffffffffffffffffffffffffffff021916908373ffffffffffffffffffffffffffffffffffffffff160217905550506200017b565b600080fd5b600073ffffffffffffffffffffffffffffffffffffffff82169050919050565b60006200011182620000e4565b9050919050565b620001238162000104565b81146200012f57600080fd5b50565b600081519050620001438162000118565b92915050565b600060208284031215620001625762000161620000df565b5b6000620001728482850162000132565b91505092915050565b611ff3806200018b6000396000f3fe608060405234801561001057600080fd5b50600436106100625760003560e01c8063397e2f1a1461006757806346f17152146100835780635cdb4ce4146100a1578063a64ad61f146100d1578063be27c3fe14610101578063bea7d6ac1461011f575b600080fd5b610081600480360381019061007c9190611678565b61014f565b005b61008b61092b565b604051610098919061173a565b60405180910390f35b6100bb60048036038101906100b69190611755565b61094f565b6040516100c89190611a7a565b60405180910390f35b6100eb60048036038101906100e69190611755565b610e44565b6040516100f89190611aab565b60405180910390f35b610109610e99565b6040516101169190611b25565b60405180910390f35b61013960048036038101906101349190611b40565b610ebf565b6040516101469190611aab565b60405180910390f35b6000600160009054906101000a900473ffffffffffffffffffffffffffffffffffffffff1673ffffffffffffffffffffffffffffffffffffffff1663de508c5b33886040518363ffffffff1660e01b81526004016101ae929190611b93565b600060405180830381865afa1580156101cb573d6000803e3d6000fd5b505050506040513d6000823e3d601f19601f820116820180604052508101906101f49190611c95565b909192939450909192935090919250909150905080915050600080600090505b835181101561025c578381815181106102305761022f611d3e565b5b602002602001015160000151826102479190611d9c565b9150808061025490611dd0565b915050610214565b5060648111156102a1576040517f08c379a000000000000000000000000000000000000000000000000000000000815260040161029890611e75565b60405180910390fd5b8161033e57600160009054906101000a900473ffffffffffffffffffffffffffffffffffffffff1673ffffffffffffffffffffffffffffffffffffffff166325cb763a33898989868a6040518763ffffffff1660e01b815260040161030b96959493929190611ed9565b600060405180830381600087803b15801561032557600080fd5b505af1158015610339573d6000803e3d6000fd5b505050505b600080860361046057600260003373ffffffffffffffffffffffffffffffffffffffff1673ffffffffffffffffffffffffffffffffffffffff16815260200190815260200160002060008973ffffffffffffffffffffffffffffffffffffffff1673ffffffffffffffffffffffffffffffffffffffff168152602001908152602001600020805490509050600081111561045b57600260003373ffffffffffffffffffffffffffffffffffffffff1673ffffffffffffffffffffffffffffffffffffffff16815260200190815260200160002060008973ffffffffffffffffffffffffffffffffffffffff1673ffffffffffffffffffffffffffffffffffffffff168152602001908152602001600020600061045a9190610f07565b5b610597565b600360003373ffffffffffffffffffffffffffffffffffffffff1673ffffffffffffffffffffffffffffffffffffffff16815260200190815260200160002060008973ffffffffffffffffffffffffffffffffffffffff1673ffffffffffffffffffffffffffffffffffffffff1681526020019081526020016000206000868152602001908152602001600020805490509050600081111561059657600360003373ffffffffffffffffffffffffffffffffffffffff1673ffffffffffffffffffffffffffffffffffffffff16815260200190815260200160002060008973ffffffffffffffffffffffffffffffffffffffff1673ffffffffffffffffffffffffffffffffffffffff168152602001908152602001600020600086815260200190815260200160002060006105959190610f07565b5b5b600160009054906101000a900473ffffffffffffffffffffffffffffffffffffffff1673ffffffffffffffffffffffffffffffffffffffff1663b69bd77f338a88868b6040518663ffffffff1660e01b81526004016105fa959493929190611f41565b600060405180830381600087803b15801561061457600080fd5b505af1158015610628573d6000803e3d6000fd5b505050506000860361077c5760005b845181101561077657600260003373ffffffffffffffffffffffffffffffffffffffff1673ffffffffffffffffffffffffffffffffffffffff16815260200190815260200160002060008a73ffffffffffffffffffffffffffffffffffffffff1673ffffffffffffffffffffffffffffffffffffffff1681526020019081526020016000208582815181106106cf576106ce611d3e565b5b60200260200101519080600181540180825580915050600190039060005260206000209060040201600090919091909150600082015181600001556020820151816001019080519060200190610726929190610f2b565b506040820151816002019080519060200190610743929190610fb5565b506060820151816003019080519060200190610760929190610fb5565b505050808061076e90611dd0565b915050610637565b506108d1565b60005b84518110156108cf57600360003373ffffffffffffffffffffffffffffffffffffffff1673ffffffffffffffffffffffffffffffffffffffff16815260200190815260200160002060008a73ffffffffffffffffffffffffffffffffffffffff1673ffffffffffffffffffffffffffffffffffffffff168152602001908152602001600020600087815260200190815260200160002085828151811061082857610827611d3e565b5b6020026020010151908060018154018082558091505060019003906000526020600020906004020160009091909190915060008201518160000155602082015181600101908051906020019061087f929190610f2b565b50604082015181600201908051906020019061089c929190610fb5565b5060608201518160030190805190602001906108b9929190610fb5565b50505080806108c790611dd0565b91505061077f565b505b3373ffffffffffffffffffffffffffffffffffffffff167f82a2341a42c146a8b1818f7e04fe56be41f008d10c140cf4fe8b4ef801628ea18987604051610919929190611f94565b60405180910390a25050505050505050565b60008054906101000a900473ffffffffffffffffffffffffffffffffffffffff1681565b606060008203610bc457600260008673ffffffffffffffffffffffffffffffffffffffff1673ffffffffffffffffffffffffffffffffffffffff16815260200190815260200160002060008573ffffffffffffffffffffffffffffffffffffffff1673ffffffffffffffffffffffffffffffffffffffff168152602001908152602001600020805480602002602001604051908101604052809291908181526020016000905b82821015610bb957838290600052602060002090600402016040518060800160405290816000820154815260200160018201805480602002602001604051908101604052809291908181526020018280548015610aa757602002820191906000526020600020905b8160009054906101000a900473ffffffffffffffffffffffffffffffffffffffff1673ffffffffffffffffffffffffffffffffffffffff1681526020019060010190808311610a5d575b5050505050815260200160028201805480602002602001604051908101604052809291908181526020018280548015610b2457602002820191906000526020600020906000905b82829054906101000a900460ff16151581526020019060010190602082600001049283019260010382029150808411610aee5790505b5050505050815260200160038201805480602002602001604051908101604052809291908181526020018280548015610ba157602002820191906000526020600020906000905b82829054906101000a900460ff16151581526020019060010190602082600001049283019260010382029150808411610b6b5790505b505050505081525050815260200190600101906109f5565b505050509050610e3c565b600360008673ffffffffffffffffffffffffffffffffffffffff1673ffffffffffffffffffffffffffffffffffffffff16815260200190815260200160002060008573ffffffffffffffffffffffffffffffffffffffff1673ffffffffffffffffffffffffffffffffffffffff1681526020019081526020016000206000848152602001908152602001600020805480602002602001604051908101604052809291908181526020016000905b82821015610e3557838290600052602060002090600402016040518060800160405290816000820154815260200160018201805480602002602001604051908101604052809291908181526020018280548015610d2357602002820191906000526020600020905b8160009054906101000a900473ffffffffffffffffffffffffffffffffffffffff1673ffffffffffffffffffffffffffffffffffffffff1681526020019060010190808311610cd9575b5050505050815260200160028201805480602002602001604051908101604052809291908181526020018280548015610da057602002820191906000526020600020906000905b82829054906101000a900460ff16151581526020019060010190602082600001049283019260010382029150808411610d6a5790505b5050505050815260200160038201805480602002602001604051908101604052809291908181526020018280548015610e1d57602002820191906000526020600020906000905b82829054906101000a900460ff16151581526020019060010190602082600001049283019260010382029150808411610de75790505b50505050508152505081526020019060010190610c71565b5050505090505b949350505050565b60036020528360005260406000206020528260005260406000206020528160005260406000208181548110610e7857600080fd5b90600052602060002090600402016000935093505050508060000154905081565b600160009054906101000a900473ffffffffffffffffffffffffffffffffffffffff1681565b60026020528260005260406000206020528160005260406000208181548110610ee757600080fd5b906000526020600020906004020160009250925050508060000154905081565b5080546000825560040290600052602060002090810190610f28919061105b565b50565b828054828255906000526020600020908101928215610fa4579160200282015b82811115610fa35782518260006101000a81548173ffffffffffffffffffffffffffffffffffffffff021916908373ffffffffffffffffffffffffffffffffffffffff16021790555091602001919060010190610f4b565b5b509050610fb191906110aa565b5090565b82805482825590600052602060002090601f0160209004810192821561104a5791602002820160005b8382111561101b57835183826101000a81548160ff0219169083151502179055509260200192600101602081600001049283019260010302610fde565b80156110485782816101000a81549060ff021916905560010160208160000104928301926001030261101b565b505b50905061105791906110aa565b5090565b5b808211156110a65760008082016000905560018201600061107d91906110c7565b60028201600061108d91906110e8565b60038201600061109d91906110e8565b5060040161105c565b5090565b5b808211156110c35760008160009055506001016110ab565b5090565b50805460008255906000526020600020908101906110e591906110aa565b50565b50805460008255601f01602090049060005260206000209081019061110d91906110aa565b50565b6000604051905090565b600080fd5b600080fd5b600073ffffffffffffffffffffffffffffffffffffffff82169050919050565b600061114f82611124565b9050919050565b61115f81611144565b811461116a57600080fd5b50565b60008135905061117c81611156565b92915050565b600080fd5b600080fd5b6000601f19601f8301169050919050565b7f4e487b7100000000000000000000000000000000000000000000000000000000600052604160045260246000fd5b6111d58261118c565b810181811067ffffffffffffffff821117156111f4576111f361119d565b5b80604052505050565b6000611207611110565b905061121382826111cc565b919050565b600067ffffffffffffffff8211156112335761123261119d565b5b61123c8261118c565b9050602081019050919050565b82818337600083830152505050565b600061126b61126684611218565b6111fd565b90508281526020810184848401111561128757611286611187565b5b611292848285611249565b509392505050565b600082601f8301126112af576112ae611182565b5b81356112bf848260208601611258565b91505092915050565b6000819050919050565b6112db816112c8565b81146112e657600080fd5b50565b6000813590506112f8816112d2565b92915050565b600067ffffffffffffffff8211156113195761131861119d565b5b602082029050602081019050919050565b600080fd5b600080fd5b600080fd5b600067ffffffffffffffff8211156113545761135361119d565b5b602082029050602081019050919050565b600061137861137384611339565b6111fd565b9050808382526020820190506020840283018581111561139b5761139a61132a565b5b835b818110156113c457806113b0888261116d565b84526020840193505060208101905061139d565b5050509392505050565b600082601f8301126113e3576113e2611182565b5b81356113f3848260208601611365565b91505092915050565b600067ffffffffffffffff8211156114175761141661119d565b5b602082029050602081019050919050565b60008115159050919050565b61143d81611428565b811461144857600080fd5b50565b60008135905061145a81611434565b92915050565b600061147361146e846113fc565b6111fd565b905080838252602082019050602084028301858111156114965761149561132a565b5b835b818110156114bf57806114ab888261144b565b845260208401935050602081019050611498565b5050509392505050565b600082601f8301126114de576114dd611182565b5b81356114ee848260208601611460565b91505092915050565b60006080828403121561150d5761150c61132f565b5b61151760806111fd565b90506000611527848285016112e9565b600083015250602082013567ffffffffffffffff81111561154b5761154a611334565b5b611557848285016113ce565b602083015250604082013567ffffffffffffffff81111561157b5761157a611334565b5b611587848285016114c9565b604083015250606082013567ffffffffffffffff8111156115ab576115aa611334565b5b6115b7848285016114c9565b60608301525092915050565b60006115d66115d1846112fe565b6111fd565b905080838252602082019050602084028301858111156115f9576115f861132a565b5b835b8181101561164057803567ffffffffffffffff81111561161e5761161d611182565b5b80860161162b89826114f7565b855260208501945050506020810190506115fb565b5050509392505050565b600082601f83011261165f5761165e611182565b5b813561166f8482602086016115c3565b91505092915050565b600080600080600060a086880312156116945761169361111a565b5b60006116a28882890161116d565b955050602086013567ffffffffffffffff8111156116c3576116c261111f565b5b6116cf8882890161129a565b94505060406116e0888289016112e9565b93505060606116f1888289016112e9565b925050608086013567ffffffffffffffff8111156117125761171161111f565b5b61171e8882890161164a565b9150509295509295909350565b61173481611144565b82525050565b600060208201905061174f600083018461172b565b92915050565b6000806000806080858703121561176f5761176e61111a565b5b600061177d8782880161116d565b945050602061178e8782880161116d565b935050604061179f878288016112e9565b92505060606117b0878288016112e9565b91505092959194509250565b600081519050919050565b600082825260208201905092915050565b6000819050602082019050919050565b6117f1816112c8565b82525050565b600081519050919050565b600082825260208201905092915050565b6000819050602082019050919050565b61182c81611144565b82525050565b600061183e8383611823565b60208301905092915050565b6000602082019050919050565b6000611862826117f7565b61186c8185611802565b935061187783611813565b8060005b838110156118a857815161188f8882611832565b975061189a8361184a565b92505060018101905061187b565b5085935050505092915050565b600081519050919050565b600082825260208201905092915050565b6000819050602082019050919050565b6118ea81611428565b82525050565b60006118fc83836118e1565b60208301905092915050565b6000602082019050919050565b6000611920826118b5565b61192a81856118c0565b9350611935836118d1565b8060005b8381101561196657815161194d88826118f0565b975061195883611908565b925050600181019050611939565b5085935050505092915050565b600060808301600083015161198b60008601826117e8565b50602083015184820360208601526119a38282611857565b915050604083015184820360408601526119bd8282611915565b915050606083015184820360608601526119d78282611915565b9150508091505092915050565b60006119f08383611973565b905092915050565b6000602082019050919050565b6000611a10826117bc565b611a1a81856117c7565b935083602082028501611a2c856117d8565b8060005b85811015611a685784840389528151611a4985826119e4565b9450611a54836119f8565b925060208a01995050600181019050611a30565b50829750879550505050505092915050565b60006020820190508181036000830152611a948184611a05565b905092915050565b611aa5816112c8565b82525050565b6000602082019050611ac06000830184611a9c565b92915050565b6000819050919050565b6000611aeb611ae6611ae184611124565b611ac6565b611124565b9050919050565b6000611afd82611ad0565b9050919050565b6000611b0f82611af2565b9050919050565b611b1f81611b04565b82525050565b6000602082019050611b3a6000830184611b16565b92915050565b600080600060608486031215611b5957611b5861111a565b5b6000611b678682870161116d565b9350506020611b788682870161116d565b9250506040611b89868287016112e9565b9150509250925092565b6000604082019050611ba8600083018561172b565b611bb5602083018461172b565b9392505050565b600081519050611bcb81611156565b92915050565b60005b83811015611bef578082015181840152602081019050611bd4565b60008484015250505050565b6000611c0e611c0984611218565b6111fd565b905082815260208101848484011115611c2a57611c29611187565b5b611c35848285611bd1565b509392505050565b600082601f830112611c5257611c51611182565b5b8151611c62848260208601611bfb565b91505092915050565b600081519050611c7a816112d2565b92915050565b600081519050611c8f81611434565b92915050565b60008060008060008060c08789031215611cb257611cb161111a565b5b6000611cc089828a01611bbc565b965050602087015167ffffffffffffffff811115611ce157611ce061111f565b5b611ced89828a01611c3d565b9550506040611cfe89828a01611c6b565b9450506060611d0f89828a01611c6b565b9350506080611d2089828a01611c6b565b92505060a0611d3189828a01611c80565b9150509295509295509295565b7f4e487b7100000000000000000000000000000000000000000000000000000000600052603260045260246000fd5b7f4e487b7100000000000000000000000000000000000000000000000000000000600052601160045260246000fd5b6000611da7826112c8565b9150611db2836112c8565b9250828201905080821115611dca57611dc9611d6d565b5b92915050565b6000611ddb826112c8565b91507fffffffffffffffffffffffffffffffffffffffffffffffffffffffffffffffff8203611e0d57611e0c611d6d565b5b600182019050919050565b600082825260208201905092915050565b7f5265647563652074686520736861726520616d6f756e742e2e2e000000000000600082015250565b6000611e5f601a83611e18565b9150611e6a82611e29565b602082019050919050565b60006020820190508181036000830152611e8e81611e52565b9050919050565b600081519050919050565b6000611eab82611e95565b611eb58185611e18565b9350611ec5818560208601611bd1565b611ece8161118c565b840191505092915050565b600060c082019050611eee600083018961172b565b611efb602083018861172b565b8181036040830152611f0d8187611ea0565b9050611f1c6060830186611a9c565b611f296080830185611a9c565b611f3660a0830184611a9c565b979650505050505050565b600060a082019050611f56600083018861172b565b611f63602083018761172b565b611f706040830186611a9c565b611f7d6060830185611a9c565b611f8a6080830184611a9c565b9695505050505050565b6000604082019050611fa9600083018561172b565b611fb66020830184611a9c565b939250505056fea26469706673582212206c37ed6c8606f5b6bcb41329e57e3eb6b77db4f9fde65d0a3c0479d107da2df464736f6c63430008110033",
  "linkReferences": {},
  "deployedLinkReferences": {}
}