{
  "_format": "hh-sol-artifact-1",
  "contractName": "MultiplePriorityNominee",
  "sourceName": "contracts/MultiplePriorityNominee.sol",
  "abi": [
    {
      "inputs": [
        {
          "internalType": "address",
          "name": "_inheritokensAddress",
          "type": "address"
        }
      ],
      "stateMutability": "nonpayable",
      "type": "constructor"
    },
    {
      "anonymous": false,
      "inputs": [
        {
          "indexed": true,
          "internalType": "address",
          "name": "_owner",
          "type": "address"
        },
        {
          "indexed": true,
          "internalType": "address",
          "name": "_nominee",
          "type": "address"
        },
        {
          "indexed": true,
          "internalType": "address",
          "name": "_tokenAddress",
          "type": "address"
        },
        {
          "indexed": false,
          "internalType": "uint256",
          "name": "_tokenId",
          "type": "uint256"
        }
      ],
      "name": "Claimed",
      "type": "event"
    },
    {
      "anonymous": false,
      "inputs": [
        {
          "indexed": true,
          "internalType": "address",
          "name": "previousOwner",
          "type": "address"
        },
        {
          "indexed": true,
          "internalType": "address",
          "name": "newOwner",
          "type": "address"
        }
      ],
      "name": "OwnershipTransferred",
      "type": "event"
    },
    {
      "anonymous": false,
      "inputs": [
        {
          "indexed": true,
          "internalType": "address",
          "name": "_owner",
          "type": "address"
        },
        {
          "indexed": false,
          "internalType": "address",
          "name": "_tokenAddress",
          "type": "address"
        },
        {
          "indexed": false,
          "internalType": "uint256",
          "name": "_tokenId",
          "type": "uint256"
        }
      ],
      "name": "TokensAssigned",
      "type": "event"
    },
    {
      "inputs": [
        {
          "internalType": "address",
          "name": "_tokenAddress",
          "type": "address"
        },
        {
          "internalType": "string",
          "name": "_tokenName",
          "type": "string"
        },
        {
          "internalType": "uint256",
          "name": "_category",
          "type": "uint256"
        },
        {
          "internalType": "uint256",
          "name": "_tokenId",
          "type": "uint256"
        },
        {
          "components": [
            {
              "internalType": "uint256",
              "name": "share",
              "type": "uint256"
            },
            {
              "internalType": "address[]",
              "name": "nominee",
              "type": "address[]"
            },
            {
              "internalType": "bool[]",
              "name": "isNotAvailable",
              "type": "bool[]"
            },
            {
              "internalType": "bool[]",
              "name": "isClaimed",
              "type": "bool[]"
            }
          ],
          "internalType": "struct MultiplePriorityNominee.MultiplePriority[]",
          "name": "data",
          "type": "tuple[]"
        }
      ],
      "name": "assignTokensToMultipleNominees",
      "outputs": [],
      "stateMutability": "nonpayable",
      "type": "function"
    },
    {
      "inputs": [
        {
          "internalType": "address",
          "name": "_tokenAddress",
          "type": "address"
        }
      ],
      "name": "changeChargeTokenAddress",
      "outputs": [],
      "stateMutability": "nonpayable",
      "type": "function"
    },
    {
      "inputs": [
        {
          "internalType": "uint256",
          "name": "_charge",
          "type": "uint256"
        }
      ],
      "name": "changeNFTCharge",
      "outputs": [],
      "stateMutability": "nonpayable",
      "type": "function"
    },
    {
      "inputs": [
        {
          "internalType": "uint256",
          "name": "_percentage",
          "type": "uint256"
        }
      ],
      "name": "changePercentage",
      "outputs": [],
      "stateMutability": "nonpayable",
      "type": "function"
    },
    {
      "inputs": [
        {
          "internalType": "uint256",
          "name": "_charge",
          "type": "uint256"
        }
      ],
      "name": "changeTokenCharge",
      "outputs": [],
      "stateMutability": "nonpayable",
      "type": "function"
    },
    {
      "inputs": [
        {
          "internalType": "address",
          "name": "_owner",
          "type": "address"
        },
        {
          "internalType": "address",
          "name": "_tokenAddress",
          "type": "address"
        },
        {
          "internalType": "uint256",
          "name": "_amount",
          "type": "uint256"
        },
        {
          "internalType": "uint256",
          "name": "_tokenId",
          "type": "uint256"
        },
        {
          "internalType": "uint256",
          "name": "_category",
          "type": "uint256"
        }
      ],
      "name": "claim",
      "outputs": [],
      "stateMutability": "nonpayable",
      "type": "function"
    },
    {
      "inputs": [
        {
          "internalType": "address",
          "name": "_owner",
          "type": "address"
        },
        {
          "internalType": "address",
          "name": "_tokenAddress",
          "type": "address"
        },
        {
          "internalType": "uint256",
          "name": "_tokenId",
          "type": "uint256"
        },
        {
          "internalType": "uint256",
          "name": "_category",
          "type": "uint256"
        }
      ],
      "name": "getAllStructs",
      "outputs": [
        {
          "components": [
            {
              "internalType": "uint256",
              "name": "share",
              "type": "uint256"
            },
            {
              "internalType": "address[]",
              "name": "nominee",
              "type": "address[]"
            },
            {
              "internalType": "bool[]",
              "name": "isNotAvailable",
              "type": "bool[]"
            },
            {
              "internalType": "bool[]",
              "name": "isClaimed",
              "type": "bool[]"
            }
          ],
          "internalType": "struct MultiplePriorityNominee.MultiplePriority[]",
          "name": "",
          "type": "tuple[]"
        }
      ],
      "stateMutability": "view",
      "type": "function"
    },
    {
      "inputs": [],
      "name": "getValues",
      "outputs": [
        {
          "internalType": "address",
          "name": "",
          "type": "address"
        },
        {
          "internalType": "uint256",
          "name": "",
          "type": "uint256"
        },
        {
          "internalType": "uint256",
          "name": "",
          "type": "uint256"
        },
        {
          "internalType": "uint256",
          "name": "",
          "type": "uint256"
        }
      ],
      "stateMutability": "view",
      "type": "function"
    },
    {
      "inputs": [],
      "name": "inheritokens",
      "outputs": [
        {
          "internalType": "contract Inheritokens",
          "name": "",
          "type": "address"
        }
      ],
      "stateMutability": "view",
      "type": "function"
    },
    {
      "inputs": [],
      "name": "inheritokensAddress",
      "outputs": [
        {
          "internalType": "address",
          "name": "",
          "type": "address"
        }
      ],
      "stateMutability": "view",
      "type": "function"
    },
    {
      "inputs": [],
      "name": "owner",
      "outputs": [
        {
          "internalType": "address",
          "name": "",
          "type": "address"
        }
      ],
      "stateMutability": "view",
      "type": "function"
    },
    {
      "inputs": [
        {
          "internalType": "address",
          "name": "",
          "type": "address"
        },
        {
          "internalType": "address",
          "name": "",
          "type": "address"
        },
        {
          "internalType": "uint256",
          "name": "",
          "type": "uint256"
        },
        {
          "internalType": "uint256",
          "name": "",
          "type": "uint256"
        }
      ],
      "name": "ownerToNFTToStruct",
      "outputs": [
        {
          "internalType": "uint256",
          "name": "share",
          "type": "uint256"
        }
      ],
      "stateMutability": "view",
      "type": "function"
    },
    {
      "inputs": [
        {
          "internalType": "address",
          "name": "",
          "type": "address"
        },
        {
          "internalType": "address",
          "name": "",
          "type": "address"
        },
        {
          "internalType": "uint256",
          "name": "",
          "type": "uint256"
        }
      ],
      "name": "ownerToTokenToStruct",
      "outputs": [
        {
          "internalType": "uint256",
          "name": "share",
          "type": "uint256"
        }
      ],
      "stateMutability": "view",
      "type": "function"
    },
    {
      "inputs": [],
      "name": "renounceOwnership",
      "outputs": [],
      "stateMutability": "nonpayable",
      "type": "function"
    },
    {
      "inputs": [
        {
          "internalType": "address",
          "name": "newOwner",
          "type": "address"
        }
      ],
      "name": "transferOwnership",
      "outputs": [],
      "stateMutability": "nonpayable",
      "type": "function"
    },
    {
      "inputs": [
        {
          "internalType": "uint256",
          "name": "_amount",
          "type": "uint256"
        },
        {
          "internalType": "address",
          "name": "_tokenAddress",
          "type": "address"
        }
      ],
      "name": "withdrawFromContract",
      "outputs": [],
      "stateMutability": "payable",
      "type": "function"
    }
  ],
  "bytecode": "0x6080604052620f4240600355624c4b4060045561271060016200002391906200027e565b60055573e9dce89b076ba6107bb64ef30678efec11939234600660006101000a81548173ffffffffffffffffffffffffffffffffffffffff021916908373ffffffffffffffffffffffffffffffffffffffff1602179055503480156200008857600080fd5b5060405162003f1238038062003f128339818101604052810190620000ae919062000320565b620000ce620000c26200017960201b60201c565b6200018160201b60201c565b80600160006101000a81548173ffffffffffffffffffffffffffffffffffffffff021916908373ffffffffffffffffffffffffffffffffffffffff160217905550600160009054906101000a900473ffffffffffffffffffffffffffffffffffffffff16600260006101000a81548173ffffffffffffffffffffffffffffffffffffffff021916908373ffffffffffffffffffffffffffffffffffffffff1602179055505062000352565b600033905090565b60008060009054906101000a900473ffffffffffffffffffffffffffffffffffffffff169050816000806101000a81548173ffffffffffffffffffffffffffffffffffffffff021916908373ffffffffffffffffffffffffffffffffffffffff1602179055508173ffffffffffffffffffffffffffffffffffffffff168173ffffffffffffffffffffffffffffffffffffffff167f8be0079c531659141344cd1fd0a4f28419497f9722a3daafe3b4186f6b6457e060405160405180910390a35050565b6000819050919050565b7f4e487b7100000000000000000000000000000000000000000000000000000000600052601260045260246000fd5b60006200028b8262000245565b9150620002988362000245565b925082620002ab57620002aa6200024f565b5b828204905092915050565b600080fd5b600073ffffffffffffffffffffffffffffffffffffffff82169050919050565b6000620002e882620002bb565b9050919050565b620002fa81620002db565b81146200030657600080fd5b50565b6000815190506200031a81620002ef565b92915050565b600060208284031215620003395762000338620002b6565b5b6000620003498482850162000309565b91505092915050565b613bb080620003626000396000f3fe6080604052600436106100f35760003560e01c80638df613251161008a578063be27c3fe11610059578063be27c3fe146102f6578063bea7d6ac14610321578063d41ab7b51461035e578063f2fde38b14610387576100f3565b80638df613251461024b5780639605f505146102745780639b785daa14610290578063a64ad61f146102b9576100f3565b80635128eeef116100c65780635128eeef146101a35780635cdb4ce4146101cc578063715018a6146102095780638da5cb5b14610220576100f3565b806319eb4a90146100f8578063397e2f1a146101265780633c8249191461014f57806346f1715214610178575b600080fd5b34801561010457600080fd5b5061010d6103b0565b60405161011d94939291906126b9565b60405180910390f35b34801561013257600080fd5b5061014d60048036038101906101489190612c2a565b6103f0565b005b34801561015b57600080fd5b5061017660048036038101906101719190612cdd565b61111c565b005b34801561018457600080fd5b5061018d611b6f565b60405161019a9190612d58565b60405180910390f35b3480156101af57600080fd5b506101ca60048036038101906101c59190612d73565b611b95565b005b3480156101d857600080fd5b506101f360048036038101906101ee9190612da0565b611b9f565b60405161020091906130c5565b60405180910390f35b34801561021557600080fd5b5061021e612094565b005b34801561022c57600080fd5b506102356120a8565b6040516102429190612d58565b60405180910390f35b34801561025757600080fd5b50610272600480360381019061026d9190612d73565b6120d1565b005b61028e600480360381019061028991906130e7565b6120db565b005b34801561029c57600080fd5b506102b760048036038101906102b29190613127565b61216c565b005b3480156102c557600080fd5b506102e060048036038101906102db9190612da0565b6121b0565b6040516102ed9190613154565b60405180910390f35b34801561030257600080fd5b5061030b612205565b60405161031891906131ce565b60405180910390f35b34801561032d57600080fd5b50610348600480360381019061034391906131e9565b61222b565b6040516103559190613154565b60405180910390f35b34801561036a57600080fd5b5061038560048036038101906103809190612d73565b612273565b005b34801561039357600080fd5b506103ae60048036038101906103a99190613127565b612289565b005b600080600080600660009054906101000a900473ffffffffffffffffffffffffffffffffffffffff16600354600454600554935093509350935090919293565b6000600260009054906101000a900473ffffffffffffffffffffffffffffffffffffffff1673ffffffffffffffffffffffffffffffffffffffff16630f1f8c05336040518263ffffffff1660e01b815260040161044d9190612d58565b602060405180830381865afa15801561046a573d6000803e3d6000fd5b505050506040513d601f19601f8201168201806040525081019061048e9190613251565b90506000600260009054906101000a900473ffffffffffffffffffffffffffffffffffffffff1673ffffffffffffffffffffffffffffffffffffffff166315b79630336040518263ffffffff1660e01b81526004016104ed9190612d58565b602060405180830381865afa15801561050a573d6000803e3d6000fd5b505050506040513d601f19601f8201168201806040525081019061052e9190613251565b905081610570576040517f08c379a0000000000000000000000000000000000000000000000000000000008152600401610567906132db565b60405180910390fd5b806105b0576040517f08c379a00000000000000000000000000000000000000000000000000000000081526004016105a790613347565b60405180910390fd5b6000600260009054906101000a900473ffffffffffffffffffffffffffffffffffffffff1673ffffffffffffffffffffffffffffffffffffffff166320e4ab6a336040518263ffffffff1660e01b815260040161060d9190612d58565b600060405180830381865afa15801561062a573d6000803e3d6000fd5b505050506040513d6000823e3d601f19601f820116820180604052508101906106539190613413565b9050600080600090505b85518110156107b05760005b86828151811061067c5761067b61345c565b5b6020026020010151602001515181101561079c576000925060005b8451811015610741578481815181106106b3576106b261345c565b5b602002602001015173ffffffffffffffffffffffffffffffffffffffff168884815181106106e4576106e361345c565b5b60200260200101516020015183815181106107025761070161345c565b5b602002602001015173ffffffffffffffffffffffffffffffffffffffff160361072e5760019350610741565b8080610739906134ba565b915050610697565b506000151583151503610789576040517f08c379a000000000000000000000000000000000000000000000000000000000815260040161078090613574565b60405180910390fd5b8080610794906134ba565b915050610669565b5080806107a8906134ba565b91505061065d565b506000600260009054906101000a900473ffffffffffffffffffffffffffffffffffffffff1673ffffffffffffffffffffffffffffffffffffffff1663de508c5b338c6040518363ffffffff1660e01b8152600401610810929190613594565b600060405180830381865afa15801561082d573d6000803e3d6000fd5b505050506040513d6000823e3d601f19601f82011682018060405250810190610856919061366c565b909192939450909192935090919250909150905080915050600080600090505b87518110156108be578781815181106108925761089161345c565b5b602002602001015160000151826108a99190613715565b915080806108b6906134ba565b915050610876565b506064811115610903576040517f08c379a00000000000000000000000000000000000000000000000000000000081526004016108fa90613795565b60405180910390fd5b816109a057600260009054906101000a900473ffffffffffffffffffffffffffffffffffffffff1673ffffffffffffffffffffffffffffffffffffffff166325cb763a338d8d8d868e6040518763ffffffff1660e01b815260040161096d969594939291906137f9565b600060405180830381600087803b15801561098757600080fd5b505af115801561099b573d6000803e3d6000fd5b505050505b8115610b2b576000600660009054906101000a900473ffffffffffffffffffffffffffffffffffffffff16905060008a03610a5d578073ffffffffffffffffffffffffffffffffffffffff166323b872dd33306003546040518463ffffffff1660e01b8152600401610a1493929190613861565b6020604051808303816000875af1158015610a33573d6000803e3d6000fd5b505050506040513d601f19601f82011682018060405250810190610a579190613251565b50610b29565b60018a03610aed578073ffffffffffffffffffffffffffffffffffffffff166323b872dd33306004546040518463ffffffff1660e01b8152600401610aa493929190613861565b6020604051808303816000875af1158015610ac3573d6000803e3d6000fd5b505050506040513d601f19601f82011682018060405250810190610ae79190613251565b50610b28565b6040517f08c379a0000000000000000000000000000000000000000000000000000000008152600401610b1f9061390a565b60405180910390fd5b5b505b6000808a03610c4d57600760003373ffffffffffffffffffffffffffffffffffffffff1673ffffffffffffffffffffffffffffffffffffffff16815260200190815260200160002060008d73ffffffffffffffffffffffffffffffffffffffff1673ffffffffffffffffffffffffffffffffffffffff1681526020019081526020016000208054905090506000811115610c4857600760003373ffffffffffffffffffffffffffffffffffffffff1673ffffffffffffffffffffffffffffffffffffffff16815260200190815260200160002060008d73ffffffffffffffffffffffffffffffffffffffff1673ffffffffffffffffffffffffffffffffffffffff1681526020019081526020016000206000610c479190612456565b5b610d84565b600860003373ffffffffffffffffffffffffffffffffffffffff1673ffffffffffffffffffffffffffffffffffffffff16815260200190815260200160002060008d73ffffffffffffffffffffffffffffffffffffffff1673ffffffffffffffffffffffffffffffffffffffff16815260200190815260200160002060008a81526020019081526020016000208054905090506000811115610d8357600860003373ffffffffffffffffffffffffffffffffffffffff1673ffffffffffffffffffffffffffffffffffffffff16815260200190815260200160002060008d73ffffffffffffffffffffffffffffffffffffffff1673ffffffffffffffffffffffffffffffffffffffff16815260200190815260200160002060008a81526020019081526020016000206000610d829190612456565b5b5b600260009054906101000a900473ffffffffffffffffffffffffffffffffffffffff1673ffffffffffffffffffffffffffffffffffffffff1663b69bd77f338e8c868f6040518663ffffffff1660e01b8152600401610de795949392919061392a565b600060405180830381600087803b158015610e0157600080fd5b505af1158015610e15573d6000803e3d6000fd5b5050505060008a03610f695760005b8851811015610f6357600760003373ffffffffffffffffffffffffffffffffffffffff1673ffffffffffffffffffffffffffffffffffffffff16815260200190815260200160002060008e73ffffffffffffffffffffffffffffffffffffffff1673ffffffffffffffffffffffffffffffffffffffff168152602001908152602001600020898281518110610ebc57610ebb61345c565b5b60200260200101519080600181540180825580915050600190039060005260206000209060040201600090919091909150600082015181600001556020820151816001019080519060200190610f1392919061247a565b506040820151816002019080519060200190610f30929190612504565b506060820151816003019080519060200190610f4d929190612504565b5050508080610f5b906134ba565b915050610e24565b506110be565b60005b88518110156110bc57600860003373ffffffffffffffffffffffffffffffffffffffff1673ffffffffffffffffffffffffffffffffffffffff16815260200190815260200160002060008e73ffffffffffffffffffffffffffffffffffffffff1673ffffffffffffffffffffffffffffffffffffffff16815260200190815260200160002060008b81526020019081526020016000208982815181106110155761101461345c565b5b6020026020010151908060018154018082558091505060019003906000526020600020906004020160009091909190915060008201518160000155602082015181600101908051906020019061106c92919061247a565b506040820151816002019080519060200190611089929190612504565b5060608201518160030190805190602001906110a6929190612504565b50505080806110b4906134ba565b915050610f6c565b505b3373ffffffffffffffffffffffffffffffffffffffff167f82a2341a42c146a8b1818f7e04fe56be41f008d10c140cf4fe8b4ef801628ea18d8b60405161110692919061397d565b60405180910390a2505050505050505050505050565b6000600260009054906101000a900473ffffffffffffffffffffffffffffffffffffffff1673ffffffffffffffffffffffffffffffffffffffff166320e4ab6a876040518263ffffffff1660e01b81526004016111799190612d58565b600060405180830381865afa158015611196573d6000803e3d6000fd5b505050506040513d6000823e3d601f19601f820116820180604052508101906111bf9190613413565b905060005b8151811015611b66573373ffffffffffffffffffffffffffffffffffffffff168282815181106111f7576111f661345c565b5b602002602001015173ffffffffffffffffffffffffffffffffffffffff1603611ad757600083036116bb5760006005548661123291906139a6565b90506000818761124291906139e8565b905060008890508073ffffffffffffffffffffffffffffffffffffffff166323b872dd8b30866040518463ffffffff1660e01b815260040161128693929190613861565b6020604051808303816000875af11580156112a5573d6000803e3d6000fd5b505050506040513d601f19601f820116820180604052508101906112c99190613251565b508073ffffffffffffffffffffffffffffffffffffffff166323b872dd8b33856040518463ffffffff1660e01b815260040161130793929190613861565b6020604051808303816000875af1158015611326573d6000803e3d6000fd5b505050506040513d601f19601f8201168201806040525081019061134a9190613251565b5060005b600760008c73ffffffffffffffffffffffffffffffffffffffff1673ffffffffffffffffffffffffffffffffffffffff16815260200190815260200160002060008b73ffffffffffffffffffffffffffffffffffffffff1673ffffffffffffffffffffffffffffffffffffffff168152602001908152602001600020805490508110156116b25760005b600760008d73ffffffffffffffffffffffffffffffffffffffff1673ffffffffffffffffffffffffffffffffffffffff16815260200190815260200160002060008c73ffffffffffffffffffffffffffffffffffffffff1673ffffffffffffffffffffffffffffffffffffffff16815260200190815260200160002082815481106114665761146561345c565b5b90600052602060002090600402016001018054905081101561169e578686815181106114955761149461345c565b5b602002602001015173ffffffffffffffffffffffffffffffffffffffff16600760008e73ffffffffffffffffffffffffffffffffffffffff1673ffffffffffffffffffffffffffffffffffffffff16815260200190815260200160002060008d73ffffffffffffffffffffffffffffffffffffffff1673ffffffffffffffffffffffffffffffffffffffff16815260200190815260200160002083815481106115415761154061345c565b5b906000526020600020906004020160010182815481106115645761156361345c565b5b9060005260206000200160009054906101000a900473ffffffffffffffffffffffffffffffffffffffff1673ffffffffffffffffffffffffffffffffffffffff160361168b576001600760008e73ffffffffffffffffffffffffffffffffffffffff1673ffffffffffffffffffffffffffffffffffffffff16815260200190815260200160002060008d73ffffffffffffffffffffffffffffffffffffffff1673ffffffffffffffffffffffffffffffffffffffff168152602001908152602001600020838154811061163a5761163961345c565b5b9060005260206000209060040201600301828154811061165d5761165c61345c565b5b90600052602060002090602091828204019190066101000a81548160ff02191690831515021790555061169e565b8080611696906134ba565b9150506113d8565b5080806116aa906134ba565b91505061134e565b50505050611ad6565b6000841115611ad55760008690508073ffffffffffffffffffffffffffffffffffffffff166323b872dd8933886040518463ffffffff1660e01b815260040161170693929190613861565b600060405180830381600087803b15801561172057600080fd5b505af1158015611734573d6000803e3d6000fd5b5050505060005b600760008a73ffffffffffffffffffffffffffffffffffffffff1673ffffffffffffffffffffffffffffffffffffffff16815260200190815260200160002060008973ffffffffffffffffffffffffffffffffffffffff1673ffffffffffffffffffffffffffffffffffffffff16815260200190815260200160002080549050811015611ad25760005b600860008b73ffffffffffffffffffffffffffffffffffffffff1673ffffffffffffffffffffffffffffffffffffffff16815260200190815260200160002060008a73ffffffffffffffffffffffffffffffffffffffff1673ffffffffffffffffffffffffffffffffffffffff168152602001908152602001600020600088815260200190815260200160002082815481106118645761186361345c565b5b906000526020600020906004020160010180549050811015611abe578484815181106118935761189261345c565b5b602002602001015173ffffffffffffffffffffffffffffffffffffffff16600860008c73ffffffffffffffffffffffffffffffffffffffff1673ffffffffffffffffffffffffffffffffffffffff16815260200190815260200160002060008b73ffffffffffffffffffffffffffffffffffffffff1673ffffffffffffffffffffffffffffffffffffffff168152602001908152602001600020600089815260200190815260200160002083815481106119505761194f61345c565b5b906000526020600020906004020160010182815481106119735761197261345c565b5b9060005260206000200160009054906101000a900473ffffffffffffffffffffffffffffffffffffffff1673ffffffffffffffffffffffffffffffffffffffff1603611aab576001600860008c73ffffffffffffffffffffffffffffffffffffffff1673ffffffffffffffffffffffffffffffffffffffff16815260200190815260200160002060008b73ffffffffffffffffffffffffffffffffffffffff1673ffffffffffffffffffffffffffffffffffffffff16815260200190815260200160002060008981526020019081526020016000208381548110611a5a57611a5961345c565b5b90600052602060002090600402016003018281548110611a7d57611a7c61345c565b5b90600052602060002090602091828204019190066101000a81548160ff021916908315150217905550611abe565b8080611ab6906134ba565b9150506117c5565b508080611aca906134ba565b91505061173b565b50505b5b5b8573ffffffffffffffffffffffffffffffffffffffff163373ffffffffffffffffffffffffffffffffffffffff168873ffffffffffffffffffffffffffffffffffffffff167f913c992353dc81b7a8ba31496c484e9b6306bd2f6c509a649a38fdf5e1c953b287604051611b4b9190613154565b60405180910390a48080611b5e906134ba565b9150506111c4565b50505050505050565b600160009054906101000a900473ffffffffffffffffffffffffffffffffffffffff1681565b8060038190555050565b606060008203611e1457600760008673ffffffffffffffffffffffffffffffffffffffff1673ffffffffffffffffffffffffffffffffffffffff16815260200190815260200160002060008573ffffffffffffffffffffffffffffffffffffffff1673ffffffffffffffffffffffffffffffffffffffff168152602001908152602001600020805480602002602001604051908101604052809291908181526020016000905b82821015611e0957838290600052602060002090600402016040518060800160405290816000820154815260200160018201805480602002602001604051908101604052809291908181526020018280548015611cf757602002820191906000526020600020905b8160009054906101000a900473ffffffffffffffffffffffffffffffffffffffff1673ffffffffffffffffffffffffffffffffffffffff1681526020019060010190808311611cad575b5050505050815260200160028201805480602002602001604051908101604052809291908181526020018280548015611d7457602002820191906000526020600020906000905b82829054906101000a900460ff16151581526020019060010190602082600001049283019260010382029150808411611d3e5790505b5050505050815260200160038201805480602002602001604051908101604052809291908181526020018280548015611df157602002820191906000526020600020906000905b82829054906101000a900460ff16151581526020019060010190602082600001049283019260010382029150808411611dbb5790505b50505050508152505081526020019060010190611c45565b50505050905061208c565b600860008673ffffffffffffffffffffffffffffffffffffffff1673ffffffffffffffffffffffffffffffffffffffff16815260200190815260200160002060008573ffffffffffffffffffffffffffffffffffffffff1673ffffffffffffffffffffffffffffffffffffffff1681526020019081526020016000206000848152602001908152602001600020805480602002602001604051908101604052809291908181526020016000905b8282101561208557838290600052602060002090600402016040518060800160405290816000820154815260200160018201805480602002602001604051908101604052809291908181526020018280548015611f7357602002820191906000526020600020905b8160009054906101000a900473ffffffffffffffffffffffffffffffffffffffff1673ffffffffffffffffffffffffffffffffffffffff1681526020019060010190808311611f29575b5050505050815260200160028201805480602002602001604051908101604052809291908181526020018280548015611ff057602002820191906000526020600020906000905b82829054906101000a900460ff16151581526020019060010190602082600001049283019260010382029150808411611fba5790505b505050505081526020016003820180548060200260200160405190810160405280929190818152602001828054801561206d57602002820191906000526020600020906000905b82829054906101000a900460ff161515815260200190600101906020826000010492830192600103820291508084116120375790505b50505050508152505081526020019060010190611ec1565b5050505090505b949350505050565b61209c61230c565b6120a6600061238a565b565b60008060009054906101000a900473ffffffffffffffffffffffffffffffffffffffff16905090565b8060048190555050565b6120e361230c565b60008190508073ffffffffffffffffffffffffffffffffffffffff1663a9059cbb33856040518363ffffffff1660e01b815260040161212392919061397d565b6020604051808303816000875af1158015612142573d6000803e3d6000fd5b505050506040513d601f19601f820116820180604052508101906121669190613251565b50505050565b80600660006101000a81548173ffffffffffffffffffffffffffffffffffffffff021916908373ffffffffffffffffffffffffffffffffffffffff16021790555050565b600860205283600052604060002060205282600052604060002060205281600052604060002081815481106121e457600080fd5b90600052602060002090600402016000935093505050508060000154905081565b600260009054906101000a900473ffffffffffffffffffffffffffffffffffffffff1681565b6007602052826000526040600020602052816000526040600020818154811061225357600080fd5b906000526020600020906004020160009250925050508060000154905081565b6064816122809190613a4b565b60058190555050565b61229161230c565b600073ffffffffffffffffffffffffffffffffffffffff168173ffffffffffffffffffffffffffffffffffffffff1603612300576040517f08c379a00000000000000000000000000000000000000000000000000000000081526004016122f790613aee565b60405180910390fd5b6123098161238a565b50565b61231461244e565b73ffffffffffffffffffffffffffffffffffffffff166123326120a8565b73ffffffffffffffffffffffffffffffffffffffff1614612388576040517f08c379a000000000000000000000000000000000000000000000000000000000815260040161237f90613b5a565b60405180910390fd5b565b60008060009054906101000a900473ffffffffffffffffffffffffffffffffffffffff169050816000806101000a81548173ffffffffffffffffffffffffffffffffffffffff021916908373ffffffffffffffffffffffffffffffffffffffff1602179055508173ffffffffffffffffffffffffffffffffffffffff168173ffffffffffffffffffffffffffffffffffffffff167f8be0079c531659141344cd1fd0a4f28419497f9722a3daafe3b4186f6b6457e060405160405180910390a35050565b600033905090565b508054600082556004029060005260206000209081019061247791906125aa565b50565b8280548282559060005260206000209081019282156124f3579160200282015b828111156124f25782518260006101000a81548173ffffffffffffffffffffffffffffffffffffffff021916908373ffffffffffffffffffffffffffffffffffffffff1602179055509160200191906001019061249a565b5b50905061250091906125f9565b5090565b82805482825590600052602060002090601f016020900481019282156125995791602002820160005b8382111561256a57835183826101000a81548160ff021916908315150217905550926020019260010160208160000104928301926001030261252d565b80156125975782816101000a81549060ff021916905560010160208160000104928301926001030261256a565b505b5090506125a691906125f9565b5090565b5b808211156125f5576000808201600090556001820160006125cc9190612616565b6002820160006125dc9190612637565b6003820160006125ec9190612637565b506004016125ab565b5090565b5b808211156126125760008160009055506001016125fa565b5090565b508054600082559060005260206000209081019061263491906125f9565b50565b50805460008255601f01602090049060005260206000209081019061265c91906125f9565b50565b600073ffffffffffffffffffffffffffffffffffffffff82169050919050565b600061268a8261265f565b9050919050565b61269a8161267f565b82525050565b6000819050919050565b6126b3816126a0565b82525050565b60006080820190506126ce6000830187612691565b6126db60208301866126aa565b6126e860408301856126aa565b6126f560608301846126aa565b95945050505050565b6000604051905090565b600080fd5b600080fd5b61271b8161267f565b811461272657600080fd5b50565b60008135905061273881612712565b92915050565b600080fd5b600080fd5b6000601f19601f8301169050919050565b7f4e487b7100000000000000000000000000000000000000000000000000000000600052604160045260246000fd5b61279182612748565b810181811067ffffffffffffffff821117156127b0576127af612759565b5b80604052505050565b60006127c36126fe565b90506127cf8282612788565b919050565b600067ffffffffffffffff8211156127ef576127ee612759565b5b6127f882612748565b9050602081019050919050565b82818337600083830152505050565b6000612827612822846127d4565b6127b9565b90508281526020810184848401111561284357612842612743565b5b61284e848285612805565b509392505050565b600082601f83011261286b5761286a61273e565b5b813561287b848260208601612814565b91505092915050565b61288d816126a0565b811461289857600080fd5b50565b6000813590506128aa81612884565b92915050565b600067ffffffffffffffff8211156128cb576128ca612759565b5b602082029050602081019050919050565b600080fd5b600080fd5b600080fd5b600067ffffffffffffffff82111561290657612905612759565b5b602082029050602081019050919050565b600061292a612925846128eb565b6127b9565b9050808382526020820190506020840283018581111561294d5761294c6128dc565b5b835b8181101561297657806129628882612729565b84526020840193505060208101905061294f565b5050509392505050565b600082601f8301126129955761299461273e565b5b81356129a5848260208601612917565b91505092915050565b600067ffffffffffffffff8211156129c9576129c8612759565b5b602082029050602081019050919050565b60008115159050919050565b6129ef816129da565b81146129fa57600080fd5b50565b600081359050612a0c816129e6565b92915050565b6000612a25612a20846129ae565b6127b9565b90508083825260208201905060208402830185811115612a4857612a476128dc565b5b835b81811015612a715780612a5d88826129fd565b845260208401935050602081019050612a4a565b5050509392505050565b600082601f830112612a9057612a8f61273e565b5b8135612aa0848260208601612a12565b91505092915050565b600060808284031215612abf57612abe6128e1565b5b612ac960806127b9565b90506000612ad98482850161289b565b600083015250602082013567ffffffffffffffff811115612afd57612afc6128e6565b5b612b0984828501612980565b602083015250604082013567ffffffffffffffff811115612b2d57612b2c6128e6565b5b612b3984828501612a7b565b604083015250606082013567ffffffffffffffff811115612b5d57612b5c6128e6565b5b612b6984828501612a7b565b60608301525092915050565b6000612b88612b83846128b0565b6127b9565b90508083825260208201905060208402830185811115612bab57612baa6128dc565b5b835b81811015612bf257803567ffffffffffffffff811115612bd057612bcf61273e565b5b808601612bdd8982612aa9565b85526020850194505050602081019050612bad565b5050509392505050565b600082601f830112612c1157612c1061273e565b5b8135612c21848260208601612b75565b91505092915050565b600080600080600060a08688031215612c4657612c45612708565b5b6000612c5488828901612729565b955050602086013567ffffffffffffffff811115612c7557612c7461270d565b5b612c8188828901612856565b9450506040612c928882890161289b565b9350506060612ca38882890161289b565b925050608086013567ffffffffffffffff811115612cc457612cc361270d565b5b612cd088828901612bfc565b9150509295509295909350565b600080600080600060a08688031215612cf957612cf8612708565b5b6000612d0788828901612729565b9550506020612d1888828901612729565b9450506040612d298882890161289b565b9350506060612d3a8882890161289b565b9250506080612d4b8882890161289b565b9150509295509295909350565b6000602082019050612d6d6000830184612691565b92915050565b600060208284031215612d8957612d88612708565b5b6000612d978482850161289b565b91505092915050565b60008060008060808587031215612dba57612db9612708565b5b6000612dc887828801612729565b9450506020612dd987828801612729565b9350506040612dea8782880161289b565b9250506060612dfb8782880161289b565b91505092959194509250565b600081519050919050565b600082825260208201905092915050565b6000819050602082019050919050565b612e3c816126a0565b82525050565b600081519050919050565b600082825260208201905092915050565b6000819050602082019050919050565b612e778161267f565b82525050565b6000612e898383612e6e565b60208301905092915050565b6000602082019050919050565b6000612ead82612e42565b612eb78185612e4d565b9350612ec283612e5e565b8060005b83811015612ef3578151612eda8882612e7d565b9750612ee583612e95565b925050600181019050612ec6565b5085935050505092915050565b600081519050919050565b600082825260208201905092915050565b6000819050602082019050919050565b612f35816129da565b82525050565b6000612f478383612f2c565b60208301905092915050565b6000602082019050919050565b6000612f6b82612f00565b612f758185612f0b565b9350612f8083612f1c565b8060005b83811015612fb1578151612f988882612f3b565b9750612fa383612f53565b925050600181019050612f84565b5085935050505092915050565b6000608083016000830151612fd66000860182612e33565b5060208301518482036020860152612fee8282612ea2565b915050604083015184820360408601526130088282612f60565b915050606083015184820360608601526130228282612f60565b9150508091505092915050565b600061303b8383612fbe565b905092915050565b6000602082019050919050565b600061305b82612e07565b6130658185612e12565b93508360208202850161307785612e23565b8060005b858110156130b35784840389528151613094858261302f565b945061309f83613043565b925060208a0199505060018101905061307b565b50829750879550505050505092915050565b600060208201905081810360008301526130df8184613050565b905092915050565b600080604083850312156130fe576130fd612708565b5b600061310c8582860161289b565b925050602061311d85828601612729565b9150509250929050565b60006020828403121561313d5761313c612708565b5b600061314b84828501612729565b91505092915050565b600060208201905061316960008301846126aa565b92915050565b6000819050919050565b600061319461318f61318a8461265f565b61316f565b61265f565b9050919050565b60006131a682613179565b9050919050565b60006131b88261319b565b9050919050565b6131c8816131ad565b82525050565b60006020820190506131e360008301846131bf565b92915050565b60008060006060848603121561320257613201612708565b5b600061321086828701612729565b935050602061322186828701612729565b92505060406132328682870161289b565b9150509250925092565b60008151905061324b816129e6565b92915050565b60006020828403121561326757613266612708565b5b60006132758482850161323c565b91505092915050565b600082825260208201905092915050565b7f466972737420726567697374657220796f757273656c66210000000000000000600082015250565b60006132c560188361327e565b91506132d08261328f565b602082019050919050565b600060208201905081810360008301526132f4816132b8565b9050919050565b7f46697273742076657269667920796f757220656d61696c000000000000000000600082015250565b600061333160178361327e565b915061333c826132fb565b602082019050919050565b6000602082019050818103600083015261336081613324565b9050919050565b60008151905061337681612712565b92915050565b600061338f61338a846128eb565b6127b9565b905080838252602082019050602084028301858111156133b2576133b16128dc565b5b835b818110156133db57806133c78882613367565b8452602084019350506020810190506133b4565b5050509392505050565b600082601f8301126133fa576133f961273e565b5b815161340a84826020860161337c565b91505092915050565b60006020828403121561342957613428612708565b5b600082015167ffffffffffffffff8111156134475761344661270d565b5b613453848285016133e5565b91505092915050565b7f4e487b7100000000000000000000000000000000000000000000000000000000600052603260045260246000fd5b7f4e487b7100000000000000000000000000000000000000000000000000000000600052601160045260246000fd5b60006134c5826126a0565b91507fffffffffffffffffffffffffffffffffffffffffffffffffffffffffffffffff82036134f7576134f661348b565b5b600182019050919050565b7f636865636b20616c6c20746865206e6f6d696e65657320796f7520617265206560008201527f6e746572696e67206172652061646465642e0000000000000000000000000000602082015250565b600061355e60328361327e565b915061356982613502565b604082019050919050565b6000602082019050818103600083015261358d81613551565b9050919050565b60006040820190506135a96000830185612691565b6135b66020830184612691565b9392505050565b60005b838110156135db5780820151818401526020810190506135c0565b60008484015250505050565b60006135fa6135f5846127d4565b6127b9565b90508281526020810184848401111561361657613615612743565b5b6136218482856135bd565b509392505050565b600082601f83011261363e5761363d61273e565b5b815161364e8482602086016135e7565b91505092915050565b60008151905061366681612884565b92915050565b60008060008060008060c0878903121561368957613688612708565b5b600061369789828a01613367565b965050602087015167ffffffffffffffff8111156136b8576136b761270d565b5b6136c489828a01613629565b95505060406136d589828a01613657565b94505060606136e689828a01613657565b93505060806136f789828a01613657565b92505060a061370889828a0161323c565b9150509295509295509295565b6000613720826126a0565b915061372b836126a0565b92508282019050808211156137435761374261348b565b5b92915050565b7f5265647563652074686520736861726520616d6f756e742e2e2e000000000000600082015250565b600061377f601a8361327e565b915061378a82613749565b602082019050919050565b600060208201905081810360008301526137ae81613772565b9050919050565b600081519050919050565b60006137cb826137b5565b6137d5818561327e565b93506137e58185602086016135bd565b6137ee81612748565b840191505092915050565b600060c08201905061380e6000830189612691565b61381b6020830188612691565b818103604083015261382d81876137c0565b905061383c60608301866126aa565b61384960808301856126aa565b61385660a08301846126aa565b979650505050505050565b60006060820190506138766000830186612691565b6138836020830185612691565b61389060408301846126aa565b949350505050565b7f43617465676f72792076616c7565206973203020666f7220746f6b656e73206160008201527f6e64203120666f72204e46540000000000000000000000000000000000000000602082015250565b60006138f4602c8361327e565b91506138ff82613898565b604082019050919050565b60006020820190508181036000830152613923816138e7565b9050919050565b600060a08201905061393f6000830188612691565b61394c6020830187612691565b61395960408301866126aa565b61396660608301856126aa565b61397360808301846126aa565b9695505050505050565b60006040820190506139926000830185612691565b61399f60208301846126aa565b9392505050565b60006139b1826126a0565b91506139bc836126a0565b92508282026139ca816126a0565b915082820484148315176139e1576139e061348b565b5b5092915050565b60006139f3826126a0565b91506139fe836126a0565b9250828203905081811115613a1657613a1561348b565b5b92915050565b7f4e487b7100000000000000000000000000000000000000000000000000000000600052601260045260246000fd5b6000613a56826126a0565b9150613a61836126a0565b925082613a7157613a70613a1c565b5b828204905092915050565b7f4f776e61626c653a206e6577206f776e657220697320746865207a65726f206160008201527f6464726573730000000000000000000000000000000000000000000000000000602082015250565b6000613ad860268361327e565b9150613ae382613a7c565b604082019050919050565b60006020820190508181036000830152613b0781613acb565b9050919050565b7f4f776e61626c653a2063616c6c6572206973206e6f7420746865206f776e6572600082015250565b6000613b4460208361327e565b9150613b4f82613b0e565b602082019050919050565b60006020820190508181036000830152613b7381613b37565b905091905056fea264697066735822122052be281b7afa78f9f07285c5c37ece1119b9c714d8ed7b4bbad36ced7ddadd5964736f6c63430008110033",
  "linkReferences": {},
  "deployedLinkReferences": {}
}