{
  "_format": "hh-sol-artifact-1",
  "contractName": "MultiplePriorityNominee",
  "sourceName": "contracts/MultiplePriorityNominee.sol",
  "abi": [
    {
      "inputs": [
        {
          "internalType": "address",
          "name": "_inheritokensAddress",
          "type": "address"
        },
        {
          "internalType": "address",
          "name": "_charityContractAddress",
          "type": "address"
        }
      ],
      "stateMutability": "nonpayable",
      "type": "constructor"
    },
    {
      "anonymous": false,
      "inputs": [
        {
          "indexed": true,
          "internalType": "address",
          "name": "_owner",
          "type": "address"
        },
        {
          "indexed": true,
          "internalType": "address",
          "name": "_nominee",
          "type": "address"
        },
        {
          "indexed": true,
          "internalType": "address",
          "name": "_tokenAddress",
          "type": "address"
        },
        {
          "indexed": false,
          "internalType": "uint256",
          "name": "_tokenId",
          "type": "uint256"
        },
        {
          "indexed": false,
          "internalType": "uint256",
          "name": "_amount",
          "type": "uint256"
        },
        {
          "indexed": false,
          "internalType": "uint256",
          "name": "_category",
          "type": "uint256"
        }
      ],
      "name": "Claimed",
      "type": "event"
    },
    {
      "anonymous": false,
      "inputs": [
        {
          "indexed": true,
          "internalType": "address",
          "name": "previousOwner",
          "type": "address"
        },
        {
          "indexed": true,
          "internalType": "address",
          "name": "newOwner",
          "type": "address"
        }
      ],
      "name": "OwnershipTransferred",
      "type": "event"
    },
    {
      "anonymous": false,
      "inputs": [
        {
          "indexed": true,
          "internalType": "address",
          "name": "_owner",
          "type": "address"
        },
        {
          "indexed": true,
          "internalType": "address",
          "name": "_tokenAddress",
          "type": "address"
        },
        {
          "indexed": false,
          "internalType": "uint256",
          "name": "_tokenId",
          "type": "uint256"
        },
        {
          "indexed": false,
          "internalType": "uint256",
          "name": "_amount",
          "type": "uint256"
        },
        {
          "indexed": false,
          "internalType": "uint256",
          "name": "_category",
          "type": "uint256"
        }
      ],
      "name": "Recovered",
      "type": "event"
    },
    {
      "inputs": [
        {
          "internalType": "address",
          "name": "_tokenAddress",
          "type": "address"
        },
        {
          "internalType": "string",
          "name": "_tokenName",
          "type": "string"
        },
        {
          "internalType": "uint256",
          "name": "_category",
          "type": "uint256"
        },
        {
          "internalType": "uint256",
          "name": "_tokenId",
          "type": "uint256"
        },
        {
          "components": [
            {
              "internalType": "uint256",
              "name": "share",
              "type": "uint256"
            },
            {
              "internalType": "address",
              "name": "charityAddress",
              "type": "address"
            },
            {
              "internalType": "address",
              "name": "canClaim",
              "type": "address"
            },
            {
              "internalType": "address[]",
              "name": "nominee",
              "type": "address[]"
            },
            {
              "internalType": "bool",
              "name": "isClaimed",
              "type": "bool"
            },
            {
              "internalType": "string",
              "name": "claimingDate",
              "type": "string"
            }
          ],
          "internalType": "struct MultiplePriorityNominee.MultiplePriority[]",
          "name": "data",
          "type": "tuple[]"
        }
      ],
      "name": "assignTokensToMultipleNominees",
      "outputs": [],
      "stateMutability": "nonpayable",
      "type": "function"
    },
    {
      "inputs": [
        {
          "internalType": "address",
          "name": "_owner",
          "type": "address"
        },
        {
          "internalType": "address",
          "name": "_tokenAddress",
          "type": "address"
        },
        {
          "internalType": "uint256",
          "name": "_tokenId",
          "type": "uint256"
        },
        {
          "internalType": "uint256",
          "name": "_category",
          "type": "uint256"
        },
        {
          "internalType": "uint256",
          "name": "_index",
          "type": "uint256"
        }
      ],
      "name": "changeCanClaim",
      "outputs": [],
      "stateMutability": "nonpayable",
      "type": "function"
    },
    {
      "inputs": [
        {
          "internalType": "address",
          "name": "_tokenAddress",
          "type": "address"
        },
        {
          "internalType": "uint256",
          "name": "_tokenCharge",
          "type": "uint256"
        },
        {
          "internalType": "uint256",
          "name": "_nftCharge",
          "type": "uint256"
        },
        {
          "internalType": "uint256",
          "name": "_percentage",
          "type": "uint256"
        }
      ],
      "name": "changeCharges",
      "outputs": [],
      "stateMutability": "nonpayable",
      "type": "function"
    },
    {
      "inputs": [],
      "name": "chargeTokenAddress",
      "outputs": [
        {
          "internalType": "address",
          "name": "",
          "type": "address"
        }
      ],
      "stateMutability": "view",
      "type": "function"
    },
    {
      "inputs": [],
      "name": "charityContract",
      "outputs": [
        {
          "internalType": "contract CharityContract",
          "name": "",
          "type": "address"
        }
      ],
      "stateMutability": "view",
      "type": "function"
    },
    {
      "inputs": [
        {
          "internalType": "address",
          "name": "_owner",
          "type": "address"
        },
        {
          "internalType": "address",
          "name": "_tokenAddress",
          "type": "address"
        },
        {
          "internalType": "uint256",
          "name": "_tokenId",
          "type": "uint256"
        },
        {
          "internalType": "uint256",
          "name": "_category",
          "type": "uint256"
        }
      ],
      "name": "claim",
      "outputs": [],
      "stateMutability": "nonpayable",
      "type": "function"
    },
    {
      "inputs": [
        {
          "internalType": "address",
          "name": "_owner",
          "type": "address"
        },
        {
          "internalType": "address",
          "name": "_tokenAddress",
          "type": "address"
        },
        {
          "internalType": "uint256",
          "name": "_tokenId",
          "type": "uint256"
        },
        {
          "internalType": "uint256",
          "name": "_category",
          "type": "uint256"
        }
      ],
      "name": "getAllStructs",
      "outputs": [
        {
          "components": [
            {
              "internalType": "uint256",
              "name": "share",
              "type": "uint256"
            },
            {
              "internalType": "address",
              "name": "charityAddress",
              "type": "address"
            },
            {
              "internalType": "address",
              "name": "canClaim",
              "type": "address"
            },
            {
              "internalType": "address[]",
              "name": "nominee",
              "type": "address[]"
            },
            {
              "internalType": "bool",
              "name": "isClaimed",
              "type": "bool"
            },
            {
              "internalType": "string",
              "name": "claimingDate",
              "type": "string"
            }
          ],
          "internalType": "struct MultiplePriorityNominee.MultiplePriority[]",
          "name": "",
          "type": "tuple[]"
        }
      ],
      "stateMutability": "view",
      "type": "function"
    },
    {
      "inputs": [],
      "name": "inheritokens",
      "outputs": [
        {
          "internalType": "contract Inheritokens",
          "name": "",
          "type": "address"
        }
      ],
      "stateMutability": "view",
      "type": "function"
    },
    {
      "inputs": [],
      "name": "nftCharge",
      "outputs": [
        {
          "internalType": "uint256",
          "name": "",
          "type": "uint256"
        }
      ],
      "stateMutability": "view",
      "type": "function"
    },
    {
      "inputs": [
        {
          "internalType": "address",
          "name": "_owner",
          "type": "address"
        },
        {
          "internalType": "address",
          "name": "_tokenAddress",
          "type": "address"
        },
        {
          "internalType": "uint256",
          "name": "_tokenId",
          "type": "uint256"
        }
      ],
      "name": "nftTransferLogic",
      "outputs": [],
      "stateMutability": "nonpayable",
      "type": "function"
    },
    {
      "inputs": [
        {
          "internalType": "address",
          "name": "",
          "type": "address"
        },
        {
          "internalType": "address",
          "name": "",
          "type": "address"
        }
      ],
      "name": "notFirst",
      "outputs": [
        {
          "internalType": "bool",
          "name": "",
          "type": "bool"
        }
      ],
      "stateMutability": "view",
      "type": "function"
    },
    {
      "inputs": [],
      "name": "owner",
      "outputs": [
        {
          "internalType": "address",
          "name": "",
          "type": "address"
        }
      ],
      "stateMutability": "view",
      "type": "function"
    },
    {
      "inputs": [
        {
          "internalType": "address",
          "name": "",
          "type": "address"
        },
        {
          "internalType": "address",
          "name": "",
          "type": "address"
        },
        {
          "internalType": "uint256",
          "name": "",
          "type": "uint256"
        },
        {
          "internalType": "uint256",
          "name": "",
          "type": "uint256"
        }
      ],
      "name": "ownerToNFTToStruct",
      "outputs": [
        {
          "internalType": "uint256",
          "name": "share",
          "type": "uint256"
        },
        {
          "internalType": "address",
          "name": "charityAddress",
          "type": "address"
        },
        {
          "internalType": "address",
          "name": "canClaim",
          "type": "address"
        },
        {
          "internalType": "bool",
          "name": "isClaimed",
          "type": "bool"
        },
        {
          "internalType": "string",
          "name": "claimingDate",
          "type": "string"
        }
      ],
      "stateMutability": "view",
      "type": "function"
    },
    {
      "inputs": [
        {
          "internalType": "address",
          "name": "",
          "type": "address"
        },
        {
          "internalType": "address",
          "name": "",
          "type": "address"
        },
        {
          "internalType": "uint256",
          "name": "",
          "type": "uint256"
        }
      ],
      "name": "ownerToTokenToStruct",
      "outputs": [
        {
          "internalType": "uint256",
          "name": "share",
          "type": "uint256"
        },
        {
          "internalType": "address",
          "name": "charityAddress",
          "type": "address"
        },
        {
          "internalType": "address",
          "name": "canClaim",
          "type": "address"
        },
        {
          "internalType": "bool",
          "name": "isClaimed",
          "type": "bool"
        },
        {
          "internalType": "string",
          "name": "claimingDate",
          "type": "string"
        }
      ],
      "stateMutability": "view",
      "type": "function"
    },
    {
      "inputs": [],
      "name": "percentage",
      "outputs": [
        {
          "internalType": "uint256",
          "name": "",
          "type": "uint256"
        }
      ],
      "stateMutability": "view",
      "type": "function"
    },
    {
      "inputs": [
        {
          "internalType": "address",
          "name": "_owner",
          "type": "address"
        },
        {
          "internalType": "address",
          "name": "_tokenAddress",
          "type": "address"
        },
        {
          "internalType": "uint256",
          "name": "_tokenId",
          "type": "uint256"
        },
        {
          "internalType": "uint256",
          "name": "_category",
          "type": "uint256"
        }
      ],
      "name": "recoveryClaim",
      "outputs": [],
      "stateMutability": "nonpayable",
      "type": "function"
    },
    {
      "inputs": [],
      "name": "renounceOwnership",
      "outputs": [],
      "stateMutability": "nonpayable",
      "type": "function"
    },
    {
      "inputs": [
        {
          "internalType": "address",
          "name": "_owner",
          "type": "address"
        },
        {
          "internalType": "address",
          "name": "_tokenAddress",
          "type": "address"
        },
        {
          "internalType": "uint256",
          "name": "_tokenId",
          "type": "uint256"
        },
        {
          "internalType": "uint256",
          "name": "_category",
          "type": "uint256"
        },
        {
          "internalType": "string",
          "name": "_date",
          "type": "string"
        },
        {
          "internalType": "uint256",
          "name": "_index",
          "type": "uint256"
        }
      ],
      "name": "setDateForNominee",
      "outputs": [],
      "stateMutability": "nonpayable",
      "type": "function"
    },
    {
      "inputs": [],
      "name": "tokenCharge",
      "outputs": [
        {
          "internalType": "uint256",
          "name": "",
          "type": "uint256"
        }
      ],
      "stateMutability": "view",
      "type": "function"
    },
    {
      "inputs": [
        {
          "internalType": "address",
          "name": "_owner",
          "type": "address"
        },
        {
          "internalType": "address",
          "name": "_tokenAddress",
          "type": "address"
        },
        {
          "internalType": "uint256",
          "name": "_share",
          "type": "uint256"
        }
      ],
      "name": "tokenTransferLogic",
      "outputs": [],
      "stateMutability": "nonpayable",
      "type": "function"
    },
    {
      "inputs": [
        {
          "internalType": "address",
          "name": "",
          "type": "address"
        },
        {
          "internalType": "address",
          "name": "",
          "type": "address"
        }
      ],
      "name": "totalAmount",
      "outputs": [
        {
          "internalType": "uint256",
          "name": "",
          "type": "uint256"
        }
      ],
      "stateMutability": "view",
      "type": "function"
    },
    {
      "inputs": [
        {
          "internalType": "address",
          "name": "newOwner",
          "type": "address"
        }
      ],
      "name": "transferOwnership",
      "outputs": [],
      "stateMutability": "nonpayable",
      "type": "function"
    },
    {
      "inputs": [
        {
          "internalType": "uint256",
          "name": "_amount",
          "type": "uint256"
        },
        {
          "internalType": "address",
          "name": "_tokenAddress",
          "type": "address"
        }
      ],
      "name": "withdrawFromContract",
      "outputs": [],
      "stateMutability": "payable",
      "type": "function"
    }
  ],
  "bytecode": "0x6080604052620f4240600355624c4b40600455600160055573e9dce89b076ba6107bb64ef30678efec11939234600660006101000a81548173ffffffffffffffffffffffffffffffffffffffff021916908373ffffffffffffffffffffffffffffffffffffffff1602179055503480156200007957600080fd5b50604051620066ae380380620066ae83398181016040528101906200009f91906200027f565b620000bf620000b36200014960201b60201c565b6200015160201b60201c565b81600160006101000a81548173ffffffffffffffffffffffffffffffffffffffff021916908373ffffffffffffffffffffffffffffffffffffffff16021790555080600260006101000a81548173ffffffffffffffffffffffffffffffffffffffff021916908373ffffffffffffffffffffffffffffffffffffffff1602179055505050620002c6565b600033905090565b60008060009054906101000a900473ffffffffffffffffffffffffffffffffffffffff169050816000806101000a81548173ffffffffffffffffffffffffffffffffffffffff021916908373ffffffffffffffffffffffffffffffffffffffff1602179055508173ffffffffffffffffffffffffffffffffffffffff168173ffffffffffffffffffffffffffffffffffffffff167f8be0079c531659141344cd1fd0a4f28419497f9722a3daafe3b4186f6b6457e060405160405180910390a35050565b600080fd5b600073ffffffffffffffffffffffffffffffffffffffff82169050919050565b600062000247826200021a565b9050919050565b62000259816200023a565b81146200026557600080fd5b50565b60008151905062000279816200024e565b92915050565b6000806040838503121562000299576200029862000215565b5b6000620002a98582860162000268565b9250506020620002bc8582860162000268565b9150509250929050565b6163d880620002d66000396000f3fe6080604052600436106101405760003560e01c80638c06fefd116100b6578063bea7d6ac1161006f578063bea7d6ac14610427578063c407695b14610468578063c78ad77f14610493578063d8948a89146104be578063f2fde38b146104fb578063f4cd54651461052457610140565b80638c06fefd146103205780638da5cb5b146103495780639605f505146103745780639b25202314610390578063a64ad61f146103bb578063be27c3fe146103fc57610140565b80634ab3a732116101085780634ab3a732146102265780635c042ae71461024f5780635cdb4ce41461027a5780636d0da155146102b7578063715018a6146102e057806379cf3077146102f757610140565b806303cd42481461014557806322d5dfbf1461016e57806326af4832146101975780633765aae8146101c057806347b33dbb146101fd575b600080fd5b34801561015157600080fd5b5061016c6004803603810190610167919061449e565b61054f565b005b34801561017a57600080fd5b5061019560048036038101906101909190614505565b6105b3565b005b3480156101a357600080fd5b506101be60048036038101906101b99190614558565b61062d565b005b3480156101cc57600080fd5b506101e760048036038101906101e291906145bf565b610f4f565b6040516101f4919061461a565b60405180910390f35b34801561020957600080fd5b50610224600480360381019061021f919061477b565b610f7e565b005b34801561023257600080fd5b5061024d60048036038101906102489190614558565b611108565b005b34801561025b57600080fd5b50610264611396565b6040516102719190614833565b60405180910390f35b34801561028657600080fd5b506102a1600480360381019061029c9190614558565b6113bc565b6040516102ae9190614afb565b60405180910390f35b3480156102c357600080fd5b506102de60048036038101906102d99190614b1d565b61197c565b005b3480156102ec57600080fd5b506102f561277a565b005b34801561030357600080fd5b5061031e60048036038101906103199190614505565b61278e565b005b34801561032c57600080fd5b5061034760048036038101906103429190614e4f565b612b83565b005b34801561035557600080fd5b5061035e613ca8565b60405161036b9190614833565b60405180910390f35b61038e60048036038101906103899190614f02565b613cd1565b005b34801561039c57600080fd5b506103a5613d62565b6040516103b29190614f51565b60405180910390f35b3480156103c757600080fd5b506103e260048036038101906103dd9190614558565b613d68565b6040516103f3959493929190614fb6565b60405180910390f35b34801561040857600080fd5b50610411613eaa565b60405161041e919061506f565b60405180910390f35b34801561043357600080fd5b5061044e60048036038101906104499190614505565b613ed0565b60405161045f959493929190614fb6565b60405180910390f35b34801561047457600080fd5b5061047d614005565b60405161048a9190614f51565b60405180910390f35b34801561049f57600080fd5b506104a861400b565b6040516104b59190614f51565b60405180910390f35b3480156104ca57600080fd5b506104e560048036038101906104e091906145bf565b614011565b6040516104f29190614f51565b60405180910390f35b34801561050757600080fd5b50610522600480360381019061051d919061508a565b614036565b005b34801561053057600080fd5b506105396140b9565b60405161054691906150d8565b60405180910390f35b6105576140df565b83600660006101000a81548173ffffffffffffffffffffffffffffffffffffffff021916908373ffffffffffffffffffffffffffffffffffffffff16021790555082600381905550816004819055508060058190555050505050565b60008290508073ffffffffffffffffffffffffffffffffffffffff166323b872dd8533856040518463ffffffff1660e01b81526004016105f5939291906150f3565b600060405180830381600087803b15801561060f57600080fd5b505af1158015610623573d6000803e3d6000fd5b5050505050505050565b600160009054906101000a900473ffffffffffffffffffffffffffffffffffffffff1673ffffffffffffffffffffffffffffffffffffffff16633d4c12d7856040518263ffffffff1660e01b81526004016106889190614833565b602060405180830381865afa1580156106a5573d6000803e3d6000fd5b505050506040513d601f19601f820116820180604052508101906106c9919061513f565b610708576040517f08c379a00000000000000000000000000000000000000000000000000000000081526004016106ff906151b8565b60405180910390fd5b60008060008303610b195760005b600760008873ffffffffffffffffffffffffffffffffffffffff1673ffffffffffffffffffffffffffffffffffffffff16815260200190815260200160002060008773ffffffffffffffffffffffffffffffffffffffff1673ffffffffffffffffffffffffffffffffffffffff16815260200190815260200160002080549050811015610acc573373ffffffffffffffffffffffffffffffffffffffff16600760008973ffffffffffffffffffffffffffffffffffffffff1673ffffffffffffffffffffffffffffffffffffffff16815260200190815260200160002060008873ffffffffffffffffffffffffffffffffffffffff1673ffffffffffffffffffffffffffffffffffffffff1681526020019081526020016000208281548110610842576108416151d8565b5b906000526020600020906006020160020160009054906101000a900473ffffffffffffffffffffffffffffffffffffffff1673ffffffffffffffffffffffffffffffffffffffff16148015610947575060001515600760008973ffffffffffffffffffffffffffffffffffffffff1673ffffffffffffffffffffffffffffffffffffffff16815260200190815260200160002060008873ffffffffffffffffffffffffffffffffffffffff1673ffffffffffffffffffffffffffffffffffffffff1681526020019081526020016000208281548110610924576109236151d8565b5b906000526020600020906006020160040160009054906101000a900460ff161515145b15610ab9576000600760008973ffffffffffffffffffffffffffffffffffffffff1673ffffffffffffffffffffffffffffffffffffffff16815260200190815260200160002060008873ffffffffffffffffffffffffffffffffffffffff1673ffffffffffffffffffffffffffffffffffffffff16815260200190815260200160002082815481106109dc576109db6151d8565b5b90600052602060002090600602016000015490506109fb88888361278e565b6001600760008a73ffffffffffffffffffffffffffffffffffffffff1673ffffffffffffffffffffffffffffffffffffffff16815260200190815260200160002060008973ffffffffffffffffffffffffffffffffffffffff1673ffffffffffffffffffffffffffffffffffffffff1681526020019081526020016000208381548110610a8b57610a8a6151d8565b5b906000526020600020906006020160040160006101000a81548160ff02191690831515021790555060019250505b8080610ac490615236565b915050610716565b506000151581151503610b14576040517f08c379a0000000000000000000000000000000000000000000000000000000008152600401610b0b906151b8565b60405180910390fd5b610ec7565b60018303610ec65760005b600a60008873ffffffffffffffffffffffffffffffffffffffff1673ffffffffffffffffffffffffffffffffffffffff16815260200190815260200160002060008773ffffffffffffffffffffffffffffffffffffffff1673ffffffffffffffffffffffffffffffffffffffff168152602001908152602001600020600086815260200190815260200160002080549050811015610e7d573373ffffffffffffffffffffffffffffffffffffffff16600a60008973ffffffffffffffffffffffffffffffffffffffff1673ffffffffffffffffffffffffffffffffffffffff16815260200190815260200160002060008873ffffffffffffffffffffffffffffffffffffffff1673ffffffffffffffffffffffffffffffffffffffff16815260200190815260200160002060008781526020019081526020016000208281548110610c7257610c716151d8565b5b906000526020600020906006020160020160009054906101000a900473ffffffffffffffffffffffffffffffffffffffff1673ffffffffffffffffffffffffffffffffffffffff16148015610d88575060001515600a60008973ffffffffffffffffffffffffffffffffffffffff1673ffffffffffffffffffffffffffffffffffffffff16815260200190815260200160002060008873ffffffffffffffffffffffffffffffffffffffff1673ffffffffffffffffffffffffffffffffffffffff16815260200190815260200160002060008781526020019081526020016000208281548110610d6557610d646151d8565b5b906000526020600020906006020160040160009054906101000a900460ff161515145b15610e6a57610d988787876105b3565b6001600a60008973ffffffffffffffffffffffffffffffffffffffff1673ffffffffffffffffffffffffffffffffffffffff16815260200190815260200160002060008873ffffffffffffffffffffffffffffffffffffffff1673ffffffffffffffffffffffffffffffffffffffff16815260200190815260200160002060008781526020019081526020016000208281548110610e3957610e386151d8565b5b906000526020600020906006020160040160006101000a81548160ff02191690831515021790555060019150610e7d565b8080610e7590615236565b915050610b24565b506000151581151503610ec5576040517f08c379a0000000000000000000000000000000000000000000000000000000008152600401610ebc906151b8565b60405180910390fd5b5b5b8473ffffffffffffffffffffffffffffffffffffffff163373ffffffffffffffffffffffffffffffffffffffff168773ffffffffffffffffffffffffffffffffffffffff167f5ccac6a981ee0d2404d2487672d204c80cc526da4f51e90dd5ae4cfe880a9add878688604051610f3f9392919061527e565b60405180910390a4505050505050565b60096020528160005260406000206020528060005260406000206000915091509054906101000a900460ff1681565b600083036110385781600760008873ffffffffffffffffffffffffffffffffffffffff1673ffffffffffffffffffffffffffffffffffffffff16815260200190815260200160002060008773ffffffffffffffffffffffffffffffffffffffff1673ffffffffffffffffffffffffffffffffffffffff1681526020019081526020016000208281548110611015576110146151d8565b5b9060005260206000209060060201600501908161103291906154b7565b50611100565b600183036110ff5781600a60008873ffffffffffffffffffffffffffffffffffffffff1673ffffffffffffffffffffffffffffffffffffffff16815260200190815260200160002060008773ffffffffffffffffffffffffffffffffffffffff1673ffffffffffffffffffffffffffffffffffffffff168152602001908152602001600020600086815260200190815260200160002082815481106110e0576110df6151d8565b5b906000526020600020906006020160050190816110fd91906154b7565b505b5b505050505050565b3373ffffffffffffffffffffffffffffffffffffffff16600160009054906101000a900473ffffffffffffffffffffffffffffffffffffffff1673ffffffffffffffffffffffffffffffffffffffff1663c3bb8121866040518263ffffffff1660e01b815260040161117a9190614833565b600060405180830381865afa158015611197573d6000803e3d6000fd5b505050506040513d6000823e3d601f19601f820116820180604052508101906111c0919061595d565b60e0015173ffffffffffffffffffffffffffffffffffffffff161461121a576040517f08c379a000000000000000000000000000000000000000000000000000000000815260040161121190615a18565b60405180910390fd5b600160009054906101000a900473ffffffffffffffffffffffffffffffffffffffff1673ffffffffffffffffffffffffffffffffffffffff16633d4c12d7856040518263ffffffff1660e01b81526004016112759190614833565b602060405180830381865afa158015611292573d6000803e3d6000fd5b505050506040513d601f19601f820116820180604052508101906112b6919061513f565b156112f6576040517f08c379a00000000000000000000000000000000000000000000000000000000081526004016112ed90615aaa565b60405180910390fd5b60008082036113105761130b8585606461278e565b611326565b6000831115611325576113248585856105b3565b5b5b8373ffffffffffffffffffffffffffffffffffffffff168573ffffffffffffffffffffffffffffffffffffffff167faa3446f866f557932f6c5a4933379c0e3e3fd6dcc0a20cfae5222255ffd16bdd8584866040516113879392919061527e565b60405180910390a35050505050565b600660009054906101000a900473ffffffffffffffffffffffffffffffffffffffff1681565b60606000820361169057600760008673ffffffffffffffffffffffffffffffffffffffff1673ffffffffffffffffffffffffffffffffffffffff16815260200190815260200160002060008573ffffffffffffffffffffffffffffffffffffffff1673ffffffffffffffffffffffffffffffffffffffff168152602001908152602001600020805480602002602001604051908101604052809291908181526020016000905b8282101561168557838290600052602060002090600602016040518060c0016040529081600082015481526020016001820160009054906101000a900473ffffffffffffffffffffffffffffffffffffffff1673ffffffffffffffffffffffffffffffffffffffff1673ffffffffffffffffffffffffffffffffffffffff1681526020016002820160009054906101000a900473ffffffffffffffffffffffffffffffffffffffff1673ffffffffffffffffffffffffffffffffffffffff1673ffffffffffffffffffffffffffffffffffffffff168152602001600382018054806020026020016040519081016040528092919081815260200182805480156115c057602002820191906000526020600020905b8160009054906101000a900473ffffffffffffffffffffffffffffffffffffffff1673ffffffffffffffffffffffffffffffffffffffff1681526020019060010190808311611576575b505050505081526020016004820160009054906101000a900460ff161515151581526020016005820180546115f4906152e4565b80601f0160208091040260200160405190810160405280929190818152602001828054611620906152e4565b801561166d5780601f106116425761010080835404028352916020019161166d565b820191906000526020600020905b81548152906001019060200180831161165057829003601f168201915b50505050508152505081526020019060010190611462565b505050509050611974565b6001820361197357600a60008673ffffffffffffffffffffffffffffffffffffffff1673ffffffffffffffffffffffffffffffffffffffff16815260200190815260200160002060008573ffffffffffffffffffffffffffffffffffffffff1673ffffffffffffffffffffffffffffffffffffffff1681526020019081526020016000206000848152602001908152602001600020805480602002602001604051908101604052809291908181526020016000905b8282101561196857838290600052602060002090600602016040518060c0016040529081600082015481526020016001820160009054906101000a900473ffffffffffffffffffffffffffffffffffffffff1673ffffffffffffffffffffffffffffffffffffffff1673ffffffffffffffffffffffffffffffffffffffff1681526020016002820160009054906101000a900473ffffffffffffffffffffffffffffffffffffffff1673ffffffffffffffffffffffffffffffffffffffff1673ffffffffffffffffffffffffffffffffffffffff168152602001600382018054806020026020016040519081016040528092919081815260200182805480156118a357602002820191906000526020600020905b8160009054906101000a900473ffffffffffffffffffffffffffffffffffffffff1673ffffffffffffffffffffffffffffffffffffffff1681526020019060010190808311611859575b505050505081526020016004820160009054906101000a900460ff161515151581526020016005820180546118d7906152e4565b80601f0160208091040260200160405190810160405280929190818152602001828054611903906152e4565b80156119505780601f1061192557610100808354040283529160200191611950565b820191906000526020600020905b81548152906001019060200180831161193357829003601f168201915b50505050508152505081526020019060010190611745565b505050509050611974565b5b949350505050565b600082036120355760005b600760008773ffffffffffffffffffffffffffffffffffffffff1673ffffffffffffffffffffffffffffffffffffffff16815260200190815260200160002060008673ffffffffffffffffffffffffffffffffffffffff1673ffffffffffffffffffffffffffffffffffffffff1681526020019081526020016000208281548110611a1557611a146151d8565b5b90600052602060002090600602016003018054905081101561202f576001600760008873ffffffffffffffffffffffffffffffffffffffff1673ffffffffffffffffffffffffffffffffffffffff16815260200190815260200160002060008773ffffffffffffffffffffffffffffffffffffffff1673ffffffffffffffffffffffffffffffffffffffff1681526020019081526020016000208381548110611ac157611ac06151d8565b5b906000526020600020906006020160030180549050611ae09190615aca565b8103611c8857600760008773ffffffffffffffffffffffffffffffffffffffff1673ffffffffffffffffffffffffffffffffffffffff16815260200190815260200160002060008673ffffffffffffffffffffffffffffffffffffffff1673ffffffffffffffffffffffffffffffffffffffff1681526020019081526020016000208281548110611b7457611b736151d8565b5b906000526020600020906006020160010160009054906101000a900473ffffffffffffffffffffffffffffffffffffffff16600760008873ffffffffffffffffffffffffffffffffffffffff1673ffffffffffffffffffffffffffffffffffffffff16815260200190815260200160002060008773ffffffffffffffffffffffffffffffffffffffff1673ffffffffffffffffffffffffffffffffffffffff1681526020019081526020016000208381548110611c3457611c336151d8565b5b906000526020600020906006020160020160006101000a81548173ffffffffffffffffffffffffffffffffffffffff021916908373ffffffffffffffffffffffffffffffffffffffff16021790555061201c565b600760008773ffffffffffffffffffffffffffffffffffffffff1673ffffffffffffffffffffffffffffffffffffffff16815260200190815260200160002060008673ffffffffffffffffffffffffffffffffffffffff1673ffffffffffffffffffffffffffffffffffffffff1681526020019081526020016000208281548110611d1657611d156151d8565b5b906000526020600020906006020160020160009054906101000a900473ffffffffffffffffffffffffffffffffffffffff1673ffffffffffffffffffffffffffffffffffffffff16600760008873ffffffffffffffffffffffffffffffffffffffff1673ffffffffffffffffffffffffffffffffffffffff16815260200190815260200160002060008773ffffffffffffffffffffffffffffffffffffffff1673ffffffffffffffffffffffffffffffffffffffff1681526020019081526020016000208381548110611dec57611deb6151d8565b5b90600052602060002090600602016003018281548110611e0f57611e0e6151d8565b5b9060005260206000200160009054906101000a900473ffffffffffffffffffffffffffffffffffffffff1673ffffffffffffffffffffffffffffffffffffffff160361201b57600760008773ffffffffffffffffffffffffffffffffffffffff1673ffffffffffffffffffffffffffffffffffffffff16815260200190815260200160002060008673ffffffffffffffffffffffffffffffffffffffff1673ffffffffffffffffffffffffffffffffffffffff1681526020019081526020016000208281548110611ee357611ee26151d8565b5b9060005260206000209060060201600301600182611f019190615afe565b81548110611f1257611f116151d8565b5b9060005260206000200160009054906101000a900473ffffffffffffffffffffffffffffffffffffffff16600760008873ffffffffffffffffffffffffffffffffffffffff1673ffffffffffffffffffffffffffffffffffffffff16815260200190815260200160002060008773ffffffffffffffffffffffffffffffffffffffff1673ffffffffffffffffffffffffffffffffffffffff1681526020019081526020016000208381548110611fcb57611fca6151d8565b5b906000526020600020906006020160020160006101000a81548173ffffffffffffffffffffffffffffffffffffffff021916908373ffffffffffffffffffffffffffffffffffffffff1602179055505b5b808061202790615236565b915050611987565b50612773565b600182036127725760005b600a60008773ffffffffffffffffffffffffffffffffffffffff1673ffffffffffffffffffffffffffffffffffffffff16815260200190815260200160002060008673ffffffffffffffffffffffffffffffffffffffff1673ffffffffffffffffffffffffffffffffffffffff168152602001908152602001600020600085815260200190815260200160002082815481106120df576120de6151d8565b5b906000526020600020906006020160030180549050811015612770576001600a60008873ffffffffffffffffffffffffffffffffffffffff1673ffffffffffffffffffffffffffffffffffffffff16815260200190815260200160002060008773ffffffffffffffffffffffffffffffffffffffff1673ffffffffffffffffffffffffffffffffffffffff1681526020019081526020016000206000868152602001908152602001600020838154811061219c5761219b6151d8565b5b9060005260206000209060060201600301805490506121bb9190615aca565b810361238557600a60008773ffffffffffffffffffffffffffffffffffffffff1673ffffffffffffffffffffffffffffffffffffffff16815260200190815260200160002060008673ffffffffffffffffffffffffffffffffffffffff1673ffffffffffffffffffffffffffffffffffffffff168152602001908152602001600020600085815260200190815260200160002082815481106122605761225f6151d8565b5b906000526020600020906006020160010160009054906101000a900473ffffffffffffffffffffffffffffffffffffffff16600a60008873ffffffffffffffffffffffffffffffffffffffff1673ffffffffffffffffffffffffffffffffffffffff16815260200190815260200160002060008773ffffffffffffffffffffffffffffffffffffffff1673ffffffffffffffffffffffffffffffffffffffff16815260200190815260200160002060008681526020019081526020016000208381548110612331576123306151d8565b5b906000526020600020906006020160020160006101000a81548173ffffffffffffffffffffffffffffffffffffffff021916908373ffffffffffffffffffffffffffffffffffffffff16021790555061275d565b600a60008773ffffffffffffffffffffffffffffffffffffffff1673ffffffffffffffffffffffffffffffffffffffff16815260200190815260200160002060008673ffffffffffffffffffffffffffffffffffffffff1673ffffffffffffffffffffffffffffffffffffffff16815260200190815260200160002060008581526020019081526020016000208281548110612424576124236151d8565b5b906000526020600020906006020160020160009054906101000a900473ffffffffffffffffffffffffffffffffffffffff1673ffffffffffffffffffffffffffffffffffffffff16600a60008873ffffffffffffffffffffffffffffffffffffffff1673ffffffffffffffffffffffffffffffffffffffff16815260200190815260200160002060008773ffffffffffffffffffffffffffffffffffffffff1673ffffffffffffffffffffffffffffffffffffffff1681526020019081526020016000206000868152602001908152602001600020838154811061250b5761250a6151d8565b5b9060005260206000209060060201600301828154811061252e5761252d6151d8565b5b9060005260206000200160009054906101000a900473ffffffffffffffffffffffffffffffffffffffff1673ffffffffffffffffffffffffffffffffffffffff160361275c57600a60008773ffffffffffffffffffffffffffffffffffffffff1673ffffffffffffffffffffffffffffffffffffffff16815260200190815260200160002060008673ffffffffffffffffffffffffffffffffffffffff1673ffffffffffffffffffffffffffffffffffffffff16815260200190815260200160002060008581526020019081526020016000208281548110612613576126126151d8565b5b90600052602060002090600602016003016001826126319190615afe565b81548110612642576126416151d8565b5b9060005260206000200160009054906101000a900473ffffffffffffffffffffffffffffffffffffffff16600a60008873ffffffffffffffffffffffffffffffffffffffff1673ffffffffffffffffffffffffffffffffffffffff16815260200190815260200160002060008773ffffffffffffffffffffffffffffffffffffffff1673ffffffffffffffffffffffffffffffffffffffff1681526020019081526020016000206000868152602001908152602001600020838154811061270c5761270b6151d8565b5b906000526020600020906006020160020160006101000a81548173ffffffffffffffffffffffffffffffffffffffff021916908373ffffffffffffffffffffffffffffffffffffffff1602179055505b5b808061276890615236565b915050612040565b505b5b5050505050565b6127826140df565b61278c600061415d565b565b6000829050600960008573ffffffffffffffffffffffffffffffffffffffff1673ffffffffffffffffffffffffffffffffffffffff16815260200190815260200160002060008473ffffffffffffffffffffffffffffffffffffffff1673ffffffffffffffffffffffffffffffffffffffff16815260200190815260200160002060009054906101000a900460ff166129b1578073ffffffffffffffffffffffffffffffffffffffff166370a08231856040518263ffffffff1660e01b815260040161285a9190614833565b602060405180830381865afa158015612877573d6000803e3d6000fd5b505050506040513d601f19601f8201168201806040525081019061289b9190615b32565b600860008673ffffffffffffffffffffffffffffffffffffffff1673ffffffffffffffffffffffffffffffffffffffff16815260200190815260200160002060008573ffffffffffffffffffffffffffffffffffffffff1673ffffffffffffffffffffffffffffffffffffffff168152602001908152602001600020819055506001600960008673ffffffffffffffffffffffffffffffffffffffff1673ffffffffffffffffffffffffffffffffffffffff16815260200190815260200160002060008573ffffffffffffffffffffffffffffffffffffffff1673ffffffffffffffffffffffffffffffffffffffff16815260200190815260200160002060006101000a81548160ff0219169083151502179055505b6000606483600860008873ffffffffffffffffffffffffffffffffffffffff1673ffffffffffffffffffffffffffffffffffffffff16815260200190815260200160002060008773ffffffffffffffffffffffffffffffffffffffff1673ffffffffffffffffffffffffffffffffffffffff16815260200190815260200160002054612a3d9190615b5f565b612a479190615bd0565b9050600061271060055483612a5c9190615b5f565b612a669190615bd0565b905060008183612a769190615aca565b90508373ffffffffffffffffffffffffffffffffffffffff166323b872dd8830856040518463ffffffff1660e01b8152600401612ab5939291906150f3565b6020604051808303816000875af1158015612ad4573d6000803e3d6000fd5b505050506040513d601f19601f82011682018060405250810190612af8919061513f565b508373ffffffffffffffffffffffffffffffffffffffff166323b872dd8833846040518463ffffffff1660e01b8152600401612b36939291906150f3565b6020604051808303816000875af1158015612b55573d6000803e3d6000fd5b505050506040513d601f19601f82011682018060405250810190612b79919061513f565b5050505050505050565b600160009054906101000a900473ffffffffffffffffffffffffffffffffffffffff1673ffffffffffffffffffffffffffffffffffffffff16630f1f8c05336040518263ffffffff1660e01b8152600401612bde9190614833565b602060405180830381865afa158015612bfb573d6000803e3d6000fd5b505050506040513d601f19601f82011682018060405250810190612c1f919061513f565b612c5e576040517f08c379a0000000000000000000000000000000000000000000000000000000008152600401612c5590615c73565b60405180910390fd5b600160009054906101000a900473ffffffffffffffffffffffffffffffffffffffff1673ffffffffffffffffffffffffffffffffffffffff166315b79630336040518263ffffffff1660e01b8152600401612cb99190614833565b602060405180830381865afa158015612cd6573d6000803e3d6000fd5b505050506040513d601f19601f82011682018060405250810190612cfa919061513f565b612d39576040517f08c379a0000000000000000000000000000000000000000000000000000000008152600401612d3090615d05565b60405180910390fd5b6000600160009054906101000a900473ffffffffffffffffffffffffffffffffffffffff1673ffffffffffffffffffffffffffffffffffffffff166320e4ab6a336040518263ffffffff1660e01b8152600401612d969190614833565b600060405180830381865afa158015612db3573d6000803e3d6000fd5b505050506040513d6000823e3d601f19601f82011682018060405250810190612ddc9190615d25565b9050600080600160009054906101000a900473ffffffffffffffffffffffffffffffffffffffff1673ffffffffffffffffffffffffffffffffffffffff166345bceabd336040518263ffffffff1660e01b8152600401612e3c9190614833565b600060405180830381865afa158015612e59573d6000803e3d6000fd5b505050506040513d6000823e3d601f19601f82011682018060405250810190612e829190615d6e565b9050600080600090505b855181101561316e5760005b868281518110612eab57612eaa6151d8565b5b60200260200101516060015151811015612fcb576000945060005b8651811015612f7057868181518110612ee257612ee16151d8565b5b602002602001015173ffffffffffffffffffffffffffffffffffffffff16888481518110612f1357612f126151d8565b5b6020026020010151606001518381518110612f3157612f306151d8565b5b602002602001015173ffffffffffffffffffffffffffffffffffffffff1603612f5d5760019550612f70565b8080612f6890615236565b915050612ec6565b506000151585151503612fb8576040517f08c379a0000000000000000000000000000000000000000000000000000000008152600401612faf90615e03565b60405180910390fd5b8080612fc390615236565b915050612e98565b5060005b8351811015613113576000600260009054906101000a900473ffffffffffffffffffffffffffffffffffffffff1673ffffffffffffffffffffffffffffffffffffffff16637f3d39bd86848151811061302b5761302a6151d8565b5b60200260200101516040518263ffffffff1660e01b815260040161304f9190614f51565b600060405180830381865afa15801561306c573d6000803e3d6000fd5b505050506040513d6000823e3d601f19601f820116820180604052508101906130959190615e23565b9091929350909150905050809150508073ffffffffffffffffffffffffffffffffffffffff168884815181106130ce576130cd6151d8565b5b60200260200101516020015173ffffffffffffffffffffffffffffffffffffffff16036130ff576001935050613113565b50808061310b90615236565b915050612fcf565b50600015158215150361315b576040517f08c379a000000000000000000000000000000000000000000000000000000000815260040161315290615f64565b60405180910390fd5b808061316690615236565b915050612e8c565b50600080880361323857600160009054906101000a900473ffffffffffffffffffffffffffffffffffffffff1673ffffffffffffffffffffffffffffffffffffffff1663de508c5b338c6040518363ffffffff1660e01b81526004016131d5929190615f84565b600060405180830381865afa1580156131f2573d6000803e3d6000fd5b505050506040513d6000823e3d601f19601f8201168201806040525081019061321b9190615fad565b9091929394509091929350909192509091509050809150506132ff565b600188036132fe57600160009054906101000a900473ffffffffffffffffffffffffffffffffffffffff1673ffffffffffffffffffffffffffffffffffffffff16630220044b338c8a6040518463ffffffff1660e01b815260040161329f939291906150f3565b600060405180830381865afa1580156132bc573d6000803e3d6000fd5b505050506040513d6000823e3d601f19601f820116820180604052508101906132e59190615fad565b9091929394509091929350909192509091509050809150505b5b600080600090505b875181101561334f57878181518110613323576133226151d8565b5b6020026020010151600001518261333a9190615afe565b9150808061334790615236565b915050613307565b506064811115613394576040517f08c379a000000000000000000000000000000000000000000000000000000000815260040161338b906160c8565b60405180910390fd5b8161343557600160009054906101000a900473ffffffffffffffffffffffffffffffffffffffff1673ffffffffffffffffffffffffffffffffffffffff166325cb763a338d8d8d8d876040518763ffffffff1660e01b81526004016133fe969594939291906160e8565b600060405180830381600087803b15801561341857600080fd5b505af115801561342c573d6000803e3d6000fd5b50505050613c06565b6000600660009054906101000a900473ffffffffffffffffffffffffffffffffffffffff16905060008a03613801576003548173ffffffffffffffffffffffffffffffffffffffff1663dd62ed3e33306040518363ffffffff1660e01b81526004016134a2929190615f84565b602060405180830381865afa1580156134bf573d6000803e3d6000fd5b505050506040513d601f19601f820116820180604052508101906134e39190615b32565b1015613524576040517f08c379a000000000000000000000000000000000000000000000000000000000815260040161351b9061619c565b60405180910390fd5b8073ffffffffffffffffffffffffffffffffffffffff166323b872dd33306003546040518463ffffffff1660e01b8152600401613563939291906150f3565b6020604051808303816000875af1158015613582573d6000803e3d6000fd5b505050506040513d601f19601f820116820180604052508101906135a6919061513f565b50600760003373ffffffffffffffffffffffffffffffffffffffff1673ffffffffffffffffffffffffffffffffffffffff16815260200190815260200160002060008d73ffffffffffffffffffffffffffffffffffffffff1673ffffffffffffffffffffffffffffffffffffffff168152602001908152602001600020600061362f9190614229565b60005b88518110156137fb57600760003373ffffffffffffffffffffffffffffffffffffffff1673ffffffffffffffffffffffffffffffffffffffff16815260200190815260200160002060008e73ffffffffffffffffffffffffffffffffffffffff1673ffffffffffffffffffffffffffffffffffffffff1681526020019081526020016000208982815181106136ca576136c96151d8565b5b602002602001015190806001815401808255809150506001900390600052602060002090600602016000909190919091506000820151816000015560208201518160010160006101000a81548173ffffffffffffffffffffffffffffffffffffffff021916908373ffffffffffffffffffffffffffffffffffffffff16021790555060408201518160020160006101000a81548173ffffffffffffffffffffffffffffffffffffffff021916908373ffffffffffffffffffffffffffffffffffffffff16021790555060608201518160030190805190602001906137af92919061424d565b5060808201518160040160006101000a81548160ff02191690831515021790555060a08201518160050190816137e591906154b7565b50505080806137f390615236565b915050613632565b50613c04565b60018a03613bc8576004548173ffffffffffffffffffffffffffffffffffffffff1663dd62ed3e33306040518363ffffffff1660e01b8152600401613847929190615f84565b602060405180830381865afa158015613864573d6000803e3d6000fd5b505050506040513d601f19601f820116820180604052508101906138889190615b32565b10156138c9576040517f08c379a00000000000000000000000000000000000000000000000000000000081526004016138c09061619c565b60405180910390fd5b8073ffffffffffffffffffffffffffffffffffffffff166323b872dd33306004546040518463ffffffff1660e01b8152600401613908939291906150f3565b6020604051808303816000875af1158015613927573d6000803e3d6000fd5b505050506040513d601f19601f8201168201806040525081019061394b919061513f565b50600a60003373ffffffffffffffffffffffffffffffffffffffff1673ffffffffffffffffffffffffffffffffffffffff16815260200190815260200160002060008d73ffffffffffffffffffffffffffffffffffffffff1673ffffffffffffffffffffffffffffffffffffffff16815260200190815260200160002060008a815260200190815260200160002060006139e59190614229565b60005b8851811015613bc257600a60003373ffffffffffffffffffffffffffffffffffffffff1673ffffffffffffffffffffffffffffffffffffffff16815260200190815260200160002060008e73ffffffffffffffffffffffffffffffffffffffff1673ffffffffffffffffffffffffffffffffffffffff16815260200190815260200160002060008b8152602001908152602001600020898281518110613a9157613a906151d8565b5b602002602001015190806001815401808255809150506001900390600052602060002090600602016000909190919091506000820151816000015560208201518160010160006101000a81548173ffffffffffffffffffffffffffffffffffffffff021916908373ffffffffffffffffffffffffffffffffffffffff16021790555060408201518160020160006101000a81548173ffffffffffffffffffffffffffffffffffffffff021916908373ffffffffffffffffffffffffffffffffffffffff1602179055506060820151816003019080519060200190613b7692919061424d565b5060808201518160040160006101000a81548160ff02191690831515021790555060a0820151816005019081613bac91906154b7565b5050508080613bba90615236565b9150506139e8565b50613c03565b6040517f08c379a0000000000000000000000000000000000000000000000000000000008152600401613bfa90616208565b60405180910390fd5b5b505b600160009054906101000a900473ffffffffffffffffffffffffffffffffffffffff1673ffffffffffffffffffffffffffffffffffffffff1663b69bd77f338d8b858e6040518663ffffffff1660e01b8152600401613c69959493929190616228565b600060405180830381600087803b158015613c8357600080fd5b505af1158015613c97573d6000803e3d6000fd5b505050505050505050505050505050565b60008060009054906101000a900473ffffffffffffffffffffffffffffffffffffffff16905090565b613cd96140df565b60008190508073ffffffffffffffffffffffffffffffffffffffff1663a9059cbb33856040518363ffffffff1660e01b8152600401613d1992919061627b565b6020604051808303816000875af1158015613d38573d6000803e3d6000fd5b505050506040513d601f19601f82011682018060405250810190613d5c919061513f565b50505050565b60035481565b600a6020528360005260406000206020528260005260406000206020528160005260406000208181548110613d9c57600080fd5b90600052602060002090600602016000935093505050508060000154908060010160009054906101000a900473ffffffffffffffffffffffffffffffffffffffff16908060020160009054906101000a900473ffffffffffffffffffffffffffffffffffffffff16908060040160009054906101000a900460ff1690806005018054613e27906152e4565b80601f0160208091040260200160405190810160405280929190818152602001828054613e53906152e4565b8015613ea05780601f10613e7557610100808354040283529160200191613ea0565b820191906000526020600020905b815481529060010190602001808311613e8357829003601f168201915b5050505050905085565b600160009054906101000a900473ffffffffffffffffffffffffffffffffffffffff1681565b60076020528260005260406000206020528160005260406000208181548110613ef857600080fd5b906000526020600020906006020160009250925050508060000154908060010160009054906101000a900473ffffffffffffffffffffffffffffffffffffffff16908060020160009054906101000a900473ffffffffffffffffffffffffffffffffffffffff16908060040160009054906101000a900460ff1690806005018054613f82906152e4565b80601f0160208091040260200160405190810160405280929190818152602001828054613fae906152e4565b8015613ffb5780601f10613fd057610100808354040283529160200191613ffb565b820191906000526020600020905b815481529060010190602001808311613fde57829003601f168201915b5050505050905085565b60045481565b60055481565b6008602052816000526040600020602052806000526040600020600091509150505481565b61403e6140df565b600073ffffffffffffffffffffffffffffffffffffffff168173ffffffffffffffffffffffffffffffffffffffff16036140ad576040517f08c379a00000000000000000000000000000000000000000000000000000000081526004016140a490616316565b60405180910390fd5b6140b68161415d565b50565b600260009054906101000a900473ffffffffffffffffffffffffffffffffffffffff1681565b6140e7614221565b73ffffffffffffffffffffffffffffffffffffffff16614105613ca8565b73ffffffffffffffffffffffffffffffffffffffff161461415b576040517f08c379a000000000000000000000000000000000000000000000000000000000815260040161415290616382565b60405180910390fd5b565b60008060009054906101000a900473ffffffffffffffffffffffffffffffffffffffff169050816000806101000a81548173ffffffffffffffffffffffffffffffffffffffff021916908373ffffffffffffffffffffffffffffffffffffffff1602179055508173ffffffffffffffffffffffffffffffffffffffff168173ffffffffffffffffffffffffffffffffffffffff167f8be0079c531659141344cd1fd0a4f28419497f9722a3daafe3b4186f6b6457e060405160405180910390a35050565b600033905090565b508054600082556006029060005260206000209081019061424a91906142d7565b50565b8280548282559060005260206000209081019282156142c6579160200282015b828111156142c55782518260006101000a81548173ffffffffffffffffffffffffffffffffffffffff021916908373ffffffffffffffffffffffffffffffffffffffff1602179055509160200191906001019061426d565b5b5090506142d39190614378565b5090565b5b80821115614374576000808201600090556001820160006101000a81549073ffffffffffffffffffffffffffffffffffffffff02191690556002820160006101000a81549073ffffffffffffffffffffffffffffffffffffffff02191690556003820160006143479190614395565b6004820160006101000a81549060ff021916905560058201600061436b91906143b6565b506006016142d8565b5090565b5b80821115614391576000816000905550600101614379565b5090565b50805460008255906000526020600020908101906143b39190614378565b50565b5080546143c2906152e4565b6000825580601f106143d457506143f3565b601f0160209004906000526020600020908101906143f29190614378565b5b50565b6000604051905090565b600080fd5b600080fd5b600073ffffffffffffffffffffffffffffffffffffffff82169050919050565b60006144358261440a565b9050919050565b6144458161442a565b811461445057600080fd5b50565b6000813590506144628161443c565b92915050565b6000819050919050565b61447b81614468565b811461448657600080fd5b50565b60008135905061449881614472565b92915050565b600080600080608085870312156144b8576144b7614400565b5b60006144c687828801614453565b94505060206144d787828801614489565b93505060406144e887828801614489565b92505060606144f987828801614489565b91505092959194509250565b60008060006060848603121561451e5761451d614400565b5b600061452c86828701614453565b935050602061453d86828701614453565b925050604061454e86828701614489565b9150509250925092565b6000806000806080858703121561457257614571614400565b5b600061458087828801614453565b945050602061459187828801614453565b93505060406145a287828801614489565b92505060606145b387828801614489565b91505092959194509250565b600080604083850312156145d6576145d5614400565b5b60006145e485828601614453565b92505060206145f585828601614453565b9150509250929050565b60008115159050919050565b614614816145ff565b82525050565b600060208201905061462f600083018461460b565b92915050565b600080fd5b600080fd5b6000601f19601f8301169050919050565b7f4e487b7100000000000000000000000000000000000000000000000000000000600052604160045260246000fd5b6146888261463f565b810181811067ffffffffffffffff821117156146a7576146a6614650565b5b80604052505050565b60006146ba6143f6565b90506146c6828261467f565b919050565b600067ffffffffffffffff8211156146e6576146e5614650565b5b6146ef8261463f565b9050602081019050919050565b82818337600083830152505050565b600061471e614719846146cb565b6146b0565b90508281526020810184848401111561473a5761473961463a565b5b6147458482856146fc565b509392505050565b600082601f83011261476257614761614635565b5b813561477284826020860161470b565b91505092915050565b60008060008060008060c0878903121561479857614797614400565b5b60006147a689828a01614453565b96505060206147b789828a01614453565b95505060406147c889828a01614489565b94505060606147d989828a01614489565b935050608087013567ffffffffffffffff8111156147fa576147f9614405565b5b61480689828a0161474d565b92505060a061481789828a01614489565b9150509295509295509295565b61482d8161442a565b82525050565b60006020820190506148486000830184614824565b92915050565b600081519050919050565b600082825260208201905092915050565b6000819050602082019050919050565b61488381614468565b82525050565b6148928161442a565b82525050565b600081519050919050565b600082825260208201905092915050565b6000819050602082019050919050565b60006148d08383614889565b60208301905092915050565b6000602082019050919050565b60006148f482614898565b6148fe81856148a3565b9350614909836148b4565b8060005b8381101561493a57815161492188826148c4565b975061492c836148dc565b92505060018101905061490d565b5085935050505092915050565b614950816145ff565b82525050565b600081519050919050565b600082825260208201905092915050565b60005b83811015614990578082015181840152602081019050614975565b60008484015250505050565b60006149a782614956565b6149b18185614961565b93506149c1818560208601614972565b6149ca8161463f565b840191505092915050565b600060c0830160008301516149ed600086018261487a565b506020830151614a006020860182614889565b506040830151614a136040860182614889565b5060608301518482036060860152614a2b82826148e9565b9150506080830151614a406080860182614947565b5060a083015184820360a0860152614a58828261499c565b9150508091505092915050565b6000614a7183836149d5565b905092915050565b6000602082019050919050565b6000614a918261484e565b614a9b8185614859565b935083602082028501614aad8561486a565b8060005b85811015614ae95784840389528151614aca8582614a65565b9450614ad583614a79565b925060208a01995050600181019050614ab1565b50829750879550505050505092915050565b60006020820190508181036000830152614b158184614a86565b905092915050565b600080600080600060a08688031215614b3957614b38614400565b5b6000614b4788828901614453565b9550506020614b5888828901614453565b9450506040614b6988828901614489565b9350506060614b7a88828901614489565b9250506080614b8b88828901614489565b9150509295509295909350565b600067ffffffffffffffff821115614bb357614bb2614650565b5b602082029050602081019050919050565b600080fd5b600080fd5b600080fd5b600067ffffffffffffffff821115614bee57614bed614650565b5b602082029050602081019050919050565b6000614c12614c0d84614bd3565b6146b0565b90508083825260208201905060208402830185811115614c3557614c34614bc4565b5b835b81811015614c5e5780614c4a8882614453565b845260208401935050602081019050614c37565b5050509392505050565b600082601f830112614c7d57614c7c614635565b5b8135614c8d848260208601614bff565b91505092915050565b614c9f816145ff565b8114614caa57600080fd5b50565b600081359050614cbc81614c96565b92915050565b600060c08284031215614cd857614cd7614bc9565b5b614ce260c06146b0565b90506000614cf284828501614489565b6000830152506020614d0684828501614453565b6020830152506040614d1a84828501614453565b604083015250606082013567ffffffffffffffff811115614d3e57614d3d614bce565b5b614d4a84828501614c68565b6060830152506080614d5e84828501614cad565b60808301525060a082013567ffffffffffffffff811115614d8257614d81614bce565b5b614d8e8482850161474d565b60a08301525092915050565b6000614dad614da884614b98565b6146b0565b90508083825260208201905060208402830185811115614dd057614dcf614bc4565b5b835b81811015614e1757803567ffffffffffffffff811115614df557614df4614635565b5b808601614e028982614cc2565b85526020850194505050602081019050614dd2565b5050509392505050565b600082601f830112614e3657614e35614635565b5b8135614e46848260208601614d9a565b91505092915050565b600080600080600060a08688031215614e6b57614e6a614400565b5b6000614e7988828901614453565b955050602086013567ffffffffffffffff811115614e9a57614e99614405565b5b614ea68882890161474d565b9450506040614eb788828901614489565b9350506060614ec888828901614489565b925050608086013567ffffffffffffffff811115614ee957614ee8614405565b5b614ef588828901614e21565b9150509295509295909350565b60008060408385031215614f1957614f18614400565b5b6000614f2785828601614489565b9250506020614f3885828601614453565b9150509250929050565b614f4b81614468565b82525050565b6000602082019050614f666000830184614f42565b92915050565b600082825260208201905092915050565b6000614f8882614956565b614f928185614f6c565b9350614fa2818560208601614972565b614fab8161463f565b840191505092915050565b600060a082019050614fcb6000830188614f42565b614fd86020830187614824565b614fe56040830186614824565b614ff2606083018561460b565b81810360808301526150048184614f7d565b90509695505050505050565b6000819050919050565b600061503561503061502b8461440a565b615010565b61440a565b9050919050565b60006150478261501a565b9050919050565b60006150598261503c565b9050919050565b6150698161504e565b82525050565b60006020820190506150846000830184615060565b92915050565b6000602082840312156150a05761509f614400565b5b60006150ae84828501614453565b91505092915050565b60006150c28261503c565b9050919050565b6150d2816150b7565b82525050565b60006020820190506150ed60008301846150c9565b92915050565b60006060820190506151086000830186614824565b6151156020830185614824565b6151226040830184614f42565b949350505050565b60008151905061513981614c96565b92915050565b60006020828403121561515557615154614400565b5b60006151638482850161512a565b91505092915050565b7f636c61696d206973206e6f7420616c6c6f7765642e0000000000000000000000600082015250565b60006151a2601583614f6c565b91506151ad8261516c565b602082019050919050565b600060208201905081810360008301526151d181615195565b9050919050565b7f4e487b7100000000000000000000000000000000000000000000000000000000600052603260045260246000fd5b7f4e487b7100000000000000000000000000000000000000000000000000000000600052601160045260246000fd5b600061524182614468565b91507fffffffffffffffffffffffffffffffffffffffffffffffffffffffffffffffff820361527357615272615207565b5b600182019050919050565b60006060820190506152936000830186614f42565b6152a06020830185614f42565b6152ad6040830184614f42565b949350505050565b7f4e487b7100000000000000000000000000000000000000000000000000000000600052602260045260246000fd5b600060028204905060018216806152fc57607f821691505b60208210810361530f5761530e6152b5565b5b50919050565b60008190508160005260206000209050919050565b60006020601f8301049050919050565b600082821b905092915050565b6000600883026153777fffffffffffffffffffffffffffffffffffffffffffffffffffffffffffffffff8261533a565b615381868361533a565b95508019841693508086168417925050509392505050565b60006153b46153af6153aa84614468565b615010565b614468565b9050919050565b6000819050919050565b6153ce83615399565b6153e26153da826153bb565b848454615347565b825550505050565b600090565b6153f76153ea565b6154028184846153c5565b505050565b5b818110156154265761541b6000826153ef565b600181019050615408565b5050565b601f82111561546b5761543c81615315565b6154458461532a565b81016020851015615454578190505b6154686154608561532a565b830182615407565b50505b505050565b600082821c905092915050565b600061548e60001984600802615470565b1980831691505092915050565b60006154a7838361547d565b9150826002028217905092915050565b6154c082614956565b67ffffffffffffffff8111156154d9576154d8614650565b5b6154e382546152e4565b6154ee82828561542a565b600060209050601f831160018114615521576000841561550f578287015190505b615519858261549b565b865550615581565b601f19841661552f86615315565b60005b8281101561555757848901518255600182019150602085019450602081019050615532565b868310156155745784890151615570601f89168261547d565b8355505b6001600288020188555050505b505050505050565b600061559c615597846146cb565b6146b0565b9050828152602081018484840111156155b8576155b761463a565b5b6155c3848285614972565b509392505050565b600082601f8301126155e0576155df614635565b5b81516155f0848260208601615589565b91505092915050565b6000815190506156088161443c565b92915050565b600061562161561c84614bd3565b6146b0565b9050808382526020820190506020840283018581111561564457615643614bc4565b5b835b8181101561566d578061565988826155f9565b845260208401935050602081019050615646565b5050509392505050565b600082601f83011261568c5761568b614635565b5b815161569c84826020860161560e565b91505092915050565b600067ffffffffffffffff8211156156c0576156bf614650565b5b602082029050602081019050919050565b6000815190506156e081614472565b92915050565b60006156f96156f4846156a5565b6146b0565b9050808382526020820190506020840283018581111561571c5761571b614bc4565b5b835b81811015615745578061573188826156d1565b84526020840193505060208101905061571e565b5050509392505050565b600082601f83011261576457615763614635565b5b81516157748482602086016156e6565b91505092915050565b60006101a0828403121561579457615793614bc9565b5b61579f6101a06146b0565b9050600082015167ffffffffffffffff8111156157bf576157be614bce565b5b6157cb848285016155cb565b600083015250602082015167ffffffffffffffff8111156157ef576157ee614bce565b5b6157fb848285016155cb565b602083015250604082015167ffffffffffffffff81111561581f5761581e614bce565b5b61582b848285016155cb565b604083015250606082015167ffffffffffffffff81111561584f5761584e614bce565b5b61585b848285016155cb565b606083015250608061586f8482850161512a565b60808301525060a06158838482850161512a565b60a08301525060c06158978482850161512a565b60c08301525060e06158ab848285016155f9565b60e08301525061010082015167ffffffffffffffff8111156158d0576158cf614bce565b5b6158dc84828501615677565b6101008301525061012082015167ffffffffffffffff81111561590257615901614bce565b5b61590e8482850161574f565b61012083015250610140615924848285016156d1565b6101408301525061016061593a848285016156d1565b61016083015250610180615950848285016156d1565b6101808301525092915050565b60006020828403121561597357615972614400565b5b600082015167ffffffffffffffff81111561599157615990614405565b5b61599d8482850161577d565b91505092915050565b7f546865207265636f766572792061646472657373206f72206f776e657220616460008201527f647265737320697320696e636f72726563742100000000000000000000000000602082015250565b6000615a02603383614f6c565b9150615a0d826159a6565b604082019050919050565b60006020820190508181036000830152615a31816159f5565b9050919050565b7f596f7572206173736574732061726520616c726561647920636c61696d65642060008201527f627920746865206e6f6d696e65652e0000000000000000000000000000000000602082015250565b6000615a94602f83614f6c565b9150615a9f82615a38565b604082019050919050565b60006020820190508181036000830152615ac381615a87565b9050919050565b6000615ad582614468565b9150615ae083614468565b9250828203905081811115615af857615af7615207565b5b92915050565b6000615b0982614468565b9150615b1483614468565b9250828201905080821115615b2c57615b2b615207565b5b92915050565b600060208284031215615b4857615b47614400565b5b6000615b56848285016156d1565b91505092915050565b6000615b6a82614468565b9150615b7583614468565b9250828202615b8381614468565b91508282048414831517615b9a57615b99615207565b5b5092915050565b7f4e487b7100000000000000000000000000000000000000000000000000000000600052601260045260246000fd5b6000615bdb82614468565b9150615be683614468565b925082615bf657615bf5615ba1565b5b828204905092915050565b7f596f75206d757374206669727374207369676e20757020666f7220616e20616360008201527f636f756e742e0000000000000000000000000000000000000000000000000000602082015250565b6000615c5d602683614f6c565b9150615c6882615c01565b604082019050919050565b60006020820190508181036000830152615c8c81615c50565b9050919050565b7f596f757220656d61696c20686173206e6f7420796574206265656e2076616c6960008201527f64617465642e0000000000000000000000000000000000000000000000000000602082015250565b6000615cef602683614f6c565b9150615cfa82615c93565b604082019050919050565b60006020820190508181036000830152615d1e81615ce2565b9050919050565b600060208284031215615d3b57615d3a614400565b5b600082015167ffffffffffffffff811115615d5957615d58614405565b5b615d6584828501615677565b91505092915050565b600060208284031215615d8457615d83614400565b5b600082015167ffffffffffffffff811115615da257615da1614405565b5b615dae8482850161574f565b91505092915050565b7f4f6f707321206e6f6d696e656573206973206e6f742061646465642100000000600082015250565b6000615ded601c83614f6c565b9150615df882615db7565b602082019050919050565b60006020820190508181036000830152615e1c81615de0565b9050919050565b600080600080600060a08688031215615e3f57615e3e614400565b5b6000615e4d888289016156d1565b9550506020615e5e888289016155f9565b945050604086015167ffffffffffffffff811115615e7f57615e7e614405565b5b615e8b888289016155cb565b935050606086015167ffffffffffffffff811115615eac57615eab614405565b5b615eb8888289016155cb565b925050608086015167ffffffffffffffff811115615ed957615ed8614405565b5b615ee5888289016155cb565b9150509295509295909350565b7f4f6f7073212063686172697479206973206e6f742077686974652d6c6973746560008201527f642e000000000000000000000000000000000000000000000000000000000000602082015250565b6000615f4e602283614f6c565b9150615f5982615ef2565b604082019050919050565b60006020820190508181036000830152615f7d81615f41565b9050919050565b6000604082019050615f996000830185614824565b615fa66020830184614824565b9392505050565b60008060008060008060c08789031215615fca57615fc9614400565b5b6000615fd889828a016155f9565b965050602087015167ffffffffffffffff811115615ff957615ff8614405565b5b61600589828a016155cb565b955050604061601689828a016156d1565b945050606061602789828a016156d1565b935050608061603889828a016156d1565b92505060a061604989828a0161512a565b9150509295509295509295565b7f4f6f70732120596f752063616e206f6e6c7920616c6c6f63617465206120313060008201527f30252073686172652e0000000000000000000000000000000000000000000000602082015250565b60006160b2602983614f6c565b91506160bd82616056565b604082019050919050565b600060208201905081810360008301526160e1816160a5565b9050919050565b600060c0820190506160fd6000830189614824565b61610a6020830188614824565b818103604083015261611c8187614f7d565b905061612b6060830186614f42565b6161386080830185614f42565b61614560a0830184614f42565b979650505050505050565b7f616c6c6f77616e6365206973206e6f7420656e6f756768210000000000000000600082015250565b6000616186601883614f6c565b915061619182616150565b602082019050919050565b600060208201905081810360008301526161b581616179565b9050919050565b7f63617465676f7279206973206e6f74206d61746368696e672e00000000000000600082015250565b60006161f2601983614f6c565b91506161fd826161bc565b602082019050919050565b60006020820190508181036000830152616221816161e5565b9050919050565b600060a08201905061623d6000830188614824565b61624a6020830187614824565b6162576040830186614f42565b6162646060830185614f42565b6162716080830184614f42565b9695505050505050565b60006040820190506162906000830185614824565b61629d6020830184614f42565b9392505050565b7f4f776e61626c653a206e6577206f776e657220697320746865207a65726f206160008201527f6464726573730000000000000000000000000000000000000000000000000000602082015250565b6000616300602683614f6c565b915061630b826162a4565b604082019050919050565b6000602082019050818103600083015261632f816162f3565b9050919050565b7f4f776e61626c653a2063616c6c6572206973206e6f7420746865206f776e6572600082015250565b600061636c602083614f6c565b915061637782616336565b602082019050919050565b6000602082019050818103600083015261639b8161635f565b905091905056fea26469706673582212204cae5f849e1ff7d30f3960560dcf7d3a7eb55d21ea8b1009689be3588e8c89ec64736f6c63430008110033",
  "linkReferences": {},
  "deployedLinkReferences": {}
}