{
  "_format": "hh-sol-artifact-1",
  "contractName": "MultiplePriorityNominee",
  "sourceName": "contracts/MultiplePriorityNominee.sol",
  "abi": [
    {
      "inputs": [
        {
          "internalType": "address",
          "name": "_inheritokensAddress",
          "type": "address"
        }
      ],
      "stateMutability": "nonpayable",
      "type": "constructor"
    },
    {
      "anonymous": false,
      "inputs": [
        {
          "indexed": true,
          "internalType": "address",
          "name": "_owner",
          "type": "address"
        },
        {
          "indexed": true,
          "internalType": "address",
          "name": "_nominee",
          "type": "address"
        },
        {
          "indexed": true,
          "internalType": "address",
          "name": "_tokenAddress",
          "type": "address"
        },
        {
          "indexed": false,
          "internalType": "uint256",
          "name": "_tokenId",
          "type": "uint256"
        },
        {
          "indexed": false,
          "internalType": "uint256",
          "name": "_amount",
          "type": "uint256"
        }
      ],
      "name": "Claimed",
      "type": "event"
    },
    {
      "anonymous": false,
      "inputs": [
        {
          "indexed": true,
          "internalType": "address",
          "name": "previousOwner",
          "type": "address"
        },
        {
          "indexed": true,
          "internalType": "address",
          "name": "newOwner",
          "type": "address"
        }
      ],
      "name": "OwnershipTransferred",
      "type": "event"
    },
    {
      "anonymous": false,
      "inputs": [
        {
          "indexed": true,
          "internalType": "address",
          "name": "_owner",
          "type": "address"
        },
        {
          "indexed": false,
          "internalType": "address",
          "name": "_tokenAddress",
          "type": "address"
        },
        {
          "indexed": false,
          "internalType": "uint256",
          "name": "_tokenId",
          "type": "uint256"
        }
      ],
      "name": "TokensAssigned",
      "type": "event"
    },
    {
      "inputs": [
        {
          "internalType": "address",
          "name": "_tokenAddress",
          "type": "address"
        },
        {
          "internalType": "string",
          "name": "_tokenName",
          "type": "string"
        },
        {
          "internalType": "uint256",
          "name": "_category",
          "type": "uint256"
        },
        {
          "internalType": "uint256",
          "name": "_tokenId",
          "type": "uint256"
        },
        {
          "components": [
            {
              "internalType": "uint256",
              "name": "share",
              "type": "uint256"
            },
            {
              "internalType": "address[]",
              "name": "nominee",
              "type": "address[]"
            },
            {
              "internalType": "bool[]",
              "name": "isNotAvailable",
              "type": "bool[]"
            },
            {
              "internalType": "bool[]",
              "name": "isClaimed",
              "type": "bool[]"
            }
          ],
          "internalType": "struct MultiplePriorityNominee.MultiplePriority[]",
          "name": "data",
          "type": "tuple[]"
        }
      ],
      "name": "assignTokensToMultipleNominees",
      "outputs": [],
      "stateMutability": "nonpayable",
      "type": "function"
    },
    {
      "inputs": [
        {
          "internalType": "address",
          "name": "_tokenAddress",
          "type": "address"
        }
      ],
      "name": "changeChargeTokenAddress",
      "outputs": [],
      "stateMutability": "nonpayable",
      "type": "function"
    },
    {
      "inputs": [
        {
          "internalType": "uint256",
          "name": "_charge",
          "type": "uint256"
        }
      ],
      "name": "changeNFTCharge",
      "outputs": [],
      "stateMutability": "nonpayable",
      "type": "function"
    },
    {
      "inputs": [
        {
          "internalType": "uint256",
          "name": "_amount",
          "type": "uint256"
        }
      ],
      "name": "changePercentage",
      "outputs": [],
      "stateMutability": "nonpayable",
      "type": "function"
    },
    {
      "inputs": [
        {
          "internalType": "uint256",
          "name": "_charge",
          "type": "uint256"
        }
      ],
      "name": "changeTokenCharge",
      "outputs": [],
      "stateMutability": "nonpayable",
      "type": "function"
    },
    {
      "inputs": [
        {
          "internalType": "address",
          "name": "_owner",
          "type": "address"
        },
        {
          "internalType": "address",
          "name": "_tokenAddress",
          "type": "address"
        },
        {
          "internalType": "uint256",
          "name": "_amount",
          "type": "uint256"
        },
        {
          "internalType": "uint256",
          "name": "_tokenId",
          "type": "uint256"
        },
        {
          "internalType": "uint256",
          "name": "_category",
          "type": "uint256"
        }
      ],
      "name": "claim",
      "outputs": [],
      "stateMutability": "nonpayable",
      "type": "function"
    },
    {
      "inputs": [
        {
          "internalType": "address",
          "name": "_owner",
          "type": "address"
        },
        {
          "internalType": "address",
          "name": "_tokenAddress",
          "type": "address"
        },
        {
          "internalType": "uint256",
          "name": "_tokenId",
          "type": "uint256"
        },
        {
          "internalType": "uint256",
          "name": "_category",
          "type": "uint256"
        }
      ],
      "name": "getAllStructs",
      "outputs": [
        {
          "components": [
            {
              "internalType": "uint256",
              "name": "share",
              "type": "uint256"
            },
            {
              "internalType": "address[]",
              "name": "nominee",
              "type": "address[]"
            },
            {
              "internalType": "bool[]",
              "name": "isNotAvailable",
              "type": "bool[]"
            },
            {
              "internalType": "bool[]",
              "name": "isClaimed",
              "type": "bool[]"
            }
          ],
          "internalType": "struct MultiplePriorityNominee.MultiplePriority[]",
          "name": "",
          "type": "tuple[]"
        }
      ],
      "stateMutability": "view",
      "type": "function"
    },
    {
      "inputs": [],
      "name": "getValues",
      "outputs": [
        {
          "internalType": "address",
          "name": "",
          "type": "address"
        },
        {
          "internalType": "uint256",
          "name": "",
          "type": "uint256"
        },
        {
          "internalType": "uint256",
          "name": "",
          "type": "uint256"
        },
        {
          "internalType": "uint256",
          "name": "",
          "type": "uint256"
        }
      ],
      "stateMutability": "view",
      "type": "function"
    },
    {
      "inputs": [],
      "name": "inheritokens",
      "outputs": [
        {
          "internalType": "contract Inheritokens",
          "name": "",
          "type": "address"
        }
      ],
      "stateMutability": "view",
      "type": "function"
    },
    {
      "inputs": [],
      "name": "inheritokensAddress",
      "outputs": [
        {
          "internalType": "address",
          "name": "",
          "type": "address"
        }
      ],
      "stateMutability": "view",
      "type": "function"
    },
    {
      "inputs": [],
      "name": "owner",
      "outputs": [
        {
          "internalType": "address",
          "name": "",
          "type": "address"
        }
      ],
      "stateMutability": "view",
      "type": "function"
    },
    {
      "inputs": [
        {
          "internalType": "address",
          "name": "",
          "type": "address"
        },
        {
          "internalType": "address",
          "name": "",
          "type": "address"
        },
        {
          "internalType": "uint256",
          "name": "",
          "type": "uint256"
        },
        {
          "internalType": "uint256",
          "name": "",
          "type": "uint256"
        }
      ],
      "name": "ownerToNFTToStruct",
      "outputs": [
        {
          "internalType": "uint256",
          "name": "share",
          "type": "uint256"
        }
      ],
      "stateMutability": "view",
      "type": "function"
    },
    {
      "inputs": [
        {
          "internalType": "address",
          "name": "",
          "type": "address"
        },
        {
          "internalType": "address",
          "name": "",
          "type": "address"
        },
        {
          "internalType": "uint256",
          "name": "",
          "type": "uint256"
        }
      ],
      "name": "ownerToTokenToStruct",
      "outputs": [
        {
          "internalType": "uint256",
          "name": "share",
          "type": "uint256"
        }
      ],
      "stateMutability": "view",
      "type": "function"
    },
    {
      "inputs": [
        {
          "internalType": "address",
          "name": "_owner",
          "type": "address"
        },
        {
          "internalType": "address",
          "name": "_tokenAddress",
          "type": "address"
        },
        {
          "internalType": "uint256",
          "name": "_amount",
          "type": "uint256"
        },
        {
          "internalType": "uint256",
          "name": "_tokenId",
          "type": "uint256"
        },
        {
          "internalType": "uint256",
          "name": "_category",
          "type": "uint256"
        }
      ],
      "name": "recoveryClaim",
      "outputs": [],
      "stateMutability": "nonpayable",
      "type": "function"
    },
    {
      "inputs": [],
      "name": "renounceOwnership",
      "outputs": [],
      "stateMutability": "nonpayable",
      "type": "function"
    },
    {
      "inputs": [
        {
          "internalType": "address",
          "name": "newOwner",
          "type": "address"
        }
      ],
      "name": "transferOwnership",
      "outputs": [],
      "stateMutability": "nonpayable",
      "type": "function"
    },
    {
      "inputs": [
        {
          "internalType": "uint256",
          "name": "_amount",
          "type": "uint256"
        },
        {
          "internalType": "address",
          "name": "_tokenAddress",
          "type": "address"
        }
      ],
      "name": "withdrawFromContract",
      "outputs": [],
      "stateMutability": "payable",
      "type": "function"
    }
  ],
  "bytecode": "0x6080604052620f4240600355624c4b40600455600160055573e9dce89b076ba6107bb64ef30678efec11939234600660006101000a81548173ffffffffffffffffffffffffffffffffffffffff021916908373ffffffffffffffffffffffffffffffffffffffff1602179055503480156200007957600080fd5b50604051620045cd380380620045cd83398181016040528101906200009f9190620002a0565b620000bf620000b36200016a60201b60201c565b6200017260201b60201c565b80600160006101000a81548173ffffffffffffffffffffffffffffffffffffffff021916908373ffffffffffffffffffffffffffffffffffffffff160217905550600160009054906101000a900473ffffffffffffffffffffffffffffffffffffffff16600260006101000a81548173ffffffffffffffffffffffffffffffffffffffff021916908373ffffffffffffffffffffffffffffffffffffffff16021790555050620002d2565b600033905090565b60008060009054906101000a900473ffffffffffffffffffffffffffffffffffffffff169050816000806101000a81548173ffffffffffffffffffffffffffffffffffffffff021916908373ffffffffffffffffffffffffffffffffffffffff1602179055508173ffffffffffffffffffffffffffffffffffffffff168173ffffffffffffffffffffffffffffffffffffffff167f8be0079c531659141344cd1fd0a4f28419497f9722a3daafe3b4186f6b6457e060405160405180910390a35050565b600080fd5b600073ffffffffffffffffffffffffffffffffffffffff82169050919050565b600062000268826200023b565b9050919050565b6200027a816200025b565b81146200028657600080fd5b50565b6000815190506200029a816200026f565b92915050565b600060208284031215620002b957620002b862000236565b5b6000620002c98482850162000289565b91505092915050565b6142eb80620002e26000396000f3fe6080604052600436106100fe5760003560e01c80638df6132511610095578063b67f82dc11610064578063b67f82dc14610301578063be27c3fe1461032a578063bea7d6ac14610355578063d41ab7b514610392578063f2fde38b146103bb576100fe565b80638df61325146102565780639605f5051461027f5780639b785daa1461029b578063a64ad61f146102c4576100fe565b80635128eeef116100d15780635128eeef146101ae5780635cdb4ce4146101d7578063715018a6146102145780638da5cb5b1461022b576100fe565b806319eb4a9014610103578063397e2f1a146101315780633c8249191461015a57806346f1715214610183575b600080fd5b34801561010f57600080fd5b506101186103e4565b6040516101289493929190612a4d565b60405180910390f35b34801561013d57600080fd5b5061015860048036038101906101539190612fbe565b610424565b005b34801561016657600080fd5b50610181600480360381019061017c9190613071565b611150565b005b34801561018f57600080fd5b50610198611bbf565b6040516101a591906130ec565b60405180910390f35b3480156101ba57600080fd5b506101d560048036038101906101d09190613107565b611be5565b005b3480156101e357600080fd5b506101fe60048036038101906101f99190613134565b611bef565b60405161020b9190613459565b60405180910390f35b34801561022057600080fd5b506102296120e4565b005b34801561023757600080fd5b506102406120f8565b60405161024d91906130ec565b60405180910390f35b34801561026257600080fd5b5061027d60048036038101906102789190613107565b612121565b005b6102996004803603810190610294919061347b565b61212b565b005b3480156102a757600080fd5b506102c260048036038101906102bd91906134bb565b6121bc565b005b3480156102d057600080fd5b506102eb60048036038101906102e69190613134565b612200565b6040516102f891906134e8565b60405180910390f35b34801561030d57600080fd5b5061032860048036038101906103239190613071565b612255565b005b34801561033657600080fd5b5061033f6125a5565b60405161034c9190613562565b60405180910390f35b34801561036157600080fd5b5061037c6004803603810190610377919061357d565b6125cb565b60405161038991906134e8565b60405180910390f35b34801561039e57600080fd5b506103b960048036038101906103b49190613107565b612613565b005b3480156103c757600080fd5b506103e260048036038101906103dd91906134bb565b61261d565b005b600080600080600660009054906101000a900473ffffffffffffffffffffffffffffffffffffffff16600354600454600554935093509350935090919293565b6000600260009054906101000a900473ffffffffffffffffffffffffffffffffffffffff1673ffffffffffffffffffffffffffffffffffffffff16630f1f8c05336040518263ffffffff1660e01b815260040161048191906130ec565b602060405180830381865afa15801561049e573d6000803e3d6000fd5b505050506040513d601f19601f820116820180604052508101906104c291906135e5565b90506000600260009054906101000a900473ffffffffffffffffffffffffffffffffffffffff1673ffffffffffffffffffffffffffffffffffffffff166315b79630336040518263ffffffff1660e01b815260040161052191906130ec565b602060405180830381865afa15801561053e573d6000803e3d6000fd5b505050506040513d601f19601f8201168201806040525081019061056291906135e5565b9050816105a4576040517f08c379a000000000000000000000000000000000000000000000000000000000815260040161059b9061366f565b60405180910390fd5b806105e4576040517f08c379a00000000000000000000000000000000000000000000000000000000081526004016105db906136db565b60405180910390fd5b6000600260009054906101000a900473ffffffffffffffffffffffffffffffffffffffff1673ffffffffffffffffffffffffffffffffffffffff166320e4ab6a336040518263ffffffff1660e01b815260040161064191906130ec565b600060405180830381865afa15801561065e573d6000803e3d6000fd5b505050506040513d6000823e3d601f19601f8201168201806040525081019061068791906137a7565b9050600080600090505b85518110156107e45760005b8682815181106106b0576106af6137f0565b5b602002602001015160200151518110156107d0576000925060005b8451811015610775578481815181106106e7576106e66137f0565b5b602002602001015173ffffffffffffffffffffffffffffffffffffffff16888481518110610718576107176137f0565b5b6020026020010151602001518381518110610736576107356137f0565b5b602002602001015173ffffffffffffffffffffffffffffffffffffffff16036107625760019350610775565b808061076d9061384e565b9150506106cb565b5060001515831515036107bd576040517f08c379a00000000000000000000000000000000000000000000000000000000081526004016107b490613908565b60405180910390fd5b80806107c89061384e565b91505061069d565b5080806107dc9061384e565b915050610691565b506000600260009054906101000a900473ffffffffffffffffffffffffffffffffffffffff1673ffffffffffffffffffffffffffffffffffffffff1663de508c5b338c6040518363ffffffff1660e01b8152600401610844929190613928565b600060405180830381865afa158015610861573d6000803e3d6000fd5b505050506040513d6000823e3d601f19601f8201168201806040525081019061088a9190613a00565b909192939450909192935090919250909150905080915050600080600090505b87518110156108f2578781815181106108c6576108c56137f0565b5b602002602001015160000151826108dd9190613aa9565b915080806108ea9061384e565b9150506108aa565b506064811115610937576040517f08c379a000000000000000000000000000000000000000000000000000000000815260040161092e90613b29565b60405180910390fd5b816109d457600260009054906101000a900473ffffffffffffffffffffffffffffffffffffffff1673ffffffffffffffffffffffffffffffffffffffff166325cb763a338d8d8d868e6040518763ffffffff1660e01b81526004016109a196959493929190613b8d565b600060405180830381600087803b1580156109bb57600080fd5b505af11580156109cf573d6000803e3d6000fd5b505050505b8115610b5f576000600660009054906101000a900473ffffffffffffffffffffffffffffffffffffffff16905060008a03610a91578073ffffffffffffffffffffffffffffffffffffffff166323b872dd33306003546040518463ffffffff1660e01b8152600401610a4893929190613bf5565b6020604051808303816000875af1158015610a67573d6000803e3d6000fd5b505050506040513d601f19601f82011682018060405250810190610a8b91906135e5565b50610b5d565b60018a03610b21578073ffffffffffffffffffffffffffffffffffffffff166323b872dd33306004546040518463ffffffff1660e01b8152600401610ad893929190613bf5565b6020604051808303816000875af1158015610af7573d6000803e3d6000fd5b505050506040513d601f19601f82011682018060405250810190610b1b91906135e5565b50610b5c565b6040517f08c379a0000000000000000000000000000000000000000000000000000000008152600401610b5390613c9e565b60405180910390fd5b5b505b6000808a03610c8157600760003373ffffffffffffffffffffffffffffffffffffffff1673ffffffffffffffffffffffffffffffffffffffff16815260200190815260200160002060008d73ffffffffffffffffffffffffffffffffffffffff1673ffffffffffffffffffffffffffffffffffffffff1681526020019081526020016000208054905090506000811115610c7c57600760003373ffffffffffffffffffffffffffffffffffffffff1673ffffffffffffffffffffffffffffffffffffffff16815260200190815260200160002060008d73ffffffffffffffffffffffffffffffffffffffff1673ffffffffffffffffffffffffffffffffffffffff1681526020019081526020016000206000610c7b91906127ea565b5b610db8565b600860003373ffffffffffffffffffffffffffffffffffffffff1673ffffffffffffffffffffffffffffffffffffffff16815260200190815260200160002060008d73ffffffffffffffffffffffffffffffffffffffff1673ffffffffffffffffffffffffffffffffffffffff16815260200190815260200160002060008a81526020019081526020016000208054905090506000811115610db757600860003373ffffffffffffffffffffffffffffffffffffffff1673ffffffffffffffffffffffffffffffffffffffff16815260200190815260200160002060008d73ffffffffffffffffffffffffffffffffffffffff1673ffffffffffffffffffffffffffffffffffffffff16815260200190815260200160002060008a81526020019081526020016000206000610db691906127ea565b5b5b600260009054906101000a900473ffffffffffffffffffffffffffffffffffffffff1673ffffffffffffffffffffffffffffffffffffffff1663b69bd77f338e8c868f6040518663ffffffff1660e01b8152600401610e1b959493929190613cbe565b600060405180830381600087803b158015610e3557600080fd5b505af1158015610e49573d6000803e3d6000fd5b5050505060008a03610f9d5760005b8851811015610f9757600760003373ffffffffffffffffffffffffffffffffffffffff1673ffffffffffffffffffffffffffffffffffffffff16815260200190815260200160002060008e73ffffffffffffffffffffffffffffffffffffffff1673ffffffffffffffffffffffffffffffffffffffff168152602001908152602001600020898281518110610ef057610eef6137f0565b5b60200260200101519080600181540180825580915050600190039060005260206000209060040201600090919091909150600082015181600001556020820151816001019080519060200190610f4792919061280e565b506040820151816002019080519060200190610f64929190612898565b506060820151816003019080519060200190610f81929190612898565b5050508080610f8f9061384e565b915050610e58565b506110f2565b60005b88518110156110f057600860003373ffffffffffffffffffffffffffffffffffffffff1673ffffffffffffffffffffffffffffffffffffffff16815260200190815260200160002060008e73ffffffffffffffffffffffffffffffffffffffff1673ffffffffffffffffffffffffffffffffffffffff16815260200190815260200160002060008b8152602001908152602001600020898281518110611049576110486137f0565b5b602002602001015190806001815401808255809150506001900390600052602060002090600402016000909190919091506000820151816000015560208201518160010190805190602001906110a092919061280e565b5060408201518160020190805190602001906110bd929190612898565b5060608201518160030190805190602001906110da929190612898565b50505080806110e89061384e565b915050610fa0565b505b3373ffffffffffffffffffffffffffffffffffffffff167f82a2341a42c146a8b1818f7e04fe56be41f008d10c140cf4fe8b4ef801628ea18d8b60405161113a929190613d11565b60405180910390a2505050505050505050505050565b6000600260009054906101000a900473ffffffffffffffffffffffffffffffffffffffff1673ffffffffffffffffffffffffffffffffffffffff166320e4ab6a876040518263ffffffff1660e01b81526004016111ad91906130ec565b600060405180830381865afa1580156111ca573d6000803e3d6000fd5b505050506040513d6000823e3d601f19601f820116820180604052508101906111f391906137a7565b905060005b8151811015611bb6573373ffffffffffffffffffffffffffffffffffffffff1682828151811061122b5761122a6137f0565b5b602002602001015173ffffffffffffffffffffffffffffffffffffffff1603611b255760008303611709576000612710600554876112699190613d3a565b6112739190613dab565b9050600061271082886112869190613ddc565b6112909190613dab565b905060008890508073ffffffffffffffffffffffffffffffffffffffff166323b872dd8b30866040518463ffffffff1660e01b81526004016112d493929190613bf5565b6020604051808303816000875af11580156112f3573d6000803e3d6000fd5b505050506040513d601f19601f8201168201806040525081019061131791906135e5565b508073ffffffffffffffffffffffffffffffffffffffff166323b872dd8b33856040518463ffffffff1660e01b815260040161135593929190613bf5565b6020604051808303816000875af1158015611374573d6000803e3d6000fd5b505050506040513d601f19601f8201168201806040525081019061139891906135e5565b5060005b600760008c73ffffffffffffffffffffffffffffffffffffffff1673ffffffffffffffffffffffffffffffffffffffff16815260200190815260200160002060008b73ffffffffffffffffffffffffffffffffffffffff1673ffffffffffffffffffffffffffffffffffffffff168152602001908152602001600020805490508110156117005760005b600760008d73ffffffffffffffffffffffffffffffffffffffff1673ffffffffffffffffffffffffffffffffffffffff16815260200190815260200160002060008c73ffffffffffffffffffffffffffffffffffffffff1673ffffffffffffffffffffffffffffffffffffffff16815260200190815260200160002082815481106114b4576114b36137f0565b5b9060005260206000209060040201600101805490508110156116ec578686815181106114e3576114e26137f0565b5b602002602001015173ffffffffffffffffffffffffffffffffffffffff16600760008e73ffffffffffffffffffffffffffffffffffffffff1673ffffffffffffffffffffffffffffffffffffffff16815260200190815260200160002060008d73ffffffffffffffffffffffffffffffffffffffff1673ffffffffffffffffffffffffffffffffffffffff168152602001908152602001600020838154811061158f5761158e6137f0565b5b906000526020600020906004020160010182815481106115b2576115b16137f0565b5b9060005260206000200160009054906101000a900473ffffffffffffffffffffffffffffffffffffffff1673ffffffffffffffffffffffffffffffffffffffff16036116d9576001600760008e73ffffffffffffffffffffffffffffffffffffffff1673ffffffffffffffffffffffffffffffffffffffff16815260200190815260200160002060008d73ffffffffffffffffffffffffffffffffffffffff1673ffffffffffffffffffffffffffffffffffffffff1681526020019081526020016000208381548110611688576116876137f0565b5b906000526020600020906004020160030182815481106116ab576116aa6137f0565b5b90600052602060002090602091828204019190066101000a81548160ff0219169083151502179055506116ec565b80806116e49061384e565b915050611426565b5080806116f89061384e565b91505061139c565b50505050611b24565b6000841115611b235760008690508073ffffffffffffffffffffffffffffffffffffffff166323b872dd8933886040518463ffffffff1660e01b815260040161175493929190613bf5565b600060405180830381600087803b15801561176e57600080fd5b505af1158015611782573d6000803e3d6000fd5b5050505060005b600760008a73ffffffffffffffffffffffffffffffffffffffff1673ffffffffffffffffffffffffffffffffffffffff16815260200190815260200160002060008973ffffffffffffffffffffffffffffffffffffffff1673ffffffffffffffffffffffffffffffffffffffff16815260200190815260200160002080549050811015611b205760005b600860008b73ffffffffffffffffffffffffffffffffffffffff1673ffffffffffffffffffffffffffffffffffffffff16815260200190815260200160002060008a73ffffffffffffffffffffffffffffffffffffffff1673ffffffffffffffffffffffffffffffffffffffff168152602001908152602001600020600088815260200190815260200160002082815481106118b2576118b16137f0565b5b906000526020600020906004020160010180549050811015611b0c578484815181106118e1576118e06137f0565b5b602002602001015173ffffffffffffffffffffffffffffffffffffffff16600860008c73ffffffffffffffffffffffffffffffffffffffff1673ffffffffffffffffffffffffffffffffffffffff16815260200190815260200160002060008b73ffffffffffffffffffffffffffffffffffffffff1673ffffffffffffffffffffffffffffffffffffffff1681526020019081526020016000206000898152602001908152602001600020838154811061199e5761199d6137f0565b5b906000526020600020906004020160010182815481106119c1576119c06137f0565b5b9060005260206000200160009054906101000a900473ffffffffffffffffffffffffffffffffffffffff1673ffffffffffffffffffffffffffffffffffffffff1603611af9576001600860008c73ffffffffffffffffffffffffffffffffffffffff1673ffffffffffffffffffffffffffffffffffffffff16815260200190815260200160002060008b73ffffffffffffffffffffffffffffffffffffffff1673ffffffffffffffffffffffffffffffffffffffff16815260200190815260200160002060008981526020019081526020016000208381548110611aa857611aa76137f0565b5b90600052602060002090600402016003018281548110611acb57611aca6137f0565b5b90600052602060002090602091828204019190066101000a81548160ff021916908315150217905550611b0c565b8080611b049061384e565b915050611813565b508080611b189061384e565b915050611789565b50505b5b5b8573ffffffffffffffffffffffffffffffffffffffff163373ffffffffffffffffffffffffffffffffffffffff168873ffffffffffffffffffffffffffffffffffffffff167f2442e7ccfd30564dcfd95cc7cfdaefdfc6298925b0c609461d5c69ca18ab18128789604051611b9b929190613e10565b60405180910390a48080611bae9061384e565b9150506111f8565b50505050505050565b600160009054906101000a900473ffffffffffffffffffffffffffffffffffffffff1681565b8060038190555050565b606060008203611e6457600760008673ffffffffffffffffffffffffffffffffffffffff1673ffffffffffffffffffffffffffffffffffffffff16815260200190815260200160002060008573ffffffffffffffffffffffffffffffffffffffff1673ffffffffffffffffffffffffffffffffffffffff168152602001908152602001600020805480602002602001604051908101604052809291908181526020016000905b82821015611e5957838290600052602060002090600402016040518060800160405290816000820154815260200160018201805480602002602001604051908101604052809291908181526020018280548015611d4757602002820191906000526020600020905b8160009054906101000a900473ffffffffffffffffffffffffffffffffffffffff1673ffffffffffffffffffffffffffffffffffffffff1681526020019060010190808311611cfd575b5050505050815260200160028201805480602002602001604051908101604052809291908181526020018280548015611dc457602002820191906000526020600020906000905b82829054906101000a900460ff16151581526020019060010190602082600001049283019260010382029150808411611d8e5790505b5050505050815260200160038201805480602002602001604051908101604052809291908181526020018280548015611e4157602002820191906000526020600020906000905b82829054906101000a900460ff16151581526020019060010190602082600001049283019260010382029150808411611e0b5790505b50505050508152505081526020019060010190611c95565b5050505090506120dc565b600860008673ffffffffffffffffffffffffffffffffffffffff1673ffffffffffffffffffffffffffffffffffffffff16815260200190815260200160002060008573ffffffffffffffffffffffffffffffffffffffff1673ffffffffffffffffffffffffffffffffffffffff1681526020019081526020016000206000848152602001908152602001600020805480602002602001604051908101604052809291908181526020016000905b828210156120d557838290600052602060002090600402016040518060800160405290816000820154815260200160018201805480602002602001604051908101604052809291908181526020018280548015611fc357602002820191906000526020600020905b8160009054906101000a900473ffffffffffffffffffffffffffffffffffffffff1673ffffffffffffffffffffffffffffffffffffffff1681526020019060010190808311611f79575b505050505081526020016002820180548060200260200160405190810160405280929190818152602001828054801561204057602002820191906000526020600020906000905b82829054906101000a900460ff1615158152602001906001019060208260000104928301926001038202915080841161200a5790505b50505050508152602001600382018054806020026020016040519081016040528092919081815260200182805480156120bd57602002820191906000526020600020906000905b82829054906101000a900460ff161515815260200190600101906020826000010492830192600103820291508084116120875790505b50505050508152505081526020019060010190611f11565b5050505090505b949350505050565b6120ec6126a0565b6120f6600061271e565b565b60008060009054906101000a900473ffffffffffffffffffffffffffffffffffffffff16905090565b8060048190555050565b6121336126a0565b60008190508073ffffffffffffffffffffffffffffffffffffffff1663a9059cbb33856040518363ffffffff1660e01b8152600401612173929190613d11565b6020604051808303816000875af1158015612192573d6000803e3d6000fd5b505050506040513d601f19601f820116820180604052508101906121b691906135e5565b50505050565b80600660006101000a81548173ffffffffffffffffffffffffffffffffffffffff021916908373ffffffffffffffffffffffffffffffffffffffff16021790555050565b6008602052836000526040600020602052826000526040600020602052816000526040600020818154811061223457600080fd5b90600052602060002090600402016000935093505050508060000154905081565b3373ffffffffffffffffffffffffffffffffffffffff16600260009054906101000a900473ffffffffffffffffffffffffffffffffffffffff1673ffffffffffffffffffffffffffffffffffffffff1663c3bb8121876040518263ffffffff1660e01b81526004016122c791906130ec565b600060405180830381865afa1580156122e4573d6000803e3d6000fd5b505050506040513d6000823e3d601f19601f8201168201806040525081019061230d91906140dc565b60e0015173ffffffffffffffffffffffffffffffffffffffff1614612367576040517f08c379a000000000000000000000000000000000000000000000000000000000815260040161235e90614197565b60405180910390fd5b600081036124a05760006005548461237f9190613d3a565b90506000818561238f9190613ddc565b905060008690508073ffffffffffffffffffffffffffffffffffffffff166323b872dd8930866040518463ffffffff1660e01b81526004016123d393929190613bf5565b6020604051808303816000875af11580156123f2573d6000803e3d6000fd5b505050506040513d601f19601f8201168201806040525081019061241691906135e5565b508073ffffffffffffffffffffffffffffffffffffffff166323b872dd8933856040518463ffffffff1660e01b815260040161245493929190613bf5565b6020604051808303816000875af1158015612473573d6000803e3d6000fd5b505050506040513d601f19601f8201168201806040525081019061249791906135e5565b5050505061259e565b600082111561259d5760008490508073ffffffffffffffffffffffffffffffffffffffff166323b872dd8733866040518463ffffffff1660e01b81526004016124eb93929190613bf5565b600060405180830381600087803b15801561250557600080fd5b505af1158015612519573d6000803e3d6000fd5b505050508473ffffffffffffffffffffffffffffffffffffffff163373ffffffffffffffffffffffffffffffffffffffff168773ffffffffffffffffffffffffffffffffffffffff167f2442e7ccfd30564dcfd95cc7cfdaefdfc6298925b0c609461d5c69ca18ab18128688604051612593929190613e10565b60405180910390a4505b5b5050505050565b600260009054906101000a900473ffffffffffffffffffffffffffffffffffffffff1681565b600760205282600052604060002060205281600052604060002081815481106125f357600080fd5b906000526020600020906004020160009250925050508060000154905081565b8060058190555050565b6126256126a0565b600073ffffffffffffffffffffffffffffffffffffffff168173ffffffffffffffffffffffffffffffffffffffff1603612694576040517f08c379a000000000000000000000000000000000000000000000000000000000815260040161268b90614229565b60405180910390fd5b61269d8161271e565b50565b6126a86127e2565b73ffffffffffffffffffffffffffffffffffffffff166126c66120f8565b73ffffffffffffffffffffffffffffffffffffffff161461271c576040517f08c379a000000000000000000000000000000000000000000000000000000000815260040161271390614295565b60405180910390fd5b565b60008060009054906101000a900473ffffffffffffffffffffffffffffffffffffffff169050816000806101000a81548173ffffffffffffffffffffffffffffffffffffffff021916908373ffffffffffffffffffffffffffffffffffffffff1602179055508173ffffffffffffffffffffffffffffffffffffffff168173ffffffffffffffffffffffffffffffffffffffff167f8be0079c531659141344cd1fd0a4f28419497f9722a3daafe3b4186f6b6457e060405160405180910390a35050565b600033905090565b508054600082556004029060005260206000209081019061280b919061293e565b50565b828054828255906000526020600020908101928215612887579160200282015b828111156128865782518260006101000a81548173ffffffffffffffffffffffffffffffffffffffff021916908373ffffffffffffffffffffffffffffffffffffffff1602179055509160200191906001019061282e565b5b509050612894919061298d565b5090565b82805482825590600052602060002090601f0160209004810192821561292d5791602002820160005b838211156128fe57835183826101000a81548160ff02191690831515021790555092602001926001016020816000010492830192600103026128c1565b801561292b5782816101000a81549060ff02191690556001016020816000010492830192600103026128fe565b505b50905061293a919061298d565b5090565b5b808211156129895760008082016000905560018201600061296091906129aa565b60028201600061297091906129cb565b60038201600061298091906129cb565b5060040161293f565b5090565b5b808211156129a657600081600090555060010161298e565b5090565b50805460008255906000526020600020908101906129c8919061298d565b50565b50805460008255601f0160209004906000526020600020908101906129f0919061298d565b50565b600073ffffffffffffffffffffffffffffffffffffffff82169050919050565b6000612a1e826129f3565b9050919050565b612a2e81612a13565b82525050565b6000819050919050565b612a4781612a34565b82525050565b6000608082019050612a626000830187612a25565b612a6f6020830186612a3e565b612a7c6040830185612a3e565b612a896060830184612a3e565b95945050505050565b6000604051905090565b600080fd5b600080fd5b612aaf81612a13565b8114612aba57600080fd5b50565b600081359050612acc81612aa6565b92915050565b600080fd5b600080fd5b6000601f19601f8301169050919050565b7f4e487b7100000000000000000000000000000000000000000000000000000000600052604160045260246000fd5b612b2582612adc565b810181811067ffffffffffffffff82111715612b4457612b43612aed565b5b80604052505050565b6000612b57612a92565b9050612b638282612b1c565b919050565b600067ffffffffffffffff821115612b8357612b82612aed565b5b612b8c82612adc565b9050602081019050919050565b82818337600083830152505050565b6000612bbb612bb684612b68565b612b4d565b905082815260208101848484011115612bd757612bd6612ad7565b5b612be2848285612b99565b509392505050565b600082601f830112612bff57612bfe612ad2565b5b8135612c0f848260208601612ba8565b91505092915050565b612c2181612a34565b8114612c2c57600080fd5b50565b600081359050612c3e81612c18565b92915050565b600067ffffffffffffffff821115612c5f57612c5e612aed565b5b602082029050602081019050919050565b600080fd5b600080fd5b600080fd5b600067ffffffffffffffff821115612c9a57612c99612aed565b5b602082029050602081019050919050565b6000612cbe612cb984612c7f565b612b4d565b90508083825260208201905060208402830185811115612ce157612ce0612c70565b5b835b81811015612d0a5780612cf68882612abd565b845260208401935050602081019050612ce3565b5050509392505050565b600082601f830112612d2957612d28612ad2565b5b8135612d39848260208601612cab565b91505092915050565b600067ffffffffffffffff821115612d5d57612d5c612aed565b5b602082029050602081019050919050565b60008115159050919050565b612d8381612d6e565b8114612d8e57600080fd5b50565b600081359050612da081612d7a565b92915050565b6000612db9612db484612d42565b612b4d565b90508083825260208201905060208402830185811115612ddc57612ddb612c70565b5b835b81811015612e055780612df18882612d91565b845260208401935050602081019050612dde565b5050509392505050565b600082601f830112612e2457612e23612ad2565b5b8135612e34848260208601612da6565b91505092915050565b600060808284031215612e5357612e52612c75565b5b612e5d6080612b4d565b90506000612e6d84828501612c2f565b600083015250602082013567ffffffffffffffff811115612e9157612e90612c7a565b5b612e9d84828501612d14565b602083015250604082013567ffffffffffffffff811115612ec157612ec0612c7a565b5b612ecd84828501612e0f565b604083015250606082013567ffffffffffffffff811115612ef157612ef0612c7a565b5b612efd84828501612e0f565b60608301525092915050565b6000612f1c612f1784612c44565b612b4d565b90508083825260208201905060208402830185811115612f3f57612f3e612c70565b5b835b81811015612f8657803567ffffffffffffffff811115612f6457612f63612ad2565b5b808601612f718982612e3d565b85526020850194505050602081019050612f41565b5050509392505050565b600082601f830112612fa557612fa4612ad2565b5b8135612fb5848260208601612f09565b91505092915050565b600080600080600060a08688031215612fda57612fd9612a9c565b5b6000612fe888828901612abd565b955050602086013567ffffffffffffffff81111561300957613008612aa1565b5b61301588828901612bea565b945050604061302688828901612c2f565b935050606061303788828901612c2f565b925050608086013567ffffffffffffffff81111561305857613057612aa1565b5b61306488828901612f90565b9150509295509295909350565b600080600080600060a0868803121561308d5761308c612a9c565b5b600061309b88828901612abd565b95505060206130ac88828901612abd565b94505060406130bd88828901612c2f565b93505060606130ce88828901612c2f565b92505060806130df88828901612c2f565b9150509295509295909350565b60006020820190506131016000830184612a25565b92915050565b60006020828403121561311d5761311c612a9c565b5b600061312b84828501612c2f565b91505092915050565b6000806000806080858703121561314e5761314d612a9c565b5b600061315c87828801612abd565b945050602061316d87828801612abd565b935050604061317e87828801612c2f565b925050606061318f87828801612c2f565b91505092959194509250565b600081519050919050565b600082825260208201905092915050565b6000819050602082019050919050565b6131d081612a34565b82525050565b600081519050919050565b600082825260208201905092915050565b6000819050602082019050919050565b61320b81612a13565b82525050565b600061321d8383613202565b60208301905092915050565b6000602082019050919050565b6000613241826131d6565b61324b81856131e1565b9350613256836131f2565b8060005b8381101561328757815161326e8882613211565b975061327983613229565b92505060018101905061325a565b5085935050505092915050565b600081519050919050565b600082825260208201905092915050565b6000819050602082019050919050565b6132c981612d6e565b82525050565b60006132db83836132c0565b60208301905092915050565b6000602082019050919050565b60006132ff82613294565b613309818561329f565b9350613314836132b0565b8060005b8381101561334557815161332c88826132cf565b9750613337836132e7565b925050600181019050613318565b5085935050505092915050565b600060808301600083015161336a60008601826131c7565b50602083015184820360208601526133828282613236565b9150506040830151848203604086015261339c82826132f4565b915050606083015184820360608601526133b682826132f4565b9150508091505092915050565b60006133cf8383613352565b905092915050565b6000602082019050919050565b60006133ef8261319b565b6133f981856131a6565b93508360208202850161340b856131b7565b8060005b85811015613447578484038952815161342885826133c3565b9450613433836133d7565b925060208a0199505060018101905061340f565b50829750879550505050505092915050565b6000602082019050818103600083015261347381846133e4565b905092915050565b6000806040838503121561349257613491612a9c565b5b60006134a085828601612c2f565b92505060206134b185828601612abd565b9150509250929050565b6000602082840312156134d1576134d0612a9c565b5b60006134df84828501612abd565b91505092915050565b60006020820190506134fd6000830184612a3e565b92915050565b6000819050919050565b600061352861352361351e846129f3565b613503565b6129f3565b9050919050565b600061353a8261350d565b9050919050565b600061354c8261352f565b9050919050565b61355c81613541565b82525050565b60006020820190506135776000830184613553565b92915050565b60008060006060848603121561359657613595612a9c565b5b60006135a486828701612abd565b93505060206135b586828701612abd565b92505060406135c686828701612c2f565b9150509250925092565b6000815190506135df81612d7a565b92915050565b6000602082840312156135fb576135fa612a9c565b5b6000613609848285016135d0565b91505092915050565b600082825260208201905092915050565b7f466972737420726567697374657220796f757273656c66210000000000000000600082015250565b6000613659601883613612565b915061366482613623565b602082019050919050565b600060208201905081810360008301526136888161364c565b9050919050565b7f46697273742076657269667920796f757220656d61696c000000000000000000600082015250565b60006136c5601783613612565b91506136d08261368f565b602082019050919050565b600060208201905081810360008301526136f4816136b8565b9050919050565b60008151905061370a81612aa6565b92915050565b600061372361371e84612c7f565b612b4d565b9050808382526020820190506020840283018581111561374657613745612c70565b5b835b8181101561376f578061375b88826136fb565b845260208401935050602081019050613748565b5050509392505050565b600082601f83011261378e5761378d612ad2565b5b815161379e848260208601613710565b91505092915050565b6000602082840312156137bd576137bc612a9c565b5b600082015167ffffffffffffffff8111156137db576137da612aa1565b5b6137e784828501613779565b91505092915050565b7f4e487b7100000000000000000000000000000000000000000000000000000000600052603260045260246000fd5b7f4e487b7100000000000000000000000000000000000000000000000000000000600052601160045260246000fd5b600061385982612a34565b91507fffffffffffffffffffffffffffffffffffffffffffffffffffffffffffffffff820361388b5761388a61381f565b5b600182019050919050565b7f636865636b20616c6c20746865206e6f6d696e65657320796f7520617265206560008201527f6e746572696e67206172652061646465642e0000000000000000000000000000602082015250565b60006138f2603283613612565b91506138fd82613896565b604082019050919050565b60006020820190508181036000830152613921816138e5565b9050919050565b600060408201905061393d6000830185612a25565b61394a6020830184612a25565b9392505050565b60005b8381101561396f578082015181840152602081019050613954565b60008484015250505050565b600061398e61398984612b68565b612b4d565b9050828152602081018484840111156139aa576139a9612ad7565b5b6139b5848285613951565b509392505050565b600082601f8301126139d2576139d1612ad2565b5b81516139e284826020860161397b565b91505092915050565b6000815190506139fa81612c18565b92915050565b60008060008060008060c08789031215613a1d57613a1c612a9c565b5b6000613a2b89828a016136fb565b965050602087015167ffffffffffffffff811115613a4c57613a4b612aa1565b5b613a5889828a016139bd565b9550506040613a6989828a016139eb565b9450506060613a7a89828a016139eb565b9350506080613a8b89828a016139eb565b92505060a0613a9c89828a016135d0565b9150509295509295509295565b6000613ab482612a34565b9150613abf83612a34565b9250828201905080821115613ad757613ad661381f565b5b92915050565b7f5265647563652074686520736861726520616d6f756e742e2e2e000000000000600082015250565b6000613b13601a83613612565b9150613b1e82613add565b602082019050919050565b60006020820190508181036000830152613b4281613b06565b9050919050565b600081519050919050565b6000613b5f82613b49565b613b698185613612565b9350613b79818560208601613951565b613b8281612adc565b840191505092915050565b600060c082019050613ba26000830189612a25565b613baf6020830188612a25565b8181036040830152613bc18187613b54565b9050613bd06060830186612a3e565b613bdd6080830185612a3e565b613bea60a0830184612a3e565b979650505050505050565b6000606082019050613c0a6000830186612a25565b613c176020830185612a25565b613c246040830184612a3e565b949350505050565b7f43617465676f72792076616c7565206973203020666f7220746f6b656e73206160008201527f6e64203120666f72204e46540000000000000000000000000000000000000000602082015250565b6000613c88602c83613612565b9150613c9382613c2c565b604082019050919050565b60006020820190508181036000830152613cb781613c7b565b9050919050565b600060a082019050613cd36000830188612a25565b613ce06020830187612a25565b613ced6040830186612a3e565b613cfa6060830185612a3e565b613d076080830184612a3e565b9695505050505050565b6000604082019050613d266000830185612a25565b613d336020830184612a3e565b9392505050565b6000613d4582612a34565b9150613d5083612a34565b9250828202613d5e81612a34565b91508282048414831517613d7557613d7461381f565b5b5092915050565b7f4e487b7100000000000000000000000000000000000000000000000000000000600052601260045260246000fd5b6000613db682612a34565b9150613dc183612a34565b925082613dd157613dd0613d7c565b5b828204905092915050565b6000613de782612a34565b9150613df283612a34565b9250828203905081811115613e0a57613e0961381f565b5b92915050565b6000604082019050613e256000830185612a3e565b613e326020830184612a3e565b9392505050565b600067ffffffffffffffff821115613e5457613e53612aed565b5b602082029050602081019050919050565b6000613e78613e7384613e39565b612b4d565b90508083825260208201905060208402830185811115613e9b57613e9a612c70565b5b835b81811015613ec45780613eb088826139eb565b845260208401935050602081019050613e9d565b5050509392505050565b600082601f830112613ee357613ee2612ad2565b5b8151613ef3848260208601613e65565b91505092915050565b60006101a08284031215613f1357613f12612c75565b5b613f1e6101a0612b4d565b9050600082015167ffffffffffffffff811115613f3e57613f3d612c7a565b5b613f4a848285016139bd565b600083015250602082015167ffffffffffffffff811115613f6e57613f6d612c7a565b5b613f7a848285016139bd565b602083015250604082015167ffffffffffffffff811115613f9e57613f9d612c7a565b5b613faa848285016139bd565b604083015250606082015167ffffffffffffffff811115613fce57613fcd612c7a565b5b613fda848285016139bd565b6060830152506080613fee848285016135d0565b60808301525060a0614002848285016135d0565b60a08301525060c0614016848285016135d0565b60c08301525060e061402a848285016136fb565b60e08301525061010082015167ffffffffffffffff81111561404f5761404e612c7a565b5b61405b84828501613779565b6101008301525061012082015167ffffffffffffffff81111561408157614080612c7a565b5b61408d84828501613ece565b610120830152506101406140a3848285016139eb565b610140830152506101606140b9848285016139eb565b610160830152506101806140cf848285016139eb565b6101808301525092915050565b6000602082840312156140f2576140f1612a9c565b5b600082015167ffffffffffffffff8111156141105761410f612aa1565b5b61411c84828501613efc565b91505092915050565b7f5265636f766572792041646472657373206f72204f776e65722041646472657360008201527f7320697320696e636f7272656374210000000000000000000000000000000000602082015250565b6000614181602f83613612565b915061418c82614125565b604082019050919050565b600060208201905081810360008301526141b081614174565b9050919050565b7f4f776e61626c653a206e6577206f776e657220697320746865207a65726f206160008201527f6464726573730000000000000000000000000000000000000000000000000000602082015250565b6000614213602683613612565b915061421e826141b7565b604082019050919050565b6000602082019050818103600083015261424281614206565b9050919050565b7f4f776e61626c653a2063616c6c6572206973206e6f7420746865206f776e6572600082015250565b600061427f602083613612565b915061428a82614249565b602082019050919050565b600060208201905081810360008301526142ae81614272565b905091905056fea26469706673582212209a4f1cb3e4564c1ad29dc1afe1dafe32995bafb8ceddbab56fe83c92ad5287ca64736f6c63430008110033",
  "linkReferences": {},
  "deployedLinkReferences": {}
}