{
  "_format": "hh-sol-artifact-1",
  "contractName": "MultiplePriorityNominee",
  "sourceName": "contracts/MultiplePriorityNominee.sol",
  "abi": [
    {
      "inputs": [
        {
          "internalType": "address",
          "name": "_inheritokensAddress",
          "type": "address"
        },
        {
          "internalType": "address",
          "name": "_charityContractAddress",
          "type": "address"
        }
      ],
      "stateMutability": "nonpayable",
      "type": "constructor"
    },
    {
      "anonymous": false,
      "inputs": [
        {
          "indexed": true,
          "internalType": "address",
          "name": "_owner",
          "type": "address"
        },
        {
          "indexed": true,
          "internalType": "address",
          "name": "_nominee",
          "type": "address"
        },
        {
          "indexed": true,
          "internalType": "address",
          "name": "_tokenAddress",
          "type": "address"
        },
        {
          "indexed": false,
          "internalType": "uint256",
          "name": "_tokenId",
          "type": "uint256"
        },
        {
          "indexed": false,
          "internalType": "uint256",
          "name": "_amount",
          "type": "uint256"
        },
        {
          "indexed": false,
          "internalType": "uint256",
          "name": "_category",
          "type": "uint256"
        }
      ],
      "name": "Claimed",
      "type": "event"
    },
    {
      "anonymous": false,
      "inputs": [
        {
          "indexed": true,
          "internalType": "address",
          "name": "previousOwner",
          "type": "address"
        },
        {
          "indexed": true,
          "internalType": "address",
          "name": "newOwner",
          "type": "address"
        }
      ],
      "name": "OwnershipTransferred",
      "type": "event"
    },
    {
      "anonymous": false,
      "inputs": [
        {
          "indexed": true,
          "internalType": "address",
          "name": "_owner",
          "type": "address"
        },
        {
          "indexed": true,
          "internalType": "address",
          "name": "_tokenAddress",
          "type": "address"
        },
        {
          "indexed": false,
          "internalType": "uint256",
          "name": "_tokenId",
          "type": "uint256"
        },
        {
          "indexed": false,
          "internalType": "uint256",
          "name": "_amount",
          "type": "uint256"
        },
        {
          "indexed": false,
          "internalType": "uint256",
          "name": "_category",
          "type": "uint256"
        }
      ],
      "name": "Recovered",
      "type": "event"
    },
    {
      "anonymous": false,
      "inputs": [
        {
          "indexed": true,
          "internalType": "address",
          "name": "_owner",
          "type": "address"
        },
        {
          "indexed": false,
          "internalType": "address",
          "name": "_tokenAddress",
          "type": "address"
        },
        {
          "indexed": false,
          "internalType": "uint256",
          "name": "_tokenId",
          "type": "uint256"
        },
        {
          "indexed": false,
          "internalType": "uint256",
          "name": "_category",
          "type": "uint256"
        }
      ],
      "name": "TokensAssigned",
      "type": "event"
    },
    {
      "inputs": [
        {
          "internalType": "address",
          "name": "_tokenAddress",
          "type": "address"
        },
        {
          "internalType": "string",
          "name": "_tokenName",
          "type": "string"
        },
        {
          "internalType": "uint256",
          "name": "_category",
          "type": "uint256"
        },
        {
          "internalType": "uint256",
          "name": "_tokenId",
          "type": "uint256"
        },
        {
          "components": [
            {
              "internalType": "uint256",
              "name": "share",
              "type": "uint256"
            },
            {
              "internalType": "address",
              "name": "charityAddress",
              "type": "address"
            },
            {
              "internalType": "address",
              "name": "canClaim",
              "type": "address"
            },
            {
              "internalType": "address[]",
              "name": "nominee",
              "type": "address[]"
            },
            {
              "internalType": "bool[]",
              "name": "isNotAvailable",
              "type": "bool[]"
            },
            {
              "internalType": "bool[]",
              "name": "isClaimed",
              "type": "bool[]"
            },
            {
              "internalType": "bool",
              "name": "isDone",
              "type": "bool"
            }
          ],
          "internalType": "struct MultiplePriorityNominee.MultiplePriority[]",
          "name": "data",
          "type": "tuple[]"
        }
      ],
      "name": "assignTokensToMultipleNominees",
      "outputs": [],
      "stateMutability": "nonpayable",
      "type": "function"
    },
    {
      "inputs": [
        {
          "internalType": "address",
          "name": "_tokenAddress",
          "type": "address"
        },
        {
          "internalType": "uint256",
          "name": "_tokenCharge",
          "type": "uint256"
        },
        {
          "internalType": "uint256",
          "name": "_nftCharge",
          "type": "uint256"
        },
        {
          "internalType": "uint256",
          "name": "_percentage",
          "type": "uint256"
        }
      ],
      "name": "changeCharges",
      "outputs": [],
      "stateMutability": "nonpayable",
      "type": "function"
    },
    {
      "inputs": [],
      "name": "chargeTokenAddress",
      "outputs": [
        {
          "internalType": "address",
          "name": "",
          "type": "address"
        }
      ],
      "stateMutability": "view",
      "type": "function"
    },
    {
      "inputs": [
        {
          "internalType": "address",
          "name": "_owner",
          "type": "address"
        },
        {
          "internalType": "address",
          "name": "_tokenAddress",
          "type": "address"
        },
        {
          "internalType": "uint256",
          "name": "_tokenId",
          "type": "uint256"
        },
        {
          "internalType": "uint256",
          "name": "_category",
          "type": "uint256"
        }
      ],
      "name": "charityClaim",
      "outputs": [],
      "stateMutability": "payable",
      "type": "function"
    },
    {
      "inputs": [],
      "name": "charityContract",
      "outputs": [
        {
          "internalType": "contract CharityContract",
          "name": "",
          "type": "address"
        }
      ],
      "stateMutability": "view",
      "type": "function"
    },
    {
      "inputs": [],
      "name": "charityContractAddress",
      "outputs": [
        {
          "internalType": "address",
          "name": "",
          "type": "address"
        }
      ],
      "stateMutability": "view",
      "type": "function"
    },
    {
      "inputs": [
        {
          "internalType": "address",
          "name": "_owner",
          "type": "address"
        },
        {
          "internalType": "address",
          "name": "_tokenAddress",
          "type": "address"
        },
        {
          "internalType": "uint256",
          "name": "_tokenId",
          "type": "uint256"
        },
        {
          "internalType": "uint256",
          "name": "_category",
          "type": "uint256"
        }
      ],
      "name": "claim",
      "outputs": [],
      "stateMutability": "nonpayable",
      "type": "function"
    },
    {
      "inputs": [],
      "name": "inheritokens",
      "outputs": [
        {
          "internalType": "contract Inheritokens",
          "name": "",
          "type": "address"
        }
      ],
      "stateMutability": "view",
      "type": "function"
    },
    {
      "inputs": [],
      "name": "inheritokensAddress",
      "outputs": [
        {
          "internalType": "address",
          "name": "",
          "type": "address"
        }
      ],
      "stateMutability": "view",
      "type": "function"
    },
    {
      "inputs": [],
      "name": "nftCharge",
      "outputs": [
        {
          "internalType": "uint256",
          "name": "",
          "type": "uint256"
        }
      ],
      "stateMutability": "view",
      "type": "function"
    },
    {
      "inputs": [
        {
          "internalType": "address",
          "name": "_owner",
          "type": "address"
        },
        {
          "internalType": "address",
          "name": "_tokenAddress",
          "type": "address"
        },
        {
          "internalType": "uint256",
          "name": "_tokenId",
          "type": "uint256"
        }
      ],
      "name": "nftTransferLogic",
      "outputs": [],
      "stateMutability": "nonpayable",
      "type": "function"
    },
    {
      "inputs": [],
      "name": "owner",
      "outputs": [
        {
          "internalType": "address",
          "name": "",
          "type": "address"
        }
      ],
      "stateMutability": "view",
      "type": "function"
    },
    {
      "inputs": [
        {
          "internalType": "address",
          "name": "",
          "type": "address"
        },
        {
          "internalType": "address",
          "name": "",
          "type": "address"
        },
        {
          "internalType": "uint256",
          "name": "",
          "type": "uint256"
        },
        {
          "internalType": "uint256",
          "name": "",
          "type": "uint256"
        }
      ],
      "name": "ownerToNFTToStruct",
      "outputs": [
        {
          "internalType": "uint256",
          "name": "share",
          "type": "uint256"
        },
        {
          "internalType": "address",
          "name": "charityAddress",
          "type": "address"
        },
        {
          "internalType": "address",
          "name": "canClaim",
          "type": "address"
        },
        {
          "internalType": "bool",
          "name": "isDone",
          "type": "bool"
        }
      ],
      "stateMutability": "view",
      "type": "function"
    },
    {
      "inputs": [
        {
          "internalType": "address",
          "name": "",
          "type": "address"
        },
        {
          "internalType": "address",
          "name": "",
          "type": "address"
        },
        {
          "internalType": "uint256",
          "name": "",
          "type": "uint256"
        }
      ],
      "name": "ownerToTokenToStruct",
      "outputs": [
        {
          "internalType": "uint256",
          "name": "share",
          "type": "uint256"
        },
        {
          "internalType": "address",
          "name": "charityAddress",
          "type": "address"
        },
        {
          "internalType": "address",
          "name": "canClaim",
          "type": "address"
        },
        {
          "internalType": "bool",
          "name": "isDone",
          "type": "bool"
        }
      ],
      "stateMutability": "view",
      "type": "function"
    },
    {
      "inputs": [],
      "name": "percentage",
      "outputs": [
        {
          "internalType": "uint256",
          "name": "",
          "type": "uint256"
        }
      ],
      "stateMutability": "view",
      "type": "function"
    },
    {
      "inputs": [
        {
          "internalType": "address",
          "name": "_owner",
          "type": "address"
        },
        {
          "internalType": "address",
          "name": "_tokenAddress",
          "type": "address"
        },
        {
          "internalType": "uint256",
          "name": "_tokenId",
          "type": "uint256"
        },
        {
          "internalType": "uint256",
          "name": "_category",
          "type": "uint256"
        }
      ],
      "name": "recoveryClaim",
      "outputs": [],
      "stateMutability": "nonpayable",
      "type": "function"
    },
    {
      "inputs": [],
      "name": "renounceOwnership",
      "outputs": [],
      "stateMutability": "nonpayable",
      "type": "function"
    },
    {
      "inputs": [],
      "name": "tokenCharge",
      "outputs": [
        {
          "internalType": "uint256",
          "name": "",
          "type": "uint256"
        }
      ],
      "stateMutability": "view",
      "type": "function"
    },
    {
      "inputs": [
        {
          "internalType": "address",
          "name": "_owner",
          "type": "address"
        },
        {
          "internalType": "address",
          "name": "_tokenAddress",
          "type": "address"
        },
        {
          "internalType": "uint256",
          "name": "_share",
          "type": "uint256"
        }
      ],
      "name": "tokenTransferLogic",
      "outputs": [],
      "stateMutability": "nonpayable",
      "type": "function"
    },
    {
      "inputs": [
        {
          "internalType": "address",
          "name": "newOwner",
          "type": "address"
        }
      ],
      "name": "transferOwnership",
      "outputs": [],
      "stateMutability": "nonpayable",
      "type": "function"
    },
    {
      "inputs": [
        {
          "internalType": "uint256",
          "name": "_amount",
          "type": "uint256"
        },
        {
          "internalType": "address",
          "name": "_tokenAddress",
          "type": "address"
        }
      ],
      "name": "withdrawFromContract",
      "outputs": [],
      "stateMutability": "payable",
      "type": "function"
    }
  ],
  "bytecode": "0x6080604052620f4240600555624c4b40600655600160075573e9dce89b076ba6107bb64ef30678efec11939234600860006101000a81548173ffffffffffffffffffffffffffffffffffffffff021916908373ffffffffffffffffffffffffffffffffffffffff1602179055503480156200007957600080fd5b5060405162004e8438038062004e8483398181016040528101906200009f919062000345565b620000bf620000b36200020f60201b60201c565b6200021760201b60201c565b81600160006101000a81548173ffffffffffffffffffffffffffffffffffffffff021916908373ffffffffffffffffffffffffffffffffffffffff160217905550600160009054906101000a900473ffffffffffffffffffffffffffffffffffffffff16600260006101000a81548173ffffffffffffffffffffffffffffffffffffffff021916908373ffffffffffffffffffffffffffffffffffffffff16021790555080600360006101000a81548173ffffffffffffffffffffffffffffffffffffffff021916908373ffffffffffffffffffffffffffffffffffffffff160217905550600360009054906101000a900473ffffffffffffffffffffffffffffffffffffffff16600460006101000a81548173ffffffffffffffffffffffffffffffffffffffff021916908373ffffffffffffffffffffffffffffffffffffffff16021790555050506200038c565b600033905090565b60008060009054906101000a900473ffffffffffffffffffffffffffffffffffffffff169050816000806101000a81548173ffffffffffffffffffffffffffffffffffffffff021916908373ffffffffffffffffffffffffffffffffffffffff1602179055508173ffffffffffffffffffffffffffffffffffffffff168173ffffffffffffffffffffffffffffffffffffffff167f8be0079c531659141344cd1fd0a4f28419497f9722a3daafe3b4186f6b6457e060405160405180910390a35050565b600080fd5b600073ffffffffffffffffffffffffffffffffffffffff82169050919050565b60006200030d82620002e0565b9050919050565b6200031f8162000300565b81146200032b57600080fd5b50565b6000815190506200033f8162000314565b92915050565b600080604083850312156200035f576200035e620002db565b5b60006200036f858286016200032e565b925050602062000382858286016200032e565b9150509250929050565b614ae8806200039c6000396000f3fe60806040526004361061012a5760003560e01c80639605f505116100ab578063c14394301161006f578063c1439430146103a2578063c407695b146103cb578063c78ad77f146103f6578063f1d8eefc14610421578063f2fde38b1461044c578063f4cd5465146104755761012a565b80639605f505146102b05780639b252023146102cc578063a64ad61f146102f7578063be27c3fe14610337578063bea7d6ac146103625761012a565b80634ab3a732116100f25780634ab3a732146101f15780635c042ae71461021a578063715018a61461024557806379cf30771461025c5780638da5cb5b146102855761012a565b806303cd42481461012f5780631a2411651461015857806322d5dfbf1461017457806326af48321461019d57806346f17152146101c6575b600080fd5b34801561013b57600080fd5b5061015660048036038101906101519190612f9e565b6104a0565b005b610172600480360381019061016d9190613005565b610504565b005b34801561018057600080fd5b5061019b6004803603810190610196919061306c565b610cb9565b005b3480156101a957600080fd5b506101c460048036038101906101bf9190613005565b610d33565b005b3480156101d257600080fd5b506101db61133c565b6040516101e891906130ce565b60405180910390f35b3480156101fd57600080fd5b5061021860048036038101906102139190613005565b611362565b005b34801561022657600080fd5b5061022f611514565b60405161023c91906130ce565b60405180910390f35b34801561025157600080fd5b5061025a61153a565b005b34801561026857600080fd5b50610283600480360381019061027e919061306c565b61154e565b005b34801561029157600080fd5b5061029a611722565b6040516102a791906130ce565b60405180910390f35b6102ca60048036038101906102c591906130e9565b61174b565b005b3480156102d857600080fd5b506102e16117dc565b6040516102ee9190613138565b60405180910390f35b34801561030357600080fd5b5061031e60048036038101906103199190613005565b6117e2565b60405161032e949392919061316e565b60405180910390f35b34801561034357600080fd5b5061034c611896565b6040516103599190613212565b60405180910390f35b34801561036e57600080fd5b506103896004803603810190610384919061306c565b6118bc565b604051610399949392919061316e565b60405180910390f35b3480156103ae57600080fd5b506103c960048036038101906103c4919061371d565b611963565b005b3480156103d757600080fd5b506103e0612a66565b6040516103ed9190613138565b60405180910390f35b34801561040257600080fd5b5061040b612a6c565b6040516104189190613138565b60405180910390f35b34801561042d57600080fd5b50610436612a72565b60405161044391906130ce565b60405180910390f35b34801561045857600080fd5b50610473600480360381019061046e91906137d0565b612a98565b005b34801561048157600080fd5b5061048a612b1b565b604051610497919061381e565b60405180910390f35b6104a8612b41565b83600860006101000a81548173ffffffffffffffffffffffffffffffffffffffff021916908373ffffffffffffffffffffffffffffffffffffffff16021790555082600581905550816006819055508060078190555050505050565b6000600260009054906101000a900473ffffffffffffffffffffffffffffffffffffffff1673ffffffffffffffffffffffffffffffffffffffff166345bceabd866040518263ffffffff1660e01b815260040161056191906130ce565b600060405180830381865afa15801561057e573d6000803e3d6000fd5b505050506040513d6000823e3d601f19601f820116820180604052508101906105a79190613911565b905060008060005b83518110156106d157600460009054906101000a900473ffffffffffffffffffffffffffffffffffffffff1673ffffffffffffffffffffffffffffffffffffffff16637f3d39bd8583815181106106095761060861395a565b5b60200260200101516040518263ffffffff1660e01b815260040161062d9190613138565b600060405180830381865afa15801561064a573d6000803e3d6000fd5b505050506040513d6000823e3d601f19601f820116820180604052508101906106739190613a38565b9091929350909150905050809350503373ffffffffffffffffffffffffffffffffffffffff168373ffffffffffffffffffffffffffffffffffffffff16036106be57600191506106d1565b80806106c990613b36565b9150506105af565b506000151581151503610719576040517f08c379a000000000000000000000000000000000000000000000000000000000815260040161071090613c01565b60405180910390fd5b60008403610a1f5760005b600960008973ffffffffffffffffffffffffffffffffffffffff1673ffffffffffffffffffffffffffffffffffffffff16815260200190815260200160002060008873ffffffffffffffffffffffffffffffffffffffff1673ffffffffffffffffffffffffffffffffffffffff16815260200190815260200160002080549050811015610a19573373ffffffffffffffffffffffffffffffffffffffff16600960008a73ffffffffffffffffffffffffffffffffffffffff1673ffffffffffffffffffffffffffffffffffffffff16815260200190815260200160002060008973ffffffffffffffffffffffffffffffffffffffff1673ffffffffffffffffffffffffffffffffffffffff16815260200190815260200160002082815481106108505761084f61395a565b5b906000526020600020906007020160020160009054906101000a900473ffffffffffffffffffffffffffffffffffffffff1673ffffffffffffffffffffffffffffffffffffffff1603610a06576000600960008a73ffffffffffffffffffffffffffffffffffffffff1673ffffffffffffffffffffffffffffffffffffffff16815260200190815260200160002060008973ffffffffffffffffffffffffffffffffffffffff1673ffffffffffffffffffffffffffffffffffffffff168152602001908152602001600020828154811061092d5761092c61395a565b5b906000526020600020906007020160000154905061094c89898361154e565b6001600960008b73ffffffffffffffffffffffffffffffffffffffff1673ffffffffffffffffffffffffffffffffffffffff16815260200190815260200160002060008a73ffffffffffffffffffffffffffffffffffffffff1673ffffffffffffffffffffffffffffffffffffffff16815260200190815260200160002083815481106109dc576109db61395a565b5b906000526020600020906007020160060160006101000a81548160ff021916908315150217905550505b8080610a1190613b36565b915050610724565b50610cb0565b60018403610caf5760005b600a60008973ffffffffffffffffffffffffffffffffffffffff1673ffffffffffffffffffffffffffffffffffffffff16815260200190815260200160002060008873ffffffffffffffffffffffffffffffffffffffff1673ffffffffffffffffffffffffffffffffffffffff168152602001908152602001600020600087815260200190815260200160002080549050811015610cad573373ffffffffffffffffffffffffffffffffffffffff16600a60008a73ffffffffffffffffffffffffffffffffffffffff1673ffffffffffffffffffffffffffffffffffffffff16815260200190815260200160002060008973ffffffffffffffffffffffffffffffffffffffff1673ffffffffffffffffffffffffffffffffffffffff16815260200190815260200160002060008881526020019081526020016000208281548110610b7857610b7761395a565b5b906000526020600020906007020160020160009054906101000a900473ffffffffffffffffffffffffffffffffffffffff1673ffffffffffffffffffffffffffffffffffffffff1603610c9a57610bd0888888610cb9565b6001600a60008a73ffffffffffffffffffffffffffffffffffffffff1673ffffffffffffffffffffffffffffffffffffffff16815260200190815260200160002060008973ffffffffffffffffffffffffffffffffffffffff1673ffffffffffffffffffffffffffffffffffffffff16815260200190815260200160002060008881526020019081526020016000208281548110610c7157610c7061395a565b5b906000526020600020906007020160060160006101000a81548160ff0219169083151502179055505b8080610ca590613b36565b915050610a2a565b505b5b50505050505050565b60008290508073ffffffffffffffffffffffffffffffffffffffff166323b872dd8533856040518463ffffffff1660e01b8152600401610cfb93929190613c21565b600060405180830381600087803b158015610d1557600080fd5b505af1158015610d29573d6000803e3d6000fd5b5050505050505050565b600260009054906101000a900473ffffffffffffffffffffffffffffffffffffffff1673ffffffffffffffffffffffffffffffffffffffff16633d4c12d7856040518263ffffffff1660e01b8152600401610d8e91906130ce565b602060405180830381865afa158015610dab573d6000803e3d6000fd5b505050506040513d601f19601f82011682018060405250810190610dcf9190613c6d565b610e0e576040517f08c379a0000000000000000000000000000000000000000000000000000000008152600401610e0590613d0c565b60405180910390fd5b600080600083036110ae5760005b600960008873ffffffffffffffffffffffffffffffffffffffff1673ffffffffffffffffffffffffffffffffffffffff16815260200190815260200160002060008773ffffffffffffffffffffffffffffffffffffffff1673ffffffffffffffffffffffffffffffffffffffff16815260200190815260200160002080549050811015611061573373ffffffffffffffffffffffffffffffffffffffff16600960008973ffffffffffffffffffffffffffffffffffffffff1673ffffffffffffffffffffffffffffffffffffffff16815260200190815260200160002060008873ffffffffffffffffffffffffffffffffffffffff1673ffffffffffffffffffffffffffffffffffffffff1681526020019081526020016000208281548110610f4857610f4761395a565b5b906000526020600020906007020160020160009054906101000a900473ffffffffffffffffffffffffffffffffffffffff1673ffffffffffffffffffffffffffffffffffffffff160361104e576000600960008973ffffffffffffffffffffffffffffffffffffffff1673ffffffffffffffffffffffffffffffffffffffff16815260200190815260200160002060008873ffffffffffffffffffffffffffffffffffffffff1673ffffffffffffffffffffffffffffffffffffffff16815260200190815260200160002082815481106110255761102461395a565b5b906000526020600020906007020160000154905061104488888361154e565b6001925050611061565b808061105990613b36565b915050610e1c565b5060001515811515036110a9576040517f08c379a00000000000000000000000000000000000000000000000000000000081526004016110a090613dc4565b60405180910390fd5b6112b4565b600183036112b35760005b600960008873ffffffffffffffffffffffffffffffffffffffff1673ffffffffffffffffffffffffffffffffffffffff16815260200190815260200160002060008773ffffffffffffffffffffffffffffffffffffffff1673ffffffffffffffffffffffffffffffffffffffff1681526020019081526020016000208054905081101561126a573373ffffffffffffffffffffffffffffffffffffffff16600a60008973ffffffffffffffffffffffffffffffffffffffff1673ffffffffffffffffffffffffffffffffffffffff16815260200190815260200160002060008873ffffffffffffffffffffffffffffffffffffffff1673ffffffffffffffffffffffffffffffffffffffff168152602001908152602001600020600087815260200190815260200160002082815481106111f6576111f561395a565b5b906000526020600020906007020160020160009054906101000a900473ffffffffffffffffffffffffffffffffffffffff1673ffffffffffffffffffffffffffffffffffffffff16036112575761124e878787610cb9565b6001915061126a565b808061126290613b36565b9150506110b9565b5060001515811515036112b2576040517f08c379a00000000000000000000000000000000000000000000000000000000081526004016112a990613dc4565b60405180910390fd5b5b5b8473ffffffffffffffffffffffffffffffffffffffff163373ffffffffffffffffffffffffffffffffffffffff168773ffffffffffffffffffffffffffffffffffffffff167f5ccac6a981ee0d2404d2487672d204c80cc526da4f51e90dd5ae4cfe880a9add87868860405161132c93929190613de4565b60405180910390a4505050505050565b600160009054906101000a900473ffffffffffffffffffffffffffffffffffffffff1681565b3373ffffffffffffffffffffffffffffffffffffffff16600260009054906101000a900473ffffffffffffffffffffffffffffffffffffffff1673ffffffffffffffffffffffffffffffffffffffff1663c3bb8121866040518263ffffffff1660e01b81526004016113d491906130ce565b600060405180830381865afa1580156113f1573d6000803e3d6000fd5b505050506040513d6000823e3d601f19601f8201168201806040525081019061141a9190614092565b60e0015173ffffffffffffffffffffffffffffffffffffffff1614611474576040517f08c379a000000000000000000000000000000000000000000000000000000000815260040161146b9061414d565b60405180910390fd5b600080820361148e576114898585606461154e565b6114a4565b60008311156114a3576114a2858585610cb9565b5b5b8373ffffffffffffffffffffffffffffffffffffffff168573ffffffffffffffffffffffffffffffffffffffff167faa3446f866f557932f6c5a4933379c0e3e3fd6dcc0a20cfae5222255ffd16bdd85848660405161150593929190613de4565b60405180910390a35050505050565b600860009054906101000a900473ffffffffffffffffffffffffffffffffffffffff1681565b611542612b41565b61154c6000612bbf565b565b600082905060006064838373ffffffffffffffffffffffffffffffffffffffff166370a08231886040518263ffffffff1660e01b815260040161159191906130ce565b602060405180830381865afa1580156115ae573d6000803e3d6000fd5b505050506040513d601f19601f820116820180604052508101906115d2919061416d565b6115dc919061419a565b6115e6919061420b565b90506000612710600754836115fb919061419a565b611605919061420b565b905060008183611615919061423c565b90508373ffffffffffffffffffffffffffffffffffffffff166323b872dd8830856040518463ffffffff1660e01b815260040161165493929190613c21565b6020604051808303816000875af1158015611673573d6000803e3d6000fd5b505050506040513d601f19601f820116820180604052508101906116979190613c6d565b508373ffffffffffffffffffffffffffffffffffffffff166323b872dd8833846040518463ffffffff1660e01b81526004016116d593929190613c21565b6020604051808303816000875af11580156116f4573d6000803e3d6000fd5b505050506040513d601f19601f820116820180604052508101906117189190613c6d565b5050505050505050565b60008060009054906101000a900473ffffffffffffffffffffffffffffffffffffffff16905090565b611753612b41565b60008190508073ffffffffffffffffffffffffffffffffffffffff1663a9059cbb33856040518363ffffffff1660e01b8152600401611793929190614270565b6020604051808303816000875af11580156117b2573d6000803e3d6000fd5b505050506040513d601f19601f820116820180604052508101906117d69190613c6d565b50505050565b60055481565b600a602052836000526040600020602052826000526040600020602052816000526040600020818154811061181657600080fd5b90600052602060002090600702016000935093505050508060000154908060010160009054906101000a900473ffffffffffffffffffffffffffffffffffffffff16908060020160009054906101000a900473ffffffffffffffffffffffffffffffffffffffff16908060060160009054906101000a900460ff16905084565b600260009054906101000a900473ffffffffffffffffffffffffffffffffffffffff1681565b600960205282600052604060002060205281600052604060002081815481106118e457600080fd5b906000526020600020906007020160009250925050508060000154908060010160009054906101000a900473ffffffffffffffffffffffffffffffffffffffff16908060020160009054906101000a900473ffffffffffffffffffffffffffffffffffffffff16908060060160009054906101000a900460ff16905084565b600260009054906101000a900473ffffffffffffffffffffffffffffffffffffffff1673ffffffffffffffffffffffffffffffffffffffff16630f1f8c05336040518263ffffffff1660e01b81526004016119be91906130ce565b602060405180830381865afa1580156119db573d6000803e3d6000fd5b505050506040513d601f19601f820116820180604052508101906119ff9190613c6d565b611a3e576040517f08c379a0000000000000000000000000000000000000000000000000000000008152600401611a359061430b565b60405180910390fd5b600260009054906101000a900473ffffffffffffffffffffffffffffffffffffffff1673ffffffffffffffffffffffffffffffffffffffff166315b79630336040518263ffffffff1660e01b8152600401611a9991906130ce565b602060405180830381865afa158015611ab6573d6000803e3d6000fd5b505050506040513d601f19601f82011682018060405250810190611ada9190613c6d565b611b19576040517f08c379a0000000000000000000000000000000000000000000000000000000008152600401611b10906143c3565b60405180910390fd5b6000600260009054906101000a900473ffffffffffffffffffffffffffffffffffffffff1673ffffffffffffffffffffffffffffffffffffffff166320e4ab6a336040518263ffffffff1660e01b8152600401611b7691906130ce565b600060405180830381865afa158015611b93573d6000803e3d6000fd5b505050506040513d6000823e3d601f19601f82011682018060405250810190611bbc91906143e3565b9050600080600260009054906101000a900473ffffffffffffffffffffffffffffffffffffffff1673ffffffffffffffffffffffffffffffffffffffff166345bceabd336040518263ffffffff1660e01b8152600401611c1c91906130ce565b600060405180830381865afa158015611c39573d6000803e3d6000fd5b505050506040513d6000823e3d601f19601f82011682018060405250810190611c629190613911565b9050600080600090505b8551811015611f4e5760005b868281518110611c8b57611c8a61395a565b5b60200260200101516060015151811015611dab576000945060005b8651811015611d5057868181518110611cc257611cc161395a565b5b602002602001015173ffffffffffffffffffffffffffffffffffffffff16888481518110611cf357611cf261395a565b5b6020026020010151606001518381518110611d1157611d1061395a565b5b602002602001015173ffffffffffffffffffffffffffffffffffffffff1603611d3d5760019550611d50565b8080611d4890613b36565b915050611ca6565b506000151585151503611d98576040517f08c379a0000000000000000000000000000000000000000000000000000000008152600401611d8f906144c4565b60405180910390fd5b8080611da390613b36565b915050611c78565b5060005b8351811015611ef3576000600460009054906101000a900473ffffffffffffffffffffffffffffffffffffffff1673ffffffffffffffffffffffffffffffffffffffff16637f3d39bd868581518110611e0b57611e0a61395a565b5b60200260200101516040518263ffffffff1660e01b8152600401611e2f9190613138565b600060405180830381865afa158015611e4c573d6000803e3d6000fd5b505050506040513d6000823e3d601f19601f82011682018060405250810190611e759190613a38565b9091929350909150905050809150508073ffffffffffffffffffffffffffffffffffffffff16888481518110611eae57611ead61395a565b5b60200260200101516020015173ffffffffffffffffffffffffffffffffffffffff1603611edf576001935050611ef3565b508080611eeb90613b36565b915050611daf565b506000151582151503611f3b576040517f08c379a0000000000000000000000000000000000000000000000000000000008152600401611f329061457c565b60405180910390fd5b8080611f4690613b36565b915050611c6c565b506000600260009054906101000a900473ffffffffffffffffffffffffffffffffffffffff1673ffffffffffffffffffffffffffffffffffffffff1663de508c5b338c6040518363ffffffff1660e01b8152600401611fae92919061459c565b600060405180830381865afa158015611fcb573d6000803e3d6000fd5b505050506040513d6000823e3d601f19601f82011682018060405250810190611ff491906145c5565b909192939450909192935090919250909150905080915050600080600090505b875181101561205c578781815181106120305761202f61395a565b5b60200260200101516000015182612047919061466e565b9150808061205490613b36565b915050612014565b5060648111156120a1576040517f08c379a00000000000000000000000000000000000000000000000000000000081526004016120989061473a565b60405180910390fd5b8161214257600260009054906101000a900473ffffffffffffffffffffffffffffffffffffffff1673ffffffffffffffffffffffffffffffffffffffff166325cb763a338d8d8d868e6040518763ffffffff1660e01b815260040161210b9695949392919061479e565b600060405180830381600087803b15801561212557600080fd5b505af1158015612139573d6000803e3d6000fd5b50505050612568565b6000600860009054906101000a900473ffffffffffffffffffffffffffffffffffffffff16905060008a03612341576005548173ffffffffffffffffffffffffffffffffffffffff1663dd62ed3e33306040518363ffffffff1660e01b81526004016121af92919061459c565b602060405180830381865afa1580156121cc573d6000803e3d6000fd5b505050506040513d601f19601f820116820180604052508101906121f0919061416d565b1015612231576040517f08c379a000000000000000000000000000000000000000000000000000000000815260040161222890614878565b60405180910390fd5b8073ffffffffffffffffffffffffffffffffffffffff166323b872dd33306005546040518463ffffffff1660e01b815260040161227093929190613c21565b6020604051808303816000875af115801561228f573d6000803e3d6000fd5b505050506040513d601f19601f820116820180604052508101906122b39190613c6d565b50600960003373ffffffffffffffffffffffffffffffffffffffff1673ffffffffffffffffffffffffffffffffffffffff16815260200190815260200160002060008d73ffffffffffffffffffffffffffffffffffffffff1673ffffffffffffffffffffffffffffffffffffffff168152602001908152602001600020600061233c9190612c8b565b612566565b60018a0361252a576006548173ffffffffffffffffffffffffffffffffffffffff1663dd62ed3e33306040518363ffffffff1660e01b815260040161238792919061459c565b602060405180830381865afa1580156123a4573d6000803e3d6000fd5b505050506040513d601f19601f820116820180604052508101906123c8919061416d565b1015612409576040517f08c379a000000000000000000000000000000000000000000000000000000000815260040161240090614878565b60405180910390fd5b8073ffffffffffffffffffffffffffffffffffffffff166323b872dd33306006546040518463ffffffff1660e01b815260040161244893929190613c21565b6020604051808303816000875af1158015612467573d6000803e3d6000fd5b505050506040513d601f19601f8201168201806040525081019061248b9190613c6d565b50600a60003373ffffffffffffffffffffffffffffffffffffffff1673ffffffffffffffffffffffffffffffffffffffff16815260200190815260200160002060008d73ffffffffffffffffffffffffffffffffffffffff1673ffffffffffffffffffffffffffffffffffffffff16815260200190815260200160002060008a815260200190815260200160002060006125259190612c8b565b612565565b6040517f08c379a000000000000000000000000000000000000000000000000000000000815260040161255c9061490a565b60405180910390fd5b5b505b600260009054906101000a900473ffffffffffffffffffffffffffffffffffffffff1673ffffffffffffffffffffffffffffffffffffffff1663b69bd77f338d8b858e6040518663ffffffff1660e01b81526004016125cb95949392919061492a565b600060405180830381600087803b1580156125e557600080fd5b505af11580156125f9573d6000803e3d6000fd5b50505050600089036127fb5760005b87518110156127f557600960003373ffffffffffffffffffffffffffffffffffffffff1673ffffffffffffffffffffffffffffffffffffffff16815260200190815260200160002060008d73ffffffffffffffffffffffffffffffffffffffff1673ffffffffffffffffffffffffffffffffffffffff1681526020019081526020016000208882815181106126a05761269f61395a565b5b602002602001015190806001815401808255809150506001900390600052602060002090600702016000909190919091506000820151816000015560208201518160010160006101000a81548173ffffffffffffffffffffffffffffffffffffffff021916908373ffffffffffffffffffffffffffffffffffffffff16021790555060408201518160020160006101000a81548173ffffffffffffffffffffffffffffffffffffffff021916908373ffffffffffffffffffffffffffffffffffffffff1602179055506060820151816003019080519060200190612785929190612caf565b5060808201518160040190805190602001906127a2929190612d39565b5060a08201518160050190805190602001906127bf929190612d39565b5060c08201518160060160006101000a81548160ff021916908315150217905550505080806127ed90613b36565b915050612608565b50612a07565b60018903612a065760005b8751811015612a0457600a60003373ffffffffffffffffffffffffffffffffffffffff1673ffffffffffffffffffffffffffffffffffffffff16815260200190815260200160002060008d73ffffffffffffffffffffffffffffffffffffffff1673ffffffffffffffffffffffffffffffffffffffff16815260200190815260200160002060008a81526020019081526020016000208882815181106128af576128ae61395a565b5b602002602001015190806001815401808255809150506001900390600052602060002090600702016000909190919091506000820151816000015560208201518160010160006101000a81548173ffffffffffffffffffffffffffffffffffffffff021916908373ffffffffffffffffffffffffffffffffffffffff16021790555060408201518160020160006101000a81548173ffffffffffffffffffffffffffffffffffffffff021916908373ffffffffffffffffffffffffffffffffffffffff1602179055506060820151816003019080519060200190612994929190612caf565b5060808201518160040190805190602001906129b1929190612d39565b5060a08201518160050190805190602001906129ce929190612d39565b5060c08201518160060160006101000a81548160ff021916908315150217905550505080806129fc90613b36565b915050612806565b505b5b3373ffffffffffffffffffffffffffffffffffffffff167f356b94cb07d152dfb4f8876f9a6f4c7007027dd30aecb0ac9b698849e14e0e718c8a8c604051612a519392919061497d565b60405180910390a25050505050505050505050565b60065481565b60075481565b600360009054906101000a900473ffffffffffffffffffffffffffffffffffffffff1681565b612aa0612b41565b600073ffffffffffffffffffffffffffffffffffffffff168173ffffffffffffffffffffffffffffffffffffffff1603612b0f576040517f08c379a0000000000000000000000000000000000000000000000000000000008152600401612b0690614a26565b60405180910390fd5b612b1881612bbf565b50565b600460009054906101000a900473ffffffffffffffffffffffffffffffffffffffff1681565b612b49612c83565b73ffffffffffffffffffffffffffffffffffffffff16612b67611722565b73ffffffffffffffffffffffffffffffffffffffff1614612bbd576040517f08c379a0000000000000000000000000000000000000000000000000000000008152600401612bb490614a92565b60405180910390fd5b565b60008060009054906101000a900473ffffffffffffffffffffffffffffffffffffffff169050816000806101000a81548173ffffffffffffffffffffffffffffffffffffffff021916908373ffffffffffffffffffffffffffffffffffffffff1602179055508173ffffffffffffffffffffffffffffffffffffffff168173ffffffffffffffffffffffffffffffffffffffff167f8be0079c531659141344cd1fd0a4f28419497f9722a3daafe3b4186f6b6457e060405160405180910390a35050565b600033905090565b5080546000825560070290600052602060002090810190612cac9190612ddf565b50565b828054828255906000526020600020908101928215612d28579160200282015b82811115612d275782518260006101000a81548173ffffffffffffffffffffffffffffffffffffffff021916908373ffffffffffffffffffffffffffffffffffffffff16021790555091602001919060010190612ccf565b5b509050612d359190612e90565b5090565b82805482825590600052602060002090601f01602090048101928215612dce5791602002820160005b83821115612d9f57835183826101000a81548160ff0219169083151502179055509260200192600101602081600001049283019260010302612d62565b8015612dcc5782816101000a81549060ff0219169055600101602081600001049283019260010302612d9f565b505b509050612ddb9190612e90565b5090565b5b80821115612e8c576000808201600090556001820160006101000a81549073ffffffffffffffffffffffffffffffffffffffff02191690556002820160006101000a81549073ffffffffffffffffffffffffffffffffffffffff0219169055600382016000612e4f9190612ead565b600482016000612e5f9190612ece565b600582016000612e6f9190612ece565b6006820160006101000a81549060ff021916905550600701612de0565b5090565b5b80821115612ea9576000816000905550600101612e91565b5090565b5080546000825590600052602060002090810190612ecb9190612e90565b50565b50805460008255601f016020900490600052602060002090810190612ef39190612e90565b50565b6000604051905090565b600080fd5b600080fd5b600073ffffffffffffffffffffffffffffffffffffffff82169050919050565b6000612f3582612f0a565b9050919050565b612f4581612f2a565b8114612f5057600080fd5b50565b600081359050612f6281612f3c565b92915050565b6000819050919050565b612f7b81612f68565b8114612f8657600080fd5b50565b600081359050612f9881612f72565b92915050565b60008060008060808587031215612fb857612fb7612f00565b5b6000612fc687828801612f53565b9450506020612fd787828801612f89565b9350506040612fe887828801612f89565b9250506060612ff987828801612f89565b91505092959194509250565b6000806000806080858703121561301f5761301e612f00565b5b600061302d87828801612f53565b945050602061303e87828801612f53565b935050604061304f87828801612f89565b925050606061306087828801612f89565b91505092959194509250565b60008060006060848603121561308557613084612f00565b5b600061309386828701612f53565b93505060206130a486828701612f53565b92505060406130b586828701612f89565b9150509250925092565b6130c881612f2a565b82525050565b60006020820190506130e360008301846130bf565b92915050565b60008060408385031215613100576130ff612f00565b5b600061310e85828601612f89565b925050602061311f85828601612f53565b9150509250929050565b61313281612f68565b82525050565b600060208201905061314d6000830184613129565b92915050565b60008115159050919050565b61316881613153565b82525050565b60006080820190506131836000830187613129565b61319060208301866130bf565b61319d60408301856130bf565b6131aa606083018461315f565b95945050505050565b6000819050919050565b60006131d86131d36131ce84612f0a565b6131b3565b612f0a565b9050919050565b60006131ea826131bd565b9050919050565b60006131fc826131df565b9050919050565b61320c816131f1565b82525050565b60006020820190506132276000830184613203565b92915050565b600080fd5b600080fd5b6000601f19601f8301169050919050565b7f4e487b7100000000000000000000000000000000000000000000000000000000600052604160045260246000fd5b61328082613237565b810181811067ffffffffffffffff8211171561329f5761329e613248565b5b80604052505050565b60006132b2612ef6565b90506132be8282613277565b919050565b600067ffffffffffffffff8211156132de576132dd613248565b5b6132e782613237565b9050602081019050919050565b82818337600083830152505050565b6000613316613311846132c3565b6132a8565b90508281526020810184848401111561333257613331613232565b5b61333d8482856132f4565b509392505050565b600082601f83011261335a5761335961322d565b5b813561336a848260208601613303565b91505092915050565b600067ffffffffffffffff82111561338e5761338d613248565b5b602082029050602081019050919050565b600080fd5b600080fd5b600080fd5b600067ffffffffffffffff8211156133c9576133c8613248565b5b602082029050602081019050919050565b60006133ed6133e8846133ae565b6132a8565b905080838252602082019050602084028301858111156134105761340f61339f565b5b835b8181101561343957806134258882612f53565b845260208401935050602081019050613412565b5050509392505050565b600082601f8301126134585761345761322d565b5b81356134688482602086016133da565b91505092915050565b600067ffffffffffffffff82111561348c5761348b613248565b5b602082029050602081019050919050565b6134a681613153565b81146134b157600080fd5b50565b6000813590506134c38161349d565b92915050565b60006134dc6134d784613471565b6132a8565b905080838252602082019050602084028301858111156134ff576134fe61339f565b5b835b81811015613528578061351488826134b4565b845260208401935050602081019050613501565b5050509392505050565b600082601f8301126135475761354661322d565b5b81356135578482602086016134c9565b91505092915050565b600060e08284031215613576576135756133a4565b5b61358060e06132a8565b9050600061359084828501612f89565b60008301525060206135a484828501612f53565b60208301525060406135b884828501612f53565b604083015250606082013567ffffffffffffffff8111156135dc576135db6133a9565b5b6135e884828501613443565b606083015250608082013567ffffffffffffffff81111561360c5761360b6133a9565b5b61361884828501613532565b60808301525060a082013567ffffffffffffffff81111561363c5761363b6133a9565b5b61364884828501613532565b60a08301525060c061365c848285016134b4565b60c08301525092915050565b600061367b61367684613373565b6132a8565b9050808382526020820190506020840283018581111561369e5761369d61339f565b5b835b818110156136e557803567ffffffffffffffff8111156136c3576136c261322d565b5b8086016136d08982613560565b855260208501945050506020810190506136a0565b5050509392505050565b600082601f8301126137045761370361322d565b5b8135613714848260208601613668565b91505092915050565b600080600080600060a0868803121561373957613738612f00565b5b600061374788828901612f53565b955050602086013567ffffffffffffffff81111561376857613767612f05565b5b61377488828901613345565b945050604061378588828901612f89565b935050606061379688828901612f89565b925050608086013567ffffffffffffffff8111156137b7576137b6612f05565b5b6137c3888289016136ef565b9150509295509295909350565b6000602082840312156137e6576137e5612f00565b5b60006137f484828501612f53565b91505092915050565b6000613808826131df565b9050919050565b613818816137fd565b82525050565b6000602082019050613833600083018461380f565b92915050565b600067ffffffffffffffff82111561385457613853613248565b5b602082029050602081019050919050565b60008151905061387481612f72565b92915050565b600061388d61388884613839565b6132a8565b905080838252602082019050602084028301858111156138b0576138af61339f565b5b835b818110156138d957806138c58882613865565b8452602084019350506020810190506138b2565b5050509392505050565b600082601f8301126138f8576138f761322d565b5b815161390884826020860161387a565b91505092915050565b60006020828403121561392757613926612f00565b5b600082015167ffffffffffffffff81111561394557613944612f05565b5b613951848285016138e3565b91505092915050565b7f4e487b7100000000000000000000000000000000000000000000000000000000600052603260045260246000fd5b60008151905061399881612f3c565b92915050565b60005b838110156139bc5780820151818401526020810190506139a1565b60008484015250505050565b60006139db6139d6846132c3565b6132a8565b9050828152602081018484840111156139f7576139f6613232565b5b613a0284828561399e565b509392505050565b600082601f830112613a1f57613a1e61322d565b5b8151613a2f8482602086016139c8565b91505092915050565b600080600080600060a08688031215613a5457613a53612f00565b5b6000613a6288828901613865565b9550506020613a7388828901613989565b945050604086015167ffffffffffffffff811115613a9457613a93612f05565b5b613aa088828901613a0a565b935050606086015167ffffffffffffffff811115613ac157613ac0612f05565b5b613acd88828901613a0a565b925050608086015167ffffffffffffffff811115613aee57613aed612f05565b5b613afa88828901613a0a565b9150509295509295909350565b7f4e487b7100000000000000000000000000000000000000000000000000000000600052601160045260246000fd5b6000613b4182612f68565b91507fffffffffffffffffffffffffffffffffffffffffffffffffffffffffffffffff8203613b7357613b72613b07565b5b600182019050919050565b600082825260208201905092915050565b7f536f7272792120596f7520617265206e6f74206e6f6d696e617465642062792060008201527f74686973206f776e657200000000000000000000000000000000000000000000602082015250565b6000613beb602a83613b7e565b9150613bf682613b8f565b604082019050919050565b60006020820190508181036000830152613c1a81613bde565b9050919050565b6000606082019050613c3660008301866130bf565b613c4360208301856130bf565b613c506040830184613129565b949350505050565b600081519050613c678161349d565b92915050565b600060208284031215613c8357613c82612f00565b5b6000613c9184828501613c58565b91505092915050565b7f536f7272792120596f752063616e277420636c61696d20746869732e2057652060008201527f77696c6c206d61696c20796f7520746f20636c61696d20746869732e00000000602082015250565b6000613cf6603c83613b7e565b9150613d0182613c9a565b604082019050919050565b60006020820190508181036000830152613d2581613ce9565b9050919050565b7f4f6f70732120596f752063616e277420636c61696d207468697320726967687460008201527f206e6f772e2057652077696c6c20696e666f726d20796f75207768656e20796f60208201527f752063616e20636c61696d2074686520746f6b656e2e00000000000000000000604082015250565b6000613dae605683613b7e565b9150613db982613d2c565b606082019050919050565b60006020820190508181036000830152613ddd81613da1565b9050919050565b6000606082019050613df96000830186613129565b613e066020830185613129565b613e136040830184613129565b949350505050565b6000613e2e613e29846133ae565b6132a8565b90508083825260208201905060208402830185811115613e5157613e5061339f565b5b835b81811015613e7a5780613e668882613989565b845260208401935050602081019050613e53565b5050509392505050565b600082601f830112613e9957613e9861322d565b5b8151613ea9848260208601613e1b565b91505092915050565b60006101a08284031215613ec957613ec86133a4565b5b613ed46101a06132a8565b9050600082015167ffffffffffffffff811115613ef457613ef36133a9565b5b613f0084828501613a0a565b600083015250602082015167ffffffffffffffff811115613f2457613f236133a9565b5b613f3084828501613a0a565b602083015250604082015167ffffffffffffffff811115613f5457613f536133a9565b5b613f6084828501613a0a565b604083015250606082015167ffffffffffffffff811115613f8457613f836133a9565b5b613f9084828501613a0a565b6060830152506080613fa484828501613c58565b60808301525060a0613fb884828501613c58565b60a08301525060c0613fcc84828501613c58565b60c08301525060e0613fe084828501613989565b60e08301525061010082015167ffffffffffffffff811115614005576140046133a9565b5b61401184828501613e84565b6101008301525061012082015167ffffffffffffffff811115614037576140366133a9565b5b614043848285016138e3565b6101208301525061014061405984828501613865565b6101408301525061016061406f84828501613865565b6101608301525061018061408584828501613865565b6101808301525092915050565b6000602082840312156140a8576140a7612f00565b5b600082015167ffffffffffffffff8111156140c6576140c5612f05565b5b6140d284828501613eb2565b91505092915050565b7f546865207265636f766572792061646472657373206f72206f776e657220616460008201527f647265737320697320696e636f72726563742100000000000000000000000000602082015250565b6000614137603383613b7e565b9150614142826140db565b604082019050919050565b600060208201905081810360008301526141668161412a565b9050919050565b60006020828403121561418357614182612f00565b5b600061419184828501613865565b91505092915050565b60006141a582612f68565b91506141b083612f68565b92508282026141be81612f68565b915082820484148315176141d5576141d4613b07565b5b5092915050565b7f4e487b7100000000000000000000000000000000000000000000000000000000600052601260045260246000fd5b600061421682612f68565b915061422183612f68565b925082614231576142306141dc565b5b828204905092915050565b600061424782612f68565b915061425283612f68565b925082820390508181111561426a57614269613b07565b5b92915050565b600060408201905061428560008301856130bf565b6142926020830184613129565b9392505050565b7f596f75206d757374206669727374207369676e20757020666f7220616e20616360008201527f636f756e742e0000000000000000000000000000000000000000000000000000602082015250565b60006142f5602683613b7e565b915061430082614299565b604082019050919050565b60006020820190508181036000830152614324816142e8565b9050919050565b7f596f757220656d61696c20686173206e6f7420796574206265656e2076616c6960008201527f64617465642e2056657269667920796f7572207265676973746572656420656d60208201527f61696c20616464726573732066697273742e0000000000000000000000000000604082015250565b60006143ad605283613b7e565b91506143b88261432b565b606082019050919050565b600060208201905081810360008301526143dc816143a0565b9050919050565b6000602082840312156143f9576143f8612f00565b5b600082015167ffffffffffffffff81111561441757614416612f05565b5b61442384828501613e84565b91505092915050565b7f436865636b207468617420616c6c20746865206e6f6d696e65657320796f752060008201527f617265206e6f6d696e6174696e6720617265206164646564206173206e6f6d6960208201527f6e6565732e000000000000000000000000000000000000000000000000000000604082015250565b60006144ae604583613b7e565b91506144b98261442c565b606082019050919050565b600060208201905081810360008301526144dd816144a1565b9050919050565b7f436865636b207468617420746865206368617269747920796f7520617265206e60008201527f6f6d696e6174696e67206973206c697374656420617320612077686974652d6c60208201527f697374656420636861726974792e000000000000000000000000000000000000604082015250565b6000614566604e83613b7e565b9150614571826144e4565b606082019050919050565b6000602082019050818103600083015261459581614559565b9050919050565b60006040820190506145b160008301856130bf565b6145be60208301846130bf565b9392505050565b60008060008060008060c087890312156145e2576145e1612f00565b5b60006145f089828a01613989565b965050602087015167ffffffffffffffff81111561461157614610612f05565b5b61461d89828a01613a0a565b955050604061462e89828a01613865565b945050606061463f89828a01613865565b935050608061465089828a01613865565b92505060a061466189828a01613c58565b9150509295509295509295565b600061467982612f68565b915061468483612f68565b925082820190508082111561469c5761469b613b07565b5b92915050565b7f4f6f70732120596f752063616e206f6e6c7920616c6c6f63617465206120313060008201527f30252073686172652e2054727920746f2072656475636520746865207368617260208201527f6520616d6f756e742e0000000000000000000000000000000000000000000000604082015250565b6000614724604983613b7e565b915061472f826146a2565b606082019050919050565b6000602082019050818103600083015261475381614717565b9050919050565b600081519050919050565b60006147708261475a565b61477a8185613b7e565b935061478a81856020860161399e565b61479381613237565b840191505092915050565b600060c0820190506147b360008301896130bf565b6147c060208301886130bf565b81810360408301526147d28187614765565b90506147e16060830186613129565b6147ee6080830185613129565b6147fb60a0830184613129565b979650505050505050565b7f54686520616c6c6f77616e636520746f2074686520636f6e747261637420697360008201527f206e6f7420656e6f756768210000000000000000000000000000000000000000602082015250565b6000614862602c83613b7e565b915061486d82614806565b604082019050919050565b6000602082019050818103600083015261489181614855565b9050919050565b7f5468652063617465676f72792076616c7565206d757374206265203020666f7260008201527f20746f6b656e7320616e64203120666f72204e46542e00000000000000000000602082015250565b60006148f4603683613b7e565b91506148ff82614898565b604082019050919050565b60006020820190508181036000830152614923816148e7565b9050919050565b600060a08201905061493f60008301886130bf565b61494c60208301876130bf565b6149596040830186613129565b6149666060830185613129565b6149736080830184613129565b9695505050505050565b600060608201905061499260008301866130bf565b61499f6020830185613129565b6149ac6040830184613129565b949350505050565b7f4f776e61626c653a206e6577206f776e657220697320746865207a65726f206160008201527f6464726573730000000000000000000000000000000000000000000000000000602082015250565b6000614a10602683613b7e565b9150614a1b826149b4565b604082019050919050565b60006020820190508181036000830152614a3f81614a03565b9050919050565b7f4f776e61626c653a2063616c6c6572206973206e6f7420746865206f776e6572600082015250565b6000614a7c602083613b7e565b9150614a8782614a46565b602082019050919050565b60006020820190508181036000830152614aab81614a6f565b905091905056fea264697066735822122093aea4dc7a41d93cbdc6629f68be855fd9c0fb2ee1d07fdd3d9bf6d2b0589e3364736f6c63430008110033",
  "linkReferences": {},
  "deployedLinkReferences": {}
}