{
  "_format": "hh-sol-artifact-1",
  "contractName": "MultiplePriorityNominee",
  "sourceName": "contracts/MultiplePriorityNominee.sol",
  "abi": [
    {
      "inputs": [
        {
          "internalType": "address",
          "name": "_inheritokensAddress",
          "type": "address"
        },
        {
          "internalType": "address",
          "name": "_charityContractAddress",
          "type": "address"
        }
      ],
      "stateMutability": "nonpayable",
      "type": "constructor"
    },
    {
      "anonymous": false,
      "inputs": [
        {
          "indexed": true,
          "internalType": "address",
          "name": "_owner",
          "type": "address"
        },
        {
          "indexed": true,
          "internalType": "address",
          "name": "_nominee",
          "type": "address"
        },
        {
          "indexed": true,
          "internalType": "address",
          "name": "_tokenAddress",
          "type": "address"
        },
        {
          "indexed": false,
          "internalType": "uint256",
          "name": "_tokenId",
          "type": "uint256"
        },
        {
          "indexed": false,
          "internalType": "uint256",
          "name": "_amount",
          "type": "uint256"
        },
        {
          "indexed": false,
          "internalType": "uint256",
          "name": "_category",
          "type": "uint256"
        }
      ],
      "name": "Claimed",
      "type": "event"
    },
    {
      "anonymous": false,
      "inputs": [
        {
          "indexed": true,
          "internalType": "address",
          "name": "previousOwner",
          "type": "address"
        },
        {
          "indexed": true,
          "internalType": "address",
          "name": "newOwner",
          "type": "address"
        }
      ],
      "name": "OwnershipTransferred",
      "type": "event"
    },
    {
      "anonymous": false,
      "inputs": [
        {
          "indexed": true,
          "internalType": "address",
          "name": "_owner",
          "type": "address"
        },
        {
          "indexed": true,
          "internalType": "address",
          "name": "_tokenAddress",
          "type": "address"
        },
        {
          "indexed": false,
          "internalType": "uint256",
          "name": "_tokenId",
          "type": "uint256"
        },
        {
          "indexed": false,
          "internalType": "uint256",
          "name": "_amount",
          "type": "uint256"
        },
        {
          "indexed": false,
          "internalType": "uint256",
          "name": "_category",
          "type": "uint256"
        }
      ],
      "name": "Recovered",
      "type": "event"
    },
    {
      "anonymous": false,
      "inputs": [
        {
          "indexed": true,
          "internalType": "address",
          "name": "_owner",
          "type": "address"
        },
        {
          "indexed": false,
          "internalType": "address",
          "name": "_tokenAddress",
          "type": "address"
        },
        {
          "indexed": false,
          "internalType": "uint256",
          "name": "_tokenId",
          "type": "uint256"
        },
        {
          "indexed": false,
          "internalType": "uint256",
          "name": "_category",
          "type": "uint256"
        }
      ],
      "name": "TokensAssigned",
      "type": "event"
    },
    {
      "inputs": [
        {
          "internalType": "address",
          "name": "_tokenAddress",
          "type": "address"
        },
        {
          "internalType": "string",
          "name": "_tokenName",
          "type": "string"
        },
        {
          "internalType": "uint256",
          "name": "_category",
          "type": "uint256"
        },
        {
          "internalType": "uint256",
          "name": "_tokenId",
          "type": "uint256"
        },
        {
          "components": [
            {
              "internalType": "uint256",
              "name": "share",
              "type": "uint256"
            },
            {
              "internalType": "uint256",
              "name": "charityId",
              "type": "uint256"
            },
            {
              "internalType": "address[]",
              "name": "nominee",
              "type": "address[]"
            },
            {
              "internalType": "bool[]",
              "name": "isNotAvailable",
              "type": "bool[]"
            },
            {
              "internalType": "bool[]",
              "name": "isClaimed",
              "type": "bool[]"
            },
            {
              "internalType": "bool",
              "name": "isDone",
              "type": "bool"
            }
          ],
          "internalType": "struct MultiplePriorityNominee.MultiplePriority[]",
          "name": "data",
          "type": "tuple[]"
        }
      ],
      "name": "assignTokensToMultipleNominees",
      "outputs": [],
      "stateMutability": "nonpayable",
      "type": "function"
    },
    {
      "inputs": [
        {
          "internalType": "address",
          "name": "_tokenAddress",
          "type": "address"
        }
      ],
      "name": "changeChargeTokenAddress",
      "outputs": [],
      "stateMutability": "nonpayable",
      "type": "function"
    },
    {
      "inputs": [
        {
          "internalType": "uint256",
          "name": "_charge",
          "type": "uint256"
        }
      ],
      "name": "changeNFTCharge",
      "outputs": [],
      "stateMutability": "nonpayable",
      "type": "function"
    },
    {
      "inputs": [
        {
          "internalType": "uint256",
          "name": "_amount",
          "type": "uint256"
        }
      ],
      "name": "changePercentage",
      "outputs": [],
      "stateMutability": "nonpayable",
      "type": "function"
    },
    {
      "inputs": [
        {
          "internalType": "uint256",
          "name": "_charge",
          "type": "uint256"
        }
      ],
      "name": "changeTokenCharge",
      "outputs": [],
      "stateMutability": "nonpayable",
      "type": "function"
    },
    {
      "inputs": [],
      "name": "chargeTokenAddress",
      "outputs": [
        {
          "internalType": "address",
          "name": "",
          "type": "address"
        }
      ],
      "stateMutability": "view",
      "type": "function"
    },
    {
      "inputs": [
        {
          "internalType": "address",
          "name": "_owner",
          "type": "address"
        },
        {
          "internalType": "address",
          "name": "_tokenAddress",
          "type": "address"
        },
        {
          "internalType": "uint256",
          "name": "_tokenId",
          "type": "uint256"
        },
        {
          "internalType": "uint256",
          "name": "_category",
          "type": "uint256"
        }
      ],
      "name": "charityClaim",
      "outputs": [],
      "stateMutability": "payable",
      "type": "function"
    },
    {
      "inputs": [],
      "name": "charityContract",
      "outputs": [
        {
          "internalType": "contract CharityContract",
          "name": "",
          "type": "address"
        }
      ],
      "stateMutability": "view",
      "type": "function"
    },
    {
      "inputs": [],
      "name": "charityContractAddress",
      "outputs": [
        {
          "internalType": "address",
          "name": "",
          "type": "address"
        }
      ],
      "stateMutability": "view",
      "type": "function"
    },
    {
      "inputs": [
        {
          "internalType": "address",
          "name": "_owner",
          "type": "address"
        },
        {
          "internalType": "address",
          "name": "_tokenAddress",
          "type": "address"
        },
        {
          "internalType": "uint256",
          "name": "_tokenId",
          "type": "uint256"
        },
        {
          "internalType": "uint256",
          "name": "_category",
          "type": "uint256"
        }
      ],
      "name": "claim",
      "outputs": [],
      "stateMutability": "nonpayable",
      "type": "function"
    },
    {
      "inputs": [
        {
          "internalType": "address",
          "name": "_owner",
          "type": "address"
        },
        {
          "internalType": "address",
          "name": "_tokenAddress",
          "type": "address"
        },
        {
          "internalType": "uint256",
          "name": "_tokenId",
          "type": "uint256"
        },
        {
          "internalType": "uint256",
          "name": "_category",
          "type": "uint256"
        }
      ],
      "name": "getAllStructs",
      "outputs": [
        {
          "components": [
            {
              "internalType": "uint256",
              "name": "share",
              "type": "uint256"
            },
            {
              "internalType": "uint256",
              "name": "charityId",
              "type": "uint256"
            },
            {
              "internalType": "address[]",
              "name": "nominee",
              "type": "address[]"
            },
            {
              "internalType": "bool[]",
              "name": "isNotAvailable",
              "type": "bool[]"
            },
            {
              "internalType": "bool[]",
              "name": "isClaimed",
              "type": "bool[]"
            },
            {
              "internalType": "bool",
              "name": "isDone",
              "type": "bool"
            }
          ],
          "internalType": "struct MultiplePriorityNominee.MultiplePriority[]",
          "name": "",
          "type": "tuple[]"
        }
      ],
      "stateMutability": "view",
      "type": "function"
    },
    {
      "inputs": [],
      "name": "getValues",
      "outputs": [
        {
          "internalType": "address",
          "name": "",
          "type": "address"
        },
        {
          "internalType": "uint256",
          "name": "",
          "type": "uint256"
        },
        {
          "internalType": "uint256",
          "name": "",
          "type": "uint256"
        },
        {
          "internalType": "uint256",
          "name": "",
          "type": "uint256"
        }
      ],
      "stateMutability": "view",
      "type": "function"
    },
    {
      "inputs": [],
      "name": "inheritokens",
      "outputs": [
        {
          "internalType": "contract Inheritokens",
          "name": "",
          "type": "address"
        }
      ],
      "stateMutability": "view",
      "type": "function"
    },
    {
      "inputs": [],
      "name": "inheritokensAddress",
      "outputs": [
        {
          "internalType": "address",
          "name": "",
          "type": "address"
        }
      ],
      "stateMutability": "view",
      "type": "function"
    },
    {
      "inputs": [],
      "name": "nftCharge",
      "outputs": [
        {
          "internalType": "uint256",
          "name": "",
          "type": "uint256"
        }
      ],
      "stateMutability": "view",
      "type": "function"
    },
    {
      "inputs": [],
      "name": "owner",
      "outputs": [
        {
          "internalType": "address",
          "name": "",
          "type": "address"
        }
      ],
      "stateMutability": "view",
      "type": "function"
    },
    {
      "inputs": [
        {
          "internalType": "address",
          "name": "",
          "type": "address"
        },
        {
          "internalType": "address",
          "name": "",
          "type": "address"
        },
        {
          "internalType": "uint256",
          "name": "",
          "type": "uint256"
        },
        {
          "internalType": "uint256",
          "name": "",
          "type": "uint256"
        }
      ],
      "name": "ownerToNFTToStruct",
      "outputs": [
        {
          "internalType": "uint256",
          "name": "share",
          "type": "uint256"
        },
        {
          "internalType": "uint256",
          "name": "charityId",
          "type": "uint256"
        },
        {
          "internalType": "bool",
          "name": "isDone",
          "type": "bool"
        }
      ],
      "stateMutability": "view",
      "type": "function"
    },
    {
      "inputs": [
        {
          "internalType": "address",
          "name": "",
          "type": "address"
        },
        {
          "internalType": "address",
          "name": "",
          "type": "address"
        },
        {
          "internalType": "uint256",
          "name": "",
          "type": "uint256"
        }
      ],
      "name": "ownerToTokenToStruct",
      "outputs": [
        {
          "internalType": "uint256",
          "name": "share",
          "type": "uint256"
        },
        {
          "internalType": "uint256",
          "name": "charityId",
          "type": "uint256"
        },
        {
          "internalType": "bool",
          "name": "isDone",
          "type": "bool"
        }
      ],
      "stateMutability": "view",
      "type": "function"
    },
    {
      "inputs": [],
      "name": "percentage",
      "outputs": [
        {
          "internalType": "uint256",
          "name": "",
          "type": "uint256"
        }
      ],
      "stateMutability": "view",
      "type": "function"
    },
    {
      "inputs": [
        {
          "internalType": "address",
          "name": "_owner",
          "type": "address"
        },
        {
          "internalType": "address",
          "name": "_tokenAddress",
          "type": "address"
        },
        {
          "internalType": "uint256",
          "name": "_tokenId",
          "type": "uint256"
        },
        {
          "internalType": "uint256",
          "name": "_category",
          "type": "uint256"
        }
      ],
      "name": "recoveryClaim",
      "outputs": [],
      "stateMutability": "nonpayable",
      "type": "function"
    },
    {
      "inputs": [],
      "name": "renounceOwnership",
      "outputs": [],
      "stateMutability": "nonpayable",
      "type": "function"
    },
    {
      "inputs": [],
      "name": "tokenCharge",
      "outputs": [
        {
          "internalType": "uint256",
          "name": "",
          "type": "uint256"
        }
      ],
      "stateMutability": "view",
      "type": "function"
    },
    {
      "inputs": [
        {
          "internalType": "address",
          "name": "newOwner",
          "type": "address"
        }
      ],
      "name": "transferOwnership",
      "outputs": [],
      "stateMutability": "nonpayable",
      "type": "function"
    },
    {
      "inputs": [
        {
          "internalType": "uint256",
          "name": "_amount",
          "type": "uint256"
        },
        {
          "internalType": "address",
          "name": "_tokenAddress",
          "type": "address"
        }
      ],
      "name": "withdrawFromContract",
      "outputs": [],
      "stateMutability": "payable",
      "type": "function"
    }
  ],
  "bytecode": "0x6080604052620f4240600555624c4b40600655600160075573e9dce89b076ba6107bb64ef30678efec11939234600860006101000a81548173ffffffffffffffffffffffffffffffffffffffff021916908373ffffffffffffffffffffffffffffffffffffffff1602179055503480156200007957600080fd5b506040516200683e3803806200683e83398181016040528101906200009f919062000345565b620000bf620000b36200020f60201b60201c565b6200021760201b60201c565b81600160006101000a81548173ffffffffffffffffffffffffffffffffffffffff021916908373ffffffffffffffffffffffffffffffffffffffff160217905550600160009054906101000a900473ffffffffffffffffffffffffffffffffffffffff16600260006101000a81548173ffffffffffffffffffffffffffffffffffffffff021916908373ffffffffffffffffffffffffffffffffffffffff16021790555080600360006101000a81548173ffffffffffffffffffffffffffffffffffffffff021916908373ffffffffffffffffffffffffffffffffffffffff160217905550600360009054906101000a900473ffffffffffffffffffffffffffffffffffffffff16600460006101000a81548173ffffffffffffffffffffffffffffffffffffffff021916908373ffffffffffffffffffffffffffffffffffffffff16021790555050506200038c565b600033905090565b60008060009054906101000a900473ffffffffffffffffffffffffffffffffffffffff169050816000806101000a81548173ffffffffffffffffffffffffffffffffffffffff021916908373ffffffffffffffffffffffffffffffffffffffff1602179055508173ffffffffffffffffffffffffffffffffffffffff168173ffffffffffffffffffffffffffffffffffffffff167f8be0079c531659141344cd1fd0a4f28419497f9722a3daafe3b4186f6b6457e060405160405180910390a35050565b600080fd5b600073ffffffffffffffffffffffffffffffffffffffff82169050919050565b60006200030d82620002e0565b9050919050565b6200031f8162000300565b81146200032b57600080fd5b50565b6000815190506200033f8162000314565b92915050565b600080604083850312156200035f576200035e620002db565b5b60006200036f858286016200032e565b925050602062000382858286016200032e565b9150509250929050565b6164a2806200039c6000396000f3fe60806040526004361061014b5760003560e01c80639605f505116100b6578063c407695b1161006f578063c407695b14610455578063c78ad77f14610480578063d41ab7b5146104ab578063f1d8eefc146104d4578063f2fde38b146104ff578063f4cd5465146105285761014b565b80639605f5051461033c5780639b252023146103585780639b785daa14610383578063a64ad61f146103ac578063be27c3fe146103eb578063bea7d6ac146104165761014b565b80635128eeef116101085780635128eeef146102405780635c042ae7146102695780635cdb4ce414610294578063715018a6146102d15780638da5cb5b146102e85780638df61325146103135761014b565b80630135ef0c1461015057806319eb4a90146101795780631a241165146101a757806326af4832146101c357806346f17152146101ec5780634ab3a73214610217575b600080fd5b34801561015c57600080fd5b5061017760048036038101906101729190614b2b565b610553565b005b34801561018557600080fd5b5061018e611489565b60405161019e9493929190614bfc565b60405180910390f35b6101c160048036038101906101bc9190614c41565b6114c9565b005b3480156101cf57600080fd5b506101ea60048036038101906101e59190614c41565b6124a9565b005b3480156101f857600080fd5b506102016130eb565b60405161020e9190614ca8565b60405180910390f35b34801561022357600080fd5b5061023e60048036038101906102399190614c41565b613111565b005b34801561024c57600080fd5b5061026760048036038101906102629190614cc3565b6134d6565b005b34801561027557600080fd5b5061027e6134e8565b60405161028b9190614ca8565b60405180910390f35b3480156102a057600080fd5b506102bb60048036038101906102b69190614c41565b61350e565b6040516102c89190614fd4565b60405180910390f35b3480156102dd57600080fd5b506102e6613a4d565b005b3480156102f457600080fd5b506102fd613a61565b60405161030a9190614ca8565b60405180910390f35b34801561031f57600080fd5b5061033a60048036038101906103359190614cc3565b613a8a565b005b61035660048036038101906103519190614ff6565b613a9c565b005b34801561036457600080fd5b5061036d613b2d565b60405161037a9190615036565b60405180910390f35b34801561038f57600080fd5b506103aa60048036038101906103a59190615051565b613b33565b005b3480156103b857600080fd5b506103d360048036038101906103ce9190614c41565b613b7f565b6040516103e29392919061508d565b60405180910390f35b3480156103f757600080fd5b50610400613bed565b60405161040d9190615123565b60405180910390f35b34801561042257600080fd5b5061043d6004803603810190610438919061513e565b613c13565b60405161044c9392919061508d565b60405180910390f35b34801561046157600080fd5b5061046a613c74565b6040516104779190615036565b60405180910390f35b34801561048c57600080fd5b50610495613c7a565b6040516104a29190615036565b60405180910390f35b3480156104b757600080fd5b506104d260048036038101906104cd9190614cc3565b613c80565b005b3480156104e057600080fd5b506104e9613c92565b6040516104f69190614ca8565b60405180910390f35b34801561050b57600080fd5b5061052660048036038101906105219190615051565b613cb8565b005b34801561053457600080fd5b5061053d613d3b565b60405161054a91906151b2565b60405180910390f35b600260009054906101000a900473ffffffffffffffffffffffffffffffffffffffff1673ffffffffffffffffffffffffffffffffffffffff16630f1f8c05336040518263ffffffff1660e01b81526004016105ae9190614ca8565b602060405180830381865afa1580156105cb573d6000803e3d6000fd5b505050506040513d601f19601f820116820180604052508101906105ef91906151e2565b61062e576040517f08c379a000000000000000000000000000000000000000000000000000000000815260040161062590615292565b60405180910390fd5b600260009054906101000a900473ffffffffffffffffffffffffffffffffffffffff1673ffffffffffffffffffffffffffffffffffffffff166315b79630336040518263ffffffff1660e01b81526004016106899190614ca8565b602060405180830381865afa1580156106a6573d6000803e3d6000fd5b505050506040513d601f19601f820116820180604052508101906106ca91906151e2565b610709576040517f08c379a00000000000000000000000000000000000000000000000000000000081526004016107009061534a565b60405180910390fd5b6000600260009054906101000a900473ffffffffffffffffffffffffffffffffffffffff1673ffffffffffffffffffffffffffffffffffffffff166320e4ab6a336040518263ffffffff1660e01b81526004016107669190614ca8565b600060405180830381865afa158015610783573d6000803e3d6000fd5b505050506040513d6000823e3d601f19601f820116820180604052508101906107ac9190615416565b9050600080600090505b83518110156109095760005b8482815181106107d5576107d461545f565b5b602002602001015160400151518110156108f5576000925060005b845181101561089a5784818151811061080c5761080b61545f565b5b602002602001015173ffffffffffffffffffffffffffffffffffffffff1686848151811061083d5761083c61545f565b5b602002602001015160400151838151811061085b5761085a61545f565b5b602002602001015173ffffffffffffffffffffffffffffffffffffffff1603610887576001935061089a565b8080610892906154bd565b9150506107f0565b5060001515831515036108e2576040517f08c379a00000000000000000000000000000000000000000000000000000000081526004016108d99061559d565b60405180910390fd5b80806108ed906154bd565b9150506107c2565b508080610901906154bd565b9150506107b6565b506000600260009054906101000a900473ffffffffffffffffffffffffffffffffffffffff1673ffffffffffffffffffffffffffffffffffffffff166345bceabd336040518263ffffffff1660e01b81526004016109679190614ca8565b600060405180830381865afa158015610984573d6000803e3d6000fd5b505050506040513d6000823e3d601f19601f820116820180604052508101906109ad9190615695565b9050600080600090505b8551811015610a825760005b8351811015610a6e578381815181106109df576109de61545f565b5b60200260200101518783815181106109fa576109f961545f565b5b60200260200101516020015103610a145760019250610a6e565b6000151583151503610a5b576040517f08c379a0000000000000000000000000000000000000000000000000000000008152600401610a5290615776565b60405180910390fd5b8080610a66906154bd565b9150506109c3565b508080610a7a906154bd565b9150506109b7565b506000600260009054906101000a900473ffffffffffffffffffffffffffffffffffffffff1673ffffffffffffffffffffffffffffffffffffffff1663de508c5b338c6040518363ffffffff1660e01b8152600401610ae2929190615796565b600060405180830381865afa158015610aff573d6000803e3d6000fd5b505050506040513d6000823e3d601f19601f82011682018060405250810190610b289190615859565b909192939450909192935090919250909150905080915050600080600090505b8751811015610b9057878181518110610b6457610b6361545f565b5b60200260200101516000015182610b7b9190615902565b91508080610b88906154bd565b915050610b48565b506064811115610bd5576040517f08c379a0000000000000000000000000000000000000000000000000000000008152600401610bcc906159ce565b60405180910390fd5b81610c7657600260009054906101000a900473ffffffffffffffffffffffffffffffffffffffff1673ffffffffffffffffffffffffffffffffffffffff166325cb763a338d8d8d868e6040518763ffffffff1660e01b8152600401610c3f96959493929190615a32565b600060405180830381600087803b158015610c5957600080fd5b505af1158015610c6d573d6000803e3d6000fd5b5050505061109c565b6000600860009054906101000a900473ffffffffffffffffffffffffffffffffffffffff16905060008a03610e75576005548173ffffffffffffffffffffffffffffffffffffffff1663dd62ed3e33306040518363ffffffff1660e01b8152600401610ce3929190615796565b602060405180830381865afa158015610d00573d6000803e3d6000fd5b505050506040513d601f19601f82011682018060405250810190610d249190615a9a565b1015610d65576040517f08c379a0000000000000000000000000000000000000000000000000000000008152600401610d5c90615b39565b60405180910390fd5b8073ffffffffffffffffffffffffffffffffffffffff166323b872dd33306005546040518463ffffffff1660e01b8152600401610da493929190615b59565b6020604051808303816000875af1158015610dc3573d6000803e3d6000fd5b505050506040513d601f19601f82011682018060405250810190610de791906151e2565b50600960003373ffffffffffffffffffffffffffffffffffffffff1673ffffffffffffffffffffffffffffffffffffffff16815260200190815260200160002060008d73ffffffffffffffffffffffffffffffffffffffff1673ffffffffffffffffffffffffffffffffffffffff1681526020019081526020016000206000610e709190614376565b61109a565b60018a0361105e576006548173ffffffffffffffffffffffffffffffffffffffff1663dd62ed3e33306040518363ffffffff1660e01b8152600401610ebb929190615796565b602060405180830381865afa158015610ed8573d6000803e3d6000fd5b505050506040513d601f19601f82011682018060405250810190610efc9190615a9a565b1015610f3d576040517f08c379a0000000000000000000000000000000000000000000000000000000008152600401610f3490615b39565b60405180910390fd5b8073ffffffffffffffffffffffffffffffffffffffff166323b872dd33306006546040518463ffffffff1660e01b8152600401610f7c93929190615b59565b6020604051808303816000875af1158015610f9b573d6000803e3d6000fd5b505050506040513d601f19601f82011682018060405250810190610fbf91906151e2565b50600a60003373ffffffffffffffffffffffffffffffffffffffff1673ffffffffffffffffffffffffffffffffffffffff16815260200190815260200160002060008d73ffffffffffffffffffffffffffffffffffffffff1673ffffffffffffffffffffffffffffffffffffffff16815260200190815260200160002060008a815260200190815260200160002060006110599190614376565b611099565b6040517f08c379a000000000000000000000000000000000000000000000000000000000815260040161109090615c02565b60405180910390fd5b5b505b600260009054906101000a900473ffffffffffffffffffffffffffffffffffffffff1673ffffffffffffffffffffffffffffffffffffffff1663b69bd77f338d8b858e6040518663ffffffff1660e01b81526004016110ff959493929190615c22565b600060405180830381600087803b15801561111957600080fd5b505af115801561112d573d6000803e3d6000fd5b50505050600089036112ab5760005b87518110156112a557600960003373ffffffffffffffffffffffffffffffffffffffff1673ffffffffffffffffffffffffffffffffffffffff16815260200190815260200160002060008d73ffffffffffffffffffffffffffffffffffffffff1673ffffffffffffffffffffffffffffffffffffffff1681526020019081526020016000208882815181106111d4576111d361545f565b5b602002602001015190806001815401808255809150506001900390600052602060002090600602016000909190919091506000820151816000015560208201518160010155604082015181600201908051906020019061123592919061439a565b506060820151816003019080519060200190611252929190614424565b50608082015181600401908051906020019061126f929190614424565b5060a08201518160050160006101000a81548160ff0219169083151502179055505050808061129d906154bd565b91505061113c565b5061142a565b60005b875181101561142857600a60003373ffffffffffffffffffffffffffffffffffffffff1673ffffffffffffffffffffffffffffffffffffffff16815260200190815260200160002060008d73ffffffffffffffffffffffffffffffffffffffff1673ffffffffffffffffffffffffffffffffffffffff16815260200190815260200160002060008a81526020019081526020016000208882815181106113575761135661545f565b5b60200260200101519080600181540180825580915050600190039060005260206000209060060201600090919091909150600082015181600001556020820151816001015560408201518160020190805190602001906113b892919061439a565b5060608201518160030190805190602001906113d5929190614424565b5060808201518160040190805190602001906113f2929190614424565b5060a08201518160050160006101000a81548160ff02191690831515021790555050508080611420906154bd565b9150506112ae565b505b3373ffffffffffffffffffffffffffffffffffffffff167f356b94cb07d152dfb4f8876f9a6f4c7007027dd30aecb0ac9b698849e14e0e718c8a8c60405161147493929190615c75565b60405180910390a25050505050505050505050565b600080600080600860009054906101000a900473ffffffffffffffffffffffffffffffffffffffff16600554600654600754935093509350935090919293565b6000600260009054906101000a900473ffffffffffffffffffffffffffffffffffffffff1673ffffffffffffffffffffffffffffffffffffffff166345bceabd866040518263ffffffff1660e01b81526004016115269190614ca8565b600060405180830381865afa158015611543573d6000803e3d6000fd5b505050506040513d6000823e3d601f19601f8201168201806040525081019061156c9190615695565b90506000808303611dd65760005b600960008873ffffffffffffffffffffffffffffffffffffffff1673ffffffffffffffffffffffffffffffffffffffff16815260200190815260200160002060008773ffffffffffffffffffffffffffffffffffffffff1673ffffffffffffffffffffffffffffffffffffffff16815260200190815260200160002080549050811015611dd05760001515600960008973ffffffffffffffffffffffffffffffffffffffff1673ffffffffffffffffffffffffffffffffffffffff16815260200190815260200160002060008873ffffffffffffffffffffffffffffffffffffffff1673ffffffffffffffffffffffffffffffffffffffff16815260200190815260200160002082815481106116935761169261545f565b5b906000526020600020906006020160050160009054906101000a900460ff16151503611dbd5760005b600960008973ffffffffffffffffffffffffffffffffffffffff1673ffffffffffffffffffffffffffffffffffffffff16815260200190815260200160002060008873ffffffffffffffffffffffffffffffffffffffff1673ffffffffffffffffffffffffffffffffffffffff168152602001908152602001600020828154811061174a5761174961545f565b5b9060005260206000209060060201600301805490508110156119715760001515600960008a73ffffffffffffffffffffffffffffffffffffffff1673ffffffffffffffffffffffffffffffffffffffff16815260200190815260200160002060008973ffffffffffffffffffffffffffffffffffffffff1673ffffffffffffffffffffffffffffffffffffffff16815260200190815260200160002083815481106117f8576117f761545f565b5b9060005260206000209060060201600301828154811061181b5761181a61545f565b5b90600052602060002090602091828204019190069054906101000a900460ff16151514801561191e575060011515600960008a73ffffffffffffffffffffffffffffffffffffffff1673ffffffffffffffffffffffffffffffffffffffff16815260200190815260200160002060008973ffffffffffffffffffffffffffffffffffffffff1673ffffffffffffffffffffffffffffffffffffffff16815260200190815260200160002083815481106118d7576118d661545f565b5b906000526020600020906006020160040182815481106118fa576118f961545f565b5b90600052602060002090602091828204019190069054906101000a900460ff161515145b1561195e576040517f08c379a000000000000000000000000000000000000000000000000000000000815260040161195590615d44565b60405180910390fd5b8080611969906154bd565b9150506116bc565b5060005b8351811015611dbb57600460009054906101000a900473ffffffffffffffffffffffffffffffffffffffff1673ffffffffffffffffffffffffffffffffffffffff16637f3d39bd8583815181106119cf576119ce61545f565b5b60200260200101516040518263ffffffff1660e01b81526004016119f39190615036565b600060405180830381865afa158015611a10573d6000803e3d6000fd5b505050506040513d6000823e3d601f19601f82011682018060405250810190611a399190615d64565b9091929350909150905050809350503373ffffffffffffffffffffffffffffffffffffffff168373ffffffffffffffffffffffffffffffffffffffff1603611da8576000600960008a73ffffffffffffffffffffffffffffffffffffffff1673ffffffffffffffffffffffffffffffffffffffff16815260200190815260200160002060008973ffffffffffffffffffffffffffffffffffffffff1673ffffffffffffffffffffffffffffffffffffffff1681526020019081526020016000208381548110611b0b57611b0a61545f565b5b9060005260206000209060060201600001549050600088905060006064838373ffffffffffffffffffffffffffffffffffffffff166370a082318e6040518263ffffffff1660e01b8152600401611b629190614ca8565b602060405180830381865afa158015611b7f573d6000803e3d6000fd5b505050506040513d601f19601f82011682018060405250810190611ba39190615a9a565b611bad9190615e33565b611bb79190615ea4565b9050600061271060075483611bcc9190615e33565b611bd69190615ea4565b905060008183611be69190615ed5565b90508373ffffffffffffffffffffffffffffffffffffffff166323b872dd8e30856040518463ffffffff1660e01b8152600401611c2593929190615b59565b6020604051808303816000875af1158015611c44573d6000803e3d6000fd5b505050506040513d601f19601f82011682018060405250810190611c6891906151e2565b508373ffffffffffffffffffffffffffffffffffffffff166323b872dd8e33846040518463ffffffff1660e01b8152600401611ca693929190615b59565b6020604051808303816000875af1158015611cc5573d6000803e3d6000fd5b505050506040513d601f19601f82011682018060405250810190611ce991906151e2565b506001600960008f73ffffffffffffffffffffffffffffffffffffffff1673ffffffffffffffffffffffffffffffffffffffff16815260200190815260200160002060008e73ffffffffffffffffffffffffffffffffffffffff1673ffffffffffffffffffffffffffffffffffffffff1681526020019081526020016000208881548110611d7a57611d7961545f565b5b906000526020600020906006020160050160006101000a81548160ff02191690831515021790555050505050505b8080611db3906154bd565b915050611975565b505b8080611dc8906154bd565b91505061157a565b506124a1565b600183036124a05760005b600a60008873ffffffffffffffffffffffffffffffffffffffff1673ffffffffffffffffffffffffffffffffffffffff16815260200190815260200160002060008773ffffffffffffffffffffffffffffffffffffffff1673ffffffffffffffffffffffffffffffffffffffff16815260200190815260200160002060008681526020019081526020016000208054905081101561249e5760001515600a60008973ffffffffffffffffffffffffffffffffffffffff1673ffffffffffffffffffffffffffffffffffffffff16815260200190815260200160002060008873ffffffffffffffffffffffffffffffffffffffff1673ffffffffffffffffffffffffffffffffffffffff16815260200190815260200160002060008781526020019081526020016000208281548110611f1c57611f1b61545f565b5b906000526020600020906006020160050160009054906101000a900460ff1615150361248b5760005b600a60008973ffffffffffffffffffffffffffffffffffffffff1673ffffffffffffffffffffffffffffffffffffffff16815260200190815260200160002060008873ffffffffffffffffffffffffffffffffffffffff1673ffffffffffffffffffffffffffffffffffffffff16815260200190815260200160002060008781526020019081526020016000208281548110611fe457611fe361545f565b5b90600052602060002090600602016003018054905081101561222d5760001515600a60008a73ffffffffffffffffffffffffffffffffffffffff1673ffffffffffffffffffffffffffffffffffffffff16815260200190815260200160002060008973ffffffffffffffffffffffffffffffffffffffff1673ffffffffffffffffffffffffffffffffffffffff168152602001908152602001600020600088815260200190815260200160002083815481106120a3576120a261545f565b5b906000526020600020906006020160030182815481106120c6576120c561545f565b5b90600052602060002090602091828204019190069054906101000a900460ff1615151480156121da575060011515600a60008a73ffffffffffffffffffffffffffffffffffffffff1673ffffffffffffffffffffffffffffffffffffffff16815260200190815260200160002060008973ffffffffffffffffffffffffffffffffffffffff1673ffffffffffffffffffffffffffffffffffffffff168152602001908152602001600020600088815260200190815260200160002083815481106121935761219261545f565b5b906000526020600020906006020160040182815481106121b6576121b561545f565b5b90600052602060002090602091828204019190069054906101000a900460ff161515145b1561221a576040517f08c379a000000000000000000000000000000000000000000000000000000000815260040161221190615d44565b60405180910390fd5b8080612225906154bd565b915050611f45565b5060005b835181101561248957600460009054906101000a900473ffffffffffffffffffffffffffffffffffffffff1673ffffffffffffffffffffffffffffffffffffffff16637f3d39bd85838151811061228b5761228a61545f565b5b60200260200101516040518263ffffffff1660e01b81526004016122af9190615036565b600060405180830381865afa1580156122cc573d6000803e3d6000fd5b505050506040513d6000823e3d601f19601f820116820180604052508101906122f59190615d64565b9091929350909150905050809350503373ffffffffffffffffffffffffffffffffffffffff168373ffffffffffffffffffffffffffffffffffffffff16036124765760008790508073ffffffffffffffffffffffffffffffffffffffff166323b872dd8a338a6040518463ffffffff1660e01b815260040161237993929190615b59565b600060405180830381600087803b15801561239357600080fd5b505af11580156123a7573d6000803e3d6000fd5b505050506001600a60008b73ffffffffffffffffffffffffffffffffffffffff1673ffffffffffffffffffffffffffffffffffffffff16815260200190815260200160002060008a73ffffffffffffffffffffffffffffffffffffffff1673ffffffffffffffffffffffffffffffffffffffff1681526020019081526020016000206000898152602001908152602001600020848154811061244c5761244b61545f565b5b906000526020600020906006020160050160006101000a81548160ff021916908315150217905550505b8080612481906154bd565b915050612231565b505b8080612496906154bd565b915050611de1565b505b5b505050505050565b6000600260009054906101000a900473ffffffffffffffffffffffffffffffffffffffff1673ffffffffffffffffffffffffffffffffffffffff16633d4c12d7866040518263ffffffff1660e01b81526004016125069190614ca8565b602060405180830381865afa158015612523573d6000803e3d6000fd5b505050506040513d601f19601f8201168201806040525081019061254791906151e2565b905080612589576040517f08c379a000000000000000000000000000000000000000000000000000000000815260040161258090615f7b565b60405180910390fd5b6000600260009054906101000a900473ffffffffffffffffffffffffffffffffffffffff1673ffffffffffffffffffffffffffffffffffffffff166320e4ab6a876040518263ffffffff1660e01b81526004016125e69190614ca8565b600060405180830381865afa158015612603573d6000803e3d6000fd5b505050506040513d6000823e3d601f19601f8201168201806040525081019061262c9190615416565b9050600080600090505b82518110156130e1573373ffffffffffffffffffffffffffffffffffffffff168382815181106126695761266861545f565b5b602002602001015173ffffffffffffffffffffffffffffffffffffffff160361304e5760008503612b5e5760005b600960008a73ffffffffffffffffffffffffffffffffffffffff1673ffffffffffffffffffffffffffffffffffffffff16815260200190815260200160002060008973ffffffffffffffffffffffffffffffffffffffff1673ffffffffffffffffffffffffffffffffffffffff16815260200190815260200160002080549050811015612b585760005b600960008b73ffffffffffffffffffffffffffffffffffffffff1673ffffffffffffffffffffffffffffffffffffffff16815260200190815260200160002060008a73ffffffffffffffffffffffffffffffffffffffff1673ffffffffffffffffffffffffffffffffffffffff16815260200190815260200160002082815481106127af576127ae61545f565b5b906000526020600020906006020160020180549050811015612b44578483815181106127de576127dd61545f565b5b602002602001015173ffffffffffffffffffffffffffffffffffffffff16600960008c73ffffffffffffffffffffffffffffffffffffffff1673ffffffffffffffffffffffffffffffffffffffff16815260200190815260200160002060008b73ffffffffffffffffffffffffffffffffffffffff1673ffffffffffffffffffffffffffffffffffffffff168152602001908152602001600020838154811061288a5761288961545f565b5b906000526020600020906006020160020182815481106128ad576128ac61545f565b5b9060005260206000200160009054906101000a900473ffffffffffffffffffffffffffffffffffffffff1673ffffffffffffffffffffffffffffffffffffffff1603612b31576000810361290e5761290782828b8d613d61565b9350612b44565b60011515600960008c73ffffffffffffffffffffffffffffffffffffffff1673ffffffffffffffffffffffffffffffffffffffff16815260200190815260200160002060008b73ffffffffffffffffffffffffffffffffffffffff1673ffffffffffffffffffffffffffffffffffffffff16815260200190815260200160002083815481106129a05761299f61545f565b5b90600052602060002090600602016003016001836129be9190615ed5565b815481106129cf576129ce61545f565b5b90600052602060002090602091828204019190069054906101000a900460ff161515148015612ade575060001515600960008c73ffffffffffffffffffffffffffffffffffffffff1673ffffffffffffffffffffffffffffffffffffffff16815260200190815260200160002060008b73ffffffffffffffffffffffffffffffffffffffff1673ffffffffffffffffffffffffffffffffffffffff1681526020019081526020016000208381548110612a8b57612a8a61545f565b5b9060005260206000209060060201600401600183612aa99190615ed5565b81548110612aba57612ab961545f565b5b90600052602060002090602091828204019190069054906101000a900460ff161515145b15612af657612aef82828b8d613d61565b9350612b44565b6040517f08c379a0000000000000000000000000000000000000000000000000000000008152600401612b2890616033565b60405180910390fd5b8080612b3c906154bd565b915050612721565b508080612b50906154bd565b915050612697565b5061304d565b6001850361304c5760005b600960008a73ffffffffffffffffffffffffffffffffffffffff1673ffffffffffffffffffffffffffffffffffffffff16815260200190815260200160002060008973ffffffffffffffffffffffffffffffffffffffff1673ffffffffffffffffffffffffffffffffffffffff1681526020019081526020016000208054905081101561304a5760005b600a60008b73ffffffffffffffffffffffffffffffffffffffff1673ffffffffffffffffffffffffffffffffffffffff16815260200190815260200160002060008a73ffffffffffffffffffffffffffffffffffffffff1673ffffffffffffffffffffffffffffffffffffffff16815260200190815260200160002060008981526020019081526020016000208281548110612c9257612c9161545f565b5b90600052602060002090600602016002018054905081101561303657848381518110612cc157612cc061545f565b5b602002602001015173ffffffffffffffffffffffffffffffffffffffff16600a60008c73ffffffffffffffffffffffffffffffffffffffff1673ffffffffffffffffffffffffffffffffffffffff16815260200190815260200160002060008b73ffffffffffffffffffffffffffffffffffffffff1673ffffffffffffffffffffffffffffffffffffffff16815260200190815260200160002060008a81526020019081526020016000208381548110612d7e57612d7d61545f565b5b90600052602060002090600602016002018281548110612da157612da061545f565b5b9060005260206000200160009054906101000a900473ffffffffffffffffffffffffffffffffffffffff1673ffffffffffffffffffffffffffffffffffffffff16036130235760008103612e0157612dfc82838a8c8e6140c3565b613036565b60011515600960008c73ffffffffffffffffffffffffffffffffffffffff1673ffffffffffffffffffffffffffffffffffffffff16815260200190815260200160002060008b73ffffffffffffffffffffffffffffffffffffffff1673ffffffffffffffffffffffffffffffffffffffff1681526020019081526020016000208381548110612e9357612e9261545f565b5b9060005260206000209060060201600301600183612eb19190615ed5565b81548110612ec257612ec161545f565b5b90600052602060002090602091828204019190069054906101000a900460ff161515148015612fd1575060001515600960008c73ffffffffffffffffffffffffffffffffffffffff1673ffffffffffffffffffffffffffffffffffffffff16815260200190815260200160002060008b73ffffffffffffffffffffffffffffffffffffffff1673ffffffffffffffffffffffffffffffffffffffff1681526020019081526020016000208381548110612f7e57612f7d61545f565b5b9060005260206000209060060201600401600183612f9c9190615ed5565b81548110612fad57612fac61545f565b5b90600052602060002090602091828204019190069054906101000a900460ff161515145b15612fe857612fe382838a8c8e6140c3565b613036565b6040517f08c379a000000000000000000000000000000000000000000000000000000000815260040161301a90616033565b60405180910390fd5b808061302e906154bd565b915050612bf3565b508080613042906154bd565b915050612b69565b505b5b5b8673ffffffffffffffffffffffffffffffffffffffff163373ffffffffffffffffffffffffffffffffffffffff168973ffffffffffffffffffffffffffffffffffffffff167f5ccac6a981ee0d2404d2487672d204c80cc526da4f51e90dd5ae4cfe880a9add89868a6040516130c693929190616053565b60405180910390a480806130d9906154bd565b915050612636565b5050505050505050565b600160009054906101000a900473ffffffffffffffffffffffffffffffffffffffff1681565b3373ffffffffffffffffffffffffffffffffffffffff16600260009054906101000a900473ffffffffffffffffffffffffffffffffffffffff1673ffffffffffffffffffffffffffffffffffffffff1663c3bb8121866040518263ffffffff1660e01b81526004016131839190614ca8565b600060405180830381865afa1580156131a0573d6000803e3d6000fd5b505050506040513d6000823e3d601f19601f820116820180604052508101906131c9919061626a565b60e0015173ffffffffffffffffffffffffffffffffffffffff1614613223576040517f08c379a000000000000000000000000000000000000000000000000000000000815260040161321a90616325565b60405180910390fd5b60008082036133e65760008490508073ffffffffffffffffffffffffffffffffffffffff166370a08231876040518263ffffffff1660e01b815260040161326a9190614ca8565b602060405180830381865afa158015613287573d6000803e3d6000fd5b505050506040513d601f19601f820116820180604052508101906132ab9190615a9a565b91506000612710600754846132c09190615e33565b6132ca9190615ea4565b9050600081846132da9190615ed5565b90508273ffffffffffffffffffffffffffffffffffffffff166323b872dd8930856040518463ffffffff1660e01b815260040161331993929190615b59565b6020604051808303816000875af1158015613338573d6000803e3d6000fd5b505050506040513d601f19601f8201168201806040525081019061335c91906151e2565b508273ffffffffffffffffffffffffffffffffffffffff166323b872dd8933846040518463ffffffff1660e01b815260040161339a93929190615b59565b6020604051808303816000875af11580156133b9573d6000803e3d6000fd5b505050506040513d601f19601f820116820180604052508101906133dd91906151e2565b50505050613466565b60008311156134655760008490508073ffffffffffffffffffffffffffffffffffffffff166323b872dd8733876040518463ffffffff1660e01b815260040161343193929190615b59565b600060405180830381600087803b15801561344b57600080fd5b505af115801561345f573d6000803e3d6000fd5b50505050505b5b8373ffffffffffffffffffffffffffffffffffffffff168573ffffffffffffffffffffffffffffffffffffffff167faa3446f866f557932f6c5a4933379c0e3e3fd6dcc0a20cfae5222255ffd16bdd8584866040516134c793929190616053565b60405180910390a35050505050565b6134de61422c565b8060058190555050565b600860009054906101000a900473ffffffffffffffffffffffffffffffffffffffff1681565b6060600082036137a857600960008673ffffffffffffffffffffffffffffffffffffffff1673ffffffffffffffffffffffffffffffffffffffff16815260200190815260200160002060008573ffffffffffffffffffffffffffffffffffffffff1673ffffffffffffffffffffffffffffffffffffffff168152602001908152602001600020805480602002602001604051908101604052809291908181526020016000905b8282101561379d57838290600052602060002090600602016040518060c001604052908160008201548152602001600182015481526020016002820180548060200260200160405190810160405280929190818152602001828054801561367057602002820191906000526020600020905b8160009054906101000a900473ffffffffffffffffffffffffffffffffffffffff1673ffffffffffffffffffffffffffffffffffffffff1681526020019060010190808311613626575b50505050508152602001600382018054806020026020016040519081016040528092919081815260200182805480156136ed57602002820191906000526020600020906000905b82829054906101000a900460ff161515815260200190600101906020826000010492830192600103820291508084116136b75790505b505050505081526020016004820180548060200260200160405190810160405280929190818152602001828054801561376a57602002820191906000526020600020906000905b82829054906101000a900460ff161515815260200190600101906020826000010492830192600103820291508084116137345790505b505050505081526020016005820160009054906101000a900460ff161515151581525050815260200190600101906135b4565b505050509050613a45565b600a60008673ffffffffffffffffffffffffffffffffffffffff1673ffffffffffffffffffffffffffffffffffffffff16815260200190815260200160002060008573ffffffffffffffffffffffffffffffffffffffff1673ffffffffffffffffffffffffffffffffffffffff1681526020019081526020016000206000848152602001908152602001600020805480602002602001604051908101604052809291908181526020016000905b82821015613a3e57838290600052602060002090600602016040518060c001604052908160008201548152602001600182015481526020016002820180548060200260200160405190810160405280929190818152602001828054801561391157602002820191906000526020600020905b8160009054906101000a900473ffffffffffffffffffffffffffffffffffffffff1673ffffffffffffffffffffffffffffffffffffffff16815260200190600101908083116138c7575b505050505081526020016003820180548060200260200160405190810160405280929190818152602001828054801561398e57602002820191906000526020600020906000905b82829054906101000a900460ff161515815260200190600101906020826000010492830192600103820291508084116139585790505b5050505050815260200160048201805480602002602001604051908101604052809291908181526020018280548015613a0b57602002820191906000526020600020906000905b82829054906101000a900460ff161515815260200190600101906020826000010492830192600103820291508084116139d55790505b505050505081526020016005820160009054906101000a900460ff16151515158152505081526020019060010190613855565b5050505090505b949350505050565b613a5561422c565b613a5f60006142aa565b565b60008060009054906101000a900473ffffffffffffffffffffffffffffffffffffffff16905090565b613a9261422c565b8060068190555050565b613aa461422c565b60008190508073ffffffffffffffffffffffffffffffffffffffff1663a9059cbb33856040518363ffffffff1660e01b8152600401613ae4929190616345565b6020604051808303816000875af1158015613b03573d6000803e3d6000fd5b505050506040513d601f19601f82011682018060405250810190613b2791906151e2565b50505050565b60055481565b613b3b61422c565b80600860006101000a81548173ffffffffffffffffffffffffffffffffffffffff021916908373ffffffffffffffffffffffffffffffffffffffff16021790555050565b600a6020528360005260406000206020528260005260406000206020528160005260406000208181548110613bb357600080fd5b90600052602060002090600602016000935093505050508060000154908060010154908060050160009054906101000a900460ff16905083565b600260009054906101000a900473ffffffffffffffffffffffffffffffffffffffff1681565b60096020528260005260406000206020528160005260406000208181548110613c3b57600080fd5b906000526020600020906006020160009250925050508060000154908060010154908060050160009054906101000a900460ff16905083565b60065481565b60075481565b613c8861422c565b8060078190555050565b600360009054906101000a900473ffffffffffffffffffffffffffffffffffffffff1681565b613cc061422c565b600073ffffffffffffffffffffffffffffffffffffffff168173ffffffffffffffffffffffffffffffffffffffff1603613d2f576040517f08c379a0000000000000000000000000000000000000000000000000000000008152600401613d26906163e0565b60405180910390fd5b613d38816142aa565b50565b600460009054906101000a900473ffffffffffffffffffffffffffffffffffffffff1681565b600080600960008473ffffffffffffffffffffffffffffffffffffffff1673ffffffffffffffffffffffffffffffffffffffff16815260200190815260200160002060008573ffffffffffffffffffffffffffffffffffffffff1673ffffffffffffffffffffffffffffffffffffffff1681526020019081526020016000208681548110613df257613df161545f565b5b90600052602060002090600602016000015490506001600960008573ffffffffffffffffffffffffffffffffffffffff1673ffffffffffffffffffffffffffffffffffffffff16815260200190815260200160002060008673ffffffffffffffffffffffffffffffffffffffff1673ffffffffffffffffffffffffffffffffffffffff1681526020019081526020016000208781548110613e9657613e9561545f565b5b90600052602060002090600602016004018681548110613eb957613eb861545f565b5b90600052602060002090602091828204019190066101000a81548160ff021916908315150217905550600084905060008173ffffffffffffffffffffffffffffffffffffffff166370a08231866040518263ffffffff1660e01b8152600401613f229190614ca8565b602060405180830381865afa158015613f3f573d6000803e3d6000fd5b505050506040513d601f19601f82011682018060405250810190613f639190615a9a565b9050600060648483613f759190615e33565b613f7f9190615ea4565b9050600061271060075483613f949190615e33565b613f9e9190615ea4565b905060008183613fae9190615ed5565b90508473ffffffffffffffffffffffffffffffffffffffff166323b872dd8930856040518463ffffffff1660e01b8152600401613fed93929190615b59565b6020604051808303816000875af115801561400c573d6000803e3d6000fd5b505050506040513d601f19601f8201168201806040525081019061403091906151e2565b508473ffffffffffffffffffffffffffffffffffffffff166323b872dd8933846040518463ffffffff1660e01b815260040161406e93929190615b59565b6020604051808303816000875af115801561408d573d6000803e3d6000fd5b505050506040513d601f19601f820116820180604052508101906140b191906151e2565b50809650505050505050949350505050565b60008290508073ffffffffffffffffffffffffffffffffffffffff166323b872dd8333876040518463ffffffff1660e01b815260040161410593929190615b59565b600060405180830381600087803b15801561411f57600080fd5b505af1158015614133573d6000803e3d6000fd5b505050506001600a60008473ffffffffffffffffffffffffffffffffffffffff1673ffffffffffffffffffffffffffffffffffffffff16815260200190815260200160002060008573ffffffffffffffffffffffffffffffffffffffff1673ffffffffffffffffffffffffffffffffffffffff168152602001908152602001600020600086815260200190815260200160002087815481106141d8576141d761545f565b5b906000526020600020906006020160040186815481106141fb576141fa61545f565b5b90600052602060002090602091828204019190066101000a81548160ff021916908315150217905550505050505050565b61423461436e565b73ffffffffffffffffffffffffffffffffffffffff16614252613a61565b73ffffffffffffffffffffffffffffffffffffffff16146142a8576040517f08c379a000000000000000000000000000000000000000000000000000000000815260040161429f9061644c565b60405180910390fd5b565b60008060009054906101000a900473ffffffffffffffffffffffffffffffffffffffff169050816000806101000a81548173ffffffffffffffffffffffffffffffffffffffff021916908373ffffffffffffffffffffffffffffffffffffffff1602179055508173ffffffffffffffffffffffffffffffffffffffff168173ffffffffffffffffffffffffffffffffffffffff167f8be0079c531659141344cd1fd0a4f28419497f9722a3daafe3b4186f6b6457e060405160405180910390a35050565b600033905090565b508054600082556006029060005260206000209081019061439791906144ca565b50565b828054828255906000526020600020908101928215614413579160200282015b828111156144125782518260006101000a81548173ffffffffffffffffffffffffffffffffffffffff021916908373ffffffffffffffffffffffffffffffffffffffff160217905550916020019190600101906143ba565b5b5090506144209190614535565b5090565b82805482825590600052602060002090601f016020900481019282156144b95791602002820160005b8382111561448a57835183826101000a81548160ff021916908315150217905550926020019260010160208160000104928301926001030261444d565b80156144b75782816101000a81549060ff021916905560010160208160000104928301926001030261448a565b505b5090506144c69190614535565b5090565b5b808211156145315760008082016000905560018201600090556002820160006144f49190614552565b6003820160006145049190614573565b6004820160006145149190614573565b6005820160006101000a81549060ff0219169055506006016144cb565b5090565b5b8082111561454e576000816000905550600101614536565b5090565b50805460008255906000526020600020908101906145709190614535565b50565b50805460008255601f0160209004906000526020600020908101906145989190614535565b50565b6000604051905090565b600080fd5b600080fd5b600073ffffffffffffffffffffffffffffffffffffffff82169050919050565b60006145da826145af565b9050919050565b6145ea816145cf565b81146145f557600080fd5b50565b600081359050614607816145e1565b92915050565b600080fd5b600080fd5b6000601f19601f8301169050919050565b7f4e487b7100000000000000000000000000000000000000000000000000000000600052604160045260246000fd5b61466082614617565b810181811067ffffffffffffffff8211171561467f5761467e614628565b5b80604052505050565b600061469261459b565b905061469e8282614657565b919050565b600067ffffffffffffffff8211156146be576146bd614628565b5b6146c782614617565b9050602081019050919050565b82818337600083830152505050565b60006146f66146f1846146a3565b614688565b90508281526020810184848401111561471257614711614612565b5b61471d8482856146d4565b509392505050565b600082601f83011261473a5761473961460d565b5b813561474a8482602086016146e3565b91505092915050565b6000819050919050565b61476681614753565b811461477157600080fd5b50565b6000813590506147838161475d565b92915050565b600067ffffffffffffffff8211156147a4576147a3614628565b5b602082029050602081019050919050565b600080fd5b600080fd5b600080fd5b600067ffffffffffffffff8211156147df576147de614628565b5b602082029050602081019050919050565b60006148036147fe846147c4565b614688565b90508083825260208201905060208402830185811115614826576148256147b5565b5b835b8181101561484f578061483b88826145f8565b845260208401935050602081019050614828565b5050509392505050565b600082601f83011261486e5761486d61460d565b5b813561487e8482602086016147f0565b91505092915050565b600067ffffffffffffffff8211156148a2576148a1614628565b5b602082029050602081019050919050565b60008115159050919050565b6148c8816148b3565b81146148d357600080fd5b50565b6000813590506148e5816148bf565b92915050565b60006148fe6148f984614887565b614688565b90508083825260208201905060208402830185811115614921576149206147b5565b5b835b8181101561494a578061493688826148d6565b845260208401935050602081019050614923565b5050509392505050565b600082601f8301126149695761496861460d565b5b81356149798482602086016148eb565b91505092915050565b600060c08284031215614998576149976147ba565b5b6149a260c0614688565b905060006149b284828501614774565b60008301525060206149c684828501614774565b602083015250604082013567ffffffffffffffff8111156149ea576149e96147bf565b5b6149f684828501614859565b604083015250606082013567ffffffffffffffff811115614a1a57614a196147bf565b5b614a2684828501614954565b606083015250608082013567ffffffffffffffff811115614a4a57614a496147bf565b5b614a5684828501614954565b60808301525060a0614a6a848285016148d6565b60a08301525092915050565b6000614a89614a8484614789565b614688565b90508083825260208201905060208402830185811115614aac57614aab6147b5565b5b835b81811015614af357803567ffffffffffffffff811115614ad157614ad061460d565b5b808601614ade8982614982565b85526020850194505050602081019050614aae565b5050509392505050565b600082601f830112614b1257614b1161460d565b5b8135614b22848260208601614a76565b91505092915050565b600080600080600060a08688031215614b4757614b466145a5565b5b6000614b55888289016145f8565b955050602086013567ffffffffffffffff811115614b7657614b756145aa565b5b614b8288828901614725565b9450506040614b9388828901614774565b9350506060614ba488828901614774565b925050608086013567ffffffffffffffff811115614bc557614bc46145aa565b5b614bd188828901614afd565b9150509295509295909350565b614be7816145cf565b82525050565b614bf681614753565b82525050565b6000608082019050614c116000830187614bde565b614c1e6020830186614bed565b614c2b6040830185614bed565b614c386060830184614bed565b95945050505050565b60008060008060808587031215614c5b57614c5a6145a5565b5b6000614c69878288016145f8565b9450506020614c7a878288016145f8565b9350506040614c8b87828801614774565b9250506060614c9c87828801614774565b91505092959194509250565b6000602082019050614cbd6000830184614bde565b92915050565b600060208284031215614cd957614cd86145a5565b5b6000614ce784828501614774565b91505092915050565b600081519050919050565b600082825260208201905092915050565b6000819050602082019050919050565b614d2581614753565b82525050565b600081519050919050565b600082825260208201905092915050565b6000819050602082019050919050565b614d60816145cf565b82525050565b6000614d728383614d57565b60208301905092915050565b6000602082019050919050565b6000614d9682614d2b565b614da08185614d36565b9350614dab83614d47565b8060005b83811015614ddc578151614dc38882614d66565b9750614dce83614d7e565b925050600181019050614daf565b5085935050505092915050565b600081519050919050565b600082825260208201905092915050565b6000819050602082019050919050565b614e1e816148b3565b82525050565b6000614e308383614e15565b60208301905092915050565b6000602082019050919050565b6000614e5482614de9565b614e5e8185614df4565b9350614e6983614e05565b8060005b83811015614e9a578151614e818882614e24565b9750614e8c83614e3c565b925050600181019050614e6d565b5085935050505092915050565b600060c083016000830151614ebf6000860182614d1c565b506020830151614ed26020860182614d1c565b5060408301518482036040860152614eea8282614d8b565b91505060608301518482036060860152614f048282614e49565b91505060808301518482036080860152614f1e8282614e49565b91505060a0830151614f3360a0860182614e15565b508091505092915050565b6000614f4a8383614ea7565b905092915050565b6000602082019050919050565b6000614f6a82614cf0565b614f748185614cfb565b935083602082028501614f8685614d0c565b8060005b85811015614fc25784840389528151614fa38582614f3e565b9450614fae83614f52565b925060208a01995050600181019050614f8a565b50829750879550505050505092915050565b60006020820190508181036000830152614fee8184614f5f565b905092915050565b6000806040838503121561500d5761500c6145a5565b5b600061501b85828601614774565b925050602061502c858286016145f8565b9150509250929050565b600060208201905061504b6000830184614bed565b92915050565b600060208284031215615067576150666145a5565b5b6000615075848285016145f8565b91505092915050565b615087816148b3565b82525050565b60006060820190506150a26000830186614bed565b6150af6020830185614bed565b6150bc604083018461507e565b949350505050565b6000819050919050565b60006150e96150e46150df846145af565b6150c4565b6145af565b9050919050565b60006150fb826150ce565b9050919050565b600061510d826150f0565b9050919050565b61511d81615102565b82525050565b60006020820190506151386000830184615114565b92915050565b600080600060608486031215615157576151566145a5565b5b6000615165868287016145f8565b9350506020615176868287016145f8565b925050604061518786828701614774565b9150509250925092565b600061519c826150f0565b9050919050565b6151ac81615191565b82525050565b60006020820190506151c760008301846151a3565b92915050565b6000815190506151dc816148bf565b92915050565b6000602082840312156151f8576151f76145a5565b5b6000615206848285016151cd565b91505092915050565b600082825260208201905092915050565b7f596f75206d757374206669727374207369676e20757020666f7220616e20616360008201527f636f756e742e0000000000000000000000000000000000000000000000000000602082015250565b600061527c60268361520f565b915061528782615220565b604082019050919050565b600060208201905081810360008301526152ab8161526f565b9050919050565b7f596f757220656d61696c20686173206e6f7420796574206265656e2076616c6960008201527f64617465642e2056657269667920796f7572207265676973746572656420656d60208201527f61696c20616464726573732066697273742e0000000000000000000000000000604082015250565b600061533460528361520f565b915061533f826152b2565b606082019050919050565b6000602082019050818103600083015261536381615327565b9050919050565b600081519050615379816145e1565b92915050565b600061539261538d846147c4565b614688565b905080838252602082019050602084028301858111156153b5576153b46147b5565b5b835b818110156153de57806153ca888261536a565b8452602084019350506020810190506153b7565b5050509392505050565b600082601f8301126153fd576153fc61460d565b5b815161540d84826020860161537f565b91505092915050565b60006020828403121561542c5761542b6145a5565b5b600082015167ffffffffffffffff81111561544a576154496145aa565b5b615456848285016153e8565b91505092915050565b7f4e487b7100000000000000000000000000000000000000000000000000000000600052603260045260246000fd5b7f4e487b7100000000000000000000000000000000000000000000000000000000600052601160045260246000fd5b60006154c882614753565b91507fffffffffffffffffffffffffffffffffffffffffffffffffffffffffffffffff82036154fa576154f961548e565b5b600182019050919050565b7f436865636b207468617420616c6c20746865206e6f6d696e65657320796f752060008201527f617265206e6f6d696e6174696e6720617265206164646564206173206e6f6d6960208201527f6e6565732e000000000000000000000000000000000000000000000000000000604082015250565b600061558760458361520f565b915061559282615505565b606082019050919050565b600060208201905081810360008301526155b68161557a565b9050919050565b600067ffffffffffffffff8211156155d8576155d7614628565b5b602082029050602081019050919050565b6000815190506155f88161475d565b92915050565b600061561161560c846155bd565b614688565b90508083825260208201905060208402830185811115615634576156336147b5565b5b835b8181101561565d578061564988826155e9565b845260208401935050602081019050615636565b5050509392505050565b600082601f83011261567c5761567b61460d565b5b815161568c8482602086016155fe565b91505092915050565b6000602082840312156156ab576156aa6145a5565b5b600082015167ffffffffffffffff8111156156c9576156c86145aa565b5b6156d584828501615667565b91505092915050565b7f436865636b207468617420746865206368617269747920796f7520617265206e60008201527f6f6d696e6174696e67206973206c697374656420617320612077686974652d6c60208201527f697374656420636861726974792e000000000000000000000000000000000000604082015250565b6000615760604e8361520f565b915061576b826156de565b606082019050919050565b6000602082019050818103600083015261578f81615753565b9050919050565b60006040820190506157ab6000830185614bde565b6157b86020830184614bde565b9392505050565b60005b838110156157dd5780820151818401526020810190506157c2565b60008484015250505050565b60006157fc6157f7846146a3565b614688565b90508281526020810184848401111561581857615817614612565b5b6158238482856157bf565b509392505050565b600082601f8301126158405761583f61460d565b5b81516158508482602086016157e9565b91505092915050565b60008060008060008060c08789031215615876576158756145a5565b5b600061588489828a0161536a565b965050602087015167ffffffffffffffff8111156158a5576158a46145aa565b5b6158b189828a0161582b565b95505060406158c289828a016155e9565b94505060606158d389828a016155e9565b93505060806158e489828a016155e9565b92505060a06158f589828a016151cd565b9150509295509295509295565b600061590d82614753565b915061591883614753565b92508282019050808211156159305761592f61548e565b5b92915050565b7f4f6f70732120596f752063616e206f6e6c7920616c6c6f63617465206120313060008201527f30252073686172652e2054727920746f2072656475636520746865207368617260208201527f6520616d6f756e742e0000000000000000000000000000000000000000000000604082015250565b60006159b860498361520f565b91506159c382615936565b606082019050919050565b600060208201905081810360008301526159e7816159ab565b9050919050565b600081519050919050565b6000615a04826159ee565b615a0e818561520f565b9350615a1e8185602086016157bf565b615a2781614617565b840191505092915050565b600060c082019050615a476000830189614bde565b615a546020830188614bde565b8181036040830152615a6681876159f9565b9050615a756060830186614bed565b615a826080830185614bed565b615a8f60a0830184614bed565b979650505050505050565b600060208284031215615ab057615aaf6145a5565b5b6000615abe848285016155e9565b91505092915050565b7f54686520616c6c6f77616e636520746f2074686520636f6e747261637420697360008201527f206e6f7420656e6f756768210000000000000000000000000000000000000000602082015250565b6000615b23602c8361520f565b9150615b2e82615ac7565b604082019050919050565b60006020820190508181036000830152615b5281615b16565b9050919050565b6000606082019050615b6e6000830186614bde565b615b7b6020830185614bde565b615b886040830184614bed565b949350505050565b7f5468652063617465676f72792076616c7565206d757374206265203020666f7260008201527f20746f6b656e7320616e64203120666f72204e46542e00000000000000000000602082015250565b6000615bec60368361520f565b9150615bf782615b90565b604082019050919050565b60006020820190508181036000830152615c1b81615bdf565b9050919050565b600060a082019050615c376000830188614bde565b615c446020830187614bde565b615c516040830186614bed565b615c5e6060830185614bed565b615c6b6080830184614bed565b9695505050505050565b6000606082019050615c8a6000830186614bde565b615c976020830185614bed565b615ca46040830184614bed565b949350505050565b7f536f7272792120596f752063616e6e6f7420636c61696d206974206e6f772e2060008201527f4966204e6f6d696e656520646f6573206e6f7420636c61696d2c207468656e2060208201527f77652077696c6c20696e666f726d20796f752e00000000000000000000000000604082015250565b6000615d2e60538361520f565b9150615d3982615cac565b606082019050919050565b60006020820190508181036000830152615d5d81615d21565b9050919050565b600080600080600060a08688031215615d8057615d7f6145a5565b5b6000615d8e888289016155e9565b9550506020615d9f8882890161536a565b945050604086015167ffffffffffffffff811115615dc057615dbf6145aa565b5b615dcc8882890161582b565b935050606086015167ffffffffffffffff811115615ded57615dec6145aa565b5b615df98882890161582b565b925050608086015167ffffffffffffffff811115615e1a57615e196145aa565b5b615e268882890161582b565b9150509295509295909350565b6000615e3e82614753565b9150615e4983614753565b9250828202615e5781614753565b91508282048414831517615e6e57615e6d61548e565b5b5092915050565b7f4e487b7100000000000000000000000000000000000000000000000000000000600052601260045260246000fd5b6000615eaf82614753565b9150615eba83614753565b925082615eca57615ec9615e75565b5b828204905092915050565b6000615ee082614753565b9150615eeb83614753565b9250828203905081811115615f0357615f0261548e565b5b92915050565b7f536f7272792120596f752063616e277420636c61696d20746869732e2057652060008201527f77696c6c206d61696c20796f7520746f20636c61696d20746869732e00000000602082015250565b6000615f65603c8361520f565b9150615f7082615f09565b604082019050919050565b60006020820190508181036000830152615f9481615f58565b9050919050565b7f4f6f70732120596f752063616e277420636c61696d207468697320726967687460008201527f206e6f772e2057652077696c6c20696e666f726d20796f75207768656e20796f60208201527f752063616e20636c61696d2074686520746f6b656e2e00000000000000000000604082015250565b600061601d60568361520f565b915061602882615f9b565b606082019050919050565b6000602082019050818103600083015261604c81616010565b9050919050565b60006060820190506160686000830186614bed565b6160756020830185614bed565b6160826040830184614bed565b949350505050565b60006101a082840312156160a1576160a06147ba565b5b6160ac6101a0614688565b9050600082015167ffffffffffffffff8111156160cc576160cb6147bf565b5b6160d88482850161582b565b600083015250602082015167ffffffffffffffff8111156160fc576160fb6147bf565b5b6161088482850161582b565b602083015250604082015167ffffffffffffffff81111561612c5761612b6147bf565b5b6161388482850161582b565b604083015250606082015167ffffffffffffffff81111561615c5761615b6147bf565b5b6161688482850161582b565b606083015250608061617c848285016151cd565b60808301525060a0616190848285016151cd565b60a08301525060c06161a4848285016151cd565b60c08301525060e06161b88482850161536a565b60e08301525061010082015167ffffffffffffffff8111156161dd576161dc6147bf565b5b6161e9848285016153e8565b6101008301525061012082015167ffffffffffffffff81111561620f5761620e6147bf565b5b61621b84828501615667565b61012083015250610140616231848285016155e9565b61014083015250610160616247848285016155e9565b6101608301525061018061625d848285016155e9565b6101808301525092915050565b6000602082840312156162805761627f6145a5565b5b600082015167ffffffffffffffff81111561629e5761629d6145aa565b5b6162aa8482850161608a565b91505092915050565b7f546865207265636f766572792061646472657373206f72206f776e657220616460008201527f647265737320697320696e636f72726563742100000000000000000000000000602082015250565b600061630f60338361520f565b915061631a826162b3565b604082019050919050565b6000602082019050818103600083015261633e81616302565b9050919050565b600060408201905061635a6000830185614bde565b6163676020830184614bed565b9392505050565b7f4f776e61626c653a206e6577206f776e657220697320746865207a65726f206160008201527f6464726573730000000000000000000000000000000000000000000000000000602082015250565b60006163ca60268361520f565b91506163d58261636e565b604082019050919050565b600060208201905081810360008301526163f9816163bd565b9050919050565b7f4f776e61626c653a2063616c6c6572206973206e6f7420746865206f776e6572600082015250565b600061643660208361520f565b915061644182616400565b602082019050919050565b6000602082019050818103600083015261646581616429565b905091905056fea2646970667358221220646a11a18c33be2aa70de5546088e68c42d79437f73b6a0f9c55706663bc907b64736f6c63430008110033",
  "linkReferences": {},
  "deployedLinkReferences": {}
}