{
  "_format": "hh-sol-artifact-1",
  "contractName": "MultiplePriorityNominee",
  "sourceName": "contracts/MultiplePriorityNominee.sol",
  "abi": [
    {
      "inputs": [
        {
          "internalType": "address",
          "name": "_inheritokensAddress",
          "type": "address"
        },
        {
          "internalType": "address",
          "name": "_charityContractAddress",
          "type": "address"
        }
      ],
      "stateMutability": "nonpayable",
      "type": "constructor"
    },
    {
      "anonymous": false,
      "inputs": [
        {
          "indexed": true,
          "internalType": "address",
          "name": "_owner",
          "type": "address"
        },
        {
          "indexed": true,
          "internalType": "address",
          "name": "_nominee",
          "type": "address"
        },
        {
          "indexed": true,
          "internalType": "address",
          "name": "_tokenAddress",
          "type": "address"
        },
        {
          "indexed": false,
          "internalType": "uint256",
          "name": "_tokenId",
          "type": "uint256"
        },
        {
          "indexed": false,
          "internalType": "uint256",
          "name": "_amount",
          "type": "uint256"
        },
        {
          "indexed": false,
          "internalType": "uint256",
          "name": "_category",
          "type": "uint256"
        }
      ],
      "name": "Claimed",
      "type": "event"
    },
    {
      "anonymous": false,
      "inputs": [
        {
          "indexed": true,
          "internalType": "address",
          "name": "previousOwner",
          "type": "address"
        },
        {
          "indexed": true,
          "internalType": "address",
          "name": "newOwner",
          "type": "address"
        }
      ],
      "name": "OwnershipTransferred",
      "type": "event"
    },
    {
      "anonymous": false,
      "inputs": [
        {
          "indexed": true,
          "internalType": "address",
          "name": "_owner",
          "type": "address"
        },
        {
          "indexed": true,
          "internalType": "address",
          "name": "_tokenAddress",
          "type": "address"
        },
        {
          "indexed": false,
          "internalType": "uint256",
          "name": "_tokenId",
          "type": "uint256"
        },
        {
          "indexed": false,
          "internalType": "uint256",
          "name": "_amount",
          "type": "uint256"
        },
        {
          "indexed": false,
          "internalType": "uint256",
          "name": "_category",
          "type": "uint256"
        }
      ],
      "name": "Recovered",
      "type": "event"
    },
    {
      "anonymous": false,
      "inputs": [
        {
          "indexed": true,
          "internalType": "address",
          "name": "_owner",
          "type": "address"
        },
        {
          "indexed": false,
          "internalType": "address",
          "name": "_tokenAddress",
          "type": "address"
        },
        {
          "indexed": false,
          "internalType": "uint256",
          "name": "_tokenId",
          "type": "uint256"
        },
        {
          "indexed": false,
          "internalType": "uint256",
          "name": "_category",
          "type": "uint256"
        }
      ],
      "name": "TokensAssigned",
      "type": "event"
    },
    {
      "inputs": [
        {
          "internalType": "address",
          "name": "_tokenAddress",
          "type": "address"
        },
        {
          "internalType": "string",
          "name": "_tokenName",
          "type": "string"
        },
        {
          "internalType": "uint256",
          "name": "_category",
          "type": "uint256"
        },
        {
          "internalType": "uint256",
          "name": "_tokenId",
          "type": "uint256"
        },
        {
          "components": [
            {
              "internalType": "uint256",
              "name": "share",
              "type": "uint256"
            },
            {
              "internalType": "address",
              "name": "charityAddress",
              "type": "address"
            },
            {
              "internalType": "address",
              "name": "canClaim",
              "type": "address"
            },
            {
              "internalType": "address[]",
              "name": "nominee",
              "type": "address[]"
            },
            {
              "internalType": "bool",
              "name": "isClaimed",
              "type": "bool"
            }
          ],
          "internalType": "struct MultiplePriorityNominee.MultiplePriority[]",
          "name": "data",
          "type": "tuple[]"
        }
      ],
      "name": "assignTokensToMultipleNominees",
      "outputs": [],
      "stateMutability": "nonpayable",
      "type": "function"
    },
    {
      "inputs": [
        {
          "internalType": "address",
          "name": "_tokenAddress",
          "type": "address"
        },
        {
          "internalType": "uint256",
          "name": "_tokenCharge",
          "type": "uint256"
        },
        {
          "internalType": "uint256",
          "name": "_nftCharge",
          "type": "uint256"
        },
        {
          "internalType": "uint256",
          "name": "_percentage",
          "type": "uint256"
        }
      ],
      "name": "changeCharges",
      "outputs": [],
      "stateMutability": "nonpayable",
      "type": "function"
    },
    {
      "inputs": [],
      "name": "chargeTokenAddress",
      "outputs": [
        {
          "internalType": "address",
          "name": "",
          "type": "address"
        }
      ],
      "stateMutability": "view",
      "type": "function"
    },
    {
      "inputs": [],
      "name": "charityContract",
      "outputs": [
        {
          "internalType": "contract CharityContract",
          "name": "",
          "type": "address"
        }
      ],
      "stateMutability": "view",
      "type": "function"
    },
    {
      "inputs": [],
      "name": "charityContractAddress",
      "outputs": [
        {
          "internalType": "address",
          "name": "",
          "type": "address"
        }
      ],
      "stateMutability": "view",
      "type": "function"
    },
    {
      "inputs": [
        {
          "internalType": "address",
          "name": "_owner",
          "type": "address"
        },
        {
          "internalType": "address",
          "name": "_tokenAddress",
          "type": "address"
        },
        {
          "internalType": "uint256",
          "name": "_tokenId",
          "type": "uint256"
        },
        {
          "internalType": "uint256",
          "name": "_category",
          "type": "uint256"
        }
      ],
      "name": "claim",
      "outputs": [],
      "stateMutability": "nonpayable",
      "type": "function"
    },
    {
      "inputs": [
        {
          "internalType": "address",
          "name": "_owner",
          "type": "address"
        },
        {
          "internalType": "address",
          "name": "_tokenAddress",
          "type": "address"
        },
        {
          "internalType": "uint256",
          "name": "_tokenId",
          "type": "uint256"
        },
        {
          "internalType": "uint256",
          "name": "_category",
          "type": "uint256"
        }
      ],
      "name": "getAllStructs",
      "outputs": [
        {
          "components": [
            {
              "internalType": "uint256",
              "name": "share",
              "type": "uint256"
            },
            {
              "internalType": "address",
              "name": "charityAddress",
              "type": "address"
            },
            {
              "internalType": "address",
              "name": "canClaim",
              "type": "address"
            },
            {
              "internalType": "address[]",
              "name": "nominee",
              "type": "address[]"
            },
            {
              "internalType": "bool",
              "name": "isClaimed",
              "type": "bool"
            }
          ],
          "internalType": "struct MultiplePriorityNominee.MultiplePriority[]",
          "name": "",
          "type": "tuple[]"
        }
      ],
      "stateMutability": "view",
      "type": "function"
    },
    {
      "inputs": [],
      "name": "inheritokens",
      "outputs": [
        {
          "internalType": "contract Inheritokens",
          "name": "",
          "type": "address"
        }
      ],
      "stateMutability": "view",
      "type": "function"
    },
    {
      "inputs": [],
      "name": "inheritokensAddress",
      "outputs": [
        {
          "internalType": "address",
          "name": "",
          "type": "address"
        }
      ],
      "stateMutability": "view",
      "type": "function"
    },
    {
      "inputs": [],
      "name": "nftCharge",
      "outputs": [
        {
          "internalType": "uint256",
          "name": "",
          "type": "uint256"
        }
      ],
      "stateMutability": "view",
      "type": "function"
    },
    {
      "inputs": [
        {
          "internalType": "address",
          "name": "_owner",
          "type": "address"
        },
        {
          "internalType": "address",
          "name": "_tokenAddress",
          "type": "address"
        },
        {
          "internalType": "uint256",
          "name": "_tokenId",
          "type": "uint256"
        }
      ],
      "name": "nftTransferLogic",
      "outputs": [],
      "stateMutability": "nonpayable",
      "type": "function"
    },
    {
      "inputs": [
        {
          "internalType": "address",
          "name": "",
          "type": "address"
        },
        {
          "internalType": "address",
          "name": "",
          "type": "address"
        }
      ],
      "name": "notFirst",
      "outputs": [
        {
          "internalType": "bool",
          "name": "",
          "type": "bool"
        }
      ],
      "stateMutability": "view",
      "type": "function"
    },
    {
      "inputs": [],
      "name": "owner",
      "outputs": [
        {
          "internalType": "address",
          "name": "",
          "type": "address"
        }
      ],
      "stateMutability": "view",
      "type": "function"
    },
    {
      "inputs": [
        {
          "internalType": "address",
          "name": "",
          "type": "address"
        },
        {
          "internalType": "address",
          "name": "",
          "type": "address"
        },
        {
          "internalType": "uint256",
          "name": "",
          "type": "uint256"
        },
        {
          "internalType": "uint256",
          "name": "",
          "type": "uint256"
        }
      ],
      "name": "ownerToNFTToStruct",
      "outputs": [
        {
          "internalType": "uint256",
          "name": "share",
          "type": "uint256"
        },
        {
          "internalType": "address",
          "name": "charityAddress",
          "type": "address"
        },
        {
          "internalType": "address",
          "name": "canClaim",
          "type": "address"
        },
        {
          "internalType": "bool",
          "name": "isClaimed",
          "type": "bool"
        }
      ],
      "stateMutability": "view",
      "type": "function"
    },
    {
      "inputs": [
        {
          "internalType": "address",
          "name": "",
          "type": "address"
        },
        {
          "internalType": "address",
          "name": "",
          "type": "address"
        },
        {
          "internalType": "uint256",
          "name": "",
          "type": "uint256"
        }
      ],
      "name": "ownerToTokenToStruct",
      "outputs": [
        {
          "internalType": "uint256",
          "name": "share",
          "type": "uint256"
        },
        {
          "internalType": "address",
          "name": "charityAddress",
          "type": "address"
        },
        {
          "internalType": "address",
          "name": "canClaim",
          "type": "address"
        },
        {
          "internalType": "bool",
          "name": "isClaimed",
          "type": "bool"
        }
      ],
      "stateMutability": "view",
      "type": "function"
    },
    {
      "inputs": [],
      "name": "percentage",
      "outputs": [
        {
          "internalType": "uint256",
          "name": "",
          "type": "uint256"
        }
      ],
      "stateMutability": "view",
      "type": "function"
    },
    {
      "inputs": [
        {
          "internalType": "address",
          "name": "_owner",
          "type": "address"
        },
        {
          "internalType": "address",
          "name": "_tokenAddress",
          "type": "address"
        },
        {
          "internalType": "uint256",
          "name": "_tokenId",
          "type": "uint256"
        },
        {
          "internalType": "uint256",
          "name": "_category",
          "type": "uint256"
        }
      ],
      "name": "recoveryClaim",
      "outputs": [],
      "stateMutability": "nonpayable",
      "type": "function"
    },
    {
      "inputs": [],
      "name": "renounceOwnership",
      "outputs": [],
      "stateMutability": "nonpayable",
      "type": "function"
    },
    {
      "inputs": [],
      "name": "tokenCharge",
      "outputs": [
        {
          "internalType": "uint256",
          "name": "",
          "type": "uint256"
        }
      ],
      "stateMutability": "view",
      "type": "function"
    },
    {
      "inputs": [
        {
          "internalType": "address",
          "name": "_owner",
          "type": "address"
        },
        {
          "internalType": "address",
          "name": "_tokenAddress",
          "type": "address"
        },
        {
          "internalType": "uint256",
          "name": "_share",
          "type": "uint256"
        }
      ],
      "name": "tokenTransferLogic",
      "outputs": [],
      "stateMutability": "nonpayable",
      "type": "function"
    },
    {
      "inputs": [
        {
          "internalType": "address",
          "name": "",
          "type": "address"
        },
        {
          "internalType": "address",
          "name": "",
          "type": "address"
        }
      ],
      "name": "totalAmount",
      "outputs": [
        {
          "internalType": "uint256",
          "name": "",
          "type": "uint256"
        }
      ],
      "stateMutability": "view",
      "type": "function"
    },
    {
      "inputs": [
        {
          "internalType": "address",
          "name": "newOwner",
          "type": "address"
        }
      ],
      "name": "transferOwnership",
      "outputs": [],
      "stateMutability": "nonpayable",
      "type": "function"
    },
    {
      "inputs": [
        {
          "internalType": "uint256",
          "name": "_amount",
          "type": "uint256"
        },
        {
          "internalType": "address",
          "name": "_tokenAddress",
          "type": "address"
        }
      ],
      "name": "withdrawFromContract",
      "outputs": [],
      "stateMutability": "payable",
      "type": "function"
    }
  ],
  "bytecode": "0x6080604052620f4240600555624c4b40600655600160075573e9dce89b076ba6107bb64ef30678efec11939234600860006101000a81548173ffffffffffffffffffffffffffffffffffffffff021916908373ffffffffffffffffffffffffffffffffffffffff1602179055503480156200007957600080fd5b506040516200538b3803806200538b83398181016040528101906200009f919062000345565b620000bf620000b36200020f60201b60201c565b6200021760201b60201c565b81600160006101000a81548173ffffffffffffffffffffffffffffffffffffffff021916908373ffffffffffffffffffffffffffffffffffffffff160217905550600160009054906101000a900473ffffffffffffffffffffffffffffffffffffffff16600260006101000a81548173ffffffffffffffffffffffffffffffffffffffff021916908373ffffffffffffffffffffffffffffffffffffffff16021790555080600360006101000a81548173ffffffffffffffffffffffffffffffffffffffff021916908373ffffffffffffffffffffffffffffffffffffffff160217905550600360009054906101000a900473ffffffffffffffffffffffffffffffffffffffff16600460006101000a81548173ffffffffffffffffffffffffffffffffffffffff021916908373ffffffffffffffffffffffffffffffffffffffff16021790555050506200038c565b600033905090565b60008060009054906101000a900473ffffffffffffffffffffffffffffffffffffffff169050816000806101000a81548173ffffffffffffffffffffffffffffffffffffffff021916908373ffffffffffffffffffffffffffffffffffffffff1602179055508173ffffffffffffffffffffffffffffffffffffffff168173ffffffffffffffffffffffffffffffffffffffff167f8be0079c531659141344cd1fd0a4f28419497f9722a3daafe3b4186f6b6457e060405160405180910390a35050565b600080fd5b600073ffffffffffffffffffffffffffffffffffffffff82169050919050565b60006200030d82620002e0565b9050919050565b6200031f8162000300565b81146200032b57600080fd5b50565b6000815190506200033f8162000314565b92915050565b600080604083850312156200035f576200035e620002db565b5b60006200036f858286016200032e565b925050602062000382858286016200032e565b9150509250929050565b614fef806200039c6000396000f3fe6080604052600436106101405760003560e01c80638da5cb5b116100b6578063c407695b1161006f578063c407695b1461043f578063c78ad77f1461046a578063d8948a8914610495578063f1d8eefc146104d2578063f2fde38b146104fd578063f4cd54651461052657610140565b80638da5cb5b146103225780639605f5051461034d5780639b25202314610369578063a64ad61f14610394578063be27c3fe146103d4578063bea7d6ac146103ff57610140565b80634ab3a732116101085780634ab3a732146102285780635c042ae7146102515780635cdb4ce41461027c5780635e771775146102b9578063715018a6146102e257806379cf3077146102f957610140565b806303cd42481461014557806322d5dfbf1461016e57806326af4832146101975780633765aae8146101c057806346f17152146101fd575b600080fd5b34801561015157600080fd5b5061016c60048036038101906101679190613311565b610551565b005b34801561017a57600080fd5b5061019560048036038101906101909190613378565b6105b5565b005b3480156101a357600080fd5b506101be60048036038101906101b991906133cb565b61062f565b005b3480156101cc57600080fd5b506101e760048036038101906101e29190613432565b610f51565b6040516101f4919061348d565b60405180910390f35b34801561020957600080fd5b50610212610f80565b60405161021f91906134b7565b60405180910390f35b34801561023457600080fd5b5061024f600480360381019061024a91906133cb565b610fa6565b005b34801561025d57600080fd5b50610266611234565b60405161027391906134b7565b60405180910390f35b34801561028857600080fd5b506102a3600480360381019061029e91906133cb565b61125a565b6040516102b091906136e6565b60405180910390f35b3480156102c557600080fd5b506102e060048036038101906102db9190613ad5565b6116f6565b005b3480156102ee57600080fd5b506102f7612858565b005b34801561030557600080fd5b50610320600480360381019061031b9190613378565b61286c565b005b34801561032e57600080fd5b50610337612c61565b60405161034491906134b7565b60405180910390f35b61036760048036038101906103629190613b88565b612c8a565b005b34801561037557600080fd5b5061037e612d1b565b60405161038b9190613bd7565b60405180910390f35b3480156103a057600080fd5b506103bb60048036038101906103b691906133cb565b612d21565b6040516103cb9493929190613bf2565b60405180910390f35b3480156103e057600080fd5b506103e9612dd5565b6040516103f69190613c96565b60405180910390f35b34801561040b57600080fd5b5061042660048036038101906104219190613378565b612dfb565b6040516104369493929190613bf2565b60405180910390f35b34801561044b57600080fd5b50610454612ea2565b6040516104619190613bd7565b60405180910390f35b34801561047657600080fd5b5061047f612ea8565b60405161048c9190613bd7565b60405180910390f35b3480156104a157600080fd5b506104bc60048036038101906104b79190613432565b612eae565b6040516104c99190613bd7565b60405180910390f35b3480156104de57600080fd5b506104e7612ed3565b6040516104f491906134b7565b60405180910390f35b34801561050957600080fd5b50610524600480360381019061051f9190613cb1565b612ef9565b005b34801561053257600080fd5b5061053b612f7c565b6040516105489190613cff565b60405180910390f35b610559612fa2565b83600860006101000a81548173ffffffffffffffffffffffffffffffffffffffff021916908373ffffffffffffffffffffffffffffffffffffffff16021790555082600581905550816006819055508060078190555050505050565b60008290508073ffffffffffffffffffffffffffffffffffffffff166323b872dd8533856040518463ffffffff1660e01b81526004016105f793929190613d1a565b600060405180830381600087803b15801561061157600080fd5b505af1158015610625573d6000803e3d6000fd5b5050505050505050565b600260009054906101000a900473ffffffffffffffffffffffffffffffffffffffff1673ffffffffffffffffffffffffffffffffffffffff16633d4c12d7856040518263ffffffff1660e01b815260040161068a91906134b7565b602060405180830381865afa1580156106a7573d6000803e3d6000fd5b505050506040513d601f19601f820116820180604052508101906106cb9190613d66565b61070a576040517f08c379a000000000000000000000000000000000000000000000000000000000815260040161070190613e16565b60405180910390fd5b60008060008303610b1b5760005b600960008873ffffffffffffffffffffffffffffffffffffffff1673ffffffffffffffffffffffffffffffffffffffff16815260200190815260200160002060008773ffffffffffffffffffffffffffffffffffffffff1673ffffffffffffffffffffffffffffffffffffffff16815260200190815260200160002080549050811015610ace573373ffffffffffffffffffffffffffffffffffffffff16600960008973ffffffffffffffffffffffffffffffffffffffff1673ffffffffffffffffffffffffffffffffffffffff16815260200190815260200160002060008873ffffffffffffffffffffffffffffffffffffffff1673ffffffffffffffffffffffffffffffffffffffff168152602001908152602001600020828154811061084457610843613e36565b5b906000526020600020906005020160020160009054906101000a900473ffffffffffffffffffffffffffffffffffffffff1673ffffffffffffffffffffffffffffffffffffffff16148015610949575060001515600960008973ffffffffffffffffffffffffffffffffffffffff1673ffffffffffffffffffffffffffffffffffffffff16815260200190815260200160002060008873ffffffffffffffffffffffffffffffffffffffff1673ffffffffffffffffffffffffffffffffffffffff168152602001908152602001600020828154811061092657610925613e36565b5b906000526020600020906005020160040160009054906101000a900460ff161515145b15610abb576000600960008973ffffffffffffffffffffffffffffffffffffffff1673ffffffffffffffffffffffffffffffffffffffff16815260200190815260200160002060008873ffffffffffffffffffffffffffffffffffffffff1673ffffffffffffffffffffffffffffffffffffffff16815260200190815260200160002082815481106109de576109dd613e36565b5b90600052602060002090600502016000015490506109fd88888361286c565b6001600960008a73ffffffffffffffffffffffffffffffffffffffff1673ffffffffffffffffffffffffffffffffffffffff16815260200190815260200160002060008973ffffffffffffffffffffffffffffffffffffffff1673ffffffffffffffffffffffffffffffffffffffff1681526020019081526020016000208381548110610a8d57610a8c613e36565b5b906000526020600020906005020160040160006101000a81548160ff02191690831515021790555060019250505b8080610ac690613e94565b915050610718565b506000151581151503610b16576040517f08c379a0000000000000000000000000000000000000000000000000000000008152600401610b0d90613f74565b60405180910390fd5b610ec9565b60018303610ec85760005b600c60008873ffffffffffffffffffffffffffffffffffffffff1673ffffffffffffffffffffffffffffffffffffffff16815260200190815260200160002060008773ffffffffffffffffffffffffffffffffffffffff1673ffffffffffffffffffffffffffffffffffffffff168152602001908152602001600020600086815260200190815260200160002080549050811015610e7f573373ffffffffffffffffffffffffffffffffffffffff16600c60008973ffffffffffffffffffffffffffffffffffffffff1673ffffffffffffffffffffffffffffffffffffffff16815260200190815260200160002060008873ffffffffffffffffffffffffffffffffffffffff1673ffffffffffffffffffffffffffffffffffffffff16815260200190815260200160002060008781526020019081526020016000208281548110610c7457610c73613e36565b5b906000526020600020906005020160020160009054906101000a900473ffffffffffffffffffffffffffffffffffffffff1673ffffffffffffffffffffffffffffffffffffffff16148015610d8a575060001515600c60008973ffffffffffffffffffffffffffffffffffffffff1673ffffffffffffffffffffffffffffffffffffffff16815260200190815260200160002060008873ffffffffffffffffffffffffffffffffffffffff1673ffffffffffffffffffffffffffffffffffffffff16815260200190815260200160002060008781526020019081526020016000208281548110610d6757610d66613e36565b5b906000526020600020906005020160040160009054906101000a900460ff161515145b15610e6c57610d9a8787876105b5565b6001600c60008973ffffffffffffffffffffffffffffffffffffffff1673ffffffffffffffffffffffffffffffffffffffff16815260200190815260200160002060008873ffffffffffffffffffffffffffffffffffffffff1673ffffffffffffffffffffffffffffffffffffffff16815260200190815260200160002060008781526020019081526020016000208281548110610e3b57610e3a613e36565b5b906000526020600020906005020160040160006101000a81548160ff02191690831515021790555060019150610e7f565b8080610e7790613e94565b915050610b26565b506000151581151503610ec7576040517f08c379a0000000000000000000000000000000000000000000000000000000008152600401610ebe90613f74565b60405180910390fd5b5b5b8473ffffffffffffffffffffffffffffffffffffffff163373ffffffffffffffffffffffffffffffffffffffff168773ffffffffffffffffffffffffffffffffffffffff167f5ccac6a981ee0d2404d2487672d204c80cc526da4f51e90dd5ae4cfe880a9add878688604051610f4193929190613f94565b60405180910390a4505050505050565b600b6020528160005260406000206020528060005260406000206000915091509054906101000a900460ff1681565b600160009054906101000a900473ffffffffffffffffffffffffffffffffffffffff1681565b3373ffffffffffffffffffffffffffffffffffffffff16600260009054906101000a900473ffffffffffffffffffffffffffffffffffffffff1673ffffffffffffffffffffffffffffffffffffffff1663c3bb8121866040518263ffffffff1660e01b815260040161101891906134b7565b600060405180830381865afa158015611035573d6000803e3d6000fd5b505050506040513d6000823e3d601f19601f8201168201806040525081019061105e91906143c9565b60e0015173ffffffffffffffffffffffffffffffffffffffff16146110b8576040517f08c379a00000000000000000000000000000000000000000000000000000000081526004016110af90614484565b60405180910390fd5b600260009054906101000a900473ffffffffffffffffffffffffffffffffffffffff1673ffffffffffffffffffffffffffffffffffffffff16633d4c12d7856040518263ffffffff1660e01b815260040161111391906134b7565b602060405180830381865afa158015611130573d6000803e3d6000fd5b505050506040513d601f19601f820116820180604052508101906111549190613d66565b15611194576040517f08c379a000000000000000000000000000000000000000000000000000000000815260040161118b9061453c565b60405180910390fd5b60008082036111ae576111a98585606461286c565b6111c4565b60008311156111c3576111c28585856105b5565b5b5b8373ffffffffffffffffffffffffffffffffffffffff168573ffffffffffffffffffffffffffffffffffffffff167faa3446f866f557932f6c5a4933379c0e3e3fd6dcc0a20cfae5222255ffd16bdd85848660405161122593929190613f94565b60405180910390a35050505050565b600860009054906101000a900473ffffffffffffffffffffffffffffffffffffffff1681565b60606000820361149c57600960008673ffffffffffffffffffffffffffffffffffffffff1673ffffffffffffffffffffffffffffffffffffffff16815260200190815260200160002060008573ffffffffffffffffffffffffffffffffffffffff1673ffffffffffffffffffffffffffffffffffffffff168152602001908152602001600020805480602002602001604051908101604052809291908181526020016000905b8282101561149157838290600052602060002090600502016040518060a0016040529081600082015481526020016001820160009054906101000a900473ffffffffffffffffffffffffffffffffffffffff1673ffffffffffffffffffffffffffffffffffffffff1673ffffffffffffffffffffffffffffffffffffffff1681526020016002820160009054906101000a900473ffffffffffffffffffffffffffffffffffffffff1673ffffffffffffffffffffffffffffffffffffffff1673ffffffffffffffffffffffffffffffffffffffff1681526020016003820180548060200260200160405190810160405280929190818152602001828054801561145e57602002820191906000526020600020905b8160009054906101000a900473ffffffffffffffffffffffffffffffffffffffff1673ffffffffffffffffffffffffffffffffffffffff1681526020019060010190808311611414575b505050505081526020016004820160009054906101000a900460ff16151515158152505081526020019060010190611300565b5050505090506116ee565b600182036116ed57600c60008673ffffffffffffffffffffffffffffffffffffffff1673ffffffffffffffffffffffffffffffffffffffff16815260200190815260200160002060008573ffffffffffffffffffffffffffffffffffffffff1673ffffffffffffffffffffffffffffffffffffffff1681526020019081526020016000206000848152602001908152602001600020805480602002602001604051908101604052809291908181526020016000905b828210156116e257838290600052602060002090600502016040518060a0016040529081600082015481526020016001820160009054906101000a900473ffffffffffffffffffffffffffffffffffffffff1673ffffffffffffffffffffffffffffffffffffffff1673ffffffffffffffffffffffffffffffffffffffff1681526020016002820160009054906101000a900473ffffffffffffffffffffffffffffffffffffffff1673ffffffffffffffffffffffffffffffffffffffff1673ffffffffffffffffffffffffffffffffffffffff168152602001600382018054806020026020016040519081016040528092919081815260200182805480156116af57602002820191906000526020600020905b8160009054906101000a900473ffffffffffffffffffffffffffffffffffffffff1673ffffffffffffffffffffffffffffffffffffffff1681526020019060010190808311611665575b505050505081526020016004820160009054906101000a900460ff16151515158152505081526020019060010190611551565b5050505090506116ee565b5b949350505050565b600260009054906101000a900473ffffffffffffffffffffffffffffffffffffffff1673ffffffffffffffffffffffffffffffffffffffff16630f1f8c05336040518263ffffffff1660e01b815260040161175191906134b7565b602060405180830381865afa15801561176e573d6000803e3d6000fd5b505050506040513d601f19601f820116820180604052508101906117929190613d66565b6117d1576040517f08c379a00000000000000000000000000000000000000000000000000000000081526004016117c8906145ce565b60405180910390fd5b600260009054906101000a900473ffffffffffffffffffffffffffffffffffffffff1673ffffffffffffffffffffffffffffffffffffffff166315b79630336040518263ffffffff1660e01b815260040161182c91906134b7565b602060405180830381865afa158015611849573d6000803e3d6000fd5b505050506040513d601f19601f8201168201806040525081019061186d9190613d66565b6118ac576040517f08c379a00000000000000000000000000000000000000000000000000000000081526004016118a390614686565b60405180910390fd5b6000600260009054906101000a900473ffffffffffffffffffffffffffffffffffffffff1673ffffffffffffffffffffffffffffffffffffffff166320e4ab6a336040518263ffffffff1660e01b815260040161190991906134b7565b600060405180830381865afa158015611926573d6000803e3d6000fd5b505050506040513d6000823e3d601f19601f8201168201806040525081019061194f91906146a6565b9050600080600260009054906101000a900473ffffffffffffffffffffffffffffffffffffffff1673ffffffffffffffffffffffffffffffffffffffff166345bceabd336040518263ffffffff1660e01b81526004016119af91906134b7565b600060405180830381865afa1580156119cc573d6000803e3d6000fd5b505050506040513d6000823e3d601f19601f820116820180604052508101906119f591906146ef565b9050600080600090505b8551811015611ce15760005b868281518110611a1e57611a1d613e36565b5b60200260200101516060015151811015611b3e576000945060005b8651811015611ae357868181518110611a5557611a54613e36565b5b602002602001015173ffffffffffffffffffffffffffffffffffffffff16888481518110611a8657611a85613e36565b5b6020026020010151606001518381518110611aa457611aa3613e36565b5b602002602001015173ffffffffffffffffffffffffffffffffffffffff1603611ad05760019550611ae3565b8080611adb90613e94565b915050611a39565b506000151585151503611b2b576040517f08c379a0000000000000000000000000000000000000000000000000000000008152600401611b22906147d0565b60405180910390fd5b8080611b3690613e94565b915050611a0b565b5060005b8351811015611c86576000600460009054906101000a900473ffffffffffffffffffffffffffffffffffffffff1673ffffffffffffffffffffffffffffffffffffffff16637f3d39bd868481518110611b9e57611b9d613e36565b5b60200260200101516040518263ffffffff1660e01b8152600401611bc29190613bd7565b600060405180830381865afa158015611bdf573d6000803e3d6000fd5b505050506040513d6000823e3d601f19601f82011682018060405250810190611c0891906147f0565b9091929350909150905050809150508073ffffffffffffffffffffffffffffffffffffffff16888481518110611c4157611c40613e36565b5b60200260200101516020015173ffffffffffffffffffffffffffffffffffffffff1603611c72576001935050611c86565b508080611c7e90613e94565b915050611b42565b506000151582151503611cce576040517f08c379a0000000000000000000000000000000000000000000000000000000008152600401611cc590614957565b60405180910390fd5b8080611cd990613e94565b9150506119ff565b506000808803611dab57600260009054906101000a900473ffffffffffffffffffffffffffffffffffffffff1673ffffffffffffffffffffffffffffffffffffffff1663de508c5b338c6040518363ffffffff1660e01b8152600401611d48929190614977565b600060405180830381865afa158015611d65573d6000803e3d6000fd5b505050506040513d6000823e3d601f19601f82011682018060405250810190611d8e91906149a0565b909192939450909192935090919250909150905080915050611e72565b60018803611e7157600260009054906101000a900473ffffffffffffffffffffffffffffffffffffffff1673ffffffffffffffffffffffffffffffffffffffff16630220044b338c8a6040518463ffffffff1660e01b8152600401611e1293929190613d1a565b600060405180830381865afa158015611e2f573d6000803e3d6000fd5b505050506040513d6000823e3d601f19601f82011682018060405250810190611e5891906149a0565b9091929394509091929350909192509091509050809150505b5b600080600090505b8751811015611ec257878181518110611e9657611e95613e36565b5b60200260200101516000015182611ead9190614a49565b91508080611eba90613e94565b915050611e7a565b506064811115611f07576040517f08c379a0000000000000000000000000000000000000000000000000000000008152600401611efe90614b15565b60405180910390fd5b81611fa857600260009054906101000a900473ffffffffffffffffffffffffffffffffffffffff1673ffffffffffffffffffffffffffffffffffffffff166325cb763a338d8d8d8d876040518763ffffffff1660e01b8152600401611f7196959493929190614b79565b600060405180830381600087803b158015611f8b57600080fd5b505af1158015611f9f573d6000803e3d6000fd5b505050506123ce565b6000600860009054906101000a900473ffffffffffffffffffffffffffffffffffffffff16905060008a036121a7576005548173ffffffffffffffffffffffffffffffffffffffff1663dd62ed3e33306040518363ffffffff1660e01b8152600401612015929190614977565b602060405180830381865afa158015612032573d6000803e3d6000fd5b505050506040513d601f19601f820116820180604052508101906120569190614be1565b1015612097576040517f08c379a000000000000000000000000000000000000000000000000000000000815260040161208e90614c80565b60405180910390fd5b8073ffffffffffffffffffffffffffffffffffffffff166323b872dd33306005546040518463ffffffff1660e01b81526004016120d693929190613d1a565b6020604051808303816000875af11580156120f5573d6000803e3d6000fd5b505050506040513d601f19601f820116820180604052508101906121199190613d66565b50600960003373ffffffffffffffffffffffffffffffffffffffff1673ffffffffffffffffffffffffffffffffffffffff16815260200190815260200160002060008d73ffffffffffffffffffffffffffffffffffffffff1673ffffffffffffffffffffffffffffffffffffffff16815260200190815260200160002060006121a291906130ec565b6123cc565b60018a03612390576006548173ffffffffffffffffffffffffffffffffffffffff1663dd62ed3e33306040518363ffffffff1660e01b81526004016121ed929190614977565b602060405180830381865afa15801561220a573d6000803e3d6000fd5b505050506040513d601f19601f8201168201806040525081019061222e9190614be1565b101561226f576040517f08c379a000000000000000000000000000000000000000000000000000000000815260040161226690614c80565b60405180910390fd5b8073ffffffffffffffffffffffffffffffffffffffff166323b872dd33306006546040518463ffffffff1660e01b81526004016122ae93929190613d1a565b6020604051808303816000875af11580156122cd573d6000803e3d6000fd5b505050506040513d601f19601f820116820180604052508101906122f19190613d66565b50600c60003373ffffffffffffffffffffffffffffffffffffffff1673ffffffffffffffffffffffffffffffffffffffff16815260200190815260200160002060008d73ffffffffffffffffffffffffffffffffffffffff1673ffffffffffffffffffffffffffffffffffffffff16815260200190815260200160002060008a8152602001908152602001600020600061238b91906130ec565b6123cb565b6040517f08c379a00000000000000000000000000000000000000000000000000000000081526004016123c290614d12565b60405180910390fd5b5b505b600260009054906101000a900473ffffffffffffffffffffffffffffffffffffffff1673ffffffffffffffffffffffffffffffffffffffff1663b69bd77f338d8b858e6040518663ffffffff1660e01b8152600401612431959493929190614d32565b600060405180830381600087803b15801561244b57600080fd5b505af115801561245f573d6000803e3d6000fd5b50505050600089036126275760005b875181101561262157600960003373ffffffffffffffffffffffffffffffffffffffff1673ffffffffffffffffffffffffffffffffffffffff16815260200190815260200160002060008d73ffffffffffffffffffffffffffffffffffffffff1673ffffffffffffffffffffffffffffffffffffffff16815260200190815260200160002088828151811061250657612505613e36565b5b602002602001015190806001815401808255809150506001900390600052602060002090600502016000909190919091506000820151816000015560208201518160010160006101000a81548173ffffffffffffffffffffffffffffffffffffffff021916908373ffffffffffffffffffffffffffffffffffffffff16021790555060408201518160020160006101000a81548173ffffffffffffffffffffffffffffffffffffffff021916908373ffffffffffffffffffffffffffffffffffffffff16021790555060608201518160030190805190602001906125eb929190613110565b5060808201518160040160006101000a81548160ff0219169083151502179055505050808061261990613e94565b91505061246e565b506127f9565b600189036127f85760005b87518110156127f657600c60003373ffffffffffffffffffffffffffffffffffffffff1673ffffffffffffffffffffffffffffffffffffffff16815260200190815260200160002060008d73ffffffffffffffffffffffffffffffffffffffff1673ffffffffffffffffffffffffffffffffffffffff16815260200190815260200160002060008a81526020019081526020016000208882815181106126db576126da613e36565b5b602002602001015190806001815401808255809150506001900390600052602060002090600502016000909190919091506000820151816000015560208201518160010160006101000a81548173ffffffffffffffffffffffffffffffffffffffff021916908373ffffffffffffffffffffffffffffffffffffffff16021790555060408201518160020160006101000a81548173ffffffffffffffffffffffffffffffffffffffff021916908373ffffffffffffffffffffffffffffffffffffffff16021790555060608201518160030190805190602001906127c0929190613110565b5060808201518160040160006101000a81548160ff021916908315150217905550505080806127ee90613e94565b915050612632565b505b5b3373ffffffffffffffffffffffffffffffffffffffff167f356b94cb07d152dfb4f8876f9a6f4c7007027dd30aecb0ac9b698849e14e0e718c8a8c60405161284393929190614d85565b60405180910390a25050505050505050505050565b612860612fa2565b61286a6000613020565b565b6000829050600b60008573ffffffffffffffffffffffffffffffffffffffff1673ffffffffffffffffffffffffffffffffffffffff16815260200190815260200160002060008473ffffffffffffffffffffffffffffffffffffffff1673ffffffffffffffffffffffffffffffffffffffff16815260200190815260200160002060009054906101000a900460ff16612a8f578073ffffffffffffffffffffffffffffffffffffffff166370a08231856040518263ffffffff1660e01b815260040161293891906134b7565b602060405180830381865afa158015612955573d6000803e3d6000fd5b505050506040513d601f19601f820116820180604052508101906129799190614be1565b600a60008673ffffffffffffffffffffffffffffffffffffffff1673ffffffffffffffffffffffffffffffffffffffff16815260200190815260200160002060008573ffffffffffffffffffffffffffffffffffffffff1673ffffffffffffffffffffffffffffffffffffffff168152602001908152602001600020819055506001600b60008673ffffffffffffffffffffffffffffffffffffffff1673ffffffffffffffffffffffffffffffffffffffff16815260200190815260200160002060008573ffffffffffffffffffffffffffffffffffffffff1673ffffffffffffffffffffffffffffffffffffffff16815260200190815260200160002060006101000a81548160ff0219169083151502179055505b6000606483600a60008873ffffffffffffffffffffffffffffffffffffffff1673ffffffffffffffffffffffffffffffffffffffff16815260200190815260200160002060008773ffffffffffffffffffffffffffffffffffffffff1673ffffffffffffffffffffffffffffffffffffffff16815260200190815260200160002054612b1b9190614dbc565b612b259190614e2d565b9050600061271060075483612b3a9190614dbc565b612b449190614e2d565b905060008183612b549190614e5e565b90508373ffffffffffffffffffffffffffffffffffffffff166323b872dd8830856040518463ffffffff1660e01b8152600401612b9393929190613d1a565b6020604051808303816000875af1158015612bb2573d6000803e3d6000fd5b505050506040513d601f19601f82011682018060405250810190612bd69190613d66565b508373ffffffffffffffffffffffffffffffffffffffff166323b872dd8833846040518463ffffffff1660e01b8152600401612c1493929190613d1a565b6020604051808303816000875af1158015612c33573d6000803e3d6000fd5b505050506040513d601f19601f82011682018060405250810190612c579190613d66565b5050505050505050565b60008060009054906101000a900473ffffffffffffffffffffffffffffffffffffffff16905090565b612c92612fa2565b60008190508073ffffffffffffffffffffffffffffffffffffffff1663a9059cbb33856040518363ffffffff1660e01b8152600401612cd2929190614e92565b6020604051808303816000875af1158015612cf1573d6000803e3d6000fd5b505050506040513d601f19601f82011682018060405250810190612d159190613d66565b50505050565b60055481565b600c6020528360005260406000206020528260005260406000206020528160005260406000208181548110612d5557600080fd5b90600052602060002090600502016000935093505050508060000154908060010160009054906101000a900473ffffffffffffffffffffffffffffffffffffffff16908060020160009054906101000a900473ffffffffffffffffffffffffffffffffffffffff16908060040160009054906101000a900460ff16905084565b600260009054906101000a900473ffffffffffffffffffffffffffffffffffffffff1681565b60096020528260005260406000206020528160005260406000208181548110612e2357600080fd5b906000526020600020906005020160009250925050508060000154908060010160009054906101000a900473ffffffffffffffffffffffffffffffffffffffff16908060020160009054906101000a900473ffffffffffffffffffffffffffffffffffffffff16908060040160009054906101000a900460ff16905084565b60065481565b60075481565b600a602052816000526040600020602052806000526040600020600091509150505481565b600360009054906101000a900473ffffffffffffffffffffffffffffffffffffffff1681565b612f01612fa2565b600073ffffffffffffffffffffffffffffffffffffffff168173ffffffffffffffffffffffffffffffffffffffff1603612f70576040517f08c379a0000000000000000000000000000000000000000000000000000000008152600401612f6790614f2d565b60405180910390fd5b612f7981613020565b50565b600460009054906101000a900473ffffffffffffffffffffffffffffffffffffffff1681565b612faa6130e4565b73ffffffffffffffffffffffffffffffffffffffff16612fc8612c61565b73ffffffffffffffffffffffffffffffffffffffff161461301e576040517f08c379a000000000000000000000000000000000000000000000000000000000815260040161301590614f99565b60405180910390fd5b565b60008060009054906101000a900473ffffffffffffffffffffffffffffffffffffffff169050816000806101000a81548173ffffffffffffffffffffffffffffffffffffffff021916908373ffffffffffffffffffffffffffffffffffffffff1602179055508173ffffffffffffffffffffffffffffffffffffffff168173ffffffffffffffffffffffffffffffffffffffff167f8be0079c531659141344cd1fd0a4f28419497f9722a3daafe3b4186f6b6457e060405160405180910390a35050565b600033905090565b508054600082556005029060005260206000209081019061310d919061319a565b50565b828054828255906000526020600020908101928215613189579160200282015b828111156131885782518260006101000a81548173ffffffffffffffffffffffffffffffffffffffff021916908373ffffffffffffffffffffffffffffffffffffffff16021790555091602001919060010190613130565b5b509050613196919061322b565b5090565b5b80821115613227576000808201600090556001820160006101000a81549073ffffffffffffffffffffffffffffffffffffffff02191690556002820160006101000a81549073ffffffffffffffffffffffffffffffffffffffff021916905560038201600061320a9190613248565b6004820160006101000a81549060ff02191690555060050161319b565b5090565b5b8082111561324457600081600090555060010161322c565b5090565b5080546000825590600052602060002090810190613266919061322b565b50565b6000604051905090565b600080fd5b600080fd5b600073ffffffffffffffffffffffffffffffffffffffff82169050919050565b60006132a88261327d565b9050919050565b6132b88161329d565b81146132c357600080fd5b50565b6000813590506132d5816132af565b92915050565b6000819050919050565b6132ee816132db565b81146132f957600080fd5b50565b60008135905061330b816132e5565b92915050565b6000806000806080858703121561332b5761332a613273565b5b6000613339878288016132c6565b945050602061334a878288016132fc565b935050604061335b878288016132fc565b925050606061336c878288016132fc565b91505092959194509250565b60008060006060848603121561339157613390613273565b5b600061339f868287016132c6565b93505060206133b0868287016132c6565b92505060406133c1868287016132fc565b9150509250925092565b600080600080608085870312156133e5576133e4613273565b5b60006133f3878288016132c6565b9450506020613404878288016132c6565b9350506040613415878288016132fc565b9250506060613426878288016132fc565b91505092959194509250565b6000806040838503121561344957613448613273565b5b6000613457858286016132c6565b9250506020613468858286016132c6565b9150509250929050565b60008115159050919050565b61348781613472565b82525050565b60006020820190506134a2600083018461347e565b92915050565b6134b18161329d565b82525050565b60006020820190506134cc60008301846134a8565b92915050565b600081519050919050565b600082825260208201905092915050565b6000819050602082019050919050565b613507816132db565b82525050565b6135168161329d565b82525050565b600081519050919050565b600082825260208201905092915050565b6000819050602082019050919050565b6000613554838361350d565b60208301905092915050565b6000602082019050919050565b60006135788261351c565b6135828185613527565b935061358d83613538565b8060005b838110156135be5781516135a58882613548565b97506135b083613560565b925050600181019050613591565b5085935050505092915050565b6135d481613472565b82525050565b600060a0830160008301516135f260008601826134fe565b506020830151613605602086018261350d565b506040830151613618604086018261350d565b5060608301518482036060860152613630828261356d565b915050608083015161364560808601826135cb565b508091505092915050565b600061365c83836135da565b905092915050565b6000602082019050919050565b600061367c826134d2565b61368681856134dd565b935083602082028501613698856134ee565b8060005b858110156136d457848403895281516136b58582613650565b94506136c083613664565b925060208a0199505060018101905061369c565b50829750879550505050505092915050565b600060208201905081810360008301526137008184613671565b905092915050565b600080fd5b600080fd5b6000601f19601f8301169050919050565b7f4e487b7100000000000000000000000000000000000000000000000000000000600052604160045260246000fd5b61375b82613712565b810181811067ffffffffffffffff8211171561377a57613779613723565b5b80604052505050565b600061378d613269565b90506137998282613752565b919050565b600067ffffffffffffffff8211156137b9576137b8613723565b5b6137c282613712565b9050602081019050919050565b82818337600083830152505050565b60006137f16137ec8461379e565b613783565b90508281526020810184848401111561380d5761380c61370d565b5b6138188482856137cf565b509392505050565b600082601f83011261383557613834613708565b5b81356138458482602086016137de565b91505092915050565b600067ffffffffffffffff82111561386957613868613723565b5b602082029050602081019050919050565b600080fd5b600080fd5b600080fd5b600067ffffffffffffffff8211156138a4576138a3613723565b5b602082029050602081019050919050565b60006138c86138c384613889565b613783565b905080838252602082019050602084028301858111156138eb576138ea61387a565b5b835b81811015613914578061390088826132c6565b8452602084019350506020810190506138ed565b5050509392505050565b600082601f83011261393357613932613708565b5b81356139438482602086016138b5565b91505092915050565b61395581613472565b811461396057600080fd5b50565b6000813590506139728161394c565b92915050565b600060a0828403121561398e5761398d61387f565b5b61399860a0613783565b905060006139a8848285016132fc565b60008301525060206139bc848285016132c6565b60208301525060406139d0848285016132c6565b604083015250606082013567ffffffffffffffff8111156139f4576139f3613884565b5b613a008482850161391e565b6060830152506080613a1484828501613963565b60808301525092915050565b6000613a33613a2e8461384e565b613783565b90508083825260208201905060208402830185811115613a5657613a5561387a565b5b835b81811015613a9d57803567ffffffffffffffff811115613a7b57613a7a613708565b5b808601613a888982613978565b85526020850194505050602081019050613a58565b5050509392505050565b600082601f830112613abc57613abb613708565b5b8135613acc848260208601613a20565b91505092915050565b600080600080600060a08688031215613af157613af0613273565b5b6000613aff888289016132c6565b955050602086013567ffffffffffffffff811115613b2057613b1f613278565b5b613b2c88828901613820565b9450506040613b3d888289016132fc565b9350506060613b4e888289016132fc565b925050608086013567ffffffffffffffff811115613b6f57613b6e613278565b5b613b7b88828901613aa7565b9150509295509295909350565b60008060408385031215613b9f57613b9e613273565b5b6000613bad858286016132fc565b9250506020613bbe858286016132c6565b9150509250929050565b613bd1816132db565b82525050565b6000602082019050613bec6000830184613bc8565b92915050565b6000608082019050613c076000830187613bc8565b613c1460208301866134a8565b613c2160408301856134a8565b613c2e606083018461347e565b95945050505050565b6000819050919050565b6000613c5c613c57613c528461327d565b613c37565b61327d565b9050919050565b6000613c6e82613c41565b9050919050565b6000613c8082613c63565b9050919050565b613c9081613c75565b82525050565b6000602082019050613cab6000830184613c87565b92915050565b600060208284031215613cc757613cc6613273565b5b6000613cd5848285016132c6565b91505092915050565b6000613ce982613c63565b9050919050565b613cf981613cde565b82525050565b6000602082019050613d146000830184613cf0565b92915050565b6000606082019050613d2f60008301866134a8565b613d3c60208301856134a8565b613d496040830184613bc8565b949350505050565b600081519050613d608161394c565b92915050565b600060208284031215613d7c57613d7b613273565b5b6000613d8a84828501613d51565b91505092915050565b600082825260208201905092915050565b7f536f7272792120596f752063616e277420636c61696d20746869732e2057652060008201527f77696c6c206d61696c20796f7520746f20636c61696d20746869732e00000000602082015250565b6000613e00603c83613d93565b9150613e0b82613da4565b604082019050919050565b60006020820190508181036000830152613e2f81613df3565b9050919050565b7f4e487b7100000000000000000000000000000000000000000000000000000000600052603260045260246000fd5b7f4e487b7100000000000000000000000000000000000000000000000000000000600052601160045260246000fd5b6000613e9f826132db565b91507fffffffffffffffffffffffffffffffffffffffffffffffffffffffffffffffff8203613ed157613ed0613e65565b5b600182019050919050565b7f4f6f70732120596f752063616e277420636c61696d207468697320726967687460008201527f206e6f772e2057652077696c6c20696e666f726d20796f75207768656e20796f60208201527f752063616e20636c61696d2074686520746f6b656e2e00000000000000000000604082015250565b6000613f5e605683613d93565b9150613f6982613edc565b606082019050919050565b60006020820190508181036000830152613f8d81613f51565b9050919050565b6000606082019050613fa96000830186613bc8565b613fb66020830185613bc8565b613fc36040830184613bc8565b949350505050565b60005b83811015613fe9578082015181840152602081019050613fce565b60008484015250505050565b60006140086140038461379e565b613783565b9050828152602081018484840111156140245761402361370d565b5b61402f848285613fcb565b509392505050565b600082601f83011261404c5761404b613708565b5b815161405c848260208601613ff5565b91505092915050565b600081519050614074816132af565b92915050565b600061408d61408884613889565b613783565b905080838252602082019050602084028301858111156140b0576140af61387a565b5b835b818110156140d957806140c58882614065565b8452602084019350506020810190506140b2565b5050509392505050565b600082601f8301126140f8576140f7613708565b5b815161410884826020860161407a565b91505092915050565b600067ffffffffffffffff82111561412c5761412b613723565b5b602082029050602081019050919050565b60008151905061414c816132e5565b92915050565b600061416561416084614111565b613783565b905080838252602082019050602084028301858111156141885761418761387a565b5b835b818110156141b1578061419d888261413d565b84526020840193505060208101905061418a565b5050509392505050565b600082601f8301126141d0576141cf613708565b5b81516141e0848260208601614152565b91505092915050565b60006101a08284031215614200576141ff61387f565b5b61420b6101a0613783565b9050600082015167ffffffffffffffff81111561422b5761422a613884565b5b61423784828501614037565b600083015250602082015167ffffffffffffffff81111561425b5761425a613884565b5b61426784828501614037565b602083015250604082015167ffffffffffffffff81111561428b5761428a613884565b5b61429784828501614037565b604083015250606082015167ffffffffffffffff8111156142bb576142ba613884565b5b6142c784828501614037565b60608301525060806142db84828501613d51565b60808301525060a06142ef84828501613d51565b60a08301525060c061430384828501613d51565b60c08301525060e061431784828501614065565b60e08301525061010082015167ffffffffffffffff81111561433c5761433b613884565b5b614348848285016140e3565b6101008301525061012082015167ffffffffffffffff81111561436e5761436d613884565b5b61437a848285016141bb565b610120830152506101406143908482850161413d565b610140830152506101606143a68482850161413d565b610160830152506101806143bc8482850161413d565b6101808301525092915050565b6000602082840312156143df576143de613273565b5b600082015167ffffffffffffffff8111156143fd576143fc613278565b5b614409848285016141e9565b91505092915050565b7f546865207265636f766572792061646472657373206f72206f776e657220616460008201527f647265737320697320696e636f72726563742100000000000000000000000000602082015250565b600061446e603383613d93565b915061447982614412565b604082019050919050565b6000602082019050818103600083015261449d81614461565b9050919050565b7f536f7272792120596f752068617665206e6f74207265706c69656420746f207560008201527f732e20596f757220617373657473206d617920626520636c61696d656420627960208201527f20746865206e6f6d696e65652e00000000000000000000000000000000000000604082015250565b6000614526604d83613d93565b9150614531826144a4565b606082019050919050565b6000602082019050818103600083015261455581614519565b9050919050565b7f596f75206d757374206669727374207369676e20757020666f7220616e20616360008201527f636f756e742e0000000000000000000000000000000000000000000000000000602082015250565b60006145b8602683613d93565b91506145c38261455c565b604082019050919050565b600060208201905081810360008301526145e7816145ab565b9050919050565b7f596f757220656d61696c20686173206e6f7420796574206265656e2076616c6960008201527f64617465642e2056657269667920796f7572207265676973746572656420656d60208201527f61696c20616464726573732066697273742e0000000000000000000000000000604082015250565b6000614670605283613d93565b915061467b826145ee565b606082019050919050565b6000602082019050818103600083015261469f81614663565b9050919050565b6000602082840312156146bc576146bb613273565b5b600082015167ffffffffffffffff8111156146da576146d9613278565b5b6146e6848285016140e3565b91505092915050565b60006020828403121561470557614704613273565b5b600082015167ffffffffffffffff81111561472357614722613278565b5b61472f848285016141bb565b91505092915050565b7f436865636b207468617420616c6c20746865206e6f6d696e65657320796f752060008201527f617265206e6f6d696e6174696e6720617265206164646564206173206e6f6d6960208201527f6e6565732e000000000000000000000000000000000000000000000000000000604082015250565b60006147ba604583613d93565b91506147c582614738565b606082019050919050565b600060208201905081810360008301526147e9816147ad565b9050919050565b600080600080600060a0868803121561480c5761480b613273565b5b600061481a8882890161413d565b955050602061482b88828901614065565b945050604086015167ffffffffffffffff81111561484c5761484b613278565b5b61485888828901614037565b935050606086015167ffffffffffffffff81111561487957614878613278565b5b61488588828901614037565b925050608086015167ffffffffffffffff8111156148a6576148a5613278565b5b6148b288828901614037565b9150509295509295909350565b7f436865636b207468617420746865206368617269747920796f7520617265206e60008201527f6f6d696e6174696e67206973206c697374656420617320612077686974652d6c60208201527f697374656420636861726974792e000000000000000000000000000000000000604082015250565b6000614941604e83613d93565b915061494c826148bf565b606082019050919050565b6000602082019050818103600083015261497081614934565b9050919050565b600060408201905061498c60008301856134a8565b61499960208301846134a8565b9392505050565b60008060008060008060c087890312156149bd576149bc613273565b5b60006149cb89828a01614065565b965050602087015167ffffffffffffffff8111156149ec576149eb613278565b5b6149f889828a01614037565b9550506040614a0989828a0161413d565b9450506060614a1a89828a0161413d565b9350506080614a2b89828a0161413d565b92505060a0614a3c89828a01613d51565b9150509295509295509295565b6000614a54826132db565b9150614a5f836132db565b9250828201905080821115614a7757614a76613e65565b5b92915050565b7f4f6f70732120596f752063616e206f6e6c7920616c6c6f63617465206120313060008201527f30252073686172652e2054727920746f2072656475636520746865207368617260208201527f6520616d6f756e742e0000000000000000000000000000000000000000000000604082015250565b6000614aff604983613d93565b9150614b0a82614a7d565b606082019050919050565b60006020820190508181036000830152614b2e81614af2565b9050919050565b600081519050919050565b6000614b4b82614b35565b614b558185613d93565b9350614b65818560208601613fcb565b614b6e81613712565b840191505092915050565b600060c082019050614b8e60008301896134a8565b614b9b60208301886134a8565b8181036040830152614bad8187614b40565b9050614bbc6060830186613bc8565b614bc96080830185613bc8565b614bd660a0830184613bc8565b979650505050505050565b600060208284031215614bf757614bf6613273565b5b6000614c058482850161413d565b91505092915050565b7f54686520616c6c6f77616e636520746f2074686520636f6e747261637420697360008201527f206e6f7420656e6f756768210000000000000000000000000000000000000000602082015250565b6000614c6a602c83613d93565b9150614c7582614c0e565b604082019050919050565b60006020820190508181036000830152614c9981614c5d565b9050919050565b7f5468652063617465676f72792076616c7565206d757374206265203020666f7260008201527f20746f6b656e7320616e64203120666f72204e46542e00000000000000000000602082015250565b6000614cfc603683613d93565b9150614d0782614ca0565b604082019050919050565b60006020820190508181036000830152614d2b81614cef565b9050919050565b600060a082019050614d4760008301886134a8565b614d5460208301876134a8565b614d616040830186613bc8565b614d6e6060830185613bc8565b614d7b6080830184613bc8565b9695505050505050565b6000606082019050614d9a60008301866134a8565b614da76020830185613bc8565b614db46040830184613bc8565b949350505050565b6000614dc7826132db565b9150614dd2836132db565b9250828202614de0816132db565b91508282048414831517614df757614df6613e65565b5b5092915050565b7f4e487b7100000000000000000000000000000000000000000000000000000000600052601260045260246000fd5b6000614e38826132db565b9150614e43836132db565b925082614e5357614e52614dfe565b5b828204905092915050565b6000614e69826132db565b9150614e74836132db565b9250828203905081811115614e8c57614e8b613e65565b5b92915050565b6000604082019050614ea760008301856134a8565b614eb46020830184613bc8565b9392505050565b7f4f776e61626c653a206e6577206f776e657220697320746865207a65726f206160008201527f6464726573730000000000000000000000000000000000000000000000000000602082015250565b6000614f17602683613d93565b9150614f2282614ebb565b604082019050919050565b60006020820190508181036000830152614f4681614f0a565b9050919050565b7f4f776e61626c653a2063616c6c6572206973206e6f7420746865206f776e6572600082015250565b6000614f83602083613d93565b9150614f8e82614f4d565b602082019050919050565b60006020820190508181036000830152614fb281614f76565b905091905056fea2646970667358221220f4d7b1e894b663a12b3ab5900bec54b3d0027c6a37abe2f1df44f92fbb48a4fe64736f6c63430008110033",
  "linkReferences": {},
  "deployedLinkReferences": {}
}