{
  "_format": "hh-sol-artifact-1",
  "contractName": "MultiplePriorityNominee",
  "sourceName": "contracts/MultiplePriorityNominee.sol",
  "abi": [
    {
      "inputs": [
        {
          "internalType": "address",
          "name": "_inheritokensAddress",
          "type": "address"
        }
      ],
      "stateMutability": "nonpayable",
      "type": "constructor"
    },
    {
      "anonymous": false,
      "inputs": [
        {
          "indexed": true,
          "internalType": "address",
          "name": "_owner",
          "type": "address"
        },
        {
          "indexed": true,
          "internalType": "address",
          "name": "_nominee",
          "type": "address"
        },
        {
          "indexed": true,
          "internalType": "address",
          "name": "_tokenAddress",
          "type": "address"
        },
        {
          "indexed": false,
          "internalType": "uint256",
          "name": "_tokenId",
          "type": "uint256"
        },
        {
          "indexed": false,
          "internalType": "uint256",
          "name": "_amount",
          "type": "uint256"
        },
        {
          "indexed": false,
          "internalType": "uint256",
          "name": "_category",
          "type": "uint256"
        }
      ],
      "name": "Claimed",
      "type": "event"
    },
    {
      "anonymous": false,
      "inputs": [
        {
          "indexed": true,
          "internalType": "address",
          "name": "previousOwner",
          "type": "address"
        },
        {
          "indexed": true,
          "internalType": "address",
          "name": "newOwner",
          "type": "address"
        }
      ],
      "name": "OwnershipTransferred",
      "type": "event"
    },
    {
      "anonymous": false,
      "inputs": [
        {
          "indexed": true,
          "internalType": "address",
          "name": "_owner",
          "type": "address"
        },
        {
          "indexed": true,
          "internalType": "address",
          "name": "_tokenAddress",
          "type": "address"
        },
        {
          "indexed": false,
          "internalType": "uint256",
          "name": "_tokenId",
          "type": "uint256"
        },
        {
          "indexed": false,
          "internalType": "uint256",
          "name": "_amount",
          "type": "uint256"
        },
        {
          "indexed": false,
          "internalType": "uint256",
          "name": "_category",
          "type": "uint256"
        }
      ],
      "name": "Recovered",
      "type": "event"
    },
    {
      "anonymous": false,
      "inputs": [
        {
          "indexed": true,
          "internalType": "address",
          "name": "_owner",
          "type": "address"
        },
        {
          "indexed": false,
          "internalType": "address",
          "name": "_tokenAddress",
          "type": "address"
        },
        {
          "indexed": false,
          "internalType": "uint256",
          "name": "_tokenId",
          "type": "uint256"
        },
        {
          "indexed": false,
          "internalType": "uint256",
          "name": "_category",
          "type": "uint256"
        }
      ],
      "name": "TokensAssigned",
      "type": "event"
    },
    {
      "inputs": [
        {
          "internalType": "address",
          "name": "_tokenAddress",
          "type": "address"
        },
        {
          "internalType": "string",
          "name": "_tokenName",
          "type": "string"
        },
        {
          "internalType": "uint256",
          "name": "_category",
          "type": "uint256"
        },
        {
          "internalType": "uint256",
          "name": "_tokenId",
          "type": "uint256"
        },
        {
          "components": [
            {
              "internalType": "uint256",
              "name": "share",
              "type": "uint256"
            },
            {
              "internalType": "address[]",
              "name": "nominee",
              "type": "address[]"
            },
            {
              "internalType": "bool[]",
              "name": "isNotAvailable",
              "type": "bool[]"
            },
            {
              "internalType": "bool[]",
              "name": "isClaimed",
              "type": "bool[]"
            }
          ],
          "internalType": "struct MultiplePriorityNominee.MultiplePriority[]",
          "name": "data",
          "type": "tuple[]"
        }
      ],
      "name": "assignTokensToMultipleNominees",
      "outputs": [],
      "stateMutability": "nonpayable",
      "type": "function"
    },
    {
      "inputs": [
        {
          "internalType": "address",
          "name": "_tokenAddress",
          "type": "address"
        }
      ],
      "name": "changeChargeTokenAddress",
      "outputs": [],
      "stateMutability": "nonpayable",
      "type": "function"
    },
    {
      "inputs": [
        {
          "internalType": "uint256",
          "name": "_charge",
          "type": "uint256"
        }
      ],
      "name": "changeNFTCharge",
      "outputs": [],
      "stateMutability": "nonpayable",
      "type": "function"
    },
    {
      "inputs": [
        {
          "internalType": "uint256",
          "name": "_amount",
          "type": "uint256"
        }
      ],
      "name": "changePercentage",
      "outputs": [],
      "stateMutability": "nonpayable",
      "type": "function"
    },
    {
      "inputs": [
        {
          "internalType": "uint256",
          "name": "_charge",
          "type": "uint256"
        }
      ],
      "name": "changeTokenCharge",
      "outputs": [],
      "stateMutability": "nonpayable",
      "type": "function"
    },
    {
      "inputs": [
        {
          "internalType": "address",
          "name": "_owner",
          "type": "address"
        },
        {
          "internalType": "address",
          "name": "_tokenAddress",
          "type": "address"
        },
        {
          "internalType": "uint256",
          "name": "_tokenId",
          "type": "uint256"
        },
        {
          "internalType": "uint256",
          "name": "_category",
          "type": "uint256"
        }
      ],
      "name": "claim",
      "outputs": [],
      "stateMutability": "nonpayable",
      "type": "function"
    },
    {
      "inputs": [
        {
          "internalType": "address",
          "name": "_owner",
          "type": "address"
        },
        {
          "internalType": "address",
          "name": "_tokenAddress",
          "type": "address"
        },
        {
          "internalType": "uint256",
          "name": "_tokenId",
          "type": "uint256"
        },
        {
          "internalType": "uint256",
          "name": "_category",
          "type": "uint256"
        }
      ],
      "name": "getAllStructs",
      "outputs": [
        {
          "components": [
            {
              "internalType": "uint256",
              "name": "share",
              "type": "uint256"
            },
            {
              "internalType": "address[]",
              "name": "nominee",
              "type": "address[]"
            },
            {
              "internalType": "bool[]",
              "name": "isNotAvailable",
              "type": "bool[]"
            },
            {
              "internalType": "bool[]",
              "name": "isClaimed",
              "type": "bool[]"
            }
          ],
          "internalType": "struct MultiplePriorityNominee.MultiplePriority[]",
          "name": "",
          "type": "tuple[]"
        }
      ],
      "stateMutability": "view",
      "type": "function"
    },
    {
      "inputs": [],
      "name": "getValues",
      "outputs": [
        {
          "internalType": "address",
          "name": "",
          "type": "address"
        },
        {
          "internalType": "uint256",
          "name": "",
          "type": "uint256"
        },
        {
          "internalType": "uint256",
          "name": "",
          "type": "uint256"
        },
        {
          "internalType": "uint256",
          "name": "",
          "type": "uint256"
        }
      ],
      "stateMutability": "view",
      "type": "function"
    },
    {
      "inputs": [],
      "name": "inheritokens",
      "outputs": [
        {
          "internalType": "contract Inheritokens",
          "name": "",
          "type": "address"
        }
      ],
      "stateMutability": "view",
      "type": "function"
    },
    {
      "inputs": [],
      "name": "inheritokensAddress",
      "outputs": [
        {
          "internalType": "address",
          "name": "",
          "type": "address"
        }
      ],
      "stateMutability": "view",
      "type": "function"
    },
    {
      "inputs": [],
      "name": "owner",
      "outputs": [
        {
          "internalType": "address",
          "name": "",
          "type": "address"
        }
      ],
      "stateMutability": "view",
      "type": "function"
    },
    {
      "inputs": [
        {
          "internalType": "address",
          "name": "",
          "type": "address"
        },
        {
          "internalType": "address",
          "name": "",
          "type": "address"
        },
        {
          "internalType": "uint256",
          "name": "",
          "type": "uint256"
        },
        {
          "internalType": "uint256",
          "name": "",
          "type": "uint256"
        }
      ],
      "name": "ownerToNFTToStruct",
      "outputs": [
        {
          "internalType": "uint256",
          "name": "share",
          "type": "uint256"
        }
      ],
      "stateMutability": "view",
      "type": "function"
    },
    {
      "inputs": [
        {
          "internalType": "address",
          "name": "",
          "type": "address"
        },
        {
          "internalType": "address",
          "name": "",
          "type": "address"
        },
        {
          "internalType": "uint256",
          "name": "",
          "type": "uint256"
        }
      ],
      "name": "ownerToTokenToStruct",
      "outputs": [
        {
          "internalType": "uint256",
          "name": "share",
          "type": "uint256"
        }
      ],
      "stateMutability": "view",
      "type": "function"
    },
    {
      "inputs": [
        {
          "internalType": "address",
          "name": "_owner",
          "type": "address"
        },
        {
          "internalType": "address",
          "name": "_tokenAddress",
          "type": "address"
        },
        {
          "internalType": "uint256",
          "name": "_tokenId",
          "type": "uint256"
        },
        {
          "internalType": "uint256",
          "name": "_category",
          "type": "uint256"
        }
      ],
      "name": "recoveryClaim",
      "outputs": [],
      "stateMutability": "nonpayable",
      "type": "function"
    },
    {
      "inputs": [],
      "name": "renounceOwnership",
      "outputs": [],
      "stateMutability": "nonpayable",
      "type": "function"
    },
    {
      "inputs": [
        {
          "internalType": "address",
          "name": "newOwner",
          "type": "address"
        }
      ],
      "name": "transferOwnership",
      "outputs": [],
      "stateMutability": "nonpayable",
      "type": "function"
    },
    {
      "inputs": [
        {
          "internalType": "uint256",
          "name": "_amount",
          "type": "uint256"
        },
        {
          "internalType": "address",
          "name": "_tokenAddress",
          "type": "address"
        }
      ],
      "name": "withdrawFromContract",
      "outputs": [],
      "stateMutability": "payable",
      "type": "function"
    }
  ],
  "bytecode": "0x6080604052620f4240600355624c4b40600455600160055573e9dce89b076ba6107bb64ef30678efec11939234600660006101000a81548173ffffffffffffffffffffffffffffffffffffffff021916908373ffffffffffffffffffffffffffffffffffffffff1602179055503480156200007957600080fd5b50604051620049383803806200493883398181016040528101906200009f9190620002a0565b620000bf620000b36200016a60201b60201c565b6200017260201b60201c565b80600160006101000a81548173ffffffffffffffffffffffffffffffffffffffff021916908373ffffffffffffffffffffffffffffffffffffffff160217905550600160009054906101000a900473ffffffffffffffffffffffffffffffffffffffff16600260006101000a81548173ffffffffffffffffffffffffffffffffffffffff021916908373ffffffffffffffffffffffffffffffffffffffff16021790555050620002d2565b600033905090565b60008060009054906101000a900473ffffffffffffffffffffffffffffffffffffffff169050816000806101000a81548173ffffffffffffffffffffffffffffffffffffffff021916908373ffffffffffffffffffffffffffffffffffffffff1602179055508173ffffffffffffffffffffffffffffffffffffffff168173ffffffffffffffffffffffffffffffffffffffff167f8be0079c531659141344cd1fd0a4f28419497f9722a3daafe3b4186f6b6457e060405160405180910390a35050565b600080fd5b600073ffffffffffffffffffffffffffffffffffffffff82169050919050565b600062000268826200023b565b9050919050565b6200027a816200025b565b81146200028657600080fd5b50565b6000815190506200029a816200026f565b92915050565b600060208284031215620002b957620002b862000236565b5b6000620002c98482850162000289565b91505092915050565b61465680620002e26000396000f3fe6080604052600436106100fe5760003560e01c80638da5cb5b11610095578063a64ad61f11610064578063a64ad61f146102ed578063be27c3fe1461032a578063bea7d6ac14610355578063d41ab7b514610392578063f2fde38b146103bb576100fe565b80638da5cb5b146102545780638df613251461027f5780639605f505146102a85780639b785daa146102c4576100fe565b80634ab3a732116100d15780634ab3a732146101ae5780635128eeef146101d75780635cdb4ce414610200578063715018a61461023d576100fe565b806319eb4a901461010357806326af483214610131578063397e2f1a1461015a57806346f1715214610183575b600080fd5b34801561010f57600080fd5b506101186103e4565b6040516101289493929190612c4b565b60405180910390f35b34801561013d57600080fd5b5061015860048036038101906101539190612cfc565b610424565b005b34801561016657600080fd5b50610181600480360381019061017c9190613223565b610fb5565b005b34801561018f57600080fd5b50610198611d28565b6040516101a591906132d6565b60405180910390f35b3480156101ba57600080fd5b506101d560048036038101906101d09190612cfc565b611d4e565b005b3480156101e357600080fd5b506101fe60048036038101906101f991906132f1565b612113565b005b34801561020c57600080fd5b5061022760048036038101906102229190612cfc565b612125565b60405161023491906135dc565b60405180910390f35b34801561024957600080fd5b5061025261261a565b005b34801561026057600080fd5b5061026961262e565b60405161027691906132d6565b60405180910390f35b34801561028b57600080fd5b506102a660048036038101906102a191906132f1565b612657565b005b6102c260048036038101906102bd91906135fe565b612669565b005b3480156102d057600080fd5b506102eb60048036038101906102e6919061363e565b6126fa565b005b3480156102f957600080fd5b50610314600480360381019061030f9190612cfc565b612746565b604051610321919061366b565b60405180910390f35b34801561033657600080fd5b5061033f61279b565b60405161034c91906136e5565b60405180910390f35b34801561036157600080fd5b5061037c60048036038101906103779190613700565b6127c1565b604051610389919061366b565b60405180910390f35b34801561039e57600080fd5b506103b960048036038101906103b491906132f1565b612809565b005b3480156103c757600080fd5b506103e260048036038101906103dd919061363e565b61281b565b005b600080600080600660009054906101000a900473ffffffffffffffffffffffffffffffffffffffff16600354600454600554935093509350935090919293565b6000600260009054906101000a900473ffffffffffffffffffffffffffffffffffffffff1673ffffffffffffffffffffffffffffffffffffffff166320e4ab6a866040518263ffffffff1660e01b815260040161048191906132d6565b600060405180830381865afa15801561049e573d6000803e3d6000fd5b505050506040513d6000823e3d601f19601f820116820180604052508101906104c791906137ff565b905060008060005b8351811015610fab573373ffffffffffffffffffffffffffffffffffffffff1684828151811061050257610501613848565b5b602002602001015173ffffffffffffffffffffffffffffffffffffffff1603610f185760008503610afd5760005b600760008a73ffffffffffffffffffffffffffffffffffffffff1673ffffffffffffffffffffffffffffffffffffffff16815260200190815260200160002060008973ffffffffffffffffffffffffffffffffffffffff1673ffffffffffffffffffffffffffffffffffffffff168152602001908152602001600020805490508110156109365760005b600760008b73ffffffffffffffffffffffffffffffffffffffff1673ffffffffffffffffffffffffffffffffffffffff16815260200190815260200160002060008a73ffffffffffffffffffffffffffffffffffffffff1673ffffffffffffffffffffffffffffffffffffffff168152602001908152602001600020828154811061064857610647613848565b5b9060005260206000209060040201600101805490508110156109225785838151811061067757610676613848565b5b602002602001015173ffffffffffffffffffffffffffffffffffffffff16600760008c73ffffffffffffffffffffffffffffffffffffffff1673ffffffffffffffffffffffffffffffffffffffff16815260200190815260200160002060008b73ffffffffffffffffffffffffffffffffffffffff1673ffffffffffffffffffffffffffffffffffffffff168152602001908152602001600020838154811061072357610722613848565b5b9060005260206000209060040201600101828154811061074657610745613848565b5b9060005260206000200160009054906101000a900473ffffffffffffffffffffffffffffffffffffffff1673ffffffffffffffffffffffffffffffffffffffff160361090f57600760008b73ffffffffffffffffffffffffffffffffffffffff1673ffffffffffffffffffffffffffffffffffffffff16815260200190815260200160002060008a73ffffffffffffffffffffffffffffffffffffffff1673ffffffffffffffffffffffffffffffffffffffff168152602001908152602001600020828154811061081a57610819613848565b5b90600052602060002090600402016000015494506001600760008c73ffffffffffffffffffffffffffffffffffffffff1673ffffffffffffffffffffffffffffffffffffffff16815260200190815260200160002060008b73ffffffffffffffffffffffffffffffffffffffff1673ffffffffffffffffffffffffffffffffffffffff16815260200190815260200160002083815481106108be576108bd613848565b5b906000526020600020906004020160030182815481106108e1576108e0613848565b5b90600052602060002090602091828204019190066101000a81548160ff021916908315150217905550610922565b808061091a906138a6565b9150506105ba565b50808061092e906138a6565b915050610530565b50600087905060008173ffffffffffffffffffffffffffffffffffffffff166370a082318b6040518263ffffffff1660e01b815260040161097791906132d6565b602060405180830381865afa158015610994573d6000803e3d6000fd5b505050506040513d601f19601f820116820180604052508101906109b89190613903565b90506000620f424060055487846109cf9190613930565b6109d99190613930565b6109e391906139a1565b905080826109f191906139d2565b94508273ffffffffffffffffffffffffffffffffffffffff166323b872dd8c30846040518463ffffffff1660e01b8152600401610a3093929190613a06565b6020604051808303816000875af1158015610a4f573d6000803e3d6000fd5b505050506040513d601f19601f82011682018060405250810190610a739190613a52565b508273ffffffffffffffffffffffffffffffffffffffff166323b872dd8c33886040518463ffffffff1660e01b8152600401610ab193929190613a06565b6020604051808303816000875af1158015610ad0573d6000803e3d6000fd5b505050506040513d601f19601f82011682018060405250810190610af49190613a52565b50505050610f17565b60018503610f165760008790508073ffffffffffffffffffffffffffffffffffffffff166323b872dd8a338a6040518463ffffffff1660e01b8152600401610b4793929190613a06565b600060405180830381600087803b158015610b6157600080fd5b505af1158015610b75573d6000803e3d6000fd5b5050505060005b600760008b73ffffffffffffffffffffffffffffffffffffffff1673ffffffffffffffffffffffffffffffffffffffff16815260200190815260200160002060008a73ffffffffffffffffffffffffffffffffffffffff1673ffffffffffffffffffffffffffffffffffffffff16815260200190815260200160002080549050811015610f135760005b600860008c73ffffffffffffffffffffffffffffffffffffffff1673ffffffffffffffffffffffffffffffffffffffff16815260200190815260200160002060008b73ffffffffffffffffffffffffffffffffffffffff1673ffffffffffffffffffffffffffffffffffffffff16815260200190815260200160002060008a81526020019081526020016000208281548110610ca557610ca4613848565b5b906000526020600020906004020160010180549050811015610eff57868481518110610cd457610cd3613848565b5b602002602001015173ffffffffffffffffffffffffffffffffffffffff16600860008d73ffffffffffffffffffffffffffffffffffffffff1673ffffffffffffffffffffffffffffffffffffffff16815260200190815260200160002060008c73ffffffffffffffffffffffffffffffffffffffff1673ffffffffffffffffffffffffffffffffffffffff16815260200190815260200160002060008b81526020019081526020016000208381548110610d9157610d90613848565b5b90600052602060002090600402016001018281548110610db457610db3613848565b5b9060005260206000200160009054906101000a900473ffffffffffffffffffffffffffffffffffffffff1673ffffffffffffffffffffffffffffffffffffffff1603610eec576001600860008d73ffffffffffffffffffffffffffffffffffffffff1673ffffffffffffffffffffffffffffffffffffffff16815260200190815260200160002060008c73ffffffffffffffffffffffffffffffffffffffff1673ffffffffffffffffffffffffffffffffffffffff16815260200190815260200160002060008b81526020019081526020016000208381548110610e9b57610e9a613848565b5b90600052602060002090600402016003018281548110610ebe57610ebd613848565b5b90600052602060002090602091828204019190066101000a81548160ff021916908315150217905550610eff565b8080610ef7906138a6565b915050610c06565b508080610f0b906138a6565b915050610b7c565b50505b5b5b8673ffffffffffffffffffffffffffffffffffffffff163373ffffffffffffffffffffffffffffffffffffffff168973ffffffffffffffffffffffffffffffffffffffff167f5ccac6a981ee0d2404d2487672d204c80cc526da4f51e90dd5ae4cfe880a9add89868a604051610f9093929190613a7f565b60405180910390a48080610fa3906138a6565b9150506104cf565b5050505050505050565b6000600260009054906101000a900473ffffffffffffffffffffffffffffffffffffffff1673ffffffffffffffffffffffffffffffffffffffff16630f1f8c05336040518263ffffffff1660e01b815260040161101291906132d6565b602060405180830381865afa15801561102f573d6000803e3d6000fd5b505050506040513d601f19601f820116820180604052508101906110539190613a52565b90506000600260009054906101000a900473ffffffffffffffffffffffffffffffffffffffff1673ffffffffffffffffffffffffffffffffffffffff166315b79630336040518263ffffffff1660e01b81526004016110b291906132d6565b602060405180830381865afa1580156110cf573d6000803e3d6000fd5b505050506040513d601f19601f820116820180604052508101906110f39190613a52565b905081611135576040517f08c379a000000000000000000000000000000000000000000000000000000000815260040161112c90613b39565b60405180910390fd5b80611175576040517f08c379a000000000000000000000000000000000000000000000000000000000815260040161116c90613bf1565b60405180910390fd5b6000600260009054906101000a900473ffffffffffffffffffffffffffffffffffffffff1673ffffffffffffffffffffffffffffffffffffffff166320e4ab6a336040518263ffffffff1660e01b81526004016111d291906132d6565b600060405180830381865afa1580156111ef573d6000803e3d6000fd5b505050506040513d6000823e3d601f19601f8201168201806040525081019061121891906137ff565b9050600080600090505b85518110156113755760005b86828151811061124157611240613848565b5b60200260200101516020015151811015611361576000925060005b84518110156113065784818151811061127857611277613848565b5b602002602001015173ffffffffffffffffffffffffffffffffffffffff168884815181106112a9576112a8613848565b5b60200260200101516020015183815181106112c7576112c6613848565b5b602002602001015173ffffffffffffffffffffffffffffffffffffffff16036112f35760019350611306565b80806112fe906138a6565b91505061125c565b50600015158315150361134e576040517f08c379a000000000000000000000000000000000000000000000000000000000815260040161134590613ca9565b60405180910390fd5b8080611359906138a6565b91505061122e565b50808061136d906138a6565b915050611222565b506000600260009054906101000a900473ffffffffffffffffffffffffffffffffffffffff1673ffffffffffffffffffffffffffffffffffffffff1663de508c5b338c6040518363ffffffff1660e01b81526004016113d5929190613cc9565b600060405180830381865afa1580156113f2573d6000803e3d6000fd5b505050506040513d6000823e3d601f19601f8201168201806040525081019061141b9190613d8c565b909192939450909192935090919250909150905080915050600080600090505b87518110156114835787818151811061145757611456613848565b5b6020026020010151600001518261146e9190613e35565b9150808061147b906138a6565b91505061143b565b5060648111156114c8576040517f08c379a00000000000000000000000000000000000000000000000000000000081526004016114bf90613f01565b60405180910390fd5b8161156957600260009054906101000a900473ffffffffffffffffffffffffffffffffffffffff1673ffffffffffffffffffffffffffffffffffffffff166325cb763a338d8d8d868e6040518763ffffffff1660e01b815260040161153296959493929190613f65565b600060405180830381600087803b15801561154c57600080fd5b505af1158015611560573d6000803e3d6000fd5b5050505061198f565b6000600660009054906101000a900473ffffffffffffffffffffffffffffffffffffffff16905060008a03611768576003548173ffffffffffffffffffffffffffffffffffffffff1663dd62ed3e33306040518363ffffffff1660e01b81526004016115d6929190613cc9565b602060405180830381865afa1580156115f3573d6000803e3d6000fd5b505050506040513d601f19601f820116820180604052508101906116179190613903565b1015611658576040517f08c379a000000000000000000000000000000000000000000000000000000000815260040161164f9061403f565b60405180910390fd5b8073ffffffffffffffffffffffffffffffffffffffff166323b872dd33306003546040518463ffffffff1660e01b815260040161169793929190613a06565b6020604051808303816000875af11580156116b6573d6000803e3d6000fd5b505050506040513d601f19601f820116820180604052508101906116da9190613a52565b50600760003373ffffffffffffffffffffffffffffffffffffffff1673ffffffffffffffffffffffffffffffffffffffff16815260200190815260200160002060008d73ffffffffffffffffffffffffffffffffffffffff1673ffffffffffffffffffffffffffffffffffffffff168152602001908152602001600020600061176391906129e8565b61198d565b60018a03611951576004548173ffffffffffffffffffffffffffffffffffffffff1663dd62ed3e33306040518363ffffffff1660e01b81526004016117ae929190613cc9565b602060405180830381865afa1580156117cb573d6000803e3d6000fd5b505050506040513d601f19601f820116820180604052508101906117ef9190613903565b1015611830576040517f08c379a00000000000000000000000000000000000000000000000000000000081526004016118279061403f565b60405180910390fd5b8073ffffffffffffffffffffffffffffffffffffffff166323b872dd33306004546040518463ffffffff1660e01b815260040161186f93929190613a06565b6020604051808303816000875af115801561188e573d6000803e3d6000fd5b505050506040513d601f19601f820116820180604052508101906118b29190613a52565b50600860003373ffffffffffffffffffffffffffffffffffffffff1673ffffffffffffffffffffffffffffffffffffffff16815260200190815260200160002060008d73ffffffffffffffffffffffffffffffffffffffff1673ffffffffffffffffffffffffffffffffffffffff16815260200190815260200160002060008a8152602001908152602001600020600061194c91906129e8565b61198c565b6040517f08c379a0000000000000000000000000000000000000000000000000000000008152600401611983906140d1565b60405180910390fd5b5b505b600260009054906101000a900473ffffffffffffffffffffffffffffffffffffffff1673ffffffffffffffffffffffffffffffffffffffff1663b69bd77f338d8b858e6040518663ffffffff1660e01b81526004016119f29594939291906140f1565b600060405180830381600087803b158015611a0c57600080fd5b505af1158015611a20573d6000803e3d6000fd5b5050505060008903611b745760005b8751811015611b6e57600760003373ffffffffffffffffffffffffffffffffffffffff1673ffffffffffffffffffffffffffffffffffffffff16815260200190815260200160002060008d73ffffffffffffffffffffffffffffffffffffffff1673ffffffffffffffffffffffffffffffffffffffff168152602001908152602001600020888281518110611ac757611ac6613848565b5b60200260200101519080600181540180825580915050600190039060005260206000209060040201600090919091909150600082015181600001556020820151816001019080519060200190611b1e929190612a0c565b506040820151816002019080519060200190611b3b929190612a96565b506060820151816003019080519060200190611b58929190612a96565b5050508080611b66906138a6565b915050611a2f565b50611cc9565b60005b8751811015611cc757600860003373ffffffffffffffffffffffffffffffffffffffff1673ffffffffffffffffffffffffffffffffffffffff16815260200190815260200160002060008d73ffffffffffffffffffffffffffffffffffffffff1673ffffffffffffffffffffffffffffffffffffffff16815260200190815260200160002060008a8152602001908152602001600020888281518110611c2057611c1f613848565b5b60200260200101519080600181540180825580915050600190039060005260206000209060040201600090919091909150600082015181600001556020820151816001019080519060200190611c77929190612a0c565b506040820151816002019080519060200190611c94929190612a96565b506060820151816003019080519060200190611cb1929190612a96565b5050508080611cbf906138a6565b915050611b77565b505b3373ffffffffffffffffffffffffffffffffffffffff167f356b94cb07d152dfb4f8876f9a6f4c7007027dd30aecb0ac9b698849e14e0e718c8a8c604051611d1393929190614144565b60405180910390a25050505050505050505050565b600160009054906101000a900473ffffffffffffffffffffffffffffffffffffffff1681565b3373ffffffffffffffffffffffffffffffffffffffff16600260009054906101000a900473ffffffffffffffffffffffffffffffffffffffff1673ffffffffffffffffffffffffffffffffffffffff1663c3bb8121866040518263ffffffff1660e01b8152600401611dc091906132d6565b600060405180830381865afa158015611ddd573d6000803e3d6000fd5b505050506040513d6000823e3d601f19601f82011682018060405250810190611e06919061441e565b60e0015173ffffffffffffffffffffffffffffffffffffffff1614611e60576040517f08c379a0000000000000000000000000000000000000000000000000000000008152600401611e57906144d9565b60405180910390fd5b60008082036120235760008490508073ffffffffffffffffffffffffffffffffffffffff166370a08231876040518263ffffffff1660e01b8152600401611ea791906132d6565b602060405180830381865afa158015611ec4573d6000803e3d6000fd5b505050506040513d601f19601f82011682018060405250810190611ee89190613903565b9150600061271060055484611efd9190613930565b611f0791906139a1565b905060008184611f1791906139d2565b90508273ffffffffffffffffffffffffffffffffffffffff166323b872dd8930856040518463ffffffff1660e01b8152600401611f5693929190613a06565b6020604051808303816000875af1158015611f75573d6000803e3d6000fd5b505050506040513d601f19601f82011682018060405250810190611f999190613a52565b508273ffffffffffffffffffffffffffffffffffffffff166323b872dd8933846040518463ffffffff1660e01b8152600401611fd793929190613a06565b6020604051808303816000875af1158015611ff6573d6000803e3d6000fd5b505050506040513d601f19601f8201168201806040525081019061201a9190613a52565b505050506120a3565b60008311156120a25760008490508073ffffffffffffffffffffffffffffffffffffffff166323b872dd8733876040518463ffffffff1660e01b815260040161206e93929190613a06565b600060405180830381600087803b15801561208857600080fd5b505af115801561209c573d6000803e3d6000fd5b50505050505b5b8373ffffffffffffffffffffffffffffffffffffffff168573ffffffffffffffffffffffffffffffffffffffff167faa3446f866f557932f6c5a4933379c0e3e3fd6dcc0a20cfae5222255ffd16bdd85848660405161210493929190613a7f565b60405180910390a35050505050565b61211b61289e565b8060038190555050565b60606000820361239a57600760008673ffffffffffffffffffffffffffffffffffffffff1673ffffffffffffffffffffffffffffffffffffffff16815260200190815260200160002060008573ffffffffffffffffffffffffffffffffffffffff1673ffffffffffffffffffffffffffffffffffffffff168152602001908152602001600020805480602002602001604051908101604052809291908181526020016000905b8282101561238f5783829060005260206000209060040201604051806080016040529081600082015481526020016001820180548060200260200160405190810160405280929190818152602001828054801561227d57602002820191906000526020600020905b8160009054906101000a900473ffffffffffffffffffffffffffffffffffffffff1673ffffffffffffffffffffffffffffffffffffffff1681526020019060010190808311612233575b50505050508152602001600282018054806020026020016040519081016040528092919081815260200182805480156122fa57602002820191906000526020600020906000905b82829054906101000a900460ff161515815260200190600101906020826000010492830192600103820291508084116122c45790505b505050505081526020016003820180548060200260200160405190810160405280929190818152602001828054801561237757602002820191906000526020600020906000905b82829054906101000a900460ff161515815260200190600101906020826000010492830192600103820291508084116123415790505b505050505081525050815260200190600101906121cb565b505050509050612612565b600860008673ffffffffffffffffffffffffffffffffffffffff1673ffffffffffffffffffffffffffffffffffffffff16815260200190815260200160002060008573ffffffffffffffffffffffffffffffffffffffff1673ffffffffffffffffffffffffffffffffffffffff1681526020019081526020016000206000848152602001908152602001600020805480602002602001604051908101604052809291908181526020016000905b8282101561260b578382906000526020600020906004020160405180608001604052908160008201548152602001600182018054806020026020016040519081016040528092919081815260200182805480156124f957602002820191906000526020600020905b8160009054906101000a900473ffffffffffffffffffffffffffffffffffffffff1673ffffffffffffffffffffffffffffffffffffffff16815260200190600101908083116124af575b505050505081526020016002820180548060200260200160405190810160405280929190818152602001828054801561257657602002820191906000526020600020906000905b82829054906101000a900460ff161515815260200190600101906020826000010492830192600103820291508084116125405790505b50505050508152602001600382018054806020026020016040519081016040528092919081815260200182805480156125f357602002820191906000526020600020906000905b82829054906101000a900460ff161515815260200190600101906020826000010492830192600103820291508084116125bd5790505b50505050508152505081526020019060010190612447565b5050505090505b949350505050565b61262261289e565b61262c600061291c565b565b60008060009054906101000a900473ffffffffffffffffffffffffffffffffffffffff16905090565b61265f61289e565b8060048190555050565b61267161289e565b60008190508073ffffffffffffffffffffffffffffffffffffffff1663a9059cbb33856040518363ffffffff1660e01b81526004016126b19291906144f9565b6020604051808303816000875af11580156126d0573d6000803e3d6000fd5b505050506040513d601f19601f820116820180604052508101906126f49190613a52565b50505050565b61270261289e565b80600660006101000a81548173ffffffffffffffffffffffffffffffffffffffff021916908373ffffffffffffffffffffffffffffffffffffffff16021790555050565b6008602052836000526040600020602052826000526040600020602052816000526040600020818154811061277a57600080fd5b90600052602060002090600402016000935093505050508060000154905081565b600260009054906101000a900473ffffffffffffffffffffffffffffffffffffffff1681565b600760205282600052604060002060205281600052604060002081815481106127e957600080fd5b906000526020600020906004020160009250925050508060000154905081565b61281161289e565b8060058190555050565b61282361289e565b600073ffffffffffffffffffffffffffffffffffffffff168173ffffffffffffffffffffffffffffffffffffffff1603612892576040517f08c379a000000000000000000000000000000000000000000000000000000000815260040161288990614594565b60405180910390fd5b61289b8161291c565b50565b6128a66129e0565b73ffffffffffffffffffffffffffffffffffffffff166128c461262e565b73ffffffffffffffffffffffffffffffffffffffff161461291a576040517f08c379a000000000000000000000000000000000000000000000000000000000815260040161291190614600565b60405180910390fd5b565b60008060009054906101000a900473ffffffffffffffffffffffffffffffffffffffff169050816000806101000a81548173ffffffffffffffffffffffffffffffffffffffff021916908373ffffffffffffffffffffffffffffffffffffffff1602179055508173ffffffffffffffffffffffffffffffffffffffff168173ffffffffffffffffffffffffffffffffffffffff167f8be0079c531659141344cd1fd0a4f28419497f9722a3daafe3b4186f6b6457e060405160405180910390a35050565b600033905090565b5080546000825560040290600052602060002090810190612a099190612b3c565b50565b828054828255906000526020600020908101928215612a85579160200282015b82811115612a845782518260006101000a81548173ffffffffffffffffffffffffffffffffffffffff021916908373ffffffffffffffffffffffffffffffffffffffff16021790555091602001919060010190612a2c565b5b509050612a929190612b8b565b5090565b82805482825590600052602060002090601f01602090048101928215612b2b5791602002820160005b83821115612afc57835183826101000a81548160ff0219169083151502179055509260200192600101602081600001049283019260010302612abf565b8015612b295782816101000a81549060ff0219169055600101602081600001049283019260010302612afc565b505b509050612b389190612b8b565b5090565b5b80821115612b8757600080820160009055600182016000612b5e9190612ba8565b600282016000612b6e9190612bc9565b600382016000612b7e9190612bc9565b50600401612b3d565b5090565b5b80821115612ba4576000816000905550600101612b8c565b5090565b5080546000825590600052602060002090810190612bc69190612b8b565b50565b50805460008255601f016020900490600052602060002090810190612bee9190612b8b565b50565b600073ffffffffffffffffffffffffffffffffffffffff82169050919050565b6000612c1c82612bf1565b9050919050565b612c2c81612c11565b82525050565b6000819050919050565b612c4581612c32565b82525050565b6000608082019050612c606000830187612c23565b612c6d6020830186612c3c565b612c7a6040830185612c3c565b612c876060830184612c3c565b95945050505050565b6000604051905090565b600080fd5b600080fd5b612cad81612c11565b8114612cb857600080fd5b50565b600081359050612cca81612ca4565b92915050565b612cd981612c32565b8114612ce457600080fd5b50565b600081359050612cf681612cd0565b92915050565b60008060008060808587031215612d1657612d15612c9a565b5b6000612d2487828801612cbb565b9450506020612d3587828801612cbb565b9350506040612d4687828801612ce7565b9250506060612d5787828801612ce7565b91505092959194509250565b600080fd5b600080fd5b6000601f19601f8301169050919050565b7f4e487b7100000000000000000000000000000000000000000000000000000000600052604160045260246000fd5b612db682612d6d565b810181811067ffffffffffffffff82111715612dd557612dd4612d7e565b5b80604052505050565b6000612de8612c90565b9050612df48282612dad565b919050565b600067ffffffffffffffff821115612e1457612e13612d7e565b5b612e1d82612d6d565b9050602081019050919050565b82818337600083830152505050565b6000612e4c612e4784612df9565b612dde565b905082815260208101848484011115612e6857612e67612d68565b5b612e73848285612e2a565b509392505050565b600082601f830112612e9057612e8f612d63565b5b8135612ea0848260208601612e39565b91505092915050565b600067ffffffffffffffff821115612ec457612ec3612d7e565b5b602082029050602081019050919050565b600080fd5b600080fd5b600080fd5b600067ffffffffffffffff821115612eff57612efe612d7e565b5b602082029050602081019050919050565b6000612f23612f1e84612ee4565b612dde565b90508083825260208201905060208402830185811115612f4657612f45612ed5565b5b835b81811015612f6f5780612f5b8882612cbb565b845260208401935050602081019050612f48565b5050509392505050565b600082601f830112612f8e57612f8d612d63565b5b8135612f9e848260208601612f10565b91505092915050565b600067ffffffffffffffff821115612fc257612fc1612d7e565b5b602082029050602081019050919050565b60008115159050919050565b612fe881612fd3565b8114612ff357600080fd5b50565b60008135905061300581612fdf565b92915050565b600061301e61301984612fa7565b612dde565b9050808382526020820190506020840283018581111561304157613040612ed5565b5b835b8181101561306a57806130568882612ff6565b845260208401935050602081019050613043565b5050509392505050565b600082601f83011261308957613088612d63565b5b813561309984826020860161300b565b91505092915050565b6000608082840312156130b8576130b7612eda565b5b6130c26080612dde565b905060006130d284828501612ce7565b600083015250602082013567ffffffffffffffff8111156130f6576130f5612edf565b5b61310284828501612f79565b602083015250604082013567ffffffffffffffff81111561312657613125612edf565b5b61313284828501613074565b604083015250606082013567ffffffffffffffff81111561315657613155612edf565b5b61316284828501613074565b60608301525092915050565b600061318161317c84612ea9565b612dde565b905080838252602082019050602084028301858111156131a4576131a3612ed5565b5b835b818110156131eb57803567ffffffffffffffff8111156131c9576131c8612d63565b5b8086016131d689826130a2565b855260208501945050506020810190506131a6565b5050509392505050565b600082601f83011261320a57613209612d63565b5b813561321a84826020860161316e565b91505092915050565b600080600080600060a0868803121561323f5761323e612c9a565b5b600061324d88828901612cbb565b955050602086013567ffffffffffffffff81111561326e5761326d612c9f565b5b61327a88828901612e7b565b945050604061328b88828901612ce7565b935050606061329c88828901612ce7565b925050608086013567ffffffffffffffff8111156132bd576132bc612c9f565b5b6132c9888289016131f5565b9150509295509295909350565b60006020820190506132eb6000830184612c23565b92915050565b60006020828403121561330757613306612c9a565b5b600061331584828501612ce7565b91505092915050565b600081519050919050565b600082825260208201905092915050565b6000819050602082019050919050565b61335381612c32565b82525050565b600081519050919050565b600082825260208201905092915050565b6000819050602082019050919050565b61338e81612c11565b82525050565b60006133a08383613385565b60208301905092915050565b6000602082019050919050565b60006133c482613359565b6133ce8185613364565b93506133d983613375565b8060005b8381101561340a5781516133f18882613394565b97506133fc836133ac565b9250506001810190506133dd565b5085935050505092915050565b600081519050919050565b600082825260208201905092915050565b6000819050602082019050919050565b61344c81612fd3565b82525050565b600061345e8383613443565b60208301905092915050565b6000602082019050919050565b600061348282613417565b61348c8185613422565b935061349783613433565b8060005b838110156134c85781516134af8882613452565b97506134ba8361346a565b92505060018101905061349b565b5085935050505092915050565b60006080830160008301516134ed600086018261334a565b506020830151848203602086015261350582826133b9565b9150506040830151848203604086015261351f8282613477565b915050606083015184820360608601526135398282613477565b9150508091505092915050565b600061355283836134d5565b905092915050565b6000602082019050919050565b60006135728261331e565b61357c8185613329565b93508360208202850161358e8561333a565b8060005b858110156135ca57848403895281516135ab8582613546565b94506135b68361355a565b925060208a01995050600181019050613592565b50829750879550505050505092915050565b600060208201905081810360008301526135f68184613567565b905092915050565b6000806040838503121561361557613614612c9a565b5b600061362385828601612ce7565b925050602061363485828601612cbb565b9150509250929050565b60006020828403121561365457613653612c9a565b5b600061366284828501612cbb565b91505092915050565b60006020820190506136806000830184612c3c565b92915050565b6000819050919050565b60006136ab6136a66136a184612bf1565b613686565b612bf1565b9050919050565b60006136bd82613690565b9050919050565b60006136cf826136b2565b9050919050565b6136df816136c4565b82525050565b60006020820190506136fa60008301846136d6565b92915050565b60008060006060848603121561371957613718612c9a565b5b600061372786828701612cbb565b935050602061373886828701612cbb565b925050604061374986828701612ce7565b9150509250925092565b60008151905061376281612ca4565b92915050565b600061377b61377684612ee4565b612dde565b9050808382526020820190506020840283018581111561379e5761379d612ed5565b5b835b818110156137c757806137b38882613753565b8452602084019350506020810190506137a0565b5050509392505050565b600082601f8301126137e6576137e5612d63565b5b81516137f6848260208601613768565b91505092915050565b60006020828403121561381557613814612c9a565b5b600082015167ffffffffffffffff81111561383357613832612c9f565b5b61383f848285016137d1565b91505092915050565b7f4e487b7100000000000000000000000000000000000000000000000000000000600052603260045260246000fd5b7f4e487b7100000000000000000000000000000000000000000000000000000000600052601160045260246000fd5b60006138b182612c32565b91507fffffffffffffffffffffffffffffffffffffffffffffffffffffffffffffffff82036138e3576138e2613877565b5b600182019050919050565b6000815190506138fd81612cd0565b92915050565b60006020828403121561391957613918612c9a565b5b6000613927848285016138ee565b91505092915050565b600061393b82612c32565b915061394683612c32565b925082820261395481612c32565b9150828204841483151761396b5761396a613877565b5b5092915050565b7f4e487b7100000000000000000000000000000000000000000000000000000000600052601260045260246000fd5b60006139ac82612c32565b91506139b783612c32565b9250826139c7576139c6613972565b5b828204905092915050565b60006139dd82612c32565b91506139e883612c32565b9250828203905081811115613a00576139ff613877565b5b92915050565b6000606082019050613a1b6000830186612c23565b613a286020830185612c23565b613a356040830184612c3c565b949350505050565b600081519050613a4c81612fdf565b92915050565b600060208284031215613a6857613a67612c9a565b5b6000613a7684828501613a3d565b91505092915050565b6000606082019050613a946000830186612c3c565b613aa16020830185612c3c565b613aae6040830184612c3c565b949350505050565b600082825260208201905092915050565b7f596f75206d757374206669727374207369676e20757020666f7220616e20616360008201527f636f756e742e0000000000000000000000000000000000000000000000000000602082015250565b6000613b23602683613ab6565b9150613b2e82613ac7565b604082019050919050565b60006020820190508181036000830152613b5281613b16565b9050919050565b7f596f757220656d61696c20686173206e6f7420796574206265656e2076616c6960008201527f64617465642e2056657269667920796f7572207265676973746572656420656d60208201527f61696c20616464726573732066697273742e0000000000000000000000000000604082015250565b6000613bdb605283613ab6565b9150613be682613b59565b606082019050919050565b60006020820190508181036000830152613c0a81613bce565b9050919050565b7f436865636b207468617420616c6c20746865206e6f6d696e65657320796f752060008201527f617265206e6f6d696e6174696e6720617265206164646564206173206e6f6d6960208201527f6e6565732e000000000000000000000000000000000000000000000000000000604082015250565b6000613c93604583613ab6565b9150613c9e82613c11565b606082019050919050565b60006020820190508181036000830152613cc281613c86565b9050919050565b6000604082019050613cde6000830185612c23565b613ceb6020830184612c23565b9392505050565b60005b83811015613d10578082015181840152602081019050613cf5565b60008484015250505050565b6000613d2f613d2a84612df9565b612dde565b905082815260208101848484011115613d4b57613d4a612d68565b5b613d56848285613cf2565b509392505050565b600082601f830112613d7357613d72612d63565b5b8151613d83848260208601613d1c565b91505092915050565b60008060008060008060c08789031215613da957613da8612c9a565b5b6000613db789828a01613753565b965050602087015167ffffffffffffffff811115613dd857613dd7612c9f565b5b613de489828a01613d5e565b9550506040613df589828a016138ee565b9450506060613e0689828a016138ee565b9350506080613e1789828a016138ee565b92505060a0613e2889828a01613a3d565b9150509295509295509295565b6000613e4082612c32565b9150613e4b83612c32565b9250828201905080821115613e6357613e62613877565b5b92915050565b7f4f6f70732120596f752063616e206f6e6c7920616c6c6f63617465206120313060008201527f30252073686172652e2054727920746f2072656475636520746865207368617260208201527f6520616d6f756e742e0000000000000000000000000000000000000000000000604082015250565b6000613eeb604983613ab6565b9150613ef682613e69565b606082019050919050565b60006020820190508181036000830152613f1a81613ede565b9050919050565b600081519050919050565b6000613f3782613f21565b613f418185613ab6565b9350613f51818560208601613cf2565b613f5a81612d6d565b840191505092915050565b600060c082019050613f7a6000830189612c23565b613f876020830188612c23565b8181036040830152613f998187613f2c565b9050613fa86060830186612c3c565b613fb56080830185612c3c565b613fc260a0830184612c3c565b979650505050505050565b7f54686520616c6c6f77616e636520746f2074686520636f6e747261637420697360008201527f206e6f7420656e6f756768210000000000000000000000000000000000000000602082015250565b6000614029602c83613ab6565b915061403482613fcd565b604082019050919050565b600060208201905081810360008301526140588161401c565b9050919050565b7f5468652063617465676f72792076616c7565206d757374206265203020666f7260008201527f20746f6b656e7320616e64203120666f72204e46542e00000000000000000000602082015250565b60006140bb603683613ab6565b91506140c68261405f565b604082019050919050565b600060208201905081810360008301526140ea816140ae565b9050919050565b600060a0820190506141066000830188612c23565b6141136020830187612c23565b6141206040830186612c3c565b61412d6060830185612c3c565b61413a6080830184612c3c565b9695505050505050565b60006060820190506141596000830186612c23565b6141666020830185612c3c565b6141736040830184612c3c565b949350505050565b600067ffffffffffffffff82111561419657614195612d7e565b5b602082029050602081019050919050565b60006141ba6141b58461417b565b612dde565b905080838252602082019050602084028301858111156141dd576141dc612ed5565b5b835b8181101561420657806141f288826138ee565b8452602084019350506020810190506141df565b5050509392505050565b600082601f83011261422557614224612d63565b5b81516142358482602086016141a7565b91505092915050565b60006101a0828403121561425557614254612eda565b5b6142606101a0612dde565b9050600082015167ffffffffffffffff8111156142805761427f612edf565b5b61428c84828501613d5e565b600083015250602082015167ffffffffffffffff8111156142b0576142af612edf565b5b6142bc84828501613d5e565b602083015250604082015167ffffffffffffffff8111156142e0576142df612edf565b5b6142ec84828501613d5e565b604083015250606082015167ffffffffffffffff8111156143105761430f612edf565b5b61431c84828501613d5e565b606083015250608061433084828501613a3d565b60808301525060a061434484828501613a3d565b60a08301525060c061435884828501613a3d565b60c08301525060e061436c84828501613753565b60e08301525061010082015167ffffffffffffffff81111561439157614390612edf565b5b61439d848285016137d1565b6101008301525061012082015167ffffffffffffffff8111156143c3576143c2612edf565b5b6143cf84828501614210565b610120830152506101406143e5848285016138ee565b610140830152506101606143fb848285016138ee565b61016083015250610180614411848285016138ee565b6101808301525092915050565b60006020828403121561443457614433612c9a565b5b600082015167ffffffffffffffff81111561445257614451612c9f565b5b61445e8482850161423e565b91505092915050565b7f546865207265636f766572792061646472657373206f72206f776e657220616460008201527f647265737320697320696e636f72726563742100000000000000000000000000602082015250565b60006144c3603383613ab6565b91506144ce82614467565b604082019050919050565b600060208201905081810360008301526144f2816144b6565b9050919050565b600060408201905061450e6000830185612c23565b61451b6020830184612c3c565b9392505050565b7f4f776e61626c653a206e6577206f776e657220697320746865207a65726f206160008201527f6464726573730000000000000000000000000000000000000000000000000000602082015250565b600061457e602683613ab6565b915061458982614522565b604082019050919050565b600060208201905081810360008301526145ad81614571565b9050919050565b7f4f776e61626c653a2063616c6c6572206973206e6f7420746865206f776e6572600082015250565b60006145ea602083613ab6565b91506145f5826145b4565b602082019050919050565b60006020820190508181036000830152614619816145dd565b905091905056fea264697066735822122074301bd063c9981d680be0f931ab74826ef55ad5feb59235b0ab7c86582995e564736f6c63430008110033",
  "linkReferences": {},
  "deployedLinkReferences": {}
}