{
  "_format": "hh-sol-artifact-1",
  "contractName": "MultiplePriorityNominee",
  "sourceName": "contracts/MultiplePriorityNominee.sol",
  "abi": [
    {
      "inputs": [
        {
          "internalType": "address",
          "name": "_inheritokensAddress",
          "type": "address"
        }
      ],
      "stateMutability": "nonpayable",
      "type": "constructor"
    },
    {
      "anonymous": false,
      "inputs": [
        {
          "indexed": true,
          "internalType": "address",
          "name": "_owner",
          "type": "address"
        },
        {
          "indexed": true,
          "internalType": "address",
          "name": "_nominee",
          "type": "address"
        },
        {
          "indexed": true,
          "internalType": "address",
          "name": "_tokenAddress",
          "type": "address"
        },
        {
          "indexed": false,
          "internalType": "uint256",
          "name": "_tokenId",
          "type": "uint256"
        },
        {
          "indexed": false,
          "internalType": "uint256",
          "name": "_amount",
          "type": "uint256"
        },
        {
          "indexed": false,
          "internalType": "uint256",
          "name": "_category",
          "type": "uint256"
        }
      ],
      "name": "Claimed",
      "type": "event"
    },
    {
      "anonymous": false,
      "inputs": [
        {
          "indexed": true,
          "internalType": "address",
          "name": "previousOwner",
          "type": "address"
        },
        {
          "indexed": true,
          "internalType": "address",
          "name": "newOwner",
          "type": "address"
        }
      ],
      "name": "OwnershipTransferred",
      "type": "event"
    },
    {
      "anonymous": false,
      "inputs": [
        {
          "indexed": true,
          "internalType": "address",
          "name": "_owner",
          "type": "address"
        },
        {
          "indexed": true,
          "internalType": "address",
          "name": "_tokenAddress",
          "type": "address"
        },
        {
          "indexed": false,
          "internalType": "uint256",
          "name": "_tokenId",
          "type": "uint256"
        },
        {
          "indexed": false,
          "internalType": "uint256",
          "name": "_amount",
          "type": "uint256"
        },
        {
          "indexed": false,
          "internalType": "uint256",
          "name": "_category",
          "type": "uint256"
        }
      ],
      "name": "Recovered",
      "type": "event"
    },
    {
      "anonymous": false,
      "inputs": [
        {
          "indexed": true,
          "internalType": "address",
          "name": "_owner",
          "type": "address"
        },
        {
          "indexed": false,
          "internalType": "address",
          "name": "_tokenAddress",
          "type": "address"
        },
        {
          "indexed": false,
          "internalType": "uint256",
          "name": "_tokenId",
          "type": "uint256"
        },
        {
          "indexed": false,
          "internalType": "uint256",
          "name": "_category",
          "type": "uint256"
        }
      ],
      "name": "TokensAssigned",
      "type": "event"
    },
    {
      "inputs": [
        {
          "internalType": "address",
          "name": "_tokenAddress",
          "type": "address"
        },
        {
          "internalType": "string",
          "name": "_tokenName",
          "type": "string"
        },
        {
          "internalType": "uint256",
          "name": "_category",
          "type": "uint256"
        },
        {
          "internalType": "uint256",
          "name": "_tokenId",
          "type": "uint256"
        },
        {
          "components": [
            {
              "internalType": "uint256",
              "name": "share",
              "type": "uint256"
            },
            {
              "internalType": "address[]",
              "name": "nominee",
              "type": "address[]"
            },
            {
              "internalType": "bool[]",
              "name": "isNotAvailable",
              "type": "bool[]"
            },
            {
              "internalType": "bool[]",
              "name": "isClaimed",
              "type": "bool[]"
            }
          ],
          "internalType": "struct MultiplePriorityNominee.MultiplePriority[]",
          "name": "data",
          "type": "tuple[]"
        }
      ],
      "name": "assignTokensToMultipleNominees",
      "outputs": [],
      "stateMutability": "nonpayable",
      "type": "function"
    },
    {
      "inputs": [
        {
          "internalType": "address",
          "name": "_tokenAddress",
          "type": "address"
        }
      ],
      "name": "changeChargeTokenAddress",
      "outputs": [],
      "stateMutability": "nonpayable",
      "type": "function"
    },
    {
      "inputs": [
        {
          "internalType": "uint256",
          "name": "_charge",
          "type": "uint256"
        }
      ],
      "name": "changeNFTCharge",
      "outputs": [],
      "stateMutability": "nonpayable",
      "type": "function"
    },
    {
      "inputs": [
        {
          "internalType": "uint256",
          "name": "_amount",
          "type": "uint256"
        }
      ],
      "name": "changePercentage",
      "outputs": [],
      "stateMutability": "nonpayable",
      "type": "function"
    },
    {
      "inputs": [
        {
          "internalType": "uint256",
          "name": "_charge",
          "type": "uint256"
        }
      ],
      "name": "changeTokenCharge",
      "outputs": [],
      "stateMutability": "nonpayable",
      "type": "function"
    },
    {
      "inputs": [],
      "name": "chargeTokenAddress",
      "outputs": [
        {
          "internalType": "address",
          "name": "",
          "type": "address"
        }
      ],
      "stateMutability": "view",
      "type": "function"
    },
    {
      "inputs": [
        {
          "internalType": "address",
          "name": "_owner",
          "type": "address"
        },
        {
          "internalType": "address",
          "name": "_tokenAddress",
          "type": "address"
        },
        {
          "internalType": "uint256",
          "name": "_tokenId",
          "type": "uint256"
        },
        {
          "internalType": "uint256",
          "name": "_category",
          "type": "uint256"
        }
      ],
      "name": "claim",
      "outputs": [],
      "stateMutability": "nonpayable",
      "type": "function"
    },
    {
      "inputs": [
        {
          "internalType": "address",
          "name": "_owner",
          "type": "address"
        },
        {
          "internalType": "address",
          "name": "_tokenAddress",
          "type": "address"
        },
        {
          "internalType": "uint256",
          "name": "_tokenId",
          "type": "uint256"
        },
        {
          "internalType": "uint256",
          "name": "_category",
          "type": "uint256"
        }
      ],
      "name": "getAllStructs",
      "outputs": [
        {
          "components": [
            {
              "internalType": "uint256",
              "name": "share",
              "type": "uint256"
            },
            {
              "internalType": "address[]",
              "name": "nominee",
              "type": "address[]"
            },
            {
              "internalType": "bool[]",
              "name": "isNotAvailable",
              "type": "bool[]"
            },
            {
              "internalType": "bool[]",
              "name": "isClaimed",
              "type": "bool[]"
            }
          ],
          "internalType": "struct MultiplePriorityNominee.MultiplePriority[]",
          "name": "",
          "type": "tuple[]"
        }
      ],
      "stateMutability": "view",
      "type": "function"
    },
    {
      "inputs": [],
      "name": "getValues",
      "outputs": [
        {
          "internalType": "address",
          "name": "",
          "type": "address"
        },
        {
          "internalType": "uint256",
          "name": "",
          "type": "uint256"
        },
        {
          "internalType": "uint256",
          "name": "",
          "type": "uint256"
        },
        {
          "internalType": "uint256",
          "name": "",
          "type": "uint256"
        }
      ],
      "stateMutability": "view",
      "type": "function"
    },
    {
      "inputs": [],
      "name": "inheritokens",
      "outputs": [
        {
          "internalType": "contract Inheritokens",
          "name": "",
          "type": "address"
        }
      ],
      "stateMutability": "view",
      "type": "function"
    },
    {
      "inputs": [],
      "name": "inheritokensAddress",
      "outputs": [
        {
          "internalType": "address",
          "name": "",
          "type": "address"
        }
      ],
      "stateMutability": "view",
      "type": "function"
    },
    {
      "inputs": [],
      "name": "nftCharge",
      "outputs": [
        {
          "internalType": "uint256",
          "name": "",
          "type": "uint256"
        }
      ],
      "stateMutability": "view",
      "type": "function"
    },
    {
      "inputs": [],
      "name": "owner",
      "outputs": [
        {
          "internalType": "address",
          "name": "",
          "type": "address"
        }
      ],
      "stateMutability": "view",
      "type": "function"
    },
    {
      "inputs": [
        {
          "internalType": "address",
          "name": "",
          "type": "address"
        },
        {
          "internalType": "address",
          "name": "",
          "type": "address"
        },
        {
          "internalType": "uint256",
          "name": "",
          "type": "uint256"
        },
        {
          "internalType": "uint256",
          "name": "",
          "type": "uint256"
        }
      ],
      "name": "ownerToNFTToStruct",
      "outputs": [
        {
          "internalType": "uint256",
          "name": "share",
          "type": "uint256"
        }
      ],
      "stateMutability": "view",
      "type": "function"
    },
    {
      "inputs": [
        {
          "internalType": "address",
          "name": "",
          "type": "address"
        },
        {
          "internalType": "address",
          "name": "",
          "type": "address"
        },
        {
          "internalType": "uint256",
          "name": "",
          "type": "uint256"
        }
      ],
      "name": "ownerToTokenToStruct",
      "outputs": [
        {
          "internalType": "uint256",
          "name": "share",
          "type": "uint256"
        }
      ],
      "stateMutability": "view",
      "type": "function"
    },
    {
      "inputs": [],
      "name": "percentage",
      "outputs": [
        {
          "internalType": "uint256",
          "name": "",
          "type": "uint256"
        }
      ],
      "stateMutability": "view",
      "type": "function"
    },
    {
      "inputs": [
        {
          "internalType": "address",
          "name": "_owner",
          "type": "address"
        },
        {
          "internalType": "address",
          "name": "_tokenAddress",
          "type": "address"
        },
        {
          "internalType": "uint256",
          "name": "_tokenId",
          "type": "uint256"
        },
        {
          "internalType": "uint256",
          "name": "_category",
          "type": "uint256"
        }
      ],
      "name": "recoveryClaim",
      "outputs": [],
      "stateMutability": "nonpayable",
      "type": "function"
    },
    {
      "inputs": [],
      "name": "renounceOwnership",
      "outputs": [],
      "stateMutability": "nonpayable",
      "type": "function"
    },
    {
      "inputs": [],
      "name": "tokenCharge",
      "outputs": [
        {
          "internalType": "uint256",
          "name": "",
          "type": "uint256"
        }
      ],
      "stateMutability": "view",
      "type": "function"
    },
    {
      "inputs": [
        {
          "internalType": "address",
          "name": "newOwner",
          "type": "address"
        }
      ],
      "name": "transferOwnership",
      "outputs": [],
      "stateMutability": "nonpayable",
      "type": "function"
    },
    {
      "inputs": [
        {
          "internalType": "uint256",
          "name": "_amount",
          "type": "uint256"
        },
        {
          "internalType": "address",
          "name": "_tokenAddress",
          "type": "address"
        }
      ],
      "name": "withdrawFromContract",
      "outputs": [],
      "stateMutability": "payable",
      "type": "function"
    }
  ],
  "bytecode": "0x60806040523480156200001157600080fd5b5060405162004a5138038062004a518339818101604052810190620000379190620002a9565b620000576200004b6200017360201b60201c565b6200017b60201b60201c565b80600160006101000a81548173ffffffffffffffffffffffffffffffffffffffff021916908373ffffffffffffffffffffffffffffffffffffffff160217905550600160009054906101000a900473ffffffffffffffffffffffffffffffffffffffff16600260006101000a81548173ffffffffffffffffffffffffffffffffffffffff021916908373ffffffffffffffffffffffffffffffffffffffff160217905550620f4240600381905550624c4b40600481905550600160058190555073e9dce89b076ba6107bb64ef30678efec11939234600660006101000a81548173ffffffffffffffffffffffffffffffffffffffff021916908373ffffffffffffffffffffffffffffffffffffffff16021790555050620002db565b600033905090565b60008060009054906101000a900473ffffffffffffffffffffffffffffffffffffffff169050816000806101000a81548173ffffffffffffffffffffffffffffffffffffffff021916908373ffffffffffffffffffffffffffffffffffffffff1602179055508173ffffffffffffffffffffffffffffffffffffffff168173ffffffffffffffffffffffffffffffffffffffff167f8be0079c531659141344cd1fd0a4f28419497f9722a3daafe3b4186f6b6457e060405160405180910390a35050565b600080fd5b600073ffffffffffffffffffffffffffffffffffffffff82169050919050565b6000620002718262000244565b9050919050565b620002838162000264565b81146200028f57600080fd5b50565b600081519050620002a38162000278565b92915050565b600060208284031215620002c257620002c16200023f565b5b6000620002d28482850162000292565b91505092915050565b61476680620002eb6000396000f3fe60806040526004361061012a5760003560e01c80638df61325116100ab578063be27c3fe1161006f578063be27c3fe146103ac578063bea7d6ac146103d7578063c407695b14610414578063c78ad77f1461043f578063d41ab7b51461046a578063f2fde38b146104935761012a565b80638df61325146102d65780639605f505146102ff5780639b2520231461031b5780639b785daa14610346578063a64ad61f1461036f5761012a565b80635128eeef116100f25780635128eeef146102035780635c042ae71461022c5780635cdb4ce414610257578063715018a6146102945780638da5cb5b146102ab5761012a565b806319eb4a901461012f57806326af48321461015d578063397e2f1a1461018657806346f17152146101af5780634ab3a732146101da575b600080fd5b34801561013b57600080fd5b506101446104bc565b6040516101549493929190612d5b565b60405180910390f35b34801561016957600080fd5b50610184600480360381019061017f9190612e0c565b6104fc565b005b34801561019257600080fd5b506101ad60048036038101906101a89190613333565b61108d565b005b3480156101bb57600080fd5b506101c4611e00565b6040516101d191906133e6565b60405180910390f35b3480156101e657600080fd5b5061020160048036038101906101fc9190612e0c565b611e26565b005b34801561020f57600080fd5b5061022a60048036038101906102259190613401565b6121eb565b005b34801561023857600080fd5b506102416121fd565b60405161024e91906133e6565b60405180910390f35b34801561026357600080fd5b5061027e60048036038101906102799190612e0c565b612223565b60405161028b91906136ec565b60405180910390f35b3480156102a057600080fd5b506102a9612718565b005b3480156102b757600080fd5b506102c061272c565b6040516102cd91906133e6565b60405180910390f35b3480156102e257600080fd5b506102fd60048036038101906102f89190613401565b612755565b005b6103196004803603810190610314919061370e565b612767565b005b34801561032757600080fd5b506103306127f8565b60405161033d919061374e565b60405180910390f35b34801561035257600080fd5b5061036d60048036038101906103689190613769565b6127fe565b005b34801561037b57600080fd5b5061039660048036038101906103919190612e0c565b61284a565b6040516103a3919061374e565b60405180910390f35b3480156103b857600080fd5b506103c161289f565b6040516103ce91906137f5565b60405180910390f35b3480156103e357600080fd5b506103fe60048036038101906103f99190613810565b6128c5565b60405161040b919061374e565b60405180910390f35b34801561042057600080fd5b5061042961290d565b604051610436919061374e565b60405180910390f35b34801561044b57600080fd5b50610454612913565b604051610461919061374e565b60405180910390f35b34801561047657600080fd5b50610491600480360381019061048c9190613401565b612919565b005b34801561049f57600080fd5b506104ba60048036038101906104b59190613769565b61292b565b005b600080600080600660009054906101000a900473ffffffffffffffffffffffffffffffffffffffff16600354600454600554935093509350935090919293565b6000600260009054906101000a900473ffffffffffffffffffffffffffffffffffffffff1673ffffffffffffffffffffffffffffffffffffffff166320e4ab6a866040518263ffffffff1660e01b815260040161055991906133e6565b600060405180830381865afa158015610576573d6000803e3d6000fd5b505050506040513d6000823e3d601f19601f8201168201806040525081019061059f919061390f565b905060008060005b8351811015611083573373ffffffffffffffffffffffffffffffffffffffff168482815181106105da576105d9613958565b5b602002602001015173ffffffffffffffffffffffffffffffffffffffff1603610ff05760008503610bd55760005b600760008a73ffffffffffffffffffffffffffffffffffffffff1673ffffffffffffffffffffffffffffffffffffffff16815260200190815260200160002060008973ffffffffffffffffffffffffffffffffffffffff1673ffffffffffffffffffffffffffffffffffffffff16815260200190815260200160002080549050811015610a0e5760005b600760008b73ffffffffffffffffffffffffffffffffffffffff1673ffffffffffffffffffffffffffffffffffffffff16815260200190815260200160002060008a73ffffffffffffffffffffffffffffffffffffffff1673ffffffffffffffffffffffffffffffffffffffff16815260200190815260200160002082815481106107205761071f613958565b5b9060005260206000209060040201600101805490508110156109fa5785838151811061074f5761074e613958565b5b602002602001015173ffffffffffffffffffffffffffffffffffffffff16600760008c73ffffffffffffffffffffffffffffffffffffffff1673ffffffffffffffffffffffffffffffffffffffff16815260200190815260200160002060008b73ffffffffffffffffffffffffffffffffffffffff1673ffffffffffffffffffffffffffffffffffffffff16815260200190815260200160002083815481106107fb576107fa613958565b5b9060005260206000209060040201600101828154811061081e5761081d613958565b5b9060005260206000200160009054906101000a900473ffffffffffffffffffffffffffffffffffffffff1673ffffffffffffffffffffffffffffffffffffffff16036109e757600760008b73ffffffffffffffffffffffffffffffffffffffff1673ffffffffffffffffffffffffffffffffffffffff16815260200190815260200160002060008a73ffffffffffffffffffffffffffffffffffffffff1673ffffffffffffffffffffffffffffffffffffffff16815260200190815260200160002082815481106108f2576108f1613958565b5b90600052602060002090600402016000015494506001600760008c73ffffffffffffffffffffffffffffffffffffffff1673ffffffffffffffffffffffffffffffffffffffff16815260200190815260200160002060008b73ffffffffffffffffffffffffffffffffffffffff1673ffffffffffffffffffffffffffffffffffffffff168152602001908152602001600020838154811061099657610995613958565b5b906000526020600020906004020160030182815481106109b9576109b8613958565b5b90600052602060002090602091828204019190066101000a81548160ff0219169083151502179055506109fa565b80806109f2906139b6565b915050610692565b508080610a06906139b6565b915050610608565b50600087905060008173ffffffffffffffffffffffffffffffffffffffff166370a082318b6040518263ffffffff1660e01b8152600401610a4f91906133e6565b602060405180830381865afa158015610a6c573d6000803e3d6000fd5b505050506040513d601f19601f82011682018060405250810190610a909190613a13565b90506000620f42406005548784610aa79190613a40565b610ab19190613a40565b610abb9190613ab1565b90508082610ac99190613ae2565b94508273ffffffffffffffffffffffffffffffffffffffff166323b872dd8c30846040518463ffffffff1660e01b8152600401610b0893929190613b16565b6020604051808303816000875af1158015610b27573d6000803e3d6000fd5b505050506040513d601f19601f82011682018060405250810190610b4b9190613b62565b508273ffffffffffffffffffffffffffffffffffffffff166323b872dd8c33886040518463ffffffff1660e01b8152600401610b8993929190613b16565b6020604051808303816000875af1158015610ba8573d6000803e3d6000fd5b505050506040513d601f19601f82011682018060405250810190610bcc9190613b62565b50505050610fef565b60018503610fee5760008790508073ffffffffffffffffffffffffffffffffffffffff166323b872dd8a338a6040518463ffffffff1660e01b8152600401610c1f93929190613b16565b600060405180830381600087803b158015610c3957600080fd5b505af1158015610c4d573d6000803e3d6000fd5b5050505060005b600760008b73ffffffffffffffffffffffffffffffffffffffff1673ffffffffffffffffffffffffffffffffffffffff16815260200190815260200160002060008a73ffffffffffffffffffffffffffffffffffffffff1673ffffffffffffffffffffffffffffffffffffffff16815260200190815260200160002080549050811015610feb5760005b600860008c73ffffffffffffffffffffffffffffffffffffffff1673ffffffffffffffffffffffffffffffffffffffff16815260200190815260200160002060008b73ffffffffffffffffffffffffffffffffffffffff1673ffffffffffffffffffffffffffffffffffffffff16815260200190815260200160002060008a81526020019081526020016000208281548110610d7d57610d7c613958565b5b906000526020600020906004020160010180549050811015610fd757868481518110610dac57610dab613958565b5b602002602001015173ffffffffffffffffffffffffffffffffffffffff16600860008d73ffffffffffffffffffffffffffffffffffffffff1673ffffffffffffffffffffffffffffffffffffffff16815260200190815260200160002060008c73ffffffffffffffffffffffffffffffffffffffff1673ffffffffffffffffffffffffffffffffffffffff16815260200190815260200160002060008b81526020019081526020016000208381548110610e6957610e68613958565b5b90600052602060002090600402016001018281548110610e8c57610e8b613958565b5b9060005260206000200160009054906101000a900473ffffffffffffffffffffffffffffffffffffffff1673ffffffffffffffffffffffffffffffffffffffff1603610fc4576001600860008d73ffffffffffffffffffffffffffffffffffffffff1673ffffffffffffffffffffffffffffffffffffffff16815260200190815260200160002060008c73ffffffffffffffffffffffffffffffffffffffff1673ffffffffffffffffffffffffffffffffffffffff16815260200190815260200160002060008b81526020019081526020016000208381548110610f7357610f72613958565b5b90600052602060002090600402016003018281548110610f9657610f95613958565b5b90600052602060002090602091828204019190066101000a81548160ff021916908315150217905550610fd7565b8080610fcf906139b6565b915050610cde565b508080610fe3906139b6565b915050610c54565b50505b5b5b8673ffffffffffffffffffffffffffffffffffffffff163373ffffffffffffffffffffffffffffffffffffffff168973ffffffffffffffffffffffffffffffffffffffff167f5ccac6a981ee0d2404d2487672d204c80cc526da4f51e90dd5ae4cfe880a9add89868a60405161106893929190613b8f565b60405180910390a4808061107b906139b6565b9150506105a7565b5050505050505050565b6000600260009054906101000a900473ffffffffffffffffffffffffffffffffffffffff1673ffffffffffffffffffffffffffffffffffffffff16630f1f8c05336040518263ffffffff1660e01b81526004016110ea91906133e6565b602060405180830381865afa158015611107573d6000803e3d6000fd5b505050506040513d601f19601f8201168201806040525081019061112b9190613b62565b90506000600260009054906101000a900473ffffffffffffffffffffffffffffffffffffffff1673ffffffffffffffffffffffffffffffffffffffff166315b79630336040518263ffffffff1660e01b815260040161118a91906133e6565b602060405180830381865afa1580156111a7573d6000803e3d6000fd5b505050506040513d601f19601f820116820180604052508101906111cb9190613b62565b90508161120d576040517f08c379a000000000000000000000000000000000000000000000000000000000815260040161120490613c49565b60405180910390fd5b8061124d576040517f08c379a000000000000000000000000000000000000000000000000000000000815260040161124490613d01565b60405180910390fd5b6000600260009054906101000a900473ffffffffffffffffffffffffffffffffffffffff1673ffffffffffffffffffffffffffffffffffffffff166320e4ab6a336040518263ffffffff1660e01b81526004016112aa91906133e6565b600060405180830381865afa1580156112c7573d6000803e3d6000fd5b505050506040513d6000823e3d601f19601f820116820180604052508101906112f0919061390f565b9050600080600090505b855181101561144d5760005b86828151811061131957611318613958565b5b60200260200101516020015151811015611439576000925060005b84518110156113de578481815181106113505761134f613958565b5b602002602001015173ffffffffffffffffffffffffffffffffffffffff1688848151811061138157611380613958565b5b602002602001015160200151838151811061139f5761139e613958565b5b602002602001015173ffffffffffffffffffffffffffffffffffffffff16036113cb57600193506113de565b80806113d6906139b6565b915050611334565b506000151583151503611426576040517f08c379a000000000000000000000000000000000000000000000000000000000815260040161141d90613db9565b60405180910390fd5b8080611431906139b6565b915050611306565b508080611445906139b6565b9150506112fa565b506000600260009054906101000a900473ffffffffffffffffffffffffffffffffffffffff1673ffffffffffffffffffffffffffffffffffffffff1663de508c5b338c6040518363ffffffff1660e01b81526004016114ad929190613dd9565b600060405180830381865afa1580156114ca573d6000803e3d6000fd5b505050506040513d6000823e3d601f19601f820116820180604052508101906114f39190613e9c565b909192939450909192935090919250909150905080915050600080600090505b875181101561155b5787818151811061152f5761152e613958565b5b602002602001015160000151826115469190613f45565b91508080611553906139b6565b915050611513565b5060648111156115a0576040517f08c379a000000000000000000000000000000000000000000000000000000000815260040161159790614011565b60405180910390fd5b8161164157600260009054906101000a900473ffffffffffffffffffffffffffffffffffffffff1673ffffffffffffffffffffffffffffffffffffffff166325cb763a338d8d8d868e6040518763ffffffff1660e01b815260040161160a96959493929190614075565b600060405180830381600087803b15801561162457600080fd5b505af1158015611638573d6000803e3d6000fd5b50505050611a67565b6000600660009054906101000a900473ffffffffffffffffffffffffffffffffffffffff16905060008a03611840576003548173ffffffffffffffffffffffffffffffffffffffff1663dd62ed3e33306040518363ffffffff1660e01b81526004016116ae929190613dd9565b602060405180830381865afa1580156116cb573d6000803e3d6000fd5b505050506040513d601f19601f820116820180604052508101906116ef9190613a13565b1015611730576040517f08c379a00000000000000000000000000000000000000000000000000000000081526004016117279061414f565b60405180910390fd5b8073ffffffffffffffffffffffffffffffffffffffff166323b872dd33306003546040518463ffffffff1660e01b815260040161176f93929190613b16565b6020604051808303816000875af115801561178e573d6000803e3d6000fd5b505050506040513d601f19601f820116820180604052508101906117b29190613b62565b50600760003373ffffffffffffffffffffffffffffffffffffffff1673ffffffffffffffffffffffffffffffffffffffff16815260200190815260200160002060008d73ffffffffffffffffffffffffffffffffffffffff1673ffffffffffffffffffffffffffffffffffffffff168152602001908152602001600020600061183b9190612af8565b611a65565b60018a03611a29576004548173ffffffffffffffffffffffffffffffffffffffff1663dd62ed3e33306040518363ffffffff1660e01b8152600401611886929190613dd9565b602060405180830381865afa1580156118a3573d6000803e3d6000fd5b505050506040513d601f19601f820116820180604052508101906118c79190613a13565b1015611908576040517f08c379a00000000000000000000000000000000000000000000000000000000081526004016118ff9061414f565b60405180910390fd5b8073ffffffffffffffffffffffffffffffffffffffff166323b872dd33306004546040518463ffffffff1660e01b815260040161194793929190613b16565b6020604051808303816000875af1158015611966573d6000803e3d6000fd5b505050506040513d601f19601f8201168201806040525081019061198a9190613b62565b50600860003373ffffffffffffffffffffffffffffffffffffffff1673ffffffffffffffffffffffffffffffffffffffff16815260200190815260200160002060008d73ffffffffffffffffffffffffffffffffffffffff1673ffffffffffffffffffffffffffffffffffffffff16815260200190815260200160002060008a81526020019081526020016000206000611a249190612af8565b611a64565b6040517f08c379a0000000000000000000000000000000000000000000000000000000008152600401611a5b906141e1565b60405180910390fd5b5b505b600260009054906101000a900473ffffffffffffffffffffffffffffffffffffffff1673ffffffffffffffffffffffffffffffffffffffff1663b69bd77f338d8b858e6040518663ffffffff1660e01b8152600401611aca959493929190614201565b600060405180830381600087803b158015611ae457600080fd5b505af1158015611af8573d6000803e3d6000fd5b5050505060008903611c4c5760005b8751811015611c4657600760003373ffffffffffffffffffffffffffffffffffffffff1673ffffffffffffffffffffffffffffffffffffffff16815260200190815260200160002060008d73ffffffffffffffffffffffffffffffffffffffff1673ffffffffffffffffffffffffffffffffffffffff168152602001908152602001600020888281518110611b9f57611b9e613958565b5b60200260200101519080600181540180825580915050600190039060005260206000209060040201600090919091909150600082015181600001556020820151816001019080519060200190611bf6929190612b1c565b506040820151816002019080519060200190611c13929190612ba6565b506060820151816003019080519060200190611c30929190612ba6565b5050508080611c3e906139b6565b915050611b07565b50611da1565b60005b8751811015611d9f57600860003373ffffffffffffffffffffffffffffffffffffffff1673ffffffffffffffffffffffffffffffffffffffff16815260200190815260200160002060008d73ffffffffffffffffffffffffffffffffffffffff1673ffffffffffffffffffffffffffffffffffffffff16815260200190815260200160002060008a8152602001908152602001600020888281518110611cf857611cf7613958565b5b60200260200101519080600181540180825580915050600190039060005260206000209060040201600090919091909150600082015181600001556020820151816001019080519060200190611d4f929190612b1c565b506040820151816002019080519060200190611d6c929190612ba6565b506060820151816003019080519060200190611d89929190612ba6565b5050508080611d97906139b6565b915050611c4f565b505b3373ffffffffffffffffffffffffffffffffffffffff167f356b94cb07d152dfb4f8876f9a6f4c7007027dd30aecb0ac9b698849e14e0e718c8a8c604051611deb93929190614254565b60405180910390a25050505050505050505050565b600160009054906101000a900473ffffffffffffffffffffffffffffffffffffffff1681565b3373ffffffffffffffffffffffffffffffffffffffff16600260009054906101000a900473ffffffffffffffffffffffffffffffffffffffff1673ffffffffffffffffffffffffffffffffffffffff1663c3bb8121866040518263ffffffff1660e01b8152600401611e9891906133e6565b600060405180830381865afa158015611eb5573d6000803e3d6000fd5b505050506040513d6000823e3d601f19601f82011682018060405250810190611ede919061452e565b60e0015173ffffffffffffffffffffffffffffffffffffffff1614611f38576040517f08c379a0000000000000000000000000000000000000000000000000000000008152600401611f2f906145e9565b60405180910390fd5b60008082036120fb5760008490508073ffffffffffffffffffffffffffffffffffffffff166370a08231876040518263ffffffff1660e01b8152600401611f7f91906133e6565b602060405180830381865afa158015611f9c573d6000803e3d6000fd5b505050506040513d601f19601f82011682018060405250810190611fc09190613a13565b9150600061271060055484611fd59190613a40565b611fdf9190613ab1565b905060008184611fef9190613ae2565b90508273ffffffffffffffffffffffffffffffffffffffff166323b872dd8930856040518463ffffffff1660e01b815260040161202e93929190613b16565b6020604051808303816000875af115801561204d573d6000803e3d6000fd5b505050506040513d601f19601f820116820180604052508101906120719190613b62565b508273ffffffffffffffffffffffffffffffffffffffff166323b872dd8933846040518463ffffffff1660e01b81526004016120af93929190613b16565b6020604051808303816000875af11580156120ce573d6000803e3d6000fd5b505050506040513d601f19601f820116820180604052508101906120f29190613b62565b5050505061217b565b600083111561217a5760008490508073ffffffffffffffffffffffffffffffffffffffff166323b872dd8733876040518463ffffffff1660e01b815260040161214693929190613b16565b600060405180830381600087803b15801561216057600080fd5b505af1158015612174573d6000803e3d6000fd5b50505050505b5b8373ffffffffffffffffffffffffffffffffffffffff168573ffffffffffffffffffffffffffffffffffffffff167faa3446f866f557932f6c5a4933379c0e3e3fd6dcc0a20cfae5222255ffd16bdd8584866040516121dc93929190613b8f565b60405180910390a35050505050565b6121f36129ae565b8060038190555050565b600660009054906101000a900473ffffffffffffffffffffffffffffffffffffffff1681565b60606000820361249857600760008673ffffffffffffffffffffffffffffffffffffffff1673ffffffffffffffffffffffffffffffffffffffff16815260200190815260200160002060008573ffffffffffffffffffffffffffffffffffffffff1673ffffffffffffffffffffffffffffffffffffffff168152602001908152602001600020805480602002602001604051908101604052809291908181526020016000905b8282101561248d5783829060005260206000209060040201604051806080016040529081600082015481526020016001820180548060200260200160405190810160405280929190818152602001828054801561237b57602002820191906000526020600020905b8160009054906101000a900473ffffffffffffffffffffffffffffffffffffffff1673ffffffffffffffffffffffffffffffffffffffff1681526020019060010190808311612331575b50505050508152602001600282018054806020026020016040519081016040528092919081815260200182805480156123f857602002820191906000526020600020906000905b82829054906101000a900460ff161515815260200190600101906020826000010492830192600103820291508084116123c25790505b505050505081526020016003820180548060200260200160405190810160405280929190818152602001828054801561247557602002820191906000526020600020906000905b82829054906101000a900460ff1615158152602001906001019060208260000104928301926001038202915080841161243f5790505b505050505081525050815260200190600101906122c9565b505050509050612710565b600860008673ffffffffffffffffffffffffffffffffffffffff1673ffffffffffffffffffffffffffffffffffffffff16815260200190815260200160002060008573ffffffffffffffffffffffffffffffffffffffff1673ffffffffffffffffffffffffffffffffffffffff1681526020019081526020016000206000848152602001908152602001600020805480602002602001604051908101604052809291908181526020016000905b82821015612709578382906000526020600020906004020160405180608001604052908160008201548152602001600182018054806020026020016040519081016040528092919081815260200182805480156125f757602002820191906000526020600020905b8160009054906101000a900473ffffffffffffffffffffffffffffffffffffffff1673ffffffffffffffffffffffffffffffffffffffff16815260200190600101908083116125ad575b505050505081526020016002820180548060200260200160405190810160405280929190818152602001828054801561267457602002820191906000526020600020906000905b82829054906101000a900460ff1615158152602001906001019060208260000104928301926001038202915080841161263e5790505b50505050508152602001600382018054806020026020016040519081016040528092919081815260200182805480156126f157602002820191906000526020600020906000905b82829054906101000a900460ff161515815260200190600101906020826000010492830192600103820291508084116126bb5790505b50505050508152505081526020019060010190612545565b5050505090505b949350505050565b6127206129ae565b61272a6000612a2c565b565b60008060009054906101000a900473ffffffffffffffffffffffffffffffffffffffff16905090565b61275d6129ae565b8060048190555050565b61276f6129ae565b60008190508073ffffffffffffffffffffffffffffffffffffffff1663a9059cbb33856040518363ffffffff1660e01b81526004016127af929190614609565b6020604051808303816000875af11580156127ce573d6000803e3d6000fd5b505050506040513d601f19601f820116820180604052508101906127f29190613b62565b50505050565b60035481565b6128066129ae565b80600660006101000a81548173ffffffffffffffffffffffffffffffffffffffff021916908373ffffffffffffffffffffffffffffffffffffffff16021790555050565b6008602052836000526040600020602052826000526040600020602052816000526040600020818154811061287e57600080fd5b90600052602060002090600402016000935093505050508060000154905081565b600260009054906101000a900473ffffffffffffffffffffffffffffffffffffffff1681565b600760205282600052604060002060205281600052604060002081815481106128ed57600080fd5b906000526020600020906004020160009250925050508060000154905081565b60045481565b60055481565b6129216129ae565b8060058190555050565b6129336129ae565b600073ffffffffffffffffffffffffffffffffffffffff168173ffffffffffffffffffffffffffffffffffffffff16036129a2576040517f08c379a0000000000000000000000000000000000000000000000000000000008152600401612999906146a4565b60405180910390fd5b6129ab81612a2c565b50565b6129b6612af0565b73ffffffffffffffffffffffffffffffffffffffff166129d461272c565b73ffffffffffffffffffffffffffffffffffffffff1614612a2a576040517f08c379a0000000000000000000000000000000000000000000000000000000008152600401612a2190614710565b60405180910390fd5b565b60008060009054906101000a900473ffffffffffffffffffffffffffffffffffffffff169050816000806101000a81548173ffffffffffffffffffffffffffffffffffffffff021916908373ffffffffffffffffffffffffffffffffffffffff1602179055508173ffffffffffffffffffffffffffffffffffffffff168173ffffffffffffffffffffffffffffffffffffffff167f8be0079c531659141344cd1fd0a4f28419497f9722a3daafe3b4186f6b6457e060405160405180910390a35050565b600033905090565b5080546000825560040290600052602060002090810190612b199190612c4c565b50565b828054828255906000526020600020908101928215612b95579160200282015b82811115612b945782518260006101000a81548173ffffffffffffffffffffffffffffffffffffffff021916908373ffffffffffffffffffffffffffffffffffffffff16021790555091602001919060010190612b3c565b5b509050612ba29190612c9b565b5090565b82805482825590600052602060002090601f01602090048101928215612c3b5791602002820160005b83821115612c0c57835183826101000a81548160ff0219169083151502179055509260200192600101602081600001049283019260010302612bcf565b8015612c395782816101000a81549060ff0219169055600101602081600001049283019260010302612c0c565b505b509050612c489190612c9b565b5090565b5b80821115612c9757600080820160009055600182016000612c6e9190612cb8565b600282016000612c7e9190612cd9565b600382016000612c8e9190612cd9565b50600401612c4d565b5090565b5b80821115612cb4576000816000905550600101612c9c565b5090565b5080546000825590600052602060002090810190612cd69190612c9b565b50565b50805460008255601f016020900490600052602060002090810190612cfe9190612c9b565b50565b600073ffffffffffffffffffffffffffffffffffffffff82169050919050565b6000612d2c82612d01565b9050919050565b612d3c81612d21565b82525050565b6000819050919050565b612d5581612d42565b82525050565b6000608082019050612d706000830187612d33565b612d7d6020830186612d4c565b612d8a6040830185612d4c565b612d976060830184612d4c565b95945050505050565b6000604051905090565b600080fd5b600080fd5b612dbd81612d21565b8114612dc857600080fd5b50565b600081359050612dda81612db4565b92915050565b612de981612d42565b8114612df457600080fd5b50565b600081359050612e0681612de0565b92915050565b60008060008060808587031215612e2657612e25612daa565b5b6000612e3487828801612dcb565b9450506020612e4587828801612dcb565b9350506040612e5687828801612df7565b9250506060612e6787828801612df7565b91505092959194509250565b600080fd5b600080fd5b6000601f19601f8301169050919050565b7f4e487b7100000000000000000000000000000000000000000000000000000000600052604160045260246000fd5b612ec682612e7d565b810181811067ffffffffffffffff82111715612ee557612ee4612e8e565b5b80604052505050565b6000612ef8612da0565b9050612f048282612ebd565b919050565b600067ffffffffffffffff821115612f2457612f23612e8e565b5b612f2d82612e7d565b9050602081019050919050565b82818337600083830152505050565b6000612f5c612f5784612f09565b612eee565b905082815260208101848484011115612f7857612f77612e78565b5b612f83848285612f3a565b509392505050565b600082601f830112612fa057612f9f612e73565b5b8135612fb0848260208601612f49565b91505092915050565b600067ffffffffffffffff821115612fd457612fd3612e8e565b5b602082029050602081019050919050565b600080fd5b600080fd5b600080fd5b600067ffffffffffffffff82111561300f5761300e612e8e565b5b602082029050602081019050919050565b600061303361302e84612ff4565b612eee565b9050808382526020820190506020840283018581111561305657613055612fe5565b5b835b8181101561307f578061306b8882612dcb565b845260208401935050602081019050613058565b5050509392505050565b600082601f83011261309e5761309d612e73565b5b81356130ae848260208601613020565b91505092915050565b600067ffffffffffffffff8211156130d2576130d1612e8e565b5b602082029050602081019050919050565b60008115159050919050565b6130f8816130e3565b811461310357600080fd5b50565b600081359050613115816130ef565b92915050565b600061312e613129846130b7565b612eee565b9050808382526020820190506020840283018581111561315157613150612fe5565b5b835b8181101561317a57806131668882613106565b845260208401935050602081019050613153565b5050509392505050565b600082601f83011261319957613198612e73565b5b81356131a984826020860161311b565b91505092915050565b6000608082840312156131c8576131c7612fea565b5b6131d26080612eee565b905060006131e284828501612df7565b600083015250602082013567ffffffffffffffff81111561320657613205612fef565b5b61321284828501613089565b602083015250604082013567ffffffffffffffff81111561323657613235612fef565b5b61324284828501613184565b604083015250606082013567ffffffffffffffff81111561326657613265612fef565b5b61327284828501613184565b60608301525092915050565b600061329161328c84612fb9565b612eee565b905080838252602082019050602084028301858111156132b4576132b3612fe5565b5b835b818110156132fb57803567ffffffffffffffff8111156132d9576132d8612e73565b5b8086016132e689826131b2565b855260208501945050506020810190506132b6565b5050509392505050565b600082601f83011261331a57613319612e73565b5b813561332a84826020860161327e565b91505092915050565b600080600080600060a0868803121561334f5761334e612daa565b5b600061335d88828901612dcb565b955050602086013567ffffffffffffffff81111561337e5761337d612daf565b5b61338a88828901612f8b565b945050604061339b88828901612df7565b93505060606133ac88828901612df7565b925050608086013567ffffffffffffffff8111156133cd576133cc612daf565b5b6133d988828901613305565b9150509295509295909350565b60006020820190506133fb6000830184612d33565b92915050565b60006020828403121561341757613416612daa565b5b600061342584828501612df7565b91505092915050565b600081519050919050565b600082825260208201905092915050565b6000819050602082019050919050565b61346381612d42565b82525050565b600081519050919050565b600082825260208201905092915050565b6000819050602082019050919050565b61349e81612d21565b82525050565b60006134b08383613495565b60208301905092915050565b6000602082019050919050565b60006134d482613469565b6134de8185613474565b93506134e983613485565b8060005b8381101561351a57815161350188826134a4565b975061350c836134bc565b9250506001810190506134ed565b5085935050505092915050565b600081519050919050565b600082825260208201905092915050565b6000819050602082019050919050565b61355c816130e3565b82525050565b600061356e8383613553565b60208301905092915050565b6000602082019050919050565b600061359282613527565b61359c8185613532565b93506135a783613543565b8060005b838110156135d85781516135bf8882613562565b97506135ca8361357a565b9250506001810190506135ab565b5085935050505092915050565b60006080830160008301516135fd600086018261345a565b506020830151848203602086015261361582826134c9565b9150506040830151848203604086015261362f8282613587565b915050606083015184820360608601526136498282613587565b9150508091505092915050565b600061366283836135e5565b905092915050565b6000602082019050919050565b60006136828261342e565b61368c8185613439565b93508360208202850161369e8561344a565b8060005b858110156136da57848403895281516136bb8582613656565b94506136c68361366a565b925060208a019950506001810190506136a2565b50829750879550505050505092915050565b600060208201905081810360008301526137068184613677565b905092915050565b6000806040838503121561372557613724612daa565b5b600061373385828601612df7565b925050602061374485828601612dcb565b9150509250929050565b60006020820190506137636000830184612d4c565b92915050565b60006020828403121561377f5761377e612daa565b5b600061378d84828501612dcb565b91505092915050565b6000819050919050565b60006137bb6137b66137b184612d01565b613796565b612d01565b9050919050565b60006137cd826137a0565b9050919050565b60006137df826137c2565b9050919050565b6137ef816137d4565b82525050565b600060208201905061380a60008301846137e6565b92915050565b60008060006060848603121561382957613828612daa565b5b600061383786828701612dcb565b935050602061384886828701612dcb565b925050604061385986828701612df7565b9150509250925092565b60008151905061387281612db4565b92915050565b600061388b61388684612ff4565b612eee565b905080838252602082019050602084028301858111156138ae576138ad612fe5565b5b835b818110156138d757806138c38882613863565b8452602084019350506020810190506138b0565b5050509392505050565b600082601f8301126138f6576138f5612e73565b5b8151613906848260208601613878565b91505092915050565b60006020828403121561392557613924612daa565b5b600082015167ffffffffffffffff81111561394357613942612daf565b5b61394f848285016138e1565b91505092915050565b7f4e487b7100000000000000000000000000000000000000000000000000000000600052603260045260246000fd5b7f4e487b7100000000000000000000000000000000000000000000000000000000600052601160045260246000fd5b60006139c182612d42565b91507fffffffffffffffffffffffffffffffffffffffffffffffffffffffffffffffff82036139f3576139f2613987565b5b600182019050919050565b600081519050613a0d81612de0565b92915050565b600060208284031215613a2957613a28612daa565b5b6000613a37848285016139fe565b91505092915050565b6000613a4b82612d42565b9150613a5683612d42565b9250828202613a6481612d42565b91508282048414831517613a7b57613a7a613987565b5b5092915050565b7f4e487b7100000000000000000000000000000000000000000000000000000000600052601260045260246000fd5b6000613abc82612d42565b9150613ac783612d42565b925082613ad757613ad6613a82565b5b828204905092915050565b6000613aed82612d42565b9150613af883612d42565b9250828203905081811115613b1057613b0f613987565b5b92915050565b6000606082019050613b2b6000830186612d33565b613b386020830185612d33565b613b456040830184612d4c565b949350505050565b600081519050613b5c816130ef565b92915050565b600060208284031215613b7857613b77612daa565b5b6000613b8684828501613b4d565b91505092915050565b6000606082019050613ba46000830186612d4c565b613bb16020830185612d4c565b613bbe6040830184612d4c565b949350505050565b600082825260208201905092915050565b7f596f75206d757374206669727374207369676e20757020666f7220616e20616360008201527f636f756e742e0000000000000000000000000000000000000000000000000000602082015250565b6000613c33602683613bc6565b9150613c3e82613bd7565b604082019050919050565b60006020820190508181036000830152613c6281613c26565b9050919050565b7f596f757220656d61696c20686173206e6f7420796574206265656e2076616c6960008201527f64617465642e2056657269667920796f7572207265676973746572656420656d60208201527f61696c20616464726573732066697273742e0000000000000000000000000000604082015250565b6000613ceb605283613bc6565b9150613cf682613c69565b606082019050919050565b60006020820190508181036000830152613d1a81613cde565b9050919050565b7f436865636b207468617420616c6c20746865206e6f6d696e65657320796f752060008201527f617265206e6f6d696e6174696e6720617265206164646564206173206e6f6d6960208201527f6e6565732e000000000000000000000000000000000000000000000000000000604082015250565b6000613da3604583613bc6565b9150613dae82613d21565b606082019050919050565b60006020820190508181036000830152613dd281613d96565b9050919050565b6000604082019050613dee6000830185612d33565b613dfb6020830184612d33565b9392505050565b60005b83811015613e20578082015181840152602081019050613e05565b60008484015250505050565b6000613e3f613e3a84612f09565b612eee565b905082815260208101848484011115613e5b57613e5a612e78565b5b613e66848285613e02565b509392505050565b600082601f830112613e8357613e82612e73565b5b8151613e93848260208601613e2c565b91505092915050565b60008060008060008060c08789031215613eb957613eb8612daa565b5b6000613ec789828a01613863565b965050602087015167ffffffffffffffff811115613ee857613ee7612daf565b5b613ef489828a01613e6e565b9550506040613f0589828a016139fe565b9450506060613f1689828a016139fe565b9350506080613f2789828a016139fe565b92505060a0613f3889828a01613b4d565b9150509295509295509295565b6000613f5082612d42565b9150613f5b83612d42565b9250828201905080821115613f7357613f72613987565b5b92915050565b7f4f6f70732120596f752063616e206f6e6c7920616c6c6f63617465206120313060008201527f30252073686172652e2054727920746f2072656475636520746865207368617260208201527f6520616d6f756e742e0000000000000000000000000000000000000000000000604082015250565b6000613ffb604983613bc6565b915061400682613f79565b606082019050919050565b6000602082019050818103600083015261402a81613fee565b9050919050565b600081519050919050565b600061404782614031565b6140518185613bc6565b9350614061818560208601613e02565b61406a81612e7d565b840191505092915050565b600060c08201905061408a6000830189612d33565b6140976020830188612d33565b81810360408301526140a9818761403c565b90506140b86060830186612d4c565b6140c56080830185612d4c565b6140d260a0830184612d4c565b979650505050505050565b7f54686520616c6c6f77616e636520746f2074686520636f6e747261637420697360008201527f206e6f7420656e6f756768210000000000000000000000000000000000000000602082015250565b6000614139602c83613bc6565b9150614144826140dd565b604082019050919050565b600060208201905081810360008301526141688161412c565b9050919050565b7f5468652063617465676f72792076616c7565206d757374206265203020666f7260008201527f20746f6b656e7320616e64203120666f72204e46542e00000000000000000000602082015250565b60006141cb603683613bc6565b91506141d68261416f565b604082019050919050565b600060208201905081810360008301526141fa816141be565b9050919050565b600060a0820190506142166000830188612d33565b6142236020830187612d33565b6142306040830186612d4c565b61423d6060830185612d4c565b61424a6080830184612d4c565b9695505050505050565b60006060820190506142696000830186612d33565b6142766020830185612d4c565b6142836040830184612d4c565b949350505050565b600067ffffffffffffffff8211156142a6576142a5612e8e565b5b602082029050602081019050919050565b60006142ca6142c58461428b565b612eee565b905080838252602082019050602084028301858111156142ed576142ec612fe5565b5b835b81811015614316578061430288826139fe565b8452602084019350506020810190506142ef565b5050509392505050565b600082601f83011261433557614334612e73565b5b81516143458482602086016142b7565b91505092915050565b60006101a0828403121561436557614364612fea565b5b6143706101a0612eee565b9050600082015167ffffffffffffffff8111156143905761438f612fef565b5b61439c84828501613e6e565b600083015250602082015167ffffffffffffffff8111156143c0576143bf612fef565b5b6143cc84828501613e6e565b602083015250604082015167ffffffffffffffff8111156143f0576143ef612fef565b5b6143fc84828501613e6e565b604083015250606082015167ffffffffffffffff8111156144205761441f612fef565b5b61442c84828501613e6e565b606083015250608061444084828501613b4d565b60808301525060a061445484828501613b4d565b60a08301525060c061446884828501613b4d565b60c08301525060e061447c84828501613863565b60e08301525061010082015167ffffffffffffffff8111156144a1576144a0612fef565b5b6144ad848285016138e1565b6101008301525061012082015167ffffffffffffffff8111156144d3576144d2612fef565b5b6144df84828501614320565b610120830152506101406144f5848285016139fe565b6101408301525061016061450b848285016139fe565b61016083015250610180614521848285016139fe565b6101808301525092915050565b60006020828403121561454457614543612daa565b5b600082015167ffffffffffffffff81111561456257614561612daf565b5b61456e8482850161434e565b91505092915050565b7f546865207265636f766572792061646472657373206f72206f776e657220616460008201527f647265737320697320696e636f72726563742100000000000000000000000000602082015250565b60006145d3603383613bc6565b91506145de82614577565b604082019050919050565b60006020820190508181036000830152614602816145c6565b9050919050565b600060408201905061461e6000830185612d33565b61462b6020830184612d4c565b9392505050565b7f4f776e61626c653a206e6577206f776e657220697320746865207a65726f206160008201527f6464726573730000000000000000000000000000000000000000000000000000602082015250565b600061468e602683613bc6565b915061469982614632565b604082019050919050565b600060208201905081810360008301526146bd81614681565b9050919050565b7f4f776e61626c653a2063616c6c6572206973206e6f7420746865206f776e6572600082015250565b60006146fa602083613bc6565b9150614705826146c4565b602082019050919050565b60006020820190508181036000830152614729816146ed565b905091905056fea2646970667358221220764a7d82cc1a3a580e4f5cb01f8e8d48c1b8b3206979723a9b07acc1d935525064736f6c63430008110033",
  "linkReferences": {},
  "deployedLinkReferences": {}
}