{
  "_format": "hh-sol-artifact-1",
  "contractName": "MultiplePriorityNominee",
  "sourceName": "contracts/MultiplePriorityNominee.sol",
  "abi": [
    {
      "inputs": [
        {
          "internalType": "address",
          "name": "_inheritokensAddress",
          "type": "address"
        }
      ],
      "stateMutability": "nonpayable",
      "type": "constructor"
    },
    {
      "anonymous": false,
      "inputs": [
        {
          "indexed": true,
          "internalType": "address",
          "name": "_owner",
          "type": "address"
        },
        {
          "indexed": true,
          "internalType": "address",
          "name": "_nominee",
          "type": "address"
        },
        {
          "indexed": true,
          "internalType": "address",
          "name": "_tokenAddress",
          "type": "address"
        },
        {
          "indexed": false,
          "internalType": "uint256",
          "name": "_tokenId",
          "type": "uint256"
        }
      ],
      "name": "Claimed",
      "type": "event"
    },
    {
      "anonymous": false,
      "inputs": [
        {
          "indexed": true,
          "internalType": "address",
          "name": "_owner",
          "type": "address"
        },
        {
          "indexed": false,
          "internalType": "address",
          "name": "_tokenAddress",
          "type": "address"
        },
        {
          "indexed": false,
          "internalType": "uint256",
          "name": "_tokenId",
          "type": "uint256"
        }
      ],
      "name": "TokensAssigned",
      "type": "event"
    },
    {
      "inputs": [
        {
          "internalType": "address",
          "name": "_tokenAddress",
          "type": "address"
        },
        {
          "internalType": "string",
          "name": "_tokenName",
          "type": "string"
        },
        {
          "internalType": "uint256",
          "name": "_category",
          "type": "uint256"
        },
        {
          "internalType": "uint256",
          "name": "_tokenId",
          "type": "uint256"
        },
        {
          "components": [
            {
              "internalType": "uint256",
              "name": "share",
              "type": "uint256"
            },
            {
              "internalType": "address[]",
              "name": "nominee",
              "type": "address[]"
            },
            {
              "internalType": "bool[]",
              "name": "isNotAvailable",
              "type": "bool[]"
            },
            {
              "internalType": "bool[]",
              "name": "isClaimed",
              "type": "bool[]"
            }
          ],
          "internalType": "struct MultiplePriorityNominee.MultiplePriority[]",
          "name": "data",
          "type": "tuple[]"
        }
      ],
      "name": "assignTokensToMultipleNominees",
      "outputs": [],
      "stateMutability": "nonpayable",
      "type": "function"
    },
    {
      "inputs": [
        {
          "internalType": "address",
          "name": "_owner",
          "type": "address"
        },
        {
          "internalType": "address",
          "name": "_tokenAddress",
          "type": "address"
        },
        {
          "internalType": "uint256",
          "name": "_amount",
          "type": "uint256"
        },
        {
          "internalType": "uint256",
          "name": "_tokenId",
          "type": "uint256"
        },
        {
          "internalType": "uint256",
          "name": "_category",
          "type": "uint256"
        }
      ],
      "name": "claim",
      "outputs": [],
      "stateMutability": "nonpayable",
      "type": "function"
    },
    {
      "inputs": [
        {
          "internalType": "address",
          "name": "_owner",
          "type": "address"
        },
        {
          "internalType": "address",
          "name": "_tokenAddress",
          "type": "address"
        },
        {
          "internalType": "uint256",
          "name": "_tokenId",
          "type": "uint256"
        },
        {
          "internalType": "uint256",
          "name": "_category",
          "type": "uint256"
        }
      ],
      "name": "getAllStructs",
      "outputs": [
        {
          "components": [
            {
              "internalType": "uint256",
              "name": "share",
              "type": "uint256"
            },
            {
              "internalType": "address[]",
              "name": "nominee",
              "type": "address[]"
            },
            {
              "internalType": "bool[]",
              "name": "isNotAvailable",
              "type": "bool[]"
            },
            {
              "internalType": "bool[]",
              "name": "isClaimed",
              "type": "bool[]"
            }
          ],
          "internalType": "struct MultiplePriorityNominee.MultiplePriority[]",
          "name": "",
          "type": "tuple[]"
        }
      ],
      "stateMutability": "view",
      "type": "function"
    },
    {
      "inputs": [],
      "name": "inheritokens",
      "outputs": [
        {
          "internalType": "contract Inheritokens",
          "name": "",
          "type": "address"
        }
      ],
      "stateMutability": "view",
      "type": "function"
    },
    {
      "inputs": [],
      "name": "inheritokensAddress",
      "outputs": [
        {
          "internalType": "address",
          "name": "",
          "type": "address"
        }
      ],
      "stateMutability": "view",
      "type": "function"
    },
    {
      "inputs": [
        {
          "internalType": "address",
          "name": "",
          "type": "address"
        },
        {
          "internalType": "address",
          "name": "",
          "type": "address"
        },
        {
          "internalType": "uint256",
          "name": "",
          "type": "uint256"
        },
        {
          "internalType": "uint256",
          "name": "",
          "type": "uint256"
        }
      ],
      "name": "ownerToNFTToStruct",
      "outputs": [
        {
          "internalType": "uint256",
          "name": "share",
          "type": "uint256"
        }
      ],
      "stateMutability": "view",
      "type": "function"
    },
    {
      "inputs": [
        {
          "internalType": "address",
          "name": "",
          "type": "address"
        },
        {
          "internalType": "address",
          "name": "",
          "type": "address"
        },
        {
          "internalType": "uint256",
          "name": "",
          "type": "uint256"
        }
      ],
      "name": "ownerToTokenToStruct",
      "outputs": [
        {
          "internalType": "uint256",
          "name": "share",
          "type": "uint256"
        }
      ],
      "stateMutability": "view",
      "type": "function"
    }
  ],
  "bytecode": "0x60806040523480156200001157600080fd5b506040516200333638038062003336833981810160405281019062000037919062000149565b806000806101000a81548173ffffffffffffffffffffffffffffffffffffffff021916908373ffffffffffffffffffffffffffffffffffffffff16021790555060008054906101000a900473ffffffffffffffffffffffffffffffffffffffff16600160006101000a81548173ffffffffffffffffffffffffffffffffffffffff021916908373ffffffffffffffffffffffffffffffffffffffff160217905550506200017b565b600080fd5b600073ffffffffffffffffffffffffffffffffffffffff82169050919050565b60006200011182620000e4565b9050919050565b620001238162000104565b81146200012f57600080fd5b50565b600081519050620001438162000118565b92915050565b600060208284031215620001625762000161620000df565b5b6000620001728482850162000132565b91505092915050565b6131ab806200018b6000396000f3fe608060405234801561001057600080fd5b506004361061007d5760003560e01c80635cdb4ce41161005b5780635cdb4ce4146100d8578063a64ad61f14610108578063be27c3fe14610138578063bea7d6ac146101565761007d565b8063397e2f1a146100825780633c8249191461009e57806346f17152146100ba575b600080fd5b61009c60048036038101906100979190612507565b610186565b005b6100b860048036038101906100b391906125ba565b610d4a565b005b6100c26116f8565b6040516100cf9190612644565b60405180910390f35b6100f260048036038101906100ed919061265f565b61171c565b6040516100ff9190612984565b60405180910390f35b610122600480360381019061011d919061265f565b611c11565b60405161012f91906129b5565b60405180910390f35b610140611c66565b60405161014d9190612a2f565b60405180910390f35b610170600480360381019061016b9190612a4a565b611c8c565b60405161017d91906129b5565b60405180910390f35b6000600160009054906101000a900473ffffffffffffffffffffffffffffffffffffffff1673ffffffffffffffffffffffffffffffffffffffff16630f1f8c05336040518263ffffffff1660e01b81526004016101e39190612644565b602060405180830381865afa158015610200573d6000803e3d6000fd5b505050506040513d601f19601f820116820180604052508101906102249190612ab2565b90506000600160009054906101000a900473ffffffffffffffffffffffffffffffffffffffff1673ffffffffffffffffffffffffffffffffffffffff166315b79630336040518263ffffffff1660e01b81526004016102839190612644565b602060405180830381865afa1580156102a0573d6000803e3d6000fd5b505050506040513d601f19601f820116820180604052508101906102c49190612ab2565b905081610306576040517f08c379a00000000000000000000000000000000000000000000000000000000081526004016102fd90612b3c565b60405180910390fd5b80610346576040517f08c379a000000000000000000000000000000000000000000000000000000000815260040161033d90612ba8565b60405180910390fd5b6000600160009054906101000a900473ffffffffffffffffffffffffffffffffffffffff1673ffffffffffffffffffffffffffffffffffffffff166320e4ab6a336040518263ffffffff1660e01b81526004016103a39190612644565b600060405180830381865afa1580156103c0573d6000803e3d6000fd5b505050506040513d6000823e3d601f19601f820116820180604052508101906103e99190612c74565b9050600080600090505b85518110156105695760005b86828151811061041257610411612cbd565b5b60200260200101516020015151811015610555576000925060005b84518110156104fa5761045985828151811061044c5761044b612cbd565b5b6020026020010151611cd4565b84818151811061046c5761046b612cbd565b5b602002602001015173ffffffffffffffffffffffffffffffffffffffff1688848151811061049d5761049c612cbd565b5b60200260200101516020015183815181106104bb576104ba612cbd565b5b602002602001015173ffffffffffffffffffffffffffffffffffffffff16036104e757600193506104fa565b80806104f290612d1b565b91505061042d565b506000151583151503610542576040517f08c379a000000000000000000000000000000000000000000000000000000000815260040161053990612dd5565b60405180910390fd5b808061054d90612d1b565b9150506103ff565b50808061056190612d1b565b9150506103f3565b506000600160009054906101000a900473ffffffffffffffffffffffffffffffffffffffff1673ffffffffffffffffffffffffffffffffffffffff1663de508c5b338c6040518363ffffffff1660e01b81526004016105c9929190612df5565b600060405180830381865afa1580156105e6573d6000803e3d6000fd5b505050506040513d6000823e3d601f19601f8201168201806040525081019061060f9190612ecd565b909192939450909192935090919250909150905080915050600080600090505b87518110156106775787818151811061064b5761064a612cbd565b5b602002602001015160000151826106629190612f76565b9150808061066f90612d1b565b91505061062f565b5060648111156106bc576040517f08c379a00000000000000000000000000000000000000000000000000000000081526004016106b390612ff6565b60405180910390fd5b8161075957600160009054906101000a900473ffffffffffffffffffffffffffffffffffffffff1673ffffffffffffffffffffffffffffffffffffffff166325cb763a338d8d8d868e6040518763ffffffff1660e01b81526004016107269695949392919061305a565b600060405180830381600087803b15801561074057600080fd5b505af1158015610754573d6000803e3d6000fd5b505050505b6000808a0361087b57600260003373ffffffffffffffffffffffffffffffffffffffff1673ffffffffffffffffffffffffffffffffffffffff16815260200190815260200160002060008d73ffffffffffffffffffffffffffffffffffffffff1673ffffffffffffffffffffffffffffffffffffffff168152602001908152602001600020805490509050600081111561087657600260003373ffffffffffffffffffffffffffffffffffffffff1673ffffffffffffffffffffffffffffffffffffffff16815260200190815260200160002060008d73ffffffffffffffffffffffffffffffffffffffff1673ffffffffffffffffffffffffffffffffffffffff16815260200190815260200160002060006108759190611d96565b5b6109b2565b600360003373ffffffffffffffffffffffffffffffffffffffff1673ffffffffffffffffffffffffffffffffffffffff16815260200190815260200160002060008d73ffffffffffffffffffffffffffffffffffffffff1673ffffffffffffffffffffffffffffffffffffffff16815260200190815260200160002060008a815260200190815260200160002080549050905060008111156109b157600360003373ffffffffffffffffffffffffffffffffffffffff1673ffffffffffffffffffffffffffffffffffffffff16815260200190815260200160002060008d73ffffffffffffffffffffffffffffffffffffffff1673ffffffffffffffffffffffffffffffffffffffff16815260200190815260200160002060008a815260200190815260200160002060006109b09190611d96565b5b5b600160009054906101000a900473ffffffffffffffffffffffffffffffffffffffff1673ffffffffffffffffffffffffffffffffffffffff1663b69bd77f338e8c868f6040518663ffffffff1660e01b8152600401610a159594939291906130c2565b600060405180830381600087803b158015610a2f57600080fd5b505af1158015610a43573d6000803e3d6000fd5b5050505060008a03610b975760005b8851811015610b9157600260003373ffffffffffffffffffffffffffffffffffffffff1673ffffffffffffffffffffffffffffffffffffffff16815260200190815260200160002060008e73ffffffffffffffffffffffffffffffffffffffff1673ffffffffffffffffffffffffffffffffffffffff168152602001908152602001600020898281518110610aea57610ae9612cbd565b5b60200260200101519080600181540180825580915050600190039060005260206000209060040201600090919091909150600082015181600001556020820151816001019080519060200190610b41929190611dba565b506040820151816002019080519060200190610b5e929190611e44565b506060820151816003019080519060200190610b7b929190611e44565b5050508080610b8990612d1b565b915050610a52565b50610cec565b60005b8851811015610cea57600360003373ffffffffffffffffffffffffffffffffffffffff1673ffffffffffffffffffffffffffffffffffffffff16815260200190815260200160002060008e73ffffffffffffffffffffffffffffffffffffffff1673ffffffffffffffffffffffffffffffffffffffff16815260200190815260200160002060008b8152602001908152602001600020898281518110610c4357610c42612cbd565b5b60200260200101519080600181540180825580915050600190039060005260206000209060040201600090919091909150600082015181600001556020820151816001019080519060200190610c9a929190611dba565b506040820151816002019080519060200190610cb7929190611e44565b506060820151816003019080519060200190610cd4929190611e44565b5050508080610ce290612d1b565b915050610b9a565b505b3373ffffffffffffffffffffffffffffffffffffffff167f82a2341a42c146a8b1818f7e04fe56be41f008d10c140cf4fe8b4ef801628ea18d8b604051610d34929190613115565b60405180910390a2505050505050505050505050565b6000600160009054906101000a900473ffffffffffffffffffffffffffffffffffffffff1673ffffffffffffffffffffffffffffffffffffffff166320e4ab6a876040518263ffffffff1660e01b8152600401610da79190612644565b600060405180830381865afa158015610dc4573d6000803e3d6000fd5b505050506040513d6000823e3d601f19601f82011682018060405250810190610ded9190612c74565b905060005b81518110156116ef573373ffffffffffffffffffffffffffffffffffffffff16828281518110610e2557610e24612cbd565b5b602002602001015173ffffffffffffffffffffffffffffffffffffffff160361166057600083036112445760008690508073ffffffffffffffffffffffffffffffffffffffff166323b872dd8933896040518463ffffffff1660e01b8152600401610e929392919061313e565b6020604051808303816000875af1158015610eb1573d6000803e3d6000fd5b505050506040513d601f19601f82011682018060405250810190610ed59190612ab2565b5060005b600260008a73ffffffffffffffffffffffffffffffffffffffff1673ffffffffffffffffffffffffffffffffffffffff16815260200190815260200160002060008973ffffffffffffffffffffffffffffffffffffffff1673ffffffffffffffffffffffffffffffffffffffff1681526020019081526020016000208054905081101561123d5760005b600260008b73ffffffffffffffffffffffffffffffffffffffff1673ffffffffffffffffffffffffffffffffffffffff16815260200190815260200160002060008a73ffffffffffffffffffffffffffffffffffffffff1673ffffffffffffffffffffffffffffffffffffffff1681526020019081526020016000208281548110610ff157610ff0612cbd565b5b906000526020600020906004020160010180549050811015611229578484815181106110205761101f612cbd565b5b602002602001015173ffffffffffffffffffffffffffffffffffffffff16600260008c73ffffffffffffffffffffffffffffffffffffffff1673ffffffffffffffffffffffffffffffffffffffff16815260200190815260200160002060008b73ffffffffffffffffffffffffffffffffffffffff1673ffffffffffffffffffffffffffffffffffffffff16815260200190815260200160002083815481106110cc576110cb612cbd565b5b906000526020600020906004020160010182815481106110ef576110ee612cbd565b5b9060005260206000200160009054906101000a900473ffffffffffffffffffffffffffffffffffffffff1673ffffffffffffffffffffffffffffffffffffffff1603611216576001600260008c73ffffffffffffffffffffffffffffffffffffffff1673ffffffffffffffffffffffffffffffffffffffff16815260200190815260200160002060008b73ffffffffffffffffffffffffffffffffffffffff1673ffffffffffffffffffffffffffffffffffffffff16815260200190815260200160002083815481106111c5576111c4612cbd565b5b906000526020600020906004020160030182815481106111e8576111e7612cbd565b5b90600052602060002090602091828204019190066101000a81548160ff021916908315150217905550611229565b808061122190612d1b565b915050610f63565b50808061123590612d1b565b915050610ed9565b505061165f565b600084111561165e5760008690508073ffffffffffffffffffffffffffffffffffffffff166323b872dd8933886040518463ffffffff1660e01b815260040161128f9392919061313e565b600060405180830381600087803b1580156112a957600080fd5b505af11580156112bd573d6000803e3d6000fd5b5050505060005b600260008a73ffffffffffffffffffffffffffffffffffffffff1673ffffffffffffffffffffffffffffffffffffffff16815260200190815260200160002060008973ffffffffffffffffffffffffffffffffffffffff1673ffffffffffffffffffffffffffffffffffffffff1681526020019081526020016000208054905081101561165b5760005b600360008b73ffffffffffffffffffffffffffffffffffffffff1673ffffffffffffffffffffffffffffffffffffffff16815260200190815260200160002060008a73ffffffffffffffffffffffffffffffffffffffff1673ffffffffffffffffffffffffffffffffffffffff168152602001908152602001600020600088815260200190815260200160002082815481106113ed576113ec612cbd565b5b9060005260206000209060040201600101805490508110156116475784848151811061141c5761141b612cbd565b5b602002602001015173ffffffffffffffffffffffffffffffffffffffff16600360008c73ffffffffffffffffffffffffffffffffffffffff1673ffffffffffffffffffffffffffffffffffffffff16815260200190815260200160002060008b73ffffffffffffffffffffffffffffffffffffffff1673ffffffffffffffffffffffffffffffffffffffff168152602001908152602001600020600089815260200190815260200160002083815481106114d9576114d8612cbd565b5b906000526020600020906004020160010182815481106114fc576114fb612cbd565b5b9060005260206000200160009054906101000a900473ffffffffffffffffffffffffffffffffffffffff1673ffffffffffffffffffffffffffffffffffffffff1603611634576001600360008c73ffffffffffffffffffffffffffffffffffffffff1673ffffffffffffffffffffffffffffffffffffffff16815260200190815260200160002060008b73ffffffffffffffffffffffffffffffffffffffff1673ffffffffffffffffffffffffffffffffffffffff168152602001908152602001600020600089815260200190815260200160002083815481106115e3576115e2612cbd565b5b9060005260206000209060040201600301828154811061160657611605612cbd565b5b90600052602060002090602091828204019190066101000a81548160ff021916908315150217905550611647565b808061163f90612d1b565b91505061134e565b50808061165390612d1b565b9150506112c4565b50505b5b5b8573ffffffffffffffffffffffffffffffffffffffff163373ffffffffffffffffffffffffffffffffffffffff168873ffffffffffffffffffffffffffffffffffffffff167f913c992353dc81b7a8ba31496c484e9b6306bd2f6c509a649a38fdf5e1c953b2876040516116d491906129b5565b60405180910390a480806116e790612d1b565b915050610df2565b50505050505050565b60008054906101000a900473ffffffffffffffffffffffffffffffffffffffff1681565b60606000820361199157600260008673ffffffffffffffffffffffffffffffffffffffff1673ffffffffffffffffffffffffffffffffffffffff16815260200190815260200160002060008573ffffffffffffffffffffffffffffffffffffffff1673ffffffffffffffffffffffffffffffffffffffff168152602001908152602001600020805480602002602001604051908101604052809291908181526020016000905b828210156119865783829060005260206000209060040201604051806080016040529081600082015481526020016001820180548060200260200160405190810160405280929190818152602001828054801561187457602002820191906000526020600020905b8160009054906101000a900473ffffffffffffffffffffffffffffffffffffffff1673ffffffffffffffffffffffffffffffffffffffff168152602001906001019080831161182a575b50505050508152602001600282018054806020026020016040519081016040528092919081815260200182805480156118f157602002820191906000526020600020906000905b82829054906101000a900460ff161515815260200190600101906020826000010492830192600103820291508084116118bb5790505b505050505081526020016003820180548060200260200160405190810160405280929190818152602001828054801561196e57602002820191906000526020600020906000905b82829054906101000a900460ff161515815260200190600101906020826000010492830192600103820291508084116119385790505b505050505081525050815260200190600101906117c2565b505050509050611c09565b600360008673ffffffffffffffffffffffffffffffffffffffff1673ffffffffffffffffffffffffffffffffffffffff16815260200190815260200160002060008573ffffffffffffffffffffffffffffffffffffffff1673ffffffffffffffffffffffffffffffffffffffff1681526020019081526020016000206000848152602001908152602001600020805480602002602001604051908101604052809291908181526020016000905b82821015611c0257838290600052602060002090600402016040518060800160405290816000820154815260200160018201805480602002602001604051908101604052809291908181526020018280548015611af057602002820191906000526020600020905b8160009054906101000a900473ffffffffffffffffffffffffffffffffffffffff1673ffffffffffffffffffffffffffffffffffffffff1681526020019060010190808311611aa6575b5050505050815260200160028201805480602002602001604051908101604052809291908181526020018280548015611b6d57602002820191906000526020600020906000905b82829054906101000a900460ff16151581526020019060010190602082600001049283019260010382029150808411611b375790505b5050505050815260200160038201805480602002602001604051908101604052809291908181526020018280548015611bea57602002820191906000526020600020906000905b82829054906101000a900460ff16151581526020019060010190602082600001049283019260010382029150808411611bb45790505b50505050508152505081526020019060010190611a3e565b5050505090505b949350505050565b60036020528360005260406000206020528260005260406000206020528160005260406000208181548110611c4557600080fd5b90600052602060002090600402016000935093505050508060000154905081565b600160009054906101000a900473ffffffffffffffffffffffffffffffffffffffff1681565b60026020528260005260406000206020528160005260406000208181548110611cb457600080fd5b906000526020600020906004020160009250925050508060000154905081565b611d6a81604051602401611ce89190612644565b6040516020818303038152906040527f2c2ecbc2000000000000000000000000000000000000000000000000000000007bffffffffffffffffffffffffffffffffffffffffffffffffffffffff19166020820180517bffffffffffffffffffffffffffffffffffffffffffffffffffffffff8381831617835250505050611d6d565b50565b60008151905060006a636f6e736f6c652e6c6f679050602083016000808483855afa5050505050565b5080546000825560040290600052602060002090810190611db79190611eea565b50565b828054828255906000526020600020908101928215611e33579160200282015b82811115611e325782518260006101000a81548173ffffffffffffffffffffffffffffffffffffffff021916908373ffffffffffffffffffffffffffffffffffffffff16021790555091602001919060010190611dda565b5b509050611e409190611f39565b5090565b82805482825590600052602060002090601f01602090048101928215611ed95791602002820160005b83821115611eaa57835183826101000a81548160ff0219169083151502179055509260200192600101602081600001049283019260010302611e6d565b8015611ed75782816101000a81549060ff0219169055600101602081600001049283019260010302611eaa565b505b509050611ee69190611f39565b5090565b5b80821115611f3557600080820160009055600182016000611f0c9190611f56565b600282016000611f1c9190611f77565b600382016000611f2c9190611f77565b50600401611eeb565b5090565b5b80821115611f52576000816000905550600101611f3a565b5090565b5080546000825590600052602060002090810190611f749190611f39565b50565b50805460008255601f016020900490600052602060002090810190611f9c9190611f39565b50565b6000604051905090565b600080fd5b600080fd5b600073ffffffffffffffffffffffffffffffffffffffff82169050919050565b6000611fde82611fb3565b9050919050565b611fee81611fd3565b8114611ff957600080fd5b50565b60008135905061200b81611fe5565b92915050565b600080fd5b600080fd5b6000601f19601f8301169050919050565b7f4e487b7100000000000000000000000000000000000000000000000000000000600052604160045260246000fd5b6120648261201b565b810181811067ffffffffffffffff821117156120835761208261202c565b5b80604052505050565b6000612096611f9f565b90506120a2828261205b565b919050565b600067ffffffffffffffff8211156120c2576120c161202c565b5b6120cb8261201b565b9050602081019050919050565b82818337600083830152505050565b60006120fa6120f5846120a7565b61208c565b90508281526020810184848401111561211657612115612016565b5b6121218482856120d8565b509392505050565b600082601f83011261213e5761213d612011565b5b813561214e8482602086016120e7565b91505092915050565b6000819050919050565b61216a81612157565b811461217557600080fd5b50565b60008135905061218781612161565b92915050565b600067ffffffffffffffff8211156121a8576121a761202c565b5b602082029050602081019050919050565b600080fd5b600080fd5b600080fd5b600067ffffffffffffffff8211156121e3576121e261202c565b5b602082029050602081019050919050565b6000612207612202846121c8565b61208c565b9050808382526020820190506020840283018581111561222a576122296121b9565b5b835b81811015612253578061223f8882611ffc565b84526020840193505060208101905061222c565b5050509392505050565b600082601f83011261227257612271612011565b5b81356122828482602086016121f4565b91505092915050565b600067ffffffffffffffff8211156122a6576122a561202c565b5b602082029050602081019050919050565b60008115159050919050565b6122cc816122b7565b81146122d757600080fd5b50565b6000813590506122e9816122c3565b92915050565b60006123026122fd8461228b565b61208c565b90508083825260208201905060208402830185811115612325576123246121b9565b5b835b8181101561234e578061233a88826122da565b845260208401935050602081019050612327565b5050509392505050565b600082601f83011261236d5761236c612011565b5b813561237d8482602086016122ef565b91505092915050565b60006080828403121561239c5761239b6121be565b5b6123a6608061208c565b905060006123b684828501612178565b600083015250602082013567ffffffffffffffff8111156123da576123d96121c3565b5b6123e68482850161225d565b602083015250604082013567ffffffffffffffff81111561240a576124096121c3565b5b61241684828501612358565b604083015250606082013567ffffffffffffffff81111561243a576124396121c3565b5b61244684828501612358565b60608301525092915050565b60006124656124608461218d565b61208c565b90508083825260208201905060208402830185811115612488576124876121b9565b5b835b818110156124cf57803567ffffffffffffffff8111156124ad576124ac612011565b5b8086016124ba8982612386565b8552602085019450505060208101905061248a565b5050509392505050565b600082601f8301126124ee576124ed612011565b5b81356124fe848260208601612452565b91505092915050565b600080600080600060a0868803121561252357612522611fa9565b5b600061253188828901611ffc565b955050602086013567ffffffffffffffff81111561255257612551611fae565b5b61255e88828901612129565b945050604061256f88828901612178565b935050606061258088828901612178565b925050608086013567ffffffffffffffff8111156125a1576125a0611fae565b5b6125ad888289016124d9565b9150509295509295909350565b600080600080600060a086880312156125d6576125d5611fa9565b5b60006125e488828901611ffc565b95505060206125f588828901611ffc565b945050604061260688828901612178565b935050606061261788828901612178565b925050608061262888828901612178565b9150509295509295909350565b61263e81611fd3565b82525050565b60006020820190506126596000830184612635565b92915050565b6000806000806080858703121561267957612678611fa9565b5b600061268787828801611ffc565b945050602061269887828801611ffc565b93505060406126a987828801612178565b92505060606126ba87828801612178565b91505092959194509250565b600081519050919050565b600082825260208201905092915050565b6000819050602082019050919050565b6126fb81612157565b82525050565b600081519050919050565b600082825260208201905092915050565b6000819050602082019050919050565b61273681611fd3565b82525050565b6000612748838361272d565b60208301905092915050565b6000602082019050919050565b600061276c82612701565b612776818561270c565b93506127818361271d565b8060005b838110156127b2578151612799888261273c565b97506127a483612754565b925050600181019050612785565b5085935050505092915050565b600081519050919050565b600082825260208201905092915050565b6000819050602082019050919050565b6127f4816122b7565b82525050565b600061280683836127eb565b60208301905092915050565b6000602082019050919050565b600061282a826127bf565b61283481856127ca565b935061283f836127db565b8060005b8381101561287057815161285788826127fa565b975061286283612812565b925050600181019050612843565b5085935050505092915050565b600060808301600083015161289560008601826126f2565b50602083015184820360208601526128ad8282612761565b915050604083015184820360408601526128c7828261281f565b915050606083015184820360608601526128e1828261281f565b9150508091505092915050565b60006128fa838361287d565b905092915050565b6000602082019050919050565b600061291a826126c6565b61292481856126d1565b935083602082028501612936856126e2565b8060005b85811015612972578484038952815161295385826128ee565b945061295e83612902565b925060208a0199505060018101905061293a565b50829750879550505050505092915050565b6000602082019050818103600083015261299e818461290f565b905092915050565b6129af81612157565b82525050565b60006020820190506129ca60008301846129a6565b92915050565b6000819050919050565b60006129f56129f06129eb84611fb3565b6129d0565b611fb3565b9050919050565b6000612a07826129da565b9050919050565b6000612a19826129fc565b9050919050565b612a2981612a0e565b82525050565b6000602082019050612a446000830184612a20565b92915050565b600080600060608486031215612a6357612a62611fa9565b5b6000612a7186828701611ffc565b9350506020612a8286828701611ffc565b9250506040612a9386828701612178565b9150509250925092565b600081519050612aac816122c3565b92915050565b600060208284031215612ac857612ac7611fa9565b5b6000612ad684828501612a9d565b91505092915050565b600082825260208201905092915050565b7f466972737420726567697374657220796f757273656c66210000000000000000600082015250565b6000612b26601883612adf565b9150612b3182612af0565b602082019050919050565b60006020820190508181036000830152612b5581612b19565b9050919050565b7f46697273742076657269667920796f757220656d61696c000000000000000000600082015250565b6000612b92601783612adf565b9150612b9d82612b5c565b602082019050919050565b60006020820190508181036000830152612bc181612b85565b9050919050565b600081519050612bd781611fe5565b92915050565b6000612bf0612beb846121c8565b61208c565b90508083825260208201905060208402830185811115612c1357612c126121b9565b5b835b81811015612c3c5780612c288882612bc8565b845260208401935050602081019050612c15565b5050509392505050565b600082601f830112612c5b57612c5a612011565b5b8151612c6b848260208601612bdd565b91505092915050565b600060208284031215612c8a57612c89611fa9565b5b600082015167ffffffffffffffff811115612ca857612ca7611fae565b5b612cb484828501612c46565b91505092915050565b7f4e487b7100000000000000000000000000000000000000000000000000000000600052603260045260246000fd5b7f4e487b7100000000000000000000000000000000000000000000000000000000600052601160045260246000fd5b6000612d2682612157565b91507fffffffffffffffffffffffffffffffffffffffffffffffffffffffffffffffff8203612d5857612d57612cec565b5b600182019050919050565b7f636865636b20616c6c20746865206e6f6d696e65657320796f7520617265206560008201527f6e746572696e67206172652061646465642e0000000000000000000000000000602082015250565b6000612dbf603283612adf565b9150612dca82612d63565b604082019050919050565b60006020820190508181036000830152612dee81612db2565b9050919050565b6000604082019050612e0a6000830185612635565b612e176020830184612635565b9392505050565b60005b83811015612e3c578082015181840152602081019050612e21565b60008484015250505050565b6000612e5b612e56846120a7565b61208c565b905082815260208101848484011115612e7757612e76612016565b5b612e82848285612e1e565b509392505050565b600082601f830112612e9f57612e9e612011565b5b8151612eaf848260208601612e48565b91505092915050565b600081519050612ec781612161565b92915050565b60008060008060008060c08789031215612eea57612ee9611fa9565b5b6000612ef889828a01612bc8565b965050602087015167ffffffffffffffff811115612f1957612f18611fae565b5b612f2589828a01612e8a565b9550506040612f3689828a01612eb8565b9450506060612f4789828a01612eb8565b9350506080612f5889828a01612eb8565b92505060a0612f6989828a01612a9d565b9150509295509295509295565b6000612f8182612157565b9150612f8c83612157565b9250828201905080821115612fa457612fa3612cec565b5b92915050565b7f5265647563652074686520736861726520616d6f756e742e2e2e000000000000600082015250565b6000612fe0601a83612adf565b9150612feb82612faa565b602082019050919050565b6000602082019050818103600083015261300f81612fd3565b9050919050565b600081519050919050565b600061302c82613016565b6130368185612adf565b9350613046818560208601612e1e565b61304f8161201b565b840191505092915050565b600060c08201905061306f6000830189612635565b61307c6020830188612635565b818103604083015261308e8187613021565b905061309d60608301866129a6565b6130aa60808301856129a6565b6130b760a08301846129a6565b979650505050505050565b600060a0820190506130d76000830188612635565b6130e46020830187612635565b6130f160408301866129a6565b6130fe60608301856129a6565b61310b60808301846129a6565b9695505050505050565b600060408201905061312a6000830185612635565b61313760208301846129a6565b9392505050565b60006060820190506131536000830186612635565b6131606020830185612635565b61316d60408301846129a6565b94935050505056fea26469706673582212207e4f046c42ce82a742a38bdf39e77b30968eada5225b0af04aa43edc2ff02a1264736f6c63430008110033",
  "linkReferences": {},
  "deployedLinkReferences": {}
}