{
  "_format": "hh-sol-artifact-1",
  "contractName": "MultiplePriorityNominee",
  "sourceName": "contracts/MultiplePriorityNominee.sol",
  "abi": [
    {
      "inputs": [
        {
          "internalType": "address",
          "name": "_inheritokensAddress",
          "type": "address"
        },
        {
          "internalType": "address",
          "name": "_charityContractAddress",
          "type": "address"
        }
      ],
      "stateMutability": "nonpayable",
      "type": "constructor"
    },
    {
      "anonymous": false,
      "inputs": [
        {
          "indexed": true,
          "internalType": "address",
          "name": "_owner",
          "type": "address"
        },
        {
          "indexed": true,
          "internalType": "address",
          "name": "_nominee",
          "type": "address"
        },
        {
          "indexed": true,
          "internalType": "address",
          "name": "_tokenAddress",
          "type": "address"
        },
        {
          "indexed": false,
          "internalType": "uint256",
          "name": "_tokenId",
          "type": "uint256"
        },
        {
          "indexed": false,
          "internalType": "uint256",
          "name": "_amount",
          "type": "uint256"
        },
        {
          "indexed": false,
          "internalType": "uint256",
          "name": "_category",
          "type": "uint256"
        }
      ],
      "name": "Claimed",
      "type": "event"
    },
    {
      "anonymous": false,
      "inputs": [
        {
          "indexed": true,
          "internalType": "address",
          "name": "previousOwner",
          "type": "address"
        },
        {
          "indexed": true,
          "internalType": "address",
          "name": "newOwner",
          "type": "address"
        }
      ],
      "name": "OwnershipTransferred",
      "type": "event"
    },
    {
      "anonymous": false,
      "inputs": [
        {
          "indexed": true,
          "internalType": "address",
          "name": "_owner",
          "type": "address"
        },
        {
          "indexed": true,
          "internalType": "address",
          "name": "_tokenAddress",
          "type": "address"
        },
        {
          "indexed": false,
          "internalType": "uint256",
          "name": "_tokenId",
          "type": "uint256"
        },
        {
          "indexed": false,
          "internalType": "uint256",
          "name": "_amount",
          "type": "uint256"
        },
        {
          "indexed": false,
          "internalType": "uint256",
          "name": "_category",
          "type": "uint256"
        }
      ],
      "name": "Recovered",
      "type": "event"
    },
    {
      "anonymous": false,
      "inputs": [
        {
          "indexed": true,
          "internalType": "address",
          "name": "_owner",
          "type": "address"
        },
        {
          "indexed": false,
          "internalType": "address",
          "name": "_tokenAddress",
          "type": "address"
        },
        {
          "indexed": false,
          "internalType": "uint256",
          "name": "_tokenId",
          "type": "uint256"
        },
        {
          "indexed": false,
          "internalType": "uint256",
          "name": "_category",
          "type": "uint256"
        }
      ],
      "name": "TokensAssigned",
      "type": "event"
    },
    {
      "inputs": [
        {
          "internalType": "address",
          "name": "_tokenAddress",
          "type": "address"
        },
        {
          "internalType": "string",
          "name": "_tokenName",
          "type": "string"
        },
        {
          "internalType": "uint256",
          "name": "_category",
          "type": "uint256"
        },
        {
          "internalType": "uint256",
          "name": "_tokenId",
          "type": "uint256"
        },
        {
          "components": [
            {
              "internalType": "uint256",
              "name": "share",
              "type": "uint256"
            },
            {
              "internalType": "address",
              "name": "charityAddress",
              "type": "address"
            },
            {
              "internalType": "address",
              "name": "canClaim",
              "type": "address"
            },
            {
              "internalType": "address[]",
              "name": "nominee",
              "type": "address[]"
            },
            {
              "internalType": "bool",
              "name": "isClaimed",
              "type": "bool"
            },
            {
              "internalType": "string",
              "name": "claimingDate",
              "type": "string"
            }
          ],
          "internalType": "struct MultiplePriorityNominee.MultiplePriority[]",
          "name": "data",
          "type": "tuple[]"
        }
      ],
      "name": "assignTokensToMultipleNominees",
      "outputs": [],
      "stateMutability": "nonpayable",
      "type": "function"
    },
    {
      "inputs": [
        {
          "internalType": "address",
          "name": "_owner",
          "type": "address"
        },
        {
          "internalType": "address",
          "name": "_tokenAddress",
          "type": "address"
        },
        {
          "internalType": "uint256",
          "name": "_tokenId",
          "type": "uint256"
        },
        {
          "internalType": "uint256",
          "name": "_category",
          "type": "uint256"
        },
        {
          "internalType": "uint256",
          "name": "_index",
          "type": "uint256"
        }
      ],
      "name": "changeCanClaim",
      "outputs": [],
      "stateMutability": "nonpayable",
      "type": "function"
    },
    {
      "inputs": [
        {
          "internalType": "address",
          "name": "_tokenAddress",
          "type": "address"
        },
        {
          "internalType": "uint256",
          "name": "_tokenCharge",
          "type": "uint256"
        },
        {
          "internalType": "uint256",
          "name": "_nftCharge",
          "type": "uint256"
        },
        {
          "internalType": "uint256",
          "name": "_percentage",
          "type": "uint256"
        }
      ],
      "name": "changeCharges",
      "outputs": [],
      "stateMutability": "nonpayable",
      "type": "function"
    },
    {
      "inputs": [],
      "name": "chargeTokenAddress",
      "outputs": [
        {
          "internalType": "address",
          "name": "",
          "type": "address"
        }
      ],
      "stateMutability": "view",
      "type": "function"
    },
    {
      "inputs": [],
      "name": "charityContract",
      "outputs": [
        {
          "internalType": "contract CharityContract",
          "name": "",
          "type": "address"
        }
      ],
      "stateMutability": "view",
      "type": "function"
    },
    {
      "inputs": [],
      "name": "charityContractAddress",
      "outputs": [
        {
          "internalType": "address",
          "name": "",
          "type": "address"
        }
      ],
      "stateMutability": "view",
      "type": "function"
    },
    {
      "inputs": [
        {
          "internalType": "address",
          "name": "_owner",
          "type": "address"
        },
        {
          "internalType": "address",
          "name": "_tokenAddress",
          "type": "address"
        },
        {
          "internalType": "uint256",
          "name": "_tokenId",
          "type": "uint256"
        },
        {
          "internalType": "uint256",
          "name": "_category",
          "type": "uint256"
        }
      ],
      "name": "claim",
      "outputs": [],
      "stateMutability": "nonpayable",
      "type": "function"
    },
    {
      "inputs": [
        {
          "internalType": "address",
          "name": "_owner",
          "type": "address"
        },
        {
          "internalType": "address",
          "name": "_tokenAddress",
          "type": "address"
        },
        {
          "internalType": "uint256",
          "name": "_tokenId",
          "type": "uint256"
        },
        {
          "internalType": "uint256",
          "name": "_category",
          "type": "uint256"
        }
      ],
      "name": "getAllStructs",
      "outputs": [
        {
          "components": [
            {
              "internalType": "uint256",
              "name": "share",
              "type": "uint256"
            },
            {
              "internalType": "address",
              "name": "charityAddress",
              "type": "address"
            },
            {
              "internalType": "address",
              "name": "canClaim",
              "type": "address"
            },
            {
              "internalType": "address[]",
              "name": "nominee",
              "type": "address[]"
            },
            {
              "internalType": "bool",
              "name": "isClaimed",
              "type": "bool"
            },
            {
              "internalType": "string",
              "name": "claimingDate",
              "type": "string"
            }
          ],
          "internalType": "struct MultiplePriorityNominee.MultiplePriority[]",
          "name": "",
          "type": "tuple[]"
        }
      ],
      "stateMutability": "view",
      "type": "function"
    },
    {
      "inputs": [],
      "name": "inheritokens",
      "outputs": [
        {
          "internalType": "contract Inheritokens",
          "name": "",
          "type": "address"
        }
      ],
      "stateMutability": "view",
      "type": "function"
    },
    {
      "inputs": [],
      "name": "inheritokensAddress",
      "outputs": [
        {
          "internalType": "address",
          "name": "",
          "type": "address"
        }
      ],
      "stateMutability": "view",
      "type": "function"
    },
    {
      "inputs": [],
      "name": "nftCharge",
      "outputs": [
        {
          "internalType": "uint256",
          "name": "",
          "type": "uint256"
        }
      ],
      "stateMutability": "view",
      "type": "function"
    },
    {
      "inputs": [
        {
          "internalType": "address",
          "name": "_owner",
          "type": "address"
        },
        {
          "internalType": "address",
          "name": "_tokenAddress",
          "type": "address"
        },
        {
          "internalType": "uint256",
          "name": "_tokenId",
          "type": "uint256"
        }
      ],
      "name": "nftTransferLogic",
      "outputs": [],
      "stateMutability": "nonpayable",
      "type": "function"
    },
    {
      "inputs": [
        {
          "internalType": "address",
          "name": "",
          "type": "address"
        },
        {
          "internalType": "address",
          "name": "",
          "type": "address"
        }
      ],
      "name": "notFirst",
      "outputs": [
        {
          "internalType": "bool",
          "name": "",
          "type": "bool"
        }
      ],
      "stateMutability": "view",
      "type": "function"
    },
    {
      "inputs": [],
      "name": "owner",
      "outputs": [
        {
          "internalType": "address",
          "name": "",
          "type": "address"
        }
      ],
      "stateMutability": "view",
      "type": "function"
    },
    {
      "inputs": [
        {
          "internalType": "address",
          "name": "",
          "type": "address"
        },
        {
          "internalType": "address",
          "name": "",
          "type": "address"
        },
        {
          "internalType": "uint256",
          "name": "",
          "type": "uint256"
        },
        {
          "internalType": "uint256",
          "name": "",
          "type": "uint256"
        }
      ],
      "name": "ownerToNFTToStruct",
      "outputs": [
        {
          "internalType": "uint256",
          "name": "share",
          "type": "uint256"
        },
        {
          "internalType": "address",
          "name": "charityAddress",
          "type": "address"
        },
        {
          "internalType": "address",
          "name": "canClaim",
          "type": "address"
        },
        {
          "internalType": "bool",
          "name": "isClaimed",
          "type": "bool"
        },
        {
          "internalType": "string",
          "name": "claimingDate",
          "type": "string"
        }
      ],
      "stateMutability": "view",
      "type": "function"
    },
    {
      "inputs": [
        {
          "internalType": "address",
          "name": "",
          "type": "address"
        },
        {
          "internalType": "address",
          "name": "",
          "type": "address"
        },
        {
          "internalType": "uint256",
          "name": "",
          "type": "uint256"
        }
      ],
      "name": "ownerToTokenToStruct",
      "outputs": [
        {
          "internalType": "uint256",
          "name": "share",
          "type": "uint256"
        },
        {
          "internalType": "address",
          "name": "charityAddress",
          "type": "address"
        },
        {
          "internalType": "address",
          "name": "canClaim",
          "type": "address"
        },
        {
          "internalType": "bool",
          "name": "isClaimed",
          "type": "bool"
        },
        {
          "internalType": "string",
          "name": "claimingDate",
          "type": "string"
        }
      ],
      "stateMutability": "view",
      "type": "function"
    },
    {
      "inputs": [],
      "name": "percentage",
      "outputs": [
        {
          "internalType": "uint256",
          "name": "",
          "type": "uint256"
        }
      ],
      "stateMutability": "view",
      "type": "function"
    },
    {
      "inputs": [
        {
          "internalType": "address",
          "name": "_owner",
          "type": "address"
        },
        {
          "internalType": "address",
          "name": "_tokenAddress",
          "type": "address"
        },
        {
          "internalType": "uint256",
          "name": "_tokenId",
          "type": "uint256"
        },
        {
          "internalType": "uint256",
          "name": "_category",
          "type": "uint256"
        }
      ],
      "name": "recoveryClaim",
      "outputs": [],
      "stateMutability": "nonpayable",
      "type": "function"
    },
    {
      "inputs": [],
      "name": "renounceOwnership",
      "outputs": [],
      "stateMutability": "nonpayable",
      "type": "function"
    },
    {
      "inputs": [
        {
          "internalType": "address",
          "name": "_owner",
          "type": "address"
        },
        {
          "internalType": "address",
          "name": "_tokenAddress",
          "type": "address"
        },
        {
          "internalType": "uint256",
          "name": "_tokenId",
          "type": "uint256"
        },
        {
          "internalType": "uint256",
          "name": "_category",
          "type": "uint256"
        },
        {
          "internalType": "string",
          "name": "_date",
          "type": "string"
        },
        {
          "internalType": "uint256",
          "name": "_index",
          "type": "uint256"
        }
      ],
      "name": "setDateForNominee",
      "outputs": [],
      "stateMutability": "nonpayable",
      "type": "function"
    },
    {
      "inputs": [],
      "name": "tokenCharge",
      "outputs": [
        {
          "internalType": "uint256",
          "name": "",
          "type": "uint256"
        }
      ],
      "stateMutability": "view",
      "type": "function"
    },
    {
      "inputs": [
        {
          "internalType": "address",
          "name": "_owner",
          "type": "address"
        },
        {
          "internalType": "address",
          "name": "_tokenAddress",
          "type": "address"
        },
        {
          "internalType": "uint256",
          "name": "_share",
          "type": "uint256"
        }
      ],
      "name": "tokenTransferLogic",
      "outputs": [],
      "stateMutability": "nonpayable",
      "type": "function"
    },
    {
      "inputs": [
        {
          "internalType": "address",
          "name": "",
          "type": "address"
        },
        {
          "internalType": "address",
          "name": "",
          "type": "address"
        }
      ],
      "name": "totalAmount",
      "outputs": [
        {
          "internalType": "uint256",
          "name": "",
          "type": "uint256"
        }
      ],
      "stateMutability": "view",
      "type": "function"
    },
    {
      "inputs": [
        {
          "internalType": "address",
          "name": "newOwner",
          "type": "address"
        }
      ],
      "name": "transferOwnership",
      "outputs": [],
      "stateMutability": "nonpayable",
      "type": "function"
    },
    {
      "inputs": [
        {
          "internalType": "uint256",
          "name": "_amount",
          "type": "uint256"
        },
        {
          "internalType": "address",
          "name": "_tokenAddress",
          "type": "address"
        }
      ],
      "name": "withdrawFromContract",
      "outputs": [],
      "stateMutability": "payable",
      "type": "function"
    }
  ],
  "bytecode": "0x6080604052620f4240600555624c4b40600655600160075573e9dce89b076ba6107bb64ef30678efec11939234600860006101000a81548173ffffffffffffffffffffffffffffffffffffffff021916908373ffffffffffffffffffffffffffffffffffffffff1602179055503480156200007957600080fd5b506040516200662b3803806200662b83398181016040528101906200009f919062000345565b620000bf620000b36200020f60201b60201c565b6200021760201b60201c565b81600160006101000a81548173ffffffffffffffffffffffffffffffffffffffff021916908373ffffffffffffffffffffffffffffffffffffffff160217905550600160009054906101000a900473ffffffffffffffffffffffffffffffffffffffff16600260006101000a81548173ffffffffffffffffffffffffffffffffffffffff021916908373ffffffffffffffffffffffffffffffffffffffff16021790555080600360006101000a81548173ffffffffffffffffffffffffffffffffffffffff021916908373ffffffffffffffffffffffffffffffffffffffff160217905550600360009054906101000a900473ffffffffffffffffffffffffffffffffffffffff16600460006101000a81548173ffffffffffffffffffffffffffffffffffffffff021916908373ffffffffffffffffffffffffffffffffffffffff16021790555050506200038c565b600033905090565b60008060009054906101000a900473ffffffffffffffffffffffffffffffffffffffff169050816000806101000a81548173ffffffffffffffffffffffffffffffffffffffff021916908373ffffffffffffffffffffffffffffffffffffffff1602179055508173ffffffffffffffffffffffffffffffffffffffff168173ffffffffffffffffffffffffffffffffffffffff167f8be0079c531659141344cd1fd0a4f28419497f9722a3daafe3b4186f6b6457e060405160405180910390a35050565b600080fd5b600073ffffffffffffffffffffffffffffffffffffffff82169050919050565b60006200030d82620002e0565b9050919050565b6200031f8162000300565b81146200032b57600080fd5b50565b6000815190506200033f8162000314565b92915050565b600080604083850312156200035f576200035e620002db565b5b60006200036f858286016200032e565b925050602062000382858286016200032e565b9150509250929050565b61628f806200039c6000396000f3fe6080604052600436106101665760003560e01c80638c06fefd116100d1578063bea7d6ac1161008a578063d8948a8911610064578063d8948a891461050f578063f1d8eefc1461054c578063f2fde38b14610577578063f4cd5465146105a057610166565b8063bea7d6ac14610478578063c407695b146104b9578063c78ad77f146104e457610166565b80638c06fefd146103715780638da5cb5b1461039a5780639605f505146103c55780639b252023146103e1578063a64ad61f1461040c578063be27c3fe1461044d57610166565b80634ab3a732116101235780634ab3a732146102775780635c042ae7146102a05780635cdb4ce4146102cb5780636d0da15514610308578063715018a61461033157806379cf30771461034857610166565b806303cd42481461016b57806322d5dfbf1461019457806326af4832146101bd5780633765aae8146101e657806346f171521461022357806347b33dbb1461024e575b600080fd5b34801561017757600080fd5b50610192600480360381019061018d9190614110565b6105cb565b005b3480156101a057600080fd5b506101bb60048036038101906101b69190614177565b61062f565b005b3480156101c957600080fd5b506101e460048036038101906101df91906141ca565b6106a9565b005b3480156101f257600080fd5b5061020d60048036038101906102089190614231565b610fcb565b60405161021a919061428c565b60405180910390f35b34801561022f57600080fd5b50610238610ffa565b60405161024591906142b6565b60405180910390f35b34801561025a57600080fd5b5061027560048036038101906102709190614417565b611020565b005b34801561028357600080fd5b5061029e600480360381019061029991906141ca565b6111aa565b005b3480156102ac57600080fd5b506102b5611438565b6040516102c291906142b6565b60405180910390f35b3480156102d757600080fd5b506102f260048036038101906102ed91906141ca565b61145e565b6040516102ff919061476d565b60405180910390f35b34801561031457600080fd5b5061032f600480360381019061032a919061478f565b611a1e565b005b34801561033d57600080fd5b5061034661235d565b005b34801561035457600080fd5b5061036f600480360381019061036a9190614177565b612371565b005b34801561037d57600080fd5b5061039860048036038101906103939190614ac1565b612766565b005b3480156103a657600080fd5b506103af6138f4565b6040516103bc91906142b6565b60405180910390f35b6103df60048036038101906103da9190614b74565b61391d565b005b3480156103ed57600080fd5b506103f66139ae565b6040516104039190614bc3565b60405180910390f35b34801561041857600080fd5b50610433600480360381019061042e91906141ca565b6139b4565b604051610444959493929190614c28565b60405180910390f35b34801561045957600080fd5b50610462613af6565b60405161046f9190614ce1565b60405180910390f35b34801561048457600080fd5b5061049f600480360381019061049a9190614177565b613b1c565b6040516104b0959493929190614c28565b60405180910390f35b3480156104c557600080fd5b506104ce613c51565b6040516104db9190614bc3565b60405180910390f35b3480156104f057600080fd5b506104f9613c57565b6040516105069190614bc3565b60405180910390f35b34801561051b57600080fd5b5061053660048036038101906105319190614231565b613c5d565b6040516105439190614bc3565b60405180910390f35b34801561055857600080fd5b50610561613c82565b60405161056e91906142b6565b60405180910390f35b34801561058357600080fd5b5061059e60048036038101906105999190614cfc565b613ca8565b005b3480156105ac57600080fd5b506105b5613d2b565b6040516105c29190614d4a565b60405180910390f35b6105d3613d51565b83600860006101000a81548173ffffffffffffffffffffffffffffffffffffffff021916908373ffffffffffffffffffffffffffffffffffffffff16021790555082600581905550816006819055508060078190555050505050565b60008290508073ffffffffffffffffffffffffffffffffffffffff166323b872dd8533856040518463ffffffff1660e01b815260040161067193929190614d65565b600060405180830381600087803b15801561068b57600080fd5b505af115801561069f573d6000803e3d6000fd5b5050505050505050565b600260009054906101000a900473ffffffffffffffffffffffffffffffffffffffff1673ffffffffffffffffffffffffffffffffffffffff16633d4c12d7856040518263ffffffff1660e01b815260040161070491906142b6565b602060405180830381865afa158015610721573d6000803e3d6000fd5b505050506040513d601f19601f820116820180604052508101906107459190614db1565b610784576040517f08c379a000000000000000000000000000000000000000000000000000000000815260040161077b90614e50565b60405180910390fd5b60008060008303610b955760005b600960008873ffffffffffffffffffffffffffffffffffffffff1673ffffffffffffffffffffffffffffffffffffffff16815260200190815260200160002060008773ffffffffffffffffffffffffffffffffffffffff1673ffffffffffffffffffffffffffffffffffffffff16815260200190815260200160002080549050811015610b48573373ffffffffffffffffffffffffffffffffffffffff16600960008973ffffffffffffffffffffffffffffffffffffffff1673ffffffffffffffffffffffffffffffffffffffff16815260200190815260200160002060008873ffffffffffffffffffffffffffffffffffffffff1673ffffffffffffffffffffffffffffffffffffffff16815260200190815260200160002082815481106108be576108bd614e70565b5b906000526020600020906006020160020160009054906101000a900473ffffffffffffffffffffffffffffffffffffffff1673ffffffffffffffffffffffffffffffffffffffff161480156109c3575060001515600960008973ffffffffffffffffffffffffffffffffffffffff1673ffffffffffffffffffffffffffffffffffffffff16815260200190815260200160002060008873ffffffffffffffffffffffffffffffffffffffff1673ffffffffffffffffffffffffffffffffffffffff16815260200190815260200160002082815481106109a05761099f614e70565b5b906000526020600020906006020160040160009054906101000a900460ff161515145b15610b35576000600960008973ffffffffffffffffffffffffffffffffffffffff1673ffffffffffffffffffffffffffffffffffffffff16815260200190815260200160002060008873ffffffffffffffffffffffffffffffffffffffff1673ffffffffffffffffffffffffffffffffffffffff1681526020019081526020016000208281548110610a5857610a57614e70565b5b9060005260206000209060060201600001549050610a77888883612371565b6001600960008a73ffffffffffffffffffffffffffffffffffffffff1673ffffffffffffffffffffffffffffffffffffffff16815260200190815260200160002060008973ffffffffffffffffffffffffffffffffffffffff1673ffffffffffffffffffffffffffffffffffffffff1681526020019081526020016000208381548110610b0757610b06614e70565b5b906000526020600020906006020160040160006101000a81548160ff02191690831515021790555060019250505b8080610b4090614ece565b915050610792565b506000151581151503610b90576040517f08c379a0000000000000000000000000000000000000000000000000000000008152600401610b8790614fae565b60405180910390fd5b610f43565b60018303610f425760005b600c60008873ffffffffffffffffffffffffffffffffffffffff1673ffffffffffffffffffffffffffffffffffffffff16815260200190815260200160002060008773ffffffffffffffffffffffffffffffffffffffff1673ffffffffffffffffffffffffffffffffffffffff168152602001908152602001600020600086815260200190815260200160002080549050811015610ef9573373ffffffffffffffffffffffffffffffffffffffff16600c60008973ffffffffffffffffffffffffffffffffffffffff1673ffffffffffffffffffffffffffffffffffffffff16815260200190815260200160002060008873ffffffffffffffffffffffffffffffffffffffff1673ffffffffffffffffffffffffffffffffffffffff16815260200190815260200160002060008781526020019081526020016000208281548110610cee57610ced614e70565b5b906000526020600020906006020160020160009054906101000a900473ffffffffffffffffffffffffffffffffffffffff1673ffffffffffffffffffffffffffffffffffffffff16148015610e04575060001515600c60008973ffffffffffffffffffffffffffffffffffffffff1673ffffffffffffffffffffffffffffffffffffffff16815260200190815260200160002060008873ffffffffffffffffffffffffffffffffffffffff1673ffffffffffffffffffffffffffffffffffffffff16815260200190815260200160002060008781526020019081526020016000208281548110610de157610de0614e70565b5b906000526020600020906006020160040160009054906101000a900460ff161515145b15610ee657610e1487878761062f565b6001600c60008973ffffffffffffffffffffffffffffffffffffffff1673ffffffffffffffffffffffffffffffffffffffff16815260200190815260200160002060008873ffffffffffffffffffffffffffffffffffffffff1673ffffffffffffffffffffffffffffffffffffffff16815260200190815260200160002060008781526020019081526020016000208281548110610eb557610eb4614e70565b5b906000526020600020906006020160040160006101000a81548160ff02191690831515021790555060019150610ef9565b8080610ef190614ece565b915050610ba0565b506000151581151503610f41576040517f08c379a0000000000000000000000000000000000000000000000000000000008152600401610f3890614fae565b60405180910390fd5b5b5b8473ffffffffffffffffffffffffffffffffffffffff163373ffffffffffffffffffffffffffffffffffffffff168773ffffffffffffffffffffffffffffffffffffffff167f5ccac6a981ee0d2404d2487672d204c80cc526da4f51e90dd5ae4cfe880a9add878688604051610fbb93929190614fce565b60405180910390a4505050505050565b600b6020528160005260406000206020528060005260406000206000915091509054906101000a900460ff1681565b600160009054906101000a900473ffffffffffffffffffffffffffffffffffffffff1681565b600083036110da5781600960008873ffffffffffffffffffffffffffffffffffffffff1673ffffffffffffffffffffffffffffffffffffffff16815260200190815260200160002060008773ffffffffffffffffffffffffffffffffffffffff1673ffffffffffffffffffffffffffffffffffffffff16815260200190815260200160002082815481106110b7576110b6614e70565b5b906000526020600020906006020160050190816110d49190615207565b506111a2565b600183036111a15781600c60008873ffffffffffffffffffffffffffffffffffffffff1673ffffffffffffffffffffffffffffffffffffffff16815260200190815260200160002060008773ffffffffffffffffffffffffffffffffffffffff1673ffffffffffffffffffffffffffffffffffffffff1681526020019081526020016000206000868152602001908152602001600020828154811061118257611181614e70565b5b9060005260206000209060060201600501908161119f9190615207565b505b5b505050505050565b3373ffffffffffffffffffffffffffffffffffffffff16600260009054906101000a900473ffffffffffffffffffffffffffffffffffffffff1673ffffffffffffffffffffffffffffffffffffffff1663c3bb8121866040518263ffffffff1660e01b815260040161121c91906142b6565b600060405180830381865afa158015611239573d6000803e3d6000fd5b505050506040513d6000823e3d601f19601f8201168201806040525081019061126291906156ad565b60e0015173ffffffffffffffffffffffffffffffffffffffff16146112bc576040517f08c379a00000000000000000000000000000000000000000000000000000000081526004016112b390615768565b60405180910390fd5b600260009054906101000a900473ffffffffffffffffffffffffffffffffffffffff1673ffffffffffffffffffffffffffffffffffffffff16633d4c12d7856040518263ffffffff1660e01b815260040161131791906142b6565b602060405180830381865afa158015611334573d6000803e3d6000fd5b505050506040513d601f19601f820116820180604052508101906113589190614db1565b15611398576040517f08c379a000000000000000000000000000000000000000000000000000000000815260040161138f90615820565b60405180910390fd5b60008082036113b2576113ad85856064612371565b6113c8565b60008311156113c7576113c685858561062f565b5b5b8373ffffffffffffffffffffffffffffffffffffffff168573ffffffffffffffffffffffffffffffffffffffff167faa3446f866f557932f6c5a4933379c0e3e3fd6dcc0a20cfae5222255ffd16bdd85848660405161142993929190614fce565b60405180910390a35050505050565b600860009054906101000a900473ffffffffffffffffffffffffffffffffffffffff1681565b60606000820361173257600960008673ffffffffffffffffffffffffffffffffffffffff1673ffffffffffffffffffffffffffffffffffffffff16815260200190815260200160002060008573ffffffffffffffffffffffffffffffffffffffff1673ffffffffffffffffffffffffffffffffffffffff168152602001908152602001600020805480602002602001604051908101604052809291908181526020016000905b8282101561172757838290600052602060002090600602016040518060c0016040529081600082015481526020016001820160009054906101000a900473ffffffffffffffffffffffffffffffffffffffff1673ffffffffffffffffffffffffffffffffffffffff1673ffffffffffffffffffffffffffffffffffffffff1681526020016002820160009054906101000a900473ffffffffffffffffffffffffffffffffffffffff1673ffffffffffffffffffffffffffffffffffffffff1673ffffffffffffffffffffffffffffffffffffffff1681526020016003820180548060200260200160405190810160405280929190818152602001828054801561166257602002820191906000526020600020905b8160009054906101000a900473ffffffffffffffffffffffffffffffffffffffff1673ffffffffffffffffffffffffffffffffffffffff1681526020019060010190808311611618575b505050505081526020016004820160009054906101000a900460ff1615151515815260200160058201805461169690615034565b80601f01602080910402602001604051908101604052809291908181526020018280546116c290615034565b801561170f5780601f106116e45761010080835404028352916020019161170f565b820191906000526020600020905b8154815290600101906020018083116116f257829003601f168201915b50505050508152505081526020019060010190611504565b505050509050611a16565b60018203611a1557600c60008673ffffffffffffffffffffffffffffffffffffffff1673ffffffffffffffffffffffffffffffffffffffff16815260200190815260200160002060008573ffffffffffffffffffffffffffffffffffffffff1673ffffffffffffffffffffffffffffffffffffffff1681526020019081526020016000206000848152602001908152602001600020805480602002602001604051908101604052809291908181526020016000905b82821015611a0a57838290600052602060002090600602016040518060c0016040529081600082015481526020016001820160009054906101000a900473ffffffffffffffffffffffffffffffffffffffff1673ffffffffffffffffffffffffffffffffffffffff1673ffffffffffffffffffffffffffffffffffffffff1681526020016002820160009054906101000a900473ffffffffffffffffffffffffffffffffffffffff1673ffffffffffffffffffffffffffffffffffffffff1673ffffffffffffffffffffffffffffffffffffffff1681526020016003820180548060200260200160405190810160405280929190818152602001828054801561194557602002820191906000526020600020905b8160009054906101000a900473ffffffffffffffffffffffffffffffffffffffff1673ffffffffffffffffffffffffffffffffffffffff16815260200190600101908083116118fb575b505050505081526020016004820160009054906101000a900460ff1615151515815260200160058201805461197990615034565b80601f01602080910402602001604051908101604052809291908181526020018280546119a590615034565b80156119f25780601f106119c7576101008083540402835291602001916119f2565b820191906000526020600020905b8154815290600101906020018083116119d557829003601f168201915b505050505081525050815260200190600101906117e7565b505050509050611a16565b5b949350505050565b60008203611e91576000600960008773ffffffffffffffffffffffffffffffffffffffff1673ffffffffffffffffffffffffffffffffffffffff16815260200190815260200160002060008673ffffffffffffffffffffffffffffffffffffffff1673ffffffffffffffffffffffffffffffffffffffff1681526020019081526020016000208281548110611ab657611ab5614e70565b5b906000526020600020906006020160020160009054906101000a900473ffffffffffffffffffffffffffffffffffffffff16905060005b6001600960008973ffffffffffffffffffffffffffffffffffffffff1673ffffffffffffffffffffffffffffffffffffffff16815260200190815260200160002060008873ffffffffffffffffffffffffffffffffffffffff1673ffffffffffffffffffffffffffffffffffffffff1681526020019081526020016000208481548110611b7d57611b7c614e70565b5b906000526020600020906006020160030180549050611b9c9190615840565b811015611e8a578173ffffffffffffffffffffffffffffffffffffffff16600960008973ffffffffffffffffffffffffffffffffffffffff1673ffffffffffffffffffffffffffffffffffffffff16815260200190815260200160002060008873ffffffffffffffffffffffffffffffffffffffff1673ffffffffffffffffffffffffffffffffffffffff1681526020019081526020016000208481548110611c4857611c47614e70565b5b90600052602060002090600602016003018281548110611c6b57611c6a614e70565b5b9060005260206000200160009054906101000a900473ffffffffffffffffffffffffffffffffffffffff1673ffffffffffffffffffffffffffffffffffffffff1603611e7757600960008873ffffffffffffffffffffffffffffffffffffffff1673ffffffffffffffffffffffffffffffffffffffff16815260200190815260200160002060008773ffffffffffffffffffffffffffffffffffffffff1673ffffffffffffffffffffffffffffffffffffffff1681526020019081526020016000208381548110611d3f57611d3e614e70565b5b9060005260206000209060060201600301600182611d5d9190615874565b81548110611d6e57611d6d614e70565b5b9060005260206000200160009054906101000a900473ffffffffffffffffffffffffffffffffffffffff16600960008973ffffffffffffffffffffffffffffffffffffffff1673ffffffffffffffffffffffffffffffffffffffff16815260200190815260200160002060008873ffffffffffffffffffffffffffffffffffffffff1673ffffffffffffffffffffffffffffffffffffffff1681526020019081526020016000208481548110611e2757611e26614e70565b5b906000526020600020906006020160020160006101000a81548173ffffffffffffffffffffffffffffffffffffffff021916908373ffffffffffffffffffffffffffffffffffffffff1602179055505b8080611e8290614ece565b915050611aed565b5050612356565b60018203612355576000600c60008773ffffffffffffffffffffffffffffffffffffffff1673ffffffffffffffffffffffffffffffffffffffff16815260200190815260200160002060008673ffffffffffffffffffffffffffffffffffffffff1673ffffffffffffffffffffffffffffffffffffffff16815260200190815260200160002060008581526020019081526020016000208281548110611f3a57611f39614e70565b5b906000526020600020906006020160020160009054906101000a900473ffffffffffffffffffffffffffffffffffffffff16905060005b6001600c60008973ffffffffffffffffffffffffffffffffffffffff1673ffffffffffffffffffffffffffffffffffffffff16815260200190815260200160002060008873ffffffffffffffffffffffffffffffffffffffff1673ffffffffffffffffffffffffffffffffffffffff1681526020019081526020016000206000878152602001908152602001600020848154811061201257612011614e70565b5b9060005260206000209060060201600301805490506120319190615840565b811015612352578173ffffffffffffffffffffffffffffffffffffffff16600c60008973ffffffffffffffffffffffffffffffffffffffff1673ffffffffffffffffffffffffffffffffffffffff16815260200190815260200160002060008873ffffffffffffffffffffffffffffffffffffffff1673ffffffffffffffffffffffffffffffffffffffff168152602001908152602001600020600087815260200190815260200160002084815481106120ee576120ed614e70565b5b9060005260206000209060060201600301828154811061211157612110614e70565b5b9060005260206000200160009054906101000a900473ffffffffffffffffffffffffffffffffffffffff1673ffffffffffffffffffffffffffffffffffffffff160361233f57600c60008873ffffffffffffffffffffffffffffffffffffffff1673ffffffffffffffffffffffffffffffffffffffff16815260200190815260200160002060008773ffffffffffffffffffffffffffffffffffffffff1673ffffffffffffffffffffffffffffffffffffffff168152602001908152602001600020600086815260200190815260200160002083815481106121f6576121f5614e70565b5b90600052602060002090600602016003016001826122149190615874565b8154811061222557612224614e70565b5b9060005260206000200160009054906101000a900473ffffffffffffffffffffffffffffffffffffffff16600c60008973ffffffffffffffffffffffffffffffffffffffff1673ffffffffffffffffffffffffffffffffffffffff16815260200190815260200160002060008873ffffffffffffffffffffffffffffffffffffffff1673ffffffffffffffffffffffffffffffffffffffff168152602001908152602001600020600087815260200190815260200160002084815481106122ef576122ee614e70565b5b906000526020600020906006020160020160006101000a81548173ffffffffffffffffffffffffffffffffffffffff021916908373ffffffffffffffffffffffffffffffffffffffff1602179055505b808061234a90614ece565b915050611f71565b50505b5b5050505050565b612365613d51565b61236f6000613dcf565b565b6000829050600b60008573ffffffffffffffffffffffffffffffffffffffff1673ffffffffffffffffffffffffffffffffffffffff16815260200190815260200160002060008473ffffffffffffffffffffffffffffffffffffffff1673ffffffffffffffffffffffffffffffffffffffff16815260200190815260200160002060009054906101000a900460ff16612594578073ffffffffffffffffffffffffffffffffffffffff166370a08231856040518263ffffffff1660e01b815260040161243d91906142b6565b602060405180830381865afa15801561245a573d6000803e3d6000fd5b505050506040513d601f19601f8201168201806040525081019061247e91906158a8565b600a60008673ffffffffffffffffffffffffffffffffffffffff1673ffffffffffffffffffffffffffffffffffffffff16815260200190815260200160002060008573ffffffffffffffffffffffffffffffffffffffff1673ffffffffffffffffffffffffffffffffffffffff168152602001908152602001600020819055506001600b60008673ffffffffffffffffffffffffffffffffffffffff1673ffffffffffffffffffffffffffffffffffffffff16815260200190815260200160002060008573ffffffffffffffffffffffffffffffffffffffff1673ffffffffffffffffffffffffffffffffffffffff16815260200190815260200160002060006101000a81548160ff0219169083151502179055505b6000606483600a60008873ffffffffffffffffffffffffffffffffffffffff1673ffffffffffffffffffffffffffffffffffffffff16815260200190815260200160002060008773ffffffffffffffffffffffffffffffffffffffff1673ffffffffffffffffffffffffffffffffffffffff1681526020019081526020016000205461262091906158d5565b61262a9190615946565b905060006127106007548361263f91906158d5565b6126499190615946565b9050600081836126599190615840565b90508373ffffffffffffffffffffffffffffffffffffffff166323b872dd8830856040518463ffffffff1660e01b815260040161269893929190614d65565b6020604051808303816000875af11580156126b7573d6000803e3d6000fd5b505050506040513d601f19601f820116820180604052508101906126db9190614db1565b508373ffffffffffffffffffffffffffffffffffffffff166323b872dd8833846040518463ffffffff1660e01b815260040161271993929190614d65565b6020604051808303816000875af1158015612738573d6000803e3d6000fd5b505050506040513d601f19601f8201168201806040525081019061275c9190614db1565b5050505050505050565b600260009054906101000a900473ffffffffffffffffffffffffffffffffffffffff1673ffffffffffffffffffffffffffffffffffffffff16630f1f8c05336040518263ffffffff1660e01b81526004016127c191906142b6565b602060405180830381865afa1580156127de573d6000803e3d6000fd5b505050506040513d601f19601f820116820180604052508101906128029190614db1565b612841576040517f08c379a0000000000000000000000000000000000000000000000000000000008152600401612838906159e9565b60405180910390fd5b600260009054906101000a900473ffffffffffffffffffffffffffffffffffffffff1673ffffffffffffffffffffffffffffffffffffffff166315b79630336040518263ffffffff1660e01b815260040161289c91906142b6565b602060405180830381865afa1580156128b9573d6000803e3d6000fd5b505050506040513d601f19601f820116820180604052508101906128dd9190614db1565b61291c576040517f08c379a000000000000000000000000000000000000000000000000000000000815260040161291390615aa1565b60405180910390fd5b6000600260009054906101000a900473ffffffffffffffffffffffffffffffffffffffff1673ffffffffffffffffffffffffffffffffffffffff166320e4ab6a336040518263ffffffff1660e01b815260040161297991906142b6565b600060405180830381865afa158015612996573d6000803e3d6000fd5b505050506040513d6000823e3d601f19601f820116820180604052508101906129bf9190615ac1565b9050600080600260009054906101000a900473ffffffffffffffffffffffffffffffffffffffff1673ffffffffffffffffffffffffffffffffffffffff166345bceabd336040518263ffffffff1660e01b8152600401612a1f91906142b6565b600060405180830381865afa158015612a3c573d6000803e3d6000fd5b505050506040513d6000823e3d601f19601f82011682018060405250810190612a659190615b0a565b9050600080600090505b8551811015612d515760005b868281518110612a8e57612a8d614e70565b5b60200260200101516060015151811015612bae576000945060005b8651811015612b5357868181518110612ac557612ac4614e70565b5b602002602001015173ffffffffffffffffffffffffffffffffffffffff16888481518110612af657612af5614e70565b5b6020026020010151606001518381518110612b1457612b13614e70565b5b602002602001015173ffffffffffffffffffffffffffffffffffffffff1603612b405760019550612b53565b8080612b4b90614ece565b915050612aa9565b506000151585151503612b9b576040517f08c379a0000000000000000000000000000000000000000000000000000000008152600401612b9290615beb565b60405180910390fd5b8080612ba690614ece565b915050612a7b565b5060005b8351811015612cf6576000600460009054906101000a900473ffffffffffffffffffffffffffffffffffffffff1673ffffffffffffffffffffffffffffffffffffffff16637f3d39bd868481518110612c0e57612c0d614e70565b5b60200260200101516040518263ffffffff1660e01b8152600401612c329190614bc3565b600060405180830381865afa158015612c4f573d6000803e3d6000fd5b505050506040513d6000823e3d601f19601f82011682018060405250810190612c789190615c0b565b9091929350909150905050809150508073ffffffffffffffffffffffffffffffffffffffff16888481518110612cb157612cb0614e70565b5b60200260200101516020015173ffffffffffffffffffffffffffffffffffffffff1603612ce2576001935050612cf6565b508080612cee90614ece565b915050612bb2565b506000151582151503612d3e576040517f08c379a0000000000000000000000000000000000000000000000000000000008152600401612d3590615d72565b60405180910390fd5b8080612d4990614ece565b915050612a6f565b506000808803612e1b57600260009054906101000a900473ffffffffffffffffffffffffffffffffffffffff1673ffffffffffffffffffffffffffffffffffffffff1663de508c5b338c6040518363ffffffff1660e01b8152600401612db8929190615d92565b600060405180830381865afa158015612dd5573d6000803e3d6000fd5b505050506040513d6000823e3d601f19601f82011682018060405250810190612dfe9190615dbb565b909192939450909192935090919250909150905080915050612ee2565b60018803612ee157600260009054906101000a900473ffffffffffffffffffffffffffffffffffffffff1673ffffffffffffffffffffffffffffffffffffffff16630220044b338c8a6040518463ffffffff1660e01b8152600401612e8293929190614d65565b600060405180830381865afa158015612e9f573d6000803e3d6000fd5b505050506040513d6000823e3d601f19601f82011682018060405250810190612ec89190615dbb565b9091929394509091929350909192509091509050809150505b5b600080600090505b8751811015612f3257878181518110612f0657612f05614e70565b5b60200260200101516000015182612f1d9190615874565b91508080612f2a90614ece565b915050612eea565b506064811115612f77576040517f08c379a0000000000000000000000000000000000000000000000000000000008152600401612f6e90615efc565b60405180910390fd5b8161301857600260009054906101000a900473ffffffffffffffffffffffffffffffffffffffff1673ffffffffffffffffffffffffffffffffffffffff166325cb763a338d8d8d8d876040518763ffffffff1660e01b8152600401612fe196959493929190615f1c565b600060405180830381600087803b158015612ffb57600080fd5b505af115801561300f573d6000803e3d6000fd5b5050505061343e565b6000600860009054906101000a900473ffffffffffffffffffffffffffffffffffffffff16905060008a03613217576005548173ffffffffffffffffffffffffffffffffffffffff1663dd62ed3e33306040518363ffffffff1660e01b8152600401613085929190615d92565b602060405180830381865afa1580156130a2573d6000803e3d6000fd5b505050506040513d601f19601f820116820180604052508101906130c691906158a8565b1015613107576040517f08c379a00000000000000000000000000000000000000000000000000000000081526004016130fe90615ff6565b60405180910390fd5b8073ffffffffffffffffffffffffffffffffffffffff166323b872dd33306005546040518463ffffffff1660e01b815260040161314693929190614d65565b6020604051808303816000875af1158015613165573d6000803e3d6000fd5b505050506040513d601f19601f820116820180604052508101906131899190614db1565b50600960003373ffffffffffffffffffffffffffffffffffffffff1673ffffffffffffffffffffffffffffffffffffffff16815260200190815260200160002060008d73ffffffffffffffffffffffffffffffffffffffff1673ffffffffffffffffffffffffffffffffffffffff16815260200190815260200160002060006132129190613e9b565b61343c565b60018a03613400576006548173ffffffffffffffffffffffffffffffffffffffff1663dd62ed3e33306040518363ffffffff1660e01b815260040161325d929190615d92565b602060405180830381865afa15801561327a573d6000803e3d6000fd5b505050506040513d601f19601f8201168201806040525081019061329e91906158a8565b10156132df576040517f08c379a00000000000000000000000000000000000000000000000000000000081526004016132d690615ff6565b60405180910390fd5b8073ffffffffffffffffffffffffffffffffffffffff166323b872dd33306006546040518463ffffffff1660e01b815260040161331e93929190614d65565b6020604051808303816000875af115801561333d573d6000803e3d6000fd5b505050506040513d601f19601f820116820180604052508101906133619190614db1565b50600c60003373ffffffffffffffffffffffffffffffffffffffff1673ffffffffffffffffffffffffffffffffffffffff16815260200190815260200160002060008d73ffffffffffffffffffffffffffffffffffffffff1673ffffffffffffffffffffffffffffffffffffffff16815260200190815260200160002060008a815260200190815260200160002060006133fb9190613e9b565b61343b565b6040517f08c379a000000000000000000000000000000000000000000000000000000000815260040161343290616088565b60405180910390fd5b5b505b600260009054906101000a900473ffffffffffffffffffffffffffffffffffffffff1673ffffffffffffffffffffffffffffffffffffffff1663b69bd77f338d8b858e6040518663ffffffff1660e01b81526004016134a19594939291906160a8565b600060405180830381600087803b1580156134bb57600080fd5b505af11580156134cf573d6000803e3d6000fd5b50505050600089036136ad5760005b87518110156136a757600960003373ffffffffffffffffffffffffffffffffffffffff1673ffffffffffffffffffffffffffffffffffffffff16815260200190815260200160002060008d73ffffffffffffffffffffffffffffffffffffffff1673ffffffffffffffffffffffffffffffffffffffff16815260200190815260200160002088828151811061357657613575614e70565b5b602002602001015190806001815401808255809150506001900390600052602060002090600602016000909190919091506000820151816000015560208201518160010160006101000a81548173ffffffffffffffffffffffffffffffffffffffff021916908373ffffffffffffffffffffffffffffffffffffffff16021790555060408201518160020160006101000a81548173ffffffffffffffffffffffffffffffffffffffff021916908373ffffffffffffffffffffffffffffffffffffffff160217905550606082015181600301908051906020019061365b929190613ebf565b5060808201518160040160006101000a81548160ff02191690831515021790555060a08201518160050190816136919190615207565b505050808061369f90614ece565b9150506134de565b50613895565b600189036138945760005b875181101561389257600c60003373ffffffffffffffffffffffffffffffffffffffff1673ffffffffffffffffffffffffffffffffffffffff16815260200190815260200160002060008d73ffffffffffffffffffffffffffffffffffffffff1673ffffffffffffffffffffffffffffffffffffffff16815260200190815260200160002060008a815260200190815260200160002088828151811061376157613760614e70565b5b602002602001015190806001815401808255809150506001900390600052602060002090600602016000909190919091506000820151816000015560208201518160010160006101000a81548173ffffffffffffffffffffffffffffffffffffffff021916908373ffffffffffffffffffffffffffffffffffffffff16021790555060408201518160020160006101000a81548173ffffffffffffffffffffffffffffffffffffffff021916908373ffffffffffffffffffffffffffffffffffffffff1602179055506060820151816003019080519060200190613846929190613ebf565b5060808201518160040160006101000a81548160ff02191690831515021790555060a082015181600501908161387c9190615207565b505050808061388a90614ece565b9150506136b8565b505b5b3373ffffffffffffffffffffffffffffffffffffffff167f356b94cb07d152dfb4f8876f9a6f4c7007027dd30aecb0ac9b698849e14e0e718c8a8c6040516138df939291906160fb565b60405180910390a25050505050505050505050565b60008060009054906101000a900473ffffffffffffffffffffffffffffffffffffffff16905090565b613925613d51565b60008190508073ffffffffffffffffffffffffffffffffffffffff1663a9059cbb33856040518363ffffffff1660e01b8152600401613965929190616132565b6020604051808303816000875af1158015613984573d6000803e3d6000fd5b505050506040513d601f19601f820116820180604052508101906139a89190614db1565b50505050565b60055481565b600c60205283600052604060002060205282600052604060002060205281600052604060002081815481106139e857600080fd5b90600052602060002090600602016000935093505050508060000154908060010160009054906101000a900473ffffffffffffffffffffffffffffffffffffffff16908060020160009054906101000a900473ffffffffffffffffffffffffffffffffffffffff16908060040160009054906101000a900460ff1690806005018054613a7390615034565b80601f0160208091040260200160405190810160405280929190818152602001828054613a9f90615034565b8015613aec5780601f10613ac157610100808354040283529160200191613aec565b820191906000526020600020905b815481529060010190602001808311613acf57829003601f168201915b5050505050905085565b600260009054906101000a900473ffffffffffffffffffffffffffffffffffffffff1681565b60096020528260005260406000206020528160005260406000208181548110613b4457600080fd5b906000526020600020906006020160009250925050508060000154908060010160009054906101000a900473ffffffffffffffffffffffffffffffffffffffff16908060020160009054906101000a900473ffffffffffffffffffffffffffffffffffffffff16908060040160009054906101000a900460ff1690806005018054613bce90615034565b80601f0160208091040260200160405190810160405280929190818152602001828054613bfa90615034565b8015613c475780601f10613c1c57610100808354040283529160200191613c47565b820191906000526020600020905b815481529060010190602001808311613c2a57829003601f168201915b5050505050905085565b60065481565b60075481565b600a602052816000526040600020602052806000526040600020600091509150505481565b600360009054906101000a900473ffffffffffffffffffffffffffffffffffffffff1681565b613cb0613d51565b600073ffffffffffffffffffffffffffffffffffffffff168173ffffffffffffffffffffffffffffffffffffffff1603613d1f576040517f08c379a0000000000000000000000000000000000000000000000000000000008152600401613d16906161cd565b60405180910390fd5b613d2881613dcf565b50565b600460009054906101000a900473ffffffffffffffffffffffffffffffffffffffff1681565b613d59613e93565b73ffffffffffffffffffffffffffffffffffffffff16613d776138f4565b73ffffffffffffffffffffffffffffffffffffffff1614613dcd576040517f08c379a0000000000000000000000000000000000000000000000000000000008152600401613dc490616239565b60405180910390fd5b565b60008060009054906101000a900473ffffffffffffffffffffffffffffffffffffffff169050816000806101000a81548173ffffffffffffffffffffffffffffffffffffffff021916908373ffffffffffffffffffffffffffffffffffffffff1602179055508173ffffffffffffffffffffffffffffffffffffffff168173ffffffffffffffffffffffffffffffffffffffff167f8be0079c531659141344cd1fd0a4f28419497f9722a3daafe3b4186f6b6457e060405160405180910390a35050565b600033905090565b5080546000825560060290600052602060002090810190613ebc9190613f49565b50565b828054828255906000526020600020908101928215613f38579160200282015b82811115613f375782518260006101000a81548173ffffffffffffffffffffffffffffffffffffffff021916908373ffffffffffffffffffffffffffffffffffffffff16021790555091602001919060010190613edf565b5b509050613f459190613fea565b5090565b5b80821115613fe6576000808201600090556001820160006101000a81549073ffffffffffffffffffffffffffffffffffffffff02191690556002820160006101000a81549073ffffffffffffffffffffffffffffffffffffffff0219169055600382016000613fb99190614007565b6004820160006101000a81549060ff0219169055600582016000613fdd9190614028565b50600601613f4a565b5090565b5b80821115614003576000816000905550600101613feb565b5090565b50805460008255906000526020600020908101906140259190613fea565b50565b50805461403490615034565b6000825580601f106140465750614065565b601f0160209004906000526020600020908101906140649190613fea565b5b50565b6000604051905090565b600080fd5b600080fd5b600073ffffffffffffffffffffffffffffffffffffffff82169050919050565b60006140a78261407c565b9050919050565b6140b78161409c565b81146140c257600080fd5b50565b6000813590506140d4816140ae565b92915050565b6000819050919050565b6140ed816140da565b81146140f857600080fd5b50565b60008135905061410a816140e4565b92915050565b6000806000806080858703121561412a57614129614072565b5b6000614138878288016140c5565b9450506020614149878288016140fb565b935050604061415a878288016140fb565b925050606061416b878288016140fb565b91505092959194509250565b6000806000606084860312156141905761418f614072565b5b600061419e868287016140c5565b93505060206141af868287016140c5565b92505060406141c0868287016140fb565b9150509250925092565b600080600080608085870312156141e4576141e3614072565b5b60006141f2878288016140c5565b9450506020614203878288016140c5565b9350506040614214878288016140fb565b9250506060614225878288016140fb565b91505092959194509250565b6000806040838503121561424857614247614072565b5b6000614256858286016140c5565b9250506020614267858286016140c5565b9150509250929050565b60008115159050919050565b61428681614271565b82525050565b60006020820190506142a1600083018461427d565b92915050565b6142b08161409c565b82525050565b60006020820190506142cb60008301846142a7565b92915050565b600080fd5b600080fd5b6000601f19601f8301169050919050565b7f4e487b7100000000000000000000000000000000000000000000000000000000600052604160045260246000fd5b614324826142db565b810181811067ffffffffffffffff82111715614343576143426142ec565b5b80604052505050565b6000614356614068565b9050614362828261431b565b919050565b600067ffffffffffffffff821115614382576143816142ec565b5b61438b826142db565b9050602081019050919050565b82818337600083830152505050565b60006143ba6143b584614367565b61434c565b9050828152602081018484840111156143d6576143d56142d6565b5b6143e1848285614398565b509392505050565b600082601f8301126143fe576143fd6142d1565b5b813561440e8482602086016143a7565b91505092915050565b60008060008060008060c0878903121561443457614433614072565b5b600061444289828a016140c5565b965050602061445389828a016140c5565b955050604061446489828a016140fb565b945050606061447589828a016140fb565b935050608087013567ffffffffffffffff81111561449657614495614077565b5b6144a289828a016143e9565b92505060a06144b389828a016140fb565b9150509295509295509295565b600081519050919050565b600082825260208201905092915050565b6000819050602082019050919050565b6144f5816140da565b82525050565b6145048161409c565b82525050565b600081519050919050565b600082825260208201905092915050565b6000819050602082019050919050565b600061454283836144fb565b60208301905092915050565b6000602082019050919050565b60006145668261450a565b6145708185614515565b935061457b83614526565b8060005b838110156145ac5781516145938882614536565b975061459e8361454e565b92505060018101905061457f565b5085935050505092915050565b6145c281614271565b82525050565b600081519050919050565b600082825260208201905092915050565b60005b838110156146025780820151818401526020810190506145e7565b60008484015250505050565b6000614619826145c8565b61462381856145d3565b93506146338185602086016145e4565b61463c816142db565b840191505092915050565b600060c08301600083015161465f60008601826144ec565b50602083015161467260208601826144fb565b50604083015161468560408601826144fb565b506060830151848203606086015261469d828261455b565b91505060808301516146b260808601826145b9565b5060a083015184820360a08601526146ca828261460e565b9150508091505092915050565b60006146e38383614647565b905092915050565b6000602082019050919050565b6000614703826144c0565b61470d81856144cb565b93508360208202850161471f856144dc565b8060005b8581101561475b578484038952815161473c85826146d7565b9450614747836146eb565b925060208a01995050600181019050614723565b50829750879550505050505092915050565b6000602082019050818103600083015261478781846146f8565b905092915050565b600080600080600060a086880312156147ab576147aa614072565b5b60006147b9888289016140c5565b95505060206147ca888289016140c5565b94505060406147db888289016140fb565b93505060606147ec888289016140fb565b92505060806147fd888289016140fb565b9150509295509295909350565b600067ffffffffffffffff821115614825576148246142ec565b5b602082029050602081019050919050565b600080fd5b600080fd5b600080fd5b600067ffffffffffffffff8211156148605761485f6142ec565b5b602082029050602081019050919050565b600061488461487f84614845565b61434c565b905080838252602082019050602084028301858111156148a7576148a6614836565b5b835b818110156148d057806148bc88826140c5565b8452602084019350506020810190506148a9565b5050509392505050565b600082601f8301126148ef576148ee6142d1565b5b81356148ff848260208601614871565b91505092915050565b61491181614271565b811461491c57600080fd5b50565b60008135905061492e81614908565b92915050565b600060c0828403121561494a5761494961483b565b5b61495460c061434c565b90506000614964848285016140fb565b6000830152506020614978848285016140c5565b602083015250604061498c848285016140c5565b604083015250606082013567ffffffffffffffff8111156149b0576149af614840565b5b6149bc848285016148da565b60608301525060806149d08482850161491f565b60808301525060a082013567ffffffffffffffff8111156149f4576149f3614840565b5b614a00848285016143e9565b60a08301525092915050565b6000614a1f614a1a8461480a565b61434c565b90508083825260208201905060208402830185811115614a4257614a41614836565b5b835b81811015614a8957803567ffffffffffffffff811115614a6757614a666142d1565b5b808601614a748982614934565b85526020850194505050602081019050614a44565b5050509392505050565b600082601f830112614aa857614aa76142d1565b5b8135614ab8848260208601614a0c565b91505092915050565b600080600080600060a08688031215614add57614adc614072565b5b6000614aeb888289016140c5565b955050602086013567ffffffffffffffff811115614b0c57614b0b614077565b5b614b18888289016143e9565b9450506040614b29888289016140fb565b9350506060614b3a888289016140fb565b925050608086013567ffffffffffffffff811115614b5b57614b5a614077565b5b614b6788828901614a93565b9150509295509295909350565b60008060408385031215614b8b57614b8a614072565b5b6000614b99858286016140fb565b9250506020614baa858286016140c5565b9150509250929050565b614bbd816140da565b82525050565b6000602082019050614bd86000830184614bb4565b92915050565b600082825260208201905092915050565b6000614bfa826145c8565b614c048185614bde565b9350614c148185602086016145e4565b614c1d816142db565b840191505092915050565b600060a082019050614c3d6000830188614bb4565b614c4a60208301876142a7565b614c5760408301866142a7565b614c64606083018561427d565b8181036080830152614c768184614bef565b90509695505050505050565b6000819050919050565b6000614ca7614ca2614c9d8461407c565b614c82565b61407c565b9050919050565b6000614cb982614c8c565b9050919050565b6000614ccb82614cae565b9050919050565b614cdb81614cc0565b82525050565b6000602082019050614cf66000830184614cd2565b92915050565b600060208284031215614d1257614d11614072565b5b6000614d20848285016140c5565b91505092915050565b6000614d3482614cae565b9050919050565b614d4481614d29565b82525050565b6000602082019050614d5f6000830184614d3b565b92915050565b6000606082019050614d7a60008301866142a7565b614d8760208301856142a7565b614d946040830184614bb4565b949350505050565b600081519050614dab81614908565b92915050565b600060208284031215614dc757614dc6614072565b5b6000614dd584828501614d9c565b91505092915050565b7f536f7272792120596f752063616e277420636c61696d20746869732e2057652060008201527f77696c6c206d61696c20796f7520746f20636c61696d20746869732e00000000602082015250565b6000614e3a603c83614bde565b9150614e4582614dde565b604082019050919050565b60006020820190508181036000830152614e6981614e2d565b9050919050565b7f4e487b7100000000000000000000000000000000000000000000000000000000600052603260045260246000fd5b7f4e487b7100000000000000000000000000000000000000000000000000000000600052601160045260246000fd5b6000614ed9826140da565b91507fffffffffffffffffffffffffffffffffffffffffffffffffffffffffffffffff8203614f0b57614f0a614e9f565b5b600182019050919050565b7f4f6f70732120596f752063616e277420636c61696d207468697320726967687460008201527f206e6f772e2057652077696c6c20696e666f726d20796f75207768656e20796f60208201527f752063616e20636c61696d2074686520746f6b656e2e00000000000000000000604082015250565b6000614f98605683614bde565b9150614fa382614f16565b606082019050919050565b60006020820190508181036000830152614fc781614f8b565b9050919050565b6000606082019050614fe36000830186614bb4565b614ff06020830185614bb4565b614ffd6040830184614bb4565b949350505050565b7f4e487b7100000000000000000000000000000000000000000000000000000000600052602260045260246000fd5b6000600282049050600182168061504c57607f821691505b60208210810361505f5761505e615005565b5b50919050565b60008190508160005260206000209050919050565b60006020601f8301049050919050565b600082821b905092915050565b6000600883026150c77fffffffffffffffffffffffffffffffffffffffffffffffffffffffffffffffff8261508a565b6150d1868361508a565b95508019841693508086168417925050509392505050565b60006151046150ff6150fa846140da565b614c82565b6140da565b9050919050565b6000819050919050565b61511e836150e9565b61513261512a8261510b565b848454615097565b825550505050565b600090565b61514761513a565b615152818484615115565b505050565b5b818110156151765761516b60008261513f565b600181019050615158565b5050565b601f8211156151bb5761518c81615065565b6151958461507a565b810160208510156151a4578190505b6151b86151b08561507a565b830182615157565b50505b505050565b600082821c905092915050565b60006151de600019846008026151c0565b1980831691505092915050565b60006151f783836151cd565b9150826002028217905092915050565b615210826145c8565b67ffffffffffffffff811115615229576152286142ec565b5b6152338254615034565b61523e82828561517a565b600060209050601f831160018114615271576000841561525f578287015190505b61526985826151eb565b8655506152d1565b601f19841661527f86615065565b60005b828110156152a757848901518255600182019150602085019450602081019050615282565b868310156152c457848901516152c0601f8916826151cd565b8355505b6001600288020188555050505b505050505050565b60006152ec6152e784614367565b61434c565b905082815260208101848484011115615308576153076142d6565b5b6153138482856145e4565b509392505050565b600082601f8301126153305761532f6142d1565b5b81516153408482602086016152d9565b91505092915050565b600081519050615358816140ae565b92915050565b600061537161536c84614845565b61434c565b9050808382526020820190506020840283018581111561539457615393614836565b5b835b818110156153bd57806153a98882615349565b845260208401935050602081019050615396565b5050509392505050565b600082601f8301126153dc576153db6142d1565b5b81516153ec84826020860161535e565b91505092915050565b600067ffffffffffffffff8211156154105761540f6142ec565b5b602082029050602081019050919050565b600081519050615430816140e4565b92915050565b6000615449615444846153f5565b61434c565b9050808382526020820190506020840283018581111561546c5761546b614836565b5b835b8181101561549557806154818882615421565b84526020840193505060208101905061546e565b5050509392505050565b600082601f8301126154b4576154b36142d1565b5b81516154c4848260208601615436565b91505092915050565b60006101a082840312156154e4576154e361483b565b5b6154ef6101a061434c565b9050600082015167ffffffffffffffff81111561550f5761550e614840565b5b61551b8482850161531b565b600083015250602082015167ffffffffffffffff81111561553f5761553e614840565b5b61554b8482850161531b565b602083015250604082015167ffffffffffffffff81111561556f5761556e614840565b5b61557b8482850161531b565b604083015250606082015167ffffffffffffffff81111561559f5761559e614840565b5b6155ab8482850161531b565b60608301525060806155bf84828501614d9c565b60808301525060a06155d384828501614d9c565b60a08301525060c06155e784828501614d9c565b60c08301525060e06155fb84828501615349565b60e08301525061010082015167ffffffffffffffff8111156156205761561f614840565b5b61562c848285016153c7565b6101008301525061012082015167ffffffffffffffff81111561565257615651614840565b5b61565e8482850161549f565b6101208301525061014061567484828501615421565b6101408301525061016061568a84828501615421565b610160830152506101806156a084828501615421565b6101808301525092915050565b6000602082840312156156c3576156c2614072565b5b600082015167ffffffffffffffff8111156156e1576156e0614077565b5b6156ed848285016154cd565b91505092915050565b7f546865207265636f766572792061646472657373206f72206f776e657220616460008201527f647265737320697320696e636f72726563742100000000000000000000000000602082015250565b6000615752603383614bde565b915061575d826156f6565b604082019050919050565b6000602082019050818103600083015261578181615745565b9050919050565b7f536f7272792120596f752068617665206e6f74207265706c69656420746f207560008201527f732e20596f757220617373657473206d617920626520636c61696d656420627960208201527f20746865206e6f6d696e65652e00000000000000000000000000000000000000604082015250565b600061580a604d83614bde565b915061581582615788565b606082019050919050565b60006020820190508181036000830152615839816157fd565b9050919050565b600061584b826140da565b9150615856836140da565b925082820390508181111561586e5761586d614e9f565b5b92915050565b600061587f826140da565b915061588a836140da565b92508282019050808211156158a2576158a1614e9f565b5b92915050565b6000602082840312156158be576158bd614072565b5b60006158cc84828501615421565b91505092915050565b60006158e0826140da565b91506158eb836140da565b92508282026158f9816140da565b915082820484148315176159105761590f614e9f565b5b5092915050565b7f4e487b7100000000000000000000000000000000000000000000000000000000600052601260045260246000fd5b6000615951826140da565b915061595c836140da565b92508261596c5761596b615917565b5b828204905092915050565b7f596f75206d757374206669727374207369676e20757020666f7220616e20616360008201527f636f756e742e0000000000000000000000000000000000000000000000000000602082015250565b60006159d3602683614bde565b91506159de82615977565b604082019050919050565b60006020820190508181036000830152615a02816159c6565b9050919050565b7f596f757220656d61696c20686173206e6f7420796574206265656e2076616c6960008201527f64617465642e2056657269667920796f7572207265676973746572656420656d60208201527f61696c20616464726573732066697273742e0000000000000000000000000000604082015250565b6000615a8b605283614bde565b9150615a9682615a09565b606082019050919050565b60006020820190508181036000830152615aba81615a7e565b9050919050565b600060208284031215615ad757615ad6614072565b5b600082015167ffffffffffffffff811115615af557615af4614077565b5b615b01848285016153c7565b91505092915050565b600060208284031215615b2057615b1f614072565b5b600082015167ffffffffffffffff811115615b3e57615b3d614077565b5b615b4a8482850161549f565b91505092915050565b7f436865636b207468617420616c6c20746865206e6f6d696e65657320796f752060008201527f617265206e6f6d696e6174696e6720617265206164646564206173206e6f6d6960208201527f6e6565732e000000000000000000000000000000000000000000000000000000604082015250565b6000615bd5604583614bde565b9150615be082615b53565b606082019050919050565b60006020820190508181036000830152615c0481615bc8565b9050919050565b600080600080600060a08688031215615c2757615c26614072565b5b6000615c3588828901615421565b9550506020615c4688828901615349565b945050604086015167ffffffffffffffff811115615c6757615c66614077565b5b615c738882890161531b565b935050606086015167ffffffffffffffff811115615c9457615c93614077565b5b615ca08882890161531b565b925050608086015167ffffffffffffffff811115615cc157615cc0614077565b5b615ccd8882890161531b565b9150509295509295909350565b7f436865636b207468617420746865206368617269747920796f7520617265206e60008201527f6f6d696e6174696e67206973206c697374656420617320612077686974652d6c60208201527f697374656420636861726974792e000000000000000000000000000000000000604082015250565b6000615d5c604e83614bde565b9150615d6782615cda565b606082019050919050565b60006020820190508181036000830152615d8b81615d4f565b9050919050565b6000604082019050615da760008301856142a7565b615db460208301846142a7565b9392505050565b60008060008060008060c08789031215615dd857615dd7614072565b5b6000615de689828a01615349565b965050602087015167ffffffffffffffff811115615e0757615e06614077565b5b615e1389828a0161531b565b9550506040615e2489828a01615421565b9450506060615e3589828a01615421565b9350506080615e4689828a01615421565b92505060a0615e5789828a01614d9c565b9150509295509295509295565b7f4f6f70732120596f752063616e206f6e6c7920616c6c6f63617465206120313060008201527f30252073686172652e2054727920746f2072656475636520746865207368617260208201527f6520616d6f756e742e0000000000000000000000000000000000000000000000604082015250565b6000615ee6604983614bde565b9150615ef182615e64565b606082019050919050565b60006020820190508181036000830152615f1581615ed9565b9050919050565b600060c082019050615f3160008301896142a7565b615f3e60208301886142a7565b8181036040830152615f508187614bef565b9050615f5f6060830186614bb4565b615f6c6080830185614bb4565b615f7960a0830184614bb4565b979650505050505050565b7f54686520616c6c6f77616e636520746f2074686520636f6e747261637420697360008201527f206e6f7420656e6f756768210000000000000000000000000000000000000000602082015250565b6000615fe0602c83614bde565b9150615feb82615f84565b604082019050919050565b6000602082019050818103600083015261600f81615fd3565b9050919050565b7f5468652063617465676f72792076616c7565206d757374206265203020666f7260008201527f20746f6b656e7320616e64203120666f72204e46542e00000000000000000000602082015250565b6000616072603683614bde565b915061607d82616016565b604082019050919050565b600060208201905081810360008301526160a181616065565b9050919050565b600060a0820190506160bd60008301886142a7565b6160ca60208301876142a7565b6160d76040830186614bb4565b6160e46060830185614bb4565b6160f16080830184614bb4565b9695505050505050565b600060608201905061611060008301866142a7565b61611d6020830185614bb4565b61612a6040830184614bb4565b949350505050565b600060408201905061614760008301856142a7565b6161546020830184614bb4565b9392505050565b7f4f776e61626c653a206e6577206f776e657220697320746865207a65726f206160008201527f6464726573730000000000000000000000000000000000000000000000000000602082015250565b60006161b7602683614bde565b91506161c28261615b565b604082019050919050565b600060208201905081810360008301526161e6816161aa565b9050919050565b7f4f776e61626c653a2063616c6c6572206973206e6f7420746865206f776e6572600082015250565b6000616223602083614bde565b915061622e826161ed565b602082019050919050565b6000602082019050818103600083015261625281616216565b905091905056fea264697066735822122019d36b299921485a4f72f3db394f892f072dc591c8a904001f80ac81057cb25564736f6c63430008110033",
  "linkReferences": {},
  "deployedLinkReferences": {}
}