{
  "_format": "hh-sol-artifact-1",
  "contractName": "MultiplePriorityNominee",
  "sourceName": "contracts/MultiplePriorityNominee.sol",
  "abi": [
    {
      "inputs": [
        {
          "internalType": "address",
          "name": "_inheritokensAddress",
          "type": "address"
        },
        {
          "internalType": "address",
          "name": "_charityContractAddress",
          "type": "address"
        }
      ],
      "stateMutability": "nonpayable",
      "type": "constructor"
    },
    {
      "anonymous": false,
      "inputs": [
        {
          "indexed": true,
          "internalType": "address",
          "name": "_owner",
          "type": "address"
        },
        {
          "indexed": true,
          "internalType": "address",
          "name": "_nominee",
          "type": "address"
        },
        {
          "indexed": true,
          "internalType": "address",
          "name": "_tokenAddress",
          "type": "address"
        },
        {
          "indexed": false,
          "internalType": "uint256",
          "name": "_tokenId",
          "type": "uint256"
        },
        {
          "indexed": false,
          "internalType": "uint256",
          "name": "_amount",
          "type": "uint256"
        },
        {
          "indexed": false,
          "internalType": "uint256",
          "name": "_category",
          "type": "uint256"
        }
      ],
      "name": "Claimed",
      "type": "event"
    },
    {
      "anonymous": false,
      "inputs": [
        {
          "indexed": true,
          "internalType": "address",
          "name": "previousOwner",
          "type": "address"
        },
        {
          "indexed": true,
          "internalType": "address",
          "name": "newOwner",
          "type": "address"
        }
      ],
      "name": "OwnershipTransferred",
      "type": "event"
    },
    {
      "anonymous": false,
      "inputs": [
        {
          "indexed": true,
          "internalType": "address",
          "name": "_owner",
          "type": "address"
        },
        {
          "indexed": true,
          "internalType": "address",
          "name": "_tokenAddress",
          "type": "address"
        },
        {
          "indexed": false,
          "internalType": "uint256",
          "name": "_tokenId",
          "type": "uint256"
        },
        {
          "indexed": false,
          "internalType": "uint256",
          "name": "_amount",
          "type": "uint256"
        },
        {
          "indexed": false,
          "internalType": "uint256",
          "name": "_category",
          "type": "uint256"
        }
      ],
      "name": "Recovered",
      "type": "event"
    },
    {
      "anonymous": false,
      "inputs": [
        {
          "indexed": true,
          "internalType": "address",
          "name": "_owner",
          "type": "address"
        },
        {
          "indexed": false,
          "internalType": "address",
          "name": "_tokenAddress",
          "type": "address"
        },
        {
          "indexed": false,
          "internalType": "uint256",
          "name": "_tokenId",
          "type": "uint256"
        },
        {
          "indexed": false,
          "internalType": "uint256",
          "name": "_category",
          "type": "uint256"
        }
      ],
      "name": "TokensAssigned",
      "type": "event"
    },
    {
      "inputs": [
        {
          "internalType": "address",
          "name": "_tokenAddress",
          "type": "address"
        },
        {
          "internalType": "string",
          "name": "_tokenName",
          "type": "string"
        },
        {
          "internalType": "uint256",
          "name": "_category",
          "type": "uint256"
        },
        {
          "internalType": "uint256",
          "name": "_tokenId",
          "type": "uint256"
        },
        {
          "components": [
            {
              "internalType": "uint256",
              "name": "share",
              "type": "uint256"
            },
            {
              "internalType": "address",
              "name": "charityAddress",
              "type": "address"
            },
            {
              "internalType": "address",
              "name": "canClaim",
              "type": "address"
            },
            {
              "internalType": "address[]",
              "name": "nominee",
              "type": "address[]"
            },
            {
              "internalType": "bool",
              "name": "isClaimed",
              "type": "bool"
            }
          ],
          "internalType": "struct MultiplePriorityNominee.MultiplePriority[]",
          "name": "data",
          "type": "tuple[]"
        }
      ],
      "name": "assignTokensToMultipleNominees",
      "outputs": [],
      "stateMutability": "nonpayable",
      "type": "function"
    },
    {
      "inputs": [
        {
          "internalType": "address",
          "name": "_tokenAddress",
          "type": "address"
        },
        {
          "internalType": "uint256",
          "name": "_tokenCharge",
          "type": "uint256"
        },
        {
          "internalType": "uint256",
          "name": "_nftCharge",
          "type": "uint256"
        },
        {
          "internalType": "uint256",
          "name": "_percentage",
          "type": "uint256"
        }
      ],
      "name": "changeCharges",
      "outputs": [],
      "stateMutability": "nonpayable",
      "type": "function"
    },
    {
      "inputs": [],
      "name": "chargeTokenAddress",
      "outputs": [
        {
          "internalType": "address",
          "name": "",
          "type": "address"
        }
      ],
      "stateMutability": "view",
      "type": "function"
    },
    {
      "inputs": [],
      "name": "charityContract",
      "outputs": [
        {
          "internalType": "contract CharityContract",
          "name": "",
          "type": "address"
        }
      ],
      "stateMutability": "view",
      "type": "function"
    },
    {
      "inputs": [],
      "name": "charityContractAddress",
      "outputs": [
        {
          "internalType": "address",
          "name": "",
          "type": "address"
        }
      ],
      "stateMutability": "view",
      "type": "function"
    },
    {
      "inputs": [
        {
          "internalType": "address",
          "name": "_owner",
          "type": "address"
        },
        {
          "internalType": "address",
          "name": "_tokenAddress",
          "type": "address"
        },
        {
          "internalType": "uint256",
          "name": "_tokenId",
          "type": "uint256"
        },
        {
          "internalType": "uint256",
          "name": "_category",
          "type": "uint256"
        }
      ],
      "name": "claim",
      "outputs": [],
      "stateMutability": "nonpayable",
      "type": "function"
    },
    {
      "inputs": [],
      "name": "inheritokens",
      "outputs": [
        {
          "internalType": "contract Inheritokens",
          "name": "",
          "type": "address"
        }
      ],
      "stateMutability": "view",
      "type": "function"
    },
    {
      "inputs": [],
      "name": "inheritokensAddress",
      "outputs": [
        {
          "internalType": "address",
          "name": "",
          "type": "address"
        }
      ],
      "stateMutability": "view",
      "type": "function"
    },
    {
      "inputs": [],
      "name": "nftCharge",
      "outputs": [
        {
          "internalType": "uint256",
          "name": "",
          "type": "uint256"
        }
      ],
      "stateMutability": "view",
      "type": "function"
    },
    {
      "inputs": [
        {
          "internalType": "address",
          "name": "_owner",
          "type": "address"
        },
        {
          "internalType": "address",
          "name": "_tokenAddress",
          "type": "address"
        },
        {
          "internalType": "uint256",
          "name": "_tokenId",
          "type": "uint256"
        }
      ],
      "name": "nftTransferLogic",
      "outputs": [],
      "stateMutability": "nonpayable",
      "type": "function"
    },
    {
      "inputs": [
        {
          "internalType": "address",
          "name": "",
          "type": "address"
        },
        {
          "internalType": "address",
          "name": "",
          "type": "address"
        }
      ],
      "name": "notFirst",
      "outputs": [
        {
          "internalType": "bool",
          "name": "",
          "type": "bool"
        }
      ],
      "stateMutability": "view",
      "type": "function"
    },
    {
      "inputs": [],
      "name": "owner",
      "outputs": [
        {
          "internalType": "address",
          "name": "",
          "type": "address"
        }
      ],
      "stateMutability": "view",
      "type": "function"
    },
    {
      "inputs": [
        {
          "internalType": "address",
          "name": "",
          "type": "address"
        },
        {
          "internalType": "address",
          "name": "",
          "type": "address"
        },
        {
          "internalType": "uint256",
          "name": "",
          "type": "uint256"
        },
        {
          "internalType": "uint256",
          "name": "",
          "type": "uint256"
        }
      ],
      "name": "ownerToNFTToStruct",
      "outputs": [
        {
          "internalType": "uint256",
          "name": "share",
          "type": "uint256"
        },
        {
          "internalType": "address",
          "name": "charityAddress",
          "type": "address"
        },
        {
          "internalType": "address",
          "name": "canClaim",
          "type": "address"
        },
        {
          "internalType": "bool",
          "name": "isClaimed",
          "type": "bool"
        }
      ],
      "stateMutability": "view",
      "type": "function"
    },
    {
      "inputs": [
        {
          "internalType": "address",
          "name": "",
          "type": "address"
        },
        {
          "internalType": "address",
          "name": "",
          "type": "address"
        },
        {
          "internalType": "uint256",
          "name": "",
          "type": "uint256"
        }
      ],
      "name": "ownerToTokenToStruct",
      "outputs": [
        {
          "internalType": "uint256",
          "name": "share",
          "type": "uint256"
        },
        {
          "internalType": "address",
          "name": "charityAddress",
          "type": "address"
        },
        {
          "internalType": "address",
          "name": "canClaim",
          "type": "address"
        },
        {
          "internalType": "bool",
          "name": "isClaimed",
          "type": "bool"
        }
      ],
      "stateMutability": "view",
      "type": "function"
    },
    {
      "inputs": [],
      "name": "percentage",
      "outputs": [
        {
          "internalType": "uint256",
          "name": "",
          "type": "uint256"
        }
      ],
      "stateMutability": "view",
      "type": "function"
    },
    {
      "inputs": [
        {
          "internalType": "address",
          "name": "_owner",
          "type": "address"
        },
        {
          "internalType": "address",
          "name": "_tokenAddress",
          "type": "address"
        },
        {
          "internalType": "uint256",
          "name": "_tokenId",
          "type": "uint256"
        },
        {
          "internalType": "uint256",
          "name": "_category",
          "type": "uint256"
        }
      ],
      "name": "recoveryClaim",
      "outputs": [],
      "stateMutability": "nonpayable",
      "type": "function"
    },
    {
      "inputs": [],
      "name": "renounceOwnership",
      "outputs": [],
      "stateMutability": "nonpayable",
      "type": "function"
    },
    {
      "inputs": [],
      "name": "tokenCharge",
      "outputs": [
        {
          "internalType": "uint256",
          "name": "",
          "type": "uint256"
        }
      ],
      "stateMutability": "view",
      "type": "function"
    },
    {
      "inputs": [
        {
          "internalType": "address",
          "name": "_owner",
          "type": "address"
        },
        {
          "internalType": "address",
          "name": "_tokenAddress",
          "type": "address"
        },
        {
          "internalType": "uint256",
          "name": "_share",
          "type": "uint256"
        }
      ],
      "name": "tokenTransferLogic",
      "outputs": [],
      "stateMutability": "nonpayable",
      "type": "function"
    },
    {
      "inputs": [
        {
          "internalType": "address",
          "name": "",
          "type": "address"
        },
        {
          "internalType": "address",
          "name": "",
          "type": "address"
        }
      ],
      "name": "totalAmount",
      "outputs": [
        {
          "internalType": "uint256",
          "name": "",
          "type": "uint256"
        }
      ],
      "stateMutability": "view",
      "type": "function"
    },
    {
      "inputs": [
        {
          "internalType": "address",
          "name": "newOwner",
          "type": "address"
        }
      ],
      "name": "transferOwnership",
      "outputs": [],
      "stateMutability": "nonpayable",
      "type": "function"
    },
    {
      "inputs": [
        {
          "internalType": "uint256",
          "name": "_amount",
          "type": "uint256"
        },
        {
          "internalType": "address",
          "name": "_tokenAddress",
          "type": "address"
        }
      ],
      "name": "withdrawFromContract",
      "outputs": [],
      "stateMutability": "payable",
      "type": "function"
    }
  ],
  "bytecode": "0x6080604052620f4240600555624c4b40600655600160075573e9dce89b076ba6107bb64ef30678efec11939234600860006101000a81548173ffffffffffffffffffffffffffffffffffffffff021916908373ffffffffffffffffffffffffffffffffffffffff1602179055503480156200007957600080fd5b5060405162004c7138038062004c7183398181016040528101906200009f919062000345565b620000bf620000b36200020f60201b60201c565b6200021760201b60201c565b81600160006101000a81548173ffffffffffffffffffffffffffffffffffffffff021916908373ffffffffffffffffffffffffffffffffffffffff160217905550600160009054906101000a900473ffffffffffffffffffffffffffffffffffffffff16600260006101000a81548173ffffffffffffffffffffffffffffffffffffffff021916908373ffffffffffffffffffffffffffffffffffffffff16021790555080600360006101000a81548173ffffffffffffffffffffffffffffffffffffffff021916908373ffffffffffffffffffffffffffffffffffffffff160217905550600360009054906101000a900473ffffffffffffffffffffffffffffffffffffffff16600460006101000a81548173ffffffffffffffffffffffffffffffffffffffff021916908373ffffffffffffffffffffffffffffffffffffffff16021790555050506200038c565b600033905090565b60008060009054906101000a900473ffffffffffffffffffffffffffffffffffffffff169050816000806101000a81548173ffffffffffffffffffffffffffffffffffffffff021916908373ffffffffffffffffffffffffffffffffffffffff1602179055508173ffffffffffffffffffffffffffffffffffffffff168173ffffffffffffffffffffffffffffffffffffffff167f8be0079c531659141344cd1fd0a4f28419497f9722a3daafe3b4186f6b6457e060405160405180910390a35050565b600080fd5b600073ffffffffffffffffffffffffffffffffffffffff82169050919050565b60006200030d82620002e0565b9050919050565b6200031f8162000300565b81146200032b57600080fd5b50565b6000815190506200033f8162000314565b92915050565b600080604083850312156200035f576200035e620002db565b5b60006200036f858286016200032e565b925050602062000382858286016200032e565b9150509250929050565b6148d5806200039c6000396000f3fe6080604052600436106101355760003560e01c80639605f505116100ab578063c407695b1161006f578063c407695b146103f7578063c78ad77f14610422578063d8948a891461044d578063f1d8eefc1461048a578063f2fde38b146104b5578063f4cd5465146104de57610135565b80639605f505146103055780639b25202314610321578063a64ad61f1461034c578063be27c3fe1461038c578063bea7d6ac146103b757610135565b80634ab3a732116100fd5780634ab3a7321461021d5780635c042ae7146102465780635e77177514610271578063715018a61461029a57806379cf3077146102b15780638da5cb5b146102da57610135565b806303cd42481461013a57806322d5dfbf1461016357806326af48321461018c5780633765aae8146101b557806346f17152146101f2575b600080fd5b34801561014657600080fd5b50610161600480360381019061015c9190612e2d565b610509565b005b34801561016f57600080fd5b5061018a60048036038101906101859190612e94565b61056d565b005b34801561019857600080fd5b506101b360048036038101906101ae9190612ee7565b6105e7565b005b3480156101c157600080fd5b506101dc60048036038101906101d79190612f4e565b610f09565b6040516101e99190612fa9565b60405180910390f35b3480156101fe57600080fd5b50610207610f38565b6040516102149190612fd3565b60405180910390f35b34801561022957600080fd5b50610244600480360381019061023f9190612ee7565b610f5e565b005b34801561025257600080fd5b5061025b6111ec565b6040516102689190612fd3565b60405180910390f35b34801561027d57600080fd5b50610298600480360381019061029391906133bb565b611212565b005b3480156102a657600080fd5b506102af612374565b005b3480156102bd57600080fd5b506102d860048036038101906102d39190612e94565b612388565b005b3480156102e657600080fd5b506102ef61277d565b6040516102fc9190612fd3565b60405180910390f35b61031f600480360381019061031a919061346e565b6127a6565b005b34801561032d57600080fd5b50610336612837565b60405161034391906134bd565b60405180910390f35b34801561035857600080fd5b50610373600480360381019061036e9190612ee7565b61283d565b60405161038394939291906134d8565b60405180910390f35b34801561039857600080fd5b506103a16128f1565b6040516103ae919061357c565b60405180910390f35b3480156103c357600080fd5b506103de60048036038101906103d99190612e94565b612917565b6040516103ee94939291906134d8565b60405180910390f35b34801561040357600080fd5b5061040c6129be565b60405161041991906134bd565b60405180910390f35b34801561042e57600080fd5b506104376129c4565b60405161044491906134bd565b60405180910390f35b34801561045957600080fd5b50610474600480360381019061046f9190612f4e565b6129ca565b60405161048191906134bd565b60405180910390f35b34801561049657600080fd5b5061049f6129ef565b6040516104ac9190612fd3565b60405180910390f35b3480156104c157600080fd5b506104dc60048036038101906104d79190613597565b612a15565b005b3480156104ea57600080fd5b506104f3612a98565b60405161050091906135e5565b60405180910390f35b610511612abe565b83600860006101000a81548173ffffffffffffffffffffffffffffffffffffffff021916908373ffffffffffffffffffffffffffffffffffffffff16021790555082600581905550816006819055508060078190555050505050565b60008290508073ffffffffffffffffffffffffffffffffffffffff166323b872dd8533856040518463ffffffff1660e01b81526004016105af93929190613600565b600060405180830381600087803b1580156105c957600080fd5b505af11580156105dd573d6000803e3d6000fd5b5050505050505050565b600260009054906101000a900473ffffffffffffffffffffffffffffffffffffffff1673ffffffffffffffffffffffffffffffffffffffff16633d4c12d7856040518263ffffffff1660e01b81526004016106429190612fd3565b602060405180830381865afa15801561065f573d6000803e3d6000fd5b505050506040513d601f19601f82011682018060405250810190610683919061364c565b6106c2576040517f08c379a00000000000000000000000000000000000000000000000000000000081526004016106b9906136fc565b60405180910390fd5b60008060008303610ad35760005b600960008873ffffffffffffffffffffffffffffffffffffffff1673ffffffffffffffffffffffffffffffffffffffff16815260200190815260200160002060008773ffffffffffffffffffffffffffffffffffffffff1673ffffffffffffffffffffffffffffffffffffffff16815260200190815260200160002080549050811015610a86573373ffffffffffffffffffffffffffffffffffffffff16600960008973ffffffffffffffffffffffffffffffffffffffff1673ffffffffffffffffffffffffffffffffffffffff16815260200190815260200160002060008873ffffffffffffffffffffffffffffffffffffffff1673ffffffffffffffffffffffffffffffffffffffff16815260200190815260200160002082815481106107fc576107fb61371c565b5b906000526020600020906005020160020160009054906101000a900473ffffffffffffffffffffffffffffffffffffffff1673ffffffffffffffffffffffffffffffffffffffff16148015610901575060001515600960008973ffffffffffffffffffffffffffffffffffffffff1673ffffffffffffffffffffffffffffffffffffffff16815260200190815260200160002060008873ffffffffffffffffffffffffffffffffffffffff1673ffffffffffffffffffffffffffffffffffffffff16815260200190815260200160002082815481106108de576108dd61371c565b5b906000526020600020906005020160040160009054906101000a900460ff161515145b15610a73576000600960008973ffffffffffffffffffffffffffffffffffffffff1673ffffffffffffffffffffffffffffffffffffffff16815260200190815260200160002060008873ffffffffffffffffffffffffffffffffffffffff1673ffffffffffffffffffffffffffffffffffffffff16815260200190815260200160002082815481106109965761099561371c565b5b90600052602060002090600502016000015490506109b5888883612388565b6001600960008a73ffffffffffffffffffffffffffffffffffffffff1673ffffffffffffffffffffffffffffffffffffffff16815260200190815260200160002060008973ffffffffffffffffffffffffffffffffffffffff1673ffffffffffffffffffffffffffffffffffffffff1681526020019081526020016000208381548110610a4557610a4461371c565b5b906000526020600020906005020160040160006101000a81548160ff02191690831515021790555060019250505b8080610a7e9061377a565b9150506106d0565b506000151581151503610ace576040517f08c379a0000000000000000000000000000000000000000000000000000000008152600401610ac59061385a565b60405180910390fd5b610e81565b60018303610e805760005b600c60008873ffffffffffffffffffffffffffffffffffffffff1673ffffffffffffffffffffffffffffffffffffffff16815260200190815260200160002060008773ffffffffffffffffffffffffffffffffffffffff1673ffffffffffffffffffffffffffffffffffffffff168152602001908152602001600020600086815260200190815260200160002080549050811015610e37573373ffffffffffffffffffffffffffffffffffffffff16600c60008973ffffffffffffffffffffffffffffffffffffffff1673ffffffffffffffffffffffffffffffffffffffff16815260200190815260200160002060008873ffffffffffffffffffffffffffffffffffffffff1673ffffffffffffffffffffffffffffffffffffffff16815260200190815260200160002060008781526020019081526020016000208281548110610c2c57610c2b61371c565b5b906000526020600020906005020160020160009054906101000a900473ffffffffffffffffffffffffffffffffffffffff1673ffffffffffffffffffffffffffffffffffffffff16148015610d42575060001515600c60008973ffffffffffffffffffffffffffffffffffffffff1673ffffffffffffffffffffffffffffffffffffffff16815260200190815260200160002060008873ffffffffffffffffffffffffffffffffffffffff1673ffffffffffffffffffffffffffffffffffffffff16815260200190815260200160002060008781526020019081526020016000208281548110610d1f57610d1e61371c565b5b906000526020600020906005020160040160009054906101000a900460ff161515145b15610e2457610d5287878761056d565b6001600c60008973ffffffffffffffffffffffffffffffffffffffff1673ffffffffffffffffffffffffffffffffffffffff16815260200190815260200160002060008873ffffffffffffffffffffffffffffffffffffffff1673ffffffffffffffffffffffffffffffffffffffff16815260200190815260200160002060008781526020019081526020016000208281548110610df357610df261371c565b5b906000526020600020906005020160040160006101000a81548160ff02191690831515021790555060019150610e37565b8080610e2f9061377a565b915050610ade565b506000151581151503610e7f576040517f08c379a0000000000000000000000000000000000000000000000000000000008152600401610e769061385a565b60405180910390fd5b5b5b8473ffffffffffffffffffffffffffffffffffffffff163373ffffffffffffffffffffffffffffffffffffffff168773ffffffffffffffffffffffffffffffffffffffff167f5ccac6a981ee0d2404d2487672d204c80cc526da4f51e90dd5ae4cfe880a9add878688604051610ef99392919061387a565b60405180910390a4505050505050565b600b6020528160005260406000206020528060005260406000206000915091509054906101000a900460ff1681565b600160009054906101000a900473ffffffffffffffffffffffffffffffffffffffff1681565b3373ffffffffffffffffffffffffffffffffffffffff16600260009054906101000a900473ffffffffffffffffffffffffffffffffffffffff1673ffffffffffffffffffffffffffffffffffffffff1663c3bb8121866040518263ffffffff1660e01b8152600401610fd09190612fd3565b600060405180830381865afa158015610fed573d6000803e3d6000fd5b505050506040513d6000823e3d601f19601f820116820180604052508101906110169190613caf565b60e0015173ffffffffffffffffffffffffffffffffffffffff1614611070576040517f08c379a000000000000000000000000000000000000000000000000000000000815260040161106790613d6a565b60405180910390fd5b600260009054906101000a900473ffffffffffffffffffffffffffffffffffffffff1673ffffffffffffffffffffffffffffffffffffffff16633d4c12d7856040518263ffffffff1660e01b81526004016110cb9190612fd3565b602060405180830381865afa1580156110e8573d6000803e3d6000fd5b505050506040513d601f19601f8201168201806040525081019061110c919061364c565b1561114c576040517f08c379a000000000000000000000000000000000000000000000000000000000815260040161114390613e22565b60405180910390fd5b60008082036111665761116185856064612388565b61117c565b600083111561117b5761117a85858561056d565b5b5b8373ffffffffffffffffffffffffffffffffffffffff168573ffffffffffffffffffffffffffffffffffffffff167faa3446f866f557932f6c5a4933379c0e3e3fd6dcc0a20cfae5222255ffd16bdd8584866040516111dd9392919061387a565b60405180910390a35050505050565b600860009054906101000a900473ffffffffffffffffffffffffffffffffffffffff1681565b600260009054906101000a900473ffffffffffffffffffffffffffffffffffffffff1673ffffffffffffffffffffffffffffffffffffffff16630f1f8c05336040518263ffffffff1660e01b815260040161126d9190612fd3565b602060405180830381865afa15801561128a573d6000803e3d6000fd5b505050506040513d601f19601f820116820180604052508101906112ae919061364c565b6112ed576040517f08c379a00000000000000000000000000000000000000000000000000000000081526004016112e490613eb4565b60405180910390fd5b600260009054906101000a900473ffffffffffffffffffffffffffffffffffffffff1673ffffffffffffffffffffffffffffffffffffffff166315b79630336040518263ffffffff1660e01b81526004016113489190612fd3565b602060405180830381865afa158015611365573d6000803e3d6000fd5b505050506040513d601f19601f82011682018060405250810190611389919061364c565b6113c8576040517f08c379a00000000000000000000000000000000000000000000000000000000081526004016113bf90613f6c565b60405180910390fd5b6000600260009054906101000a900473ffffffffffffffffffffffffffffffffffffffff1673ffffffffffffffffffffffffffffffffffffffff166320e4ab6a336040518263ffffffff1660e01b81526004016114259190612fd3565b600060405180830381865afa158015611442573d6000803e3d6000fd5b505050506040513d6000823e3d601f19601f8201168201806040525081019061146b9190613f8c565b9050600080600260009054906101000a900473ffffffffffffffffffffffffffffffffffffffff1673ffffffffffffffffffffffffffffffffffffffff166345bceabd336040518263ffffffff1660e01b81526004016114cb9190612fd3565b600060405180830381865afa1580156114e8573d6000803e3d6000fd5b505050506040513d6000823e3d601f19601f820116820180604052508101906115119190613fd5565b9050600080600090505b85518110156117fd5760005b86828151811061153a5761153961371c565b5b6020026020010151606001515181101561165a576000945060005b86518110156115ff578681815181106115715761157061371c565b5b602002602001015173ffffffffffffffffffffffffffffffffffffffff168884815181106115a2576115a161371c565b5b60200260200101516060015183815181106115c0576115bf61371c565b5b602002602001015173ffffffffffffffffffffffffffffffffffffffff16036115ec57600195506115ff565b80806115f79061377a565b915050611555565b506000151585151503611647576040517f08c379a000000000000000000000000000000000000000000000000000000000815260040161163e906140b6565b60405180910390fd5b80806116529061377a565b915050611527565b5060005b83518110156117a2576000600460009054906101000a900473ffffffffffffffffffffffffffffffffffffffff1673ffffffffffffffffffffffffffffffffffffffff16637f3d39bd8684815181106116ba576116b961371c565b5b60200260200101516040518263ffffffff1660e01b81526004016116de91906134bd565b600060405180830381865afa1580156116fb573d6000803e3d6000fd5b505050506040513d6000823e3d601f19601f8201168201806040525081019061172491906140d6565b9091929350909150905050809150508073ffffffffffffffffffffffffffffffffffffffff1688848151811061175d5761175c61371c565b5b60200260200101516020015173ffffffffffffffffffffffffffffffffffffffff160361178e5760019350506117a2565b50808061179a9061377a565b91505061165e565b5060001515821515036117ea576040517f08c379a00000000000000000000000000000000000000000000000000000000081526004016117e19061423d565b60405180910390fd5b80806117f59061377a565b91505061151b565b5060008088036118c757600260009054906101000a900473ffffffffffffffffffffffffffffffffffffffff1673ffffffffffffffffffffffffffffffffffffffff1663de508c5b338c6040518363ffffffff1660e01b815260040161186492919061425d565b600060405180830381865afa158015611881573d6000803e3d6000fd5b505050506040513d6000823e3d601f19601f820116820180604052508101906118aa9190614286565b90919293945090919293509091925090915090508091505061198e565b6001880361198d57600260009054906101000a900473ffffffffffffffffffffffffffffffffffffffff1673ffffffffffffffffffffffffffffffffffffffff16630220044b338c8a6040518463ffffffff1660e01b815260040161192e93929190613600565b600060405180830381865afa15801561194b573d6000803e3d6000fd5b505050506040513d6000823e3d601f19601f820116820180604052508101906119749190614286565b9091929394509091929350909192509091509050809150505b5b600080600090505b87518110156119de578781815181106119b2576119b161371c565b5b602002602001015160000151826119c9919061432f565b915080806119d69061377a565b915050611996565b506064811115611a23576040517f08c379a0000000000000000000000000000000000000000000000000000000008152600401611a1a906143fb565b60405180910390fd5b81611ac457600260009054906101000a900473ffffffffffffffffffffffffffffffffffffffff1673ffffffffffffffffffffffffffffffffffffffff166325cb763a338d8d8d8d876040518763ffffffff1660e01b8152600401611a8d9695949392919061445f565b600060405180830381600087803b158015611aa757600080fd5b505af1158015611abb573d6000803e3d6000fd5b50505050611eea565b6000600860009054906101000a900473ffffffffffffffffffffffffffffffffffffffff16905060008a03611cc3576005548173ffffffffffffffffffffffffffffffffffffffff1663dd62ed3e33306040518363ffffffff1660e01b8152600401611b3192919061425d565b602060405180830381865afa158015611b4e573d6000803e3d6000fd5b505050506040513d601f19601f82011682018060405250810190611b7291906144c7565b1015611bb3576040517f08c379a0000000000000000000000000000000000000000000000000000000008152600401611baa90614566565b60405180910390fd5b8073ffffffffffffffffffffffffffffffffffffffff166323b872dd33306005546040518463ffffffff1660e01b8152600401611bf293929190613600565b6020604051808303816000875af1158015611c11573d6000803e3d6000fd5b505050506040513d601f19601f82011682018060405250810190611c35919061364c565b50600960003373ffffffffffffffffffffffffffffffffffffffff1673ffffffffffffffffffffffffffffffffffffffff16815260200190815260200160002060008d73ffffffffffffffffffffffffffffffffffffffff1673ffffffffffffffffffffffffffffffffffffffff1681526020019081526020016000206000611cbe9190612c08565b611ee8565b60018a03611eac576006548173ffffffffffffffffffffffffffffffffffffffff1663dd62ed3e33306040518363ffffffff1660e01b8152600401611d0992919061425d565b602060405180830381865afa158015611d26573d6000803e3d6000fd5b505050506040513d601f19601f82011682018060405250810190611d4a91906144c7565b1015611d8b576040517f08c379a0000000000000000000000000000000000000000000000000000000008152600401611d8290614566565b60405180910390fd5b8073ffffffffffffffffffffffffffffffffffffffff166323b872dd33306006546040518463ffffffff1660e01b8152600401611dca93929190613600565b6020604051808303816000875af1158015611de9573d6000803e3d6000fd5b505050506040513d601f19601f82011682018060405250810190611e0d919061364c565b50600c60003373ffffffffffffffffffffffffffffffffffffffff1673ffffffffffffffffffffffffffffffffffffffff16815260200190815260200160002060008d73ffffffffffffffffffffffffffffffffffffffff1673ffffffffffffffffffffffffffffffffffffffff16815260200190815260200160002060008a81526020019081526020016000206000611ea79190612c08565b611ee7565b6040517f08c379a0000000000000000000000000000000000000000000000000000000008152600401611ede906145f8565b60405180910390fd5b5b505b600260009054906101000a900473ffffffffffffffffffffffffffffffffffffffff1673ffffffffffffffffffffffffffffffffffffffff1663b69bd77f338d8b858e6040518663ffffffff1660e01b8152600401611f4d959493929190614618565b600060405180830381600087803b158015611f6757600080fd5b505af1158015611f7b573d6000803e3d6000fd5b50505050600089036121435760005b875181101561213d57600960003373ffffffffffffffffffffffffffffffffffffffff1673ffffffffffffffffffffffffffffffffffffffff16815260200190815260200160002060008d73ffffffffffffffffffffffffffffffffffffffff1673ffffffffffffffffffffffffffffffffffffffff1681526020019081526020016000208882815181106120225761202161371c565b5b602002602001015190806001815401808255809150506001900390600052602060002090600502016000909190919091506000820151816000015560208201518160010160006101000a81548173ffffffffffffffffffffffffffffffffffffffff021916908373ffffffffffffffffffffffffffffffffffffffff16021790555060408201518160020160006101000a81548173ffffffffffffffffffffffffffffffffffffffff021916908373ffffffffffffffffffffffffffffffffffffffff1602179055506060820151816003019080519060200190612107929190612c2c565b5060808201518160040160006101000a81548160ff021916908315150217905550505080806121359061377a565b915050611f8a565b50612315565b600189036123145760005b875181101561231257600c60003373ffffffffffffffffffffffffffffffffffffffff1673ffffffffffffffffffffffffffffffffffffffff16815260200190815260200160002060008d73ffffffffffffffffffffffffffffffffffffffff1673ffffffffffffffffffffffffffffffffffffffff16815260200190815260200160002060008a81526020019081526020016000208882815181106121f7576121f661371c565b5b602002602001015190806001815401808255809150506001900390600052602060002090600502016000909190919091506000820151816000015560208201518160010160006101000a81548173ffffffffffffffffffffffffffffffffffffffff021916908373ffffffffffffffffffffffffffffffffffffffff16021790555060408201518160020160006101000a81548173ffffffffffffffffffffffffffffffffffffffff021916908373ffffffffffffffffffffffffffffffffffffffff16021790555060608201518160030190805190602001906122dc929190612c2c565b5060808201518160040160006101000a81548160ff0219169083151502179055505050808061230a9061377a565b91505061214e565b505b5b3373ffffffffffffffffffffffffffffffffffffffff167f356b94cb07d152dfb4f8876f9a6f4c7007027dd30aecb0ac9b698849e14e0e718c8a8c60405161235f9392919061466b565b60405180910390a25050505050505050505050565b61237c612abe565b6123866000612b3c565b565b6000829050600b60008573ffffffffffffffffffffffffffffffffffffffff1673ffffffffffffffffffffffffffffffffffffffff16815260200190815260200160002060008473ffffffffffffffffffffffffffffffffffffffff1673ffffffffffffffffffffffffffffffffffffffff16815260200190815260200160002060009054906101000a900460ff166125ab578073ffffffffffffffffffffffffffffffffffffffff166370a08231856040518263ffffffff1660e01b81526004016124549190612fd3565b602060405180830381865afa158015612471573d6000803e3d6000fd5b505050506040513d601f19601f8201168201806040525081019061249591906144c7565b600a60008673ffffffffffffffffffffffffffffffffffffffff1673ffffffffffffffffffffffffffffffffffffffff16815260200190815260200160002060008573ffffffffffffffffffffffffffffffffffffffff1673ffffffffffffffffffffffffffffffffffffffff168152602001908152602001600020819055506001600b60008673ffffffffffffffffffffffffffffffffffffffff1673ffffffffffffffffffffffffffffffffffffffff16815260200190815260200160002060008573ffffffffffffffffffffffffffffffffffffffff1673ffffffffffffffffffffffffffffffffffffffff16815260200190815260200160002060006101000a81548160ff0219169083151502179055505b6000606483600a60008873ffffffffffffffffffffffffffffffffffffffff1673ffffffffffffffffffffffffffffffffffffffff16815260200190815260200160002060008773ffffffffffffffffffffffffffffffffffffffff1673ffffffffffffffffffffffffffffffffffffffff1681526020019081526020016000205461263791906146a2565b6126419190614713565b905060006127106007548361265691906146a2565b6126609190614713565b9050600081836126709190614744565b90508373ffffffffffffffffffffffffffffffffffffffff166323b872dd8830856040518463ffffffff1660e01b81526004016126af93929190613600565b6020604051808303816000875af11580156126ce573d6000803e3d6000fd5b505050506040513d601f19601f820116820180604052508101906126f2919061364c565b508373ffffffffffffffffffffffffffffffffffffffff166323b872dd8833846040518463ffffffff1660e01b815260040161273093929190613600565b6020604051808303816000875af115801561274f573d6000803e3d6000fd5b505050506040513d601f19601f82011682018060405250810190612773919061364c565b5050505050505050565b60008060009054906101000a900473ffffffffffffffffffffffffffffffffffffffff16905090565b6127ae612abe565b60008190508073ffffffffffffffffffffffffffffffffffffffff1663a9059cbb33856040518363ffffffff1660e01b81526004016127ee929190614778565b6020604051808303816000875af115801561280d573d6000803e3d6000fd5b505050506040513d601f19601f82011682018060405250810190612831919061364c565b50505050565b60055481565b600c602052836000526040600020602052826000526040600020602052816000526040600020818154811061287157600080fd5b90600052602060002090600502016000935093505050508060000154908060010160009054906101000a900473ffffffffffffffffffffffffffffffffffffffff16908060020160009054906101000a900473ffffffffffffffffffffffffffffffffffffffff16908060040160009054906101000a900460ff16905084565b600260009054906101000a900473ffffffffffffffffffffffffffffffffffffffff1681565b6009602052826000526040600020602052816000526040600020818154811061293f57600080fd5b906000526020600020906005020160009250925050508060000154908060010160009054906101000a900473ffffffffffffffffffffffffffffffffffffffff16908060020160009054906101000a900473ffffffffffffffffffffffffffffffffffffffff16908060040160009054906101000a900460ff16905084565b60065481565b60075481565b600a602052816000526040600020602052806000526040600020600091509150505481565b600360009054906101000a900473ffffffffffffffffffffffffffffffffffffffff1681565b612a1d612abe565b600073ffffffffffffffffffffffffffffffffffffffff168173ffffffffffffffffffffffffffffffffffffffff1603612a8c576040517f08c379a0000000000000000000000000000000000000000000000000000000008152600401612a8390614813565b60405180910390fd5b612a9581612b3c565b50565b600460009054906101000a900473ffffffffffffffffffffffffffffffffffffffff1681565b612ac6612c00565b73ffffffffffffffffffffffffffffffffffffffff16612ae461277d565b73ffffffffffffffffffffffffffffffffffffffff1614612b3a576040517f08c379a0000000000000000000000000000000000000000000000000000000008152600401612b319061487f565b60405180910390fd5b565b60008060009054906101000a900473ffffffffffffffffffffffffffffffffffffffff169050816000806101000a81548173ffffffffffffffffffffffffffffffffffffffff021916908373ffffffffffffffffffffffffffffffffffffffff1602179055508173ffffffffffffffffffffffffffffffffffffffff168173ffffffffffffffffffffffffffffffffffffffff167f8be0079c531659141344cd1fd0a4f28419497f9722a3daafe3b4186f6b6457e060405160405180910390a35050565b600033905090565b5080546000825560050290600052602060002090810190612c299190612cb6565b50565b828054828255906000526020600020908101928215612ca5579160200282015b82811115612ca45782518260006101000a81548173ffffffffffffffffffffffffffffffffffffffff021916908373ffffffffffffffffffffffffffffffffffffffff16021790555091602001919060010190612c4c565b5b509050612cb29190612d47565b5090565b5b80821115612d43576000808201600090556001820160006101000a81549073ffffffffffffffffffffffffffffffffffffffff02191690556002820160006101000a81549073ffffffffffffffffffffffffffffffffffffffff0219169055600382016000612d269190612d64565b6004820160006101000a81549060ff021916905550600501612cb7565b5090565b5b80821115612d60576000816000905550600101612d48565b5090565b5080546000825590600052602060002090810190612d829190612d47565b50565b6000604051905090565b600080fd5b600080fd5b600073ffffffffffffffffffffffffffffffffffffffff82169050919050565b6000612dc482612d99565b9050919050565b612dd481612db9565b8114612ddf57600080fd5b50565b600081359050612df181612dcb565b92915050565b6000819050919050565b612e0a81612df7565b8114612e1557600080fd5b50565b600081359050612e2781612e01565b92915050565b60008060008060808587031215612e4757612e46612d8f565b5b6000612e5587828801612de2565b9450506020612e6687828801612e18565b9350506040612e7787828801612e18565b9250506060612e8887828801612e18565b91505092959194509250565b600080600060608486031215612ead57612eac612d8f565b5b6000612ebb86828701612de2565b9350506020612ecc86828701612de2565b9250506040612edd86828701612e18565b9150509250925092565b60008060008060808587031215612f0157612f00612d8f565b5b6000612f0f87828801612de2565b9450506020612f2087828801612de2565b9350506040612f3187828801612e18565b9250506060612f4287828801612e18565b91505092959194509250565b60008060408385031215612f6557612f64612d8f565b5b6000612f7385828601612de2565b9250506020612f8485828601612de2565b9150509250929050565b60008115159050919050565b612fa381612f8e565b82525050565b6000602082019050612fbe6000830184612f9a565b92915050565b612fcd81612db9565b82525050565b6000602082019050612fe86000830184612fc4565b92915050565b600080fd5b600080fd5b6000601f19601f8301169050919050565b7f4e487b7100000000000000000000000000000000000000000000000000000000600052604160045260246000fd5b61304182612ff8565b810181811067ffffffffffffffff821117156130605761305f613009565b5b80604052505050565b6000613073612d85565b905061307f8282613038565b919050565b600067ffffffffffffffff82111561309f5761309e613009565b5b6130a882612ff8565b9050602081019050919050565b82818337600083830152505050565b60006130d76130d284613084565b613069565b9050828152602081018484840111156130f3576130f2612ff3565b5b6130fe8482856130b5565b509392505050565b600082601f83011261311b5761311a612fee565b5b813561312b8482602086016130c4565b91505092915050565b600067ffffffffffffffff82111561314f5761314e613009565b5b602082029050602081019050919050565b600080fd5b600080fd5b600080fd5b600067ffffffffffffffff82111561318a57613189613009565b5b602082029050602081019050919050565b60006131ae6131a98461316f565b613069565b905080838252602082019050602084028301858111156131d1576131d0613160565b5b835b818110156131fa57806131e68882612de2565b8452602084019350506020810190506131d3565b5050509392505050565b600082601f83011261321957613218612fee565b5b813561322984826020860161319b565b91505092915050565b61323b81612f8e565b811461324657600080fd5b50565b60008135905061325881613232565b92915050565b600060a0828403121561327457613273613165565b5b61327e60a0613069565b9050600061328e84828501612e18565b60008301525060206132a284828501612de2565b60208301525060406132b684828501612de2565b604083015250606082013567ffffffffffffffff8111156132da576132d961316a565b5b6132e684828501613204565b60608301525060806132fa84828501613249565b60808301525092915050565b600061331961331484613134565b613069565b9050808382526020820190506020840283018581111561333c5761333b613160565b5b835b8181101561338357803567ffffffffffffffff81111561336157613360612fee565b5b80860161336e898261325e565b8552602085019450505060208101905061333e565b5050509392505050565b600082601f8301126133a2576133a1612fee565b5b81356133b2848260208601613306565b91505092915050565b600080600080600060a086880312156133d7576133d6612d8f565b5b60006133e588828901612de2565b955050602086013567ffffffffffffffff81111561340657613405612d94565b5b61341288828901613106565b945050604061342388828901612e18565b935050606061343488828901612e18565b925050608086013567ffffffffffffffff81111561345557613454612d94565b5b6134618882890161338d565b9150509295509295909350565b6000806040838503121561348557613484612d8f565b5b600061349385828601612e18565b92505060206134a485828601612de2565b9150509250929050565b6134b781612df7565b82525050565b60006020820190506134d260008301846134ae565b92915050565b60006080820190506134ed60008301876134ae565b6134fa6020830186612fc4565b6135076040830185612fc4565b6135146060830184612f9a565b95945050505050565b6000819050919050565b600061354261353d61353884612d99565b61351d565b612d99565b9050919050565b600061355482613527565b9050919050565b600061356682613549565b9050919050565b6135768161355b565b82525050565b6000602082019050613591600083018461356d565b92915050565b6000602082840312156135ad576135ac612d8f565b5b60006135bb84828501612de2565b91505092915050565b60006135cf82613549565b9050919050565b6135df816135c4565b82525050565b60006020820190506135fa60008301846135d6565b92915050565b60006060820190506136156000830186612fc4565b6136226020830185612fc4565b61362f60408301846134ae565b949350505050565b60008151905061364681613232565b92915050565b60006020828403121561366257613661612d8f565b5b600061367084828501613637565b91505092915050565b600082825260208201905092915050565b7f536f7272792120596f752063616e277420636c61696d20746869732e2057652060008201527f77696c6c206d61696c20796f7520746f20636c61696d20746869732e00000000602082015250565b60006136e6603c83613679565b91506136f18261368a565b604082019050919050565b60006020820190508181036000830152613715816136d9565b9050919050565b7f4e487b7100000000000000000000000000000000000000000000000000000000600052603260045260246000fd5b7f4e487b7100000000000000000000000000000000000000000000000000000000600052601160045260246000fd5b600061378582612df7565b91507fffffffffffffffffffffffffffffffffffffffffffffffffffffffffffffffff82036137b7576137b661374b565b5b600182019050919050565b7f4f6f70732120596f752063616e277420636c61696d207468697320726967687460008201527f206e6f772e2057652077696c6c20696e666f726d20796f75207768656e20796f60208201527f752063616e20636c61696d2074686520746f6b656e2e00000000000000000000604082015250565b6000613844605683613679565b915061384f826137c2565b606082019050919050565b6000602082019050818103600083015261387381613837565b9050919050565b600060608201905061388f60008301866134ae565b61389c60208301856134ae565b6138a960408301846134ae565b949350505050565b60005b838110156138cf5780820151818401526020810190506138b4565b60008484015250505050565b60006138ee6138e984613084565b613069565b90508281526020810184848401111561390a57613909612ff3565b5b6139158482856138b1565b509392505050565b600082601f83011261393257613931612fee565b5b81516139428482602086016138db565b91505092915050565b60008151905061395a81612dcb565b92915050565b600061397361396e8461316f565b613069565b9050808382526020820190506020840283018581111561399657613995613160565b5b835b818110156139bf57806139ab888261394b565b845260208401935050602081019050613998565b5050509392505050565b600082601f8301126139de576139dd612fee565b5b81516139ee848260208601613960565b91505092915050565b600067ffffffffffffffff821115613a1257613a11613009565b5b602082029050602081019050919050565b600081519050613a3281612e01565b92915050565b6000613a4b613a46846139f7565b613069565b90508083825260208201905060208402830185811115613a6e57613a6d613160565b5b835b81811015613a975780613a838882613a23565b845260208401935050602081019050613a70565b5050509392505050565b600082601f830112613ab657613ab5612fee565b5b8151613ac6848260208601613a38565b91505092915050565b60006101a08284031215613ae657613ae5613165565b5b613af16101a0613069565b9050600082015167ffffffffffffffff811115613b1157613b1061316a565b5b613b1d8482850161391d565b600083015250602082015167ffffffffffffffff811115613b4157613b4061316a565b5b613b4d8482850161391d565b602083015250604082015167ffffffffffffffff811115613b7157613b7061316a565b5b613b7d8482850161391d565b604083015250606082015167ffffffffffffffff811115613ba157613ba061316a565b5b613bad8482850161391d565b6060830152506080613bc184828501613637565b60808301525060a0613bd584828501613637565b60a08301525060c0613be984828501613637565b60c08301525060e0613bfd8482850161394b565b60e08301525061010082015167ffffffffffffffff811115613c2257613c2161316a565b5b613c2e848285016139c9565b6101008301525061012082015167ffffffffffffffff811115613c5457613c5361316a565b5b613c6084828501613aa1565b61012083015250610140613c7684828501613a23565b61014083015250610160613c8c84828501613a23565b61016083015250610180613ca284828501613a23565b6101808301525092915050565b600060208284031215613cc557613cc4612d8f565b5b600082015167ffffffffffffffff811115613ce357613ce2612d94565b5b613cef84828501613acf565b91505092915050565b7f546865207265636f766572792061646472657373206f72206f776e657220616460008201527f647265737320697320696e636f72726563742100000000000000000000000000602082015250565b6000613d54603383613679565b9150613d5f82613cf8565b604082019050919050565b60006020820190508181036000830152613d8381613d47565b9050919050565b7f536f7272792120596f752068617665206e6f74207265706c69656420746f207560008201527f732e20596f757220617373657473206d617920626520636c61696d656420627960208201527f20746865206e6f6d696e65652e00000000000000000000000000000000000000604082015250565b6000613e0c604d83613679565b9150613e1782613d8a565b606082019050919050565b60006020820190508181036000830152613e3b81613dff565b9050919050565b7f596f75206d757374206669727374207369676e20757020666f7220616e20616360008201527f636f756e742e0000000000000000000000000000000000000000000000000000602082015250565b6000613e9e602683613679565b9150613ea982613e42565b604082019050919050565b60006020820190508181036000830152613ecd81613e91565b9050919050565b7f596f757220656d61696c20686173206e6f7420796574206265656e2076616c6960008201527f64617465642e2056657269667920796f7572207265676973746572656420656d60208201527f61696c20616464726573732066697273742e0000000000000000000000000000604082015250565b6000613f56605283613679565b9150613f6182613ed4565b606082019050919050565b60006020820190508181036000830152613f8581613f49565b9050919050565b600060208284031215613fa257613fa1612d8f565b5b600082015167ffffffffffffffff811115613fc057613fbf612d94565b5b613fcc848285016139c9565b91505092915050565b600060208284031215613feb57613fea612d8f565b5b600082015167ffffffffffffffff81111561400957614008612d94565b5b61401584828501613aa1565b91505092915050565b7f436865636b207468617420616c6c20746865206e6f6d696e65657320796f752060008201527f617265206e6f6d696e6174696e6720617265206164646564206173206e6f6d6960208201527f6e6565732e000000000000000000000000000000000000000000000000000000604082015250565b60006140a0604583613679565b91506140ab8261401e565b606082019050919050565b600060208201905081810360008301526140cf81614093565b9050919050565b600080600080600060a086880312156140f2576140f1612d8f565b5b600061410088828901613a23565b95505060206141118882890161394b565b945050604086015167ffffffffffffffff81111561413257614131612d94565b5b61413e8882890161391d565b935050606086015167ffffffffffffffff81111561415f5761415e612d94565b5b61416b8882890161391d565b925050608086015167ffffffffffffffff81111561418c5761418b612d94565b5b6141988882890161391d565b9150509295509295909350565b7f436865636b207468617420746865206368617269747920796f7520617265206e60008201527f6f6d696e6174696e67206973206c697374656420617320612077686974652d6c60208201527f697374656420636861726974792e000000000000000000000000000000000000604082015250565b6000614227604e83613679565b9150614232826141a5565b606082019050919050565b600060208201905081810360008301526142568161421a565b9050919050565b60006040820190506142726000830185612fc4565b61427f6020830184612fc4565b9392505050565b60008060008060008060c087890312156142a3576142a2612d8f565b5b60006142b189828a0161394b565b965050602087015167ffffffffffffffff8111156142d2576142d1612d94565b5b6142de89828a0161391d565b95505060406142ef89828a01613a23565b945050606061430089828a01613a23565b935050608061431189828a01613a23565b92505060a061432289828a01613637565b9150509295509295509295565b600061433a82612df7565b915061434583612df7565b925082820190508082111561435d5761435c61374b565b5b92915050565b7f4f6f70732120596f752063616e206f6e6c7920616c6c6f63617465206120313060008201527f30252073686172652e2054727920746f2072656475636520746865207368617260208201527f6520616d6f756e742e0000000000000000000000000000000000000000000000604082015250565b60006143e5604983613679565b91506143f082614363565b606082019050919050565b60006020820190508181036000830152614414816143d8565b9050919050565b600081519050919050565b60006144318261441b565b61443b8185613679565b935061444b8185602086016138b1565b61445481612ff8565b840191505092915050565b600060c0820190506144746000830189612fc4565b6144816020830188612fc4565b81810360408301526144938187614426565b90506144a260608301866134ae565b6144af60808301856134ae565b6144bc60a08301846134ae565b979650505050505050565b6000602082840312156144dd576144dc612d8f565b5b60006144eb84828501613a23565b91505092915050565b7f54686520616c6c6f77616e636520746f2074686520636f6e747261637420697360008201527f206e6f7420656e6f756768210000000000000000000000000000000000000000602082015250565b6000614550602c83613679565b915061455b826144f4565b604082019050919050565b6000602082019050818103600083015261457f81614543565b9050919050565b7f5468652063617465676f72792076616c7565206d757374206265203020666f7260008201527f20746f6b656e7320616e64203120666f72204e46542e00000000000000000000602082015250565b60006145e2603683613679565b91506145ed82614586565b604082019050919050565b60006020820190508181036000830152614611816145d5565b9050919050565b600060a08201905061462d6000830188612fc4565b61463a6020830187612fc4565b61464760408301866134ae565b61465460608301856134ae565b61466160808301846134ae565b9695505050505050565b60006060820190506146806000830186612fc4565b61468d60208301856134ae565b61469a60408301846134ae565b949350505050565b60006146ad82612df7565b91506146b883612df7565b92508282026146c681612df7565b915082820484148315176146dd576146dc61374b565b5b5092915050565b7f4e487b7100000000000000000000000000000000000000000000000000000000600052601260045260246000fd5b600061471e82612df7565b915061472983612df7565b925082614739576147386146e4565b5b828204905092915050565b600061474f82612df7565b915061475a83612df7565b92508282039050818111156147725761477161374b565b5b92915050565b600060408201905061478d6000830185612fc4565b61479a60208301846134ae565b9392505050565b7f4f776e61626c653a206e6577206f776e657220697320746865207a65726f206160008201527f6464726573730000000000000000000000000000000000000000000000000000602082015250565b60006147fd602683613679565b9150614808826147a1565b604082019050919050565b6000602082019050818103600083015261482c816147f0565b9050919050565b7f4f776e61626c653a2063616c6c6572206973206e6f7420746865206f776e6572600082015250565b6000614869602083613679565b915061487482614833565b602082019050919050565b600060208201905081810360008301526148988161485c565b905091905056fea264697066735822122064e0899d6858a97ee309102d0f298ff36b9fb77ea669179a55feeeb7f8f3cea464736f6c63430008110033",
  "linkReferences": {},
  "deployedLinkReferences": {}
}