{
  "_format": "hh-sol-artifact-1",
  "contractName": "Inheritokens",
  "sourceName": "contracts/Inheritokens.sol",
  "abi": [
    {
      "inputs": [],
      "stateMutability": "nonpayable",
      "type": "constructor"
    },
    {
      "anonymous": false,
      "inputs": [
        {
          "indexed": true,
          "internalType": "address",
          "name": "_owner",
          "type": "address"
        },
        {
          "indexed": true,
          "internalType": "address",
          "name": "_tokenAddress",
          "type": "address"
        },
        {
          "indexed": false,
          "internalType": "uint256",
          "name": "_amount",
          "type": "uint256"
        }
      ],
      "name": "AllocatedShareUpdated",
      "type": "event"
    },
    {
      "anonymous": false,
      "inputs": [
        {
          "indexed": true,
          "internalType": "address",
          "name": "_owner",
          "type": "address"
        },
        {
          "indexed": false,
          "internalType": "uint256",
          "name": "_charityId",
          "type": "uint256"
        }
      ],
      "name": "CharityWhitelisted",
      "type": "event"
    },
    {
      "anonymous": false,
      "inputs": [
        {
          "indexed": true,
          "internalType": "address",
          "name": "_owner",
          "type": "address"
        },
        {
          "indexed": true,
          "internalType": "address",
          "name": "_nominee",
          "type": "address"
        },
        {
          "indexed": true,
          "internalType": "address",
          "name": "_tokenAddress",
          "type": "address"
        },
        {
          "indexed": false,
          "internalType": "uint256",
          "name": "_tokenId",
          "type": "uint256"
        }
      ],
      "name": "Claimed",
      "type": "event"
    },
    {
      "anonymous": false,
      "inputs": [
        {
          "indexed": true,
          "internalType": "address",
          "name": "_owner",
          "type": "address"
        }
      ],
      "name": "EmailVerified",
      "type": "event"
    },
    {
      "anonymous": false,
      "inputs": [
        {
          "indexed": true,
          "internalType": "address",
          "name": "_owner",
          "type": "address"
        },
        {
          "indexed": false,
          "internalType": "address",
          "name": "_nominee",
          "type": "address"
        },
        {
          "indexed": false,
          "internalType": "string",
          "name": "_name",
          "type": "string"
        },
        {
          "indexed": false,
          "internalType": "string",
          "name": "_mail",
          "type": "string"
        }
      ],
      "name": "NomineeAdded",
      "type": "event"
    },
    {
      "anonymous": false,
      "inputs": [
        {
          "indexed": true,
          "internalType": "address",
          "name": "_owner",
          "type": "address"
        },
        {
          "indexed": true,
          "internalType": "address",
          "name": "_oldAddress",
          "type": "address"
        },
        {
          "indexed": true,
          "internalType": "address",
          "name": "_newAddress",
          "type": "address"
        },
        {
          "indexed": false,
          "internalType": "string",
          "name": "_name",
          "type": "string"
        },
        {
          "indexed": false,
          "internalType": "string",
          "name": "_mail",
          "type": "string"
        }
      ],
      "name": "NomineeDetailsUpdated",
      "type": "event"
    },
    {
      "anonymous": false,
      "inputs": [
        {
          "indexed": true,
          "internalType": "address",
          "name": "_owner",
          "type": "address"
        },
        {
          "indexed": false,
          "internalType": "string",
          "name": "_name",
          "type": "string"
        }
      ],
      "name": "OwnerRegistered",
      "type": "event"
    },
    {
      "anonymous": false,
      "inputs": [
        {
          "indexed": true,
          "internalType": "address",
          "name": "_owner",
          "type": "address"
        }
      ],
      "name": "OwnerResponded",
      "type": "event"
    },
    {
      "anonymous": false,
      "inputs": [
        {
          "indexed": true,
          "internalType": "address",
          "name": "previousOwner",
          "type": "address"
        },
        {
          "indexed": true,
          "internalType": "address",
          "name": "newOwner",
          "type": "address"
        }
      ],
      "name": "OwnershipTransferred",
      "type": "event"
    },
    {
      "anonymous": false,
      "inputs": [
        {
          "indexed": true,
          "internalType": "address",
          "name": "_owner",
          "type": "address"
        },
        {
          "indexed": false,
          "internalType": "address",
          "name": "_recoveryAddress",
          "type": "address"
        }
      ],
      "name": "RecoveryAddressAdded",
      "type": "event"
    },
    {
      "anonymous": false,
      "inputs": [
        {
          "indexed": true,
          "internalType": "address",
          "name": "_owner",
          "type": "address"
        },
        {
          "indexed": false,
          "internalType": "string",
          "name": "_date",
          "type": "string"
        }
      ],
      "name": "ResponsedDateSet",
      "type": "event"
    },
    {
      "anonymous": false,
      "inputs": [
        {
          "indexed": true,
          "internalType": "address",
          "name": "_owner",
          "type": "address"
        },
        {
          "indexed": false,
          "internalType": "uint256",
          "name": "_inactivity",
          "type": "uint256"
        },
        {
          "indexed": false,
          "internalType": "uint256",
          "name": "_mail",
          "type": "uint256"
        },
        {
          "indexed": false,
          "internalType": "uint256",
          "name": "_nominee",
          "type": "uint256"
        }
      ],
      "name": "TimePeriodsUpdated",
      "type": "event"
    },
    {
      "anonymous": false,
      "inputs": [
        {
          "indexed": true,
          "internalType": "address",
          "name": "_owner",
          "type": "address"
        },
        {
          "indexed": true,
          "internalType": "address",
          "name": "_tokenAddress",
          "type": "address"
        },
        {
          "indexed": true,
          "internalType": "uint256",
          "name": "_tokenId",
          "type": "uint256"
        }
      ],
      "name": "TokenStructureAssigned",
      "type": "event"
    },
    {
      "inputs": [
        {
          "internalType": "string",
          "name": "_name",
          "type": "string"
        },
        {
          "internalType": "string",
          "name": "_email",
          "type": "string"
        },
        {
          "internalType": "address",
          "name": "_nominee",
          "type": "address"
        }
      ],
      "name": "addNomineesDetails",
      "outputs": [],
      "stateMutability": "nonpayable",
      "type": "function"
    },
    {
      "inputs": [
        {
          "internalType": "string",
          "name": "_name",
          "type": "string"
        },
        {
          "internalType": "string",
          "name": "_email",
          "type": "string"
        },
        {
          "internalType": "string",
          "name": "_cid",
          "type": "string"
        }
      ],
      "name": "addOwnerDetails",
      "outputs": [],
      "stateMutability": "nonpayable",
      "type": "function"
    },
    {
      "inputs": [
        {
          "internalType": "address",
          "name": "_recoveryAddress",
          "type": "address"
        }
      ],
      "name": "addWalletRecovery",
      "outputs": [],
      "stateMutability": "nonpayable",
      "type": "function"
    },
    {
      "inputs": [
        {
          "internalType": "address",
          "name": "",
          "type": "address"
        }
      ],
      "name": "addressToNominee",
      "outputs": [
        {
          "internalType": "string",
          "name": "nominee_name",
          "type": "string"
        },
        {
          "internalType": "string",
          "name": "nominee_email",
          "type": "string"
        },
        {
          "internalType": "address",
          "name": "nominee_address",
          "type": "address"
        },
        {
          "internalType": "bool",
          "name": "hasClaimed",
          "type": "bool"
        }
      ],
      "stateMutability": "view",
      "type": "function"
    },
    {
      "inputs": [
        {
          "internalType": "address",
          "name": "",
          "type": "address"
        }
      ],
      "name": "addressToOwner",
      "outputs": [
        {
          "internalType": "string",
          "name": "owner_name",
          "type": "string"
        },
        {
          "internalType": "string",
          "name": "owner_email",
          "type": "string"
        },
        {
          "internalType": "string",
          "name": "image_cid",
          "type": "string"
        },
        {
          "internalType": "string",
          "name": "date",
          "type": "string"
        },
        {
          "internalType": "bool",
          "name": "isEmailVerified",
          "type": "bool"
        },
        {
          "internalType": "bool",
          "name": "isAlive",
          "type": "bool"
        },
        {
          "internalType": "bool",
          "name": "isResponsed",
          "type": "bool"
        },
        {
          "internalType": "address",
          "name": "recoveryAddress",
          "type": "address"
        },
        {
          "internalType": "uint256",
          "name": "monthsOfInactivity",
          "type": "uint256"
        },
        {
          "internalType": "uint256",
          "name": "monthsOfSendingMailToOwner",
          "type": "uint256"
        },
        {
          "internalType": "uint256",
          "name": "monthsForNominee",
          "type": "uint256"
        }
      ],
      "stateMutability": "view",
      "type": "function"
    },
    {
      "inputs": [
        {
          "internalType": "address",
          "name": "_owner",
          "type": "address"
        },
        {
          "internalType": "address",
          "name": "_tokenAddress",
          "type": "address"
        },
        {
          "internalType": "string",
          "name": "_tokenName",
          "type": "string"
        },
        {
          "internalType": "uint256",
          "name": "_category",
          "type": "uint256"
        },
        {
          "internalType": "uint256",
          "name": "_tokenId",
          "type": "uint256"
        },
        {
          "internalType": "uint256",
          "name": "amount",
          "type": "uint256"
        }
      ],
      "name": "assignTokenStruct",
      "outputs": [],
      "stateMutability": "nonpayable",
      "type": "function"
    },
    {
      "inputs": [
        {
          "internalType": "uint256",
          "name": "_inactivity",
          "type": "uint256"
        },
        {
          "internalType": "uint256",
          "name": "_mail",
          "type": "uint256"
        },
        {
          "internalType": "uint256",
          "name": "_nominee",
          "type": "uint256"
        }
      ],
      "name": "changeTimePeriods",
      "outputs": [],
      "stateMutability": "nonpayable",
      "type": "function"
    },
    {
      "inputs": [
        {
          "internalType": "address",
          "name": "_owner",
          "type": "address"
        },
        {
          "internalType": "address",
          "name": "_tokenAddress",
          "type": "address"
        },
        {
          "internalType": "uint256",
          "name": "_amount",
          "type": "uint256"
        },
        {
          "internalType": "uint256",
          "name": "_tokenId",
          "type": "uint256"
        },
        {
          "internalType": "uint256",
          "name": "_category",
          "type": "uint256"
        }
      ],
      "name": "claim",
      "outputs": [],
      "stateMutability": "nonpayable",
      "type": "function"
    },
    {
      "inputs": [
        {
          "internalType": "address",
          "name": "_oldNomineeAddress",
          "type": "address"
        },
        {
          "internalType": "string",
          "name": "_name",
          "type": "string"
        },
        {
          "internalType": "string",
          "name": "_email",
          "type": "string"
        },
        {
          "internalType": "address",
          "name": "_newNomineeAddress",
          "type": "address"
        }
      ],
      "name": "editNomineeDetails",
      "outputs": [],
      "stateMutability": "nonpayable",
      "type": "function"
    },
    {
      "inputs": [
        {
          "internalType": "address",
          "name": "_owner",
          "type": "address"
        }
      ],
      "name": "getAllNominees",
      "outputs": [
        {
          "internalType": "address[]",
          "name": "",
          "type": "address[]"
        }
      ],
      "stateMutability": "view",
      "type": "function"
    },
    {
      "inputs": [
        {
          "internalType": "address",
          "name": "_nominee",
          "type": "address"
        }
      ],
      "name": "getNomineeDetails",
      "outputs": [
        {
          "components": [
            {
              "internalType": "string",
              "name": "nominee_name",
              "type": "string"
            },
            {
              "internalType": "string",
              "name": "nominee_email",
              "type": "string"
            },
            {
              "internalType": "address",
              "name": "nominee_address",
              "type": "address"
            },
            {
              "internalType": "bool",
              "name": "hasClaimed",
              "type": "bool"
            }
          ],
          "internalType": "struct Inheritokens.Nominee",
          "name": "",
          "type": "tuple"
        }
      ],
      "stateMutability": "view",
      "type": "function"
    },
    {
      "inputs": [
        {
          "internalType": "address",
          "name": "_owner",
          "type": "address"
        }
      ],
      "name": "getOwnerDetails",
      "outputs": [
        {
          "components": [
            {
              "internalType": "string",
              "name": "owner_name",
              "type": "string"
            },
            {
              "internalType": "string",
              "name": "owner_email",
              "type": "string"
            },
            {
              "internalType": "string",
              "name": "image_cid",
              "type": "string"
            },
            {
              "internalType": "string",
              "name": "date",
              "type": "string"
            },
            {
              "internalType": "bool",
              "name": "isEmailVerified",
              "type": "bool"
            },
            {
              "internalType": "bool",
              "name": "isAlive",
              "type": "bool"
            },
            {
              "internalType": "bool",
              "name": "isResponsed",
              "type": "bool"
            },
            {
              "internalType": "address",
              "name": "recoveryAddress",
              "type": "address"
            },
            {
              "internalType": "address[]",
              "name": "nominees",
              "type": "address[]"
            },
            {
              "internalType": "uint256[]",
              "name": "charities",
              "type": "uint256[]"
            },
            {
              "internalType": "uint256",
              "name": "monthsOfInactivity",
              "type": "uint256"
            },
            {
              "internalType": "uint256",
              "name": "monthsOfSendingMailToOwner",
              "type": "uint256"
            },
            {
              "internalType": "uint256",
              "name": "monthsForNominee",
              "type": "uint256"
            }
          ],
          "internalType": "struct Inheritokens.Owner",
          "name": "",
          "type": "tuple"
        }
      ],
      "stateMutability": "view",
      "type": "function"
    },
    {
      "inputs": [],
      "name": "getOwners",
      "outputs": [
        {
          "internalType": "address[]",
          "name": "",
          "type": "address[]"
        }
      ],
      "stateMutability": "view",
      "type": "function"
    },
    {
      "inputs": [
        {
          "internalType": "address",
          "name": "_owner",
          "type": "address"
        },
        {
          "internalType": "address",
          "name": "_tokenAddress",
          "type": "address"
        },
        {
          "internalType": "uint256",
          "name": "_tokenId",
          "type": "uint256"
        },
        {
          "internalType": "uint256",
          "name": "_category",
          "type": "uint256"
        }
      ],
      "name": "getTokenStruct",
      "outputs": [
        {
          "components": [
            {
              "internalType": "address",
              "name": "token_address",
              "type": "address"
            },
            {
              "internalType": "string",
              "name": "token_name",
              "type": "string"
            },
            {
              "internalType": "uint256",
              "name": "category",
              "type": "uint256"
            },
            {
              "internalType": "uint256",
              "name": "token_id",
              "type": "uint256"
            },
            {
              "internalType": "uint256",
              "name": "allocated_share",
              "type": "uint256"
            },
            {
              "internalType": "bool",
              "name": "isNominated",
              "type": "bool"
            }
          ],
          "internalType": "struct Inheritokens.Token",
          "name": "",
          "type": "tuple"
        }
      ],
      "stateMutability": "view",
      "type": "function"
    },
    {
      "inputs": [],
      "name": "getTotalOwners",
      "outputs": [
        {
          "internalType": "uint256",
          "name": "",
          "type": "uint256"
        }
      ],
      "stateMutability": "view",
      "type": "function"
    },
    {
      "inputs": [
        {
          "internalType": "address",
          "name": "",
          "type": "address"
        }
      ],
      "name": "isNomineeAdded",
      "outputs": [
        {
          "internalType": "bool",
          "name": "",
          "type": "bool"
        }
      ],
      "stateMutability": "view",
      "type": "function"
    },
    {
      "inputs": [
        {
          "internalType": "address",
          "name": "",
          "type": "address"
        }
      ],
      "name": "isOwnerAdded",
      "outputs": [
        {
          "internalType": "bool",
          "name": "",
          "type": "bool"
        }
      ],
      "stateMutability": "view",
      "type": "function"
    },
    {
      "inputs": [
        {
          "internalType": "address",
          "name": "",
          "type": "address"
        },
        {
          "internalType": "address",
          "name": "",
          "type": "address"
        },
        {
          "internalType": "uint256",
          "name": "",
          "type": "uint256"
        }
      ],
      "name": "nftAddressToTokenStruct",
      "outputs": [
        {
          "internalType": "address",
          "name": "token_address",
          "type": "address"
        },
        {
          "internalType": "string",
          "name": "token_name",
          "type": "string"
        },
        {
          "internalType": "uint256",
          "name": "category",
          "type": "uint256"
        },
        {
          "internalType": "uint256",
          "name": "token_id",
          "type": "uint256"
        },
        {
          "internalType": "uint256",
          "name": "allocated_share",
          "type": "uint256"
        },
        {
          "internalType": "bool",
          "name": "isNominated",
          "type": "bool"
        }
      ],
      "stateMutability": "view",
      "type": "function"
    },
    {
      "inputs": [],
      "name": "owner",
      "outputs": [
        {
          "internalType": "address",
          "name": "",
          "type": "address"
        }
      ],
      "stateMutability": "view",
      "type": "function"
    },
    {
      "inputs": [
        {
          "internalType": "uint256",
          "name": "",
          "type": "uint256"
        }
      ],
      "name": "owners",
      "outputs": [
        {
          "internalType": "address",
          "name": "",
          "type": "address"
        }
      ],
      "stateMutability": "view",
      "type": "function"
    },
    {
      "inputs": [],
      "name": "renounceOwnership",
      "outputs": [],
      "stateMutability": "nonpayable",
      "type": "function"
    },
    {
      "inputs": [
        {
          "internalType": "address",
          "name": "_owner",
          "type": "address"
        }
      ],
      "name": "setOwnerNotAlive",
      "outputs": [],
      "stateMutability": "nonpayable",
      "type": "function"
    },
    {
      "inputs": [],
      "name": "setResponse",
      "outputs": [],
      "stateMutability": "nonpayable",
      "type": "function"
    },
    {
      "inputs": [
        {
          "internalType": "address",
          "name": "_owner",
          "type": "address"
        },
        {
          "internalType": "string",
          "name": "_date",
          "type": "string"
        }
      ],
      "name": "setResponseDate",
      "outputs": [],
      "stateMutability": "nonpayable",
      "type": "function"
    },
    {
      "inputs": [
        {
          "internalType": "uint256",
          "name": "_charityId",
          "type": "uint256"
        }
      ],
      "name": "setWhiteListedCharities",
      "outputs": [],
      "stateMutability": "nonpayable",
      "type": "function"
    },
    {
      "inputs": [
        {
          "internalType": "address",
          "name": "",
          "type": "address"
        },
        {
          "internalType": "address",
          "name": "",
          "type": "address"
        }
      ],
      "name": "tokenAddressToTokenStruct",
      "outputs": [
        {
          "internalType": "address",
          "name": "token_address",
          "type": "address"
        },
        {
          "internalType": "string",
          "name": "token_name",
          "type": "string"
        },
        {
          "internalType": "uint256",
          "name": "category",
          "type": "uint256"
        },
        {
          "internalType": "uint256",
          "name": "token_id",
          "type": "uint256"
        },
        {
          "internalType": "uint256",
          "name": "allocated_share",
          "type": "uint256"
        },
        {
          "internalType": "bool",
          "name": "isNominated",
          "type": "bool"
        }
      ],
      "stateMutability": "view",
      "type": "function"
    },
    {
      "inputs": [
        {
          "internalType": "address",
          "name": "newOwner",
          "type": "address"
        }
      ],
      "name": "transferOwnership",
      "outputs": [],
      "stateMutability": "nonpayable",
      "type": "function"
    },
    {
      "inputs": [
        {
          "internalType": "address",
          "name": "_owner",
          "type": "address"
        },
        {
          "internalType": "address",
          "name": "_tokenAddress",
          "type": "address"
        },
        {
          "internalType": "uint256",
          "name": "_tokenId",
          "type": "uint256"
        },
        {
          "internalType": "uint256",
          "name": "_amount",
          "type": "uint256"
        },
        {
          "internalType": "uint256",
          "name": "_category",
          "type": "uint256"
        }
      ],
      "name": "updateAllocatedShare",
      "outputs": [],
      "stateMutability": "nonpayable",
      "type": "function"
    },
    {
      "inputs": [],
      "name": "verifyOwnerEmail",
      "outputs": [],
      "stateMutability": "nonpayable",
      "type": "function"
    }
  ],
  "bytecode": "0x60806040523480156200001157600080fd5b5062000032620000266200003860201b60201c565b6200004060201b60201c565b62000104565b600033905090565b60008060009054906101000a900473ffffffffffffffffffffffffffffffffffffffff169050816000806101000a81548173ffffffffffffffffffffffffffffffffffffffff021916908373ffffffffffffffffffffffffffffffffffffffff1602179055508173ffffffffffffffffffffffffffffffffffffffff168173ffffffffffffffffffffffffffffffffffffffff167f8be0079c531659141344cd1fd0a4f28419497f9722a3daafe3b4186f6b6457e060405160405180910390a35050565b6153fa80620001146000396000f3fe608060405234801561001057600080fd5b50600436106101cf5760003560e01c8063883a235311610104578063c3bb8121116100a2578063db23f9f311610071578063db23f9f314610524578063de508c5b14610542578063f2fde38b14610577578063f800978514610593576101cf565b8063c3bb812114610478578063c9b1dacd146104a8578063cb144b39146104d8578063cd0e5091146104f4576101cf565b8063a06d3e97116100de578063a06d3e9714610418578063a0e67e2b14610422578063a5394b3914610440578063b69bd77f1461045c576101cf565b8063883a2353146103c25780638da5cb5b146103de578063984fd10c146103fc576101cf565b80634950956e1161017157806360c5602b1161014b57806360c5602b14610362578063715018a61461036c57806376f0ffc6146103765780638258d021146103a6576101cf565b80634950956e146102e357806354add3e7146103135780635a863c111461032f576101cf565b8063159305e1116101ad578063159305e11461025557806325cb763a1461028f57806337950bfe146102ab5780633c824919146102c7576101cf565b80630220044b146101d4578063025e7c27146102095780631056d26d14610239575b600080fd5b6101ee60048036038101906101e99190613d25565b6105c3565b60405161020096959493929190613e41565b60405180910390f35b610223600480360381019061021e9190613ea9565b6106ce565b6040516102309190613ed6565b60405180910390f35b610253600480360381019061024e9190613ef1565b61070d565b005b61026f600480360381019061026a9190613ef1565b6108fa565b6040516102869b9a99989796959493929190613f1e565b60405180910390f35b6102a960048036038101906102a4919061411a565b610bbb565b005b6102c560048036038101906102c091906141c3565b611018565b005b6102e160048036038101906102dc9190614216565b61125f565b005b6102fd60048036038101906102f89190613ef1565b61150c565b60405161030a9190614363565b60405180910390f35b61032d60048036038101906103289190614385565b6116fa565b005b61034960048036038101906103449190613ef1565b6117a4565b60405161035994939291906143e1565b60405180910390f35b61036a611911565b005b6103746119b1565b005b610390600480360381019061038b9190613ef1565b6119c5565b60405161039d9190614434565b60405180910390f35b6103c060048036038101906103bb919061444f565b6119e5565b005b6103dc60048036038101906103d79190613ea9565b611dfe565b005b6103e6611fd3565b6040516103f39190613ed6565b60405180910390f35b610416600480360381019061041191906144f6565b611ffc565b005b6104206125d4565b005b61042a612798565b6040516104379190614644565b60405180910390f35b61045a60048036038101906104559190613ef1565b612826565b005b61047660048036038101906104719190614216565b61291c565b005b610492600480360381019061048d9190613ef1565b612bca565b60405161049f91906148cf565b60405180910390f35b6104c260048036038101906104bd91906148f1565b613017565b6040516104cf91906149e1565b60405180910390f35b6104f260048036038101906104ed9190614a03565b61339a565b005b61050e60048036038101906105099190613ef1565b6137a3565b60405161051b9190614434565b60405180910390f35b61052c6137c3565b6040516105399190614a8e565b60405180910390f35b61055c60048036038101906105579190614aa9565b6137d0565b60405161056e96959493929190613e41565b60405180910390f35b610591600480360381019061058c9190613ef1565b6138ce565b005b6105ad60048036038101906105a89190613ef1565b613951565b6040516105ba9190614644565b60405180910390f35b600760205282600052604060002060205281600052604060002060205280600052604060002060009250925050508060000160009054906101000a900473ffffffffffffffffffffffffffffffffffffffff169080600101805461062690614b18565b80601f016020809104026020016040519081016040528092919081815260200182805461065290614b18565b801561069f5780601f106106745761010080835404028352916020019161069f565b820191906000526020600020905b81548152906001019060200180831161068257829003601f168201915b5050505050908060020154908060030154908060040154908060050160009054906101000a900460ff16905086565b600181815481106106de57600080fd5b906000526020600020016000915054906101000a900473ffffffffffffffffffffffffffffffffffffffff1681565b600260003373ffffffffffffffffffffffffffffffffffffffff1673ffffffffffffffffffffffffffffffffffffffff16815260200190815260200160002060009054906101000a900460ff16610799576040517f08c379a000000000000000000000000000000000000000000000000000000000815260040161079090614b95565b60405180910390fd5b600360003373ffffffffffffffffffffffffffffffffffffffff1673ffffffffffffffffffffffffffffffffffffffff16815260200190815260200160002060040160009054906101000a900460ff16610828576040517f08c379a000000000000000000000000000000000000000000000000000000000815260040161081f90614c01565b60405180910390fd5b80600360003373ffffffffffffffffffffffffffffffffffffffff1673ffffffffffffffffffffffffffffffffffffffff16815260200190815260200160002060040160036101000a81548173ffffffffffffffffffffffffffffffffffffffff021916908373ffffffffffffffffffffffffffffffffffffffff1602179055503373ffffffffffffffffffffffffffffffffffffffff167f7fa39328717f9bda0ec36a3638c195f29c2a4c5ed45d321be74cc64f092c2d36826040516108ef9190613ed6565b60405180910390a250565b600360205280600052604060002060009150905080600001805461091d90614b18565b80601f016020809104026020016040519081016040528092919081815260200182805461094990614b18565b80156109965780601f1061096b57610100808354040283529160200191610996565b820191906000526020600020905b81548152906001019060200180831161097957829003601f168201915b5050505050908060010180546109ab90614b18565b80601f01602080910402602001604051908101604052809291908181526020018280546109d790614b18565b8015610a245780601f106109f957610100808354040283529160200191610a24565b820191906000526020600020905b815481529060010190602001808311610a0757829003601f168201915b505050505090806002018054610a3990614b18565b80601f0160208091040260200160405190810160405280929190818152602001828054610a6590614b18565b8015610ab25780601f10610a8757610100808354040283529160200191610ab2565b820191906000526020600020905b815481529060010190602001808311610a9557829003601f168201915b505050505090806003018054610ac790614b18565b80601f0160208091040260200160405190810160405280929190818152602001828054610af390614b18565b8015610b405780601f10610b1557610100808354040283529160200191610b40565b820191906000526020600020905b815481529060010190602001808311610b2357829003601f168201915b5050505050908060040160009054906101000a900460ff16908060040160019054906101000a900460ff16908060040160029054906101000a900460ff16908060040160039054906101000a900473ffffffffffffffffffffffffffffffffffffffff1690806007015490806008015490806009015490508b565b600260008773ffffffffffffffffffffffffffffffffffffffff1673ffffffffffffffffffffffffffffffffffffffff16815260200190815260200160002060009054906101000a900460ff16610c47576040517f08c379a0000000000000000000000000000000000000000000000000000000008152600401610c3e90614b95565b60405180910390fd5b600360008773ffffffffffffffffffffffffffffffffffffffff1673ffffffffffffffffffffffffffffffffffffffff16815260200190815260200160002060040160009054906101000a900460ff16610cd6576040517f08c379a0000000000000000000000000000000000000000000000000000000008152600401610ccd90614c01565b60405180910390fd5b60008303610e43576040518060c001604052808673ffffffffffffffffffffffffffffffffffffffff16815260200185815260200184815260200183815260200182815260200160011515815250600660008873ffffffffffffffffffffffffffffffffffffffff1673ffffffffffffffffffffffffffffffffffffffff16815260200190815260200160002060008773ffffffffffffffffffffffffffffffffffffffff1673ffffffffffffffffffffffffffffffffffffffff16815260200190815260200160002060008201518160000160006101000a81548173ffffffffffffffffffffffffffffffffffffffff021916908373ffffffffffffffffffffffffffffffffffffffff1602179055506020820151816001019081610dfc9190614dcd565b5060408201518160020155606082015181600301556080820151816004015560a08201518160050160006101000a81548160ff021916908315150217905550905050610fb5565b6040518060c001604052808673ffffffffffffffffffffffffffffffffffffffff16815260200185815260200184815260200183815260200182815260200160011515815250600760008873ffffffffffffffffffffffffffffffffffffffff1673ffffffffffffffffffffffffffffffffffffffff16815260200190815260200160002060008773ffffffffffffffffffffffffffffffffffffffff1673ffffffffffffffffffffffffffffffffffffffff168152602001908152602001600020600084815260200190815260200160002060008201518160000160006101000a81548173ffffffffffffffffffffffffffffffffffffffff021916908373ffffffffffffffffffffffffffffffffffffffff1602179055506020820151816001019081610f729190614dcd565b5060408201518160020155606082015181600301556080820151816004015560a08201518160050160006101000a81548160ff0219169083151502179055509050505b818573ffffffffffffffffffffffffffffffffffffffff168773ffffffffffffffffffffffffffffffffffffffff167fbcd808aacc29273be719505ed6a9bc3a667772d205c392aa0a2cc8409a967bc860405160405180910390a4505050505050565b600260003373ffffffffffffffffffffffffffffffffffffffff1673ffffffffffffffffffffffffffffffffffffffff16815260200190815260200160002060009054906101000a900460ff166110a4576040517f08c379a000000000000000000000000000000000000000000000000000000000815260040161109b90614b95565b60405180910390fd5b600360003373ffffffffffffffffffffffffffffffffffffffff1673ffffffffffffffffffffffffffffffffffffffff16815260200190815260200160002060040160009054906101000a900460ff16611133576040517f08c379a000000000000000000000000000000000000000000000000000000000815260040161112a90614c01565b60405180910390fd5b82600360003373ffffffffffffffffffffffffffffffffffffffff1673ffffffffffffffffffffffffffffffffffffffff1681526020019081526020016000206007018190555081600360003373ffffffffffffffffffffffffffffffffffffffff1673ffffffffffffffffffffffffffffffffffffffff1681526020019081526020016000206008018190555080600360003373ffffffffffffffffffffffffffffffffffffffff1673ffffffffffffffffffffffffffffffffffffffff168152602001908152602001600020600901819055503373ffffffffffffffffffffffffffffffffffffffff167fa89ed257389bf55f99f23abbebdb8576be22335f63e8f2ed9e12742f3cb4defb84848460405161125293929190614e9f565b60405180910390a2505050565b60005b600360008773ffffffffffffffffffffffffffffffffffffffff1673ffffffffffffffffffffffffffffffffffffffff16815260200190815260200160002060050180549050811015611488573373ffffffffffffffffffffffffffffffffffffffff16600360008873ffffffffffffffffffffffffffffffffffffffff1673ffffffffffffffffffffffffffffffffffffffff168152602001908152602001600020600501828154811061131a57611319614ed6565b5b9060005260206000200160009054906101000a900473ffffffffffffffffffffffffffffffffffffffff1673ffffffffffffffffffffffffffffffffffffffff160361147557600082036113f45760008590508073ffffffffffffffffffffffffffffffffffffffff166323b872dd8833886040518463ffffffff1660e01b81526004016113aa93929190614f05565b6020604051808303816000875af11580156113c9573d6000803e3d6000fd5b505050506040513d601f19601f820116820180604052508101906113ed9190614f68565b5050611474565b60008311156114735760008590508073ffffffffffffffffffffffffffffffffffffffff166323b872dd8833876040518463ffffffff1660e01b815260040161143f93929190614f05565b600060405180830381600087803b15801561145957600080fd5b505af115801561146d573d6000803e3d6000fd5b50505050505b5b5b808061148090614fc4565b915050611262565b508373ffffffffffffffffffffffffffffffffffffffff163373ffffffffffffffffffffffffffffffffffffffff168673ffffffffffffffffffffffffffffffffffffffff167f913c992353dc81b7a8ba31496c484e9b6306bd2f6c509a649a38fdf5e1c953b2856040516114fd9190614a8e565b60405180910390a45050505050565b611514613b6b565b600460008373ffffffffffffffffffffffffffffffffffffffff1673ffffffffffffffffffffffffffffffffffffffff16815260200190815260200160002060405180608001604052908160008201805461156e90614b18565b80601f016020809104026020016040519081016040528092919081815260200182805461159a90614b18565b80156115e75780601f106115bc576101008083540402835291602001916115e7565b820191906000526020600020905b8154815290600101906020018083116115ca57829003601f168201915b5050505050815260200160018201805461160090614b18565b80601f016020809104026020016040519081016040528092919081815260200182805461162c90614b18565b80156116795780601f1061164e57610100808354040283529160200191611679565b820191906000526020600020905b81548152906001019060200180831161165c57829003601f168201915b505050505081526020016002820160009054906101000a900473ffffffffffffffffffffffffffffffffffffffff1673ffffffffffffffffffffffffffffffffffffffff1673ffffffffffffffffffffffffffffffffffffffff1681526020016002820160149054906101000a900460ff1615151515815250509050919050565b611702613a21565b80600360008473ffffffffffffffffffffffffffffffffffffffff1673ffffffffffffffffffffffffffffffffffffffff16815260200190815260200160002060030190816117519190614dcd565b508173ffffffffffffffffffffffffffffffffffffffff167f8a1263962e2474bea0a33055f8d55a8113d3481d759b26d9c9d151ad7e552f1982604051611798919061500c565b60405180910390a25050565b60046020528060005260406000206000915090508060000180546117c790614b18565b80601f01602080910402602001604051908101604052809291908181526020018280546117f390614b18565b80156118405780601f1061181557610100808354040283529160200191611840565b820191906000526020600020905b81548152906001019060200180831161182357829003601f168201915b50505050509080600101805461185590614b18565b80601f016020809104026020016040519081016040528092919081815260200182805461188190614b18565b80156118ce5780601f106118a3576101008083540402835291602001916118ce565b820191906000526020600020905b8154815290600101906020018083116118b157829003601f168201915b5050505050908060020160009054906101000a900473ffffffffffffffffffffffffffffffffffffffff16908060020160149054906101000a900460ff16905084565b6001600360003373ffffffffffffffffffffffffffffffffffffffff1673ffffffffffffffffffffffffffffffffffffffff16815260200190815260200160002060040160026101000a81548160ff0219169083151502179055503373ffffffffffffffffffffffffffffffffffffffff167f10fb698f781e424b2936b656193c9212836bcb66e5da5119147d31561a3d931160405160405180910390a2565b6119b9613a21565b6119c36000613a9f565b565b60026020528060005260406000206000915054906101000a900460ff1681565b600260003373ffffffffffffffffffffffffffffffffffffffff1673ffffffffffffffffffffffffffffffffffffffff16815260200190815260200160002060009054906101000a900460ff1615611a72576040517f08c379a0000000000000000000000000000000000000000000000000000000008152600401611a699061507a565b60405180910390fd5b6001339080600181540180825580915050600190039060005260206000200160009091909190916101000a81548173ffffffffffffffffffffffffffffffffffffffff021916908373ffffffffffffffffffffffffffffffffffffffff16021790555082600360003373ffffffffffffffffffffffffffffffffffffffff1673ffffffffffffffffffffffffffffffffffffffff1681526020019081526020016000206000019081611b249190614dcd565b5081600360003373ffffffffffffffffffffffffffffffffffffffff1673ffffffffffffffffffffffffffffffffffffffff1681526020019081526020016000206001019081611b749190614dcd565b5080600360003373ffffffffffffffffffffffffffffffffffffffff1673ffffffffffffffffffffffffffffffffffffffff1681526020019081526020016000206002019081611bc49190614dcd565b506000600360003373ffffffffffffffffffffffffffffffffffffffff1673ffffffffffffffffffffffffffffffffffffffff16815260200190815260200160002060040160006101000a81548160ff0219169083151502179055506001600360003373ffffffffffffffffffffffffffffffffffffffff1673ffffffffffffffffffffffffffffffffffffffff16815260200190815260200160002060040160016101000a81548160ff0219169083151502179055506006600360003373ffffffffffffffffffffffffffffffffffffffff1673ffffffffffffffffffffffffffffffffffffffff168152602001908152602001600020600701819055506002600360003373ffffffffffffffffffffffffffffffffffffffff1673ffffffffffffffffffffffffffffffffffffffff168152602001908152602001600020600801819055506002600360003373ffffffffffffffffffffffffffffffffffffffff1673ffffffffffffffffffffffffffffffffffffffff168152602001908152602001600020600901819055506001600260003373ffffffffffffffffffffffffffffffffffffffff1673ffffffffffffffffffffffffffffffffffffffff16815260200190815260200160002060006101000a81548160ff0219169083151502179055503373ffffffffffffffffffffffffffffffffffffffff167f5f66e430b448d83d46a65ab17a365f04c0c8f1a66ac20bcc38dfde7f2d67514184604051611df1919061500c565b60405180910390a2505050565b600260003373ffffffffffffffffffffffffffffffffffffffff1673ffffffffffffffffffffffffffffffffffffffff16815260200190815260200160002060009054906101000a900460ff16611e8a576040517f08c379a0000000000000000000000000000000000000000000000000000000008152600401611e8190614b95565b60405180910390fd5b600360003373ffffffffffffffffffffffffffffffffffffffff1673ffffffffffffffffffffffffffffffffffffffff16815260200190815260200160002060040160009054906101000a900460ff16611f19576040517f08c379a0000000000000000000000000000000000000000000000000000000008152600401611f1090614c01565b60405180910390fd5b600360003373ffffffffffffffffffffffffffffffffffffffff1673ffffffffffffffffffffffffffffffffffffffff1681526020019081526020016000206006018190806001815401808255809150506001900390600052602060002001600090919091909150553373ffffffffffffffffffffffffffffffffffffffff167f0a9f57650aae67446314481b13a827c479f89b36f2186ba5ced5026358a55c4582604051611fc89190614a8e565b60405180910390a250565b60008060009054906101000a900473ffffffffffffffffffffffffffffffffffffffff16905090565b600260003373ffffffffffffffffffffffffffffffffffffffff1673ffffffffffffffffffffffffffffffffffffffff16815260200190815260200160002060009054906101000a900460ff16612088576040517f08c379a000000000000000000000000000000000000000000000000000000000815260040161207f90614b95565b60405180910390fd5b600360003373ffffffffffffffffffffffffffffffffffffffff1673ffffffffffffffffffffffffffffffffffffffff16815260200190815260200160002060040160009054906101000a900460ff16612117576040517f08c379a000000000000000000000000000000000000000000000000000000000815260040161210e90614c01565b60405180910390fd5b600560008573ffffffffffffffffffffffffffffffffffffffff1673ffffffffffffffffffffffffffffffffffffffff16815260200190815260200160002060009054906101000a900460ff166121a3576040517f08c379a000000000000000000000000000000000000000000000000000000000815260040161219a906150e6565b60405180910390fd5b8073ffffffffffffffffffffffffffffffffffffffff168473ffffffffffffffffffffffffffffffffffffffff160361227b5782600460008673ffffffffffffffffffffffffffffffffffffffff1673ffffffffffffffffffffffffffffffffffffffff16815260200190815260200160002060000190816122259190614dcd565b5081600460008673ffffffffffffffffffffffffffffffffffffffff1673ffffffffffffffffffffffffffffffffffffffff16815260200190815260200160002060010190816122759190614dcd565b50612550565b82600460008373ffffffffffffffffffffffffffffffffffffffff1673ffffffffffffffffffffffffffffffffffffffff16815260200190815260200160002060000190816122ca9190614dcd565b5081600460008373ffffffffffffffffffffffffffffffffffffffff1673ffffffffffffffffffffffffffffffffffffffff168152602001908152602001600020600101908161231a9190614dcd565b5080600460008373ffffffffffffffffffffffffffffffffffffffff1673ffffffffffffffffffffffffffffffffffffffff16815260200190815260200160002060020160006101000a81548173ffffffffffffffffffffffffffffffffffffffff021916908373ffffffffffffffffffffffffffffffffffffffff16021790555060005b600360003373ffffffffffffffffffffffffffffffffffffffff1673ffffffffffffffffffffffffffffffffffffffff1681526020019081526020016000206005018054905081101561254e578473ffffffffffffffffffffffffffffffffffffffff16600360003373ffffffffffffffffffffffffffffffffffffffff1673ffffffffffffffffffffffffffffffffffffffff168152602001908152602001600020600501828154811061245757612456614ed6565b5b9060005260206000200160009054906101000a900473ffffffffffffffffffffffffffffffffffffffff1673ffffffffffffffffffffffffffffffffffffffff160361253b5781600360003373ffffffffffffffffffffffffffffffffffffffff1673ffffffffffffffffffffffffffffffffffffffff16815260200190815260200160002060050182815481106124f2576124f1614ed6565b5b9060005260206000200160006101000a81548173ffffffffffffffffffffffffffffffffffffffff021916908373ffffffffffffffffffffffffffffffffffffffff1602179055505b808061254690614fc4565b91505061239f565b505b8073ffffffffffffffffffffffffffffffffffffffff168473ffffffffffffffffffffffffffffffffffffffff163373ffffffffffffffffffffffffffffffffffffffff167f98181c10b577f57cab84e5876fe882beef6fd7633fa626a112765254ff1c0a3d86866040516125c6929190615106565b60405180910390a450505050565b6125dc613a21565b600260003373ffffffffffffffffffffffffffffffffffffffff1673ffffffffffffffffffffffffffffffffffffffff16815260200190815260200160002060009054906101000a900460ff16612668576040517f08c379a000000000000000000000000000000000000000000000000000000000815260040161265f90614b95565b60405180910390fd5b600360003373ffffffffffffffffffffffffffffffffffffffff1673ffffffffffffffffffffffffffffffffffffffff16815260200190815260200160002060040160009054906101000a900460ff16156126f8576040517f08c379a00000000000000000000000000000000000000000000000000000000081526004016126ef90615189565b60405180910390fd5b6001600360003373ffffffffffffffffffffffffffffffffffffffff1673ffffffffffffffffffffffffffffffffffffffff16815260200190815260200160002060040160006101000a81548160ff0219169083151502179055503373ffffffffffffffffffffffffffffffffffffffff167fc075588536ccbcc926766f9090dd0857af2708dfc82df2166eca1059cadf2ec760405160405180910390a2565b6060600180548060200260200160405190810160405280929190818152602001828054801561281c57602002820191906000526020600020905b8160009054906101000a900473ffffffffffffffffffffffffffffffffffffffff1673ffffffffffffffffffffffffffffffffffffffff16815260200190600101908083116127d2575b5050505050905090565b61282e613a21565b600360008273ffffffffffffffffffffffffffffffffffffffff1673ffffffffffffffffffffffffffffffffffffffff16815260200190815260200160002060040160029054906101000a900460ff16156128be576040517f08c379a00000000000000000000000000000000000000000000000000000000081526004016128b5906151f5565b60405180910390fd5b6000600360008373ffffffffffffffffffffffffffffffffffffffff1673ffffffffffffffffffffffffffffffffffffffff16815260200190815260200160002060040160016101000a81548160ff02191690831515021790555050565b600260008673ffffffffffffffffffffffffffffffffffffffff1673ffffffffffffffffffffffffffffffffffffffff16815260200190815260200160002060009054906101000a900460ff166129a8576040517f08c379a000000000000000000000000000000000000000000000000000000000815260040161299f90614b95565b60405180910390fd5b600360008673ffffffffffffffffffffffffffffffffffffffff1673ffffffffffffffffffffffffffffffffffffffff16815260200190815260200160002060040160009054906101000a900460ff16612a37576040517f08c379a0000000000000000000000000000000000000000000000000000000008152600401612a2e90614c01565b60405180910390fd5b60008103612ac85781600660008773ffffffffffffffffffffffffffffffffffffffff1673ffffffffffffffffffffffffffffffffffffffff16815260200190815260200160002060008673ffffffffffffffffffffffffffffffffffffffff1673ffffffffffffffffffffffffffffffffffffffff16815260200190815260200160002060040181905550612b5e565b81600760008773ffffffffffffffffffffffffffffffffffffffff1673ffffffffffffffffffffffffffffffffffffffff16815260200190815260200160002060008673ffffffffffffffffffffffffffffffffffffffff1673ffffffffffffffffffffffffffffffffffffffff1681526020019081526020016000206000858152602001908152602001600020600401819055505b8373ffffffffffffffffffffffffffffffffffffffff168573ffffffffffffffffffffffffffffffffffffffff167fedc81c1b2ba130e51b15caad1a904620ab3ad26168714cfa53da56e1ecda7f9d84604051612bbb9190614a8e565b60405180910390a35050505050565b612bd2613bab565b600360008373ffffffffffffffffffffffffffffffffffffffff1673ffffffffffffffffffffffffffffffffffffffff168152602001908152602001600020604051806101a0016040529081600082018054612c2d90614b18565b80601f0160208091040260200160405190810160405280929190818152602001828054612c5990614b18565b8015612ca65780601f10612c7b57610100808354040283529160200191612ca6565b820191906000526020600020905b815481529060010190602001808311612c8957829003601f168201915b50505050508152602001600182018054612cbf90614b18565b80601f0160208091040260200160405190810160405280929190818152602001828054612ceb90614b18565b8015612d385780601f10612d0d57610100808354040283529160200191612d38565b820191906000526020600020905b815481529060010190602001808311612d1b57829003601f168201915b50505050508152602001600282018054612d5190614b18565b80601f0160208091040260200160405190810160405280929190818152602001828054612d7d90614b18565b8015612dca5780601f10612d9f57610100808354040283529160200191612dca565b820191906000526020600020905b815481529060010190602001808311612dad57829003601f168201915b50505050508152602001600382018054612de390614b18565b80601f0160208091040260200160405190810160405280929190818152602001828054612e0f90614b18565b8015612e5c5780601f10612e3157610100808354040283529160200191612e5c565b820191906000526020600020905b815481529060010190602001808311612e3f57829003601f168201915b505050505081526020016004820160009054906101000a900460ff161515151581526020016004820160019054906101000a900460ff161515151581526020016004820160029054906101000a900460ff161515151581526020016004820160039054906101000a900473ffffffffffffffffffffffffffffffffffffffff1673ffffffffffffffffffffffffffffffffffffffff1673ffffffffffffffffffffffffffffffffffffffff16815260200160058201805480602002602001604051908101604052809291908181526020018280548015612f9157602002820191906000526020600020905b8160009054906101000a900473ffffffffffffffffffffffffffffffffffffffff1673ffffffffffffffffffffffffffffffffffffffff1681526020019060010190808311612f47575b5050505050815260200160068201805480602002602001604051908101604052809291908181526020018280548015612fe957602002820191906000526020600020905b815481526020019060010190808311612fd5575b5050505050815260200160078201548152602001600882015481526020016009820154815250509050919050565b61301f613c2f565b600082036131d657600660008673ffffffffffffffffffffffffffffffffffffffff1673ffffffffffffffffffffffffffffffffffffffff16815260200190815260200160002060008573ffffffffffffffffffffffffffffffffffffffff1673ffffffffffffffffffffffffffffffffffffffff1681526020019081526020016000206040518060c00160405290816000820160009054906101000a900473ffffffffffffffffffffffffffffffffffffffff1673ffffffffffffffffffffffffffffffffffffffff1673ffffffffffffffffffffffffffffffffffffffff16815260200160018201805461311490614b18565b80601f016020809104026020016040519081016040528092919081815260200182805461314090614b18565b801561318d5780601f106131625761010080835404028352916020019161318d565b820191906000526020600020905b81548152906001019060200180831161317057829003601f168201915b505050505081526020016002820154815260200160038201548152602001600482015481526020016005820160009054906101000a900460ff1615151515815250509050613392565b600760008673ffffffffffffffffffffffffffffffffffffffff1673ffffffffffffffffffffffffffffffffffffffff16815260200190815260200160002060008573ffffffffffffffffffffffffffffffffffffffff1673ffffffffffffffffffffffffffffffffffffffff16815260200190815260200160002060008481526020019081526020016000206040518060c00160405290816000820160009054906101000a900473ffffffffffffffffffffffffffffffffffffffff1673ffffffffffffffffffffffffffffffffffffffff1673ffffffffffffffffffffffffffffffffffffffff1681526020016001820180546132d490614b18565b80601f016020809104026020016040519081016040528092919081815260200182805461330090614b18565b801561334d5780601f106133225761010080835404028352916020019161334d565b820191906000526020600020905b81548152906001019060200180831161333057829003601f168201915b505050505081526020016002820154815260200160038201548152602001600482015481526020016005820160009054906101000a900460ff16151515158152505090505b949350505050565b600260003373ffffffffffffffffffffffffffffffffffffffff1673ffffffffffffffffffffffffffffffffffffffff16815260200190815260200160002060009054906101000a900460ff16613426576040517f08c379a000000000000000000000000000000000000000000000000000000000815260040161341d90614b95565b60405180910390fd5b600360003373ffffffffffffffffffffffffffffffffffffffff1673ffffffffffffffffffffffffffffffffffffffff16815260200190815260200160002060040160009054906101000a900460ff166134b5576040517f08c379a00000000000000000000000000000000000000000000000000000000081526004016134ac90614c01565b60405180910390fd5b600560008273ffffffffffffffffffffffffffffffffffffffff1673ffffffffffffffffffffffffffffffffffffffff16815260200190815260200160002060009054906101000a900460ff1615613542576040517f08c379a000000000000000000000000000000000000000000000000000000000815260040161353990615261565b60405180910390fd5b60405180608001604052808481526020018381526020018273ffffffffffffffffffffffffffffffffffffffff16815260200160001515815250600460008373ffffffffffffffffffffffffffffffffffffffff1673ffffffffffffffffffffffffffffffffffffffff16815260200190815260200160002060008201518160000190816135d09190614dcd565b5060208201518160010190816135e69190614dcd565b5060408201518160020160006101000a81548173ffffffffffffffffffffffffffffffffffffffff021916908373ffffffffffffffffffffffffffffffffffffffff16021790555060608201518160020160146101000a81548160ff021916908315150217905550905050600360003373ffffffffffffffffffffffffffffffffffffffff1673ffffffffffffffffffffffffffffffffffffffff168152602001908152602001600020600501819080600181540180825580915050600190039060005260206000200160009091909190916101000a81548173ffffffffffffffffffffffffffffffffffffffff021916908373ffffffffffffffffffffffffffffffffffffffff1602179055506001600560008373ffffffffffffffffffffffffffffffffffffffff1673ffffffffffffffffffffffffffffffffffffffff16815260200190815260200160002060006101000a81548160ff0219169083151502179055503373ffffffffffffffffffffffffffffffffffffffff167fb009d2c813f95b7c48104e6328c1acca60b43cac7e0f4e63c29a8dc5808356ad82858560405161379693929190615281565b60405180910390a2505050565b60056020528060005260406000206000915054906101000a900460ff1681565b6000600180549050905090565b6006602052816000526040600020602052806000526040600020600091509150508060000160009054906101000a900473ffffffffffffffffffffffffffffffffffffffff169080600101805461382690614b18565b80601f016020809104026020016040519081016040528092919081815260200182805461385290614b18565b801561389f5780601f106138745761010080835404028352916020019161389f565b820191906000526020600020905b81548152906001019060200180831161388257829003601f168201915b5050505050908060020154908060030154908060040154908060050160009054906101000a900460ff16905086565b6138d6613a21565b600073ffffffffffffffffffffffffffffffffffffffff168173ffffffffffffffffffffffffffffffffffffffff1603613945576040517f08c379a000000000000000000000000000000000000000000000000000000000815260040161393c90615338565b60405180910390fd5b61394e81613a9f565b50565b6060600360008373ffffffffffffffffffffffffffffffffffffffff1673ffffffffffffffffffffffffffffffffffffffff168152602001908152602001600020600501805480602002602001604051908101604052809291908181526020018280548015613a1557602002820191906000526020600020905b8160009054906101000a900473ffffffffffffffffffffffffffffffffffffffff1673ffffffffffffffffffffffffffffffffffffffff16815260200190600101908083116139cb575b50505050509050919050565b613a29613b63565b73ffffffffffffffffffffffffffffffffffffffff16613a47611fd3565b73ffffffffffffffffffffffffffffffffffffffff1614613a9d576040517f08c379a0000000000000000000000000000000000000000000000000000000008152600401613a94906153a4565b60405180910390fd5b565b60008060009054906101000a900473ffffffffffffffffffffffffffffffffffffffff169050816000806101000a81548173ffffffffffffffffffffffffffffffffffffffff021916908373ffffffffffffffffffffffffffffffffffffffff1602179055508173ffffffffffffffffffffffffffffffffffffffff168173ffffffffffffffffffffffffffffffffffffffff167f8be0079c531659141344cd1fd0a4f28419497f9722a3daafe3b4186f6b6457e060405160405180910390a35050565b600033905090565b60405180608001604052806060815260200160608152602001600073ffffffffffffffffffffffffffffffffffffffff1681526020016000151581525090565b604051806101a0016040528060608152602001606081526020016060815260200160608152602001600015158152602001600015158152602001600015158152602001600073ffffffffffffffffffffffffffffffffffffffff16815260200160608152602001606081526020016000815260200160008152602001600081525090565b6040518060c00160405280600073ffffffffffffffffffffffffffffffffffffffff168152602001606081526020016000815260200160008152602001600081526020016000151581525090565b6000604051905090565b600080fd5b600080fd5b600073ffffffffffffffffffffffffffffffffffffffff82169050919050565b6000613cbc82613c91565b9050919050565b613ccc81613cb1565b8114613cd757600080fd5b50565b600081359050613ce981613cc3565b92915050565b6000819050919050565b613d0281613cef565b8114613d0d57600080fd5b50565b600081359050613d1f81613cf9565b92915050565b600080600060608486031215613d3e57613d3d613c87565b5b6000613d4c86828701613cda565b9350506020613d5d86828701613cda565b9250506040613d6e86828701613d10565b9150509250925092565b613d8181613cb1565b82525050565b600081519050919050565b600082825260208201905092915050565b60005b83811015613dc1578082015181840152602081019050613da6565b60008484015250505050565b6000601f19601f8301169050919050565b6000613de982613d87565b613df38185613d92565b9350613e03818560208601613da3565b613e0c81613dcd565b840191505092915050565b613e2081613cef565b82525050565b60008115159050919050565b613e3b81613e26565b82525050565b600060c082019050613e566000830189613d78565b8181036020830152613e688188613dde565b9050613e776040830187613e17565b613e846060830186613e17565b613e916080830185613e17565b613e9e60a0830184613e32565b979650505050505050565b600060208284031215613ebf57613ebe613c87565b5b6000613ecd84828501613d10565b91505092915050565b6000602082019050613eeb6000830184613d78565b92915050565b600060208284031215613f0757613f06613c87565b5b6000613f1584828501613cda565b91505092915050565b6000610160820190508181036000830152613f39818e613dde565b90508181036020830152613f4d818d613dde565b90508181036040830152613f61818c613dde565b90508181036060830152613f75818b613dde565b9050613f84608083018a613e32565b613f9160a0830189613e32565b613f9e60c0830188613e32565b613fab60e0830187613d78565b613fb9610100830186613e17565b613fc7610120830185613e17565b613fd5610140830184613e17565b9c9b505050505050505050505050565b600080fd5b600080fd5b7f4e487b7100000000000000000000000000000000000000000000000000000000600052604160045260246000fd5b61402782613dcd565b810181811067ffffffffffffffff8211171561404657614045613fef565b5b80604052505050565b6000614059613c7d565b9050614065828261401e565b919050565b600067ffffffffffffffff82111561408557614084613fef565b5b61408e82613dcd565b9050602081019050919050565b82818337600083830152505050565b60006140bd6140b88461406a565b61404f565b9050828152602081018484840111156140d9576140d8613fea565b5b6140e484828561409b565b509392505050565b600082601f83011261410157614100613fe5565b5b81356141118482602086016140aa565b91505092915050565b60008060008060008060c0878903121561413757614136613c87565b5b600061414589828a01613cda565b965050602061415689828a01613cda565b955050604087013567ffffffffffffffff81111561417757614176613c8c565b5b61418389828a016140ec565b945050606061419489828a01613d10565b93505060806141a589828a01613d10565b92505060a06141b689828a01613d10565b9150509295509295509295565b6000806000606084860312156141dc576141db613c87565b5b60006141ea86828701613d10565b93505060206141fb86828701613d10565b925050604061420c86828701613d10565b9150509250925092565b600080600080600060a0868803121561423257614231613c87565b5b600061424088828901613cda565b955050602061425188828901613cda565b945050604061426288828901613d10565b935050606061427388828901613d10565b925050608061428488828901613d10565b9150509295509295909350565b600082825260208201905092915050565b60006142ad82613d87565b6142b78185614291565b93506142c7818560208601613da3565b6142d081613dcd565b840191505092915050565b6142e481613cb1565b82525050565b6142f381613e26565b82525050565b6000608083016000830151848203600086015261431682826142a2565b9150506020830151848203602086015261433082826142a2565b915050604083015161434560408601826142db565b50606083015161435860608601826142ea565b508091505092915050565b6000602082019050818103600083015261437d81846142f9565b905092915050565b6000806040838503121561439c5761439b613c87565b5b60006143aa85828601613cda565b925050602083013567ffffffffffffffff8111156143cb576143ca613c8c565b5b6143d7858286016140ec565b9150509250929050565b600060808201905081810360008301526143fb8187613dde565b9050818103602083015261440f8186613dde565b905061441e6040830185613d78565b61442b6060830184613e32565b95945050505050565b60006020820190506144496000830184613e32565b92915050565b60008060006060848603121561446857614467613c87565b5b600084013567ffffffffffffffff81111561448657614485613c8c565b5b614492868287016140ec565b935050602084013567ffffffffffffffff8111156144b3576144b2613c8c565b5b6144bf868287016140ec565b925050604084013567ffffffffffffffff8111156144e0576144df613c8c565b5b6144ec868287016140ec565b9150509250925092565b600080600080608085870312156145105761450f613c87565b5b600061451e87828801613cda565b945050602085013567ffffffffffffffff81111561453f5761453e613c8c565b5b61454b878288016140ec565b935050604085013567ffffffffffffffff81111561456c5761456b613c8c565b5b614578878288016140ec565b925050606061458987828801613cda565b91505092959194509250565b600081519050919050565b600082825260208201905092915050565b6000819050602082019050919050565b60006145cd83836142db565b60208301905092915050565b6000602082019050919050565b60006145f182614595565b6145fb81856145a0565b9350614606836145b1565b8060005b8381101561463757815161461e88826145c1565b9750614629836145d9565b92505060018101905061460a565b5085935050505092915050565b6000602082019050818103600083015261465e81846145e6565b905092915050565b600082825260208201905092915050565b600061468282614595565b61468c8185614666565b9350614697836145b1565b8060005b838110156146c85781516146af88826145c1565b97506146ba836145d9565b92505060018101905061469b565b5085935050505092915050565b600081519050919050565b600082825260208201905092915050565b6000819050602082019050919050565b61470a81613cef565b82525050565b600061471c8383614701565b60208301905092915050565b6000602082019050919050565b6000614740826146d5565b61474a81856146e0565b9350614755836146f1565b8060005b8381101561478657815161476d8882614710565b975061477883614728565b925050600181019050614759565b5085935050505092915050565b60006101a08301600083015184820360008601526147b182826142a2565b915050602083015184820360208601526147cb82826142a2565b915050604083015184820360408601526147e582826142a2565b915050606083015184820360608601526147ff82826142a2565b915050608083015161481460808601826142ea565b5060a083015161482760a08601826142ea565b5060c083015161483a60c08601826142ea565b5060e083015161484d60e08601826142db565b506101008301518482036101008601526148678282614677565b9150506101208301518482036101208601526148838282614735565b91505061014083015161489a610140860182614701565b506101608301516148af610160860182614701565b506101808301516148c4610180860182614701565b508091505092915050565b600060208201905081810360008301526148e98184614793565b905092915050565b6000806000806080858703121561490b5761490a613c87565b5b600061491987828801613cda565b945050602061492a87828801613cda565b935050604061493b87828801613d10565b925050606061494c87828801613d10565b91505092959194509250565b600060c08301600083015161497060008601826142db565b506020830151848203602086015261498882826142a2565b915050604083015161499d6040860182614701565b5060608301516149b06060860182614701565b5060808301516149c36080860182614701565b5060a08301516149d660a08601826142ea565b508091505092915050565b600060208201905081810360008301526149fb8184614958565b905092915050565b600080600060608486031215614a1c57614a1b613c87565b5b600084013567ffffffffffffffff811115614a3a57614a39613c8c565b5b614a46868287016140ec565b935050602084013567ffffffffffffffff811115614a6757614a66613c8c565b5b614a73868287016140ec565b9250506040614a8486828701613cda565b9150509250925092565b6000602082019050614aa36000830184613e17565b92915050565b60008060408385031215614ac057614abf613c87565b5b6000614ace85828601613cda565b9250506020614adf85828601613cda565b9150509250929050565b7f4e487b7100000000000000000000000000000000000000000000000000000000600052602260045260246000fd5b60006002820490506001821680614b3057607f821691505b602082108103614b4357614b42614ae9565b5b50919050565b7f466972737420646f20726567697374726174696f6e0000000000000000000000600082015250565b6000614b7f601583613d92565b9150614b8a82614b49565b602082019050919050565b60006020820190508181036000830152614bae81614b72565b9050919050565b7f656d61696c206973206e6f742076657269666965640000000000000000000000600082015250565b6000614beb601583613d92565b9150614bf682614bb5565b602082019050919050565b60006020820190508181036000830152614c1a81614bde565b9050919050565b60008190508160005260206000209050919050565b60006020601f8301049050919050565b600082821b905092915050565b600060088302614c837fffffffffffffffffffffffffffffffffffffffffffffffffffffffffffffffff82614c46565b614c8d8683614c46565b95508019841693508086168417925050509392505050565b6000819050919050565b6000614cca614cc5614cc084613cef565b614ca5565b613cef565b9050919050565b6000819050919050565b614ce483614caf565b614cf8614cf082614cd1565b848454614c53565b825550505050565b600090565b614d0d614d00565b614d18818484614cdb565b505050565b5b81811015614d3c57614d31600082614d05565b600181019050614d1e565b5050565b601f821115614d8157614d5281614c21565b614d5b84614c36565b81016020851015614d6a578190505b614d7e614d7685614c36565b830182614d1d565b50505b505050565b600082821c905092915050565b6000614da460001984600802614d86565b1980831691505092915050565b6000614dbd8383614d93565b9150826002028217905092915050565b614dd682613d87565b67ffffffffffffffff811115614def57614dee613fef565b5b614df98254614b18565b614e04828285614d40565b600060209050601f831160018114614e375760008415614e25578287015190505b614e2f8582614db1565b865550614e97565b601f198416614e4586614c21565b60005b82811015614e6d57848901518255600182019150602085019450602081019050614e48565b86831015614e8a5784890151614e86601f891682614d93565b8355505b6001600288020188555050505b505050505050565b6000606082019050614eb46000830186613e17565b614ec16020830185613e17565b614ece6040830184613e17565b949350505050565b7f4e487b7100000000000000000000000000000000000000000000000000000000600052603260045260246000fd5b6000606082019050614f1a6000830186613d78565b614f276020830185613d78565b614f346040830184613e17565b949350505050565b614f4581613e26565b8114614f5057600080fd5b50565b600081519050614f6281614f3c565b92915050565b600060208284031215614f7e57614f7d613c87565b5b6000614f8c84828501614f53565b91505092915050565b7f4e487b7100000000000000000000000000000000000000000000000000000000600052601160045260246000fd5b6000614fcf82613cef565b91507fffffffffffffffffffffffffffffffffffffffffffffffffffffffffffffffff820361500157615000614f95565b5b600182019050919050565b600060208201905081810360008301526150268184613dde565b905092915050565b7f416c726561647920726567697374657265640000000000000000000000000000600082015250565b6000615064601283613d92565b915061506f8261502e565b602082019050919050565b6000602082019050818103600083015261509381615057565b9050919050565b7f4e6f6d696e6565206973206e6f74206164646564000000000000000000000000600082015250565b60006150d0601483613d92565b91506150db8261509a565b602082019050919050565b600060208201905081810360008301526150ff816150c3565b9050919050565b600060408201905081810360008301526151208185613dde565b905081810360208301526151348184613dde565b90509392505050565b7f416c726561647920796f757220656d61696c2069732076657269666965640000600082015250565b6000615173601e83613d92565b915061517e8261513d565b602082019050919050565b600060208201905081810360008301526151a281615166565b9050919050565b7f4f776e657220726573706f6e6465640000000000000000000000000000000000600082015250565b60006151df600f83613d92565b91506151ea826151a9565b602082019050919050565b6000602082019050818103600083015261520e816151d2565b9050919050565b7f4e6f6d696e656520697320616c72656164792061646465640000000000000000600082015250565b600061524b601883613d92565b915061525682615215565b602082019050919050565b6000602082019050818103600083015261527a8161523e565b9050919050565b60006060820190506152966000830186613d78565b81810360208301526152a88185613dde565b905081810360408301526152bc8184613dde565b9050949350505050565b7f4f776e61626c653a206e6577206f776e657220697320746865207a65726f206160008201527f6464726573730000000000000000000000000000000000000000000000000000602082015250565b6000615322602683613d92565b915061532d826152c6565b604082019050919050565b6000602082019050818103600083015261535181615315565b9050919050565b7f4f776e61626c653a2063616c6c6572206973206e6f7420746865206f776e6572600082015250565b600061538e602083613d92565b915061539982615358565b602082019050919050565b600060208201905081810360008301526153bd81615381565b905091905056fea2646970667358221220dd04eafb57712138cf60452838c11fec1b55814e9e58e17933a80e8f750b97cd64736f6c63430008110033",
  "linkReferences": {},
  "deployedLinkReferences": {}
}