{
  "_format": "hh-sol-artifact-1",
  "contractName": "Inheritokens",
  "sourceName": "contracts/Inheritokens.sol",
  "abi": [
    {
      "inputs": [],
      "stateMutability": "nonpayable",
      "type": "constructor"
    },
    {
      "anonymous": false,
      "inputs": [
        {
          "indexed": true,
          "internalType": "address",
          "name": "_owner",
          "type": "address"
        },
        {
          "indexed": true,
          "internalType": "address",
          "name": "_tokenAddress",
          "type": "address"
        },
        {
          "indexed": false,
          "internalType": "uint256",
          "name": "_amount",
          "type": "uint256"
        }
      ],
      "name": "AllocatedShareUpdated",
      "type": "event"
    },
    {
      "anonymous": false,
      "inputs": [
        {
          "indexed": true,
          "internalType": "address",
          "name": "_owner",
          "type": "address"
        },
        {
          "indexed": false,
          "internalType": "uint256",
          "name": "_charityId",
          "type": "uint256"
        }
      ],
      "name": "CharityWhitelisted",
      "type": "event"
    },
    {
      "anonymous": false,
      "inputs": [
        {
          "indexed": true,
          "internalType": "address",
          "name": "_owner",
          "type": "address"
        }
      ],
      "name": "EmailVerified",
      "type": "event"
    },
    {
      "anonymous": false,
      "inputs": [
        {
          "indexed": true,
          "internalType": "address",
          "name": "_owner",
          "type": "address"
        },
        {
          "indexed": false,
          "internalType": "address",
          "name": "_nominee",
          "type": "address"
        },
        {
          "indexed": false,
          "internalType": "string",
          "name": "_name",
          "type": "string"
        },
        {
          "indexed": false,
          "internalType": "string",
          "name": "_mail",
          "type": "string"
        }
      ],
      "name": "NomineeAdded",
      "type": "event"
    },
    {
      "anonymous": false,
      "inputs": [
        {
          "indexed": true,
          "internalType": "address",
          "name": "_owner",
          "type": "address"
        },
        {
          "indexed": true,
          "internalType": "address",
          "name": "_oldAddress",
          "type": "address"
        },
        {
          "indexed": true,
          "internalType": "address",
          "name": "_newAddress",
          "type": "address"
        },
        {
          "indexed": false,
          "internalType": "string",
          "name": "_name",
          "type": "string"
        },
        {
          "indexed": false,
          "internalType": "string",
          "name": "_mail",
          "type": "string"
        }
      ],
      "name": "NomineeDetailsUpdated",
      "type": "event"
    },
    {
      "anonymous": false,
      "inputs": [
        {
          "indexed": true,
          "internalType": "address",
          "name": "_owner",
          "type": "address"
        },
        {
          "indexed": false,
          "internalType": "string",
          "name": "_name",
          "type": "string"
        }
      ],
      "name": "OwnerRegistered",
      "type": "event"
    },
    {
      "anonymous": false,
      "inputs": [
        {
          "indexed": true,
          "internalType": "address",
          "name": "_owner",
          "type": "address"
        }
      ],
      "name": "OwnerResponded",
      "type": "event"
    },
    {
      "anonymous": false,
      "inputs": [
        {
          "indexed": true,
          "internalType": "address",
          "name": "previousOwner",
          "type": "address"
        },
        {
          "indexed": true,
          "internalType": "address",
          "name": "newOwner",
          "type": "address"
        }
      ],
      "name": "OwnershipTransferred",
      "type": "event"
    },
    {
      "anonymous": false,
      "inputs": [
        {
          "indexed": true,
          "internalType": "address",
          "name": "_owner",
          "type": "address"
        },
        {
          "indexed": false,
          "internalType": "address",
          "name": "_recoveryAddress",
          "type": "address"
        }
      ],
      "name": "RecoveryAddressAdded",
      "type": "event"
    },
    {
      "anonymous": false,
      "inputs": [
        {
          "indexed": true,
          "internalType": "address",
          "name": "_owner",
          "type": "address"
        },
        {
          "indexed": false,
          "internalType": "string",
          "name": "_date",
          "type": "string"
        }
      ],
      "name": "ResponsedDateSet",
      "type": "event"
    },
    {
      "anonymous": false,
      "inputs": [
        {
          "indexed": true,
          "internalType": "address",
          "name": "_owner",
          "type": "address"
        },
        {
          "indexed": false,
          "internalType": "uint256",
          "name": "_inactivity",
          "type": "uint256"
        },
        {
          "indexed": false,
          "internalType": "uint256",
          "name": "_mail",
          "type": "uint256"
        },
        {
          "indexed": false,
          "internalType": "uint256",
          "name": "_nominee",
          "type": "uint256"
        }
      ],
      "name": "TimePeriodsUpdated",
      "type": "event"
    },
    {
      "anonymous": false,
      "inputs": [
        {
          "indexed": true,
          "internalType": "address",
          "name": "_owner",
          "type": "address"
        },
        {
          "indexed": true,
          "internalType": "address",
          "name": "_tokenAddress",
          "type": "address"
        },
        {
          "indexed": true,
          "internalType": "uint256",
          "name": "_tokenId",
          "type": "uint256"
        }
      ],
      "name": "TokenStructureAssigned",
      "type": "event"
    },
    {
      "inputs": [
        {
          "internalType": "string",
          "name": "_name",
          "type": "string"
        },
        {
          "internalType": "string",
          "name": "_email",
          "type": "string"
        },
        {
          "internalType": "address",
          "name": "_nominee",
          "type": "address"
        }
      ],
      "name": "addNomineesDetails",
      "outputs": [],
      "stateMutability": "nonpayable",
      "type": "function"
    },
    {
      "inputs": [
        {
          "internalType": "string",
          "name": "_name",
          "type": "string"
        },
        {
          "internalType": "string",
          "name": "_email",
          "type": "string"
        },
        {
          "internalType": "string",
          "name": "_cid",
          "type": "string"
        }
      ],
      "name": "addOwnerDetails",
      "outputs": [],
      "stateMutability": "nonpayable",
      "type": "function"
    },
    {
      "inputs": [
        {
          "internalType": "address",
          "name": "_recoveryAddress",
          "type": "address"
        }
      ],
      "name": "addWalletRecovery",
      "outputs": [],
      "stateMutability": "nonpayable",
      "type": "function"
    },
    {
      "inputs": [
        {
          "internalType": "address",
          "name": "",
          "type": "address"
        },
        {
          "internalType": "address",
          "name": "",
          "type": "address"
        }
      ],
      "name": "addressToNominee",
      "outputs": [
        {
          "internalType": "string",
          "name": "nominee_name",
          "type": "string"
        },
        {
          "internalType": "string",
          "name": "nominee_email",
          "type": "string"
        },
        {
          "internalType": "address",
          "name": "nominee_address",
          "type": "address"
        }
      ],
      "stateMutability": "view",
      "type": "function"
    },
    {
      "inputs": [
        {
          "internalType": "address",
          "name": "",
          "type": "address"
        }
      ],
      "name": "addressToOwner",
      "outputs": [
        {
          "internalType": "string",
          "name": "owner_name",
          "type": "string"
        },
        {
          "internalType": "string",
          "name": "owner_email",
          "type": "string"
        },
        {
          "internalType": "string",
          "name": "image_cid",
          "type": "string"
        },
        {
          "internalType": "string",
          "name": "date",
          "type": "string"
        },
        {
          "internalType": "bool",
          "name": "isEmailVerified",
          "type": "bool"
        },
        {
          "internalType": "bool",
          "name": "isClaimable",
          "type": "bool"
        },
        {
          "internalType": "bool",
          "name": "isResponsed",
          "type": "bool"
        },
        {
          "internalType": "address",
          "name": "recoveryAddress",
          "type": "address"
        },
        {
          "internalType": "uint256",
          "name": "monthsOfInactivity",
          "type": "uint256"
        },
        {
          "internalType": "uint256",
          "name": "monthsOfSendingMailToOwner",
          "type": "uint256"
        },
        {
          "internalType": "uint256",
          "name": "monthsForNominee",
          "type": "uint256"
        }
      ],
      "stateMutability": "view",
      "type": "function"
    },
    {
      "inputs": [
        {
          "internalType": "address",
          "name": "_owner",
          "type": "address"
        },
        {
          "internalType": "address",
          "name": "_tokenAddress",
          "type": "address"
        },
        {
          "internalType": "string",
          "name": "_tokenName",
          "type": "string"
        },
        {
          "internalType": "uint256",
          "name": "_category",
          "type": "uint256"
        },
        {
          "internalType": "uint256",
          "name": "_tokenId",
          "type": "uint256"
        },
        {
          "internalType": "uint256",
          "name": "amount",
          "type": "uint256"
        }
      ],
      "name": "assignTokenStruct",
      "outputs": [],
      "stateMutability": "nonpayable",
      "type": "function"
    },
    {
      "inputs": [
        {
          "internalType": "uint256",
          "name": "_inactivity",
          "type": "uint256"
        },
        {
          "internalType": "uint256",
          "name": "_mail",
          "type": "uint256"
        },
        {
          "internalType": "uint256",
          "name": "_nominee",
          "type": "uint256"
        }
      ],
      "name": "changeTimePeriods",
      "outputs": [],
      "stateMutability": "nonpayable",
      "type": "function"
    },
    {
      "inputs": [
        {
          "internalType": "address",
          "name": "_owner",
          "type": "address"
        }
      ],
      "name": "checkEmailVerified",
      "outputs": [
        {
          "internalType": "bool",
          "name": "",
          "type": "bool"
        }
      ],
      "stateMutability": "view",
      "type": "function"
    },
    {
      "inputs": [
        {
          "internalType": "address",
          "name": "_owner",
          "type": "address"
        }
      ],
      "name": "checkOwnerAdded",
      "outputs": [
        {
          "internalType": "bool",
          "name": "",
          "type": "bool"
        }
      ],
      "stateMutability": "view",
      "type": "function"
    },
    {
      "inputs": [
        {
          "internalType": "address",
          "name": "_oldNomineeAddress",
          "type": "address"
        },
        {
          "internalType": "string",
          "name": "_name",
          "type": "string"
        },
        {
          "internalType": "string",
          "name": "_email",
          "type": "string"
        },
        {
          "internalType": "address",
          "name": "_newNomineeAddress",
          "type": "address"
        }
      ],
      "name": "editNomineeDetails",
      "outputs": [],
      "stateMutability": "nonpayable",
      "type": "function"
    },
    {
      "inputs": [
        {
          "internalType": "string",
          "name": "_name",
          "type": "string"
        },
        {
          "internalType": "string",
          "name": "_email",
          "type": "string"
        },
        {
          "internalType": "string",
          "name": "_cid",
          "type": "string"
        }
      ],
      "name": "editOwnerDetails",
      "outputs": [],
      "stateMutability": "nonpayable",
      "type": "function"
    },
    {
      "inputs": [
        {
          "internalType": "address",
          "name": "_owner",
          "type": "address"
        }
      ],
      "name": "getAllNominees",
      "outputs": [
        {
          "internalType": "address[]",
          "name": "",
          "type": "address[]"
        }
      ],
      "stateMutability": "view",
      "type": "function"
    },
    {
      "inputs": [
        {
          "internalType": "address",
          "name": "_owner",
          "type": "address"
        }
      ],
      "name": "getAllNomineesOfOwner",
      "outputs": [
        {
          "internalType": "address[]",
          "name": "",
          "type": "address[]"
        }
      ],
      "stateMutability": "view",
      "type": "function"
    },
    {
      "inputs": [
        {
          "internalType": "address",
          "name": "_owner",
          "type": "address"
        }
      ],
      "name": "getIsClaimable",
      "outputs": [
        {
          "internalType": "bool",
          "name": "",
          "type": "bool"
        }
      ],
      "stateMutability": "view",
      "type": "function"
    },
    {
      "inputs": [
        {
          "internalType": "address",
          "name": "_owner",
          "type": "address"
        },
        {
          "internalType": "address",
          "name": "_nominee",
          "type": "address"
        }
      ],
      "name": "getNomineeDetails",
      "outputs": [
        {
          "components": [
            {
              "internalType": "string",
              "name": "nominee_name",
              "type": "string"
            },
            {
              "internalType": "string",
              "name": "nominee_email",
              "type": "string"
            },
            {
              "internalType": "address",
              "name": "nominee_address",
              "type": "address"
            }
          ],
          "internalType": "struct Inheritokens.Nominee",
          "name": "",
          "type": "tuple"
        }
      ],
      "stateMutability": "view",
      "type": "function"
    },
    {
      "inputs": [
        {
          "internalType": "address",
          "name": "_owner",
          "type": "address"
        }
      ],
      "name": "getOwnerDetails",
      "outputs": [
        {
          "components": [
            {
              "internalType": "string",
              "name": "owner_name",
              "type": "string"
            },
            {
              "internalType": "string",
              "name": "owner_email",
              "type": "string"
            },
            {
              "internalType": "string",
              "name": "image_cid",
              "type": "string"
            },
            {
              "internalType": "string",
              "name": "date",
              "type": "string"
            },
            {
              "internalType": "bool",
              "name": "isEmailVerified",
              "type": "bool"
            },
            {
              "internalType": "bool",
              "name": "isClaimable",
              "type": "bool"
            },
            {
              "internalType": "bool",
              "name": "isResponsed",
              "type": "bool"
            },
            {
              "internalType": "address",
              "name": "recoveryAddress",
              "type": "address"
            },
            {
              "internalType": "address[]",
              "name": "nominees",
              "type": "address[]"
            },
            {
              "internalType": "uint256[]",
              "name": "charities",
              "type": "uint256[]"
            },
            {
              "internalType": "uint256",
              "name": "monthsOfInactivity",
              "type": "uint256"
            },
            {
              "internalType": "uint256",
              "name": "monthsOfSendingMailToOwner",
              "type": "uint256"
            },
            {
              "internalType": "uint256",
              "name": "monthsForNominee",
              "type": "uint256"
            }
          ],
          "internalType": "struct Inheritokens.Owner",
          "name": "",
          "type": "tuple"
        }
      ],
      "stateMutability": "view",
      "type": "function"
    },
    {
      "inputs": [],
      "name": "getOwners",
      "outputs": [
        {
          "internalType": "address[]",
          "name": "",
          "type": "address[]"
        }
      ],
      "stateMutability": "view",
      "type": "function"
    },
    {
      "inputs": [
        {
          "internalType": "address",
          "name": "_owner",
          "type": "address"
        },
        {
          "internalType": "address",
          "name": "_tokenAddress",
          "type": "address"
        },
        {
          "internalType": "uint256",
          "name": "_tokenId",
          "type": "uint256"
        },
        {
          "internalType": "uint256",
          "name": "_category",
          "type": "uint256"
        }
      ],
      "name": "getTokenStruct",
      "outputs": [
        {
          "components": [
            {
              "internalType": "address",
              "name": "token_address",
              "type": "address"
            },
            {
              "internalType": "string",
              "name": "token_name",
              "type": "string"
            },
            {
              "internalType": "uint256",
              "name": "category",
              "type": "uint256"
            },
            {
              "internalType": "uint256",
              "name": "token_id",
              "type": "uint256"
            },
            {
              "internalType": "uint256",
              "name": "allocated_share",
              "type": "uint256"
            },
            {
              "internalType": "bool",
              "name": "isNominated",
              "type": "bool"
            }
          ],
          "internalType": "struct Inheritokens.Token",
          "name": "",
          "type": "tuple"
        }
      ],
      "stateMutability": "view",
      "type": "function"
    },
    {
      "inputs": [],
      "name": "getTotalOwners",
      "outputs": [
        {
          "internalType": "uint256",
          "name": "",
          "type": "uint256"
        }
      ],
      "stateMutability": "view",
      "type": "function"
    },
    {
      "inputs": [
        {
          "internalType": "address",
          "name": "_owner",
          "type": "address"
        }
      ],
      "name": "getWhiteListedCharities",
      "outputs": [
        {
          "internalType": "uint256[]",
          "name": "",
          "type": "uint256[]"
        }
      ],
      "stateMutability": "view",
      "type": "function"
    },
    {
      "inputs": [
        {
          "internalType": "address",
          "name": "",
          "type": "address"
        },
        {
          "internalType": "address",
          "name": "",
          "type": "address"
        }
      ],
      "name": "isNomineeAdded",
      "outputs": [
        {
          "internalType": "bool",
          "name": "",
          "type": "bool"
        }
      ],
      "stateMutability": "view",
      "type": "function"
    },
    {
      "inputs": [
        {
          "internalType": "address",
          "name": "",
          "type": "address"
        }
      ],
      "name": "isOwnerAdded",
      "outputs": [
        {
          "internalType": "bool",
          "name": "",
          "type": "bool"
        }
      ],
      "stateMutability": "view",
      "type": "function"
    },
    {
      "inputs": [
        {
          "internalType": "address",
          "name": "",
          "type": "address"
        },
        {
          "internalType": "address",
          "name": "",
          "type": "address"
        },
        {
          "internalType": "uint256",
          "name": "",
          "type": "uint256"
        }
      ],
      "name": "nftAddressToTokenStruct",
      "outputs": [
        {
          "internalType": "address",
          "name": "token_address",
          "type": "address"
        },
        {
          "internalType": "string",
          "name": "token_name",
          "type": "string"
        },
        {
          "internalType": "uint256",
          "name": "category",
          "type": "uint256"
        },
        {
          "internalType": "uint256",
          "name": "token_id",
          "type": "uint256"
        },
        {
          "internalType": "uint256",
          "name": "allocated_share",
          "type": "uint256"
        },
        {
          "internalType": "bool",
          "name": "isNominated",
          "type": "bool"
        }
      ],
      "stateMutability": "view",
      "type": "function"
    },
    {
      "inputs": [],
      "name": "owner",
      "outputs": [
        {
          "internalType": "address",
          "name": "",
          "type": "address"
        }
      ],
      "stateMutability": "view",
      "type": "function"
    },
    {
      "inputs": [
        {
          "internalType": "uint256",
          "name": "",
          "type": "uint256"
        }
      ],
      "name": "owners",
      "outputs": [
        {
          "internalType": "address",
          "name": "",
          "type": "address"
        }
      ],
      "stateMutability": "view",
      "type": "function"
    },
    {
      "inputs": [],
      "name": "renounceOwnership",
      "outputs": [],
      "stateMutability": "nonpayable",
      "type": "function"
    },
    {
      "inputs": [
        {
          "internalType": "address",
          "name": "_owner",
          "type": "address"
        }
      ],
      "name": "setOwnerNotAlive",
      "outputs": [],
      "stateMutability": "nonpayable",
      "type": "function"
    },
    {
      "inputs": [],
      "name": "setResponse",
      "outputs": [],
      "stateMutability": "nonpayable",
      "type": "function"
    },
    {
      "inputs": [
        {
          "internalType": "address",
          "name": "_owner",
          "type": "address"
        },
        {
          "internalType": "string",
          "name": "_date",
          "type": "string"
        }
      ],
      "name": "setResponseDate",
      "outputs": [],
      "stateMutability": "nonpayable",
      "type": "function"
    },
    {
      "inputs": [
        {
          "internalType": "uint256",
          "name": "_charityId",
          "type": "uint256"
        }
      ],
      "name": "setWhiteListedCharities",
      "outputs": [],
      "stateMutability": "nonpayable",
      "type": "function"
    },
    {
      "inputs": [
        {
          "internalType": "address",
          "name": "",
          "type": "address"
        },
        {
          "internalType": "address",
          "name": "",
          "type": "address"
        }
      ],
      "name": "tokenAddressToTokenStruct",
      "outputs": [
        {
          "internalType": "address",
          "name": "token_address",
          "type": "address"
        },
        {
          "internalType": "string",
          "name": "token_name",
          "type": "string"
        },
        {
          "internalType": "uint256",
          "name": "category",
          "type": "uint256"
        },
        {
          "internalType": "uint256",
          "name": "token_id",
          "type": "uint256"
        },
        {
          "internalType": "uint256",
          "name": "allocated_share",
          "type": "uint256"
        },
        {
          "internalType": "bool",
          "name": "isNominated",
          "type": "bool"
        }
      ],
      "stateMutability": "view",
      "type": "function"
    },
    {
      "inputs": [
        {
          "internalType": "address",
          "name": "newOwner",
          "type": "address"
        }
      ],
      "name": "transferOwnership",
      "outputs": [],
      "stateMutability": "nonpayable",
      "type": "function"
    },
    {
      "inputs": [
        {
          "internalType": "address",
          "name": "_owner",
          "type": "address"
        },
        {
          "internalType": "address",
          "name": "_tokenAddress",
          "type": "address"
        },
        {
          "internalType": "uint256",
          "name": "_tokenId",
          "type": "uint256"
        },
        {
          "internalType": "uint256",
          "name": "_amount",
          "type": "uint256"
        },
        {
          "internalType": "uint256",
          "name": "_category",
          "type": "uint256"
        }
      ],
      "name": "updateAllocatedShare",
      "outputs": [],
      "stateMutability": "nonpayable",
      "type": "function"
    },
    {
      "inputs": [
        {
          "internalType": "address",
          "name": "_owner",
          "type": "address"
        }
      ],
      "name": "verifyOwnerEmail",
      "outputs": [],
      "stateMutability": "nonpayable",
      "type": "function"
    }
  ],
  "bytecode": "0x60806040523480156200001157600080fd5b5062000032620000266200003860201b60201c565b6200004060201b60201c565b62000104565b600033905090565b60008060009054906101000a900473ffffffffffffffffffffffffffffffffffffffff169050816000806101000a81548173ffffffffffffffffffffffffffffffffffffffff021916908373ffffffffffffffffffffffffffffffffffffffff1602179055508173ffffffffffffffffffffffffffffffffffffffff168173ffffffffffffffffffffffffffffffffffffffff167f8be0079c531659141344cd1fd0a4f28419497f9722a3daafe3b4186f6b6457e060405160405180910390a35050565b615aeb80620001146000396000f3fe608060405234801561001057600080fd5b50600436106102065760003560e01c80638258d0211161011a578063c3bb8121116100ad578063de508c5b1161007c578063de508c5b1461062e578063e033c92a14610663578063e860585d14610693578063f2fde38b146106af578063f8009785146106cb57610206565b8063c3bb812114610594578063c9b1dacd146105c4578063cb144b39146105f4578063db23f9f31461061057610206565b8063984fd10c116100e9578063984fd10c14610522578063a0e67e2b1461053e578063a5394b391461055c578063b69bd77f1461057857610206565b80638258d0211461049c578063883a2353146104b85780638da5cb5b146104d457806396af3d35146104f257610206565b806325cb763a1161019d57806354add3e71161016c57806354add3e71461040a57806360c5602b14610426578063715018a61461043057806376f0ffc61461043a5780637aca27bd1461046a57610206565b806325cb763a1461037257806337950bfe1461038e5780633d4c12d7146103aa57806345bceabd146103da57610206565b80631056d26d116101d95780631056d26d146102bc578063159305e1146102d857806315b796301461031257806320e4ab6a1461034257610206565b80630220044b1461020b578063025e7c271461024057806306d1681d146102705780630f1f8c051461028c575b600080fd5b610225600480360381019061022091906141dc565b6106fb565b604051610237969594939291906142f8565b60405180910390f35b61025a60048036038101906102559190614360565b610806565b604051610267919061438d565b60405180910390f35b61028a600480360381019061028591906143a8565b610845565b005b6102a660048036038101906102a191906143a8565b610a0a565b6040516102b391906143d5565b60405180910390f35b6102d660048036038101906102d191906143a8565b610a60565b005b6102f260048036038101906102ed91906143a8565b610c4d565b6040516103099b9a999897969594939291906143f0565b60405180910390f35b61032c600480360381019061032791906143a8565b610f0e565b60405161033991906143d5565b60405180910390f35b61035c600480360381019061035791906143a8565b610f67565b6040516103699190614575565b60405180910390f35b61038c600480360381019061038791906146cc565b611037565b005b6103a860048036038101906103a39190614775565b611494565b005b6103c460048036038101906103bf91906143a8565b6116db565b6040516103d191906143d5565b60405180910390f35b6103f460048036038101906103ef91906143a8565b611734565b6040516104019190614886565b60405180910390f35b610424600480360381019061041f91906148a8565b6117ce565b005b61042e611878565b005b610438611a33565b005b610454600480360381019061044f91906143a8565b611a47565b60405161046191906143d5565b60405180910390f35b610484600480360381019061047f9190614904565b611a67565b60405161049393929190614944565b60405180910390f35b6104b660048036038101906104b19190614989565b611bce565b005b6104d260048036038101906104cd9190614360565b611fe7565b005b6104dc6121bc565b6040516104e9919061438d565b60405180910390f35b61050c60048036038101906105079190614904565b6121e5565b6040516105199190614ad1565b60405180910390f35b61053c60048036038101906105379190614af3565b6123f6565b005b610546612a3a565b6040516105539190614575565b60405180910390f35b610576600480360381019061057191906143a8565b612ac8565b005b610592600480360381019061058d9190614b92565b612bbe565b005b6105ae60048036038101906105a991906143a8565b612e6c565b6040516105bb9190614e36565b60405180910390f35b6105de60048036038101906105d99190614e58565b6132b9565b6040516105eb9190614f48565b60405180910390f35b61060e60048036038101906106099190614f6a565b61363c565b005b610618613ad3565b6040516106259190614ff5565b60405180910390f35b61064860048036038101906106439190614904565b613ae0565b60405161065a969594939291906142f8565b60405180910390f35b61067d60048036038101906106789190614904565b613bde565b60405161068a91906143d5565b60405180910390f35b6106ad60048036038101906106a89190614989565b613c0d565b005b6106c960048036038101906106c491906143a8565b613d8e565b005b6106e560048036038101906106e091906143a8565b613e11565b6040516106f29190614575565b60405180910390f35b600760205282600052604060002060205281600052604060002060205280600052604060002060009250925050508060000160009054906101000a900473ffffffffffffffffffffffffffffffffffffffff169080600101805461075e9061503f565b80601f016020809104026020016040519081016040528092919081815260200182805461078a9061503f565b80156107d75780601f106107ac576101008083540402835291602001916107d7565b820191906000526020600020905b8154815290600101906020018083116107ba57829003601f168201915b5050505050908060020154908060030154908060040154908060050160009054906101000a900460ff16905086565b6001818154811061081657600080fd5b906000526020600020016000915054906101000a900473ffffffffffffffffffffffffffffffffffffffff1681565b61084d613ee1565b600260008273ffffffffffffffffffffffffffffffffffffffff1673ffffffffffffffffffffffffffffffffffffffff16815260200190815260200160002060009054906101000a900460ff166108d9576040517f08c379a00000000000000000000000000000000000000000000000000000000081526004016108d0906150e2565b60405180910390fd5b600360008273ffffffffffffffffffffffffffffffffffffffff1673ffffffffffffffffffffffffffffffffffffffff16815260200190815260200160002060040160009054906101000a900460ff1615610969576040517f08c379a000000000000000000000000000000000000000000000000000000000815260040161096090615174565b60405180910390fd5b6001600360008373ffffffffffffffffffffffffffffffffffffffff1673ffffffffffffffffffffffffffffffffffffffff16815260200190815260200160002060040160006101000a81548160ff0219169083151502179055508073ffffffffffffffffffffffffffffffffffffffff167fc075588536ccbcc926766f9090dd0857af2708dfc82df2166eca1059cadf2ec760405160405180910390a250565b6000600260008373ffffffffffffffffffffffffffffffffffffffff1673ffffffffffffffffffffffffffffffffffffffff16815260200190815260200160002060009054906101000a900460ff169050919050565b600260003373ffffffffffffffffffffffffffffffffffffffff1673ffffffffffffffffffffffffffffffffffffffff16815260200190815260200160002060009054906101000a900460ff16610aec576040517f08c379a0000000000000000000000000000000000000000000000000000000008152600401610ae3906150e2565b60405180910390fd5b600360003373ffffffffffffffffffffffffffffffffffffffff1673ffffffffffffffffffffffffffffffffffffffff16815260200190815260200160002060040160009054906101000a900460ff16610b7b576040517f08c379a0000000000000000000000000000000000000000000000000000000008152600401610b729061522c565b60405180910390fd5b80600360003373ffffffffffffffffffffffffffffffffffffffff1673ffffffffffffffffffffffffffffffffffffffff16815260200190815260200160002060040160036101000a81548173ffffffffffffffffffffffffffffffffffffffff021916908373ffffffffffffffffffffffffffffffffffffffff1602179055503373ffffffffffffffffffffffffffffffffffffffff167f7fa39328717f9bda0ec36a3638c195f29c2a4c5ed45d321be74cc64f092c2d3682604051610c42919061438d565b60405180910390a250565b6003602052806000526040600020600091509050806000018054610c709061503f565b80601f0160208091040260200160405190810160405280929190818152602001828054610c9c9061503f565b8015610ce95780601f10610cbe57610100808354040283529160200191610ce9565b820191906000526020600020905b815481529060010190602001808311610ccc57829003601f168201915b505050505090806001018054610cfe9061503f565b80601f0160208091040260200160405190810160405280929190818152602001828054610d2a9061503f565b8015610d775780601f10610d4c57610100808354040283529160200191610d77565b820191906000526020600020905b815481529060010190602001808311610d5a57829003601f168201915b505050505090806002018054610d8c9061503f565b80601f0160208091040260200160405190810160405280929190818152602001828054610db89061503f565b8015610e055780601f10610dda57610100808354040283529160200191610e05565b820191906000526020600020905b815481529060010190602001808311610de857829003601f168201915b505050505090806003018054610e1a9061503f565b80601f0160208091040260200160405190810160405280929190818152602001828054610e469061503f565b8015610e935780601f10610e6857610100808354040283529160200191610e93565b820191906000526020600020905b815481529060010190602001808311610e7657829003601f168201915b5050505050908060040160009054906101000a900460ff16908060040160019054906101000a900460ff16908060040160029054906101000a900460ff16908060040160039054906101000a900473ffffffffffffffffffffffffffffffffffffffff1690806007015490806008015490806009015490508b565b6000600360008373ffffffffffffffffffffffffffffffffffffffff1673ffffffffffffffffffffffffffffffffffffffff16815260200190815260200160002060040160009054906101000a900460ff169050919050565b6060600360008373ffffffffffffffffffffffffffffffffffffffff1673ffffffffffffffffffffffffffffffffffffffff16815260200190815260200160002060050180548060200260200160405190810160405280929190818152602001828054801561102b57602002820191906000526020600020905b8160009054906101000a900473ffffffffffffffffffffffffffffffffffffffff1673ffffffffffffffffffffffffffffffffffffffff1681526020019060010190808311610fe1575b50505050509050919050565b600260008773ffffffffffffffffffffffffffffffffffffffff1673ffffffffffffffffffffffffffffffffffffffff16815260200190815260200160002060009054906101000a900460ff166110c3576040517f08c379a00000000000000000000000000000000000000000000000000000000081526004016110ba906150e2565b60405180910390fd5b600360008773ffffffffffffffffffffffffffffffffffffffff1673ffffffffffffffffffffffffffffffffffffffff16815260200190815260200160002060040160009054906101000a900460ff16611152576040517f08c379a00000000000000000000000000000000000000000000000000000000081526004016111499061522c565b60405180910390fd5b600083036112bf576040518060c001604052808673ffffffffffffffffffffffffffffffffffffffff16815260200185815260200184815260200183815260200182815260200160011515815250600660008873ffffffffffffffffffffffffffffffffffffffff1673ffffffffffffffffffffffffffffffffffffffff16815260200190815260200160002060008773ffffffffffffffffffffffffffffffffffffffff1673ffffffffffffffffffffffffffffffffffffffff16815260200190815260200160002060008201518160000160006101000a81548173ffffffffffffffffffffffffffffffffffffffff021916908373ffffffffffffffffffffffffffffffffffffffff160217905550602082015181600101908161127891906153f8565b5060408201518160020155606082015181600301556080820151816004015560a08201518160050160006101000a81548160ff021916908315150217905550905050611431565b6040518060c001604052808673ffffffffffffffffffffffffffffffffffffffff16815260200185815260200184815260200183815260200182815260200160011515815250600760008873ffffffffffffffffffffffffffffffffffffffff1673ffffffffffffffffffffffffffffffffffffffff16815260200190815260200160002060008773ffffffffffffffffffffffffffffffffffffffff1673ffffffffffffffffffffffffffffffffffffffff168152602001908152602001600020600084815260200190815260200160002060008201518160000160006101000a81548173ffffffffffffffffffffffffffffffffffffffff021916908373ffffffffffffffffffffffffffffffffffffffff16021790555060208201518160010190816113ee91906153f8565b5060408201518160020155606082015181600301556080820151816004015560a08201518160050160006101000a81548160ff0219169083151502179055509050505b818573ffffffffffffffffffffffffffffffffffffffff168773ffffffffffffffffffffffffffffffffffffffff167fbcd808aacc29273be719505ed6a9bc3a667772d205c392aa0a2cc8409a967bc860405160405180910390a4505050505050565b600260003373ffffffffffffffffffffffffffffffffffffffff1673ffffffffffffffffffffffffffffffffffffffff16815260200190815260200160002060009054906101000a900460ff16611520576040517f08c379a0000000000000000000000000000000000000000000000000000000008152600401611517906150e2565b60405180910390fd5b600360003373ffffffffffffffffffffffffffffffffffffffff1673ffffffffffffffffffffffffffffffffffffffff16815260200190815260200160002060040160009054906101000a900460ff166115af576040517f08c379a00000000000000000000000000000000000000000000000000000000081526004016115a69061522c565b60405180910390fd5b82600360003373ffffffffffffffffffffffffffffffffffffffff1673ffffffffffffffffffffffffffffffffffffffff1681526020019081526020016000206007018190555081600360003373ffffffffffffffffffffffffffffffffffffffff1673ffffffffffffffffffffffffffffffffffffffff1681526020019081526020016000206008018190555080600360003373ffffffffffffffffffffffffffffffffffffffff1673ffffffffffffffffffffffffffffffffffffffff168152602001908152602001600020600901819055503373ffffffffffffffffffffffffffffffffffffffff167fa89ed257389bf55f99f23abbebdb8576be22335f63e8f2ed9e12742f3cb4defb8484846040516116ce939291906154ca565b60405180910390a2505050565b6000600360008373ffffffffffffffffffffffffffffffffffffffff1673ffffffffffffffffffffffffffffffffffffffff16815260200190815260200160002060040160019054906101000a900460ff169050919050565b6060600360008373ffffffffffffffffffffffffffffffffffffffff1673ffffffffffffffffffffffffffffffffffffffff1681526020019081526020016000206006018054806020026020016040519081016040528092919081815260200182805480156117c257602002820191906000526020600020905b8154815260200190600101908083116117ae575b50505050509050919050565b6117d6613ee1565b80600360008473ffffffffffffffffffffffffffffffffffffffff1673ffffffffffffffffffffffffffffffffffffffff168152602001908152602001600020600301908161182591906153f8565b508173ffffffffffffffffffffffffffffffffffffffff167f8a1263962e2474bea0a33055f8d55a8113d3481d759b26d9c9d151ad7e552f198260405161186c9190615501565b60405180910390a25050565b600260003373ffffffffffffffffffffffffffffffffffffffff1673ffffffffffffffffffffffffffffffffffffffff16815260200190815260200160002060009054906101000a900460ff16611904576040517f08c379a00000000000000000000000000000000000000000000000000000000081526004016118fb906150e2565b60405180910390fd5b600360003373ffffffffffffffffffffffffffffffffffffffff1673ffffffffffffffffffffffffffffffffffffffff16815260200190815260200160002060040160009054906101000a900460ff16611993576040517f08c379a000000000000000000000000000000000000000000000000000000000815260040161198a9061522c565b60405180910390fd5b6001600360003373ffffffffffffffffffffffffffffffffffffffff1673ffffffffffffffffffffffffffffffffffffffff16815260200190815260200160002060040160026101000a81548160ff0219169083151502179055503373ffffffffffffffffffffffffffffffffffffffff167f10fb698f781e424b2936b656193c9212836bcb66e5da5119147d31561a3d931160405160405180910390a2565b611a3b613ee1565b611a456000613f5f565b565b60026020528060005260406000206000915054906101000a900460ff1681565b600460205281600052604060002060205280600052604060002060009150915050806000018054611a979061503f565b80601f0160208091040260200160405190810160405280929190818152602001828054611ac39061503f565b8015611b105780601f10611ae557610100808354040283529160200191611b10565b820191906000526020600020905b815481529060010190602001808311611af357829003601f168201915b505050505090806001018054611b259061503f565b80601f0160208091040260200160405190810160405280929190818152602001828054611b519061503f565b8015611b9e5780601f10611b7357610100808354040283529160200191611b9e565b820191906000526020600020905b815481529060010190602001808311611b8157829003601f168201915b5050505050908060020160009054906101000a900473ffffffffffffffffffffffffffffffffffffffff16905083565b600260003373ffffffffffffffffffffffffffffffffffffffff1673ffffffffffffffffffffffffffffffffffffffff16815260200190815260200160002060009054906101000a900460ff1615611c5b576040517f08c379a0000000000000000000000000000000000000000000000000000000008152600401611c5290615595565b60405180910390fd5b6001339080600181540180825580915050600190039060005260206000200160009091909190916101000a81548173ffffffffffffffffffffffffffffffffffffffff021916908373ffffffffffffffffffffffffffffffffffffffff16021790555082600360003373ffffffffffffffffffffffffffffffffffffffff1673ffffffffffffffffffffffffffffffffffffffff1681526020019081526020016000206000019081611d0d91906153f8565b5081600360003373ffffffffffffffffffffffffffffffffffffffff1673ffffffffffffffffffffffffffffffffffffffff1681526020019081526020016000206001019081611d5d91906153f8565b5080600360003373ffffffffffffffffffffffffffffffffffffffff1673ffffffffffffffffffffffffffffffffffffffff1681526020019081526020016000206002019081611dad91906153f8565b506000600360003373ffffffffffffffffffffffffffffffffffffffff1673ffffffffffffffffffffffffffffffffffffffff16815260200190815260200160002060040160006101000a81548160ff0219169083151502179055506000600360003373ffffffffffffffffffffffffffffffffffffffff1673ffffffffffffffffffffffffffffffffffffffff16815260200190815260200160002060040160016101000a81548160ff0219169083151502179055506006600360003373ffffffffffffffffffffffffffffffffffffffff1673ffffffffffffffffffffffffffffffffffffffff168152602001908152602001600020600701819055506002600360003373ffffffffffffffffffffffffffffffffffffffff1673ffffffffffffffffffffffffffffffffffffffff168152602001908152602001600020600801819055506002600360003373ffffffffffffffffffffffffffffffffffffffff1673ffffffffffffffffffffffffffffffffffffffff168152602001908152602001600020600901819055506001600260003373ffffffffffffffffffffffffffffffffffffffff1673ffffffffffffffffffffffffffffffffffffffff16815260200190815260200160002060006101000a81548160ff0219169083151502179055503373ffffffffffffffffffffffffffffffffffffffff167f5f66e430b448d83d46a65ab17a365f04c0c8f1a66ac20bcc38dfde7f2d67514184604051611fda9190615501565b60405180910390a2505050565b600260003373ffffffffffffffffffffffffffffffffffffffff1673ffffffffffffffffffffffffffffffffffffffff16815260200190815260200160002060009054906101000a900460ff16612073576040517f08c379a000000000000000000000000000000000000000000000000000000000815260040161206a906150e2565b60405180910390fd5b600360003373ffffffffffffffffffffffffffffffffffffffff1673ffffffffffffffffffffffffffffffffffffffff16815260200190815260200160002060040160009054906101000a900460ff16612102576040517f08c379a00000000000000000000000000000000000000000000000000000000081526004016120f99061522c565b60405180910390fd5b600360003373ffffffffffffffffffffffffffffffffffffffff1673ffffffffffffffffffffffffffffffffffffffff1681526020019081526020016000206006018190806001815401808255809150506001900390600052602060002001600090919091909150553373ffffffffffffffffffffffffffffffffffffffff167f0a9f57650aae67446314481b13a827c479f89b36f2186ba5ced5026358a55c45826040516121b19190614ff5565b60405180910390a250565b60008060009054906101000a900473ffffffffffffffffffffffffffffffffffffffff16905090565b6121ed61402b565b600460008473ffffffffffffffffffffffffffffffffffffffff1673ffffffffffffffffffffffffffffffffffffffff16815260200190815260200160002060008373ffffffffffffffffffffffffffffffffffffffff1673ffffffffffffffffffffffffffffffffffffffff1681526020019081526020016000206040518060600160405290816000820180546122849061503f565b80601f01602080910402602001604051908101604052809291908181526020018280546122b09061503f565b80156122fd5780601f106122d2576101008083540402835291602001916122fd565b820191906000526020600020905b8154815290600101906020018083116122e057829003601f168201915b505050505081526020016001820180546123169061503f565b80601f01602080910402602001604051908101604052809291908181526020018280546123429061503f565b801561238f5780601f106123645761010080835404028352916020019161238f565b820191906000526020600020905b81548152906001019060200180831161237257829003601f168201915b505050505081526020016002820160009054906101000a900473ffffffffffffffffffffffffffffffffffffffff1673ffffffffffffffffffffffffffffffffffffffff1673ffffffffffffffffffffffffffffffffffffffff1681525050905092915050565b600260003373ffffffffffffffffffffffffffffffffffffffff1673ffffffffffffffffffffffffffffffffffffffff16815260200190815260200160002060009054906101000a900460ff16612482576040517f08c379a0000000000000000000000000000000000000000000000000000000008152600401612479906150e2565b60405180910390fd5b600360003373ffffffffffffffffffffffffffffffffffffffff1673ffffffffffffffffffffffffffffffffffffffff16815260200190815260200160002060040160009054906101000a900460ff16612511576040517f08c379a00000000000000000000000000000000000000000000000000000000081526004016125089061522c565b60405180910390fd5b600560003373ffffffffffffffffffffffffffffffffffffffff1673ffffffffffffffffffffffffffffffffffffffff16815260200190815260200160002060008573ffffffffffffffffffffffffffffffffffffffff1673ffffffffffffffffffffffffffffffffffffffff16815260200190815260200160002060009054906101000a900460ff166125da576040517f08c379a00000000000000000000000000000000000000000000000000000000081526004016125d190615699565b60405180910390fd5b600080600090505b600360003373ffffffffffffffffffffffffffffffffffffffff1673ffffffffffffffffffffffffffffffffffffffff1681526020019081526020016000206005018054905081101561296d578573ffffffffffffffffffffffffffffffffffffffff16600360003373ffffffffffffffffffffffffffffffffffffffff1673ffffffffffffffffffffffffffffffffffffffff168152602001908152602001600020600501828154811061269a576126996156b9565b5b9060005260206000200160009054906101000a900473ffffffffffffffffffffffffffffffffffffffff1673ffffffffffffffffffffffffffffffffffffffff160361295a5782600360003373ffffffffffffffffffffffffffffffffffffffff1673ffffffffffffffffffffffffffffffffffffffff1681526020019081526020016000206005018281548110612735576127346156b9565b5b9060005260206000200160006101000a81548173ffffffffffffffffffffffffffffffffffffffff021916908373ffffffffffffffffffffffffffffffffffffffff16021790555084600460003373ffffffffffffffffffffffffffffffffffffffff1673ffffffffffffffffffffffffffffffffffffffff16815260200190815260200160002060008573ffffffffffffffffffffffffffffffffffffffff1673ffffffffffffffffffffffffffffffffffffffff168152602001908152602001600020600001908161280991906153f8565b5083600460003373ffffffffffffffffffffffffffffffffffffffff1673ffffffffffffffffffffffffffffffffffffffff16815260200190815260200160002060008573ffffffffffffffffffffffffffffffffffffffff1673ffffffffffffffffffffffffffffffffffffffff168152602001908152602001600020600101908161289691906153f8565b5082600460003373ffffffffffffffffffffffffffffffffffffffff1673ffffffffffffffffffffffffffffffffffffffff16815260200190815260200160002060008573ffffffffffffffffffffffffffffffffffffffff1673ffffffffffffffffffffffffffffffffffffffff16815260200190815260200160002060020160006101000a81548173ffffffffffffffffffffffffffffffffffffffff021916908373ffffffffffffffffffffffffffffffffffffffff160217905550600191505b808061296590615717565b9150506125e2565b5060001515811515036129b5576040517f08c379a00000000000000000000000000000000000000000000000000000000081526004016129ac906157d1565b60405180910390fd5b8173ffffffffffffffffffffffffffffffffffffffff168573ffffffffffffffffffffffffffffffffffffffff163373ffffffffffffffffffffffffffffffffffffffff167f98181c10b577f57cab84e5876fe882beef6fd7633fa626a112765254ff1c0a3d8787604051612a2b9291906157f1565b60405180910390a45050505050565b60606001805480602002602001604051908101604052809291908181526020018280548015612abe57602002820191906000526020600020905b8160009054906101000a900473ffffffffffffffffffffffffffffffffffffffff1673ffffffffffffffffffffffffffffffffffffffff1681526020019060010190808311612a74575b5050505050905090565b612ad0613ee1565b600360008273ffffffffffffffffffffffffffffffffffffffff1673ffffffffffffffffffffffffffffffffffffffff16815260200190815260200160002060040160029054906101000a900460ff1615612b60576040517f08c379a0000000000000000000000000000000000000000000000000000000008152600401612b5790615874565b60405180910390fd5b6001600360008373ffffffffffffffffffffffffffffffffffffffff1673ffffffffffffffffffffffffffffffffffffffff16815260200190815260200160002060040160016101000a81548160ff02191690831515021790555050565b600260008673ffffffffffffffffffffffffffffffffffffffff1673ffffffffffffffffffffffffffffffffffffffff16815260200190815260200160002060009054906101000a900460ff16612c4a576040517f08c379a0000000000000000000000000000000000000000000000000000000008152600401612c41906150e2565b60405180910390fd5b600360008673ffffffffffffffffffffffffffffffffffffffff1673ffffffffffffffffffffffffffffffffffffffff16815260200190815260200160002060040160009054906101000a900460ff16612cd9576040517f08c379a0000000000000000000000000000000000000000000000000000000008152600401612cd09061522c565b60405180910390fd5b60008103612d6a5781600660008773ffffffffffffffffffffffffffffffffffffffff1673ffffffffffffffffffffffffffffffffffffffff16815260200190815260200160002060008673ffffffffffffffffffffffffffffffffffffffff1673ffffffffffffffffffffffffffffffffffffffff16815260200190815260200160002060040181905550612e00565b81600760008773ffffffffffffffffffffffffffffffffffffffff1673ffffffffffffffffffffffffffffffffffffffff16815260200190815260200160002060008673ffffffffffffffffffffffffffffffffffffffff1673ffffffffffffffffffffffffffffffffffffffff1681526020019081526020016000206000858152602001908152602001600020600401819055505b8373ffffffffffffffffffffffffffffffffffffffff168573ffffffffffffffffffffffffffffffffffffffff167fedc81c1b2ba130e51b15caad1a904620ab3ad26168714cfa53da56e1ecda7f9d84604051612e5d9190614ff5565b60405180910390a35050505050565b612e74614062565b600360008373ffffffffffffffffffffffffffffffffffffffff1673ffffffffffffffffffffffffffffffffffffffff168152602001908152602001600020604051806101a0016040529081600082018054612ecf9061503f565b80601f0160208091040260200160405190810160405280929190818152602001828054612efb9061503f565b8015612f485780601f10612f1d57610100808354040283529160200191612f48565b820191906000526020600020905b815481529060010190602001808311612f2b57829003601f168201915b50505050508152602001600182018054612f619061503f565b80601f0160208091040260200160405190810160405280929190818152602001828054612f8d9061503f565b8015612fda5780601f10612faf57610100808354040283529160200191612fda565b820191906000526020600020905b815481529060010190602001808311612fbd57829003601f168201915b50505050508152602001600282018054612ff39061503f565b80601f016020809104026020016040519081016040528092919081815260200182805461301f9061503f565b801561306c5780601f106130415761010080835404028352916020019161306c565b820191906000526020600020905b81548152906001019060200180831161304f57829003601f168201915b505050505081526020016003820180546130859061503f565b80601f01602080910402602001604051908101604052809291908181526020018280546130b19061503f565b80156130fe5780601f106130d3576101008083540402835291602001916130fe565b820191906000526020600020905b8154815290600101906020018083116130e157829003601f168201915b505050505081526020016004820160009054906101000a900460ff161515151581526020016004820160019054906101000a900460ff161515151581526020016004820160029054906101000a900460ff161515151581526020016004820160039054906101000a900473ffffffffffffffffffffffffffffffffffffffff1673ffffffffffffffffffffffffffffffffffffffff1673ffffffffffffffffffffffffffffffffffffffff1681526020016005820180548060200260200160405190810160405280929190818152602001828054801561323357602002820191906000526020600020905b8160009054906101000a900473ffffffffffffffffffffffffffffffffffffffff1673ffffffffffffffffffffffffffffffffffffffff16815260200190600101908083116131e9575b505050505081526020016006820180548060200260200160405190810160405280929190818152602001828054801561328b57602002820191906000526020600020905b815481526020019060010190808311613277575b5050505050815260200160078201548152602001600882015481526020016009820154815250509050919050565b6132c16140e6565b6000820361347857600660008673ffffffffffffffffffffffffffffffffffffffff1673ffffffffffffffffffffffffffffffffffffffff16815260200190815260200160002060008573ffffffffffffffffffffffffffffffffffffffff1673ffffffffffffffffffffffffffffffffffffffff1681526020019081526020016000206040518060c00160405290816000820160009054906101000a900473ffffffffffffffffffffffffffffffffffffffff1673ffffffffffffffffffffffffffffffffffffffff1673ffffffffffffffffffffffffffffffffffffffff1681526020016001820180546133b69061503f565b80601f01602080910402602001604051908101604052809291908181526020018280546133e29061503f565b801561342f5780601f106134045761010080835404028352916020019161342f565b820191906000526020600020905b81548152906001019060200180831161341257829003601f168201915b505050505081526020016002820154815260200160038201548152602001600482015481526020016005820160009054906101000a900460ff1615151515815250509050613634565b600760008673ffffffffffffffffffffffffffffffffffffffff1673ffffffffffffffffffffffffffffffffffffffff16815260200190815260200160002060008573ffffffffffffffffffffffffffffffffffffffff1673ffffffffffffffffffffffffffffffffffffffff16815260200190815260200160002060008481526020019081526020016000206040518060c00160405290816000820160009054906101000a900473ffffffffffffffffffffffffffffffffffffffff1673ffffffffffffffffffffffffffffffffffffffff1673ffffffffffffffffffffffffffffffffffffffff1681526020016001820180546135769061503f565b80601f01602080910402602001604051908101604052809291908181526020018280546135a29061503f565b80156135ef5780601f106135c4576101008083540402835291602001916135ef565b820191906000526020600020905b8154815290600101906020018083116135d257829003601f168201915b505050505081526020016002820154815260200160038201548152602001600482015481526020016005820160009054906101000a900460ff16151515158152505090505b949350505050565b600260003373ffffffffffffffffffffffffffffffffffffffff1673ffffffffffffffffffffffffffffffffffffffff16815260200190815260200160002060009054906101000a900460ff166136c8576040517f08c379a00000000000000000000000000000000000000000000000000000000081526004016136bf906150e2565b60405180910390fd5b600360003373ffffffffffffffffffffffffffffffffffffffff1673ffffffffffffffffffffffffffffffffffffffff16815260200190815260200160002060040160009054906101000a900460ff16613757576040517f08c379a000000000000000000000000000000000000000000000000000000000815260040161374e9061522c565b60405180910390fd5b600560003373ffffffffffffffffffffffffffffffffffffffff1673ffffffffffffffffffffffffffffffffffffffff16815260200190815260200160002060008273ffffffffffffffffffffffffffffffffffffffff1673ffffffffffffffffffffffffffffffffffffffff16815260200190815260200160002060009054906101000a900460ff1615613821576040517f08c379a000000000000000000000000000000000000000000000000000000000815260040161381890615952565b60405180910390fd5b60405180606001604052808481526020018381526020018273ffffffffffffffffffffffffffffffffffffffff16815250600460003373ffffffffffffffffffffffffffffffffffffffff1673ffffffffffffffffffffffffffffffffffffffff16815260200190815260200160002060008373ffffffffffffffffffffffffffffffffffffffff1673ffffffffffffffffffffffffffffffffffffffff16815260200190815260200160002060008201518160000190816138e391906153f8565b5060208201518160010190816138f991906153f8565b5060408201518160020160006101000a81548173ffffffffffffffffffffffffffffffffffffffff021916908373ffffffffffffffffffffffffffffffffffffffff160217905550905050600360003373ffffffffffffffffffffffffffffffffffffffff1673ffffffffffffffffffffffffffffffffffffffff168152602001908152602001600020600501819080600181540180825580915050600190039060005260206000200160009091909190916101000a81548173ffffffffffffffffffffffffffffffffffffffff021916908373ffffffffffffffffffffffffffffffffffffffff1602179055506001600560003373ffffffffffffffffffffffffffffffffffffffff1673ffffffffffffffffffffffffffffffffffffffff16815260200190815260200160002060008373ffffffffffffffffffffffffffffffffffffffff1673ffffffffffffffffffffffffffffffffffffffff16815260200190815260200160002060006101000a81548160ff0219169083151502179055503373ffffffffffffffffffffffffffffffffffffffff167fb009d2c813f95b7c48104e6328c1acca60b43cac7e0f4e63c29a8dc5808356ad828585604051613ac693929190615972565b60405180910390a2505050565b6000600180549050905090565b6006602052816000526040600020602052806000526040600020600091509150508060000160009054906101000a900473ffffffffffffffffffffffffffffffffffffffff1690806001018054613b369061503f565b80601f0160208091040260200160405190810160405280929190818152602001828054613b629061503f565b8015613baf5780601f10613b8457610100808354040283529160200191613baf565b820191906000526020600020905b815481529060010190602001808311613b9257829003601f168201915b5050505050908060020154908060030154908060040154908060050160009054906101000a900460ff16905086565b60056020528160005260406000206020528060005260406000206000915091509054906101000a900460ff1681565b600260003373ffffffffffffffffffffffffffffffffffffffff1673ffffffffffffffffffffffffffffffffffffffff16815260200190815260200160002060009054906101000a900460ff16613c99576040517f08c379a0000000000000000000000000000000000000000000000000000000008152600401613c90906150e2565b60405180910390fd5b82600360003373ffffffffffffffffffffffffffffffffffffffff1673ffffffffffffffffffffffffffffffffffffffff1681526020019081526020016000206000019081613ce891906153f8565b5081600360003373ffffffffffffffffffffffffffffffffffffffff1673ffffffffffffffffffffffffffffffffffffffff1681526020019081526020016000206001019081613d3891906153f8565b5080600360003373ffffffffffffffffffffffffffffffffffffffff1673ffffffffffffffffffffffffffffffffffffffff1681526020019081526020016000206002019081613d8891906153f8565b50505050565b613d96613ee1565b600073ffffffffffffffffffffffffffffffffffffffff168173ffffffffffffffffffffffffffffffffffffffff1603613e05576040517f08c379a0000000000000000000000000000000000000000000000000000000008152600401613dfc90615a29565b60405180910390fd5b613e0e81613f5f565b50565b6060600360008373ffffffffffffffffffffffffffffffffffffffff1673ffffffffffffffffffffffffffffffffffffffff168152602001908152602001600020600501805480602002602001604051908101604052809291908181526020018280548015613ed557602002820191906000526020600020905b8160009054906101000a900473ffffffffffffffffffffffffffffffffffffffff1673ffffffffffffffffffffffffffffffffffffffff1681526020019060010190808311613e8b575b50505050509050919050565b613ee9614023565b73ffffffffffffffffffffffffffffffffffffffff16613f076121bc565b73ffffffffffffffffffffffffffffffffffffffff1614613f5d576040517f08c379a0000000000000000000000000000000000000000000000000000000008152600401613f5490615a95565b60405180910390fd5b565b60008060009054906101000a900473ffffffffffffffffffffffffffffffffffffffff169050816000806101000a81548173ffffffffffffffffffffffffffffffffffffffff021916908373ffffffffffffffffffffffffffffffffffffffff1602179055508173ffffffffffffffffffffffffffffffffffffffff168173ffffffffffffffffffffffffffffffffffffffff167f8be0079c531659141344cd1fd0a4f28419497f9722a3daafe3b4186f6b6457e060405160405180910390a35050565b600033905090565b60405180606001604052806060815260200160608152602001600073ffffffffffffffffffffffffffffffffffffffff1681525090565b604051806101a0016040528060608152602001606081526020016060815260200160608152602001600015158152602001600015158152602001600015158152602001600073ffffffffffffffffffffffffffffffffffffffff16815260200160608152602001606081526020016000815260200160008152602001600081525090565b6040518060c00160405280600073ffffffffffffffffffffffffffffffffffffffff168152602001606081526020016000815260200160008152602001600081526020016000151581525090565b6000604051905090565b600080fd5b600080fd5b600073ffffffffffffffffffffffffffffffffffffffff82169050919050565b600061417382614148565b9050919050565b61418381614168565b811461418e57600080fd5b50565b6000813590506141a08161417a565b92915050565b6000819050919050565b6141b9816141a6565b81146141c457600080fd5b50565b6000813590506141d6816141b0565b92915050565b6000806000606084860312156141f5576141f461413e565b5b600061420386828701614191565b935050602061421486828701614191565b9250506040614225868287016141c7565b9150509250925092565b61423881614168565b82525050565b600081519050919050565b600082825260208201905092915050565b60005b8381101561427857808201518184015260208101905061425d565b60008484015250505050565b6000601f19601f8301169050919050565b60006142a08261423e565b6142aa8185614249565b93506142ba81856020860161425a565b6142c381614284565b840191505092915050565b6142d7816141a6565b82525050565b60008115159050919050565b6142f2816142dd565b82525050565b600060c08201905061430d600083018961422f565b818103602083015261431f8188614295565b905061432e60408301876142ce565b61433b60608301866142ce565b61434860808301856142ce565b61435560a08301846142e9565b979650505050505050565b6000602082840312156143765761437561413e565b5b6000614384848285016141c7565b91505092915050565b60006020820190506143a2600083018461422f565b92915050565b6000602082840312156143be576143bd61413e565b5b60006143cc84828501614191565b91505092915050565b60006020820190506143ea60008301846142e9565b92915050565b600061016082019050818103600083015261440b818e614295565b9050818103602083015261441f818d614295565b90508181036040830152614433818c614295565b90508181036060830152614447818b614295565b9050614456608083018a6142e9565b61446360a08301896142e9565b61447060c08301886142e9565b61447d60e083018761422f565b61448b6101008301866142ce565b6144996101208301856142ce565b6144a76101408301846142ce565b9c9b505050505050505050505050565b600081519050919050565b600082825260208201905092915050565b6000819050602082019050919050565b6144ec81614168565b82525050565b60006144fe83836144e3565b60208301905092915050565b6000602082019050919050565b6000614522826144b7565b61452c81856144c2565b9350614537836144d3565b8060005b8381101561456857815161454f88826144f2565b975061455a8361450a565b92505060018101905061453b565b5085935050505092915050565b6000602082019050818103600083015261458f8184614517565b905092915050565b600080fd5b600080fd5b7f4e487b7100000000000000000000000000000000000000000000000000000000600052604160045260246000fd5b6145d982614284565b810181811067ffffffffffffffff821117156145f8576145f76145a1565b5b80604052505050565b600061460b614134565b905061461782826145d0565b919050565b600067ffffffffffffffff821115614637576146366145a1565b5b61464082614284565b9050602081019050919050565b82818337600083830152505050565b600061466f61466a8461461c565b614601565b90508281526020810184848401111561468b5761468a61459c565b5b61469684828561464d565b509392505050565b600082601f8301126146b3576146b2614597565b5b81356146c384826020860161465c565b91505092915050565b60008060008060008060c087890312156146e9576146e861413e565b5b60006146f789828a01614191565b965050602061470889828a01614191565b955050604087013567ffffffffffffffff81111561472957614728614143565b5b61473589828a0161469e565b945050606061474689828a016141c7565b935050608061475789828a016141c7565b92505060a061476889828a016141c7565b9150509295509295509295565b60008060006060848603121561478e5761478d61413e565b5b600061479c868287016141c7565b93505060206147ad868287016141c7565b92505060406147be868287016141c7565b9150509250925092565b600081519050919050565b600082825260208201905092915050565b6000819050602082019050919050565b6147fd816141a6565b82525050565b600061480f83836147f4565b60208301905092915050565b6000602082019050919050565b6000614833826147c8565b61483d81856147d3565b9350614848836147e4565b8060005b838110156148795781516148608882614803565b975061486b8361481b565b92505060018101905061484c565b5085935050505092915050565b600060208201905081810360008301526148a08184614828565b905092915050565b600080604083850312156148bf576148be61413e565b5b60006148cd85828601614191565b925050602083013567ffffffffffffffff8111156148ee576148ed614143565b5b6148fa8582860161469e565b9150509250929050565b6000806040838503121561491b5761491a61413e565b5b600061492985828601614191565b925050602061493a85828601614191565b9150509250929050565b6000606082019050818103600083015261495e8186614295565b905081810360208301526149728185614295565b9050614981604083018461422f565b949350505050565b6000806000606084860312156149a2576149a161413e565b5b600084013567ffffffffffffffff8111156149c0576149bf614143565b5b6149cc8682870161469e565b935050602084013567ffffffffffffffff8111156149ed576149ec614143565b5b6149f98682870161469e565b925050604084013567ffffffffffffffff811115614a1a57614a19614143565b5b614a268682870161469e565b9150509250925092565b600082825260208201905092915050565b6000614a4c8261423e565b614a568185614a30565b9350614a6681856020860161425a565b614a6f81614284565b840191505092915050565b60006060830160008301518482036000860152614a978282614a41565b91505060208301518482036020860152614ab18282614a41565b9150506040830151614ac660408601826144e3565b508091505092915050565b60006020820190508181036000830152614aeb8184614a7a565b905092915050565b60008060008060808587031215614b0d57614b0c61413e565b5b6000614b1b87828801614191565b945050602085013567ffffffffffffffff811115614b3c57614b3b614143565b5b614b488782880161469e565b935050604085013567ffffffffffffffff811115614b6957614b68614143565b5b614b758782880161469e565b9250506060614b8687828801614191565b91505092959194509250565b600080600080600060a08688031215614bae57614bad61413e565b5b6000614bbc88828901614191565b9550506020614bcd88828901614191565b9450506040614bde888289016141c7565b9350506060614bef888289016141c7565b9250506080614c00888289016141c7565b9150509295509295909350565b614c16816142dd565b82525050565b600082825260208201905092915050565b6000614c38826144b7565b614c428185614c1c565b9350614c4d836144d3565b8060005b83811015614c7e578151614c6588826144f2565b9750614c708361450a565b925050600181019050614c51565b5085935050505092915050565b600082825260208201905092915050565b6000614ca7826147c8565b614cb18185614c8b565b9350614cbc836147e4565b8060005b83811015614ced578151614cd48882614803565b9750614cdf8361481b565b925050600181019050614cc0565b5085935050505092915050565b60006101a0830160008301518482036000860152614d188282614a41565b91505060208301518482036020860152614d328282614a41565b91505060408301518482036040860152614d4c8282614a41565b91505060608301518482036060860152614d668282614a41565b9150506080830151614d7b6080860182614c0d565b5060a0830151614d8e60a0860182614c0d565b5060c0830151614da160c0860182614c0d565b5060e0830151614db460e08601826144e3565b50610100830151848203610100860152614dce8282614c2d565b915050610120830151848203610120860152614dea8282614c9c565b915050610140830151614e016101408601826147f4565b50610160830151614e166101608601826147f4565b50610180830151614e2b6101808601826147f4565b508091505092915050565b60006020820190508181036000830152614e508184614cfa565b905092915050565b60008060008060808587031215614e7257614e7161413e565b5b6000614e8087828801614191565b9450506020614e9187828801614191565b9350506040614ea2878288016141c7565b9250506060614eb3878288016141c7565b91505092959194509250565b600060c083016000830151614ed760008601826144e3565b5060208301518482036020860152614eef8282614a41565b9150506040830151614f0460408601826147f4565b506060830151614f1760608601826147f4565b506080830151614f2a60808601826147f4565b5060a0830151614f3d60a0860182614c0d565b508091505092915050565b60006020820190508181036000830152614f628184614ebf565b905092915050565b600080600060608486031215614f8357614f8261413e565b5b600084013567ffffffffffffffff811115614fa157614fa0614143565b5b614fad8682870161469e565b935050602084013567ffffffffffffffff811115614fce57614fcd614143565b5b614fda8682870161469e565b9250506040614feb86828701614191565b9150509250925092565b600060208201905061500a60008301846142ce565b92915050565b7f4e487b7100000000000000000000000000000000000000000000000000000000600052602260045260246000fd5b6000600282049050600182168061505757607f821691505b60208210810361506a57615069615010565b5b50919050565b7f596f75206d757374206669727374207369676e20757020666f7220616e20616360008201527f636f756e742e0000000000000000000000000000000000000000000000000000602082015250565b60006150cc602683614249565b91506150d782615070565b604082019050919050565b600060208201905081810360008301526150fb816150bf565b9050919050565b7f596f757220656d61696c2068617320616c7265616479206265656e207665726960008201527f666965642e000000000000000000000000000000000000000000000000000000602082015250565b600061515e602583614249565b915061516982615102565b604082019050919050565b6000602082019050818103600083015261518d81615151565b9050919050565b7f596f757220656d61696c20686173206e6f7420796574206265656e2076616c6960008201527f64617465642e2056657269667920796f7572207265676973746572656420656d60208201527f61696c20616464726573732066697273742e0000000000000000000000000000604082015250565b6000615216605283614249565b915061522182615194565b606082019050919050565b6000602082019050818103600083015261524581615209565b9050919050565b60008190508160005260206000209050919050565b60006020601f8301049050919050565b600082821b905092915050565b6000600883026152ae7fffffffffffffffffffffffffffffffffffffffffffffffffffffffffffffffff82615271565b6152b88683615271565b95508019841693508086168417925050509392505050565b6000819050919050565b60006152f56152f06152eb846141a6565b6152d0565b6141a6565b9050919050565b6000819050919050565b61530f836152da565b61532361531b826152fc565b84845461527e565b825550505050565b600090565b61533861532b565b615343818484615306565b505050565b5b818110156153675761535c600082615330565b600181019050615349565b5050565b601f8211156153ac5761537d8161524c565b61538684615261565b81016020851015615395578190505b6153a96153a185615261565b830182615348565b50505b505050565b600082821c905092915050565b60006153cf600019846008026153b1565b1980831691505092915050565b60006153e883836153be565b9150826002028217905092915050565b6154018261423e565b67ffffffffffffffff81111561541a576154196145a1565b5b615424825461503f565b61542f82828561536b565b600060209050601f8311600181146154625760008415615450578287015190505b61545a85826153dc565b8655506154c2565b601f1984166154708661524c565b60005b8281101561549857848901518255600182019150602085019450602081019050615473565b868310156154b557848901516154b1601f8916826153be565b8355505b6001600288020188555050505b505050505050565b60006060820190506154df60008301866142ce565b6154ec60208301856142ce565b6154f960408301846142ce565b949350505050565b6000602082019050818103600083015261551b8184614295565b905092915050565b7f596f7527766520616c7265616479207369676e656420757021204e6f2066757260008201527f7468657220726567697374726174696f6e2069732072657175697265642e0000602082015250565b600061557f603e83614249565b915061558a82615523565b604082019050919050565b600060208201905081810360008301526155ae81615572565b9050919050565b7f546865206e6f6d696e656527732061646472657373206973206e6f742061646460008201527f65642e20536f20796f752063616e2774206d6f6469667920746865206465746160208201527f696c73206f662074686973206163636f756e74277320616464726573732e205060408201527f6c6561736520656e746572207468652076616c69642061646472657373206f6660608201527f20746865206e6f6d696e65652e00000000000000000000000000000000000000608082015250565b6000615683608d83614249565b915061568e826155b5565b60a082019050919050565b600060208201905081810360008301526156b281615676565b9050919050565b7f4e487b7100000000000000000000000000000000000000000000000000000000600052603260045260246000fd5b7f4e487b7100000000000000000000000000000000000000000000000000000000600052601160045260246000fd5b6000615722826141a6565b91507fffffffffffffffffffffffffffffffffffffffffffffffffffffffffffffffff8203615754576157536156e8565b5b600182019050919050565b7f54686973206e6f6d696e65652773206164647265737320776173206e6f74206160008201527f64646564212046697273742c206164642061206e6f6d696e65652e0000000000602082015250565b60006157bb603b83614249565b91506157c68261575f565b604082019050919050565b600060208201905081810360008301526157ea816157ae565b9050919050565b6000604082019050818103600083015261580b8185614295565b9050818103602083015261581f8184614295565b90509392505050565b7f4f776e65722068617320616c726561647920726573706f6e6465642e00000000600082015250565b600061585e601c83614249565b915061586982615828565b602082019050919050565b6000602082019050818103600083015261588d81615851565b9050919050565b7f54686973206e6f6d696e6565277320616464726573732068617320616c72656160008201527f6479206265656e2061646465642e2054727920616464696e672061206e6f6d6960208201527f6e6565207769746820616e6f74686572206163636f756e74206164647265737360408201527f2e00000000000000000000000000000000000000000000000000000000000000606082015250565b600061593c606183614249565b915061594782615894565b608082019050919050565b6000602082019050818103600083015261596b8161592f565b9050919050565b6000606082019050615987600083018661422f565b81810360208301526159998185614295565b905081810360408301526159ad8184614295565b9050949350505050565b7f4f776e61626c653a206e6577206f776e657220697320746865207a65726f206160008201527f6464726573730000000000000000000000000000000000000000000000000000602082015250565b6000615a13602683614249565b9150615a1e826159b7565b604082019050919050565b60006020820190508181036000830152615a4281615a06565b9050919050565b7f4f776e61626c653a2063616c6c6572206973206e6f7420746865206f776e6572600082015250565b6000615a7f602083614249565b9150615a8a82615a49565b602082019050919050565b60006020820190508181036000830152615aae81615a72565b905091905056fea2646970667358221220857e3651ae15c05d263b0607f6b2d4da9334bac693d997b0bf72e9ba55ef316764736f6c63430008110033",
  "linkReferences": {},
  "deployedLinkReferences": {}
}