{
  "_format": "hh-sol-artifact-1",
  "contractName": "Inheritokens",
  "sourceName": "contracts/Inheritokens.sol",
  "abi": [
    {
      "inputs": [],
      "stateMutability": "nonpayable",
      "type": "constructor"
    },
    {
      "anonymous": false,
      "inputs": [
        {
          "indexed": true,
          "internalType": "address",
          "name": "previousOwner",
          "type": "address"
        },
        {
          "indexed": true,
          "internalType": "address",
          "name": "newOwner",
          "type": "address"
        }
      ],
      "name": "OwnershipTransferred",
      "type": "event"
    },
    {
      "inputs": [
        {
          "internalType": "string",
          "name": "_name",
          "type": "string"
        },
        {
          "internalType": "string",
          "name": "_email",
          "type": "string"
        },
        {
          "internalType": "address",
          "name": "_nominee",
          "type": "address"
        }
      ],
      "name": "addNomineesDetails",
      "outputs": [],
      "stateMutability": "nonpayable",
      "type": "function"
    },
    {
      "inputs": [
        {
          "internalType": "string",
          "name": "_name",
          "type": "string"
        },
        {
          "internalType": "string",
          "name": "_email",
          "type": "string"
        },
        {
          "internalType": "string",
          "name": "_cid",
          "type": "string"
        },
        {
          "internalType": "uint256",
          "name": "_months",
          "type": "uint256"
        }
      ],
      "name": "addOwnerDetails",
      "outputs": [],
      "stateMutability": "nonpayable",
      "type": "function"
    },
    {
      "inputs": [
        {
          "internalType": "address",
          "name": "_owner",
          "type": "address"
        },
        {
          "internalType": "address",
          "name": "_recoveryAddress",
          "type": "address"
        }
      ],
      "name": "addWalletRecovery",
      "outputs": [],
      "stateMutability": "nonpayable",
      "type": "function"
    },
    {
      "inputs": [
        {
          "internalType": "address",
          "name": "",
          "type": "address"
        }
      ],
      "name": "addressToNominee",
      "outputs": [
        {
          "internalType": "string",
          "name": "nominee_name",
          "type": "string"
        },
        {
          "internalType": "string",
          "name": "nominee_email",
          "type": "string"
        },
        {
          "internalType": "address",
          "name": "nominee_address",
          "type": "address"
        },
        {
          "internalType": "bool",
          "name": "hasClaimed",
          "type": "bool"
        }
      ],
      "stateMutability": "view",
      "type": "function"
    },
    {
      "inputs": [
        {
          "internalType": "address",
          "name": "",
          "type": "address"
        }
      ],
      "name": "addressToOwner",
      "outputs": [
        {
          "internalType": "string",
          "name": "owner_name",
          "type": "string"
        },
        {
          "internalType": "string",
          "name": "owner_email",
          "type": "string"
        },
        {
          "internalType": "string",
          "name": "image_cid",
          "type": "string"
        },
        {
          "internalType": "bool",
          "name": "isEmailVerified",
          "type": "bool"
        },
        {
          "internalType": "bool",
          "name": "isAlive",
          "type": "bool"
        },
        {
          "internalType": "address",
          "name": "recoveryAddress",
          "type": "address"
        },
        {
          "internalType": "uint256",
          "name": "monthsOfInactivity",
          "type": "uint256"
        },
        {
          "internalType": "uint256",
          "name": "monthsOfSendingMailToOwner",
          "type": "uint256"
        },
        {
          "internalType": "uint256",
          "name": "monthsForNominee",
          "type": "uint256"
        }
      ],
      "stateMutability": "view",
      "type": "function"
    },
    {
      "inputs": [
        {
          "internalType": "address",
          "name": "_owner",
          "type": "address"
        },
        {
          "internalType": "address",
          "name": "_tokenAddress",
          "type": "address"
        },
        {
          "internalType": "string",
          "name": "_tokenName",
          "type": "string"
        },
        {
          "internalType": "string",
          "name": "_category",
          "type": "string"
        },
        {
          "internalType": "uint256",
          "name": "_tokenId",
          "type": "uint256"
        },
        {
          "internalType": "uint256",
          "name": "amount",
          "type": "uint256"
        }
      ],
      "name": "assignTokenStruct",
      "outputs": [],
      "stateMutability": "nonpayable",
      "type": "function"
    },
    {
      "inputs": [
        {
          "internalType": "uint256",
          "name": "_inactivity",
          "type": "uint256"
        },
        {
          "internalType": "uint256",
          "name": "_mail",
          "type": "uint256"
        },
        {
          "internalType": "uint256",
          "name": "_nominee",
          "type": "uint256"
        }
      ],
      "name": "changeTimePeriods",
      "outputs": [],
      "stateMutability": "nonpayable",
      "type": "function"
    },
    {
      "inputs": [
        {
          "internalType": "address",
          "name": "_owner",
          "type": "address"
        }
      ],
      "name": "checkVerification",
      "outputs": [
        {
          "internalType": "bool",
          "name": "",
          "type": "bool"
        }
      ],
      "stateMutability": "view",
      "type": "function"
    },
    {
      "inputs": [
        {
          "internalType": "address",
          "name": "_nominee",
          "type": "address"
        }
      ],
      "name": "claim",
      "outputs": [],
      "stateMutability": "nonpayable",
      "type": "function"
    },
    {
      "inputs": [
        {
          "internalType": "address",
          "name": "_owner",
          "type": "address"
        },
        {
          "internalType": "address",
          "name": "_oldNomineeAddress",
          "type": "address"
        },
        {
          "internalType": "string",
          "name": "_name",
          "type": "string"
        },
        {
          "internalType": "string",
          "name": "_email",
          "type": "string"
        },
        {
          "internalType": "address",
          "name": "_newNomineeAddress",
          "type": "address"
        }
      ],
      "name": "editNomineeDetails",
      "outputs": [],
      "stateMutability": "nonpayable",
      "type": "function"
    },
    {
      "inputs": [
        {
          "internalType": "address",
          "name": "_owner",
          "type": "address"
        }
      ],
      "name": "getAllNominees",
      "outputs": [
        {
          "internalType": "address[]",
          "name": "",
          "type": "address[]"
        }
      ],
      "stateMutability": "view",
      "type": "function"
    },
    {
      "inputs": [
        {
          "internalType": "address",
          "name": "_owner",
          "type": "address"
        }
      ],
      "name": "getAllWhiteListedCharities",
      "outputs": [
        {
          "internalType": "uint256[]",
          "name": "",
          "type": "uint256[]"
        }
      ],
      "stateMutability": "view",
      "type": "function"
    },
    {
      "inputs": [
        {
          "internalType": "address",
          "name": "_owner",
          "type": "address"
        },
        {
          "internalType": "address",
          "name": "_tokenAddress",
          "type": "address"
        }
      ],
      "name": "getIsNominated",
      "outputs": [
        {
          "internalType": "bool",
          "name": "",
          "type": "bool"
        }
      ],
      "stateMutability": "view",
      "type": "function"
    },
    {
      "inputs": [
        {
          "internalType": "address",
          "name": "_nominee",
          "type": "address"
        }
      ],
      "name": "getNomineeDetails",
      "outputs": [
        {
          "components": [
            {
              "internalType": "string",
              "name": "nominee_name",
              "type": "string"
            },
            {
              "internalType": "string",
              "name": "nominee_email",
              "type": "string"
            },
            {
              "internalType": "address",
              "name": "nominee_address",
              "type": "address"
            },
            {
              "internalType": "bool",
              "name": "hasClaimed",
              "type": "bool"
            }
          ],
          "internalType": "struct Inheritokens.Nominee",
          "name": "",
          "type": "tuple"
        }
      ],
      "stateMutability": "view",
      "type": "function"
    },
    {
      "inputs": [
        {
          "internalType": "address",
          "name": "_owner",
          "type": "address"
        }
      ],
      "name": "getOwnerAlive",
      "outputs": [
        {
          "internalType": "bool",
          "name": "",
          "type": "bool"
        }
      ],
      "stateMutability": "view",
      "type": "function"
    },
    {
      "inputs": [
        {
          "internalType": "address",
          "name": "_owner",
          "type": "address"
        }
      ],
      "name": "getOwnerDetails",
      "outputs": [
        {
          "components": [
            {
              "internalType": "string",
              "name": "owner_name",
              "type": "string"
            },
            {
              "internalType": "string",
              "name": "owner_email",
              "type": "string"
            },
            {
              "internalType": "string",
              "name": "image_cid",
              "type": "string"
            },
            {
              "internalType": "bool",
              "name": "isEmailVerified",
              "type": "bool"
            },
            {
              "internalType": "bool",
              "name": "isAlive",
              "type": "bool"
            },
            {
              "internalType": "address",
              "name": "recoveryAddress",
              "type": "address"
            },
            {
              "internalType": "address[]",
              "name": "nominees",
              "type": "address[]"
            },
            {
              "internalType": "uint256[]",
              "name": "charities",
              "type": "uint256[]"
            },
            {
              "internalType": "uint256",
              "name": "monthsOfInactivity",
              "type": "uint256"
            },
            {
              "internalType": "uint256",
              "name": "monthsOfSendingMailToOwner",
              "type": "uint256"
            },
            {
              "internalType": "uint256",
              "name": "monthsForNominee",
              "type": "uint256"
            }
          ],
          "internalType": "struct Inheritokens.Owner",
          "name": "",
          "type": "tuple"
        }
      ],
      "stateMutability": "view",
      "type": "function"
    },
    {
      "inputs": [],
      "name": "getOwners",
      "outputs": [
        {
          "internalType": "address[]",
          "name": "",
          "type": "address[]"
        }
      ],
      "stateMutability": "view",
      "type": "function"
    },
    {
      "inputs": [
        {
          "internalType": "address",
          "name": "_owner",
          "type": "address"
        }
      ],
      "name": "getRecoveryAddress",
      "outputs": [
        {
          "internalType": "address",
          "name": "",
          "type": "address"
        }
      ],
      "stateMutability": "view",
      "type": "function"
    },
    {
      "inputs": [
        {
          "internalType": "address",
          "name": "_owner",
          "type": "address"
        }
      ],
      "name": "getResponse",
      "outputs": [
        {
          "internalType": "bool",
          "name": "",
          "type": "bool"
        }
      ],
      "stateMutability": "view",
      "type": "function"
    },
    {
      "inputs": [
        {
          "internalType": "address",
          "name": "_owner",
          "type": "address"
        }
      ],
      "name": "getResponseDate",
      "outputs": [
        {
          "internalType": "string",
          "name": "",
          "type": "string"
        }
      ],
      "stateMutability": "view",
      "type": "function"
    },
    {
      "inputs": [],
      "name": "getTotalOwners",
      "outputs": [
        {
          "internalType": "uint256",
          "name": "",
          "type": "uint256"
        }
      ],
      "stateMutability": "view",
      "type": "function"
    },
    {
      "inputs": [
        {
          "internalType": "address",
          "name": "",
          "type": "address"
        }
      ],
      "name": "isOwnerAdded",
      "outputs": [
        {
          "internalType": "bool",
          "name": "",
          "type": "bool"
        }
      ],
      "stateMutability": "view",
      "type": "function"
    },
    {
      "inputs": [],
      "name": "owner",
      "outputs": [
        {
          "internalType": "address",
          "name": "",
          "type": "address"
        }
      ],
      "stateMutability": "view",
      "type": "function"
    },
    {
      "inputs": [
        {
          "internalType": "address",
          "name": "",
          "type": "address"
        }
      ],
      "name": "ownerToResponse",
      "outputs": [
        {
          "internalType": "string",
          "name": "date",
          "type": "string"
        },
        {
          "internalType": "bool",
          "name": "isResponsed",
          "type": "bool"
        }
      ],
      "stateMutability": "view",
      "type": "function"
    },
    {
      "inputs": [
        {
          "internalType": "uint256",
          "name": "",
          "type": "uint256"
        }
      ],
      "name": "owners",
      "outputs": [
        {
          "internalType": "address",
          "name": "",
          "type": "address"
        }
      ],
      "stateMutability": "view",
      "type": "function"
    },
    {
      "inputs": [],
      "name": "renounceOwnership",
      "outputs": [],
      "stateMutability": "nonpayable",
      "type": "function"
    },
    {
      "inputs": [
        {
          "internalType": "address",
          "name": "_owner",
          "type": "address"
        }
      ],
      "name": "setOwnerNotAlive",
      "outputs": [],
      "stateMutability": "nonpayable",
      "type": "function"
    },
    {
      "inputs": [
        {
          "internalType": "address",
          "name": "_owner",
          "type": "address"
        },
        {
          "internalType": "bool",
          "name": "_response",
          "type": "bool"
        }
      ],
      "name": "setResponse",
      "outputs": [],
      "stateMutability": "nonpayable",
      "type": "function"
    },
    {
      "inputs": [
        {
          "internalType": "address",
          "name": "_owner",
          "type": "address"
        },
        {
          "internalType": "string",
          "name": "_date",
          "type": "string"
        }
      ],
      "name": "setResponseDate",
      "outputs": [],
      "stateMutability": "nonpayable",
      "type": "function"
    },
    {
      "inputs": [
        {
          "internalType": "address",
          "name": "_owner",
          "type": "address"
        },
        {
          "internalType": "uint256",
          "name": "_charityId",
          "type": "uint256"
        }
      ],
      "name": "setWhiteListedCharities",
      "outputs": [],
      "stateMutability": "nonpayable",
      "type": "function"
    },
    {
      "inputs": [
        {
          "internalType": "address",
          "name": "",
          "type": "address"
        },
        {
          "internalType": "address",
          "name": "",
          "type": "address"
        }
      ],
      "name": "tokenAddressToTokenStruct",
      "outputs": [
        {
          "internalType": "address",
          "name": "token_address",
          "type": "address"
        },
        {
          "internalType": "string",
          "name": "token_name",
          "type": "string"
        },
        {
          "internalType": "string",
          "name": "category",
          "type": "string"
        },
        {
          "internalType": "uint256",
          "name": "token_id",
          "type": "uint256"
        },
        {
          "internalType": "uint256",
          "name": "allocated_share",
          "type": "uint256"
        },
        {
          "internalType": "bool",
          "name": "isNominated",
          "type": "bool"
        }
      ],
      "stateMutability": "view",
      "type": "function"
    },
    {
      "inputs": [
        {
          "internalType": "address",
          "name": "newOwner",
          "type": "address"
        }
      ],
      "name": "transferOwnership",
      "outputs": [],
      "stateMutability": "nonpayable",
      "type": "function"
    },
    {
      "inputs": [
        {
          "internalType": "address",
          "name": "_owner",
          "type": "address"
        },
        {
          "internalType": "address",
          "name": "_tokenAddress",
          "type": "address"
        },
        {
          "internalType": "uint256",
          "name": "amount",
          "type": "uint256"
        }
      ],
      "name": "updateAllocatedShare",
      "outputs": [],
      "stateMutability": "nonpayable",
      "type": "function"
    },
    {
      "inputs": [
        {
          "internalType": "address",
          "name": "_owner",
          "type": "address"
        }
      ],
      "name": "verifyOwnerEmail",
      "outputs": [],
      "stateMutability": "nonpayable",
      "type": "function"
    }
  ],
  "bytecode": "0x60806040523480156200001157600080fd5b5062000032620000266200003860201b60201c565b6200004060201b60201c565b62000104565b600033905090565b60008060009054906101000a900473ffffffffffffffffffffffffffffffffffffffff169050816000806101000a81548173ffffffffffffffffffffffffffffffffffffffff021916908373ffffffffffffffffffffffffffffffffffffffff1602179055508173ffffffffffffffffffffffffffffffffffffffff168173ffffffffffffffffffffffffffffffffffffffff167f8be0079c531659141344cd1fd0a4f28419497f9722a3daafe3b4186f6b6457e060405160405180910390a35050565b613fe380620001146000396000f3fe608060405234801561001057600080fd5b50600436106102065760003560e01c80638e5d20991161011a578063cb144b39116100ad578063e62d4f7c1161007c578063e62d4f7c14610654578063e822cd5c14610684578063e9c15555146106a0578063f2fde38b146106bc578063f8009785146106d857610206565b8063cb144b39146105b4578063cf751c44146105d0578063db23f9f314610601578063de508c5b1461061f57610206565b8063a6072445116100e9578063a60724451461051c578063baab979714610538578063bece996814610568578063c3bb81211461058457610206565b80638e5d20991461049657806392f82048146104c6578063a0e67e2b146104e2578063a5394b391461050057610206565b80634950956e1161019d5780636199997f1161016c5780636199997f146103de5780636a5e89381461040e578063715018a61461043e57806376f0ffc6146104485780638da5cb5b1461047857610206565b80634950956e1461032f578063511865e91461035f57806354add3e71461038f5780635a863c11146103ab57610206565b8063348f0a93116101d9578063348f0a93146102ab57806337950bfe146102c75780633bf01bf8146102e3578063433a05b0146102ff57610206565b8063025e7c271461020b57806306d1681d1461023b578063159305e1146102575780631e83409a1461028f575b600080fd5b61022560048036038101906102209190612b3c565b610708565b6040516102329190612baa565b60405180910390f35b61025560048036038101906102509190612bf1565b610747565b005b610271600480360381019061026c9190612bf1565b6108c9565b60405161028699989796959493929190612cd8565b60405180910390f35b6102a960048036038101906102a49190612bf1565b610ae9565b005b6102c560048036038101906102c09190612d7a565b610b47565b005b6102e160048036038101906102dc9190612dba565b610bb4565b005b6102fd60048036038101906102f89190612f42565b610c8e565b005b61031960048036038101906103149190612bf1565b610e02565b6040516103269190613007565b60405180910390f35b61034960048036038101906103449190612bf1565b610e5b565b60405161035691906130f4565b60405180910390f35b61037960048036038101906103749190612bf1565b611049565b6040516103869190612baa565b60405180910390f35b6103a960048036038101906103a49190613116565b6110b5565b005b6103c560048036038101906103c09190612bf1565b611111565b6040516103d59493929190613172565b60405180910390f35b6103f860048036038101906103f39190612bf1565b61127e565b6040516104059190613007565b60405180910390f35b61042860048036038101906104239190612bf1565b6112d7565b60405161043591906131c5565b60405180910390f35b6104466113ab565b005b610462600480360381019061045d9190612bf1565b6113bf565b60405161046f9190613007565b60405180910390f35b6104806113df565b60405161048d9190612baa565b60405180910390f35b6104b060048036038101906104ab91906131e7565b611408565b6040516104bd9190613007565b60405180910390f35b6104e060048036038101906104db9190613227565b61149f565b005b6104ea611853565b6040516104f79190613389565b60405180910390f35b61051a60048036038101906105159190612bf1565b6118e1565b005b610536600480360381019061053191906133d7565b611947565b005b610552600480360381019061054d9190612bf1565b6119a5565b60405161055f9190613007565b60405180910390f35b610582600480360381019061057d91906131e7565b6119fe565b005b61059e60048036038101906105999190612bf1565b611a83565b6040516105ab919061364f565b60405180910390f35b6105ce60048036038101906105c99190613671565b611e23565b005b6105ea60048036038101906105e59190612bf1565b612066565b6040516105f89291906136fc565b60405180910390f35b61060961211f565b604051610616919061372c565b60405180910390f35b610639600480360381019061063491906131e7565b61212c565b60405161064b96959493929190613747565b60405180910390f35b61066e60048036038101906106699190612bf1565b6122b2565b60405161067b9190613825565b60405180910390f35b61069e60048036038101906106999190613847565b61234c565b005b6106ba60048036038101906106b59190613902565b612718565b005b6106d660048036038101906106d19190612bf1565b6127a1565b005b6106f260048036038101906106ed9190612bf1565b612824565b6040516106ff9190613389565b60405180910390f35b6001818154811061071857600080fd5b906000526020600020016000915054906101000a900473ffffffffffffffffffffffffffffffffffffffff1681565b61074f6128f4565b600260008273ffffffffffffffffffffffffffffffffffffffff1673ffffffffffffffffffffffffffffffffffffffff16815260200190815260200160002060009054906101000a900460ff166107db576040517f08c379a00000000000000000000000000000000000000000000000000000000081526004016107d2906139a1565b60405180910390fd5b600360008273ffffffffffffffffffffffffffffffffffffffff1673ffffffffffffffffffffffffffffffffffffffff16815260200190815260200160002060030160009054906101000a900460ff161561086b576040517f08c379a000000000000000000000000000000000000000000000000000000000815260040161086290613a0d565b60405180910390fd5b6001600360008373ffffffffffffffffffffffffffffffffffffffff1673ffffffffffffffffffffffffffffffffffffffff16815260200190815260200160002060030160006101000a81548160ff02191690831515021790555050565b60036020528060005260406000206000915090508060000180546108ec90613a5c565b80601f016020809104026020016040519081016040528092919081815260200182805461091890613a5c565b80156109655780601f1061093a57610100808354040283529160200191610965565b820191906000526020600020905b81548152906001019060200180831161094857829003601f168201915b50505050509080600101805461097a90613a5c565b80601f01602080910402602001604051908101604052809291908181526020018280546109a690613a5c565b80156109f35780601f106109c8576101008083540402835291602001916109f3565b820191906000526020600020905b8154815290600101906020018083116109d657829003601f168201915b505050505090806002018054610a0890613a5c565b80601f0160208091040260200160405190810160405280929190818152602001828054610a3490613a5c565b8015610a815780601f10610a5657610100808354040283529160200191610a81565b820191906000526020600020905b815481529060010190602001808311610a6457829003601f168201915b5050505050908060030160009054906101000a900460ff16908060030160019054906101000a900460ff16908060030160029054906101000a900473ffffffffffffffffffffffffffffffffffffffff16908060060154908060070154908060080154905089565b6001600460008373ffffffffffffffffffffffffffffffffffffffff1673ffffffffffffffffffffffffffffffffffffffff16815260200190815260200160002060020160146101000a81548160ff02191690831515021790555050565b600360008373ffffffffffffffffffffffffffffffffffffffff1673ffffffffffffffffffffffffffffffffffffffff1681526020019081526020016000206005018190806001815401808255809150506001900390600052602060002001600090919091909150555050565b82600360003373ffffffffffffffffffffffffffffffffffffffff1673ffffffffffffffffffffffffffffffffffffffff1681526020019081526020016000206006018190555081600360003373ffffffffffffffffffffffffffffffffffffffff1673ffffffffffffffffffffffffffffffffffffffff1681526020019081526020016000206007018190555080600360003373ffffffffffffffffffffffffffffffffffffffff1673ffffffffffffffffffffffffffffffffffffffff16815260200190815260200160002060080181905550505050565b6040518060c001604052808673ffffffffffffffffffffffffffffffffffffffff16815260200185815260200184815260200183815260200182815260200160011515815250600560008873ffffffffffffffffffffffffffffffffffffffff1673ffffffffffffffffffffffffffffffffffffffff16815260200190815260200160002060008773ffffffffffffffffffffffffffffffffffffffff1673ffffffffffffffffffffffffffffffffffffffff16815260200190815260200160002060008201518160000160006101000a81548173ffffffffffffffffffffffffffffffffffffffff021916908373ffffffffffffffffffffffffffffffffffffffff1602179055506020820151816001019081610dac9190613c39565b506040820151816002019081610dc29190613c39565b50606082015181600301556080820151816004015560a08201518160050160006101000a81548160ff021916908315150217905550905050505050505050565b6000600660008373ffffffffffffffffffffffffffffffffffffffff1673ffffffffffffffffffffffffffffffffffffffff16815260200190815260200160002060010160009054906101000a900460ff169050919050565b610e63612a3e565b600460008373ffffffffffffffffffffffffffffffffffffffff1673ffffffffffffffffffffffffffffffffffffffff168152602001908152602001600020604051806080016040529081600082018054610ebd90613a5c565b80601f0160208091040260200160405190810160405280929190818152602001828054610ee990613a5c565b8015610f365780601f10610f0b57610100808354040283529160200191610f36565b820191906000526020600020905b815481529060010190602001808311610f1957829003601f168201915b50505050508152602001600182018054610f4f90613a5c565b80601f0160208091040260200160405190810160405280929190818152602001828054610f7b90613a5c565b8015610fc85780601f10610f9d57610100808354040283529160200191610fc8565b820191906000526020600020905b815481529060010190602001808311610fab57829003601f168201915b505050505081526020016002820160009054906101000a900473ffffffffffffffffffffffffffffffffffffffff1673ffffffffffffffffffffffffffffffffffffffff1673ffffffffffffffffffffffffffffffffffffffff1681526020016002820160149054906101000a900460ff1615151515815250509050919050565b6000600360008373ffffffffffffffffffffffffffffffffffffffff1673ffffffffffffffffffffffffffffffffffffffff16815260200190815260200160002060030160029054906101000a900473ffffffffffffffffffffffffffffffffffffffff169050919050565b6110bd6128f4565b80600660008473ffffffffffffffffffffffffffffffffffffffff1673ffffffffffffffffffffffffffffffffffffffff168152602001908152602001600020600001908161110c9190613c39565b505050565b600460205280600052604060002060009150905080600001805461113490613a5c565b80601f016020809104026020016040519081016040528092919081815260200182805461116090613a5c565b80156111ad5780601f10611182576101008083540402835291602001916111ad565b820191906000526020600020905b81548152906001019060200180831161119057829003601f168201915b5050505050908060010180546111c290613a5c565b80601f01602080910402602001604051908101604052809291908181526020018280546111ee90613a5c565b801561123b5780601f106112105761010080835404028352916020019161123b565b820191906000526020600020905b81548152906001019060200180831161121e57829003601f168201915b5050505050908060020160009054906101000a900473ffffffffffffffffffffffffffffffffffffffff16908060020160149054906101000a900460ff16905084565b6000600360008373ffffffffffffffffffffffffffffffffffffffff1673ffffffffffffffffffffffffffffffffffffffff16815260200190815260200160002060030160019054906101000a900460ff169050919050565b6060600660008373ffffffffffffffffffffffffffffffffffffffff1673ffffffffffffffffffffffffffffffffffffffff168152602001908152602001600020600001805461132690613a5c565b80601f016020809104026020016040519081016040528092919081815260200182805461135290613a5c565b801561139f5780601f106113745761010080835404028352916020019161139f565b820191906000526020600020905b81548152906001019060200180831161138257829003601f168201915b50505050509050919050565b6113b36128f4565b6113bd6000612972565b565b60026020528060005260406000206000915054906101000a900460ff1681565b60008060009054906101000a900473ffffffffffffffffffffffffffffffffffffffff16905090565b6000600560008473ffffffffffffffffffffffffffffffffffffffff1673ffffffffffffffffffffffffffffffffffffffff16815260200190815260200160002060008373ffffffffffffffffffffffffffffffffffffffff1673ffffffffffffffffffffffffffffffffffffffff16815260200190815260200160002060050160009054906101000a900460ff16905092915050565b8073ffffffffffffffffffffffffffffffffffffffff168473ffffffffffffffffffffffffffffffffffffffff16036115775782600460008673ffffffffffffffffffffffffffffffffffffffff1673ffffffffffffffffffffffffffffffffffffffff16815260200190815260200160002060000190816115219190613c39565b5081600460008673ffffffffffffffffffffffffffffffffffffffff1673ffffffffffffffffffffffffffffffffffffffff16815260200190815260200160002060010190816115719190613c39565b5061184c565b82600460008373ffffffffffffffffffffffffffffffffffffffff1673ffffffffffffffffffffffffffffffffffffffff16815260200190815260200160002060000190816115c69190613c39565b5081600460008373ffffffffffffffffffffffffffffffffffffffff1673ffffffffffffffffffffffffffffffffffffffff16815260200190815260200160002060010190816116169190613c39565b5080600460008373ffffffffffffffffffffffffffffffffffffffff1673ffffffffffffffffffffffffffffffffffffffff16815260200190815260200160002060020160006101000a81548173ffffffffffffffffffffffffffffffffffffffff021916908373ffffffffffffffffffffffffffffffffffffffff16021790555060005b600360008773ffffffffffffffffffffffffffffffffffffffff1673ffffffffffffffffffffffffffffffffffffffff1681526020019081526020016000206004018054905081101561184a578473ffffffffffffffffffffffffffffffffffffffff16600360008873ffffffffffffffffffffffffffffffffffffffff1673ffffffffffffffffffffffffffffffffffffffff168152602001908152602001600020600401828154811061175357611752613d0b565b5b9060005260206000200160009054906101000a900473ffffffffffffffffffffffffffffffffffffffff1673ffffffffffffffffffffffffffffffffffffffff16036118375781600360008873ffffffffffffffffffffffffffffffffffffffff1673ffffffffffffffffffffffffffffffffffffffff16815260200190815260200160002060040182815481106117ee576117ed613d0b565b5b9060005260206000200160006101000a81548173ffffffffffffffffffffffffffffffffffffffff021916908373ffffffffffffffffffffffffffffffffffffffff1602179055505b808061184290613d69565b91505061169b565b505b5050505050565b606060018054806020026020016040519081016040528092919081815260200182805480156118d757602002820191906000526020600020905b8160009054906101000a900473ffffffffffffffffffffffffffffffffffffffff1673ffffffffffffffffffffffffffffffffffffffff168152602001906001019080831161188d575b5050505050905090565b6118e96128f4565b6000600360008373ffffffffffffffffffffffffffffffffffffffff1673ffffffffffffffffffffffffffffffffffffffff16815260200190815260200160002060030160016101000a81548160ff02191690831515021790555050565b80600660008473ffffffffffffffffffffffffffffffffffffffff1673ffffffffffffffffffffffffffffffffffffffff16815260200190815260200160002060010160006101000a81548160ff0219169083151502179055505050565b6000600360008373ffffffffffffffffffffffffffffffffffffffff1673ffffffffffffffffffffffffffffffffffffffff16815260200190815260200160002060030160009054906101000a900460ff169050919050565b80600360008473ffffffffffffffffffffffffffffffffffffffff1673ffffffffffffffffffffffffffffffffffffffff16815260200190815260200160002060030160026101000a81548173ffffffffffffffffffffffffffffffffffffffff021916908373ffffffffffffffffffffffffffffffffffffffff1602179055505050565b611a8b612a7e565b600360008373ffffffffffffffffffffffffffffffffffffffff1673ffffffffffffffffffffffffffffffffffffffff16815260200190815260200160002060405180610160016040529081600082018054611ae690613a5c565b80601f0160208091040260200160405190810160405280929190818152602001828054611b1290613a5c565b8015611b5f5780601f10611b3457610100808354040283529160200191611b5f565b820191906000526020600020905b815481529060010190602001808311611b4257829003601f168201915b50505050508152602001600182018054611b7890613a5c565b80601f0160208091040260200160405190810160405280929190818152602001828054611ba490613a5c565b8015611bf15780601f10611bc657610100808354040283529160200191611bf1565b820191906000526020600020905b815481529060010190602001808311611bd457829003601f168201915b50505050508152602001600282018054611c0a90613a5c565b80601f0160208091040260200160405190810160405280929190818152602001828054611c3690613a5c565b8015611c835780601f10611c5857610100808354040283529160200191611c83565b820191906000526020600020905b815481529060010190602001808311611c6657829003601f168201915b505050505081526020016003820160009054906101000a900460ff161515151581526020016003820160019054906101000a900460ff161515151581526020016003820160029054906101000a900473ffffffffffffffffffffffffffffffffffffffff1673ffffffffffffffffffffffffffffffffffffffff1673ffffffffffffffffffffffffffffffffffffffff16815260200160048201805480602002602001604051908101604052809291908181526020018280548015611d9d57602002820191906000526020600020905b8160009054906101000a900473ffffffffffffffffffffffffffffffffffffffff1673ffffffffffffffffffffffffffffffffffffffff1681526020019060010190808311611d53575b5050505050815260200160058201805480602002602001604051908101604052809291908181526020018280548015611df557602002820191906000526020600020905b815481526020019060010190808311611de1575b5050505050815260200160068201548152602001600782015481526020016008820154815250509050919050565b600260003373ffffffffffffffffffffffffffffffffffffffff1673ffffffffffffffffffffffffffffffffffffffff16815260200190815260200160002060009054906101000a900460ff16611eaf576040517f08c379a0000000000000000000000000000000000000000000000000000000008152600401611ea690613e23565b60405180910390fd5b60405180608001604052808481526020018381526020018273ffffffffffffffffffffffffffffffffffffffff16815260200160001515815250600460008373ffffffffffffffffffffffffffffffffffffffff1673ffffffffffffffffffffffffffffffffffffffff1681526020019081526020016000206000820151816000019081611f3d9190613c39565b506020820151816001019081611f539190613c39565b5060408201518160020160006101000a81548173ffffffffffffffffffffffffffffffffffffffff021916908373ffffffffffffffffffffffffffffffffffffffff16021790555060608201518160020160146101000a81548160ff021916908315150217905550905050600360003373ffffffffffffffffffffffffffffffffffffffff1673ffffffffffffffffffffffffffffffffffffffff168152602001908152602001600020600401819080600181540180825580915050600190039060005260206000200160009091909190916101000a81548173ffffffffffffffffffffffffffffffffffffffff021916908373ffffffffffffffffffffffffffffffffffffffff160217905550505050565b600660205280600052604060002060009150905080600001805461208990613a5c565b80601f01602080910402602001604051908101604052809291908181526020018280546120b590613a5c565b80156121025780601f106120d757610100808354040283529160200191612102565b820191906000526020600020905b8154815290600101906020018083116120e557829003601f168201915b5050505050908060010160009054906101000a900460ff16905082565b6000600180549050905090565b6005602052816000526040600020602052806000526040600020600091509150508060000160009054906101000a900473ffffffffffffffffffffffffffffffffffffffff169080600101805461218290613a5c565b80601f01602080910402602001604051908101604052809291908181526020018280546121ae90613a5c565b80156121fb5780601f106121d0576101008083540402835291602001916121fb565b820191906000526020600020905b8154815290600101906020018083116121de57829003601f168201915b50505050509080600201805461221090613a5c565b80601f016020809104026020016040519081016040528092919081815260200182805461223c90613a5c565b80156122895780601f1061225e57610100808354040283529160200191612289565b820191906000526020600020905b81548152906001019060200180831161226c57829003601f168201915b5050505050908060030154908060040154908060050160009054906101000a900460ff16905086565b6060600360008373ffffffffffffffffffffffffffffffffffffffff1673ffffffffffffffffffffffffffffffffffffffff16815260200190815260200160002060050180548060200260200160405190810160405280929190818152602001828054801561234057602002820191906000526020600020905b81548152602001906001019080831161232c575b50505050509050919050565b600260003373ffffffffffffffffffffffffffffffffffffffff1673ffffffffffffffffffffffffffffffffffffffff16815260200190815260200160002060009054906101000a900460ff16156123d9576040517f08c379a00000000000000000000000000000000000000000000000000000000081526004016123d090613e8f565b60405180910390fd5b6001339080600181540180825580915050600190039060005260206000200160009091909190916101000a81548173ffffffffffffffffffffffffffffffffffffffff021916908373ffffffffffffffffffffffffffffffffffffffff16021790555083600360003373ffffffffffffffffffffffffffffffffffffffff1673ffffffffffffffffffffffffffffffffffffffff168152602001908152602001600020600001908161248b9190613c39565b5082600360003373ffffffffffffffffffffffffffffffffffffffff1673ffffffffffffffffffffffffffffffffffffffff16815260200190815260200160002060010190816124db9190613c39565b5081600360003373ffffffffffffffffffffffffffffffffffffffff1673ffffffffffffffffffffffffffffffffffffffff168152602001908152602001600020600201908161252b9190613c39565b506000600360003373ffffffffffffffffffffffffffffffffffffffff1673ffffffffffffffffffffffffffffffffffffffff16815260200190815260200160002060030160006101000a81548160ff0219169083151502179055506001600360003373ffffffffffffffffffffffffffffffffffffffff1673ffffffffffffffffffffffffffffffffffffffff16815260200190815260200160002060030160016101000a81548160ff0219169083151502179055506006600360003373ffffffffffffffffffffffffffffffffffffffff1673ffffffffffffffffffffffffffffffffffffffff168152602001908152602001600020600601819055506002600360003373ffffffffffffffffffffffffffffffffffffffff1673ffffffffffffffffffffffffffffffffffffffff168152602001908152602001600020600701819055506002600360003373ffffffffffffffffffffffffffffffffffffffff1673ffffffffffffffffffffffffffffffffffffffff168152602001908152602001600020600801819055506001600260003373ffffffffffffffffffffffffffffffffffffffff1673ffffffffffffffffffffffffffffffffffffffff16815260200190815260200160002060006101000a81548160ff02191690831515021790555050505050565b80600560008573ffffffffffffffffffffffffffffffffffffffff1673ffffffffffffffffffffffffffffffffffffffff16815260200190815260200160002060008473ffffffffffffffffffffffffffffffffffffffff1673ffffffffffffffffffffffffffffffffffffffff16815260200190815260200160002060040181905550505050565b6127a96128f4565b600073ffffffffffffffffffffffffffffffffffffffff168173ffffffffffffffffffffffffffffffffffffffff1603612818576040517f08c379a000000000000000000000000000000000000000000000000000000000815260040161280f90613f21565b60405180910390fd5b61282181612972565b50565b6060600360008373ffffffffffffffffffffffffffffffffffffffff1673ffffffffffffffffffffffffffffffffffffffff1681526020019081526020016000206004018054806020026020016040519081016040528092919081815260200182805480156128e857602002820191906000526020600020905b8160009054906101000a900473ffffffffffffffffffffffffffffffffffffffff1673ffffffffffffffffffffffffffffffffffffffff168152602001906001019080831161289e575b50505050509050919050565b6128fc612a36565b73ffffffffffffffffffffffffffffffffffffffff1661291a6113df565b73ffffffffffffffffffffffffffffffffffffffff1614612970576040517f08c379a000000000000000000000000000000000000000000000000000000000815260040161296790613f8d565b60405180910390fd5b565b60008060009054906101000a900473ffffffffffffffffffffffffffffffffffffffff169050816000806101000a81548173ffffffffffffffffffffffffffffffffffffffff021916908373ffffffffffffffffffffffffffffffffffffffff1602179055508173ffffffffffffffffffffffffffffffffffffffff168173ffffffffffffffffffffffffffffffffffffffff167f8be0079c531659141344cd1fd0a4f28419497f9722a3daafe3b4186f6b6457e060405160405180910390a35050565b600033905090565b60405180608001604052806060815260200160608152602001600073ffffffffffffffffffffffffffffffffffffffff1681526020016000151581525090565b604051806101600160405280606081526020016060815260200160608152602001600015158152602001600015158152602001600073ffffffffffffffffffffffffffffffffffffffff16815260200160608152602001606081526020016000815260200160008152602001600081525090565b6000604051905090565b600080fd5b600080fd5b6000819050919050565b612b1981612b06565b8114612b2457600080fd5b50565b600081359050612b3681612b10565b92915050565b600060208284031215612b5257612b51612afc565b5b6000612b6084828501612b27565b91505092915050565b600073ffffffffffffffffffffffffffffffffffffffff82169050919050565b6000612b9482612b69565b9050919050565b612ba481612b89565b82525050565b6000602082019050612bbf6000830184612b9b565b92915050565b612bce81612b89565b8114612bd957600080fd5b50565b600081359050612beb81612bc5565b92915050565b600060208284031215612c0757612c06612afc565b5b6000612c1584828501612bdc565b91505092915050565b600081519050919050565b600082825260208201905092915050565b60005b83811015612c58578082015181840152602081019050612c3d565b60008484015250505050565b6000601f19601f8301169050919050565b6000612c8082612c1e565b612c8a8185612c29565b9350612c9a818560208601612c3a565b612ca381612c64565b840191505092915050565b60008115159050919050565b612cc381612cae565b82525050565b612cd281612b06565b82525050565b6000610120820190508181036000830152612cf3818c612c75565b90508181036020830152612d07818b612c75565b90508181036040830152612d1b818a612c75565b9050612d2a6060830189612cba565b612d376080830188612cba565b612d4460a0830187612b9b565b612d5160c0830186612cc9565b612d5e60e0830185612cc9565b612d6c610100830184612cc9565b9a9950505050505050505050565b60008060408385031215612d9157612d90612afc565b5b6000612d9f85828601612bdc565b9250506020612db085828601612b27565b9150509250929050565b600080600060608486031215612dd357612dd2612afc565b5b6000612de186828701612b27565b9350506020612df286828701612b27565b9250506040612e0386828701612b27565b9150509250925092565b600080fd5b600080fd5b7f4e487b7100000000000000000000000000000000000000000000000000000000600052604160045260246000fd5b612e4f82612c64565b810181811067ffffffffffffffff82111715612e6e57612e6d612e17565b5b80604052505050565b6000612e81612af2565b9050612e8d8282612e46565b919050565b600067ffffffffffffffff821115612ead57612eac612e17565b5b612eb682612c64565b9050602081019050919050565b82818337600083830152505050565b6000612ee5612ee084612e92565b612e77565b905082815260208101848484011115612f0157612f00612e12565b5b612f0c848285612ec3565b509392505050565b600082601f830112612f2957612f28612e0d565b5b8135612f39848260208601612ed2565b91505092915050565b60008060008060008060c08789031215612f5f57612f5e612afc565b5b6000612f6d89828a01612bdc565b9650506020612f7e89828a01612bdc565b955050604087013567ffffffffffffffff811115612f9f57612f9e612b01565b5b612fab89828a01612f14565b945050606087013567ffffffffffffffff811115612fcc57612fcb612b01565b5b612fd889828a01612f14565b9350506080612fe989828a01612b27565b92505060a0612ffa89828a01612b27565b9150509295509295509295565b600060208201905061301c6000830184612cba565b92915050565b600082825260208201905092915050565b600061303e82612c1e565b6130488185613022565b9350613058818560208601612c3a565b61306181612c64565b840191505092915050565b61307581612b89565b82525050565b61308481612cae565b82525050565b600060808301600083015184820360008601526130a78282613033565b915050602083015184820360208601526130c18282613033565b91505060408301516130d6604086018261306c565b5060608301516130e9606086018261307b565b508091505092915050565b6000602082019050818103600083015261310e818461308a565b905092915050565b6000806040838503121561312d5761312c612afc565b5b600061313b85828601612bdc565b925050602083013567ffffffffffffffff81111561315c5761315b612b01565b5b61316885828601612f14565b9150509250929050565b6000608082019050818103600083015261318c8187612c75565b905081810360208301526131a08186612c75565b90506131af6040830185612b9b565b6131bc6060830184612cba565b95945050505050565b600060208201905081810360008301526131df8184612c75565b905092915050565b600080604083850312156131fe576131fd612afc565b5b600061320c85828601612bdc565b925050602061321d85828601612bdc565b9150509250929050565b600080600080600060a0868803121561324357613242612afc565b5b600061325188828901612bdc565b955050602061326288828901612bdc565b945050604086013567ffffffffffffffff81111561328357613282612b01565b5b61328f88828901612f14565b935050606086013567ffffffffffffffff8111156132b0576132af612b01565b5b6132bc88828901612f14565b92505060806132cd88828901612bdc565b9150509295509295909350565b600081519050919050565b600082825260208201905092915050565b6000819050602082019050919050565b6000613312838361306c565b60208301905092915050565b6000602082019050919050565b6000613336826132da565b61334081856132e5565b935061334b836132f6565b8060005b8381101561337c5781516133638882613306565b975061336e8361331e565b92505060018101905061334f565b5085935050505092915050565b600060208201905081810360008301526133a3818461332b565b905092915050565b6133b481612cae565b81146133bf57600080fd5b50565b6000813590506133d1816133ab565b92915050565b600080604083850312156133ee576133ed612afc565b5b60006133fc85828601612bdc565b925050602061340d858286016133c2565b9150509250929050565b600082825260208201905092915050565b6000613433826132da565b61343d8185613417565b9350613448836132f6565b8060005b838110156134795781516134608882613306565b975061346b8361331e565b92505060018101905061344c565b5085935050505092915050565b600081519050919050565b600082825260208201905092915050565b6000819050602082019050919050565b6134bb81612b06565b82525050565b60006134cd83836134b2565b60208301905092915050565b6000602082019050919050565b60006134f182613486565b6134fb8185613491565b9350613506836134a2565b8060005b8381101561353757815161351e88826134c1565b9750613529836134d9565b92505060018101905061350a565b5085935050505092915050565b60006101608301600083015184820360008601526135628282613033565b9150506020830151848203602086015261357c8282613033565b915050604083015184820360408601526135968282613033565b91505060608301516135ab606086018261307b565b5060808301516135be608086018261307b565b5060a08301516135d160a086018261306c565b5060c083015184820360c08601526135e98282613428565b91505060e083015184820360e086015261360382826134e6565b91505061010083015161361a6101008601826134b2565b5061012083015161362f6101208601826134b2565b506101408301516136446101408601826134b2565b508091505092915050565b600060208201905081810360008301526136698184613544565b905092915050565b60008060006060848603121561368a57613689612afc565b5b600084013567ffffffffffffffff8111156136a8576136a7612b01565b5b6136b486828701612f14565b935050602084013567ffffffffffffffff8111156136d5576136d4612b01565b5b6136e186828701612f14565b92505060406136f286828701612bdc565b9150509250925092565b600060408201905081810360008301526137168185612c75565b90506137256020830184612cba565b9392505050565b60006020820190506137416000830184612cc9565b92915050565b600060c08201905061375c6000830189612b9b565b818103602083015261376e8188612c75565b905081810360408301526137828187612c75565b90506137916060830186612cc9565b61379e6080830185612cc9565b6137ab60a0830184612cba565b979650505050505050565b600082825260208201905092915050565b60006137d282613486565b6137dc81856137b6565b93506137e7836134a2565b8060005b838110156138185781516137ff88826134c1565b975061380a836134d9565b9250506001810190506137eb565b5085935050505092915050565b6000602082019050818103600083015261383f81846137c7565b905092915050565b6000806000806080858703121561386157613860612afc565b5b600085013567ffffffffffffffff81111561387f5761387e612b01565b5b61388b87828801612f14565b945050602085013567ffffffffffffffff8111156138ac576138ab612b01565b5b6138b887828801612f14565b935050604085013567ffffffffffffffff8111156138d9576138d8612b01565b5b6138e587828801612f14565b92505060606138f687828801612b27565b91505092959194509250565b60008060006060848603121561391b5761391a612afc565b5b600061392986828701612bdc565b935050602061393a86828701612bdc565b925050604061394b86828701612b27565b9150509250925092565b7f466972737420646f20726567697374726174696f6e0000000000000000000000600082015250565b600061398b601583612c29565b915061399682613955565b602082019050919050565b600060208201905081810360008301526139ba8161397e565b9050919050565b7f416c726561647920796f757220656d61696c2069732076657269666965640000600082015250565b60006139f7601e83612c29565b9150613a02826139c1565b602082019050919050565b60006020820190508181036000830152613a26816139ea565b9050919050565b7f4e487b7100000000000000000000000000000000000000000000000000000000600052602260045260246000fd5b60006002820490506001821680613a7457607f821691505b602082108103613a8757613a86613a2d565b5b50919050565b60008190508160005260206000209050919050565b60006020601f8301049050919050565b600082821b905092915050565b600060088302613aef7fffffffffffffffffffffffffffffffffffffffffffffffffffffffffffffffff82613ab2565b613af98683613ab2565b95508019841693508086168417925050509392505050565b6000819050919050565b6000613b36613b31613b2c84612b06565b613b11565b612b06565b9050919050565b6000819050919050565b613b5083613b1b565b613b64613b5c82613b3d565b848454613abf565b825550505050565b600090565b613b79613b6c565b613b84818484613b47565b505050565b5b81811015613ba857613b9d600082613b71565b600181019050613b8a565b5050565b601f821115613bed57613bbe81613a8d565b613bc784613aa2565b81016020851015613bd6578190505b613bea613be285613aa2565b830182613b89565b50505b505050565b600082821c905092915050565b6000613c1060001984600802613bf2565b1980831691505092915050565b6000613c298383613bff565b9150826002028217905092915050565b613c4282612c1e565b67ffffffffffffffff811115613c5b57613c5a612e17565b5b613c658254613a5c565b613c70828285613bac565b600060209050601f831160018114613ca35760008415613c91578287015190505b613c9b8582613c1d565b865550613d03565b601f198416613cb186613a8d565b60005b82811015613cd957848901518255600182019150602085019450602081019050613cb4565b86831015613cf65784890151613cf2601f891682613bff565b8355505b6001600288020188555050505b505050505050565b7f4e487b7100000000000000000000000000000000000000000000000000000000600052603260045260246000fd5b7f4e487b7100000000000000000000000000000000000000000000000000000000600052601160045260246000fd5b6000613d7482612b06565b91507fffffffffffffffffffffffffffffffffffffffffffffffffffffffffffffffff8203613da657613da5613d3a565b5b600182019050919050565b7f466972737420726567697374657220616e642076657269667920796f7572206560008201527f6d61696c00000000000000000000000000000000000000000000000000000000602082015250565b6000613e0d602483612c29565b9150613e1882613db1565b604082019050919050565b60006020820190508181036000830152613e3c81613e00565b9050919050565b7f416c726561647920726567697374657265640000000000000000000000000000600082015250565b6000613e79601283612c29565b9150613e8482613e43565b602082019050919050565b60006020820190508181036000830152613ea881613e6c565b9050919050565b7f4f776e61626c653a206e6577206f776e657220697320746865207a65726f206160008201527f6464726573730000000000000000000000000000000000000000000000000000602082015250565b6000613f0b602683612c29565b9150613f1682613eaf565b604082019050919050565b60006020820190508181036000830152613f3a81613efe565b9050919050565b7f4f776e61626c653a2063616c6c6572206973206e6f7420746865206f776e6572600082015250565b6000613f77602083612c29565b9150613f8282613f41565b602082019050919050565b60006020820190508181036000830152613fa681613f6a565b905091905056fea2646970667358221220fd77919e0b463a2f58a249abae26bca1a7ec913e877bb2650e710481afe0f2c964736f6c63430008110033",
  "linkReferences": {},
  "deployedLinkReferences": {}
}