{
  "_format": "hh-sol-artifact-1",
  "contractName": "Inheritokens",
  "sourceName": "contracts/Inheritokens.sol",
  "abi": [
    {
      "inputs": [],
      "stateMutability": "nonpayable",
      "type": "constructor"
    },
    {
      "anonymous": false,
      "inputs": [
        {
          "indexed": true,
          "internalType": "address",
          "name": "_owner",
          "type": "address"
        },
        {
          "indexed": true,
          "internalType": "address",
          "name": "_tokenAddress",
          "type": "address"
        },
        {
          "indexed": false,
          "internalType": "uint256",
          "name": "_amount",
          "type": "uint256"
        }
      ],
      "name": "AllocatedShareUpdated",
      "type": "event"
    },
    {
      "anonymous": false,
      "inputs": [
        {
          "indexed": true,
          "internalType": "address",
          "name": "_owner",
          "type": "address"
        },
        {
          "indexed": false,
          "internalType": "uint256",
          "name": "_charityId",
          "type": "uint256"
        }
      ],
      "name": "CharityWhitelisted",
      "type": "event"
    },
    {
      "anonymous": false,
      "inputs": [
        {
          "indexed": true,
          "internalType": "address",
          "name": "_owner",
          "type": "address"
        }
      ],
      "name": "EmailVerified",
      "type": "event"
    },
    {
      "anonymous": false,
      "inputs": [
        {
          "indexed": true,
          "internalType": "address",
          "name": "_owner",
          "type": "address"
        },
        {
          "indexed": false,
          "internalType": "address",
          "name": "_nominee",
          "type": "address"
        },
        {
          "indexed": false,
          "internalType": "string",
          "name": "_name",
          "type": "string"
        },
        {
          "indexed": false,
          "internalType": "string",
          "name": "_mail",
          "type": "string"
        }
      ],
      "name": "NomineeAdded",
      "type": "event"
    },
    {
      "anonymous": false,
      "inputs": [
        {
          "indexed": true,
          "internalType": "address",
          "name": "_owner",
          "type": "address"
        },
        {
          "indexed": true,
          "internalType": "address",
          "name": "_oldAddress",
          "type": "address"
        },
        {
          "indexed": true,
          "internalType": "address",
          "name": "_newAddress",
          "type": "address"
        },
        {
          "indexed": false,
          "internalType": "string",
          "name": "_name",
          "type": "string"
        },
        {
          "indexed": false,
          "internalType": "string",
          "name": "_mail",
          "type": "string"
        }
      ],
      "name": "NomineeDetailsUpdated",
      "type": "event"
    },
    {
      "anonymous": false,
      "inputs": [
        {
          "indexed": true,
          "internalType": "address",
          "name": "_owner",
          "type": "address"
        },
        {
          "indexed": false,
          "internalType": "string",
          "name": "_name",
          "type": "string"
        }
      ],
      "name": "OwnerRegistered",
      "type": "event"
    },
    {
      "anonymous": false,
      "inputs": [
        {
          "indexed": true,
          "internalType": "address",
          "name": "_owner",
          "type": "address"
        }
      ],
      "name": "OwnerResponded",
      "type": "event"
    },
    {
      "anonymous": false,
      "inputs": [
        {
          "indexed": true,
          "internalType": "address",
          "name": "previousOwner",
          "type": "address"
        },
        {
          "indexed": true,
          "internalType": "address",
          "name": "newOwner",
          "type": "address"
        }
      ],
      "name": "OwnershipTransferred",
      "type": "event"
    },
    {
      "anonymous": false,
      "inputs": [
        {
          "indexed": true,
          "internalType": "address",
          "name": "_owner",
          "type": "address"
        },
        {
          "indexed": false,
          "internalType": "address",
          "name": "_recoveryAddress",
          "type": "address"
        }
      ],
      "name": "RecoveryAddressAdded",
      "type": "event"
    },
    {
      "anonymous": false,
      "inputs": [
        {
          "indexed": true,
          "internalType": "address",
          "name": "_owner",
          "type": "address"
        },
        {
          "indexed": false,
          "internalType": "string",
          "name": "_date",
          "type": "string"
        }
      ],
      "name": "ResponsedDateSet",
      "type": "event"
    },
    {
      "anonymous": false,
      "inputs": [
        {
          "indexed": true,
          "internalType": "address",
          "name": "_owner",
          "type": "address"
        },
        {
          "indexed": false,
          "internalType": "uint256",
          "name": "_inactivity",
          "type": "uint256"
        },
        {
          "indexed": false,
          "internalType": "uint256",
          "name": "_mail",
          "type": "uint256"
        },
        {
          "indexed": false,
          "internalType": "uint256",
          "name": "_nominee",
          "type": "uint256"
        }
      ],
      "name": "TimePeriodsUpdated",
      "type": "event"
    },
    {
      "anonymous": false,
      "inputs": [
        {
          "indexed": true,
          "internalType": "address",
          "name": "_owner",
          "type": "address"
        },
        {
          "indexed": true,
          "internalType": "address",
          "name": "_tokenAddress",
          "type": "address"
        },
        {
          "indexed": true,
          "internalType": "uint256",
          "name": "_tokenId",
          "type": "uint256"
        }
      ],
      "name": "TokenStructureAssigned",
      "type": "event"
    },
    {
      "inputs": [
        {
          "internalType": "string",
          "name": "_name",
          "type": "string"
        },
        {
          "internalType": "string",
          "name": "_email",
          "type": "string"
        },
        {
          "internalType": "address",
          "name": "_nominee",
          "type": "address"
        }
      ],
      "name": "addNomineesDetails",
      "outputs": [],
      "stateMutability": "nonpayable",
      "type": "function"
    },
    {
      "inputs": [
        {
          "internalType": "string",
          "name": "_name",
          "type": "string"
        },
        {
          "internalType": "string",
          "name": "_email",
          "type": "string"
        },
        {
          "internalType": "string",
          "name": "_cid",
          "type": "string"
        }
      ],
      "name": "addOwnerDetails",
      "outputs": [],
      "stateMutability": "nonpayable",
      "type": "function"
    },
    {
      "inputs": [
        {
          "internalType": "address",
          "name": "_recoveryAddress",
          "type": "address"
        }
      ],
      "name": "addWalletRecovery",
      "outputs": [],
      "stateMutability": "nonpayable",
      "type": "function"
    },
    {
      "inputs": [
        {
          "internalType": "address",
          "name": "",
          "type": "address"
        }
      ],
      "name": "addressToNominee",
      "outputs": [
        {
          "internalType": "string",
          "name": "nominee_name",
          "type": "string"
        },
        {
          "internalType": "string",
          "name": "nominee_email",
          "type": "string"
        },
        {
          "internalType": "address",
          "name": "nominee_address",
          "type": "address"
        }
      ],
      "stateMutability": "view",
      "type": "function"
    },
    {
      "inputs": [
        {
          "internalType": "address",
          "name": "",
          "type": "address"
        }
      ],
      "name": "addressToOwner",
      "outputs": [
        {
          "internalType": "string",
          "name": "owner_name",
          "type": "string"
        },
        {
          "internalType": "string",
          "name": "owner_email",
          "type": "string"
        },
        {
          "internalType": "string",
          "name": "image_cid",
          "type": "string"
        },
        {
          "internalType": "string",
          "name": "date",
          "type": "string"
        },
        {
          "internalType": "bool",
          "name": "isEmailVerified",
          "type": "bool"
        },
        {
          "internalType": "bool",
          "name": "isAlive",
          "type": "bool"
        },
        {
          "internalType": "bool",
          "name": "isResponsed",
          "type": "bool"
        },
        {
          "internalType": "address",
          "name": "recoveryAddress",
          "type": "address"
        },
        {
          "internalType": "uint256",
          "name": "monthsOfInactivity",
          "type": "uint256"
        },
        {
          "internalType": "uint256",
          "name": "monthsOfSendingMailToOwner",
          "type": "uint256"
        },
        {
          "internalType": "uint256",
          "name": "monthsForNominee",
          "type": "uint256"
        }
      ],
      "stateMutability": "view",
      "type": "function"
    },
    {
      "inputs": [
        {
          "internalType": "address",
          "name": "_owner",
          "type": "address"
        },
        {
          "internalType": "address",
          "name": "_tokenAddress",
          "type": "address"
        },
        {
          "internalType": "string",
          "name": "_tokenName",
          "type": "string"
        },
        {
          "internalType": "uint256",
          "name": "_category",
          "type": "uint256"
        },
        {
          "internalType": "uint256",
          "name": "_tokenId",
          "type": "uint256"
        },
        {
          "internalType": "uint256",
          "name": "amount",
          "type": "uint256"
        }
      ],
      "name": "assignTokenStruct",
      "outputs": [],
      "stateMutability": "nonpayable",
      "type": "function"
    },
    {
      "inputs": [
        {
          "internalType": "uint256",
          "name": "_inactivity",
          "type": "uint256"
        },
        {
          "internalType": "uint256",
          "name": "_mail",
          "type": "uint256"
        },
        {
          "internalType": "uint256",
          "name": "_nominee",
          "type": "uint256"
        }
      ],
      "name": "changeTimePeriods",
      "outputs": [],
      "stateMutability": "nonpayable",
      "type": "function"
    },
    {
      "inputs": [
        {
          "internalType": "address",
          "name": "_owner",
          "type": "address"
        }
      ],
      "name": "checkEmailVerified",
      "outputs": [
        {
          "internalType": "bool",
          "name": "",
          "type": "bool"
        }
      ],
      "stateMutability": "view",
      "type": "function"
    },
    {
      "inputs": [
        {
          "internalType": "address",
          "name": "_owner",
          "type": "address"
        }
      ],
      "name": "checkOwnerAdded",
      "outputs": [
        {
          "internalType": "bool",
          "name": "",
          "type": "bool"
        }
      ],
      "stateMutability": "view",
      "type": "function"
    },
    {
      "inputs": [
        {
          "internalType": "address",
          "name": "_oldNomineeAddress",
          "type": "address"
        },
        {
          "internalType": "string",
          "name": "_name",
          "type": "string"
        },
        {
          "internalType": "string",
          "name": "_email",
          "type": "string"
        },
        {
          "internalType": "address",
          "name": "_newNomineeAddress",
          "type": "address"
        }
      ],
      "name": "editNomineeDetails",
      "outputs": [],
      "stateMutability": "nonpayable",
      "type": "function"
    },
    {
      "inputs": [
        {
          "internalType": "string",
          "name": "_name",
          "type": "string"
        },
        {
          "internalType": "string",
          "name": "_email",
          "type": "string"
        },
        {
          "internalType": "string",
          "name": "_cid",
          "type": "string"
        }
      ],
      "name": "editOwnerDetails",
      "outputs": [],
      "stateMutability": "nonpayable",
      "type": "function"
    },
    {
      "inputs": [
        {
          "internalType": "address",
          "name": "_owner",
          "type": "address"
        }
      ],
      "name": "getAllNominees",
      "outputs": [
        {
          "internalType": "address[]",
          "name": "",
          "type": "address[]"
        }
      ],
      "stateMutability": "view",
      "type": "function"
    },
    {
      "inputs": [
        {
          "internalType": "address",
          "name": "_owner",
          "type": "address"
        }
      ],
      "name": "getAllNomineesOfOwner",
      "outputs": [
        {
          "internalType": "address[]",
          "name": "",
          "type": "address[]"
        }
      ],
      "stateMutability": "view",
      "type": "function"
    },
    {
      "inputs": [
        {
          "internalType": "address",
          "name": "_nominee",
          "type": "address"
        }
      ],
      "name": "getNomineeDetails",
      "outputs": [
        {
          "components": [
            {
              "internalType": "string",
              "name": "nominee_name",
              "type": "string"
            },
            {
              "internalType": "string",
              "name": "nominee_email",
              "type": "string"
            },
            {
              "internalType": "address",
              "name": "nominee_address",
              "type": "address"
            }
          ],
          "internalType": "struct Inheritokens.Nominee",
          "name": "",
          "type": "tuple"
        }
      ],
      "stateMutability": "view",
      "type": "function"
    },
    {
      "inputs": [
        {
          "internalType": "address",
          "name": "_owner",
          "type": "address"
        }
      ],
      "name": "getOwnerDetails",
      "outputs": [
        {
          "components": [
            {
              "internalType": "string",
              "name": "owner_name",
              "type": "string"
            },
            {
              "internalType": "string",
              "name": "owner_email",
              "type": "string"
            },
            {
              "internalType": "string",
              "name": "image_cid",
              "type": "string"
            },
            {
              "internalType": "string",
              "name": "date",
              "type": "string"
            },
            {
              "internalType": "bool",
              "name": "isEmailVerified",
              "type": "bool"
            },
            {
              "internalType": "bool",
              "name": "isAlive",
              "type": "bool"
            },
            {
              "internalType": "bool",
              "name": "isResponsed",
              "type": "bool"
            },
            {
              "internalType": "address",
              "name": "recoveryAddress",
              "type": "address"
            },
            {
              "internalType": "address[]",
              "name": "nominees",
              "type": "address[]"
            },
            {
              "internalType": "uint256[]",
              "name": "charities",
              "type": "uint256[]"
            },
            {
              "internalType": "uint256",
              "name": "monthsOfInactivity",
              "type": "uint256"
            },
            {
              "internalType": "uint256",
              "name": "monthsOfSendingMailToOwner",
              "type": "uint256"
            },
            {
              "internalType": "uint256",
              "name": "monthsForNominee",
              "type": "uint256"
            }
          ],
          "internalType": "struct Inheritokens.Owner",
          "name": "",
          "type": "tuple"
        }
      ],
      "stateMutability": "view",
      "type": "function"
    },
    {
      "inputs": [],
      "name": "getOwners",
      "outputs": [
        {
          "internalType": "address[]",
          "name": "",
          "type": "address[]"
        }
      ],
      "stateMutability": "view",
      "type": "function"
    },
    {
      "inputs": [
        {
          "internalType": "address",
          "name": "_owner",
          "type": "address"
        },
        {
          "internalType": "address",
          "name": "_tokenAddress",
          "type": "address"
        },
        {
          "internalType": "uint256",
          "name": "_tokenId",
          "type": "uint256"
        },
        {
          "internalType": "uint256",
          "name": "_category",
          "type": "uint256"
        }
      ],
      "name": "getTokenStruct",
      "outputs": [
        {
          "components": [
            {
              "internalType": "address",
              "name": "token_address",
              "type": "address"
            },
            {
              "internalType": "string",
              "name": "token_name",
              "type": "string"
            },
            {
              "internalType": "uint256",
              "name": "category",
              "type": "uint256"
            },
            {
              "internalType": "uint256",
              "name": "token_id",
              "type": "uint256"
            },
            {
              "internalType": "uint256",
              "name": "allocated_share",
              "type": "uint256"
            },
            {
              "internalType": "bool",
              "name": "isNominated",
              "type": "bool"
            }
          ],
          "internalType": "struct Inheritokens.Token",
          "name": "",
          "type": "tuple"
        }
      ],
      "stateMutability": "view",
      "type": "function"
    },
    {
      "inputs": [],
      "name": "getTotalOwners",
      "outputs": [
        {
          "internalType": "uint256",
          "name": "",
          "type": "uint256"
        }
      ],
      "stateMutability": "view",
      "type": "function"
    },
    {
      "inputs": [
        {
          "internalType": "address",
          "name": "_owner",
          "type": "address"
        }
      ],
      "name": "getWhiteListedCharities",
      "outputs": [
        {
          "internalType": "uint256[]",
          "name": "",
          "type": "uint256[]"
        }
      ],
      "stateMutability": "view",
      "type": "function"
    },
    {
      "inputs": [
        {
          "internalType": "address",
          "name": "",
          "type": "address"
        }
      ],
      "name": "isNomineeAdded",
      "outputs": [
        {
          "internalType": "bool",
          "name": "",
          "type": "bool"
        }
      ],
      "stateMutability": "view",
      "type": "function"
    },
    {
      "inputs": [
        {
          "internalType": "address",
          "name": "",
          "type": "address"
        }
      ],
      "name": "isOwnerAdded",
      "outputs": [
        {
          "internalType": "bool",
          "name": "",
          "type": "bool"
        }
      ],
      "stateMutability": "view",
      "type": "function"
    },
    {
      "inputs": [
        {
          "internalType": "address",
          "name": "",
          "type": "address"
        },
        {
          "internalType": "address",
          "name": "",
          "type": "address"
        },
        {
          "internalType": "uint256",
          "name": "",
          "type": "uint256"
        }
      ],
      "name": "nftAddressToTokenStruct",
      "outputs": [
        {
          "internalType": "address",
          "name": "token_address",
          "type": "address"
        },
        {
          "internalType": "string",
          "name": "token_name",
          "type": "string"
        },
        {
          "internalType": "uint256",
          "name": "category",
          "type": "uint256"
        },
        {
          "internalType": "uint256",
          "name": "token_id",
          "type": "uint256"
        },
        {
          "internalType": "uint256",
          "name": "allocated_share",
          "type": "uint256"
        },
        {
          "internalType": "bool",
          "name": "isNominated",
          "type": "bool"
        }
      ],
      "stateMutability": "view",
      "type": "function"
    },
    {
      "inputs": [],
      "name": "owner",
      "outputs": [
        {
          "internalType": "address",
          "name": "",
          "type": "address"
        }
      ],
      "stateMutability": "view",
      "type": "function"
    },
    {
      "inputs": [
        {
          "internalType": "uint256",
          "name": "",
          "type": "uint256"
        }
      ],
      "name": "owners",
      "outputs": [
        {
          "internalType": "address",
          "name": "",
          "type": "address"
        }
      ],
      "stateMutability": "view",
      "type": "function"
    },
    {
      "inputs": [],
      "name": "renounceOwnership",
      "outputs": [],
      "stateMutability": "nonpayable",
      "type": "function"
    },
    {
      "inputs": [
        {
          "internalType": "address",
          "name": "_owner",
          "type": "address"
        }
      ],
      "name": "setOwnerNotAlive",
      "outputs": [],
      "stateMutability": "nonpayable",
      "type": "function"
    },
    {
      "inputs": [],
      "name": "setResponse",
      "outputs": [],
      "stateMutability": "nonpayable",
      "type": "function"
    },
    {
      "inputs": [
        {
          "internalType": "address",
          "name": "_owner",
          "type": "address"
        },
        {
          "internalType": "string",
          "name": "_date",
          "type": "string"
        }
      ],
      "name": "setResponseDate",
      "outputs": [],
      "stateMutability": "nonpayable",
      "type": "function"
    },
    {
      "inputs": [
        {
          "internalType": "uint256",
          "name": "_charityId",
          "type": "uint256"
        }
      ],
      "name": "setWhiteListedCharities",
      "outputs": [],
      "stateMutability": "nonpayable",
      "type": "function"
    },
    {
      "inputs": [
        {
          "internalType": "address",
          "name": "",
          "type": "address"
        },
        {
          "internalType": "address",
          "name": "",
          "type": "address"
        }
      ],
      "name": "tokenAddressToTokenStruct",
      "outputs": [
        {
          "internalType": "address",
          "name": "token_address",
          "type": "address"
        },
        {
          "internalType": "string",
          "name": "token_name",
          "type": "string"
        },
        {
          "internalType": "uint256",
          "name": "category",
          "type": "uint256"
        },
        {
          "internalType": "uint256",
          "name": "token_id",
          "type": "uint256"
        },
        {
          "internalType": "uint256",
          "name": "allocated_share",
          "type": "uint256"
        },
        {
          "internalType": "bool",
          "name": "isNominated",
          "type": "bool"
        }
      ],
      "stateMutability": "view",
      "type": "function"
    },
    {
      "inputs": [
        {
          "internalType": "address",
          "name": "newOwner",
          "type": "address"
        }
      ],
      "name": "transferOwnership",
      "outputs": [],
      "stateMutability": "nonpayable",
      "type": "function"
    },
    {
      "inputs": [
        {
          "internalType": "address",
          "name": "_owner",
          "type": "address"
        },
        {
          "internalType": "address",
          "name": "_tokenAddress",
          "type": "address"
        },
        {
          "internalType": "uint256",
          "name": "_tokenId",
          "type": "uint256"
        },
        {
          "internalType": "uint256",
          "name": "_amount",
          "type": "uint256"
        },
        {
          "internalType": "uint256",
          "name": "_category",
          "type": "uint256"
        }
      ],
      "name": "updateAllocatedShare",
      "outputs": [],
      "stateMutability": "nonpayable",
      "type": "function"
    },
    {
      "inputs": [],
      "name": "verifyOwnerEmail",
      "outputs": [],
      "stateMutability": "nonpayable",
      "type": "function"
    }
  ],
  "bytecode": "0x60806040523480156200001157600080fd5b5062000032620000266200003860201b60201c565b6200004060201b60201c565b62000104565b600033905090565b60008060009054906101000a900473ffffffffffffffffffffffffffffffffffffffff169050816000806101000a81548173ffffffffffffffffffffffffffffffffffffffff021916908373ffffffffffffffffffffffffffffffffffffffff1602179055508173ffffffffffffffffffffffffffffffffffffffff168173ffffffffffffffffffffffffffffffffffffffff167f8be0079c531659141344cd1fd0a4f28419497f9722a3daafe3b4186f6b6457e060405160405180910390a35050565b61566580620001146000396000f3fe608060405234801561001057600080fd5b50600436106101fb5760003560e01c80638258d0211161011a578063c3bb8121116100ad578063db23f9f31161007c578063db23f9f3146105f3578063de508c5b14610611578063e860585d14610646578063f2fde38b14610662578063f80097851461067e576101fb565b8063c3bb812114610547578063c9b1dacd14610577578063cb144b39146105a7578063cd0e5091146105c3576101fb565b8063a06d3e97116100e9578063a06d3e97146104e7578063a0e67e2b146104f1578063a5394b391461050f578063b69bd77f1461052b576101fb565b80638258d02114610475578063883a2353146104915780638da5cb5b146104ad578063984fd10c146104cb576101fb565b806337950bfe116101925780635a863c11116101615780635a863c11146103ff57806360c5602b14610431578063715018a61461043b57806376f0ffc614610445576101fb565b806337950bfe1461036757806345bceabd146103835780634950956e146103b357806354add3e7146103e3576101fb565b8063159305e1116101ce578063159305e1146102b157806315b79630146102eb57806320e4ab6a1461031b57806325cb763a1461034b576101fb565b80630220044b14610200578063025e7c27146102355780630f1f8c05146102655780631056d26d14610295575b600080fd5b61021a60048036038101906102159190613fb0565b6106ae565b60405161022c969594939291906140cc565b60405180910390f35b61024f600480360381019061024a9190614134565b6107b9565b60405161025c9190614161565b60405180910390f35b61027f600480360381019061027a919061417c565b6107f8565b60405161028c91906141a9565b60405180910390f35b6102af60048036038101906102aa919061417c565b61084e565b005b6102cb60048036038101906102c6919061417c565b610a3b565b6040516102e29b9a999897969594939291906141c4565b60405180910390f35b6103056004803603810190610300919061417c565b610cfc565b60405161031291906141a9565b60405180910390f35b6103356004803603810190610330919061417c565b610d55565b6040516103429190614349565b60405180910390f35b610365600480360381019061036091906144a0565b610e25565b005b610381600480360381019061037c9190614549565b611282565b005b61039d6004803603810190610398919061417c565b6114c9565b6040516103aa919061465a565b60405180910390f35b6103cd60048036038101906103c8919061417c565b611563565b6040516103da919061471d565b60405180910390f35b6103fd60048036038101906103f8919061473f565b611736565b005b6104196004803603810190610414919061417c565b6117e0565b6040516104289392919061479b565b60405180910390f35b61043961193a565b005b610443611af5565b005b61045f600480360381019061045a919061417c565b611b09565b60405161046c91906141a9565b60405180910390f35b61048f600480360381019061048a91906147e0565b611b29565b005b6104ab60048036038101906104a69190614134565b611f42565b005b6104b5612117565b6040516104c29190614161565b60405180910390f35b6104e560048036038101906104e09190614887565b612140565b005b6104ef612718565b005b6104f96128d4565b6040516105069190614349565b60405180910390f35b6105296004803603810190610524919061417c565b612962565b005b61054560048036038101906105409190614926565b612a58565b005b610561600480360381019061055c919061417c565b612d06565b60405161056e9190614bca565b60405180910390f35b610591600480360381019061058c9190614bec565b613153565b60405161059e9190614cdc565b60405180910390f35b6105c160048036038101906105bc9190614cfe565b6134d6565b005b6105dd60048036038101906105d8919061417c565b6138b6565b6040516105ea91906141a9565b60405180910390f35b6105fb6138d6565b6040516106089190614d89565b60405180910390f35b61062b60048036038101906106269190614da4565b6138e3565b60405161063d969594939291906140cc565b60405180910390f35b610660600480360381019061065b91906147e0565b6139e1565b005b61067c6004803603810190610677919061417c565b613b62565b005b6106986004803603810190610693919061417c565b613be5565b6040516106a59190614349565b60405180910390f35b600760205282600052604060002060205281600052604060002060205280600052604060002060009250925050508060000160009054906101000a900473ffffffffffffffffffffffffffffffffffffffff169080600101805461071190614e13565b80601f016020809104026020016040519081016040528092919081815260200182805461073d90614e13565b801561078a5780601f1061075f5761010080835404028352916020019161078a565b820191906000526020600020905b81548152906001019060200180831161076d57829003601f168201915b5050505050908060020154908060030154908060040154908060050160009054906101000a900460ff16905086565b600181815481106107c957600080fd5b906000526020600020016000915054906101000a900473ffffffffffffffffffffffffffffffffffffffff1681565b6000600260008373ffffffffffffffffffffffffffffffffffffffff1673ffffffffffffffffffffffffffffffffffffffff16815260200190815260200160002060009054906101000a900460ff169050919050565b600260003373ffffffffffffffffffffffffffffffffffffffff1673ffffffffffffffffffffffffffffffffffffffff16815260200190815260200160002060009054906101000a900460ff166108da576040517f08c379a00000000000000000000000000000000000000000000000000000000081526004016108d190614e90565b60405180910390fd5b600360003373ffffffffffffffffffffffffffffffffffffffff1673ffffffffffffffffffffffffffffffffffffffff16815260200190815260200160002060040160009054906101000a900460ff16610969576040517f08c379a000000000000000000000000000000000000000000000000000000000815260040161096090614efc565b60405180910390fd5b80600360003373ffffffffffffffffffffffffffffffffffffffff1673ffffffffffffffffffffffffffffffffffffffff16815260200190815260200160002060040160036101000a81548173ffffffffffffffffffffffffffffffffffffffff021916908373ffffffffffffffffffffffffffffffffffffffff1602179055503373ffffffffffffffffffffffffffffffffffffffff167f7fa39328717f9bda0ec36a3638c195f29c2a4c5ed45d321be74cc64f092c2d3682604051610a309190614161565b60405180910390a250565b6003602052806000526040600020600091509050806000018054610a5e90614e13565b80601f0160208091040260200160405190810160405280929190818152602001828054610a8a90614e13565b8015610ad75780601f10610aac57610100808354040283529160200191610ad7565b820191906000526020600020905b815481529060010190602001808311610aba57829003601f168201915b505050505090806001018054610aec90614e13565b80601f0160208091040260200160405190810160405280929190818152602001828054610b1890614e13565b8015610b655780601f10610b3a57610100808354040283529160200191610b65565b820191906000526020600020905b815481529060010190602001808311610b4857829003601f168201915b505050505090806002018054610b7a90614e13565b80601f0160208091040260200160405190810160405280929190818152602001828054610ba690614e13565b8015610bf35780601f10610bc857610100808354040283529160200191610bf3565b820191906000526020600020905b815481529060010190602001808311610bd657829003601f168201915b505050505090806003018054610c0890614e13565b80601f0160208091040260200160405190810160405280929190818152602001828054610c3490614e13565b8015610c815780601f10610c5657610100808354040283529160200191610c81565b820191906000526020600020905b815481529060010190602001808311610c6457829003601f168201915b5050505050908060040160009054906101000a900460ff16908060040160019054906101000a900460ff16908060040160029054906101000a900460ff16908060040160039054906101000a900473ffffffffffffffffffffffffffffffffffffffff1690806007015490806008015490806009015490508b565b6000600360008373ffffffffffffffffffffffffffffffffffffffff1673ffffffffffffffffffffffffffffffffffffffff16815260200190815260200160002060040160009054906101000a900460ff169050919050565b6060600360008373ffffffffffffffffffffffffffffffffffffffff1673ffffffffffffffffffffffffffffffffffffffff168152602001908152602001600020600501805480602002602001604051908101604052809291908181526020018280548015610e1957602002820191906000526020600020905b8160009054906101000a900473ffffffffffffffffffffffffffffffffffffffff1673ffffffffffffffffffffffffffffffffffffffff1681526020019060010190808311610dcf575b50505050509050919050565b600260008773ffffffffffffffffffffffffffffffffffffffff1673ffffffffffffffffffffffffffffffffffffffff16815260200190815260200160002060009054906101000a900460ff16610eb1576040517f08c379a0000000000000000000000000000000000000000000000000000000008152600401610ea890614e90565b60405180910390fd5b600360008773ffffffffffffffffffffffffffffffffffffffff1673ffffffffffffffffffffffffffffffffffffffff16815260200190815260200160002060040160009054906101000a900460ff16610f40576040517f08c379a0000000000000000000000000000000000000000000000000000000008152600401610f3790614efc565b60405180910390fd5b600083036110ad576040518060c001604052808673ffffffffffffffffffffffffffffffffffffffff16815260200185815260200184815260200183815260200182815260200160011515815250600660008873ffffffffffffffffffffffffffffffffffffffff1673ffffffffffffffffffffffffffffffffffffffff16815260200190815260200160002060008773ffffffffffffffffffffffffffffffffffffffff1673ffffffffffffffffffffffffffffffffffffffff16815260200190815260200160002060008201518160000160006101000a81548173ffffffffffffffffffffffffffffffffffffffff021916908373ffffffffffffffffffffffffffffffffffffffff160217905550602082015181600101908161106691906150c8565b5060408201518160020155606082015181600301556080820151816004015560a08201518160050160006101000a81548160ff02191690831515021790555090505061121f565b6040518060c001604052808673ffffffffffffffffffffffffffffffffffffffff16815260200185815260200184815260200183815260200182815260200160011515815250600760008873ffffffffffffffffffffffffffffffffffffffff1673ffffffffffffffffffffffffffffffffffffffff16815260200190815260200160002060008773ffffffffffffffffffffffffffffffffffffffff1673ffffffffffffffffffffffffffffffffffffffff168152602001908152602001600020600084815260200190815260200160002060008201518160000160006101000a81548173ffffffffffffffffffffffffffffffffffffffff021916908373ffffffffffffffffffffffffffffffffffffffff16021790555060208201518160010190816111dc91906150c8565b5060408201518160020155606082015181600301556080820151816004015560a08201518160050160006101000a81548160ff0219169083151502179055509050505b818573ffffffffffffffffffffffffffffffffffffffff168773ffffffffffffffffffffffffffffffffffffffff167fbcd808aacc29273be719505ed6a9bc3a667772d205c392aa0a2cc8409a967bc860405160405180910390a4505050505050565b600260003373ffffffffffffffffffffffffffffffffffffffff1673ffffffffffffffffffffffffffffffffffffffff16815260200190815260200160002060009054906101000a900460ff1661130e576040517f08c379a000000000000000000000000000000000000000000000000000000000815260040161130590614e90565b60405180910390fd5b600360003373ffffffffffffffffffffffffffffffffffffffff1673ffffffffffffffffffffffffffffffffffffffff16815260200190815260200160002060040160009054906101000a900460ff1661139d576040517f08c379a000000000000000000000000000000000000000000000000000000000815260040161139490614efc565b60405180910390fd5b82600360003373ffffffffffffffffffffffffffffffffffffffff1673ffffffffffffffffffffffffffffffffffffffff1681526020019081526020016000206007018190555081600360003373ffffffffffffffffffffffffffffffffffffffff1673ffffffffffffffffffffffffffffffffffffffff1681526020019081526020016000206008018190555080600360003373ffffffffffffffffffffffffffffffffffffffff1673ffffffffffffffffffffffffffffffffffffffff168152602001908152602001600020600901819055503373ffffffffffffffffffffffffffffffffffffffff167fa89ed257389bf55f99f23abbebdb8576be22335f63e8f2ed9e12742f3cb4defb8484846040516114bc9392919061519a565b60405180910390a2505050565b6060600360008373ffffffffffffffffffffffffffffffffffffffff1673ffffffffffffffffffffffffffffffffffffffff16815260200190815260200160002060060180548060200260200160405190810160405280929190818152602001828054801561155757602002820191906000526020600020905b815481526020019060010190808311611543575b50505050509050919050565b61156b613dff565b600460008373ffffffffffffffffffffffffffffffffffffffff1673ffffffffffffffffffffffffffffffffffffffff1681526020019081526020016000206040518060600160405290816000820180546115c590614e13565b80601f01602080910402602001604051908101604052809291908181526020018280546115f190614e13565b801561163e5780601f106116135761010080835404028352916020019161163e565b820191906000526020600020905b81548152906001019060200180831161162157829003601f168201915b5050505050815260200160018201805461165790614e13565b80601f016020809104026020016040519081016040528092919081815260200182805461168390614e13565b80156116d05780601f106116a5576101008083540402835291602001916116d0565b820191906000526020600020905b8154815290600101906020018083116116b357829003601f168201915b505050505081526020016002820160009054906101000a900473ffffffffffffffffffffffffffffffffffffffff1673ffffffffffffffffffffffffffffffffffffffff1673ffffffffffffffffffffffffffffffffffffffff16815250509050919050565b61173e613cb5565b80600360008473ffffffffffffffffffffffffffffffffffffffff1673ffffffffffffffffffffffffffffffffffffffff168152602001908152602001600020600301908161178d91906150c8565b508173ffffffffffffffffffffffffffffffffffffffff167f8a1263962e2474bea0a33055f8d55a8113d3481d759b26d9c9d151ad7e552f19826040516117d491906151d1565b60405180910390a25050565b600460205280600052604060002060009150905080600001805461180390614e13565b80601f016020809104026020016040519081016040528092919081815260200182805461182f90614e13565b801561187c5780601f106118515761010080835404028352916020019161187c565b820191906000526020600020905b81548152906001019060200180831161185f57829003601f168201915b50505050509080600101805461189190614e13565b80601f01602080910402602001604051908101604052809291908181526020018280546118bd90614e13565b801561190a5780601f106118df5761010080835404028352916020019161190a565b820191906000526020600020905b8154815290600101906020018083116118ed57829003601f168201915b5050505050908060020160009054906101000a900473ffffffffffffffffffffffffffffffffffffffff16905083565b600260003373ffffffffffffffffffffffffffffffffffffffff1673ffffffffffffffffffffffffffffffffffffffff16815260200190815260200160002060009054906101000a900460ff166119c6576040517f08c379a00000000000000000000000000000000000000000000000000000000081526004016119bd90614e90565b60405180910390fd5b600360003373ffffffffffffffffffffffffffffffffffffffff1673ffffffffffffffffffffffffffffffffffffffff16815260200190815260200160002060040160009054906101000a900460ff16611a55576040517f08c379a0000000000000000000000000000000000000000000000000000000008152600401611a4c90614efc565b60405180910390fd5b6001600360003373ffffffffffffffffffffffffffffffffffffffff1673ffffffffffffffffffffffffffffffffffffffff16815260200190815260200160002060040160026101000a81548160ff0219169083151502179055503373ffffffffffffffffffffffffffffffffffffffff167f10fb698f781e424b2936b656193c9212836bcb66e5da5119147d31561a3d931160405160405180910390a2565b611afd613cb5565b611b076000613d33565b565b60026020528060005260406000206000915054906101000a900460ff1681565b600260003373ffffffffffffffffffffffffffffffffffffffff1673ffffffffffffffffffffffffffffffffffffffff16815260200190815260200160002060009054906101000a900460ff1615611bb6576040517f08c379a0000000000000000000000000000000000000000000000000000000008152600401611bad9061523f565b60405180910390fd5b6001339080600181540180825580915050600190039060005260206000200160009091909190916101000a81548173ffffffffffffffffffffffffffffffffffffffff021916908373ffffffffffffffffffffffffffffffffffffffff16021790555082600360003373ffffffffffffffffffffffffffffffffffffffff1673ffffffffffffffffffffffffffffffffffffffff1681526020019081526020016000206000019081611c6891906150c8565b5081600360003373ffffffffffffffffffffffffffffffffffffffff1673ffffffffffffffffffffffffffffffffffffffff1681526020019081526020016000206001019081611cb891906150c8565b5080600360003373ffffffffffffffffffffffffffffffffffffffff1673ffffffffffffffffffffffffffffffffffffffff1681526020019081526020016000206002019081611d0891906150c8565b506000600360003373ffffffffffffffffffffffffffffffffffffffff1673ffffffffffffffffffffffffffffffffffffffff16815260200190815260200160002060040160006101000a81548160ff0219169083151502179055506001600360003373ffffffffffffffffffffffffffffffffffffffff1673ffffffffffffffffffffffffffffffffffffffff16815260200190815260200160002060040160016101000a81548160ff0219169083151502179055506006600360003373ffffffffffffffffffffffffffffffffffffffff1673ffffffffffffffffffffffffffffffffffffffff168152602001908152602001600020600701819055506002600360003373ffffffffffffffffffffffffffffffffffffffff1673ffffffffffffffffffffffffffffffffffffffff168152602001908152602001600020600801819055506002600360003373ffffffffffffffffffffffffffffffffffffffff1673ffffffffffffffffffffffffffffffffffffffff168152602001908152602001600020600901819055506001600260003373ffffffffffffffffffffffffffffffffffffffff1673ffffffffffffffffffffffffffffffffffffffff16815260200190815260200160002060006101000a81548160ff0219169083151502179055503373ffffffffffffffffffffffffffffffffffffffff167f5f66e430b448d83d46a65ab17a365f04c0c8f1a66ac20bcc38dfde7f2d67514184604051611f3591906151d1565b60405180910390a2505050565b600260003373ffffffffffffffffffffffffffffffffffffffff1673ffffffffffffffffffffffffffffffffffffffff16815260200190815260200160002060009054906101000a900460ff16611fce576040517f08c379a0000000000000000000000000000000000000000000000000000000008152600401611fc590614e90565b60405180910390fd5b600360003373ffffffffffffffffffffffffffffffffffffffff1673ffffffffffffffffffffffffffffffffffffffff16815260200190815260200160002060040160009054906101000a900460ff1661205d576040517f08c379a000000000000000000000000000000000000000000000000000000000815260040161205490614efc565b60405180910390fd5b600360003373ffffffffffffffffffffffffffffffffffffffff1673ffffffffffffffffffffffffffffffffffffffff1681526020019081526020016000206006018190806001815401808255809150506001900390600052602060002001600090919091909150553373ffffffffffffffffffffffffffffffffffffffff167f0a9f57650aae67446314481b13a827c479f89b36f2186ba5ced5026358a55c458260405161210c9190614d89565b60405180910390a250565b60008060009054906101000a900473ffffffffffffffffffffffffffffffffffffffff16905090565b600260003373ffffffffffffffffffffffffffffffffffffffff1673ffffffffffffffffffffffffffffffffffffffff16815260200190815260200160002060009054906101000a900460ff166121cc576040517f08c379a00000000000000000000000000000000000000000000000000000000081526004016121c390614e90565b60405180910390fd5b600360003373ffffffffffffffffffffffffffffffffffffffff1673ffffffffffffffffffffffffffffffffffffffff16815260200190815260200160002060040160009054906101000a900460ff1661225b576040517f08c379a000000000000000000000000000000000000000000000000000000000815260040161225290614efc565b60405180910390fd5b600560008573ffffffffffffffffffffffffffffffffffffffff1673ffffffffffffffffffffffffffffffffffffffff16815260200190815260200160002060009054906101000a900460ff166122e7576040517f08c379a00000000000000000000000000000000000000000000000000000000081526004016122de906152ab565b60405180910390fd5b8073ffffffffffffffffffffffffffffffffffffffff168473ffffffffffffffffffffffffffffffffffffffff16036123bf5782600460008673ffffffffffffffffffffffffffffffffffffffff1673ffffffffffffffffffffffffffffffffffffffff168152602001908152602001600020600001908161236991906150c8565b5081600460008673ffffffffffffffffffffffffffffffffffffffff1673ffffffffffffffffffffffffffffffffffffffff16815260200190815260200160002060010190816123b991906150c8565b50612694565b82600460008373ffffffffffffffffffffffffffffffffffffffff1673ffffffffffffffffffffffffffffffffffffffff168152602001908152602001600020600001908161240e91906150c8565b5081600460008373ffffffffffffffffffffffffffffffffffffffff1673ffffffffffffffffffffffffffffffffffffffff168152602001908152602001600020600101908161245e91906150c8565b5080600460008373ffffffffffffffffffffffffffffffffffffffff1673ffffffffffffffffffffffffffffffffffffffff16815260200190815260200160002060020160006101000a81548173ffffffffffffffffffffffffffffffffffffffff021916908373ffffffffffffffffffffffffffffffffffffffff16021790555060005b600360003373ffffffffffffffffffffffffffffffffffffffff1673ffffffffffffffffffffffffffffffffffffffff16815260200190815260200160002060050180549050811015612692578473ffffffffffffffffffffffffffffffffffffffff16600360003373ffffffffffffffffffffffffffffffffffffffff1673ffffffffffffffffffffffffffffffffffffffff168152602001908152602001600020600501828154811061259b5761259a6152cb565b5b9060005260206000200160009054906101000a900473ffffffffffffffffffffffffffffffffffffffff1673ffffffffffffffffffffffffffffffffffffffff160361267f5781600360003373ffffffffffffffffffffffffffffffffffffffff1673ffffffffffffffffffffffffffffffffffffffff1681526020019081526020016000206005018281548110612636576126356152cb565b5b9060005260206000200160006101000a81548173ffffffffffffffffffffffffffffffffffffffff021916908373ffffffffffffffffffffffffffffffffffffffff1602179055505b808061268a90615329565b9150506124e3565b505b8073ffffffffffffffffffffffffffffffffffffffff168473ffffffffffffffffffffffffffffffffffffffff163373ffffffffffffffffffffffffffffffffffffffff167f98181c10b577f57cab84e5876fe882beef6fd7633fa626a112765254ff1c0a3d868660405161270a929190615371565b60405180910390a450505050565b600260003373ffffffffffffffffffffffffffffffffffffffff1673ffffffffffffffffffffffffffffffffffffffff16815260200190815260200160002060009054906101000a900460ff166127a4576040517f08c379a000000000000000000000000000000000000000000000000000000000815260040161279b90614e90565b60405180910390fd5b600360003373ffffffffffffffffffffffffffffffffffffffff1673ffffffffffffffffffffffffffffffffffffffff16815260200190815260200160002060040160009054906101000a900460ff1615612834576040517f08c379a000000000000000000000000000000000000000000000000000000000815260040161282b906153f4565b60405180910390fd5b6001600360003373ffffffffffffffffffffffffffffffffffffffff1673ffffffffffffffffffffffffffffffffffffffff16815260200190815260200160002060040160006101000a81548160ff0219169083151502179055503373ffffffffffffffffffffffffffffffffffffffff167fc075588536ccbcc926766f9090dd0857af2708dfc82df2166eca1059cadf2ec760405160405180910390a2565b6060600180548060200260200160405190810160405280929190818152602001828054801561295857602002820191906000526020600020905b8160009054906101000a900473ffffffffffffffffffffffffffffffffffffffff1673ffffffffffffffffffffffffffffffffffffffff168152602001906001019080831161290e575b5050505050905090565b61296a613cb5565b600360008273ffffffffffffffffffffffffffffffffffffffff1673ffffffffffffffffffffffffffffffffffffffff16815260200190815260200160002060040160029054906101000a900460ff16156129fa576040517f08c379a00000000000000000000000000000000000000000000000000000000081526004016129f190615460565b60405180910390fd5b6000600360008373ffffffffffffffffffffffffffffffffffffffff1673ffffffffffffffffffffffffffffffffffffffff16815260200190815260200160002060040160016101000a81548160ff02191690831515021790555050565b600260008673ffffffffffffffffffffffffffffffffffffffff1673ffffffffffffffffffffffffffffffffffffffff16815260200190815260200160002060009054906101000a900460ff16612ae4576040517f08c379a0000000000000000000000000000000000000000000000000000000008152600401612adb90614e90565b60405180910390fd5b600360008673ffffffffffffffffffffffffffffffffffffffff1673ffffffffffffffffffffffffffffffffffffffff16815260200190815260200160002060040160009054906101000a900460ff16612b73576040517f08c379a0000000000000000000000000000000000000000000000000000000008152600401612b6a90614efc565b60405180910390fd5b60008103612c045781600660008773ffffffffffffffffffffffffffffffffffffffff1673ffffffffffffffffffffffffffffffffffffffff16815260200190815260200160002060008673ffffffffffffffffffffffffffffffffffffffff1673ffffffffffffffffffffffffffffffffffffffff16815260200190815260200160002060040181905550612c9a565b81600760008773ffffffffffffffffffffffffffffffffffffffff1673ffffffffffffffffffffffffffffffffffffffff16815260200190815260200160002060008673ffffffffffffffffffffffffffffffffffffffff1673ffffffffffffffffffffffffffffffffffffffff1681526020019081526020016000206000858152602001908152602001600020600401819055505b8373ffffffffffffffffffffffffffffffffffffffff168573ffffffffffffffffffffffffffffffffffffffff167fedc81c1b2ba130e51b15caad1a904620ab3ad26168714cfa53da56e1ecda7f9d84604051612cf79190614d89565b60405180910390a35050505050565b612d0e613e36565b600360008373ffffffffffffffffffffffffffffffffffffffff1673ffffffffffffffffffffffffffffffffffffffff168152602001908152602001600020604051806101a0016040529081600082018054612d6990614e13565b80601f0160208091040260200160405190810160405280929190818152602001828054612d9590614e13565b8015612de25780601f10612db757610100808354040283529160200191612de2565b820191906000526020600020905b815481529060010190602001808311612dc557829003601f168201915b50505050508152602001600182018054612dfb90614e13565b80601f0160208091040260200160405190810160405280929190818152602001828054612e2790614e13565b8015612e745780601f10612e4957610100808354040283529160200191612e74565b820191906000526020600020905b815481529060010190602001808311612e5757829003601f168201915b50505050508152602001600282018054612e8d90614e13565b80601f0160208091040260200160405190810160405280929190818152602001828054612eb990614e13565b8015612f065780601f10612edb57610100808354040283529160200191612f06565b820191906000526020600020905b815481529060010190602001808311612ee957829003601f168201915b50505050508152602001600382018054612f1f90614e13565b80601f0160208091040260200160405190810160405280929190818152602001828054612f4b90614e13565b8015612f985780601f10612f6d57610100808354040283529160200191612f98565b820191906000526020600020905b815481529060010190602001808311612f7b57829003601f168201915b505050505081526020016004820160009054906101000a900460ff161515151581526020016004820160019054906101000a900460ff161515151581526020016004820160029054906101000a900460ff161515151581526020016004820160039054906101000a900473ffffffffffffffffffffffffffffffffffffffff1673ffffffffffffffffffffffffffffffffffffffff1673ffffffffffffffffffffffffffffffffffffffff168152602001600582018054806020026020016040519081016040528092919081815260200182805480156130cd57602002820191906000526020600020905b8160009054906101000a900473ffffffffffffffffffffffffffffffffffffffff1673ffffffffffffffffffffffffffffffffffffffff1681526020019060010190808311613083575b505050505081526020016006820180548060200260200160405190810160405280929190818152602001828054801561312557602002820191906000526020600020905b815481526020019060010190808311613111575b5050505050815260200160078201548152602001600882015481526020016009820154815250509050919050565b61315b613eba565b6000820361331257600660008673ffffffffffffffffffffffffffffffffffffffff1673ffffffffffffffffffffffffffffffffffffffff16815260200190815260200160002060008573ffffffffffffffffffffffffffffffffffffffff1673ffffffffffffffffffffffffffffffffffffffff1681526020019081526020016000206040518060c00160405290816000820160009054906101000a900473ffffffffffffffffffffffffffffffffffffffff1673ffffffffffffffffffffffffffffffffffffffff1673ffffffffffffffffffffffffffffffffffffffff16815260200160018201805461325090614e13565b80601f016020809104026020016040519081016040528092919081815260200182805461327c90614e13565b80156132c95780601f1061329e576101008083540402835291602001916132c9565b820191906000526020600020905b8154815290600101906020018083116132ac57829003601f168201915b505050505081526020016002820154815260200160038201548152602001600482015481526020016005820160009054906101000a900460ff16151515158152505090506134ce565b600760008673ffffffffffffffffffffffffffffffffffffffff1673ffffffffffffffffffffffffffffffffffffffff16815260200190815260200160002060008573ffffffffffffffffffffffffffffffffffffffff1673ffffffffffffffffffffffffffffffffffffffff16815260200190815260200160002060008481526020019081526020016000206040518060c00160405290816000820160009054906101000a900473ffffffffffffffffffffffffffffffffffffffff1673ffffffffffffffffffffffffffffffffffffffff1673ffffffffffffffffffffffffffffffffffffffff16815260200160018201805461341090614e13565b80601f016020809104026020016040519081016040528092919081815260200182805461343c90614e13565b80156134895780601f1061345e57610100808354040283529160200191613489565b820191906000526020600020905b81548152906001019060200180831161346c57829003601f168201915b505050505081526020016002820154815260200160038201548152602001600482015481526020016005820160009054906101000a900460ff16151515158152505090505b949350505050565b600260003373ffffffffffffffffffffffffffffffffffffffff1673ffffffffffffffffffffffffffffffffffffffff16815260200190815260200160002060009054906101000a900460ff16613562576040517f08c379a000000000000000000000000000000000000000000000000000000000815260040161355990614e90565b60405180910390fd5b600360003373ffffffffffffffffffffffffffffffffffffffff1673ffffffffffffffffffffffffffffffffffffffff16815260200190815260200160002060040160009054906101000a900460ff166135f1576040517f08c379a00000000000000000000000000000000000000000000000000000000081526004016135e890614efc565b60405180910390fd5b600560008273ffffffffffffffffffffffffffffffffffffffff1673ffffffffffffffffffffffffffffffffffffffff16815260200190815260200160002060009054906101000a900460ff161561367e576040517f08c379a0000000000000000000000000000000000000000000000000000000008152600401613675906154cc565b60405180910390fd5b60405180606001604052808481526020018381526020018273ffffffffffffffffffffffffffffffffffffffff16815250600460008373ffffffffffffffffffffffffffffffffffffffff1673ffffffffffffffffffffffffffffffffffffffff168152602001908152602001600020600082015181600001908161370391906150c8565b50602082015181600101908161371991906150c8565b5060408201518160020160006101000a81548173ffffffffffffffffffffffffffffffffffffffff021916908373ffffffffffffffffffffffffffffffffffffffff160217905550905050600360003373ffffffffffffffffffffffffffffffffffffffff1673ffffffffffffffffffffffffffffffffffffffff168152602001908152602001600020600501819080600181540180825580915050600190039060005260206000200160009091909190916101000a81548173ffffffffffffffffffffffffffffffffffffffff021916908373ffffffffffffffffffffffffffffffffffffffff1602179055506001600560008373ffffffffffffffffffffffffffffffffffffffff1673ffffffffffffffffffffffffffffffffffffffff16815260200190815260200160002060006101000a81548160ff0219169083151502179055503373ffffffffffffffffffffffffffffffffffffffff167fb009d2c813f95b7c48104e6328c1acca60b43cac7e0f4e63c29a8dc5808356ad8285856040516138a9939291906154ec565b60405180910390a2505050565b60056020528060005260406000206000915054906101000a900460ff1681565b6000600180549050905090565b6006602052816000526040600020602052806000526040600020600091509150508060000160009054906101000a900473ffffffffffffffffffffffffffffffffffffffff169080600101805461393990614e13565b80601f016020809104026020016040519081016040528092919081815260200182805461396590614e13565b80156139b25780601f10613987576101008083540402835291602001916139b2565b820191906000526020600020905b81548152906001019060200180831161399557829003601f168201915b5050505050908060020154908060030154908060040154908060050160009054906101000a900460ff16905086565b600260003373ffffffffffffffffffffffffffffffffffffffff1673ffffffffffffffffffffffffffffffffffffffff16815260200190815260200160002060009054906101000a900460ff16613a6d576040517f08c379a0000000000000000000000000000000000000000000000000000000008152600401613a6490614e90565b60405180910390fd5b82600360003373ffffffffffffffffffffffffffffffffffffffff1673ffffffffffffffffffffffffffffffffffffffff1681526020019081526020016000206000019081613abc91906150c8565b5081600360003373ffffffffffffffffffffffffffffffffffffffff1673ffffffffffffffffffffffffffffffffffffffff1681526020019081526020016000206001019081613b0c91906150c8565b5080600360003373ffffffffffffffffffffffffffffffffffffffff1673ffffffffffffffffffffffffffffffffffffffff1681526020019081526020016000206002019081613b5c91906150c8565b50505050565b613b6a613cb5565b600073ffffffffffffffffffffffffffffffffffffffff168173ffffffffffffffffffffffffffffffffffffffff1603613bd9576040517f08c379a0000000000000000000000000000000000000000000000000000000008152600401613bd0906155a3565b60405180910390fd5b613be281613d33565b50565b6060600360008373ffffffffffffffffffffffffffffffffffffffff1673ffffffffffffffffffffffffffffffffffffffff168152602001908152602001600020600501805480602002602001604051908101604052809291908181526020018280548015613ca957602002820191906000526020600020905b8160009054906101000a900473ffffffffffffffffffffffffffffffffffffffff1673ffffffffffffffffffffffffffffffffffffffff1681526020019060010190808311613c5f575b50505050509050919050565b613cbd613df7565b73ffffffffffffffffffffffffffffffffffffffff16613cdb612117565b73ffffffffffffffffffffffffffffffffffffffff1614613d31576040517f08c379a0000000000000000000000000000000000000000000000000000000008152600401613d289061560f565b60405180910390fd5b565b60008060009054906101000a900473ffffffffffffffffffffffffffffffffffffffff169050816000806101000a81548173ffffffffffffffffffffffffffffffffffffffff021916908373ffffffffffffffffffffffffffffffffffffffff1602179055508173ffffffffffffffffffffffffffffffffffffffff168173ffffffffffffffffffffffffffffffffffffffff167f8be0079c531659141344cd1fd0a4f28419497f9722a3daafe3b4186f6b6457e060405160405180910390a35050565b600033905090565b60405180606001604052806060815260200160608152602001600073ffffffffffffffffffffffffffffffffffffffff1681525090565b604051806101a0016040528060608152602001606081526020016060815260200160608152602001600015158152602001600015158152602001600015158152602001600073ffffffffffffffffffffffffffffffffffffffff16815260200160608152602001606081526020016000815260200160008152602001600081525090565b6040518060c00160405280600073ffffffffffffffffffffffffffffffffffffffff168152602001606081526020016000815260200160008152602001600081526020016000151581525090565b6000604051905090565b600080fd5b600080fd5b600073ffffffffffffffffffffffffffffffffffffffff82169050919050565b6000613f4782613f1c565b9050919050565b613f5781613f3c565b8114613f6257600080fd5b50565b600081359050613f7481613f4e565b92915050565b6000819050919050565b613f8d81613f7a565b8114613f9857600080fd5b50565b600081359050613faa81613f84565b92915050565b600080600060608486031215613fc957613fc8613f12565b5b6000613fd786828701613f65565b9350506020613fe886828701613f65565b9250506040613ff986828701613f9b565b9150509250925092565b61400c81613f3c565b82525050565b600081519050919050565b600082825260208201905092915050565b60005b8381101561404c578082015181840152602081019050614031565b60008484015250505050565b6000601f19601f8301169050919050565b600061407482614012565b61407e818561401d565b935061408e81856020860161402e565b61409781614058565b840191505092915050565b6140ab81613f7a565b82525050565b60008115159050919050565b6140c6816140b1565b82525050565b600060c0820190506140e16000830189614003565b81810360208301526140f38188614069565b905061410260408301876140a2565b61410f60608301866140a2565b61411c60808301856140a2565b61412960a08301846140bd565b979650505050505050565b60006020828403121561414a57614149613f12565b5b600061415884828501613f9b565b91505092915050565b60006020820190506141766000830184614003565b92915050565b60006020828403121561419257614191613f12565b5b60006141a084828501613f65565b91505092915050565b60006020820190506141be60008301846140bd565b92915050565b60006101608201905081810360008301526141df818e614069565b905081810360208301526141f3818d614069565b90508181036040830152614207818c614069565b9050818103606083015261421b818b614069565b905061422a608083018a6140bd565b61423760a08301896140bd565b61424460c08301886140bd565b61425160e0830187614003565b61425f6101008301866140a2565b61426d6101208301856140a2565b61427b6101408301846140a2565b9c9b505050505050505050505050565b600081519050919050565b600082825260208201905092915050565b6000819050602082019050919050565b6142c081613f3c565b82525050565b60006142d283836142b7565b60208301905092915050565b6000602082019050919050565b60006142f68261428b565b6143008185614296565b935061430b836142a7565b8060005b8381101561433c57815161432388826142c6565b975061432e836142de565b92505060018101905061430f565b5085935050505092915050565b6000602082019050818103600083015261436381846142eb565b905092915050565b600080fd5b600080fd5b7f4e487b7100000000000000000000000000000000000000000000000000000000600052604160045260246000fd5b6143ad82614058565b810181811067ffffffffffffffff821117156143cc576143cb614375565b5b80604052505050565b60006143df613f08565b90506143eb82826143a4565b919050565b600067ffffffffffffffff82111561440b5761440a614375565b5b61441482614058565b9050602081019050919050565b82818337600083830152505050565b600061444361443e846143f0565b6143d5565b90508281526020810184848401111561445f5761445e614370565b5b61446a848285614421565b509392505050565b600082601f8301126144875761448661436b565b5b8135614497848260208601614430565b91505092915050565b60008060008060008060c087890312156144bd576144bc613f12565b5b60006144cb89828a01613f65565b96505060206144dc89828a01613f65565b955050604087013567ffffffffffffffff8111156144fd576144fc613f17565b5b61450989828a01614472565b945050606061451a89828a01613f9b565b935050608061452b89828a01613f9b565b92505060a061453c89828a01613f9b565b9150509295509295509295565b60008060006060848603121561456257614561613f12565b5b600061457086828701613f9b565b935050602061458186828701613f9b565b925050604061459286828701613f9b565b9150509250925092565b600081519050919050565b600082825260208201905092915050565b6000819050602082019050919050565b6145d181613f7a565b82525050565b60006145e383836145c8565b60208301905092915050565b6000602082019050919050565b60006146078261459c565b61461181856145a7565b935061461c836145b8565b8060005b8381101561464d57815161463488826145d7565b975061463f836145ef565b925050600181019050614620565b5085935050505092915050565b6000602082019050818103600083015261467481846145fc565b905092915050565b600082825260208201905092915050565b600061469882614012565b6146a2818561467c565b93506146b281856020860161402e565b6146bb81614058565b840191505092915050565b600060608301600083015184820360008601526146e3828261468d565b915050602083015184820360208601526146fd828261468d565b915050604083015161471260408601826142b7565b508091505092915050565b6000602082019050818103600083015261473781846146c6565b905092915050565b6000806040838503121561475657614755613f12565b5b600061476485828601613f65565b925050602083013567ffffffffffffffff81111561478557614784613f17565b5b61479185828601614472565b9150509250929050565b600060608201905081810360008301526147b58186614069565b905081810360208301526147c98185614069565b90506147d86040830184614003565b949350505050565b6000806000606084860312156147f9576147f8613f12565b5b600084013567ffffffffffffffff81111561481757614816613f17565b5b61482386828701614472565b935050602084013567ffffffffffffffff81111561484457614843613f17565b5b61485086828701614472565b925050604084013567ffffffffffffffff81111561487157614870613f17565b5b61487d86828701614472565b9150509250925092565b600080600080608085870312156148a1576148a0613f12565b5b60006148af87828801613f65565b945050602085013567ffffffffffffffff8111156148d0576148cf613f17565b5b6148dc87828801614472565b935050604085013567ffffffffffffffff8111156148fd576148fc613f17565b5b61490987828801614472565b925050606061491a87828801613f65565b91505092959194509250565b600080600080600060a0868803121561494257614941613f12565b5b600061495088828901613f65565b955050602061496188828901613f65565b945050604061497288828901613f9b565b935050606061498388828901613f9b565b925050608061499488828901613f9b565b9150509295509295909350565b6149aa816140b1565b82525050565b600082825260208201905092915050565b60006149cc8261428b565b6149d681856149b0565b93506149e1836142a7565b8060005b83811015614a125781516149f988826142c6565b9750614a04836142de565b9250506001810190506149e5565b5085935050505092915050565b600082825260208201905092915050565b6000614a3b8261459c565b614a458185614a1f565b9350614a50836145b8565b8060005b83811015614a81578151614a6888826145d7565b9750614a73836145ef565b925050600181019050614a54565b5085935050505092915050565b60006101a0830160008301518482036000860152614aac828261468d565b91505060208301518482036020860152614ac6828261468d565b91505060408301518482036040860152614ae0828261468d565b91505060608301518482036060860152614afa828261468d565b9150506080830151614b0f60808601826149a1565b5060a0830151614b2260a08601826149a1565b5060c0830151614b3560c08601826149a1565b5060e0830151614b4860e08601826142b7565b50610100830151848203610100860152614b6282826149c1565b915050610120830151848203610120860152614b7e8282614a30565b915050610140830151614b956101408601826145c8565b50610160830151614baa6101608601826145c8565b50610180830151614bbf6101808601826145c8565b508091505092915050565b60006020820190508181036000830152614be48184614a8e565b905092915050565b60008060008060808587031215614c0657614c05613f12565b5b6000614c1487828801613f65565b9450506020614c2587828801613f65565b9350506040614c3687828801613f9b565b9250506060614c4787828801613f9b565b91505092959194509250565b600060c083016000830151614c6b60008601826142b7565b5060208301518482036020860152614c83828261468d565b9150506040830151614c9860408601826145c8565b506060830151614cab60608601826145c8565b506080830151614cbe60808601826145c8565b5060a0830151614cd160a08601826149a1565b508091505092915050565b60006020820190508181036000830152614cf68184614c53565b905092915050565b600080600060608486031215614d1757614d16613f12565b5b600084013567ffffffffffffffff811115614d3557614d34613f17565b5b614d4186828701614472565b935050602084013567ffffffffffffffff811115614d6257614d61613f17565b5b614d6e86828701614472565b9250506040614d7f86828701613f65565b9150509250925092565b6000602082019050614d9e60008301846140a2565b92915050565b60008060408385031215614dbb57614dba613f12565b5b6000614dc985828601613f65565b9250506020614dda85828601613f65565b9150509250929050565b7f4e487b7100000000000000000000000000000000000000000000000000000000600052602260045260246000fd5b60006002820490506001821680614e2b57607f821691505b602082108103614e3e57614e3d614de4565b5b50919050565b7f466972737420646f20726567697374726174696f6e0000000000000000000000600082015250565b6000614e7a60158361401d565b9150614e8582614e44565b602082019050919050565b60006020820190508181036000830152614ea981614e6d565b9050919050565b7f656d61696c206973206e6f742076657269666965640000000000000000000000600082015250565b6000614ee660158361401d565b9150614ef182614eb0565b602082019050919050565b60006020820190508181036000830152614f1581614ed9565b9050919050565b60008190508160005260206000209050919050565b60006020601f8301049050919050565b600082821b905092915050565b600060088302614f7e7fffffffffffffffffffffffffffffffffffffffffffffffffffffffffffffffff82614f41565b614f888683614f41565b95508019841693508086168417925050509392505050565b6000819050919050565b6000614fc5614fc0614fbb84613f7a565b614fa0565b613f7a565b9050919050565b6000819050919050565b614fdf83614faa565b614ff3614feb82614fcc565b848454614f4e565b825550505050565b600090565b615008614ffb565b615013818484614fd6565b505050565b5b818110156150375761502c600082615000565b600181019050615019565b5050565b601f82111561507c5761504d81614f1c565b61505684614f31565b81016020851015615065578190505b61507961507185614f31565b830182615018565b50505b505050565b600082821c905092915050565b600061509f60001984600802615081565b1980831691505092915050565b60006150b8838361508e565b9150826002028217905092915050565b6150d182614012565b67ffffffffffffffff8111156150ea576150e9614375565b5b6150f48254614e13565b6150ff82828561503b565b600060209050601f8311600181146151325760008415615120578287015190505b61512a85826150ac565b865550615192565b601f19841661514086614f1c565b60005b8281101561516857848901518255600182019150602085019450602081019050615143565b868310156151855784890151615181601f89168261508e565b8355505b6001600288020188555050505b505050505050565b60006060820190506151af60008301866140a2565b6151bc60208301856140a2565b6151c960408301846140a2565b949350505050565b600060208201905081810360008301526151eb8184614069565b905092915050565b7f416c726561647920726567697374657265640000000000000000000000000000600082015250565b600061522960128361401d565b9150615234826151f3565b602082019050919050565b600060208201905081810360008301526152588161521c565b9050919050565b7f4e6f6d696e6565206973206e6f74206164646564000000000000000000000000600082015250565b600061529560148361401d565b91506152a08261525f565b602082019050919050565b600060208201905081810360008301526152c481615288565b9050919050565b7f4e487b7100000000000000000000000000000000000000000000000000000000600052603260045260246000fd5b7f4e487b7100000000000000000000000000000000000000000000000000000000600052601160045260246000fd5b600061533482613f7a565b91507fffffffffffffffffffffffffffffffffffffffffffffffffffffffffffffffff8203615366576153656152fa565b5b600182019050919050565b6000604082019050818103600083015261538b8185614069565b9050818103602083015261539f8184614069565b90509392505050565b7f416c726561647920796f757220656d61696c2069732076657269666965640000600082015250565b60006153de601e8361401d565b91506153e9826153a8565b602082019050919050565b6000602082019050818103600083015261540d816153d1565b9050919050565b7f4f776e657220726573706f6e6465640000000000000000000000000000000000600082015250565b600061544a600f8361401d565b915061545582615414565b602082019050919050565b600060208201905081810360008301526154798161543d565b9050919050565b7f4e6f6d696e656520697320616c72656164792061646465640000000000000000600082015250565b60006154b660188361401d565b91506154c182615480565b602082019050919050565b600060208201905081810360008301526154e5816154a9565b9050919050565b60006060820190506155016000830186614003565b81810360208301526155138185614069565b905081810360408301526155278184614069565b9050949350505050565b7f4f776e61626c653a206e6577206f776e657220697320746865207a65726f206160008201527f6464726573730000000000000000000000000000000000000000000000000000602082015250565b600061558d60268361401d565b915061559882615531565b604082019050919050565b600060208201905081810360008301526155bc81615580565b9050919050565b7f4f776e61626c653a2063616c6c6572206973206e6f7420746865206f776e6572600082015250565b60006155f960208361401d565b9150615604826155c3565b602082019050919050565b60006020820190508181036000830152615628816155ec565b905091905056fea2646970667358221220431535a963f90ab6f3fdbedda75e99e0b8874842311b9121c017cd325c6e3c6b64736f6c63430008110033",
  "linkReferences": {},
  "deployedLinkReferences": {}
}