{
  "_format": "hh-sol-artifact-1",
  "contractName": "Inheritokens",
  "sourceName": "contracts/Inheritokens.sol",
  "abi": [
    {
      "inputs": [],
      "stateMutability": "nonpayable",
      "type": "constructor"
    },
    {
      "anonymous": false,
      "inputs": [
        {
          "indexed": true,
          "internalType": "address",
          "name": "_owner",
          "type": "address"
        },
        {
          "indexed": true,
          "internalType": "address",
          "name": "_tokenAddress",
          "type": "address"
        },
        {
          "indexed": false,
          "internalType": "uint256",
          "name": "_amount",
          "type": "uint256"
        }
      ],
      "name": "AllocatedShareUpdated",
      "type": "event"
    },
    {
      "anonymous": false,
      "inputs": [
        {
          "indexed": true,
          "internalType": "address",
          "name": "_owner",
          "type": "address"
        },
        {
          "indexed": false,
          "internalType": "uint256",
          "name": "_charityId",
          "type": "uint256"
        }
      ],
      "name": "CharityWhitelisted",
      "type": "event"
    },
    {
      "anonymous": false,
      "inputs": [
        {
          "indexed": true,
          "internalType": "address",
          "name": "_owner",
          "type": "address"
        },
        {
          "indexed": true,
          "internalType": "address",
          "name": "_nominee",
          "type": "address"
        },
        {
          "indexed": true,
          "internalType": "address",
          "name": "_tokenAddress",
          "type": "address"
        },
        {
          "indexed": false,
          "internalType": "uint256",
          "name": "_tokenId",
          "type": "uint256"
        }
      ],
      "name": "Claimed",
      "type": "event"
    },
    {
      "anonymous": false,
      "inputs": [
        {
          "indexed": true,
          "internalType": "address",
          "name": "_owner",
          "type": "address"
        }
      ],
      "name": "EmailVerified",
      "type": "event"
    },
    {
      "anonymous": false,
      "inputs": [
        {
          "indexed": true,
          "internalType": "address",
          "name": "_owner",
          "type": "address"
        },
        {
          "indexed": false,
          "internalType": "address",
          "name": "_nominee",
          "type": "address"
        },
        {
          "indexed": false,
          "internalType": "string",
          "name": "_name",
          "type": "string"
        },
        {
          "indexed": false,
          "internalType": "string",
          "name": "_mail",
          "type": "string"
        }
      ],
      "name": "NomineeAdded",
      "type": "event"
    },
    {
      "anonymous": false,
      "inputs": [
        {
          "indexed": true,
          "internalType": "address",
          "name": "_owner",
          "type": "address"
        },
        {
          "indexed": true,
          "internalType": "address",
          "name": "_oldAddress",
          "type": "address"
        },
        {
          "indexed": true,
          "internalType": "address",
          "name": "_newAddress",
          "type": "address"
        },
        {
          "indexed": false,
          "internalType": "string",
          "name": "_name",
          "type": "string"
        },
        {
          "indexed": false,
          "internalType": "string",
          "name": "_mail",
          "type": "string"
        }
      ],
      "name": "NomineeDetailsUpdated",
      "type": "event"
    },
    {
      "anonymous": false,
      "inputs": [
        {
          "indexed": true,
          "internalType": "address",
          "name": "_owner",
          "type": "address"
        },
        {
          "indexed": false,
          "internalType": "string",
          "name": "_name",
          "type": "string"
        }
      ],
      "name": "OwnerRegistered",
      "type": "event"
    },
    {
      "anonymous": false,
      "inputs": [
        {
          "indexed": true,
          "internalType": "address",
          "name": "_owner",
          "type": "address"
        }
      ],
      "name": "OwnerResponded",
      "type": "event"
    },
    {
      "anonymous": false,
      "inputs": [
        {
          "indexed": true,
          "internalType": "address",
          "name": "previousOwner",
          "type": "address"
        },
        {
          "indexed": true,
          "internalType": "address",
          "name": "newOwner",
          "type": "address"
        }
      ],
      "name": "OwnershipTransferred",
      "type": "event"
    },
    {
      "anonymous": false,
      "inputs": [
        {
          "indexed": true,
          "internalType": "address",
          "name": "_owner",
          "type": "address"
        },
        {
          "indexed": false,
          "internalType": "address",
          "name": "_recoveryAddress",
          "type": "address"
        }
      ],
      "name": "RecoveryAddressAdded",
      "type": "event"
    },
    {
      "anonymous": false,
      "inputs": [
        {
          "indexed": true,
          "internalType": "address",
          "name": "_owner",
          "type": "address"
        },
        {
          "indexed": false,
          "internalType": "string",
          "name": "_date",
          "type": "string"
        }
      ],
      "name": "ResponsedDateSet",
      "type": "event"
    },
    {
      "anonymous": false,
      "inputs": [
        {
          "indexed": true,
          "internalType": "address",
          "name": "_owner",
          "type": "address"
        },
        {
          "indexed": false,
          "internalType": "uint256",
          "name": "_inactivity",
          "type": "uint256"
        },
        {
          "indexed": false,
          "internalType": "uint256",
          "name": "_mail",
          "type": "uint256"
        },
        {
          "indexed": false,
          "internalType": "uint256",
          "name": "_nominee",
          "type": "uint256"
        }
      ],
      "name": "TimePeriodsUpdated",
      "type": "event"
    },
    {
      "anonymous": false,
      "inputs": [
        {
          "indexed": true,
          "internalType": "address",
          "name": "_owner",
          "type": "address"
        },
        {
          "indexed": true,
          "internalType": "address",
          "name": "_tokenAddress",
          "type": "address"
        },
        {
          "indexed": true,
          "internalType": "uint256",
          "name": "_tokenId",
          "type": "uint256"
        }
      ],
      "name": "TokenStructureAssigned",
      "type": "event"
    },
    {
      "inputs": [
        {
          "internalType": "string",
          "name": "_name",
          "type": "string"
        },
        {
          "internalType": "string",
          "name": "_email",
          "type": "string"
        },
        {
          "internalType": "address",
          "name": "_nominee",
          "type": "address"
        }
      ],
      "name": "addNomineesDetails",
      "outputs": [],
      "stateMutability": "nonpayable",
      "type": "function"
    },
    {
      "inputs": [
        {
          "internalType": "string",
          "name": "_name",
          "type": "string"
        },
        {
          "internalType": "string",
          "name": "_email",
          "type": "string"
        },
        {
          "internalType": "string",
          "name": "_cid",
          "type": "string"
        }
      ],
      "name": "addOwnerDetails",
      "outputs": [],
      "stateMutability": "nonpayable",
      "type": "function"
    },
    {
      "inputs": [
        {
          "internalType": "address",
          "name": "_recoveryAddress",
          "type": "address"
        }
      ],
      "name": "addWalletRecovery",
      "outputs": [],
      "stateMutability": "nonpayable",
      "type": "function"
    },
    {
      "inputs": [
        {
          "internalType": "address",
          "name": "",
          "type": "address"
        }
      ],
      "name": "addressToNominee",
      "outputs": [
        {
          "internalType": "string",
          "name": "nominee_name",
          "type": "string"
        },
        {
          "internalType": "string",
          "name": "nominee_email",
          "type": "string"
        },
        {
          "internalType": "address",
          "name": "nominee_address",
          "type": "address"
        },
        {
          "internalType": "bool",
          "name": "hasClaimed",
          "type": "bool"
        }
      ],
      "stateMutability": "view",
      "type": "function"
    },
    {
      "inputs": [
        {
          "internalType": "address",
          "name": "",
          "type": "address"
        }
      ],
      "name": "addressToOwner",
      "outputs": [
        {
          "internalType": "string",
          "name": "owner_name",
          "type": "string"
        },
        {
          "internalType": "string",
          "name": "owner_email",
          "type": "string"
        },
        {
          "internalType": "string",
          "name": "image_cid",
          "type": "string"
        },
        {
          "internalType": "bool",
          "name": "isEmailVerified",
          "type": "bool"
        },
        {
          "internalType": "bool",
          "name": "isAlive",
          "type": "bool"
        },
        {
          "internalType": "address",
          "name": "recoveryAddress",
          "type": "address"
        },
        {
          "internalType": "uint256",
          "name": "monthsOfInactivity",
          "type": "uint256"
        },
        {
          "internalType": "uint256",
          "name": "monthsOfSendingMailToOwner",
          "type": "uint256"
        },
        {
          "internalType": "uint256",
          "name": "monthsForNominee",
          "type": "uint256"
        }
      ],
      "stateMutability": "view",
      "type": "function"
    },
    {
      "inputs": [
        {
          "internalType": "address",
          "name": "_owner",
          "type": "address"
        },
        {
          "internalType": "address",
          "name": "_tokenAddress",
          "type": "address"
        },
        {
          "internalType": "string",
          "name": "_tokenName",
          "type": "string"
        },
        {
          "internalType": "string",
          "name": "_category",
          "type": "string"
        },
        {
          "internalType": "uint256",
          "name": "_tokenId",
          "type": "uint256"
        },
        {
          "internalType": "uint256",
          "name": "amount",
          "type": "uint256"
        }
      ],
      "name": "assignTokenStruct",
      "outputs": [],
      "stateMutability": "nonpayable",
      "type": "function"
    },
    {
      "inputs": [
        {
          "internalType": "uint256",
          "name": "_inactivity",
          "type": "uint256"
        },
        {
          "internalType": "uint256",
          "name": "_mail",
          "type": "uint256"
        },
        {
          "internalType": "uint256",
          "name": "_nominee",
          "type": "uint256"
        }
      ],
      "name": "changeTimePeriods",
      "outputs": [],
      "stateMutability": "nonpayable",
      "type": "function"
    },
    {
      "inputs": [
        {
          "internalType": "address",
          "name": "_owner",
          "type": "address"
        }
      ],
      "name": "checkVerification",
      "outputs": [
        {
          "internalType": "bool",
          "name": "",
          "type": "bool"
        }
      ],
      "stateMutability": "view",
      "type": "function"
    },
    {
      "inputs": [
        {
          "internalType": "address",
          "name": "_owner",
          "type": "address"
        },
        {
          "internalType": "address",
          "name": "_tokenAddress",
          "type": "address"
        },
        {
          "internalType": "uint256",
          "name": "_amount",
          "type": "uint256"
        },
        {
          "internalType": "uint256",
          "name": "_tokenId",
          "type": "uint256"
        }
      ],
      "name": "claim",
      "outputs": [],
      "stateMutability": "nonpayable",
      "type": "function"
    },
    {
      "inputs": [
        {
          "internalType": "address",
          "name": "_oldNomineeAddress",
          "type": "address"
        },
        {
          "internalType": "string",
          "name": "_name",
          "type": "string"
        },
        {
          "internalType": "string",
          "name": "_email",
          "type": "string"
        },
        {
          "internalType": "address",
          "name": "_newNomineeAddress",
          "type": "address"
        }
      ],
      "name": "editNomineeDetails",
      "outputs": [],
      "stateMutability": "nonpayable",
      "type": "function"
    },
    {
      "inputs": [
        {
          "internalType": "address",
          "name": "_owner",
          "type": "address"
        }
      ],
      "name": "getAllNominees",
      "outputs": [
        {
          "internalType": "address[]",
          "name": "",
          "type": "address[]"
        }
      ],
      "stateMutability": "view",
      "type": "function"
    },
    {
      "inputs": [
        {
          "internalType": "address",
          "name": "_owner",
          "type": "address"
        }
      ],
      "name": "getAllWhiteListedCharities",
      "outputs": [
        {
          "internalType": "uint256[]",
          "name": "",
          "type": "uint256[]"
        }
      ],
      "stateMutability": "view",
      "type": "function"
    },
    {
      "inputs": [
        {
          "internalType": "address",
          "name": "_owner",
          "type": "address"
        },
        {
          "internalType": "address",
          "name": "_tokenAddress",
          "type": "address"
        }
      ],
      "name": "getIsNominated",
      "outputs": [
        {
          "internalType": "bool",
          "name": "",
          "type": "bool"
        }
      ],
      "stateMutability": "view",
      "type": "function"
    },
    {
      "inputs": [
        {
          "internalType": "address",
          "name": "_nominee",
          "type": "address"
        }
      ],
      "name": "getNomineeDetails",
      "outputs": [
        {
          "components": [
            {
              "internalType": "string",
              "name": "nominee_name",
              "type": "string"
            },
            {
              "internalType": "string",
              "name": "nominee_email",
              "type": "string"
            },
            {
              "internalType": "address",
              "name": "nominee_address",
              "type": "address"
            },
            {
              "internalType": "bool",
              "name": "hasClaimed",
              "type": "bool"
            }
          ],
          "internalType": "struct Inheritokens.Nominee",
          "name": "",
          "type": "tuple"
        }
      ],
      "stateMutability": "view",
      "type": "function"
    },
    {
      "inputs": [
        {
          "internalType": "address",
          "name": "_owner",
          "type": "address"
        }
      ],
      "name": "getOwnerAlive",
      "outputs": [
        {
          "internalType": "bool",
          "name": "",
          "type": "bool"
        }
      ],
      "stateMutability": "view",
      "type": "function"
    },
    {
      "inputs": [
        {
          "internalType": "address",
          "name": "_owner",
          "type": "address"
        }
      ],
      "name": "getOwnerDetails",
      "outputs": [
        {
          "components": [
            {
              "internalType": "string",
              "name": "owner_name",
              "type": "string"
            },
            {
              "internalType": "string",
              "name": "owner_email",
              "type": "string"
            },
            {
              "internalType": "string",
              "name": "image_cid",
              "type": "string"
            },
            {
              "internalType": "bool",
              "name": "isEmailVerified",
              "type": "bool"
            },
            {
              "internalType": "bool",
              "name": "isAlive",
              "type": "bool"
            },
            {
              "internalType": "address",
              "name": "recoveryAddress",
              "type": "address"
            },
            {
              "internalType": "address[]",
              "name": "nominees",
              "type": "address[]"
            },
            {
              "internalType": "uint256[]",
              "name": "charities",
              "type": "uint256[]"
            },
            {
              "internalType": "uint256",
              "name": "monthsOfInactivity",
              "type": "uint256"
            },
            {
              "internalType": "uint256",
              "name": "monthsOfSendingMailToOwner",
              "type": "uint256"
            },
            {
              "internalType": "uint256",
              "name": "monthsForNominee",
              "type": "uint256"
            }
          ],
          "internalType": "struct Inheritokens.Owner",
          "name": "",
          "type": "tuple"
        }
      ],
      "stateMutability": "view",
      "type": "function"
    },
    {
      "inputs": [],
      "name": "getOwners",
      "outputs": [
        {
          "internalType": "address[]",
          "name": "",
          "type": "address[]"
        }
      ],
      "stateMutability": "view",
      "type": "function"
    },
    {
      "inputs": [
        {
          "internalType": "address",
          "name": "_owner",
          "type": "address"
        }
      ],
      "name": "getRecoveryAddress",
      "outputs": [
        {
          "internalType": "address",
          "name": "",
          "type": "address"
        }
      ],
      "stateMutability": "view",
      "type": "function"
    },
    {
      "inputs": [
        {
          "internalType": "address",
          "name": "_owner",
          "type": "address"
        }
      ],
      "name": "getResponse",
      "outputs": [
        {
          "internalType": "bool",
          "name": "",
          "type": "bool"
        }
      ],
      "stateMutability": "view",
      "type": "function"
    },
    {
      "inputs": [
        {
          "internalType": "address",
          "name": "_owner",
          "type": "address"
        }
      ],
      "name": "getResponseDate",
      "outputs": [
        {
          "internalType": "string",
          "name": "",
          "type": "string"
        }
      ],
      "stateMutability": "view",
      "type": "function"
    },
    {
      "inputs": [],
      "name": "getTotalOwners",
      "outputs": [
        {
          "internalType": "uint256",
          "name": "",
          "type": "uint256"
        }
      ],
      "stateMutability": "view",
      "type": "function"
    },
    {
      "inputs": [
        {
          "internalType": "address",
          "name": "",
          "type": "address"
        }
      ],
      "name": "isNomineeAdded",
      "outputs": [
        {
          "internalType": "bool",
          "name": "",
          "type": "bool"
        }
      ],
      "stateMutability": "view",
      "type": "function"
    },
    {
      "inputs": [
        {
          "internalType": "address",
          "name": "",
          "type": "address"
        }
      ],
      "name": "isOwnerAdded",
      "outputs": [
        {
          "internalType": "bool",
          "name": "",
          "type": "bool"
        }
      ],
      "stateMutability": "view",
      "type": "function"
    },
    {
      "inputs": [],
      "name": "owner",
      "outputs": [
        {
          "internalType": "address",
          "name": "",
          "type": "address"
        }
      ],
      "stateMutability": "view",
      "type": "function"
    },
    {
      "inputs": [
        {
          "internalType": "address",
          "name": "",
          "type": "address"
        }
      ],
      "name": "ownerToResponse",
      "outputs": [
        {
          "internalType": "string",
          "name": "date",
          "type": "string"
        },
        {
          "internalType": "bool",
          "name": "isResponsed",
          "type": "bool"
        }
      ],
      "stateMutability": "view",
      "type": "function"
    },
    {
      "inputs": [
        {
          "internalType": "uint256",
          "name": "",
          "type": "uint256"
        }
      ],
      "name": "owners",
      "outputs": [
        {
          "internalType": "address",
          "name": "",
          "type": "address"
        }
      ],
      "stateMutability": "view",
      "type": "function"
    },
    {
      "inputs": [],
      "name": "renounceOwnership",
      "outputs": [],
      "stateMutability": "nonpayable",
      "type": "function"
    },
    {
      "inputs": [
        {
          "internalType": "address",
          "name": "_owner",
          "type": "address"
        }
      ],
      "name": "setOwnerNotAlive",
      "outputs": [],
      "stateMutability": "nonpayable",
      "type": "function"
    },
    {
      "inputs": [],
      "name": "setResponse",
      "outputs": [],
      "stateMutability": "nonpayable",
      "type": "function"
    },
    {
      "inputs": [
        {
          "internalType": "address",
          "name": "_owner",
          "type": "address"
        },
        {
          "internalType": "string",
          "name": "_date",
          "type": "string"
        }
      ],
      "name": "setResponseDate",
      "outputs": [],
      "stateMutability": "nonpayable",
      "type": "function"
    },
    {
      "inputs": [
        {
          "internalType": "uint256",
          "name": "_charityId",
          "type": "uint256"
        }
      ],
      "name": "setWhiteListedCharities",
      "outputs": [],
      "stateMutability": "nonpayable",
      "type": "function"
    },
    {
      "inputs": [
        {
          "internalType": "address",
          "name": "",
          "type": "address"
        },
        {
          "internalType": "address",
          "name": "",
          "type": "address"
        }
      ],
      "name": "tokenAddressToTokenStruct",
      "outputs": [
        {
          "internalType": "address",
          "name": "token_address",
          "type": "address"
        },
        {
          "internalType": "string",
          "name": "token_name",
          "type": "string"
        },
        {
          "internalType": "string",
          "name": "category",
          "type": "string"
        },
        {
          "internalType": "uint256",
          "name": "token_id",
          "type": "uint256"
        },
        {
          "internalType": "uint256",
          "name": "allocated_share",
          "type": "uint256"
        },
        {
          "internalType": "bool",
          "name": "isNominated",
          "type": "bool"
        }
      ],
      "stateMutability": "view",
      "type": "function"
    },
    {
      "inputs": [
        {
          "internalType": "address",
          "name": "newOwner",
          "type": "address"
        }
      ],
      "name": "transferOwnership",
      "outputs": [],
      "stateMutability": "nonpayable",
      "type": "function"
    },
    {
      "inputs": [
        {
          "internalType": "address",
          "name": "_owner",
          "type": "address"
        },
        {
          "internalType": "address",
          "name": "_tokenAddress",
          "type": "address"
        },
        {
          "internalType": "uint256",
          "name": "_amount",
          "type": "uint256"
        }
      ],
      "name": "updateAllocatedShare",
      "outputs": [],
      "stateMutability": "nonpayable",
      "type": "function"
    },
    {
      "inputs": [],
      "name": "verifyOwnerEmail",
      "outputs": [],
      "stateMutability": "nonpayable",
      "type": "function"
    }
  ],
  "bytecode": "0x60806040523480156200001157600080fd5b5062000032620000266200003860201b60201c565b6200004060201b60201c565b62000104565b600033905090565b60008060009054906101000a900473ffffffffffffffffffffffffffffffffffffffff169050816000806101000a81548173ffffffffffffffffffffffffffffffffffffffff021916908373ffffffffffffffffffffffffffffffffffffffff1602179055508173ffffffffffffffffffffffffffffffffffffffff168173ffffffffffffffffffffffffffffffffffffffff167f8be0079c531659141344cd1fd0a4f28419497f9722a3daafe3b4186f6b6457e060405160405180910390a35050565b61508780620001146000396000f3fe608060405234801561001057600080fd5b50600436106102115760003560e01c8063883a235311610125578063cb144b39116100ad578063de508c5b1161007c578063de508c5b14610652578063e62d4f7c14610687578063e9c15555146106b7578063f2fde38b146106d3578063f8009785146106ef57610211565b8063cb144b39146105b7578063cd0e5091146105d3578063cf751c4414610603578063db23f9f31461063457610211565b8063a06d3e97116100f4578063a06d3e9714610513578063a0e67e2b1461051d578063a5394b391461053b578063baab979714610557578063c3bb81211461058757610211565b8063883a23531461048d5780638da5cb5b146104a95780638e5d2099146104c7578063984fd10c146104f757610211565b8063511865e9116101a85780636199997f116101775780636199997f146103d75780636a5e893814610407578063715018a61461043757806376f0ffc6146104415780638258d0211461047157610211565b8063511865e91461034e57806354add3e71461037e5780635a863c111461039a57806360c5602b146103cd57610211565b806337950bfe116101e457806337950bfe146102b65780633bf01bf8146102d2578063433a05b0146102ee5780634950956e1461031e57610211565b8063025e7c27146102165780631056d26d14610246578063159305e11461026257806326af48321461029a575b600080fd5b610230600480360381019061022b9190613a58565b61071f565b60405161023d9190613ac6565b60405180910390f35b610260600480360381019061025b9190613b0d565b61075e565b005b61027c60048036038101906102779190613b0d565b61094b565b60405161029199989796959493929190613bf4565b60405180910390f35b6102b460048036038101906102af9190613c96565b610b6b565b005b6102d060048036038101906102cb9190613cfd565b610e72565b005b6102ec60048036038101906102e79190613e85565b6110b9565b005b61030860048036038101906103039190613b0d565b6113a3565b6040516103159190613f4a565b60405180910390f35b61033860048036038101906103339190613b0d565b6113fc565b6040516103459190614037565b60405180910390f35b61036860048036038101906103639190613b0d565b6115ea565b6040516103759190613ac6565b60405180910390f35b61039860048036038101906103939190614059565b611656565b005b6103b460048036038101906103af9190613b0d565b611700565b6040516103c494939291906140b5565b60405180910390f35b6103d561186d565b005b6103f160048036038101906103ec9190613b0d565b61190d565b6040516103fe9190613f4a565b60405180910390f35b610421600480360381019061041c9190613b0d565b611966565b60405161042e9190614108565b60405180910390f35b61043f611a3a565b005b61045b60048036038101906104569190613b0d565b611a4e565b6040516104689190613f4a565b60405180910390f35b61048b6004803603810190610486919061412a565b611a6e565b005b6104a760048036038101906104a29190613a58565b611e87565b005b6104b161205c565b6040516104be9190613ac6565b60405180910390f35b6104e160048036038101906104dc91906141d1565b612085565b6040516104ee9190613f4a565b60405180910390f35b610511600480360381019061050c9190614211565b61211c565b005b61051b6126f4565b005b6105256128b8565b604051610532919061435f565b60405180910390f35b61055560048036038101906105509190613b0d565b612946565b005b610571600480360381019061056c9190613b0d565b6129ac565b60405161057e9190613f4a565b60405180910390f35b6105a1600480360381019061059c9190613b0d565b612a05565b6040516105ae91906145b9565b60405180910390f35b6105d160048036038101906105cc91906145db565b612da5565b005b6105ed60048036038101906105e89190613b0d565b6131ae565b6040516105fa9190613f4a565b60405180910390f35b61061d60048036038101906106189190613b0d565b6131ce565b60405161062b929190614666565b60405180910390f35b61063c613287565b6040516106499190614696565b60405180910390f35b61066c600480360381019061066791906141d1565b613294565b60405161067e969594939291906146b1565b60405180910390f35b6106a1600480360381019061069c9190613b0d565b61341a565b6040516106ae919061478f565b60405180910390f35b6106d160048036038101906106cc91906147b1565b6134b4565b005b6106ed60048036038101906106e89190613b0d565b6136bd565b005b61070960048036038101906107049190613b0d565b613740565b604051610716919061435f565b60405180910390f35b6001818154811061072f57600080fd5b906000526020600020016000915054906101000a900473ffffffffffffffffffffffffffffffffffffffff1681565b600260003373ffffffffffffffffffffffffffffffffffffffff1673ffffffffffffffffffffffffffffffffffffffff16815260200190815260200160002060009054906101000a900460ff166107ea576040517f08c379a00000000000000000000000000000000000000000000000000000000081526004016107e190614850565b60405180910390fd5b600360003373ffffffffffffffffffffffffffffffffffffffff1673ffffffffffffffffffffffffffffffffffffffff16815260200190815260200160002060030160009054906101000a900460ff16610879576040517f08c379a0000000000000000000000000000000000000000000000000000000008152600401610870906148bc565b60405180910390fd5b80600360003373ffffffffffffffffffffffffffffffffffffffff1673ffffffffffffffffffffffffffffffffffffffff16815260200190815260200160002060030160026101000a81548173ffffffffffffffffffffffffffffffffffffffff021916908373ffffffffffffffffffffffffffffffffffffffff1602179055503373ffffffffffffffffffffffffffffffffffffffff167f7fa39328717f9bda0ec36a3638c195f29c2a4c5ed45d321be74cc64f092c2d36826040516109409190613ac6565b60405180910390a250565b600360205280600052604060002060009150905080600001805461096e9061490b565b80601f016020809104026020016040519081016040528092919081815260200182805461099a9061490b565b80156109e75780601f106109bc576101008083540402835291602001916109e7565b820191906000526020600020905b8154815290600101906020018083116109ca57829003601f168201915b5050505050908060010180546109fc9061490b565b80601f0160208091040260200160405190810160405280929190818152602001828054610a289061490b565b8015610a755780601f10610a4a57610100808354040283529160200191610a75565b820191906000526020600020905b815481529060010190602001808311610a5857829003601f168201915b505050505090806002018054610a8a9061490b565b80601f0160208091040260200160405190810160405280929190818152602001828054610ab69061490b565b8015610b035780601f10610ad857610100808354040283529160200191610b03565b820191906000526020600020905b815481529060010190602001808311610ae657829003601f168201915b5050505050908060030160009054906101000a900460ff16908060030160019054906101000a900460ff16908060030160029054906101000a900473ffffffffffffffffffffffffffffffffffffffff16908060060154908060070154908060080154905089565b60005b600360008673ffffffffffffffffffffffffffffffffffffffff1673ffffffffffffffffffffffffffffffffffffffff16815260200190815260200160002060040180549050811015610def573373ffffffffffffffffffffffffffffffffffffffff16600360008773ffffffffffffffffffffffffffffffffffffffff1673ffffffffffffffffffffffffffffffffffffffff1681526020019081526020016000206004018281548110610c2657610c2561493c565b5b9060005260206000200160009054906101000a900473ffffffffffffffffffffffffffffffffffffffff1673ffffffffffffffffffffffffffffffffffffffff1603610ddc576001600460003373ffffffffffffffffffffffffffffffffffffffff1673ffffffffffffffffffffffffffffffffffffffff16815260200190815260200160002060020160146101000a81548160ff02191690831515021790555060008203610d5b5760008490508073ffffffffffffffffffffffffffffffffffffffff166323b872dd8733876040518463ffffffff1660e01b8152600401610d119392919061496b565b6020604051808303816000875af1158015610d30573d6000803e3d6000fd5b505050506040513d601f19601f82011682018060405250810190610d5491906149ce565b5050610ddb565b6000821115610dda5760008490508073ffffffffffffffffffffffffffffffffffffffff166323b872dd8733866040518463ffffffff1660e01b8152600401610da69392919061496b565b600060405180830381600087803b158015610dc057600080fd5b505af1158015610dd4573d6000803e3d6000fd5b50505050505b5b5b8080610de790614a2a565b915050610b6e565b508273ffffffffffffffffffffffffffffffffffffffff163373ffffffffffffffffffffffffffffffffffffffff168573ffffffffffffffffffffffffffffffffffffffff167f913c992353dc81b7a8ba31496c484e9b6306bd2f6c509a649a38fdf5e1c953b284604051610e649190614696565b60405180910390a450505050565b600260003373ffffffffffffffffffffffffffffffffffffffff1673ffffffffffffffffffffffffffffffffffffffff16815260200190815260200160002060009054906101000a900460ff16610efe576040517f08c379a0000000000000000000000000000000000000000000000000000000008152600401610ef590614850565b60405180910390fd5b600360003373ffffffffffffffffffffffffffffffffffffffff1673ffffffffffffffffffffffffffffffffffffffff16815260200190815260200160002060030160009054906101000a900460ff16610f8d576040517f08c379a0000000000000000000000000000000000000000000000000000000008152600401610f84906148bc565b60405180910390fd5b82600360003373ffffffffffffffffffffffffffffffffffffffff1673ffffffffffffffffffffffffffffffffffffffff1681526020019081526020016000206006018190555081600360003373ffffffffffffffffffffffffffffffffffffffff1673ffffffffffffffffffffffffffffffffffffffff1681526020019081526020016000206007018190555080600360003373ffffffffffffffffffffffffffffffffffffffff1673ffffffffffffffffffffffffffffffffffffffff168152602001908152602001600020600801819055503373ffffffffffffffffffffffffffffffffffffffff167fa89ed257389bf55f99f23abbebdb8576be22335f63e8f2ed9e12742f3cb4defb8484846040516110ac93929190614a72565b60405180910390a2505050565b600260008773ffffffffffffffffffffffffffffffffffffffff1673ffffffffffffffffffffffffffffffffffffffff16815260200190815260200160002060009054906101000a900460ff16611145576040517f08c379a000000000000000000000000000000000000000000000000000000000815260040161113c90614850565b60405180910390fd5b600360008773ffffffffffffffffffffffffffffffffffffffff1673ffffffffffffffffffffffffffffffffffffffff16815260200190815260200160002060030160009054906101000a900460ff166111d4576040517f08c379a00000000000000000000000000000000000000000000000000000000081526004016111cb906148bc565b60405180910390fd5b6040518060c001604052808673ffffffffffffffffffffffffffffffffffffffff16815260200185815260200184815260200183815260200182815260200160011515815250600660008873ffffffffffffffffffffffffffffffffffffffff1673ffffffffffffffffffffffffffffffffffffffff16815260200190815260200160002060008773ffffffffffffffffffffffffffffffffffffffff1673ffffffffffffffffffffffffffffffffffffffff16815260200190815260200160002060008201518160000160006101000a81548173ffffffffffffffffffffffffffffffffffffffff021916908373ffffffffffffffffffffffffffffffffffffffff16021790555060208201518160010190816112f29190614c55565b5060408201518160020190816113089190614c55565b50606082015181600301556080820151816004015560a08201518160050160006101000a81548160ff021916908315150217905550905050818573ffffffffffffffffffffffffffffffffffffffff168773ffffffffffffffffffffffffffffffffffffffff167fbcd808aacc29273be719505ed6a9bc3a667772d205c392aa0a2cc8409a967bc860405160405180910390a4505050505050565b6000600760008373ffffffffffffffffffffffffffffffffffffffff1673ffffffffffffffffffffffffffffffffffffffff16815260200190815260200160002060010160009054906101000a900460ff169050919050565b61140461395a565b600460008373ffffffffffffffffffffffffffffffffffffffff1673ffffffffffffffffffffffffffffffffffffffff16815260200190815260200160002060405180608001604052908160008201805461145e9061490b565b80601f016020809104026020016040519081016040528092919081815260200182805461148a9061490b565b80156114d75780601f106114ac576101008083540402835291602001916114d7565b820191906000526020600020905b8154815290600101906020018083116114ba57829003601f168201915b505050505081526020016001820180546114f09061490b565b80601f016020809104026020016040519081016040528092919081815260200182805461151c9061490b565b80156115695780601f1061153e57610100808354040283529160200191611569565b820191906000526020600020905b81548152906001019060200180831161154c57829003601f168201915b505050505081526020016002820160009054906101000a900473ffffffffffffffffffffffffffffffffffffffff1673ffffffffffffffffffffffffffffffffffffffff1673ffffffffffffffffffffffffffffffffffffffff1681526020016002820160149054906101000a900460ff1615151515815250509050919050565b6000600360008373ffffffffffffffffffffffffffffffffffffffff1673ffffffffffffffffffffffffffffffffffffffff16815260200190815260200160002060030160029054906101000a900473ffffffffffffffffffffffffffffffffffffffff169050919050565b61165e613810565b80600760008473ffffffffffffffffffffffffffffffffffffffff1673ffffffffffffffffffffffffffffffffffffffff16815260200190815260200160002060000190816116ad9190614c55565b508173ffffffffffffffffffffffffffffffffffffffff167f8a1263962e2474bea0a33055f8d55a8113d3481d759b26d9c9d151ad7e552f19826040516116f49190614108565b60405180910390a25050565b60046020528060005260406000206000915090508060000180546117239061490b565b80601f016020809104026020016040519081016040528092919081815260200182805461174f9061490b565b801561179c5780601f106117715761010080835404028352916020019161179c565b820191906000526020600020905b81548152906001019060200180831161177f57829003601f168201915b5050505050908060010180546117b19061490b565b80601f01602080910402602001604051908101604052809291908181526020018280546117dd9061490b565b801561182a5780601f106117ff5761010080835404028352916020019161182a565b820191906000526020600020905b81548152906001019060200180831161180d57829003601f168201915b5050505050908060020160009054906101000a900473ffffffffffffffffffffffffffffffffffffffff16908060020160149054906101000a900460ff16905084565b6001600760003373ffffffffffffffffffffffffffffffffffffffff1673ffffffffffffffffffffffffffffffffffffffff16815260200190815260200160002060010160006101000a81548160ff0219169083151502179055503373ffffffffffffffffffffffffffffffffffffffff167f10fb698f781e424b2936b656193c9212836bcb66e5da5119147d31561a3d931160405160405180910390a2565b6000600360008373ffffffffffffffffffffffffffffffffffffffff1673ffffffffffffffffffffffffffffffffffffffff16815260200190815260200160002060030160019054906101000a900460ff169050919050565b6060600760008373ffffffffffffffffffffffffffffffffffffffff1673ffffffffffffffffffffffffffffffffffffffff16815260200190815260200160002060000180546119b59061490b565b80601f01602080910402602001604051908101604052809291908181526020018280546119e19061490b565b8015611a2e5780601f10611a0357610100808354040283529160200191611a2e565b820191906000526020600020905b815481529060010190602001808311611a1157829003601f168201915b50505050509050919050565b611a42613810565b611a4c600061388e565b565b60026020528060005260406000206000915054906101000a900460ff1681565b600260003373ffffffffffffffffffffffffffffffffffffffff1673ffffffffffffffffffffffffffffffffffffffff16815260200190815260200160002060009054906101000a900460ff1615611afb576040517f08c379a0000000000000000000000000000000000000000000000000000000008152600401611af290614d73565b60405180910390fd5b6001339080600181540180825580915050600190039060005260206000200160009091909190916101000a81548173ffffffffffffffffffffffffffffffffffffffff021916908373ffffffffffffffffffffffffffffffffffffffff16021790555082600360003373ffffffffffffffffffffffffffffffffffffffff1673ffffffffffffffffffffffffffffffffffffffff1681526020019081526020016000206000019081611bad9190614c55565b5081600360003373ffffffffffffffffffffffffffffffffffffffff1673ffffffffffffffffffffffffffffffffffffffff1681526020019081526020016000206001019081611bfd9190614c55565b5080600360003373ffffffffffffffffffffffffffffffffffffffff1673ffffffffffffffffffffffffffffffffffffffff1681526020019081526020016000206002019081611c4d9190614c55565b506000600360003373ffffffffffffffffffffffffffffffffffffffff1673ffffffffffffffffffffffffffffffffffffffff16815260200190815260200160002060030160006101000a81548160ff0219169083151502179055506001600360003373ffffffffffffffffffffffffffffffffffffffff1673ffffffffffffffffffffffffffffffffffffffff16815260200190815260200160002060030160016101000a81548160ff0219169083151502179055506006600360003373ffffffffffffffffffffffffffffffffffffffff1673ffffffffffffffffffffffffffffffffffffffff168152602001908152602001600020600601819055506002600360003373ffffffffffffffffffffffffffffffffffffffff1673ffffffffffffffffffffffffffffffffffffffff168152602001908152602001600020600701819055506002600360003373ffffffffffffffffffffffffffffffffffffffff1673ffffffffffffffffffffffffffffffffffffffff168152602001908152602001600020600801819055506001600260003373ffffffffffffffffffffffffffffffffffffffff1673ffffffffffffffffffffffffffffffffffffffff16815260200190815260200160002060006101000a81548160ff0219169083151502179055503373ffffffffffffffffffffffffffffffffffffffff167f5f66e430b448d83d46a65ab17a365f04c0c8f1a66ac20bcc38dfde7f2d67514184604051611e7a9190614108565b60405180910390a2505050565b600260003373ffffffffffffffffffffffffffffffffffffffff1673ffffffffffffffffffffffffffffffffffffffff16815260200190815260200160002060009054906101000a900460ff16611f13576040517f08c379a0000000000000000000000000000000000000000000000000000000008152600401611f0a90614850565b60405180910390fd5b600360003373ffffffffffffffffffffffffffffffffffffffff1673ffffffffffffffffffffffffffffffffffffffff16815260200190815260200160002060030160009054906101000a900460ff16611fa2576040517f08c379a0000000000000000000000000000000000000000000000000000000008152600401611f99906148bc565b60405180910390fd5b600360003373ffffffffffffffffffffffffffffffffffffffff1673ffffffffffffffffffffffffffffffffffffffff1681526020019081526020016000206005018190806001815401808255809150506001900390600052602060002001600090919091909150553373ffffffffffffffffffffffffffffffffffffffff167f0a9f57650aae67446314481b13a827c479f89b36f2186ba5ced5026358a55c45826040516120519190614696565b60405180910390a250565b60008060009054906101000a900473ffffffffffffffffffffffffffffffffffffffff16905090565b6000600660008473ffffffffffffffffffffffffffffffffffffffff1673ffffffffffffffffffffffffffffffffffffffff16815260200190815260200160002060008373ffffffffffffffffffffffffffffffffffffffff1673ffffffffffffffffffffffffffffffffffffffff16815260200190815260200160002060050160009054906101000a900460ff16905092915050565b600260003373ffffffffffffffffffffffffffffffffffffffff1673ffffffffffffffffffffffffffffffffffffffff16815260200190815260200160002060009054906101000a900460ff166121a8576040517f08c379a000000000000000000000000000000000000000000000000000000000815260040161219f90614850565b60405180910390fd5b600360003373ffffffffffffffffffffffffffffffffffffffff1673ffffffffffffffffffffffffffffffffffffffff16815260200190815260200160002060030160009054906101000a900460ff16612237576040517f08c379a000000000000000000000000000000000000000000000000000000000815260040161222e906148bc565b60405180910390fd5b600560008573ffffffffffffffffffffffffffffffffffffffff1673ffffffffffffffffffffffffffffffffffffffff16815260200190815260200160002060009054906101000a900460ff166122c3576040517f08c379a00000000000000000000000000000000000000000000000000000000081526004016122ba90614ddf565b60405180910390fd5b8073ffffffffffffffffffffffffffffffffffffffff168473ffffffffffffffffffffffffffffffffffffffff160361239b5782600460008673ffffffffffffffffffffffffffffffffffffffff1673ffffffffffffffffffffffffffffffffffffffff16815260200190815260200160002060000190816123459190614c55565b5081600460008673ffffffffffffffffffffffffffffffffffffffff1673ffffffffffffffffffffffffffffffffffffffff16815260200190815260200160002060010190816123959190614c55565b50612670565b82600460008373ffffffffffffffffffffffffffffffffffffffff1673ffffffffffffffffffffffffffffffffffffffff16815260200190815260200160002060000190816123ea9190614c55565b5081600460008373ffffffffffffffffffffffffffffffffffffffff1673ffffffffffffffffffffffffffffffffffffffff168152602001908152602001600020600101908161243a9190614c55565b5080600460008373ffffffffffffffffffffffffffffffffffffffff1673ffffffffffffffffffffffffffffffffffffffff16815260200190815260200160002060020160006101000a81548173ffffffffffffffffffffffffffffffffffffffff021916908373ffffffffffffffffffffffffffffffffffffffff16021790555060005b600360003373ffffffffffffffffffffffffffffffffffffffff1673ffffffffffffffffffffffffffffffffffffffff1681526020019081526020016000206004018054905081101561266e578473ffffffffffffffffffffffffffffffffffffffff16600360003373ffffffffffffffffffffffffffffffffffffffff1673ffffffffffffffffffffffffffffffffffffffff16815260200190815260200160002060040182815481106125775761257661493c565b5b9060005260206000200160009054906101000a900473ffffffffffffffffffffffffffffffffffffffff1673ffffffffffffffffffffffffffffffffffffffff160361265b5781600360003373ffffffffffffffffffffffffffffffffffffffff1673ffffffffffffffffffffffffffffffffffffffff16815260200190815260200160002060040182815481106126125761261161493c565b5b9060005260206000200160006101000a81548173ffffffffffffffffffffffffffffffffffffffff021916908373ffffffffffffffffffffffffffffffffffffffff1602179055505b808061266690614a2a565b9150506124bf565b505b8073ffffffffffffffffffffffffffffffffffffffff168473ffffffffffffffffffffffffffffffffffffffff163373ffffffffffffffffffffffffffffffffffffffff167f98181c10b577f57cab84e5876fe882beef6fd7633fa626a112765254ff1c0a3d86866040516126e6929190614dff565b60405180910390a450505050565b6126fc613810565b600260003373ffffffffffffffffffffffffffffffffffffffff1673ffffffffffffffffffffffffffffffffffffffff16815260200190815260200160002060009054906101000a900460ff16612788576040517f08c379a000000000000000000000000000000000000000000000000000000000815260040161277f90614850565b60405180910390fd5b600360003373ffffffffffffffffffffffffffffffffffffffff1673ffffffffffffffffffffffffffffffffffffffff16815260200190815260200160002060030160009054906101000a900460ff1615612818576040517f08c379a000000000000000000000000000000000000000000000000000000000815260040161280f90614e82565b60405180910390fd5b6001600360003373ffffffffffffffffffffffffffffffffffffffff1673ffffffffffffffffffffffffffffffffffffffff16815260200190815260200160002060030160006101000a81548160ff0219169083151502179055503373ffffffffffffffffffffffffffffffffffffffff167fc075588536ccbcc926766f9090dd0857af2708dfc82df2166eca1059cadf2ec760405160405180910390a2565b6060600180548060200260200160405190810160405280929190818152602001828054801561293c57602002820191906000526020600020905b8160009054906101000a900473ffffffffffffffffffffffffffffffffffffffff1673ffffffffffffffffffffffffffffffffffffffff16815260200190600101908083116128f2575b5050505050905090565b61294e613810565b6000600360008373ffffffffffffffffffffffffffffffffffffffff1673ffffffffffffffffffffffffffffffffffffffff16815260200190815260200160002060030160016101000a81548160ff02191690831515021790555050565b6000600360008373ffffffffffffffffffffffffffffffffffffffff1673ffffffffffffffffffffffffffffffffffffffff16815260200190815260200160002060030160009054906101000a900460ff169050919050565b612a0d61399a565b600360008373ffffffffffffffffffffffffffffffffffffffff1673ffffffffffffffffffffffffffffffffffffffff16815260200190815260200160002060405180610160016040529081600082018054612a689061490b565b80601f0160208091040260200160405190810160405280929190818152602001828054612a949061490b565b8015612ae15780601f10612ab657610100808354040283529160200191612ae1565b820191906000526020600020905b815481529060010190602001808311612ac457829003601f168201915b50505050508152602001600182018054612afa9061490b565b80601f0160208091040260200160405190810160405280929190818152602001828054612b269061490b565b8015612b735780601f10612b4857610100808354040283529160200191612b73565b820191906000526020600020905b815481529060010190602001808311612b5657829003601f168201915b50505050508152602001600282018054612b8c9061490b565b80601f0160208091040260200160405190810160405280929190818152602001828054612bb89061490b565b8015612c055780601f10612bda57610100808354040283529160200191612c05565b820191906000526020600020905b815481529060010190602001808311612be857829003601f168201915b505050505081526020016003820160009054906101000a900460ff161515151581526020016003820160019054906101000a900460ff161515151581526020016003820160029054906101000a900473ffffffffffffffffffffffffffffffffffffffff1673ffffffffffffffffffffffffffffffffffffffff1673ffffffffffffffffffffffffffffffffffffffff16815260200160048201805480602002602001604051908101604052809291908181526020018280548015612d1f57602002820191906000526020600020905b8160009054906101000a900473ffffffffffffffffffffffffffffffffffffffff1673ffffffffffffffffffffffffffffffffffffffff1681526020019060010190808311612cd5575b5050505050815260200160058201805480602002602001604051908101604052809291908181526020018280548015612d7757602002820191906000526020600020905b815481526020019060010190808311612d63575b5050505050815260200160068201548152602001600782015481526020016008820154815250509050919050565b600260003373ffffffffffffffffffffffffffffffffffffffff1673ffffffffffffffffffffffffffffffffffffffff16815260200190815260200160002060009054906101000a900460ff16612e31576040517f08c379a0000000000000000000000000000000000000000000000000000000008152600401612e2890614850565b60405180910390fd5b600360003373ffffffffffffffffffffffffffffffffffffffff1673ffffffffffffffffffffffffffffffffffffffff16815260200190815260200160002060030160009054906101000a900460ff16612ec0576040517f08c379a0000000000000000000000000000000000000000000000000000000008152600401612eb7906148bc565b60405180910390fd5b600560008273ffffffffffffffffffffffffffffffffffffffff1673ffffffffffffffffffffffffffffffffffffffff16815260200190815260200160002060009054906101000a900460ff1615612f4d576040517f08c379a0000000000000000000000000000000000000000000000000000000008152600401612f4490614eee565b60405180910390fd5b60405180608001604052808481526020018381526020018273ffffffffffffffffffffffffffffffffffffffff16815260200160001515815250600460008373ffffffffffffffffffffffffffffffffffffffff1673ffffffffffffffffffffffffffffffffffffffff1681526020019081526020016000206000820151816000019081612fdb9190614c55565b506020820151816001019081612ff19190614c55565b5060408201518160020160006101000a81548173ffffffffffffffffffffffffffffffffffffffff021916908373ffffffffffffffffffffffffffffffffffffffff16021790555060608201518160020160146101000a81548160ff021916908315150217905550905050600360003373ffffffffffffffffffffffffffffffffffffffff1673ffffffffffffffffffffffffffffffffffffffff168152602001908152602001600020600401819080600181540180825580915050600190039060005260206000200160009091909190916101000a81548173ffffffffffffffffffffffffffffffffffffffff021916908373ffffffffffffffffffffffffffffffffffffffff1602179055506001600560008373ffffffffffffffffffffffffffffffffffffffff1673ffffffffffffffffffffffffffffffffffffffff16815260200190815260200160002060006101000a81548160ff0219169083151502179055503373ffffffffffffffffffffffffffffffffffffffff167fb009d2c813f95b7c48104e6328c1acca60b43cac7e0f4e63c29a8dc5808356ad8285856040516131a193929190614f0e565b60405180910390a2505050565b60056020528060005260406000206000915054906101000a900460ff1681565b60076020528060005260406000206000915090508060000180546131f19061490b565b80601f016020809104026020016040519081016040528092919081815260200182805461321d9061490b565b801561326a5780601f1061323f5761010080835404028352916020019161326a565b820191906000526020600020905b81548152906001019060200180831161324d57829003601f168201915b5050505050908060010160009054906101000a900460ff16905082565b6000600180549050905090565b6006602052816000526040600020602052806000526040600020600091509150508060000160009054906101000a900473ffffffffffffffffffffffffffffffffffffffff16908060010180546132ea9061490b565b80601f01602080910402602001604051908101604052809291908181526020018280546133169061490b565b80156133635780601f1061333857610100808354040283529160200191613363565b820191906000526020600020905b81548152906001019060200180831161334657829003601f168201915b5050505050908060020180546133789061490b565b80601f01602080910402602001604051908101604052809291908181526020018280546133a49061490b565b80156133f15780601f106133c6576101008083540402835291602001916133f1565b820191906000526020600020905b8154815290600101906020018083116133d457829003601f168201915b5050505050908060030154908060040154908060050160009054906101000a900460ff16905086565b6060600360008373ffffffffffffffffffffffffffffffffffffffff1673ffffffffffffffffffffffffffffffffffffffff1681526020019081526020016000206005018054806020026020016040519081016040528092919081815260200182805480156134a857602002820191906000526020600020905b815481526020019060010190808311613494575b50505050509050919050565b600260008473ffffffffffffffffffffffffffffffffffffffff1673ffffffffffffffffffffffffffffffffffffffff16815260200190815260200160002060009054906101000a900460ff16613540576040517f08c379a000000000000000000000000000000000000000000000000000000000815260040161353790614850565b60405180910390fd5b600360008473ffffffffffffffffffffffffffffffffffffffff1673ffffffffffffffffffffffffffffffffffffffff16815260200190815260200160002060030160009054906101000a900460ff166135cf576040517f08c379a00000000000000000000000000000000000000000000000000000000081526004016135c6906148bc565b60405180910390fd5b80600660008573ffffffffffffffffffffffffffffffffffffffff1673ffffffffffffffffffffffffffffffffffffffff16815260200190815260200160002060008473ffffffffffffffffffffffffffffffffffffffff1673ffffffffffffffffffffffffffffffffffffffff168152602001908152602001600020600401819055508173ffffffffffffffffffffffffffffffffffffffff168373ffffffffffffffffffffffffffffffffffffffff167fedc81c1b2ba130e51b15caad1a904620ab3ad26168714cfa53da56e1ecda7f9d836040516136b09190614696565b60405180910390a3505050565b6136c5613810565b600073ffffffffffffffffffffffffffffffffffffffff168173ffffffffffffffffffffffffffffffffffffffff1603613734576040517f08c379a000000000000000000000000000000000000000000000000000000000815260040161372b90614fc5565b60405180910390fd5b61373d8161388e565b50565b6060600360008373ffffffffffffffffffffffffffffffffffffffff1673ffffffffffffffffffffffffffffffffffffffff16815260200190815260200160002060040180548060200260200160405190810160405280929190818152602001828054801561380457602002820191906000526020600020905b8160009054906101000a900473ffffffffffffffffffffffffffffffffffffffff1673ffffffffffffffffffffffffffffffffffffffff16815260200190600101908083116137ba575b50505050509050919050565b613818613952565b73ffffffffffffffffffffffffffffffffffffffff1661383661205c565b73ffffffffffffffffffffffffffffffffffffffff161461388c576040517f08c379a000000000000000000000000000000000000000000000000000000000815260040161388390615031565b60405180910390fd5b565b60008060009054906101000a900473ffffffffffffffffffffffffffffffffffffffff169050816000806101000a81548173ffffffffffffffffffffffffffffffffffffffff021916908373ffffffffffffffffffffffffffffffffffffffff1602179055508173ffffffffffffffffffffffffffffffffffffffff168173ffffffffffffffffffffffffffffffffffffffff167f8be0079c531659141344cd1fd0a4f28419497f9722a3daafe3b4186f6b6457e060405160405180910390a35050565b600033905090565b60405180608001604052806060815260200160608152602001600073ffffffffffffffffffffffffffffffffffffffff1681526020016000151581525090565b604051806101600160405280606081526020016060815260200160608152602001600015158152602001600015158152602001600073ffffffffffffffffffffffffffffffffffffffff16815260200160608152602001606081526020016000815260200160008152602001600081525090565b6000604051905090565b600080fd5b600080fd5b6000819050919050565b613a3581613a22565b8114613a4057600080fd5b50565b600081359050613a5281613a2c565b92915050565b600060208284031215613a6e57613a6d613a18565b5b6000613a7c84828501613a43565b91505092915050565b600073ffffffffffffffffffffffffffffffffffffffff82169050919050565b6000613ab082613a85565b9050919050565b613ac081613aa5565b82525050565b6000602082019050613adb6000830184613ab7565b92915050565b613aea81613aa5565b8114613af557600080fd5b50565b600081359050613b0781613ae1565b92915050565b600060208284031215613b2357613b22613a18565b5b6000613b3184828501613af8565b91505092915050565b600081519050919050565b600082825260208201905092915050565b60005b83811015613b74578082015181840152602081019050613b59565b60008484015250505050565b6000601f19601f8301169050919050565b6000613b9c82613b3a565b613ba68185613b45565b9350613bb6818560208601613b56565b613bbf81613b80565b840191505092915050565b60008115159050919050565b613bdf81613bca565b82525050565b613bee81613a22565b82525050565b6000610120820190508181036000830152613c0f818c613b91565b90508181036020830152613c23818b613b91565b90508181036040830152613c37818a613b91565b9050613c466060830189613bd6565b613c536080830188613bd6565b613c6060a0830187613ab7565b613c6d60c0830186613be5565b613c7a60e0830185613be5565b613c88610100830184613be5565b9a9950505050505050505050565b60008060008060808587031215613cb057613caf613a18565b5b6000613cbe87828801613af8565b9450506020613ccf87828801613af8565b9350506040613ce087828801613a43565b9250506060613cf187828801613a43565b91505092959194509250565b600080600060608486031215613d1657613d15613a18565b5b6000613d2486828701613a43565b9350506020613d3586828701613a43565b9250506040613d4686828701613a43565b9150509250925092565b600080fd5b600080fd5b7f4e487b7100000000000000000000000000000000000000000000000000000000600052604160045260246000fd5b613d9282613b80565b810181811067ffffffffffffffff82111715613db157613db0613d5a565b5b80604052505050565b6000613dc4613a0e565b9050613dd08282613d89565b919050565b600067ffffffffffffffff821115613df057613def613d5a565b5b613df982613b80565b9050602081019050919050565b82818337600083830152505050565b6000613e28613e2384613dd5565b613dba565b905082815260208101848484011115613e4457613e43613d55565b5b613e4f848285613e06565b509392505050565b600082601f830112613e6c57613e6b613d50565b5b8135613e7c848260208601613e15565b91505092915050565b60008060008060008060c08789031215613ea257613ea1613a18565b5b6000613eb089828a01613af8565b9650506020613ec189828a01613af8565b955050604087013567ffffffffffffffff811115613ee257613ee1613a1d565b5b613eee89828a01613e57565b945050606087013567ffffffffffffffff811115613f0f57613f0e613a1d565b5b613f1b89828a01613e57565b9350506080613f2c89828a01613a43565b92505060a0613f3d89828a01613a43565b9150509295509295509295565b6000602082019050613f5f6000830184613bd6565b92915050565b600082825260208201905092915050565b6000613f8182613b3a565b613f8b8185613f65565b9350613f9b818560208601613b56565b613fa481613b80565b840191505092915050565b613fb881613aa5565b82525050565b613fc781613bca565b82525050565b60006080830160008301518482036000860152613fea8282613f76565b915050602083015184820360208601526140048282613f76565b91505060408301516140196040860182613faf565b50606083015161402c6060860182613fbe565b508091505092915050565b600060208201905081810360008301526140518184613fcd565b905092915050565b600080604083850312156140705761406f613a18565b5b600061407e85828601613af8565b925050602083013567ffffffffffffffff81111561409f5761409e613a1d565b5b6140ab85828601613e57565b9150509250929050565b600060808201905081810360008301526140cf8187613b91565b905081810360208301526140e38186613b91565b90506140f26040830185613ab7565b6140ff6060830184613bd6565b95945050505050565b600060208201905081810360008301526141228184613b91565b905092915050565b60008060006060848603121561414357614142613a18565b5b600084013567ffffffffffffffff81111561416157614160613a1d565b5b61416d86828701613e57565b935050602084013567ffffffffffffffff81111561418e5761418d613a1d565b5b61419a86828701613e57565b925050604084013567ffffffffffffffff8111156141bb576141ba613a1d565b5b6141c786828701613e57565b9150509250925092565b600080604083850312156141e8576141e7613a18565b5b60006141f685828601613af8565b925050602061420785828601613af8565b9150509250929050565b6000806000806080858703121561422b5761422a613a18565b5b600061423987828801613af8565b945050602085013567ffffffffffffffff81111561425a57614259613a1d565b5b61426687828801613e57565b935050604085013567ffffffffffffffff81111561428757614286613a1d565b5b61429387828801613e57565b92505060606142a487828801613af8565b91505092959194509250565b600081519050919050565b600082825260208201905092915050565b6000819050602082019050919050565b60006142e88383613faf565b60208301905092915050565b6000602082019050919050565b600061430c826142b0565b61431681856142bb565b9350614321836142cc565b8060005b8381101561435257815161433988826142dc565b9750614344836142f4565b925050600181019050614325565b5085935050505092915050565b600060208201905081810360008301526143798184614301565b905092915050565b600082825260208201905092915050565b600061439d826142b0565b6143a78185614381565b93506143b2836142cc565b8060005b838110156143e35781516143ca88826142dc565b97506143d5836142f4565b9250506001810190506143b6565b5085935050505092915050565b600081519050919050565b600082825260208201905092915050565b6000819050602082019050919050565b61442581613a22565b82525050565b6000614437838361441c565b60208301905092915050565b6000602082019050919050565b600061445b826143f0565b61446581856143fb565b93506144708361440c565b8060005b838110156144a1578151614488888261442b565b975061449383614443565b925050600181019050614474565b5085935050505092915050565b60006101608301600083015184820360008601526144cc8282613f76565b915050602083015184820360208601526144e68282613f76565b915050604083015184820360408601526145008282613f76565b91505060608301516145156060860182613fbe565b5060808301516145286080860182613fbe565b5060a083015161453b60a0860182613faf565b5060c083015184820360c08601526145538282614392565b91505060e083015184820360e086015261456d8282614450565b91505061010083015161458461010086018261441c565b5061012083015161459961012086018261441c565b506101408301516145ae61014086018261441c565b508091505092915050565b600060208201905081810360008301526145d381846144ae565b905092915050565b6000806000606084860312156145f4576145f3613a18565b5b600084013567ffffffffffffffff81111561461257614611613a1d565b5b61461e86828701613e57565b935050602084013567ffffffffffffffff81111561463f5761463e613a1d565b5b61464b86828701613e57565b925050604061465c86828701613af8565b9150509250925092565b600060408201905081810360008301526146808185613b91565b905061468f6020830184613bd6565b9392505050565b60006020820190506146ab6000830184613be5565b92915050565b600060c0820190506146c66000830189613ab7565b81810360208301526146d88188613b91565b905081810360408301526146ec8187613b91565b90506146fb6060830186613be5565b6147086080830185613be5565b61471560a0830184613bd6565b979650505050505050565b600082825260208201905092915050565b600061473c826143f0565b6147468185614720565b93506147518361440c565b8060005b83811015614782578151614769888261442b565b975061477483614443565b925050600181019050614755565b5085935050505092915050565b600060208201905081810360008301526147a98184614731565b905092915050565b6000806000606084860312156147ca576147c9613a18565b5b60006147d886828701613af8565b93505060206147e986828701613af8565b92505060406147fa86828701613a43565b9150509250925092565b7f466972737420646f20726567697374726174696f6e0000000000000000000000600082015250565b600061483a601583613b45565b915061484582614804565b602082019050919050565b600060208201905081810360008301526148698161482d565b9050919050565b7f656d61696c206973206e6f742076657269666965640000000000000000000000600082015250565b60006148a6601583613b45565b91506148b182614870565b602082019050919050565b600060208201905081810360008301526148d581614899565b9050919050565b7f4e487b7100000000000000000000000000000000000000000000000000000000600052602260045260246000fd5b6000600282049050600182168061492357607f821691505b602082108103614936576149356148dc565b5b50919050565b7f4e487b7100000000000000000000000000000000000000000000000000000000600052603260045260246000fd5b60006060820190506149806000830186613ab7565b61498d6020830185613ab7565b61499a6040830184613be5565b949350505050565b6149ab81613bca565b81146149b657600080fd5b50565b6000815190506149c8816149a2565b92915050565b6000602082840312156149e4576149e3613a18565b5b60006149f2848285016149b9565b91505092915050565b7f4e487b7100000000000000000000000000000000000000000000000000000000600052601160045260246000fd5b6000614a3582613a22565b91507fffffffffffffffffffffffffffffffffffffffffffffffffffffffffffffffff8203614a6757614a666149fb565b5b600182019050919050565b6000606082019050614a876000830186613be5565b614a946020830185613be5565b614aa16040830184613be5565b949350505050565b60008190508160005260206000209050919050565b60006020601f8301049050919050565b600082821b905092915050565b600060088302614b0b7fffffffffffffffffffffffffffffffffffffffffffffffffffffffffffffffff82614ace565b614b158683614ace565b95508019841693508086168417925050509392505050565b6000819050919050565b6000614b52614b4d614b4884613a22565b614b2d565b613a22565b9050919050565b6000819050919050565b614b6c83614b37565b614b80614b7882614b59565b848454614adb565b825550505050565b600090565b614b95614b88565b614ba0818484614b63565b505050565b5b81811015614bc457614bb9600082614b8d565b600181019050614ba6565b5050565b601f821115614c0957614bda81614aa9565b614be384614abe565b81016020851015614bf2578190505b614c06614bfe85614abe565b830182614ba5565b50505b505050565b600082821c905092915050565b6000614c2c60001984600802614c0e565b1980831691505092915050565b6000614c458383614c1b565b9150826002028217905092915050565b614c5e82613b3a565b67ffffffffffffffff811115614c7757614c76613d5a565b5b614c81825461490b565b614c8c828285614bc8565b600060209050601f831160018114614cbf5760008415614cad578287015190505b614cb78582614c39565b865550614d1f565b601f198416614ccd86614aa9565b60005b82811015614cf557848901518255600182019150602085019450602081019050614cd0565b86831015614d125784890151614d0e601f891682614c1b565b8355505b6001600288020188555050505b505050505050565b7f416c726561647920726567697374657265640000000000000000000000000000600082015250565b6000614d5d601283613b45565b9150614d6882614d27565b602082019050919050565b60006020820190508181036000830152614d8c81614d50565b9050919050565b7f4e6f6d696e6565206973206e6f74206164646564000000000000000000000000600082015250565b6000614dc9601483613b45565b9150614dd482614d93565b602082019050919050565b60006020820190508181036000830152614df881614dbc565b9050919050565b60006040820190508181036000830152614e198185613b91565b90508181036020830152614e2d8184613b91565b90509392505050565b7f416c726561647920796f757220656d61696c2069732076657269666965640000600082015250565b6000614e6c601e83613b45565b9150614e7782614e36565b602082019050919050565b60006020820190508181036000830152614e9b81614e5f565b9050919050565b7f4e6f6d696e656520697320616c72656164792061646465640000000000000000600082015250565b6000614ed8601883613b45565b9150614ee382614ea2565b602082019050919050565b60006020820190508181036000830152614f0781614ecb565b9050919050565b6000606082019050614f236000830186613ab7565b8181036020830152614f358185613b91565b90508181036040830152614f498184613b91565b9050949350505050565b7f4f776e61626c653a206e6577206f776e657220697320746865207a65726f206160008201527f6464726573730000000000000000000000000000000000000000000000000000602082015250565b6000614faf602683613b45565b9150614fba82614f53565b604082019050919050565b60006020820190508181036000830152614fde81614fa2565b9050919050565b7f4f776e61626c653a2063616c6c6572206973206e6f7420746865206f776e6572600082015250565b600061501b602083613b45565b915061502682614fe5565b602082019050919050565b6000602082019050818103600083015261504a8161500e565b905091905056fea2646970667358221220cf85b0fa4cc8212d1651951eed0ca22d5f9001800ef4103541a9128c0458030d64736f6c63430008110033",
  "linkReferences": {},
  "deployedLinkReferences": {}
}