{
  "_format": "hh-sol-artifact-1",
  "contractName": "Inheritokens",
  "sourceName": "contracts/Inheritokens.sol",
  "abi": [
    {
      "inputs": [],
      "stateMutability": "nonpayable",
      "type": "constructor"
    },
    {
      "anonymous": false,
      "inputs": [
        {
          "indexed": true,
          "internalType": "address",
          "name": "previousOwner",
          "type": "address"
        },
        {
          "indexed": true,
          "internalType": "address",
          "name": "newOwner",
          "type": "address"
        }
      ],
      "name": "OwnershipTransferred",
      "type": "event"
    },
    {
      "inputs": [
        {
          "internalType": "string",
          "name": "_name",
          "type": "string"
        },
        {
          "internalType": "string",
          "name": "_email",
          "type": "string"
        },
        {
          "internalType": "address",
          "name": "_nominee",
          "type": "address"
        }
      ],
      "name": "addNomineesDetails",
      "outputs": [],
      "stateMutability": "nonpayable",
      "type": "function"
    },
    {
      "inputs": [
        {
          "internalType": "string",
          "name": "_name",
          "type": "string"
        },
        {
          "internalType": "string",
          "name": "_email",
          "type": "string"
        },
        {
          "internalType": "string",
          "name": "_cid",
          "type": "string"
        },
        {
          "internalType": "uint256",
          "name": "_months",
          "type": "uint256"
        }
      ],
      "name": "addOwnerDetails",
      "outputs": [],
      "stateMutability": "nonpayable",
      "type": "function"
    },
    {
      "inputs": [
        {
          "internalType": "address",
          "name": "_owner",
          "type": "address"
        },
        {
          "internalType": "address",
          "name": "_recoveryAddress",
          "type": "address"
        }
      ],
      "name": "addWalletRecovery",
      "outputs": [],
      "stateMutability": "nonpayable",
      "type": "function"
    },
    {
      "inputs": [
        {
          "internalType": "address",
          "name": "",
          "type": "address"
        }
      ],
      "name": "addressToNominee",
      "outputs": [
        {
          "internalType": "string",
          "name": "nominee_name",
          "type": "string"
        },
        {
          "internalType": "string",
          "name": "nominee_email",
          "type": "string"
        },
        {
          "internalType": "address",
          "name": "nominee_address",
          "type": "address"
        },
        {
          "internalType": "bool",
          "name": "hasClaimed",
          "type": "bool"
        }
      ],
      "stateMutability": "view",
      "type": "function"
    },
    {
      "inputs": [
        {
          "internalType": "address",
          "name": "",
          "type": "address"
        }
      ],
      "name": "addressToOwner",
      "outputs": [
        {
          "internalType": "string",
          "name": "owner_name",
          "type": "string"
        },
        {
          "internalType": "string",
          "name": "owner_email",
          "type": "string"
        },
        {
          "internalType": "string",
          "name": "image_cid",
          "type": "string"
        },
        {
          "internalType": "bool",
          "name": "isEmailVerified",
          "type": "bool"
        },
        {
          "internalType": "bool",
          "name": "isAlive",
          "type": "bool"
        },
        {
          "internalType": "address",
          "name": "recoveryAddress",
          "type": "address"
        },
        {
          "internalType": "uint256",
          "name": "monthsOfInactivity",
          "type": "uint256"
        },
        {
          "internalType": "uint256",
          "name": "monthsOfSendingMailToOwner",
          "type": "uint256"
        },
        {
          "internalType": "uint256",
          "name": "monthsForNominee",
          "type": "uint256"
        }
      ],
      "stateMutability": "view",
      "type": "function"
    },
    {
      "inputs": [
        {
          "internalType": "address",
          "name": "_owner",
          "type": "address"
        },
        {
          "internalType": "address",
          "name": "_tokenAddress",
          "type": "address"
        },
        {
          "internalType": "string",
          "name": "_tokenName",
          "type": "string"
        },
        {
          "internalType": "string",
          "name": "_category",
          "type": "string"
        },
        {
          "internalType": "uint256",
          "name": "_tokenId",
          "type": "uint256"
        },
        {
          "internalType": "uint256",
          "name": "amount",
          "type": "uint256"
        }
      ],
      "name": "assignTokenStruct",
      "outputs": [],
      "stateMutability": "nonpayable",
      "type": "function"
    },
    {
      "inputs": [
        {
          "internalType": "uint256",
          "name": "_inactivity",
          "type": "uint256"
        },
        {
          "internalType": "uint256",
          "name": "_mail",
          "type": "uint256"
        },
        {
          "internalType": "uint256",
          "name": "_nominee",
          "type": "uint256"
        }
      ],
      "name": "changeTimePeriods",
      "outputs": [],
      "stateMutability": "nonpayable",
      "type": "function"
    },
    {
      "inputs": [
        {
          "internalType": "address",
          "name": "_owner",
          "type": "address"
        }
      ],
      "name": "checkVerification",
      "outputs": [
        {
          "internalType": "bool",
          "name": "",
          "type": "bool"
        }
      ],
      "stateMutability": "view",
      "type": "function"
    },
    {
      "inputs": [
        {
          "internalType": "address",
          "name": "_nominee",
          "type": "address"
        }
      ],
      "name": "claim",
      "outputs": [],
      "stateMutability": "nonpayable",
      "type": "function"
    },
    {
      "inputs": [
        {
          "internalType": "address",
          "name": "_owner",
          "type": "address"
        },
        {
          "internalType": "address",
          "name": "_oldNomineeAddress",
          "type": "address"
        },
        {
          "internalType": "string",
          "name": "_name",
          "type": "string"
        },
        {
          "internalType": "string",
          "name": "_email",
          "type": "string"
        },
        {
          "internalType": "address",
          "name": "_newNomineeAddress",
          "type": "address"
        }
      ],
      "name": "editNomineeDetails",
      "outputs": [],
      "stateMutability": "nonpayable",
      "type": "function"
    },
    {
      "inputs": [
        {
          "internalType": "address",
          "name": "_owner",
          "type": "address"
        }
      ],
      "name": "getAllNominees",
      "outputs": [
        {
          "internalType": "address[]",
          "name": "",
          "type": "address[]"
        }
      ],
      "stateMutability": "view",
      "type": "function"
    },
    {
      "inputs": [
        {
          "internalType": "address",
          "name": "_owner",
          "type": "address"
        }
      ],
      "name": "getAllWhiteListedCharities",
      "outputs": [
        {
          "internalType": "uint256[]",
          "name": "",
          "type": "uint256[]"
        }
      ],
      "stateMutability": "view",
      "type": "function"
    },
    {
      "inputs": [
        {
          "internalType": "address",
          "name": "_owner",
          "type": "address"
        },
        {
          "internalType": "address",
          "name": "_tokenAddress",
          "type": "address"
        }
      ],
      "name": "getIsNominated",
      "outputs": [
        {
          "internalType": "bool",
          "name": "",
          "type": "bool"
        }
      ],
      "stateMutability": "view",
      "type": "function"
    },
    {
      "inputs": [
        {
          "internalType": "address",
          "name": "_nominee",
          "type": "address"
        }
      ],
      "name": "getNomineeDetails",
      "outputs": [
        {
          "components": [
            {
              "internalType": "string",
              "name": "nominee_name",
              "type": "string"
            },
            {
              "internalType": "string",
              "name": "nominee_email",
              "type": "string"
            },
            {
              "internalType": "address",
              "name": "nominee_address",
              "type": "address"
            },
            {
              "internalType": "bool",
              "name": "hasClaimed",
              "type": "bool"
            }
          ],
          "internalType": "struct Inheritokens.Nominee",
          "name": "",
          "type": "tuple"
        }
      ],
      "stateMutability": "view",
      "type": "function"
    },
    {
      "inputs": [
        {
          "internalType": "address",
          "name": "_owner",
          "type": "address"
        }
      ],
      "name": "getOwnerAlive",
      "outputs": [
        {
          "internalType": "bool",
          "name": "",
          "type": "bool"
        }
      ],
      "stateMutability": "view",
      "type": "function"
    },
    {
      "inputs": [
        {
          "internalType": "address",
          "name": "_owner",
          "type": "address"
        }
      ],
      "name": "getOwnerDetails",
      "outputs": [
        {
          "components": [
            {
              "internalType": "string",
              "name": "owner_name",
              "type": "string"
            },
            {
              "internalType": "string",
              "name": "owner_email",
              "type": "string"
            },
            {
              "internalType": "string",
              "name": "image_cid",
              "type": "string"
            },
            {
              "internalType": "bool",
              "name": "isEmailVerified",
              "type": "bool"
            },
            {
              "internalType": "bool",
              "name": "isAlive",
              "type": "bool"
            },
            {
              "internalType": "address",
              "name": "recoveryAddress",
              "type": "address"
            },
            {
              "internalType": "address[]",
              "name": "nominees",
              "type": "address[]"
            },
            {
              "internalType": "uint256[]",
              "name": "charities",
              "type": "uint256[]"
            },
            {
              "internalType": "uint256",
              "name": "monthsOfInactivity",
              "type": "uint256"
            },
            {
              "internalType": "uint256",
              "name": "monthsOfSendingMailToOwner",
              "type": "uint256"
            },
            {
              "internalType": "uint256",
              "name": "monthsForNominee",
              "type": "uint256"
            }
          ],
          "internalType": "struct Inheritokens.Owner",
          "name": "",
          "type": "tuple"
        }
      ],
      "stateMutability": "view",
      "type": "function"
    },
    {
      "inputs": [],
      "name": "getOwners",
      "outputs": [
        {
          "internalType": "address[]",
          "name": "",
          "type": "address[]"
        }
      ],
      "stateMutability": "view",
      "type": "function"
    },
    {
      "inputs": [
        {
          "internalType": "address",
          "name": "_owner",
          "type": "address"
        }
      ],
      "name": "getRecoveryAddress",
      "outputs": [
        {
          "internalType": "address",
          "name": "",
          "type": "address"
        }
      ],
      "stateMutability": "view",
      "type": "function"
    },
    {
      "inputs": [
        {
          "internalType": "address",
          "name": "_owner",
          "type": "address"
        }
      ],
      "name": "getResponse",
      "outputs": [
        {
          "internalType": "bool",
          "name": "",
          "type": "bool"
        }
      ],
      "stateMutability": "view",
      "type": "function"
    },
    {
      "inputs": [
        {
          "internalType": "address",
          "name": "_owner",
          "type": "address"
        }
      ],
      "name": "getResponseDate",
      "outputs": [
        {
          "internalType": "string",
          "name": "",
          "type": "string"
        }
      ],
      "stateMutability": "view",
      "type": "function"
    },
    {
      "inputs": [],
      "name": "getTotalOwners",
      "outputs": [
        {
          "internalType": "uint256",
          "name": "",
          "type": "uint256"
        }
      ],
      "stateMutability": "view",
      "type": "function"
    },
    {
      "inputs": [
        {
          "internalType": "address",
          "name": "",
          "type": "address"
        }
      ],
      "name": "isNomineeAdded",
      "outputs": [
        {
          "internalType": "bool",
          "name": "",
          "type": "bool"
        }
      ],
      "stateMutability": "view",
      "type": "function"
    },
    {
      "inputs": [
        {
          "internalType": "address",
          "name": "",
          "type": "address"
        }
      ],
      "name": "isOwnerAdded",
      "outputs": [
        {
          "internalType": "bool",
          "name": "",
          "type": "bool"
        }
      ],
      "stateMutability": "view",
      "type": "function"
    },
    {
      "inputs": [],
      "name": "owner",
      "outputs": [
        {
          "internalType": "address",
          "name": "",
          "type": "address"
        }
      ],
      "stateMutability": "view",
      "type": "function"
    },
    {
      "inputs": [
        {
          "internalType": "address",
          "name": "",
          "type": "address"
        }
      ],
      "name": "ownerToResponse",
      "outputs": [
        {
          "internalType": "string",
          "name": "date",
          "type": "string"
        },
        {
          "internalType": "bool",
          "name": "isResponsed",
          "type": "bool"
        }
      ],
      "stateMutability": "view",
      "type": "function"
    },
    {
      "inputs": [
        {
          "internalType": "uint256",
          "name": "",
          "type": "uint256"
        }
      ],
      "name": "owners",
      "outputs": [
        {
          "internalType": "address",
          "name": "",
          "type": "address"
        }
      ],
      "stateMutability": "view",
      "type": "function"
    },
    {
      "inputs": [],
      "name": "renounceOwnership",
      "outputs": [],
      "stateMutability": "nonpayable",
      "type": "function"
    },
    {
      "inputs": [
        {
          "internalType": "address",
          "name": "_owner",
          "type": "address"
        }
      ],
      "name": "setOwnerNotAlive",
      "outputs": [],
      "stateMutability": "nonpayable",
      "type": "function"
    },
    {
      "inputs": [
        {
          "internalType": "address",
          "name": "_owner",
          "type": "address"
        },
        {
          "internalType": "bool",
          "name": "_response",
          "type": "bool"
        }
      ],
      "name": "setResponse",
      "outputs": [],
      "stateMutability": "nonpayable",
      "type": "function"
    },
    {
      "inputs": [
        {
          "internalType": "address",
          "name": "_owner",
          "type": "address"
        },
        {
          "internalType": "string",
          "name": "_date",
          "type": "string"
        }
      ],
      "name": "setResponseDate",
      "outputs": [],
      "stateMutability": "nonpayable",
      "type": "function"
    },
    {
      "inputs": [
        {
          "internalType": "address",
          "name": "_owner",
          "type": "address"
        },
        {
          "internalType": "uint256",
          "name": "_charityId",
          "type": "uint256"
        }
      ],
      "name": "setWhiteListedCharities",
      "outputs": [],
      "stateMutability": "nonpayable",
      "type": "function"
    },
    {
      "inputs": [
        {
          "internalType": "address",
          "name": "",
          "type": "address"
        },
        {
          "internalType": "address",
          "name": "",
          "type": "address"
        }
      ],
      "name": "tokenAddressToTokenStruct",
      "outputs": [
        {
          "internalType": "address",
          "name": "token_address",
          "type": "address"
        },
        {
          "internalType": "string",
          "name": "token_name",
          "type": "string"
        },
        {
          "internalType": "string",
          "name": "category",
          "type": "string"
        },
        {
          "internalType": "uint256",
          "name": "token_id",
          "type": "uint256"
        },
        {
          "internalType": "uint256",
          "name": "allocated_share",
          "type": "uint256"
        },
        {
          "internalType": "bool",
          "name": "isNominated",
          "type": "bool"
        }
      ],
      "stateMutability": "view",
      "type": "function"
    },
    {
      "inputs": [
        {
          "internalType": "address",
          "name": "newOwner",
          "type": "address"
        }
      ],
      "name": "transferOwnership",
      "outputs": [],
      "stateMutability": "nonpayable",
      "type": "function"
    },
    {
      "inputs": [
        {
          "internalType": "address",
          "name": "_owner",
          "type": "address"
        },
        {
          "internalType": "address",
          "name": "_tokenAddress",
          "type": "address"
        },
        {
          "internalType": "uint256",
          "name": "amount",
          "type": "uint256"
        }
      ],
      "name": "updateAllocatedShare",
      "outputs": [],
      "stateMutability": "nonpayable",
      "type": "function"
    },
    {
      "inputs": [
        {
          "internalType": "address",
          "name": "_owner",
          "type": "address"
        }
      ],
      "name": "verifyOwnerEmail",
      "outputs": [],
      "stateMutability": "nonpayable",
      "type": "function"
    }
  ],
  "bytecode": "0x60806040523480156200001157600080fd5b5062000032620000266200003860201b60201c565b6200004060201b60201c565b62000104565b600033905090565b60008060009054906101000a900473ffffffffffffffffffffffffffffffffffffffff169050816000806101000a81548173ffffffffffffffffffffffffffffffffffffffff021916908373ffffffffffffffffffffffffffffffffffffffff1602179055508173ffffffffffffffffffffffffffffffffffffffff168173ffffffffffffffffffffffffffffffffffffffff167f8be0079c531659141344cd1fd0a4f28419497f9722a3daafe3b4186f6b6457e060405160405180910390a35050565b61413780620001146000396000f3fe608060405234801561001057600080fd5b50600436106102115760003560e01c80638e5d209911610125578063cd0e5091116100ad578063e62d4f7c1161007c578063e62d4f7c1461068f578063e822cd5c146106bf578063e9c15555146106db578063f2fde38b146106f7578063f80097851461071357610211565b8063cd0e5091146105db578063cf751c441461060b578063db23f9f31461063c578063de508c5b1461065a57610211565b8063a6072445116100f4578063a607244514610527578063baab979714610543578063bece996814610573578063c3bb81211461058f578063cb144b39146105bf57610211565b80638e5d2099146104a157806392f82048146104d1578063a0e67e2b146104ed578063a5394b391461050b57610211565b80634950956e116101a85780636199997f116101775780636199997f146103e95780636a5e893814610419578063715018a61461044957806376f0ffc6146104535780638da5cb5b1461048357610211565b80634950956e1461033a578063511865e91461036a57806354add3e71461039a5780635a863c11146103b657610211565b8063348f0a93116101e4578063348f0a93146102b657806337950bfe146102d25780633bf01bf8146102ee578063433a05b01461030a57610211565b8063025e7c271461021657806306d1681d14610246578063159305e1146102625780631e83409a1461029a575b600080fd5b610230600480360381019061022b9190612c24565b610743565b60405161023d9190612c92565b60405180910390f35b610260600480360381019061025b9190612cd9565b610782565b005b61027c60048036038101906102779190612cd9565b610904565b60405161029199989796959493929190612dc0565b60405180910390f35b6102b460048036038101906102af9190612cd9565b610b24565b005b6102d060048036038101906102cb9190612e62565b610b82565b005b6102ec60048036038101906102e79190612ea2565b610bef565b005b6103086004803603810190610303919061302a565b610cc9565b005b610324600480360381019061031f9190612cd9565b610e3d565b60405161033191906130ef565b60405180910390f35b610354600480360381019061034f9190612cd9565b610e96565b60405161036191906131dc565b60405180910390f35b610384600480360381019061037f9190612cd9565b611084565b6040516103919190612c92565b60405180910390f35b6103b460048036038101906103af91906131fe565b6110f0565b005b6103d060048036038101906103cb9190612cd9565b61114c565b6040516103e0949392919061325a565b60405180910390f35b61040360048036038101906103fe9190612cd9565b6112b9565b60405161041091906130ef565b60405180910390f35b610433600480360381019061042e9190612cd9565b611312565b60405161044091906132ad565b60405180910390f35b6104516113e6565b005b61046d60048036038101906104689190612cd9565b6113fa565b60405161047a91906130ef565b60405180910390f35b61048b61141a565b6040516104989190612c92565b60405180910390f35b6104bb60048036038101906104b691906132cf565b611443565b6040516104c891906130ef565b60405180910390f35b6104eb60048036038101906104e6919061330f565b6114da565b005b6104f561188e565b6040516105029190613471565b60405180910390f35b61052560048036038101906105209190612cd9565b61191c565b005b610541600480360381019061053c91906134bf565b611982565b005b61055d60048036038101906105589190612cd9565b6119e0565b60405161056a91906130ef565b60405180910390f35b61058d600480360381019061058891906132cf565b611a39565b005b6105a960048036038101906105a49190612cd9565b611abe565b6040516105b69190613737565b60405180910390f35b6105d960048036038101906105d49190613759565b611e5e565b005b6105f560048036038101906105f09190612cd9565b61212e565b60405161060291906130ef565b60405180910390f35b61062560048036038101906106209190612cd9565b61214e565b6040516106339291906137e4565b60405180910390f35b610644612207565b6040516106519190613814565b60405180910390f35b610674600480360381019061066f91906132cf565b612214565b6040516106869695949392919061382f565b60405180910390f35b6106a960048036038101906106a49190612cd9565b61239a565b6040516106b6919061390d565b60405180910390f35b6106d960048036038101906106d4919061392f565b612434565b005b6106f560048036038101906106f091906139ea565b612800565b005b610711600480360381019061070c9190612cd9565b612889565b005b61072d60048036038101906107289190612cd9565b61290c565b60405161073a9190613471565b60405180910390f35b6001818154811061075357600080fd5b906000526020600020016000915054906101000a900473ffffffffffffffffffffffffffffffffffffffff1681565b61078a6129dc565b600260008273ffffffffffffffffffffffffffffffffffffffff1673ffffffffffffffffffffffffffffffffffffffff16815260200190815260200160002060009054906101000a900460ff16610816576040517f08c379a000000000000000000000000000000000000000000000000000000000815260040161080d90613a89565b60405180910390fd5b600360008273ffffffffffffffffffffffffffffffffffffffff1673ffffffffffffffffffffffffffffffffffffffff16815260200190815260200160002060030160009054906101000a900460ff16156108a6576040517f08c379a000000000000000000000000000000000000000000000000000000000815260040161089d90613af5565b60405180910390fd5b6001600360008373ffffffffffffffffffffffffffffffffffffffff1673ffffffffffffffffffffffffffffffffffffffff16815260200190815260200160002060030160006101000a81548160ff02191690831515021790555050565b600360205280600052604060002060009150905080600001805461092790613b44565b80601f016020809104026020016040519081016040528092919081815260200182805461095390613b44565b80156109a05780601f10610975576101008083540402835291602001916109a0565b820191906000526020600020905b81548152906001019060200180831161098357829003601f168201915b5050505050908060010180546109b590613b44565b80601f01602080910402602001604051908101604052809291908181526020018280546109e190613b44565b8015610a2e5780601f10610a0357610100808354040283529160200191610a2e565b820191906000526020600020905b815481529060010190602001808311610a1157829003601f168201915b505050505090806002018054610a4390613b44565b80601f0160208091040260200160405190810160405280929190818152602001828054610a6f90613b44565b8015610abc5780601f10610a9157610100808354040283529160200191610abc565b820191906000526020600020905b815481529060010190602001808311610a9f57829003601f168201915b5050505050908060030160009054906101000a900460ff16908060030160019054906101000a900460ff16908060030160029054906101000a900473ffffffffffffffffffffffffffffffffffffffff16908060060154908060070154908060080154905089565b6001600460008373ffffffffffffffffffffffffffffffffffffffff1673ffffffffffffffffffffffffffffffffffffffff16815260200190815260200160002060020160146101000a81548160ff02191690831515021790555050565b600360008373ffffffffffffffffffffffffffffffffffffffff1673ffffffffffffffffffffffffffffffffffffffff1681526020019081526020016000206005018190806001815401808255809150506001900390600052602060002001600090919091909150555050565b82600360003373ffffffffffffffffffffffffffffffffffffffff1673ffffffffffffffffffffffffffffffffffffffff1681526020019081526020016000206006018190555081600360003373ffffffffffffffffffffffffffffffffffffffff1673ffffffffffffffffffffffffffffffffffffffff1681526020019081526020016000206007018190555080600360003373ffffffffffffffffffffffffffffffffffffffff1673ffffffffffffffffffffffffffffffffffffffff16815260200190815260200160002060080181905550505050565b6040518060c001604052808673ffffffffffffffffffffffffffffffffffffffff16815260200185815260200184815260200183815260200182815260200160011515815250600660008873ffffffffffffffffffffffffffffffffffffffff1673ffffffffffffffffffffffffffffffffffffffff16815260200190815260200160002060008773ffffffffffffffffffffffffffffffffffffffff1673ffffffffffffffffffffffffffffffffffffffff16815260200190815260200160002060008201518160000160006101000a81548173ffffffffffffffffffffffffffffffffffffffff021916908373ffffffffffffffffffffffffffffffffffffffff1602179055506020820151816001019081610de79190613d21565b506040820151816002019081610dfd9190613d21565b50606082015181600301556080820151816004015560a08201518160050160006101000a81548160ff021916908315150217905550905050505050505050565b6000600760008373ffffffffffffffffffffffffffffffffffffffff1673ffffffffffffffffffffffffffffffffffffffff16815260200190815260200160002060010160009054906101000a900460ff169050919050565b610e9e612b26565b600460008373ffffffffffffffffffffffffffffffffffffffff1673ffffffffffffffffffffffffffffffffffffffff168152602001908152602001600020604051806080016040529081600082018054610ef890613b44565b80601f0160208091040260200160405190810160405280929190818152602001828054610f2490613b44565b8015610f715780601f10610f4657610100808354040283529160200191610f71565b820191906000526020600020905b815481529060010190602001808311610f5457829003601f168201915b50505050508152602001600182018054610f8a90613b44565b80601f0160208091040260200160405190810160405280929190818152602001828054610fb690613b44565b80156110035780601f10610fd857610100808354040283529160200191611003565b820191906000526020600020905b815481529060010190602001808311610fe657829003601f168201915b505050505081526020016002820160009054906101000a900473ffffffffffffffffffffffffffffffffffffffff1673ffffffffffffffffffffffffffffffffffffffff1673ffffffffffffffffffffffffffffffffffffffff1681526020016002820160149054906101000a900460ff1615151515815250509050919050565b6000600360008373ffffffffffffffffffffffffffffffffffffffff1673ffffffffffffffffffffffffffffffffffffffff16815260200190815260200160002060030160029054906101000a900473ffffffffffffffffffffffffffffffffffffffff169050919050565b6110f86129dc565b80600760008473ffffffffffffffffffffffffffffffffffffffff1673ffffffffffffffffffffffffffffffffffffffff16815260200190815260200160002060000190816111479190613d21565b505050565b600460205280600052604060002060009150905080600001805461116f90613b44565b80601f016020809104026020016040519081016040528092919081815260200182805461119b90613b44565b80156111e85780601f106111bd576101008083540402835291602001916111e8565b820191906000526020600020905b8154815290600101906020018083116111cb57829003601f168201915b5050505050908060010180546111fd90613b44565b80601f016020809104026020016040519081016040528092919081815260200182805461122990613b44565b80156112765780601f1061124b57610100808354040283529160200191611276565b820191906000526020600020905b81548152906001019060200180831161125957829003601f168201915b5050505050908060020160009054906101000a900473ffffffffffffffffffffffffffffffffffffffff16908060020160149054906101000a900460ff16905084565b6000600360008373ffffffffffffffffffffffffffffffffffffffff1673ffffffffffffffffffffffffffffffffffffffff16815260200190815260200160002060030160019054906101000a900460ff169050919050565b6060600760008373ffffffffffffffffffffffffffffffffffffffff1673ffffffffffffffffffffffffffffffffffffffff168152602001908152602001600020600001805461136190613b44565b80601f016020809104026020016040519081016040528092919081815260200182805461138d90613b44565b80156113da5780601f106113af576101008083540402835291602001916113da565b820191906000526020600020905b8154815290600101906020018083116113bd57829003601f168201915b50505050509050919050565b6113ee6129dc565b6113f86000612a5a565b565b60026020528060005260406000206000915054906101000a900460ff1681565b60008060009054906101000a900473ffffffffffffffffffffffffffffffffffffffff16905090565b6000600660008473ffffffffffffffffffffffffffffffffffffffff1673ffffffffffffffffffffffffffffffffffffffff16815260200190815260200160002060008373ffffffffffffffffffffffffffffffffffffffff1673ffffffffffffffffffffffffffffffffffffffff16815260200190815260200160002060050160009054906101000a900460ff16905092915050565b8073ffffffffffffffffffffffffffffffffffffffff168473ffffffffffffffffffffffffffffffffffffffff16036115b25782600460008673ffffffffffffffffffffffffffffffffffffffff1673ffffffffffffffffffffffffffffffffffffffff168152602001908152602001600020600001908161155c9190613d21565b5081600460008673ffffffffffffffffffffffffffffffffffffffff1673ffffffffffffffffffffffffffffffffffffffff16815260200190815260200160002060010190816115ac9190613d21565b50611887565b82600460008373ffffffffffffffffffffffffffffffffffffffff1673ffffffffffffffffffffffffffffffffffffffff16815260200190815260200160002060000190816116019190613d21565b5081600460008373ffffffffffffffffffffffffffffffffffffffff1673ffffffffffffffffffffffffffffffffffffffff16815260200190815260200160002060010190816116519190613d21565b5080600460008373ffffffffffffffffffffffffffffffffffffffff1673ffffffffffffffffffffffffffffffffffffffff16815260200190815260200160002060020160006101000a81548173ffffffffffffffffffffffffffffffffffffffff021916908373ffffffffffffffffffffffffffffffffffffffff16021790555060005b600360008773ffffffffffffffffffffffffffffffffffffffff1673ffffffffffffffffffffffffffffffffffffffff16815260200190815260200160002060040180549050811015611885578473ffffffffffffffffffffffffffffffffffffffff16600360008873ffffffffffffffffffffffffffffffffffffffff1673ffffffffffffffffffffffffffffffffffffffff168152602001908152602001600020600401828154811061178e5761178d613df3565b5b9060005260206000200160009054906101000a900473ffffffffffffffffffffffffffffffffffffffff1673ffffffffffffffffffffffffffffffffffffffff16036118725781600360008873ffffffffffffffffffffffffffffffffffffffff1673ffffffffffffffffffffffffffffffffffffffff168152602001908152602001600020600401828154811061182957611828613df3565b5b9060005260206000200160006101000a81548173ffffffffffffffffffffffffffffffffffffffff021916908373ffffffffffffffffffffffffffffffffffffffff1602179055505b808061187d90613e51565b9150506116d6565b505b5050505050565b6060600180548060200260200160405190810160405280929190818152602001828054801561191257602002820191906000526020600020905b8160009054906101000a900473ffffffffffffffffffffffffffffffffffffffff1673ffffffffffffffffffffffffffffffffffffffff16815260200190600101908083116118c8575b5050505050905090565b6119246129dc565b6000600360008373ffffffffffffffffffffffffffffffffffffffff1673ffffffffffffffffffffffffffffffffffffffff16815260200190815260200160002060030160016101000a81548160ff02191690831515021790555050565b80600760008473ffffffffffffffffffffffffffffffffffffffff1673ffffffffffffffffffffffffffffffffffffffff16815260200190815260200160002060010160006101000a81548160ff0219169083151502179055505050565b6000600360008373ffffffffffffffffffffffffffffffffffffffff1673ffffffffffffffffffffffffffffffffffffffff16815260200190815260200160002060030160009054906101000a900460ff169050919050565b80600360008473ffffffffffffffffffffffffffffffffffffffff1673ffffffffffffffffffffffffffffffffffffffff16815260200190815260200160002060030160026101000a81548173ffffffffffffffffffffffffffffffffffffffff021916908373ffffffffffffffffffffffffffffffffffffffff1602179055505050565b611ac6612b66565b600360008373ffffffffffffffffffffffffffffffffffffffff1673ffffffffffffffffffffffffffffffffffffffff16815260200190815260200160002060405180610160016040529081600082018054611b2190613b44565b80601f0160208091040260200160405190810160405280929190818152602001828054611b4d90613b44565b8015611b9a5780601f10611b6f57610100808354040283529160200191611b9a565b820191906000526020600020905b815481529060010190602001808311611b7d57829003601f168201915b50505050508152602001600182018054611bb390613b44565b80601f0160208091040260200160405190810160405280929190818152602001828054611bdf90613b44565b8015611c2c5780601f10611c0157610100808354040283529160200191611c2c565b820191906000526020600020905b815481529060010190602001808311611c0f57829003601f168201915b50505050508152602001600282018054611c4590613b44565b80601f0160208091040260200160405190810160405280929190818152602001828054611c7190613b44565b8015611cbe5780601f10611c9357610100808354040283529160200191611cbe565b820191906000526020600020905b815481529060010190602001808311611ca157829003601f168201915b505050505081526020016003820160009054906101000a900460ff161515151581526020016003820160019054906101000a900460ff161515151581526020016003820160029054906101000a900473ffffffffffffffffffffffffffffffffffffffff1673ffffffffffffffffffffffffffffffffffffffff1673ffffffffffffffffffffffffffffffffffffffff16815260200160048201805480602002602001604051908101604052809291908181526020018280548015611dd857602002820191906000526020600020905b8160009054906101000a900473ffffffffffffffffffffffffffffffffffffffff1673ffffffffffffffffffffffffffffffffffffffff1681526020019060010190808311611d8e575b5050505050815260200160058201805480602002602001604051908101604052809291908181526020018280548015611e3057602002820191906000526020600020905b815481526020019060010190808311611e1c575b5050505050815260200160068201548152602001600782015481526020016008820154815250509050919050565b600260003373ffffffffffffffffffffffffffffffffffffffff1673ffffffffffffffffffffffffffffffffffffffff16815260200190815260200160002060009054906101000a900460ff16611eea576040517f08c379a0000000000000000000000000000000000000000000000000000000008152600401611ee190613f0b565b60405180910390fd5b600560008273ffffffffffffffffffffffffffffffffffffffff1673ffffffffffffffffffffffffffffffffffffffff16815260200190815260200160002060009054906101000a900460ff1615611f77576040517f08c379a0000000000000000000000000000000000000000000000000000000008152600401611f6e90613f77565b60405180910390fd5b60405180608001604052808481526020018381526020018273ffffffffffffffffffffffffffffffffffffffff16815260200160001515815250600460008373ffffffffffffffffffffffffffffffffffffffff1673ffffffffffffffffffffffffffffffffffffffff16815260200190815260200160002060008201518160000190816120059190613d21565b50602082015181600101908161201b9190613d21565b5060408201518160020160006101000a81548173ffffffffffffffffffffffffffffffffffffffff021916908373ffffffffffffffffffffffffffffffffffffffff16021790555060608201518160020160146101000a81548160ff021916908315150217905550905050600360003373ffffffffffffffffffffffffffffffffffffffff1673ffffffffffffffffffffffffffffffffffffffff168152602001908152602001600020600401819080600181540180825580915050600190039060005260206000200160009091909190916101000a81548173ffffffffffffffffffffffffffffffffffffffff021916908373ffffffffffffffffffffffffffffffffffffffff160217905550505050565b60056020528060005260406000206000915054906101000a900460ff1681565b600760205280600052604060002060009150905080600001805461217190613b44565b80601f016020809104026020016040519081016040528092919081815260200182805461219d90613b44565b80156121ea5780601f106121bf576101008083540402835291602001916121ea565b820191906000526020600020905b8154815290600101906020018083116121cd57829003601f168201915b5050505050908060010160009054906101000a900460ff16905082565b6000600180549050905090565b6006602052816000526040600020602052806000526040600020600091509150508060000160009054906101000a900473ffffffffffffffffffffffffffffffffffffffff169080600101805461226a90613b44565b80601f016020809104026020016040519081016040528092919081815260200182805461229690613b44565b80156122e35780601f106122b8576101008083540402835291602001916122e3565b820191906000526020600020905b8154815290600101906020018083116122c657829003601f168201915b5050505050908060020180546122f890613b44565b80601f016020809104026020016040519081016040528092919081815260200182805461232490613b44565b80156123715780601f1061234657610100808354040283529160200191612371565b820191906000526020600020905b81548152906001019060200180831161235457829003601f168201915b5050505050908060030154908060040154908060050160009054906101000a900460ff16905086565b6060600360008373ffffffffffffffffffffffffffffffffffffffff1673ffffffffffffffffffffffffffffffffffffffff16815260200190815260200160002060050180548060200260200160405190810160405280929190818152602001828054801561242857602002820191906000526020600020905b815481526020019060010190808311612414575b50505050509050919050565b600260003373ffffffffffffffffffffffffffffffffffffffff1673ffffffffffffffffffffffffffffffffffffffff16815260200190815260200160002060009054906101000a900460ff16156124c1576040517f08c379a00000000000000000000000000000000000000000000000000000000081526004016124b890613fe3565b60405180910390fd5b6001339080600181540180825580915050600190039060005260206000200160009091909190916101000a81548173ffffffffffffffffffffffffffffffffffffffff021916908373ffffffffffffffffffffffffffffffffffffffff16021790555083600360003373ffffffffffffffffffffffffffffffffffffffff1673ffffffffffffffffffffffffffffffffffffffff16815260200190815260200160002060000190816125739190613d21565b5082600360003373ffffffffffffffffffffffffffffffffffffffff1673ffffffffffffffffffffffffffffffffffffffff16815260200190815260200160002060010190816125c39190613d21565b5081600360003373ffffffffffffffffffffffffffffffffffffffff1673ffffffffffffffffffffffffffffffffffffffff16815260200190815260200160002060020190816126139190613d21565b506000600360003373ffffffffffffffffffffffffffffffffffffffff1673ffffffffffffffffffffffffffffffffffffffff16815260200190815260200160002060030160006101000a81548160ff0219169083151502179055506001600360003373ffffffffffffffffffffffffffffffffffffffff1673ffffffffffffffffffffffffffffffffffffffff16815260200190815260200160002060030160016101000a81548160ff0219169083151502179055506006600360003373ffffffffffffffffffffffffffffffffffffffff1673ffffffffffffffffffffffffffffffffffffffff168152602001908152602001600020600601819055506002600360003373ffffffffffffffffffffffffffffffffffffffff1673ffffffffffffffffffffffffffffffffffffffff168152602001908152602001600020600701819055506002600360003373ffffffffffffffffffffffffffffffffffffffff1673ffffffffffffffffffffffffffffffffffffffff168152602001908152602001600020600801819055506001600260003373ffffffffffffffffffffffffffffffffffffffff1673ffffffffffffffffffffffffffffffffffffffff16815260200190815260200160002060006101000a81548160ff02191690831515021790555050505050565b80600660008573ffffffffffffffffffffffffffffffffffffffff1673ffffffffffffffffffffffffffffffffffffffff16815260200190815260200160002060008473ffffffffffffffffffffffffffffffffffffffff1673ffffffffffffffffffffffffffffffffffffffff16815260200190815260200160002060040181905550505050565b6128916129dc565b600073ffffffffffffffffffffffffffffffffffffffff168173ffffffffffffffffffffffffffffffffffffffff1603612900576040517f08c379a00000000000000000000000000000000000000000000000000000000081526004016128f790614075565b60405180910390fd5b61290981612a5a565b50565b6060600360008373ffffffffffffffffffffffffffffffffffffffff1673ffffffffffffffffffffffffffffffffffffffff1681526020019081526020016000206004018054806020026020016040519081016040528092919081815260200182805480156129d057602002820191906000526020600020905b8160009054906101000a900473ffffffffffffffffffffffffffffffffffffffff1673ffffffffffffffffffffffffffffffffffffffff1681526020019060010190808311612986575b50505050509050919050565b6129e4612b1e565b73ffffffffffffffffffffffffffffffffffffffff16612a0261141a565b73ffffffffffffffffffffffffffffffffffffffff1614612a58576040517f08c379a0000000000000000000000000000000000000000000000000000000008152600401612a4f906140e1565b60405180910390fd5b565b60008060009054906101000a900473ffffffffffffffffffffffffffffffffffffffff169050816000806101000a81548173ffffffffffffffffffffffffffffffffffffffff021916908373ffffffffffffffffffffffffffffffffffffffff1602179055508173ffffffffffffffffffffffffffffffffffffffff168173ffffffffffffffffffffffffffffffffffffffff167f8be0079c531659141344cd1fd0a4f28419497f9722a3daafe3b4186f6b6457e060405160405180910390a35050565b600033905090565b60405180608001604052806060815260200160608152602001600073ffffffffffffffffffffffffffffffffffffffff1681526020016000151581525090565b604051806101600160405280606081526020016060815260200160608152602001600015158152602001600015158152602001600073ffffffffffffffffffffffffffffffffffffffff16815260200160608152602001606081526020016000815260200160008152602001600081525090565b6000604051905090565b600080fd5b600080fd5b6000819050919050565b612c0181612bee565b8114612c0c57600080fd5b50565b600081359050612c1e81612bf8565b92915050565b600060208284031215612c3a57612c39612be4565b5b6000612c4884828501612c0f565b91505092915050565b600073ffffffffffffffffffffffffffffffffffffffff82169050919050565b6000612c7c82612c51565b9050919050565b612c8c81612c71565b82525050565b6000602082019050612ca76000830184612c83565b92915050565b612cb681612c71565b8114612cc157600080fd5b50565b600081359050612cd381612cad565b92915050565b600060208284031215612cef57612cee612be4565b5b6000612cfd84828501612cc4565b91505092915050565b600081519050919050565b600082825260208201905092915050565b60005b83811015612d40578082015181840152602081019050612d25565b60008484015250505050565b6000601f19601f8301169050919050565b6000612d6882612d06565b612d728185612d11565b9350612d82818560208601612d22565b612d8b81612d4c565b840191505092915050565b60008115159050919050565b612dab81612d96565b82525050565b612dba81612bee565b82525050565b6000610120820190508181036000830152612ddb818c612d5d565b90508181036020830152612def818b612d5d565b90508181036040830152612e03818a612d5d565b9050612e126060830189612da2565b612e1f6080830188612da2565b612e2c60a0830187612c83565b612e3960c0830186612db1565b612e4660e0830185612db1565b612e54610100830184612db1565b9a9950505050505050505050565b60008060408385031215612e7957612e78612be4565b5b6000612e8785828601612cc4565b9250506020612e9885828601612c0f565b9150509250929050565b600080600060608486031215612ebb57612eba612be4565b5b6000612ec986828701612c0f565b9350506020612eda86828701612c0f565b9250506040612eeb86828701612c0f565b9150509250925092565b600080fd5b600080fd5b7f4e487b7100000000000000000000000000000000000000000000000000000000600052604160045260246000fd5b612f3782612d4c565b810181811067ffffffffffffffff82111715612f5657612f55612eff565b5b80604052505050565b6000612f69612bda565b9050612f758282612f2e565b919050565b600067ffffffffffffffff821115612f9557612f94612eff565b5b612f9e82612d4c565b9050602081019050919050565b82818337600083830152505050565b6000612fcd612fc884612f7a565b612f5f565b905082815260208101848484011115612fe957612fe8612efa565b5b612ff4848285612fab565b509392505050565b600082601f83011261301157613010612ef5565b5b8135613021848260208601612fba565b91505092915050565b60008060008060008060c0878903121561304757613046612be4565b5b600061305589828a01612cc4565b965050602061306689828a01612cc4565b955050604087013567ffffffffffffffff81111561308757613086612be9565b5b61309389828a01612ffc565b945050606087013567ffffffffffffffff8111156130b4576130b3612be9565b5b6130c089828a01612ffc565b93505060806130d189828a01612c0f565b92505060a06130e289828a01612c0f565b9150509295509295509295565b60006020820190506131046000830184612da2565b92915050565b600082825260208201905092915050565b600061312682612d06565b613130818561310a565b9350613140818560208601612d22565b61314981612d4c565b840191505092915050565b61315d81612c71565b82525050565b61316c81612d96565b82525050565b6000608083016000830151848203600086015261318f828261311b565b915050602083015184820360208601526131a9828261311b565b91505060408301516131be6040860182613154565b5060608301516131d16060860182613163565b508091505092915050565b600060208201905081810360008301526131f68184613172565b905092915050565b6000806040838503121561321557613214612be4565b5b600061322385828601612cc4565b925050602083013567ffffffffffffffff81111561324457613243612be9565b5b61325085828601612ffc565b9150509250929050565b600060808201905081810360008301526132748187612d5d565b905081810360208301526132888186612d5d565b90506132976040830185612c83565b6132a46060830184612da2565b95945050505050565b600060208201905081810360008301526132c78184612d5d565b905092915050565b600080604083850312156132e6576132e5612be4565b5b60006132f485828601612cc4565b925050602061330585828601612cc4565b9150509250929050565b600080600080600060a0868803121561332b5761332a612be4565b5b600061333988828901612cc4565b955050602061334a88828901612cc4565b945050604086013567ffffffffffffffff81111561336b5761336a612be9565b5b61337788828901612ffc565b935050606086013567ffffffffffffffff81111561339857613397612be9565b5b6133a488828901612ffc565b92505060806133b588828901612cc4565b9150509295509295909350565b600081519050919050565b600082825260208201905092915050565b6000819050602082019050919050565b60006133fa8383613154565b60208301905092915050565b6000602082019050919050565b600061341e826133c2565b61342881856133cd565b9350613433836133de565b8060005b8381101561346457815161344b88826133ee565b975061345683613406565b925050600181019050613437565b5085935050505092915050565b6000602082019050818103600083015261348b8184613413565b905092915050565b61349c81612d96565b81146134a757600080fd5b50565b6000813590506134b981613493565b92915050565b600080604083850312156134d6576134d5612be4565b5b60006134e485828601612cc4565b92505060206134f5858286016134aa565b9150509250929050565b600082825260208201905092915050565b600061351b826133c2565b61352581856134ff565b9350613530836133de565b8060005b8381101561356157815161354888826133ee565b975061355383613406565b925050600181019050613534565b5085935050505092915050565b600081519050919050565b600082825260208201905092915050565b6000819050602082019050919050565b6135a381612bee565b82525050565b60006135b5838361359a565b60208301905092915050565b6000602082019050919050565b60006135d98261356e565b6135e38185613579565b93506135ee8361358a565b8060005b8381101561361f57815161360688826135a9565b9750613611836135c1565b9250506001810190506135f2565b5085935050505092915050565b600061016083016000830151848203600086015261364a828261311b565b91505060208301518482036020860152613664828261311b565b9150506040830151848203604086015261367e828261311b565b91505060608301516136936060860182613163565b5060808301516136a66080860182613163565b5060a08301516136b960a0860182613154565b5060c083015184820360c08601526136d18282613510565b91505060e083015184820360e08601526136eb82826135ce565b91505061010083015161370261010086018261359a565b5061012083015161371761012086018261359a565b5061014083015161372c61014086018261359a565b508091505092915050565b60006020820190508181036000830152613751818461362c565b905092915050565b60008060006060848603121561377257613771612be4565b5b600084013567ffffffffffffffff8111156137905761378f612be9565b5b61379c86828701612ffc565b935050602084013567ffffffffffffffff8111156137bd576137bc612be9565b5b6137c986828701612ffc565b92505060406137da86828701612cc4565b9150509250925092565b600060408201905081810360008301526137fe8185612d5d565b905061380d6020830184612da2565b9392505050565b60006020820190506138296000830184612db1565b92915050565b600060c0820190506138446000830189612c83565b81810360208301526138568188612d5d565b9050818103604083015261386a8187612d5d565b90506138796060830186612db1565b6138866080830185612db1565b61389360a0830184612da2565b979650505050505050565b600082825260208201905092915050565b60006138ba8261356e565b6138c4818561389e565b93506138cf8361358a565b8060005b838110156139005781516138e788826135a9565b97506138f2836135c1565b9250506001810190506138d3565b5085935050505092915050565b6000602082019050818103600083015261392781846138af565b905092915050565b6000806000806080858703121561394957613948612be4565b5b600085013567ffffffffffffffff81111561396757613966612be9565b5b61397387828801612ffc565b945050602085013567ffffffffffffffff81111561399457613993612be9565b5b6139a087828801612ffc565b935050604085013567ffffffffffffffff8111156139c1576139c0612be9565b5b6139cd87828801612ffc565b92505060606139de87828801612c0f565b91505092959194509250565b600080600060608486031215613a0357613a02612be4565b5b6000613a1186828701612cc4565b9350506020613a2286828701612cc4565b9250506040613a3386828701612c0f565b9150509250925092565b7f466972737420646f20726567697374726174696f6e0000000000000000000000600082015250565b6000613a73601583612d11565b9150613a7e82613a3d565b602082019050919050565b60006020820190508181036000830152613aa281613a66565b9050919050565b7f416c726561647920796f757220656d61696c2069732076657269666965640000600082015250565b6000613adf601e83612d11565b9150613aea82613aa9565b602082019050919050565b60006020820190508181036000830152613b0e81613ad2565b9050919050565b7f4e487b7100000000000000000000000000000000000000000000000000000000600052602260045260246000fd5b60006002820490506001821680613b5c57607f821691505b602082108103613b6f57613b6e613b15565b5b50919050565b60008190508160005260206000209050919050565b60006020601f8301049050919050565b600082821b905092915050565b600060088302613bd77fffffffffffffffffffffffffffffffffffffffffffffffffffffffffffffffff82613b9a565b613be18683613b9a565b95508019841693508086168417925050509392505050565b6000819050919050565b6000613c1e613c19613c1484612bee565b613bf9565b612bee565b9050919050565b6000819050919050565b613c3883613c03565b613c4c613c4482613c25565b848454613ba7565b825550505050565b600090565b613c61613c54565b613c6c818484613c2f565b505050565b5b81811015613c9057613c85600082613c59565b600181019050613c72565b5050565b601f821115613cd557613ca681613b75565b613caf84613b8a565b81016020851015613cbe578190505b613cd2613cca85613b8a565b830182613c71565b50505b505050565b600082821c905092915050565b6000613cf860001984600802613cda565b1980831691505092915050565b6000613d118383613ce7565b9150826002028217905092915050565b613d2a82612d06565b67ffffffffffffffff811115613d4357613d42612eff565b5b613d4d8254613b44565b613d58828285613c94565b600060209050601f831160018114613d8b5760008415613d79578287015190505b613d838582613d05565b865550613deb565b601f198416613d9986613b75565b60005b82811015613dc157848901518255600182019150602085019450602081019050613d9c565b86831015613dde5784890151613dda601f891682613ce7565b8355505b6001600288020188555050505b505050505050565b7f4e487b7100000000000000000000000000000000000000000000000000000000600052603260045260246000fd5b7f4e487b7100000000000000000000000000000000000000000000000000000000600052601160045260246000fd5b6000613e5c82612bee565b91507fffffffffffffffffffffffffffffffffffffffffffffffffffffffffffffffff8203613e8e57613e8d613e22565b5b600182019050919050565b7f466972737420726567697374657220616e642076657269667920796f7572206560008201527f6d61696c00000000000000000000000000000000000000000000000000000000602082015250565b6000613ef5602483612d11565b9150613f0082613e99565b604082019050919050565b60006020820190508181036000830152613f2481613ee8565b9050919050565b7f4e6f6d696e656520697320616c72656164792061646465640000000000000000600082015250565b6000613f61601883612d11565b9150613f6c82613f2b565b602082019050919050565b60006020820190508181036000830152613f9081613f54565b9050919050565b7f416c726561647920726567697374657265640000000000000000000000000000600082015250565b6000613fcd601283612d11565b9150613fd882613f97565b602082019050919050565b60006020820190508181036000830152613ffc81613fc0565b9050919050565b7f4f776e61626c653a206e6577206f776e657220697320746865207a65726f206160008201527f6464726573730000000000000000000000000000000000000000000000000000602082015250565b600061405f602683612d11565b915061406a82614003565b604082019050919050565b6000602082019050818103600083015261408e81614052565b9050919050565b7f4f776e61626c653a2063616c6c6572206973206e6f7420746865206f776e6572600082015250565b60006140cb602083612d11565b91506140d682614095565b602082019050919050565b600060208201905081810360008301526140fa816140be565b905091905056fea26469706673582212205e974fb28a1f8d03ed39144809337378f5a8eff002f87521b53a87850d3a9f0264736f6c63430008110033",
  "linkReferences": {},
  "deployedLinkReferences": {}
}