{
  "_format": "hh-sol-artifact-1",
  "contractName": "Inheritokens",
  "sourceName": "contracts/Inheritokens.sol",
  "abi": [
    {
      "inputs": [],
      "stateMutability": "nonpayable",
      "type": "constructor"
    },
    {
      "anonymous": false,
      "inputs": [
        {
          "indexed": true,
          "internalType": "address",
          "name": "_owner",
          "type": "address"
        },
        {
          "indexed": true,
          "internalType": "address",
          "name": "_tokenAddress",
          "type": "address"
        },
        {
          "indexed": false,
          "internalType": "uint256",
          "name": "_amount",
          "type": "uint256"
        }
      ],
      "name": "AllocatedShareUpdated",
      "type": "event"
    },
    {
      "anonymous": false,
      "inputs": [
        {
          "indexed": true,
          "internalType": "address",
          "name": "_owner",
          "type": "address"
        },
        {
          "indexed": false,
          "internalType": "uint256",
          "name": "_charityId",
          "type": "uint256"
        }
      ],
      "name": "CharityWhitelisted",
      "type": "event"
    },
    {
      "anonymous": false,
      "inputs": [
        {
          "indexed": true,
          "internalType": "address",
          "name": "_owner",
          "type": "address"
        },
        {
          "indexed": true,
          "internalType": "address",
          "name": "_nominee",
          "type": "address"
        },
        {
          "indexed": true,
          "internalType": "address",
          "name": "_tokenAddress",
          "type": "address"
        },
        {
          "indexed": false,
          "internalType": "uint256",
          "name": "_tokenId",
          "type": "uint256"
        }
      ],
      "name": "Claimed",
      "type": "event"
    },
    {
      "anonymous": false,
      "inputs": [
        {
          "indexed": true,
          "internalType": "address",
          "name": "_owner",
          "type": "address"
        }
      ],
      "name": "EmailVerified",
      "type": "event"
    },
    {
      "anonymous": false,
      "inputs": [
        {
          "indexed": true,
          "internalType": "address",
          "name": "_owner",
          "type": "address"
        },
        {
          "indexed": false,
          "internalType": "address",
          "name": "_nominee",
          "type": "address"
        },
        {
          "indexed": false,
          "internalType": "string",
          "name": "_name",
          "type": "string"
        },
        {
          "indexed": false,
          "internalType": "string",
          "name": "_mail",
          "type": "string"
        }
      ],
      "name": "NomineeAdded",
      "type": "event"
    },
    {
      "anonymous": false,
      "inputs": [
        {
          "indexed": true,
          "internalType": "address",
          "name": "_owner",
          "type": "address"
        },
        {
          "indexed": true,
          "internalType": "address",
          "name": "_oldAddress",
          "type": "address"
        },
        {
          "indexed": true,
          "internalType": "address",
          "name": "_newAddress",
          "type": "address"
        },
        {
          "indexed": false,
          "internalType": "string",
          "name": "_name",
          "type": "string"
        },
        {
          "indexed": false,
          "internalType": "string",
          "name": "_mail",
          "type": "string"
        }
      ],
      "name": "NomineeDetailsUpdated",
      "type": "event"
    },
    {
      "anonymous": false,
      "inputs": [
        {
          "indexed": true,
          "internalType": "address",
          "name": "_owner",
          "type": "address"
        },
        {
          "indexed": false,
          "internalType": "string",
          "name": "_name",
          "type": "string"
        }
      ],
      "name": "OwnerRegistered",
      "type": "event"
    },
    {
      "anonymous": false,
      "inputs": [
        {
          "indexed": true,
          "internalType": "address",
          "name": "_owner",
          "type": "address"
        }
      ],
      "name": "OwnerResponded",
      "type": "event"
    },
    {
      "anonymous": false,
      "inputs": [
        {
          "indexed": true,
          "internalType": "address",
          "name": "previousOwner",
          "type": "address"
        },
        {
          "indexed": true,
          "internalType": "address",
          "name": "newOwner",
          "type": "address"
        }
      ],
      "name": "OwnershipTransferred",
      "type": "event"
    },
    {
      "anonymous": false,
      "inputs": [
        {
          "indexed": true,
          "internalType": "address",
          "name": "_owner",
          "type": "address"
        },
        {
          "indexed": false,
          "internalType": "address",
          "name": "_recoveryAddress",
          "type": "address"
        }
      ],
      "name": "RecoveryAddressAdded",
      "type": "event"
    },
    {
      "anonymous": false,
      "inputs": [
        {
          "indexed": true,
          "internalType": "address",
          "name": "_owner",
          "type": "address"
        },
        {
          "indexed": false,
          "internalType": "string",
          "name": "_date",
          "type": "string"
        }
      ],
      "name": "ResponsedDateSet",
      "type": "event"
    },
    {
      "anonymous": false,
      "inputs": [
        {
          "indexed": true,
          "internalType": "address",
          "name": "_owner",
          "type": "address"
        },
        {
          "indexed": false,
          "internalType": "uint256",
          "name": "_inactivity",
          "type": "uint256"
        },
        {
          "indexed": false,
          "internalType": "uint256",
          "name": "_mail",
          "type": "uint256"
        },
        {
          "indexed": false,
          "internalType": "uint256",
          "name": "_nominee",
          "type": "uint256"
        }
      ],
      "name": "TimePeriodsUpdated",
      "type": "event"
    },
    {
      "anonymous": false,
      "inputs": [
        {
          "indexed": true,
          "internalType": "address",
          "name": "_owner",
          "type": "address"
        },
        {
          "indexed": true,
          "internalType": "address",
          "name": "_tokenAddress",
          "type": "address"
        },
        {
          "indexed": true,
          "internalType": "uint256",
          "name": "_tokenId",
          "type": "uint256"
        }
      ],
      "name": "TokenStructureAssigned",
      "type": "event"
    },
    {
      "inputs": [
        {
          "internalType": "string",
          "name": "_name",
          "type": "string"
        },
        {
          "internalType": "string",
          "name": "_email",
          "type": "string"
        },
        {
          "internalType": "address",
          "name": "_nominee",
          "type": "address"
        }
      ],
      "name": "addNomineesDetails",
      "outputs": [],
      "stateMutability": "nonpayable",
      "type": "function"
    },
    {
      "inputs": [
        {
          "internalType": "string",
          "name": "_name",
          "type": "string"
        },
        {
          "internalType": "string",
          "name": "_email",
          "type": "string"
        },
        {
          "internalType": "string",
          "name": "_cid",
          "type": "string"
        }
      ],
      "name": "addOwnerDetails",
      "outputs": [],
      "stateMutability": "nonpayable",
      "type": "function"
    },
    {
      "inputs": [
        {
          "internalType": "address",
          "name": "_recoveryAddress",
          "type": "address"
        }
      ],
      "name": "addWalletRecovery",
      "outputs": [],
      "stateMutability": "nonpayable",
      "type": "function"
    },
    {
      "inputs": [
        {
          "internalType": "address",
          "name": "",
          "type": "address"
        }
      ],
      "name": "addressToNominee",
      "outputs": [
        {
          "internalType": "string",
          "name": "nominee_name",
          "type": "string"
        },
        {
          "internalType": "string",
          "name": "nominee_email",
          "type": "string"
        },
        {
          "internalType": "address",
          "name": "nominee_address",
          "type": "address"
        },
        {
          "internalType": "bool",
          "name": "hasClaimed",
          "type": "bool"
        }
      ],
      "stateMutability": "view",
      "type": "function"
    },
    {
      "inputs": [
        {
          "internalType": "address",
          "name": "",
          "type": "address"
        }
      ],
      "name": "addressToOwner",
      "outputs": [
        {
          "internalType": "string",
          "name": "owner_name",
          "type": "string"
        },
        {
          "internalType": "string",
          "name": "owner_email",
          "type": "string"
        },
        {
          "internalType": "string",
          "name": "image_cid",
          "type": "string"
        },
        {
          "internalType": "string",
          "name": "date",
          "type": "string"
        },
        {
          "internalType": "bool",
          "name": "isEmailVerified",
          "type": "bool"
        },
        {
          "internalType": "bool",
          "name": "isAlive",
          "type": "bool"
        },
        {
          "internalType": "bool",
          "name": "isResponsed",
          "type": "bool"
        },
        {
          "internalType": "address",
          "name": "recoveryAddress",
          "type": "address"
        },
        {
          "internalType": "uint256",
          "name": "monthsOfInactivity",
          "type": "uint256"
        },
        {
          "internalType": "uint256",
          "name": "monthsOfSendingMailToOwner",
          "type": "uint256"
        },
        {
          "internalType": "uint256",
          "name": "monthsForNominee",
          "type": "uint256"
        }
      ],
      "stateMutability": "view",
      "type": "function"
    },
    {
      "inputs": [
        {
          "internalType": "address",
          "name": "_owner",
          "type": "address"
        },
        {
          "internalType": "address",
          "name": "_tokenAddress",
          "type": "address"
        },
        {
          "internalType": "string",
          "name": "_tokenName",
          "type": "string"
        },
        {
          "internalType": "string",
          "name": "_category",
          "type": "string"
        },
        {
          "internalType": "uint256",
          "name": "_tokenId",
          "type": "uint256"
        },
        {
          "internalType": "uint256",
          "name": "amount",
          "type": "uint256"
        }
      ],
      "name": "assignTokenStruct",
      "outputs": [],
      "stateMutability": "nonpayable",
      "type": "function"
    },
    {
      "inputs": [
        {
          "internalType": "uint256",
          "name": "_inactivity",
          "type": "uint256"
        },
        {
          "internalType": "uint256",
          "name": "_mail",
          "type": "uint256"
        },
        {
          "internalType": "uint256",
          "name": "_nominee",
          "type": "uint256"
        }
      ],
      "name": "changeTimePeriods",
      "outputs": [],
      "stateMutability": "nonpayable",
      "type": "function"
    },
    {
      "inputs": [
        {
          "internalType": "address",
          "name": "_owner",
          "type": "address"
        },
        {
          "internalType": "address",
          "name": "_tokenAddress",
          "type": "address"
        },
        {
          "internalType": "uint256",
          "name": "_amount",
          "type": "uint256"
        },
        {
          "internalType": "uint256",
          "name": "_tokenId",
          "type": "uint256"
        }
      ],
      "name": "claim",
      "outputs": [],
      "stateMutability": "nonpayable",
      "type": "function"
    },
    {
      "inputs": [
        {
          "internalType": "address",
          "name": "_oldNomineeAddress",
          "type": "address"
        },
        {
          "internalType": "string",
          "name": "_name",
          "type": "string"
        },
        {
          "internalType": "string",
          "name": "_email",
          "type": "string"
        },
        {
          "internalType": "address",
          "name": "_newNomineeAddress",
          "type": "address"
        }
      ],
      "name": "editNomineeDetails",
      "outputs": [],
      "stateMutability": "nonpayable",
      "type": "function"
    },
    {
      "inputs": [
        {
          "internalType": "address",
          "name": "_owner",
          "type": "address"
        }
      ],
      "name": "getAllNominees",
      "outputs": [
        {
          "internalType": "address[]",
          "name": "",
          "type": "address[]"
        }
      ],
      "stateMutability": "view",
      "type": "function"
    },
    {
      "inputs": [
        {
          "internalType": "address",
          "name": "_nominee",
          "type": "address"
        }
      ],
      "name": "getNomineeDetails",
      "outputs": [
        {
          "components": [
            {
              "internalType": "string",
              "name": "nominee_name",
              "type": "string"
            },
            {
              "internalType": "string",
              "name": "nominee_email",
              "type": "string"
            },
            {
              "internalType": "address",
              "name": "nominee_address",
              "type": "address"
            },
            {
              "internalType": "bool",
              "name": "hasClaimed",
              "type": "bool"
            }
          ],
          "internalType": "struct Inheritokens.Nominee",
          "name": "",
          "type": "tuple"
        }
      ],
      "stateMutability": "view",
      "type": "function"
    },
    {
      "inputs": [
        {
          "internalType": "address",
          "name": "_owner",
          "type": "address"
        }
      ],
      "name": "getOwnerDetails",
      "outputs": [
        {
          "components": [
            {
              "internalType": "string",
              "name": "owner_name",
              "type": "string"
            },
            {
              "internalType": "string",
              "name": "owner_email",
              "type": "string"
            },
            {
              "internalType": "string",
              "name": "image_cid",
              "type": "string"
            },
            {
              "internalType": "string",
              "name": "date",
              "type": "string"
            },
            {
              "internalType": "bool",
              "name": "isEmailVerified",
              "type": "bool"
            },
            {
              "internalType": "bool",
              "name": "isAlive",
              "type": "bool"
            },
            {
              "internalType": "bool",
              "name": "isResponsed",
              "type": "bool"
            },
            {
              "internalType": "address",
              "name": "recoveryAddress",
              "type": "address"
            },
            {
              "internalType": "address[]",
              "name": "nominees",
              "type": "address[]"
            },
            {
              "internalType": "uint256[]",
              "name": "charities",
              "type": "uint256[]"
            },
            {
              "internalType": "uint256",
              "name": "monthsOfInactivity",
              "type": "uint256"
            },
            {
              "internalType": "uint256",
              "name": "monthsOfSendingMailToOwner",
              "type": "uint256"
            },
            {
              "internalType": "uint256",
              "name": "monthsForNominee",
              "type": "uint256"
            }
          ],
          "internalType": "struct Inheritokens.Owner",
          "name": "",
          "type": "tuple"
        }
      ],
      "stateMutability": "view",
      "type": "function"
    },
    {
      "inputs": [],
      "name": "getOwners",
      "outputs": [
        {
          "internalType": "address[]",
          "name": "",
          "type": "address[]"
        }
      ],
      "stateMutability": "view",
      "type": "function"
    },
    {
      "inputs": [
        {
          "internalType": "address",
          "name": "_owner",
          "type": "address"
        },
        {
          "internalType": "address",
          "name": "_tokenAddress",
          "type": "address"
        },
        {
          "internalType": "uint256",
          "name": "_tokenId",
          "type": "uint256"
        }
      ],
      "name": "getTokenStruct",
      "outputs": [
        {
          "components": [
            {
              "internalType": "address",
              "name": "token_address",
              "type": "address"
            },
            {
              "internalType": "string",
              "name": "token_name",
              "type": "string"
            },
            {
              "internalType": "string",
              "name": "category",
              "type": "string"
            },
            {
              "internalType": "uint256",
              "name": "token_id",
              "type": "uint256"
            },
            {
              "internalType": "uint256",
              "name": "allocated_share",
              "type": "uint256"
            },
            {
              "internalType": "bool",
              "name": "isNominated",
              "type": "bool"
            }
          ],
          "internalType": "struct Inheritokens.Token",
          "name": "",
          "type": "tuple"
        }
      ],
      "stateMutability": "view",
      "type": "function"
    },
    {
      "inputs": [],
      "name": "getTotalOwners",
      "outputs": [
        {
          "internalType": "uint256",
          "name": "",
          "type": "uint256"
        }
      ],
      "stateMutability": "view",
      "type": "function"
    },
    {
      "inputs": [
        {
          "internalType": "address",
          "name": "",
          "type": "address"
        }
      ],
      "name": "isNomineeAdded",
      "outputs": [
        {
          "internalType": "bool",
          "name": "",
          "type": "bool"
        }
      ],
      "stateMutability": "view",
      "type": "function"
    },
    {
      "inputs": [
        {
          "internalType": "address",
          "name": "",
          "type": "address"
        }
      ],
      "name": "isOwnerAdded",
      "outputs": [
        {
          "internalType": "bool",
          "name": "",
          "type": "bool"
        }
      ],
      "stateMutability": "view",
      "type": "function"
    },
    {
      "inputs": [],
      "name": "owner",
      "outputs": [
        {
          "internalType": "address",
          "name": "",
          "type": "address"
        }
      ],
      "stateMutability": "view",
      "type": "function"
    },
    {
      "inputs": [
        {
          "internalType": "uint256",
          "name": "",
          "type": "uint256"
        }
      ],
      "name": "owners",
      "outputs": [
        {
          "internalType": "address",
          "name": "",
          "type": "address"
        }
      ],
      "stateMutability": "view",
      "type": "function"
    },
    {
      "inputs": [],
      "name": "renounceOwnership",
      "outputs": [],
      "stateMutability": "nonpayable",
      "type": "function"
    },
    {
      "inputs": [
        {
          "internalType": "address",
          "name": "_owner",
          "type": "address"
        }
      ],
      "name": "setOwnerNotAlive",
      "outputs": [],
      "stateMutability": "nonpayable",
      "type": "function"
    },
    {
      "inputs": [],
      "name": "setResponse",
      "outputs": [],
      "stateMutability": "nonpayable",
      "type": "function"
    },
    {
      "inputs": [
        {
          "internalType": "address",
          "name": "_owner",
          "type": "address"
        },
        {
          "internalType": "string",
          "name": "_date",
          "type": "string"
        }
      ],
      "name": "setResponseDate",
      "outputs": [],
      "stateMutability": "nonpayable",
      "type": "function"
    },
    {
      "inputs": [
        {
          "internalType": "uint256",
          "name": "_charityId",
          "type": "uint256"
        }
      ],
      "name": "setWhiteListedCharities",
      "outputs": [],
      "stateMutability": "nonpayable",
      "type": "function"
    },
    {
      "inputs": [
        {
          "internalType": "address",
          "name": "",
          "type": "address"
        },
        {
          "internalType": "address",
          "name": "",
          "type": "address"
        },
        {
          "internalType": "uint256",
          "name": "",
          "type": "uint256"
        }
      ],
      "name": "tokenAddressToTokenStruct",
      "outputs": [
        {
          "internalType": "address",
          "name": "token_address",
          "type": "address"
        },
        {
          "internalType": "string",
          "name": "token_name",
          "type": "string"
        },
        {
          "internalType": "string",
          "name": "category",
          "type": "string"
        },
        {
          "internalType": "uint256",
          "name": "token_id",
          "type": "uint256"
        },
        {
          "internalType": "uint256",
          "name": "allocated_share",
          "type": "uint256"
        },
        {
          "internalType": "bool",
          "name": "isNominated",
          "type": "bool"
        }
      ],
      "stateMutability": "view",
      "type": "function"
    },
    {
      "inputs": [
        {
          "internalType": "address",
          "name": "newOwner",
          "type": "address"
        }
      ],
      "name": "transferOwnership",
      "outputs": [],
      "stateMutability": "nonpayable",
      "type": "function"
    },
    {
      "inputs": [
        {
          "internalType": "address",
          "name": "_owner",
          "type": "address"
        },
        {
          "internalType": "address",
          "name": "_tokenAddress",
          "type": "address"
        },
        {
          "internalType": "uint256",
          "name": "_tokenId",
          "type": "uint256"
        },
        {
          "internalType": "uint256",
          "name": "_amount",
          "type": "uint256"
        }
      ],
      "name": "updateAllocatedShare",
      "outputs": [],
      "stateMutability": "nonpayable",
      "type": "function"
    },
    {
      "inputs": [],
      "name": "verifyOwnerEmail",
      "outputs": [],
      "stateMutability": "nonpayable",
      "type": "function"
    }
  ],
  "bytecode": "0x60806040523480156200001157600080fd5b5062000032620000266200003860201b60201c565b6200004060201b60201c565b62000104565b600033905090565b60008060009054906101000a900473ffffffffffffffffffffffffffffffffffffffff169050816000806101000a81548173ffffffffffffffffffffffffffffffffffffffff021916908373ffffffffffffffffffffffffffffffffffffffff1602179055508173ffffffffffffffffffffffffffffffffffffffff168173ffffffffffffffffffffffffffffffffffffffff167f8be0079c531659141344cd1fd0a4f28419497f9722a3daafe3b4186f6b6457e060405160405180910390a35050565b614eeb80620001146000396000f3fe608060405234801561001057600080fd5b50600436106101c45760003560e01c8063883a2353116100f9578063b847bcc111610097578063cd0e509111610071578063cd0e5091146104e9578063db23f9f314610519578063f2fde38b14610537578063f800978514610553576101c4565b8063b847bcc114610468578063c3bb81211461049d578063cb144b39146104cd576101c4565b80639dbd1c36116100d35780639dbd1c36146103f4578063a06d3e9714610424578063a0e67e2b1461042e578063a5394b391461044c576101c4565b8063883a23531461039e5780638da5cb5b146103ba578063984fd10c146103d8576101c4565b806354add3e711610166578063715018a611610140578063715018a61461032c57806376f0ffc6146103365780637fb505d4146103665780638258d02114610382576101c4565b806354add3e7146102d35780635a863c11146102ef57806360c5602b14610322576101c4565b806326af4832116101a257806326af48321461024f57806337950bfe1461026b5780633bf01bf8146102875780634950956e146102a3576101c4565b8063025e7c27146101c95780631056d26d146101f9578063159305e114610215575b600080fd5b6101e360048036038101906101de91906138b5565b610583565b6040516101f09190613923565b60405180910390f35b610213600480360381019061020e919061396a565b6105c2565b005b61022f600480360381019061022a919061396a565b6107af565b6040516102469b9a99989796959493929190613a51565b60405180910390f35b61026960048036038101906102649190613b18565b610a70565b005b61028560048036038101906102809190613b7f565b610d77565b005b6102a1600480360381019061029c9190613d07565b610fbe565b005b6102bd60048036038101906102b8919061396a565b6112b9565b6040516102ca9190613e9e565b60405180910390f35b6102ed60048036038101906102e89190613ec0565b6114a7565b005b6103096004803603810190610304919061396a565b611551565b6040516103199493929190613f1c565b60405180910390f35b61032a6116be565b005b61033461175e565b005b610350600480360381019061034b919061396a565b611772565b60405161035d9190613f6f565b60405180910390f35b610380600480360381019061037b9190613b18565b611792565b005b61039c60048036038101906103979190613f8a565b6119ad565b005b6103b860048036038101906103b391906138b5565b611dc6565b005b6103c2611f9b565b6040516103cf9190613923565b60405180910390f35b6103f260048036038101906103ed9190614031565b611fc4565b005b61040e600480360381019061040991906140d0565b61259c565b60405161041b91906141c2565b60405180910390f35b61042c6127ee565b005b6104366129b2565b6040516104439190614293565b60405180910390f35b6104666004803603810190610461919061396a565b612a40565b005b610482600480360381019061047d91906140d0565b612aa6565b604051610494969594939291906142b5565b60405180910390f35b6104b760048036038101906104b2919061396a565b612c39565b6040516104c4919061457e565b60405180910390f35b6104e760048036038101906104e291906145a0565b613086565b005b61050360048036038101906104fe919061396a565b61348f565b6040516105109190613f6f565b60405180910390f35b6105216134af565b60405161052e919061462b565b60405180910390f35b610551600480360381019061054c919061396a565b6134bc565b005b61056d6004803603810190610568919061396a565b61353f565b60405161057a9190614293565b60405180910390f35b6001818154811061059357600080fd5b906000526020600020016000915054906101000a900473ffffffffffffffffffffffffffffffffffffffff1681565b600260003373ffffffffffffffffffffffffffffffffffffffff1673ffffffffffffffffffffffffffffffffffffffff16815260200190815260200160002060009054906101000a900460ff1661064e576040517f08c379a000000000000000000000000000000000000000000000000000000000815260040161064590614692565b60405180910390fd5b600360003373ffffffffffffffffffffffffffffffffffffffff1673ffffffffffffffffffffffffffffffffffffffff16815260200190815260200160002060040160009054906101000a900460ff166106dd576040517f08c379a00000000000000000000000000000000000000000000000000000000081526004016106d4906146fe565b60405180910390fd5b80600360003373ffffffffffffffffffffffffffffffffffffffff1673ffffffffffffffffffffffffffffffffffffffff16815260200190815260200160002060040160036101000a81548173ffffffffffffffffffffffffffffffffffffffff021916908373ffffffffffffffffffffffffffffffffffffffff1602179055503373ffffffffffffffffffffffffffffffffffffffff167f7fa39328717f9bda0ec36a3638c195f29c2a4c5ed45d321be74cc64f092c2d36826040516107a49190613923565b60405180910390a250565b60036020528060005260406000206000915090508060000180546107d29061474d565b80601f01602080910402602001604051908101604052809291908181526020018280546107fe9061474d565b801561084b5780601f106108205761010080835404028352916020019161084b565b820191906000526020600020905b81548152906001019060200180831161082e57829003601f168201915b5050505050908060010180546108609061474d565b80601f016020809104026020016040519081016040528092919081815260200182805461088c9061474d565b80156108d95780601f106108ae576101008083540402835291602001916108d9565b820191906000526020600020905b8154815290600101906020018083116108bc57829003601f168201915b5050505050908060020180546108ee9061474d565b80601f016020809104026020016040519081016040528092919081815260200182805461091a9061474d565b80156109675780601f1061093c57610100808354040283529160200191610967565b820191906000526020600020905b81548152906001019060200180831161094a57829003601f168201915b50505050509080600301805461097c9061474d565b80601f01602080910402602001604051908101604052809291908181526020018280546109a89061474d565b80156109f55780601f106109ca576101008083540402835291602001916109f5565b820191906000526020600020905b8154815290600101906020018083116109d857829003601f168201915b5050505050908060040160009054906101000a900460ff16908060040160019054906101000a900460ff16908060040160029054906101000a900460ff16908060040160039054906101000a900473ffffffffffffffffffffffffffffffffffffffff1690806007015490806008015490806009015490508b565b60005b600360008673ffffffffffffffffffffffffffffffffffffffff1673ffffffffffffffffffffffffffffffffffffffff16815260200190815260200160002060050180549050811015610cf4573373ffffffffffffffffffffffffffffffffffffffff16600360008773ffffffffffffffffffffffffffffffffffffffff1673ffffffffffffffffffffffffffffffffffffffff1681526020019081526020016000206005018281548110610b2b57610b2a61477e565b5b9060005260206000200160009054906101000a900473ffffffffffffffffffffffffffffffffffffffff1673ffffffffffffffffffffffffffffffffffffffff1603610ce1576001600460003373ffffffffffffffffffffffffffffffffffffffff1673ffffffffffffffffffffffffffffffffffffffff16815260200190815260200160002060020160146101000a81548160ff02191690831515021790555060008203610c605760008490508073ffffffffffffffffffffffffffffffffffffffff166323b872dd8733876040518463ffffffff1660e01b8152600401610c16939291906147ad565b6020604051808303816000875af1158015610c35573d6000803e3d6000fd5b505050506040513d601f19601f82011682018060405250810190610c599190614810565b5050610ce0565b6000821115610cdf5760008490508073ffffffffffffffffffffffffffffffffffffffff166323b872dd8733866040518463ffffffff1660e01b8152600401610cab939291906147ad565b600060405180830381600087803b158015610cc557600080fd5b505af1158015610cd9573d6000803e3d6000fd5b50505050505b5b5b8080610cec9061486c565b915050610a73565b508273ffffffffffffffffffffffffffffffffffffffff163373ffffffffffffffffffffffffffffffffffffffff168573ffffffffffffffffffffffffffffffffffffffff167f913c992353dc81b7a8ba31496c484e9b6306bd2f6c509a649a38fdf5e1c953b284604051610d69919061462b565b60405180910390a450505050565b600260003373ffffffffffffffffffffffffffffffffffffffff1673ffffffffffffffffffffffffffffffffffffffff16815260200190815260200160002060009054906101000a900460ff16610e03576040517f08c379a0000000000000000000000000000000000000000000000000000000008152600401610dfa90614692565b60405180910390fd5b600360003373ffffffffffffffffffffffffffffffffffffffff1673ffffffffffffffffffffffffffffffffffffffff16815260200190815260200160002060040160009054906101000a900460ff16610e92576040517f08c379a0000000000000000000000000000000000000000000000000000000008152600401610e89906146fe565b60405180910390fd5b82600360003373ffffffffffffffffffffffffffffffffffffffff1673ffffffffffffffffffffffffffffffffffffffff1681526020019081526020016000206007018190555081600360003373ffffffffffffffffffffffffffffffffffffffff1673ffffffffffffffffffffffffffffffffffffffff1681526020019081526020016000206008018190555080600360003373ffffffffffffffffffffffffffffffffffffffff1673ffffffffffffffffffffffffffffffffffffffff168152602001908152602001600020600901819055503373ffffffffffffffffffffffffffffffffffffffff167fa89ed257389bf55f99f23abbebdb8576be22335f63e8f2ed9e12742f3cb4defb848484604051610fb1939291906148b4565b60405180910390a2505050565b600260008773ffffffffffffffffffffffffffffffffffffffff1673ffffffffffffffffffffffffffffffffffffffff16815260200190815260200160002060009054906101000a900460ff1661104a576040517f08c379a000000000000000000000000000000000000000000000000000000000815260040161104190614692565b60405180910390fd5b600360008773ffffffffffffffffffffffffffffffffffffffff1673ffffffffffffffffffffffffffffffffffffffff16815260200190815260200160002060040160009054906101000a900460ff166110d9576040517f08c379a00000000000000000000000000000000000000000000000000000000081526004016110d0906146fe565b60405180910390fd5b6040518060c001604052808673ffffffffffffffffffffffffffffffffffffffff16815260200185815260200184815260200183815260200182815260200160011515815250600660008873ffffffffffffffffffffffffffffffffffffffff1673ffffffffffffffffffffffffffffffffffffffff16815260200190815260200160002060008773ffffffffffffffffffffffffffffffffffffffff1673ffffffffffffffffffffffffffffffffffffffff168152602001908152602001600020600084815260200190815260200160002060008201518160000160006101000a81548173ffffffffffffffffffffffffffffffffffffffff021916908373ffffffffffffffffffffffffffffffffffffffff16021790555060208201518160010190816112089190614a97565b50604082015181600201908161121e9190614a97565b50606082015181600301556080820151816004015560a08201518160050160006101000a81548160ff021916908315150217905550905050818573ffffffffffffffffffffffffffffffffffffffff168773ffffffffffffffffffffffffffffffffffffffff167fbcd808aacc29273be719505ed6a9bc3a667772d205c392aa0a2cc8409a967bc860405160405180910390a4505050505050565b6112c1613759565b600460008373ffffffffffffffffffffffffffffffffffffffff1673ffffffffffffffffffffffffffffffffffffffff16815260200190815260200160002060405180608001604052908160008201805461131b9061474d565b80601f01602080910402602001604051908101604052809291908181526020018280546113479061474d565b80156113945780601f1061136957610100808354040283529160200191611394565b820191906000526020600020905b81548152906001019060200180831161137757829003601f168201915b505050505081526020016001820180546113ad9061474d565b80601f01602080910402602001604051908101604052809291908181526020018280546113d99061474d565b80156114265780601f106113fb57610100808354040283529160200191611426565b820191906000526020600020905b81548152906001019060200180831161140957829003601f168201915b505050505081526020016002820160009054906101000a900473ffffffffffffffffffffffffffffffffffffffff1673ffffffffffffffffffffffffffffffffffffffff1673ffffffffffffffffffffffffffffffffffffffff1681526020016002820160149054906101000a900460ff1615151515815250509050919050565b6114af61360f565b80600360008473ffffffffffffffffffffffffffffffffffffffff1673ffffffffffffffffffffffffffffffffffffffff16815260200190815260200160002060030190816114fe9190614a97565b508173ffffffffffffffffffffffffffffffffffffffff167f8a1263962e2474bea0a33055f8d55a8113d3481d759b26d9c9d151ad7e552f19826040516115459190614b69565b60405180910390a25050565b60046020528060005260406000206000915090508060000180546115749061474d565b80601f01602080910402602001604051908101604052809291908181526020018280546115a09061474d565b80156115ed5780601f106115c2576101008083540402835291602001916115ed565b820191906000526020600020905b8154815290600101906020018083116115d057829003601f168201915b5050505050908060010180546116029061474d565b80601f016020809104026020016040519081016040528092919081815260200182805461162e9061474d565b801561167b5780601f106116505761010080835404028352916020019161167b565b820191906000526020600020905b81548152906001019060200180831161165e57829003601f168201915b5050505050908060020160009054906101000a900473ffffffffffffffffffffffffffffffffffffffff16908060020160149054906101000a900460ff16905084565b6001600360003373ffffffffffffffffffffffffffffffffffffffff1673ffffffffffffffffffffffffffffffffffffffff16815260200190815260200160002060040160026101000a81548160ff0219169083151502179055503373ffffffffffffffffffffffffffffffffffffffff167f10fb698f781e424b2936b656193c9212836bcb66e5da5119147d31561a3d931160405160405180910390a2565b61176661360f565b611770600061368d565b565b60026020528060005260406000206000915054906101000a900460ff1681565b600260008573ffffffffffffffffffffffffffffffffffffffff1673ffffffffffffffffffffffffffffffffffffffff16815260200190815260200160002060009054906101000a900460ff1661181e576040517f08c379a000000000000000000000000000000000000000000000000000000000815260040161181590614692565b60405180910390fd5b600360008573ffffffffffffffffffffffffffffffffffffffff1673ffffffffffffffffffffffffffffffffffffffff16815260200190815260200160002060040160009054906101000a900460ff166118ad576040517f08c379a00000000000000000000000000000000000000000000000000000000081526004016118a4906146fe565b60405180910390fd5b80600660008673ffffffffffffffffffffffffffffffffffffffff1673ffffffffffffffffffffffffffffffffffffffff16815260200190815260200160002060008573ffffffffffffffffffffffffffffffffffffffff1673ffffffffffffffffffffffffffffffffffffffff1681526020019081526020016000206000848152602001908152602001600020600401819055508273ffffffffffffffffffffffffffffffffffffffff168473ffffffffffffffffffffffffffffffffffffffff167fedc81c1b2ba130e51b15caad1a904620ab3ad26168714cfa53da56e1ecda7f9d8360405161199f919061462b565b60405180910390a350505050565b600260003373ffffffffffffffffffffffffffffffffffffffff1673ffffffffffffffffffffffffffffffffffffffff16815260200190815260200160002060009054906101000a900460ff1615611a3a576040517f08c379a0000000000000000000000000000000000000000000000000000000008152600401611a3190614bd7565b60405180910390fd5b6001339080600181540180825580915050600190039060005260206000200160009091909190916101000a81548173ffffffffffffffffffffffffffffffffffffffff021916908373ffffffffffffffffffffffffffffffffffffffff16021790555082600360003373ffffffffffffffffffffffffffffffffffffffff1673ffffffffffffffffffffffffffffffffffffffff1681526020019081526020016000206000019081611aec9190614a97565b5081600360003373ffffffffffffffffffffffffffffffffffffffff1673ffffffffffffffffffffffffffffffffffffffff1681526020019081526020016000206001019081611b3c9190614a97565b5080600360003373ffffffffffffffffffffffffffffffffffffffff1673ffffffffffffffffffffffffffffffffffffffff1681526020019081526020016000206002019081611b8c9190614a97565b506000600360003373ffffffffffffffffffffffffffffffffffffffff1673ffffffffffffffffffffffffffffffffffffffff16815260200190815260200160002060040160006101000a81548160ff0219169083151502179055506001600360003373ffffffffffffffffffffffffffffffffffffffff1673ffffffffffffffffffffffffffffffffffffffff16815260200190815260200160002060040160016101000a81548160ff0219169083151502179055506006600360003373ffffffffffffffffffffffffffffffffffffffff1673ffffffffffffffffffffffffffffffffffffffff168152602001908152602001600020600701819055506002600360003373ffffffffffffffffffffffffffffffffffffffff1673ffffffffffffffffffffffffffffffffffffffff168152602001908152602001600020600801819055506002600360003373ffffffffffffffffffffffffffffffffffffffff1673ffffffffffffffffffffffffffffffffffffffff168152602001908152602001600020600901819055506001600260003373ffffffffffffffffffffffffffffffffffffffff1673ffffffffffffffffffffffffffffffffffffffff16815260200190815260200160002060006101000a81548160ff0219169083151502179055503373ffffffffffffffffffffffffffffffffffffffff167f5f66e430b448d83d46a65ab17a365f04c0c8f1a66ac20bcc38dfde7f2d67514184604051611db99190614b69565b60405180910390a2505050565b600260003373ffffffffffffffffffffffffffffffffffffffff1673ffffffffffffffffffffffffffffffffffffffff16815260200190815260200160002060009054906101000a900460ff16611e52576040517f08c379a0000000000000000000000000000000000000000000000000000000008152600401611e4990614692565b60405180910390fd5b600360003373ffffffffffffffffffffffffffffffffffffffff1673ffffffffffffffffffffffffffffffffffffffff16815260200190815260200160002060040160009054906101000a900460ff16611ee1576040517f08c379a0000000000000000000000000000000000000000000000000000000008152600401611ed8906146fe565b60405180910390fd5b600360003373ffffffffffffffffffffffffffffffffffffffff1673ffffffffffffffffffffffffffffffffffffffff1681526020019081526020016000206006018190806001815401808255809150506001900390600052602060002001600090919091909150553373ffffffffffffffffffffffffffffffffffffffff167f0a9f57650aae67446314481b13a827c479f89b36f2186ba5ced5026358a55c4582604051611f90919061462b565b60405180910390a250565b60008060009054906101000a900473ffffffffffffffffffffffffffffffffffffffff16905090565b600260003373ffffffffffffffffffffffffffffffffffffffff1673ffffffffffffffffffffffffffffffffffffffff16815260200190815260200160002060009054906101000a900460ff16612050576040517f08c379a000000000000000000000000000000000000000000000000000000000815260040161204790614692565b60405180910390fd5b600360003373ffffffffffffffffffffffffffffffffffffffff1673ffffffffffffffffffffffffffffffffffffffff16815260200190815260200160002060040160009054906101000a900460ff166120df576040517f08c379a00000000000000000000000000000000000000000000000000000000081526004016120d6906146fe565b60405180910390fd5b600560008573ffffffffffffffffffffffffffffffffffffffff1673ffffffffffffffffffffffffffffffffffffffff16815260200190815260200160002060009054906101000a900460ff1661216b576040517f08c379a000000000000000000000000000000000000000000000000000000000815260040161216290614c43565b60405180910390fd5b8073ffffffffffffffffffffffffffffffffffffffff168473ffffffffffffffffffffffffffffffffffffffff16036122435782600460008673ffffffffffffffffffffffffffffffffffffffff1673ffffffffffffffffffffffffffffffffffffffff16815260200190815260200160002060000190816121ed9190614a97565b5081600460008673ffffffffffffffffffffffffffffffffffffffff1673ffffffffffffffffffffffffffffffffffffffff168152602001908152602001600020600101908161223d9190614a97565b50612518565b82600460008373ffffffffffffffffffffffffffffffffffffffff1673ffffffffffffffffffffffffffffffffffffffff16815260200190815260200160002060000190816122929190614a97565b5081600460008373ffffffffffffffffffffffffffffffffffffffff1673ffffffffffffffffffffffffffffffffffffffff16815260200190815260200160002060010190816122e29190614a97565b5080600460008373ffffffffffffffffffffffffffffffffffffffff1673ffffffffffffffffffffffffffffffffffffffff16815260200190815260200160002060020160006101000a81548173ffffffffffffffffffffffffffffffffffffffff021916908373ffffffffffffffffffffffffffffffffffffffff16021790555060005b600360003373ffffffffffffffffffffffffffffffffffffffff1673ffffffffffffffffffffffffffffffffffffffff16815260200190815260200160002060050180549050811015612516578473ffffffffffffffffffffffffffffffffffffffff16600360003373ffffffffffffffffffffffffffffffffffffffff1673ffffffffffffffffffffffffffffffffffffffff168152602001908152602001600020600501828154811061241f5761241e61477e565b5b9060005260206000200160009054906101000a900473ffffffffffffffffffffffffffffffffffffffff1673ffffffffffffffffffffffffffffffffffffffff16036125035781600360003373ffffffffffffffffffffffffffffffffffffffff1673ffffffffffffffffffffffffffffffffffffffff16815260200190815260200160002060050182815481106124ba576124b961477e565b5b9060005260206000200160006101000a81548173ffffffffffffffffffffffffffffffffffffffff021916908373ffffffffffffffffffffffffffffffffffffffff1602179055505b808061250e9061486c565b915050612367565b505b8073ffffffffffffffffffffffffffffffffffffffff168473ffffffffffffffffffffffffffffffffffffffff163373ffffffffffffffffffffffffffffffffffffffff167f98181c10b577f57cab84e5876fe882beef6fd7633fa626a112765254ff1c0a3d868660405161258e929190614c63565b60405180910390a450505050565b6125a4613799565b600660008573ffffffffffffffffffffffffffffffffffffffff1673ffffffffffffffffffffffffffffffffffffffff16815260200190815260200160002060008473ffffffffffffffffffffffffffffffffffffffff1673ffffffffffffffffffffffffffffffffffffffff16815260200190815260200160002060008381526020019081526020016000206040518060c00160405290816000820160009054906101000a900473ffffffffffffffffffffffffffffffffffffffff1673ffffffffffffffffffffffffffffffffffffffff1673ffffffffffffffffffffffffffffffffffffffff1681526020016001820180546126a29061474d565b80601f01602080910402602001604051908101604052809291908181526020018280546126ce9061474d565b801561271b5780601f106126f05761010080835404028352916020019161271b565b820191906000526020600020905b8154815290600101906020018083116126fe57829003601f168201915b505050505081526020016002820180546127349061474d565b80601f01602080910402602001604051908101604052809291908181526020018280546127609061474d565b80156127ad5780601f10612782576101008083540402835291602001916127ad565b820191906000526020600020905b81548152906001019060200180831161279057829003601f168201915b5050505050815260200160038201548152602001600482015481526020016005820160009054906101000a900460ff16151515158152505090509392505050565b6127f661360f565b600260003373ffffffffffffffffffffffffffffffffffffffff1673ffffffffffffffffffffffffffffffffffffffff16815260200190815260200160002060009054906101000a900460ff16612882576040517f08c379a000000000000000000000000000000000000000000000000000000000815260040161287990614692565b60405180910390fd5b600360003373ffffffffffffffffffffffffffffffffffffffff1673ffffffffffffffffffffffffffffffffffffffff16815260200190815260200160002060040160009054906101000a900460ff1615612912576040517f08c379a000000000000000000000000000000000000000000000000000000000815260040161290990614ce6565b60405180910390fd5b6001600360003373ffffffffffffffffffffffffffffffffffffffff1673ffffffffffffffffffffffffffffffffffffffff16815260200190815260200160002060040160006101000a81548160ff0219169083151502179055503373ffffffffffffffffffffffffffffffffffffffff167fc075588536ccbcc926766f9090dd0857af2708dfc82df2166eca1059cadf2ec760405160405180910390a2565b60606001805480602002602001604051908101604052809291908181526020018280548015612a3657602002820191906000526020600020905b8160009054906101000a900473ffffffffffffffffffffffffffffffffffffffff1673ffffffffffffffffffffffffffffffffffffffff16815260200190600101908083116129ec575b5050505050905090565b612a4861360f565b6000600360008373ffffffffffffffffffffffffffffffffffffffff1673ffffffffffffffffffffffffffffffffffffffff16815260200190815260200160002060040160016101000a81548160ff02191690831515021790555050565b600660205282600052604060002060205281600052604060002060205280600052604060002060009250925050508060000160009054906101000a900473ffffffffffffffffffffffffffffffffffffffff1690806001018054612b099061474d565b80601f0160208091040260200160405190810160405280929190818152602001828054612b359061474d565b8015612b825780601f10612b5757610100808354040283529160200191612b82565b820191906000526020600020905b815481529060010190602001808311612b6557829003601f168201915b505050505090806002018054612b979061474d565b80601f0160208091040260200160405190810160405280929190818152602001828054612bc39061474d565b8015612c105780601f10612be557610100808354040283529160200191612c10565b820191906000526020600020905b815481529060010190602001808311612bf357829003601f168201915b5050505050908060030154908060040154908060050160009054906101000a900460ff16905086565b612c416137e7565b600360008373ffffffffffffffffffffffffffffffffffffffff1673ffffffffffffffffffffffffffffffffffffffff168152602001908152602001600020604051806101a0016040529081600082018054612c9c9061474d565b80601f0160208091040260200160405190810160405280929190818152602001828054612cc89061474d565b8015612d155780601f10612cea57610100808354040283529160200191612d15565b820191906000526020600020905b815481529060010190602001808311612cf857829003601f168201915b50505050508152602001600182018054612d2e9061474d565b80601f0160208091040260200160405190810160405280929190818152602001828054612d5a9061474d565b8015612da75780601f10612d7c57610100808354040283529160200191612da7565b820191906000526020600020905b815481529060010190602001808311612d8a57829003601f168201915b50505050508152602001600282018054612dc09061474d565b80601f0160208091040260200160405190810160405280929190818152602001828054612dec9061474d565b8015612e395780601f10612e0e57610100808354040283529160200191612e39565b820191906000526020600020905b815481529060010190602001808311612e1c57829003601f168201915b50505050508152602001600382018054612e529061474d565b80601f0160208091040260200160405190810160405280929190818152602001828054612e7e9061474d565b8015612ecb5780601f10612ea057610100808354040283529160200191612ecb565b820191906000526020600020905b815481529060010190602001808311612eae57829003601f168201915b505050505081526020016004820160009054906101000a900460ff161515151581526020016004820160019054906101000a900460ff161515151581526020016004820160029054906101000a900460ff161515151581526020016004820160039054906101000a900473ffffffffffffffffffffffffffffffffffffffff1673ffffffffffffffffffffffffffffffffffffffff1673ffffffffffffffffffffffffffffffffffffffff1681526020016005820180548060200260200160405190810160405280929190818152602001828054801561300057602002820191906000526020600020905b8160009054906101000a900473ffffffffffffffffffffffffffffffffffffffff1673ffffffffffffffffffffffffffffffffffffffff1681526020019060010190808311612fb6575b505050505081526020016006820180548060200260200160405190810160405280929190818152602001828054801561305857602002820191906000526020600020905b815481526020019060010190808311613044575b5050505050815260200160078201548152602001600882015481526020016009820154815250509050919050565b600260003373ffffffffffffffffffffffffffffffffffffffff1673ffffffffffffffffffffffffffffffffffffffff16815260200190815260200160002060009054906101000a900460ff16613112576040517f08c379a000000000000000000000000000000000000000000000000000000000815260040161310990614692565b60405180910390fd5b600360003373ffffffffffffffffffffffffffffffffffffffff1673ffffffffffffffffffffffffffffffffffffffff16815260200190815260200160002060040160009054906101000a900460ff166131a1576040517f08c379a0000000000000000000000000000000000000000000000000000000008152600401613198906146fe565b60405180910390fd5b600560008273ffffffffffffffffffffffffffffffffffffffff1673ffffffffffffffffffffffffffffffffffffffff16815260200190815260200160002060009054906101000a900460ff161561322e576040517f08c379a000000000000000000000000000000000000000000000000000000000815260040161322590614d52565b60405180910390fd5b60405180608001604052808481526020018381526020018273ffffffffffffffffffffffffffffffffffffffff16815260200160001515815250600460008373ffffffffffffffffffffffffffffffffffffffff1673ffffffffffffffffffffffffffffffffffffffff16815260200190815260200160002060008201518160000190816132bc9190614a97565b5060208201518160010190816132d29190614a97565b5060408201518160020160006101000a81548173ffffffffffffffffffffffffffffffffffffffff021916908373ffffffffffffffffffffffffffffffffffffffff16021790555060608201518160020160146101000a81548160ff021916908315150217905550905050600360003373ffffffffffffffffffffffffffffffffffffffff1673ffffffffffffffffffffffffffffffffffffffff168152602001908152602001600020600501819080600181540180825580915050600190039060005260206000200160009091909190916101000a81548173ffffffffffffffffffffffffffffffffffffffff021916908373ffffffffffffffffffffffffffffffffffffffff1602179055506001600560008373ffffffffffffffffffffffffffffffffffffffff1673ffffffffffffffffffffffffffffffffffffffff16815260200190815260200160002060006101000a81548160ff0219169083151502179055503373ffffffffffffffffffffffffffffffffffffffff167fb009d2c813f95b7c48104e6328c1acca60b43cac7e0f4e63c29a8dc5808356ad82858560405161348293929190614d72565b60405180910390a2505050565b60056020528060005260406000206000915054906101000a900460ff1681565b6000600180549050905090565b6134c461360f565b600073ffffffffffffffffffffffffffffffffffffffff168173ffffffffffffffffffffffffffffffffffffffff1603613533576040517f08c379a000000000000000000000000000000000000000000000000000000000815260040161352a90614e29565b60405180910390fd5b61353c8161368d565b50565b6060600360008373ffffffffffffffffffffffffffffffffffffffff1673ffffffffffffffffffffffffffffffffffffffff16815260200190815260200160002060050180548060200260200160405190810160405280929190818152602001828054801561360357602002820191906000526020600020905b8160009054906101000a900473ffffffffffffffffffffffffffffffffffffffff1673ffffffffffffffffffffffffffffffffffffffff16815260200190600101908083116135b9575b50505050509050919050565b613617613751565b73ffffffffffffffffffffffffffffffffffffffff16613635611f9b565b73ffffffffffffffffffffffffffffffffffffffff161461368b576040517f08c379a000000000000000000000000000000000000000000000000000000000815260040161368290614e95565b60405180910390fd5b565b60008060009054906101000a900473ffffffffffffffffffffffffffffffffffffffff169050816000806101000a81548173ffffffffffffffffffffffffffffffffffffffff021916908373ffffffffffffffffffffffffffffffffffffffff1602179055508173ffffffffffffffffffffffffffffffffffffffff168173ffffffffffffffffffffffffffffffffffffffff167f8be0079c531659141344cd1fd0a4f28419497f9722a3daafe3b4186f6b6457e060405160405180910390a35050565b600033905090565b60405180608001604052806060815260200160608152602001600073ffffffffffffffffffffffffffffffffffffffff1681526020016000151581525090565b6040518060c00160405280600073ffffffffffffffffffffffffffffffffffffffff168152602001606081526020016060815260200160008152602001600081526020016000151581525090565b604051806101a0016040528060608152602001606081526020016060815260200160608152602001600015158152602001600015158152602001600015158152602001600073ffffffffffffffffffffffffffffffffffffffff16815260200160608152602001606081526020016000815260200160008152602001600081525090565b6000604051905090565b600080fd5b600080fd5b6000819050919050565b6138928161387f565b811461389d57600080fd5b50565b6000813590506138af81613889565b92915050565b6000602082840312156138cb576138ca613875565b5b60006138d9848285016138a0565b91505092915050565b600073ffffffffffffffffffffffffffffffffffffffff82169050919050565b600061390d826138e2565b9050919050565b61391d81613902565b82525050565b60006020820190506139386000830184613914565b92915050565b61394781613902565b811461395257600080fd5b50565b6000813590506139648161393e565b92915050565b6000602082840312156139805761397f613875565b5b600061398e84828501613955565b91505092915050565b600081519050919050565b600082825260208201905092915050565b60005b838110156139d15780820151818401526020810190506139b6565b60008484015250505050565b6000601f19601f8301169050919050565b60006139f982613997565b613a0381856139a2565b9350613a138185602086016139b3565b613a1c816139dd565b840191505092915050565b60008115159050919050565b613a3c81613a27565b82525050565b613a4b8161387f565b82525050565b6000610160820190508181036000830152613a6c818e6139ee565b90508181036020830152613a80818d6139ee565b90508181036040830152613a94818c6139ee565b90508181036060830152613aa8818b6139ee565b9050613ab7608083018a613a33565b613ac460a0830189613a33565b613ad160c0830188613a33565b613ade60e0830187613914565b613aec610100830186613a42565b613afa610120830185613a42565b613b08610140830184613a42565b9c9b505050505050505050505050565b60008060008060808587031215613b3257613b31613875565b5b6000613b4087828801613955565b9450506020613b5187828801613955565b9350506040613b62878288016138a0565b9250506060613b73878288016138a0565b91505092959194509250565b600080600060608486031215613b9857613b97613875565b5b6000613ba6868287016138a0565b9350506020613bb7868287016138a0565b9250506040613bc8868287016138a0565b9150509250925092565b600080fd5b600080fd5b7f4e487b7100000000000000000000000000000000000000000000000000000000600052604160045260246000fd5b613c14826139dd565b810181811067ffffffffffffffff82111715613c3357613c32613bdc565b5b80604052505050565b6000613c4661386b565b9050613c528282613c0b565b919050565b600067ffffffffffffffff821115613c7257613c71613bdc565b5b613c7b826139dd565b9050602081019050919050565b82818337600083830152505050565b6000613caa613ca584613c57565b613c3c565b905082815260208101848484011115613cc657613cc5613bd7565b5b613cd1848285613c88565b509392505050565b600082601f830112613cee57613ced613bd2565b5b8135613cfe848260208601613c97565b91505092915050565b60008060008060008060c08789031215613d2457613d23613875565b5b6000613d3289828a01613955565b9650506020613d4389828a01613955565b955050604087013567ffffffffffffffff811115613d6457613d6361387a565b5b613d7089828a01613cd9565b945050606087013567ffffffffffffffff811115613d9157613d9061387a565b5b613d9d89828a01613cd9565b9350506080613dae89828a016138a0565b92505060a0613dbf89828a016138a0565b9150509295509295509295565b600082825260208201905092915050565b6000613de882613997565b613df28185613dcc565b9350613e028185602086016139b3565b613e0b816139dd565b840191505092915050565b613e1f81613902565b82525050565b613e2e81613a27565b82525050565b60006080830160008301518482036000860152613e518282613ddd565b91505060208301518482036020860152613e6b8282613ddd565b9150506040830151613e806040860182613e16565b506060830151613e936060860182613e25565b508091505092915050565b60006020820190508181036000830152613eb88184613e34565b905092915050565b60008060408385031215613ed757613ed6613875565b5b6000613ee585828601613955565b925050602083013567ffffffffffffffff811115613f0657613f0561387a565b5b613f1285828601613cd9565b9150509250929050565b60006080820190508181036000830152613f3681876139ee565b90508181036020830152613f4a81866139ee565b9050613f596040830185613914565b613f666060830184613a33565b95945050505050565b6000602082019050613f846000830184613a33565b92915050565b600080600060608486031215613fa357613fa2613875565b5b600084013567ffffffffffffffff811115613fc157613fc061387a565b5b613fcd86828701613cd9565b935050602084013567ffffffffffffffff811115613fee57613fed61387a565b5b613ffa86828701613cd9565b925050604084013567ffffffffffffffff81111561401b5761401a61387a565b5b61402786828701613cd9565b9150509250925092565b6000806000806080858703121561404b5761404a613875565b5b600061405987828801613955565b945050602085013567ffffffffffffffff81111561407a5761407961387a565b5b61408687828801613cd9565b935050604085013567ffffffffffffffff8111156140a7576140a661387a565b5b6140b387828801613cd9565b92505060606140c487828801613955565b91505092959194509250565b6000806000606084860312156140e9576140e8613875565b5b60006140f786828701613955565b935050602061410886828701613955565b9250506040614119868287016138a0565b9150509250925092565b61412c8161387f565b82525050565b600060c08301600083015161414a6000860182613e16565b50602083015184820360208601526141628282613ddd565b9150506040830151848203604086015261417c8282613ddd565b91505060608301516141916060860182614123565b5060808301516141a46080860182614123565b5060a08301516141b760a0860182613e25565b508091505092915050565b600060208201905081810360008301526141dc8184614132565b905092915050565b600081519050919050565b600082825260208201905092915050565b6000819050602082019050919050565b600061421c8383613e16565b60208301905092915050565b6000602082019050919050565b6000614240826141e4565b61424a81856141ef565b935061425583614200565b8060005b8381101561428657815161426d8882614210565b975061427883614228565b925050600181019050614259565b5085935050505092915050565b600060208201905081810360008301526142ad8184614235565b905092915050565b600060c0820190506142ca6000830189613914565b81810360208301526142dc81886139ee565b905081810360408301526142f081876139ee565b90506142ff6060830186613a42565b61430c6080830185613a42565b61431960a0830184613a33565b979650505050505050565b600082825260208201905092915050565b6000614340826141e4565b61434a8185614324565b935061435583614200565b8060005b8381101561438657815161436d8882614210565b975061437883614228565b925050600181019050614359565b5085935050505092915050565b600081519050919050565b600082825260208201905092915050565b6000819050602082019050919050565b60006143cb8383614123565b60208301905092915050565b6000602082019050919050565b60006143ef82614393565b6143f9818561439e565b9350614404836143af565b8060005b8381101561443557815161441c88826143bf565b9750614427836143d7565b925050600181019050614408565b5085935050505092915050565b60006101a08301600083015184820360008601526144608282613ddd565b9150506020830151848203602086015261447a8282613ddd565b915050604083015184820360408601526144948282613ddd565b915050606083015184820360608601526144ae8282613ddd565b91505060808301516144c36080860182613e25565b5060a08301516144d660a0860182613e25565b5060c08301516144e960c0860182613e25565b5060e08301516144fc60e0860182613e16565b506101008301518482036101008601526145168282614335565b91505061012083015184820361012086015261453282826143e4565b915050610140830151614549610140860182614123565b5061016083015161455e610160860182614123565b50610180830151614573610180860182614123565b508091505092915050565b600060208201905081810360008301526145988184614442565b905092915050565b6000806000606084860312156145b9576145b8613875565b5b600084013567ffffffffffffffff8111156145d7576145d661387a565b5b6145e386828701613cd9565b935050602084013567ffffffffffffffff8111156146045761460361387a565b5b61461086828701613cd9565b925050604061462186828701613955565b9150509250925092565b60006020820190506146406000830184613a42565b92915050565b7f466972737420646f20726567697374726174696f6e0000000000000000000000600082015250565b600061467c6015836139a2565b915061468782614646565b602082019050919050565b600060208201905081810360008301526146ab8161466f565b9050919050565b7f656d61696c206973206e6f742076657269666965640000000000000000000000600082015250565b60006146e86015836139a2565b91506146f3826146b2565b602082019050919050565b60006020820190508181036000830152614717816146db565b9050919050565b7f4e487b7100000000000000000000000000000000000000000000000000000000600052602260045260246000fd5b6000600282049050600182168061476557607f821691505b6020821081036147785761477761471e565b5b50919050565b7f4e487b7100000000000000000000000000000000000000000000000000000000600052603260045260246000fd5b60006060820190506147c26000830186613914565b6147cf6020830185613914565b6147dc6040830184613a42565b949350505050565b6147ed81613a27565b81146147f857600080fd5b50565b60008151905061480a816147e4565b92915050565b60006020828403121561482657614825613875565b5b6000614834848285016147fb565b91505092915050565b7f4e487b7100000000000000000000000000000000000000000000000000000000600052601160045260246000fd5b60006148778261387f565b91507fffffffffffffffffffffffffffffffffffffffffffffffffffffffffffffffff82036148a9576148a861483d565b5b600182019050919050565b60006060820190506148c96000830186613a42565b6148d66020830185613a42565b6148e36040830184613a42565b949350505050565b60008190508160005260206000209050919050565b60006020601f8301049050919050565b600082821b905092915050565b60006008830261494d7fffffffffffffffffffffffffffffffffffffffffffffffffffffffffffffffff82614910565b6149578683614910565b95508019841693508086168417925050509392505050565b6000819050919050565b600061499461498f61498a8461387f565b61496f565b61387f565b9050919050565b6000819050919050565b6149ae83614979565b6149c26149ba8261499b565b84845461491d565b825550505050565b600090565b6149d76149ca565b6149e28184846149a5565b505050565b5b81811015614a06576149fb6000826149cf565b6001810190506149e8565b5050565b601f821115614a4b57614a1c816148eb565b614a2584614900565b81016020851015614a34578190505b614a48614a4085614900565b8301826149e7565b50505b505050565b600082821c905092915050565b6000614a6e60001984600802614a50565b1980831691505092915050565b6000614a878383614a5d565b9150826002028217905092915050565b614aa082613997565b67ffffffffffffffff811115614ab957614ab8613bdc565b5b614ac3825461474d565b614ace828285614a0a565b600060209050601f831160018114614b015760008415614aef578287015190505b614af98582614a7b565b865550614b61565b601f198416614b0f866148eb565b60005b82811015614b3757848901518255600182019150602085019450602081019050614b12565b86831015614b545784890151614b50601f891682614a5d565b8355505b6001600288020188555050505b505050505050565b60006020820190508181036000830152614b8381846139ee565b905092915050565b7f416c726561647920726567697374657265640000000000000000000000000000600082015250565b6000614bc16012836139a2565b9150614bcc82614b8b565b602082019050919050565b60006020820190508181036000830152614bf081614bb4565b9050919050565b7f4e6f6d696e6565206973206e6f74206164646564000000000000000000000000600082015250565b6000614c2d6014836139a2565b9150614c3882614bf7565b602082019050919050565b60006020820190508181036000830152614c5c81614c20565b9050919050565b60006040820190508181036000830152614c7d81856139ee565b90508181036020830152614c9181846139ee565b90509392505050565b7f416c726561647920796f757220656d61696c2069732076657269666965640000600082015250565b6000614cd0601e836139a2565b9150614cdb82614c9a565b602082019050919050565b60006020820190508181036000830152614cff81614cc3565b9050919050565b7f4e6f6d696e656520697320616c72656164792061646465640000000000000000600082015250565b6000614d3c6018836139a2565b9150614d4782614d06565b602082019050919050565b60006020820190508181036000830152614d6b81614d2f565b9050919050565b6000606082019050614d876000830186613914565b8181036020830152614d9981856139ee565b90508181036040830152614dad81846139ee565b9050949350505050565b7f4f776e61626c653a206e6577206f776e657220697320746865207a65726f206160008201527f6464726573730000000000000000000000000000000000000000000000000000602082015250565b6000614e136026836139a2565b9150614e1e82614db7565b604082019050919050565b60006020820190508181036000830152614e4281614e06565b9050919050565b7f4f776e61626c653a2063616c6c6572206973206e6f7420746865206f776e6572600082015250565b6000614e7f6020836139a2565b9150614e8a82614e49565b602082019050919050565b60006020820190508181036000830152614eae81614e72565b905091905056fea26469706673582212204ba5c3d56d5057b0ef125e3b9ac0345aa719afa8d7c58ef3784b77f7f1cdd9a364736f6c63430008110033",
  "linkReferences": {},
  "deployedLinkReferences": {}
}