{
  "_format": "hh-sol-artifact-1",
  "contractName": "Inheritokens",
  "sourceName": "contracts/Inheritokens.sol",
  "abi": [
    {
      "inputs": [],
      "stateMutability": "nonpayable",
      "type": "constructor"
    },
    {
      "anonymous": false,
      "inputs": [
        {
          "indexed": true,
          "internalType": "address",
          "name": "_owner",
          "type": "address"
        },
        {
          "indexed": true,
          "internalType": "address",
          "name": "_tokenAddress",
          "type": "address"
        },
        {
          "indexed": false,
          "internalType": "uint256",
          "name": "_amount",
          "type": "uint256"
        }
      ],
      "name": "AllocatedShareUpdated",
      "type": "event"
    },
    {
      "anonymous": false,
      "inputs": [
        {
          "indexed": true,
          "internalType": "address",
          "name": "_owner",
          "type": "address"
        },
        {
          "indexed": false,
          "internalType": "uint256",
          "name": "_charityId",
          "type": "uint256"
        }
      ],
      "name": "CharityWhitelisted",
      "type": "event"
    },
    {
      "anonymous": false,
      "inputs": [
        {
          "indexed": true,
          "internalType": "address",
          "name": "_owner",
          "type": "address"
        },
        {
          "indexed": true,
          "internalType": "address",
          "name": "_nominee",
          "type": "address"
        },
        {
          "indexed": true,
          "internalType": "address",
          "name": "_tokenAddress",
          "type": "address"
        },
        {
          "indexed": false,
          "internalType": "uint256",
          "name": "_tokenId",
          "type": "uint256"
        }
      ],
      "name": "Claimed",
      "type": "event"
    },
    {
      "anonymous": false,
      "inputs": [
        {
          "indexed": true,
          "internalType": "address",
          "name": "_owner",
          "type": "address"
        }
      ],
      "name": "EmailVerified",
      "type": "event"
    },
    {
      "anonymous": false,
      "inputs": [
        {
          "indexed": true,
          "internalType": "address",
          "name": "_owner",
          "type": "address"
        },
        {
          "indexed": false,
          "internalType": "address",
          "name": "_nominee",
          "type": "address"
        },
        {
          "indexed": false,
          "internalType": "string",
          "name": "_name",
          "type": "string"
        },
        {
          "indexed": false,
          "internalType": "string",
          "name": "_mail",
          "type": "string"
        }
      ],
      "name": "NomineeAdded",
      "type": "event"
    },
    {
      "anonymous": false,
      "inputs": [
        {
          "indexed": true,
          "internalType": "address",
          "name": "_owner",
          "type": "address"
        },
        {
          "indexed": true,
          "internalType": "address",
          "name": "_oldAddress",
          "type": "address"
        },
        {
          "indexed": true,
          "internalType": "address",
          "name": "_newAddress",
          "type": "address"
        },
        {
          "indexed": false,
          "internalType": "string",
          "name": "_name",
          "type": "string"
        },
        {
          "indexed": false,
          "internalType": "string",
          "name": "_mail",
          "type": "string"
        }
      ],
      "name": "NomineeDetailsUpdated",
      "type": "event"
    },
    {
      "anonymous": false,
      "inputs": [
        {
          "indexed": true,
          "internalType": "address",
          "name": "_owner",
          "type": "address"
        },
        {
          "indexed": false,
          "internalType": "string",
          "name": "_name",
          "type": "string"
        }
      ],
      "name": "OwnerRegistered",
      "type": "event"
    },
    {
      "anonymous": false,
      "inputs": [
        {
          "indexed": true,
          "internalType": "address",
          "name": "_owner",
          "type": "address"
        }
      ],
      "name": "OwnerResponded",
      "type": "event"
    },
    {
      "anonymous": false,
      "inputs": [
        {
          "indexed": true,
          "internalType": "address",
          "name": "previousOwner",
          "type": "address"
        },
        {
          "indexed": true,
          "internalType": "address",
          "name": "newOwner",
          "type": "address"
        }
      ],
      "name": "OwnershipTransferred",
      "type": "event"
    },
    {
      "anonymous": false,
      "inputs": [
        {
          "indexed": true,
          "internalType": "address",
          "name": "_owner",
          "type": "address"
        },
        {
          "indexed": false,
          "internalType": "address",
          "name": "_recoveryAddress",
          "type": "address"
        }
      ],
      "name": "RecoveryAddressAdded",
      "type": "event"
    },
    {
      "anonymous": false,
      "inputs": [
        {
          "indexed": true,
          "internalType": "address",
          "name": "_owner",
          "type": "address"
        },
        {
          "indexed": false,
          "internalType": "string",
          "name": "_date",
          "type": "string"
        }
      ],
      "name": "ResponsedDateSet",
      "type": "event"
    },
    {
      "anonymous": false,
      "inputs": [
        {
          "indexed": true,
          "internalType": "address",
          "name": "_owner",
          "type": "address"
        },
        {
          "indexed": false,
          "internalType": "uint256",
          "name": "_inactivity",
          "type": "uint256"
        },
        {
          "indexed": false,
          "internalType": "uint256",
          "name": "_mail",
          "type": "uint256"
        },
        {
          "indexed": false,
          "internalType": "uint256",
          "name": "_nominee",
          "type": "uint256"
        }
      ],
      "name": "TimePeriodsUpdated",
      "type": "event"
    },
    {
      "anonymous": false,
      "inputs": [
        {
          "indexed": true,
          "internalType": "address",
          "name": "_owner",
          "type": "address"
        },
        {
          "indexed": true,
          "internalType": "address",
          "name": "_tokenAddress",
          "type": "address"
        },
        {
          "indexed": true,
          "internalType": "uint256",
          "name": "_tokenId",
          "type": "uint256"
        }
      ],
      "name": "TokenStructureAssigned",
      "type": "event"
    },
    {
      "inputs": [
        {
          "internalType": "string",
          "name": "_name",
          "type": "string"
        },
        {
          "internalType": "string",
          "name": "_email",
          "type": "string"
        },
        {
          "internalType": "address",
          "name": "_nominee",
          "type": "address"
        }
      ],
      "name": "addNomineesDetails",
      "outputs": [],
      "stateMutability": "nonpayable",
      "type": "function"
    },
    {
      "inputs": [
        {
          "internalType": "string",
          "name": "_name",
          "type": "string"
        },
        {
          "internalType": "string",
          "name": "_email",
          "type": "string"
        },
        {
          "internalType": "string",
          "name": "_cid",
          "type": "string"
        }
      ],
      "name": "addOwnerDetails",
      "outputs": [],
      "stateMutability": "nonpayable",
      "type": "function"
    },
    {
      "inputs": [
        {
          "internalType": "address",
          "name": "_recoveryAddress",
          "type": "address"
        }
      ],
      "name": "addWalletRecovery",
      "outputs": [],
      "stateMutability": "nonpayable",
      "type": "function"
    },
    {
      "inputs": [
        {
          "internalType": "address",
          "name": "",
          "type": "address"
        }
      ],
      "name": "addressToNominee",
      "outputs": [
        {
          "internalType": "string",
          "name": "nominee_name",
          "type": "string"
        },
        {
          "internalType": "string",
          "name": "nominee_email",
          "type": "string"
        },
        {
          "internalType": "address",
          "name": "nominee_address",
          "type": "address"
        },
        {
          "internalType": "bool",
          "name": "hasClaimed",
          "type": "bool"
        }
      ],
      "stateMutability": "view",
      "type": "function"
    },
    {
      "inputs": [
        {
          "internalType": "address",
          "name": "",
          "type": "address"
        }
      ],
      "name": "addressToOwner",
      "outputs": [
        {
          "internalType": "string",
          "name": "owner_name",
          "type": "string"
        },
        {
          "internalType": "string",
          "name": "owner_email",
          "type": "string"
        },
        {
          "internalType": "string",
          "name": "image_cid",
          "type": "string"
        },
        {
          "internalType": "bool",
          "name": "isEmailVerified",
          "type": "bool"
        },
        {
          "internalType": "bool",
          "name": "isAlive",
          "type": "bool"
        },
        {
          "internalType": "address",
          "name": "recoveryAddress",
          "type": "address"
        },
        {
          "internalType": "uint256",
          "name": "monthsOfInactivity",
          "type": "uint256"
        },
        {
          "internalType": "uint256",
          "name": "monthsOfSendingMailToOwner",
          "type": "uint256"
        },
        {
          "internalType": "uint256",
          "name": "monthsForNominee",
          "type": "uint256"
        }
      ],
      "stateMutability": "view",
      "type": "function"
    },
    {
      "inputs": [
        {
          "internalType": "address",
          "name": "_owner",
          "type": "address"
        },
        {
          "internalType": "address",
          "name": "_tokenAddress",
          "type": "address"
        },
        {
          "internalType": "string",
          "name": "_tokenName",
          "type": "string"
        },
        {
          "internalType": "string",
          "name": "_category",
          "type": "string"
        },
        {
          "internalType": "uint256",
          "name": "_tokenId",
          "type": "uint256"
        },
        {
          "internalType": "uint256",
          "name": "amount",
          "type": "uint256"
        }
      ],
      "name": "assignTokenStruct",
      "outputs": [],
      "stateMutability": "nonpayable",
      "type": "function"
    },
    {
      "inputs": [
        {
          "internalType": "uint256",
          "name": "_inactivity",
          "type": "uint256"
        },
        {
          "internalType": "uint256",
          "name": "_mail",
          "type": "uint256"
        },
        {
          "internalType": "uint256",
          "name": "_nominee",
          "type": "uint256"
        }
      ],
      "name": "changeTimePeriods",
      "outputs": [],
      "stateMutability": "nonpayable",
      "type": "function"
    },
    {
      "inputs": [
        {
          "internalType": "address",
          "name": "_owner",
          "type": "address"
        }
      ],
      "name": "checkVerification",
      "outputs": [
        {
          "internalType": "bool",
          "name": "",
          "type": "bool"
        }
      ],
      "stateMutability": "view",
      "type": "function"
    },
    {
      "inputs": [
        {
          "internalType": "address",
          "name": "_owner",
          "type": "address"
        },
        {
          "internalType": "address",
          "name": "_tokenAddress",
          "type": "address"
        },
        {
          "internalType": "uint256",
          "name": "_amount",
          "type": "uint256"
        },
        {
          "internalType": "uint256",
          "name": "_tokenId",
          "type": "uint256"
        }
      ],
      "name": "claim",
      "outputs": [],
      "stateMutability": "nonpayable",
      "type": "function"
    },
    {
      "inputs": [
        {
          "internalType": "address",
          "name": "_oldNomineeAddress",
          "type": "address"
        },
        {
          "internalType": "string",
          "name": "_name",
          "type": "string"
        },
        {
          "internalType": "string",
          "name": "_email",
          "type": "string"
        },
        {
          "internalType": "address",
          "name": "_newNomineeAddress",
          "type": "address"
        }
      ],
      "name": "editNomineeDetails",
      "outputs": [],
      "stateMutability": "nonpayable",
      "type": "function"
    },
    {
      "inputs": [
        {
          "internalType": "address",
          "name": "_owner",
          "type": "address"
        }
      ],
      "name": "getAllNominees",
      "outputs": [
        {
          "internalType": "address[]",
          "name": "",
          "type": "address[]"
        }
      ],
      "stateMutability": "view",
      "type": "function"
    },
    {
      "inputs": [
        {
          "internalType": "address",
          "name": "_owner",
          "type": "address"
        }
      ],
      "name": "getAllWhiteListedCharities",
      "outputs": [
        {
          "internalType": "uint256[]",
          "name": "",
          "type": "uint256[]"
        }
      ],
      "stateMutability": "view",
      "type": "function"
    },
    {
      "inputs": [
        {
          "internalType": "address",
          "name": "_owner",
          "type": "address"
        },
        {
          "internalType": "address",
          "name": "_tokenAddress",
          "type": "address"
        }
      ],
      "name": "getIsNominated",
      "outputs": [
        {
          "internalType": "bool",
          "name": "",
          "type": "bool"
        }
      ],
      "stateMutability": "view",
      "type": "function"
    },
    {
      "inputs": [
        {
          "internalType": "address",
          "name": "_nominee",
          "type": "address"
        }
      ],
      "name": "getNomineeDetails",
      "outputs": [
        {
          "components": [
            {
              "internalType": "string",
              "name": "nominee_name",
              "type": "string"
            },
            {
              "internalType": "string",
              "name": "nominee_email",
              "type": "string"
            },
            {
              "internalType": "address",
              "name": "nominee_address",
              "type": "address"
            },
            {
              "internalType": "bool",
              "name": "hasClaimed",
              "type": "bool"
            }
          ],
          "internalType": "struct Inheritokens.Nominee",
          "name": "",
          "type": "tuple"
        }
      ],
      "stateMutability": "view",
      "type": "function"
    },
    {
      "inputs": [
        {
          "internalType": "address",
          "name": "_owner",
          "type": "address"
        }
      ],
      "name": "getOwnerAlive",
      "outputs": [
        {
          "internalType": "bool",
          "name": "",
          "type": "bool"
        }
      ],
      "stateMutability": "view",
      "type": "function"
    },
    {
      "inputs": [
        {
          "internalType": "address",
          "name": "_owner",
          "type": "address"
        }
      ],
      "name": "getOwnerDetails",
      "outputs": [
        {
          "components": [
            {
              "internalType": "string",
              "name": "owner_name",
              "type": "string"
            },
            {
              "internalType": "string",
              "name": "owner_email",
              "type": "string"
            },
            {
              "internalType": "string",
              "name": "image_cid",
              "type": "string"
            },
            {
              "internalType": "bool",
              "name": "isEmailVerified",
              "type": "bool"
            },
            {
              "internalType": "bool",
              "name": "isAlive",
              "type": "bool"
            },
            {
              "internalType": "address",
              "name": "recoveryAddress",
              "type": "address"
            },
            {
              "internalType": "address[]",
              "name": "nominees",
              "type": "address[]"
            },
            {
              "internalType": "uint256[]",
              "name": "charities",
              "type": "uint256[]"
            },
            {
              "internalType": "uint256",
              "name": "monthsOfInactivity",
              "type": "uint256"
            },
            {
              "internalType": "uint256",
              "name": "monthsOfSendingMailToOwner",
              "type": "uint256"
            },
            {
              "internalType": "uint256",
              "name": "monthsForNominee",
              "type": "uint256"
            }
          ],
          "internalType": "struct Inheritokens.Owner",
          "name": "",
          "type": "tuple"
        }
      ],
      "stateMutability": "view",
      "type": "function"
    },
    {
      "inputs": [],
      "name": "getOwners",
      "outputs": [
        {
          "internalType": "address[]",
          "name": "",
          "type": "address[]"
        }
      ],
      "stateMutability": "view",
      "type": "function"
    },
    {
      "inputs": [
        {
          "internalType": "address",
          "name": "_owner",
          "type": "address"
        }
      ],
      "name": "getRecoveryAddress",
      "outputs": [
        {
          "internalType": "address",
          "name": "",
          "type": "address"
        }
      ],
      "stateMutability": "view",
      "type": "function"
    },
    {
      "inputs": [
        {
          "internalType": "address",
          "name": "_owner",
          "type": "address"
        }
      ],
      "name": "getResponse",
      "outputs": [
        {
          "internalType": "bool",
          "name": "",
          "type": "bool"
        }
      ],
      "stateMutability": "view",
      "type": "function"
    },
    {
      "inputs": [
        {
          "internalType": "address",
          "name": "_owner",
          "type": "address"
        }
      ],
      "name": "getResponseDate",
      "outputs": [
        {
          "internalType": "string",
          "name": "",
          "type": "string"
        }
      ],
      "stateMutability": "view",
      "type": "function"
    },
    {
      "inputs": [],
      "name": "getTotalOwners",
      "outputs": [
        {
          "internalType": "uint256",
          "name": "",
          "type": "uint256"
        }
      ],
      "stateMutability": "view",
      "type": "function"
    },
    {
      "inputs": [
        {
          "internalType": "address",
          "name": "",
          "type": "address"
        }
      ],
      "name": "isNomineeAdded",
      "outputs": [
        {
          "internalType": "bool",
          "name": "",
          "type": "bool"
        }
      ],
      "stateMutability": "view",
      "type": "function"
    },
    {
      "inputs": [
        {
          "internalType": "address",
          "name": "",
          "type": "address"
        }
      ],
      "name": "isOwnerAdded",
      "outputs": [
        {
          "internalType": "bool",
          "name": "",
          "type": "bool"
        }
      ],
      "stateMutability": "view",
      "type": "function"
    },
    {
      "inputs": [],
      "name": "owner",
      "outputs": [
        {
          "internalType": "address",
          "name": "",
          "type": "address"
        }
      ],
      "stateMutability": "view",
      "type": "function"
    },
    {
      "inputs": [
        {
          "internalType": "address",
          "name": "",
          "type": "address"
        }
      ],
      "name": "ownerToResponse",
      "outputs": [
        {
          "internalType": "string",
          "name": "date",
          "type": "string"
        },
        {
          "internalType": "bool",
          "name": "isResponsed",
          "type": "bool"
        }
      ],
      "stateMutability": "view",
      "type": "function"
    },
    {
      "inputs": [
        {
          "internalType": "uint256",
          "name": "",
          "type": "uint256"
        }
      ],
      "name": "owners",
      "outputs": [
        {
          "internalType": "address",
          "name": "",
          "type": "address"
        }
      ],
      "stateMutability": "view",
      "type": "function"
    },
    {
      "inputs": [],
      "name": "renounceOwnership",
      "outputs": [],
      "stateMutability": "nonpayable",
      "type": "function"
    },
    {
      "inputs": [
        {
          "internalType": "address",
          "name": "_owner",
          "type": "address"
        }
      ],
      "name": "setOwnerNotAlive",
      "outputs": [],
      "stateMutability": "nonpayable",
      "type": "function"
    },
    {
      "inputs": [],
      "name": "setResponse",
      "outputs": [],
      "stateMutability": "nonpayable",
      "type": "function"
    },
    {
      "inputs": [
        {
          "internalType": "address",
          "name": "_owner",
          "type": "address"
        },
        {
          "internalType": "string",
          "name": "_date",
          "type": "string"
        }
      ],
      "name": "setResponseDate",
      "outputs": [],
      "stateMutability": "nonpayable",
      "type": "function"
    },
    {
      "inputs": [
        {
          "internalType": "uint256",
          "name": "_charityId",
          "type": "uint256"
        }
      ],
      "name": "setWhiteListedCharities",
      "outputs": [],
      "stateMutability": "nonpayable",
      "type": "function"
    },
    {
      "inputs": [
        {
          "internalType": "address",
          "name": "",
          "type": "address"
        },
        {
          "internalType": "address",
          "name": "",
          "type": "address"
        }
      ],
      "name": "tokenAddressToTokenStruct",
      "outputs": [
        {
          "internalType": "address",
          "name": "token_address",
          "type": "address"
        },
        {
          "internalType": "string",
          "name": "token_name",
          "type": "string"
        },
        {
          "internalType": "string",
          "name": "category",
          "type": "string"
        },
        {
          "internalType": "uint256",
          "name": "token_id",
          "type": "uint256"
        },
        {
          "internalType": "uint256",
          "name": "allocated_share",
          "type": "uint256"
        },
        {
          "internalType": "bool",
          "name": "isNominated",
          "type": "bool"
        }
      ],
      "stateMutability": "view",
      "type": "function"
    },
    {
      "inputs": [
        {
          "internalType": "address",
          "name": "newOwner",
          "type": "address"
        }
      ],
      "name": "transferOwnership",
      "outputs": [],
      "stateMutability": "nonpayable",
      "type": "function"
    },
    {
      "inputs": [
        {
          "internalType": "address",
          "name": "_owner",
          "type": "address"
        },
        {
          "internalType": "address",
          "name": "_tokenAddress",
          "type": "address"
        },
        {
          "internalType": "uint256",
          "name": "_amount",
          "type": "uint256"
        }
      ],
      "name": "updateAllocatedShare",
      "outputs": [],
      "stateMutability": "nonpayable",
      "type": "function"
    },
    {
      "inputs": [],
      "name": "verifyOwnerEmail",
      "outputs": [],
      "stateMutability": "nonpayable",
      "type": "function"
    }
  ],
  "bytecode": "0x60806040523480156200001157600080fd5b5062000032620000266200003860201b60201c565b6200004060201b60201c565b62000104565b600033905090565b60008060009054906101000a900473ffffffffffffffffffffffffffffffffffffffff169050816000806101000a81548173ffffffffffffffffffffffffffffffffffffffff021916908373ffffffffffffffffffffffffffffffffffffffff1602179055508173ffffffffffffffffffffffffffffffffffffffff168173ffffffffffffffffffffffffffffffffffffffff167f8be0079c531659141344cd1fd0a4f28419497f9722a3daafe3b4186f6b6457e060405160405180910390a35050565b61502f80620001146000396000f3fe608060405234801561001057600080fd5b50600436106102115760003560e01c8063883a235311610125578063cb144b39116100ad578063de508c5b1161007c578063de508c5b14610652578063e62d4f7c14610687578063e9c15555146106b7578063f2fde38b146106d3578063f8009785146106ef57610211565b8063cb144b39146105b7578063cd0e5091146105d3578063cf751c4414610603578063db23f9f31461063457610211565b8063a06d3e97116100f4578063a06d3e9714610513578063a0e67e2b1461051d578063a5394b391461053b578063baab979714610557578063c3bb81211461058757610211565b8063883a23531461048d5780638da5cb5b146104a95780638e5d2099146104c7578063984fd10c146104f757610211565b8063511865e9116101a85780636199997f116101775780636199997f146103d75780636a5e893814610407578063715018a61461043757806376f0ffc6146104415780638258d0211461047157610211565b8063511865e91461034e57806354add3e71461037e5780635a863c111461039a57806360c5602b146103cd57610211565b806337950bfe116101e457806337950bfe146102b65780633bf01bf8146102d2578063433a05b0146102ee5780634950956e1461031e57610211565b8063025e7c27146102165780631056d26d14610246578063159305e11461026257806326af48321461029a575b600080fd5b610230600480360381019061022b9190613a00565b61071f565b60405161023d9190613a6e565b60405180910390f35b610260600480360381019061025b9190613ab5565b61075e565b005b61027c60048036038101906102779190613ab5565b61094b565b60405161029199989796959493929190613b9c565b60405180910390f35b6102b460048036038101906102af9190613c3e565b610b6b565b005b6102d060048036038101906102cb9190613ca5565b610e72565b005b6102ec60048036038101906102e79190613e2d565b6110b9565b005b61030860048036038101906103039190613ab5565b6113a3565b6040516103159190613ef2565b60405180910390f35b61033860048036038101906103339190613ab5565b6113fc565b6040516103459190613fdf565b60405180910390f35b61036860048036038101906103639190613ab5565b6115ea565b6040516103759190613a6e565b60405180910390f35b61039860048036038101906103939190614001565b611656565b005b6103b460048036038101906103af9190613ab5565b611700565b6040516103c4949392919061405d565b60405180910390f35b6103d561186d565b005b6103f160048036038101906103ec9190613ab5565b61190d565b6040516103fe9190613ef2565b60405180910390f35b610421600480360381019061041c9190613ab5565b611966565b60405161042e91906140b0565b60405180910390f35b61043f611a3a565b005b61045b60048036038101906104569190613ab5565b611a4e565b6040516104689190613ef2565b60405180910390f35b61048b600480360381019061048691906140d2565b611a6e565b005b6104a760048036038101906104a29190613a00565b611e87565b005b6104b161205c565b6040516104be9190613a6e565b60405180910390f35b6104e160048036038101906104dc9190614179565b612085565b6040516104ee9190613ef2565b60405180910390f35b610511600480360381019061050c91906141b9565b61211c565b005b61051b6126f4565b005b6105256128b8565b6040516105329190614307565b60405180910390f35b61055560048036038101906105509190613ab5565b612946565b005b610571600480360381019061056c9190613ab5565b6129ac565b60405161057e9190613ef2565b60405180910390f35b6105a1600480360381019061059c9190613ab5565b612a05565b6040516105ae9190614561565b60405180910390f35b6105d160048036038101906105cc9190614583565b612da5565b005b6105ed60048036038101906105e89190613ab5565b613156565b6040516105fa9190613ef2565b60405180910390f35b61061d60048036038101906106189190613ab5565b613176565b60405161062b92919061460e565b60405180910390f35b61063c61322f565b604051610649919061463e565b60405180910390f35b61066c60048036038101906106679190614179565b61323c565b60405161067e96959493929190614659565b60405180910390f35b6106a1600480360381019061069c9190613ab5565b6133c2565b6040516106ae9190614737565b60405180910390f35b6106d160048036038101906106cc9190614759565b61345c565b005b6106ed60048036038101906106e89190613ab5565b613665565b005b61070960048036038101906107049190613ab5565b6136e8565b6040516107169190614307565b60405180910390f35b6001818154811061072f57600080fd5b906000526020600020016000915054906101000a900473ffffffffffffffffffffffffffffffffffffffff1681565b600260003373ffffffffffffffffffffffffffffffffffffffff1673ffffffffffffffffffffffffffffffffffffffff16815260200190815260200160002060009054906101000a900460ff166107ea576040517f08c379a00000000000000000000000000000000000000000000000000000000081526004016107e1906147f8565b60405180910390fd5b600360003373ffffffffffffffffffffffffffffffffffffffff1673ffffffffffffffffffffffffffffffffffffffff16815260200190815260200160002060030160009054906101000a900460ff16610879576040517f08c379a000000000000000000000000000000000000000000000000000000000815260040161087090614864565b60405180910390fd5b80600360003373ffffffffffffffffffffffffffffffffffffffff1673ffffffffffffffffffffffffffffffffffffffff16815260200190815260200160002060030160026101000a81548173ffffffffffffffffffffffffffffffffffffffff021916908373ffffffffffffffffffffffffffffffffffffffff1602179055503373ffffffffffffffffffffffffffffffffffffffff167f7fa39328717f9bda0ec36a3638c195f29c2a4c5ed45d321be74cc64f092c2d36826040516109409190613a6e565b60405180910390a250565b600360205280600052604060002060009150905080600001805461096e906148b3565b80601f016020809104026020016040519081016040528092919081815260200182805461099a906148b3565b80156109e75780601f106109bc576101008083540402835291602001916109e7565b820191906000526020600020905b8154815290600101906020018083116109ca57829003601f168201915b5050505050908060010180546109fc906148b3565b80601f0160208091040260200160405190810160405280929190818152602001828054610a28906148b3565b8015610a755780601f10610a4a57610100808354040283529160200191610a75565b820191906000526020600020905b815481529060010190602001808311610a5857829003601f168201915b505050505090806002018054610a8a906148b3565b80601f0160208091040260200160405190810160405280929190818152602001828054610ab6906148b3565b8015610b035780601f10610ad857610100808354040283529160200191610b03565b820191906000526020600020905b815481529060010190602001808311610ae657829003601f168201915b5050505050908060030160009054906101000a900460ff16908060030160019054906101000a900460ff16908060030160029054906101000a900473ffffffffffffffffffffffffffffffffffffffff16908060060154908060070154908060080154905089565b60005b600360008673ffffffffffffffffffffffffffffffffffffffff1673ffffffffffffffffffffffffffffffffffffffff16815260200190815260200160002060040180549050811015610def573373ffffffffffffffffffffffffffffffffffffffff16600360008773ffffffffffffffffffffffffffffffffffffffff1673ffffffffffffffffffffffffffffffffffffffff1681526020019081526020016000206004018281548110610c2657610c256148e4565b5b9060005260206000200160009054906101000a900473ffffffffffffffffffffffffffffffffffffffff1673ffffffffffffffffffffffffffffffffffffffff1603610ddc576001600460003373ffffffffffffffffffffffffffffffffffffffff1673ffffffffffffffffffffffffffffffffffffffff16815260200190815260200160002060020160146101000a81548160ff02191690831515021790555060008203610d5b5760008490508073ffffffffffffffffffffffffffffffffffffffff166323b872dd8733876040518463ffffffff1660e01b8152600401610d1193929190614913565b6020604051808303816000875af1158015610d30573d6000803e3d6000fd5b505050506040513d601f19601f82011682018060405250810190610d549190614976565b5050610ddb565b6000821115610dda5760008490508073ffffffffffffffffffffffffffffffffffffffff166323b872dd8733866040518463ffffffff1660e01b8152600401610da693929190614913565b600060405180830381600087803b158015610dc057600080fd5b505af1158015610dd4573d6000803e3d6000fd5b50505050505b5b5b8080610de7906149d2565b915050610b6e565b508273ffffffffffffffffffffffffffffffffffffffff163373ffffffffffffffffffffffffffffffffffffffff168573ffffffffffffffffffffffffffffffffffffffff167f913c992353dc81b7a8ba31496c484e9b6306bd2f6c509a649a38fdf5e1c953b284604051610e64919061463e565b60405180910390a450505050565b600260003373ffffffffffffffffffffffffffffffffffffffff1673ffffffffffffffffffffffffffffffffffffffff16815260200190815260200160002060009054906101000a900460ff16610efe576040517f08c379a0000000000000000000000000000000000000000000000000000000008152600401610ef5906147f8565b60405180910390fd5b600360003373ffffffffffffffffffffffffffffffffffffffff1673ffffffffffffffffffffffffffffffffffffffff16815260200190815260200160002060030160009054906101000a900460ff16610f8d576040517f08c379a0000000000000000000000000000000000000000000000000000000008152600401610f8490614864565b60405180910390fd5b82600360003373ffffffffffffffffffffffffffffffffffffffff1673ffffffffffffffffffffffffffffffffffffffff1681526020019081526020016000206006018190555081600360003373ffffffffffffffffffffffffffffffffffffffff1673ffffffffffffffffffffffffffffffffffffffff1681526020019081526020016000206007018190555080600360003373ffffffffffffffffffffffffffffffffffffffff1673ffffffffffffffffffffffffffffffffffffffff168152602001908152602001600020600801819055503373ffffffffffffffffffffffffffffffffffffffff167fa89ed257389bf55f99f23abbebdb8576be22335f63e8f2ed9e12742f3cb4defb8484846040516110ac93929190614a1a565b60405180910390a2505050565b600260003373ffffffffffffffffffffffffffffffffffffffff1673ffffffffffffffffffffffffffffffffffffffff16815260200190815260200160002060009054906101000a900460ff16611145576040517f08c379a000000000000000000000000000000000000000000000000000000000815260040161113c906147f8565b60405180910390fd5b600360003373ffffffffffffffffffffffffffffffffffffffff1673ffffffffffffffffffffffffffffffffffffffff16815260200190815260200160002060030160009054906101000a900460ff166111d4576040517f08c379a00000000000000000000000000000000000000000000000000000000081526004016111cb90614864565b60405180910390fd5b6040518060c001604052808673ffffffffffffffffffffffffffffffffffffffff16815260200185815260200184815260200183815260200182815260200160011515815250600660008873ffffffffffffffffffffffffffffffffffffffff1673ffffffffffffffffffffffffffffffffffffffff16815260200190815260200160002060008773ffffffffffffffffffffffffffffffffffffffff1673ffffffffffffffffffffffffffffffffffffffff16815260200190815260200160002060008201518160000160006101000a81548173ffffffffffffffffffffffffffffffffffffffff021916908373ffffffffffffffffffffffffffffffffffffffff16021790555060208201518160010190816112f29190614bfd565b5060408201518160020190816113089190614bfd565b50606082015181600301556080820151816004015560a08201518160050160006101000a81548160ff021916908315150217905550905050818573ffffffffffffffffffffffffffffffffffffffff168773ffffffffffffffffffffffffffffffffffffffff167fbcd808aacc29273be719505ed6a9bc3a667772d205c392aa0a2cc8409a967bc860405160405180910390a4505050505050565b6000600760008373ffffffffffffffffffffffffffffffffffffffff1673ffffffffffffffffffffffffffffffffffffffff16815260200190815260200160002060010160009054906101000a900460ff169050919050565b611404613902565b600460008373ffffffffffffffffffffffffffffffffffffffff1673ffffffffffffffffffffffffffffffffffffffff16815260200190815260200160002060405180608001604052908160008201805461145e906148b3565b80601f016020809104026020016040519081016040528092919081815260200182805461148a906148b3565b80156114d75780601f106114ac576101008083540402835291602001916114d7565b820191906000526020600020905b8154815290600101906020018083116114ba57829003601f168201915b505050505081526020016001820180546114f0906148b3565b80601f016020809104026020016040519081016040528092919081815260200182805461151c906148b3565b80156115695780601f1061153e57610100808354040283529160200191611569565b820191906000526020600020905b81548152906001019060200180831161154c57829003601f168201915b505050505081526020016002820160009054906101000a900473ffffffffffffffffffffffffffffffffffffffff1673ffffffffffffffffffffffffffffffffffffffff1673ffffffffffffffffffffffffffffffffffffffff1681526020016002820160149054906101000a900460ff1615151515815250509050919050565b6000600360008373ffffffffffffffffffffffffffffffffffffffff1673ffffffffffffffffffffffffffffffffffffffff16815260200190815260200160002060030160029054906101000a900473ffffffffffffffffffffffffffffffffffffffff169050919050565b61165e6137b8565b80600760008473ffffffffffffffffffffffffffffffffffffffff1673ffffffffffffffffffffffffffffffffffffffff16815260200190815260200160002060000190816116ad9190614bfd565b508173ffffffffffffffffffffffffffffffffffffffff167f8a1263962e2474bea0a33055f8d55a8113d3481d759b26d9c9d151ad7e552f19826040516116f491906140b0565b60405180910390a25050565b6004602052806000526040600020600091509050806000018054611723906148b3565b80601f016020809104026020016040519081016040528092919081815260200182805461174f906148b3565b801561179c5780601f106117715761010080835404028352916020019161179c565b820191906000526020600020905b81548152906001019060200180831161177f57829003601f168201915b5050505050908060010180546117b1906148b3565b80601f01602080910402602001604051908101604052809291908181526020018280546117dd906148b3565b801561182a5780601f106117ff5761010080835404028352916020019161182a565b820191906000526020600020905b81548152906001019060200180831161180d57829003601f168201915b5050505050908060020160009054906101000a900473ffffffffffffffffffffffffffffffffffffffff16908060020160149054906101000a900460ff16905084565b6001600760003373ffffffffffffffffffffffffffffffffffffffff1673ffffffffffffffffffffffffffffffffffffffff16815260200190815260200160002060010160006101000a81548160ff0219169083151502179055503373ffffffffffffffffffffffffffffffffffffffff167f10fb698f781e424b2936b656193c9212836bcb66e5da5119147d31561a3d931160405160405180910390a2565b6000600360008373ffffffffffffffffffffffffffffffffffffffff1673ffffffffffffffffffffffffffffffffffffffff16815260200190815260200160002060030160019054906101000a900460ff169050919050565b6060600760008373ffffffffffffffffffffffffffffffffffffffff1673ffffffffffffffffffffffffffffffffffffffff16815260200190815260200160002060000180546119b5906148b3565b80601f01602080910402602001604051908101604052809291908181526020018280546119e1906148b3565b8015611a2e5780601f10611a0357610100808354040283529160200191611a2e565b820191906000526020600020905b815481529060010190602001808311611a1157829003601f168201915b50505050509050919050565b611a426137b8565b611a4c6000613836565b565b60026020528060005260406000206000915054906101000a900460ff1681565b600260003373ffffffffffffffffffffffffffffffffffffffff1673ffffffffffffffffffffffffffffffffffffffff16815260200190815260200160002060009054906101000a900460ff1615611afb576040517f08c379a0000000000000000000000000000000000000000000000000000000008152600401611af290614d1b565b60405180910390fd5b6001339080600181540180825580915050600190039060005260206000200160009091909190916101000a81548173ffffffffffffffffffffffffffffffffffffffff021916908373ffffffffffffffffffffffffffffffffffffffff16021790555082600360003373ffffffffffffffffffffffffffffffffffffffff1673ffffffffffffffffffffffffffffffffffffffff1681526020019081526020016000206000019081611bad9190614bfd565b5081600360003373ffffffffffffffffffffffffffffffffffffffff1673ffffffffffffffffffffffffffffffffffffffff1681526020019081526020016000206001019081611bfd9190614bfd565b5080600360003373ffffffffffffffffffffffffffffffffffffffff1673ffffffffffffffffffffffffffffffffffffffff1681526020019081526020016000206002019081611c4d9190614bfd565b506000600360003373ffffffffffffffffffffffffffffffffffffffff1673ffffffffffffffffffffffffffffffffffffffff16815260200190815260200160002060030160006101000a81548160ff0219169083151502179055506001600360003373ffffffffffffffffffffffffffffffffffffffff1673ffffffffffffffffffffffffffffffffffffffff16815260200190815260200160002060030160016101000a81548160ff0219169083151502179055506006600360003373ffffffffffffffffffffffffffffffffffffffff1673ffffffffffffffffffffffffffffffffffffffff168152602001908152602001600020600601819055506002600360003373ffffffffffffffffffffffffffffffffffffffff1673ffffffffffffffffffffffffffffffffffffffff168152602001908152602001600020600701819055506002600360003373ffffffffffffffffffffffffffffffffffffffff1673ffffffffffffffffffffffffffffffffffffffff168152602001908152602001600020600801819055506001600260003373ffffffffffffffffffffffffffffffffffffffff1673ffffffffffffffffffffffffffffffffffffffff16815260200190815260200160002060006101000a81548160ff0219169083151502179055503373ffffffffffffffffffffffffffffffffffffffff167f5f66e430b448d83d46a65ab17a365f04c0c8f1a66ac20bcc38dfde7f2d67514184604051611e7a91906140b0565b60405180910390a2505050565b600260003373ffffffffffffffffffffffffffffffffffffffff1673ffffffffffffffffffffffffffffffffffffffff16815260200190815260200160002060009054906101000a900460ff16611f13576040517f08c379a0000000000000000000000000000000000000000000000000000000008152600401611f0a906147f8565b60405180910390fd5b600360003373ffffffffffffffffffffffffffffffffffffffff1673ffffffffffffffffffffffffffffffffffffffff16815260200190815260200160002060030160009054906101000a900460ff16611fa2576040517f08c379a0000000000000000000000000000000000000000000000000000000008152600401611f9990614864565b60405180910390fd5b600360003373ffffffffffffffffffffffffffffffffffffffff1673ffffffffffffffffffffffffffffffffffffffff1681526020019081526020016000206005018190806001815401808255809150506001900390600052602060002001600090919091909150553373ffffffffffffffffffffffffffffffffffffffff167f0a9f57650aae67446314481b13a827c479f89b36f2186ba5ced5026358a55c4582604051612051919061463e565b60405180910390a250565b60008060009054906101000a900473ffffffffffffffffffffffffffffffffffffffff16905090565b6000600660008473ffffffffffffffffffffffffffffffffffffffff1673ffffffffffffffffffffffffffffffffffffffff16815260200190815260200160002060008373ffffffffffffffffffffffffffffffffffffffff1673ffffffffffffffffffffffffffffffffffffffff16815260200190815260200160002060050160009054906101000a900460ff16905092915050565b600260003373ffffffffffffffffffffffffffffffffffffffff1673ffffffffffffffffffffffffffffffffffffffff16815260200190815260200160002060009054906101000a900460ff166121a8576040517f08c379a000000000000000000000000000000000000000000000000000000000815260040161219f906147f8565b60405180910390fd5b600360003373ffffffffffffffffffffffffffffffffffffffff1673ffffffffffffffffffffffffffffffffffffffff16815260200190815260200160002060030160009054906101000a900460ff16612237576040517f08c379a000000000000000000000000000000000000000000000000000000000815260040161222e90614864565b60405180910390fd5b600560008573ffffffffffffffffffffffffffffffffffffffff1673ffffffffffffffffffffffffffffffffffffffff16815260200190815260200160002060009054906101000a900460ff166122c3576040517f08c379a00000000000000000000000000000000000000000000000000000000081526004016122ba90614d87565b60405180910390fd5b8073ffffffffffffffffffffffffffffffffffffffff168473ffffffffffffffffffffffffffffffffffffffff160361239b5782600460008673ffffffffffffffffffffffffffffffffffffffff1673ffffffffffffffffffffffffffffffffffffffff16815260200190815260200160002060000190816123459190614bfd565b5081600460008673ffffffffffffffffffffffffffffffffffffffff1673ffffffffffffffffffffffffffffffffffffffff16815260200190815260200160002060010190816123959190614bfd565b50612670565b82600460008373ffffffffffffffffffffffffffffffffffffffff1673ffffffffffffffffffffffffffffffffffffffff16815260200190815260200160002060000190816123ea9190614bfd565b5081600460008373ffffffffffffffffffffffffffffffffffffffff1673ffffffffffffffffffffffffffffffffffffffff168152602001908152602001600020600101908161243a9190614bfd565b5080600460008373ffffffffffffffffffffffffffffffffffffffff1673ffffffffffffffffffffffffffffffffffffffff16815260200190815260200160002060020160006101000a81548173ffffffffffffffffffffffffffffffffffffffff021916908373ffffffffffffffffffffffffffffffffffffffff16021790555060005b600360003373ffffffffffffffffffffffffffffffffffffffff1673ffffffffffffffffffffffffffffffffffffffff1681526020019081526020016000206004018054905081101561266e578473ffffffffffffffffffffffffffffffffffffffff16600360003373ffffffffffffffffffffffffffffffffffffffff1673ffffffffffffffffffffffffffffffffffffffff1681526020019081526020016000206004018281548110612577576125766148e4565b5b9060005260206000200160009054906101000a900473ffffffffffffffffffffffffffffffffffffffff1673ffffffffffffffffffffffffffffffffffffffff160361265b5781600360003373ffffffffffffffffffffffffffffffffffffffff1673ffffffffffffffffffffffffffffffffffffffff1681526020019081526020016000206004018281548110612612576126116148e4565b5b9060005260206000200160006101000a81548173ffffffffffffffffffffffffffffffffffffffff021916908373ffffffffffffffffffffffffffffffffffffffff1602179055505b8080612666906149d2565b9150506124bf565b505b8073ffffffffffffffffffffffffffffffffffffffff168473ffffffffffffffffffffffffffffffffffffffff163373ffffffffffffffffffffffffffffffffffffffff167f98181c10b577f57cab84e5876fe882beef6fd7633fa626a112765254ff1c0a3d86866040516126e6929190614da7565b60405180910390a450505050565b6126fc6137b8565b600260003373ffffffffffffffffffffffffffffffffffffffff1673ffffffffffffffffffffffffffffffffffffffff16815260200190815260200160002060009054906101000a900460ff16612788576040517f08c379a000000000000000000000000000000000000000000000000000000000815260040161277f906147f8565b60405180910390fd5b600360003373ffffffffffffffffffffffffffffffffffffffff1673ffffffffffffffffffffffffffffffffffffffff16815260200190815260200160002060030160009054906101000a900460ff1615612818576040517f08c379a000000000000000000000000000000000000000000000000000000000815260040161280f90614e2a565b60405180910390fd5b6001600360003373ffffffffffffffffffffffffffffffffffffffff1673ffffffffffffffffffffffffffffffffffffffff16815260200190815260200160002060030160006101000a81548160ff0219169083151502179055503373ffffffffffffffffffffffffffffffffffffffff167fc075588536ccbcc926766f9090dd0857af2708dfc82df2166eca1059cadf2ec760405160405180910390a2565b6060600180548060200260200160405190810160405280929190818152602001828054801561293c57602002820191906000526020600020905b8160009054906101000a900473ffffffffffffffffffffffffffffffffffffffff1673ffffffffffffffffffffffffffffffffffffffff16815260200190600101908083116128f2575b5050505050905090565b61294e6137b8565b6000600360008373ffffffffffffffffffffffffffffffffffffffff1673ffffffffffffffffffffffffffffffffffffffff16815260200190815260200160002060030160016101000a81548160ff02191690831515021790555050565b6000600360008373ffffffffffffffffffffffffffffffffffffffff1673ffffffffffffffffffffffffffffffffffffffff16815260200190815260200160002060030160009054906101000a900460ff169050919050565b612a0d613942565b600360008373ffffffffffffffffffffffffffffffffffffffff1673ffffffffffffffffffffffffffffffffffffffff16815260200190815260200160002060405180610160016040529081600082018054612a68906148b3565b80601f0160208091040260200160405190810160405280929190818152602001828054612a94906148b3565b8015612ae15780601f10612ab657610100808354040283529160200191612ae1565b820191906000526020600020905b815481529060010190602001808311612ac457829003601f168201915b50505050508152602001600182018054612afa906148b3565b80601f0160208091040260200160405190810160405280929190818152602001828054612b26906148b3565b8015612b735780601f10612b4857610100808354040283529160200191612b73565b820191906000526020600020905b815481529060010190602001808311612b5657829003601f168201915b50505050508152602001600282018054612b8c906148b3565b80601f0160208091040260200160405190810160405280929190818152602001828054612bb8906148b3565b8015612c055780601f10612bda57610100808354040283529160200191612c05565b820191906000526020600020905b815481529060010190602001808311612be857829003601f168201915b505050505081526020016003820160009054906101000a900460ff161515151581526020016003820160019054906101000a900460ff161515151581526020016003820160029054906101000a900473ffffffffffffffffffffffffffffffffffffffff1673ffffffffffffffffffffffffffffffffffffffff1673ffffffffffffffffffffffffffffffffffffffff16815260200160048201805480602002602001604051908101604052809291908181526020018280548015612d1f57602002820191906000526020600020905b8160009054906101000a900473ffffffffffffffffffffffffffffffffffffffff1673ffffffffffffffffffffffffffffffffffffffff1681526020019060010190808311612cd5575b5050505050815260200160058201805480602002602001604051908101604052809291908181526020018280548015612d7757602002820191906000526020600020905b815481526020019060010190808311612d63575b5050505050815260200160068201548152602001600782015481526020016008820154815250509050919050565b600260003373ffffffffffffffffffffffffffffffffffffffff1673ffffffffffffffffffffffffffffffffffffffff16815260200190815260200160002060009054906101000a900460ff16612e31576040517f08c379a0000000000000000000000000000000000000000000000000000000008152600401612e28906147f8565b60405180910390fd5b600360003373ffffffffffffffffffffffffffffffffffffffff1673ffffffffffffffffffffffffffffffffffffffff16815260200190815260200160002060030160009054906101000a900460ff16612ec0576040517f08c379a0000000000000000000000000000000000000000000000000000000008152600401612eb790614864565b60405180910390fd5b600560008273ffffffffffffffffffffffffffffffffffffffff1673ffffffffffffffffffffffffffffffffffffffff16815260200190815260200160002060009054906101000a900460ff1615612f4d576040517f08c379a0000000000000000000000000000000000000000000000000000000008152600401612f4490614e96565b60405180910390fd5b60405180608001604052808481526020018381526020018273ffffffffffffffffffffffffffffffffffffffff16815260200160001515815250600460008373ffffffffffffffffffffffffffffffffffffffff1673ffffffffffffffffffffffffffffffffffffffff1681526020019081526020016000206000820151816000019081612fdb9190614bfd565b506020820151816001019081612ff19190614bfd565b5060408201518160020160006101000a81548173ffffffffffffffffffffffffffffffffffffffff021916908373ffffffffffffffffffffffffffffffffffffffff16021790555060608201518160020160146101000a81548160ff021916908315150217905550905050600360003373ffffffffffffffffffffffffffffffffffffffff1673ffffffffffffffffffffffffffffffffffffffff168152602001908152602001600020600401819080600181540180825580915050600190039060005260206000200160009091909190916101000a81548173ffffffffffffffffffffffffffffffffffffffff021916908373ffffffffffffffffffffffffffffffffffffffff1602179055503373ffffffffffffffffffffffffffffffffffffffff167fb009d2c813f95b7c48104e6328c1acca60b43cac7e0f4e63c29a8dc5808356ad82858560405161314993929190614eb6565b60405180910390a2505050565b60056020528060005260406000206000915054906101000a900460ff1681565b6007602052806000526040600020600091509050806000018054613199906148b3565b80601f01602080910402602001604051908101604052809291908181526020018280546131c5906148b3565b80156132125780601f106131e757610100808354040283529160200191613212565b820191906000526020600020905b8154815290600101906020018083116131f557829003601f168201915b5050505050908060010160009054906101000a900460ff16905082565b6000600180549050905090565b6006602052816000526040600020602052806000526040600020600091509150508060000160009054906101000a900473ffffffffffffffffffffffffffffffffffffffff1690806001018054613292906148b3565b80601f01602080910402602001604051908101604052809291908181526020018280546132be906148b3565b801561330b5780601f106132e05761010080835404028352916020019161330b565b820191906000526020600020905b8154815290600101906020018083116132ee57829003601f168201915b505050505090806002018054613320906148b3565b80601f016020809104026020016040519081016040528092919081815260200182805461334c906148b3565b80156133995780601f1061336e57610100808354040283529160200191613399565b820191906000526020600020905b81548152906001019060200180831161337c57829003601f168201915b5050505050908060030154908060040154908060050160009054906101000a900460ff16905086565b6060600360008373ffffffffffffffffffffffffffffffffffffffff1673ffffffffffffffffffffffffffffffffffffffff16815260200190815260200160002060050180548060200260200160405190810160405280929190818152602001828054801561345057602002820191906000526020600020905b81548152602001906001019080831161343c575b50505050509050919050565b600260003373ffffffffffffffffffffffffffffffffffffffff1673ffffffffffffffffffffffffffffffffffffffff16815260200190815260200160002060009054906101000a900460ff166134e8576040517f08c379a00000000000000000000000000000000000000000000000000000000081526004016134df906147f8565b60405180910390fd5b600360003373ffffffffffffffffffffffffffffffffffffffff1673ffffffffffffffffffffffffffffffffffffffff16815260200190815260200160002060030160009054906101000a900460ff16613577576040517f08c379a000000000000000000000000000000000000000000000000000000000815260040161356e90614864565b60405180910390fd5b80600660008573ffffffffffffffffffffffffffffffffffffffff1673ffffffffffffffffffffffffffffffffffffffff16815260200190815260200160002060008473ffffffffffffffffffffffffffffffffffffffff1673ffffffffffffffffffffffffffffffffffffffff168152602001908152602001600020600401819055508173ffffffffffffffffffffffffffffffffffffffff168373ffffffffffffffffffffffffffffffffffffffff167fedc81c1b2ba130e51b15caad1a904620ab3ad26168714cfa53da56e1ecda7f9d83604051613658919061463e565b60405180910390a3505050565b61366d6137b8565b600073ffffffffffffffffffffffffffffffffffffffff168173ffffffffffffffffffffffffffffffffffffffff16036136dc576040517f08c379a00000000000000000000000000000000000000000000000000000000081526004016136d390614f6d565b60405180910390fd5b6136e581613836565b50565b6060600360008373ffffffffffffffffffffffffffffffffffffffff1673ffffffffffffffffffffffffffffffffffffffff1681526020019081526020016000206004018054806020026020016040519081016040528092919081815260200182805480156137ac57602002820191906000526020600020905b8160009054906101000a900473ffffffffffffffffffffffffffffffffffffffff1673ffffffffffffffffffffffffffffffffffffffff1681526020019060010190808311613762575b50505050509050919050565b6137c06138fa565b73ffffffffffffffffffffffffffffffffffffffff166137de61205c565b73ffffffffffffffffffffffffffffffffffffffff1614613834576040517f08c379a000000000000000000000000000000000000000000000000000000000815260040161382b90614fd9565b60405180910390fd5b565b60008060009054906101000a900473ffffffffffffffffffffffffffffffffffffffff169050816000806101000a81548173ffffffffffffffffffffffffffffffffffffffff021916908373ffffffffffffffffffffffffffffffffffffffff1602179055508173ffffffffffffffffffffffffffffffffffffffff168173ffffffffffffffffffffffffffffffffffffffff167f8be0079c531659141344cd1fd0a4f28419497f9722a3daafe3b4186f6b6457e060405160405180910390a35050565b600033905090565b60405180608001604052806060815260200160608152602001600073ffffffffffffffffffffffffffffffffffffffff1681526020016000151581525090565b604051806101600160405280606081526020016060815260200160608152602001600015158152602001600015158152602001600073ffffffffffffffffffffffffffffffffffffffff16815260200160608152602001606081526020016000815260200160008152602001600081525090565b6000604051905090565b600080fd5b600080fd5b6000819050919050565b6139dd816139ca565b81146139e857600080fd5b50565b6000813590506139fa816139d4565b92915050565b600060208284031215613a1657613a156139c0565b5b6000613a24848285016139eb565b91505092915050565b600073ffffffffffffffffffffffffffffffffffffffff82169050919050565b6000613a5882613a2d565b9050919050565b613a6881613a4d565b82525050565b6000602082019050613a836000830184613a5f565b92915050565b613a9281613a4d565b8114613a9d57600080fd5b50565b600081359050613aaf81613a89565b92915050565b600060208284031215613acb57613aca6139c0565b5b6000613ad984828501613aa0565b91505092915050565b600081519050919050565b600082825260208201905092915050565b60005b83811015613b1c578082015181840152602081019050613b01565b60008484015250505050565b6000601f19601f8301169050919050565b6000613b4482613ae2565b613b4e8185613aed565b9350613b5e818560208601613afe565b613b6781613b28565b840191505092915050565b60008115159050919050565b613b8781613b72565b82525050565b613b96816139ca565b82525050565b6000610120820190508181036000830152613bb7818c613b39565b90508181036020830152613bcb818b613b39565b90508181036040830152613bdf818a613b39565b9050613bee6060830189613b7e565b613bfb6080830188613b7e565b613c0860a0830187613a5f565b613c1560c0830186613b8d565b613c2260e0830185613b8d565b613c30610100830184613b8d565b9a9950505050505050505050565b60008060008060808587031215613c5857613c576139c0565b5b6000613c6687828801613aa0565b9450506020613c7787828801613aa0565b9350506040613c88878288016139eb565b9250506060613c99878288016139eb565b91505092959194509250565b600080600060608486031215613cbe57613cbd6139c0565b5b6000613ccc868287016139eb565b9350506020613cdd868287016139eb565b9250506040613cee868287016139eb565b9150509250925092565b600080fd5b600080fd5b7f4e487b7100000000000000000000000000000000000000000000000000000000600052604160045260246000fd5b613d3a82613b28565b810181811067ffffffffffffffff82111715613d5957613d58613d02565b5b80604052505050565b6000613d6c6139b6565b9050613d788282613d31565b919050565b600067ffffffffffffffff821115613d9857613d97613d02565b5b613da182613b28565b9050602081019050919050565b82818337600083830152505050565b6000613dd0613dcb84613d7d565b613d62565b905082815260208101848484011115613dec57613deb613cfd565b5b613df7848285613dae565b509392505050565b600082601f830112613e1457613e13613cf8565b5b8135613e24848260208601613dbd565b91505092915050565b60008060008060008060c08789031215613e4a57613e496139c0565b5b6000613e5889828a01613aa0565b9650506020613e6989828a01613aa0565b955050604087013567ffffffffffffffff811115613e8a57613e896139c5565b5b613e9689828a01613dff565b945050606087013567ffffffffffffffff811115613eb757613eb66139c5565b5b613ec389828a01613dff565b9350506080613ed489828a016139eb565b92505060a0613ee589828a016139eb565b9150509295509295509295565b6000602082019050613f076000830184613b7e565b92915050565b600082825260208201905092915050565b6000613f2982613ae2565b613f338185613f0d565b9350613f43818560208601613afe565b613f4c81613b28565b840191505092915050565b613f6081613a4d565b82525050565b613f6f81613b72565b82525050565b60006080830160008301518482036000860152613f928282613f1e565b91505060208301518482036020860152613fac8282613f1e565b9150506040830151613fc16040860182613f57565b506060830151613fd46060860182613f66565b508091505092915050565b60006020820190508181036000830152613ff98184613f75565b905092915050565b60008060408385031215614018576140176139c0565b5b600061402685828601613aa0565b925050602083013567ffffffffffffffff811115614047576140466139c5565b5b61405385828601613dff565b9150509250929050565b600060808201905081810360008301526140778187613b39565b9050818103602083015261408b8186613b39565b905061409a6040830185613a5f565b6140a76060830184613b7e565b95945050505050565b600060208201905081810360008301526140ca8184613b39565b905092915050565b6000806000606084860312156140eb576140ea6139c0565b5b600084013567ffffffffffffffff811115614109576141086139c5565b5b61411586828701613dff565b935050602084013567ffffffffffffffff811115614136576141356139c5565b5b61414286828701613dff565b925050604084013567ffffffffffffffff811115614163576141626139c5565b5b61416f86828701613dff565b9150509250925092565b600080604083850312156141905761418f6139c0565b5b600061419e85828601613aa0565b92505060206141af85828601613aa0565b9150509250929050565b600080600080608085870312156141d3576141d26139c0565b5b60006141e187828801613aa0565b945050602085013567ffffffffffffffff811115614202576142016139c5565b5b61420e87828801613dff565b935050604085013567ffffffffffffffff81111561422f5761422e6139c5565b5b61423b87828801613dff565b925050606061424c87828801613aa0565b91505092959194509250565b600081519050919050565b600082825260208201905092915050565b6000819050602082019050919050565b60006142908383613f57565b60208301905092915050565b6000602082019050919050565b60006142b482614258565b6142be8185614263565b93506142c983614274565b8060005b838110156142fa5781516142e18882614284565b97506142ec8361429c565b9250506001810190506142cd565b5085935050505092915050565b6000602082019050818103600083015261432181846142a9565b905092915050565b600082825260208201905092915050565b600061434582614258565b61434f8185614329565b935061435a83614274565b8060005b8381101561438b5781516143728882614284565b975061437d8361429c565b92505060018101905061435e565b5085935050505092915050565b600081519050919050565b600082825260208201905092915050565b6000819050602082019050919050565b6143cd816139ca565b82525050565b60006143df83836143c4565b60208301905092915050565b6000602082019050919050565b600061440382614398565b61440d81856143a3565b9350614418836143b4565b8060005b8381101561444957815161443088826143d3565b975061443b836143eb565b92505060018101905061441c565b5085935050505092915050565b60006101608301600083015184820360008601526144748282613f1e565b9150506020830151848203602086015261448e8282613f1e565b915050604083015184820360408601526144a88282613f1e565b91505060608301516144bd6060860182613f66565b5060808301516144d06080860182613f66565b5060a08301516144e360a0860182613f57565b5060c083015184820360c08601526144fb828261433a565b91505060e083015184820360e086015261451582826143f8565b91505061010083015161452c6101008601826143c4565b506101208301516145416101208601826143c4565b506101408301516145566101408601826143c4565b508091505092915050565b6000602082019050818103600083015261457b8184614456565b905092915050565b60008060006060848603121561459c5761459b6139c0565b5b600084013567ffffffffffffffff8111156145ba576145b96139c5565b5b6145c686828701613dff565b935050602084013567ffffffffffffffff8111156145e7576145e66139c5565b5b6145f386828701613dff565b925050604061460486828701613aa0565b9150509250925092565b600060408201905081810360008301526146288185613b39565b90506146376020830184613b7e565b9392505050565b60006020820190506146536000830184613b8d565b92915050565b600060c08201905061466e6000830189613a5f565b81810360208301526146808188613b39565b905081810360408301526146948187613b39565b90506146a36060830186613b8d565b6146b06080830185613b8d565b6146bd60a0830184613b7e565b979650505050505050565b600082825260208201905092915050565b60006146e482614398565b6146ee81856146c8565b93506146f9836143b4565b8060005b8381101561472a57815161471188826143d3565b975061471c836143eb565b9250506001810190506146fd565b5085935050505092915050565b6000602082019050818103600083015261475181846146d9565b905092915050565b600080600060608486031215614772576147716139c0565b5b600061478086828701613aa0565b935050602061479186828701613aa0565b92505060406147a2868287016139eb565b9150509250925092565b7f466972737420646f20726567697374726174696f6e0000000000000000000000600082015250565b60006147e2601583613aed565b91506147ed826147ac565b602082019050919050565b60006020820190508181036000830152614811816147d5565b9050919050565b7f656d61696c206973206e6f742076657269666965640000000000000000000000600082015250565b600061484e601583613aed565b915061485982614818565b602082019050919050565b6000602082019050818103600083015261487d81614841565b9050919050565b7f4e487b7100000000000000000000000000000000000000000000000000000000600052602260045260246000fd5b600060028204905060018216806148cb57607f821691505b6020821081036148de576148dd614884565b5b50919050565b7f4e487b7100000000000000000000000000000000000000000000000000000000600052603260045260246000fd5b60006060820190506149286000830186613a5f565b6149356020830185613a5f565b6149426040830184613b8d565b949350505050565b61495381613b72565b811461495e57600080fd5b50565b6000815190506149708161494a565b92915050565b60006020828403121561498c5761498b6139c0565b5b600061499a84828501614961565b91505092915050565b7f4e487b7100000000000000000000000000000000000000000000000000000000600052601160045260246000fd5b60006149dd826139ca565b91507fffffffffffffffffffffffffffffffffffffffffffffffffffffffffffffffff8203614a0f57614a0e6149a3565b5b600182019050919050565b6000606082019050614a2f6000830186613b8d565b614a3c6020830185613b8d565b614a496040830184613b8d565b949350505050565b60008190508160005260206000209050919050565b60006020601f8301049050919050565b600082821b905092915050565b600060088302614ab37fffffffffffffffffffffffffffffffffffffffffffffffffffffffffffffffff82614a76565b614abd8683614a76565b95508019841693508086168417925050509392505050565b6000819050919050565b6000614afa614af5614af0846139ca565b614ad5565b6139ca565b9050919050565b6000819050919050565b614b1483614adf565b614b28614b2082614b01565b848454614a83565b825550505050565b600090565b614b3d614b30565b614b48818484614b0b565b505050565b5b81811015614b6c57614b61600082614b35565b600181019050614b4e565b5050565b601f821115614bb157614b8281614a51565b614b8b84614a66565b81016020851015614b9a578190505b614bae614ba685614a66565b830182614b4d565b50505b505050565b600082821c905092915050565b6000614bd460001984600802614bb6565b1980831691505092915050565b6000614bed8383614bc3565b9150826002028217905092915050565b614c0682613ae2565b67ffffffffffffffff811115614c1f57614c1e613d02565b5b614c2982546148b3565b614c34828285614b70565b600060209050601f831160018114614c675760008415614c55578287015190505b614c5f8582614be1565b865550614cc7565b601f198416614c7586614a51565b60005b82811015614c9d57848901518255600182019150602085019450602081019050614c78565b86831015614cba5784890151614cb6601f891682614bc3565b8355505b6001600288020188555050505b505050505050565b7f416c726561647920726567697374657265640000000000000000000000000000600082015250565b6000614d05601283613aed565b9150614d1082614ccf565b602082019050919050565b60006020820190508181036000830152614d3481614cf8565b9050919050565b7f4e6f6d696e6565206973206e6f74206164646564000000000000000000000000600082015250565b6000614d71601483613aed565b9150614d7c82614d3b565b602082019050919050565b60006020820190508181036000830152614da081614d64565b9050919050565b60006040820190508181036000830152614dc18185613b39565b90508181036020830152614dd58184613b39565b90509392505050565b7f416c726561647920796f757220656d61696c2069732076657269666965640000600082015250565b6000614e14601e83613aed565b9150614e1f82614dde565b602082019050919050565b60006020820190508181036000830152614e4381614e07565b9050919050565b7f4e6f6d696e656520697320616c72656164792061646465640000000000000000600082015250565b6000614e80601883613aed565b9150614e8b82614e4a565b602082019050919050565b60006020820190508181036000830152614eaf81614e73565b9050919050565b6000606082019050614ecb6000830186613a5f565b8181036020830152614edd8185613b39565b90508181036040830152614ef18184613b39565b9050949350505050565b7f4f776e61626c653a206e6577206f776e657220697320746865207a65726f206160008201527f6464726573730000000000000000000000000000000000000000000000000000602082015250565b6000614f57602683613aed565b9150614f6282614efb565b604082019050919050565b60006020820190508181036000830152614f8681614f4a565b9050919050565b7f4f776e61626c653a2063616c6c6572206973206e6f7420746865206f776e6572600082015250565b6000614fc3602083613aed565b9150614fce82614f8d565b602082019050919050565b60006020820190508181036000830152614ff281614fb6565b905091905056fea26469706673582212202d900ca187281ba2c542222d2348b6f5d343ae37fba46216c145b862ce75f15064736f6c63430008110033",
  "linkReferences": {},
  "deployedLinkReferences": {}
}