{
  "_format": "hh-sol-artifact-1",
  "contractName": "Inheritokens",
  "sourceName": "contracts/Inheritokens.sol",
  "abi": [
    {
      "inputs": [],
      "stateMutability": "nonpayable",
      "type": "constructor"
    },
    {
      "anonymous": false,
      "inputs": [
        {
          "indexed": true,
          "internalType": "address",
          "name": "_owner",
          "type": "address"
        },
        {
          "indexed": true,
          "internalType": "address",
          "name": "_tokenAddress",
          "type": "address"
        },
        {
          "indexed": false,
          "internalType": "uint256",
          "name": "_amount",
          "type": "uint256"
        }
      ],
      "name": "AllocatedShareUpdated",
      "type": "event"
    },
    {
      "anonymous": false,
      "inputs": [
        {
          "indexed": true,
          "internalType": "address",
          "name": "_owner",
          "type": "address"
        },
        {
          "indexed": false,
          "internalType": "uint256",
          "name": "_charityId",
          "type": "uint256"
        }
      ],
      "name": "CharityWhitelisted",
      "type": "event"
    },
    {
      "anonymous": false,
      "inputs": [
        {
          "indexed": true,
          "internalType": "address",
          "name": "_owner",
          "type": "address"
        }
      ],
      "name": "EmailVerified",
      "type": "event"
    },
    {
      "anonymous": false,
      "inputs": [
        {
          "indexed": true,
          "internalType": "address",
          "name": "_owner",
          "type": "address"
        },
        {
          "indexed": false,
          "internalType": "address",
          "name": "_nominee",
          "type": "address"
        },
        {
          "indexed": false,
          "internalType": "string",
          "name": "_name",
          "type": "string"
        },
        {
          "indexed": false,
          "internalType": "string",
          "name": "_mail",
          "type": "string"
        }
      ],
      "name": "NomineeAdded",
      "type": "event"
    },
    {
      "anonymous": false,
      "inputs": [
        {
          "indexed": true,
          "internalType": "address",
          "name": "_owner",
          "type": "address"
        },
        {
          "indexed": true,
          "internalType": "address",
          "name": "_oldAddress",
          "type": "address"
        },
        {
          "indexed": true,
          "internalType": "address",
          "name": "_newAddress",
          "type": "address"
        },
        {
          "indexed": false,
          "internalType": "string",
          "name": "_name",
          "type": "string"
        },
        {
          "indexed": false,
          "internalType": "string",
          "name": "_mail",
          "type": "string"
        }
      ],
      "name": "NomineeDetailsUpdated",
      "type": "event"
    },
    {
      "anonymous": false,
      "inputs": [
        {
          "indexed": true,
          "internalType": "address",
          "name": "_owner",
          "type": "address"
        },
        {
          "indexed": false,
          "internalType": "string",
          "name": "_name",
          "type": "string"
        }
      ],
      "name": "OwnerRegistered",
      "type": "event"
    },
    {
      "anonymous": false,
      "inputs": [
        {
          "indexed": true,
          "internalType": "address",
          "name": "_owner",
          "type": "address"
        }
      ],
      "name": "OwnerResponded",
      "type": "event"
    },
    {
      "anonymous": false,
      "inputs": [
        {
          "indexed": true,
          "internalType": "address",
          "name": "previousOwner",
          "type": "address"
        },
        {
          "indexed": true,
          "internalType": "address",
          "name": "newOwner",
          "type": "address"
        }
      ],
      "name": "OwnershipTransferred",
      "type": "event"
    },
    {
      "anonymous": false,
      "inputs": [
        {
          "indexed": true,
          "internalType": "address",
          "name": "_owner",
          "type": "address"
        },
        {
          "indexed": false,
          "internalType": "address",
          "name": "_recoveryAddress",
          "type": "address"
        }
      ],
      "name": "RecoveryAddressAdded",
      "type": "event"
    },
    {
      "anonymous": false,
      "inputs": [
        {
          "indexed": true,
          "internalType": "address",
          "name": "_owner",
          "type": "address"
        },
        {
          "indexed": false,
          "internalType": "string",
          "name": "_date",
          "type": "string"
        }
      ],
      "name": "ResponsedDateSet",
      "type": "event"
    },
    {
      "anonymous": false,
      "inputs": [
        {
          "indexed": true,
          "internalType": "address",
          "name": "_owner",
          "type": "address"
        },
        {
          "indexed": false,
          "internalType": "uint256",
          "name": "_inactivity",
          "type": "uint256"
        },
        {
          "indexed": false,
          "internalType": "uint256",
          "name": "_mail",
          "type": "uint256"
        },
        {
          "indexed": false,
          "internalType": "uint256",
          "name": "_nominee",
          "type": "uint256"
        }
      ],
      "name": "TimePeriodsUpdated",
      "type": "event"
    },
    {
      "anonymous": false,
      "inputs": [
        {
          "indexed": true,
          "internalType": "address",
          "name": "_owner",
          "type": "address"
        },
        {
          "indexed": true,
          "internalType": "address",
          "name": "_tokenAddress",
          "type": "address"
        },
        {
          "indexed": true,
          "internalType": "uint256",
          "name": "_tokenId",
          "type": "uint256"
        }
      ],
      "name": "TokenStructureAssigned",
      "type": "event"
    },
    {
      "inputs": [
        {
          "internalType": "string",
          "name": "_name",
          "type": "string"
        },
        {
          "internalType": "string",
          "name": "_email",
          "type": "string"
        },
        {
          "internalType": "string",
          "name": "_cid",
          "type": "string"
        },
        {
          "internalType": "address",
          "name": "_nominee",
          "type": "address"
        }
      ],
      "name": "addNomineesDetails",
      "outputs": [],
      "stateMutability": "nonpayable",
      "type": "function"
    },
    {
      "inputs": [
        {
          "internalType": "string",
          "name": "_name",
          "type": "string"
        },
        {
          "internalType": "string",
          "name": "_email",
          "type": "string"
        },
        {
          "internalType": "string",
          "name": "_cid",
          "type": "string"
        }
      ],
      "name": "addOwnerDetails",
      "outputs": [],
      "stateMutability": "nonpayable",
      "type": "function"
    },
    {
      "inputs": [
        {
          "internalType": "address",
          "name": "_recoveryAddress",
          "type": "address"
        }
      ],
      "name": "addWalletRecovery",
      "outputs": [],
      "stateMutability": "nonpayable",
      "type": "function"
    },
    {
      "inputs": [
        {
          "internalType": "address",
          "name": "",
          "type": "address"
        },
        {
          "internalType": "address",
          "name": "",
          "type": "address"
        }
      ],
      "name": "addressToNominee",
      "outputs": [
        {
          "internalType": "string",
          "name": "nominee_name",
          "type": "string"
        },
        {
          "internalType": "string",
          "name": "nominee_email",
          "type": "string"
        },
        {
          "internalType": "string",
          "name": "nominee_cid",
          "type": "string"
        },
        {
          "internalType": "address",
          "name": "nominee_address",
          "type": "address"
        }
      ],
      "stateMutability": "view",
      "type": "function"
    },
    {
      "inputs": [
        {
          "internalType": "address",
          "name": "",
          "type": "address"
        }
      ],
      "name": "addressToOwner",
      "outputs": [
        {
          "internalType": "string",
          "name": "owner_name",
          "type": "string"
        },
        {
          "internalType": "string",
          "name": "owner_email",
          "type": "string"
        },
        {
          "internalType": "string",
          "name": "image_cid",
          "type": "string"
        },
        {
          "internalType": "string",
          "name": "date",
          "type": "string"
        },
        {
          "internalType": "bool",
          "name": "isEmailVerified",
          "type": "bool"
        },
        {
          "internalType": "bool",
          "name": "isClaimable",
          "type": "bool"
        },
        {
          "internalType": "bool",
          "name": "isResponsed",
          "type": "bool"
        },
        {
          "internalType": "address",
          "name": "recoveryAddress",
          "type": "address"
        },
        {
          "internalType": "uint256",
          "name": "monthsOfInactivity",
          "type": "uint256"
        },
        {
          "internalType": "uint256",
          "name": "monthsOfSendingMailToOwner",
          "type": "uint256"
        },
        {
          "internalType": "uint256",
          "name": "monthsForNominee",
          "type": "uint256"
        }
      ],
      "stateMutability": "view",
      "type": "function"
    },
    {
      "inputs": [
        {
          "internalType": "address",
          "name": "_owner",
          "type": "address"
        },
        {
          "internalType": "address",
          "name": "_tokenAddress",
          "type": "address"
        },
        {
          "internalType": "string",
          "name": "_tokenName",
          "type": "string"
        },
        {
          "internalType": "uint256",
          "name": "_category",
          "type": "uint256"
        },
        {
          "internalType": "uint256",
          "name": "_tokenId",
          "type": "uint256"
        },
        {
          "internalType": "uint256",
          "name": "amount",
          "type": "uint256"
        }
      ],
      "name": "assignTokenStruct",
      "outputs": [],
      "stateMutability": "nonpayable",
      "type": "function"
    },
    {
      "inputs": [
        {
          "internalType": "uint256",
          "name": "_inactivity",
          "type": "uint256"
        },
        {
          "internalType": "uint256",
          "name": "_mail",
          "type": "uint256"
        },
        {
          "internalType": "uint256",
          "name": "_nominee",
          "type": "uint256"
        }
      ],
      "name": "changeTimePeriods",
      "outputs": [],
      "stateMutability": "nonpayable",
      "type": "function"
    },
    {
      "inputs": [
        {
          "internalType": "address",
          "name": "_owner",
          "type": "address"
        }
      ],
      "name": "checkEmailVerified",
      "outputs": [
        {
          "internalType": "bool",
          "name": "",
          "type": "bool"
        }
      ],
      "stateMutability": "view",
      "type": "function"
    },
    {
      "inputs": [
        {
          "internalType": "address",
          "name": "_owner",
          "type": "address"
        }
      ],
      "name": "checkOwnerAdded",
      "outputs": [
        {
          "internalType": "bool",
          "name": "",
          "type": "bool"
        }
      ],
      "stateMutability": "view",
      "type": "function"
    },
    {
      "inputs": [
        {
          "internalType": "address",
          "name": "_oldNomineeAddress",
          "type": "address"
        },
        {
          "internalType": "string",
          "name": "_name",
          "type": "string"
        },
        {
          "internalType": "string",
          "name": "_email",
          "type": "string"
        },
        {
          "internalType": "string",
          "name": "_cid",
          "type": "string"
        },
        {
          "internalType": "address",
          "name": "_newNomineeAddress",
          "type": "address"
        }
      ],
      "name": "editNomineeDetails",
      "outputs": [],
      "stateMutability": "nonpayable",
      "type": "function"
    },
    {
      "inputs": [
        {
          "internalType": "string",
          "name": "_name",
          "type": "string"
        },
        {
          "internalType": "string",
          "name": "_email",
          "type": "string"
        },
        {
          "internalType": "string",
          "name": "_cid",
          "type": "string"
        }
      ],
      "name": "editOwnerDetails",
      "outputs": [],
      "stateMutability": "nonpayable",
      "type": "function"
    },
    {
      "inputs": [
        {
          "internalType": "address",
          "name": "_owner",
          "type": "address"
        }
      ],
      "name": "getAllNominees",
      "outputs": [
        {
          "internalType": "address[]",
          "name": "",
          "type": "address[]"
        }
      ],
      "stateMutability": "view",
      "type": "function"
    },
    {
      "inputs": [
        {
          "internalType": "address",
          "name": "_owner",
          "type": "address"
        }
      ],
      "name": "getAllNomineesOfOwner",
      "outputs": [
        {
          "internalType": "address[]",
          "name": "",
          "type": "address[]"
        }
      ],
      "stateMutability": "view",
      "type": "function"
    },
    {
      "inputs": [
        {
          "internalType": "address",
          "name": "_owner",
          "type": "address"
        }
      ],
      "name": "getIsClaimable",
      "outputs": [
        {
          "internalType": "bool",
          "name": "",
          "type": "bool"
        }
      ],
      "stateMutability": "view",
      "type": "function"
    },
    {
      "inputs": [
        {
          "internalType": "address",
          "name": "_owner",
          "type": "address"
        }
      ],
      "name": "getOwnerDetails",
      "outputs": [
        {
          "components": [
            {
              "internalType": "string",
              "name": "owner_name",
              "type": "string"
            },
            {
              "internalType": "string",
              "name": "owner_email",
              "type": "string"
            },
            {
              "internalType": "string",
              "name": "image_cid",
              "type": "string"
            },
            {
              "internalType": "string",
              "name": "date",
              "type": "string"
            },
            {
              "internalType": "bool",
              "name": "isEmailVerified",
              "type": "bool"
            },
            {
              "internalType": "bool",
              "name": "isClaimable",
              "type": "bool"
            },
            {
              "internalType": "bool",
              "name": "isResponsed",
              "type": "bool"
            },
            {
              "internalType": "address",
              "name": "recoveryAddress",
              "type": "address"
            },
            {
              "internalType": "address[]",
              "name": "nominees",
              "type": "address[]"
            },
            {
              "internalType": "uint256[]",
              "name": "charities",
              "type": "uint256[]"
            },
            {
              "internalType": "uint256",
              "name": "monthsOfInactivity",
              "type": "uint256"
            },
            {
              "internalType": "uint256",
              "name": "monthsOfSendingMailToOwner",
              "type": "uint256"
            },
            {
              "internalType": "uint256",
              "name": "monthsForNominee",
              "type": "uint256"
            }
          ],
          "internalType": "struct Inheritokens.Owner",
          "name": "",
          "type": "tuple"
        }
      ],
      "stateMutability": "view",
      "type": "function"
    },
    {
      "inputs": [],
      "name": "getOwners",
      "outputs": [
        {
          "internalType": "address[]",
          "name": "",
          "type": "address[]"
        }
      ],
      "stateMutability": "view",
      "type": "function"
    },
    {
      "inputs": [],
      "name": "getTotalOwners",
      "outputs": [
        {
          "internalType": "uint256",
          "name": "",
          "type": "uint256"
        }
      ],
      "stateMutability": "view",
      "type": "function"
    },
    {
      "inputs": [
        {
          "internalType": "address",
          "name": "_owner",
          "type": "address"
        }
      ],
      "name": "getWhiteListedCharities",
      "outputs": [
        {
          "internalType": "uint256[]",
          "name": "",
          "type": "uint256[]"
        }
      ],
      "stateMutability": "view",
      "type": "function"
    },
    {
      "inputs": [
        {
          "internalType": "address",
          "name": "",
          "type": "address"
        },
        {
          "internalType": "address",
          "name": "",
          "type": "address"
        }
      ],
      "name": "isNomineeAdded",
      "outputs": [
        {
          "internalType": "bool",
          "name": "",
          "type": "bool"
        }
      ],
      "stateMutability": "view",
      "type": "function"
    },
    {
      "inputs": [
        {
          "internalType": "address",
          "name": "",
          "type": "address"
        }
      ],
      "name": "isOwnerAdded",
      "outputs": [
        {
          "internalType": "bool",
          "name": "",
          "type": "bool"
        }
      ],
      "stateMutability": "view",
      "type": "function"
    },
    {
      "inputs": [
        {
          "internalType": "address",
          "name": "",
          "type": "address"
        },
        {
          "internalType": "address",
          "name": "",
          "type": "address"
        },
        {
          "internalType": "uint256",
          "name": "",
          "type": "uint256"
        }
      ],
      "name": "nftAddressToTokenStruct",
      "outputs": [
        {
          "internalType": "address",
          "name": "token_address",
          "type": "address"
        },
        {
          "internalType": "string",
          "name": "token_name",
          "type": "string"
        },
        {
          "internalType": "uint256",
          "name": "category",
          "type": "uint256"
        },
        {
          "internalType": "uint256",
          "name": "token_id",
          "type": "uint256"
        },
        {
          "internalType": "uint256",
          "name": "allocated_share",
          "type": "uint256"
        },
        {
          "internalType": "bool",
          "name": "isNominated",
          "type": "bool"
        }
      ],
      "stateMutability": "view",
      "type": "function"
    },
    {
      "inputs": [],
      "name": "owner",
      "outputs": [
        {
          "internalType": "address",
          "name": "",
          "type": "address"
        }
      ],
      "stateMutability": "view",
      "type": "function"
    },
    {
      "inputs": [
        {
          "internalType": "uint256",
          "name": "",
          "type": "uint256"
        }
      ],
      "name": "owners",
      "outputs": [
        {
          "internalType": "address",
          "name": "",
          "type": "address"
        }
      ],
      "stateMutability": "view",
      "type": "function"
    },
    {
      "inputs": [
        {
          "internalType": "uint256",
          "name": "_charityId",
          "type": "uint256"
        }
      ],
      "name": "removeWhiteListedCharities",
      "outputs": [],
      "stateMutability": "nonpayable",
      "type": "function"
    },
    {
      "inputs": [],
      "name": "renounceOwnership",
      "outputs": [],
      "stateMutability": "nonpayable",
      "type": "function"
    },
    {
      "inputs": [
        {
          "internalType": "address",
          "name": "_token",
          "type": "address"
        },
        {
          "internalType": "address",
          "name": "_nft",
          "type": "address"
        }
      ],
      "name": "setMultiplePriorityAddress",
      "outputs": [],
      "stateMutability": "nonpayable",
      "type": "function"
    },
    {
      "inputs": [
        {
          "internalType": "address",
          "name": "_owner",
          "type": "address"
        }
      ],
      "name": "setOwnerNotAlive",
      "outputs": [],
      "stateMutability": "nonpayable",
      "type": "function"
    },
    {
      "inputs": [],
      "name": "setResponse",
      "outputs": [],
      "stateMutability": "nonpayable",
      "type": "function"
    },
    {
      "inputs": [
        {
          "internalType": "address",
          "name": "_owner",
          "type": "address"
        },
        {
          "internalType": "string",
          "name": "_date",
          "type": "string"
        }
      ],
      "name": "setResponseDate",
      "outputs": [],
      "stateMutability": "nonpayable",
      "type": "function"
    },
    {
      "inputs": [
        {
          "internalType": "uint256",
          "name": "_charityId",
          "type": "uint256"
        }
      ],
      "name": "setWhiteListedCharities",
      "outputs": [],
      "stateMutability": "nonpayable",
      "type": "function"
    },
    {
      "inputs": [
        {
          "internalType": "address",
          "name": "",
          "type": "address"
        },
        {
          "internalType": "address",
          "name": "",
          "type": "address"
        }
      ],
      "name": "tokenAddressToTokenStruct",
      "outputs": [
        {
          "internalType": "address",
          "name": "token_address",
          "type": "address"
        },
        {
          "internalType": "string",
          "name": "token_name",
          "type": "string"
        },
        {
          "internalType": "uint256",
          "name": "category",
          "type": "uint256"
        },
        {
          "internalType": "uint256",
          "name": "token_id",
          "type": "uint256"
        },
        {
          "internalType": "uint256",
          "name": "allocated_share",
          "type": "uint256"
        },
        {
          "internalType": "bool",
          "name": "isNominated",
          "type": "bool"
        }
      ],
      "stateMutability": "view",
      "type": "function"
    },
    {
      "inputs": [
        {
          "internalType": "address",
          "name": "newOwner",
          "type": "address"
        }
      ],
      "name": "transferOwnership",
      "outputs": [],
      "stateMutability": "nonpayable",
      "type": "function"
    },
    {
      "inputs": [
        {
          "internalType": "address",
          "name": "_owner",
          "type": "address"
        },
        {
          "internalType": "address",
          "name": "_tokenAddress",
          "type": "address"
        },
        {
          "internalType": "uint256",
          "name": "_tokenId",
          "type": "uint256"
        },
        {
          "internalType": "uint256",
          "name": "_amount",
          "type": "uint256"
        },
        {
          "internalType": "uint256",
          "name": "_category",
          "type": "uint256"
        }
      ],
      "name": "updateAllocatedShare",
      "outputs": [],
      "stateMutability": "nonpayable",
      "type": "function"
    },
    {
      "inputs": [
        {
          "internalType": "address",
          "name": "_owner",
          "type": "address"
        }
      ],
      "name": "verifyOwnerEmail",
      "outputs": [],
      "stateMutability": "nonpayable",
      "type": "function"
    }
  ],
  "bytecode": "0x60806040523480156200001157600080fd5b5062000032620000266200003860201b60201c565b6200004060201b60201c565b62000104565b600033905090565b60008060009054906101000a900473ffffffffffffffffffffffffffffffffffffffff169050816000806101000a81548173ffffffffffffffffffffffffffffffffffffffff021916908373ffffffffffffffffffffffffffffffffffffffff1602179055508173ffffffffffffffffffffffffffffffffffffffff168173ffffffffffffffffffffffffffffffffffffffff167f8be0079c531659141344cd1fd0a4f28419497f9722a3daafe3b4186f6b6457e060405160405180910390a35050565b61598680620001146000396000f3fe608060405234801561001057600080fd5b50600436106102065760003560e01c806376f0ffc61161011a578063b9a98ea8116100ad578063de508c5b1161007c578063de508c5b14610607578063e033c92a1461063c578063e860585d1461066c578063f2fde38b14610688578063f8009785146106a457610206565b8063b9a98ea814610581578063be42d74c1461059d578063c3bb8121146105b9578063db23f9f3146105e957610206565b80638da5cb5b116100e95780638da5cb5b1461050d578063a0e67e2b1461052b578063a5394b3914610549578063b69bd77f1461056557610206565b806376f0ffc6146104725780637aca27bd146104a25780638258d021146104d5578063883a2353146104f157610206565b806324c6439d1161019d5780633d4c12d71161016c5780633d4c12d7146103e257806345bceabd1461041257806354add3e71461044257806360c5602b1461045e578063715018a61461046857610206565b806324c6439d1461037257806325cb763a1461038e578063298bf473146103aa57806337950bfe146103c657610206565b80631056d26d116101d95780631056d26d146102bc578063159305e1146102d857806315b796301461031257806320e4ab6a1461034257610206565b80630220044b1461020b578063025e7c271461024057806306d1681d146102705780630f1f8c051461028c575b600080fd5b61022560048036038101906102209190614167565b6106d4565b60405161023796959493929190614283565b60405180910390f35b61025a600480360381019061025591906142eb565b6107df565b6040516102679190614318565b60405180910390f35b61028a60048036038101906102859190614333565b61081e565b005b6102a660048036038101906102a19190614333565b6109e3565b6040516102b39190614360565b60405180910390f35b6102d660048036038101906102d19190614333565b610a39565b005b6102f260048036038101906102ed9190614333565b610c2a565b6040516103099b9a9998979695949392919061437b565b60405180910390f35b61032c60048036038101906103279190614333565b610eeb565b6040516103399190614360565b60405180910390f35b61035c60048036038101906103579190614333565b610f44565b6040516103699190614500565b60405180910390f35b61038c60048036038101906103879190614522565b611014565b005b6103a860048036038101906103a39190614697565b6110a2565b005b6103c460048036038101906103bf9190614740565b61162c565b005b6103e060048036038101906103db91906147fb565b611ae4565b005b6103fc60048036038101906103f79190614333565b611d2f565b6040516104099190614360565b60405180910390f35b61042c60048036038101906104279190614333565b611d88565b604051610439919061490c565b60405180910390f35b61045c6004803603810190610457919061492e565b611e22565b005b610466611ecc565b005b61047061208b565b005b61048c60048036038101906104879190614333565b61209f565b6040516104999190614360565b60405180910390f35b6104bc60048036038101906104b79190614522565b6120bf565b6040516104cc949392919061498a565b60405180910390f35b6104ef60048036038101906104ea91906149e4565b6122b4565b005b61050b600480360381019061050691906142eb565b6126cd565b005b6105156128a6565b6040516105229190614318565b60405180910390f35b6105336128cf565b6040516105409190614500565b60405180910390f35b610563600480360381019061055e9190614333565b61295d565b005b61057f600480360381019061057a9190614a8b565b612a53565b005b61059b60048036038101906105969190614b06565b612e25565b005b6105b760048036038101906105b291906142eb565b6134aa565b005b6105d360048036038101906105ce9190614333565b613656565b6040516105e09190614e48565b60405180910390f35b6105f1613aa3565b6040516105fe9190614e6a565b60405180910390f35b610621600480360381019061061c9190614522565b613ab0565b60405161063396959493929190614283565b60405180910390f35b61065660048036038101906106519190614522565b613bae565b6040516106639190614360565b60405180910390f35b610686600480360381019061068191906149e4565b613bdd565b005b6106a2600480360381019061069d9190614333565b613d60565b005b6106be60048036038101906106b99190614333565b613de3565b6040516106cb9190614500565b60405180910390f35b600760205282600052604060002060205281600052604060002060205280600052604060002060009250925050508060000160009054906101000a900473ffffffffffffffffffffffffffffffffffffffff169080600101805461073790614eb4565b80601f016020809104026020016040519081016040528092919081815260200182805461076390614eb4565b80156107b05780601f10610785576101008083540402835291602001916107b0565b820191906000526020600020905b81548152906001019060200180831161079357829003601f168201915b5050505050908060020154908060030154908060040154908060050160009054906101000a900460ff16905086565b600181815481106107ef57600080fd5b906000526020600020016000915054906101000a900473ffffffffffffffffffffffffffffffffffffffff1681565b610826613eb3565b600260008273ffffffffffffffffffffffffffffffffffffffff1673ffffffffffffffffffffffffffffffffffffffff16815260200190815260200160002060009054906101000a900460ff166108b2576040517f08c379a00000000000000000000000000000000000000000000000000000000081526004016108a990614f57565b60405180910390fd5b600360008273ffffffffffffffffffffffffffffffffffffffff1673ffffffffffffffffffffffffffffffffffffffff16815260200190815260200160002060040160009054906101000a900460ff1615610942576040517f08c379a000000000000000000000000000000000000000000000000000000000815260040161093990614fe9565b60405180910390fd5b6001600360008373ffffffffffffffffffffffffffffffffffffffff1673ffffffffffffffffffffffffffffffffffffffff16815260200190815260200160002060040160006101000a81548160ff0219169083151502179055508073ffffffffffffffffffffffffffffffffffffffff167fc075588536ccbcc926766f9090dd0857af2708dfc82df2166eca1059cadf2ec760405160405180910390a250565b6000600260008373ffffffffffffffffffffffffffffffffffffffff1673ffffffffffffffffffffffffffffffffffffffff16815260200190815260200160002060009054906101000a900460ff169050919050565b33600260008273ffffffffffffffffffffffffffffffffffffffff1673ffffffffffffffffffffffffffffffffffffffff16815260200190815260200160002060009054906101000a900460ff16610ac6576040517f08c379a0000000000000000000000000000000000000000000000000000000008152600401610abd90614f57565b60405180910390fd5b33600360008273ffffffffffffffffffffffffffffffffffffffff1673ffffffffffffffffffffffffffffffffffffffff16815260200190815260200160002060040160009054906101000a900460ff16610b56576040517f08c379a0000000000000000000000000000000000000000000000000000000008152600401610b4d906150a1565b60405180910390fd5b82600360003373ffffffffffffffffffffffffffffffffffffffff1673ffffffffffffffffffffffffffffffffffffffff16815260200190815260200160002060040160036101000a81548173ffffffffffffffffffffffffffffffffffffffff021916908373ffffffffffffffffffffffffffffffffffffffff1602179055503373ffffffffffffffffffffffffffffffffffffffff167f7fa39328717f9bda0ec36a3638c195f29c2a4c5ed45d321be74cc64f092c2d3684604051610c1d9190614318565b60405180910390a2505050565b6003602052806000526040600020600091509050806000018054610c4d90614eb4565b80601f0160208091040260200160405190810160405280929190818152602001828054610c7990614eb4565b8015610cc65780601f10610c9b57610100808354040283529160200191610cc6565b820191906000526020600020905b815481529060010190602001808311610ca957829003601f168201915b505050505090806001018054610cdb90614eb4565b80601f0160208091040260200160405190810160405280929190818152602001828054610d0790614eb4565b8015610d545780601f10610d2957610100808354040283529160200191610d54565b820191906000526020600020905b815481529060010190602001808311610d3757829003601f168201915b505050505090806002018054610d6990614eb4565b80601f0160208091040260200160405190810160405280929190818152602001828054610d9590614eb4565b8015610de25780601f10610db757610100808354040283529160200191610de2565b820191906000526020600020905b815481529060010190602001808311610dc557829003601f168201915b505050505090806003018054610df790614eb4565b80601f0160208091040260200160405190810160405280929190818152602001828054610e2390614eb4565b8015610e705780601f10610e4557610100808354040283529160200191610e70565b820191906000526020600020905b815481529060010190602001808311610e5357829003601f168201915b5050505050908060040160009054906101000a900460ff16908060040160019054906101000a900460ff16908060040160029054906101000a900460ff16908060040160039054906101000a900473ffffffffffffffffffffffffffffffffffffffff1690806007015490806008015490806009015490508b565b6000600360008373ffffffffffffffffffffffffffffffffffffffff1673ffffffffffffffffffffffffffffffffffffffff16815260200190815260200160002060040160009054906101000a900460ff169050919050565b6060600360008373ffffffffffffffffffffffffffffffffffffffff1673ffffffffffffffffffffffffffffffffffffffff16815260200190815260200160002060050180548060200260200160405190810160405280929190818152602001828054801561100857602002820191906000526020600020905b8160009054906101000a900473ffffffffffffffffffffffffffffffffffffffff1673ffffffffffffffffffffffffffffffffffffffff1681526020019060010190808311610fbe575b50505050509050919050565b61101c613eb3565b81600860006101000a81548173ffffffffffffffffffffffffffffffffffffffff021916908373ffffffffffffffffffffffffffffffffffffffff16021790555080600960006101000a81548173ffffffffffffffffffffffffffffffffffffffff021916908373ffffffffffffffffffffffffffffffffffffffff1602179055505050565b85600260008273ffffffffffffffffffffffffffffffffffffffff1673ffffffffffffffffffffffffffffffffffffffff16815260200190815260200160002060009054906101000a900460ff1661112f576040517f08c379a000000000000000000000000000000000000000000000000000000000815260040161112690614f57565b60405180910390fd5b86600360008273ffffffffffffffffffffffffffffffffffffffff1673ffffffffffffffffffffffffffffffffffffffff16815260200190815260200160002060040160009054906101000a900460ff166111bf576040517f08c379a00000000000000000000000000000000000000000000000000000000081526004016111b6906150a1565b60405180910390fd5b600085036113bc57600860009054906101000a900473ffffffffffffffffffffffffffffffffffffffff1673ffffffffffffffffffffffffffffffffffffffff163373ffffffffffffffffffffffffffffffffffffffff1614611257576040517f08c379a000000000000000000000000000000000000000000000000000000000815260040161124e90615159565b60405180910390fd5b6040518060c001604052808873ffffffffffffffffffffffffffffffffffffffff16815260200187815260200186815260200185815260200184815260200160011515815250600660008a73ffffffffffffffffffffffffffffffffffffffff1673ffffffffffffffffffffffffffffffffffffffff16815260200190815260200160002060008973ffffffffffffffffffffffffffffffffffffffff1673ffffffffffffffffffffffffffffffffffffffff16815260200190815260200160002060008201518160000160006101000a81548173ffffffffffffffffffffffffffffffffffffffff021916908373ffffffffffffffffffffffffffffffffffffffff16021790555060208201518160010190816113759190615325565b5060408201518160020155606082015181600301556080820151816004015560a08201518160050160006101000a81548160ff0219169083151502179055509050506115c7565b600185036115c657600960009054906101000a900473ffffffffffffffffffffffffffffffffffffffff1673ffffffffffffffffffffffffffffffffffffffff163373ffffffffffffffffffffffffffffffffffffffff1614611454576040517f08c379a000000000000000000000000000000000000000000000000000000000815260040161144b90615159565b60405180910390fd5b6040518060c001604052808873ffffffffffffffffffffffffffffffffffffffff16815260200187815260200186815260200185815260200184815260200160011515815250600760008a73ffffffffffffffffffffffffffffffffffffffff1673ffffffffffffffffffffffffffffffffffffffff16815260200190815260200160002060008973ffffffffffffffffffffffffffffffffffffffff1673ffffffffffffffffffffffffffffffffffffffff168152602001908152602001600020600086815260200190815260200160002060008201518160000160006101000a81548173ffffffffffffffffffffffffffffffffffffffff021916908373ffffffffffffffffffffffffffffffffffffffff16021790555060208201518160010190816115839190615325565b5060408201518160020155606082015181600301556080820151816004015560a08201518160050160006101000a81548160ff0219169083151502179055509050505b5b838773ffffffffffffffffffffffffffffffffffffffff168973ffffffffffffffffffffffffffffffffffffffff167fbcd808aacc29273be719505ed6a9bc3a667772d205c392aa0a2cc8409a967bc860405160405180910390a45050505050505050565b33600260008273ffffffffffffffffffffffffffffffffffffffff1673ffffffffffffffffffffffffffffffffffffffff16815260200190815260200160002060009054906101000a900460ff166116b9576040517f08c379a00000000000000000000000000000000000000000000000000000000081526004016116b090614f57565b60405180910390fd5b33600360008273ffffffffffffffffffffffffffffffffffffffff1673ffffffffffffffffffffffffffffffffffffffff16815260200190815260200160002060040160009054906101000a900460ff16611749576040517f08c379a0000000000000000000000000000000000000000000000000000000008152600401611740906150a1565b60405180910390fd5b600560003373ffffffffffffffffffffffffffffffffffffffff1673ffffffffffffffffffffffffffffffffffffffff16815260200190815260200160002060008473ffffffffffffffffffffffffffffffffffffffff1673ffffffffffffffffffffffffffffffffffffffff16815260200190815260200160002060009054906101000a900460ff1615611813576040517f08c379a000000000000000000000000000000000000000000000000000000000815260040161180a906154b5565b60405180910390fd5b60405180608001604052808781526020018681526020018581526020018473ffffffffffffffffffffffffffffffffffffffff16815250600460003373ffffffffffffffffffffffffffffffffffffffff1673ffffffffffffffffffffffffffffffffffffffff16815260200190815260200160002060008573ffffffffffffffffffffffffffffffffffffffff1673ffffffffffffffffffffffffffffffffffffffff16815260200190815260200160002060008201518160000190816118db9190615325565b5060208201518160010190816118f19190615325565b5060408201518160020190816119079190615325565b5060608201518160030160006101000a81548173ffffffffffffffffffffffffffffffffffffffff021916908373ffffffffffffffffffffffffffffffffffffffff160217905550905050600360003373ffffffffffffffffffffffffffffffffffffffff1673ffffffffffffffffffffffffffffffffffffffff168152602001908152602001600020600501839080600181540180825580915050600190039060005260206000200160009091909190916101000a81548173ffffffffffffffffffffffffffffffffffffffff021916908373ffffffffffffffffffffffffffffffffffffffff1602179055506001600560003373ffffffffffffffffffffffffffffffffffffffff1673ffffffffffffffffffffffffffffffffffffffff16815260200190815260200160002060008573ffffffffffffffffffffffffffffffffffffffff1673ffffffffffffffffffffffffffffffffffffffff16815260200190815260200160002060006101000a81548160ff0219169083151502179055503373ffffffffffffffffffffffffffffffffffffffff167fb009d2c813f95b7c48104e6328c1acca60b43cac7e0f4e63c29a8dc5808356ad848888604051611ad4939291906154d5565b60405180910390a2505050505050565b33600260008273ffffffffffffffffffffffffffffffffffffffff1673ffffffffffffffffffffffffffffffffffffffff16815260200190815260200160002060009054906101000a900460ff16611b71576040517f08c379a0000000000000000000000000000000000000000000000000000000008152600401611b6890614f57565b60405180910390fd5b33600360008273ffffffffffffffffffffffffffffffffffffffff1673ffffffffffffffffffffffffffffffffffffffff16815260200190815260200160002060040160009054906101000a900460ff16611c01576040517f08c379a0000000000000000000000000000000000000000000000000000000008152600401611bf8906150a1565b60405180910390fd5b84600360003373ffffffffffffffffffffffffffffffffffffffff1673ffffffffffffffffffffffffffffffffffffffff1681526020019081526020016000206007018190555083600360003373ffffffffffffffffffffffffffffffffffffffff1673ffffffffffffffffffffffffffffffffffffffff1681526020019081526020016000206008018190555082600360003373ffffffffffffffffffffffffffffffffffffffff1673ffffffffffffffffffffffffffffffffffffffff168152602001908152602001600020600901819055503373ffffffffffffffffffffffffffffffffffffffff167fa89ed257389bf55f99f23abbebdb8576be22335f63e8f2ed9e12742f3cb4defb868686604051611d209392919061551a565b60405180910390a25050505050565b6000600360008373ffffffffffffffffffffffffffffffffffffffff1673ffffffffffffffffffffffffffffffffffffffff16815260200190815260200160002060040160019054906101000a900460ff169050919050565b6060600360008373ffffffffffffffffffffffffffffffffffffffff1673ffffffffffffffffffffffffffffffffffffffff168152602001908152602001600020600601805480602002602001604051908101604052809291908181526020018280548015611e1657602002820191906000526020600020905b815481526020019060010190808311611e02575b50505050509050919050565b611e2a613eb3565b80600360008473ffffffffffffffffffffffffffffffffffffffff1673ffffffffffffffffffffffffffffffffffffffff1681526020019081526020016000206003019081611e799190615325565b508173ffffffffffffffffffffffffffffffffffffffff167f8a1263962e2474bea0a33055f8d55a8113d3481d759b26d9c9d151ad7e552f1982604051611ec09190615551565b60405180910390a25050565b33600260008273ffffffffffffffffffffffffffffffffffffffff1673ffffffffffffffffffffffffffffffffffffffff16815260200190815260200160002060009054906101000a900460ff16611f59576040517f08c379a0000000000000000000000000000000000000000000000000000000008152600401611f5090614f57565b60405180910390fd5b33600360008273ffffffffffffffffffffffffffffffffffffffff1673ffffffffffffffffffffffffffffffffffffffff16815260200190815260200160002060040160009054906101000a900460ff16611fe9576040517f08c379a0000000000000000000000000000000000000000000000000000000008152600401611fe0906150a1565b60405180910390fd5b6001600360003373ffffffffffffffffffffffffffffffffffffffff1673ffffffffffffffffffffffffffffffffffffffff16815260200190815260200160002060040160026101000a81548160ff0219169083151502179055503373ffffffffffffffffffffffffffffffffffffffff167f10fb698f781e424b2936b656193c9212836bcb66e5da5119147d31561a3d931160405160405180910390a25050565b612093613eb3565b61209d6000613f31565b565b60026020528060005260406000206000915054906101000a900460ff1681565b6004602052816000526040600020602052806000526040600020600091509150508060000180546120ef90614eb4565b80601f016020809104026020016040519081016040528092919081815260200182805461211b90614eb4565b80156121685780601f1061213d57610100808354040283529160200191612168565b820191906000526020600020905b81548152906001019060200180831161214b57829003601f168201915b50505050509080600101805461217d90614eb4565b80601f01602080910402602001604051908101604052809291908181526020018280546121a990614eb4565b80156121f65780601f106121cb576101008083540402835291602001916121f6565b820191906000526020600020905b8154815290600101906020018083116121d957829003601f168201915b50505050509080600201805461220b90614eb4565b80601f016020809104026020016040519081016040528092919081815260200182805461223790614eb4565b80156122845780601f1061225957610100808354040283529160200191612284565b820191906000526020600020905b81548152906001019060200180831161226757829003601f168201915b5050505050908060030160009054906101000a900473ffffffffffffffffffffffffffffffffffffffff16905084565b600260003373ffffffffffffffffffffffffffffffffffffffff1673ffffffffffffffffffffffffffffffffffffffff16815260200190815260200160002060009054906101000a900460ff1615612341576040517f08c379a0000000000000000000000000000000000000000000000000000000008152600401612338906155e5565b60405180910390fd5b6001339080600181540180825580915050600190039060005260206000200160009091909190916101000a81548173ffffffffffffffffffffffffffffffffffffffff021916908373ffffffffffffffffffffffffffffffffffffffff16021790555082600360003373ffffffffffffffffffffffffffffffffffffffff1673ffffffffffffffffffffffffffffffffffffffff16815260200190815260200160002060000190816123f39190615325565b5081600360003373ffffffffffffffffffffffffffffffffffffffff1673ffffffffffffffffffffffffffffffffffffffff16815260200190815260200160002060010190816124439190615325565b5080600360003373ffffffffffffffffffffffffffffffffffffffff1673ffffffffffffffffffffffffffffffffffffffff16815260200190815260200160002060020190816124939190615325565b506000600360003373ffffffffffffffffffffffffffffffffffffffff1673ffffffffffffffffffffffffffffffffffffffff16815260200190815260200160002060040160006101000a81548160ff0219169083151502179055506000600360003373ffffffffffffffffffffffffffffffffffffffff1673ffffffffffffffffffffffffffffffffffffffff16815260200190815260200160002060040160016101000a81548160ff0219169083151502179055506006600360003373ffffffffffffffffffffffffffffffffffffffff1673ffffffffffffffffffffffffffffffffffffffff168152602001908152602001600020600701819055506002600360003373ffffffffffffffffffffffffffffffffffffffff1673ffffffffffffffffffffffffffffffffffffffff168152602001908152602001600020600801819055506002600360003373ffffffffffffffffffffffffffffffffffffffff1673ffffffffffffffffffffffffffffffffffffffff168152602001908152602001600020600901819055506001600260003373ffffffffffffffffffffffffffffffffffffffff1673ffffffffffffffffffffffffffffffffffffffff16815260200190815260200160002060006101000a81548160ff0219169083151502179055503373ffffffffffffffffffffffffffffffffffffffff167f5f66e430b448d83d46a65ab17a365f04c0c8f1a66ac20bcc38dfde7f2d675141846040516126c09190615551565b60405180910390a2505050565b33600260008273ffffffffffffffffffffffffffffffffffffffff1673ffffffffffffffffffffffffffffffffffffffff16815260200190815260200160002060009054906101000a900460ff1661275a576040517f08c379a000000000000000000000000000000000000000000000000000000000815260040161275190614f57565b60405180910390fd5b33600360008273ffffffffffffffffffffffffffffffffffffffff1673ffffffffffffffffffffffffffffffffffffffff16815260200190815260200160002060040160009054906101000a900460ff166127ea576040517f08c379a00000000000000000000000000000000000000000000000000000000081526004016127e1906150a1565b60405180910390fd5b600360003373ffffffffffffffffffffffffffffffffffffffff1673ffffffffffffffffffffffffffffffffffffffff1681526020019081526020016000206006018390806001815401808255809150506001900390600052602060002001600090919091909150553373ffffffffffffffffffffffffffffffffffffffff167f0a9f57650aae67446314481b13a827c479f89b36f2186ba5ced5026358a55c45846040516128999190614e6a565b60405180910390a2505050565b60008060009054906101000a900473ffffffffffffffffffffffffffffffffffffffff16905090565b6060600180548060200260200160405190810160405280929190818152602001828054801561295357602002820191906000526020600020905b8160009054906101000a900473ffffffffffffffffffffffffffffffffffffffff1673ffffffffffffffffffffffffffffffffffffffff1681526020019060010190808311612909575b5050505050905090565b612965613eb3565b600360008273ffffffffffffffffffffffffffffffffffffffff1673ffffffffffffffffffffffffffffffffffffffff16815260200190815260200160002060040160029054906101000a900460ff16156129f5576040517f08c379a00000000000000000000000000000000000000000000000000000000081526004016129ec90615651565b60405180910390fd5b6001600360008373ffffffffffffffffffffffffffffffffffffffff1673ffffffffffffffffffffffffffffffffffffffff16815260200190815260200160002060040160016101000a81548160ff02191690831515021790555050565b84600260008273ffffffffffffffffffffffffffffffffffffffff1673ffffffffffffffffffffffffffffffffffffffff16815260200190815260200160002060009054906101000a900460ff16612ae0576040517f08c379a0000000000000000000000000000000000000000000000000000000008152600401612ad790614f57565b60405180910390fd5b85600360008273ffffffffffffffffffffffffffffffffffffffff1673ffffffffffffffffffffffffffffffffffffffff16815260200190815260200160002060040160009054906101000a900460ff16612b70576040517f08c379a0000000000000000000000000000000000000000000000000000000008152600401612b67906150a1565b60405180910390fd5b60008303612c9157600860009054906101000a900473ffffffffffffffffffffffffffffffffffffffff1673ffffffffffffffffffffffffffffffffffffffff163373ffffffffffffffffffffffffffffffffffffffff1614612c08576040517f08c379a0000000000000000000000000000000000000000000000000000000008152600401612bff90615159565b60405180910390fd5b83600660008973ffffffffffffffffffffffffffffffffffffffff1673ffffffffffffffffffffffffffffffffffffffff16815260200190815260200160002060008873ffffffffffffffffffffffffffffffffffffffff1673ffffffffffffffffffffffffffffffffffffffff16815260200190815260200160002060040181905550612db7565b600960009054906101000a900473ffffffffffffffffffffffffffffffffffffffff1673ffffffffffffffffffffffffffffffffffffffff163373ffffffffffffffffffffffffffffffffffffffff1614612d21576040517f08c379a0000000000000000000000000000000000000000000000000000000008152600401612d1890615159565b60405180910390fd5b83600760008973ffffffffffffffffffffffffffffffffffffffff1673ffffffffffffffffffffffffffffffffffffffff16815260200190815260200160002060008873ffffffffffffffffffffffffffffffffffffffff1673ffffffffffffffffffffffffffffffffffffffff1681526020019081526020016000206000878152602001908152602001600020600401819055505b8573ffffffffffffffffffffffffffffffffffffffff168773ffffffffffffffffffffffffffffffffffffffff167fedc81c1b2ba130e51b15caad1a904620ab3ad26168714cfa53da56e1ecda7f9d86604051612e149190614e6a565b60405180910390a350505050505050565b33600260008273ffffffffffffffffffffffffffffffffffffffff1673ffffffffffffffffffffffffffffffffffffffff16815260200190815260200160002060009054906101000a900460ff16612eb2576040517f08c379a0000000000000000000000000000000000000000000000000000000008152600401612ea990614f57565b60405180910390fd5b33600360008273ffffffffffffffffffffffffffffffffffffffff1673ffffffffffffffffffffffffffffffffffffffff16815260200190815260200160002060040160009054906101000a900460ff16612f42576040517f08c379a0000000000000000000000000000000000000000000000000000000008152600401612f39906150a1565b60405180910390fd5b600560003373ffffffffffffffffffffffffffffffffffffffff1673ffffffffffffffffffffffffffffffffffffffff16815260200190815260200160002060008873ffffffffffffffffffffffffffffffffffffffff1673ffffffffffffffffffffffffffffffffffffffff16815260200190815260200160002060009054906101000a900460ff1661300b576040517f08c379a000000000000000000000000000000000000000000000000000000000815260040161300290615755565b60405180910390fd5b60005b600360003373ffffffffffffffffffffffffffffffffffffffff1673ffffffffffffffffffffffffffffffffffffffff16815260200190815260200160002060050180549050811015613422578773ffffffffffffffffffffffffffffffffffffffff16600360003373ffffffffffffffffffffffffffffffffffffffff1673ffffffffffffffffffffffffffffffffffffffff16815260200190815260200160002060050182815481106130c6576130c5615775565b5b9060005260206000200160009054906101000a900473ffffffffffffffffffffffffffffffffffffffff1673ffffffffffffffffffffffffffffffffffffffff160361340f5783600360003373ffffffffffffffffffffffffffffffffffffffff1673ffffffffffffffffffffffffffffffffffffffff168152602001908152602001600020600501828154811061316157613160615775565b5b9060005260206000200160006101000a81548173ffffffffffffffffffffffffffffffffffffffff021916908373ffffffffffffffffffffffffffffffffffffffff16021790555086600460003373ffffffffffffffffffffffffffffffffffffffff1673ffffffffffffffffffffffffffffffffffffffff16815260200190815260200160002060008673ffffffffffffffffffffffffffffffffffffffff1673ffffffffffffffffffffffffffffffffffffffff16815260200190815260200160002060000190816132359190615325565b5085600460003373ffffffffffffffffffffffffffffffffffffffff1673ffffffffffffffffffffffffffffffffffffffff16815260200190815260200160002060008673ffffffffffffffffffffffffffffffffffffffff1673ffffffffffffffffffffffffffffffffffffffff16815260200190815260200160002060010190816132c29190615325565b5084600460003373ffffffffffffffffffffffffffffffffffffffff1673ffffffffffffffffffffffffffffffffffffffff16815260200190815260200160002060008673ffffffffffffffffffffffffffffffffffffffff1673ffffffffffffffffffffffffffffffffffffffff168152602001908152602001600020600201908161334f9190615325565b5083600460003373ffffffffffffffffffffffffffffffffffffffff1673ffffffffffffffffffffffffffffffffffffffff16815260200190815260200160002060008673ffffffffffffffffffffffffffffffffffffffff1673ffffffffffffffffffffffffffffffffffffffff16815260200190815260200160002060030160006101000a81548173ffffffffffffffffffffffffffffffffffffffff021916908373ffffffffffffffffffffffffffffffffffffffff1602179055505b808061341a906157d3565b91505061300e565b508273ffffffffffffffffffffffffffffffffffffffff168773ffffffffffffffffffffffffffffffffffffffff163373ffffffffffffffffffffffffffffffffffffffff167f98181c10b577f57cab84e5876fe882beef6fd7633fa626a112765254ff1c0a3d898960405161349992919061581b565b60405180910390a450505050505050565b6000600360003373ffffffffffffffffffffffffffffffffffffffff1673ffffffffffffffffffffffffffffffffffffffff16815260200190815260200160002060060180548060200260200160405190810160405280929190818152602001828054801561353857602002820191906000526020600020905b815481526020019060010190808311613524575b50505050509050600360003373ffffffffffffffffffffffffffffffffffffffff1673ffffffffffffffffffffffffffffffffffffffff168152602001908152602001600020600601600061358d9190613ffd565b60005b815181101561365157828282815181106135ad576135ac615775565b5b60200260200101511461363e57600360003373ffffffffffffffffffffffffffffffffffffffff1673ffffffffffffffffffffffffffffffffffffffff16815260200190815260200160002060060182828151811061360f5761360e615775565b5b602002602001015190806001815401808255809150506001900390600052602060002001600090919091909150555b8080613649906157d3565b915050613590565b505050565b61365e61401e565b600360008373ffffffffffffffffffffffffffffffffffffffff1673ffffffffffffffffffffffffffffffffffffffff168152602001908152602001600020604051806101a00160405290816000820180546136b990614eb4565b80601f01602080910402602001604051908101604052809291908181526020018280546136e590614eb4565b80156137325780601f1061370757610100808354040283529160200191613732565b820191906000526020600020905b81548152906001019060200180831161371557829003601f168201915b5050505050815260200160018201805461374b90614eb4565b80601f016020809104026020016040519081016040528092919081815260200182805461377790614eb4565b80156137c45780601f10613799576101008083540402835291602001916137c4565b820191906000526020600020905b8154815290600101906020018083116137a757829003601f168201915b505050505081526020016002820180546137dd90614eb4565b80601f016020809104026020016040519081016040528092919081815260200182805461380990614eb4565b80156138565780601f1061382b57610100808354040283529160200191613856565b820191906000526020600020905b81548152906001019060200180831161383957829003601f168201915b5050505050815260200160038201805461386f90614eb4565b80601f016020809104026020016040519081016040528092919081815260200182805461389b90614eb4565b80156138e85780601f106138bd576101008083540402835291602001916138e8565b820191906000526020600020905b8154815290600101906020018083116138cb57829003601f168201915b505050505081526020016004820160009054906101000a900460ff161515151581526020016004820160019054906101000a900460ff161515151581526020016004820160029054906101000a900460ff161515151581526020016004820160039054906101000a900473ffffffffffffffffffffffffffffffffffffffff1673ffffffffffffffffffffffffffffffffffffffff1673ffffffffffffffffffffffffffffffffffffffff16815260200160058201805480602002602001604051908101604052809291908181526020018280548015613a1d57602002820191906000526020600020905b8160009054906101000a900473ffffffffffffffffffffffffffffffffffffffff1673ffffffffffffffffffffffffffffffffffffffff16815260200190600101908083116139d3575b5050505050815260200160068201805480602002602001604051908101604052809291908181526020018280548015613a7557602002820191906000526020600020905b815481526020019060010190808311613a61575b5050505050815260200160078201548152602001600882015481526020016009820154815250509050919050565b6000600180549050905090565b6006602052816000526040600020602052806000526040600020600091509150508060000160009054906101000a900473ffffffffffffffffffffffffffffffffffffffff1690806001018054613b0690614eb4565b80601f0160208091040260200160405190810160405280929190818152602001828054613b3290614eb4565b8015613b7f5780601f10613b5457610100808354040283529160200191613b7f565b820191906000526020600020905b815481529060010190602001808311613b6257829003601f168201915b5050505050908060020154908060030154908060040154908060050160009054906101000a900460ff16905086565b60056020528160005260406000206020528060005260406000206000915091509054906101000a900460ff1681565b33600260008273ffffffffffffffffffffffffffffffffffffffff1673ffffffffffffffffffffffffffffffffffffffff16815260200190815260200160002060009054906101000a900460ff16613c6a576040517f08c379a0000000000000000000000000000000000000000000000000000000008152600401613c6190614f57565b60405180910390fd5b83600360003373ffffffffffffffffffffffffffffffffffffffff1673ffffffffffffffffffffffffffffffffffffffff1681526020019081526020016000206000019081613cb99190615325565b5082600360003373ffffffffffffffffffffffffffffffffffffffff1673ffffffffffffffffffffffffffffffffffffffff1681526020019081526020016000206001019081613d099190615325565b5081600360003373ffffffffffffffffffffffffffffffffffffffff1673ffffffffffffffffffffffffffffffffffffffff1681526020019081526020016000206002019081613d599190615325565b5050505050565b613d68613eb3565b600073ffffffffffffffffffffffffffffffffffffffff168173ffffffffffffffffffffffffffffffffffffffff1603613dd7576040517f08c379a0000000000000000000000000000000000000000000000000000000008152600401613dce906158c4565b60405180910390fd5b613de081613f31565b50565b6060600360008373ffffffffffffffffffffffffffffffffffffffff1673ffffffffffffffffffffffffffffffffffffffff168152602001908152602001600020600501805480602002602001604051908101604052809291908181526020018280548015613ea757602002820191906000526020600020905b8160009054906101000a900473ffffffffffffffffffffffffffffffffffffffff1673ffffffffffffffffffffffffffffffffffffffff1681526020019060010190808311613e5d575b50505050509050919050565b613ebb613ff5565b73ffffffffffffffffffffffffffffffffffffffff16613ed96128a6565b73ffffffffffffffffffffffffffffffffffffffff1614613f2f576040517f08c379a0000000000000000000000000000000000000000000000000000000008152600401613f2690615930565b60405180910390fd5b565b60008060009054906101000a900473ffffffffffffffffffffffffffffffffffffffff169050816000806101000a81548173ffffffffffffffffffffffffffffffffffffffff021916908373ffffffffffffffffffffffffffffffffffffffff1602179055508173ffffffffffffffffffffffffffffffffffffffff168173ffffffffffffffffffffffffffffffffffffffff167f8be0079c531659141344cd1fd0a4f28419497f9722a3daafe3b4186f6b6457e060405160405180910390a35050565b600033905090565b508054600082559060005260206000209081019061401b91906140a2565b50565b604051806101a0016040528060608152602001606081526020016060815260200160608152602001600015158152602001600015158152602001600015158152602001600073ffffffffffffffffffffffffffffffffffffffff16815260200160608152602001606081526020016000815260200160008152602001600081525090565b5b808211156140bb5760008160009055506001016140a3565b5090565b6000604051905090565b600080fd5b600080fd5b600073ffffffffffffffffffffffffffffffffffffffff82169050919050565b60006140fe826140d3565b9050919050565b61410e816140f3565b811461411957600080fd5b50565b60008135905061412b81614105565b92915050565b6000819050919050565b61414481614131565b811461414f57600080fd5b50565b6000813590506141618161413b565b92915050565b6000806000606084860312156141805761417f6140c9565b5b600061418e8682870161411c565b935050602061419f8682870161411c565b92505060406141b086828701614152565b9150509250925092565b6141c3816140f3565b82525050565b600081519050919050565b600082825260208201905092915050565b60005b838110156142035780820151818401526020810190506141e8565b60008484015250505050565b6000601f19601f8301169050919050565b600061422b826141c9565b61423581856141d4565b93506142458185602086016141e5565b61424e8161420f565b840191505092915050565b61426281614131565b82525050565b60008115159050919050565b61427d81614268565b82525050565b600060c08201905061429860008301896141ba565b81810360208301526142aa8188614220565b90506142b96040830187614259565b6142c66060830186614259565b6142d36080830185614259565b6142e060a0830184614274565b979650505050505050565b600060208284031215614301576143006140c9565b5b600061430f84828501614152565b91505092915050565b600060208201905061432d60008301846141ba565b92915050565b600060208284031215614349576143486140c9565b5b60006143578482850161411c565b91505092915050565b60006020820190506143756000830184614274565b92915050565b6000610160820190508181036000830152614396818e614220565b905081810360208301526143aa818d614220565b905081810360408301526143be818c614220565b905081810360608301526143d2818b614220565b90506143e1608083018a614274565b6143ee60a0830189614274565b6143fb60c0830188614274565b61440860e08301876141ba565b614416610100830186614259565b614424610120830185614259565b614432610140830184614259565b9c9b505050505050505050505050565b600081519050919050565b600082825260208201905092915050565b6000819050602082019050919050565b614477816140f3565b82525050565b6000614489838361446e565b60208301905092915050565b6000602082019050919050565b60006144ad82614442565b6144b7818561444d565b93506144c28361445e565b8060005b838110156144f35781516144da888261447d565b97506144e583614495565b9250506001810190506144c6565b5085935050505092915050565b6000602082019050818103600083015261451a81846144a2565b905092915050565b60008060408385031215614539576145386140c9565b5b60006145478582860161411c565b92505060206145588582860161411c565b9150509250929050565b600080fd5b600080fd5b7f4e487b7100000000000000000000000000000000000000000000000000000000600052604160045260246000fd5b6145a48261420f565b810181811067ffffffffffffffff821117156145c3576145c261456c565b5b80604052505050565b60006145d66140bf565b90506145e2828261459b565b919050565b600067ffffffffffffffff8211156146025761460161456c565b5b61460b8261420f565b9050602081019050919050565b82818337600083830152505050565b600061463a614635846145e7565b6145cc565b90508281526020810184848401111561465657614655614567565b5b614661848285614618565b509392505050565b600082601f83011261467e5761467d614562565b5b813561468e848260208601614627565b91505092915050565b60008060008060008060c087890312156146b4576146b36140c9565b5b60006146c289828a0161411c565b96505060206146d389828a0161411c565b955050604087013567ffffffffffffffff8111156146f4576146f36140ce565b5b61470089828a01614669565b945050606061471189828a01614152565b935050608061472289828a01614152565b92505060a061473389828a01614152565b9150509295509295509295565b6000806000806080858703121561475a576147596140c9565b5b600085013567ffffffffffffffff811115614778576147776140ce565b5b61478487828801614669565b945050602085013567ffffffffffffffff8111156147a5576147a46140ce565b5b6147b187828801614669565b935050604085013567ffffffffffffffff8111156147d2576147d16140ce565b5b6147de87828801614669565b92505060606147ef8782880161411c565b91505092959194509250565b600080600060608486031215614814576148136140c9565b5b600061482286828701614152565b935050602061483386828701614152565b925050604061484486828701614152565b9150509250925092565b600081519050919050565b600082825260208201905092915050565b6000819050602082019050919050565b61488381614131565b82525050565b6000614895838361487a565b60208301905092915050565b6000602082019050919050565b60006148b98261484e565b6148c38185614859565b93506148ce8361486a565b8060005b838110156148ff5781516148e68882614889565b97506148f1836148a1565b9250506001810190506148d2565b5085935050505092915050565b6000602082019050818103600083015261492681846148ae565b905092915050565b60008060408385031215614945576149446140c9565b5b60006149538582860161411c565b925050602083013567ffffffffffffffff811115614974576149736140ce565b5b61498085828601614669565b9150509250929050565b600060808201905081810360008301526149a48187614220565b905081810360208301526149b88186614220565b905081810360408301526149cc8185614220565b90506149db60608301846141ba565b95945050505050565b6000806000606084860312156149fd576149fc6140c9565b5b600084013567ffffffffffffffff811115614a1b57614a1a6140ce565b5b614a2786828701614669565b935050602084013567ffffffffffffffff811115614a4857614a476140ce565b5b614a5486828701614669565b925050604084013567ffffffffffffffff811115614a7557614a746140ce565b5b614a8186828701614669565b9150509250925092565b600080600080600060a08688031215614aa757614aa66140c9565b5b6000614ab58882890161411c565b9550506020614ac68882890161411c565b9450506040614ad788828901614152565b9350506060614ae888828901614152565b9250506080614af988828901614152565b9150509295509295909350565b600080600080600060a08688031215614b2257614b216140c9565b5b6000614b308882890161411c565b955050602086013567ffffffffffffffff811115614b5157614b506140ce565b5b614b5d88828901614669565b945050604086013567ffffffffffffffff811115614b7e57614b7d6140ce565b5b614b8a88828901614669565b935050606086013567ffffffffffffffff811115614bab57614baa6140ce565b5b614bb788828901614669565b9250506080614bc88882890161411c565b9150509295509295909350565b600082825260208201905092915050565b6000614bf1826141c9565b614bfb8185614bd5565b9350614c0b8185602086016141e5565b614c148161420f565b840191505092915050565b614c2881614268565b82525050565b600082825260208201905092915050565b6000614c4a82614442565b614c548185614c2e565b9350614c5f8361445e565b8060005b83811015614c90578151614c77888261447d565b9750614c8283614495565b925050600181019050614c63565b5085935050505092915050565b600082825260208201905092915050565b6000614cb98261484e565b614cc38185614c9d565b9350614cce8361486a565b8060005b83811015614cff578151614ce68882614889565b9750614cf1836148a1565b925050600181019050614cd2565b5085935050505092915050565b60006101a0830160008301518482036000860152614d2a8282614be6565b91505060208301518482036020860152614d448282614be6565b91505060408301518482036040860152614d5e8282614be6565b91505060608301518482036060860152614d788282614be6565b9150506080830151614d8d6080860182614c1f565b5060a0830151614da060a0860182614c1f565b5060c0830151614db360c0860182614c1f565b5060e0830151614dc660e086018261446e565b50610100830151848203610100860152614de08282614c3f565b915050610120830151848203610120860152614dfc8282614cae565b915050610140830151614e1361014086018261487a565b50610160830151614e2861016086018261487a565b50610180830151614e3d61018086018261487a565b508091505092915050565b60006020820190508181036000830152614e628184614d0c565b905092915050565b6000602082019050614e7f6000830184614259565b92915050565b7f4e487b7100000000000000000000000000000000000000000000000000000000600052602260045260246000fd5b60006002820490506001821680614ecc57607f821691505b602082108103614edf57614ede614e85565b5b50919050565b7f596f75206d757374206669727374207369676e20757020666f7220616e20616360008201527f636f756e742e0000000000000000000000000000000000000000000000000000602082015250565b6000614f416026836141d4565b9150614f4c82614ee5565b604082019050919050565b60006020820190508181036000830152614f7081614f34565b9050919050565b7f596f757220656d61696c2068617320616c7265616479206265656e207665726960008201527f666965642e000000000000000000000000000000000000000000000000000000602082015250565b6000614fd36025836141d4565b9150614fde82614f77565b604082019050919050565b6000602082019050818103600083015261500281614fc6565b9050919050565b7f596f757220656d61696c20686173206e6f7420796574206265656e2076616c6960008201527f64617465642e2056657269667920796f7572207265676973746572656420656d60208201527f61696c20616464726573732066697273742e0000000000000000000000000000604082015250565b600061508b6052836141d4565b915061509682615009565b606082019050919050565b600060208201905081810360008301526150ba8161507e565b9050919050565b7f4f6f70732120596f752063616e6e6f742063616c6c20746869732066756e637460008201527f696f6e2e205468652063616c6c65722073686f756c6420626520636f6e74726160208201527f63742e0000000000000000000000000000000000000000000000000000000000604082015250565b60006151436043836141d4565b915061514e826150c1565b606082019050919050565b6000602082019050818103600083015261517281615136565b9050919050565b60008190508160005260206000209050919050565b60006020601f8301049050919050565b600082821b905092915050565b6000600883026151db7fffffffffffffffffffffffffffffffffffffffffffffffffffffffffffffffff8261519e565b6151e5868361519e565b95508019841693508086168417925050509392505050565b6000819050919050565b600061522261521d61521884614131565b6151fd565b614131565b9050919050565b6000819050919050565b61523c83615207565b61525061524882615229565b8484546151ab565b825550505050565b600090565b615265615258565b615270818484615233565b505050565b5b818110156152945761528960008261525d565b600181019050615276565b5050565b601f8211156152d9576152aa81615179565b6152b38461518e565b810160208510156152c2578190505b6152d66152ce8561518e565b830182615275565b50505b505050565b600082821c905092915050565b60006152fc600019846008026152de565b1980831691505092915050565b600061531583836152eb565b9150826002028217905092915050565b61532e826141c9565b67ffffffffffffffff8111156153475761534661456c565b5b6153518254614eb4565b61535c828285615298565b600060209050601f83116001811461538f576000841561537d578287015190505b6153878582615309565b8655506153ef565b601f19841661539d86615179565b60005b828110156153c5578489015182556001820191506020850194506020810190506153a0565b868310156153e257848901516153de601f8916826152eb565b8355505b6001600288020188555050505b505050505050565b7f54686973206e6f6d696e6565277320616464726573732068617320616c72656160008201527f6479206265656e2061646465642e2054727920616464696e672061206e6f6d6960208201527f6e6565207769746820616e6f74686572206163636f756e74206164647265737360408201527f2e00000000000000000000000000000000000000000000000000000000000000606082015250565b600061549f6061836141d4565b91506154aa826153f7565b608082019050919050565b600060208201905081810360008301526154ce81615492565b9050919050565b60006060820190506154ea60008301866141ba565b81810360208301526154fc8185614220565b905081810360408301526155108184614220565b9050949350505050565b600060608201905061552f6000830186614259565b61553c6020830185614259565b6155496040830184614259565b949350505050565b6000602082019050818103600083015261556b8184614220565b905092915050565b7f596f7527766520616c7265616479207369676e656420757021204e6f2066757260008201527f7468657220726567697374726174696f6e2069732072657175697265642e0000602082015250565b60006155cf603e836141d4565b91506155da82615573565b604082019050919050565b600060208201905081810360008301526155fe816155c2565b9050919050565b7f4f776e65722068617320616c726561647920726573706f6e6465642e00000000600082015250565b600061563b601c836141d4565b915061564682615605565b602082019050919050565b6000602082019050818103600083015261566a8161562e565b9050919050565b7f546865206e6f6d696e656527732061646472657373206973206e6f742061646460008201527f65642e20536f20796f752063616e2774206d6f6469667920746865206465746160208201527f696c73206f662074686973206163636f756e74277320616464726573732e205060408201527f6c6561736520656e746572207468652076616c69642061646472657373206f6660608201527f20746865206e6f6d696e65652e00000000000000000000000000000000000000608082015250565b600061573f608d836141d4565b915061574a82615671565b60a082019050919050565b6000602082019050818103600083015261576e81615732565b9050919050565b7f4e487b7100000000000000000000000000000000000000000000000000000000600052603260045260246000fd5b7f4e487b7100000000000000000000000000000000000000000000000000000000600052601160045260246000fd5b60006157de82614131565b91507fffffffffffffffffffffffffffffffffffffffffffffffffffffffffffffffff82036158105761580f6157a4565b5b600182019050919050565b600060408201905081810360008301526158358185614220565b905081810360208301526158498184614220565b90509392505050565b7f4f776e61626c653a206e6577206f776e657220697320746865207a65726f206160008201527f6464726573730000000000000000000000000000000000000000000000000000602082015250565b60006158ae6026836141d4565b91506158b982615852565b604082019050919050565b600060208201905081810360008301526158dd816158a1565b9050919050565b7f4f776e61626c653a2063616c6c6572206973206e6f7420746865206f776e6572600082015250565b600061591a6020836141d4565b9150615925826158e4565b602082019050919050565b600060208201905081810360008301526159498161590d565b905091905056fea2646970667358221220699561d629bce6e5a624d21727101a62d4930f88af99e0a3e565cb9eb6ab4f0b64736f6c63430008110033",
  "linkReferences": {},
  "deployedLinkReferences": {}
}