{
  "_format": "hh-sol-artifact-1",
  "contractName": "CharityContract",
  "sourceName": "contracts/Charity.sol",
  "abi": [
    {
      "inputs": [],
      "stateMutability": "nonpayable",
      "type": "constructor"
    },
    {
      "anonymous": false,
      "inputs": [
        {
          "indexed": true,
          "internalType": "uint256",
          "name": "_charityId",
          "type": "uint256"
        },
        {
          "indexed": true,
          "internalType": "address",
          "name": "_charityAddress",
          "type": "address"
        },
        {
          "indexed": false,
          "internalType": "string",
          "name": "_charityName",
          "type": "string"
        }
      ],
      "name": "CharityAdded",
      "type": "event"
    },
    {
      "anonymous": false,
      "inputs": [
        {
          "indexed": true,
          "internalType": "uint256",
          "name": "_charityId",
          "type": "uint256"
        },
        {
          "indexed": true,
          "internalType": "address",
          "name": "_charityAddress",
          "type": "address"
        },
        {
          "indexed": false,
          "internalType": "string",
          "name": "_charityName",
          "type": "string"
        }
      ],
      "name": "CharityUpdated",
      "type": "event"
    },
    {
      "anonymous": false,
      "inputs": [
        {
          "indexed": true,
          "internalType": "address",
          "name": "previousOwner",
          "type": "address"
        },
        {
          "indexed": true,
          "internalType": "address",
          "name": "newOwner",
          "type": "address"
        }
      ],
      "name": "OwnershipTransferred",
      "type": "event"
    },
    {
      "inputs": [
        {
          "internalType": "address",
          "name": "_charityAddress",
          "type": "address"
        },
        {
          "internalType": "string",
          "name": "_charityName",
          "type": "string"
        },
        {
          "internalType": "string",
          "name": "_charityDescription",
          "type": "string"
        },
        {
          "internalType": "string",
          "name": "_charityImage",
          "type": "string"
        }
      ],
      "name": "addCharity",
      "outputs": [],
      "stateMutability": "nonpayable",
      "type": "function"
    },
    {
      "inputs": [],
      "name": "charity_id",
      "outputs": [
        {
          "internalType": "uint256",
          "name": "",
          "type": "uint256"
        }
      ],
      "stateMutability": "view",
      "type": "function"
    },
    {
      "inputs": [
        {
          "internalType": "uint256",
          "name": "_charityId",
          "type": "uint256"
        },
        {
          "internalType": "address",
          "name": "_charityAddress",
          "type": "address"
        },
        {
          "internalType": "string",
          "name": "_charityName",
          "type": "string"
        },
        {
          "internalType": "string",
          "name": "_charityDescription",
          "type": "string"
        },
        {
          "internalType": "string",
          "name": "_charityImage",
          "type": "string"
        }
      ],
      "name": "editCharityDetails",
      "outputs": [],
      "stateMutability": "nonpayable",
      "type": "function"
    },
    {
      "inputs": [
        {
          "internalType": "uint256",
          "name": "_charityId",
          "type": "uint256"
        }
      ],
      "name": "getCharityDetailsById",
      "outputs": [
        {
          "components": [
            {
              "internalType": "uint256",
              "name": "id",
              "type": "uint256"
            },
            {
              "internalType": "address",
              "name": "charity_address",
              "type": "address"
            },
            {
              "internalType": "string",
              "name": "charity_name",
              "type": "string"
            },
            {
              "internalType": "string",
              "name": "charity_description",
              "type": "string"
            },
            {
              "internalType": "string",
              "name": "charity_image",
              "type": "string"
            }
          ],
          "internalType": "struct CharityContract.Charity",
          "name": "",
          "type": "tuple"
        }
      ],
      "stateMutability": "view",
      "type": "function"
    },
    {
      "inputs": [],
      "name": "getTotalNumberOfCharity",
      "outputs": [
        {
          "internalType": "uint256",
          "name": "",
          "type": "uint256"
        }
      ],
      "stateMutability": "view",
      "type": "function"
    },
    {
      "inputs": [
        {
          "internalType": "uint256",
          "name": "",
          "type": "uint256"
        }
      ],
      "name": "idToCharity",
      "outputs": [
        {
          "internalType": "uint256",
          "name": "id",
          "type": "uint256"
        },
        {
          "internalType": "address",
          "name": "charity_address",
          "type": "address"
        },
        {
          "internalType": "string",
          "name": "charity_name",
          "type": "string"
        },
        {
          "internalType": "string",
          "name": "charity_description",
          "type": "string"
        },
        {
          "internalType": "string",
          "name": "charity_image",
          "type": "string"
        }
      ],
      "stateMutability": "view",
      "type": "function"
    },
    {
      "inputs": [],
      "name": "owner",
      "outputs": [
        {
          "internalType": "address",
          "name": "",
          "type": "address"
        }
      ],
      "stateMutability": "view",
      "type": "function"
    },
    {
      "inputs": [],
      "name": "renounceOwnership",
      "outputs": [],
      "stateMutability": "nonpayable",
      "type": "function"
    },
    {
      "inputs": [
        {
          "internalType": "address",
          "name": "newOwner",
          "type": "address"
        }
      ],
      "name": "transferOwnership",
      "outputs": [],
      "stateMutability": "nonpayable",
      "type": "function"
    }
  ],
  "bytecode": "0x608060405234801561001057600080fd5b5061002d61002261003260201b60201c565b61003a60201b60201c565b6100fe565b600033905090565b60008060009054906101000a900473ffffffffffffffffffffffffffffffffffffffff169050816000806101000a81548173ffffffffffffffffffffffffffffffffffffffff021916908373ffffffffffffffffffffffffffffffffffffffff1602179055508173ffffffffffffffffffffffffffffffffffffffff168173ffffffffffffffffffffffffffffffffffffffff167f8be0079c531659141344cd1fd0a4f28419497f9722a3daafe3b4186f6b6457e060405160405180910390a35050565b6115728061010d6000396000f3fe608060405234801561001057600080fd5b50600436106100935760003560e01c80637f3d39bd116100665780637f3d39bd146100fa5780638da5cb5b1461012e578063bfe509481461014c578063e44e4c5614610168578063f2fde38b1461019857610093565b80632897bc711461009857806358a4e30d146100b65780636f4eb5f0146100d2578063715018a6146100f0575b600080fd5b6100a06101b4565b6040516100ad9190610ad9565b60405180910390f35b6100d060048036038101906100cb9190610cac565b6101ba565b005b6100da610317565b6040516100e79190610ad9565b60405180910390f35b6100f8610321565b005b610114600480360381019061010f9190610d93565b610335565b604051610125959493929190610e4e565b60405180910390f35b610136610523565b6040516101439190610eb6565b60405180910390f35b61016660048036038101906101619190610ed1565b61054c565b005b610182600480360381019061017d9190610d93565b61066b565b60405161018f919061108c565b60405180910390f35b6101b260048036038101906101ad91906110ae565b6108ae565b005b60015481565b6101c2610931565b600180546101d0919061110a565b6001819055506040518060a0016040528060015481526020018573ffffffffffffffffffffffffffffffffffffffff168152602001848152602001838152602001828152506002600060015481526020019081526020016000206000820151816000015560208201518160010160006101000a81548173ffffffffffffffffffffffffffffffffffffffff021916908373ffffffffffffffffffffffffffffffffffffffff1602179055506040820151816002019081610290919061134a565b5060608201518160030190816102a6919061134a565b5060808201518160040190816102bc919061134a565b509050508373ffffffffffffffffffffffffffffffffffffffff166001547fa074b173bff9c06ccb631c68cea9ce4a6d192a1ce8f60ae93fa14a04aa7166c685604051610309919061141c565b60405180910390a350505050565b6000600154905090565b610329610931565b61033360006109af565b565b60026020528060005260406000206000915090508060000154908060010160009054906101000a900473ffffffffffffffffffffffffffffffffffffffff16908060020180546103849061116d565b80601f01602080910402602001604051908101604052809291908181526020018280546103b09061116d565b80156103fd5780601f106103d2576101008083540402835291602001916103fd565b820191906000526020600020905b8154815290600101906020018083116103e057829003601f168201915b5050505050908060030180546104129061116d565b80601f016020809104026020016040519081016040528092919081815260200182805461043e9061116d565b801561048b5780601f106104605761010080835404028352916020019161048b565b820191906000526020600020905b81548152906001019060200180831161046e57829003601f168201915b5050505050908060040180546104a09061116d565b80601f01602080910402602001604051908101604052809291908181526020018280546104cc9061116d565b80156105195780601f106104ee57610100808354040283529160200191610519565b820191906000526020600020905b8154815290600101906020018083116104fc57829003601f168201915b5050505050905085565b60008060009054906101000a900473ffffffffffffffffffffffffffffffffffffffff16905090565b610554610931565b836002600087815260200190815260200160002060010160006101000a81548173ffffffffffffffffffffffffffffffffffffffff021916908373ffffffffffffffffffffffffffffffffffffffff160217905550826002600087815260200190815260200160002060020190816105cc919061134a565b50816002600087815260200190815260200160002060030190816105f0919061134a565b5080600260008781526020019081526020016000206004019081610614919061134a565b508373ffffffffffffffffffffffffffffffffffffffff16857f7c4e5204ddb770a421bbd90e80066dd5501844a2274cc8027c1ff6e66fe5d8a38560405161065c919061141c565b60405180910390a35050505050565b610673610a7b565b600260008381526020019081526020016000206040518060a0016040529081600082015481526020016001820160009054906101000a900473ffffffffffffffffffffffffffffffffffffffff1673ffffffffffffffffffffffffffffffffffffffff1673ffffffffffffffffffffffffffffffffffffffff1681526020016002820180546107019061116d565b80601f016020809104026020016040519081016040528092919081815260200182805461072d9061116d565b801561077a5780601f1061074f5761010080835404028352916020019161077a565b820191906000526020600020905b81548152906001019060200180831161075d57829003601f168201915b505050505081526020016003820180546107939061116d565b80601f01602080910402602001604051908101604052809291908181526020018280546107bf9061116d565b801561080c5780601f106107e15761010080835404028352916020019161080c565b820191906000526020600020905b8154815290600101906020018083116107ef57829003601f168201915b505050505081526020016004820180546108259061116d565b80601f01602080910402602001604051908101604052809291908181526020018280546108519061116d565b801561089e5780601f106108735761010080835404028352916020019161089e565b820191906000526020600020905b81548152906001019060200180831161088157829003601f168201915b5050505050815250509050919050565b6108b6610931565b600073ffffffffffffffffffffffffffffffffffffffff168173ffffffffffffffffffffffffffffffffffffffff1603610925576040517f08c379a000000000000000000000000000000000000000000000000000000000815260040161091c906114b0565b60405180910390fd5b61092e816109af565b50565b610939610a73565b73ffffffffffffffffffffffffffffffffffffffff16610957610523565b73ffffffffffffffffffffffffffffffffffffffff16146109ad576040517f08c379a00000000000000000000000000000000000000000000000000000000081526004016109a49061151c565b60405180910390fd5b565b60008060009054906101000a900473ffffffffffffffffffffffffffffffffffffffff169050816000806101000a81548173ffffffffffffffffffffffffffffffffffffffff021916908373ffffffffffffffffffffffffffffffffffffffff1602179055508173ffffffffffffffffffffffffffffffffffffffff168173ffffffffffffffffffffffffffffffffffffffff167f8be0079c531659141344cd1fd0a4f28419497f9722a3daafe3b4186f6b6457e060405160405180910390a35050565b600033905090565b6040518060a0016040528060008152602001600073ffffffffffffffffffffffffffffffffffffffff1681526020016060815260200160608152602001606081525090565b6000819050919050565b610ad381610ac0565b82525050565b6000602082019050610aee6000830184610aca565b92915050565b6000604051905090565b600080fd5b600080fd5b600073ffffffffffffffffffffffffffffffffffffffff82169050919050565b6000610b3382610b08565b9050919050565b610b4381610b28565b8114610b4e57600080fd5b50565b600081359050610b6081610b3a565b92915050565b600080fd5b600080fd5b6000601f19601f8301169050919050565b7f4e487b7100000000000000000000000000000000000000000000000000000000600052604160045260246000fd5b610bb982610b70565b810181811067ffffffffffffffff82111715610bd857610bd7610b81565b5b80604052505050565b6000610beb610af4565b9050610bf78282610bb0565b919050565b600067ffffffffffffffff821115610c1757610c16610b81565b5b610c2082610b70565b9050602081019050919050565b82818337600083830152505050565b6000610c4f610c4a84610bfc565b610be1565b905082815260208101848484011115610c6b57610c6a610b6b565b5b610c76848285610c2d565b509392505050565b600082601f830112610c9357610c92610b66565b5b8135610ca3848260208601610c3c565b91505092915050565b60008060008060808587031215610cc657610cc5610afe565b5b6000610cd487828801610b51565b945050602085013567ffffffffffffffff811115610cf557610cf4610b03565b5b610d0187828801610c7e565b935050604085013567ffffffffffffffff811115610d2257610d21610b03565b5b610d2e87828801610c7e565b925050606085013567ffffffffffffffff811115610d4f57610d4e610b03565b5b610d5b87828801610c7e565b91505092959194509250565b610d7081610ac0565b8114610d7b57600080fd5b50565b600081359050610d8d81610d67565b92915050565b600060208284031215610da957610da8610afe565b5b6000610db784828501610d7e565b91505092915050565b610dc981610b28565b82525050565b600081519050919050565b600082825260208201905092915050565b60005b83811015610e09578082015181840152602081019050610dee565b60008484015250505050565b6000610e2082610dcf565b610e2a8185610dda565b9350610e3a818560208601610deb565b610e4381610b70565b840191505092915050565b600060a082019050610e636000830188610aca565b610e706020830187610dc0565b8181036040830152610e828186610e15565b90508181036060830152610e968185610e15565b90508181036080830152610eaa8184610e15565b90509695505050505050565b6000602082019050610ecb6000830184610dc0565b92915050565b600080600080600060a08688031215610eed57610eec610afe565b5b6000610efb88828901610d7e565b9550506020610f0c88828901610b51565b945050604086013567ffffffffffffffff811115610f2d57610f2c610b03565b5b610f3988828901610c7e565b935050606086013567ffffffffffffffff811115610f5a57610f59610b03565b5b610f6688828901610c7e565b925050608086013567ffffffffffffffff811115610f8757610f86610b03565b5b610f9388828901610c7e565b9150509295509295909350565b610fa981610ac0565b82525050565b610fb881610b28565b82525050565b600082825260208201905092915050565b6000610fda82610dcf565b610fe48185610fbe565b9350610ff4818560208601610deb565b610ffd81610b70565b840191505092915050565b600060a0830160008301516110206000860182610fa0565b5060208301516110336020860182610faf565b506040830151848203604086015261104b8282610fcf565b915050606083015184820360608601526110658282610fcf565b9150506080830151848203608086015261107f8282610fcf565b9150508091505092915050565b600060208201905081810360008301526110a68184611008565b905092915050565b6000602082840312156110c4576110c3610afe565b5b60006110d284828501610b51565b91505092915050565b7f4e487b7100000000000000000000000000000000000000000000000000000000600052601160045260246000fd5b600061111582610ac0565b915061112083610ac0565b9250828201905080821115611138576111376110db565b5b92915050565b7f4e487b7100000000000000000000000000000000000000000000000000000000600052602260045260246000fd5b6000600282049050600182168061118557607f821691505b6020821081036111985761119761113e565b5b50919050565b60008190508160005260206000209050919050565b60006020601f8301049050919050565b600082821b905092915050565b6000600883026112007fffffffffffffffffffffffffffffffffffffffffffffffffffffffffffffffff826111c3565b61120a86836111c3565b95508019841693508086168417925050509392505050565b6000819050919050565b600061124761124261123d84610ac0565b611222565b610ac0565b9050919050565b6000819050919050565b6112618361122c565b61127561126d8261124e565b8484546111d0565b825550505050565b600090565b61128a61127d565b611295818484611258565b505050565b5b818110156112b9576112ae600082611282565b60018101905061129b565b5050565b601f8211156112fe576112cf8161119e565b6112d8846111b3565b810160208510156112e7578190505b6112fb6112f3856111b3565b83018261129a565b50505b505050565b600082821c905092915050565b600061132160001984600802611303565b1980831691505092915050565b600061133a8383611310565b9150826002028217905092915050565b61135382610dcf565b67ffffffffffffffff81111561136c5761136b610b81565b5b611376825461116d565b6113818282856112bd565b600060209050601f8311600181146113b457600084156113a2578287015190505b6113ac858261132e565b865550611414565b601f1984166113c28661119e565b60005b828110156113ea578489015182556001820191506020850194506020810190506113c5565b868310156114075784890151611403601f891682611310565b8355505b6001600288020188555050505b505050505050565b600060208201905081810360008301526114368184610e15565b905092915050565b7f4f776e61626c653a206e6577206f776e657220697320746865207a65726f206160008201527f6464726573730000000000000000000000000000000000000000000000000000602082015250565b600061149a602683610dda565b91506114a58261143e565b604082019050919050565b600060208201905081810360008301526114c98161148d565b9050919050565b7f4f776e61626c653a2063616c6c6572206973206e6f7420746865206f776e6572600082015250565b6000611506602083610dda565b9150611511826114d0565b602082019050919050565b60006020820190508181036000830152611535816114f9565b905091905056fea2646970667358221220359f290007ae6e3736629c6fbdeaf6900dd5102d2dbc25d6c30456da217b1d0c64736f6c63430008110033",
  "linkReferences": {},
  "deployedLinkReferences": {}
}