{
  "_format": "hh-sol-artifact-1",
  "contractName": "CharityContract",
  "sourceName": "contracts/Charity.sol",
  "abi": [
    {
      "inputs": [],
      "stateMutability": "nonpayable",
      "type": "constructor"
    },
    {
      "anonymous": false,
      "inputs": [
        {
          "indexed": true,
          "internalType": "address",
          "name": "previousOwner",
          "type": "address"
        },
        {
          "indexed": true,
          "internalType": "address",
          "name": "newOwner",
          "type": "address"
        }
      ],
      "name": "OwnershipTransferred",
      "type": "event"
    },
    {
      "inputs": [
        {
          "internalType": "address",
          "name": "_charityAddress",
          "type": "address"
        },
        {
          "internalType": "string",
          "name": "_charityName",
          "type": "string"
        },
        {
          "internalType": "string",
          "name": "_charityDescription",
          "type": "string"
        },
        {
          "internalType": "string",
          "name": "_charityImage",
          "type": "string"
        }
      ],
      "name": "addCharity",
      "outputs": [],
      "stateMutability": "nonpayable",
      "type": "function"
    },
    {
      "inputs": [],
      "name": "charity_id",
      "outputs": [
        {
          "internalType": "uint256",
          "name": "",
          "type": "uint256"
        }
      ],
      "stateMutability": "view",
      "type": "function"
    },
    {
      "inputs": [
        {
          "internalType": "uint256",
          "name": "_charityId",
          "type": "uint256"
        },
        {
          "internalType": "address",
          "name": "_charityAddress",
          "type": "address"
        },
        {
          "internalType": "string",
          "name": "_charityName",
          "type": "string"
        },
        {
          "internalType": "string",
          "name": "_charityDescription",
          "type": "string"
        },
        {
          "internalType": "string",
          "name": "_charityImage",
          "type": "string"
        }
      ],
      "name": "editCharityDetails",
      "outputs": [],
      "stateMutability": "nonpayable",
      "type": "function"
    },
    {
      "inputs": [
        {
          "internalType": "uint256",
          "name": "_charityId",
          "type": "uint256"
        }
      ],
      "name": "getCharityDetailsById",
      "outputs": [
        {
          "components": [
            {
              "internalType": "uint256",
              "name": "id",
              "type": "uint256"
            },
            {
              "internalType": "address",
              "name": "charity_address",
              "type": "address"
            },
            {
              "internalType": "string",
              "name": "charity_name",
              "type": "string"
            },
            {
              "internalType": "string",
              "name": "charity_description",
              "type": "string"
            },
            {
              "internalType": "string",
              "name": "charity_image",
              "type": "string"
            }
          ],
          "internalType": "struct CharityContract.Charity",
          "name": "",
          "type": "tuple"
        }
      ],
      "stateMutability": "view",
      "type": "function"
    },
    {
      "inputs": [],
      "name": "getTotalNumberOfCharity",
      "outputs": [
        {
          "internalType": "uint256",
          "name": "",
          "type": "uint256"
        }
      ],
      "stateMutability": "view",
      "type": "function"
    },
    {
      "inputs": [
        {
          "internalType": "uint256",
          "name": "",
          "type": "uint256"
        }
      ],
      "name": "idToCharity",
      "outputs": [
        {
          "internalType": "uint256",
          "name": "id",
          "type": "uint256"
        },
        {
          "internalType": "address",
          "name": "charity_address",
          "type": "address"
        },
        {
          "internalType": "string",
          "name": "charity_name",
          "type": "string"
        },
        {
          "internalType": "string",
          "name": "charity_description",
          "type": "string"
        },
        {
          "internalType": "string",
          "name": "charity_image",
          "type": "string"
        }
      ],
      "stateMutability": "view",
      "type": "function"
    },
    {
      "inputs": [],
      "name": "owner",
      "outputs": [
        {
          "internalType": "address",
          "name": "",
          "type": "address"
        }
      ],
      "stateMutability": "view",
      "type": "function"
    },
    {
      "inputs": [],
      "name": "renounceOwnership",
      "outputs": [],
      "stateMutability": "nonpayable",
      "type": "function"
    },
    {
      "inputs": [
        {
          "internalType": "address",
          "name": "newOwner",
          "type": "address"
        }
      ],
      "name": "transferOwnership",
      "outputs": [],
      "stateMutability": "nonpayable",
      "type": "function"
    }
  ],
  "bytecode": "0x608060405234801561001057600080fd5b5061002d61002261003260201b60201c565b61003a60201b60201c565b6100fe565b600033905090565b60008060009054906101000a900473ffffffffffffffffffffffffffffffffffffffff169050816000806101000a81548173ffffffffffffffffffffffffffffffffffffffff021916908373ffffffffffffffffffffffffffffffffffffffff1602179055508173ffffffffffffffffffffffffffffffffffffffff168173ffffffffffffffffffffffffffffffffffffffff167f8be0079c531659141344cd1fd0a4f28419497f9722a3daafe3b4186f6b6457e060405160405180910390a35050565b6114b08061010d6000396000f3fe608060405234801561001057600080fd5b50600436106100935760003560e01c80637f3d39bd116100665780637f3d39bd146100fa5780638da5cb5b1461012e578063bfe509481461014c578063e44e4c5614610168578063f2fde38b1461019857610093565b80632897bc711461009857806358a4e30d146100b65780636f4eb5f0146100d2578063715018a6146100f0575b600080fd5b6100a06101b4565b6040516100ad9190610a39565b60405180910390f35b6100d060048036038101906100cb9190610c0c565b6101ba565b005b6100da6102c6565b6040516100e79190610a39565b60405180910390f35b6100f86102d0565b005b610114600480360381019061010f9190610cf3565b6102e4565b604051610125959493929190610dae565b60405180910390f35b6101366104d2565b6040516101439190610e16565b60405180910390f35b61016660048036038101906101619190610e31565b6104fb565b005b610182600480360381019061017d9190610cf3565b6105cb565b60405161018f9190610fec565b60405180910390f35b6101b260048036038101906101ad919061100e565b61080e565b005b60015481565b6101c2610891565b600180546101d0919061106a565b6001819055506040518060a0016040528060015481526020018573ffffffffffffffffffffffffffffffffffffffff168152602001848152602001838152602001828152506002600060015481526020019081526020016000206000820151816000015560208201518160010160006101000a81548173ffffffffffffffffffffffffffffffffffffffff021916908373ffffffffffffffffffffffffffffffffffffffff160217905550604082015181600201908161029091906112aa565b5060608201518160030190816102a691906112aa565b5060808201518160040190816102bc91906112aa565b5090505050505050565b6000600154905090565b6102d8610891565b6102e2600061090f565b565b60026020528060005260406000206000915090508060000154908060010160009054906101000a900473ffffffffffffffffffffffffffffffffffffffff1690806002018054610333906110cd565b80601f016020809104026020016040519081016040528092919081815260200182805461035f906110cd565b80156103ac5780601f10610381576101008083540402835291602001916103ac565b820191906000526020600020905b81548152906001019060200180831161038f57829003601f168201915b5050505050908060030180546103c1906110cd565b80601f01602080910402602001604051908101604052809291908181526020018280546103ed906110cd565b801561043a5780601f1061040f5761010080835404028352916020019161043a565b820191906000526020600020905b81548152906001019060200180831161041d57829003601f168201915b50505050509080600401805461044f906110cd565b80601f016020809104026020016040519081016040528092919081815260200182805461047b906110cd565b80156104c85780601f1061049d576101008083540402835291602001916104c8565b820191906000526020600020905b8154815290600101906020018083116104ab57829003601f168201915b5050505050905085565b60008060009054906101000a900473ffffffffffffffffffffffffffffffffffffffff16905090565b610503610891565b836002600087815260200190815260200160002060010160006101000a81548173ffffffffffffffffffffffffffffffffffffffff021916908373ffffffffffffffffffffffffffffffffffffffff1602179055508260026000878152602001908152602001600020600201908161057b91906112aa565b508160026000878152602001908152602001600020600301908161059f91906112aa565b50806002600087815260200190815260200160002060040190816105c391906112aa565b505050505050565b6105d36109db565b600260008381526020019081526020016000206040518060a0016040529081600082015481526020016001820160009054906101000a900473ffffffffffffffffffffffffffffffffffffffff1673ffffffffffffffffffffffffffffffffffffffff1673ffffffffffffffffffffffffffffffffffffffff168152602001600282018054610661906110cd565b80601f016020809104026020016040519081016040528092919081815260200182805461068d906110cd565b80156106da5780601f106106af576101008083540402835291602001916106da565b820191906000526020600020905b8154815290600101906020018083116106bd57829003601f168201915b505050505081526020016003820180546106f3906110cd565b80601f016020809104026020016040519081016040528092919081815260200182805461071f906110cd565b801561076c5780601f106107415761010080835404028352916020019161076c565b820191906000526020600020905b81548152906001019060200180831161074f57829003601f168201915b50505050508152602001600482018054610785906110cd565b80601f01602080910402602001604051908101604052809291908181526020018280546107b1906110cd565b80156107fe5780601f106107d3576101008083540402835291602001916107fe565b820191906000526020600020905b8154815290600101906020018083116107e157829003601f168201915b5050505050815250509050919050565b610816610891565b600073ffffffffffffffffffffffffffffffffffffffff168173ffffffffffffffffffffffffffffffffffffffff1603610885576040517f08c379a000000000000000000000000000000000000000000000000000000000815260040161087c906113ee565b60405180910390fd5b61088e8161090f565b50565b6108996109d3565b73ffffffffffffffffffffffffffffffffffffffff166108b76104d2565b73ffffffffffffffffffffffffffffffffffffffff161461090d576040517f08c379a00000000000000000000000000000000000000000000000000000000081526004016109049061145a565b60405180910390fd5b565b60008060009054906101000a900473ffffffffffffffffffffffffffffffffffffffff169050816000806101000a81548173ffffffffffffffffffffffffffffffffffffffff021916908373ffffffffffffffffffffffffffffffffffffffff1602179055508173ffffffffffffffffffffffffffffffffffffffff168173ffffffffffffffffffffffffffffffffffffffff167f8be0079c531659141344cd1fd0a4f28419497f9722a3daafe3b4186f6b6457e060405160405180910390a35050565b600033905090565b6040518060a0016040528060008152602001600073ffffffffffffffffffffffffffffffffffffffff1681526020016060815260200160608152602001606081525090565b6000819050919050565b610a3381610a20565b82525050565b6000602082019050610a4e6000830184610a2a565b92915050565b6000604051905090565b600080fd5b600080fd5b600073ffffffffffffffffffffffffffffffffffffffff82169050919050565b6000610a9382610a68565b9050919050565b610aa381610a88565b8114610aae57600080fd5b50565b600081359050610ac081610a9a565b92915050565b600080fd5b600080fd5b6000601f19601f8301169050919050565b7f4e487b7100000000000000000000000000000000000000000000000000000000600052604160045260246000fd5b610b1982610ad0565b810181811067ffffffffffffffff82111715610b3857610b37610ae1565b5b80604052505050565b6000610b4b610a54565b9050610b578282610b10565b919050565b600067ffffffffffffffff821115610b7757610b76610ae1565b5b610b8082610ad0565b9050602081019050919050565b82818337600083830152505050565b6000610baf610baa84610b5c565b610b41565b905082815260208101848484011115610bcb57610bca610acb565b5b610bd6848285610b8d565b509392505050565b600082601f830112610bf357610bf2610ac6565b5b8135610c03848260208601610b9c565b91505092915050565b60008060008060808587031215610c2657610c25610a5e565b5b6000610c3487828801610ab1565b945050602085013567ffffffffffffffff811115610c5557610c54610a63565b5b610c6187828801610bde565b935050604085013567ffffffffffffffff811115610c8257610c81610a63565b5b610c8e87828801610bde565b925050606085013567ffffffffffffffff811115610caf57610cae610a63565b5b610cbb87828801610bde565b91505092959194509250565b610cd081610a20565b8114610cdb57600080fd5b50565b600081359050610ced81610cc7565b92915050565b600060208284031215610d0957610d08610a5e565b5b6000610d1784828501610cde565b91505092915050565b610d2981610a88565b82525050565b600081519050919050565b600082825260208201905092915050565b60005b83811015610d69578082015181840152602081019050610d4e565b60008484015250505050565b6000610d8082610d2f565b610d8a8185610d3a565b9350610d9a818560208601610d4b565b610da381610ad0565b840191505092915050565b600060a082019050610dc36000830188610a2a565b610dd06020830187610d20565b8181036040830152610de28186610d75565b90508181036060830152610df68185610d75565b90508181036080830152610e0a8184610d75565b90509695505050505050565b6000602082019050610e2b6000830184610d20565b92915050565b600080600080600060a08688031215610e4d57610e4c610a5e565b5b6000610e5b88828901610cde565b9550506020610e6c88828901610ab1565b945050604086013567ffffffffffffffff811115610e8d57610e8c610a63565b5b610e9988828901610bde565b935050606086013567ffffffffffffffff811115610eba57610eb9610a63565b5b610ec688828901610bde565b925050608086013567ffffffffffffffff811115610ee757610ee6610a63565b5b610ef388828901610bde565b9150509295509295909350565b610f0981610a20565b82525050565b610f1881610a88565b82525050565b600082825260208201905092915050565b6000610f3a82610d2f565b610f448185610f1e565b9350610f54818560208601610d4b565b610f5d81610ad0565b840191505092915050565b600060a083016000830151610f806000860182610f00565b506020830151610f936020860182610f0f565b5060408301518482036040860152610fab8282610f2f565b91505060608301518482036060860152610fc58282610f2f565b91505060808301518482036080860152610fdf8282610f2f565b9150508091505092915050565b600060208201905081810360008301526110068184610f68565b905092915050565b60006020828403121561102457611023610a5e565b5b600061103284828501610ab1565b91505092915050565b7f4e487b7100000000000000000000000000000000000000000000000000000000600052601160045260246000fd5b600061107582610a20565b915061108083610a20565b92508282019050808211156110985761109761103b565b5b92915050565b7f4e487b7100000000000000000000000000000000000000000000000000000000600052602260045260246000fd5b600060028204905060018216806110e557607f821691505b6020821081036110f8576110f761109e565b5b50919050565b60008190508160005260206000209050919050565b60006020601f8301049050919050565b600082821b905092915050565b6000600883026111607fffffffffffffffffffffffffffffffffffffffffffffffffffffffffffffffff82611123565b61116a8683611123565b95508019841693508086168417925050509392505050565b6000819050919050565b60006111a76111a261119d84610a20565b611182565b610a20565b9050919050565b6000819050919050565b6111c18361118c565b6111d56111cd826111ae565b848454611130565b825550505050565b600090565b6111ea6111dd565b6111f58184846111b8565b505050565b5b818110156112195761120e6000826111e2565b6001810190506111fb565b5050565b601f82111561125e5761122f816110fe565b61123884611113565b81016020851015611247578190505b61125b61125385611113565b8301826111fa565b50505b505050565b600082821c905092915050565b600061128160001984600802611263565b1980831691505092915050565b600061129a8383611270565b9150826002028217905092915050565b6112b382610d2f565b67ffffffffffffffff8111156112cc576112cb610ae1565b5b6112d682546110cd565b6112e182828561121d565b600060209050601f8311600181146113145760008415611302578287015190505b61130c858261128e565b865550611374565b601f198416611322866110fe565b60005b8281101561134a57848901518255600182019150602085019450602081019050611325565b868310156113675784890151611363601f891682611270565b8355505b6001600288020188555050505b505050505050565b7f4f776e61626c653a206e6577206f776e657220697320746865207a65726f206160008201527f6464726573730000000000000000000000000000000000000000000000000000602082015250565b60006113d8602683610d3a565b91506113e38261137c565b604082019050919050565b60006020820190508181036000830152611407816113cb565b9050919050565b7f4f776e61626c653a2063616c6c6572206973206e6f7420746865206f776e6572600082015250565b6000611444602083610d3a565b915061144f8261140e565b602082019050919050565b6000602082019050818103600083015261147381611437565b905091905056fea26469706673582212208b86c8415d5b38d9d072b2f0c01d7de1257d0b2bff28cbdcc8dd90570c96670464736f6c63430008110033",
  "linkReferences": {},
  "deployedLinkReferences": {}
}