{
  "_format": "hh-sol-artifact-1",
  "contractName": "NominateNFTs",
  "sourceName": "contracts/NominateNFTs.sol",
  "abi": [
    {
      "inputs": [
        {
          "internalType": "address",
          "name": "_inheritokensAddress",
          "type": "address"
        },
        {
          "internalType": "address",
          "name": "_charityContractAddress",
          "type": "address"
        }
      ],
      "stateMutability": "nonpayable",
      "type": "constructor"
    },
    {
      "anonymous": false,
      "inputs": [
        {
          "indexed": true,
          "internalType": "address",
          "name": "_owner",
          "type": "address"
        },
        {
          "indexed": true,
          "internalType": "address",
          "name": "_nominee",
          "type": "address"
        },
        {
          "indexed": true,
          "internalType": "address",
          "name": "_tokenAddress",
          "type": "address"
        },
        {
          "indexed": false,
          "internalType": "uint256",
          "name": "_tokenId",
          "type": "uint256"
        },
        {
          "indexed": false,
          "internalType": "uint256",
          "name": "_category",
          "type": "uint256"
        }
      ],
      "name": "Claimed",
      "type": "event"
    },
    {
      "anonymous": false,
      "inputs": [
        {
          "indexed": true,
          "internalType": "address",
          "name": "_owner",
          "type": "address"
        },
        {
          "indexed": false,
          "internalType": "address",
          "name": "_tokenAddress",
          "type": "address"
        },
        {
          "indexed": false,
          "internalType": "uint256",
          "name": "_tokenId",
          "type": "uint256"
        },
        {
          "indexed": false,
          "internalType": "uint256",
          "name": "_category",
          "type": "uint256"
        }
      ],
      "name": "NFTsNominated",
      "type": "event"
    },
    {
      "anonymous": false,
      "inputs": [
        {
          "indexed": true,
          "internalType": "address",
          "name": "previousOwner",
          "type": "address"
        },
        {
          "indexed": true,
          "internalType": "address",
          "name": "newOwner",
          "type": "address"
        }
      ],
      "name": "OwnershipTransferred",
      "type": "event"
    },
    {
      "anonymous": false,
      "inputs": [
        {
          "indexed": true,
          "internalType": "address",
          "name": "_owner",
          "type": "address"
        },
        {
          "indexed": true,
          "internalType": "address",
          "name": "_tokenAddress",
          "type": "address"
        },
        {
          "indexed": false,
          "internalType": "uint256",
          "name": "_tokenId",
          "type": "uint256"
        },
        {
          "indexed": false,
          "internalType": "uint256",
          "name": "_category",
          "type": "uint256"
        }
      ],
      "name": "Recovered",
      "type": "event"
    },
    {
      "inputs": [
        {
          "internalType": "address",
          "name": "_owner",
          "type": "address"
        },
        {
          "internalType": "address",
          "name": "_tokenAddress",
          "type": "address"
        },
        {
          "internalType": "uint256",
          "name": "_tokenId",
          "type": "uint256"
        }
      ],
      "name": "changeCanClaim",
      "outputs": [],
      "stateMutability": "nonpayable",
      "type": "function"
    },
    {
      "inputs": [
        {
          "internalType": "address",
          "name": "_tokenAddress",
          "type": "address"
        },
        {
          "internalType": "uint256",
          "name": "_nftCharge",
          "type": "uint256"
        }
      ],
      "name": "changeCharges",
      "outputs": [],
      "stateMutability": "nonpayable",
      "type": "function"
    },
    {
      "inputs": [],
      "name": "chargeTokenAddress",
      "outputs": [
        {
          "internalType": "address",
          "name": "",
          "type": "address"
        }
      ],
      "stateMutability": "view",
      "type": "function"
    },
    {
      "inputs": [],
      "name": "charityContract",
      "outputs": [
        {
          "internalType": "contract CharityContract",
          "name": "",
          "type": "address"
        }
      ],
      "stateMutability": "view",
      "type": "function"
    },
    {
      "inputs": [
        {
          "internalType": "address",
          "name": "_owner",
          "type": "address"
        },
        {
          "internalType": "address",
          "name": "_tokenAddress",
          "type": "address"
        },
        {
          "internalType": "uint256",
          "name": "_tokenId",
          "type": "uint256"
        }
      ],
      "name": "claim",
      "outputs": [],
      "stateMutability": "nonpayable",
      "type": "function"
    },
    {
      "inputs": [
        {
          "internalType": "address",
          "name": "_owner",
          "type": "address"
        },
        {
          "internalType": "address",
          "name": "_tokenAddress",
          "type": "address"
        },
        {
          "internalType": "uint256",
          "name": "_tokenId",
          "type": "uint256"
        }
      ],
      "name": "getAllStructs",
      "outputs": [
        {
          "components": [
            {
              "internalType": "address",
              "name": "charityAddress",
              "type": "address"
            },
            {
              "internalType": "address",
              "name": "canClaim",
              "type": "address"
            },
            {
              "internalType": "address[]",
              "name": "nominee",
              "type": "address[]"
            },
            {
              "internalType": "bool",
              "name": "isClaimed",
              "type": "bool"
            },
            {
              "internalType": "string",
              "name": "claimingDate",
              "type": "string"
            }
          ],
          "internalType": "struct NominateNFTs.MultiplePriority",
          "name": "",
          "type": "tuple"
        }
      ],
      "stateMutability": "view",
      "type": "function"
    },
    {
      "inputs": [],
      "name": "inheritokens",
      "outputs": [
        {
          "internalType": "contract Inheritokens",
          "name": "",
          "type": "address"
        }
      ],
      "stateMutability": "view",
      "type": "function"
    },
    {
      "inputs": [],
      "name": "nftCharge",
      "outputs": [
        {
          "internalType": "uint256",
          "name": "",
          "type": "uint256"
        }
      ],
      "stateMutability": "view",
      "type": "function"
    },
    {
      "inputs": [
        {
          "internalType": "address",
          "name": "_owner",
          "type": "address"
        },
        {
          "internalType": "address",
          "name": "_tokenAddress",
          "type": "address"
        },
        {
          "internalType": "uint256",
          "name": "_tokenId",
          "type": "uint256"
        }
      ],
      "name": "nftTransferLogic",
      "outputs": [],
      "stateMutability": "nonpayable",
      "type": "function"
    },
    {
      "inputs": [
        {
          "internalType": "address",
          "name": "_tokenAddress",
          "type": "address"
        },
        {
          "internalType": "string",
          "name": "_tokenName",
          "type": "string"
        },
        {
          "internalType": "uint256",
          "name": "_tokenId",
          "type": "uint256"
        },
        {
          "components": [
            {
              "internalType": "address",
              "name": "charityAddress",
              "type": "address"
            },
            {
              "internalType": "address",
              "name": "canClaim",
              "type": "address"
            },
            {
              "internalType": "address[]",
              "name": "nominee",
              "type": "address[]"
            },
            {
              "internalType": "bool",
              "name": "isClaimed",
              "type": "bool"
            },
            {
              "internalType": "string",
              "name": "claimingDate",
              "type": "string"
            }
          ],
          "internalType": "struct NominateNFTs.MultiplePriority",
          "name": "data",
          "type": "tuple"
        }
      ],
      "name": "nominateNFT",
      "outputs": [],
      "stateMutability": "nonpayable",
      "type": "function"
    },
    {
      "inputs": [],
      "name": "owner",
      "outputs": [
        {
          "internalType": "address",
          "name": "",
          "type": "address"
        }
      ],
      "stateMutability": "view",
      "type": "function"
    },
    {
      "inputs": [
        {
          "internalType": "address",
          "name": "",
          "type": "address"
        },
        {
          "internalType": "address",
          "name": "",
          "type": "address"
        },
        {
          "internalType": "uint256",
          "name": "",
          "type": "uint256"
        }
      ],
      "name": "ownerToNFTToStruct",
      "outputs": [
        {
          "internalType": "address",
          "name": "charityAddress",
          "type": "address"
        },
        {
          "internalType": "address",
          "name": "canClaim",
          "type": "address"
        },
        {
          "internalType": "bool",
          "name": "isClaimed",
          "type": "bool"
        },
        {
          "internalType": "string",
          "name": "claimingDate",
          "type": "string"
        }
      ],
      "stateMutability": "view",
      "type": "function"
    },
    {
      "inputs": [
        {
          "internalType": "address",
          "name": "_owner",
          "type": "address"
        },
        {
          "internalType": "address",
          "name": "_tokenAddress",
          "type": "address"
        },
        {
          "internalType": "uint256",
          "name": "_tokenId",
          "type": "uint256"
        }
      ],
      "name": "recoveryClaim",
      "outputs": [],
      "stateMutability": "nonpayable",
      "type": "function"
    },
    {
      "inputs": [],
      "name": "renounceOwnership",
      "outputs": [],
      "stateMutability": "nonpayable",
      "type": "function"
    },
    {
      "inputs": [
        {
          "internalType": "address",
          "name": "_owner",
          "type": "address"
        },
        {
          "internalType": "address",
          "name": "_tokenAddress",
          "type": "address"
        },
        {
          "internalType": "uint256",
          "name": "_tokenId",
          "type": "uint256"
        },
        {
          "internalType": "string",
          "name": "_date",
          "type": "string"
        }
      ],
      "name": "setDateForNominee",
      "outputs": [],
      "stateMutability": "nonpayable",
      "type": "function"
    },
    {
      "inputs": [
        {
          "internalType": "address",
          "name": "newOwner",
          "type": "address"
        }
      ],
      "name": "transferOwnership",
      "outputs": [],
      "stateMutability": "nonpayable",
      "type": "function"
    },
    {
      "inputs": [
        {
          "internalType": "uint256",
          "name": "_amount",
          "type": "uint256"
        },
        {
          "internalType": "address",
          "name": "_tokenAddress",
          "type": "address"
        }
      ],
      "name": "withdrawFromContract",
      "outputs": [],
      "stateMutability": "payable",
      "type": "function"
    }
  ],
  "bytecode": "0x6080604052624c4b4060035573e9dce89b076ba6107bb64ef30678efec11939234600460006101000a81548173ffffffffffffffffffffffffffffffffffffffff021916908373ffffffffffffffffffffffffffffffffffffffff1602179055503480156200006d57600080fd5b506040516200442938038062004429833981810160405281019062000093919062000273565b620000b3620000a76200013d60201b60201c565b6200014560201b60201c565b81600160006101000a81548173ffffffffffffffffffffffffffffffffffffffff021916908373ffffffffffffffffffffffffffffffffffffffff16021790555080600260006101000a81548173ffffffffffffffffffffffffffffffffffffffff021916908373ffffffffffffffffffffffffffffffffffffffff1602179055505050620002ba565b600033905090565b60008060009054906101000a900473ffffffffffffffffffffffffffffffffffffffff169050816000806101000a81548173ffffffffffffffffffffffffffffffffffffffff021916908373ffffffffffffffffffffffffffffffffffffffff1602179055508173ffffffffffffffffffffffffffffffffffffffff168173ffffffffffffffffffffffffffffffffffffffff167f8be0079c531659141344cd1fd0a4f28419497f9722a3daafe3b4186f6b6457e060405160405180910390a35050565b600080fd5b600073ffffffffffffffffffffffffffffffffffffffff82169050919050565b60006200023b826200020e565b9050919050565b6200024d816200022e565b81146200025957600080fd5b50565b6000815190506200026d8162000242565b92915050565b600080604083850312156200028d576200028c62000209565b5b60006200029d858286016200025c565b9250506020620002b0858286016200025c565b9150509250929050565b61415f80620002ca6000396000f3fe6080604052600436106100fe5760003560e01c80638da5cb5b11610095578063be27c3fe11610064578063be27c3fe146102ff578063c407695b1461032a578063d6bc312414610355578063f2fde38b1461037e578063f4cd5465146103a7576100fe565b80638da5cb5b146102665780639605f50514610291578063996cba68146102ad578063b9d05bc9146102d6576100fe565b8063715018a6116100d1578063715018a6146101bd57806377f4d63c146101d4578063784eb38b146101fd5780638019067b14610226576100fe565b806302a56e811461010357806322d5dfbf1461014057806356f12a3b146101695780635c042ae714610192575b600080fd5b34801561010f57600080fd5b5061012a600480360381019061012591906126fe565b6103d2565b6040516101379190612937565b60405180910390f35b34801561014c57600080fd5b50610167600480360381019061016291906126fe565b610662565b005b34801561017557600080fd5b50610190600480360381019061018b9190612c50565b6106dc565b005b34801561019e57600080fd5b506101a761120a565b6040516101b49190612cfe565b60405180910390f35b3480156101c957600080fd5b506101d2611230565b005b3480156101e057600080fd5b506101fb60048036038101906101f691906126fe565b611244565b005b34801561020957600080fd5b50610224600480360381019061021f9190612d19565b6114aa565b005b34801561023257600080fd5b5061024d600480360381019061024891906126fe565b6114fe565b60405161025d9493929190612db2565b60405180910390f35b34801561027257600080fd5b5061027b61161d565b6040516102889190612cfe565b60405180910390f35b6102ab60048036038101906102a69190612dfe565b611646565b005b3480156102b957600080fd5b506102d460048036038101906102cf91906126fe565b6116d7565b005b3480156102e257600080fd5b506102fd60048036038101906102f891906126fe565b611aca565b005b34801561030b57600080fd5b5061031461222e565b6040516103219190612e9d565b60405180910390f35b34801561033657600080fd5b5061033f612254565b60405161034c9190612ec7565b60405180910390f35b34801561036157600080fd5b5061037c60048036038101906103779190612ee2565b61225a565b005b34801561038a57600080fd5b506103a560048036038101906103a09190612f65565b6122fe565b005b3480156103b357600080fd5b506103bc612381565b6040516103c99190612fb3565b60405180910390f35b6103da6124f1565b600560008573ffffffffffffffffffffffffffffffffffffffff1673ffffffffffffffffffffffffffffffffffffffff16815260200190815260200160002060008473ffffffffffffffffffffffffffffffffffffffff1673ffffffffffffffffffffffffffffffffffffffff16815260200190815260200160002060008381526020019081526020016000206040518060a00160405290816000820160009054906101000a900473ffffffffffffffffffffffffffffffffffffffff1673ffffffffffffffffffffffffffffffffffffffff1673ffffffffffffffffffffffffffffffffffffffff1681526020016001820160009054906101000a900473ffffffffffffffffffffffffffffffffffffffff1673ffffffffffffffffffffffffffffffffffffffff1673ffffffffffffffffffffffffffffffffffffffff168152602001600282018054806020026020016040519081016040528092919081815260200182805480156105a357602002820191906000526020600020905b8160009054906101000a900473ffffffffffffffffffffffffffffffffffffffff1673ffffffffffffffffffffffffffffffffffffffff1681526020019060010190808311610559575b505050505081526020016003820160009054906101000a900460ff161515151581526020016004820180546105d790612ffd565b80601f016020809104026020016040519081016040528092919081815260200182805461060390612ffd565b80156106505780601f1061062557610100808354040283529160200191610650565b820191906000526020600020905b81548152906001019060200180831161063357829003601f168201915b50505050508152505090509392505050565b60008290508073ffffffffffffffffffffffffffffffffffffffff166323b872dd8533856040518463ffffffff1660e01b81526004016106a49392919061302e565b600060405180830381600087803b1580156106be57600080fd5b505af11580156106d2573d6000803e3d6000fd5b5050505050505050565b600160009054906101000a900473ffffffffffffffffffffffffffffffffffffffff1673ffffffffffffffffffffffffffffffffffffffff16630f1f8c05336040518263ffffffff1660e01b81526004016107379190612cfe565b602060405180830381865afa158015610754573d6000803e3d6000fd5b505050506040513d601f19601f82011682018060405250810190610778919061307a565b6107b7576040517f08c379a00000000000000000000000000000000000000000000000000000000081526004016107ae90613119565b60405180910390fd5b600160009054906101000a900473ffffffffffffffffffffffffffffffffffffffff1673ffffffffffffffffffffffffffffffffffffffff166315b79630336040518263ffffffff1660e01b81526004016108129190612cfe565b602060405180830381865afa15801561082f573d6000803e3d6000fd5b505050506040513d601f19601f82011682018060405250810190610853919061307a565b610892576040517f08c379a0000000000000000000000000000000000000000000000000000000008152600401610889906131ab565b60405180910390fd5b6000600160009054906101000a900473ffffffffffffffffffffffffffffffffffffffff1673ffffffffffffffffffffffffffffffffffffffff166320e4ab6a336040518263ffffffff1660e01b81526004016108ef9190612cfe565b600060405180830381865afa15801561090c573d6000803e3d6000fd5b505050506040513d6000823e3d601f19601f820116820180604052508101906109359190613277565b9050600080600160009054906101000a900473ffffffffffffffffffffffffffffffffffffffff1673ffffffffffffffffffffffffffffffffffffffff166345bceabd336040518263ffffffff1660e01b81526004016109959190612cfe565b600060405180830381865afa1580156109b2573d6000803e3d6000fd5b505050506040513d6000823e3d601f19601f820116820180604052508101906109db9190613398565b9050600080600090505b856040015151811015610ae4576000935060005b8551811015610a8957858181518110610a1557610a146133e1565b5b602002602001015173ffffffffffffffffffffffffffffffffffffffff1687604001518381518110610a4a57610a496133e1565b5b602002602001015173ffffffffffffffffffffffffffffffffffffffff1603610a765760019450610a89565b8080610a819061343f565b9150506109f9565b506000151584151503610ad1576040517f08c379a0000000000000000000000000000000000000000000000000000000008152600401610ac8906134d3565b60405180910390fd5b8080610adc9061343f565b9150506109e5565b5060005b8251811015610c12576000600260009054906101000a900473ffffffffffffffffffffffffffffffffffffffff1673ffffffffffffffffffffffffffffffffffffffff16637f3d39bd858481518110610b4457610b436133e1565b5b60200260200101516040518263ffffffff1660e01b8152600401610b689190612ec7565b600060405180830381865afa158015610b85573d6000803e3d6000fd5b505050506040513d6000823e3d601f19601f82011682018060405250810190610bae9190613563565b9091929350909150905050809150508073ffffffffffffffffffffffffffffffffffffffff16876000015173ffffffffffffffffffffffffffffffffffffffff1603610bfe576001925050610c12565b508080610c0a9061343f565b915050610ae8565b506000151581151503610c5a576040517f08c379a0000000000000000000000000000000000000000000000000000000008152600401610c51906136a4565b60405180910390fd5b6000600160009054906101000a900473ffffffffffffffffffffffffffffffffffffffff1673ffffffffffffffffffffffffffffffffffffffff16630220044b338b8a6040518463ffffffff1660e01b8152600401610cbb9392919061302e565b600060405180830381865afa158015610cd8573d6000803e3d6000fd5b505050506040513d6000823e3d601f19601f82011682018060405250810190610d0191906136c4565b90919293945090919293509091925090915090508091505080610dbc57600160009054906101000a900473ffffffffffffffffffffffffffffffffffffffff1673ffffffffffffffffffffffffffffffffffffffff166325cb763a338b8b60018c60646040518763ffffffff1660e01b8152600401610d85969594939291906137e3565b600060405180830381600087803b158015610d9f57600080fd5b505af1158015610db3573d6000803e3d6000fd5b5050505061103a565b6000600460009054906101000a900473ffffffffffffffffffffffffffffffffffffffff1690506003548173ffffffffffffffffffffffffffffffffffffffff1663dd62ed3e33306040518363ffffffff1660e01b8152600401610e2192919061384b565b602060405180830381865afa158015610e3e573d6000803e3d6000fd5b505050506040513d601f19601f82011682018060405250810190610e629190613874565b1015610ea3576040517f08c379a0000000000000000000000000000000000000000000000000000000008152600401610e9a906138ed565b60405180910390fd5b8073ffffffffffffffffffffffffffffffffffffffff166323b872dd33306003546040518463ffffffff1660e01b8152600401610ee29392919061302e565b6020604051808303816000875af1158015610f01573d6000803e3d6000fd5b505050506040513d601f19601f82011682018060405250810190610f25919061307a565b50600560003373ffffffffffffffffffffffffffffffffffffffff1673ffffffffffffffffffffffffffffffffffffffff16815260200190815260200160002060008b73ffffffffffffffffffffffffffffffffffffffff1673ffffffffffffffffffffffffffffffffffffffff1681526020019081526020016000206000898152602001908152602001600020600080820160006101000a81549073ffffffffffffffffffffffffffffffffffffffff02191690556001820160006101000a81549073ffffffffffffffffffffffffffffffffffffffff0219169055600282016000611012919061254e565b6003820160006101000a81549060ff0219169055600482016000611036919061256f565b5050505b85600560003373ffffffffffffffffffffffffffffffffffffffff1673ffffffffffffffffffffffffffffffffffffffff16815260200190815260200160002060008b73ffffffffffffffffffffffffffffffffffffffff1673ffffffffffffffffffffffffffffffffffffffff168152602001908152602001600020600089815260200190815260200160002060008201518160000160006101000a81548173ffffffffffffffffffffffffffffffffffffffff021916908373ffffffffffffffffffffffffffffffffffffffff16021790555060208201518160010160006101000a81548173ffffffffffffffffffffffffffffffffffffffff021916908373ffffffffffffffffffffffffffffffffffffffff16021790555060408201518160020190805190602001906111729291906125af565b5060608201518160030160006101000a81548160ff02191690831515021790555060808201518160040190816111a89190613aaf565b509050503373ffffffffffffffffffffffffffffffffffffffff167f45e1c8f05dfca6476dbccb26f68a214486a530edaca2026673b9a22aeb64dda38a8960016040516111f793929190613b81565b60405180910390a2505050505050505050565b600460009054906101000a900473ffffffffffffffffffffffffffffffffffffffff1681565b6112386123a7565b6112426000612425565b565b3373ffffffffffffffffffffffffffffffffffffffff16600160009054906101000a900473ffffffffffffffffffffffffffffffffffffffff1673ffffffffffffffffffffffffffffffffffffffff1663c3bb8121856040518263ffffffff1660e01b81526004016112b69190612cfe565b600060405180830381865afa1580156112d3573d6000803e3d6000fd5b505050506040513d6000823e3d601f19601f820116820180604052508101906112fc9190613d98565b60e0015173ffffffffffffffffffffffffffffffffffffffff1614611356576040517f08c379a000000000000000000000000000000000000000000000000000000000815260040161134d90613e53565b60405180910390fd5b600160009054906101000a900473ffffffffffffffffffffffffffffffffffffffff1673ffffffffffffffffffffffffffffffffffffffff16633d4c12d7846040518263ffffffff1660e01b81526004016113b19190612cfe565b602060405180830381865afa1580156113ce573d6000803e3d6000fd5b505050506040513d601f19601f820116820180604052508101906113f2919061307a565b15611432576040517f08c379a000000000000000000000000000000000000000000000000000000000815260040161142990613ee5565b60405180910390fd5b61143d838383610662565b8173ffffffffffffffffffffffffffffffffffffffff168373ffffffffffffffffffffffffffffffffffffffff167f4612f3bec793f78eb74b1019da48c9a4060be04e519536bc5c48db100dd71dea83600160405161149d929190613f05565b60405180910390a3505050565b6114b26123a7565b81600460006101000a81548173ffffffffffffffffffffffffffffffffffffffff021916908373ffffffffffffffffffffffffffffffffffffffff160217905550806003819055505050565b600560205282600052604060002060205281600052604060002060205280600052604060002060009250925050508060000160009054906101000a900473ffffffffffffffffffffffffffffffffffffffff16908060010160009054906101000a900473ffffffffffffffffffffffffffffffffffffffff16908060030160009054906101000a900460ff169080600401805461159a90612ffd565b80601f01602080910402602001604051908101604052809291908181526020018280546115c690612ffd565b80156116135780601f106115e857610100808354040283529160200191611613565b820191906000526020600020905b8154815290600101906020018083116115f657829003601f168201915b5050505050905084565b60008060009054906101000a900473ffffffffffffffffffffffffffffffffffffffff16905090565b61164e6123a7565b60008190508073ffffffffffffffffffffffffffffffffffffffff1663a9059cbb33856040518363ffffffff1660e01b815260040161168e929190613f2e565b6020604051808303816000875af11580156116ad573d6000803e3d6000fd5b505050506040513d601f19601f820116820180604052508101906116d1919061307a565b50505050565b600160009054906101000a900473ffffffffffffffffffffffffffffffffffffffff1673ffffffffffffffffffffffffffffffffffffffff16633d4c12d7846040518263ffffffff1660e01b81526004016117329190612cfe565b602060405180830381865afa15801561174f573d6000803e3d6000fd5b505050506040513d601f19601f82011682018060405250810190611773919061307a565b6117b2576040517f08c379a00000000000000000000000000000000000000000000000000000000081526004016117a990613fa3565b60405180910390fd5b60003373ffffffffffffffffffffffffffffffffffffffff16600560008673ffffffffffffffffffffffffffffffffffffffff1673ffffffffffffffffffffffffffffffffffffffff16815260200190815260200160002060008573ffffffffffffffffffffffffffffffffffffffff1673ffffffffffffffffffffffffffffffffffffffff168152602001908152602001600020600084815260200190815260200160002060010160009054906101000a900473ffffffffffffffffffffffffffffffffffffffff1673ffffffffffffffffffffffffffffffffffffffff16148015611940575060001515600560008673ffffffffffffffffffffffffffffffffffffffff1673ffffffffffffffffffffffffffffffffffffffff16815260200190815260200160002060008573ffffffffffffffffffffffffffffffffffffffff1673ffffffffffffffffffffffffffffffffffffffff168152602001908152602001600020600084815260200190815260200160002060030160009054906101000a900460ff161515145b156119fe57611950848484610662565b6001600560008673ffffffffffffffffffffffffffffffffffffffff1673ffffffffffffffffffffffffffffffffffffffff16815260200190815260200160002060008573ffffffffffffffffffffffffffffffffffffffff1673ffffffffffffffffffffffffffffffffffffffff168152602001908152602001600020600084815260200190815260200160002060030160006101000a81548160ff021916908315150217905550600190505b6000151581151503611a45576040517f08c379a0000000000000000000000000000000000000000000000000000000008152600401611a3c90613fa3565b60405180910390fd5b8273ffffffffffffffffffffffffffffffffffffffff163373ffffffffffffffffffffffffffffffffffffffff168573ffffffffffffffffffffffffffffffffffffffff167f2442e7ccfd30564dcfd95cc7cfdaefdfc6298925b0c609461d5c69ca18ab1812856001604051611abc929190613f05565b60405180910390a450505050565b6000600560008573ffffffffffffffffffffffffffffffffffffffff1673ffffffffffffffffffffffffffffffffffffffff16815260200190815260200160002060008473ffffffffffffffffffffffffffffffffffffffff1673ffffffffffffffffffffffffffffffffffffffff1681526020019081526020016000206000838152602001908152602001600020600201805490509050600560008573ffffffffffffffffffffffffffffffffffffffff1673ffffffffffffffffffffffffffffffffffffffff16815260200190815260200160002060008473ffffffffffffffffffffffffffffffffffffffff1673ffffffffffffffffffffffffffffffffffffffff1681526020019081526020016000206000838152602001908152602001600020600201600182611bff9190613fc3565b81548110611c1057611c0f6133e1565b5b9060005260206000200160009054906101000a900473ffffffffffffffffffffffffffffffffffffffff1673ffffffffffffffffffffffffffffffffffffffff16600560008673ffffffffffffffffffffffffffffffffffffffff1673ffffffffffffffffffffffffffffffffffffffff16815260200190815260200160002060008573ffffffffffffffffffffffffffffffffffffffff1673ffffffffffffffffffffffffffffffffffffffff168152602001908152602001600020600084815260200190815260200160002060010160009054906101000a900473ffffffffffffffffffffffffffffffffffffffff1673ffffffffffffffffffffffffffffffffffffffff1603611ea157600560008573ffffffffffffffffffffffffffffffffffffffff1673ffffffffffffffffffffffffffffffffffffffff16815260200190815260200160002060008473ffffffffffffffffffffffffffffffffffffffff1673ffffffffffffffffffffffffffffffffffffffff168152602001908152602001600020600083815260200190815260200160002060000160009054906101000a900473ffffffffffffffffffffffffffffffffffffffff16600560008673ffffffffffffffffffffffffffffffffffffffff1673ffffffffffffffffffffffffffffffffffffffff16815260200190815260200160002060008573ffffffffffffffffffffffffffffffffffffffff1673ffffffffffffffffffffffffffffffffffffffff168152602001908152602001600020600084815260200190815260200160002060010160006101000a81548173ffffffffffffffffffffffffffffffffffffffff021916908373ffffffffffffffffffffffffffffffffffffffff160217905550612228565b60005b600182611eb19190613fc3565b81101561222657600560008673ffffffffffffffffffffffffffffffffffffffff1673ffffffffffffffffffffffffffffffffffffffff16815260200190815260200160002060008573ffffffffffffffffffffffffffffffffffffffff1673ffffffffffffffffffffffffffffffffffffffff168152602001908152602001600020600084815260200190815260200160002060010160009054906101000a900473ffffffffffffffffffffffffffffffffffffffff1673ffffffffffffffffffffffffffffffffffffffff16600560008773ffffffffffffffffffffffffffffffffffffffff1673ffffffffffffffffffffffffffffffffffffffff16815260200190815260200160002060008673ffffffffffffffffffffffffffffffffffffffff1673ffffffffffffffffffffffffffffffffffffffff16815260200190815260200160002060008581526020019081526020016000206002018281548110612021576120206133e1565b5b9060005260206000200160009054906101000a900473ffffffffffffffffffffffffffffffffffffffff1673ffffffffffffffffffffffffffffffffffffffff160361221357600560008673ffffffffffffffffffffffffffffffffffffffff1673ffffffffffffffffffffffffffffffffffffffff16815260200190815260200160002060008573ffffffffffffffffffffffffffffffffffffffff1673ffffffffffffffffffffffffffffffffffffffff16815260200190815260200160002060008481526020019081526020016000206002016001826121049190613ff7565b81548110612115576121146133e1565b5b9060005260206000200160009054906101000a900473ffffffffffffffffffffffffffffffffffffffff16600560008773ffffffffffffffffffffffffffffffffffffffff1673ffffffffffffffffffffffffffffffffffffffff16815260200190815260200160002060008673ffffffffffffffffffffffffffffffffffffffff1673ffffffffffffffffffffffffffffffffffffffff168152602001908152602001600020600085815260200190815260200160002060010160006101000a81548173ffffffffffffffffffffffffffffffffffffffff021916908373ffffffffffffffffffffffffffffffffffffffff160217905550612226565b808061221e9061343f565b915050611ea4565b505b50505050565b600160009054906101000a900473ffffffffffffffffffffffffffffffffffffffff1681565b60035481565b80600560008673ffffffffffffffffffffffffffffffffffffffff1673ffffffffffffffffffffffffffffffffffffffff16815260200190815260200160002060008573ffffffffffffffffffffffffffffffffffffffff1673ffffffffffffffffffffffffffffffffffffffff168152602001908152602001600020600084815260200190815260200160002060040190816122f79190613aaf565b5050505050565b6123066123a7565b600073ffffffffffffffffffffffffffffffffffffffff168173ffffffffffffffffffffffffffffffffffffffff1603612375576040517f08c379a000000000000000000000000000000000000000000000000000000000815260040161236c9061409d565b60405180910390fd5b61237e81612425565b50565b600260009054906101000a900473ffffffffffffffffffffffffffffffffffffffff1681565b6123af6124e9565b73ffffffffffffffffffffffffffffffffffffffff166123cd61161d565b73ffffffffffffffffffffffffffffffffffffffff1614612423576040517f08c379a000000000000000000000000000000000000000000000000000000000815260040161241a90614109565b60405180910390fd5b565b60008060009054906101000a900473ffffffffffffffffffffffffffffffffffffffff169050816000806101000a81548173ffffffffffffffffffffffffffffffffffffffff021916908373ffffffffffffffffffffffffffffffffffffffff1602179055508173ffffffffffffffffffffffffffffffffffffffff168173ffffffffffffffffffffffffffffffffffffffff167f8be0079c531659141344cd1fd0a4f28419497f9722a3daafe3b4186f6b6457e060405160405180910390a35050565b600033905090565b6040518060a00160405280600073ffffffffffffffffffffffffffffffffffffffff168152602001600073ffffffffffffffffffffffffffffffffffffffff16815260200160608152602001600015158152602001606081525090565b508054600082559060005260206000209081019061256c9190612639565b50565b50805461257b90612ffd565b6000825580601f1061258d57506125ac565b601f0160209004906000526020600020908101906125ab9190612639565b5b50565b828054828255906000526020600020908101928215612628579160200282015b828111156126275782518260006101000a81548173ffffffffffffffffffffffffffffffffffffffff021916908373ffffffffffffffffffffffffffffffffffffffff160217905550916020019190600101906125cf565b5b5090506126359190612639565b5090565b5b8082111561265257600081600090555060010161263a565b5090565b6000604051905090565b600080fd5b600080fd5b600073ffffffffffffffffffffffffffffffffffffffff82169050919050565b60006126958261266a565b9050919050565b6126a58161268a565b81146126b057600080fd5b50565b6000813590506126c28161269c565b92915050565b6000819050919050565b6126db816126c8565b81146126e657600080fd5b50565b6000813590506126f8816126d2565b92915050565b60008060006060848603121561271757612716612660565b5b6000612725868287016126b3565b9350506020612736868287016126b3565b9250506040612747868287016126e9565b9150509250925092565b61275a8161268a565b82525050565b600081519050919050565b600082825260208201905092915050565b6000819050602082019050919050565b60006127988383612751565b60208301905092915050565b6000602082019050919050565b60006127bc82612760565b6127c6818561276b565b93506127d18361277c565b8060005b838110156128025781516127e9888261278c565b97506127f4836127a4565b9250506001810190506127d5565b5085935050505092915050565b60008115159050919050565b6128248161280f565b82525050565b600081519050919050565b600082825260208201905092915050565b60005b83811015612864578082015181840152602081019050612849565b60008484015250505050565b6000601f19601f8301169050919050565b600061288c8261282a565b6128968185612835565b93506128a6818560208601612846565b6128af81612870565b840191505092915050565b600060a0830160008301516128d26000860182612751565b5060208301516128e56020860182612751565b50604083015184820360408601526128fd82826127b1565b9150506060830151612912606086018261281b565b506080830151848203608086015261292a8282612881565b9150508091505092915050565b6000602082019050818103600083015261295181846128ba565b905092915050565b600080fd5b600080fd5b7f4e487b7100000000000000000000000000000000000000000000000000000000600052604160045260246000fd5b61299b82612870565b810181811067ffffffffffffffff821117156129ba576129b9612963565b5b80604052505050565b60006129cd612656565b90506129d98282612992565b919050565b600067ffffffffffffffff8211156129f9576129f8612963565b5b612a0282612870565b9050602081019050919050565b82818337600083830152505050565b6000612a31612a2c846129de565b6129c3565b905082815260208101848484011115612a4d57612a4c61295e565b5b612a58848285612a0f565b509392505050565b600082601f830112612a7557612a74612959565b5b8135612a85848260208601612a1e565b91505092915050565b600080fd5b600080fd5b600067ffffffffffffffff821115612ab357612ab2612963565b5b602082029050602081019050919050565b600080fd5b6000612adc612ad784612a98565b6129c3565b90508083825260208201905060208402830185811115612aff57612afe612ac4565b5b835b81811015612b285780612b1488826126b3565b845260208401935050602081019050612b01565b5050509392505050565b600082601f830112612b4757612b46612959565b5b8135612b57848260208601612ac9565b91505092915050565b612b698161280f565b8114612b7457600080fd5b50565b600081359050612b8681612b60565b92915050565b600060a08284031215612ba257612ba1612a8e565b5b612bac60a06129c3565b90506000612bbc848285016126b3565b6000830152506020612bd0848285016126b3565b602083015250604082013567ffffffffffffffff811115612bf457612bf3612a93565b5b612c0084828501612b32565b6040830152506060612c1484828501612b77565b606083015250608082013567ffffffffffffffff811115612c3857612c37612a93565b5b612c4484828501612a60565b60808301525092915050565b60008060008060808587031215612c6a57612c69612660565b5b6000612c78878288016126b3565b945050602085013567ffffffffffffffff811115612c9957612c98612665565b5b612ca587828801612a60565b9350506040612cb6878288016126e9565b925050606085013567ffffffffffffffff811115612cd757612cd6612665565b5b612ce387828801612b8c565b91505092959194509250565b612cf88161268a565b82525050565b6000602082019050612d136000830184612cef565b92915050565b60008060408385031215612d3057612d2f612660565b5b6000612d3e858286016126b3565b9250506020612d4f858286016126e9565b9150509250929050565b612d628161280f565b82525050565b600082825260208201905092915050565b6000612d848261282a565b612d8e8185612d68565b9350612d9e818560208601612846565b612da781612870565b840191505092915050565b6000608082019050612dc76000830187612cef565b612dd46020830186612cef565b612de16040830185612d59565b8181036060830152612df38184612d79565b905095945050505050565b60008060408385031215612e1557612e14612660565b5b6000612e23858286016126e9565b9250506020612e34858286016126b3565b9150509250929050565b6000819050919050565b6000612e63612e5e612e598461266a565b612e3e565b61266a565b9050919050565b6000612e7582612e48565b9050919050565b6000612e8782612e6a565b9050919050565b612e9781612e7c565b82525050565b6000602082019050612eb26000830184612e8e565b92915050565b612ec1816126c8565b82525050565b6000602082019050612edc6000830184612eb8565b92915050565b60008060008060808587031215612efc57612efb612660565b5b6000612f0a878288016126b3565b9450506020612f1b878288016126b3565b9350506040612f2c878288016126e9565b925050606085013567ffffffffffffffff811115612f4d57612f4c612665565b5b612f5987828801612a60565b91505092959194509250565b600060208284031215612f7b57612f7a612660565b5b6000612f89848285016126b3565b91505092915050565b6000612f9d82612e6a565b9050919050565b612fad81612f92565b82525050565b6000602082019050612fc86000830184612fa4565b92915050565b7f4e487b7100000000000000000000000000000000000000000000000000000000600052602260045260246000fd5b6000600282049050600182168061301557607f821691505b60208210810361302857613027612fce565b5b50919050565b60006060820190506130436000830186612cef565b6130506020830185612cef565b61305d6040830184612eb8565b949350505050565b60008151905061307481612b60565b92915050565b6000602082840312156130905761308f612660565b5b600061309e84828501613065565b91505092915050565b7f596f75206d757374206669727374207369676e20757020666f7220616e20616360008201527f636f756e742e0000000000000000000000000000000000000000000000000000602082015250565b6000613103602683612d68565b915061310e826130a7565b604082019050919050565b60006020820190508181036000830152613132816130f6565b9050919050565b7f596f757220656d61696c20686173206e6f7420796574206265656e2076616c6960008201527f64617465642e0000000000000000000000000000000000000000000000000000602082015250565b6000613195602683612d68565b91506131a082613139565b604082019050919050565b600060208201905081810360008301526131c481613188565b9050919050565b6000815190506131da8161269c565b92915050565b60006131f36131ee84612a98565b6129c3565b9050808382526020820190506020840283018581111561321657613215612ac4565b5b835b8181101561323f578061322b88826131cb565b845260208401935050602081019050613218565b5050509392505050565b600082601f83011261325e5761325d612959565b5b815161326e8482602086016131e0565b91505092915050565b60006020828403121561328d5761328c612660565b5b600082015167ffffffffffffffff8111156132ab576132aa612665565b5b6132b784828501613249565b91505092915050565b600067ffffffffffffffff8211156132db576132da612963565b5b602082029050602081019050919050565b6000815190506132fb816126d2565b92915050565b600061331461330f846132c0565b6129c3565b9050808382526020820190506020840283018581111561333757613336612ac4565b5b835b81811015613360578061334c88826132ec565b845260208401935050602081019050613339565b5050509392505050565b600082601f83011261337f5761337e612959565b5b815161338f848260208601613301565b91505092915050565b6000602082840312156133ae576133ad612660565b5b600082015167ffffffffffffffff8111156133cc576133cb612665565b5b6133d88482850161336a565b91505092915050565b7f4e487b7100000000000000000000000000000000000000000000000000000000600052603260045260246000fd5b7f4e487b7100000000000000000000000000000000000000000000000000000000600052601160045260246000fd5b600061344a826126c8565b91507fffffffffffffffffffffffffffffffffffffffffffffffffffffffffffffffff820361347c5761347b613410565b5b600182019050919050565b7f4f6f707321206e6f6d696e656573206973206e6f742061646465642100000000600082015250565b60006134bd601c83612d68565b91506134c882613487565b602082019050919050565b600060208201905081810360008301526134ec816134b0565b9050919050565b6000613506613501846129de565b6129c3565b9050828152602081018484840111156135225761352161295e565b5b61352d848285612846565b509392505050565b600082601f83011261354a57613549612959565b5b815161355a8482602086016134f3565b91505092915050565b600080600080600060a0868803121561357f5761357e612660565b5b600061358d888289016132ec565b955050602061359e888289016131cb565b945050604086015167ffffffffffffffff8111156135bf576135be612665565b5b6135cb88828901613535565b935050606086015167ffffffffffffffff8111156135ec576135eb612665565b5b6135f888828901613535565b925050608086015167ffffffffffffffff81111561361957613618612665565b5b61362588828901613535565b9150509295509295909350565b7f4f6f7073212063686172697479206973206e6f742077686974652d6c6973746560008201527f642e000000000000000000000000000000000000000000000000000000000000602082015250565b600061368e602283612d68565b915061369982613632565b604082019050919050565b600060208201905081810360008301526136bd81613681565b9050919050565b60008060008060008060c087890312156136e1576136e0612660565b5b60006136ef89828a016131cb565b965050602087015167ffffffffffffffff8111156137105761370f612665565b5b61371c89828a01613535565b955050604061372d89828a016132ec565b945050606061373e89828a016132ec565b935050608061374f89828a016132ec565b92505060a061376089828a01613065565b9150509295509295509295565b6000819050919050565b600061379261378d6137888461376d565b612e3e565b6126c8565b9050919050565b6137a281613777565b82525050565b6000819050919050565b60006137cd6137c86137c3846137a8565b612e3e565b6126c8565b9050919050565b6137dd816137b2565b82525050565b600060c0820190506137f86000830189612cef565b6138056020830188612cef565b81810360408301526138178187612d79565b90506138266060830186613799565b6138336080830185612eb8565b61384060a08301846137d4565b979650505050505050565b60006040820190506138606000830185612cef565b61386d6020830184612cef565b9392505050565b60006020828403121561388a57613889612660565b5b6000613898848285016132ec565b91505092915050565b7f616c6c6f77616e6365206973206e6f7420656e6f756768210000000000000000600082015250565b60006138d7601883612d68565b91506138e2826138a1565b602082019050919050565b60006020820190508181036000830152613906816138ca565b9050919050565b60008190508160005260206000209050919050565b60006020601f8301049050919050565b600082821b905092915050565b60006008830261396f7fffffffffffffffffffffffffffffffffffffffffffffffffffffffffffffffff82613932565b6139798683613932565b95508019841693508086168417925050509392505050565b60006139ac6139a76139a2846126c8565b612e3e565b6126c8565b9050919050565b6000819050919050565b6139c683613991565b6139da6139d2826139b3565b84845461393f565b825550505050565b600090565b6139ef6139e2565b6139fa8184846139bd565b505050565b5b81811015613a1e57613a136000826139e7565b600181019050613a00565b5050565b601f821115613a6357613a348161390d565b613a3d84613922565b81016020851015613a4c578190505b613a60613a5885613922565b8301826139ff565b50505b505050565b600082821c905092915050565b6000613a8660001984600802613a68565b1980831691505092915050565b6000613a9f8383613a75565b9150826002028217905092915050565b613ab88261282a565b67ffffffffffffffff811115613ad157613ad0612963565b5b613adb8254612ffd565b613ae6828285613a22565b600060209050601f831160018114613b195760008415613b07578287015190505b613b118582613a93565b865550613b79565b601f198416613b278661390d565b60005b82811015613b4f57848901518255600182019150602085019450602081019050613b2a565b86831015613b6c5784890151613b68601f891682613a75565b8355505b6001600288020188555050505b505050505050565b6000606082019050613b966000830186612cef565b613ba36020830185612eb8565b613bb06040830184613799565b949350505050565b60006101a08284031215613bcf57613bce612a8e565b5b613bda6101a06129c3565b9050600082015167ffffffffffffffff811115613bfa57613bf9612a93565b5b613c0684828501613535565b600083015250602082015167ffffffffffffffff811115613c2a57613c29612a93565b5b613c3684828501613535565b602083015250604082015167ffffffffffffffff811115613c5a57613c59612a93565b5b613c6684828501613535565b604083015250606082015167ffffffffffffffff811115613c8a57613c89612a93565b5b613c9684828501613535565b6060830152506080613caa84828501613065565b60808301525060a0613cbe84828501613065565b60a08301525060c0613cd284828501613065565b60c08301525060e0613ce6848285016131cb565b60e08301525061010082015167ffffffffffffffff811115613d0b57613d0a612a93565b5b613d1784828501613249565b6101008301525061012082015167ffffffffffffffff811115613d3d57613d3c612a93565b5b613d498482850161336a565b61012083015250610140613d5f848285016132ec565b61014083015250610160613d75848285016132ec565b61016083015250610180613d8b848285016132ec565b6101808301525092915050565b600060208284031215613dae57613dad612660565b5b600082015167ffffffffffffffff811115613dcc57613dcb612665565b5b613dd884828501613bb8565b91505092915050565b7f546865207265636f766572792061646472657373206f72206f776e657220616460008201527f647265737320697320696e636f72726563742100000000000000000000000000602082015250565b6000613e3d603383612d68565b9150613e4882613de1565b604082019050919050565b60006020820190508181036000830152613e6c81613e30565b9050919050565b7f596f7572206173736574732061726520616c726561647920636c61696d65642060008201527f627920746865206e6f6d696e65652e0000000000000000000000000000000000602082015250565b6000613ecf602f83612d68565b9150613eda82613e73565b604082019050919050565b60006020820190508181036000830152613efe81613ec2565b9050919050565b6000604082019050613f1a6000830185612eb8565b613f276020830184613799565b9392505050565b6000604082019050613f436000830185612cef565b613f506020830184612eb8565b9392505050565b7f636c61696d206973206e6f7420616c6c6f7765642e0000000000000000000000600082015250565b6000613f8d601583612d68565b9150613f9882613f57565b602082019050919050565b60006020820190508181036000830152613fbc81613f80565b9050919050565b6000613fce826126c8565b9150613fd9836126c8565b9250828203905081811115613ff157613ff0613410565b5b92915050565b6000614002826126c8565b915061400d836126c8565b925082820190508082111561402557614024613410565b5b92915050565b7f4f776e61626c653a206e6577206f776e657220697320746865207a65726f206160008201527f6464726573730000000000000000000000000000000000000000000000000000602082015250565b6000614087602683612d68565b91506140928261402b565b604082019050919050565b600060208201905081810360008301526140b68161407a565b9050919050565b7f4f776e61626c653a2063616c6c6572206973206e6f7420746865206f776e6572600082015250565b60006140f3602083612d68565b91506140fe826140bd565b602082019050919050565b60006020820190508181036000830152614122816140e6565b905091905056fea2646970667358221220cd410cd9f8a5d3bc94532bb8c0db46e23a96966b496de81654ef85cb7540ef6a64736f6c63430008110033",
  "linkReferences": {},
  "deployedLinkReferences": {}
}