{
  "_format": "hh-sol-artifact-1",
  "contractName": "NominateTokens",
  "sourceName": "contracts/NominateTokens.sol",
  "abi": [
    {
      "inputs": [
        {
          "internalType": "address",
          "name": "_inheritokensAddress",
          "type": "address"
        },
        {
          "internalType": "address",
          "name": "_charityContractAddress",
          "type": "address"
        }
      ],
      "stateMutability": "nonpayable",
      "type": "constructor"
    },
    {
      "anonymous": false,
      "inputs": [
        {
          "indexed": true,
          "internalType": "address",
          "name": "_owner",
          "type": "address"
        },
        {
          "indexed": true,
          "internalType": "address",
          "name": "_nominee",
          "type": "address"
        },
        {
          "indexed": true,
          "internalType": "address",
          "name": "_tokenAddress",
          "type": "address"
        },
        {
          "indexed": false,
          "internalType": "uint256",
          "name": "_amount",
          "type": "uint256"
        },
        {
          "indexed": false,
          "internalType": "uint256",
          "name": "_category",
          "type": "uint256"
        }
      ],
      "name": "Claimed",
      "type": "event"
    },
    {
      "anonymous": false,
      "inputs": [
        {
          "indexed": true,
          "internalType": "address",
          "name": "previousOwner",
          "type": "address"
        },
        {
          "indexed": true,
          "internalType": "address",
          "name": "newOwner",
          "type": "address"
        }
      ],
      "name": "OwnershipTransferred",
      "type": "event"
    },
    {
      "anonymous": false,
      "inputs": [
        {
          "indexed": true,
          "internalType": "address",
          "name": "_owner",
          "type": "address"
        },
        {
          "indexed": true,
          "internalType": "address",
          "name": "_tokenAddress",
          "type": "address"
        },
        {
          "indexed": false,
          "internalType": "uint256",
          "name": "_amount",
          "type": "uint256"
        },
        {
          "indexed": false,
          "internalType": "uint256",
          "name": "_category",
          "type": "uint256"
        }
      ],
      "name": "Recovered",
      "type": "event"
    },
    {
      "anonymous": false,
      "inputs": [
        {
          "indexed": true,
          "internalType": "address",
          "name": "_owner",
          "type": "address"
        },
        {
          "indexed": false,
          "internalType": "address",
          "name": "_tokenAddress",
          "type": "address"
        },
        {
          "indexed": false,
          "internalType": "uint256",
          "name": "_category",
          "type": "uint256"
        }
      ],
      "name": "TokensNominated",
      "type": "event"
    },
    {
      "inputs": [
        {
          "internalType": "address",
          "name": "_tokenAddress",
          "type": "address"
        },
        {
          "internalType": "string",
          "name": "_tokenName",
          "type": "string"
        },
        {
          "components": [
            {
              "internalType": "uint256",
              "name": "share",
              "type": "uint256"
            },
            {
              "internalType": "address",
              "name": "charityAddress",
              "type": "address"
            },
            {
              "internalType": "address",
              "name": "canClaim",
              "type": "address"
            },
            {
              "internalType": "address[]",
              "name": "nominee",
              "type": "address[]"
            },
            {
              "internalType": "bool",
              "name": "isClaimed",
              "type": "bool"
            },
            {
              "internalType": "string",
              "name": "claimingDate",
              "type": "string"
            }
          ],
          "internalType": "struct NominateTokens.MultiplePriority[]",
          "name": "data",
          "type": "tuple[]"
        }
      ],
      "name": "assignTokensToMultipleNominees",
      "outputs": [],
      "stateMutability": "nonpayable",
      "type": "function"
    },
    {
      "inputs": [
        {
          "internalType": "address",
          "name": "_owner",
          "type": "address"
        },
        {
          "internalType": "address",
          "name": "_tokenAddress",
          "type": "address"
        },
        {
          "internalType": "uint256",
          "name": "_index",
          "type": "uint256"
        }
      ],
      "name": "changeCanClaim",
      "outputs": [],
      "stateMutability": "nonpayable",
      "type": "function"
    },
    {
      "inputs": [
        {
          "internalType": "address",
          "name": "_tokenAddress",
          "type": "address"
        },
        {
          "internalType": "uint256",
          "name": "_tokenCharge",
          "type": "uint256"
        },
        {
          "internalType": "uint256",
          "name": "_percentage",
          "type": "uint256"
        }
      ],
      "name": "changeCharges",
      "outputs": [],
      "stateMutability": "nonpayable",
      "type": "function"
    },
    {
      "inputs": [],
      "name": "chargeTokenAddress",
      "outputs": [
        {
          "internalType": "address",
          "name": "",
          "type": "address"
        }
      ],
      "stateMutability": "view",
      "type": "function"
    },
    {
      "inputs": [],
      "name": "charityContract",
      "outputs": [
        {
          "internalType": "contract CharityContract",
          "name": "",
          "type": "address"
        }
      ],
      "stateMutability": "view",
      "type": "function"
    },
    {
      "inputs": [
        {
          "internalType": "address",
          "name": "_owner",
          "type": "address"
        },
        {
          "internalType": "address",
          "name": "_tokenAddress",
          "type": "address"
        }
      ],
      "name": "claim",
      "outputs": [],
      "stateMutability": "nonpayable",
      "type": "function"
    },
    {
      "inputs": [
        {
          "internalType": "address",
          "name": "_owner",
          "type": "address"
        },
        {
          "internalType": "address",
          "name": "_tokenAddress",
          "type": "address"
        }
      ],
      "name": "getAllStructs",
      "outputs": [
        {
          "components": [
            {
              "internalType": "uint256",
              "name": "share",
              "type": "uint256"
            },
            {
              "internalType": "address",
              "name": "charityAddress",
              "type": "address"
            },
            {
              "internalType": "address",
              "name": "canClaim",
              "type": "address"
            },
            {
              "internalType": "address[]",
              "name": "nominee",
              "type": "address[]"
            },
            {
              "internalType": "bool",
              "name": "isClaimed",
              "type": "bool"
            },
            {
              "internalType": "string",
              "name": "claimingDate",
              "type": "string"
            }
          ],
          "internalType": "struct NominateTokens.MultiplePriority[]",
          "name": "",
          "type": "tuple[]"
        }
      ],
      "stateMutability": "view",
      "type": "function"
    },
    {
      "inputs": [],
      "name": "inheritokens",
      "outputs": [
        {
          "internalType": "contract Inheritokens",
          "name": "",
          "type": "address"
        }
      ],
      "stateMutability": "view",
      "type": "function"
    },
    {
      "inputs": [
        {
          "internalType": "address",
          "name": "",
          "type": "address"
        },
        {
          "internalType": "address",
          "name": "",
          "type": "address"
        }
      ],
      "name": "notFirst",
      "outputs": [
        {
          "internalType": "bool",
          "name": "",
          "type": "bool"
        }
      ],
      "stateMutability": "view",
      "type": "function"
    },
    {
      "inputs": [],
      "name": "owner",
      "outputs": [
        {
          "internalType": "address",
          "name": "",
          "type": "address"
        }
      ],
      "stateMutability": "view",
      "type": "function"
    },
    {
      "inputs": [
        {
          "internalType": "address",
          "name": "",
          "type": "address"
        },
        {
          "internalType": "address",
          "name": "",
          "type": "address"
        },
        {
          "internalType": "uint256",
          "name": "",
          "type": "uint256"
        }
      ],
      "name": "ownerToTokenToStruct",
      "outputs": [
        {
          "internalType": "uint256",
          "name": "share",
          "type": "uint256"
        },
        {
          "internalType": "address",
          "name": "charityAddress",
          "type": "address"
        },
        {
          "internalType": "address",
          "name": "canClaim",
          "type": "address"
        },
        {
          "internalType": "bool",
          "name": "isClaimed",
          "type": "bool"
        },
        {
          "internalType": "string",
          "name": "claimingDate",
          "type": "string"
        }
      ],
      "stateMutability": "view",
      "type": "function"
    },
    {
      "inputs": [],
      "name": "percentage",
      "outputs": [
        {
          "internalType": "uint256",
          "name": "",
          "type": "uint256"
        }
      ],
      "stateMutability": "view",
      "type": "function"
    },
    {
      "inputs": [
        {
          "internalType": "address",
          "name": "_owner",
          "type": "address"
        },
        {
          "internalType": "address",
          "name": "_tokenAddress",
          "type": "address"
        }
      ],
      "name": "recoveryClaim",
      "outputs": [],
      "stateMutability": "nonpayable",
      "type": "function"
    },
    {
      "inputs": [],
      "name": "renounceOwnership",
      "outputs": [],
      "stateMutability": "nonpayable",
      "type": "function"
    },
    {
      "inputs": [
        {
          "internalType": "address",
          "name": "_owner",
          "type": "address"
        },
        {
          "internalType": "address",
          "name": "_tokenAddress",
          "type": "address"
        },
        {
          "internalType": "string",
          "name": "_date",
          "type": "string"
        },
        {
          "internalType": "uint256",
          "name": "_index",
          "type": "uint256"
        }
      ],
      "name": "setDateForNominee",
      "outputs": [],
      "stateMutability": "nonpayable",
      "type": "function"
    },
    {
      "inputs": [],
      "name": "tokenCharge",
      "outputs": [
        {
          "internalType": "uint256",
          "name": "",
          "type": "uint256"
        }
      ],
      "stateMutability": "view",
      "type": "function"
    },
    {
      "inputs": [
        {
          "internalType": "address",
          "name": "_owner",
          "type": "address"
        },
        {
          "internalType": "address",
          "name": "_tokenAddress",
          "type": "address"
        },
        {
          "internalType": "uint256",
          "name": "_share",
          "type": "uint256"
        }
      ],
      "name": "tokenTransferLogic",
      "outputs": [],
      "stateMutability": "nonpayable",
      "type": "function"
    },
    {
      "inputs": [
        {
          "internalType": "address",
          "name": "",
          "type": "address"
        },
        {
          "internalType": "address",
          "name": "",
          "type": "address"
        }
      ],
      "name": "totalAmount",
      "outputs": [
        {
          "internalType": "uint256",
          "name": "",
          "type": "uint256"
        }
      ],
      "stateMutability": "view",
      "type": "function"
    },
    {
      "inputs": [
        {
          "internalType": "address",
          "name": "newOwner",
          "type": "address"
        }
      ],
      "name": "transferOwnership",
      "outputs": [],
      "stateMutability": "nonpayable",
      "type": "function"
    },
    {
      "inputs": [
        {
          "internalType": "uint256",
          "name": "_amount",
          "type": "uint256"
        },
        {
          "internalType": "address",
          "name": "_tokenAddress",
          "type": "address"
        }
      ],
      "name": "withdrawFromContract",
      "outputs": [],
      "stateMutability": "payable",
      "type": "function"
    }
  ],
  "bytecode": "0x6080604052620f4240600355600160045573e9dce89b076ba6107bb64ef30678efec11939234600560006101000a81548173ffffffffffffffffffffffffffffffffffffffff021916908373ffffffffffffffffffffffffffffffffffffffff1602179055503480156200007257600080fd5b506040516200507838038062005078833981810160405281019062000098919062000278565b620000b8620000ac6200014260201b60201c565b6200014a60201b60201c565b81600160006101000a81548173ffffffffffffffffffffffffffffffffffffffff021916908373ffffffffffffffffffffffffffffffffffffffff16021790555080600260006101000a81548173ffffffffffffffffffffffffffffffffffffffff021916908373ffffffffffffffffffffffffffffffffffffffff1602179055505050620002bf565b600033905090565b60008060009054906101000a900473ffffffffffffffffffffffffffffffffffffffff169050816000806101000a81548173ffffffffffffffffffffffffffffffffffffffff021916908373ffffffffffffffffffffffffffffffffffffffff1602179055508173ffffffffffffffffffffffffffffffffffffffff168173ffffffffffffffffffffffffffffffffffffffff167f8be0079c531659141344cd1fd0a4f28419497f9722a3daafe3b4186f6b6457e060405160405180910390a35050565b600080fd5b600073ffffffffffffffffffffffffffffffffffffffff82169050919050565b6000620002408262000213565b9050919050565b620002528162000233565b81146200025e57600080fd5b50565b600081519050620002728162000247565b92915050565b600080604083850312156200029257620002916200020e565b5b6000620002a28582860162000261565b9250506020620002b58582860162000261565b9150509250929050565b614da980620002cf6000396000f3fe60806040526004361061011f5760003560e01c8063b47c1600116100a0578063d4e86cf611610064578063d4e86cf6146103b6578063d8948a89146103df578063eae1b8361461041c578063f2fde38b14610445578063f4cd54651461046e5761011f565b8063b47c1600146102b9578063b9d05bc9146102f6578063be27c3fe1461031f578063bea7d6ac1461034a578063c78ad77f1461038b5761011f565b806379cf3077116100e757806379cf3077146101f557806379d8fd361461021e5780638da5cb5b146102475780639605f505146102725780639b2520231461028e5761011f565b806321c0b342146101245780633765aae81461014d5780635b3da9291461018a5780635c042ae7146101b3578063715018a6146101de575b600080fd5b34801561013057600080fd5b5061014b60048036038101906101469190612f93565b610499565b005b34801561015957600080fd5b50610174600480360381019061016f9190612f93565b6109fd565b6040516101819190612fee565b60405180910390f35b34801561019657600080fd5b506101b160048036038101906101ac9190613185565b610a2c565b005b3480156101bf57600080fd5b506101c8610adf565b6040516101d59190613217565b60405180910390f35b3480156101ea57600080fd5b506101f3610b05565b005b34801561020157600080fd5b5061021c60048036038101906102179190613232565b610b19565b005b34801561022a57600080fd5b5061024560048036038101906102409190612f93565b610f0e565b005b34801561025357600080fd5b5061025c611177565b6040516102699190613217565b60405180910390f35b61028c60048036038101906102879190613285565b6111a0565b005b34801561029a57600080fd5b506102a3611231565b6040516102b091906132d4565b60405180910390f35b3480156102c557600080fd5b506102e060048036038101906102db9190612f93565b611237565b6040516102ed919061359c565b60405180910390f35b34801561030257600080fd5b5061031d60048036038101906103189190613232565b611504565b005b34801561032b57600080fd5b50610334611ceb565b604051610341919061361d565b60405180910390f35b34801561035657600080fd5b50610371600480360381019061036c9190613232565b611d11565b604051610382959493929190613682565b60405180910390f35b34801561039757600080fd5b506103a0611e46565b6040516103ad91906132d4565b60405180910390f35b3480156103c257600080fd5b506103dd60048036038101906103d891906136dc565b611e4c565b005b3480156103eb57600080fd5b5061040660048036038101906104019190612f93565b611ea8565b60405161041391906132d4565b60405180910390f35b34801561042857600080fd5b50610443600480360381019061043e91906139e6565b611ecd565b005b34801561045157600080fd5b5061046c60048036038101906104679190613a71565b612b61565b005b34801561047a57600080fd5b50610483612be4565b6040516104909190613abf565b60405180910390f35b600160009054906101000a900473ffffffffffffffffffffffffffffffffffffffff1673ffffffffffffffffffffffffffffffffffffffff16633d4c12d7836040518263ffffffff1660e01b81526004016104f49190613217565b602060405180830381865afa158015610511573d6000803e3d6000fd5b505050506040513d601f19601f820116820180604052508101906105359190613aef565b610574576040517f08c379a000000000000000000000000000000000000000000000000000000000815260040161056b90613b68565b60405180910390fd5b60008060005b600660008673ffffffffffffffffffffffffffffffffffffffff1673ffffffffffffffffffffffffffffffffffffffff16815260200190815260200160002060008573ffffffffffffffffffffffffffffffffffffffff1673ffffffffffffffffffffffffffffffffffffffff16815260200190815260200160002080549050811015610930573373ffffffffffffffffffffffffffffffffffffffff16600660008773ffffffffffffffffffffffffffffffffffffffff1673ffffffffffffffffffffffffffffffffffffffff16815260200190815260200160002060008673ffffffffffffffffffffffffffffffffffffffff1673ffffffffffffffffffffffffffffffffffffffff16815260200190815260200160002082815481106106a6576106a5613b88565b5b906000526020600020906006020160020160009054906101000a900473ffffffffffffffffffffffffffffffffffffffff1673ffffffffffffffffffffffffffffffffffffffff161480156107ab575060001515600660008773ffffffffffffffffffffffffffffffffffffffff1673ffffffffffffffffffffffffffffffffffffffff16815260200190815260200160002060008673ffffffffffffffffffffffffffffffffffffffff1673ffffffffffffffffffffffffffffffffffffffff168152602001908152602001600020828154811061078857610787613b88565b5b906000526020600020906006020160040160009054906101000a900460ff161515145b1561091d576000600660008773ffffffffffffffffffffffffffffffffffffffff1673ffffffffffffffffffffffffffffffffffffffff16815260200190815260200160002060008673ffffffffffffffffffffffffffffffffffffffff1673ffffffffffffffffffffffffffffffffffffffff16815260200190815260200160002082815481106108405761083f613b88565b5b906000526020600020906006020160000154905061085f868683610b19565b6001600660008873ffffffffffffffffffffffffffffffffffffffff1673ffffffffffffffffffffffffffffffffffffffff16815260200190815260200160002060008773ffffffffffffffffffffffffffffffffffffffff1673ffffffffffffffffffffffffffffffffffffffff16815260200190815260200160002083815481106108ef576108ee613b88565b5b906000526020600020906006020160040160006101000a81548160ff02191690831515021790555060019250505b808061092890613be6565b91505061057a565b506000151581151503610978576040517f08c379a000000000000000000000000000000000000000000000000000000000815260040161096f90613b68565b60405180910390fd5b8273ffffffffffffffffffffffffffffffffffffffff163373ffffffffffffffffffffffffffffffffffffffff168573ffffffffffffffffffffffffffffffffffffffff167f2442e7ccfd30564dcfd95cc7cfdaefdfc6298925b0c609461d5c69ca18ab18128560006040516109ef929190613c69565b60405180910390a450505050565b60086020528160005260406000206020528060005260406000206000915091509054906101000a900460ff1681565b81600660008673ffffffffffffffffffffffffffffffffffffffff1673ffffffffffffffffffffffffffffffffffffffff16815260200190815260200160002060008573ffffffffffffffffffffffffffffffffffffffff1673ffffffffffffffffffffffffffffffffffffffff1681526020019081526020016000208281548110610abb57610aba613b88565b5b90600052602060002090600602016005019081610ad89190613e94565b5050505050565b600560009054906101000a900473ffffffffffffffffffffffffffffffffffffffff1681565b610b0d612c0a565b610b176000612c88565b565b6000829050600860008573ffffffffffffffffffffffffffffffffffffffff1673ffffffffffffffffffffffffffffffffffffffff16815260200190815260200160002060008473ffffffffffffffffffffffffffffffffffffffff1673ffffffffffffffffffffffffffffffffffffffff16815260200190815260200160002060009054906101000a900460ff16610d3c578073ffffffffffffffffffffffffffffffffffffffff166370a08231856040518263ffffffff1660e01b8152600401610be59190613217565b602060405180830381865afa158015610c02573d6000803e3d6000fd5b505050506040513d601f19601f82011682018060405250810190610c269190613f7b565b600760008673ffffffffffffffffffffffffffffffffffffffff1673ffffffffffffffffffffffffffffffffffffffff16815260200190815260200160002060008573ffffffffffffffffffffffffffffffffffffffff1673ffffffffffffffffffffffffffffffffffffffff168152602001908152602001600020819055506001600860008673ffffffffffffffffffffffffffffffffffffffff1673ffffffffffffffffffffffffffffffffffffffff16815260200190815260200160002060008573ffffffffffffffffffffffffffffffffffffffff1673ffffffffffffffffffffffffffffffffffffffff16815260200190815260200160002060006101000a81548160ff0219169083151502179055505b6000606483600760008873ffffffffffffffffffffffffffffffffffffffff1673ffffffffffffffffffffffffffffffffffffffff16815260200190815260200160002060008773ffffffffffffffffffffffffffffffffffffffff1673ffffffffffffffffffffffffffffffffffffffff16815260200190815260200160002054610dc89190613fa8565b610dd29190614019565b9050600061271060045483610de79190613fa8565b610df19190614019565b905060008183610e01919061404a565b90508373ffffffffffffffffffffffffffffffffffffffff166323b872dd8830856040518463ffffffff1660e01b8152600401610e409392919061407e565b6020604051808303816000875af1158015610e5f573d6000803e3d6000fd5b505050506040513d601f19601f82011682018060405250810190610e839190613aef565b508373ffffffffffffffffffffffffffffffffffffffff166323b872dd8833846040518463ffffffff1660e01b8152600401610ec19392919061407e565b6020604051808303816000875af1158015610ee0573d6000803e3d6000fd5b505050506040513d601f19601f82011682018060405250810190610f049190613aef565b5050505050505050565b3373ffffffffffffffffffffffffffffffffffffffff16600160009054906101000a900473ffffffffffffffffffffffffffffffffffffffff1673ffffffffffffffffffffffffffffffffffffffff1663c3bb8121846040518263ffffffff1660e01b8152600401610f809190613217565b600060405180830381865afa158015610f9d573d6000803e3d6000fd5b505050506040513d6000823e3d601f19601f82011682018060405250810190610fc69190614474565b60e0015173ffffffffffffffffffffffffffffffffffffffff1614611020576040517f08c379a00000000000000000000000000000000000000000000000000000000081526004016110179061452f565b60405180910390fd5b600160009054906101000a900473ffffffffffffffffffffffffffffffffffffffff1673ffffffffffffffffffffffffffffffffffffffff16633d4c12d7836040518263ffffffff1660e01b815260040161107b9190613217565b602060405180830381865afa158015611098573d6000803e3d6000fd5b505050506040513d601f19601f820116820180604052508101906110bc9190613aef565b156110fc576040517f08c379a00000000000000000000000000000000000000000000000000000000081526004016110f3906145c1565b60405180910390fd5b600061110a83836064610b19565b8173ffffffffffffffffffffffffffffffffffffffff168373ffffffffffffffffffffffffffffffffffffffff167f4612f3bec793f78eb74b1019da48c9a4060be04e519536bc5c48db100dd71dea83600060405161116a929190613c69565b60405180910390a3505050565b60008060009054906101000a900473ffffffffffffffffffffffffffffffffffffffff16905090565b6111a8612c0a565b60008190508073ffffffffffffffffffffffffffffffffffffffff1663a9059cbb33856040518363ffffffff1660e01b81526004016111e89291906145e1565b6020604051808303816000875af1158015611207573d6000803e3d6000fd5b505050506040513d601f19601f8201168201806040525081019061122b9190613aef565b50505050565b60035481565b6060600660008473ffffffffffffffffffffffffffffffffffffffff1673ffffffffffffffffffffffffffffffffffffffff16815260200190815260200160002060008373ffffffffffffffffffffffffffffffffffffffff1673ffffffffffffffffffffffffffffffffffffffff168152602001908152602001600020805480602002602001604051908101604052809291908181526020016000905b828210156114f857838290600052602060002090600602016040518060c0016040529081600082015481526020016001820160009054906101000a900473ffffffffffffffffffffffffffffffffffffffff1673ffffffffffffffffffffffffffffffffffffffff1673ffffffffffffffffffffffffffffffffffffffff1681526020016002820160009054906101000a900473ffffffffffffffffffffffffffffffffffffffff1673ffffffffffffffffffffffffffffffffffffffff1673ffffffffffffffffffffffffffffffffffffffff1681526020016003820180548060200260200160405190810160405280929190818152602001828054801561143357602002820191906000526020600020905b8160009054906101000a900473ffffffffffffffffffffffffffffffffffffffff1673ffffffffffffffffffffffffffffffffffffffff16815260200190600101908083116113e9575b505050505081526020016004820160009054906101000a900460ff1615151515815260200160058201805461146790613cc1565b80601f016020809104026020016040519081016040528092919081815260200182805461149390613cc1565b80156114e05780601f106114b5576101008083540402835291602001916114e0565b820191906000526020600020905b8154815290600101906020018083116114c357829003601f168201915b505050505081525050815260200190600101906112d5565b50505050905092915050565b6000600660008573ffffffffffffffffffffffffffffffffffffffff1673ffffffffffffffffffffffffffffffffffffffff16815260200190815260200160002060008473ffffffffffffffffffffffffffffffffffffffff1673ffffffffffffffffffffffffffffffffffffffff168152602001908152602001600020828154811061159457611593613b88565b5b9060005260206000209060060201600301805490509050600660008573ffffffffffffffffffffffffffffffffffffffff1673ffffffffffffffffffffffffffffffffffffffff16815260200190815260200160002060008473ffffffffffffffffffffffffffffffffffffffff1673ffffffffffffffffffffffffffffffffffffffff168152602001908152602001600020828154811061163957611638613b88565b5b9060005260206000209060060201600301600182611657919061404a565b8154811061166857611667613b88565b5b9060005260206000200160009054906101000a900473ffffffffffffffffffffffffffffffffffffffff1673ffffffffffffffffffffffffffffffffffffffff16600660008673ffffffffffffffffffffffffffffffffffffffff1673ffffffffffffffffffffffffffffffffffffffff16815260200190815260200160002060008573ffffffffffffffffffffffffffffffffffffffff1673ffffffffffffffffffffffffffffffffffffffff168152602001908152602001600020838154811061173757611736613b88565b5b906000526020600020906006020160020160009054906101000a900473ffffffffffffffffffffffffffffffffffffffff1673ffffffffffffffffffffffffffffffffffffffff160361192657600660008573ffffffffffffffffffffffffffffffffffffffff1673ffffffffffffffffffffffffffffffffffffffff16815260200190815260200160002060008473ffffffffffffffffffffffffffffffffffffffff1673ffffffffffffffffffffffffffffffffffffffff168152602001908152602001600020828154811061181257611811613b88565b5b906000526020600020906006020160010160009054906101000a900473ffffffffffffffffffffffffffffffffffffffff16600660008673ffffffffffffffffffffffffffffffffffffffff1673ffffffffffffffffffffffffffffffffffffffff16815260200190815260200160002060008573ffffffffffffffffffffffffffffffffffffffff1673ffffffffffffffffffffffffffffffffffffffff16815260200190815260200160002083815481106118d2576118d1613b88565b5b906000526020600020906006020160020160006101000a81548173ffffffffffffffffffffffffffffffffffffffff021916908373ffffffffffffffffffffffffffffffffffffffff160217905550611ce5565b60005b600182611936919061404a565b811015611ce357600660008673ffffffffffffffffffffffffffffffffffffffff1673ffffffffffffffffffffffffffffffffffffffff16815260200190815260200160002060008573ffffffffffffffffffffffffffffffffffffffff1673ffffffffffffffffffffffffffffffffffffffff16815260200190815260200160002083815481106119cb576119ca613b88565b5b906000526020600020906006020160020160009054906101000a900473ffffffffffffffffffffffffffffffffffffffff1673ffffffffffffffffffffffffffffffffffffffff16600660008773ffffffffffffffffffffffffffffffffffffffff1673ffffffffffffffffffffffffffffffffffffffff16815260200190815260200160002060008673ffffffffffffffffffffffffffffffffffffffff1673ffffffffffffffffffffffffffffffffffffffff1681526020019081526020016000208481548110611aa157611aa0613b88565b5b90600052602060002090600602016003018281548110611ac457611ac3613b88565b5b9060005260206000200160009054906101000a900473ffffffffffffffffffffffffffffffffffffffff1673ffffffffffffffffffffffffffffffffffffffff1603611cd057600660008673ffffffffffffffffffffffffffffffffffffffff1673ffffffffffffffffffffffffffffffffffffffff16815260200190815260200160002060008573ffffffffffffffffffffffffffffffffffffffff1673ffffffffffffffffffffffffffffffffffffffff1681526020019081526020016000208381548110611b9857611b97613b88565b5b9060005260206000209060060201600301600182611bb6919061460a565b81548110611bc757611bc6613b88565b5b9060005260206000200160009054906101000a900473ffffffffffffffffffffffffffffffffffffffff16600660008773ffffffffffffffffffffffffffffffffffffffff1673ffffffffffffffffffffffffffffffffffffffff16815260200190815260200160002060008673ffffffffffffffffffffffffffffffffffffffff1673ffffffffffffffffffffffffffffffffffffffff1681526020019081526020016000208481548110611c8057611c7f613b88565b5b906000526020600020906006020160020160006101000a81548173ffffffffffffffffffffffffffffffffffffffff021916908373ffffffffffffffffffffffffffffffffffffffff1602179055505b8080611cdb90613be6565b915050611929565b505b50505050565b600160009054906101000a900473ffffffffffffffffffffffffffffffffffffffff1681565b60066020528260005260406000206020528160005260406000208181548110611d3957600080fd5b906000526020600020906006020160009250925050508060000154908060010160009054906101000a900473ffffffffffffffffffffffffffffffffffffffff16908060020160009054906101000a900473ffffffffffffffffffffffffffffffffffffffff16908060040160009054906101000a900460ff1690806005018054611dc390613cc1565b80601f0160208091040260200160405190810160405280929190818152602001828054611def90613cc1565b8015611e3c5780601f10611e1157610100808354040283529160200191611e3c565b820191906000526020600020905b815481529060010190602001808311611e1f57829003601f168201915b5050505050905085565b60045481565b611e54612c0a565b82600560006101000a81548173ffffffffffffffffffffffffffffffffffffffff021916908373ffffffffffffffffffffffffffffffffffffffff1602179055508160038190555080600481905550505050565b6007602052816000526040600020602052806000526040600020600091509150505481565b600160009054906101000a900473ffffffffffffffffffffffffffffffffffffffff1673ffffffffffffffffffffffffffffffffffffffff16630f1f8c05336040518263ffffffff1660e01b8152600401611f289190613217565b602060405180830381865afa158015611f45573d6000803e3d6000fd5b505050506040513d601f19601f82011682018060405250810190611f699190613aef565b611fa8576040517f08c379a0000000000000000000000000000000000000000000000000000000008152600401611f9f906146b0565b60405180910390fd5b600160009054906101000a900473ffffffffffffffffffffffffffffffffffffffff1673ffffffffffffffffffffffffffffffffffffffff166315b79630336040518263ffffffff1660e01b81526004016120039190613217565b602060405180830381865afa158015612020573d6000803e3d6000fd5b505050506040513d601f19601f820116820180604052508101906120449190613aef565b612083576040517f08c379a000000000000000000000000000000000000000000000000000000000815260040161207a90614742565b60405180910390fd5b6000600160009054906101000a900473ffffffffffffffffffffffffffffffffffffffff1673ffffffffffffffffffffffffffffffffffffffff166320e4ab6a336040518263ffffffff1660e01b81526004016120e09190613217565b600060405180830381865afa1580156120fd573d6000803e3d6000fd5b505050506040513d6000823e3d601f19601f820116820180604052508101906121269190614762565b9050600080600160009054906101000a900473ffffffffffffffffffffffffffffffffffffffff1673ffffffffffffffffffffffffffffffffffffffff166345bceabd336040518263ffffffff1660e01b81526004016121869190613217565b600060405180830381865afa1580156121a3573d6000803e3d6000fd5b505050506040513d6000823e3d601f19601f820116820180604052508101906121cc91906147ab565b9050600080600090505b85518110156124b85760005b8682815181106121f5576121f4613b88565b5b60200260200101516060015151811015612315576000945060005b86518110156122ba5786818151811061222c5761222b613b88565b5b602002602001015173ffffffffffffffffffffffffffffffffffffffff1688848151811061225d5761225c613b88565b5b602002602001015160600151838151811061227b5761227a613b88565b5b602002602001015173ffffffffffffffffffffffffffffffffffffffff16036122a757600195506122ba565b80806122b290613be6565b915050612210565b506000151585151503612302576040517f08c379a00000000000000000000000000000000000000000000000000000000081526004016122f990614840565b60405180910390fd5b808061230d90613be6565b9150506121e2565b5060005b835181101561245d576000600260009054906101000a900473ffffffffffffffffffffffffffffffffffffffff1673ffffffffffffffffffffffffffffffffffffffff16637f3d39bd86848151811061237557612374613b88565b5b60200260200101516040518263ffffffff1660e01b815260040161239991906132d4565b600060405180830381865afa1580156123b6573d6000803e3d6000fd5b505050506040513d6000823e3d601f19601f820116820180604052508101906123df9190614860565b9091929350909150905050809150508073ffffffffffffffffffffffffffffffffffffffff1688848151811061241857612417613b88565b5b60200260200101516020015173ffffffffffffffffffffffffffffffffffffffff160361244957600193505061245d565b50808061245590613be6565b915050612319565b5060001515821515036124a5576040517f08c379a000000000000000000000000000000000000000000000000000000000815260040161249c906149a1565b60405180910390fd5b80806124b090613be6565b9150506121d6565b506000600160009054906101000a900473ffffffffffffffffffffffffffffffffffffffff1673ffffffffffffffffffffffffffffffffffffffff1663de508c5b338a6040518363ffffffff1660e01b81526004016125189291906149c1565b600060405180830381865afa158015612535573d6000803e3d6000fd5b505050506040513d6000823e3d601f19601f8201168201806040525081019061255e91906149ea565b909192939450909192935090919250909150905080915050600080600090505b87518110156125c65787818151811061259a57612599613b88565b5b602002602001015160000151826125b1919061460a565b915080806125be90613be6565b91505061257e565b50606481111561260b576040517f08c379a000000000000000000000000000000000000000000000000000000000815260040161260290614b05565b60405180910390fd5b816126ad57600160009054906101000a900473ffffffffffffffffffffffffffffffffffffffff1673ffffffffffffffffffffffffffffffffffffffff166325cb763a338b8b600080876040518763ffffffff1660e01b815260040161267696959493929190614b25565b600060405180830381600087803b15801561269057600080fd5b505af11580156126a4573d6000803e3d6000fd5b505050506128a1565b6000600560009054906101000a900473ffffffffffffffffffffffffffffffffffffffff1690506003548173ffffffffffffffffffffffffffffffffffffffff1663dd62ed3e33306040518363ffffffff1660e01b81526004016127129291906149c1565b602060405180830381865afa15801561272f573d6000803e3d6000fd5b505050506040513d601f19601f820116820180604052508101906127539190613f7b565b1015612794576040517f08c379a000000000000000000000000000000000000000000000000000000000815260040161278b90614bd9565b60405180910390fd5b8073ffffffffffffffffffffffffffffffffffffffff166323b872dd33306003546040518463ffffffff1660e01b81526004016127d39392919061407e565b6020604051808303816000875af11580156127f2573d6000803e3d6000fd5b505050506040513d601f19601f820116820180604052508101906128169190613aef565b50600660003373ffffffffffffffffffffffffffffffffffffffff1673ffffffffffffffffffffffffffffffffffffffff16815260200190815260200160002060008b73ffffffffffffffffffffffffffffffffffffffff1673ffffffffffffffffffffffffffffffffffffffff168152602001908152602001600020600061289f9190612d54565b505b600160009054906101000a900473ffffffffffffffffffffffffffffffffffffffff1673ffffffffffffffffffffffffffffffffffffffff1663b69bd77f338b60008560006040518663ffffffff1660e01b8152600401612906959493929190614bf9565b600060405180830381600087803b15801561292057600080fd5b505af1158015612934573d6000803e3d6000fd5b5050505060005b8751811015612b0457600660003373ffffffffffffffffffffffffffffffffffffffff1673ffffffffffffffffffffffffffffffffffffffff16815260200190815260200160002060008b73ffffffffffffffffffffffffffffffffffffffff1673ffffffffffffffffffffffffffffffffffffffff1681526020019081526020016000208882815181106129d3576129d2613b88565b5b602002602001015190806001815401808255809150506001900390600052602060002090600602016000909190919091506000820151816000015560208201518160010160006101000a81548173ffffffffffffffffffffffffffffffffffffffff021916908373ffffffffffffffffffffffffffffffffffffffff16021790555060408201518160020160006101000a81548173ffffffffffffffffffffffffffffffffffffffff021916908373ffffffffffffffffffffffffffffffffffffffff1602179055506060820151816003019080519060200190612ab8929190612d78565b5060808201518160040160006101000a81548160ff02191690831515021790555060a0820151816005019081612aee9190613e94565b5050508080612afc90613be6565b91505061293b565b503373ffffffffffffffffffffffffffffffffffffffff167f44af4c3f944a37de661060503a3fe11224a363d80955118db6b110433a234cdb8a6000604051612b4e929190614c4c565b60405180910390a2505050505050505050565b612b69612c0a565b600073ffffffffffffffffffffffffffffffffffffffff168173ffffffffffffffffffffffffffffffffffffffff1603612bd8576040517f08c379a0000000000000000000000000000000000000000000000000000000008152600401612bcf90614ce7565b60405180910390fd5b612be181612c88565b50565b600260009054906101000a900473ffffffffffffffffffffffffffffffffffffffff1681565b612c12612d4c565b73ffffffffffffffffffffffffffffffffffffffff16612c30611177565b73ffffffffffffffffffffffffffffffffffffffff1614612c86576040517f08c379a0000000000000000000000000000000000000000000000000000000008152600401612c7d90614d53565b60405180910390fd5b565b60008060009054906101000a900473ffffffffffffffffffffffffffffffffffffffff169050816000806101000a81548173ffffffffffffffffffffffffffffffffffffffff021916908373ffffffffffffffffffffffffffffffffffffffff1602179055508173ffffffffffffffffffffffffffffffffffffffff168173ffffffffffffffffffffffffffffffffffffffff167f8be0079c531659141344cd1fd0a4f28419497f9722a3daafe3b4186f6b6457e060405160405180910390a35050565b600033905090565b5080546000825560060290600052602060002090810190612d759190612e02565b50565b828054828255906000526020600020908101928215612df1579160200282015b82811115612df05782518260006101000a81548173ffffffffffffffffffffffffffffffffffffffff021916908373ffffffffffffffffffffffffffffffffffffffff16021790555091602001919060010190612d98565b5b509050612dfe9190612ea3565b5090565b5b80821115612e9f576000808201600090556001820160006101000a81549073ffffffffffffffffffffffffffffffffffffffff02191690556002820160006101000a81549073ffffffffffffffffffffffffffffffffffffffff0219169055600382016000612e729190612ec0565b6004820160006101000a81549060ff0219169055600582016000612e969190612ee1565b50600601612e03565b5090565b5b80821115612ebc576000816000905550600101612ea4565b5090565b5080546000825590600052602060002090810190612ede9190612ea3565b50565b508054612eed90613cc1565b6000825580601f10612eff5750612f1e565b601f016020900490600052602060002090810190612f1d9190612ea3565b5b50565b6000604051905090565b600080fd5b600080fd5b600073ffffffffffffffffffffffffffffffffffffffff82169050919050565b6000612f6082612f35565b9050919050565b612f7081612f55565b8114612f7b57600080fd5b50565b600081359050612f8d81612f67565b92915050565b60008060408385031215612faa57612fa9612f2b565b5b6000612fb885828601612f7e565b9250506020612fc985828601612f7e565b9150509250929050565b60008115159050919050565b612fe881612fd3565b82525050565b60006020820190506130036000830184612fdf565b92915050565b600080fd5b600080fd5b6000601f19601f8301169050919050565b7f4e487b7100000000000000000000000000000000000000000000000000000000600052604160045260246000fd5b61305c82613013565b810181811067ffffffffffffffff8211171561307b5761307a613024565b5b80604052505050565b600061308e612f21565b905061309a8282613053565b919050565b600067ffffffffffffffff8211156130ba576130b9613024565b5b6130c382613013565b9050602081019050919050565b82818337600083830152505050565b60006130f26130ed8461309f565b613084565b90508281526020810184848401111561310e5761310d61300e565b5b6131198482856130d0565b509392505050565b600082601f83011261313657613135613009565b5b81356131468482602086016130df565b91505092915050565b6000819050919050565b6131628161314f565b811461316d57600080fd5b50565b60008135905061317f81613159565b92915050565b6000806000806080858703121561319f5761319e612f2b565b5b60006131ad87828801612f7e565b94505060206131be87828801612f7e565b935050604085013567ffffffffffffffff8111156131df576131de612f30565b5b6131eb87828801613121565b92505060606131fc87828801613170565b91505092959194509250565b61321181612f55565b82525050565b600060208201905061322c6000830184613208565b92915050565b60008060006060848603121561324b5761324a612f2b565b5b600061325986828701612f7e565b935050602061326a86828701612f7e565b925050604061327b86828701613170565b9150509250925092565b6000806040838503121561329c5761329b612f2b565b5b60006132aa85828601613170565b92505060206132bb85828601612f7e565b9150509250929050565b6132ce8161314f565b82525050565b60006020820190506132e960008301846132c5565b92915050565b600081519050919050565b600082825260208201905092915050565b6000819050602082019050919050565b6133248161314f565b82525050565b61333381612f55565b82525050565b600081519050919050565b600082825260208201905092915050565b6000819050602082019050919050565b6000613371838361332a565b60208301905092915050565b6000602082019050919050565b600061339582613339565b61339f8185613344565b93506133aa83613355565b8060005b838110156133db5781516133c28882613365565b97506133cd8361337d565b9250506001810190506133ae565b5085935050505092915050565b6133f181612fd3565b82525050565b600081519050919050565b600082825260208201905092915050565b60005b83811015613431578082015181840152602081019050613416565b60008484015250505050565b6000613448826133f7565b6134528185613402565b9350613462818560208601613413565b61346b81613013565b840191505092915050565b600060c08301600083015161348e600086018261331b565b5060208301516134a1602086018261332a565b5060408301516134b4604086018261332a565b50606083015184820360608601526134cc828261338a565b91505060808301516134e160808601826133e8565b5060a083015184820360a08601526134f9828261343d565b9150508091505092915050565b60006135128383613476565b905092915050565b6000602082019050919050565b6000613532826132ef565b61353c81856132fa565b93508360208202850161354e8561330b565b8060005b8581101561358a578484038952815161356b8582613506565b94506135768361351a565b925060208a01995050600181019050613552565b50829750879550505050505092915050565b600060208201905081810360008301526135b68184613527565b905092915050565b6000819050919050565b60006135e36135de6135d984612f35565b6135be565b612f35565b9050919050565b60006135f5826135c8565b9050919050565b6000613607826135ea565b9050919050565b613617816135fc565b82525050565b6000602082019050613632600083018461360e565b92915050565b600082825260208201905092915050565b6000613654826133f7565b61365e8185613638565b935061366e818560208601613413565b61367781613013565b840191505092915050565b600060a08201905061369760008301886132c5565b6136a46020830187613208565b6136b16040830186613208565b6136be6060830185612fdf565b81810360808301526136d08184613649565b90509695505050505050565b6000806000606084860312156136f5576136f4612f2b565b5b600061370386828701612f7e565b935050602061371486828701613170565b925050604061372586828701613170565b9150509250925092565b600067ffffffffffffffff82111561374a57613749613024565b5b602082029050602081019050919050565b600080fd5b600080fd5b600080fd5b600067ffffffffffffffff82111561378557613784613024565b5b602082029050602081019050919050565b60006137a96137a48461376a565b613084565b905080838252602082019050602084028301858111156137cc576137cb61375b565b5b835b818110156137f557806137e18882612f7e565b8452602084019350506020810190506137ce565b5050509392505050565b600082601f83011261381457613813613009565b5b8135613824848260208601613796565b91505092915050565b61383681612fd3565b811461384157600080fd5b50565b6000813590506138538161382d565b92915050565b600060c0828403121561386f5761386e613760565b5b61387960c0613084565b9050600061388984828501613170565b600083015250602061389d84828501612f7e565b60208301525060406138b184828501612f7e565b604083015250606082013567ffffffffffffffff8111156138d5576138d4613765565b5b6138e1848285016137ff565b60608301525060806138f584828501613844565b60808301525060a082013567ffffffffffffffff81111561391957613918613765565b5b61392584828501613121565b60a08301525092915050565b600061394461393f8461372f565b613084565b905080838252602082019050602084028301858111156139675761396661375b565b5b835b818110156139ae57803567ffffffffffffffff81111561398c5761398b613009565b5b8086016139998982613859565b85526020850194505050602081019050613969565b5050509392505050565b600082601f8301126139cd576139cc613009565b5b81356139dd848260208601613931565b91505092915050565b6000806000606084860312156139ff576139fe612f2b565b5b6000613a0d86828701612f7e565b935050602084013567ffffffffffffffff811115613a2e57613a2d612f30565b5b613a3a86828701613121565b925050604084013567ffffffffffffffff811115613a5b57613a5a612f30565b5b613a67868287016139b8565b9150509250925092565b600060208284031215613a8757613a86612f2b565b5b6000613a9584828501612f7e565b91505092915050565b6000613aa9826135ea565b9050919050565b613ab981613a9e565b82525050565b6000602082019050613ad46000830184613ab0565b92915050565b600081519050613ae98161382d565b92915050565b600060208284031215613b0557613b04612f2b565b5b6000613b1384828501613ada565b91505092915050565b7f636c61696d206973206e6f7420616c6c6f7765642e0000000000000000000000600082015250565b6000613b52601583613638565b9150613b5d82613b1c565b602082019050919050565b60006020820190508181036000830152613b8181613b45565b9050919050565b7f4e487b7100000000000000000000000000000000000000000000000000000000600052603260045260246000fd5b7f4e487b7100000000000000000000000000000000000000000000000000000000600052601160045260246000fd5b6000613bf18261314f565b91507fffffffffffffffffffffffffffffffffffffffffffffffffffffffffffffffff8203613c2357613c22613bb7565b5b600182019050919050565b6000819050919050565b6000613c53613c4e613c4984613c2e565b6135be565b61314f565b9050919050565b613c6381613c38565b82525050565b6000604082019050613c7e60008301856132c5565b613c8b6020830184613c5a565b9392505050565b7f4e487b7100000000000000000000000000000000000000000000000000000000600052602260045260246000fd5b60006002820490506001821680613cd957607f821691505b602082108103613cec57613ceb613c92565b5b50919050565b60008190508160005260206000209050919050565b60006020601f8301049050919050565b600082821b905092915050565b600060088302613d547fffffffffffffffffffffffffffffffffffffffffffffffffffffffffffffffff82613d17565b613d5e8683613d17565b95508019841693508086168417925050509392505050565b6000613d91613d8c613d878461314f565b6135be565b61314f565b9050919050565b6000819050919050565b613dab83613d76565b613dbf613db782613d98565b848454613d24565b825550505050565b600090565b613dd4613dc7565b613ddf818484613da2565b505050565b5b81811015613e0357613df8600082613dcc565b600181019050613de5565b5050565b601f821115613e4857613e1981613cf2565b613e2284613d07565b81016020851015613e31578190505b613e45613e3d85613d07565b830182613de4565b50505b505050565b600082821c905092915050565b6000613e6b60001984600802613e4d565b1980831691505092915050565b6000613e848383613e5a565b9150826002028217905092915050565b613e9d826133f7565b67ffffffffffffffff811115613eb657613eb5613024565b5b613ec08254613cc1565b613ecb828285613e07565b600060209050601f831160018114613efe5760008415613eec578287015190505b613ef68582613e78565b865550613f5e565b601f198416613f0c86613cf2565b60005b82811015613f3457848901518255600182019150602085019450602081019050613f0f565b86831015613f515784890151613f4d601f891682613e5a565b8355505b6001600288020188555050505b505050505050565b600081519050613f7581613159565b92915050565b600060208284031215613f9157613f90612f2b565b5b6000613f9f84828501613f66565b91505092915050565b6000613fb38261314f565b9150613fbe8361314f565b9250828202613fcc8161314f565b91508282048414831517613fe357613fe2613bb7565b5b5092915050565b7f4e487b7100000000000000000000000000000000000000000000000000000000600052601260045260246000fd5b60006140248261314f565b915061402f8361314f565b92508261403f5761403e613fea565b5b828204905092915050565b60006140558261314f565b91506140608361314f565b925082820390508181111561407857614077613bb7565b5b92915050565b60006060820190506140936000830186613208565b6140a06020830185613208565b6140ad60408301846132c5565b949350505050565b60006140c86140c38461309f565b613084565b9050828152602081018484840111156140e4576140e361300e565b5b6140ef848285613413565b509392505050565b600082601f83011261410c5761410b613009565b5b815161411c8482602086016140b5565b91505092915050565b60008151905061413481612f67565b92915050565b600061414d6141488461376a565b613084565b905080838252602082019050602084028301858111156141705761416f61375b565b5b835b8181101561419957806141858882614125565b845260208401935050602081019050614172565b5050509392505050565b600082601f8301126141b8576141b7613009565b5b81516141c884826020860161413a565b91505092915050565b600067ffffffffffffffff8211156141ec576141eb613024565b5b602082029050602081019050919050565b600061421061420b846141d1565b613084565b905080838252602082019050602084028301858111156142335761423261375b565b5b835b8181101561425c57806142488882613f66565b845260208401935050602081019050614235565b5050509392505050565b600082601f83011261427b5761427a613009565b5b815161428b8482602086016141fd565b91505092915050565b60006101a082840312156142ab576142aa613760565b5b6142b66101a0613084565b9050600082015167ffffffffffffffff8111156142d6576142d5613765565b5b6142e2848285016140f7565b600083015250602082015167ffffffffffffffff81111561430657614305613765565b5b614312848285016140f7565b602083015250604082015167ffffffffffffffff81111561433657614335613765565b5b614342848285016140f7565b604083015250606082015167ffffffffffffffff81111561436657614365613765565b5b614372848285016140f7565b606083015250608061438684828501613ada565b60808301525060a061439a84828501613ada565b60a08301525060c06143ae84828501613ada565b60c08301525060e06143c284828501614125565b60e08301525061010082015167ffffffffffffffff8111156143e7576143e6613765565b5b6143f3848285016141a3565b6101008301525061012082015167ffffffffffffffff81111561441957614418613765565b5b61442584828501614266565b6101208301525061014061443b84828501613f66565b6101408301525061016061445184828501613f66565b6101608301525061018061446784828501613f66565b6101808301525092915050565b60006020828403121561448a57614489612f2b565b5b600082015167ffffffffffffffff8111156144a8576144a7612f30565b5b6144b484828501614294565b91505092915050565b7f546865207265636f766572792061646472657373206f72206f776e657220616460008201527f647265737320697320696e636f72726563742100000000000000000000000000602082015250565b6000614519603383613638565b9150614524826144bd565b604082019050919050565b600060208201905081810360008301526145488161450c565b9050919050565b7f596f7572206173736574732061726520616c726561647920636c61696d65642060008201527f627920746865206e6f6d696e65652e0000000000000000000000000000000000602082015250565b60006145ab602f83613638565b91506145b68261454f565b604082019050919050565b600060208201905081810360008301526145da8161459e565b9050919050565b60006040820190506145f66000830185613208565b61460360208301846132c5565b9392505050565b60006146158261314f565b91506146208361314f565b925082820190508082111561463857614637613bb7565b5b92915050565b7f596f75206d757374206669727374207369676e20757020666f7220616e20616360008201527f636f756e742e0000000000000000000000000000000000000000000000000000602082015250565b600061469a602683613638565b91506146a58261463e565b604082019050919050565b600060208201905081810360008301526146c98161468d565b9050919050565b7f596f757220656d61696c20686173206e6f7420796574206265656e2076616c6960008201527f64617465642e0000000000000000000000000000000000000000000000000000602082015250565b600061472c602683613638565b9150614737826146d0565b604082019050919050565b6000602082019050818103600083015261475b8161471f565b9050919050565b60006020828403121561477857614777612f2b565b5b600082015167ffffffffffffffff81111561479657614795612f30565b5b6147a2848285016141a3565b91505092915050565b6000602082840312156147c1576147c0612f2b565b5b600082015167ffffffffffffffff8111156147df576147de612f30565b5b6147eb84828501614266565b91505092915050565b7f4f6f707321206e6f6d696e656573206973206e6f742061646465642100000000600082015250565b600061482a601c83613638565b9150614835826147f4565b602082019050919050565b600060208201905081810360008301526148598161481d565b9050919050565b600080600080600060a0868803121561487c5761487b612f2b565b5b600061488a88828901613f66565b955050602061489b88828901614125565b945050604086015167ffffffffffffffff8111156148bc576148bb612f30565b5b6148c8888289016140f7565b935050606086015167ffffffffffffffff8111156148e9576148e8612f30565b5b6148f5888289016140f7565b925050608086015167ffffffffffffffff81111561491657614915612f30565b5b614922888289016140f7565b9150509295509295909350565b7f4f6f7073212063686172697479206973206e6f742077686974652d6c6973746560008201527f642e000000000000000000000000000000000000000000000000000000000000602082015250565b600061498b602283613638565b91506149968261492f565b604082019050919050565b600060208201905081810360008301526149ba8161497e565b9050919050565b60006040820190506149d66000830185613208565b6149e36020830184613208565b9392505050565b60008060008060008060c08789031215614a0757614a06612f2b565b5b6000614a1589828a01614125565b965050602087015167ffffffffffffffff811115614a3657614a35612f30565b5b614a4289828a016140f7565b9550506040614a5389828a01613f66565b9450506060614a6489828a01613f66565b9350506080614a7589828a01613f66565b92505060a0614a8689828a01613ada565b9150509295509295509295565b7f4f6f70732120596f752063616e206f6e6c7920616c6c6f63617465206120313060008201527f30252073686172652e0000000000000000000000000000000000000000000000602082015250565b6000614aef602983613638565b9150614afa82614a93565b604082019050919050565b60006020820190508181036000830152614b1e81614ae2565b9050919050565b600060c082019050614b3a6000830189613208565b614b476020830188613208565b8181036040830152614b598187613649565b9050614b686060830186613c5a565b614b756080830185613c5a565b614b8260a08301846132c5565b979650505050505050565b7f616c6c6f77616e6365206973206e6f7420656e6f756768210000000000000000600082015250565b6000614bc3601883613638565b9150614bce82614b8d565b602082019050919050565b60006020820190508181036000830152614bf281614bb6565b9050919050565b600060a082019050614c0e6000830188613208565b614c1b6020830187613208565b614c286040830186613c5a565b614c3560608301856132c5565b614c426080830184613c5a565b9695505050505050565b6000604082019050614c616000830185613208565b614c6e6020830184613c5a565b9392505050565b7f4f776e61626c653a206e6577206f776e657220697320746865207a65726f206160008201527f6464726573730000000000000000000000000000000000000000000000000000602082015250565b6000614cd1602683613638565b9150614cdc82614c75565b604082019050919050565b60006020820190508181036000830152614d0081614cc4565b9050919050565b7f4f776e61626c653a2063616c6c6572206973206e6f7420746865206f776e6572600082015250565b6000614d3d602083613638565b9150614d4882614d07565b602082019050919050565b60006020820190508181036000830152614d6c81614d30565b905091905056fea2646970667358221220b2a85cfe3acc2c14fd9192468b49bf9075276fa920d61715c8fdc12964f9861064736f6c63430008110033",
  "linkReferences": {},
  "deployedLinkReferences": {}
}