{
  "_format": "hh-sol-artifact-1",
  "contractName": "PriorityNominee",
  "sourceName": "contracts/PriorityNominee.sol",
  "abi": [
    {
      "inputs": [
        {
          "internalType": "address",
          "name": "_owner",
          "type": "address"
        },
        {
          "internalType": "address[]",
          "name": "_nominee",
          "type": "address[]"
        },
        {
          "internalType": "address",
          "name": "_tokenAddress",
          "type": "address"
        },
        {
          "internalType": "string",
          "name": "_tokenName",
          "type": "string"
        },
        {
          "internalType": "uint256[]",
          "name": "_rank",
          "type": "uint256[]"
        },
        {
          "internalType": "bool",
          "name": "_isMultipleNominee",
          "type": "bool"
        },
        {
          "internalType": "bool",
          "name": "_isPriorityNominee",
          "type": "bool"
        }
      ],
      "name": "assignedTokensToPriorityNominee",
      "outputs": [],
      "stateMutability": "nonpayable",
      "type": "function"
    },
    {
      "inputs": [
        {
          "internalType": "address",
          "name": "_owner",
          "type": "address"
        },
        {
          "internalType": "address[]",
          "name": "_nominee",
          "type": "address[]"
        },
        {
          "internalType": "address",
          "name": "_tokenAddress",
          "type": "address"
        },
        {
          "internalType": "uint256[]",
          "name": "_rank",
          "type": "uint256[]"
        },
        {
          "internalType": "bool",
          "name": "_isPriorityNominee",
          "type": "bool"
        }
      ],
      "name": "editAssignedTokensToPriorityNominees",
      "outputs": [],
      "stateMutability": "nonpayable",
      "type": "function"
    },
    {
      "inputs": [
        {
          "internalType": "address",
          "name": "_owner",
          "type": "address"
        },
        {
          "internalType": "address",
          "name": "_tokenAddress",
          "type": "address"
        }
      ],
      "name": "getOwnerToTokenAddressToPriorityArray",
      "outputs": [
        {
          "components": [
            {
              "internalType": "address",
              "name": "nominee",
              "type": "address"
            },
            {
              "internalType": "uint256",
              "name": "rank",
              "type": "uint256"
            }
          ],
          "internalType": "struct PriorityNominee.Priority[]",
          "name": "",
          "type": "tuple[]"
        }
      ],
      "stateMutability": "view",
      "type": "function"
    },
    {
      "inputs": [
        {
          "internalType": "address",
          "name": "",
          "type": "address"
        },
        {
          "internalType": "address",
          "name": "",
          "type": "address"
        },
        {
          "internalType": "uint256",
          "name": "",
          "type": "uint256"
        }
      ],
      "name": "ownerToTokenToPriorityStruct",
      "outputs": [
        {
          "internalType": "address",
          "name": "nominee",
          "type": "address"
        },
        {
          "internalType": "uint256",
          "name": "rank",
          "type": "uint256"
        }
      ],
      "stateMutability": "view",
      "type": "function"
    }
  ],
  "bytecode": "0x608060405273d8b934580fce35a11b58c6d73adee468a2833fa86000806101000a81548173ffffffffffffffffffffffffffffffffffffffff021916908373ffffffffffffffffffffffffffffffffffffffff16021790555034801561006457600080fd5b50611979806100746000396000f3fe608060405234801561001057600080fd5b506004361061004c5760003560e01c80633c885d0414610051578063782c6b1e1461006d578063b8c0d1a11461009e578063f4808cd0146100ce575b600080fd5b61006b60048036038101906100669190611062565b6100ea565b005b61008760048036038101906100829190611158565b610493565b6040516100959291906111c9565b60405180910390f35b6100b860048036038101906100b391906111f2565b610501565b6040516100c5919061132e565b60405180910390f35b6100e860048036038101906100e39190611350565b61063d565b005b60008060008054906101000a900473ffffffffffffffffffffffffffffffffffffffff1673ffffffffffffffffffffffffffffffffffffffff16639979d30e886040518263ffffffff1660e01b81526004016101469190611403565b600060405180830381865afa158015610163573d6000803e3d6000fd5b505050506040513d6000823e3d601f19601f8201168201806040525081019061018c91906114f7565b90919293945090919293509091509050809350819250505081156101e5576040517f08c379a00000000000000000000000000000000000000000000000000000000081526004016101dc906115fd565b60405180910390fd5b6000805b8951811015610486578361028b5760008054906101000a900473ffffffffffffffffffffffffffffffffffffffff1673ffffffffffffffffffffffffffffffffffffffff1663a1d5a9988a8a858a8a6040518663ffffffff1660e01b8152600401610258959493929190611670565b600060405180830381600087803b15801561027257600080fd5b505af1158015610286573d6000803e3d6000fd5b505050505b600160008c73ffffffffffffffffffffffffffffffffffffffff1673ffffffffffffffffffffffffffffffffffffffff16815260200190815260200160002060008a73ffffffffffffffffffffffffffffffffffffffff1673ffffffffffffffffffffffffffffffffffffffff16815260200190815260200160002060405180604001604052808c8481518110610325576103246116ca565b5b602002602001015173ffffffffffffffffffffffffffffffffffffffff16815260200189848151811061035b5761035a6116ca565b5b6020026020010151815250908060018154018082558091505060019003906000526020600020906002020160009091909190915060008201518160000160006101000a81548173ffffffffffffffffffffffffffffffffffffffff021916908373ffffffffffffffffffffffffffffffffffffffff16021790555060208201518160010155505060008054906101000a900473ffffffffffffffffffffffffffffffffffffffff1673ffffffffffffffffffffffffffffffffffffffff16630a5078258c8b8d856040518563ffffffff1660e01b815260040161044194939291906117a8565b600060405180830381600087803b15801561045b57600080fd5b505af115801561046f573d6000803e3d6000fd5b50505050808061047e90611823565b9150506101e9565b5050505050505050505050565b600160205282600052604060002060205281600052604060002081815481106104bb57600080fd5b906000526020600020906002020160009250925050508060000160009054906101000a900473ffffffffffffffffffffffffffffffffffffffff16908060010154905082565b6060600160008473ffffffffffffffffffffffffffffffffffffffff1673ffffffffffffffffffffffffffffffffffffffff16815260200190815260200160002060008373ffffffffffffffffffffffffffffffffffffffff1673ffffffffffffffffffffffffffffffffffffffff168152602001908152602001600020805480602002602001604051908101604052809291908181526020016000905b8282101561063157838290600052602060002090600202016040518060400160405290816000820160009054906101000a900473ffffffffffffffffffffffffffffffffffffffff1673ffffffffffffffffffffffffffffffffffffffff1673ffffffffffffffffffffffffffffffffffffffff1681526020016001820154815250508152602001906001019061059f565b50505050905092915050565b60008060008054906101000a900473ffffffffffffffffffffffffffffffffffffffff1673ffffffffffffffffffffffffffffffffffffffff16639979d30e866040518263ffffffff1660e01b81526004016106999190611403565b600060405180830381865afa1580156106b6573d6000803e3d6000fd5b505050506040513d6000823e3d601f19601f820116820180604052508101906106df91906114f7565b90919293945090919293509091509050809350819250505082610737576040517f08c379a000000000000000000000000000000000000000000000000000000000815260040161072e906118b7565b60405180910390fd5b81610777576040517f08c379a000000000000000000000000000000000000000000000000000000000815260040161076e90611923565b60405180910390fd5b600080600090505b8751811015610ca65760005b600160008b73ffffffffffffffffffffffffffffffffffffffff1673ffffffffffffffffffffffffffffffffffffffff16815260200190815260200160002060008973ffffffffffffffffffffffffffffffffffffffff1673ffffffffffffffffffffffffffffffffffffffff16815260200190815260200160002080549050811015610a9d57888281518110610825576108246116ca565b5b602002602001015173ffffffffffffffffffffffffffffffffffffffff16600160008c73ffffffffffffffffffffffffffffffffffffffff1673ffffffffffffffffffffffffffffffffffffffff16815260200190815260200160002060008a73ffffffffffffffffffffffffffffffffffffffff1673ffffffffffffffffffffffffffffffffffffffff16815260200190815260200160002082815481106108d1576108d06116ca565b5b906000526020600020906002020160000160009054906101000a900473ffffffffffffffffffffffffffffffffffffffff1673ffffffffffffffffffffffffffffffffffffffff16036109e557868281518110610931576109306116ca565b5b6020026020010151600160008c73ffffffffffffffffffffffffffffffffffffffff1673ffffffffffffffffffffffffffffffffffffffff16815260200190815260200160002060008a73ffffffffffffffffffffffffffffffffffffffff1673ffffffffffffffffffffffffffffffffffffffff16815260200190815260200160002082815481106109c7576109c66116ca565b5b90600052602060002090600202016001018190555060019250610a9d565b6000600160008c73ffffffffffffffffffffffffffffffffffffffff1673ffffffffffffffffffffffffffffffffffffffff16815260200190815260200160002060008a73ffffffffffffffffffffffffffffffffffffffff1673ffffffffffffffffffffffffffffffffffffffff1681526020019081526020016000208281548110610a7557610a746116ca565b5b9060005260206000209060020201600101819055508080610a9590611823565b91505061078b565b506000151582151503610c9357600160008a73ffffffffffffffffffffffffffffffffffffffff1673ffffffffffffffffffffffffffffffffffffffff16815260200190815260200160002060008873ffffffffffffffffffffffffffffffffffffffff1673ffffffffffffffffffffffffffffffffffffffff16815260200190815260200160002060405180604001604052808a8481518110610b4457610b436116ca565b5b602002602001015173ffffffffffffffffffffffffffffffffffffffff168152602001888481518110610b7a57610b796116ca565b5b6020026020010151815250908060018154018082558091505060019003906000526020600020906002020160009091909190915060008201518160000160006101000a81548173ffffffffffffffffffffffffffffffffffffffff021916908373ffffffffffffffffffffffffffffffffffffffff16021790555060208201518160010155505060008054906101000a900473ffffffffffffffffffffffffffffffffffffffff1673ffffffffffffffffffffffffffffffffffffffff16630a5078258a898b856040518563ffffffff1660e01b8152600401610c6094939291906117a8565b600060405180830381600087803b158015610c7a57600080fd5b505af1158015610c8e573d6000803e3d6000fd5b505050505b8080610c9e90611823565b91505061077f565b505050505050505050565b6000604051905090565b600080fd5b600080fd5b600073ffffffffffffffffffffffffffffffffffffffff82169050919050565b6000610cf082610cc5565b9050919050565b610d0081610ce5565b8114610d0b57600080fd5b50565b600081359050610d1d81610cf7565b92915050565b600080fd5b6000601f19601f8301169050919050565b7f4e487b7100000000000000000000000000000000000000000000000000000000600052604160045260246000fd5b610d7182610d28565b810181811067ffffffffffffffff82111715610d9057610d8f610d39565b5b80604052505050565b6000610da3610cb1565b9050610daf8282610d68565b919050565b600067ffffffffffffffff821115610dcf57610dce610d39565b5b602082029050602081019050919050565b600080fd5b6000610df8610df384610db4565b610d99565b90508083825260208201905060208402830185811115610e1b57610e1a610de0565b5b835b81811015610e445780610e308882610d0e565b845260208401935050602081019050610e1d565b5050509392505050565b600082601f830112610e6357610e62610d23565b5b8135610e73848260208601610de5565b91505092915050565b600080fd5b600067ffffffffffffffff821115610e9c57610e9b610d39565b5b610ea582610d28565b9050602081019050919050565b82818337600083830152505050565b6000610ed4610ecf84610e81565b610d99565b905082815260208101848484011115610ef057610eef610e7c565b5b610efb848285610eb2565b509392505050565b600082601f830112610f1857610f17610d23565b5b8135610f28848260208601610ec1565b91505092915050565b600067ffffffffffffffff821115610f4c57610f4b610d39565b5b602082029050602081019050919050565b6000819050919050565b610f7081610f5d565b8114610f7b57600080fd5b50565b600081359050610f8d81610f67565b92915050565b6000610fa6610fa184610f31565b610d99565b90508083825260208201905060208402830185811115610fc957610fc8610de0565b5b835b81811015610ff25780610fde8882610f7e565b845260208401935050602081019050610fcb565b5050509392505050565b600082601f83011261101157611010610d23565b5b8135611021848260208601610f93565b91505092915050565b60008115159050919050565b61103f8161102a565b811461104a57600080fd5b50565b60008135905061105c81611036565b92915050565b600080600080600080600060e0888a03121561108157611080610cbb565b5b600061108f8a828b01610d0e565b975050602088013567ffffffffffffffff8111156110b0576110af610cc0565b5b6110bc8a828b01610e4e565b96505060406110cd8a828b01610d0e565b955050606088013567ffffffffffffffff8111156110ee576110ed610cc0565b5b6110fa8a828b01610f03565b945050608088013567ffffffffffffffff81111561111b5761111a610cc0565b5b6111278a828b01610ffc565b93505060a06111388a828b0161104d565b92505060c06111498a828b0161104d565b91505092959891949750929550565b60008060006060848603121561117157611170610cbb565b5b600061117f86828701610d0e565b935050602061119086828701610d0e565b92505060406111a186828701610f7e565b9150509250925092565b6111b481610ce5565b82525050565b6111c381610f5d565b82525050565b60006040820190506111de60008301856111ab565b6111eb60208301846111ba565b9392505050565b6000806040838503121561120957611208610cbb565b5b600061121785828601610d0e565b925050602061122885828601610d0e565b9150509250929050565b600081519050919050565b600082825260208201905092915050565b6000819050602082019050919050565b61126781610ce5565b82525050565b61127681610f5d565b82525050565b604082016000820151611292600085018261125e565b5060208201516112a5602085018261126d565b50505050565b60006112b7838361127c565b60408301905092915050565b6000602082019050919050565b60006112db82611232565b6112e5818561123d565b93506112f08361124e565b8060005b8381101561132157815161130888826112ab565b9750611313836112c3565b9250506001810190506112f4565b5085935050505092915050565b6000602082019050818103600083015261134881846112d0565b905092915050565b600080600080600060a0868803121561136c5761136b610cbb565b5b600061137a88828901610d0e565b955050602086013567ffffffffffffffff81111561139b5761139a610cc0565b5b6113a788828901610e4e565b94505060406113b888828901610d0e565b935050606086013567ffffffffffffffff8111156113d9576113d8610cc0565b5b6113e588828901610ffc565b92505060806113f68882890161104d565b9150509295509295909350565b600060208201905061141860008301846111ab565b92915050565b60008151905061142d81610cf7565b92915050565b60005b83811015611451578082015181840152602081019050611436565b60008484015250505050565b600061147061146b84610e81565b610d99565b90508281526020810184848401111561148c5761148b610e7c565b5b611497848285611433565b509392505050565b600082601f8301126114b4576114b3610d23565b5b81516114c484826020860161145d565b91505092915050565b6000815190506114dc81610f67565b92915050565b6000815190506114f181611036565b92915050565b60008060008060008060c0878903121561151457611513610cbb565b5b600061152289828a0161141e565b965050602087015167ffffffffffffffff81111561154357611542610cc0565b5b61154f89828a0161149f565b955050604061156089828a016114cd565b945050606061157189828a016114e2565b935050608061158289828a016114e2565b92505060a061159389828a016114e2565b9150509295509295509295565b600082825260208201905092915050565b7f416c726561647920746f6b656e206973206e6f6d696e61746564000000000000600082015250565b60006115e7601a836115a0565b91506115f2826115b1565b602082019050919050565b60006020820190508181036000830152611616816115da565b9050919050565b600081519050919050565b60006116338261161d565b61163d81856115a0565b935061164d818560208601611433565b61165681610d28565b840191505092915050565b61166a8161102a565b82525050565b600060a08201905061168560008301886111ab565b81810360208301526116978187611628565b90506116a660408301866111ba565b6116b36060830185611661565b6116c06080830184611661565b9695505050505050565b7f4e487b7100000000000000000000000000000000000000000000000000000000600052603260045260246000fd5b600081519050919050565b600082825260208201905092915050565b6000819050602082019050919050565b6000611731838361125e565b60208301905092915050565b6000602082019050919050565b6000611755826116f9565b61175f8185611704565b935061176a83611715565b8060005b8381101561179b5781516117828882611725565b975061178d8361173d565b92505060018101905061176e565b5085935050505092915050565b60006080820190506117bd60008301876111ab565b6117ca60208301866111ab565b81810360408301526117dc818561174a565b90506117eb60608301846111ba565b95945050505050565b7f4e487b7100000000000000000000000000000000000000000000000000000000600052601160045260246000fd5b600061182e82610f5d565b91507fffffffffffffffffffffffffffffffffffffffffffffffffffffffffffffffff82036118605761185f6117f4565b5b600182019050919050565b7f4974206973206f6e6c7920666f72207072696f72697479206e6f6d696e656500600082015250565b60006118a1601f836115a0565b91506118ac8261186b565b602082019050919050565b600060208201905081810360008301526118d081611894565b9050919050565b7f4669727374206e6f6d696e617465207468652041737365742100000000000000600082015250565b600061190d6019836115a0565b9150611918826118d7565b602082019050919050565b6000602082019050818103600083015261193c81611900565b905091905056fea2646970667358221220844bf7531dfb5ffb58b79260c0f6739c858682e35e3c35a13631c618bbca149f64736f6c63430008110033",
  "linkReferences": {},
  "deployedLinkReferences": {}
}