{
  "_format": "hh-sol-artifact-1",
  "contractName": "PriorityNominee",
  "sourceName": "contracts/PriorityNominee.sol",
  "abi": [
    {
      "inputs": [
        {
          "internalType": "address",
          "name": "_inheritokensAddress",
          "type": "address"
        }
      ],
      "stateMutability": "nonpayable",
      "type": "constructor"
    },
    {
      "inputs": [
        {
          "internalType": "address",
          "name": "_owner",
          "type": "address"
        },
        {
          "internalType": "address[]",
          "name": "_nominee",
          "type": "address[]"
        },
        {
          "internalType": "address",
          "name": "_tokenAddress",
          "type": "address"
        },
        {
          "internalType": "string",
          "name": "_tokenName",
          "type": "string"
        },
        {
          "internalType": "uint256[]",
          "name": "_rank",
          "type": "uint256[]"
        },
        {
          "internalType": "bool",
          "name": "_isMultipleNominee",
          "type": "bool"
        },
        {
          "internalType": "bool",
          "name": "_isPriorityNominee",
          "type": "bool"
        }
      ],
      "name": "assignedTokensToPriorityNominee",
      "outputs": [],
      "stateMutability": "nonpayable",
      "type": "function"
    },
    {
      "inputs": [
        {
          "internalType": "address",
          "name": "_owner",
          "type": "address"
        },
        {
          "internalType": "address[]",
          "name": "_nominee",
          "type": "address[]"
        },
        {
          "internalType": "address",
          "name": "_tokenAddress",
          "type": "address"
        },
        {
          "internalType": "uint256[]",
          "name": "_rank",
          "type": "uint256[]"
        },
        {
          "internalType": "bool",
          "name": "_isPriorityNominee",
          "type": "bool"
        }
      ],
      "name": "editAssignedTokensToPriorityNominees",
      "outputs": [],
      "stateMutability": "nonpayable",
      "type": "function"
    },
    {
      "inputs": [
        {
          "internalType": "address",
          "name": "_owner",
          "type": "address"
        },
        {
          "internalType": "address",
          "name": "_tokenAddress",
          "type": "address"
        }
      ],
      "name": "getOwnerToTokenAddressToPriorityArray",
      "outputs": [
        {
          "components": [
            {
              "internalType": "address",
              "name": "nominee",
              "type": "address"
            },
            {
              "internalType": "uint256",
              "name": "rank",
              "type": "uint256"
            }
          ],
          "internalType": "struct PriorityNominee.Priority[]",
          "name": "",
          "type": "tuple[]"
        }
      ],
      "stateMutability": "view",
      "type": "function"
    },
    {
      "inputs": [],
      "name": "inheritokensAddress",
      "outputs": [
        {
          "internalType": "address",
          "name": "",
          "type": "address"
        }
      ],
      "stateMutability": "view",
      "type": "function"
    },
    {
      "inputs": [
        {
          "internalType": "address",
          "name": "",
          "type": "address"
        },
        {
          "internalType": "address",
          "name": "",
          "type": "address"
        },
        {
          "internalType": "uint256",
          "name": "",
          "type": "uint256"
        }
      ],
      "name": "ownerToTokenToPriorityStruct",
      "outputs": [
        {
          "internalType": "address",
          "name": "nominee",
          "type": "address"
        },
        {
          "internalType": "uint256",
          "name": "rank",
          "type": "uint256"
        }
      ],
      "stateMutability": "view",
      "type": "function"
    }
  ],
  "bytecode": "0x608060405260008054906101000a900473ffffffffffffffffffffffffffffffffffffffff16600160006101000a81548173ffffffffffffffffffffffffffffffffffffffff021916908373ffffffffffffffffffffffffffffffffffffffff1602179055503480156200007257600080fd5b5060405162001b5b38038062001b5b833981810160405281019062000098919062000149565b806000806101000a81548173ffffffffffffffffffffffffffffffffffffffff021916908373ffffffffffffffffffffffffffffffffffffffff160217905550506200017b565b600080fd5b600073ffffffffffffffffffffffffffffffffffffffff82169050919050565b60006200011182620000e4565b9050919050565b620001238162000104565b81146200012f57600080fd5b50565b600081519050620001438162000118565b92915050565b600060208284031215620001625762000161620000df565b5b6000620001728482850162000132565b91505092915050565b6119d0806200018b6000396000f3fe608060405234801561001057600080fd5b50600436106100575760003560e01c80633c885d041461005c57806346f1715214610078578063782c6b1e14610096578063b8c0d1a1146100c7578063f4808cd0146100f7575b600080fd5b610076600480360381019061007191906110b9565b610113565b005b6100806104c2565b60405161008d91906111be565b60405180910390f35b6100b060048036038101906100ab91906111d9565b6104e6565b6040516100be92919061123b565b60405180910390f35b6100e160048036038101906100dc9190611264565b610554565b6040516100ee91906113a0565b60405180910390f35b610111600480360381019061010c91906113c2565b610690565b005b600080600160009054906101000a900473ffffffffffffffffffffffffffffffffffffffff1673ffffffffffffffffffffffffffffffffffffffff16639979d30e886040518263ffffffff1660e01b815260040161017191906111be565b600060405180830381865afa15801561018e573d6000803e3d6000fd5b505050506040513d6000823e3d601f19601f820116820180604052508101906101b7919061154e565b9091929394509091929350909150905080935081925050508115610210576040517f08c379a000000000000000000000000000000000000000000000000000000000815260040161020790611654565b60405180910390fd5b6000805b89518110156104b557836102b857600160009054906101000a900473ffffffffffffffffffffffffffffffffffffffff1673ffffffffffffffffffffffffffffffffffffffff1663a1d5a9988a8a858a8a6040518663ffffffff1660e01b81526004016102859594939291906116c7565b600060405180830381600087803b15801561029f57600080fd5b505af11580156102b3573d6000803e3d6000fd5b505050505b600260008c73ffffffffffffffffffffffffffffffffffffffff1673ffffffffffffffffffffffffffffffffffffffff16815260200190815260200160002060008a73ffffffffffffffffffffffffffffffffffffffff1673ffffffffffffffffffffffffffffffffffffffff16815260200190815260200160002060405180604001604052808c848151811061035257610351611721565b5b602002602001015173ffffffffffffffffffffffffffffffffffffffff16815260200189848151811061038857610387611721565b5b6020026020010151815250908060018154018082558091505060019003906000526020600020906002020160009091909190915060008201518160000160006101000a81548173ffffffffffffffffffffffffffffffffffffffff021916908373ffffffffffffffffffffffffffffffffffffffff160217905550602082015181600101555050600160009054906101000a900473ffffffffffffffffffffffffffffffffffffffff1673ffffffffffffffffffffffffffffffffffffffff16630a5078258c8b8d856040518563ffffffff1660e01b815260040161047094939291906117ff565b600060405180830381600087803b15801561048a57600080fd5b505af115801561049e573d6000803e3d6000fd5b5050505080806104ad9061187a565b915050610214565b5050505050505050505050565b60008054906101000a900473ffffffffffffffffffffffffffffffffffffffff1681565b6002602052826000526040600020602052816000526040600020818154811061050e57600080fd5b906000526020600020906002020160009250925050508060000160009054906101000a900473ffffffffffffffffffffffffffffffffffffffff16908060010154905082565b6060600260008473ffffffffffffffffffffffffffffffffffffffff1673ffffffffffffffffffffffffffffffffffffffff16815260200190815260200160002060008373ffffffffffffffffffffffffffffffffffffffff1673ffffffffffffffffffffffffffffffffffffffff168152602001908152602001600020805480602002602001604051908101604052809291908181526020016000905b8282101561068457838290600052602060002090600202016040518060400160405290816000820160009054906101000a900473ffffffffffffffffffffffffffffffffffffffff1673ffffffffffffffffffffffffffffffffffffffff1673ffffffffffffffffffffffffffffffffffffffff168152602001600182015481525050815260200190600101906105f2565b50505050905092915050565b600080600160009054906101000a900473ffffffffffffffffffffffffffffffffffffffff1673ffffffffffffffffffffffffffffffffffffffff16639979d30e866040518263ffffffff1660e01b81526004016106ee91906111be565b600060405180830381865afa15801561070b573d6000803e3d6000fd5b505050506040513d6000823e3d601f19601f82011682018060405250810190610734919061154e565b9091929394509091929350909150905080935081925050508261078c576040517f08c379a00000000000000000000000000000000000000000000000000000000081526004016107839061190e565b60405180910390fd5b816107cc576040517f08c379a00000000000000000000000000000000000000000000000000000000081526004016107c39061197a565b60405180910390fd5b600080600090505b8751811015610cfd5760005b600260008b73ffffffffffffffffffffffffffffffffffffffff1673ffffffffffffffffffffffffffffffffffffffff16815260200190815260200160002060008973ffffffffffffffffffffffffffffffffffffffff1673ffffffffffffffffffffffffffffffffffffffff16815260200190815260200160002080549050811015610af25788828151811061087a57610879611721565b5b602002602001015173ffffffffffffffffffffffffffffffffffffffff16600260008c73ffffffffffffffffffffffffffffffffffffffff1673ffffffffffffffffffffffffffffffffffffffff16815260200190815260200160002060008a73ffffffffffffffffffffffffffffffffffffffff1673ffffffffffffffffffffffffffffffffffffffff168152602001908152602001600020828154811061092657610925611721565b5b906000526020600020906002020160000160009054906101000a900473ffffffffffffffffffffffffffffffffffffffff1673ffffffffffffffffffffffffffffffffffffffff1603610a3a5786828151811061098657610985611721565b5b6020026020010151600260008c73ffffffffffffffffffffffffffffffffffffffff1673ffffffffffffffffffffffffffffffffffffffff16815260200190815260200160002060008a73ffffffffffffffffffffffffffffffffffffffff1673ffffffffffffffffffffffffffffffffffffffff1681526020019081526020016000208281548110610a1c57610a1b611721565b5b90600052602060002090600202016001018190555060019250610af2565b6000600260008c73ffffffffffffffffffffffffffffffffffffffff1673ffffffffffffffffffffffffffffffffffffffff16815260200190815260200160002060008a73ffffffffffffffffffffffffffffffffffffffff1673ffffffffffffffffffffffffffffffffffffffff1681526020019081526020016000208281548110610aca57610ac9611721565b5b9060005260206000209060020201600101819055508080610aea9061187a565b9150506107e0565b506000151582151503610cea57600260008a73ffffffffffffffffffffffffffffffffffffffff1673ffffffffffffffffffffffffffffffffffffffff16815260200190815260200160002060008873ffffffffffffffffffffffffffffffffffffffff1673ffffffffffffffffffffffffffffffffffffffff16815260200190815260200160002060405180604001604052808a8481518110610b9957610b98611721565b5b602002602001015173ffffffffffffffffffffffffffffffffffffffff168152602001888481518110610bcf57610bce611721565b5b6020026020010151815250908060018154018082558091505060019003906000526020600020906002020160009091909190915060008201518160000160006101000a81548173ffffffffffffffffffffffffffffffffffffffff021916908373ffffffffffffffffffffffffffffffffffffffff160217905550602082015181600101555050600160009054906101000a900473ffffffffffffffffffffffffffffffffffffffff1673ffffffffffffffffffffffffffffffffffffffff16630a5078258a898b856040518563ffffffff1660e01b8152600401610cb794939291906117ff565b600060405180830381600087803b158015610cd157600080fd5b505af1158015610ce5573d6000803e3d6000fd5b505050505b8080610cf59061187a565b9150506107d4565b505050505050505050565b6000604051905090565b600080fd5b600080fd5b600073ffffffffffffffffffffffffffffffffffffffff82169050919050565b6000610d4782610d1c565b9050919050565b610d5781610d3c565b8114610d6257600080fd5b50565b600081359050610d7481610d4e565b92915050565b600080fd5b6000601f19601f8301169050919050565b7f4e487b7100000000000000000000000000000000000000000000000000000000600052604160045260246000fd5b610dc882610d7f565b810181811067ffffffffffffffff82111715610de757610de6610d90565b5b80604052505050565b6000610dfa610d08565b9050610e068282610dbf565b919050565b600067ffffffffffffffff821115610e2657610e25610d90565b5b602082029050602081019050919050565b600080fd5b6000610e4f610e4a84610e0b565b610df0565b90508083825260208201905060208402830185811115610e7257610e71610e37565b5b835b81811015610e9b5780610e878882610d65565b845260208401935050602081019050610e74565b5050509392505050565b600082601f830112610eba57610eb9610d7a565b5b8135610eca848260208601610e3c565b91505092915050565b600080fd5b600067ffffffffffffffff821115610ef357610ef2610d90565b5b610efc82610d7f565b9050602081019050919050565b82818337600083830152505050565b6000610f2b610f2684610ed8565b610df0565b905082815260208101848484011115610f4757610f46610ed3565b5b610f52848285610f09565b509392505050565b600082601f830112610f6f57610f6e610d7a565b5b8135610f7f848260208601610f18565b91505092915050565b600067ffffffffffffffff821115610fa357610fa2610d90565b5b602082029050602081019050919050565b6000819050919050565b610fc781610fb4565b8114610fd257600080fd5b50565b600081359050610fe481610fbe565b92915050565b6000610ffd610ff884610f88565b610df0565b905080838252602082019050602084028301858111156110205761101f610e37565b5b835b8181101561104957806110358882610fd5565b845260208401935050602081019050611022565b5050509392505050565b600082601f83011261106857611067610d7a565b5b8135611078848260208601610fea565b91505092915050565b60008115159050919050565b61109681611081565b81146110a157600080fd5b50565b6000813590506110b38161108d565b92915050565b600080600080600080600060e0888a0312156110d8576110d7610d12565b5b60006110e68a828b01610d65565b975050602088013567ffffffffffffffff81111561110757611106610d17565b5b6111138a828b01610ea5565b96505060406111248a828b01610d65565b955050606088013567ffffffffffffffff81111561114557611144610d17565b5b6111518a828b01610f5a565b945050608088013567ffffffffffffffff81111561117257611171610d17565b5b61117e8a828b01611053565b93505060a061118f8a828b016110a4565b92505060c06111a08a828b016110a4565b91505092959891949750929550565b6111b881610d3c565b82525050565b60006020820190506111d360008301846111af565b92915050565b6000806000606084860312156111f2576111f1610d12565b5b600061120086828701610d65565b935050602061121186828701610d65565b925050604061122286828701610fd5565b9150509250925092565b61123581610fb4565b82525050565b600060408201905061125060008301856111af565b61125d602083018461122c565b9392505050565b6000806040838503121561127b5761127a610d12565b5b600061128985828601610d65565b925050602061129a85828601610d65565b9150509250929050565b600081519050919050565b600082825260208201905092915050565b6000819050602082019050919050565b6112d981610d3c565b82525050565b6112e881610fb4565b82525050565b60408201600082015161130460008501826112d0565b50602082015161131760208501826112df565b50505050565b600061132983836112ee565b60408301905092915050565b6000602082019050919050565b600061134d826112a4565b61135781856112af565b9350611362836112c0565b8060005b8381101561139357815161137a888261131d565b975061138583611335565b925050600181019050611366565b5085935050505092915050565b600060208201905081810360008301526113ba8184611342565b905092915050565b600080600080600060a086880312156113de576113dd610d12565b5b60006113ec88828901610d65565b955050602086013567ffffffffffffffff81111561140d5761140c610d17565b5b61141988828901610ea5565b945050604061142a88828901610d65565b935050606086013567ffffffffffffffff81111561144b5761144a610d17565b5b61145788828901611053565b9250506080611468888289016110a4565b9150509295509295909350565b60008151905061148481610d4e565b92915050565b60005b838110156114a857808201518184015260208101905061148d565b60008484015250505050565b60006114c76114c284610ed8565b610df0565b9050828152602081018484840111156114e3576114e2610ed3565b5b6114ee84828561148a565b509392505050565b600082601f83011261150b5761150a610d7a565b5b815161151b8482602086016114b4565b91505092915050565b60008151905061153381610fbe565b92915050565b6000815190506115488161108d565b92915050565b60008060008060008060c0878903121561156b5761156a610d12565b5b600061157989828a01611475565b965050602087015167ffffffffffffffff81111561159a57611599610d17565b5b6115a689828a016114f6565b95505060406115b789828a01611524565b94505060606115c889828a01611539565b93505060806115d989828a01611539565b92505060a06115ea89828a01611539565b9150509295509295509295565b600082825260208201905092915050565b7f416c726561647920746f6b656e206973206e6f6d696e61746564000000000000600082015250565b600061163e601a836115f7565b915061164982611608565b602082019050919050565b6000602082019050818103600083015261166d81611631565b9050919050565b600081519050919050565b600061168a82611674565b61169481856115f7565b93506116a481856020860161148a565b6116ad81610d7f565b840191505092915050565b6116c181611081565b82525050565b600060a0820190506116dc60008301886111af565b81810360208301526116ee818761167f565b90506116fd604083018661122c565b61170a60608301856116b8565b61171760808301846116b8565b9695505050505050565b7f4e487b7100000000000000000000000000000000000000000000000000000000600052603260045260246000fd5b600081519050919050565b600082825260208201905092915050565b6000819050602082019050919050565b600061178883836112d0565b60208301905092915050565b6000602082019050919050565b60006117ac82611750565b6117b6818561175b565b93506117c18361176c565b8060005b838110156117f25781516117d9888261177c565b97506117e483611794565b9250506001810190506117c5565b5085935050505092915050565b600060808201905061181460008301876111af565b61182160208301866111af565b818103604083015261183381856117a1565b9050611842606083018461122c565b95945050505050565b7f4e487b7100000000000000000000000000000000000000000000000000000000600052601160045260246000fd5b600061188582610fb4565b91507fffffffffffffffffffffffffffffffffffffffffffffffffffffffffffffffff82036118b7576118b661184b565b5b600182019050919050565b7f4974206973206f6e6c7920666f72207072696f72697479206e6f6d696e656500600082015250565b60006118f8601f836115f7565b9150611903826118c2565b602082019050919050565b60006020820190508181036000830152611927816118eb565b9050919050565b7f4669727374206e6f6d696e617465207468652041737365742100000000000000600082015250565b60006119646019836115f7565b915061196f8261192e565b602082019050919050565b6000602082019050818103600083015261199381611957565b905091905056fea2646970667358221220b47fe600158f5ab859099ddc06f22bd0c6f903e1900173cefba1fcd07d406f5664736f6c63430008110033",
  "linkReferences": {},
  "deployedLinkReferences": {}
}