{
  "_format": "hh-sol-artifact-1",
  "contractName": "PriorityNominee",
  "sourceName": "contracts/PriorityNominee.sol",
  "abi": [
    {
      "inputs": [
        {
          "internalType": "address",
          "name": "_inheritokensAddress",
          "type": "address"
        }
      ],
      "stateMutability": "nonpayable",
      "type": "constructor"
    },
    {
      "inputs": [
        {
          "internalType": "address",
          "name": "_owner",
          "type": "address"
        },
        {
          "internalType": "address[]",
          "name": "_nominee",
          "type": "address[]"
        },
        {
          "internalType": "address",
          "name": "_tokenAddress",
          "type": "address"
        },
        {
          "internalType": "string",
          "name": "_tokenName",
          "type": "string"
        },
        {
          "internalType": "uint256[]",
          "name": "_rank",
          "type": "uint256[]"
        },
        {
          "internalType": "bool",
          "name": "_isMultipleNominee",
          "type": "bool"
        },
        {
          "internalType": "bool",
          "name": "_isPriorityNominee",
          "type": "bool"
        }
      ],
      "name": "assignedTokensToPriorityNominee",
      "outputs": [],
      "stateMutability": "nonpayable",
      "type": "function"
    },
    {
      "inputs": [
        {
          "internalType": "address",
          "name": "_owner",
          "type": "address"
        },
        {
          "internalType": "address[]",
          "name": "_nominee",
          "type": "address[]"
        },
        {
          "internalType": "address",
          "name": "_tokenAddress",
          "type": "address"
        },
        {
          "internalType": "uint256[]",
          "name": "_rank",
          "type": "uint256[]"
        },
        {
          "internalType": "bool",
          "name": "_isPriorityNominee",
          "type": "bool"
        }
      ],
      "name": "editAssignedTokensToPriorityNominees",
      "outputs": [],
      "stateMutability": "nonpayable",
      "type": "function"
    },
    {
      "inputs": [
        {
          "internalType": "address",
          "name": "_owner",
          "type": "address"
        },
        {
          "internalType": "address",
          "name": "_tokenAddress",
          "type": "address"
        }
      ],
      "name": "getOwnerToTokenAddressToPriorityArray",
      "outputs": [
        {
          "components": [
            {
              "internalType": "address",
              "name": "nominee",
              "type": "address"
            },
            {
              "internalType": "uint256",
              "name": "rank",
              "type": "uint256"
            }
          ],
          "internalType": "struct PriorityNominee.Priority[]",
          "name": "",
          "type": "tuple[]"
        }
      ],
      "stateMutability": "view",
      "type": "function"
    },
    {
      "inputs": [],
      "name": "inheritokensAddress",
      "outputs": [
        {
          "internalType": "address",
          "name": "",
          "type": "address"
        }
      ],
      "stateMutability": "view",
      "type": "function"
    },
    {
      "inputs": [
        {
          "internalType": "address",
          "name": "",
          "type": "address"
        },
        {
          "internalType": "address",
          "name": "",
          "type": "address"
        },
        {
          "internalType": "uint256",
          "name": "",
          "type": "uint256"
        }
      ],
      "name": "ownerToTokenToPriorityStruct",
      "outputs": [
        {
          "internalType": "address",
          "name": "nominee",
          "type": "address"
        },
        {
          "internalType": "uint256",
          "name": "rank",
          "type": "uint256"
        }
      ],
      "stateMutability": "view",
      "type": "function"
    }
  ],
  "bytecode": "0x608060405260008054906101000a900473ffffffffffffffffffffffffffffffffffffffff16600160006101000a81548173ffffffffffffffffffffffffffffffffffffffff021916908373ffffffffffffffffffffffffffffffffffffffff1602179055503480156200007257600080fd5b5060405162001b3138038062001b31833981810160405281019062000098919062000149565b806000806101000a81548173ffffffffffffffffffffffffffffffffffffffff021916908373ffffffffffffffffffffffffffffffffffffffff160217905550506200017b565b600080fd5b600073ffffffffffffffffffffffffffffffffffffffff82169050919050565b60006200011182620000e4565b9050919050565b620001238162000104565b81146200012f57600080fd5b50565b600081519050620001438162000118565b92915050565b600060208284031215620001625762000161620000df565b5b6000620001728482850162000132565b91505092915050565b6119a6806200018b6000396000f3fe608060405234801561001057600080fd5b50600436106100575760003560e01c80633c885d041461005c57806346f1715214610078578063782c6b1e14610096578063b8c0d1a1146100c7578063f4808cd0146100f7575b600080fd5b610076600480360381019061007191906110a9565b610113565b005b6100806104b9565b60405161008d91906111ae565b60405180910390f35b6100b060048036038101906100ab91906111c9565b6104dd565b6040516100be92919061122b565b60405180910390f35b6100e160048036038101906100dc9190611254565b61054b565b6040516100ee9190611390565b60405180910390f35b610111600480360381019061010c91906113b2565b610687565b005b600080600160009054906101000a900473ffffffffffffffffffffffffffffffffffffffff1673ffffffffffffffffffffffffffffffffffffffff1663de508c5b8a896040518363ffffffff1660e01b8152600401610173929190611465565b600060405180830381865afa158015610190573d6000803e3d6000fd5b505050506040513d6000823e3d601f19601f820116820180604052508101906101b99190611567565b9091925090915080935081925050508115610209576040517f08c379a000000000000000000000000000000000000000000000000000000000815260040161020090611647565b60405180910390fd5b6000805b89518110156104ac57836102af57600160009054906101000a900473ffffffffffffffffffffffffffffffffffffffff1673ffffffffffffffffffffffffffffffffffffffff1663203e58548c8b8b866040518563ffffffff1660e01b815260040161027c94939291906116ab565b600060405180830381600087803b15801561029657600080fd5b505af11580156102aa573d6000803e3d6000fd5b505050505b600260008c73ffffffffffffffffffffffffffffffffffffffff1673ffffffffffffffffffffffffffffffffffffffff16815260200190815260200160002060008a73ffffffffffffffffffffffffffffffffffffffff1673ffffffffffffffffffffffffffffffffffffffff16815260200190815260200160002060405180604001604052808c8481518110610349576103486116f7565b5b602002602001015173ffffffffffffffffffffffffffffffffffffffff16815260200189848151811061037f5761037e6116f7565b5b6020026020010151815250908060018154018082558091505060019003906000526020600020906002020160009091909190915060008201518160000160006101000a81548173ffffffffffffffffffffffffffffffffffffffff021916908373ffffffffffffffffffffffffffffffffffffffff160217905550602082015181600101555050600160009054906101000a900473ffffffffffffffffffffffffffffffffffffffff1673ffffffffffffffffffffffffffffffffffffffff16630a5078258c8b8d856040518563ffffffff1660e01b815260040161046794939291906117d5565b600060405180830381600087803b15801561048157600080fd5b505af1158015610495573d6000803e3d6000fd5b5050505080806104a490611850565b91505061020d565b5050505050505050505050565b60008054906101000a900473ffffffffffffffffffffffffffffffffffffffff1681565b6002602052826000526040600020602052816000526040600020818154811061050557600080fd5b906000526020600020906002020160009250925050508060000160009054906101000a900473ffffffffffffffffffffffffffffffffffffffff16908060010154905082565b6060600260008473ffffffffffffffffffffffffffffffffffffffff1673ffffffffffffffffffffffffffffffffffffffff16815260200190815260200160002060008373ffffffffffffffffffffffffffffffffffffffff1673ffffffffffffffffffffffffffffffffffffffff168152602001908152602001600020805480602002602001604051908101604052809291908181526020016000905b8282101561067b57838290600052602060002090600202016040518060400160405290816000820160009054906101000a900473ffffffffffffffffffffffffffffffffffffffff1673ffffffffffffffffffffffffffffffffffffffff1673ffffffffffffffffffffffffffffffffffffffff168152602001600182015481525050815260200190600101906105e9565b50505050905092915050565b600080600160009054906101000a900473ffffffffffffffffffffffffffffffffffffffff1673ffffffffffffffffffffffffffffffffffffffff1663de508c5b88876040518363ffffffff1660e01b81526004016106e7929190611465565b600060405180830381865afa158015610704573d6000803e3d6000fd5b505050506040513d6000823e3d601f19601f8201168201806040525081019061072d9190611567565b9091925090915080935081925050508261077c576040517f08c379a0000000000000000000000000000000000000000000000000000000008152600401610773906118e4565b60405180910390fd5b816107bc576040517f08c379a00000000000000000000000000000000000000000000000000000000081526004016107b390611950565b60405180910390fd5b600080600090505b8751811015610ced5760005b600260008b73ffffffffffffffffffffffffffffffffffffffff1673ffffffffffffffffffffffffffffffffffffffff16815260200190815260200160002060008973ffffffffffffffffffffffffffffffffffffffff1673ffffffffffffffffffffffffffffffffffffffff16815260200190815260200160002080549050811015610ae25788828151811061086a576108696116f7565b5b602002602001015173ffffffffffffffffffffffffffffffffffffffff16600260008c73ffffffffffffffffffffffffffffffffffffffff1673ffffffffffffffffffffffffffffffffffffffff16815260200190815260200160002060008a73ffffffffffffffffffffffffffffffffffffffff1673ffffffffffffffffffffffffffffffffffffffff1681526020019081526020016000208281548110610916576109156116f7565b5b906000526020600020906002020160000160009054906101000a900473ffffffffffffffffffffffffffffffffffffffff1673ffffffffffffffffffffffffffffffffffffffff1603610a2a57868281518110610976576109756116f7565b5b6020026020010151600260008c73ffffffffffffffffffffffffffffffffffffffff1673ffffffffffffffffffffffffffffffffffffffff16815260200190815260200160002060008a73ffffffffffffffffffffffffffffffffffffffff1673ffffffffffffffffffffffffffffffffffffffff1681526020019081526020016000208281548110610a0c57610a0b6116f7565b5b90600052602060002090600202016001018190555060019250610ae2565b6000600260008c73ffffffffffffffffffffffffffffffffffffffff1673ffffffffffffffffffffffffffffffffffffffff16815260200190815260200160002060008a73ffffffffffffffffffffffffffffffffffffffff1673ffffffffffffffffffffffffffffffffffffffff1681526020019081526020016000208281548110610aba57610ab96116f7565b5b9060005260206000209060020201600101819055508080610ada90611850565b9150506107d0565b506000151582151503610cda57600260008a73ffffffffffffffffffffffffffffffffffffffff1673ffffffffffffffffffffffffffffffffffffffff16815260200190815260200160002060008873ffffffffffffffffffffffffffffffffffffffff1673ffffffffffffffffffffffffffffffffffffffff16815260200190815260200160002060405180604001604052808a8481518110610b8957610b886116f7565b5b602002602001015173ffffffffffffffffffffffffffffffffffffffff168152602001888481518110610bbf57610bbe6116f7565b5b6020026020010151815250908060018154018082558091505060019003906000526020600020906002020160009091909190915060008201518160000160006101000a81548173ffffffffffffffffffffffffffffffffffffffff021916908373ffffffffffffffffffffffffffffffffffffffff160217905550602082015181600101555050600160009054906101000a900473ffffffffffffffffffffffffffffffffffffffff1673ffffffffffffffffffffffffffffffffffffffff16630a5078258a898b856040518563ffffffff1660e01b8152600401610ca794939291906117d5565b600060405180830381600087803b158015610cc157600080fd5b505af1158015610cd5573d6000803e3d6000fd5b505050505b8080610ce590611850565b9150506107c4565b505050505050505050565b6000604051905090565b600080fd5b600080fd5b600073ffffffffffffffffffffffffffffffffffffffff82169050919050565b6000610d3782610d0c565b9050919050565b610d4781610d2c565b8114610d5257600080fd5b50565b600081359050610d6481610d3e565b92915050565b600080fd5b6000601f19601f8301169050919050565b7f4e487b7100000000000000000000000000000000000000000000000000000000600052604160045260246000fd5b610db882610d6f565b810181811067ffffffffffffffff82111715610dd757610dd6610d80565b5b80604052505050565b6000610dea610cf8565b9050610df68282610daf565b919050565b600067ffffffffffffffff821115610e1657610e15610d80565b5b602082029050602081019050919050565b600080fd5b6000610e3f610e3a84610dfb565b610de0565b90508083825260208201905060208402830185811115610e6257610e61610e27565b5b835b81811015610e8b5780610e778882610d55565b845260208401935050602081019050610e64565b5050509392505050565b600082601f830112610eaa57610ea9610d6a565b5b8135610eba848260208601610e2c565b91505092915050565b600080fd5b600067ffffffffffffffff821115610ee357610ee2610d80565b5b610eec82610d6f565b9050602081019050919050565b82818337600083830152505050565b6000610f1b610f1684610ec8565b610de0565b905082815260208101848484011115610f3757610f36610ec3565b5b610f42848285610ef9565b509392505050565b600082601f830112610f5f57610f5e610d6a565b5b8135610f6f848260208601610f08565b91505092915050565b600067ffffffffffffffff821115610f9357610f92610d80565b5b602082029050602081019050919050565b6000819050919050565b610fb781610fa4565b8114610fc257600080fd5b50565b600081359050610fd481610fae565b92915050565b6000610fed610fe884610f78565b610de0565b905080838252602082019050602084028301858111156110105761100f610e27565b5b835b8181101561103957806110258882610fc5565b845260208401935050602081019050611012565b5050509392505050565b600082601f83011261105857611057610d6a565b5b8135611068848260208601610fda565b91505092915050565b60008115159050919050565b61108681611071565b811461109157600080fd5b50565b6000813590506110a38161107d565b92915050565b600080600080600080600060e0888a0312156110c8576110c7610d02565b5b60006110d68a828b01610d55565b975050602088013567ffffffffffffffff8111156110f7576110f6610d07565b5b6111038a828b01610e95565b96505060406111148a828b01610d55565b955050606088013567ffffffffffffffff81111561113557611134610d07565b5b6111418a828b01610f4a565b945050608088013567ffffffffffffffff81111561116257611161610d07565b5b61116e8a828b01611043565b93505060a061117f8a828b01611094565b92505060c06111908a828b01611094565b91505092959891949750929550565b6111a881610d2c565b82525050565b60006020820190506111c3600083018461119f565b92915050565b6000806000606084860312156111e2576111e1610d02565b5b60006111f086828701610d55565b935050602061120186828701610d55565b925050604061121286828701610fc5565b9150509250925092565b61122581610fa4565b82525050565b6000604082019050611240600083018561119f565b61124d602083018461121c565b9392505050565b6000806040838503121561126b5761126a610d02565b5b600061127985828601610d55565b925050602061128a85828601610d55565b9150509250929050565b600081519050919050565b600082825260208201905092915050565b6000819050602082019050919050565b6112c981610d2c565b82525050565b6112d881610fa4565b82525050565b6040820160008201516112f460008501826112c0565b50602082015161130760208501826112cf565b50505050565b600061131983836112de565b60408301905092915050565b6000602082019050919050565b600061133d82611294565b611347818561129f565b9350611352836112b0565b8060005b8381101561138357815161136a888261130d565b975061137583611325565b925050600181019050611356565b5085935050505092915050565b600060208201905081810360008301526113aa8184611332565b905092915050565b600080600080600060a086880312156113ce576113cd610d02565b5b60006113dc88828901610d55565b955050602086013567ffffffffffffffff8111156113fd576113fc610d07565b5b61140988828901610e95565b945050604061141a88828901610d55565b935050606086013567ffffffffffffffff81111561143b5761143a610d07565b5b61144788828901611043565b925050608061145888828901611094565b9150509295509295909350565b600060408201905061147a600083018561119f565b611487602083018461119f565b9392505050565b60008151905061149d81610d3e565b92915050565b60005b838110156114c15780820151818401526020810190506114a6565b60008484015250505050565b60006114e06114db84610ec8565b610de0565b9050828152602081018484840111156114fc576114fb610ec3565b5b6115078482856114a3565b509392505050565b600082601f83011261152457611523610d6a565b5b81516115348482602086016114cd565b91505092915050565b60008151905061154c81610fae565b92915050565b6000815190506115618161107d565b92915050565b6000806000806080858703121561158157611580610d02565b5b600061158f8782880161148e565b945050602085015167ffffffffffffffff8111156115b0576115af610d07565b5b6115bc8782880161150f565b93505060406115cd8782880161153d565b92505060606115de87828801611552565b91505092959194509250565b600082825260208201905092915050565b7f416c726561647920746f6b656e206973206e6f6d696e61746564000000000000600082015250565b6000611631601a836115ea565b915061163c826115fb565b602082019050919050565b6000602082019050818103600083015261166081611624565b9050919050565b600081519050919050565b600061167d82611667565b61168781856115ea565b93506116978185602086016114a3565b6116a081610d6f565b840191505092915050565b60006080820190506116c0600083018761119f565b6116cd602083018661119f565b81810360408301526116df8185611672565b90506116ee606083018461121c565b95945050505050565b7f4e487b7100000000000000000000000000000000000000000000000000000000600052603260045260246000fd5b600081519050919050565b600082825260208201905092915050565b6000819050602082019050919050565b600061175e83836112c0565b60208301905092915050565b6000602082019050919050565b600061178282611726565b61178c8185611731565b935061179783611742565b8060005b838110156117c85781516117af8882611752565b97506117ba8361176a565b92505060018101905061179b565b5085935050505092915050565b60006080820190506117ea600083018761119f565b6117f7602083018661119f565b81810360408301526118098185611777565b9050611818606083018461121c565b95945050505050565b7f4e487b7100000000000000000000000000000000000000000000000000000000600052601160045260246000fd5b600061185b82610fa4565b91507fffffffffffffffffffffffffffffffffffffffffffffffffffffffffffffffff820361188d5761188c611821565b5b600182019050919050565b7f4974206973206f6e6c7920666f72207072696f72697479206e6f6d696e656500600082015250565b60006118ce601f836115ea565b91506118d982611898565b602082019050919050565b600060208201905081810360008301526118fd816118c1565b9050919050565b7f4669727374206e6f6d696e617465207468652041737365742100000000000000600082015250565b600061193a6019836115ea565b915061194582611904565b602082019050919050565b600060208201905081810360008301526119698161192d565b905091905056fea26469706673582212207aedacec4e906ad108e0df789d10a317d1188c9d2ccb3f791491f8cd7f54de6b64736f6c63430008110033",
  "linkReferences": {},
  "deployedLinkReferences": {}
}