{
  "_format": "hh-sol-artifact-1",
  "contractName": "CharityContract",
  "sourceName": "contracts/Charity.sol",
  "abi": [
    {
      "inputs": [
        {
          "internalType": "address",
          "name": "_charityAddress",
          "type": "address"
        },
        {
          "internalType": "string",
          "name": "_charityName",
          "type": "string"
        },
        {
          "internalType": "string",
          "name": "_charityDescription",
          "type": "string"
        },
        {
          "internalType": "string",
          "name": "_charityImage",
          "type": "string"
        }
      ],
      "name": "addCharity",
      "outputs": [],
      "stateMutability": "nonpayable",
      "type": "function"
    },
    {
      "inputs": [
        {
          "internalType": "uint256",
          "name": "_charityId",
          "type": "uint256"
        },
        {
          "internalType": "address",
          "name": "_charityAddress",
          "type": "address"
        },
        {
          "internalType": "string",
          "name": "_charityName",
          "type": "string"
        },
        {
          "internalType": "string",
          "name": "_charityDescription",
          "type": "string"
        },
        {
          "internalType": "string",
          "name": "_charityImage",
          "type": "string"
        }
      ],
      "name": "editCharityDetails",
      "outputs": [],
      "stateMutability": "nonpayable",
      "type": "function"
    },
    {
      "inputs": [
        {
          "internalType": "uint256",
          "name": "_charityId",
          "type": "uint256"
        }
      ],
      "name": "getCharityDetailsById",
      "outputs": [
        {
          "components": [
            {
              "internalType": "uint256",
              "name": "id",
              "type": "uint256"
            },
            {
              "internalType": "address",
              "name": "charity_address",
              "type": "address"
            },
            {
              "internalType": "string",
              "name": "charity_name",
              "type": "string"
            },
            {
              "internalType": "string",
              "name": "charity_description",
              "type": "string"
            },
            {
              "internalType": "string",
              "name": "charity_image",
              "type": "string"
            }
          ],
          "internalType": "struct CharityContract.Charity",
          "name": "",
          "type": "tuple"
        }
      ],
      "stateMutability": "view",
      "type": "function"
    },
    {
      "inputs": [],
      "name": "getTotalNumberOfCharity",
      "outputs": [
        {
          "internalType": "uint256",
          "name": "",
          "type": "uint256"
        }
      ],
      "stateMutability": "view",
      "type": "function"
    },
    {
      "inputs": [
        {
          "internalType": "uint256",
          "name": "",
          "type": "uint256"
        }
      ],
      "name": "idToCharity",
      "outputs": [
        {
          "internalType": "uint256",
          "name": "id",
          "type": "uint256"
        },
        {
          "internalType": "address",
          "name": "charity_address",
          "type": "address"
        },
        {
          "internalType": "string",
          "name": "charity_name",
          "type": "string"
        },
        {
          "internalType": "string",
          "name": "charity_description",
          "type": "string"
        },
        {
          "internalType": "string",
          "name": "charity_image",
          "type": "string"
        }
      ],
      "stateMutability": "view",
      "type": "function"
    }
  ],
  "bytecode": "0x608060405234801561001057600080fd5b506110ab806100206000396000f3fe608060405234801561001057600080fd5b50600436106100575760003560e01c806358a4e30d1461005c5780636f4eb5f0146100785780637f3d39bd14610096578063bfe50948146100ca578063e44e4c56146100e6575b600080fd5b61007660048036038101906100719190610919565b610116565b005b61008061021a565b60405161008d91906109ed565b60405180910390f35b6100b060048036038101906100ab9190610a34565b610223565b6040516100c1959493929190610aef565b60405180910390f35b6100e460048036038101906100df9190610b57565b610411565b005b61010060048036038101906100fb9190610a34565b6104d9565b60405161010d9190610d12565b60405180910390f35b60016000546101259190610d63565b6000819055506040518060a0016040528060005481526020018573ffffffffffffffffffffffffffffffffffffffff1681526020018481526020018381526020018281525060016000805481526020019081526020016000206000820151816000015560208201518160010160006101000a81548173ffffffffffffffffffffffffffffffffffffffff021916908373ffffffffffffffffffffffffffffffffffffffff16021790555060408201518160020190816101e49190610fa3565b5060608201518160030190816101fa9190610fa3565b5060808201518160040190816102109190610fa3565b5090505050505050565b60008054905090565b60016020528060005260406000206000915090508060000154908060010160009054906101000a900473ffffffffffffffffffffffffffffffffffffffff169080600201805461027290610dc6565b80601f016020809104026020016040519081016040528092919081815260200182805461029e90610dc6565b80156102eb5780601f106102c0576101008083540402835291602001916102eb565b820191906000526020600020905b8154815290600101906020018083116102ce57829003601f168201915b50505050509080600301805461030090610dc6565b80601f016020809104026020016040519081016040528092919081815260200182805461032c90610dc6565b80156103795780601f1061034e57610100808354040283529160200191610379565b820191906000526020600020905b81548152906001019060200180831161035c57829003601f168201915b50505050509080600401805461038e90610dc6565b80601f01602080910402602001604051908101604052809291908181526020018280546103ba90610dc6565b80156104075780601f106103dc57610100808354040283529160200191610407565b820191906000526020600020905b8154815290600101906020018083116103ea57829003601f168201915b5050505050905085565b836001600087815260200190815260200160002060010160006101000a81548173ffffffffffffffffffffffffffffffffffffffff021916908373ffffffffffffffffffffffffffffffffffffffff160217905550826001600087815260200190815260200160002060020190816104899190610fa3565b50816001600087815260200190815260200160002060030190816104ad9190610fa3565b50806001600087815260200190815260200160002060040190816104d19190610fa3565b505050505050565b6104e161071c565b600160008381526020019081526020016000206040518060a0016040529081600082015481526020016001820160009054906101000a900473ffffffffffffffffffffffffffffffffffffffff1673ffffffffffffffffffffffffffffffffffffffff1673ffffffffffffffffffffffffffffffffffffffff16815260200160028201805461056f90610dc6565b80601f016020809104026020016040519081016040528092919081815260200182805461059b90610dc6565b80156105e85780601f106105bd576101008083540402835291602001916105e8565b820191906000526020600020905b8154815290600101906020018083116105cb57829003601f168201915b5050505050815260200160038201805461060190610dc6565b80601f016020809104026020016040519081016040528092919081815260200182805461062d90610dc6565b801561067a5780601f1061064f5761010080835404028352916020019161067a565b820191906000526020600020905b81548152906001019060200180831161065d57829003601f168201915b5050505050815260200160048201805461069390610dc6565b80601f01602080910402602001604051908101604052809291908181526020018280546106bf90610dc6565b801561070c5780601f106106e15761010080835404028352916020019161070c565b820191906000526020600020905b8154815290600101906020018083116106ef57829003601f168201915b5050505050815250509050919050565b6040518060a0016040528060008152602001600073ffffffffffffffffffffffffffffffffffffffff1681526020016060815260200160608152602001606081525090565b6000604051905090565b600080fd5b600080fd5b600073ffffffffffffffffffffffffffffffffffffffff82169050919050565b60006107a082610775565b9050919050565b6107b081610795565b81146107bb57600080fd5b50565b6000813590506107cd816107a7565b92915050565b600080fd5b600080fd5b6000601f19601f8301169050919050565b7f4e487b7100000000000000000000000000000000000000000000000000000000600052604160045260246000fd5b610826826107dd565b810181811067ffffffffffffffff82111715610845576108446107ee565b5b80604052505050565b6000610858610761565b9050610864828261081d565b919050565b600067ffffffffffffffff821115610884576108836107ee565b5b61088d826107dd565b9050602081019050919050565b82818337600083830152505050565b60006108bc6108b784610869565b61084e565b9050828152602081018484840111156108d8576108d76107d8565b5b6108e384828561089a565b509392505050565b600082601f830112610900576108ff6107d3565b5b81356109108482602086016108a9565b91505092915050565b600080600080608085870312156109335761093261076b565b5b6000610941878288016107be565b945050602085013567ffffffffffffffff81111561096257610961610770565b5b61096e878288016108eb565b935050604085013567ffffffffffffffff81111561098f5761098e610770565b5b61099b878288016108eb565b925050606085013567ffffffffffffffff8111156109bc576109bb610770565b5b6109c8878288016108eb565b91505092959194509250565b6000819050919050565b6109e7816109d4565b82525050565b6000602082019050610a0260008301846109de565b92915050565b610a11816109d4565b8114610a1c57600080fd5b50565b600081359050610a2e81610a08565b92915050565b600060208284031215610a4a57610a4961076b565b5b6000610a5884828501610a1f565b91505092915050565b610a6a81610795565b82525050565b600081519050919050565b600082825260208201905092915050565b60005b83811015610aaa578082015181840152602081019050610a8f565b60008484015250505050565b6000610ac182610a70565b610acb8185610a7b565b9350610adb818560208601610a8c565b610ae4816107dd565b840191505092915050565b600060a082019050610b0460008301886109de565b610b116020830187610a61565b8181036040830152610b238186610ab6565b90508181036060830152610b378185610ab6565b90508181036080830152610b4b8184610ab6565b90509695505050505050565b600080600080600060a08688031215610b7357610b7261076b565b5b6000610b8188828901610a1f565b9550506020610b92888289016107be565b945050604086013567ffffffffffffffff811115610bb357610bb2610770565b5b610bbf888289016108eb565b935050606086013567ffffffffffffffff811115610be057610bdf610770565b5b610bec888289016108eb565b925050608086013567ffffffffffffffff811115610c0d57610c0c610770565b5b610c19888289016108eb565b9150509295509295909350565b610c2f816109d4565b82525050565b610c3e81610795565b82525050565b600082825260208201905092915050565b6000610c6082610a70565b610c6a8185610c44565b9350610c7a818560208601610a8c565b610c83816107dd565b840191505092915050565b600060a083016000830151610ca66000860182610c26565b506020830151610cb96020860182610c35565b5060408301518482036040860152610cd18282610c55565b91505060608301518482036060860152610ceb8282610c55565b91505060808301518482036080860152610d058282610c55565b9150508091505092915050565b60006020820190508181036000830152610d2c8184610c8e565b905092915050565b7f4e487b7100000000000000000000000000000000000000000000000000000000600052601160045260246000fd5b6000610d6e826109d4565b9150610d79836109d4565b9250828201905080821115610d9157610d90610d34565b5b92915050565b7f4e487b7100000000000000000000000000000000000000000000000000000000600052602260045260246000fd5b60006002820490506001821680610dde57607f821691505b602082108103610df157610df0610d97565b5b50919050565b60008190508160005260206000209050919050565b60006020601f8301049050919050565b600082821b905092915050565b600060088302610e597fffffffffffffffffffffffffffffffffffffffffffffffffffffffffffffffff82610e1c565b610e638683610e1c565b95508019841693508086168417925050509392505050565b6000819050919050565b6000610ea0610e9b610e96846109d4565b610e7b565b6109d4565b9050919050565b6000819050919050565b610eba83610e85565b610ece610ec682610ea7565b848454610e29565b825550505050565b600090565b610ee3610ed6565b610eee818484610eb1565b505050565b5b81811015610f1257610f07600082610edb565b600181019050610ef4565b5050565b601f821115610f5757610f2881610df7565b610f3184610e0c565b81016020851015610f40578190505b610f54610f4c85610e0c565b830182610ef3565b50505b505050565b600082821c905092915050565b6000610f7a60001984600802610f5c565b1980831691505092915050565b6000610f938383610f69565b9150826002028217905092915050565b610fac82610a70565b67ffffffffffffffff811115610fc557610fc46107ee565b5b610fcf8254610dc6565b610fda828285610f16565b600060209050601f83116001811461100d5760008415610ffb578287015190505b6110058582610f87565b86555061106d565b601f19841661101b86610df7565b60005b828110156110435784890151825560018201915060208501945060208101905061101e565b86831015611060578489015161105c601f891682610f69565b8355505b6001600288020188555050505b50505050505056fea264697066735822122047364e6169d0a8da1a1dd1278af9bdd721a5a5f49fdbcf14bca95b34d0c3e91064736f6c63430008110033",
  "linkReferences": {},
  "deployedLinkReferences": {}
}