{
  "_format": "hh-sol-artifact-1",
  "contractName": "Inheritokens",
  "sourceName": "contracts/Inheritokens.sol",
  "abi": [
    {
      "inputs": [],
      "stateMutability": "nonpayable",
      "type": "constructor"
    },
    {
      "anonymous": false,
      "inputs": [
        {
          "indexed": true,
          "internalType": "address",
          "name": "previousOwner",
          "type": "address"
        },
        {
          "indexed": true,
          "internalType": "address",
          "name": "newOwner",
          "type": "address"
        }
      ],
      "name": "OwnershipTransferred",
      "type": "event"
    },
    {
      "inputs": [
        {
          "internalType": "string",
          "name": "_name",
          "type": "string"
        },
        {
          "internalType": "string",
          "name": "_email",
          "type": "string"
        },
        {
          "internalType": "address",
          "name": "_nominee",
          "type": "address"
        }
      ],
      "name": "addNomineesDetails",
      "outputs": [],
      "stateMutability": "nonpayable",
      "type": "function"
    },
    {
      "inputs": [
        {
          "internalType": "string",
          "name": "_name",
          "type": "string"
        },
        {
          "internalType": "string",
          "name": "_email",
          "type": "string"
        },
        {
          "internalType": "string",
          "name": "_cid",
          "type": "string"
        }
      ],
      "name": "addOwnerDetails",
      "outputs": [],
      "stateMutability": "nonpayable",
      "type": "function"
    },
    {
      "inputs": [
        {
          "internalType": "address",
          "name": "_owner",
          "type": "address"
        },
        {
          "internalType": "address",
          "name": "_recoveryAddress",
          "type": "address"
        }
      ],
      "name": "addWalletRecovery",
      "outputs": [],
      "stateMutability": "nonpayable",
      "type": "function"
    },
    {
      "inputs": [
        {
          "internalType": "address",
          "name": "",
          "type": "address"
        }
      ],
      "name": "addressToNominee",
      "outputs": [
        {
          "internalType": "string",
          "name": "nominee_name",
          "type": "string"
        },
        {
          "internalType": "string",
          "name": "nominee_email",
          "type": "string"
        },
        {
          "internalType": "address",
          "name": "nominee_address",
          "type": "address"
        },
        {
          "internalType": "bool",
          "name": "hasClaimed",
          "type": "bool"
        }
      ],
      "stateMutability": "view",
      "type": "function"
    },
    {
      "inputs": [
        {
          "internalType": "address",
          "name": "",
          "type": "address"
        }
      ],
      "name": "addressToOwner",
      "outputs": [
        {
          "internalType": "string",
          "name": "owner_name",
          "type": "string"
        },
        {
          "internalType": "string",
          "name": "owner_email",
          "type": "string"
        },
        {
          "internalType": "string",
          "name": "image_cid",
          "type": "string"
        },
        {
          "internalType": "bool",
          "name": "isEmailVerified",
          "type": "bool"
        },
        {
          "internalType": "bool",
          "name": "isAlive",
          "type": "bool"
        },
        {
          "internalType": "address",
          "name": "recoveryAddress",
          "type": "address"
        }
      ],
      "stateMutability": "view",
      "type": "function"
    },
    {
      "inputs": [
        {
          "internalType": "address",
          "name": "_owner",
          "type": "address"
        },
        {
          "internalType": "address",
          "name": "_tokenAddress",
          "type": "address"
        },
        {
          "internalType": "string",
          "name": "_tokenName",
          "type": "string"
        },
        {
          "internalType": "uint256",
          "name": "amount",
          "type": "uint256"
        }
      ],
      "name": "assignTokenStruct",
      "outputs": [],
      "stateMutability": "nonpayable",
      "type": "function"
    },
    {
      "inputs": [
        {
          "internalType": "address",
          "name": "_owner",
          "type": "address"
        }
      ],
      "name": "checkVerification",
      "outputs": [
        {
          "internalType": "bool",
          "name": "",
          "type": "bool"
        }
      ],
      "stateMutability": "view",
      "type": "function"
    },
    {
      "inputs": [
        {
          "internalType": "address",
          "name": "_nominee",
          "type": "address"
        }
      ],
      "name": "claim",
      "outputs": [],
      "stateMutability": "nonpayable",
      "type": "function"
    },
    {
      "inputs": [
        {
          "internalType": "address",
          "name": "_owner",
          "type": "address"
        },
        {
          "internalType": "address",
          "name": "_oldNomineeAddress",
          "type": "address"
        },
        {
          "internalType": "string",
          "name": "_name",
          "type": "string"
        },
        {
          "internalType": "string",
          "name": "_email",
          "type": "string"
        },
        {
          "internalType": "address",
          "name": "_newNomineeAddress",
          "type": "address"
        }
      ],
      "name": "editNomineeDetails",
      "outputs": [],
      "stateMutability": "nonpayable",
      "type": "function"
    },
    {
      "inputs": [
        {
          "internalType": "address",
          "name": "_owner",
          "type": "address"
        }
      ],
      "name": "getAllNominees",
      "outputs": [
        {
          "internalType": "address[]",
          "name": "",
          "type": "address[]"
        }
      ],
      "stateMutability": "view",
      "type": "function"
    },
    {
      "inputs": [
        {
          "internalType": "address",
          "name": "_owner",
          "type": "address"
        },
        {
          "internalType": "address",
          "name": "_tokenAddress",
          "type": "address"
        }
      ],
      "name": "getAllNomineesAssignedForToken",
      "outputs": [
        {
          "internalType": "address[]",
          "name": "",
          "type": "address[]"
        }
      ],
      "stateMutability": "view",
      "type": "function"
    },
    {
      "inputs": [
        {
          "internalType": "address",
          "name": "_owner",
          "type": "address"
        },
        {
          "internalType": "address",
          "name": "_nominee",
          "type": "address"
        }
      ],
      "name": "getAllTokensNomineeIsNominated",
      "outputs": [
        {
          "internalType": "address[]",
          "name": "",
          "type": "address[]"
        }
      ],
      "stateMutability": "view",
      "type": "function"
    },
    {
      "inputs": [
        {
          "internalType": "address",
          "name": "_owner",
          "type": "address"
        }
      ],
      "name": "getAllWhiteListedCharities",
      "outputs": [
        {
          "internalType": "uint256[]",
          "name": "",
          "type": "uint256[]"
        }
      ],
      "stateMutability": "view",
      "type": "function"
    },
    {
      "inputs": [
        {
          "internalType": "address",
          "name": "_owner",
          "type": "address"
        },
        {
          "internalType": "address",
          "name": "_tokenAddress",
          "type": "address"
        }
      ],
      "name": "getIsNominated",
      "outputs": [
        {
          "internalType": "bool",
          "name": "",
          "type": "bool"
        }
      ],
      "stateMutability": "view",
      "type": "function"
    },
    {
      "inputs": [
        {
          "internalType": "address",
          "name": "_nominee",
          "type": "address"
        }
      ],
      "name": "getNomineeDetails",
      "outputs": [
        {
          "components": [
            {
              "internalType": "string",
              "name": "nominee_name",
              "type": "string"
            },
            {
              "internalType": "string",
              "name": "nominee_email",
              "type": "string"
            },
            {
              "internalType": "address",
              "name": "nominee_address",
              "type": "address"
            },
            {
              "internalType": "bool",
              "name": "hasClaimed",
              "type": "bool"
            }
          ],
          "internalType": "struct Inheritokens.Nominee",
          "name": "",
          "type": "tuple"
        }
      ],
      "stateMutability": "view",
      "type": "function"
    },
    {
      "inputs": [
        {
          "internalType": "address",
          "name": "_owner",
          "type": "address"
        },
        {
          "internalType": "address",
          "name": "_nominee",
          "type": "address"
        },
        {
          "internalType": "address",
          "name": "_tokenAddress",
          "type": "address"
        }
      ],
      "name": "getNomineeToTokenRight",
      "outputs": [
        {
          "internalType": "bool",
          "name": "",
          "type": "bool"
        }
      ],
      "stateMutability": "view",
      "type": "function"
    },
    {
      "inputs": [
        {
          "internalType": "address",
          "name": "_owner",
          "type": "address"
        }
      ],
      "name": "getOwnerAlive",
      "outputs": [
        {
          "internalType": "bool",
          "name": "",
          "type": "bool"
        }
      ],
      "stateMutability": "view",
      "type": "function"
    },
    {
      "inputs": [
        {
          "internalType": "address",
          "name": "_owner",
          "type": "address"
        }
      ],
      "name": "getOwnerDetails",
      "outputs": [
        {
          "components": [
            {
              "internalType": "string",
              "name": "owner_name",
              "type": "string"
            },
            {
              "internalType": "string",
              "name": "owner_email",
              "type": "string"
            },
            {
              "internalType": "string",
              "name": "image_cid",
              "type": "string"
            },
            {
              "internalType": "bool",
              "name": "isEmailVerified",
              "type": "bool"
            },
            {
              "internalType": "bool",
              "name": "isAlive",
              "type": "bool"
            },
            {
              "internalType": "address",
              "name": "recoveryAddress",
              "type": "address"
            },
            {
              "internalType": "address[]",
              "name": "nominees",
              "type": "address[]"
            },
            {
              "internalType": "uint256[]",
              "name": "charities",
              "type": "uint256[]"
            }
          ],
          "internalType": "struct Inheritokens.Owner",
          "name": "",
          "type": "tuple"
        }
      ],
      "stateMutability": "view",
      "type": "function"
    },
    {
      "inputs": [],
      "name": "getOwners",
      "outputs": [
        {
          "internalType": "address[]",
          "name": "",
          "type": "address[]"
        }
      ],
      "stateMutability": "view",
      "type": "function"
    },
    {
      "inputs": [
        {
          "internalType": "address",
          "name": "_owner",
          "type": "address"
        }
      ],
      "name": "getRecoveryAddress",
      "outputs": [
        {
          "internalType": "address",
          "name": "",
          "type": "address"
        }
      ],
      "stateMutability": "view",
      "type": "function"
    },
    {
      "inputs": [
        {
          "internalType": "address",
          "name": "_owner",
          "type": "address"
        }
      ],
      "name": "getResponse",
      "outputs": [
        {
          "internalType": "bool",
          "name": "",
          "type": "bool"
        }
      ],
      "stateMutability": "view",
      "type": "function"
    },
    {
      "inputs": [
        {
          "internalType": "address",
          "name": "_owner",
          "type": "address"
        }
      ],
      "name": "getResponseDate",
      "outputs": [
        {
          "internalType": "string",
          "name": "",
          "type": "string"
        }
      ],
      "stateMutability": "view",
      "type": "function"
    },
    {
      "inputs": [],
      "name": "getTotalOwners",
      "outputs": [
        {
          "internalType": "uint256",
          "name": "",
          "type": "uint256"
        }
      ],
      "stateMutability": "view",
      "type": "function"
    },
    {
      "inputs": [
        {
          "internalType": "address",
          "name": "",
          "type": "address"
        }
      ],
      "name": "isOwnerAdded",
      "outputs": [
        {
          "internalType": "bool",
          "name": "",
          "type": "bool"
        }
      ],
      "stateMutability": "view",
      "type": "function"
    },
    {
      "inputs": [],
      "name": "owner",
      "outputs": [
        {
          "internalType": "address",
          "name": "",
          "type": "address"
        }
      ],
      "stateMutability": "view",
      "type": "function"
    },
    {
      "inputs": [
        {
          "internalType": "address",
          "name": "",
          "type": "address"
        },
        {
          "internalType": "address",
          "name": "",
          "type": "address"
        },
        {
          "internalType": "address",
          "name": "",
          "type": "address"
        }
      ],
      "name": "ownerToNomineeAddressToTokenAddressToRight",
      "outputs": [
        {
          "internalType": "bool",
          "name": "",
          "type": "bool"
        }
      ],
      "stateMutability": "view",
      "type": "function"
    },
    {
      "inputs": [
        {
          "internalType": "address",
          "name": "",
          "type": "address"
        },
        {
          "internalType": "address",
          "name": "",
          "type": "address"
        },
        {
          "internalType": "uint256",
          "name": "",
          "type": "uint256"
        }
      ],
      "name": "ownerToNomineeToTokenAddressArray",
      "outputs": [
        {
          "internalType": "address",
          "name": "",
          "type": "address"
        }
      ],
      "stateMutability": "view",
      "type": "function"
    },
    {
      "inputs": [
        {
          "internalType": "address",
          "name": "",
          "type": "address"
        }
      ],
      "name": "ownerToResponse",
      "outputs": [
        {
          "internalType": "string",
          "name": "date",
          "type": "string"
        },
        {
          "internalType": "bool",
          "name": "isResponsed",
          "type": "bool"
        }
      ],
      "stateMutability": "view",
      "type": "function"
    },
    {
      "inputs": [
        {
          "internalType": "address",
          "name": "",
          "type": "address"
        },
        {
          "internalType": "address",
          "name": "",
          "type": "address"
        },
        {
          "internalType": "uint256",
          "name": "",
          "type": "uint256"
        }
      ],
      "name": "ownerToTokenAddressToNomineeArray",
      "outputs": [
        {
          "internalType": "address",
          "name": "",
          "type": "address"
        }
      ],
      "stateMutability": "view",
      "type": "function"
    },
    {
      "inputs": [
        {
          "internalType": "uint256",
          "name": "",
          "type": "uint256"
        }
      ],
      "name": "owners",
      "outputs": [
        {
          "internalType": "address",
          "name": "",
          "type": "address"
        }
      ],
      "stateMutability": "view",
      "type": "function"
    },
    {
      "inputs": [
        {
          "internalType": "address",
          "name": "_owner",
          "type": "address"
        },
        {
          "internalType": "address",
          "name": "_tokenAddress",
          "type": "address"
        },
        {
          "internalType": "address[]",
          "name": "_nominee",
          "type": "address[]"
        },
        {
          "internalType": "uint256",
          "name": "index",
          "type": "uint256"
        }
      ],
      "name": "processAfterAssignedMultiple",
      "outputs": [],
      "stateMutability": "nonpayable",
      "type": "function"
    },
    {
      "inputs": [
        {
          "internalType": "address",
          "name": "_owner",
          "type": "address"
        },
        {
          "internalType": "address",
          "name": "_nominee",
          "type": "address"
        },
        {
          "internalType": "address",
          "name": "_tokenAddress",
          "type": "address"
        }
      ],
      "name": "removeAssignedPriorityNomineeAddressToToken",
      "outputs": [],
      "stateMutability": "nonpayable",
      "type": "function"
    },
    {
      "inputs": [],
      "name": "renounceOwnership",
      "outputs": [],
      "stateMutability": "nonpayable",
      "type": "function"
    },
    {
      "inputs": [
        {
          "internalType": "address",
          "name": "_owner",
          "type": "address"
        }
      ],
      "name": "setOwnerNotAlive",
      "outputs": [],
      "stateMutability": "nonpayable",
      "type": "function"
    },
    {
      "inputs": [
        {
          "internalType": "address",
          "name": "_owner",
          "type": "address"
        },
        {
          "internalType": "bool",
          "name": "_response",
          "type": "bool"
        }
      ],
      "name": "setResponse",
      "outputs": [],
      "stateMutability": "nonpayable",
      "type": "function"
    },
    {
      "inputs": [
        {
          "internalType": "address",
          "name": "_owner",
          "type": "address"
        },
        {
          "internalType": "string",
          "name": "_date",
          "type": "string"
        }
      ],
      "name": "setResponseDate",
      "outputs": [],
      "stateMutability": "nonpayable",
      "type": "function"
    },
    {
      "inputs": [
        {
          "internalType": "address",
          "name": "_owner",
          "type": "address"
        },
        {
          "internalType": "uint256",
          "name": "_charityId",
          "type": "uint256"
        }
      ],
      "name": "setWhiteListedCharities",
      "outputs": [],
      "stateMutability": "nonpayable",
      "type": "function"
    },
    {
      "inputs": [
        {
          "internalType": "address",
          "name": "",
          "type": "address"
        },
        {
          "internalType": "address",
          "name": "",
          "type": "address"
        }
      ],
      "name": "tokenAddressToTokenStruct",
      "outputs": [
        {
          "internalType": "address",
          "name": "token_address",
          "type": "address"
        },
        {
          "internalType": "string",
          "name": "token_name",
          "type": "string"
        },
        {
          "internalType": "uint256",
          "name": "allocated_share",
          "type": "uint256"
        },
        {
          "internalType": "bool",
          "name": "isNominated",
          "type": "bool"
        }
      ],
      "stateMutability": "view",
      "type": "function"
    },
    {
      "inputs": [
        {
          "internalType": "address",
          "name": "newOwner",
          "type": "address"
        }
      ],
      "name": "transferOwnership",
      "outputs": [],
      "stateMutability": "nonpayable",
      "type": "function"
    },
    {
      "inputs": [
        {
          "internalType": "address",
          "name": "_owner",
          "type": "address"
        },
        {
          "internalType": "address",
          "name": "_tokenAddress",
          "type": "address"
        },
        {
          "internalType": "uint256",
          "name": "amount",
          "type": "uint256"
        }
      ],
      "name": "updateAllocatedShare",
      "outputs": [],
      "stateMutability": "nonpayable",
      "type": "function"
    },
    {
      "inputs": [
        {
          "internalType": "address",
          "name": "_owner",
          "type": "address"
        }
      ],
      "name": "verifyOwnerEmail",
      "outputs": [],
      "stateMutability": "nonpayable",
      "type": "function"
    }
  ],
  "bytecode": "0x60806040523480156200001157600080fd5b5062000032620000266200003860201b60201c565b6200004060201b60201c565b62000104565b600033905090565b60008060009054906101000a900473ffffffffffffffffffffffffffffffffffffffff169050816000806101000a81548173ffffffffffffffffffffffffffffffffffffffff021916908373ffffffffffffffffffffffffffffffffffffffff1602179055508173ffffffffffffffffffffffffffffffffffffffff168173ffffffffffffffffffffffffffffffffffffffff167f8be0079c531659141344cd1fd0a4f28419497f9722a3daafe3b4186f6b6457e060405160405180910390a35050565b61473d80620001146000396000f3fe608060405234801561001057600080fd5b50600436106102535760003560e01c80638258d02111610146578063bece9968116100c3578063db23f9f311610087578063db23f9f3146107a3578063de508c5b146107c1578063e62d4f7c146107f4578063e9c1555514610824578063f2fde38b14610840578063f80097851461085c57610253565b8063bece9968146106da578063c3bb8121146106f6578063cb144b3914610726578063cf751c4414610742578063d152fd8f1461077357610253565b806392f820481161010a57806392f8204814610638578063a0e67e2b14610654578063a5394b3914610672578063a60724451461068e578063baab9797146106aa57610253565b80638258d021146105825780638da5cb5b1461059e5780638dde3dc4146105bc5780638e5d2099146105d85780638f25dac91461060857610253565b80633d06305b116101d45780635a863c11116101985780635a863c11146104b55780636199997f146104e85780636a5e893814610518578063715018a61461054857806376f0ffc61461055257610253565b80633d06305b146103d9578063433a05b0146104095780634950956e14610439578063511865e91461046957806354add3e71461049957610253565b8063203e58541161021b578063203e58541461031157806320ff42601461032d5780632358fd071461035d57806329ce480e1461038d578063348f0a93146103bd57610253565b8063025e7c271461025857806306d1681d146102885780630a507825146102a4578063159305e1146102c05780631e83409a146102f5575b600080fd5b610272600480360381019061026d919061322f565b61088c565b60405161027f919061329d565b60405180910390f35b6102a2600480360381019061029d91906132e4565b6108cb565b005b6102be60048036038101906102b9919061346a565b610a4d565b005b6102da60048036038101906102d591906132e4565b610dc5565b6040516102ec96959493929190613587565b60405180910390f35b61030f600480360381019061030a91906132e4565b610fd3565b005b61032b600480360381019061032691906136b2565b611031565b005b61034760048036038101906103429190613735565b611177565b604051610354919061329d565b60405180910390f35b61037760048036038101906103729190613788565b6111d2565b60405161038491906137db565b60405180910390f35b6103a760048036038101906103a291906137f6565b6112a4565b6040516103b491906138f4565b60405180910390f35b6103d760048036038101906103d29190613916565b6113af565b005b6103f360048036038101906103ee91906137f6565b61141c565b60405161040091906138f4565b60405180910390f35b610423600480360381019061041e91906132e4565b611527565b60405161043091906137db565b60405180910390f35b610453600480360381019061044e91906132e4565b611580565b6040516104609190613a19565b60405180910390f35b610483600480360381019061047e91906132e4565b61176e565b604051610490919061329d565b60405180910390f35b6104b360048036038101906104ae9190613a3b565b6117da565b005b6104cf60048036038101906104ca91906132e4565b611836565b6040516104df9493929190613a97565b60405180910390f35b61050260048036038101906104fd91906132e4565b6119a3565b60405161050f91906137db565b60405180910390f35b610532600480360381019061052d91906132e4565b6119fc565b60405161053f9190613aea565b60405180910390f35b610550611ad0565b005b61056c600480360381019061056791906132e4565b611ae4565b60405161057991906137db565b60405180910390f35b61059c60048036038101906105979190613b0c565b611b04565b005b6105a6611df7565b6040516105b3919061329d565b60405180910390f35b6105d660048036038101906105d19190613788565b611e20565b005b6105f260048036038101906105ed91906137f6565b611ef7565b6040516105ff91906137db565b60405180910390f35b610622600480360381019061061d9190613788565b611f8e565b60405161062f91906137db565b60405180910390f35b610652600480360381019061064d9190613bb3565b611fca565b005b61065c61237e565b60405161066991906138f4565b60405180910390f35b61068c600480360381019061068791906132e4565b61240c565b005b6106a860048036038101906106a39190613c92565b612472565b005b6106c460048036038101906106bf91906132e4565b6124d0565b6040516106d191906137db565b60405180910390f35b6106f460048036038101906106ef91906137f6565b612529565b005b610710600480360381019061070b91906132e4565b6125ae565b60405161071d9190613ecb565b60405180910390f35b610740600480360381019061073b9190613eed565b612930565b005b61075c600480360381019061075791906132e4565b612b73565b60405161076a929190613f78565b60405180910390f35b61078d60048036038101906107889190613735565b612c2c565b60405161079a919061329d565b60405180910390f35b6107ab612c87565b6040516107b89190613fb7565b60405180910390f35b6107db60048036038101906107d691906137f6565b612c94565b6040516107eb9493929190613fd2565b60405180910390f35b61080e600480360381019061080991906132e4565b612d86565b60405161081b919061408d565b60405180910390f35b61083e60048036038101906108399190613735565b612e20565b005b61085a600480360381019061085591906132e4565b612ea9565b005b610876600480360381019061087191906132e4565b612f2c565b60405161088391906138f4565b60405180910390f35b6001818154811061089c57600080fd5b906000526020600020016000915054906101000a900473ffffffffffffffffffffffffffffffffffffffff1681565b6108d3612ffc565b600260008273ffffffffffffffffffffffffffffffffffffffff1673ffffffffffffffffffffffffffffffffffffffff16815260200190815260200160002060009054906101000a900460ff1661095f576040517f08c379a0000000000000000000000000000000000000000000000000000000008152600401610956906140fb565b60405180910390fd5b600360008273ffffffffffffffffffffffffffffffffffffffff1673ffffffffffffffffffffffffffffffffffffffff16815260200190815260200160002060030160009054906101000a900460ff16156109ef576040517f08c379a00000000000000000000000000000000000000000000000000000000081526004016109e690614167565b60405180910390fd5b6001600360008373ffffffffffffffffffffffffffffffffffffffff1673ffffffffffffffffffffffffffffffffffffffff16815260200190815260200160002060030160006101000a81548160ff02191690831515021790555050565b600660008573ffffffffffffffffffffffffffffffffffffffff1673ffffffffffffffffffffffffffffffffffffffff16815260200190815260200160002060008473ffffffffffffffffffffffffffffffffffffffff1673ffffffffffffffffffffffffffffffffffffffff168152602001908152602001600020828281518110610adc57610adb614187565b5b60200260200101519080600181540180825580915050600190039060005260206000200160009091909190916101000a81548173ffffffffffffffffffffffffffffffffffffffff021916908373ffffffffffffffffffffffffffffffffffffffff160217905550600760008573ffffffffffffffffffffffffffffffffffffffff1673ffffffffffffffffffffffffffffffffffffffff1681526020019081526020016000206000838381518110610b9857610b97614187565b5b602002602001015173ffffffffffffffffffffffffffffffffffffffff1673ffffffffffffffffffffffffffffffffffffffff168152602001908152602001600020839080600181540180825580915050600190039060005260206000200160009091909190916101000a81548173ffffffffffffffffffffffffffffffffffffffff021916908373ffffffffffffffffffffffffffffffffffffffff1602179055506001600860008673ffffffffffffffffffffffffffffffffffffffff1673ffffffffffffffffffffffffffffffffffffffff1681526020019081526020016000206000848481518110610c9157610c90614187565b5b602002602001015173ffffffffffffffffffffffffffffffffffffffff1673ffffffffffffffffffffffffffffffffffffffff16815260200190815260200160002060008573ffffffffffffffffffffffffffffffffffffffff1673ffffffffffffffffffffffffffffffffffffffff16815260200190815260200160002060006101000a81548160ff0219169083151502179055506001600560008673ffffffffffffffffffffffffffffffffffffffff1673ffffffffffffffffffffffffffffffffffffffff16815260200190815260200160002060008573ffffffffffffffffffffffffffffffffffffffff1673ffffffffffffffffffffffffffffffffffffffff16815260200190815260200160002060030160006101000a81548160ff02191690831515021790555050505050565b6003602052806000526040600020600091509050806000018054610de8906141e5565b80601f0160208091040260200160405190810160405280929190818152602001828054610e14906141e5565b8015610e615780601f10610e3657610100808354040283529160200191610e61565b820191906000526020600020905b815481529060010190602001808311610e4457829003601f168201915b505050505090806001018054610e76906141e5565b80601f0160208091040260200160405190810160405280929190818152602001828054610ea2906141e5565b8015610eef5780601f10610ec457610100808354040283529160200191610eef565b820191906000526020600020905b815481529060010190602001808311610ed257829003601f168201915b505050505090806002018054610f04906141e5565b80601f0160208091040260200160405190810160405280929190818152602001828054610f30906141e5565b8015610f7d5780601f10610f5257610100808354040283529160200191610f7d565b820191906000526020600020905b815481529060010190602001808311610f6057829003601f168201915b5050505050908060030160009054906101000a900460ff16908060030160019054906101000a900460ff16908060030160029054906101000a900473ffffffffffffffffffffffffffffffffffffffff16905086565b6001600460008373ffffffffffffffffffffffffffffffffffffffff1673ffffffffffffffffffffffffffffffffffffffff16815260200190815260200160002060020160146101000a81548160ff02191690831515021790555050565b60405180608001604052808473ffffffffffffffffffffffffffffffffffffffff16815260200183815260200182815260200160011515815250600560008673ffffffffffffffffffffffffffffffffffffffff1673ffffffffffffffffffffffffffffffffffffffff16815260200190815260200160002060008573ffffffffffffffffffffffffffffffffffffffff1673ffffffffffffffffffffffffffffffffffffffff16815260200190815260200160002060008201518160000160006101000a81548173ffffffffffffffffffffffffffffffffffffffff021916908373ffffffffffffffffffffffffffffffffffffffff160217905550602082015181600101908161114391906143c2565b506040820151816002015560608201518160030160006101000a81548160ff02191690831515021790555090505050505050565b6006602052826000526040600020602052816000526040600020818154811061119f57600080fd5b90600052602060002001600092509250509054906101000a900473ffffffffffffffffffffffffffffffffffffffff1681565b6000600860008573ffffffffffffffffffffffffffffffffffffffff1673ffffffffffffffffffffffffffffffffffffffff16815260200190815260200160002060008473ffffffffffffffffffffffffffffffffffffffff1673ffffffffffffffffffffffffffffffffffffffff16815260200190815260200160002060008373ffffffffffffffffffffffffffffffffffffffff1673ffffffffffffffffffffffffffffffffffffffff16815260200190815260200160002060009054906101000a900460ff1690509392505050565b6060600660008473ffffffffffffffffffffffffffffffffffffffff1673ffffffffffffffffffffffffffffffffffffffff16815260200190815260200160002060008373ffffffffffffffffffffffffffffffffffffffff1673ffffffffffffffffffffffffffffffffffffffff1681526020019081526020016000208054806020026020016040519081016040528092919081815260200182805480156113a257602002820191906000526020600020905b8160009054906101000a900473ffffffffffffffffffffffffffffffffffffffff1673ffffffffffffffffffffffffffffffffffffffff1681526020019060010190808311611358575b5050505050905092915050565b600360008373ffffffffffffffffffffffffffffffffffffffff1673ffffffffffffffffffffffffffffffffffffffff1681526020019081526020016000206005018190806001815401808255809150506001900390600052602060002001600090919091909150555050565b6060600760008473ffffffffffffffffffffffffffffffffffffffff1673ffffffffffffffffffffffffffffffffffffffff16815260200190815260200160002060008373ffffffffffffffffffffffffffffffffffffffff1673ffffffffffffffffffffffffffffffffffffffff16815260200190815260200160002080548060200260200160405190810160405280929190818152602001828054801561151a57602002820191906000526020600020905b8160009054906101000a900473ffffffffffffffffffffffffffffffffffffffff1673ffffffffffffffffffffffffffffffffffffffff16815260200190600101908083116114d0575b5050505050905092915050565b6000600960008373ffffffffffffffffffffffffffffffffffffffff1673ffffffffffffffffffffffffffffffffffffffff16815260200190815260200160002060010160009054906101000a900460ff169050919050565b611588613146565b600460008373ffffffffffffffffffffffffffffffffffffffff1673ffffffffffffffffffffffffffffffffffffffff1681526020019081526020016000206040518060800160405290816000820180546115e2906141e5565b80601f016020809104026020016040519081016040528092919081815260200182805461160e906141e5565b801561165b5780601f106116305761010080835404028352916020019161165b565b820191906000526020600020905b81548152906001019060200180831161163e57829003601f168201915b50505050508152602001600182018054611674906141e5565b80601f01602080910402602001604051908101604052809291908181526020018280546116a0906141e5565b80156116ed5780601f106116c2576101008083540402835291602001916116ed565b820191906000526020600020905b8154815290600101906020018083116116d057829003601f168201915b505050505081526020016002820160009054906101000a900473ffffffffffffffffffffffffffffffffffffffff1673ffffffffffffffffffffffffffffffffffffffff1673ffffffffffffffffffffffffffffffffffffffff1681526020016002820160149054906101000a900460ff1615151515815250509050919050565b6000600360008373ffffffffffffffffffffffffffffffffffffffff1673ffffffffffffffffffffffffffffffffffffffff16815260200190815260200160002060030160029054906101000a900473ffffffffffffffffffffffffffffffffffffffff169050919050565b6117e2612ffc565b80600960008473ffffffffffffffffffffffffffffffffffffffff1673ffffffffffffffffffffffffffffffffffffffff168152602001908152602001600020600001908161183191906143c2565b505050565b6004602052806000526040600020600091509050806000018054611859906141e5565b80601f0160208091040260200160405190810160405280929190818152602001828054611885906141e5565b80156118d25780601f106118a7576101008083540402835291602001916118d2565b820191906000526020600020905b8154815290600101906020018083116118b557829003601f168201915b5050505050908060010180546118e7906141e5565b80601f0160208091040260200160405190810160405280929190818152602001828054611913906141e5565b80156119605780601f1061193557610100808354040283529160200191611960565b820191906000526020600020905b81548152906001019060200180831161194357829003601f168201915b5050505050908060020160009054906101000a900473ffffffffffffffffffffffffffffffffffffffff16908060020160149054906101000a900460ff16905084565b6000600360008373ffffffffffffffffffffffffffffffffffffffff1673ffffffffffffffffffffffffffffffffffffffff16815260200190815260200160002060030160019054906101000a900460ff169050919050565b6060600960008373ffffffffffffffffffffffffffffffffffffffff1673ffffffffffffffffffffffffffffffffffffffff1681526020019081526020016000206000018054611a4b906141e5565b80601f0160208091040260200160405190810160405280929190818152602001828054611a77906141e5565b8015611ac45780601f10611a9957610100808354040283529160200191611ac4565b820191906000526020600020905b815481529060010190602001808311611aa757829003601f168201915b50505050509050919050565b611ad8612ffc565b611ae2600061307a565b565b60026020528060005260406000206000915054906101000a900460ff1681565b600260003373ffffffffffffffffffffffffffffffffffffffff1673ffffffffffffffffffffffffffffffffffffffff16815260200190815260200160002060009054906101000a900460ff1615611b91576040517f08c379a0000000000000000000000000000000000000000000000000000000008152600401611b88906144e0565b60405180910390fd5b6001339080600181540180825580915050600190039060005260206000200160009091909190916101000a81548173ffffffffffffffffffffffffffffffffffffffff021916908373ffffffffffffffffffffffffffffffffffffffff16021790555082600360003373ffffffffffffffffffffffffffffffffffffffff1673ffffffffffffffffffffffffffffffffffffffff1681526020019081526020016000206000019081611c4391906143c2565b5081600360003373ffffffffffffffffffffffffffffffffffffffff1673ffffffffffffffffffffffffffffffffffffffff1681526020019081526020016000206001019081611c9391906143c2565b5080600360003373ffffffffffffffffffffffffffffffffffffffff1673ffffffffffffffffffffffffffffffffffffffff1681526020019081526020016000206002019081611ce391906143c2565b506000600360003373ffffffffffffffffffffffffffffffffffffffff1673ffffffffffffffffffffffffffffffffffffffff16815260200190815260200160002060030160006101000a81548160ff0219169083151502179055506001600360003373ffffffffffffffffffffffffffffffffffffffff1673ffffffffffffffffffffffffffffffffffffffff16815260200190815260200160002060030160016101000a81548160ff0219169083151502179055506001600260003373ffffffffffffffffffffffffffffffffffffffff1673ffffffffffffffffffffffffffffffffffffffff16815260200190815260200160002060006101000a81548160ff021916908315150217905550505050565b60008060009054906101000a900473ffffffffffffffffffffffffffffffffffffffff16905090565b6000600860008573ffffffffffffffffffffffffffffffffffffffff1673ffffffffffffffffffffffffffffffffffffffff16815260200190815260200160002060008473ffffffffffffffffffffffffffffffffffffffff1673ffffffffffffffffffffffffffffffffffffffff16815260200190815260200160002060008373ffffffffffffffffffffffffffffffffffffffff1673ffffffffffffffffffffffffffffffffffffffff16815260200190815260200160002060006101000a81548160ff021916908315150217905550505050565b6000600560008473ffffffffffffffffffffffffffffffffffffffff1673ffffffffffffffffffffffffffffffffffffffff16815260200190815260200160002060008373ffffffffffffffffffffffffffffffffffffffff1673ffffffffffffffffffffffffffffffffffffffff16815260200190815260200160002060030160009054906101000a900460ff16905092915050565b6008602052826000526040600020602052816000526040600020602052806000526040600020600092509250509054906101000a900460ff1681565b8073ffffffffffffffffffffffffffffffffffffffff168473ffffffffffffffffffffffffffffffffffffffff16036120a25782600460008673ffffffffffffffffffffffffffffffffffffffff1673ffffffffffffffffffffffffffffffffffffffff168152602001908152602001600020600001908161204c91906143c2565b5081600460008673ffffffffffffffffffffffffffffffffffffffff1673ffffffffffffffffffffffffffffffffffffffff168152602001908152602001600020600101908161209c91906143c2565b50612377565b82600460008373ffffffffffffffffffffffffffffffffffffffff1673ffffffffffffffffffffffffffffffffffffffff16815260200190815260200160002060000190816120f191906143c2565b5081600460008373ffffffffffffffffffffffffffffffffffffffff1673ffffffffffffffffffffffffffffffffffffffff168152602001908152602001600020600101908161214191906143c2565b5080600460008373ffffffffffffffffffffffffffffffffffffffff1673ffffffffffffffffffffffffffffffffffffffff16815260200190815260200160002060020160006101000a81548173ffffffffffffffffffffffffffffffffffffffff021916908373ffffffffffffffffffffffffffffffffffffffff16021790555060005b600360008773ffffffffffffffffffffffffffffffffffffffff1673ffffffffffffffffffffffffffffffffffffffff16815260200190815260200160002060040180549050811015612375578473ffffffffffffffffffffffffffffffffffffffff16600360008873ffffffffffffffffffffffffffffffffffffffff1673ffffffffffffffffffffffffffffffffffffffff168152602001908152602001600020600401828154811061227e5761227d614187565b5b9060005260206000200160009054906101000a900473ffffffffffffffffffffffffffffffffffffffff1673ffffffffffffffffffffffffffffffffffffffff16036123625781600360008873ffffffffffffffffffffffffffffffffffffffff1673ffffffffffffffffffffffffffffffffffffffff168152602001908152602001600020600401828154811061231957612318614187565b5b9060005260206000200160006101000a81548173ffffffffffffffffffffffffffffffffffffffff021916908373ffffffffffffffffffffffffffffffffffffffff1602179055505b808061236d9061452f565b9150506121c6565b505b5050505050565b6060600180548060200260200160405190810160405280929190818152602001828054801561240257602002820191906000526020600020905b8160009054906101000a900473ffffffffffffffffffffffffffffffffffffffff1673ffffffffffffffffffffffffffffffffffffffff16815260200190600101908083116123b8575b5050505050905090565b612414612ffc565b6000600360008373ffffffffffffffffffffffffffffffffffffffff1673ffffffffffffffffffffffffffffffffffffffff16815260200190815260200160002060030160016101000a81548160ff02191690831515021790555050565b80600960008473ffffffffffffffffffffffffffffffffffffffff1673ffffffffffffffffffffffffffffffffffffffff16815260200190815260200160002060010160006101000a81548160ff0219169083151502179055505050565b6000600360008373ffffffffffffffffffffffffffffffffffffffff1673ffffffffffffffffffffffffffffffffffffffff16815260200190815260200160002060030160009054906101000a900460ff169050919050565b80600360008473ffffffffffffffffffffffffffffffffffffffff1673ffffffffffffffffffffffffffffffffffffffff16815260200190815260200160002060030160026101000a81548173ffffffffffffffffffffffffffffffffffffffff021916908373ffffffffffffffffffffffffffffffffffffffff1602179055505050565b6125b6613186565b600360008373ffffffffffffffffffffffffffffffffffffffff1673ffffffffffffffffffffffffffffffffffffffff16815260200190815260200160002060405180610100016040529081600082018054612611906141e5565b80601f016020809104026020016040519081016040528092919081815260200182805461263d906141e5565b801561268a5780601f1061265f5761010080835404028352916020019161268a565b820191906000526020600020905b81548152906001019060200180831161266d57829003601f168201915b505050505081526020016001820180546126a3906141e5565b80601f01602080910402602001604051908101604052809291908181526020018280546126cf906141e5565b801561271c5780601f106126f15761010080835404028352916020019161271c565b820191906000526020600020905b8154815290600101906020018083116126ff57829003601f168201915b50505050508152602001600282018054612735906141e5565b80601f0160208091040260200160405190810160405280929190818152602001828054612761906141e5565b80156127ae5780601f10612783576101008083540402835291602001916127ae565b820191906000526020600020905b81548152906001019060200180831161279157829003601f168201915b505050505081526020016003820160009054906101000a900460ff161515151581526020016003820160019054906101000a900460ff161515151581526020016003820160029054906101000a900473ffffffffffffffffffffffffffffffffffffffff1673ffffffffffffffffffffffffffffffffffffffff1673ffffffffffffffffffffffffffffffffffffffff168152602001600482018054806020026020016040519081016040528092919081815260200182805480156128c857602002820191906000526020600020905b8160009054906101000a900473ffffffffffffffffffffffffffffffffffffffff1673ffffffffffffffffffffffffffffffffffffffff168152602001906001019080831161287e575b505050505081526020016005820180548060200260200160405190810160405280929190818152602001828054801561292057602002820191906000526020600020905b81548152602001906001019080831161290c575b5050505050815250509050919050565b600260003373ffffffffffffffffffffffffffffffffffffffff1673ffffffffffffffffffffffffffffffffffffffff16815260200190815260200160002060009054906101000a900460ff166129bc576040517f08c379a00000000000000000000000000000000000000000000000000000000081526004016129b3906145e9565b60405180910390fd5b60405180608001604052808481526020018381526020018273ffffffffffffffffffffffffffffffffffffffff16815260200160001515815250600460008373ffffffffffffffffffffffffffffffffffffffff1673ffffffffffffffffffffffffffffffffffffffff1681526020019081526020016000206000820151816000019081612a4a91906143c2565b506020820151816001019081612a6091906143c2565b5060408201518160020160006101000a81548173ffffffffffffffffffffffffffffffffffffffff021916908373ffffffffffffffffffffffffffffffffffffffff16021790555060608201518160020160146101000a81548160ff021916908315150217905550905050600360003373ffffffffffffffffffffffffffffffffffffffff1673ffffffffffffffffffffffffffffffffffffffff168152602001908152602001600020600401819080600181540180825580915050600190039060005260206000200160009091909190916101000a81548173ffffffffffffffffffffffffffffffffffffffff021916908373ffffffffffffffffffffffffffffffffffffffff160217905550505050565b6009602052806000526040600020600091509050806000018054612b96906141e5565b80601f0160208091040260200160405190810160405280929190818152602001828054612bc2906141e5565b8015612c0f5780601f10612be457610100808354040283529160200191612c0f565b820191906000526020600020905b815481529060010190602001808311612bf257829003601f168201915b5050505050908060010160009054906101000a900460ff16905082565b60076020528260005260406000206020528160005260406000208181548110612c5457600080fd5b90600052602060002001600092509250509054906101000a900473ffffffffffffffffffffffffffffffffffffffff1681565b6000600180549050905090565b6005602052816000526040600020602052806000526040600020600091509150508060000160009054906101000a900473ffffffffffffffffffffffffffffffffffffffff1690806001018054612cea906141e5565b80601f0160208091040260200160405190810160405280929190818152602001828054612d16906141e5565b8015612d635780601f10612d3857610100808354040283529160200191612d63565b820191906000526020600020905b815481529060010190602001808311612d4657829003601f168201915b5050505050908060020154908060030160009054906101000a900460ff16905084565b6060600360008373ffffffffffffffffffffffffffffffffffffffff1673ffffffffffffffffffffffffffffffffffffffff168152602001908152602001600020600501805480602002602001604051908101604052809291908181526020018280548015612e1457602002820191906000526020600020905b815481526020019060010190808311612e00575b50505050509050919050565b80600560008573ffffffffffffffffffffffffffffffffffffffff1673ffffffffffffffffffffffffffffffffffffffff16815260200190815260200160002060008473ffffffffffffffffffffffffffffffffffffffff1673ffffffffffffffffffffffffffffffffffffffff16815260200190815260200160002060020181905550505050565b612eb1612ffc565b600073ffffffffffffffffffffffffffffffffffffffff168173ffffffffffffffffffffffffffffffffffffffff1603612f20576040517f08c379a0000000000000000000000000000000000000000000000000000000008152600401612f179061467b565b60405180910390fd5b612f298161307a565b50565b6060600360008373ffffffffffffffffffffffffffffffffffffffff1673ffffffffffffffffffffffffffffffffffffffff168152602001908152602001600020600401805480602002602001604051908101604052809291908181526020018280548015612ff057602002820191906000526020600020905b8160009054906101000a900473ffffffffffffffffffffffffffffffffffffffff1673ffffffffffffffffffffffffffffffffffffffff1681526020019060010190808311612fa6575b50505050509050919050565b61300461313e565b73ffffffffffffffffffffffffffffffffffffffff16613022611df7565b73ffffffffffffffffffffffffffffffffffffffff1614613078576040517f08c379a000000000000000000000000000000000000000000000000000000000815260040161306f906146e7565b60405180910390fd5b565b60008060009054906101000a900473ffffffffffffffffffffffffffffffffffffffff169050816000806101000a81548173ffffffffffffffffffffffffffffffffffffffff021916908373ffffffffffffffffffffffffffffffffffffffff1602179055508173ffffffffffffffffffffffffffffffffffffffff168173ffffffffffffffffffffffffffffffffffffffff167f8be0079c531659141344cd1fd0a4f28419497f9722a3daafe3b4186f6b6457e060405160405180910390a35050565b600033905090565b60405180608001604052806060815260200160608152602001600073ffffffffffffffffffffffffffffffffffffffff1681526020016000151581525090565b604051806101000160405280606081526020016060815260200160608152602001600015158152602001600015158152602001600073ffffffffffffffffffffffffffffffffffffffff16815260200160608152602001606081525090565b6000604051905090565b600080fd5b600080fd5b6000819050919050565b61320c816131f9565b811461321757600080fd5b50565b60008135905061322981613203565b92915050565b600060208284031215613245576132446131ef565b5b60006132538482850161321a565b91505092915050565b600073ffffffffffffffffffffffffffffffffffffffff82169050919050565b60006132878261325c565b9050919050565b6132978161327c565b82525050565b60006020820190506132b2600083018461328e565b92915050565b6132c18161327c565b81146132cc57600080fd5b50565b6000813590506132de816132b8565b92915050565b6000602082840312156132fa576132f96131ef565b5b6000613308848285016132cf565b91505092915050565b600080fd5b6000601f19601f8301169050919050565b7f4e487b7100000000000000000000000000000000000000000000000000000000600052604160045260246000fd5b61335f82613316565b810181811067ffffffffffffffff8211171561337e5761337d613327565b5b80604052505050565b60006133916131e5565b905061339d8282613356565b919050565b600067ffffffffffffffff8211156133bd576133bc613327565b5b602082029050602081019050919050565b600080fd5b60006133e66133e1846133a2565b613387565b90508083825260208201905060208402830185811115613409576134086133ce565b5b835b81811015613432578061341e88826132cf565b84526020840193505060208101905061340b565b5050509392505050565b600082601f83011261345157613450613311565b5b81356134618482602086016133d3565b91505092915050565b60008060008060808587031215613484576134836131ef565b5b6000613492878288016132cf565b94505060206134a3878288016132cf565b935050604085013567ffffffffffffffff8111156134c4576134c36131f4565b5b6134d08782880161343c565b92505060606134e18782880161321a565b91505092959194509250565b600081519050919050565b600082825260208201905092915050565b60005b8381101561352757808201518184015260208101905061350c565b60008484015250505050565b600061353e826134ed565b61354881856134f8565b9350613558818560208601613509565b61356181613316565b840191505092915050565b60008115159050919050565b6135818161356c565b82525050565b600060c08201905081810360008301526135a18189613533565b905081810360208301526135b58188613533565b905081810360408301526135c98187613533565b90506135d86060830186613578565b6135e56080830185613578565b6135f260a083018461328e565b979650505050505050565b600080fd5b600067ffffffffffffffff82111561361d5761361c613327565b5b61362682613316565b9050602081019050919050565b82818337600083830152505050565b600061365561365084613602565b613387565b905082815260208101848484011115613671576136706135fd565b5b61367c848285613633565b509392505050565b600082601f83011261369957613698613311565b5b81356136a9848260208601613642565b91505092915050565b600080600080608085870312156136cc576136cb6131ef565b5b60006136da878288016132cf565b94505060206136eb878288016132cf565b935050604085013567ffffffffffffffff81111561370c5761370b6131f4565b5b61371887828801613684565b92505060606137298782880161321a565b91505092959194509250565b60008060006060848603121561374e5761374d6131ef565b5b600061375c868287016132cf565b935050602061376d868287016132cf565b925050604061377e8682870161321a565b9150509250925092565b6000806000606084860312156137a1576137a06131ef565b5b60006137af868287016132cf565b93505060206137c0868287016132cf565b92505060406137d1868287016132cf565b9150509250925092565b60006020820190506137f06000830184613578565b92915050565b6000806040838503121561380d5761380c6131ef565b5b600061381b858286016132cf565b925050602061382c858286016132cf565b9150509250929050565b600081519050919050565b600082825260208201905092915050565b6000819050602082019050919050565b61386b8161327c565b82525050565b600061387d8383613862565b60208301905092915050565b6000602082019050919050565b60006138a182613836565b6138ab8185613841565b93506138b683613852565b8060005b838110156138e75781516138ce8882613871565b97506138d983613889565b9250506001810190506138ba565b5085935050505092915050565b6000602082019050818103600083015261390e8184613896565b905092915050565b6000806040838503121561392d5761392c6131ef565b5b600061393b858286016132cf565b925050602061394c8582860161321a565b9150509250929050565b600082825260208201905092915050565b6000613972826134ed565b61397c8185613956565b935061398c818560208601613509565b61399581613316565b840191505092915050565b6139a98161356c565b82525050565b600060808301600083015184820360008601526139cc8282613967565b915050602083015184820360208601526139e68282613967565b91505060408301516139fb6040860182613862565b506060830151613a0e60608601826139a0565b508091505092915050565b60006020820190508181036000830152613a3381846139af565b905092915050565b60008060408385031215613a5257613a516131ef565b5b6000613a60858286016132cf565b925050602083013567ffffffffffffffff811115613a8157613a806131f4565b5b613a8d85828601613684565b9150509250929050565b60006080820190508181036000830152613ab18187613533565b90508181036020830152613ac58186613533565b9050613ad4604083018561328e565b613ae16060830184613578565b95945050505050565b60006020820190508181036000830152613b048184613533565b905092915050565b600080600060608486031215613b2557613b246131ef565b5b600084013567ffffffffffffffff811115613b4357613b426131f4565b5b613b4f86828701613684565b935050602084013567ffffffffffffffff811115613b7057613b6f6131f4565b5b613b7c86828701613684565b925050604084013567ffffffffffffffff811115613b9d57613b9c6131f4565b5b613ba986828701613684565b9150509250925092565b600080600080600060a08688031215613bcf57613bce6131ef565b5b6000613bdd888289016132cf565b9550506020613bee888289016132cf565b945050604086013567ffffffffffffffff811115613c0f57613c0e6131f4565b5b613c1b88828901613684565b935050606086013567ffffffffffffffff811115613c3c57613c3b6131f4565b5b613c4888828901613684565b9250506080613c59888289016132cf565b9150509295509295909350565b613c6f8161356c565b8114613c7a57600080fd5b50565b600081359050613c8c81613c66565b92915050565b60008060408385031215613ca957613ca86131ef565b5b6000613cb7858286016132cf565b9250506020613cc885828601613c7d565b9150509250929050565b600082825260208201905092915050565b6000613cee82613836565b613cf88185613cd2565b9350613d0383613852565b8060005b83811015613d34578151613d1b8882613871565b9750613d2683613889565b925050600181019050613d07565b5085935050505092915050565b600081519050919050565b600082825260208201905092915050565b6000819050602082019050919050565b613d76816131f9565b82525050565b6000613d888383613d6d565b60208301905092915050565b6000602082019050919050565b6000613dac82613d41565b613db68185613d4c565b9350613dc183613d5d565b8060005b83811015613df2578151613dd98882613d7c565b9750613de483613d94565b925050600181019050613dc5565b5085935050505092915050565b6000610100830160008301518482036000860152613e1d8282613967565b91505060208301518482036020860152613e378282613967565b91505060408301518482036040860152613e518282613967565b9150506060830151613e6660608601826139a0565b506080830151613e7960808601826139a0565b5060a0830151613e8c60a0860182613862565b5060c083015184820360c0860152613ea48282613ce3565b91505060e083015184820360e0860152613ebe8282613da1565b9150508091505092915050565b60006020820190508181036000830152613ee58184613dff565b905092915050565b600080600060608486031215613f0657613f056131ef565b5b600084013567ffffffffffffffff811115613f2457613f236131f4565b5b613f3086828701613684565b935050602084013567ffffffffffffffff811115613f5157613f506131f4565b5b613f5d86828701613684565b9250506040613f6e868287016132cf565b9150509250925092565b60006040820190508181036000830152613f928185613533565b9050613fa16020830184613578565b9392505050565b613fb1816131f9565b82525050565b6000602082019050613fcc6000830184613fa8565b92915050565b6000608082019050613fe7600083018761328e565b8181036020830152613ff98186613533565b90506140086040830185613fa8565b6140156060830184613578565b95945050505050565b600082825260208201905092915050565b600061403a82613d41565b614044818561401e565b935061404f83613d5d565b8060005b838110156140805781516140678882613d7c565b975061407283613d94565b925050600181019050614053565b5085935050505092915050565b600060208201905081810360008301526140a7818461402f565b905092915050565b7f466972737420646f20726567697374726174696f6e0000000000000000000000600082015250565b60006140e56015836134f8565b91506140f0826140af565b602082019050919050565b60006020820190508181036000830152614114816140d8565b9050919050565b7f416c726561647920796f757220656d61696c2069732076657269666965640000600082015250565b6000614151601e836134f8565b915061415c8261411b565b602082019050919050565b6000602082019050818103600083015261418081614144565b9050919050565b7f4e487b7100000000000000000000000000000000000000000000000000000000600052603260045260246000fd5b7f4e487b7100000000000000000000000000000000000000000000000000000000600052602260045260246000fd5b600060028204905060018216806141fd57607f821691505b6020821081036142105761420f6141b6565b5b50919050565b60008190508160005260206000209050919050565b60006020601f8301049050919050565b600082821b905092915050565b6000600883026142787fffffffffffffffffffffffffffffffffffffffffffffffffffffffffffffffff8261423b565b614282868361423b565b95508019841693508086168417925050509392505050565b6000819050919050565b60006142bf6142ba6142b5846131f9565b61429a565b6131f9565b9050919050565b6000819050919050565b6142d9836142a4565b6142ed6142e5826142c6565b848454614248565b825550505050565b600090565b6143026142f5565b61430d8184846142d0565b505050565b5b81811015614331576143266000826142fa565b600181019050614313565b5050565b601f8211156143765761434781614216565b6143508461422b565b8101602085101561435f578190505b61437361436b8561422b565b830182614312565b50505b505050565b600082821c905092915050565b60006143996000198460080261437b565b1980831691505092915050565b60006143b28383614388565b9150826002028217905092915050565b6143cb826134ed565b67ffffffffffffffff8111156143e4576143e3613327565b5b6143ee82546141e5565b6143f9828285614335565b600060209050601f83116001811461442c576000841561441a578287015190505b61442485826143a6565b86555061448c565b601f19841661443a86614216565b60005b828110156144625784890151825560018201915060208501945060208101905061443d565b8683101561447f578489015161447b601f891682614388565b8355505b6001600288020188555050505b505050505050565b7f416c726561647920726567697374657265640000000000000000000000000000600082015250565b60006144ca6012836134f8565b91506144d582614494565b602082019050919050565b600060208201905081810360008301526144f9816144bd565b9050919050565b7f4e487b7100000000000000000000000000000000000000000000000000000000600052601160045260246000fd5b600061453a826131f9565b91507fffffffffffffffffffffffffffffffffffffffffffffffffffffffffffffffff820361456c5761456b614500565b5b600182019050919050565b7f466972737420726567697374657220616e642076657269667920796f7572206560008201527f6d61696c00000000000000000000000000000000000000000000000000000000602082015250565b60006145d36024836134f8565b91506145de82614577565b604082019050919050565b60006020820190508181036000830152614602816145c6565b9050919050565b7f4f776e61626c653a206e6577206f776e657220697320746865207a65726f206160008201527f6464726573730000000000000000000000000000000000000000000000000000602082015250565b60006146656026836134f8565b915061467082614609565b604082019050919050565b6000602082019050818103600083015261469481614658565b9050919050565b7f4f776e61626c653a2063616c6c6572206973206e6f7420746865206f776e6572600082015250565b60006146d16020836134f8565b91506146dc8261469b565b602082019050919050565b60006020820190508181036000830152614700816146c4565b905091905056fea26469706673582212202d3a321c8399fac96f19af46de7f0039affb804f247ac8e0300219000c7e60cb64736f6c63430008110033",
  "linkReferences": {},
  "deployedLinkReferences": {}
}