{
  "_format": "hh-sol-artifact-1",
  "contractName": "Inheritokens",
  "sourceName": "contracts/Inheritokens.sol",
  "abi": [
    {
      "inputs": [],
      "stateMutability": "nonpayable",
      "type": "constructor"
    },
    {
      "anonymous": false,
      "inputs": [
        {
          "indexed": true,
          "internalType": "address",
          "name": "previousOwner",
          "type": "address"
        },
        {
          "indexed": true,
          "internalType": "address",
          "name": "newOwner",
          "type": "address"
        }
      ],
      "name": "OwnershipTransferred",
      "type": "event"
    },
    {
      "inputs": [
        {
          "internalType": "address",
          "name": "_charityAddress",
          "type": "address"
        },
        {
          "internalType": "string",
          "name": "_charityName",
          "type": "string"
        },
        {
          "internalType": "string",
          "name": "_charityDescription",
          "type": "string"
        },
        {
          "internalType": "string",
          "name": "_charityImage",
          "type": "string"
        }
      ],
      "name": "addCharity",
      "outputs": [],
      "stateMutability": "nonpayable",
      "type": "function"
    },
    {
      "inputs": [
        {
          "internalType": "string",
          "name": "name",
          "type": "string"
        },
        {
          "internalType": "string",
          "name": "email",
          "type": "string"
        },
        {
          "internalType": "address",
          "name": "nominee_address",
          "type": "address"
        }
      ],
      "name": "addNomineesDetails",
      "outputs": [],
      "stateMutability": "nonpayable",
      "type": "function"
    },
    {
      "inputs": [
        {
          "internalType": "string",
          "name": "name",
          "type": "string"
        },
        {
          "internalType": "string",
          "name": "email",
          "type": "string"
        },
        {
          "internalType": "string",
          "name": "cid",
          "type": "string"
        }
      ],
      "name": "addOwnerDetails",
      "outputs": [],
      "stateMutability": "nonpayable",
      "type": "function"
    },
    {
      "inputs": [
        {
          "internalType": "address",
          "name": "_owner",
          "type": "address"
        },
        {
          "internalType": "address",
          "name": "_recover",
          "type": "address"
        }
      ],
      "name": "addWalletRecovery",
      "outputs": [],
      "stateMutability": "nonpayable",
      "type": "function"
    },
    {
      "inputs": [
        {
          "internalType": "address",
          "name": "",
          "type": "address"
        }
      ],
      "name": "addressToNominee",
      "outputs": [
        {
          "internalType": "string",
          "name": "nominee_name",
          "type": "string"
        },
        {
          "internalType": "string",
          "name": "nominee_email",
          "type": "string"
        },
        {
          "internalType": "address",
          "name": "nominee_address",
          "type": "address"
        },
        {
          "internalType": "bool",
          "name": "hasClaimed",
          "type": "bool"
        }
      ],
      "stateMutability": "view",
      "type": "function"
    },
    {
      "inputs": [
        {
          "internalType": "address",
          "name": "",
          "type": "address"
        }
      ],
      "name": "addressToOwner",
      "outputs": [
        {
          "internalType": "string",
          "name": "owner_name",
          "type": "string"
        },
        {
          "internalType": "string",
          "name": "owner_email",
          "type": "string"
        },
        {
          "internalType": "string",
          "name": "image_cid",
          "type": "string"
        },
        {
          "internalType": "bool",
          "name": "isEmailVerified",
          "type": "bool"
        },
        {
          "internalType": "bool",
          "name": "isAlive",
          "type": "bool"
        }
      ],
      "stateMutability": "view",
      "type": "function"
    },
    {
      "inputs": [
        {
          "internalType": "address",
          "name": "_owner",
          "type": "address"
        },
        {
          "internalType": "address",
          "name": "_nominee",
          "type": "address"
        },
        {
          "internalType": "address",
          "name": "_tokenAddress",
          "type": "address"
        },
        {
          "internalType": "string",
          "name": "_tokenName",
          "type": "string"
        },
        {
          "internalType": "uint256",
          "name": "_share",
          "type": "uint256"
        },
        {
          "internalType": "bool",
          "name": "_isMultipleNominee",
          "type": "bool"
        },
        {
          "internalType": "bool",
          "name": "_isPriorityNominee",
          "type": "bool"
        }
      ],
      "name": "assignTokensToMultipleNominee",
      "outputs": [],
      "stateMutability": "nonpayable",
      "type": "function"
    },
    {
      "inputs": [
        {
          "internalType": "address",
          "name": "_owner",
          "type": "address"
        },
        {
          "internalType": "address",
          "name": "_nominee",
          "type": "address"
        },
        {
          "internalType": "address",
          "name": "_tokenAddress",
          "type": "address"
        },
        {
          "internalType": "string",
          "name": "_tokenName",
          "type": "string"
        },
        {
          "internalType": "bool",
          "name": "_isMultipleNominee",
          "type": "bool"
        },
        {
          "internalType": "bool",
          "name": "_isPriorityNominee",
          "type": "bool"
        }
      ],
      "name": "assignedTokensToPriorityNominee",
      "outputs": [],
      "stateMutability": "nonpayable",
      "type": "function"
    },
    {
      "inputs": [
        {
          "internalType": "address",
          "name": "_owner",
          "type": "address"
        }
      ],
      "name": "checkVerification",
      "outputs": [
        {
          "internalType": "bool",
          "name": "",
          "type": "bool"
        }
      ],
      "stateMutability": "view",
      "type": "function"
    },
    {
      "inputs": [
        {
          "internalType": "address",
          "name": "_nominee",
          "type": "address"
        }
      ],
      "name": "claim",
      "outputs": [],
      "stateMutability": "nonpayable",
      "type": "function"
    },
    {
      "inputs": [
        {
          "internalType": "address",
          "name": "_owner",
          "type": "address"
        },
        {
          "internalType": "address",
          "name": "_oldNominee",
          "type": "address"
        },
        {
          "internalType": "address",
          "name": "_newNominee",
          "type": "address"
        },
        {
          "internalType": "address",
          "name": "_tokenAddress",
          "type": "address"
        }
      ],
      "name": "editAssignedPriorityNomineeAddressToToken",
      "outputs": [],
      "stateMutability": "nonpayable",
      "type": "function"
    },
    {
      "inputs": [
        {
          "internalType": "address",
          "name": "_owner",
          "type": "address"
        },
        {
          "internalType": "address",
          "name": "_nominee",
          "type": "address"
        },
        {
          "internalType": "address",
          "name": "_tokenAddress",
          "type": "address"
        },
        {
          "internalType": "uint256",
          "name": "_oldShare",
          "type": "uint256"
        },
        {
          "internalType": "uint256",
          "name": "_share",
          "type": "uint256"
        },
        {
          "internalType": "bool",
          "name": "_isMultipleNominee",
          "type": "bool"
        }
      ],
      "name": "editAssignedTokensToMultipleNominee",
      "outputs": [],
      "stateMutability": "nonpayable",
      "type": "function"
    },
    {
      "inputs": [
        {
          "internalType": "uint256",
          "name": "_charityId",
          "type": "uint256"
        },
        {
          "internalType": "address",
          "name": "_charityAddress",
          "type": "address"
        },
        {
          "internalType": "string",
          "name": "_charityName",
          "type": "string"
        },
        {
          "internalType": "string",
          "name": "_charityDescription",
          "type": "string"
        },
        {
          "internalType": "string",
          "name": "_charityImage",
          "type": "string"
        }
      ],
      "name": "editCharityDetails",
      "outputs": [],
      "stateMutability": "nonpayable",
      "type": "function"
    },
    {
      "inputs": [
        {
          "internalType": "address",
          "name": "_owner",
          "type": "address"
        },
        {
          "internalType": "address",
          "name": "_oldNomineeAddress",
          "type": "address"
        },
        {
          "internalType": "string",
          "name": "name",
          "type": "string"
        },
        {
          "internalType": "string",
          "name": "email",
          "type": "string"
        },
        {
          "internalType": "address",
          "name": "nominee_address",
          "type": "address"
        }
      ],
      "name": "editNomineeDetails",
      "outputs": [],
      "stateMutability": "nonpayable",
      "type": "function"
    },
    {
      "inputs": [
        {
          "internalType": "address",
          "name": "_owner",
          "type": "address"
        }
      ],
      "name": "getAllNominees",
      "outputs": [
        {
          "internalType": "address[]",
          "name": "",
          "type": "address[]"
        }
      ],
      "stateMutability": "view",
      "type": "function"
    },
    {
      "inputs": [
        {
          "internalType": "address",
          "name": "_owner",
          "type": "address"
        },
        {
          "internalType": "address",
          "name": "_tokenAddress",
          "type": "address"
        }
      ],
      "name": "getAllNomineesAssignedForToken",
      "outputs": [
        {
          "internalType": "address[]",
          "name": "",
          "type": "address[]"
        }
      ],
      "stateMutability": "view",
      "type": "function"
    },
    {
      "inputs": [
        {
          "internalType": "address",
          "name": "_owner",
          "type": "address"
        },
        {
          "internalType": "address",
          "name": "_nominee",
          "type": "address"
        }
      ],
      "name": "getAllTokensNomineeIsNominated",
      "outputs": [
        {
          "internalType": "address[]",
          "name": "",
          "type": "address[]"
        }
      ],
      "stateMutability": "view",
      "type": "function"
    },
    {
      "inputs": [
        {
          "internalType": "address",
          "name": "_owner",
          "type": "address"
        }
      ],
      "name": "getAllWhiteListedCharities",
      "outputs": [
        {
          "internalType": "uint256[]",
          "name": "",
          "type": "uint256[]"
        }
      ],
      "stateMutability": "view",
      "type": "function"
    },
    {
      "inputs": [
        {
          "internalType": "uint256",
          "name": "_charityId",
          "type": "uint256"
        }
      ],
      "name": "getCharityDetailsById",
      "outputs": [
        {
          "components": [
            {
              "internalType": "uint256",
              "name": "id",
              "type": "uint256"
            },
            {
              "internalType": "address",
              "name": "charity_address",
              "type": "address"
            },
            {
              "internalType": "string",
              "name": "charity_name",
              "type": "string"
            },
            {
              "internalType": "string",
              "name": "charity_description",
              "type": "string"
            },
            {
              "internalType": "string",
              "name": "charity_image",
              "type": "string"
            }
          ],
          "internalType": "struct Inheritokens.Charity",
          "name": "",
          "type": "tuple"
        }
      ],
      "stateMutability": "view",
      "type": "function"
    },
    {
      "inputs": [
        {
          "internalType": "address",
          "name": "_owner",
          "type": "address"
        },
        {
          "internalType": "address",
          "name": "_tokenAddress",
          "type": "address"
        }
      ],
      "name": "getIsNominated",
      "outputs": [
        {
          "internalType": "bool",
          "name": "",
          "type": "bool"
        }
      ],
      "stateMutability": "view",
      "type": "function"
    },
    {
      "inputs": [
        {
          "internalType": "address",
          "name": "_nominee",
          "type": "address"
        }
      ],
      "name": "getNomineeDetails",
      "outputs": [
        {
          "components": [
            {
              "internalType": "string",
              "name": "nominee_name",
              "type": "string"
            },
            {
              "internalType": "string",
              "name": "nominee_email",
              "type": "string"
            },
            {
              "internalType": "address",
              "name": "nominee_address",
              "type": "address"
            },
            {
              "internalType": "bool",
              "name": "hasClaimed",
              "type": "bool"
            }
          ],
          "internalType": "struct Inheritokens.Nominee",
          "name": "",
          "type": "tuple"
        }
      ],
      "stateMutability": "view",
      "type": "function"
    },
    {
      "inputs": [
        {
          "internalType": "address",
          "name": "_owner",
          "type": "address"
        },
        {
          "internalType": "address",
          "name": "_nominee",
          "type": "address"
        },
        {
          "internalType": "address",
          "name": "_tokenAddress",
          "type": "address"
        }
      ],
      "name": "getNomineeToTokenRight",
      "outputs": [
        {
          "internalType": "bool",
          "name": "",
          "type": "bool"
        }
      ],
      "stateMutability": "view",
      "type": "function"
    },
    {
      "inputs": [
        {
          "internalType": "address",
          "name": "_owner",
          "type": "address"
        },
        {
          "internalType": "address",
          "name": "_nominee",
          "type": "address"
        },
        {
          "internalType": "address",
          "name": "_tokenAddress",
          "type": "address"
        }
      ],
      "name": "getNomineeToTokenShare",
      "outputs": [
        {
          "internalType": "uint256",
          "name": "",
          "type": "uint256"
        }
      ],
      "stateMutability": "view",
      "type": "function"
    },
    {
      "inputs": [
        {
          "internalType": "address",
          "name": "_owner",
          "type": "address"
        }
      ],
      "name": "getOwnerAlive",
      "outputs": [
        {
          "internalType": "bool",
          "name": "",
          "type": "bool"
        }
      ],
      "stateMutability": "view",
      "type": "function"
    },
    {
      "inputs": [
        {
          "internalType": "address",
          "name": "owner_address",
          "type": "address"
        }
      ],
      "name": "getOwnerDetails",
      "outputs": [
        {
          "components": [
            {
              "internalType": "string",
              "name": "owner_name",
              "type": "string"
            },
            {
              "internalType": "string",
              "name": "owner_email",
              "type": "string"
            },
            {
              "internalType": "string",
              "name": "image_cid",
              "type": "string"
            },
            {
              "internalType": "bool",
              "name": "isEmailVerified",
              "type": "bool"
            },
            {
              "internalType": "bool",
              "name": "isAlive",
              "type": "bool"
            }
          ],
          "internalType": "struct Inheritokens.Owner",
          "name": "",
          "type": "tuple"
        }
      ],
      "stateMutability": "view",
      "type": "function"
    },
    {
      "inputs": [
        {
          "internalType": "address",
          "name": "_owner",
          "type": "address"
        },
        {
          "internalType": "address",
          "name": "_tokenAddress",
          "type": "address"
        }
      ],
      "name": "getOwnerToTokenAddressToPriorityArray",
      "outputs": [
        {
          "internalType": "address[]",
          "name": "",
          "type": "address[]"
        }
      ],
      "stateMutability": "view",
      "type": "function"
    },
    {
      "inputs": [],
      "name": "getOwners",
      "outputs": [
        {
          "internalType": "address[]",
          "name": "",
          "type": "address[]"
        }
      ],
      "stateMutability": "view",
      "type": "function"
    },
    {
      "inputs": [
        {
          "internalType": "address",
          "name": "_owner",
          "type": "address"
        }
      ],
      "name": "getRecoveryAddress",
      "outputs": [
        {
          "internalType": "address",
          "name": "",
          "type": "address"
        }
      ],
      "stateMutability": "view",
      "type": "function"
    },
    {
      "inputs": [
        {
          "internalType": "address",
          "name": "_owner",
          "type": "address"
        }
      ],
      "name": "getResponse",
      "outputs": [
        {
          "internalType": "bool",
          "name": "",
          "type": "bool"
        }
      ],
      "stateMutability": "view",
      "type": "function"
    },
    {
      "inputs": [
        {
          "internalType": "address",
          "name": "_owner",
          "type": "address"
        }
      ],
      "name": "getResponseDate",
      "outputs": [
        {
          "internalType": "string",
          "name": "",
          "type": "string"
        }
      ],
      "stateMutability": "view",
      "type": "function"
    },
    {
      "inputs": [],
      "name": "getTotalNumberOfCharity",
      "outputs": [
        {
          "internalType": "uint256",
          "name": "",
          "type": "uint256"
        }
      ],
      "stateMutability": "view",
      "type": "function"
    },
    {
      "inputs": [],
      "name": "getTotalOwner",
      "outputs": [
        {
          "internalType": "uint256",
          "name": "",
          "type": "uint256"
        }
      ],
      "stateMutability": "view",
      "type": "function"
    },
    {
      "inputs": [
        {
          "internalType": "uint256",
          "name": "",
          "type": "uint256"
        }
      ],
      "name": "idToCharity",
      "outputs": [
        {
          "internalType": "uint256",
          "name": "id",
          "type": "uint256"
        },
        {
          "internalType": "address",
          "name": "charity_address",
          "type": "address"
        },
        {
          "internalType": "string",
          "name": "charity_name",
          "type": "string"
        },
        {
          "internalType": "string",
          "name": "charity_description",
          "type": "string"
        },
        {
          "internalType": "string",
          "name": "charity_image",
          "type": "string"
        }
      ],
      "stateMutability": "view",
      "type": "function"
    },
    {
      "inputs": [
        {
          "internalType": "address",
          "name": "",
          "type": "address"
        },
        {
          "internalType": "address",
          "name": "",
          "type": "address"
        }
      ],
      "name": "isNominated",
      "outputs": [
        {
          "internalType": "bool",
          "name": "",
          "type": "bool"
        }
      ],
      "stateMutability": "view",
      "type": "function"
    },
    {
      "inputs": [
        {
          "internalType": "address",
          "name": "",
          "type": "address"
        }
      ],
      "name": "isOwnerAdded",
      "outputs": [
        {
          "internalType": "bool",
          "name": "",
          "type": "bool"
        }
      ],
      "stateMutability": "view",
      "type": "function"
    },
    {
      "inputs": [],
      "name": "owner",
      "outputs": [
        {
          "internalType": "address",
          "name": "",
          "type": "address"
        }
      ],
      "stateMutability": "view",
      "type": "function"
    },
    {
      "inputs": [
        {
          "internalType": "address",
          "name": "",
          "type": "address"
        },
        {
          "internalType": "address",
          "name": "",
          "type": "address"
        },
        {
          "internalType": "address",
          "name": "",
          "type": "address"
        }
      ],
      "name": "ownerToNomineeAddressToTokenAddressToRight",
      "outputs": [
        {
          "internalType": "bool",
          "name": "",
          "type": "bool"
        }
      ],
      "stateMutability": "view",
      "type": "function"
    },
    {
      "inputs": [
        {
          "internalType": "address",
          "name": "",
          "type": "address"
        },
        {
          "internalType": "address",
          "name": "",
          "type": "address"
        },
        {
          "internalType": "uint256",
          "name": "",
          "type": "uint256"
        }
      ],
      "name": "ownerToNomineeToTokenAddressArray",
      "outputs": [
        {
          "internalType": "address",
          "name": "",
          "type": "address"
        }
      ],
      "stateMutability": "view",
      "type": "function"
    },
    {
      "inputs": [
        {
          "internalType": "address",
          "name": "",
          "type": "address"
        },
        {
          "internalType": "address",
          "name": "",
          "type": "address"
        },
        {
          "internalType": "address",
          "name": "",
          "type": "address"
        }
      ],
      "name": "ownerToNomineeToTokenAddressToShare",
      "outputs": [
        {
          "internalType": "uint256",
          "name": "",
          "type": "uint256"
        }
      ],
      "stateMutability": "view",
      "type": "function"
    },
    {
      "inputs": [
        {
          "internalType": "address",
          "name": "",
          "type": "address"
        },
        {
          "internalType": "uint256",
          "name": "",
          "type": "uint256"
        }
      ],
      "name": "ownerToNominees",
      "outputs": [
        {
          "internalType": "address",
          "name": "",
          "type": "address"
        }
      ],
      "stateMutability": "view",
      "type": "function"
    },
    {
      "inputs": [
        {
          "internalType": "address",
          "name": "",
          "type": "address"
        }
      ],
      "name": "ownerToRecoverAddress",
      "outputs": [
        {
          "internalType": "address",
          "name": "",
          "type": "address"
        }
      ],
      "stateMutability": "view",
      "type": "function"
    },
    {
      "inputs": [
        {
          "internalType": "address",
          "name": "",
          "type": "address"
        }
      ],
      "name": "ownerToResponse",
      "outputs": [
        {
          "internalType": "string",
          "name": "date",
          "type": "string"
        },
        {
          "internalType": "bool",
          "name": "isResponsed",
          "type": "bool"
        }
      ],
      "stateMutability": "view",
      "type": "function"
    },
    {
      "inputs": [
        {
          "internalType": "address",
          "name": "",
          "type": "address"
        },
        {
          "internalType": "address",
          "name": "",
          "type": "address"
        },
        {
          "internalType": "uint256",
          "name": "",
          "type": "uint256"
        }
      ],
      "name": "ownerToTokenAddressToNomineeArray",
      "outputs": [
        {
          "internalType": "address",
          "name": "",
          "type": "address"
        }
      ],
      "stateMutability": "view",
      "type": "function"
    },
    {
      "inputs": [
        {
          "internalType": "address",
          "name": "",
          "type": "address"
        },
        {
          "internalType": "address",
          "name": "",
          "type": "address"
        },
        {
          "internalType": "uint256",
          "name": "",
          "type": "uint256"
        }
      ],
      "name": "ownerToTokenAddressToPriorityArray",
      "outputs": [
        {
          "internalType": "address",
          "name": "",
          "type": "address"
        }
      ],
      "stateMutability": "view",
      "type": "function"
    },
    {
      "inputs": [
        {
          "internalType": "address",
          "name": "",
          "type": "address"
        },
        {
          "internalType": "uint256",
          "name": "",
          "type": "uint256"
        }
      ],
      "name": "ownerToWhitelistedCharities",
      "outputs": [
        {
          "internalType": "uint256",
          "name": "",
          "type": "uint256"
        }
      ],
      "stateMutability": "view",
      "type": "function"
    },
    {
      "inputs": [
        {
          "internalType": "uint256",
          "name": "",
          "type": "uint256"
        }
      ],
      "name": "owners",
      "outputs": [
        {
          "internalType": "address",
          "name": "",
          "type": "address"
        }
      ],
      "stateMutability": "view",
      "type": "function"
    },
    {
      "inputs": [
        {
          "internalType": "address",
          "name": "_owner",
          "type": "address"
        },
        {
          "internalType": "address",
          "name": "_nominee",
          "type": "address"
        },
        {
          "internalType": "address",
          "name": "_tokenAddress",
          "type": "address"
        }
      ],
      "name": "removeAssignedPriorityNomineeAddressToToken",
      "outputs": [],
      "stateMutability": "nonpayable",
      "type": "function"
    },
    {
      "inputs": [],
      "name": "renounceOwnership",
      "outputs": [],
      "stateMutability": "nonpayable",
      "type": "function"
    },
    {
      "inputs": [
        {
          "internalType": "address",
          "name": "_owner",
          "type": "address"
        }
      ],
      "name": "setOwnerNotAlive",
      "outputs": [],
      "stateMutability": "nonpayable",
      "type": "function"
    },
    {
      "inputs": [
        {
          "internalType": "address",
          "name": "_owner",
          "type": "address"
        },
        {
          "internalType": "bool",
          "name": "_response",
          "type": "bool"
        }
      ],
      "name": "setResponse",
      "outputs": [],
      "stateMutability": "nonpayable",
      "type": "function"
    },
    {
      "inputs": [
        {
          "internalType": "address",
          "name": "_owner",
          "type": "address"
        },
        {
          "internalType": "string",
          "name": "_date",
          "type": "string"
        }
      ],
      "name": "setResponseDate",
      "outputs": [],
      "stateMutability": "nonpayable",
      "type": "function"
    },
    {
      "inputs": [
        {
          "internalType": "address",
          "name": "_owner",
          "type": "address"
        },
        {
          "internalType": "uint256",
          "name": "_charityId",
          "type": "uint256"
        }
      ],
      "name": "setWhiteListedCharities",
      "outputs": [],
      "stateMutability": "nonpayable",
      "type": "function"
    },
    {
      "inputs": [
        {
          "internalType": "address",
          "name": "",
          "type": "address"
        }
      ],
      "name": "tokenAddressToTokenStruct",
      "outputs": [
        {
          "internalType": "address",
          "name": "token_address",
          "type": "address"
        },
        {
          "internalType": "string",
          "name": "token_name",
          "type": "string"
        },
        {
          "internalType": "uint256",
          "name": "allocated_share",
          "type": "uint256"
        },
        {
          "internalType": "bool",
          "name": "isMultipleNominee",
          "type": "bool"
        },
        {
          "internalType": "bool",
          "name": "isPriorityNominee",
          "type": "bool"
        }
      ],
      "stateMutability": "view",
      "type": "function"
    },
    {
      "inputs": [
        {
          "internalType": "address",
          "name": "newOwner",
          "type": "address"
        }
      ],
      "name": "transferOwnership",
      "outputs": [],
      "stateMutability": "nonpayable",
      "type": "function"
    },
    {
      "inputs": [
        {
          "internalType": "address",
          "name": "_owner",
          "type": "address"
        }
      ],
      "name": "verifyOwner",
      "outputs": [],
      "stateMutability": "nonpayable",
      "type": "function"
    }
  ],
  "bytecode": "0x60806040523480156200001157600080fd5b5062000032620000266200003860201b60201c565b6200004060201b60201c565b62000104565b600033905090565b60008060009054906101000a900473ffffffffffffffffffffffffffffffffffffffff169050816000806101000a81548173ffffffffffffffffffffffffffffffffffffffff021916908373ffffffffffffffffffffffffffffffffffffffff1602179055508173ffffffffffffffffffffffffffffffffffffffff168173ffffffffffffffffffffffffffffffffffffffff167f8be0079c531659141344cd1fd0a4f28419497f9722a3daafe3b4186f6b6457e060405160405180910390a35050565b615be980620001146000396000f3fe608060405234801561001057600080fd5b506004361061035d5760003560e01c80638da5cb5b116101d3578063c3bb812111610104578063e3f09521116100a2578063ec2db93a1161007c578063ec2db93a14610b68578063ed19ee0914610b84578063f2fde38b14610ba0578063f800978514610bbc5761035d565b8063e3f0952114610ad8578063e44e4c5614610b08578063e62d4f7c14610b385761035d565b8063cf751c44116100de578063cf751c4414610a29578063d152fd8f14610a5a578063de545b3f14610a8a578063e05887e314610aba5761035d565b8063c3bb8121146109ad578063c936c57e146109dd578063cb144b3914610a0d5761035d565b8063a0e67e2b11610171578063b8c0d1a11161014b578063b8c0d1a114610915578063baab979714610945578063bece996814610975578063bfe50948146109915761035d565b8063a0e67e2b146108bf578063a5394b39146108dd578063a6072445146108f95761035d565b80638f25dac9116101ad5780638f25dac91461080f57806392f820481461083f578063955f59f91461085b5780639979d30e1461088b5761035d565b80638da5cb5b146107a55780638dde3dc4146107c35780638e5d2099146107df5761035d565b80634950956e116102ad5780636a5e89381161024b57806376f0ffc61161022557806376f0ffc6146107095780637f3d39bd146107395780638258d0211461076d5780638c85cd85146107895761035d565b80636a5e8938146106b15780636f4eb5f0146106e1578063715018a6146106ff5761035d565b806354add3e71161028757806354add3e71461061657806358a4e30d146106325780635a863c111461064e5780636199997f146106815761035d565b80634950956e1461059a5780634f24d528146105ca578063511865e9146105e65761035d565b806320ff42601161031a57806329ce480e116102f457806329ce480e146104ee578063348f0a931461051e5780633d06305b1461053a578063433a05b01461056a5761035d565b806320ff42601461045e5780632341cffb1461048e5780632358fd07146104be5761035d565b8063025e7c27146103625780630b841b8f146103925780630c6314aa146103c257806313250e3c146103f2578063159305e11461040e5780631e83409a14610442575b600080fd5b61037c6004803603810190610377919061454c565b610bec565b60405161038991906145ba565b60405180910390f35b6103ac60048036038101906103a79190614601565b610c2b565b6040516103b99190614663565b60405180910390f35b6103dc60048036038101906103d7919061467e565b610c5d565b6040516103e991906145ba565b60405180910390f35b61040c600480360381019061040791906146be565b610cab565b005b61042860048036038101906104239190614725565b610f12565b6040516104399594939291906147fd565b60405180910390f35b61045c60048036038101906104579190614725565b6110fa565b005b61047860048036038101906104739190614865565b611158565b60405161048591906145ba565b60405180910390f35b6104a860048036038101906104a391906148b8565b6111b3565b6040516104b591906148f8565b60405180910390f35b6104d860048036038101906104d39190614601565b6111e2565b6040516104e591906148f8565b60405180910390f35b610508600480360381019061050391906148b8565b6112b4565b60405161051591906149d1565b60405180910390f35b6105386004803603810190610533919061467e565b6113bf565b005b610554600480360381019061054f91906148b8565b611429565b60405161056191906149d1565b60405180910390f35b610584600480360381019061057f9190614725565b611534565b60405161059191906148f8565b60405180910390f35b6105b460048036038101906105af9190614725565b61158d565b6040516105c19190614ab6565b60405180910390f35b6105e460048036038101906105df9190614b04565b61177b565b005b61060060048036038101906105fb9190614725565b61196a565b60405161060d91906145ba565b60405180910390f35b610630600480360381019061062b9190614cc6565b6119d3565b005b61064c60048036038101906106479190614d22565b611a2f565b005b61066860048036038101906106639190614725565b611b34565b6040516106789493929190614ddd565b60405180910390f35b61069b60048036038101906106969190614725565b611ca1565b6040516106a891906148f8565b60405180910390f35b6106cb60048036038101906106c69190614725565b611cfa565b6040516106d89190614e30565b60405180910390f35b6106e9611dce565b6040516106f69190614663565b60405180910390f35b610707611dd8565b005b610723600480360381019061071e9190614725565b611dec565b60405161073091906148f8565b60405180910390f35b610753600480360381019061074e919061454c565b611e0c565b604051610764959493929190614e52565b60405180910390f35b61078760048036038101906107829190614eba565b611ffa565b005b6107a3600480360381019061079e9190614725565b6121fd565b005b6107ad612263565b6040516107ba91906145ba565b60405180910390f35b6107dd60048036038101906107d89190614601565b61228c565b005b6107f960048036038101906107f491906148b8565b612363565b60405161080691906148f8565b60405180910390f35b61082960048036038101906108249190614601565b6123f7565b60405161083691906148f8565b60405180910390f35b61085960048036038101906108549190614f61565b612433565b005b61087560048036038101906108709190614601565b6127de565b6040516108829190614663565b60405180910390f35b6108a560048036038101906108a09190614725565b6128a3565b6040516108b6959493929190615014565b60405180910390f35b6108c761299b565b6040516108d491906149d1565b60405180910390f35b6108f760048036038101906108f29190614725565b612a29565b005b610913600480360381019061090e919061506e565b612a8f565b005b61092f600480360381019061092a91906148b8565b612aed565b60405161093c91906149d1565b60405180910390f35b61095f600480360381019061095a9190614725565b612bf8565b60405161096c91906148f8565b60405180910390f35b61098f600480360381019061098a91906148b8565b612c51565b005b6109ab60048036038101906109a691906150ae565b612cd3565b005b6109c760048036038101906109c29190614725565b612d9b565b6040516109d49190615201565b60405180910390f35b6109f760048036038101906109f2919061467e565b612fe0565b604051610a049190614663565b60405180910390f35b610a276004803603810190610a229190615223565b613011565b005b610a436004803603810190610a3e9190614725565b6131c5565b604051610a519291906152ae565b60405180910390f35b610a746004803603810190610a6f9190614865565b61327e565b604051610a8191906145ba565b60405180910390f35b610aa46004803603810190610a9f9190614725565b6132d9565b604051610ab191906145ba565b60405180910390f35b610ac261330c565b604051610acf9190614663565b60405180910390f35b610af26004803603810190610aed9190614865565b613319565b604051610aff91906145ba565b60405180910390f35b610b226004803603810190610b1d919061454c565b613374565b604051610b2f9190615371565b60405180910390f35b610b526004803603810190610b4d9190614725565b6135b7565b604051610b5f9190615442565b60405180910390f35b610b826004803603810190610b7d9190615464565b61364e565b005b610b9e6004803603810190610b99919061550d565b613b31565b005b610bba6004803603810190610bb59190614725565b6141b0565b005b610bd66004803603810190610bd19190614725565b614233565b604051610be391906149d1565b60405180910390f35b60018181548110610bfc57600080fd5b906000526020600020016000915054906101000a900473ffffffffffffffffffffffffffffffffffffffff1681565b600d60205282600052604060002060205281600052604060002060205280600052604060002060009250925050505481565b60066020528160005260406000208181548110610c7957600080fd5b906000526020600020016000915091509054906101000a900473ffffffffffffffffffffffffffffffffffffffff1681565b60005b601060008673ffffffffffffffffffffffffffffffffffffffff1673ffffffffffffffffffffffffffffffffffffffff16815260200190815260200160002060008373ffffffffffffffffffffffffffffffffffffffff1673ffffffffffffffffffffffffffffffffffffffff16815260200190815260200160002080549050811015610f0b578373ffffffffffffffffffffffffffffffffffffffff16601060008773ffffffffffffffffffffffffffffffffffffffff1673ffffffffffffffffffffffffffffffffffffffff16815260200190815260200160002060008473ffffffffffffffffffffffffffffffffffffffff1673ffffffffffffffffffffffffffffffffffffffff1681526020019081526020016000208281548110610dda57610dd96155cb565b5b9060005260206000200160009054906101000a900473ffffffffffffffffffffffffffffffffffffffff1673ffffffffffffffffffffffffffffffffffffffff1603610ef85782601060008773ffffffffffffffffffffffffffffffffffffffff1673ffffffffffffffffffffffffffffffffffffffff16815260200190815260200160002060008473ffffffffffffffffffffffffffffffffffffffff1673ffffffffffffffffffffffffffffffffffffffff1681526020019081526020016000208281548110610eaf57610eae6155cb565b5b9060005260206000200160006101000a81548173ffffffffffffffffffffffffffffffffffffffff021916908373ffffffffffffffffffffffffffffffffffffffff1602179055505b8080610f0390615629565b915050610cae565b5050505050565b6003602052806000526040600020600091509050806000018054610f35906156a0565b80601f0160208091040260200160405190810160405280929190818152602001828054610f61906156a0565b8015610fae5780601f10610f8357610100808354040283529160200191610fae565b820191906000526020600020905b815481529060010190602001808311610f9157829003601f168201915b505050505090806001018054610fc3906156a0565b80601f0160208091040260200160405190810160405280929190818152602001828054610fef906156a0565b801561103c5780601f106110115761010080835404028352916020019161103c565b820191906000526020600020905b81548152906001019060200180831161101f57829003601f168201915b505050505090806002018054611051906156a0565b80601f016020809104026020016040519081016040528092919081815260200182805461107d906156a0565b80156110ca5780601f1061109f576101008083540402835291602001916110ca565b820191906000526020600020905b8154815290600101906020018083116110ad57829003601f168201915b5050505050908060030160009054906101000a900460ff16908060030160019054906101000a900460ff16905085565b6001600560008373ffffffffffffffffffffffffffffffffffffffff1673ffffffffffffffffffffffffffffffffffffffff16815260200190815260200160002060020160146101000a81548160ff02191690831515021790555050565b600b602052826000526040600020602052816000526040600020818154811061118057600080fd5b90600052602060002001600092509250509054906101000a900473ffffffffffffffffffffffffffffffffffffffff1681565b600f6020528160005260406000206020528060005260406000206000915091509054906101000a900460ff1681565b6000600e60008573ffffffffffffffffffffffffffffffffffffffff1673ffffffffffffffffffffffffffffffffffffffff16815260200190815260200160002060008473ffffffffffffffffffffffffffffffffffffffff1673ffffffffffffffffffffffffffffffffffffffff16815260200190815260200160002060008373ffffffffffffffffffffffffffffffffffffffff1673ffffffffffffffffffffffffffffffffffffffff16815260200190815260200160002060009054906101000a900460ff1690509392505050565b6060600b60008473ffffffffffffffffffffffffffffffffffffffff1673ffffffffffffffffffffffffffffffffffffffff16815260200190815260200160002060008373ffffffffffffffffffffffffffffffffffffffff1673ffffffffffffffffffffffffffffffffffffffff1681526020019081526020016000208054806020026020016040519081016040528092919081815260200182805480156113b257602002820191906000526020600020905b8160009054906101000a900473ffffffffffffffffffffffffffffffffffffffff1673ffffffffffffffffffffffffffffffffffffffff1681526020019060010190808311611368575b5050505050905092915050565b600960008373ffffffffffffffffffffffffffffffffffffffff1673ffffffffffffffffffffffffffffffffffffffff1681526020019081526020016000208190806001815401808255809150506001900390600052602060002001600090919091909150555050565b6060600c60008473ffffffffffffffffffffffffffffffffffffffff1673ffffffffffffffffffffffffffffffffffffffff16815260200190815260200160002060008373ffffffffffffffffffffffffffffffffffffffff1673ffffffffffffffffffffffffffffffffffffffff16815260200190815260200160002080548060200260200160405190810160405280929190818152602001828054801561152757602002820191906000526020600020905b8160009054906101000a900473ffffffffffffffffffffffffffffffffffffffff1673ffffffffffffffffffffffffffffffffffffffff16815260200190600101908083116114dd575b5050505050905092915050565b6000601160008373ffffffffffffffffffffffffffffffffffffffff1673ffffffffffffffffffffffffffffffffffffffff16815260200190815260200160002060010160009054906101000a900460ff169050919050565b61159561444a565b600560008373ffffffffffffffffffffffffffffffffffffffff1673ffffffffffffffffffffffffffffffffffffffff1681526020019081526020016000206040518060800160405290816000820180546115ef906156a0565b80601f016020809104026020016040519081016040528092919081815260200182805461161b906156a0565b80156116685780601f1061163d57610100808354040283529160200191611668565b820191906000526020600020905b81548152906001019060200180831161164b57829003601f168201915b50505050508152602001600182018054611681906156a0565b80601f01602080910402602001604051908101604052809291908181526020018280546116ad906156a0565b80156116fa5780601f106116cf576101008083540402835291602001916116fa565b820191906000526020600020905b8154815290600101906020018083116116dd57829003601f168201915b505050505081526020016002820160009054906101000a900473ffffffffffffffffffffffffffffffffffffffff1673ffffffffffffffffffffffffffffffffffffffff1673ffffffffffffffffffffffffffffffffffffffff1681526020016002820160149054906101000a900460ff1615151515815250509050919050565b806117bb576040517f08c379a00000000000000000000000000000000000000000000000000000000081526004016117b29061571d565b60405180910390fd5b60008284600a60008873ffffffffffffffffffffffffffffffffffffffff1673ffffffffffffffffffffffffffffffffffffffff1681526020019081526020016000206002015461180c919061573d565b6118169190615771565b9050606481111561185c576040517f08c379a000000000000000000000000000000000000000000000000000000000815260040161185390615817565b60405180910390fd5b82600d60008973ffffffffffffffffffffffffffffffffffffffff1673ffffffffffffffffffffffffffffffffffffffff16815260200190815260200160002060008873ffffffffffffffffffffffffffffffffffffffff1673ffffffffffffffffffffffffffffffffffffffff16815260200190815260200160002060008773ffffffffffffffffffffffffffffffffffffffff1673ffffffffffffffffffffffffffffffffffffffff1681526020019081526020016000208190555080600a60008773ffffffffffffffffffffffffffffffffffffffff1673ffffffffffffffffffffffffffffffffffffffff1681526020019081526020016000206002018190555050505050505050565b6000600460008373ffffffffffffffffffffffffffffffffffffffff1673ffffffffffffffffffffffffffffffffffffffff16815260200190815260200160002060009054906101000a900473ffffffffffffffffffffffffffffffffffffffff169050919050565b6119db614300565b80601160008473ffffffffffffffffffffffffffffffffffffffff1673ffffffffffffffffffffffffffffffffffffffff1681526020019081526020016000206000019081611a2a91906159e3565b505050565b6001600754611a3e9190615771565b6007819055506040518060a0016040528060075481526020018573ffffffffffffffffffffffffffffffffffffffff168152602001848152602001838152602001828152506008600060075481526020019081526020016000206000820151816000015560208201518160010160006101000a81548173ffffffffffffffffffffffffffffffffffffffff021916908373ffffffffffffffffffffffffffffffffffffffff1602179055506040820151816002019081611afe91906159e3565b506060820151816003019081611b1491906159e3565b506080820151816004019081611b2a91906159e3565b5090505050505050565b6005602052806000526040600020600091509050806000018054611b57906156a0565b80601f0160208091040260200160405190810160405280929190818152602001828054611b83906156a0565b8015611bd05780601f10611ba557610100808354040283529160200191611bd0565b820191906000526020600020905b815481529060010190602001808311611bb357829003601f168201915b505050505090806001018054611be5906156a0565b80601f0160208091040260200160405190810160405280929190818152602001828054611c11906156a0565b8015611c5e5780601f10611c3357610100808354040283529160200191611c5e565b820191906000526020600020905b815481529060010190602001808311611c4157829003601f168201915b5050505050908060020160009054906101000a900473ffffffffffffffffffffffffffffffffffffffff16908060020160149054906101000a900460ff16905084565b6000600360008373ffffffffffffffffffffffffffffffffffffffff1673ffffffffffffffffffffffffffffffffffffffff16815260200190815260200160002060030160019054906101000a900460ff169050919050565b6060601160008373ffffffffffffffffffffffffffffffffffffffff1673ffffffffffffffffffffffffffffffffffffffff1681526020019081526020016000206000018054611d49906156a0565b80601f0160208091040260200160405190810160405280929190818152602001828054611d75906156a0565b8015611dc25780601f10611d9757610100808354040283529160200191611dc2565b820191906000526020600020905b815481529060010190602001808311611da557829003601f168201915b50505050509050919050565b6000600754905090565b611de0614300565b611dea600061437e565b565b60026020528060005260406000206000915054906101000a900460ff1681565b60086020528060005260406000206000915090508060000154908060010160009054906101000a900473ffffffffffffffffffffffffffffffffffffffff1690806002018054611e5b906156a0565b80601f0160208091040260200160405190810160405280929190818152602001828054611e87906156a0565b8015611ed45780601f10611ea957610100808354040283529160200191611ed4565b820191906000526020600020905b815481529060010190602001808311611eb757829003601f168201915b505050505090806003018054611ee9906156a0565b80601f0160208091040260200160405190810160405280929190818152602001828054611f15906156a0565b8015611f625780601f10611f3757610100808354040283529160200191611f62565b820191906000526020600020905b815481529060010190602001808311611f4557829003601f168201915b505050505090806004018054611f77906156a0565b80601f0160208091040260200160405190810160405280929190818152602001828054611fa3906156a0565b8015611ff05780601f10611fc557610100808354040283529160200191611ff0565b820191906000526020600020905b815481529060010190602001808311611fd357829003601f168201915b5050505050905085565b600260003373ffffffffffffffffffffffffffffffffffffffff1673ffffffffffffffffffffffffffffffffffffffff16815260200190815260200160002060009054906101000a900460ff166121f8576001339080600181540180825580915050600190039060005260206000200160009091909190916101000a81548173ffffffffffffffffffffffffffffffffffffffff021916908373ffffffffffffffffffffffffffffffffffffffff1602179055506001600260003373ffffffffffffffffffffffffffffffffffffffff1673ffffffffffffffffffffffffffffffffffffffff16815260200190815260200160002060006101000a81548160ff0219169083151502179055506040518060a0016040528084815260200183815260200182815260200160001515815260200160011515815250600360003373ffffffffffffffffffffffffffffffffffffffff1673ffffffffffffffffffffffffffffffffffffffff168152602001908152602001600020600082015181600001908161218791906159e3565b50602082015181600101908161219d91906159e3565b5060408201518160020190816121b391906159e3565b5060608201518160030160006101000a81548160ff02191690831515021790555060808201518160030160016101000a81548160ff0219169083151502179055509050505b505050565b612205614300565b6001600360008373ffffffffffffffffffffffffffffffffffffffff1673ffffffffffffffffffffffffffffffffffffffff16815260200190815260200160002060030160006101000a81548160ff02191690831515021790555050565b60008060009054906101000a900473ffffffffffffffffffffffffffffffffffffffff16905090565b6000600e60008573ffffffffffffffffffffffffffffffffffffffff1673ffffffffffffffffffffffffffffffffffffffff16815260200190815260200160002060008473ffffffffffffffffffffffffffffffffffffffff1673ffffffffffffffffffffffffffffffffffffffff16815260200190815260200160002060008373ffffffffffffffffffffffffffffffffffffffff1673ffffffffffffffffffffffffffffffffffffffff16815260200190815260200160002060006101000a81548160ff021916908315150217905550505050565b6000600f60008473ffffffffffffffffffffffffffffffffffffffff1673ffffffffffffffffffffffffffffffffffffffff16815260200190815260200160002060008373ffffffffffffffffffffffffffffffffffffffff1673ffffffffffffffffffffffffffffffffffffffff16815260200190815260200160002060009054906101000a900460ff16905092915050565b600e602052826000526040600020602052816000526040600020602052806000526040600020600092509250509054906101000a900460ff1681565b8073ffffffffffffffffffffffffffffffffffffffff168473ffffffffffffffffffffffffffffffffffffffff160361250b5782600560008673ffffffffffffffffffffffffffffffffffffffff1673ffffffffffffffffffffffffffffffffffffffff16815260200190815260200160002060000190816124b591906159e3565b5081600560008673ffffffffffffffffffffffffffffffffffffffff1673ffffffffffffffffffffffffffffffffffffffff168152602001908152602001600020600101908161250591906159e3565b506127d7565b82600560008373ffffffffffffffffffffffffffffffffffffffff1673ffffffffffffffffffffffffffffffffffffffff168152602001908152602001600020600001908161255a91906159e3565b5081600560008373ffffffffffffffffffffffffffffffffffffffff1673ffffffffffffffffffffffffffffffffffffffff16815260200190815260200160002060010190816125aa91906159e3565b5080600560008373ffffffffffffffffffffffffffffffffffffffff1673ffffffffffffffffffffffffffffffffffffffff16815260200190815260200160002060020160006101000a81548173ffffffffffffffffffffffffffffffffffffffff021916908373ffffffffffffffffffffffffffffffffffffffff16021790555060005b600660008773ffffffffffffffffffffffffffffffffffffffff1673ffffffffffffffffffffffffffffffffffffffff168152602001908152602001600020805490508110156127d5578473ffffffffffffffffffffffffffffffffffffffff16600660008873ffffffffffffffffffffffffffffffffffffffff1673ffffffffffffffffffffffffffffffffffffffff16815260200190815260200160002082815481106126e1576126e06155cb565b5b9060005260206000200160009054906101000a900473ffffffffffffffffffffffffffffffffffffffff1673ffffffffffffffffffffffffffffffffffffffff16036127c25781600660008873ffffffffffffffffffffffffffffffffffffffff1673ffffffffffffffffffffffffffffffffffffffff1681526020019081526020016000208281548110612779576127786155cb565b5b9060005260206000200160006101000a81548173ffffffffffffffffffffffffffffffffffffffff021916908373ffffffffffffffffffffffffffffffffffffffff1602179055505b80806127cd90615629565b91505061262f565b505b5050505050565b6000600d60008573ffffffffffffffffffffffffffffffffffffffff1673ffffffffffffffffffffffffffffffffffffffff16815260200190815260200160002060008473ffffffffffffffffffffffffffffffffffffffff1673ffffffffffffffffffffffffffffffffffffffff16815260200190815260200160002060008373ffffffffffffffffffffffffffffffffffffffff1673ffffffffffffffffffffffffffffffffffffffff1681526020019081526020016000205490509392505050565b600a6020528060005260406000206000915090508060000160009054906101000a900473ffffffffffffffffffffffffffffffffffffffff16908060010180546128ec906156a0565b80601f0160208091040260200160405190810160405280929190818152602001828054612918906156a0565b80156129655780601f1061293a57610100808354040283529160200191612965565b820191906000526020600020905b81548152906001019060200180831161294857829003601f168201915b5050505050908060020154908060030160009054906101000a900460ff16908060030160019054906101000a900460ff16905085565b60606001805480602002602001604051908101604052809291908181526020018280548015612a1f57602002820191906000526020600020905b8160009054906101000a900473ffffffffffffffffffffffffffffffffffffffff1673ffffffffffffffffffffffffffffffffffffffff16815260200190600101908083116129d5575b5050505050905090565b612a31614300565b6000600360008373ffffffffffffffffffffffffffffffffffffffff1673ffffffffffffffffffffffffffffffffffffffff16815260200190815260200160002060030160016101000a81548160ff02191690831515021790555050565b80601160008473ffffffffffffffffffffffffffffffffffffffff1673ffffffffffffffffffffffffffffffffffffffff16815260200190815260200160002060010160006101000a81548160ff0219169083151502179055505050565b6060601060008473ffffffffffffffffffffffffffffffffffffffff1673ffffffffffffffffffffffffffffffffffffffff16815260200190815260200160002060008373ffffffffffffffffffffffffffffffffffffffff1673ffffffffffffffffffffffffffffffffffffffff168152602001908152602001600020805480602002602001604051908101604052809291908181526020018280548015612beb57602002820191906000526020600020905b8160009054906101000a900473ffffffffffffffffffffffffffffffffffffffff1673ffffffffffffffffffffffffffffffffffffffff1681526020019060010190808311612ba1575b5050505050905092915050565b6000600360008373ffffffffffffffffffffffffffffffffffffffff1673ffffffffffffffffffffffffffffffffffffffff16815260200190815260200160002060030160009054906101000a900460ff169050919050565b80600460008473ffffffffffffffffffffffffffffffffffffffff1673ffffffffffffffffffffffffffffffffffffffff16815260200190815260200160002060006101000a81548173ffffffffffffffffffffffffffffffffffffffff021916908373ffffffffffffffffffffffffffffffffffffffff1602179055505050565b836008600087815260200190815260200160002060010160006101000a81548173ffffffffffffffffffffffffffffffffffffffff021916908373ffffffffffffffffffffffffffffffffffffffff16021790555082600860008781526020019081526020016000206002019081612d4b91906159e3565b5081600860008781526020019081526020016000206003019081612d6f91906159e3565b5080600860008781526020019081526020016000206004019081612d9391906159e3565b505050505050565b612da361448a565b600360008373ffffffffffffffffffffffffffffffffffffffff1673ffffffffffffffffffffffffffffffffffffffff1681526020019081526020016000206040518060a0016040529081600082018054612dfd906156a0565b80601f0160208091040260200160405190810160405280929190818152602001828054612e29906156a0565b8015612e765780601f10612e4b57610100808354040283529160200191612e76565b820191906000526020600020905b815481529060010190602001808311612e5957829003601f168201915b50505050508152602001600182018054612e8f906156a0565b80601f0160208091040260200160405190810160405280929190818152602001828054612ebb906156a0565b8015612f085780601f10612edd57610100808354040283529160200191612f08565b820191906000526020600020905b815481529060010190602001808311612eeb57829003601f168201915b50505050508152602001600282018054612f21906156a0565b80601f0160208091040260200160405190810160405280929190818152602001828054612f4d906156a0565b8015612f9a5780601f10612f6f57610100808354040283529160200191612f9a565b820191906000526020600020905b815481529060010190602001808311612f7d57829003601f168201915b505050505081526020016003820160009054906101000a900460ff161515151581526020016003820160019054906101000a900460ff1615151515815250509050919050565b60096020528160005260406000208181548110612ffc57600080fd5b90600052602060002001600091509150505481565b60405180608001604052808481526020018381526020018273ffffffffffffffffffffffffffffffffffffffff16815260200160001515815250600560008373ffffffffffffffffffffffffffffffffffffffff1673ffffffffffffffffffffffffffffffffffffffff168152602001908152602001600020600082015181600001908161309f91906159e3565b5060208201518160010190816130b591906159e3565b5060408201518160020160006101000a81548173ffffffffffffffffffffffffffffffffffffffff021916908373ffffffffffffffffffffffffffffffffffffffff16021790555060608201518160020160146101000a81548160ff021916908315150217905550905050600660003373ffffffffffffffffffffffffffffffffffffffff1673ffffffffffffffffffffffffffffffffffffffff168152602001908152602001600020819080600181540180825580915050600190039060005260206000200160009091909190916101000a81548173ffffffffffffffffffffffffffffffffffffffff021916908373ffffffffffffffffffffffffffffffffffffffff160217905550505050565b60116020528060005260406000206000915090508060000180546131e8906156a0565b80601f0160208091040260200160405190810160405280929190818152602001828054613214906156a0565b80156132615780601f1061323657610100808354040283529160200191613261565b820191906000526020600020905b81548152906001019060200180831161324457829003601f168201915b5050505050908060010160009054906101000a900460ff16905082565b600c60205282600052604060002060205281600052604060002081815481106132a657600080fd5b90600052602060002001600092509250509054906101000a900473ffffffffffffffffffffffffffffffffffffffff1681565b60046020528060005260406000206000915054906101000a900473ffffffffffffffffffffffffffffffffffffffff1681565b6000600180549050905090565b6010602052826000526040600020602052816000526040600020818154811061334157600080fd5b90600052602060002001600092509250509054906101000a900473ffffffffffffffffffffffffffffffffffffffff1681565b61337c6144bd565b600860008381526020019081526020016000206040518060a0016040529081600082015481526020016001820160009054906101000a900473ffffffffffffffffffffffffffffffffffffffff1673ffffffffffffffffffffffffffffffffffffffff1673ffffffffffffffffffffffffffffffffffffffff16815260200160028201805461340a906156a0565b80601f0160208091040260200160405190810160405280929190818152602001828054613436906156a0565b80156134835780601f1061345857610100808354040283529160200191613483565b820191906000526020600020905b81548152906001019060200180831161346657829003601f168201915b5050505050815260200160038201805461349c906156a0565b80601f01602080910402602001604051908101604052809291908181526020018280546134c8906156a0565b80156135155780601f106134ea57610100808354040283529160200191613515565b820191906000526020600020905b8154815290600101906020018083116134f857829003601f168201915b5050505050815260200160048201805461352e906156a0565b80601f016020809104026020016040519081016040528092919081815260200182805461355a906156a0565b80156135a75780601f1061357c576101008083540402835291602001916135a7565b820191906000526020600020905b81548152906001019060200180831161358a57829003601f168201915b5050505050815250509050919050565b6060600960008373ffffffffffffffffffffffffffffffffffffffff1673ffffffffffffffffffffffffffffffffffffffff16815260200190815260200160002080548060200260200160405190810160405280929190818152602001828054801561364257602002820191906000526020600020905b81548152602001906001019080831161362e575b50505050509050919050565b600f60008773ffffffffffffffffffffffffffffffffffffffff1673ffffffffffffffffffffffffffffffffffffffff16815260200190815260200160002060008573ffffffffffffffffffffffffffffffffffffffff1673ffffffffffffffffffffffffffffffffffffffff16815260200190815260200160002060009054906101000a900460ff16613808576040518060a001604052808573ffffffffffffffffffffffffffffffffffffffff168152602001848152602001600081526020018315158152602001821515815250600a60008673ffffffffffffffffffffffffffffffffffffffff1673ffffffffffffffffffffffffffffffffffffffff16815260200190815260200160002060008201518160000160006101000a81548173ffffffffffffffffffffffffffffffffffffffff021916908373ffffffffffffffffffffffffffffffffffffffff16021790555060208201518160010190816137b991906159e3565b506040820151816002015560608201518160030160006101000a81548160ff02191690831515021790555060808201518160030160016101000a81548160ff0219169083151502179055509050505b600c60008773ffffffffffffffffffffffffffffffffffffffff1673ffffffffffffffffffffffffffffffffffffffff16815260200190815260200160002060008673ffffffffffffffffffffffffffffffffffffffff1673ffffffffffffffffffffffffffffffffffffffff168152602001908152602001600020849080600181540180825580915050600190039060005260206000200160009091909190916101000a81548173ffffffffffffffffffffffffffffffffffffffff021916908373ffffffffffffffffffffffffffffffffffffffff160217905550601060008773ffffffffffffffffffffffffffffffffffffffff1673ffffffffffffffffffffffffffffffffffffffff16815260200190815260200160002060008573ffffffffffffffffffffffffffffffffffffffff1673ffffffffffffffffffffffffffffffffffffffff168152602001908152602001600020859080600181540180825580915050600190039060005260206000200160009091909190916101000a81548173ffffffffffffffffffffffffffffffffffffffff021916908373ffffffffffffffffffffffffffffffffffffffff1602179055506001600e60008873ffffffffffffffffffffffffffffffffffffffff1673ffffffffffffffffffffffffffffffffffffffff16815260200190815260200160002060008773ffffffffffffffffffffffffffffffffffffffff1673ffffffffffffffffffffffffffffffffffffffff16815260200190815260200160002060008673ffffffffffffffffffffffffffffffffffffffff1673ffffffffffffffffffffffffffffffffffffffff16815260200190815260200160002060006101000a81548160ff0219169083151502179055506001600f60008873ffffffffffffffffffffffffffffffffffffffff1673ffffffffffffffffffffffffffffffffffffffff16815260200190815260200160002060008673ffffffffffffffffffffffffffffffffffffffff1673ffffffffffffffffffffffffffffffffffffffff16815260200190815260200160002060006101000a81548160ff021916908315150217905550505050505050565b600083600a60008873ffffffffffffffffffffffffffffffffffffffff1673ffffffffffffffffffffffffffffffffffffffff16815260200190815260200160002060020154613b819190615771565b90506064811115613bc7576040517f08c379a0000000000000000000000000000000000000000000000000000000008152600401613bbe90615817565b60405180910390fd5b600f60008973ffffffffffffffffffffffffffffffffffffffff1673ffffffffffffffffffffffffffffffffffffffff16815260200190815260200160002060008773ffffffffffffffffffffffffffffffffffffffff1673ffffffffffffffffffffffffffffffffffffffff16815260200190815260200160002060009054906101000a900460ff16613d80576040518060a001604052808773ffffffffffffffffffffffffffffffffffffffff1681526020018681526020018281526020018415158152602001831515815250600a60008873ffffffffffffffffffffffffffffffffffffffff1673ffffffffffffffffffffffffffffffffffffffff16815260200190815260200160002060008201518160000160006101000a81548173ffffffffffffffffffffffffffffffffffffffff021916908373ffffffffffffffffffffffffffffffffffffffff1602179055506020820151816001019081613d3191906159e3565b506040820151816002015560608201518160030160006101000a81548160ff02191690831515021790555060808201518160030160016101000a81548160ff0219169083151502179055509050505b80600a60008873ffffffffffffffffffffffffffffffffffffffff1673ffffffffffffffffffffffffffffffffffffffff16815260200190815260200160002060020181905550600b60008973ffffffffffffffffffffffffffffffffffffffff1673ffffffffffffffffffffffffffffffffffffffff16815260200190815260200160002060008773ffffffffffffffffffffffffffffffffffffffff1673ffffffffffffffffffffffffffffffffffffffff168152602001908152602001600020879080600181540180825580915050600190039060005260206000200160009091909190916101000a81548173ffffffffffffffffffffffffffffffffffffffff021916908373ffffffffffffffffffffffffffffffffffffffff160217905550600c60008973ffffffffffffffffffffffffffffffffffffffff1673ffffffffffffffffffffffffffffffffffffffff16815260200190815260200160002060008873ffffffffffffffffffffffffffffffffffffffff1673ffffffffffffffffffffffffffffffffffffffff168152602001908152602001600020869080600181540180825580915050600190039060005260206000200160009091909190916101000a81548173ffffffffffffffffffffffffffffffffffffffff021916908373ffffffffffffffffffffffffffffffffffffffff16021790555083600d60008a73ffffffffffffffffffffffffffffffffffffffff1673ffffffffffffffffffffffffffffffffffffffff16815260200190815260200160002060008973ffffffffffffffffffffffffffffffffffffffff1673ffffffffffffffffffffffffffffffffffffffff16815260200190815260200160002060008873ffffffffffffffffffffffffffffffffffffffff1673ffffffffffffffffffffffffffffffffffffffff168152602001908152602001600020819055506001600e60008a73ffffffffffffffffffffffffffffffffffffffff1673ffffffffffffffffffffffffffffffffffffffff16815260200190815260200160002060008973ffffffffffffffffffffffffffffffffffffffff1673ffffffffffffffffffffffffffffffffffffffff16815260200190815260200160002060008873ffffffffffffffffffffffffffffffffffffffff1673ffffffffffffffffffffffffffffffffffffffff16815260200190815260200160002060006101000a81548160ff0219169083151502179055506001600f60008a73ffffffffffffffffffffffffffffffffffffffff1673ffffffffffffffffffffffffffffffffffffffff16815260200190815260200160002060008873ffffffffffffffffffffffffffffffffffffffff1673ffffffffffffffffffffffffffffffffffffffff16815260200190815260200160002060006101000a81548160ff0219169083151502179055505050505050505050565b6141b8614300565b600073ffffffffffffffffffffffffffffffffffffffff168173ffffffffffffffffffffffffffffffffffffffff1603614227576040517f08c379a000000000000000000000000000000000000000000000000000000000815260040161421e90615b27565b60405180910390fd5b6142308161437e565b50565b6060600660008373ffffffffffffffffffffffffffffffffffffffff1673ffffffffffffffffffffffffffffffffffffffff1681526020019081526020016000208054806020026020016040519081016040528092919081815260200182805480156142f457602002820191906000526020600020905b8160009054906101000a900473ffffffffffffffffffffffffffffffffffffffff1673ffffffffffffffffffffffffffffffffffffffff16815260200190600101908083116142aa575b50505050509050919050565b614308614442565b73ffffffffffffffffffffffffffffffffffffffff16614326612263565b73ffffffffffffffffffffffffffffffffffffffff161461437c576040517f08c379a000000000000000000000000000000000000000000000000000000000815260040161437390615b93565b60405180910390fd5b565b60008060009054906101000a900473ffffffffffffffffffffffffffffffffffffffff169050816000806101000a81548173ffffffffffffffffffffffffffffffffffffffff021916908373ffffffffffffffffffffffffffffffffffffffff1602179055508173ffffffffffffffffffffffffffffffffffffffff168173ffffffffffffffffffffffffffffffffffffffff167f8be0079c531659141344cd1fd0a4f28419497f9722a3daafe3b4186f6b6457e060405160405180910390a35050565b600033905090565b60405180608001604052806060815260200160608152602001600073ffffffffffffffffffffffffffffffffffffffff1681526020016000151581525090565b6040518060a001604052806060815260200160608152602001606081526020016000151581526020016000151581525090565b6040518060a0016040528060008152602001600073ffffffffffffffffffffffffffffffffffffffff1681526020016060815260200160608152602001606081525090565b6000604051905090565b600080fd5b600080fd5b6000819050919050565b61452981614516565b811461453457600080fd5b50565b60008135905061454681614520565b92915050565b6000602082840312156145625761456161450c565b5b600061457084828501614537565b91505092915050565b600073ffffffffffffffffffffffffffffffffffffffff82169050919050565b60006145a482614579565b9050919050565b6145b481614599565b82525050565b60006020820190506145cf60008301846145ab565b92915050565b6145de81614599565b81146145e957600080fd5b50565b6000813590506145fb816145d5565b92915050565b60008060006060848603121561461a5761461961450c565b5b6000614628868287016145ec565b9350506020614639868287016145ec565b925050604061464a868287016145ec565b9150509250925092565b61465d81614516565b82525050565b60006020820190506146786000830184614654565b92915050565b600080604083850312156146955761469461450c565b5b60006146a3858286016145ec565b92505060206146b485828601614537565b9150509250929050565b600080600080608085870312156146d8576146d761450c565b5b60006146e6878288016145ec565b94505060206146f7878288016145ec565b9350506040614708878288016145ec565b9250506060614719878288016145ec565b91505092959194509250565b60006020828403121561473b5761473a61450c565b5b6000614749848285016145ec565b91505092915050565b600081519050919050565b600082825260208201905092915050565b60005b8381101561478c578082015181840152602081019050614771565b60008484015250505050565b6000601f19601f8301169050919050565b60006147b482614752565b6147be818561475d565b93506147ce81856020860161476e565b6147d781614798565b840191505092915050565b60008115159050919050565b6147f7816147e2565b82525050565b600060a082019050818103600083015261481781886147a9565b9050818103602083015261482b81876147a9565b9050818103604083015261483f81866147a9565b905061484e60608301856147ee565b61485b60808301846147ee565b9695505050505050565b60008060006060848603121561487e5761487d61450c565b5b600061488c868287016145ec565b935050602061489d868287016145ec565b92505060406148ae86828701614537565b9150509250925092565b600080604083850312156148cf576148ce61450c565b5b60006148dd858286016145ec565b92505060206148ee858286016145ec565b9150509250929050565b600060208201905061490d60008301846147ee565b92915050565b600081519050919050565b600082825260208201905092915050565b6000819050602082019050919050565b61494881614599565b82525050565b600061495a838361493f565b60208301905092915050565b6000602082019050919050565b600061497e82614913565b614988818561491e565b93506149938361492f565b8060005b838110156149c45781516149ab888261494e565b97506149b683614966565b925050600181019050614997565b5085935050505092915050565b600060208201905081810360008301526149eb8184614973565b905092915050565b600082825260208201905092915050565b6000614a0f82614752565b614a1981856149f3565b9350614a2981856020860161476e565b614a3281614798565b840191505092915050565b614a46816147e2565b82525050565b60006080830160008301518482036000860152614a698282614a04565b91505060208301518482036020860152614a838282614a04565b9150506040830151614a98604086018261493f565b506060830151614aab6060860182614a3d565b508091505092915050565b60006020820190508181036000830152614ad08184614a4c565b905092915050565b614ae1816147e2565b8114614aec57600080fd5b50565b600081359050614afe81614ad8565b92915050565b60008060008060008060c08789031215614b2157614b2061450c565b5b6000614b2f89828a016145ec565b9650506020614b4089828a016145ec565b9550506040614b5189828a016145ec565b9450506060614b6289828a01614537565b9350506080614b7389828a01614537565b92505060a0614b8489828a01614aef565b9150509295509295509295565b600080fd5b600080fd5b7f4e487b7100000000000000000000000000000000000000000000000000000000600052604160045260246000fd5b614bd382614798565b810181811067ffffffffffffffff82111715614bf257614bf1614b9b565b5b80604052505050565b6000614c05614502565b9050614c118282614bca565b919050565b600067ffffffffffffffff821115614c3157614c30614b9b565b5b614c3a82614798565b9050602081019050919050565b82818337600083830152505050565b6000614c69614c6484614c16565b614bfb565b905082815260208101848484011115614c8557614c84614b96565b5b614c90848285614c47565b509392505050565b600082601f830112614cad57614cac614b91565b5b8135614cbd848260208601614c56565b91505092915050565b60008060408385031215614cdd57614cdc61450c565b5b6000614ceb858286016145ec565b925050602083013567ffffffffffffffff811115614d0c57614d0b614511565b5b614d1885828601614c98565b9150509250929050565b60008060008060808587031215614d3c57614d3b61450c565b5b6000614d4a878288016145ec565b945050602085013567ffffffffffffffff811115614d6b57614d6a614511565b5b614d7787828801614c98565b935050604085013567ffffffffffffffff811115614d9857614d97614511565b5b614da487828801614c98565b925050606085013567ffffffffffffffff811115614dc557614dc4614511565b5b614dd187828801614c98565b91505092959194509250565b60006080820190508181036000830152614df781876147a9565b90508181036020830152614e0b81866147a9565b9050614e1a60408301856145ab565b614e2760608301846147ee565b95945050505050565b60006020820190508181036000830152614e4a81846147a9565b905092915050565b600060a082019050614e676000830188614654565b614e7460208301876145ab565b8181036040830152614e8681866147a9565b90508181036060830152614e9a81856147a9565b90508181036080830152614eae81846147a9565b90509695505050505050565b600080600060608486031215614ed357614ed261450c565b5b600084013567ffffffffffffffff811115614ef157614ef0614511565b5b614efd86828701614c98565b935050602084013567ffffffffffffffff811115614f1e57614f1d614511565b5b614f2a86828701614c98565b925050604084013567ffffffffffffffff811115614f4b57614f4a614511565b5b614f5786828701614c98565b9150509250925092565b600080600080600060a08688031215614f7d57614f7c61450c565b5b6000614f8b888289016145ec565b9550506020614f9c888289016145ec565b945050604086013567ffffffffffffffff811115614fbd57614fbc614511565b5b614fc988828901614c98565b935050606086013567ffffffffffffffff811115614fea57614fe9614511565b5b614ff688828901614c98565b9250506080615007888289016145ec565b9150509295509295909350565b600060a08201905061502960008301886145ab565b818103602083015261503b81876147a9565b905061504a6040830186614654565b61505760608301856147ee565b61506460808301846147ee565b9695505050505050565b600080604083850312156150855761508461450c565b5b6000615093858286016145ec565b92505060206150a485828601614aef565b9150509250929050565b600080600080600060a086880312156150ca576150c961450c565b5b60006150d888828901614537565b95505060206150e9888289016145ec565b945050604086013567ffffffffffffffff81111561510a57615109614511565b5b61511688828901614c98565b935050606086013567ffffffffffffffff81111561513757615136614511565b5b61514388828901614c98565b925050608086013567ffffffffffffffff81111561516457615163614511565b5b61517088828901614c98565b9150509295509295909350565b600060a083016000830151848203600086015261519a8282614a04565b915050602083015184820360208601526151b48282614a04565b915050604083015184820360408601526151ce8282614a04565b91505060608301516151e36060860182614a3d565b5060808301516151f66080860182614a3d565b508091505092915050565b6000602082019050818103600083015261521b818461517d565b905092915050565b60008060006060848603121561523c5761523b61450c565b5b600084013567ffffffffffffffff81111561525a57615259614511565b5b61526686828701614c98565b935050602084013567ffffffffffffffff81111561528757615286614511565b5b61529386828701614c98565b92505060406152a4868287016145ec565b9150509250925092565b600060408201905081810360008301526152c881856147a9565b90506152d760208301846147ee565b9392505050565b6152e781614516565b82525050565b600060a08301600083015161530560008601826152de565b506020830151615318602086018261493f565b50604083015184820360408601526153308282614a04565b9150506060830151848203606086015261534a8282614a04565b915050608083015184820360808601526153648282614a04565b9150508091505092915050565b6000602082019050818103600083015261538b81846152ed565b905092915050565b600081519050919050565b600082825260208201905092915050565b6000819050602082019050919050565b60006153cb83836152de565b60208301905092915050565b6000602082019050919050565b60006153ef82615393565b6153f9818561539e565b9350615404836153af565b8060005b8381101561543557815161541c88826153bf565b9750615427836153d7565b925050600181019050615408565b5085935050505092915050565b6000602082019050818103600083015261545c81846153e4565b905092915050565b60008060008060008060c087890312156154815761548061450c565b5b600061548f89828a016145ec565b96505060206154a089828a016145ec565b95505060406154b189828a016145ec565b945050606087013567ffffffffffffffff8111156154d2576154d1614511565b5b6154de89828a01614c98565b93505060806154ef89828a01614aef565b92505060a061550089828a01614aef565b9150509295509295509295565b600080600080600080600060e0888a03121561552c5761552b61450c565b5b600061553a8a828b016145ec565b975050602061554b8a828b016145ec565b965050604061555c8a828b016145ec565b955050606088013567ffffffffffffffff81111561557d5761557c614511565b5b6155898a828b01614c98565b945050608061559a8a828b01614537565b93505060a06155ab8a828b01614aef565b92505060c06155bc8a828b01614aef565b91505092959891949750929550565b7f4e487b7100000000000000000000000000000000000000000000000000000000600052603260045260246000fd5b7f4e487b7100000000000000000000000000000000000000000000000000000000600052601160045260246000fd5b600061563482614516565b91507fffffffffffffffffffffffffffffffffffffffffffffffffffffffffffffffff8203615666576156656155fa565b5b600182019050919050565b7f4e487b7100000000000000000000000000000000000000000000000000000000600052602260045260246000fd5b600060028204905060018216806156b857607f821691505b6020821081036156cb576156ca615671565b5b50919050565b7f4974206973206f6e6c7920666f72206d756c7469706c65206e6f6d696e656500600082015250565b6000615707601f8361475d565b9150615712826156d1565b602082019050919050565b60006020820190508181036000830152615736816156fa565b9050919050565b600061574882614516565b915061575383614516565b925082820390508181111561576b5761576a6155fa565b5b92915050565b600061577c82614516565b915061578783614516565b925082820190508082111561579f5761579e6155fa565b5b92915050565b7f3130302520736861726520697320616c726561647920616c6c6f63617465642e60008201527f2e2e000000000000000000000000000000000000000000000000000000000000602082015250565b600061580160228361475d565b915061580c826157a5565b604082019050919050565b60006020820190508181036000830152615830816157f4565b9050919050565b60008190508160005260206000209050919050565b60006020601f8301049050919050565b600082821b905092915050565b6000600883026158997fffffffffffffffffffffffffffffffffffffffffffffffffffffffffffffffff8261585c565b6158a3868361585c565b95508019841693508086168417925050509392505050565b6000819050919050565b60006158e06158db6158d684614516565b6158bb565b614516565b9050919050565b6000819050919050565b6158fa836158c5565b61590e615906826158e7565b848454615869565b825550505050565b600090565b615923615916565b61592e8184846158f1565b505050565b5b818110156159525761594760008261591b565b600181019050615934565b5050565b601f8211156159975761596881615837565b6159718461584c565b81016020851015615980578190505b61599461598c8561584c565b830182615933565b50505b505050565b600082821c905092915050565b60006159ba6000198460080261599c565b1980831691505092915050565b60006159d383836159a9565b9150826002028217905092915050565b6159ec82614752565b67ffffffffffffffff811115615a0557615a04614b9b565b5b615a0f82546156a0565b615a1a828285615956565b600060209050601f831160018114615a4d5760008415615a3b578287015190505b615a4585826159c7565b865550615aad565b601f198416615a5b86615837565b60005b82811015615a8357848901518255600182019150602085019450602081019050615a5e565b86831015615aa05784890151615a9c601f8916826159a9565b8355505b6001600288020188555050505b505050505050565b7f4f776e61626c653a206e6577206f776e657220697320746865207a65726f206160008201527f6464726573730000000000000000000000000000000000000000000000000000602082015250565b6000615b1160268361475d565b9150615b1c82615ab5565b604082019050919050565b60006020820190508181036000830152615b4081615b04565b9050919050565b7f4f776e61626c653a2063616c6c6572206973206e6f7420746865206f776e6572600082015250565b6000615b7d60208361475d565b9150615b8882615b47565b602082019050919050565b60006020820190508181036000830152615bac81615b70565b905091905056fea2646970667358221220129a311af095747f96000985d3b5eeec0ed4f809489691c5387075c2cc43246664736f6c63430008110033",
  "linkReferences": {},
  "deployedLinkReferences": {}
}