{
  "_format": "hh-sol-artifact-1",
  "contractName": "Inheritokens",
  "sourceName": "contracts/Inheritokens.sol",
  "abi": [
    {
      "inputs": [],
      "stateMutability": "nonpayable",
      "type": "constructor"
    },
    {
      "anonymous": false,
      "inputs": [
        {
          "indexed": true,
          "internalType": "address",
          "name": "previousOwner",
          "type": "address"
        },
        {
          "indexed": true,
          "internalType": "address",
          "name": "newOwner",
          "type": "address"
        }
      ],
      "name": "OwnershipTransferred",
      "type": "event"
    },
    {
      "inputs": [
        {
          "internalType": "string",
          "name": "_name",
          "type": "string"
        },
        {
          "internalType": "string",
          "name": "_email",
          "type": "string"
        },
        {
          "internalType": "address",
          "name": "_nominee",
          "type": "address"
        }
      ],
      "name": "addNomineesDetails",
      "outputs": [],
      "stateMutability": "nonpayable",
      "type": "function"
    },
    {
      "inputs": [
        {
          "internalType": "string",
          "name": "_name",
          "type": "string"
        },
        {
          "internalType": "string",
          "name": "_email",
          "type": "string"
        },
        {
          "internalType": "string",
          "name": "_cid",
          "type": "string"
        }
      ],
      "name": "addOwnerDetails",
      "outputs": [],
      "stateMutability": "nonpayable",
      "type": "function"
    },
    {
      "inputs": [
        {
          "internalType": "address",
          "name": "_owner",
          "type": "address"
        },
        {
          "internalType": "address",
          "name": "_recoveryAddress",
          "type": "address"
        }
      ],
      "name": "addWalletRecovery",
      "outputs": [],
      "stateMutability": "nonpayable",
      "type": "function"
    },
    {
      "inputs": [
        {
          "internalType": "address",
          "name": "",
          "type": "address"
        }
      ],
      "name": "addressToNominee",
      "outputs": [
        {
          "internalType": "string",
          "name": "nominee_name",
          "type": "string"
        },
        {
          "internalType": "string",
          "name": "nominee_email",
          "type": "string"
        },
        {
          "internalType": "address",
          "name": "nominee_address",
          "type": "address"
        },
        {
          "internalType": "bool",
          "name": "hasClaimed",
          "type": "bool"
        }
      ],
      "stateMutability": "view",
      "type": "function"
    },
    {
      "inputs": [
        {
          "internalType": "address",
          "name": "",
          "type": "address"
        }
      ],
      "name": "addressToOwner",
      "outputs": [
        {
          "internalType": "string",
          "name": "owner_name",
          "type": "string"
        },
        {
          "internalType": "string",
          "name": "owner_email",
          "type": "string"
        },
        {
          "internalType": "string",
          "name": "image_cid",
          "type": "string"
        },
        {
          "internalType": "bool",
          "name": "isEmailVerified",
          "type": "bool"
        },
        {
          "internalType": "bool",
          "name": "isAlive",
          "type": "bool"
        },
        {
          "internalType": "address",
          "name": "recoveryAddress",
          "type": "address"
        }
      ],
      "stateMutability": "view",
      "type": "function"
    },
    {
      "inputs": [
        {
          "internalType": "address",
          "name": "_owner",
          "type": "address"
        }
      ],
      "name": "checkVerification",
      "outputs": [
        {
          "internalType": "bool",
          "name": "",
          "type": "bool"
        }
      ],
      "stateMutability": "view",
      "type": "function"
    },
    {
      "inputs": [
        {
          "internalType": "address",
          "name": "_nominee",
          "type": "address"
        }
      ],
      "name": "claim",
      "outputs": [],
      "stateMutability": "nonpayable",
      "type": "function"
    },
    {
      "inputs": [
        {
          "internalType": "address",
          "name": "_owner",
          "type": "address"
        },
        {
          "internalType": "address",
          "name": "_oldNomineeAddress",
          "type": "address"
        },
        {
          "internalType": "string",
          "name": "_name",
          "type": "string"
        },
        {
          "internalType": "string",
          "name": "_email",
          "type": "string"
        },
        {
          "internalType": "address",
          "name": "_newNomineeAddress",
          "type": "address"
        }
      ],
      "name": "editNomineeDetails",
      "outputs": [],
      "stateMutability": "nonpayable",
      "type": "function"
    },
    {
      "inputs": [
        {
          "internalType": "address",
          "name": "_owner",
          "type": "address"
        }
      ],
      "name": "getAllNominees",
      "outputs": [
        {
          "internalType": "address[]",
          "name": "",
          "type": "address[]"
        }
      ],
      "stateMutability": "view",
      "type": "function"
    },
    {
      "inputs": [
        {
          "internalType": "address",
          "name": "_owner",
          "type": "address"
        },
        {
          "internalType": "address",
          "name": "_tokenAddress",
          "type": "address"
        }
      ],
      "name": "getAllNomineesAssignedForToken",
      "outputs": [
        {
          "internalType": "address[]",
          "name": "",
          "type": "address[]"
        }
      ],
      "stateMutability": "view",
      "type": "function"
    },
    {
      "inputs": [
        {
          "internalType": "address",
          "name": "_owner",
          "type": "address"
        },
        {
          "internalType": "address",
          "name": "_nominee",
          "type": "address"
        }
      ],
      "name": "getAllTokensNomineeIsNominated",
      "outputs": [
        {
          "internalType": "address[]",
          "name": "",
          "type": "address[]"
        }
      ],
      "stateMutability": "view",
      "type": "function"
    },
    {
      "inputs": [
        {
          "internalType": "address",
          "name": "_owner",
          "type": "address"
        }
      ],
      "name": "getAllWhiteListedCharities",
      "outputs": [
        {
          "internalType": "uint256[]",
          "name": "",
          "type": "uint256[]"
        }
      ],
      "stateMutability": "view",
      "type": "function"
    },
    {
      "inputs": [
        {
          "internalType": "address",
          "name": "_tokenAddress",
          "type": "address"
        }
      ],
      "name": "getIsNominated",
      "outputs": [
        {
          "internalType": "bool",
          "name": "",
          "type": "bool"
        }
      ],
      "stateMutability": "view",
      "type": "function"
    },
    {
      "inputs": [
        {
          "internalType": "address",
          "name": "_nominee",
          "type": "address"
        }
      ],
      "name": "getNomineeDetails",
      "outputs": [
        {
          "components": [
            {
              "internalType": "string",
              "name": "nominee_name",
              "type": "string"
            },
            {
              "internalType": "string",
              "name": "nominee_email",
              "type": "string"
            },
            {
              "internalType": "address",
              "name": "nominee_address",
              "type": "address"
            },
            {
              "internalType": "bool",
              "name": "hasClaimed",
              "type": "bool"
            }
          ],
          "internalType": "struct Inheritokens.Nominee",
          "name": "",
          "type": "tuple"
        }
      ],
      "stateMutability": "view",
      "type": "function"
    },
    {
      "inputs": [
        {
          "internalType": "address",
          "name": "_owner",
          "type": "address"
        },
        {
          "internalType": "address",
          "name": "_nominee",
          "type": "address"
        },
        {
          "internalType": "address",
          "name": "_tokenAddress",
          "type": "address"
        }
      ],
      "name": "getNomineeToTokenRight",
      "outputs": [
        {
          "internalType": "bool",
          "name": "",
          "type": "bool"
        }
      ],
      "stateMutability": "view",
      "type": "function"
    },
    {
      "inputs": [
        {
          "internalType": "address",
          "name": "_owner",
          "type": "address"
        }
      ],
      "name": "getOwnerAlive",
      "outputs": [
        {
          "internalType": "bool",
          "name": "",
          "type": "bool"
        }
      ],
      "stateMutability": "view",
      "type": "function"
    },
    {
      "inputs": [
        {
          "internalType": "address",
          "name": "_owner",
          "type": "address"
        }
      ],
      "name": "getOwnerDetails",
      "outputs": [
        {
          "components": [
            {
              "internalType": "string",
              "name": "owner_name",
              "type": "string"
            },
            {
              "internalType": "string",
              "name": "owner_email",
              "type": "string"
            },
            {
              "internalType": "string",
              "name": "image_cid",
              "type": "string"
            },
            {
              "internalType": "bool",
              "name": "isEmailVerified",
              "type": "bool"
            },
            {
              "internalType": "bool",
              "name": "isAlive",
              "type": "bool"
            },
            {
              "internalType": "address",
              "name": "recoveryAddress",
              "type": "address"
            },
            {
              "internalType": "address[]",
              "name": "nominees",
              "type": "address[]"
            },
            {
              "internalType": "uint256[]",
              "name": "charities",
              "type": "uint256[]"
            }
          ],
          "internalType": "struct Inheritokens.Owner",
          "name": "",
          "type": "tuple"
        }
      ],
      "stateMutability": "view",
      "type": "function"
    },
    {
      "inputs": [],
      "name": "getOwners",
      "outputs": [
        {
          "internalType": "address[]",
          "name": "",
          "type": "address[]"
        }
      ],
      "stateMutability": "view",
      "type": "function"
    },
    {
      "inputs": [
        {
          "internalType": "address",
          "name": "_owner",
          "type": "address"
        }
      ],
      "name": "getRecoveryAddress",
      "outputs": [
        {
          "internalType": "address",
          "name": "",
          "type": "address"
        }
      ],
      "stateMutability": "view",
      "type": "function"
    },
    {
      "inputs": [
        {
          "internalType": "address",
          "name": "_owner",
          "type": "address"
        }
      ],
      "name": "getResponse",
      "outputs": [
        {
          "internalType": "bool",
          "name": "",
          "type": "bool"
        }
      ],
      "stateMutability": "view",
      "type": "function"
    },
    {
      "inputs": [
        {
          "internalType": "address",
          "name": "_owner",
          "type": "address"
        }
      ],
      "name": "getResponseDate",
      "outputs": [
        {
          "internalType": "string",
          "name": "",
          "type": "string"
        }
      ],
      "stateMutability": "view",
      "type": "function"
    },
    {
      "inputs": [],
      "name": "getTotalOwners",
      "outputs": [
        {
          "internalType": "uint256",
          "name": "",
          "type": "uint256"
        }
      ],
      "stateMutability": "view",
      "type": "function"
    },
    {
      "inputs": [
        {
          "internalType": "address",
          "name": "",
          "type": "address"
        }
      ],
      "name": "isOwnerAdded",
      "outputs": [
        {
          "internalType": "bool",
          "name": "",
          "type": "bool"
        }
      ],
      "stateMutability": "view",
      "type": "function"
    },
    {
      "inputs": [],
      "name": "owner",
      "outputs": [
        {
          "internalType": "address",
          "name": "",
          "type": "address"
        }
      ],
      "stateMutability": "view",
      "type": "function"
    },
    {
      "inputs": [
        {
          "internalType": "address",
          "name": "",
          "type": "address"
        },
        {
          "internalType": "address",
          "name": "",
          "type": "address"
        },
        {
          "internalType": "address",
          "name": "",
          "type": "address"
        }
      ],
      "name": "ownerToNomineeAddressToTokenAddressToRight",
      "outputs": [
        {
          "internalType": "bool",
          "name": "",
          "type": "bool"
        }
      ],
      "stateMutability": "view",
      "type": "function"
    },
    {
      "inputs": [
        {
          "internalType": "address",
          "name": "",
          "type": "address"
        },
        {
          "internalType": "address",
          "name": "",
          "type": "address"
        },
        {
          "internalType": "uint256",
          "name": "",
          "type": "uint256"
        }
      ],
      "name": "ownerToNomineeToTokenAddressArray",
      "outputs": [
        {
          "internalType": "address",
          "name": "",
          "type": "address"
        }
      ],
      "stateMutability": "view",
      "type": "function"
    },
    {
      "inputs": [
        {
          "internalType": "address",
          "name": "",
          "type": "address"
        }
      ],
      "name": "ownerToResponse",
      "outputs": [
        {
          "internalType": "string",
          "name": "date",
          "type": "string"
        },
        {
          "internalType": "bool",
          "name": "isResponsed",
          "type": "bool"
        }
      ],
      "stateMutability": "view",
      "type": "function"
    },
    {
      "inputs": [
        {
          "internalType": "address",
          "name": "",
          "type": "address"
        },
        {
          "internalType": "address",
          "name": "",
          "type": "address"
        },
        {
          "internalType": "uint256",
          "name": "",
          "type": "uint256"
        }
      ],
      "name": "ownerToTokenAddressToNomineeArray",
      "outputs": [
        {
          "internalType": "address",
          "name": "",
          "type": "address"
        }
      ],
      "stateMutability": "view",
      "type": "function"
    },
    {
      "inputs": [
        {
          "internalType": "uint256",
          "name": "",
          "type": "uint256"
        }
      ],
      "name": "owners",
      "outputs": [
        {
          "internalType": "address",
          "name": "",
          "type": "address"
        }
      ],
      "stateMutability": "view",
      "type": "function"
    },
    {
      "inputs": [
        {
          "internalType": "address",
          "name": "_owner",
          "type": "address"
        },
        {
          "internalType": "address",
          "name": "_tokenAddress",
          "type": "address"
        },
        {
          "internalType": "address[]",
          "name": "_nominee",
          "type": "address[]"
        },
        {
          "internalType": "uint256",
          "name": "index",
          "type": "uint256"
        }
      ],
      "name": "processAfterAssignedMultiple",
      "outputs": [],
      "stateMutability": "nonpayable",
      "type": "function"
    },
    {
      "inputs": [
        {
          "internalType": "address",
          "name": "_tokenAddress",
          "type": "address"
        },
        {
          "internalType": "uint256",
          "name": "amount",
          "type": "uint256"
        }
      ],
      "name": "processEditForMultiple",
      "outputs": [],
      "stateMutability": "nonpayable",
      "type": "function"
    },
    {
      "inputs": [
        {
          "internalType": "address",
          "name": "_tokenAddress",
          "type": "address"
        },
        {
          "internalType": "string",
          "name": "_tokenName",
          "type": "string"
        },
        {
          "internalType": "uint256",
          "name": "amount",
          "type": "uint256"
        },
        {
          "internalType": "bool",
          "name": "_isMultipleNominee",
          "type": "bool"
        },
        {
          "internalType": "bool",
          "name": "_isPriorityNominee",
          "type": "bool"
        }
      ],
      "name": "pushMultipleNominee",
      "outputs": [],
      "stateMutability": "nonpayable",
      "type": "function"
    },
    {
      "inputs": [
        {
          "internalType": "address",
          "name": "_owner",
          "type": "address"
        },
        {
          "internalType": "address",
          "name": "_nominee",
          "type": "address"
        },
        {
          "internalType": "address",
          "name": "_tokenAddress",
          "type": "address"
        }
      ],
      "name": "removeAssignedPriorityNomineeAddressToToken",
      "outputs": [],
      "stateMutability": "nonpayable",
      "type": "function"
    },
    {
      "inputs": [],
      "name": "renounceOwnership",
      "outputs": [],
      "stateMutability": "nonpayable",
      "type": "function"
    },
    {
      "inputs": [
        {
          "internalType": "address",
          "name": "_owner",
          "type": "address"
        }
      ],
      "name": "setOwnerNotAlive",
      "outputs": [],
      "stateMutability": "nonpayable",
      "type": "function"
    },
    {
      "inputs": [
        {
          "internalType": "address",
          "name": "_owner",
          "type": "address"
        },
        {
          "internalType": "bool",
          "name": "_response",
          "type": "bool"
        }
      ],
      "name": "setResponse",
      "outputs": [],
      "stateMutability": "nonpayable",
      "type": "function"
    },
    {
      "inputs": [
        {
          "internalType": "address",
          "name": "_owner",
          "type": "address"
        },
        {
          "internalType": "string",
          "name": "_date",
          "type": "string"
        }
      ],
      "name": "setResponseDate",
      "outputs": [],
      "stateMutability": "nonpayable",
      "type": "function"
    },
    {
      "inputs": [
        {
          "internalType": "address",
          "name": "_owner",
          "type": "address"
        },
        {
          "internalType": "uint256",
          "name": "_charityId",
          "type": "uint256"
        }
      ],
      "name": "setWhiteListedCharities",
      "outputs": [],
      "stateMutability": "nonpayable",
      "type": "function"
    },
    {
      "inputs": [
        {
          "internalType": "address",
          "name": "",
          "type": "address"
        }
      ],
      "name": "tokenAddressToTokenStruct",
      "outputs": [
        {
          "internalType": "address",
          "name": "token_address",
          "type": "address"
        },
        {
          "internalType": "string",
          "name": "token_name",
          "type": "string"
        },
        {
          "internalType": "uint256",
          "name": "allocated_share",
          "type": "uint256"
        },
        {
          "internalType": "bool",
          "name": "isMultipleNominee",
          "type": "bool"
        },
        {
          "internalType": "bool",
          "name": "isPriorityNominee",
          "type": "bool"
        },
        {
          "internalType": "bool",
          "name": "isNominated",
          "type": "bool"
        }
      ],
      "stateMutability": "view",
      "type": "function"
    },
    {
      "inputs": [
        {
          "internalType": "address",
          "name": "newOwner",
          "type": "address"
        }
      ],
      "name": "transferOwnership",
      "outputs": [],
      "stateMutability": "nonpayable",
      "type": "function"
    },
    {
      "inputs": [
        {
          "internalType": "address",
          "name": "_owner",
          "type": "address"
        }
      ],
      "name": "verifyOwnerEmail",
      "outputs": [],
      "stateMutability": "nonpayable",
      "type": "function"
    }
  ],
  "bytecode": "0x60806040523480156200001157600080fd5b5062000032620000266200003860201b60201c565b6200004060201b60201c565b62000104565b600033905090565b60008060009054906101000a900473ffffffffffffffffffffffffffffffffffffffff169050816000806101000a81548173ffffffffffffffffffffffffffffffffffffffff021916908373ffffffffffffffffffffffffffffffffffffffff1602179055508173ffffffffffffffffffffffffffffffffffffffff168173ffffffffffffffffffffffffffffffffffffffff167f8be0079c531659141344cd1fd0a4f28419497f9722a3daafe3b4186f6b6457e060405160405180910390a35050565b61456a80620001146000396000f3fe608060405234801561001057600080fd5b50600436106102535760003560e01c80638258d02111610146578063baab9797116100c3578063cf751c4411610087578063cf751c4414610793578063d152fd8f146107c4578063db23f9f3146107f4578063e62d4f7c14610812578063f2fde38b14610842578063f80097851461085e57610253565b8063baab9797146106df578063bece99681461070f578063c3bb81211461072b578063c47f9b971461075b578063cb144b391461077757610253565b80639979d30e1161010a5780639979d30e14610638578063a0e67e2b1461066d578063a1d5a9981461068b578063a5394b39146106a7578063a6072445146106c357610253565b80638258d021146105965780638da5cb5b146105b25780638dde3dc4146105d05780638f25dac9146105ec57806392f820481461061c57610253565b80633d06305b116101d45780635a863c11116101985780635a863c11146104c95780636199997f146104fc5780636a5e89381461052c578063715018a61461055c57806376f0ffc61461056657610253565b80633d06305b146103ed578063433a05b01461041d5780634950956e1461044d578063511865e91461047d57806354add3e7146104ad57610253565b806320ff42601161021b57806320ff4260146103115780632358fd071461034157806329ce480e14610371578063348f0a93146103a157806335321c40146103bd57610253565b8063025e7c271461025857806306d1681d146102885780630a507825146102a4578063159305e1146102c05780631e83409a146102f5575b600080fd5b610272600480360381019061026d91906130be565b61088e565b60405161027f919061312c565b60405180910390f35b6102a2600480360381019061029d9190613173565b6108cd565b005b6102be60048036038101906102b991906132f9565b610a4f565b005b6102da60048036038101906102d59190613173565b610d2f565b6040516102ec96959493929190613416565b60405180910390f35b61030f600480360381019061030a9190613173565b610f3d565b005b61032b6004803603810190610326919061348c565b610f9b565b604051610338919061312c565b60405180910390f35b61035b600480360381019061035691906134df565b610ff6565b6040516103689190613532565b60405180910390f35b61038b6004803603810190610386919061354d565b6110c8565b604051610398919061364b565b60405180910390f35b6103bb60048036038101906103b6919061366d565b6111d3565b005b6103d760048036038101906103d29190613173565b611240565b6040516103e49190613532565b60405180910390f35b6104076004803603810190610402919061354d565b611299565b604051610414919061364b565b60405180910390f35b61043760048036038101906104329190613173565b6113a4565b6040516104449190613532565b60405180910390f35b61046760048036038101906104629190613173565b6113fd565b6040516104749190613770565b60405180910390f35b61049760048036038101906104929190613173565b6115eb565b6040516104a4919061312c565b60405180910390f35b6104c760048036038101906104c29190613847565b611657565b005b6104e360048036038101906104de9190613173565b6116b3565b6040516104f394939291906138a3565b60405180910390f35b61051660048036038101906105119190613173565b611820565b6040516105239190613532565b60405180910390f35b61054660048036038101906105419190613173565b611879565b60405161055391906138f6565b60405180910390f35b61056461194d565b005b610580600480360381019061057b9190613173565b611961565b60405161058d9190613532565b60405180910390f35b6105b060048036038101906105ab9190613918565b611981565b005b6105ba611c74565b6040516105c7919061312c565b60405180910390f35b6105ea60048036038101906105e591906134df565b611c9d565b005b610606600480360381019061060191906134df565b611d74565b6040516106139190613532565b60405180910390f35b610636600480360381019061063191906139bf565b611db0565b005b610652600480360381019061064d9190613173565b612164565b60405161066496959493929190613a81565b60405180910390f35b61067561226f565b604051610682919061364b565b60405180910390f35b6106a560048036038101906106a09190613b15565b6122fd565b005b6106c160048036038101906106bc9190613173565b612457565b005b6106dd60048036038101906106d89190613bac565b6124bd565b005b6106f960048036038101906106f49190613173565b61251b565b6040516107069190613532565b60405180910390f35b6107296004803603810190610724919061354d565b612574565b005b61074560048036038101906107409190613173565b6125f9565b6040516107529190613de5565b60405180910390f35b6107756004803603810190610770919061366d565b61297b565b005b610791600480360381019061078c9190613e07565b6129c6565b005b6107ad60048036038101906107a89190613173565b612b7d565b6040516107bb929190613e92565b60405180910390f35b6107de60048036038101906107d9919061348c565b612c36565b6040516107eb919061312c565b60405180910390f35b6107fc612c91565b6040516108099190613ec2565b60405180910390f35b61082c60048036038101906108279190613173565b612c9e565b6040516108399190613f4c565b60405180910390f35b61085c60048036038101906108579190613173565b612d38565b005b61087860048036038101906108739190613173565b612dbb565b604051610885919061364b565b60405180910390f35b6001818154811061089e57600080fd5b906000526020600020016000915054906101000a900473ffffffffffffffffffffffffffffffffffffffff1681565b6108d5612e8b565b600260008273ffffffffffffffffffffffffffffffffffffffff1673ffffffffffffffffffffffffffffffffffffffff16815260200190815260200160002060009054906101000a900460ff16610961576040517f08c379a000000000000000000000000000000000000000000000000000000000815260040161095890613fba565b60405180910390fd5b600360008273ffffffffffffffffffffffffffffffffffffffff1673ffffffffffffffffffffffffffffffffffffffff16815260200190815260200160002060030160009054906101000a900460ff16156109f1576040517f08c379a00000000000000000000000000000000000000000000000000000000081526004016109e890614026565b60405180910390fd5b6001600360008373ffffffffffffffffffffffffffffffffffffffff1673ffffffffffffffffffffffffffffffffffffffff16815260200190815260200160002060030160006101000a81548160ff02191690831515021790555050565b600660008573ffffffffffffffffffffffffffffffffffffffff1673ffffffffffffffffffffffffffffffffffffffff16815260200190815260200160002060008473ffffffffffffffffffffffffffffffffffffffff1673ffffffffffffffffffffffffffffffffffffffff168152602001908152602001600020828281518110610ade57610add614046565b5b60200260200101519080600181540180825580915050600190039060005260206000200160009091909190916101000a81548173ffffffffffffffffffffffffffffffffffffffff021916908373ffffffffffffffffffffffffffffffffffffffff160217905550600760008573ffffffffffffffffffffffffffffffffffffffff1673ffffffffffffffffffffffffffffffffffffffff1681526020019081526020016000206000838381518110610b9a57610b99614046565b5b602002602001015173ffffffffffffffffffffffffffffffffffffffff1673ffffffffffffffffffffffffffffffffffffffff168152602001908152602001600020839080600181540180825580915050600190039060005260206000200160009091909190916101000a81548173ffffffffffffffffffffffffffffffffffffffff021916908373ffffffffffffffffffffffffffffffffffffffff1602179055506001600860008673ffffffffffffffffffffffffffffffffffffffff1673ffffffffffffffffffffffffffffffffffffffff1681526020019081526020016000206000848481518110610c9357610c92614046565b5b602002602001015173ffffffffffffffffffffffffffffffffffffffff1673ffffffffffffffffffffffffffffffffffffffff16815260200190815260200160002060008573ffffffffffffffffffffffffffffffffffffffff1673ffffffffffffffffffffffffffffffffffffffff16815260200190815260200160002060006101000a81548160ff02191690831515021790555050505050565b6003602052806000526040600020600091509050806000018054610d52906140a4565b80601f0160208091040260200160405190810160405280929190818152602001828054610d7e906140a4565b8015610dcb5780601f10610da057610100808354040283529160200191610dcb565b820191906000526020600020905b815481529060010190602001808311610dae57829003601f168201915b505050505090806001018054610de0906140a4565b80601f0160208091040260200160405190810160405280929190818152602001828054610e0c906140a4565b8015610e595780601f10610e2e57610100808354040283529160200191610e59565b820191906000526020600020905b815481529060010190602001808311610e3c57829003601f168201915b505050505090806002018054610e6e906140a4565b80601f0160208091040260200160405190810160405280929190818152602001828054610e9a906140a4565b8015610ee75780601f10610ebc57610100808354040283529160200191610ee7565b820191906000526020600020905b815481529060010190602001808311610eca57829003601f168201915b5050505050908060030160009054906101000a900460ff16908060030160019054906101000a900460ff16908060030160029054906101000a900473ffffffffffffffffffffffffffffffffffffffff16905086565b6001600460008373ffffffffffffffffffffffffffffffffffffffff1673ffffffffffffffffffffffffffffffffffffffff16815260200190815260200160002060020160146101000a81548160ff02191690831515021790555050565b60066020528260005260406000206020528160005260406000208181548110610fc357600080fd5b90600052602060002001600092509250509054906101000a900473ffffffffffffffffffffffffffffffffffffffff1681565b6000600860008573ffffffffffffffffffffffffffffffffffffffff1673ffffffffffffffffffffffffffffffffffffffff16815260200190815260200160002060008473ffffffffffffffffffffffffffffffffffffffff1673ffffffffffffffffffffffffffffffffffffffff16815260200190815260200160002060008373ffffffffffffffffffffffffffffffffffffffff1673ffffffffffffffffffffffffffffffffffffffff16815260200190815260200160002060009054906101000a900460ff1690509392505050565b6060600660008473ffffffffffffffffffffffffffffffffffffffff1673ffffffffffffffffffffffffffffffffffffffff16815260200190815260200160002060008373ffffffffffffffffffffffffffffffffffffffff1673ffffffffffffffffffffffffffffffffffffffff1681526020019081526020016000208054806020026020016040519081016040528092919081815260200182805480156111c657602002820191906000526020600020905b8160009054906101000a900473ffffffffffffffffffffffffffffffffffffffff1673ffffffffffffffffffffffffffffffffffffffff168152602001906001019080831161117c575b5050505050905092915050565b600360008373ffffffffffffffffffffffffffffffffffffffff1673ffffffffffffffffffffffffffffffffffffffff1681526020019081526020016000206005018190806001815401808255809150506001900390600052602060002001600090919091909150555050565b6000600560008373ffffffffffffffffffffffffffffffffffffffff1673ffffffffffffffffffffffffffffffffffffffff16815260200190815260200160002060030160029054906101000a900460ff169050919050565b6060600760008473ffffffffffffffffffffffffffffffffffffffff1673ffffffffffffffffffffffffffffffffffffffff16815260200190815260200160002060008373ffffffffffffffffffffffffffffffffffffffff1673ffffffffffffffffffffffffffffffffffffffff16815260200190815260200160002080548060200260200160405190810160405280929190818152602001828054801561139757602002820191906000526020600020905b8160009054906101000a900473ffffffffffffffffffffffffffffffffffffffff1673ffffffffffffffffffffffffffffffffffffffff168152602001906001019080831161134d575b5050505050905092915050565b6000600960008373ffffffffffffffffffffffffffffffffffffffff1673ffffffffffffffffffffffffffffffffffffffff16815260200190815260200160002060010160009054906101000a900460ff169050919050565b611405612fd5565b600460008373ffffffffffffffffffffffffffffffffffffffff1673ffffffffffffffffffffffffffffffffffffffff16815260200190815260200160002060405180608001604052908160008201805461145f906140a4565b80601f016020809104026020016040519081016040528092919081815260200182805461148b906140a4565b80156114d85780601f106114ad576101008083540402835291602001916114d8565b820191906000526020600020905b8154815290600101906020018083116114bb57829003601f168201915b505050505081526020016001820180546114f1906140a4565b80601f016020809104026020016040519081016040528092919081815260200182805461151d906140a4565b801561156a5780601f1061153f5761010080835404028352916020019161156a565b820191906000526020600020905b81548152906001019060200180831161154d57829003601f168201915b505050505081526020016002820160009054906101000a900473ffffffffffffffffffffffffffffffffffffffff1673ffffffffffffffffffffffffffffffffffffffff1673ffffffffffffffffffffffffffffffffffffffff1681526020016002820160149054906101000a900460ff1615151515815250509050919050565b6000600360008373ffffffffffffffffffffffffffffffffffffffff1673ffffffffffffffffffffffffffffffffffffffff16815260200190815260200160002060030160029054906101000a900473ffffffffffffffffffffffffffffffffffffffff169050919050565b61165f612e8b565b80600960008473ffffffffffffffffffffffffffffffffffffffff1673ffffffffffffffffffffffffffffffffffffffff16815260200190815260200160002060000190816116ae9190614281565b505050565b60046020528060005260406000206000915090508060000180546116d6906140a4565b80601f0160208091040260200160405190810160405280929190818152602001828054611702906140a4565b801561174f5780601f106117245761010080835404028352916020019161174f565b820191906000526020600020905b81548152906001019060200180831161173257829003601f168201915b505050505090806001018054611764906140a4565b80601f0160208091040260200160405190810160405280929190818152602001828054611790906140a4565b80156117dd5780601f106117b2576101008083540402835291602001916117dd565b820191906000526020600020905b8154815290600101906020018083116117c057829003601f168201915b5050505050908060020160009054906101000a900473ffffffffffffffffffffffffffffffffffffffff16908060020160149054906101000a900460ff16905084565b6000600360008373ffffffffffffffffffffffffffffffffffffffff1673ffffffffffffffffffffffffffffffffffffffff16815260200190815260200160002060030160019054906101000a900460ff169050919050565b6060600960008373ffffffffffffffffffffffffffffffffffffffff1673ffffffffffffffffffffffffffffffffffffffff16815260200190815260200160002060000180546118c8906140a4565b80601f01602080910402602001604051908101604052809291908181526020018280546118f4906140a4565b80156119415780601f1061191657610100808354040283529160200191611941565b820191906000526020600020905b81548152906001019060200180831161192457829003601f168201915b50505050509050919050565b611955612e8b565b61195f6000612f09565b565b60026020528060005260406000206000915054906101000a900460ff1681565b600260003373ffffffffffffffffffffffffffffffffffffffff1673ffffffffffffffffffffffffffffffffffffffff16815260200190815260200160002060009054906101000a900460ff1615611a0e576040517f08c379a0000000000000000000000000000000000000000000000000000000008152600401611a059061439f565b60405180910390fd5b6001339080600181540180825580915050600190039060005260206000200160009091909190916101000a81548173ffffffffffffffffffffffffffffffffffffffff021916908373ffffffffffffffffffffffffffffffffffffffff16021790555082600360003373ffffffffffffffffffffffffffffffffffffffff1673ffffffffffffffffffffffffffffffffffffffff1681526020019081526020016000206000019081611ac09190614281565b5081600360003373ffffffffffffffffffffffffffffffffffffffff1673ffffffffffffffffffffffffffffffffffffffff1681526020019081526020016000206001019081611b109190614281565b5080600360003373ffffffffffffffffffffffffffffffffffffffff1673ffffffffffffffffffffffffffffffffffffffff1681526020019081526020016000206002019081611b609190614281565b506000600360003373ffffffffffffffffffffffffffffffffffffffff1673ffffffffffffffffffffffffffffffffffffffff16815260200190815260200160002060030160006101000a81548160ff0219169083151502179055506001600360003373ffffffffffffffffffffffffffffffffffffffff1673ffffffffffffffffffffffffffffffffffffffff16815260200190815260200160002060030160016101000a81548160ff0219169083151502179055506001600260003373ffffffffffffffffffffffffffffffffffffffff1673ffffffffffffffffffffffffffffffffffffffff16815260200190815260200160002060006101000a81548160ff021916908315150217905550505050565b60008060009054906101000a900473ffffffffffffffffffffffffffffffffffffffff16905090565b6000600860008573ffffffffffffffffffffffffffffffffffffffff1673ffffffffffffffffffffffffffffffffffffffff16815260200190815260200160002060008473ffffffffffffffffffffffffffffffffffffffff1673ffffffffffffffffffffffffffffffffffffffff16815260200190815260200160002060008373ffffffffffffffffffffffffffffffffffffffff1673ffffffffffffffffffffffffffffffffffffffff16815260200190815260200160002060006101000a81548160ff021916908315150217905550505050565b6008602052826000526040600020602052816000526040600020602052806000526040600020600092509250509054906101000a900460ff1681565b8073ffffffffffffffffffffffffffffffffffffffff168473ffffffffffffffffffffffffffffffffffffffff1603611e885782600460008673ffffffffffffffffffffffffffffffffffffffff1673ffffffffffffffffffffffffffffffffffffffff1681526020019081526020016000206000019081611e329190614281565b5081600460008673ffffffffffffffffffffffffffffffffffffffff1673ffffffffffffffffffffffffffffffffffffffff1681526020019081526020016000206001019081611e829190614281565b5061215d565b82600460008373ffffffffffffffffffffffffffffffffffffffff1673ffffffffffffffffffffffffffffffffffffffff1681526020019081526020016000206000019081611ed79190614281565b5081600460008373ffffffffffffffffffffffffffffffffffffffff1673ffffffffffffffffffffffffffffffffffffffff1681526020019081526020016000206001019081611f279190614281565b5080600460008373ffffffffffffffffffffffffffffffffffffffff1673ffffffffffffffffffffffffffffffffffffffff16815260200190815260200160002060020160006101000a81548173ffffffffffffffffffffffffffffffffffffffff021916908373ffffffffffffffffffffffffffffffffffffffff16021790555060005b600360008773ffffffffffffffffffffffffffffffffffffffff1673ffffffffffffffffffffffffffffffffffffffff1681526020019081526020016000206004018054905081101561215b578473ffffffffffffffffffffffffffffffffffffffff16600360008873ffffffffffffffffffffffffffffffffffffffff1673ffffffffffffffffffffffffffffffffffffffff168152602001908152602001600020600401828154811061206457612063614046565b5b9060005260206000200160009054906101000a900473ffffffffffffffffffffffffffffffffffffffff1673ffffffffffffffffffffffffffffffffffffffff16036121485781600360008873ffffffffffffffffffffffffffffffffffffffff1673ffffffffffffffffffffffffffffffffffffffff16815260200190815260200160002060040182815481106120ff576120fe614046565b5b9060005260206000200160006101000a81548173ffffffffffffffffffffffffffffffffffffffff021916908373ffffffffffffffffffffffffffffffffffffffff1602179055505b8080612153906143ee565b915050611fac565b505b5050505050565b60056020528060005260406000206000915090508060000160009054906101000a900473ffffffffffffffffffffffffffffffffffffffff16908060010180546121ad906140a4565b80601f01602080910402602001604051908101604052809291908181526020018280546121d9906140a4565b80156122265780601f106121fb57610100808354040283529160200191612226565b820191906000526020600020905b81548152906001019060200180831161220957829003601f168201915b5050505050908060020154908060030160009054906101000a900460ff16908060030160019054906101000a900460ff16908060030160029054906101000a900460ff16905086565b606060018054806020026020016040519081016040528092919081815260200182805480156122f357602002820191906000526020600020905b8160009054906101000a900473ffffffffffffffffffffffffffffffffffffffff1673ffffffffffffffffffffffffffffffffffffffff16815260200190600101908083116122a9575b5050505050905090565b6040518060c001604052808673ffffffffffffffffffffffffffffffffffffffff1681526020018581526020018481526020018315158152602001821515815260200160011515815250600560008773ffffffffffffffffffffffffffffffffffffffff1673ffffffffffffffffffffffffffffffffffffffff16815260200190815260200160002060008201518160000160006101000a81548173ffffffffffffffffffffffffffffffffffffffff021916908373ffffffffffffffffffffffffffffffffffffffff16021790555060208201518160010190816123e29190614281565b506040820151816002015560608201518160030160006101000a81548160ff02191690831515021790555060808201518160030160016101000a81548160ff02191690831515021790555060a08201518160030160026101000a81548160ff0219169083151502179055509050505050505050565b61245f612e8b565b6000600360008373ffffffffffffffffffffffffffffffffffffffff1673ffffffffffffffffffffffffffffffffffffffff16815260200190815260200160002060030160016101000a81548160ff02191690831515021790555050565b80600960008473ffffffffffffffffffffffffffffffffffffffff1673ffffffffffffffffffffffffffffffffffffffff16815260200190815260200160002060010160006101000a81548160ff0219169083151502179055505050565b6000600360008373ffffffffffffffffffffffffffffffffffffffff1673ffffffffffffffffffffffffffffffffffffffff16815260200190815260200160002060030160009054906101000a900460ff169050919050565b80600360008473ffffffffffffffffffffffffffffffffffffffff1673ffffffffffffffffffffffffffffffffffffffff16815260200190815260200160002060030160026101000a81548173ffffffffffffffffffffffffffffffffffffffff021916908373ffffffffffffffffffffffffffffffffffffffff1602179055505050565b612601613015565b600360008373ffffffffffffffffffffffffffffffffffffffff1673ffffffffffffffffffffffffffffffffffffffff1681526020019081526020016000206040518061010001604052908160008201805461265c906140a4565b80601f0160208091040260200160405190810160405280929190818152602001828054612688906140a4565b80156126d55780601f106126aa576101008083540402835291602001916126d5565b820191906000526020600020905b8154815290600101906020018083116126b857829003601f168201915b505050505081526020016001820180546126ee906140a4565b80601f016020809104026020016040519081016040528092919081815260200182805461271a906140a4565b80156127675780601f1061273c57610100808354040283529160200191612767565b820191906000526020600020905b81548152906001019060200180831161274a57829003601f168201915b50505050508152602001600282018054612780906140a4565b80601f01602080910402602001604051908101604052809291908181526020018280546127ac906140a4565b80156127f95780601f106127ce576101008083540402835291602001916127f9565b820191906000526020600020905b8154815290600101906020018083116127dc57829003601f168201915b505050505081526020016003820160009054906101000a900460ff161515151581526020016003820160019054906101000a900460ff161515151581526020016003820160029054906101000a900473ffffffffffffffffffffffffffffffffffffffff1673ffffffffffffffffffffffffffffffffffffffff1673ffffffffffffffffffffffffffffffffffffffff1681526020016004820180548060200260200160405190810160405280929190818152602001828054801561291357602002820191906000526020600020905b8160009054906101000a900473ffffffffffffffffffffffffffffffffffffffff1673ffffffffffffffffffffffffffffffffffffffff16815260200190600101908083116128c9575b505050505081526020016005820180548060200260200160405190810160405280929190818152602001828054801561296b57602002820191906000526020600020905b815481526020019060010190808311612957575b5050505050815250509050919050565b80600560008473ffffffffffffffffffffffffffffffffffffffff1673ffffffffffffffffffffffffffffffffffffffff168152602001908152602001600020600201819055505050565b60405180608001604052808481526020018381526020018273ffffffffffffffffffffffffffffffffffffffff16815260200160001515815250600460008373ffffffffffffffffffffffffffffffffffffffff1673ffffffffffffffffffffffffffffffffffffffff1681526020019081526020016000206000820151816000019081612a549190614281565b506020820151816001019081612a6a9190614281565b5060408201518160020160006101000a81548173ffffffffffffffffffffffffffffffffffffffff021916908373ffffffffffffffffffffffffffffffffffffffff16021790555060608201518160020160146101000a81548160ff021916908315150217905550905050600360003373ffffffffffffffffffffffffffffffffffffffff1673ffffffffffffffffffffffffffffffffffffffff168152602001908152602001600020600401819080600181540180825580915050600190039060005260206000200160009091909190916101000a81548173ffffffffffffffffffffffffffffffffffffffff021916908373ffffffffffffffffffffffffffffffffffffffff160217905550505050565b6009602052806000526040600020600091509050806000018054612ba0906140a4565b80601f0160208091040260200160405190810160405280929190818152602001828054612bcc906140a4565b8015612c195780601f10612bee57610100808354040283529160200191612c19565b820191906000526020600020905b815481529060010190602001808311612bfc57829003601f168201915b5050505050908060010160009054906101000a900460ff16905082565b60076020528260005260406000206020528160005260406000208181548110612c5e57600080fd5b90600052602060002001600092509250509054906101000a900473ffffffffffffffffffffffffffffffffffffffff1681565b6000600180549050905090565b6060600360008373ffffffffffffffffffffffffffffffffffffffff1673ffffffffffffffffffffffffffffffffffffffff168152602001908152602001600020600501805480602002602001604051908101604052809291908181526020018280548015612d2c57602002820191906000526020600020905b815481526020019060010190808311612d18575b50505050509050919050565b612d40612e8b565b600073ffffffffffffffffffffffffffffffffffffffff168173ffffffffffffffffffffffffffffffffffffffff1603612daf576040517f08c379a0000000000000000000000000000000000000000000000000000000008152600401612da6906144a8565b60405180910390fd5b612db881612f09565b50565b6060600360008373ffffffffffffffffffffffffffffffffffffffff1673ffffffffffffffffffffffffffffffffffffffff168152602001908152602001600020600401805480602002602001604051908101604052809291908181526020018280548015612e7f57602002820191906000526020600020905b8160009054906101000a900473ffffffffffffffffffffffffffffffffffffffff1673ffffffffffffffffffffffffffffffffffffffff1681526020019060010190808311612e35575b50505050509050919050565b612e93612fcd565b73ffffffffffffffffffffffffffffffffffffffff16612eb1611c74565b73ffffffffffffffffffffffffffffffffffffffff1614612f07576040517f08c379a0000000000000000000000000000000000000000000000000000000008152600401612efe90614514565b60405180910390fd5b565b60008060009054906101000a900473ffffffffffffffffffffffffffffffffffffffff169050816000806101000a81548173ffffffffffffffffffffffffffffffffffffffff021916908373ffffffffffffffffffffffffffffffffffffffff1602179055508173ffffffffffffffffffffffffffffffffffffffff168173ffffffffffffffffffffffffffffffffffffffff167f8be0079c531659141344cd1fd0a4f28419497f9722a3daafe3b4186f6b6457e060405160405180910390a35050565b600033905090565b60405180608001604052806060815260200160608152602001600073ffffffffffffffffffffffffffffffffffffffff1681526020016000151581525090565b604051806101000160405280606081526020016060815260200160608152602001600015158152602001600015158152602001600073ffffffffffffffffffffffffffffffffffffffff16815260200160608152602001606081525090565b6000604051905090565b600080fd5b600080fd5b6000819050919050565b61309b81613088565b81146130a657600080fd5b50565b6000813590506130b881613092565b92915050565b6000602082840312156130d4576130d361307e565b5b60006130e2848285016130a9565b91505092915050565b600073ffffffffffffffffffffffffffffffffffffffff82169050919050565b6000613116826130eb565b9050919050565b6131268161310b565b82525050565b6000602082019050613141600083018461311d565b92915050565b6131508161310b565b811461315b57600080fd5b50565b60008135905061316d81613147565b92915050565b6000602082840312156131895761318861307e565b5b60006131978482850161315e565b91505092915050565b600080fd5b6000601f19601f8301169050919050565b7f4e487b7100000000000000000000000000000000000000000000000000000000600052604160045260246000fd5b6131ee826131a5565b810181811067ffffffffffffffff8211171561320d5761320c6131b6565b5b80604052505050565b6000613220613074565b905061322c82826131e5565b919050565b600067ffffffffffffffff82111561324c5761324b6131b6565b5b602082029050602081019050919050565b600080fd5b600061327561327084613231565b613216565b905080838252602082019050602084028301858111156132985761329761325d565b5b835b818110156132c157806132ad888261315e565b84526020840193505060208101905061329a565b5050509392505050565b600082601f8301126132e0576132df6131a0565b5b81356132f0848260208601613262565b91505092915050565b600080600080608085870312156133135761331261307e565b5b60006133218782880161315e565b94505060206133328782880161315e565b935050604085013567ffffffffffffffff81111561335357613352613083565b5b61335f878288016132cb565b9250506060613370878288016130a9565b91505092959194509250565b600081519050919050565b600082825260208201905092915050565b60005b838110156133b657808201518184015260208101905061339b565b60008484015250505050565b60006133cd8261337c565b6133d78185613387565b93506133e7818560208601613398565b6133f0816131a5565b840191505092915050565b60008115159050919050565b613410816133fb565b82525050565b600060c082019050818103600083015261343081896133c2565b9050818103602083015261344481886133c2565b9050818103604083015261345881876133c2565b90506134676060830186613407565b6134746080830185613407565b61348160a083018461311d565b979650505050505050565b6000806000606084860312156134a5576134a461307e565b5b60006134b38682870161315e565b93505060206134c48682870161315e565b92505060406134d5868287016130a9565b9150509250925092565b6000806000606084860312156134f8576134f761307e565b5b60006135068682870161315e565b93505060206135178682870161315e565b92505060406135288682870161315e565b9150509250925092565b60006020820190506135476000830184613407565b92915050565b600080604083850312156135645761356361307e565b5b60006135728582860161315e565b92505060206135838582860161315e565b9150509250929050565b600081519050919050565b600082825260208201905092915050565b6000819050602082019050919050565b6135c28161310b565b82525050565b60006135d483836135b9565b60208301905092915050565b6000602082019050919050565b60006135f88261358d565b6136028185613598565b935061360d836135a9565b8060005b8381101561363e57815161362588826135c8565b9750613630836135e0565b925050600181019050613611565b5085935050505092915050565b6000602082019050818103600083015261366581846135ed565b905092915050565b600080604083850312156136845761368361307e565b5b60006136928582860161315e565b92505060206136a3858286016130a9565b9150509250929050565b600082825260208201905092915050565b60006136c98261337c565b6136d381856136ad565b93506136e3818560208601613398565b6136ec816131a5565b840191505092915050565b613700816133fb565b82525050565b6000608083016000830151848203600086015261372382826136be565b9150506020830151848203602086015261373d82826136be565b915050604083015161375260408601826135b9565b50606083015161376560608601826136f7565b508091505092915050565b6000602082019050818103600083015261378a8184613706565b905092915050565b600080fd5b600067ffffffffffffffff8211156137b2576137b16131b6565b5b6137bb826131a5565b9050602081019050919050565b82818337600083830152505050565b60006137ea6137e584613797565b613216565b90508281526020810184848401111561380657613805613792565b5b6138118482856137c8565b509392505050565b600082601f83011261382e5761382d6131a0565b5b813561383e8482602086016137d7565b91505092915050565b6000806040838503121561385e5761385d61307e565b5b600061386c8582860161315e565b925050602083013567ffffffffffffffff81111561388d5761388c613083565b5b61389985828601613819565b9150509250929050565b600060808201905081810360008301526138bd81876133c2565b905081810360208301526138d181866133c2565b90506138e0604083018561311d565b6138ed6060830184613407565b95945050505050565b6000602082019050818103600083015261391081846133c2565b905092915050565b6000806000606084860312156139315761393061307e565b5b600084013567ffffffffffffffff81111561394f5761394e613083565b5b61395b86828701613819565b935050602084013567ffffffffffffffff81111561397c5761397b613083565b5b61398886828701613819565b925050604084013567ffffffffffffffff8111156139a9576139a8613083565b5b6139b586828701613819565b9150509250925092565b600080600080600060a086880312156139db576139da61307e565b5b60006139e98882890161315e565b95505060206139fa8882890161315e565b945050604086013567ffffffffffffffff811115613a1b57613a1a613083565b5b613a2788828901613819565b935050606086013567ffffffffffffffff811115613a4857613a47613083565b5b613a5488828901613819565b9250506080613a658882890161315e565b9150509295509295909350565b613a7b81613088565b82525050565b600060c082019050613a96600083018961311d565b8181036020830152613aa881886133c2565b9050613ab76040830187613a72565b613ac46060830186613407565b613ad16080830185613407565b613ade60a0830184613407565b979650505050505050565b613af2816133fb565b8114613afd57600080fd5b50565b600081359050613b0f81613ae9565b92915050565b600080600080600060a08688031215613b3157613b3061307e565b5b6000613b3f8882890161315e565b955050602086013567ffffffffffffffff811115613b6057613b5f613083565b5b613b6c88828901613819565b9450506040613b7d888289016130a9565b9350506060613b8e88828901613b00565b9250506080613b9f88828901613b00565b9150509295509295909350565b60008060408385031215613bc357613bc261307e565b5b6000613bd18582860161315e565b9250506020613be285828601613b00565b9150509250929050565b600082825260208201905092915050565b6000613c088261358d565b613c128185613bec565b9350613c1d836135a9565b8060005b83811015613c4e578151613c3588826135c8565b9750613c40836135e0565b925050600181019050613c21565b5085935050505092915050565b600081519050919050565b600082825260208201905092915050565b6000819050602082019050919050565b613c9081613088565b82525050565b6000613ca28383613c87565b60208301905092915050565b6000602082019050919050565b6000613cc682613c5b565b613cd08185613c66565b9350613cdb83613c77565b8060005b83811015613d0c578151613cf38882613c96565b9750613cfe83613cae565b925050600181019050613cdf565b5085935050505092915050565b6000610100830160008301518482036000860152613d3782826136be565b91505060208301518482036020860152613d5182826136be565b91505060408301518482036040860152613d6b82826136be565b9150506060830151613d8060608601826136f7565b506080830151613d9360808601826136f7565b5060a0830151613da660a08601826135b9565b5060c083015184820360c0860152613dbe8282613bfd565b91505060e083015184820360e0860152613dd88282613cbb565b9150508091505092915050565b60006020820190508181036000830152613dff8184613d19565b905092915050565b600080600060608486031215613e2057613e1f61307e565b5b600084013567ffffffffffffffff811115613e3e57613e3d613083565b5b613e4a86828701613819565b935050602084013567ffffffffffffffff811115613e6b57613e6a613083565b5b613e7786828701613819565b9250506040613e888682870161315e565b9150509250925092565b60006040820190508181036000830152613eac81856133c2565b9050613ebb6020830184613407565b9392505050565b6000602082019050613ed76000830184613a72565b92915050565b600082825260208201905092915050565b6000613ef982613c5b565b613f038185613edd565b9350613f0e83613c77565b8060005b83811015613f3f578151613f268882613c96565b9750613f3183613cae565b925050600181019050613f12565b5085935050505092915050565b60006020820190508181036000830152613f668184613eee565b905092915050565b7f466972737420646f20726567697374726174696f6e0000000000000000000000600082015250565b6000613fa4601583613387565b9150613faf82613f6e565b602082019050919050565b60006020820190508181036000830152613fd381613f97565b9050919050565b7f416c726561647920796f757220656d61696c2069732076657269666965640000600082015250565b6000614010601e83613387565b915061401b82613fda565b602082019050919050565b6000602082019050818103600083015261403f81614003565b9050919050565b7f4e487b7100000000000000000000000000000000000000000000000000000000600052603260045260246000fd5b7f4e487b7100000000000000000000000000000000000000000000000000000000600052602260045260246000fd5b600060028204905060018216806140bc57607f821691505b6020821081036140cf576140ce614075565b5b50919050565b60008190508160005260206000209050919050565b60006020601f8301049050919050565b600082821b905092915050565b6000600883026141377fffffffffffffffffffffffffffffffffffffffffffffffffffffffffffffffff826140fa565b61414186836140fa565b95508019841693508086168417925050509392505050565b6000819050919050565b600061417e61417961417484613088565b614159565b613088565b9050919050565b6000819050919050565b61419883614163565b6141ac6141a482614185565b848454614107565b825550505050565b600090565b6141c16141b4565b6141cc81848461418f565b505050565b5b818110156141f0576141e56000826141b9565b6001810190506141d2565b5050565b601f82111561423557614206816140d5565b61420f846140ea565b8101602085101561421e578190505b61423261422a856140ea565b8301826141d1565b50505b505050565b600082821c905092915050565b60006142586000198460080261423a565b1980831691505092915050565b60006142718383614247565b9150826002028217905092915050565b61428a8261337c565b67ffffffffffffffff8111156142a3576142a26131b6565b5b6142ad82546140a4565b6142b88282856141f4565b600060209050601f8311600181146142eb57600084156142d9578287015190505b6142e38582614265565b86555061434b565b601f1984166142f9866140d5565b60005b82811015614321578489015182556001820191506020850194506020810190506142fc565b8683101561433e578489015161433a601f891682614247565b8355505b6001600288020188555050505b505050505050565b7f416c726561647920726567697374657265640000000000000000000000000000600082015250565b6000614389601283613387565b915061439482614353565b602082019050919050565b600060208201905081810360008301526143b88161437c565b9050919050565b7f4e487b7100000000000000000000000000000000000000000000000000000000600052601160045260246000fd5b60006143f982613088565b91507fffffffffffffffffffffffffffffffffffffffffffffffffffffffffffffffff820361442b5761442a6143bf565b5b600182019050919050565b7f4f776e61626c653a206e6577206f776e657220697320746865207a65726f206160008201527f6464726573730000000000000000000000000000000000000000000000000000602082015250565b6000614492602683613387565b915061449d82614436565b604082019050919050565b600060208201905081810360008301526144c181614485565b9050919050565b7f4f776e61626c653a2063616c6c6572206973206e6f7420746865206f776e6572600082015250565b60006144fe602083613387565b9150614509826144c8565b602082019050919050565b6000602082019050818103600083015261452d816144f1565b905091905056fea26469706673582212204e1868fad2b0250a195b1a46fc8832282c829bd0679dc33081969e6057df2ea764736f6c63430008110033",
  "linkReferences": {},
  "deployedLinkReferences": {}
}