{
  "_format": "hh-sol-artifact-1",
  "contractName": "Inheritokens",
  "sourceName": "contracts/Inheritokens.sol",
  "abi": [
    {
      "inputs": [],
      "stateMutability": "nonpayable",
      "type": "constructor"
    },
    {
      "anonymous": false,
      "inputs": [
        {
          "indexed": true,
          "internalType": "address",
          "name": "previousOwner",
          "type": "address"
        },
        {
          "indexed": true,
          "internalType": "address",
          "name": "newOwner",
          "type": "address"
        }
      ],
      "name": "OwnershipTransferred",
      "type": "event"
    },
    {
      "inputs": [
        {
          "internalType": "address",
          "name": "_charityAddress",
          "type": "address"
        },
        {
          "internalType": "string",
          "name": "_charityName",
          "type": "string"
        },
        {
          "internalType": "string",
          "name": "_charityDescription",
          "type": "string"
        },
        {
          "internalType": "string",
          "name": "_charityImage",
          "type": "string"
        }
      ],
      "name": "addCharity",
      "outputs": [],
      "stateMutability": "nonpayable",
      "type": "function"
    },
    {
      "inputs": [
        {
          "internalType": "string",
          "name": "name",
          "type": "string"
        },
        {
          "internalType": "string",
          "name": "email",
          "type": "string"
        },
        {
          "internalType": "address",
          "name": "nominee_address",
          "type": "address"
        }
      ],
      "name": "addNomineesDetails",
      "outputs": [],
      "stateMutability": "nonpayable",
      "type": "function"
    },
    {
      "inputs": [
        {
          "internalType": "string",
          "name": "name",
          "type": "string"
        },
        {
          "internalType": "string",
          "name": "email",
          "type": "string"
        },
        {
          "internalType": "string",
          "name": "cid",
          "type": "string"
        }
      ],
      "name": "addOwnerDetails",
      "outputs": [],
      "stateMutability": "nonpayable",
      "type": "function"
    },
    {
      "inputs": [
        {
          "internalType": "address",
          "name": "_owner",
          "type": "address"
        },
        {
          "internalType": "address",
          "name": "_recover",
          "type": "address"
        }
      ],
      "name": "addWalletRecovery",
      "outputs": [],
      "stateMutability": "nonpayable",
      "type": "function"
    },
    {
      "inputs": [
        {
          "internalType": "address",
          "name": "",
          "type": "address"
        }
      ],
      "name": "addressToNominee",
      "outputs": [
        {
          "internalType": "string",
          "name": "nominee_name",
          "type": "string"
        },
        {
          "internalType": "string",
          "name": "nominee_email",
          "type": "string"
        },
        {
          "internalType": "address",
          "name": "nominee_address",
          "type": "address"
        },
        {
          "internalType": "bool",
          "name": "hasClaimed",
          "type": "bool"
        }
      ],
      "stateMutability": "view",
      "type": "function"
    },
    {
      "inputs": [
        {
          "internalType": "address",
          "name": "",
          "type": "address"
        }
      ],
      "name": "addressToOwner",
      "outputs": [
        {
          "internalType": "string",
          "name": "owner_name",
          "type": "string"
        },
        {
          "internalType": "string",
          "name": "owner_email",
          "type": "string"
        },
        {
          "internalType": "string",
          "name": "image_cid",
          "type": "string"
        },
        {
          "internalType": "bool",
          "name": "isEmailVerified",
          "type": "bool"
        },
        {
          "internalType": "bool",
          "name": "isAlive",
          "type": "bool"
        }
      ],
      "stateMutability": "view",
      "type": "function"
    },
    {
      "inputs": [
        {
          "internalType": "address",
          "name": "_owner",
          "type": "address"
        },
        {
          "internalType": "address",
          "name": "_nominee",
          "type": "address"
        },
        {
          "internalType": "address",
          "name": "_tokenAddress",
          "type": "address"
        },
        {
          "internalType": "string",
          "name": "_tokenName",
          "type": "string"
        },
        {
          "internalType": "uint256",
          "name": "_share",
          "type": "uint256"
        },
        {
          "internalType": "bool",
          "name": "_isMultipleNominee",
          "type": "bool"
        },
        {
          "internalType": "bool",
          "name": "_isPriorityNominee",
          "type": "bool"
        }
      ],
      "name": "assignTokensToMultipleNominee",
      "outputs": [],
      "stateMutability": "nonpayable",
      "type": "function"
    },
    {
      "inputs": [
        {
          "internalType": "address",
          "name": "_owner",
          "type": "address"
        },
        {
          "internalType": "address",
          "name": "_nominee",
          "type": "address"
        },
        {
          "internalType": "address",
          "name": "_tokenAddress",
          "type": "address"
        },
        {
          "internalType": "string",
          "name": "_tokenName",
          "type": "string"
        },
        {
          "internalType": "bool",
          "name": "_isMultipleNominee",
          "type": "bool"
        },
        {
          "internalType": "bool",
          "name": "_isPriorityNominee",
          "type": "bool"
        }
      ],
      "name": "assignedTokensToPriorityNominee",
      "outputs": [],
      "stateMutability": "nonpayable",
      "type": "function"
    },
    {
      "inputs": [
        {
          "internalType": "address",
          "name": "_owner",
          "type": "address"
        }
      ],
      "name": "checkVerification",
      "outputs": [
        {
          "internalType": "bool",
          "name": "",
          "type": "bool"
        }
      ],
      "stateMutability": "view",
      "type": "function"
    },
    {
      "inputs": [
        {
          "internalType": "address",
          "name": "_nominee",
          "type": "address"
        }
      ],
      "name": "claim",
      "outputs": [],
      "stateMutability": "nonpayable",
      "type": "function"
    },
    {
      "inputs": [
        {
          "internalType": "address",
          "name": "_owner",
          "type": "address"
        },
        {
          "internalType": "address",
          "name": "_oldNominee",
          "type": "address"
        },
        {
          "internalType": "address",
          "name": "_newNominee",
          "type": "address"
        },
        {
          "internalType": "address",
          "name": "_tokenAddress",
          "type": "address"
        }
      ],
      "name": "editAssignedPriorityNomineeAddressToToken",
      "outputs": [],
      "stateMutability": "nonpayable",
      "type": "function"
    },
    {
      "inputs": [
        {
          "internalType": "address",
          "name": "_owner",
          "type": "address"
        },
        {
          "internalType": "address",
          "name": "_nominee",
          "type": "address"
        },
        {
          "internalType": "address",
          "name": "_tokenAddress",
          "type": "address"
        },
        {
          "internalType": "uint256",
          "name": "_oldShare",
          "type": "uint256"
        },
        {
          "internalType": "uint256",
          "name": "_share",
          "type": "uint256"
        },
        {
          "internalType": "bool",
          "name": "_isMultipleNominee",
          "type": "bool"
        }
      ],
      "name": "editAssignedTokensToMultipleNominee",
      "outputs": [],
      "stateMutability": "nonpayable",
      "type": "function"
    },
    {
      "inputs": [
        {
          "internalType": "uint256",
          "name": "_charityId",
          "type": "uint256"
        },
        {
          "internalType": "address",
          "name": "_charityAddress",
          "type": "address"
        },
        {
          "internalType": "string",
          "name": "_charityName",
          "type": "string"
        },
        {
          "internalType": "string",
          "name": "_charityDescription",
          "type": "string"
        },
        {
          "internalType": "string",
          "name": "_charityImage",
          "type": "string"
        }
      ],
      "name": "editCharityDetails",
      "outputs": [],
      "stateMutability": "nonpayable",
      "type": "function"
    },
    {
      "inputs": [
        {
          "internalType": "address",
          "name": "_owner",
          "type": "address"
        },
        {
          "internalType": "address",
          "name": "_oldNomineeAddress",
          "type": "address"
        },
        {
          "internalType": "string",
          "name": "name",
          "type": "string"
        },
        {
          "internalType": "string",
          "name": "email",
          "type": "string"
        },
        {
          "internalType": "address",
          "name": "nominee_address",
          "type": "address"
        }
      ],
      "name": "editNomineeDetails",
      "outputs": [],
      "stateMutability": "nonpayable",
      "type": "function"
    },
    {
      "inputs": [
        {
          "internalType": "address",
          "name": "_owner",
          "type": "address"
        }
      ],
      "name": "getAllNominees",
      "outputs": [
        {
          "internalType": "address[]",
          "name": "",
          "type": "address[]"
        }
      ],
      "stateMutability": "view",
      "type": "function"
    },
    {
      "inputs": [
        {
          "internalType": "address",
          "name": "_owner",
          "type": "address"
        },
        {
          "internalType": "address",
          "name": "_tokenAddress",
          "type": "address"
        }
      ],
      "name": "getAllNomineesAssignedForToken",
      "outputs": [
        {
          "internalType": "address[]",
          "name": "",
          "type": "address[]"
        }
      ],
      "stateMutability": "view",
      "type": "function"
    },
    {
      "inputs": [
        {
          "internalType": "address",
          "name": "_owner",
          "type": "address"
        },
        {
          "internalType": "address",
          "name": "_nominee",
          "type": "address"
        }
      ],
      "name": "getAllTokensNomineeIsNominated",
      "outputs": [
        {
          "internalType": "address[]",
          "name": "",
          "type": "address[]"
        }
      ],
      "stateMutability": "view",
      "type": "function"
    },
    {
      "inputs": [
        {
          "internalType": "address",
          "name": "_owner",
          "type": "address"
        }
      ],
      "name": "getAllWhiteListedCharities",
      "outputs": [
        {
          "internalType": "uint256[]",
          "name": "",
          "type": "uint256[]"
        }
      ],
      "stateMutability": "view",
      "type": "function"
    },
    {
      "inputs": [
        {
          "internalType": "uint256",
          "name": "_charityId",
          "type": "uint256"
        }
      ],
      "name": "getCharityDetailsById",
      "outputs": [
        {
          "components": [
            {
              "internalType": "uint256",
              "name": "id",
              "type": "uint256"
            },
            {
              "internalType": "address",
              "name": "charity_address",
              "type": "address"
            },
            {
              "internalType": "string",
              "name": "charity_name",
              "type": "string"
            },
            {
              "internalType": "string",
              "name": "charity_description",
              "type": "string"
            },
            {
              "internalType": "string",
              "name": "charity_image",
              "type": "string"
            }
          ],
          "internalType": "struct Inheritokens.Charity",
          "name": "",
          "type": "tuple"
        }
      ],
      "stateMutability": "view",
      "type": "function"
    },
    {
      "inputs": [
        {
          "internalType": "address",
          "name": "_owner",
          "type": "address"
        },
        {
          "internalType": "address",
          "name": "_tokenAddress",
          "type": "address"
        }
      ],
      "name": "getIsNominated",
      "outputs": [
        {
          "internalType": "bool",
          "name": "",
          "type": "bool"
        }
      ],
      "stateMutability": "view",
      "type": "function"
    },
    {
      "inputs": [
        {
          "internalType": "address",
          "name": "_nominee",
          "type": "address"
        }
      ],
      "name": "getNomineeDetails",
      "outputs": [
        {
          "components": [
            {
              "internalType": "string",
              "name": "nominee_name",
              "type": "string"
            },
            {
              "internalType": "string",
              "name": "nominee_email",
              "type": "string"
            },
            {
              "internalType": "address",
              "name": "nominee_address",
              "type": "address"
            },
            {
              "internalType": "bool",
              "name": "hasClaimed",
              "type": "bool"
            }
          ],
          "internalType": "struct Inheritokens.Nominee",
          "name": "",
          "type": "tuple"
        }
      ],
      "stateMutability": "view",
      "type": "function"
    },
    {
      "inputs": [
        {
          "internalType": "address",
          "name": "_owner",
          "type": "address"
        },
        {
          "internalType": "address",
          "name": "_nominee",
          "type": "address"
        },
        {
          "internalType": "address",
          "name": "_tokenAddress",
          "type": "address"
        }
      ],
      "name": "getNomineeToTokenRight",
      "outputs": [
        {
          "internalType": "bool",
          "name": "",
          "type": "bool"
        }
      ],
      "stateMutability": "view",
      "type": "function"
    },
    {
      "inputs": [
        {
          "internalType": "address",
          "name": "_owner",
          "type": "address"
        },
        {
          "internalType": "address",
          "name": "_nominee",
          "type": "address"
        },
        {
          "internalType": "address",
          "name": "_tokenAddress",
          "type": "address"
        }
      ],
      "name": "getNomineeToTokenShare",
      "outputs": [
        {
          "internalType": "uint256",
          "name": "",
          "type": "uint256"
        }
      ],
      "stateMutability": "view",
      "type": "function"
    },
    {
      "inputs": [
        {
          "internalType": "address",
          "name": "_owner",
          "type": "address"
        }
      ],
      "name": "getOwnerAlive",
      "outputs": [
        {
          "internalType": "bool",
          "name": "",
          "type": "bool"
        }
      ],
      "stateMutability": "view",
      "type": "function"
    },
    {
      "inputs": [
        {
          "internalType": "address",
          "name": "owner_address",
          "type": "address"
        }
      ],
      "name": "getOwnerDetails",
      "outputs": [
        {
          "components": [
            {
              "internalType": "string",
              "name": "owner_name",
              "type": "string"
            },
            {
              "internalType": "string",
              "name": "owner_email",
              "type": "string"
            },
            {
              "internalType": "string",
              "name": "image_cid",
              "type": "string"
            },
            {
              "internalType": "bool",
              "name": "isEmailVerified",
              "type": "bool"
            },
            {
              "internalType": "bool",
              "name": "isAlive",
              "type": "bool"
            }
          ],
          "internalType": "struct Inheritokens.Owner",
          "name": "",
          "type": "tuple"
        }
      ],
      "stateMutability": "view",
      "type": "function"
    },
    {
      "inputs": [],
      "name": "getOwners",
      "outputs": [
        {
          "internalType": "address[]",
          "name": "",
          "type": "address[]"
        }
      ],
      "stateMutability": "view",
      "type": "function"
    },
    {
      "inputs": [
        {
          "internalType": "address",
          "name": "_owner",
          "type": "address"
        }
      ],
      "name": "getRecoveryAddress",
      "outputs": [
        {
          "internalType": "address",
          "name": "",
          "type": "address"
        }
      ],
      "stateMutability": "view",
      "type": "function"
    },
    {
      "inputs": [
        {
          "internalType": "address",
          "name": "_owner",
          "type": "address"
        }
      ],
      "name": "getResponse",
      "outputs": [
        {
          "internalType": "bool",
          "name": "",
          "type": "bool"
        }
      ],
      "stateMutability": "view",
      "type": "function"
    },
    {
      "inputs": [
        {
          "internalType": "address",
          "name": "_owner",
          "type": "address"
        }
      ],
      "name": "getResponseDate",
      "outputs": [
        {
          "internalType": "string",
          "name": "",
          "type": "string"
        }
      ],
      "stateMutability": "view",
      "type": "function"
    },
    {
      "inputs": [],
      "name": "getTotalNumberOfCharity",
      "outputs": [
        {
          "internalType": "uint256",
          "name": "",
          "type": "uint256"
        }
      ],
      "stateMutability": "view",
      "type": "function"
    },
    {
      "inputs": [],
      "name": "getTotalOwner",
      "outputs": [
        {
          "internalType": "uint256",
          "name": "",
          "type": "uint256"
        }
      ],
      "stateMutability": "view",
      "type": "function"
    },
    {
      "inputs": [
        {
          "internalType": "uint256",
          "name": "",
          "type": "uint256"
        }
      ],
      "name": "idToCharity",
      "outputs": [
        {
          "internalType": "uint256",
          "name": "id",
          "type": "uint256"
        },
        {
          "internalType": "address",
          "name": "charity_address",
          "type": "address"
        },
        {
          "internalType": "string",
          "name": "charity_name",
          "type": "string"
        },
        {
          "internalType": "string",
          "name": "charity_description",
          "type": "string"
        },
        {
          "internalType": "string",
          "name": "charity_image",
          "type": "string"
        }
      ],
      "stateMutability": "view",
      "type": "function"
    },
    {
      "inputs": [
        {
          "internalType": "address",
          "name": "",
          "type": "address"
        },
        {
          "internalType": "address",
          "name": "",
          "type": "address"
        }
      ],
      "name": "isNominated",
      "outputs": [
        {
          "internalType": "bool",
          "name": "",
          "type": "bool"
        }
      ],
      "stateMutability": "view",
      "type": "function"
    },
    {
      "inputs": [
        {
          "internalType": "address",
          "name": "",
          "type": "address"
        }
      ],
      "name": "isOwnerAdded",
      "outputs": [
        {
          "internalType": "bool",
          "name": "",
          "type": "bool"
        }
      ],
      "stateMutability": "view",
      "type": "function"
    },
    {
      "inputs": [],
      "name": "owner",
      "outputs": [
        {
          "internalType": "address",
          "name": "",
          "type": "address"
        }
      ],
      "stateMutability": "view",
      "type": "function"
    },
    {
      "inputs": [
        {
          "internalType": "address",
          "name": "",
          "type": "address"
        },
        {
          "internalType": "address",
          "name": "",
          "type": "address"
        },
        {
          "internalType": "address",
          "name": "",
          "type": "address"
        }
      ],
      "name": "ownerToNomineeAddressToTokenAddressToRight",
      "outputs": [
        {
          "internalType": "bool",
          "name": "",
          "type": "bool"
        }
      ],
      "stateMutability": "view",
      "type": "function"
    },
    {
      "inputs": [
        {
          "internalType": "address",
          "name": "",
          "type": "address"
        },
        {
          "internalType": "address",
          "name": "",
          "type": "address"
        },
        {
          "internalType": "uint256",
          "name": "",
          "type": "uint256"
        }
      ],
      "name": "ownerToNomineeToTokenAddressArray",
      "outputs": [
        {
          "internalType": "address",
          "name": "",
          "type": "address"
        }
      ],
      "stateMutability": "view",
      "type": "function"
    },
    {
      "inputs": [
        {
          "internalType": "address",
          "name": "",
          "type": "address"
        },
        {
          "internalType": "address",
          "name": "",
          "type": "address"
        },
        {
          "internalType": "address",
          "name": "",
          "type": "address"
        }
      ],
      "name": "ownerToNomineeToTokenAddressToShare",
      "outputs": [
        {
          "internalType": "uint256",
          "name": "",
          "type": "uint256"
        }
      ],
      "stateMutability": "view",
      "type": "function"
    },
    {
      "inputs": [
        {
          "internalType": "address",
          "name": "",
          "type": "address"
        },
        {
          "internalType": "uint256",
          "name": "",
          "type": "uint256"
        }
      ],
      "name": "ownerToNominees",
      "outputs": [
        {
          "internalType": "address",
          "name": "",
          "type": "address"
        }
      ],
      "stateMutability": "view",
      "type": "function"
    },
    {
      "inputs": [
        {
          "internalType": "address",
          "name": "",
          "type": "address"
        }
      ],
      "name": "ownerToRecoverAddress",
      "outputs": [
        {
          "internalType": "address",
          "name": "",
          "type": "address"
        }
      ],
      "stateMutability": "view",
      "type": "function"
    },
    {
      "inputs": [
        {
          "internalType": "address",
          "name": "",
          "type": "address"
        }
      ],
      "name": "ownerToResponse",
      "outputs": [
        {
          "internalType": "string",
          "name": "date",
          "type": "string"
        },
        {
          "internalType": "bool",
          "name": "isResponsed",
          "type": "bool"
        }
      ],
      "stateMutability": "view",
      "type": "function"
    },
    {
      "inputs": [
        {
          "internalType": "address",
          "name": "",
          "type": "address"
        },
        {
          "internalType": "address",
          "name": "",
          "type": "address"
        },
        {
          "internalType": "uint256",
          "name": "",
          "type": "uint256"
        }
      ],
      "name": "ownerToTokenAddressToNomineeArray",
      "outputs": [
        {
          "internalType": "address",
          "name": "",
          "type": "address"
        }
      ],
      "stateMutability": "view",
      "type": "function"
    },
    {
      "inputs": [
        {
          "internalType": "address",
          "name": "",
          "type": "address"
        },
        {
          "internalType": "address",
          "name": "",
          "type": "address"
        },
        {
          "internalType": "uint256",
          "name": "",
          "type": "uint256"
        }
      ],
      "name": "ownerToTokenAddressToPriorityArray",
      "outputs": [
        {
          "internalType": "address",
          "name": "",
          "type": "address"
        }
      ],
      "stateMutability": "view",
      "type": "function"
    },
    {
      "inputs": [
        {
          "internalType": "address",
          "name": "",
          "type": "address"
        },
        {
          "internalType": "uint256",
          "name": "",
          "type": "uint256"
        }
      ],
      "name": "ownerToWhitelistedCharities",
      "outputs": [
        {
          "internalType": "uint256",
          "name": "",
          "type": "uint256"
        }
      ],
      "stateMutability": "view",
      "type": "function"
    },
    {
      "inputs": [
        {
          "internalType": "uint256",
          "name": "",
          "type": "uint256"
        }
      ],
      "name": "owners",
      "outputs": [
        {
          "internalType": "address",
          "name": "",
          "type": "address"
        }
      ],
      "stateMutability": "view",
      "type": "function"
    },
    {
      "inputs": [
        {
          "internalType": "address",
          "name": "_owner",
          "type": "address"
        },
        {
          "internalType": "address",
          "name": "_nominee",
          "type": "address"
        },
        {
          "internalType": "address",
          "name": "_tokenAddress",
          "type": "address"
        }
      ],
      "name": "removeAssignedPriorityNomineeAddressToToken",
      "outputs": [],
      "stateMutability": "nonpayable",
      "type": "function"
    },
    {
      "inputs": [],
      "name": "renounceOwnership",
      "outputs": [],
      "stateMutability": "nonpayable",
      "type": "function"
    },
    {
      "inputs": [
        {
          "internalType": "address",
          "name": "_owner",
          "type": "address"
        }
      ],
      "name": "setOwnerNotAlive",
      "outputs": [],
      "stateMutability": "nonpayable",
      "type": "function"
    },
    {
      "inputs": [
        {
          "internalType": "address",
          "name": "_owner",
          "type": "address"
        },
        {
          "internalType": "bool",
          "name": "_response",
          "type": "bool"
        }
      ],
      "name": "setResponse",
      "outputs": [],
      "stateMutability": "nonpayable",
      "type": "function"
    },
    {
      "inputs": [
        {
          "internalType": "address",
          "name": "_owner",
          "type": "address"
        },
        {
          "internalType": "string",
          "name": "_date",
          "type": "string"
        }
      ],
      "name": "setResponseDate",
      "outputs": [],
      "stateMutability": "nonpayable",
      "type": "function"
    },
    {
      "inputs": [
        {
          "internalType": "address",
          "name": "_owner",
          "type": "address"
        },
        {
          "internalType": "uint256",
          "name": "_charityId",
          "type": "uint256"
        }
      ],
      "name": "setWhiteListedCharities",
      "outputs": [],
      "stateMutability": "nonpayable",
      "type": "function"
    },
    {
      "inputs": [
        {
          "internalType": "address",
          "name": "",
          "type": "address"
        }
      ],
      "name": "tokenAddressToTokenStruct",
      "outputs": [
        {
          "internalType": "address",
          "name": "token_address",
          "type": "address"
        },
        {
          "internalType": "string",
          "name": "token_name",
          "type": "string"
        },
        {
          "internalType": "uint256",
          "name": "allocated_share",
          "type": "uint256"
        },
        {
          "internalType": "bool",
          "name": "isMultipleNominee",
          "type": "bool"
        },
        {
          "internalType": "bool",
          "name": "isPriorityNominee",
          "type": "bool"
        }
      ],
      "stateMutability": "view",
      "type": "function"
    },
    {
      "inputs": [
        {
          "internalType": "address",
          "name": "newOwner",
          "type": "address"
        }
      ],
      "name": "transferOwnership",
      "outputs": [],
      "stateMutability": "nonpayable",
      "type": "function"
    },
    {
      "inputs": [
        {
          "internalType": "address",
          "name": "_owner",
          "type": "address"
        }
      ],
      "name": "verifyOwner",
      "outputs": [],
      "stateMutability": "nonpayable",
      "type": "function"
    }
  ],
  "bytecode": "0x60806040523480156200001157600080fd5b5062000032620000266200003860201b60201c565b6200004060201b60201c565b62000104565b600033905090565b60008060009054906101000a900473ffffffffffffffffffffffffffffffffffffffff169050816000806101000a81548173ffffffffffffffffffffffffffffffffffffffff021916908373ffffffffffffffffffffffffffffffffffffffff1602179055508173ffffffffffffffffffffffffffffffffffffffff168173ffffffffffffffffffffffffffffffffffffffff167f8be0079c531659141344cd1fd0a4f28419497f9722a3daafe3b4186f6b6457e060405160405180910390a35050565b615a9380620001146000396000f3fe608060405234801561001057600080fd5b50600436106103425760003560e01c80638da5cb5b116101b8578063c3bb812111610104578063e3f09521116100a2578063ec2db93a1161007c578063ec2db93a14610b1d578063ed19ee0914610b39578063f2fde38b14610b55578063f800978514610b7157610342565b8063e3f0952114610a8d578063e44e4c5614610abd578063e62d4f7c14610aed57610342565b8063cf751c44116100de578063cf751c44146109de578063d152fd8f14610a0f578063de545b3f14610a3f578063e05887e314610a6f57610342565b8063c3bb812114610962578063c936c57e14610992578063cb144b39146109c257610342565b80639979d30e11610171578063a60724451161014b578063a6072445146108de578063baab9797146108fa578063bece99681461092a578063bfe509481461094657610342565b80639979d30e14610870578063a0e67e2b146108a4578063a5394b39146108c257610342565b80638da5cb5b1461078a5780638dde3dc4146107a85780638e5d2099146107c45780638f25dac9146107f457806392f8204814610824578063955f59f91461084057610342565b80634950956e116102925780636a5e89381161023057806376f0ffc61161020a57806376f0ffc6146106ee5780637f3d39bd1461071e5780638258d021146107525780638c85cd851461076e57610342565b80636a5e8938146106965780636f4eb5f0146106c6578063715018a6146106e457610342565b806354add3e71161026c57806354add3e7146105fb57806358a4e30d146106175780635a863c11146106335780636199997f1461066657610342565b80634950956e1461057f5780634f24d528146105af578063511865e9146105cb57610342565b806320ff4260116102ff57806329ce480e116102d957806329ce480e146104d3578063348f0a93146105035780633d06305b1461051f578063433a05b01461054f57610342565b806320ff4260146104435780632341cffb146104735780632358fd07146104a357610342565b8063025e7c27146103475780630b841b8f146103775780630c6314aa146103a757806313250e3c146103d7578063159305e1146103f35780631e83409a14610427575b600080fd5b610361600480360381019061035c91906143f6565b610ba1565b60405161036e9190614464565b60405180910390f35b610391600480360381019061038c91906144ab565b610be0565b60405161039e919061450d565b60405180910390f35b6103c160048036038101906103bc9190614528565b610c12565b6040516103ce9190614464565b60405180910390f35b6103f160048036038101906103ec9190614568565b610c60565b005b61040d600480360381019061040891906145cf565b610ec7565b60405161041e9594939291906146a7565b60405180910390f35b610441600480360381019061043c91906145cf565b6110af565b005b61045d6004803603810190610458919061470f565b61110d565b60405161046a9190614464565b60405180910390f35b61048d60048036038101906104889190614762565b611168565b60405161049a91906147a2565b60405180910390f35b6104bd60048036038101906104b891906144ab565b611197565b6040516104ca91906147a2565b60405180910390f35b6104ed60048036038101906104e89190614762565b611269565b6040516104fa919061487b565b60405180910390f35b61051d60048036038101906105189190614528565b611374565b005b61053960048036038101906105349190614762565b6113de565b604051610546919061487b565b60405180910390f35b610569600480360381019061056491906145cf565b6114e9565b60405161057691906147a2565b60405180910390f35b610599600480360381019061059491906145cf565b611542565b6040516105a69190614960565b60405180910390f35b6105c960048036038101906105c491906149ae565b611730565b005b6105e560048036038101906105e091906145cf565b61191f565b6040516105f29190614464565b60405180910390f35b61061560048036038101906106109190614b70565b611988565b005b610631600480360381019061062c9190614bcc565b6119e4565b005b61064d600480360381019061064891906145cf565b611ae9565b60405161065d9493929190614c87565b60405180910390f35b610680600480360381019061067b91906145cf565b611c56565b60405161068d91906147a2565b60405180910390f35b6106b060048036038101906106ab91906145cf565b611caf565b6040516106bd9190614cda565b60405180910390f35b6106ce611d83565b6040516106db919061450d565b60405180910390f35b6106ec611d8d565b005b610708600480360381019061070391906145cf565b611da1565b60405161071591906147a2565b60405180910390f35b610738600480360381019061073391906143f6565b611dc1565b604051610749959493929190614cfc565b60405180910390f35b61076c60048036038101906107679190614d64565b611faf565b005b610788600480360381019061078391906145cf565b6121b2565b005b610792612218565b60405161079f9190614464565b60405180910390f35b6107c260048036038101906107bd91906144ab565b612241565b005b6107de60048036038101906107d99190614762565b612318565b6040516107eb91906147a2565b60405180910390f35b61080e600480360381019061080991906144ab565b6123ac565b60405161081b91906147a2565b60405180910390f35b61083e60048036038101906108399190614e0b565b6123e8565b005b61085a600480360381019061085591906144ab565b612793565b604051610867919061450d565b60405180910390f35b61088a600480360381019061088591906145cf565b612858565b60405161089b959493929190614ebe565b60405180910390f35b6108ac612950565b6040516108b9919061487b565b60405180910390f35b6108dc60048036038101906108d791906145cf565b6129de565b005b6108f860048036038101906108f39190614f18565b612a44565b005b610914600480360381019061090f91906145cf565b612aa2565b60405161092191906147a2565b60405180910390f35b610944600480360381019061093f9190614762565b612afb565b005b610960600480360381019061095b9190614f58565b612b7d565b005b61097c600480360381019061097791906145cf565b612c45565b60405161098991906150ab565b60405180910390f35b6109ac60048036038101906109a79190614528565b612e8a565b6040516109b9919061450d565b60405180910390f35b6109dc60048036038101906109d791906150cd565b612ebb565b005b6109f860048036038101906109f391906145cf565b61306f565b604051610a06929190615158565b60405180910390f35b610a296004803603810190610a24919061470f565b613128565b604051610a369190614464565b60405180910390f35b610a596004803603810190610a5491906145cf565b613183565b604051610a669190614464565b60405180910390f35b610a776131b6565b604051610a84919061450d565b60405180910390f35b610aa76004803603810190610aa2919061470f565b6131c3565b604051610ab49190614464565b60405180910390f35b610ad76004803603810190610ad291906143f6565b61321e565b604051610ae4919061521b565b60405180910390f35b610b076004803603810190610b0291906145cf565b613461565b604051610b1491906152ec565b60405180910390f35b610b376004803603810190610b32919061530e565b6134f8565b005b610b536004803603810190610b4e91906153b7565b6139db565b005b610b6f6004803603810190610b6a91906145cf565b61405a565b005b610b8b6004803603810190610b8691906145cf565b6140dd565b604051610b98919061487b565b60405180910390f35b60018181548110610bb157600080fd5b906000526020600020016000915054906101000a900473ffffffffffffffffffffffffffffffffffffffff1681565b600d60205282600052604060002060205281600052604060002060205280600052604060002060009250925050505481565b60066020528160005260406000208181548110610c2e57600080fd5b906000526020600020016000915091509054906101000a900473ffffffffffffffffffffffffffffffffffffffff1681565b60005b601060008673ffffffffffffffffffffffffffffffffffffffff1673ffffffffffffffffffffffffffffffffffffffff16815260200190815260200160002060008373ffffffffffffffffffffffffffffffffffffffff1673ffffffffffffffffffffffffffffffffffffffff16815260200190815260200160002080549050811015610ec0578373ffffffffffffffffffffffffffffffffffffffff16601060008773ffffffffffffffffffffffffffffffffffffffff1673ffffffffffffffffffffffffffffffffffffffff16815260200190815260200160002060008473ffffffffffffffffffffffffffffffffffffffff1673ffffffffffffffffffffffffffffffffffffffff1681526020019081526020016000208281548110610d8f57610d8e615475565b5b9060005260206000200160009054906101000a900473ffffffffffffffffffffffffffffffffffffffff1673ffffffffffffffffffffffffffffffffffffffff1603610ead5782601060008773ffffffffffffffffffffffffffffffffffffffff1673ffffffffffffffffffffffffffffffffffffffff16815260200190815260200160002060008473ffffffffffffffffffffffffffffffffffffffff1673ffffffffffffffffffffffffffffffffffffffff1681526020019081526020016000208281548110610e6457610e63615475565b5b9060005260206000200160006101000a81548173ffffffffffffffffffffffffffffffffffffffff021916908373ffffffffffffffffffffffffffffffffffffffff1602179055505b8080610eb8906154d3565b915050610c63565b5050505050565b6003602052806000526040600020600091509050806000018054610eea9061554a565b80601f0160208091040260200160405190810160405280929190818152602001828054610f169061554a565b8015610f635780601f10610f3857610100808354040283529160200191610f63565b820191906000526020600020905b815481529060010190602001808311610f4657829003601f168201915b505050505090806001018054610f789061554a565b80601f0160208091040260200160405190810160405280929190818152602001828054610fa49061554a565b8015610ff15780601f10610fc657610100808354040283529160200191610ff1565b820191906000526020600020905b815481529060010190602001808311610fd457829003601f168201915b5050505050908060020180546110069061554a565b80601f01602080910402602001604051908101604052809291908181526020018280546110329061554a565b801561107f5780601f106110545761010080835404028352916020019161107f565b820191906000526020600020905b81548152906001019060200180831161106257829003601f168201915b5050505050908060030160009054906101000a900460ff16908060030160019054906101000a900460ff16905085565b6001600560008373ffffffffffffffffffffffffffffffffffffffff1673ffffffffffffffffffffffffffffffffffffffff16815260200190815260200160002060020160146101000a81548160ff02191690831515021790555050565b600b602052826000526040600020602052816000526040600020818154811061113557600080fd5b90600052602060002001600092509250509054906101000a900473ffffffffffffffffffffffffffffffffffffffff1681565b600f6020528160005260406000206020528060005260406000206000915091509054906101000a900460ff1681565b6000600e60008573ffffffffffffffffffffffffffffffffffffffff1673ffffffffffffffffffffffffffffffffffffffff16815260200190815260200160002060008473ffffffffffffffffffffffffffffffffffffffff1673ffffffffffffffffffffffffffffffffffffffff16815260200190815260200160002060008373ffffffffffffffffffffffffffffffffffffffff1673ffffffffffffffffffffffffffffffffffffffff16815260200190815260200160002060009054906101000a900460ff1690509392505050565b6060600b60008473ffffffffffffffffffffffffffffffffffffffff1673ffffffffffffffffffffffffffffffffffffffff16815260200190815260200160002060008373ffffffffffffffffffffffffffffffffffffffff1673ffffffffffffffffffffffffffffffffffffffff16815260200190815260200160002080548060200260200160405190810160405280929190818152602001828054801561136757602002820191906000526020600020905b8160009054906101000a900473ffffffffffffffffffffffffffffffffffffffff1673ffffffffffffffffffffffffffffffffffffffff168152602001906001019080831161131d575b5050505050905092915050565b600960008373ffffffffffffffffffffffffffffffffffffffff1673ffffffffffffffffffffffffffffffffffffffff1681526020019081526020016000208190806001815401808255809150506001900390600052602060002001600090919091909150555050565b6060600c60008473ffffffffffffffffffffffffffffffffffffffff1673ffffffffffffffffffffffffffffffffffffffff16815260200190815260200160002060008373ffffffffffffffffffffffffffffffffffffffff1673ffffffffffffffffffffffffffffffffffffffff1681526020019081526020016000208054806020026020016040519081016040528092919081815260200182805480156114dc57602002820191906000526020600020905b8160009054906101000a900473ffffffffffffffffffffffffffffffffffffffff1673ffffffffffffffffffffffffffffffffffffffff1681526020019060010190808311611492575b5050505050905092915050565b6000601160008373ffffffffffffffffffffffffffffffffffffffff1673ffffffffffffffffffffffffffffffffffffffff16815260200190815260200160002060010160009054906101000a900460ff169050919050565b61154a6142f4565b600560008373ffffffffffffffffffffffffffffffffffffffff1673ffffffffffffffffffffffffffffffffffffffff1681526020019081526020016000206040518060800160405290816000820180546115a49061554a565b80601f01602080910402602001604051908101604052809291908181526020018280546115d09061554a565b801561161d5780601f106115f25761010080835404028352916020019161161d565b820191906000526020600020905b81548152906001019060200180831161160057829003601f168201915b505050505081526020016001820180546116369061554a565b80601f01602080910402602001604051908101604052809291908181526020018280546116629061554a565b80156116af5780601f10611684576101008083540402835291602001916116af565b820191906000526020600020905b81548152906001019060200180831161169257829003601f168201915b505050505081526020016002820160009054906101000a900473ffffffffffffffffffffffffffffffffffffffff1673ffffffffffffffffffffffffffffffffffffffff1673ffffffffffffffffffffffffffffffffffffffff1681526020016002820160149054906101000a900460ff1615151515815250509050919050565b80611770576040517f08c379a0000000000000000000000000000000000000000000000000000000008152600401611767906155c7565b60405180910390fd5b60008284600a60008873ffffffffffffffffffffffffffffffffffffffff1673ffffffffffffffffffffffffffffffffffffffff168152602001908152602001600020600201546117c191906155e7565b6117cb919061561b565b90506064811115611811576040517f08c379a0000000000000000000000000000000000000000000000000000000008152600401611808906156c1565b60405180910390fd5b82600d60008973ffffffffffffffffffffffffffffffffffffffff1673ffffffffffffffffffffffffffffffffffffffff16815260200190815260200160002060008873ffffffffffffffffffffffffffffffffffffffff1673ffffffffffffffffffffffffffffffffffffffff16815260200190815260200160002060008773ffffffffffffffffffffffffffffffffffffffff1673ffffffffffffffffffffffffffffffffffffffff1681526020019081526020016000208190555080600a60008773ffffffffffffffffffffffffffffffffffffffff1673ffffffffffffffffffffffffffffffffffffffff1681526020019081526020016000206002018190555050505050505050565b6000600460008373ffffffffffffffffffffffffffffffffffffffff1673ffffffffffffffffffffffffffffffffffffffff16815260200190815260200160002060009054906101000a900473ffffffffffffffffffffffffffffffffffffffff169050919050565b6119906141aa565b80601160008473ffffffffffffffffffffffffffffffffffffffff1673ffffffffffffffffffffffffffffffffffffffff16815260200190815260200160002060000190816119df919061588d565b505050565b60016007546119f3919061561b565b6007819055506040518060a0016040528060075481526020018573ffffffffffffffffffffffffffffffffffffffff168152602001848152602001838152602001828152506008600060075481526020019081526020016000206000820151816000015560208201518160010160006101000a81548173ffffffffffffffffffffffffffffffffffffffff021916908373ffffffffffffffffffffffffffffffffffffffff1602179055506040820151816002019081611ab3919061588d565b506060820151816003019081611ac9919061588d565b506080820151816004019081611adf919061588d565b5090505050505050565b6005602052806000526040600020600091509050806000018054611b0c9061554a565b80601f0160208091040260200160405190810160405280929190818152602001828054611b389061554a565b8015611b855780601f10611b5a57610100808354040283529160200191611b85565b820191906000526020600020905b815481529060010190602001808311611b6857829003601f168201915b505050505090806001018054611b9a9061554a565b80601f0160208091040260200160405190810160405280929190818152602001828054611bc69061554a565b8015611c135780601f10611be857610100808354040283529160200191611c13565b820191906000526020600020905b815481529060010190602001808311611bf657829003601f168201915b5050505050908060020160009054906101000a900473ffffffffffffffffffffffffffffffffffffffff16908060020160149054906101000a900460ff16905084565b6000600360008373ffffffffffffffffffffffffffffffffffffffff1673ffffffffffffffffffffffffffffffffffffffff16815260200190815260200160002060030160019054906101000a900460ff169050919050565b6060601160008373ffffffffffffffffffffffffffffffffffffffff1673ffffffffffffffffffffffffffffffffffffffff1681526020019081526020016000206000018054611cfe9061554a565b80601f0160208091040260200160405190810160405280929190818152602001828054611d2a9061554a565b8015611d775780601f10611d4c57610100808354040283529160200191611d77565b820191906000526020600020905b815481529060010190602001808311611d5a57829003601f168201915b50505050509050919050565b6000600754905090565b611d956141aa565b611d9f6000614228565b565b60026020528060005260406000206000915054906101000a900460ff1681565b60086020528060005260406000206000915090508060000154908060010160009054906101000a900473ffffffffffffffffffffffffffffffffffffffff1690806002018054611e109061554a565b80601f0160208091040260200160405190810160405280929190818152602001828054611e3c9061554a565b8015611e895780601f10611e5e57610100808354040283529160200191611e89565b820191906000526020600020905b815481529060010190602001808311611e6c57829003601f168201915b505050505090806003018054611e9e9061554a565b80601f0160208091040260200160405190810160405280929190818152602001828054611eca9061554a565b8015611f175780601f10611eec57610100808354040283529160200191611f17565b820191906000526020600020905b815481529060010190602001808311611efa57829003601f168201915b505050505090806004018054611f2c9061554a565b80601f0160208091040260200160405190810160405280929190818152602001828054611f589061554a565b8015611fa55780601f10611f7a57610100808354040283529160200191611fa5565b820191906000526020600020905b815481529060010190602001808311611f8857829003601f168201915b5050505050905085565b600260003373ffffffffffffffffffffffffffffffffffffffff1673ffffffffffffffffffffffffffffffffffffffff16815260200190815260200160002060009054906101000a900460ff166121ad576001339080600181540180825580915050600190039060005260206000200160009091909190916101000a81548173ffffffffffffffffffffffffffffffffffffffff021916908373ffffffffffffffffffffffffffffffffffffffff1602179055506001600260003373ffffffffffffffffffffffffffffffffffffffff1673ffffffffffffffffffffffffffffffffffffffff16815260200190815260200160002060006101000a81548160ff0219169083151502179055506040518060a0016040528084815260200183815260200182815260200160001515815260200160011515815250600360003373ffffffffffffffffffffffffffffffffffffffff1673ffffffffffffffffffffffffffffffffffffffff168152602001908152602001600020600082015181600001908161213c919061588d565b506020820151816001019081612152919061588d565b506040820151816002019081612168919061588d565b5060608201518160030160006101000a81548160ff02191690831515021790555060808201518160030160016101000a81548160ff0219169083151502179055509050505b505050565b6121ba6141aa565b6001600360008373ffffffffffffffffffffffffffffffffffffffff1673ffffffffffffffffffffffffffffffffffffffff16815260200190815260200160002060030160006101000a81548160ff02191690831515021790555050565b60008060009054906101000a900473ffffffffffffffffffffffffffffffffffffffff16905090565b6000600e60008573ffffffffffffffffffffffffffffffffffffffff1673ffffffffffffffffffffffffffffffffffffffff16815260200190815260200160002060008473ffffffffffffffffffffffffffffffffffffffff1673ffffffffffffffffffffffffffffffffffffffff16815260200190815260200160002060008373ffffffffffffffffffffffffffffffffffffffff1673ffffffffffffffffffffffffffffffffffffffff16815260200190815260200160002060006101000a81548160ff021916908315150217905550505050565b6000600f60008473ffffffffffffffffffffffffffffffffffffffff1673ffffffffffffffffffffffffffffffffffffffff16815260200190815260200160002060008373ffffffffffffffffffffffffffffffffffffffff1673ffffffffffffffffffffffffffffffffffffffff16815260200190815260200160002060009054906101000a900460ff16905092915050565b600e602052826000526040600020602052816000526040600020602052806000526040600020600092509250509054906101000a900460ff1681565b8073ffffffffffffffffffffffffffffffffffffffff168473ffffffffffffffffffffffffffffffffffffffff16036124c05782600560008673ffffffffffffffffffffffffffffffffffffffff1673ffffffffffffffffffffffffffffffffffffffff168152602001908152602001600020600001908161246a919061588d565b5081600560008673ffffffffffffffffffffffffffffffffffffffff1673ffffffffffffffffffffffffffffffffffffffff16815260200190815260200160002060010190816124ba919061588d565b5061278c565b82600560008373ffffffffffffffffffffffffffffffffffffffff1673ffffffffffffffffffffffffffffffffffffffff168152602001908152602001600020600001908161250f919061588d565b5081600560008373ffffffffffffffffffffffffffffffffffffffff1673ffffffffffffffffffffffffffffffffffffffff168152602001908152602001600020600101908161255f919061588d565b5080600560008373ffffffffffffffffffffffffffffffffffffffff1673ffffffffffffffffffffffffffffffffffffffff16815260200190815260200160002060020160006101000a81548173ffffffffffffffffffffffffffffffffffffffff021916908373ffffffffffffffffffffffffffffffffffffffff16021790555060005b600660008773ffffffffffffffffffffffffffffffffffffffff1673ffffffffffffffffffffffffffffffffffffffff1681526020019081526020016000208054905081101561278a578473ffffffffffffffffffffffffffffffffffffffff16600660008873ffffffffffffffffffffffffffffffffffffffff1673ffffffffffffffffffffffffffffffffffffffff168152602001908152602001600020828154811061269657612695615475565b5b9060005260206000200160009054906101000a900473ffffffffffffffffffffffffffffffffffffffff1673ffffffffffffffffffffffffffffffffffffffff16036127775781600660008873ffffffffffffffffffffffffffffffffffffffff1673ffffffffffffffffffffffffffffffffffffffff168152602001908152602001600020828154811061272e5761272d615475565b5b9060005260206000200160006101000a81548173ffffffffffffffffffffffffffffffffffffffff021916908373ffffffffffffffffffffffffffffffffffffffff1602179055505b8080612782906154d3565b9150506125e4565b505b5050505050565b6000600d60008573ffffffffffffffffffffffffffffffffffffffff1673ffffffffffffffffffffffffffffffffffffffff16815260200190815260200160002060008473ffffffffffffffffffffffffffffffffffffffff1673ffffffffffffffffffffffffffffffffffffffff16815260200190815260200160002060008373ffffffffffffffffffffffffffffffffffffffff1673ffffffffffffffffffffffffffffffffffffffff1681526020019081526020016000205490509392505050565b600a6020528060005260406000206000915090508060000160009054906101000a900473ffffffffffffffffffffffffffffffffffffffff16908060010180546128a19061554a565b80601f01602080910402602001604051908101604052809291908181526020018280546128cd9061554a565b801561291a5780601f106128ef5761010080835404028352916020019161291a565b820191906000526020600020905b8154815290600101906020018083116128fd57829003601f168201915b5050505050908060020154908060030160009054906101000a900460ff16908060030160019054906101000a900460ff16905085565b606060018054806020026020016040519081016040528092919081815260200182805480156129d457602002820191906000526020600020905b8160009054906101000a900473ffffffffffffffffffffffffffffffffffffffff1673ffffffffffffffffffffffffffffffffffffffff168152602001906001019080831161298a575b5050505050905090565b6129e66141aa565b6000600360008373ffffffffffffffffffffffffffffffffffffffff1673ffffffffffffffffffffffffffffffffffffffff16815260200190815260200160002060030160016101000a81548160ff02191690831515021790555050565b80601160008473ffffffffffffffffffffffffffffffffffffffff1673ffffffffffffffffffffffffffffffffffffffff16815260200190815260200160002060010160006101000a81548160ff0219169083151502179055505050565b6000600360008373ffffffffffffffffffffffffffffffffffffffff1673ffffffffffffffffffffffffffffffffffffffff16815260200190815260200160002060030160009054906101000a900460ff169050919050565b80600460008473ffffffffffffffffffffffffffffffffffffffff1673ffffffffffffffffffffffffffffffffffffffff16815260200190815260200160002060006101000a81548173ffffffffffffffffffffffffffffffffffffffff021916908373ffffffffffffffffffffffffffffffffffffffff1602179055505050565b836008600087815260200190815260200160002060010160006101000a81548173ffffffffffffffffffffffffffffffffffffffff021916908373ffffffffffffffffffffffffffffffffffffffff16021790555082600860008781526020019081526020016000206002019081612bf5919061588d565b5081600860008781526020019081526020016000206003019081612c19919061588d565b5080600860008781526020019081526020016000206004019081612c3d919061588d565b505050505050565b612c4d614334565b600360008373ffffffffffffffffffffffffffffffffffffffff1673ffffffffffffffffffffffffffffffffffffffff1681526020019081526020016000206040518060a0016040529081600082018054612ca79061554a565b80601f0160208091040260200160405190810160405280929190818152602001828054612cd39061554a565b8015612d205780601f10612cf557610100808354040283529160200191612d20565b820191906000526020600020905b815481529060010190602001808311612d0357829003601f168201915b50505050508152602001600182018054612d399061554a565b80601f0160208091040260200160405190810160405280929190818152602001828054612d659061554a565b8015612db25780601f10612d8757610100808354040283529160200191612db2565b820191906000526020600020905b815481529060010190602001808311612d9557829003601f168201915b50505050508152602001600282018054612dcb9061554a565b80601f0160208091040260200160405190810160405280929190818152602001828054612df79061554a565b8015612e445780601f10612e1957610100808354040283529160200191612e44565b820191906000526020600020905b815481529060010190602001808311612e2757829003601f168201915b505050505081526020016003820160009054906101000a900460ff161515151581526020016003820160019054906101000a900460ff1615151515815250509050919050565b60096020528160005260406000208181548110612ea657600080fd5b90600052602060002001600091509150505481565b60405180608001604052808481526020018381526020018273ffffffffffffffffffffffffffffffffffffffff16815260200160001515815250600560008373ffffffffffffffffffffffffffffffffffffffff1673ffffffffffffffffffffffffffffffffffffffff1681526020019081526020016000206000820151816000019081612f49919061588d565b506020820151816001019081612f5f919061588d565b5060408201518160020160006101000a81548173ffffffffffffffffffffffffffffffffffffffff021916908373ffffffffffffffffffffffffffffffffffffffff16021790555060608201518160020160146101000a81548160ff021916908315150217905550905050600660003373ffffffffffffffffffffffffffffffffffffffff1673ffffffffffffffffffffffffffffffffffffffff168152602001908152602001600020819080600181540180825580915050600190039060005260206000200160009091909190916101000a81548173ffffffffffffffffffffffffffffffffffffffff021916908373ffffffffffffffffffffffffffffffffffffffff160217905550505050565b60116020528060005260406000206000915090508060000180546130929061554a565b80601f01602080910402602001604051908101604052809291908181526020018280546130be9061554a565b801561310b5780601f106130e05761010080835404028352916020019161310b565b820191906000526020600020905b8154815290600101906020018083116130ee57829003601f168201915b5050505050908060010160009054906101000a900460ff16905082565b600c602052826000526040600020602052816000526040600020818154811061315057600080fd5b90600052602060002001600092509250509054906101000a900473ffffffffffffffffffffffffffffffffffffffff1681565b60046020528060005260406000206000915054906101000a900473ffffffffffffffffffffffffffffffffffffffff1681565b6000600180549050905090565b601060205282600052604060002060205281600052604060002081815481106131eb57600080fd5b90600052602060002001600092509250509054906101000a900473ffffffffffffffffffffffffffffffffffffffff1681565b613226614367565b600860008381526020019081526020016000206040518060a0016040529081600082015481526020016001820160009054906101000a900473ffffffffffffffffffffffffffffffffffffffff1673ffffffffffffffffffffffffffffffffffffffff1673ffffffffffffffffffffffffffffffffffffffff1681526020016002820180546132b49061554a565b80601f01602080910402602001604051908101604052809291908181526020018280546132e09061554a565b801561332d5780601f106133025761010080835404028352916020019161332d565b820191906000526020600020905b81548152906001019060200180831161331057829003601f168201915b505050505081526020016003820180546133469061554a565b80601f01602080910402602001604051908101604052809291908181526020018280546133729061554a565b80156133bf5780601f10613394576101008083540402835291602001916133bf565b820191906000526020600020905b8154815290600101906020018083116133a257829003601f168201915b505050505081526020016004820180546133d89061554a565b80601f01602080910402602001604051908101604052809291908181526020018280546134049061554a565b80156134515780601f1061342657610100808354040283529160200191613451565b820191906000526020600020905b81548152906001019060200180831161343457829003601f168201915b5050505050815250509050919050565b6060600960008373ffffffffffffffffffffffffffffffffffffffff1673ffffffffffffffffffffffffffffffffffffffff1681526020019081526020016000208054806020026020016040519081016040528092919081815260200182805480156134ec57602002820191906000526020600020905b8154815260200190600101908083116134d8575b50505050509050919050565b600f60008773ffffffffffffffffffffffffffffffffffffffff1673ffffffffffffffffffffffffffffffffffffffff16815260200190815260200160002060008573ffffffffffffffffffffffffffffffffffffffff1673ffffffffffffffffffffffffffffffffffffffff16815260200190815260200160002060009054906101000a900460ff166136b2576040518060a001604052808573ffffffffffffffffffffffffffffffffffffffff168152602001848152602001600081526020018315158152602001821515815250600a60008673ffffffffffffffffffffffffffffffffffffffff1673ffffffffffffffffffffffffffffffffffffffff16815260200190815260200160002060008201518160000160006101000a81548173ffffffffffffffffffffffffffffffffffffffff021916908373ffffffffffffffffffffffffffffffffffffffff1602179055506020820151816001019081613663919061588d565b506040820151816002015560608201518160030160006101000a81548160ff02191690831515021790555060808201518160030160016101000a81548160ff0219169083151502179055509050505b600c60008773ffffffffffffffffffffffffffffffffffffffff1673ffffffffffffffffffffffffffffffffffffffff16815260200190815260200160002060008673ffffffffffffffffffffffffffffffffffffffff1673ffffffffffffffffffffffffffffffffffffffff168152602001908152602001600020849080600181540180825580915050600190039060005260206000200160009091909190916101000a81548173ffffffffffffffffffffffffffffffffffffffff021916908373ffffffffffffffffffffffffffffffffffffffff160217905550601060008773ffffffffffffffffffffffffffffffffffffffff1673ffffffffffffffffffffffffffffffffffffffff16815260200190815260200160002060008573ffffffffffffffffffffffffffffffffffffffff1673ffffffffffffffffffffffffffffffffffffffff168152602001908152602001600020859080600181540180825580915050600190039060005260206000200160009091909190916101000a81548173ffffffffffffffffffffffffffffffffffffffff021916908373ffffffffffffffffffffffffffffffffffffffff1602179055506001600e60008873ffffffffffffffffffffffffffffffffffffffff1673ffffffffffffffffffffffffffffffffffffffff16815260200190815260200160002060008773ffffffffffffffffffffffffffffffffffffffff1673ffffffffffffffffffffffffffffffffffffffff16815260200190815260200160002060008673ffffffffffffffffffffffffffffffffffffffff1673ffffffffffffffffffffffffffffffffffffffff16815260200190815260200160002060006101000a81548160ff0219169083151502179055506001600f60008873ffffffffffffffffffffffffffffffffffffffff1673ffffffffffffffffffffffffffffffffffffffff16815260200190815260200160002060008673ffffffffffffffffffffffffffffffffffffffff1673ffffffffffffffffffffffffffffffffffffffff16815260200190815260200160002060006101000a81548160ff021916908315150217905550505050505050565b600083600a60008873ffffffffffffffffffffffffffffffffffffffff1673ffffffffffffffffffffffffffffffffffffffff16815260200190815260200160002060020154613a2b919061561b565b90506064811115613a71576040517f08c379a0000000000000000000000000000000000000000000000000000000008152600401613a68906156c1565b60405180910390fd5b600f60008973ffffffffffffffffffffffffffffffffffffffff1673ffffffffffffffffffffffffffffffffffffffff16815260200190815260200160002060008773ffffffffffffffffffffffffffffffffffffffff1673ffffffffffffffffffffffffffffffffffffffff16815260200190815260200160002060009054906101000a900460ff16613c2a576040518060a001604052808773ffffffffffffffffffffffffffffffffffffffff1681526020018681526020018281526020018415158152602001831515815250600a60008873ffffffffffffffffffffffffffffffffffffffff1673ffffffffffffffffffffffffffffffffffffffff16815260200190815260200160002060008201518160000160006101000a81548173ffffffffffffffffffffffffffffffffffffffff021916908373ffffffffffffffffffffffffffffffffffffffff1602179055506020820151816001019081613bdb919061588d565b506040820151816002015560608201518160030160006101000a81548160ff02191690831515021790555060808201518160030160016101000a81548160ff0219169083151502179055509050505b80600a60008873ffffffffffffffffffffffffffffffffffffffff1673ffffffffffffffffffffffffffffffffffffffff16815260200190815260200160002060020181905550600b60008973ffffffffffffffffffffffffffffffffffffffff1673ffffffffffffffffffffffffffffffffffffffff16815260200190815260200160002060008773ffffffffffffffffffffffffffffffffffffffff1673ffffffffffffffffffffffffffffffffffffffff168152602001908152602001600020879080600181540180825580915050600190039060005260206000200160009091909190916101000a81548173ffffffffffffffffffffffffffffffffffffffff021916908373ffffffffffffffffffffffffffffffffffffffff160217905550600c60008973ffffffffffffffffffffffffffffffffffffffff1673ffffffffffffffffffffffffffffffffffffffff16815260200190815260200160002060008873ffffffffffffffffffffffffffffffffffffffff1673ffffffffffffffffffffffffffffffffffffffff168152602001908152602001600020869080600181540180825580915050600190039060005260206000200160009091909190916101000a81548173ffffffffffffffffffffffffffffffffffffffff021916908373ffffffffffffffffffffffffffffffffffffffff16021790555083600d60008a73ffffffffffffffffffffffffffffffffffffffff1673ffffffffffffffffffffffffffffffffffffffff16815260200190815260200160002060008973ffffffffffffffffffffffffffffffffffffffff1673ffffffffffffffffffffffffffffffffffffffff16815260200190815260200160002060008873ffffffffffffffffffffffffffffffffffffffff1673ffffffffffffffffffffffffffffffffffffffff168152602001908152602001600020819055506001600e60008a73ffffffffffffffffffffffffffffffffffffffff1673ffffffffffffffffffffffffffffffffffffffff16815260200190815260200160002060008973ffffffffffffffffffffffffffffffffffffffff1673ffffffffffffffffffffffffffffffffffffffff16815260200190815260200160002060008873ffffffffffffffffffffffffffffffffffffffff1673ffffffffffffffffffffffffffffffffffffffff16815260200190815260200160002060006101000a81548160ff0219169083151502179055506001600f60008a73ffffffffffffffffffffffffffffffffffffffff1673ffffffffffffffffffffffffffffffffffffffff16815260200190815260200160002060008873ffffffffffffffffffffffffffffffffffffffff1673ffffffffffffffffffffffffffffffffffffffff16815260200190815260200160002060006101000a81548160ff0219169083151502179055505050505050505050565b6140626141aa565b600073ffffffffffffffffffffffffffffffffffffffff168173ffffffffffffffffffffffffffffffffffffffff16036140d1576040517f08c379a00000000000000000000000000000000000000000000000000000000081526004016140c8906159d1565b60405180910390fd5b6140da81614228565b50565b6060600660008373ffffffffffffffffffffffffffffffffffffffff1673ffffffffffffffffffffffffffffffffffffffff16815260200190815260200160002080548060200260200160405190810160405280929190818152602001828054801561419e57602002820191906000526020600020905b8160009054906101000a900473ffffffffffffffffffffffffffffffffffffffff1673ffffffffffffffffffffffffffffffffffffffff1681526020019060010190808311614154575b50505050509050919050565b6141b26142ec565b73ffffffffffffffffffffffffffffffffffffffff166141d0612218565b73ffffffffffffffffffffffffffffffffffffffff1614614226576040517f08c379a000000000000000000000000000000000000000000000000000000000815260040161421d90615a3d565b60405180910390fd5b565b60008060009054906101000a900473ffffffffffffffffffffffffffffffffffffffff169050816000806101000a81548173ffffffffffffffffffffffffffffffffffffffff021916908373ffffffffffffffffffffffffffffffffffffffff1602179055508173ffffffffffffffffffffffffffffffffffffffff168173ffffffffffffffffffffffffffffffffffffffff167f8be0079c531659141344cd1fd0a4f28419497f9722a3daafe3b4186f6b6457e060405160405180910390a35050565b600033905090565b60405180608001604052806060815260200160608152602001600073ffffffffffffffffffffffffffffffffffffffff1681526020016000151581525090565b6040518060a001604052806060815260200160608152602001606081526020016000151581526020016000151581525090565b6040518060a0016040528060008152602001600073ffffffffffffffffffffffffffffffffffffffff1681526020016060815260200160608152602001606081525090565b6000604051905090565b600080fd5b600080fd5b6000819050919050565b6143d3816143c0565b81146143de57600080fd5b50565b6000813590506143f0816143ca565b92915050565b60006020828403121561440c5761440b6143b6565b5b600061441a848285016143e1565b91505092915050565b600073ffffffffffffffffffffffffffffffffffffffff82169050919050565b600061444e82614423565b9050919050565b61445e81614443565b82525050565b60006020820190506144796000830184614455565b92915050565b61448881614443565b811461449357600080fd5b50565b6000813590506144a58161447f565b92915050565b6000806000606084860312156144c4576144c36143b6565b5b60006144d286828701614496565b93505060206144e386828701614496565b92505060406144f486828701614496565b9150509250925092565b614507816143c0565b82525050565b600060208201905061452260008301846144fe565b92915050565b6000806040838503121561453f5761453e6143b6565b5b600061454d85828601614496565b925050602061455e858286016143e1565b9150509250929050565b60008060008060808587031215614582576145816143b6565b5b600061459087828801614496565b94505060206145a187828801614496565b93505060406145b287828801614496565b92505060606145c387828801614496565b91505092959194509250565b6000602082840312156145e5576145e46143b6565b5b60006145f384828501614496565b91505092915050565b600081519050919050565b600082825260208201905092915050565b60005b8381101561463657808201518184015260208101905061461b565b60008484015250505050565b6000601f19601f8301169050919050565b600061465e826145fc565b6146688185614607565b9350614678818560208601614618565b61468181614642565b840191505092915050565b60008115159050919050565b6146a18161468c565b82525050565b600060a08201905081810360008301526146c18188614653565b905081810360208301526146d58187614653565b905081810360408301526146e98186614653565b90506146f86060830185614698565b6147056080830184614698565b9695505050505050565b600080600060608486031215614728576147276143b6565b5b600061473686828701614496565b935050602061474786828701614496565b9250506040614758868287016143e1565b9150509250925092565b60008060408385031215614779576147786143b6565b5b600061478785828601614496565b925050602061479885828601614496565b9150509250929050565b60006020820190506147b76000830184614698565b92915050565b600081519050919050565b600082825260208201905092915050565b6000819050602082019050919050565b6147f281614443565b82525050565b600061480483836147e9565b60208301905092915050565b6000602082019050919050565b6000614828826147bd565b61483281856147c8565b935061483d836147d9565b8060005b8381101561486e57815161485588826147f8565b975061486083614810565b925050600181019050614841565b5085935050505092915050565b60006020820190508181036000830152614895818461481d565b905092915050565b600082825260208201905092915050565b60006148b9826145fc565b6148c3818561489d565b93506148d3818560208601614618565b6148dc81614642565b840191505092915050565b6148f08161468c565b82525050565b6000608083016000830151848203600086015261491382826148ae565b9150506020830151848203602086015261492d82826148ae565b915050604083015161494260408601826147e9565b50606083015161495560608601826148e7565b508091505092915050565b6000602082019050818103600083015261497a81846148f6565b905092915050565b61498b8161468c565b811461499657600080fd5b50565b6000813590506149a881614982565b92915050565b60008060008060008060c087890312156149cb576149ca6143b6565b5b60006149d989828a01614496565b96505060206149ea89828a01614496565b95505060406149fb89828a01614496565b9450506060614a0c89828a016143e1565b9350506080614a1d89828a016143e1565b92505060a0614a2e89828a01614999565b9150509295509295509295565b600080fd5b600080fd5b7f4e487b7100000000000000000000000000000000000000000000000000000000600052604160045260246000fd5b614a7d82614642565b810181811067ffffffffffffffff82111715614a9c57614a9b614a45565b5b80604052505050565b6000614aaf6143ac565b9050614abb8282614a74565b919050565b600067ffffffffffffffff821115614adb57614ada614a45565b5b614ae482614642565b9050602081019050919050565b82818337600083830152505050565b6000614b13614b0e84614ac0565b614aa5565b905082815260208101848484011115614b2f57614b2e614a40565b5b614b3a848285614af1565b509392505050565b600082601f830112614b5757614b56614a3b565b5b8135614b67848260208601614b00565b91505092915050565b60008060408385031215614b8757614b866143b6565b5b6000614b9585828601614496565b925050602083013567ffffffffffffffff811115614bb657614bb56143bb565b5b614bc285828601614b42565b9150509250929050565b60008060008060808587031215614be657614be56143b6565b5b6000614bf487828801614496565b945050602085013567ffffffffffffffff811115614c1557614c146143bb565b5b614c2187828801614b42565b935050604085013567ffffffffffffffff811115614c4257614c416143bb565b5b614c4e87828801614b42565b925050606085013567ffffffffffffffff811115614c6f57614c6e6143bb565b5b614c7b87828801614b42565b91505092959194509250565b60006080820190508181036000830152614ca18187614653565b90508181036020830152614cb58186614653565b9050614cc46040830185614455565b614cd16060830184614698565b95945050505050565b60006020820190508181036000830152614cf48184614653565b905092915050565b600060a082019050614d1160008301886144fe565b614d1e6020830187614455565b8181036040830152614d308186614653565b90508181036060830152614d448185614653565b90508181036080830152614d588184614653565b90509695505050505050565b600080600060608486031215614d7d57614d7c6143b6565b5b600084013567ffffffffffffffff811115614d9b57614d9a6143bb565b5b614da786828701614b42565b935050602084013567ffffffffffffffff811115614dc857614dc76143bb565b5b614dd486828701614b42565b925050604084013567ffffffffffffffff811115614df557614df46143bb565b5b614e0186828701614b42565b9150509250925092565b600080600080600060a08688031215614e2757614e266143b6565b5b6000614e3588828901614496565b9550506020614e4688828901614496565b945050604086013567ffffffffffffffff811115614e6757614e666143bb565b5b614e7388828901614b42565b935050606086013567ffffffffffffffff811115614e9457614e936143bb565b5b614ea088828901614b42565b9250506080614eb188828901614496565b9150509295509295909350565b600060a082019050614ed36000830188614455565b8181036020830152614ee58187614653565b9050614ef460408301866144fe565b614f016060830185614698565b614f0e6080830184614698565b9695505050505050565b60008060408385031215614f2f57614f2e6143b6565b5b6000614f3d85828601614496565b9250506020614f4e85828601614999565b9150509250929050565b600080600080600060a08688031215614f7457614f736143b6565b5b6000614f82888289016143e1565b9550506020614f9388828901614496565b945050604086013567ffffffffffffffff811115614fb457614fb36143bb565b5b614fc088828901614b42565b935050606086013567ffffffffffffffff811115614fe157614fe06143bb565b5b614fed88828901614b42565b925050608086013567ffffffffffffffff81111561500e5761500d6143bb565b5b61501a88828901614b42565b9150509295509295909350565b600060a083016000830151848203600086015261504482826148ae565b9150506020830151848203602086015261505e82826148ae565b9150506040830151848203604086015261507882826148ae565b915050606083015161508d60608601826148e7565b5060808301516150a060808601826148e7565b508091505092915050565b600060208201905081810360008301526150c58184615027565b905092915050565b6000806000606084860312156150e6576150e56143b6565b5b600084013567ffffffffffffffff811115615104576151036143bb565b5b61511086828701614b42565b935050602084013567ffffffffffffffff811115615131576151306143bb565b5b61513d86828701614b42565b925050604061514e86828701614496565b9150509250925092565b600060408201905081810360008301526151728185614653565b90506151816020830184614698565b9392505050565b615191816143c0565b82525050565b600060a0830160008301516151af6000860182615188565b5060208301516151c260208601826147e9565b50604083015184820360408601526151da82826148ae565b915050606083015184820360608601526151f482826148ae565b9150506080830151848203608086015261520e82826148ae565b9150508091505092915050565b600060208201905081810360008301526152358184615197565b905092915050565b600081519050919050565b600082825260208201905092915050565b6000819050602082019050919050565b60006152758383615188565b60208301905092915050565b6000602082019050919050565b60006152998261523d565b6152a38185615248565b93506152ae83615259565b8060005b838110156152df5781516152c68882615269565b97506152d183615281565b9250506001810190506152b2565b5085935050505092915050565b60006020820190508181036000830152615306818461528e565b905092915050565b60008060008060008060c0878903121561532b5761532a6143b6565b5b600061533989828a01614496565b965050602061534a89828a01614496565b955050604061535b89828a01614496565b945050606087013567ffffffffffffffff81111561537c5761537b6143bb565b5b61538889828a01614b42565b935050608061539989828a01614999565b92505060a06153aa89828a01614999565b9150509295509295509295565b600080600080600080600060e0888a0312156153d6576153d56143b6565b5b60006153e48a828b01614496565b97505060206153f58a828b01614496565b96505060406154068a828b01614496565b955050606088013567ffffffffffffffff811115615427576154266143bb565b5b6154338a828b01614b42565b94505060806154448a828b016143e1565b93505060a06154558a828b01614999565b92505060c06154668a828b01614999565b91505092959891949750929550565b7f4e487b7100000000000000000000000000000000000000000000000000000000600052603260045260246000fd5b7f4e487b7100000000000000000000000000000000000000000000000000000000600052601160045260246000fd5b60006154de826143c0565b91507fffffffffffffffffffffffffffffffffffffffffffffffffffffffffffffffff82036155105761550f6154a4565b5b600182019050919050565b7f4e487b7100000000000000000000000000000000000000000000000000000000600052602260045260246000fd5b6000600282049050600182168061556257607f821691505b6020821081036155755761557461551b565b5b50919050565b7f4974206973206f6e6c7920666f72206d756c7469706c65206e6f6d696e656500600082015250565b60006155b1601f83614607565b91506155bc8261557b565b602082019050919050565b600060208201905081810360008301526155e0816155a4565b9050919050565b60006155f2826143c0565b91506155fd836143c0565b9250828203905081811115615615576156146154a4565b5b92915050565b6000615626826143c0565b9150615631836143c0565b9250828201905080821115615649576156486154a4565b5b92915050565b7f3130302520736861726520697320616c726561647920616c6c6f63617465642e60008201527f2e2e000000000000000000000000000000000000000000000000000000000000602082015250565b60006156ab602283614607565b91506156b68261564f565b604082019050919050565b600060208201905081810360008301526156da8161569e565b9050919050565b60008190508160005260206000209050919050565b60006020601f8301049050919050565b600082821b905092915050565b6000600883026157437fffffffffffffffffffffffffffffffffffffffffffffffffffffffffffffffff82615706565b61574d8683615706565b95508019841693508086168417925050509392505050565b6000819050919050565b600061578a615785615780846143c0565b615765565b6143c0565b9050919050565b6000819050919050565b6157a48361576f565b6157b86157b082615791565b848454615713565b825550505050565b600090565b6157cd6157c0565b6157d881848461579b565b505050565b5b818110156157fc576157f16000826157c5565b6001810190506157de565b5050565b601f82111561584157615812816156e1565b61581b846156f6565b8101602085101561582a578190505b61583e615836856156f6565b8301826157dd565b50505b505050565b600082821c905092915050565b600061586460001984600802615846565b1980831691505092915050565b600061587d8383615853565b9150826002028217905092915050565b615896826145fc565b67ffffffffffffffff8111156158af576158ae614a45565b5b6158b9825461554a565b6158c4828285615800565b600060209050601f8311600181146158f757600084156158e5578287015190505b6158ef8582615871565b865550615957565b601f198416615905866156e1565b60005b8281101561592d57848901518255600182019150602085019450602081019050615908565b8683101561594a5784890151615946601f891682615853565b8355505b6001600288020188555050505b505050505050565b7f4f776e61626c653a206e6577206f776e657220697320746865207a65726f206160008201527f6464726573730000000000000000000000000000000000000000000000000000602082015250565b60006159bb602683614607565b91506159c68261595f565b604082019050919050565b600060208201905081810360008301526159ea816159ae565b9050919050565b7f4f776e61626c653a2063616c6c6572206973206e6f7420746865206f776e6572600082015250565b6000615a27602083614607565b9150615a32826159f1565b602082019050919050565b60006020820190508181036000830152615a5681615a1a565b905091905056fea2646970667358221220b1c51af9bee89e78fb215a2dc120a4d8ab68b9b0db9a7b2ed187af3c221672ca64736f6c63430008110033",
  "linkReferences": {},
  "deployedLinkReferences": {}
}