{
  "_format": "hh-sol-artifact-1",
  "contractName": "Inheritokens",
  "sourceName": "contracts/Inheritokens.sol",
  "abi": [
    {
      "inputs": [],
      "stateMutability": "nonpayable",
      "type": "constructor"
    },
    {
      "anonymous": false,
      "inputs": [
        {
          "indexed": true,
          "internalType": "address",
          "name": "previousOwner",
          "type": "address"
        },
        {
          "indexed": true,
          "internalType": "address",
          "name": "newOwner",
          "type": "address"
        }
      ],
      "name": "OwnershipTransferred",
      "type": "event"
    },
    {
      "inputs": [
        {
          "internalType": "string",
          "name": "_name",
          "type": "string"
        },
        {
          "internalType": "string",
          "name": "_email",
          "type": "string"
        },
        {
          "internalType": "address",
          "name": "_nominee",
          "type": "address"
        }
      ],
      "name": "addNomineesDetails",
      "outputs": [],
      "stateMutability": "nonpayable",
      "type": "function"
    },
    {
      "inputs": [
        {
          "internalType": "string",
          "name": "_name",
          "type": "string"
        },
        {
          "internalType": "string",
          "name": "_email",
          "type": "string"
        },
        {
          "internalType": "string",
          "name": "_cid",
          "type": "string"
        },
        {
          "internalType": "uint256",
          "name": "_months",
          "type": "uint256"
        }
      ],
      "name": "addOwnerDetails",
      "outputs": [],
      "stateMutability": "nonpayable",
      "type": "function"
    },
    {
      "inputs": [
        {
          "internalType": "address",
          "name": "_owner",
          "type": "address"
        },
        {
          "internalType": "address",
          "name": "_recoveryAddress",
          "type": "address"
        }
      ],
      "name": "addWalletRecovery",
      "outputs": [],
      "stateMutability": "nonpayable",
      "type": "function"
    },
    {
      "inputs": [
        {
          "internalType": "address",
          "name": "",
          "type": "address"
        }
      ],
      "name": "addressToNominee",
      "outputs": [
        {
          "internalType": "string",
          "name": "nominee_name",
          "type": "string"
        },
        {
          "internalType": "string",
          "name": "nominee_email",
          "type": "string"
        },
        {
          "internalType": "address",
          "name": "nominee_address",
          "type": "address"
        },
        {
          "internalType": "bool",
          "name": "hasClaimed",
          "type": "bool"
        }
      ],
      "stateMutability": "view",
      "type": "function"
    },
    {
      "inputs": [
        {
          "internalType": "address",
          "name": "",
          "type": "address"
        }
      ],
      "name": "addressToOwner",
      "outputs": [
        {
          "internalType": "string",
          "name": "owner_name",
          "type": "string"
        },
        {
          "internalType": "string",
          "name": "owner_email",
          "type": "string"
        },
        {
          "internalType": "string",
          "name": "image_cid",
          "type": "string"
        },
        {
          "internalType": "bool",
          "name": "isEmailVerified",
          "type": "bool"
        },
        {
          "internalType": "bool",
          "name": "isAlive",
          "type": "bool"
        },
        {
          "internalType": "address",
          "name": "recoveryAddress",
          "type": "address"
        },
        {
          "internalType": "uint256",
          "name": "months",
          "type": "uint256"
        }
      ],
      "stateMutability": "view",
      "type": "function"
    },
    {
      "inputs": [
        {
          "internalType": "address",
          "name": "_owner",
          "type": "address"
        },
        {
          "internalType": "address",
          "name": "_tokenAddress",
          "type": "address"
        },
        {
          "internalType": "string",
          "name": "_tokenName",
          "type": "string"
        },
        {
          "internalType": "string",
          "name": "_category",
          "type": "string"
        },
        {
          "internalType": "uint256",
          "name": "_tokenId",
          "type": "uint256"
        },
        {
          "internalType": "uint256",
          "name": "amount",
          "type": "uint256"
        }
      ],
      "name": "assignTokenStruct",
      "outputs": [],
      "stateMutability": "nonpayable",
      "type": "function"
    },
    {
      "inputs": [
        {
          "internalType": "address",
          "name": "_owner",
          "type": "address"
        }
      ],
      "name": "checkVerification",
      "outputs": [
        {
          "internalType": "bool",
          "name": "",
          "type": "bool"
        }
      ],
      "stateMutability": "view",
      "type": "function"
    },
    {
      "inputs": [
        {
          "internalType": "address",
          "name": "_nominee",
          "type": "address"
        }
      ],
      "name": "claim",
      "outputs": [],
      "stateMutability": "nonpayable",
      "type": "function"
    },
    {
      "inputs": [
        {
          "internalType": "address",
          "name": "_owner",
          "type": "address"
        },
        {
          "internalType": "address",
          "name": "_oldNomineeAddress",
          "type": "address"
        },
        {
          "internalType": "string",
          "name": "_name",
          "type": "string"
        },
        {
          "internalType": "string",
          "name": "_email",
          "type": "string"
        },
        {
          "internalType": "address",
          "name": "_newNomineeAddress",
          "type": "address"
        }
      ],
      "name": "editNomineeDetails",
      "outputs": [],
      "stateMutability": "nonpayable",
      "type": "function"
    },
    {
      "inputs": [
        {
          "internalType": "address",
          "name": "_owner",
          "type": "address"
        }
      ],
      "name": "getAllNominees",
      "outputs": [
        {
          "internalType": "address[]",
          "name": "",
          "type": "address[]"
        }
      ],
      "stateMutability": "view",
      "type": "function"
    },
    {
      "inputs": [
        {
          "internalType": "address",
          "name": "_owner",
          "type": "address"
        }
      ],
      "name": "getAllWhiteListedCharities",
      "outputs": [
        {
          "internalType": "uint256[]",
          "name": "",
          "type": "uint256[]"
        }
      ],
      "stateMutability": "view",
      "type": "function"
    },
    {
      "inputs": [
        {
          "internalType": "address",
          "name": "_owner",
          "type": "address"
        },
        {
          "internalType": "address",
          "name": "_tokenAddress",
          "type": "address"
        }
      ],
      "name": "getIsNominated",
      "outputs": [
        {
          "internalType": "bool",
          "name": "",
          "type": "bool"
        }
      ],
      "stateMutability": "view",
      "type": "function"
    },
    {
      "inputs": [
        {
          "internalType": "address",
          "name": "_nominee",
          "type": "address"
        }
      ],
      "name": "getNomineeDetails",
      "outputs": [
        {
          "components": [
            {
              "internalType": "string",
              "name": "nominee_name",
              "type": "string"
            },
            {
              "internalType": "string",
              "name": "nominee_email",
              "type": "string"
            },
            {
              "internalType": "address",
              "name": "nominee_address",
              "type": "address"
            },
            {
              "internalType": "bool",
              "name": "hasClaimed",
              "type": "bool"
            }
          ],
          "internalType": "struct Inheritokens.Nominee",
          "name": "",
          "type": "tuple"
        }
      ],
      "stateMutability": "view",
      "type": "function"
    },
    {
      "inputs": [
        {
          "internalType": "address",
          "name": "_owner",
          "type": "address"
        }
      ],
      "name": "getOwnerAlive",
      "outputs": [
        {
          "internalType": "bool",
          "name": "",
          "type": "bool"
        }
      ],
      "stateMutability": "view",
      "type": "function"
    },
    {
      "inputs": [
        {
          "internalType": "address",
          "name": "_owner",
          "type": "address"
        }
      ],
      "name": "getOwnerDetails",
      "outputs": [
        {
          "components": [
            {
              "internalType": "string",
              "name": "owner_name",
              "type": "string"
            },
            {
              "internalType": "string",
              "name": "owner_email",
              "type": "string"
            },
            {
              "internalType": "string",
              "name": "image_cid",
              "type": "string"
            },
            {
              "internalType": "bool",
              "name": "isEmailVerified",
              "type": "bool"
            },
            {
              "internalType": "bool",
              "name": "isAlive",
              "type": "bool"
            },
            {
              "internalType": "address",
              "name": "recoveryAddress",
              "type": "address"
            },
            {
              "internalType": "address[]",
              "name": "nominees",
              "type": "address[]"
            },
            {
              "internalType": "uint256[]",
              "name": "charities",
              "type": "uint256[]"
            },
            {
              "internalType": "uint256",
              "name": "months",
              "type": "uint256"
            }
          ],
          "internalType": "struct Inheritokens.Owner",
          "name": "",
          "type": "tuple"
        }
      ],
      "stateMutability": "view",
      "type": "function"
    },
    {
      "inputs": [],
      "name": "getOwners",
      "outputs": [
        {
          "internalType": "address[]",
          "name": "",
          "type": "address[]"
        }
      ],
      "stateMutability": "view",
      "type": "function"
    },
    {
      "inputs": [
        {
          "internalType": "address",
          "name": "_owner",
          "type": "address"
        }
      ],
      "name": "getRecoveryAddress",
      "outputs": [
        {
          "internalType": "address",
          "name": "",
          "type": "address"
        }
      ],
      "stateMutability": "view",
      "type": "function"
    },
    {
      "inputs": [
        {
          "internalType": "address",
          "name": "_owner",
          "type": "address"
        }
      ],
      "name": "getResponse",
      "outputs": [
        {
          "internalType": "bool",
          "name": "",
          "type": "bool"
        }
      ],
      "stateMutability": "view",
      "type": "function"
    },
    {
      "inputs": [
        {
          "internalType": "address",
          "name": "_owner",
          "type": "address"
        }
      ],
      "name": "getResponseDate",
      "outputs": [
        {
          "internalType": "string",
          "name": "",
          "type": "string"
        }
      ],
      "stateMutability": "view",
      "type": "function"
    },
    {
      "inputs": [],
      "name": "getTotalOwners",
      "outputs": [
        {
          "internalType": "uint256",
          "name": "",
          "type": "uint256"
        }
      ],
      "stateMutability": "view",
      "type": "function"
    },
    {
      "inputs": [
        {
          "internalType": "address",
          "name": "",
          "type": "address"
        }
      ],
      "name": "isOwnerAdded",
      "outputs": [
        {
          "internalType": "bool",
          "name": "",
          "type": "bool"
        }
      ],
      "stateMutability": "view",
      "type": "function"
    },
    {
      "inputs": [],
      "name": "owner",
      "outputs": [
        {
          "internalType": "address",
          "name": "",
          "type": "address"
        }
      ],
      "stateMutability": "view",
      "type": "function"
    },
    {
      "inputs": [
        {
          "internalType": "address",
          "name": "",
          "type": "address"
        }
      ],
      "name": "ownerToResponse",
      "outputs": [
        {
          "internalType": "string",
          "name": "date",
          "type": "string"
        },
        {
          "internalType": "bool",
          "name": "isResponsed",
          "type": "bool"
        }
      ],
      "stateMutability": "view",
      "type": "function"
    },
    {
      "inputs": [
        {
          "internalType": "uint256",
          "name": "",
          "type": "uint256"
        }
      ],
      "name": "owners",
      "outputs": [
        {
          "internalType": "address",
          "name": "",
          "type": "address"
        }
      ],
      "stateMutability": "view",
      "type": "function"
    },
    {
      "inputs": [],
      "name": "renounceOwnership",
      "outputs": [],
      "stateMutability": "nonpayable",
      "type": "function"
    },
    {
      "inputs": [
        {
          "internalType": "address",
          "name": "_owner",
          "type": "address"
        }
      ],
      "name": "setOwnerNotAlive",
      "outputs": [],
      "stateMutability": "nonpayable",
      "type": "function"
    },
    {
      "inputs": [
        {
          "internalType": "address",
          "name": "_owner",
          "type": "address"
        },
        {
          "internalType": "bool",
          "name": "_response",
          "type": "bool"
        }
      ],
      "name": "setResponse",
      "outputs": [],
      "stateMutability": "nonpayable",
      "type": "function"
    },
    {
      "inputs": [
        {
          "internalType": "address",
          "name": "_owner",
          "type": "address"
        },
        {
          "internalType": "string",
          "name": "_date",
          "type": "string"
        }
      ],
      "name": "setResponseDate",
      "outputs": [],
      "stateMutability": "nonpayable",
      "type": "function"
    },
    {
      "inputs": [
        {
          "internalType": "address",
          "name": "_owner",
          "type": "address"
        },
        {
          "internalType": "uint256",
          "name": "_charityId",
          "type": "uint256"
        }
      ],
      "name": "setWhiteListedCharities",
      "outputs": [],
      "stateMutability": "nonpayable",
      "type": "function"
    },
    {
      "inputs": [
        {
          "internalType": "address",
          "name": "",
          "type": "address"
        },
        {
          "internalType": "address",
          "name": "",
          "type": "address"
        }
      ],
      "name": "tokenAddressToTokenStruct",
      "outputs": [
        {
          "internalType": "address",
          "name": "token_address",
          "type": "address"
        },
        {
          "internalType": "string",
          "name": "token_name",
          "type": "string"
        },
        {
          "internalType": "string",
          "name": "category",
          "type": "string"
        },
        {
          "internalType": "uint256",
          "name": "token_id",
          "type": "uint256"
        },
        {
          "internalType": "uint256",
          "name": "allocated_share",
          "type": "uint256"
        },
        {
          "internalType": "bool",
          "name": "isNominated",
          "type": "bool"
        }
      ],
      "stateMutability": "view",
      "type": "function"
    },
    {
      "inputs": [
        {
          "internalType": "address",
          "name": "newOwner",
          "type": "address"
        }
      ],
      "name": "transferOwnership",
      "outputs": [],
      "stateMutability": "nonpayable",
      "type": "function"
    },
    {
      "inputs": [
        {
          "internalType": "address",
          "name": "_owner",
          "type": "address"
        },
        {
          "internalType": "address",
          "name": "_tokenAddress",
          "type": "address"
        },
        {
          "internalType": "uint256",
          "name": "amount",
          "type": "uint256"
        }
      ],
      "name": "updateAllocatedShare",
      "outputs": [],
      "stateMutability": "nonpayable",
      "type": "function"
    },
    {
      "inputs": [
        {
          "internalType": "address",
          "name": "_owner",
          "type": "address"
        }
      ],
      "name": "verifyOwnerEmail",
      "outputs": [],
      "stateMutability": "nonpayable",
      "type": "function"
    }
  ],
  "bytecode": "0x60806040523480156200001157600080fd5b5062000032620000266200003860201b60201c565b6200004060201b60201c565b62000104565b600033905090565b60008060009054906101000a900473ffffffffffffffffffffffffffffffffffffffff169050816000806101000a81548173ffffffffffffffffffffffffffffffffffffffff021916908373ffffffffffffffffffffffffffffffffffffffff1602179055508173ffffffffffffffffffffffffffffffffffffffff168173ffffffffffffffffffffffffffffffffffffffff167f8be0079c531659141344cd1fd0a4f28419497f9722a3daafe3b4186f6b6457e060405160405180910390a35050565b613d8680620001146000396000f3fe608060405234801561001057600080fd5b50600436106101fb5760003560e01c80638e5d20991161011a578063cb144b39116100ad578063e62d4f7c1161007c578063e62d4f7c1461062b578063e822cd5c1461065b578063e9c1555514610677578063f2fde38b14610693578063f8009785146106af576101fb565b8063cb144b391461058b578063cf751c44146105a7578063db23f9f3146105d8578063de508c5b146105f6576101fb565b8063a6072445116100e9578063a6072445146104f3578063baab97971461050f578063bece99681461053f578063c3bb81211461055b576101fb565b80638e5d20991461046d57806392f820481461049d578063a0e67e2b146104b9578063a5394b39146104d7576101fb565b8063511865e9116101925780636a5e8938116101615780636a5e8938146103e5578063715018a61461041557806376f0ffc61461041f5780638da5cb5b1461044f576101fb565b8063511865e91461033657806354add3e7146103665780635a863c11146103825780636199997f146103b5576101fb565b8063348f0a93116101ce578063348f0a931461029e5780633bf01bf8146102ba578063433a05b0146102d65780634950956e14610306576101fb565b8063025e7c271461020057806306d1681d14610230578063159305e11461024c5780631e83409a14610282575b600080fd5b61021a6004803603810190610215919061297a565b6106df565b60405161022791906129e8565b60405180910390f35b61024a60048036038101906102459190612a2f565b61071e565b005b61026660048036038101906102619190612a2f565b6108a0565b6040516102799796959493929190612b16565b60405180910390f35b61029c60048036038101906102979190612a2f565b610ab4565b005b6102b860048036038101906102b39190612b9a565b610b12565b005b6102d460048036038101906102cf9190612d0f565b610b7f565b005b6102f060048036038101906102eb9190612a2f565b610cf3565b6040516102fd9190612dd4565b60405180910390f35b610320600480360381019061031b9190612a2f565b610d4c565b60405161032d9190612ec1565b60405180910390f35b610350600480360381019061034b9190612a2f565b610f3a565b60405161035d91906129e8565b60405180910390f35b610380600480360381019061037b9190612ee3565b610fa6565b005b61039c60048036038101906103979190612a2f565b611002565b6040516103ac9493929190612f3f565b60405180910390f35b6103cf60048036038101906103ca9190612a2f565b61116f565b6040516103dc9190612dd4565b60405180910390f35b6103ff60048036038101906103fa9190612a2f565b6111c8565b60405161040c9190612f92565b60405180910390f35b61041d61129c565b005b61043960048036038101906104349190612a2f565b6112b0565b6040516104469190612dd4565b60405180910390f35b6104576112d0565b60405161046491906129e8565b60405180910390f35b61048760048036038101906104829190612fb4565b6112f9565b6040516104949190612dd4565b60405180910390f35b6104b760048036038101906104b29190612ff4565b611390565b005b6104c1611744565b6040516104ce9190613156565b60405180910390f35b6104f160048036038101906104ec9190612a2f565b6117d2565b005b61050d600480360381019061050891906131a4565b611838565b005b61052960048036038101906105249190612a2f565b611896565b6040516105369190612dd4565b60405180910390f35b61055960048036038101906105549190612fb4565b6118ef565b005b61057560048036038101906105709190612a2f565b611974565b60405161058291906133f2565b60405180910390f35b6105a560048036038101906105a09190613414565b611d00565b005b6105c160048036038101906105bc9190612a2f565b611f43565b6040516105cf92919061349f565b60405180910390f35b6105e0611ffc565b6040516105ed91906134cf565b60405180910390f35b610610600480360381019061060b9190612fb4565b612009565b604051610622969594939291906134ea565b60405180910390f35b61064560048036038101906106409190612a2f565b61218f565b60405161065291906135c8565b60405180910390f35b610675600480360381019061067091906135ea565b612229565b005b610691600480360381019061068c91906136a5565b612564565b005b6106ad60048036038101906106a89190612a2f565b6125ed565b005b6106c960048036038101906106c49190612a2f565b612670565b6040516106d69190613156565b60405180910390f35b600181815481106106ef57600080fd5b906000526020600020016000915054906101000a900473ffffffffffffffffffffffffffffffffffffffff1681565b610726612740565b600260008273ffffffffffffffffffffffffffffffffffffffff1673ffffffffffffffffffffffffffffffffffffffff16815260200190815260200160002060009054906101000a900460ff166107b2576040517f08c379a00000000000000000000000000000000000000000000000000000000081526004016107a990613744565b60405180910390fd5b600360008273ffffffffffffffffffffffffffffffffffffffff1673ffffffffffffffffffffffffffffffffffffffff16815260200190815260200160002060030160009054906101000a900460ff1615610842576040517f08c379a0000000000000000000000000000000000000000000000000000000008152600401610839906137b0565b60405180910390fd5b6001600360008373ffffffffffffffffffffffffffffffffffffffff1673ffffffffffffffffffffffffffffffffffffffff16815260200190815260200160002060030160006101000a81548160ff02191690831515021790555050565b60036020528060005260406000206000915090508060000180546108c3906137ff565b80601f01602080910402602001604051908101604052809291908181526020018280546108ef906137ff565b801561093c5780601f106109115761010080835404028352916020019161093c565b820191906000526020600020905b81548152906001019060200180831161091f57829003601f168201915b505050505090806001018054610951906137ff565b80601f016020809104026020016040519081016040528092919081815260200182805461097d906137ff565b80156109ca5780601f1061099f576101008083540402835291602001916109ca565b820191906000526020600020905b8154815290600101906020018083116109ad57829003601f168201915b5050505050908060020180546109df906137ff565b80601f0160208091040260200160405190810160405280929190818152602001828054610a0b906137ff565b8015610a585780601f10610a2d57610100808354040283529160200191610a58565b820191906000526020600020905b815481529060010190602001808311610a3b57829003601f168201915b5050505050908060030160009054906101000a900460ff16908060030160019054906101000a900460ff16908060030160029054906101000a900473ffffffffffffffffffffffffffffffffffffffff16908060060154905087565b6001600460008373ffffffffffffffffffffffffffffffffffffffff1673ffffffffffffffffffffffffffffffffffffffff16815260200190815260200160002060020160146101000a81548160ff02191690831515021790555050565b600360008373ffffffffffffffffffffffffffffffffffffffff1673ffffffffffffffffffffffffffffffffffffffff1681526020019081526020016000206005018190806001815401808255809150506001900390600052602060002001600090919091909150555050565b6040518060c001604052808673ffffffffffffffffffffffffffffffffffffffff16815260200185815260200184815260200183815260200182815260200160011515815250600560008873ffffffffffffffffffffffffffffffffffffffff1673ffffffffffffffffffffffffffffffffffffffff16815260200190815260200160002060008773ffffffffffffffffffffffffffffffffffffffff1673ffffffffffffffffffffffffffffffffffffffff16815260200190815260200160002060008201518160000160006101000a81548173ffffffffffffffffffffffffffffffffffffffff021916908373ffffffffffffffffffffffffffffffffffffffff1602179055506020820151816001019081610c9d91906139dc565b506040820151816002019081610cb391906139dc565b50606082015181600301556080820151816004015560a08201518160050160006101000a81548160ff021916908315150217905550905050505050505050565b6000600660008373ffffffffffffffffffffffffffffffffffffffff1673ffffffffffffffffffffffffffffffffffffffff16815260200190815260200160002060010160009054906101000a900460ff169050919050565b610d5461288a565b600460008373ffffffffffffffffffffffffffffffffffffffff1673ffffffffffffffffffffffffffffffffffffffff168152602001908152602001600020604051806080016040529081600082018054610dae906137ff565b80601f0160208091040260200160405190810160405280929190818152602001828054610dda906137ff565b8015610e275780601f10610dfc57610100808354040283529160200191610e27565b820191906000526020600020905b815481529060010190602001808311610e0a57829003601f168201915b50505050508152602001600182018054610e40906137ff565b80601f0160208091040260200160405190810160405280929190818152602001828054610e6c906137ff565b8015610eb95780601f10610e8e57610100808354040283529160200191610eb9565b820191906000526020600020905b815481529060010190602001808311610e9c57829003601f168201915b505050505081526020016002820160009054906101000a900473ffffffffffffffffffffffffffffffffffffffff1673ffffffffffffffffffffffffffffffffffffffff1673ffffffffffffffffffffffffffffffffffffffff1681526020016002820160149054906101000a900460ff1615151515815250509050919050565b6000600360008373ffffffffffffffffffffffffffffffffffffffff1673ffffffffffffffffffffffffffffffffffffffff16815260200190815260200160002060030160029054906101000a900473ffffffffffffffffffffffffffffffffffffffff169050919050565b610fae612740565b80600660008473ffffffffffffffffffffffffffffffffffffffff1673ffffffffffffffffffffffffffffffffffffffff1681526020019081526020016000206000019081610ffd91906139dc565b505050565b6004602052806000526040600020600091509050806000018054611025906137ff565b80601f0160208091040260200160405190810160405280929190818152602001828054611051906137ff565b801561109e5780601f106110735761010080835404028352916020019161109e565b820191906000526020600020905b81548152906001019060200180831161108157829003601f168201915b5050505050908060010180546110b3906137ff565b80601f01602080910402602001604051908101604052809291908181526020018280546110df906137ff565b801561112c5780601f106111015761010080835404028352916020019161112c565b820191906000526020600020905b81548152906001019060200180831161110f57829003601f168201915b5050505050908060020160009054906101000a900473ffffffffffffffffffffffffffffffffffffffff16908060020160149054906101000a900460ff16905084565b6000600360008373ffffffffffffffffffffffffffffffffffffffff1673ffffffffffffffffffffffffffffffffffffffff16815260200190815260200160002060030160019054906101000a900460ff169050919050565b6060600660008373ffffffffffffffffffffffffffffffffffffffff1673ffffffffffffffffffffffffffffffffffffffff1681526020019081526020016000206000018054611217906137ff565b80601f0160208091040260200160405190810160405280929190818152602001828054611243906137ff565b80156112905780601f1061126557610100808354040283529160200191611290565b820191906000526020600020905b81548152906001019060200180831161127357829003601f168201915b50505050509050919050565b6112a4612740565b6112ae60006127be565b565b60026020528060005260406000206000915054906101000a900460ff1681565b60008060009054906101000a900473ffffffffffffffffffffffffffffffffffffffff16905090565b6000600560008473ffffffffffffffffffffffffffffffffffffffff1673ffffffffffffffffffffffffffffffffffffffff16815260200190815260200160002060008373ffffffffffffffffffffffffffffffffffffffff1673ffffffffffffffffffffffffffffffffffffffff16815260200190815260200160002060050160009054906101000a900460ff16905092915050565b8073ffffffffffffffffffffffffffffffffffffffff168473ffffffffffffffffffffffffffffffffffffffff16036114685782600460008673ffffffffffffffffffffffffffffffffffffffff1673ffffffffffffffffffffffffffffffffffffffff168152602001908152602001600020600001908161141291906139dc565b5081600460008673ffffffffffffffffffffffffffffffffffffffff1673ffffffffffffffffffffffffffffffffffffffff168152602001908152602001600020600101908161146291906139dc565b5061173d565b82600460008373ffffffffffffffffffffffffffffffffffffffff1673ffffffffffffffffffffffffffffffffffffffff16815260200190815260200160002060000190816114b791906139dc565b5081600460008373ffffffffffffffffffffffffffffffffffffffff1673ffffffffffffffffffffffffffffffffffffffff168152602001908152602001600020600101908161150791906139dc565b5080600460008373ffffffffffffffffffffffffffffffffffffffff1673ffffffffffffffffffffffffffffffffffffffff16815260200190815260200160002060020160006101000a81548173ffffffffffffffffffffffffffffffffffffffff021916908373ffffffffffffffffffffffffffffffffffffffff16021790555060005b600360008773ffffffffffffffffffffffffffffffffffffffff1673ffffffffffffffffffffffffffffffffffffffff1681526020019081526020016000206004018054905081101561173b578473ffffffffffffffffffffffffffffffffffffffff16600360008873ffffffffffffffffffffffffffffffffffffffff1673ffffffffffffffffffffffffffffffffffffffff168152602001908152602001600020600401828154811061164457611643613aae565b5b9060005260206000200160009054906101000a900473ffffffffffffffffffffffffffffffffffffffff1673ffffffffffffffffffffffffffffffffffffffff16036117285781600360008873ffffffffffffffffffffffffffffffffffffffff1673ffffffffffffffffffffffffffffffffffffffff16815260200190815260200160002060040182815481106116df576116de613aae565b5b9060005260206000200160006101000a81548173ffffffffffffffffffffffffffffffffffffffff021916908373ffffffffffffffffffffffffffffffffffffffff1602179055505b808061173390613b0c565b91505061158c565b505b5050505050565b606060018054806020026020016040519081016040528092919081815260200182805480156117c857602002820191906000526020600020905b8160009054906101000a900473ffffffffffffffffffffffffffffffffffffffff1673ffffffffffffffffffffffffffffffffffffffff168152602001906001019080831161177e575b5050505050905090565b6117da612740565b6000600360008373ffffffffffffffffffffffffffffffffffffffff1673ffffffffffffffffffffffffffffffffffffffff16815260200190815260200160002060030160016101000a81548160ff02191690831515021790555050565b80600660008473ffffffffffffffffffffffffffffffffffffffff1673ffffffffffffffffffffffffffffffffffffffff16815260200190815260200160002060010160006101000a81548160ff0219169083151502179055505050565b6000600360008373ffffffffffffffffffffffffffffffffffffffff1673ffffffffffffffffffffffffffffffffffffffff16815260200190815260200160002060030160009054906101000a900460ff169050919050565b80600360008473ffffffffffffffffffffffffffffffffffffffff1673ffffffffffffffffffffffffffffffffffffffff16815260200190815260200160002060030160026101000a81548173ffffffffffffffffffffffffffffffffffffffff021916908373ffffffffffffffffffffffffffffffffffffffff1602179055505050565b61197c6128ca565b600360008373ffffffffffffffffffffffffffffffffffffffff1673ffffffffffffffffffffffffffffffffffffffff168152602001908152602001600020604051806101200160405290816000820180546119d7906137ff565b80601f0160208091040260200160405190810160405280929190818152602001828054611a03906137ff565b8015611a505780601f10611a2557610100808354040283529160200191611a50565b820191906000526020600020905b815481529060010190602001808311611a3357829003601f168201915b50505050508152602001600182018054611a69906137ff565b80601f0160208091040260200160405190810160405280929190818152602001828054611a95906137ff565b8015611ae25780601f10611ab757610100808354040283529160200191611ae2565b820191906000526020600020905b815481529060010190602001808311611ac557829003601f168201915b50505050508152602001600282018054611afb906137ff565b80601f0160208091040260200160405190810160405280929190818152602001828054611b27906137ff565b8015611b745780601f10611b4957610100808354040283529160200191611b74565b820191906000526020600020905b815481529060010190602001808311611b5757829003601f168201915b505050505081526020016003820160009054906101000a900460ff161515151581526020016003820160019054906101000a900460ff161515151581526020016003820160029054906101000a900473ffffffffffffffffffffffffffffffffffffffff1673ffffffffffffffffffffffffffffffffffffffff1673ffffffffffffffffffffffffffffffffffffffff16815260200160048201805480602002602001604051908101604052809291908181526020018280548015611c8e57602002820191906000526020600020905b8160009054906101000a900473ffffffffffffffffffffffffffffffffffffffff1673ffffffffffffffffffffffffffffffffffffffff1681526020019060010190808311611c44575b5050505050815260200160058201805480602002602001604051908101604052809291908181526020018280548015611ce657602002820191906000526020600020905b815481526020019060010190808311611cd2575b505050505081526020016006820154815250509050919050565b600260003373ffffffffffffffffffffffffffffffffffffffff1673ffffffffffffffffffffffffffffffffffffffff16815260200190815260200160002060009054906101000a900460ff16611d8c576040517f08c379a0000000000000000000000000000000000000000000000000000000008152600401611d8390613bc6565b60405180910390fd5b60405180608001604052808481526020018381526020018273ffffffffffffffffffffffffffffffffffffffff16815260200160001515815250600460008373ffffffffffffffffffffffffffffffffffffffff1673ffffffffffffffffffffffffffffffffffffffff1681526020019081526020016000206000820151816000019081611e1a91906139dc565b506020820151816001019081611e3091906139dc565b5060408201518160020160006101000a81548173ffffffffffffffffffffffffffffffffffffffff021916908373ffffffffffffffffffffffffffffffffffffffff16021790555060608201518160020160146101000a81548160ff021916908315150217905550905050600360003373ffffffffffffffffffffffffffffffffffffffff1673ffffffffffffffffffffffffffffffffffffffff168152602001908152602001600020600401819080600181540180825580915050600190039060005260206000200160009091909190916101000a81548173ffffffffffffffffffffffffffffffffffffffff021916908373ffffffffffffffffffffffffffffffffffffffff160217905550505050565b6006602052806000526040600020600091509050806000018054611f66906137ff565b80601f0160208091040260200160405190810160405280929190818152602001828054611f92906137ff565b8015611fdf5780601f10611fb457610100808354040283529160200191611fdf565b820191906000526020600020905b815481529060010190602001808311611fc257829003601f168201915b5050505050908060010160009054906101000a900460ff16905082565b6000600180549050905090565b6005602052816000526040600020602052806000526040600020600091509150508060000160009054906101000a900473ffffffffffffffffffffffffffffffffffffffff169080600101805461205f906137ff565b80601f016020809104026020016040519081016040528092919081815260200182805461208b906137ff565b80156120d85780601f106120ad576101008083540402835291602001916120d8565b820191906000526020600020905b8154815290600101906020018083116120bb57829003601f168201915b5050505050908060020180546120ed906137ff565b80601f0160208091040260200160405190810160405280929190818152602001828054612119906137ff565b80156121665780601f1061213b57610100808354040283529160200191612166565b820191906000526020600020905b81548152906001019060200180831161214957829003601f168201915b5050505050908060030154908060040154908060050160009054906101000a900460ff16905086565b6060600360008373ffffffffffffffffffffffffffffffffffffffff1673ffffffffffffffffffffffffffffffffffffffff16815260200190815260200160002060050180548060200260200160405190810160405280929190818152602001828054801561221d57602002820191906000526020600020905b815481526020019060010190808311612209575b50505050509050919050565b600260003373ffffffffffffffffffffffffffffffffffffffff1673ffffffffffffffffffffffffffffffffffffffff16815260200190815260200160002060009054906101000a900460ff16156122b6576040517f08c379a00000000000000000000000000000000000000000000000000000000081526004016122ad90613c32565b60405180910390fd5b6001339080600181540180825580915050600190039060005260206000200160009091909190916101000a81548173ffffffffffffffffffffffffffffffffffffffff021916908373ffffffffffffffffffffffffffffffffffffffff16021790555083600360003373ffffffffffffffffffffffffffffffffffffffff1673ffffffffffffffffffffffffffffffffffffffff168152602001908152602001600020600001908161236891906139dc565b5082600360003373ffffffffffffffffffffffffffffffffffffffff1673ffffffffffffffffffffffffffffffffffffffff16815260200190815260200160002060010190816123b891906139dc565b5081600360003373ffffffffffffffffffffffffffffffffffffffff1673ffffffffffffffffffffffffffffffffffffffff168152602001908152602001600020600201908161240891906139dc565b506000600360003373ffffffffffffffffffffffffffffffffffffffff1673ffffffffffffffffffffffffffffffffffffffff16815260200190815260200160002060030160006101000a81548160ff0219169083151502179055506001600360003373ffffffffffffffffffffffffffffffffffffffff1673ffffffffffffffffffffffffffffffffffffffff16815260200190815260200160002060030160016101000a81548160ff02191690831515021790555080600360003373ffffffffffffffffffffffffffffffffffffffff1673ffffffffffffffffffffffffffffffffffffffff168152602001908152602001600020600601819055506001600260003373ffffffffffffffffffffffffffffffffffffffff1673ffffffffffffffffffffffffffffffffffffffff16815260200190815260200160002060006101000a81548160ff02191690831515021790555050505050565b80600560008573ffffffffffffffffffffffffffffffffffffffff1673ffffffffffffffffffffffffffffffffffffffff16815260200190815260200160002060008473ffffffffffffffffffffffffffffffffffffffff1673ffffffffffffffffffffffffffffffffffffffff16815260200190815260200160002060040181905550505050565b6125f5612740565b600073ffffffffffffffffffffffffffffffffffffffff168173ffffffffffffffffffffffffffffffffffffffff1603612664576040517f08c379a000000000000000000000000000000000000000000000000000000000815260040161265b90613cc4565b60405180910390fd5b61266d816127be565b50565b6060600360008373ffffffffffffffffffffffffffffffffffffffff1673ffffffffffffffffffffffffffffffffffffffff16815260200190815260200160002060040180548060200260200160405190810160405280929190818152602001828054801561273457602002820191906000526020600020905b8160009054906101000a900473ffffffffffffffffffffffffffffffffffffffff1673ffffffffffffffffffffffffffffffffffffffff16815260200190600101908083116126ea575b50505050509050919050565b612748612882565b73ffffffffffffffffffffffffffffffffffffffff166127666112d0565b73ffffffffffffffffffffffffffffffffffffffff16146127bc576040517f08c379a00000000000000000000000000000000000000000000000000000000081526004016127b390613d30565b60405180910390fd5b565b60008060009054906101000a900473ffffffffffffffffffffffffffffffffffffffff169050816000806101000a81548173ffffffffffffffffffffffffffffffffffffffff021916908373ffffffffffffffffffffffffffffffffffffffff1602179055508173ffffffffffffffffffffffffffffffffffffffff168173ffffffffffffffffffffffffffffffffffffffff167f8be0079c531659141344cd1fd0a4f28419497f9722a3daafe3b4186f6b6457e060405160405180910390a35050565b600033905090565b60405180608001604052806060815260200160608152602001600073ffffffffffffffffffffffffffffffffffffffff1681526020016000151581525090565b604051806101200160405280606081526020016060815260200160608152602001600015158152602001600015158152602001600073ffffffffffffffffffffffffffffffffffffffff1681526020016060815260200160608152602001600081525090565b6000604051905090565b600080fd5b600080fd5b6000819050919050565b61295781612944565b811461296257600080fd5b50565b6000813590506129748161294e565b92915050565b6000602082840312156129905761298f61293a565b5b600061299e84828501612965565b91505092915050565b600073ffffffffffffffffffffffffffffffffffffffff82169050919050565b60006129d2826129a7565b9050919050565b6129e2816129c7565b82525050565b60006020820190506129fd60008301846129d9565b92915050565b612a0c816129c7565b8114612a1757600080fd5b50565b600081359050612a2981612a03565b92915050565b600060208284031215612a4557612a4461293a565b5b6000612a5384828501612a1a565b91505092915050565b600081519050919050565b600082825260208201905092915050565b60005b83811015612a96578082015181840152602081019050612a7b565b60008484015250505050565b6000601f19601f8301169050919050565b6000612abe82612a5c565b612ac88185612a67565b9350612ad8818560208601612a78565b612ae181612aa2565b840191505092915050565b60008115159050919050565b612b0181612aec565b82525050565b612b1081612944565b82525050565b600060e0820190508181036000830152612b30818a612ab3565b90508181036020830152612b448189612ab3565b90508181036040830152612b588188612ab3565b9050612b676060830187612af8565b612b746080830186612af8565b612b8160a08301856129d9565b612b8e60c0830184612b07565b98975050505050505050565b60008060408385031215612bb157612bb061293a565b5b6000612bbf85828601612a1a565b9250506020612bd085828601612965565b9150509250929050565b600080fd5b600080fd5b7f4e487b7100000000000000000000000000000000000000000000000000000000600052604160045260246000fd5b612c1c82612aa2565b810181811067ffffffffffffffff82111715612c3b57612c3a612be4565b5b80604052505050565b6000612c4e612930565b9050612c5a8282612c13565b919050565b600067ffffffffffffffff821115612c7a57612c79612be4565b5b612c8382612aa2565b9050602081019050919050565b82818337600083830152505050565b6000612cb2612cad84612c5f565b612c44565b905082815260208101848484011115612cce57612ccd612bdf565b5b612cd9848285612c90565b509392505050565b600082601f830112612cf657612cf5612bda565b5b8135612d06848260208601612c9f565b91505092915050565b60008060008060008060c08789031215612d2c57612d2b61293a565b5b6000612d3a89828a01612a1a565b9650506020612d4b89828a01612a1a565b955050604087013567ffffffffffffffff811115612d6c57612d6b61293f565b5b612d7889828a01612ce1565b945050606087013567ffffffffffffffff811115612d9957612d9861293f565b5b612da589828a01612ce1565b9350506080612db689828a01612965565b92505060a0612dc789828a01612965565b9150509295509295509295565b6000602082019050612de96000830184612af8565b92915050565b600082825260208201905092915050565b6000612e0b82612a5c565b612e158185612def565b9350612e25818560208601612a78565b612e2e81612aa2565b840191505092915050565b612e42816129c7565b82525050565b612e5181612aec565b82525050565b60006080830160008301518482036000860152612e748282612e00565b91505060208301518482036020860152612e8e8282612e00565b9150506040830151612ea36040860182612e39565b506060830151612eb66060860182612e48565b508091505092915050565b60006020820190508181036000830152612edb8184612e57565b905092915050565b60008060408385031215612efa57612ef961293a565b5b6000612f0885828601612a1a565b925050602083013567ffffffffffffffff811115612f2957612f2861293f565b5b612f3585828601612ce1565b9150509250929050565b60006080820190508181036000830152612f598187612ab3565b90508181036020830152612f6d8186612ab3565b9050612f7c60408301856129d9565b612f896060830184612af8565b95945050505050565b60006020820190508181036000830152612fac8184612ab3565b905092915050565b60008060408385031215612fcb57612fca61293a565b5b6000612fd985828601612a1a565b9250506020612fea85828601612a1a565b9150509250929050565b600080600080600060a086880312156130105761300f61293a565b5b600061301e88828901612a1a565b955050602061302f88828901612a1a565b945050604086013567ffffffffffffffff8111156130505761304f61293f565b5b61305c88828901612ce1565b935050606086013567ffffffffffffffff81111561307d5761307c61293f565b5b61308988828901612ce1565b925050608061309a88828901612a1a565b9150509295509295909350565b600081519050919050565b600082825260208201905092915050565b6000819050602082019050919050565b60006130df8383612e39565b60208301905092915050565b6000602082019050919050565b6000613103826130a7565b61310d81856130b2565b9350613118836130c3565b8060005b8381101561314957815161313088826130d3565b975061313b836130eb565b92505060018101905061311c565b5085935050505092915050565b6000602082019050818103600083015261317081846130f8565b905092915050565b61318181612aec565b811461318c57600080fd5b50565b60008135905061319e81613178565b92915050565b600080604083850312156131bb576131ba61293a565b5b60006131c985828601612a1a565b92505060206131da8582860161318f565b9150509250929050565b600082825260208201905092915050565b6000613200826130a7565b61320a81856131e4565b9350613215836130c3565b8060005b8381101561324657815161322d88826130d3565b9750613238836130eb565b925050600181019050613219565b5085935050505092915050565b600081519050919050565b600082825260208201905092915050565b6000819050602082019050919050565b61328881612944565b82525050565b600061329a838361327f565b60208301905092915050565b6000602082019050919050565b60006132be82613253565b6132c8818561325e565b93506132d38361326f565b8060005b838110156133045781516132eb888261328e565b97506132f6836132a6565b9250506001810190506132d7565b5085935050505092915050565b600061012083016000830151848203600086015261332f8282612e00565b915050602083015184820360208601526133498282612e00565b915050604083015184820360408601526133638282612e00565b91505060608301516133786060860182612e48565b50608083015161338b6080860182612e48565b5060a083015161339e60a0860182612e39565b5060c083015184820360c08601526133b682826131f5565b91505060e083015184820360e08601526133d082826132b3565b9150506101008301516133e761010086018261327f565b508091505092915050565b6000602082019050818103600083015261340c8184613311565b905092915050565b60008060006060848603121561342d5761342c61293a565b5b600084013567ffffffffffffffff81111561344b5761344a61293f565b5b61345786828701612ce1565b935050602084013567ffffffffffffffff8111156134785761347761293f565b5b61348486828701612ce1565b925050604061349586828701612a1a565b9150509250925092565b600060408201905081810360008301526134b98185612ab3565b90506134c86020830184612af8565b9392505050565b60006020820190506134e46000830184612b07565b92915050565b600060c0820190506134ff60008301896129d9565b81810360208301526135118188612ab3565b905081810360408301526135258187612ab3565b90506135346060830186612b07565b6135416080830185612b07565b61354e60a0830184612af8565b979650505050505050565b600082825260208201905092915050565b600061357582613253565b61357f8185613559565b935061358a8361326f565b8060005b838110156135bb5781516135a2888261328e565b97506135ad836132a6565b92505060018101905061358e565b5085935050505092915050565b600060208201905081810360008301526135e2818461356a565b905092915050565b600080600080608085870312156136045761360361293a565b5b600085013567ffffffffffffffff8111156136225761362161293f565b5b61362e87828801612ce1565b945050602085013567ffffffffffffffff81111561364f5761364e61293f565b5b61365b87828801612ce1565b935050604085013567ffffffffffffffff81111561367c5761367b61293f565b5b61368887828801612ce1565b925050606061369987828801612965565b91505092959194509250565b6000806000606084860312156136be576136bd61293a565b5b60006136cc86828701612a1a565b93505060206136dd86828701612a1a565b92505060406136ee86828701612965565b9150509250925092565b7f466972737420646f20726567697374726174696f6e0000000000000000000000600082015250565b600061372e601583612a67565b9150613739826136f8565b602082019050919050565b6000602082019050818103600083015261375d81613721565b9050919050565b7f416c726561647920796f757220656d61696c2069732076657269666965640000600082015250565b600061379a601e83612a67565b91506137a582613764565b602082019050919050565b600060208201905081810360008301526137c98161378d565b9050919050565b7f4e487b7100000000000000000000000000000000000000000000000000000000600052602260045260246000fd5b6000600282049050600182168061381757607f821691505b60208210810361382a576138296137d0565b5b50919050565b60008190508160005260206000209050919050565b60006020601f8301049050919050565b600082821b905092915050565b6000600883026138927fffffffffffffffffffffffffffffffffffffffffffffffffffffffffffffffff82613855565b61389c8683613855565b95508019841693508086168417925050509392505050565b6000819050919050565b60006138d96138d46138cf84612944565b6138b4565b612944565b9050919050565b6000819050919050565b6138f3836138be565b6139076138ff826138e0565b848454613862565b825550505050565b600090565b61391c61390f565b6139278184846138ea565b505050565b5b8181101561394b57613940600082613914565b60018101905061392d565b5050565b601f8211156139905761396181613830565b61396a84613845565b81016020851015613979578190505b61398d61398585613845565b83018261392c565b50505b505050565b600082821c905092915050565b60006139b360001984600802613995565b1980831691505092915050565b60006139cc83836139a2565b9150826002028217905092915050565b6139e582612a5c565b67ffffffffffffffff8111156139fe576139fd612be4565b5b613a0882546137ff565b613a1382828561394f565b600060209050601f831160018114613a465760008415613a34578287015190505b613a3e85826139c0565b865550613aa6565b601f198416613a5486613830565b60005b82811015613a7c57848901518255600182019150602085019450602081019050613a57565b86831015613a995784890151613a95601f8916826139a2565b8355505b6001600288020188555050505b505050505050565b7f4e487b7100000000000000000000000000000000000000000000000000000000600052603260045260246000fd5b7f4e487b7100000000000000000000000000000000000000000000000000000000600052601160045260246000fd5b6000613b1782612944565b91507fffffffffffffffffffffffffffffffffffffffffffffffffffffffffffffffff8203613b4957613b48613add565b5b600182019050919050565b7f466972737420726567697374657220616e642076657269667920796f7572206560008201527f6d61696c00000000000000000000000000000000000000000000000000000000602082015250565b6000613bb0602483612a67565b9150613bbb82613b54565b604082019050919050565b60006020820190508181036000830152613bdf81613ba3565b9050919050565b7f416c726561647920726567697374657265640000000000000000000000000000600082015250565b6000613c1c601283612a67565b9150613c2782613be6565b602082019050919050565b60006020820190508181036000830152613c4b81613c0f565b9050919050565b7f4f776e61626c653a206e6577206f776e657220697320746865207a65726f206160008201527f6464726573730000000000000000000000000000000000000000000000000000602082015250565b6000613cae602683612a67565b9150613cb982613c52565b604082019050919050565b60006020820190508181036000830152613cdd81613ca1565b9050919050565b7f4f776e61626c653a2063616c6c6572206973206e6f7420746865206f776e6572600082015250565b6000613d1a602083612a67565b9150613d2582613ce4565b602082019050919050565b60006020820190508181036000830152613d4981613d0d565b905091905056fea264697066735822122003151de65799fbf4e76bde609742197d021b6fd2720221c56a4df0f5188125d464736f6c63430008110033",
  "linkReferences": {},
  "deployedLinkReferences": {}
}