{
  "_format": "hh-sol-artifact-1",
  "contractName": "Inheritokens",
  "sourceName": "contracts/Inheritokens.sol",
  "abi": [
    {
      "inputs": [],
      "stateMutability": "nonpayable",
      "type": "constructor"
    },
    {
      "anonymous": false,
      "inputs": [
        {
          "indexed": true,
          "internalType": "address",
          "name": "previousOwner",
          "type": "address"
        },
        {
          "indexed": true,
          "internalType": "address",
          "name": "newOwner",
          "type": "address"
        }
      ],
      "name": "OwnershipTransferred",
      "type": "event"
    },
    {
      "inputs": [
        {
          "internalType": "string",
          "name": "_name",
          "type": "string"
        },
        {
          "internalType": "string",
          "name": "_email",
          "type": "string"
        },
        {
          "internalType": "address",
          "name": "_nominee",
          "type": "address"
        }
      ],
      "name": "addNomineesDetails",
      "outputs": [],
      "stateMutability": "nonpayable",
      "type": "function"
    },
    {
      "inputs": [
        {
          "internalType": "string",
          "name": "_name",
          "type": "string"
        },
        {
          "internalType": "string",
          "name": "_email",
          "type": "string"
        },
        {
          "internalType": "string",
          "name": "_cid",
          "type": "string"
        }
      ],
      "name": "addOwnerDetails",
      "outputs": [],
      "stateMutability": "nonpayable",
      "type": "function"
    },
    {
      "inputs": [
        {
          "internalType": "address",
          "name": "_owner",
          "type": "address"
        },
        {
          "internalType": "address",
          "name": "_recoveryAddress",
          "type": "address"
        }
      ],
      "name": "addWalletRecovery",
      "outputs": [],
      "stateMutability": "nonpayable",
      "type": "function"
    },
    {
      "inputs": [
        {
          "internalType": "address",
          "name": "",
          "type": "address"
        }
      ],
      "name": "addressToNominee",
      "outputs": [
        {
          "internalType": "string",
          "name": "nominee_name",
          "type": "string"
        },
        {
          "internalType": "string",
          "name": "nominee_email",
          "type": "string"
        },
        {
          "internalType": "address",
          "name": "nominee_address",
          "type": "address"
        },
        {
          "internalType": "bool",
          "name": "hasClaimed",
          "type": "bool"
        }
      ],
      "stateMutability": "view",
      "type": "function"
    },
    {
      "inputs": [
        {
          "internalType": "address",
          "name": "",
          "type": "address"
        }
      ],
      "name": "addressToOwner",
      "outputs": [
        {
          "internalType": "string",
          "name": "owner_name",
          "type": "string"
        },
        {
          "internalType": "string",
          "name": "owner_email",
          "type": "string"
        },
        {
          "internalType": "string",
          "name": "image_cid",
          "type": "string"
        },
        {
          "internalType": "bool",
          "name": "isEmailVerified",
          "type": "bool"
        },
        {
          "internalType": "bool",
          "name": "isAlive",
          "type": "bool"
        },
        {
          "internalType": "address",
          "name": "recoveryAddress",
          "type": "address"
        }
      ],
      "stateMutability": "view",
      "type": "function"
    },
    {
      "inputs": [
        {
          "internalType": "address",
          "name": "_owner",
          "type": "address"
        }
      ],
      "name": "checkVerification",
      "outputs": [
        {
          "internalType": "bool",
          "name": "",
          "type": "bool"
        }
      ],
      "stateMutability": "view",
      "type": "function"
    },
    {
      "inputs": [
        {
          "internalType": "address",
          "name": "_nominee",
          "type": "address"
        }
      ],
      "name": "claim",
      "outputs": [],
      "stateMutability": "nonpayable",
      "type": "function"
    },
    {
      "inputs": [
        {
          "internalType": "address",
          "name": "_owner",
          "type": "address"
        },
        {
          "internalType": "address",
          "name": "_oldNomineeAddress",
          "type": "address"
        },
        {
          "internalType": "string",
          "name": "_name",
          "type": "string"
        },
        {
          "internalType": "string",
          "name": "_email",
          "type": "string"
        },
        {
          "internalType": "address",
          "name": "_newNomineeAddress",
          "type": "address"
        }
      ],
      "name": "editNomineeDetails",
      "outputs": [],
      "stateMutability": "nonpayable",
      "type": "function"
    },
    {
      "inputs": [
        {
          "internalType": "address",
          "name": "_owner",
          "type": "address"
        }
      ],
      "name": "getAllNominees",
      "outputs": [
        {
          "internalType": "address[]",
          "name": "",
          "type": "address[]"
        }
      ],
      "stateMutability": "view",
      "type": "function"
    },
    {
      "inputs": [
        {
          "internalType": "address",
          "name": "_owner",
          "type": "address"
        },
        {
          "internalType": "address",
          "name": "_tokenAddress",
          "type": "address"
        }
      ],
      "name": "getAllNomineesAssignedForToken",
      "outputs": [
        {
          "internalType": "address[]",
          "name": "",
          "type": "address[]"
        }
      ],
      "stateMutability": "view",
      "type": "function"
    },
    {
      "inputs": [
        {
          "internalType": "address",
          "name": "_owner",
          "type": "address"
        },
        {
          "internalType": "address",
          "name": "_nominee",
          "type": "address"
        }
      ],
      "name": "getAllTokensNomineeIsNominated",
      "outputs": [
        {
          "internalType": "address[]",
          "name": "",
          "type": "address[]"
        }
      ],
      "stateMutability": "view",
      "type": "function"
    },
    {
      "inputs": [
        {
          "internalType": "address",
          "name": "_owner",
          "type": "address"
        }
      ],
      "name": "getAllWhiteListedCharities",
      "outputs": [
        {
          "internalType": "uint256[]",
          "name": "",
          "type": "uint256[]"
        }
      ],
      "stateMutability": "view",
      "type": "function"
    },
    {
      "inputs": [
        {
          "internalType": "address",
          "name": "_tokenAddress",
          "type": "address"
        }
      ],
      "name": "getIsNominated",
      "outputs": [
        {
          "internalType": "bool",
          "name": "",
          "type": "bool"
        }
      ],
      "stateMutability": "view",
      "type": "function"
    },
    {
      "inputs": [
        {
          "internalType": "address",
          "name": "_nominee",
          "type": "address"
        }
      ],
      "name": "getNomineeDetails",
      "outputs": [
        {
          "components": [
            {
              "internalType": "string",
              "name": "nominee_name",
              "type": "string"
            },
            {
              "internalType": "string",
              "name": "nominee_email",
              "type": "string"
            },
            {
              "internalType": "address",
              "name": "nominee_address",
              "type": "address"
            },
            {
              "internalType": "bool",
              "name": "hasClaimed",
              "type": "bool"
            }
          ],
          "internalType": "struct Inheritokens.Nominee",
          "name": "",
          "type": "tuple"
        }
      ],
      "stateMutability": "view",
      "type": "function"
    },
    {
      "inputs": [
        {
          "internalType": "address",
          "name": "_owner",
          "type": "address"
        },
        {
          "internalType": "address",
          "name": "_nominee",
          "type": "address"
        },
        {
          "internalType": "address",
          "name": "_tokenAddress",
          "type": "address"
        }
      ],
      "name": "getNomineeToTokenRight",
      "outputs": [
        {
          "internalType": "bool",
          "name": "",
          "type": "bool"
        }
      ],
      "stateMutability": "view",
      "type": "function"
    },
    {
      "inputs": [
        {
          "internalType": "address",
          "name": "_owner",
          "type": "address"
        }
      ],
      "name": "getOwnerAlive",
      "outputs": [
        {
          "internalType": "bool",
          "name": "",
          "type": "bool"
        }
      ],
      "stateMutability": "view",
      "type": "function"
    },
    {
      "inputs": [
        {
          "internalType": "address",
          "name": "_owner",
          "type": "address"
        }
      ],
      "name": "getOwnerDetails",
      "outputs": [
        {
          "components": [
            {
              "internalType": "string",
              "name": "owner_name",
              "type": "string"
            },
            {
              "internalType": "string",
              "name": "owner_email",
              "type": "string"
            },
            {
              "internalType": "string",
              "name": "image_cid",
              "type": "string"
            },
            {
              "internalType": "bool",
              "name": "isEmailVerified",
              "type": "bool"
            },
            {
              "internalType": "bool",
              "name": "isAlive",
              "type": "bool"
            },
            {
              "internalType": "address",
              "name": "recoveryAddress",
              "type": "address"
            },
            {
              "internalType": "address[]",
              "name": "nominees",
              "type": "address[]"
            },
            {
              "internalType": "uint256[]",
              "name": "charities",
              "type": "uint256[]"
            }
          ],
          "internalType": "struct Inheritokens.Owner",
          "name": "",
          "type": "tuple"
        }
      ],
      "stateMutability": "view",
      "type": "function"
    },
    {
      "inputs": [],
      "name": "getOwners",
      "outputs": [
        {
          "internalType": "address[]",
          "name": "",
          "type": "address[]"
        }
      ],
      "stateMutability": "view",
      "type": "function"
    },
    {
      "inputs": [
        {
          "internalType": "address",
          "name": "_owner",
          "type": "address"
        }
      ],
      "name": "getRecoveryAddress",
      "outputs": [
        {
          "internalType": "address",
          "name": "",
          "type": "address"
        }
      ],
      "stateMutability": "view",
      "type": "function"
    },
    {
      "inputs": [
        {
          "internalType": "address",
          "name": "_owner",
          "type": "address"
        }
      ],
      "name": "getResponse",
      "outputs": [
        {
          "internalType": "bool",
          "name": "",
          "type": "bool"
        }
      ],
      "stateMutability": "view",
      "type": "function"
    },
    {
      "inputs": [
        {
          "internalType": "address",
          "name": "_owner",
          "type": "address"
        }
      ],
      "name": "getResponseDate",
      "outputs": [
        {
          "internalType": "string",
          "name": "",
          "type": "string"
        }
      ],
      "stateMutability": "view",
      "type": "function"
    },
    {
      "inputs": [],
      "name": "getTotalOwners",
      "outputs": [
        {
          "internalType": "uint256",
          "name": "",
          "type": "uint256"
        }
      ],
      "stateMutability": "view",
      "type": "function"
    },
    {
      "inputs": [
        {
          "internalType": "address",
          "name": "",
          "type": "address"
        }
      ],
      "name": "isOwnerAdded",
      "outputs": [
        {
          "internalType": "bool",
          "name": "",
          "type": "bool"
        }
      ],
      "stateMutability": "view",
      "type": "function"
    },
    {
      "inputs": [],
      "name": "owner",
      "outputs": [
        {
          "internalType": "address",
          "name": "",
          "type": "address"
        }
      ],
      "stateMutability": "view",
      "type": "function"
    },
    {
      "inputs": [
        {
          "internalType": "address",
          "name": "",
          "type": "address"
        },
        {
          "internalType": "address",
          "name": "",
          "type": "address"
        },
        {
          "internalType": "address",
          "name": "",
          "type": "address"
        }
      ],
      "name": "ownerToNomineeAddressToTokenAddressToRight",
      "outputs": [
        {
          "internalType": "bool",
          "name": "",
          "type": "bool"
        }
      ],
      "stateMutability": "view",
      "type": "function"
    },
    {
      "inputs": [
        {
          "internalType": "address",
          "name": "",
          "type": "address"
        },
        {
          "internalType": "address",
          "name": "",
          "type": "address"
        },
        {
          "internalType": "uint256",
          "name": "",
          "type": "uint256"
        }
      ],
      "name": "ownerToNomineeToTokenAddressArray",
      "outputs": [
        {
          "internalType": "address",
          "name": "",
          "type": "address"
        }
      ],
      "stateMutability": "view",
      "type": "function"
    },
    {
      "inputs": [
        {
          "internalType": "address",
          "name": "",
          "type": "address"
        }
      ],
      "name": "ownerToResponse",
      "outputs": [
        {
          "internalType": "string",
          "name": "date",
          "type": "string"
        },
        {
          "internalType": "bool",
          "name": "isResponsed",
          "type": "bool"
        }
      ],
      "stateMutability": "view",
      "type": "function"
    },
    {
      "inputs": [
        {
          "internalType": "address",
          "name": "",
          "type": "address"
        },
        {
          "internalType": "address",
          "name": "",
          "type": "address"
        },
        {
          "internalType": "uint256",
          "name": "",
          "type": "uint256"
        }
      ],
      "name": "ownerToTokenAddressToNomineeArray",
      "outputs": [
        {
          "internalType": "address",
          "name": "",
          "type": "address"
        }
      ],
      "stateMutability": "view",
      "type": "function"
    },
    {
      "inputs": [
        {
          "internalType": "uint256",
          "name": "",
          "type": "uint256"
        }
      ],
      "name": "owners",
      "outputs": [
        {
          "internalType": "address",
          "name": "",
          "type": "address"
        }
      ],
      "stateMutability": "view",
      "type": "function"
    },
    {
      "inputs": [
        {
          "internalType": "address",
          "name": "_owner",
          "type": "address"
        },
        {
          "internalType": "address",
          "name": "_tokenAddress",
          "type": "address"
        },
        {
          "internalType": "address[]",
          "name": "_nominee",
          "type": "address[]"
        },
        {
          "internalType": "uint256",
          "name": "index",
          "type": "uint256"
        }
      ],
      "name": "processAfterAssignedMultiple",
      "outputs": [],
      "stateMutability": "nonpayable",
      "type": "function"
    },
    {
      "inputs": [
        {
          "internalType": "address",
          "name": "_tokenAddress",
          "type": "address"
        },
        {
          "internalType": "uint256",
          "name": "amount",
          "type": "uint256"
        }
      ],
      "name": "processEditForMultiple",
      "outputs": [],
      "stateMutability": "nonpayable",
      "type": "function"
    },
    {
      "inputs": [
        {
          "internalType": "address",
          "name": "_tokenAddress",
          "type": "address"
        },
        {
          "internalType": "string",
          "name": "_tokenName",
          "type": "string"
        },
        {
          "internalType": "uint256",
          "name": "amount",
          "type": "uint256"
        },
        {
          "internalType": "bool",
          "name": "_isMultipleNominee",
          "type": "bool"
        },
        {
          "internalType": "bool",
          "name": "_isPriorityNominee",
          "type": "bool"
        }
      ],
      "name": "pushMultipleNominee",
      "outputs": [],
      "stateMutability": "nonpayable",
      "type": "function"
    },
    {
      "inputs": [
        {
          "internalType": "address",
          "name": "_owner",
          "type": "address"
        },
        {
          "internalType": "address",
          "name": "_nominee",
          "type": "address"
        },
        {
          "internalType": "address",
          "name": "_tokenAddress",
          "type": "address"
        }
      ],
      "name": "removeAssignedPriorityNomineeAddressToToken",
      "outputs": [],
      "stateMutability": "nonpayable",
      "type": "function"
    },
    {
      "inputs": [],
      "name": "renounceOwnership",
      "outputs": [],
      "stateMutability": "nonpayable",
      "type": "function"
    },
    {
      "inputs": [
        {
          "internalType": "address",
          "name": "_owner",
          "type": "address"
        }
      ],
      "name": "setOwnerNotAlive",
      "outputs": [],
      "stateMutability": "nonpayable",
      "type": "function"
    },
    {
      "inputs": [
        {
          "internalType": "address",
          "name": "_owner",
          "type": "address"
        },
        {
          "internalType": "bool",
          "name": "_response",
          "type": "bool"
        }
      ],
      "name": "setResponse",
      "outputs": [],
      "stateMutability": "nonpayable",
      "type": "function"
    },
    {
      "inputs": [
        {
          "internalType": "address",
          "name": "_owner",
          "type": "address"
        },
        {
          "internalType": "string",
          "name": "_date",
          "type": "string"
        }
      ],
      "name": "setResponseDate",
      "outputs": [],
      "stateMutability": "nonpayable",
      "type": "function"
    },
    {
      "inputs": [
        {
          "internalType": "address",
          "name": "_owner",
          "type": "address"
        },
        {
          "internalType": "uint256",
          "name": "_charityId",
          "type": "uint256"
        }
      ],
      "name": "setWhiteListedCharities",
      "outputs": [],
      "stateMutability": "nonpayable",
      "type": "function"
    },
    {
      "inputs": [
        {
          "internalType": "address",
          "name": "",
          "type": "address"
        }
      ],
      "name": "tokenAddressToTokenStruct",
      "outputs": [
        {
          "internalType": "address",
          "name": "token_address",
          "type": "address"
        },
        {
          "internalType": "string",
          "name": "token_name",
          "type": "string"
        },
        {
          "internalType": "uint256",
          "name": "allocated_share",
          "type": "uint256"
        },
        {
          "internalType": "bool",
          "name": "isMultipleNominee",
          "type": "bool"
        },
        {
          "internalType": "bool",
          "name": "isPriorityNominee",
          "type": "bool"
        },
        {
          "internalType": "bool",
          "name": "isNominated",
          "type": "bool"
        }
      ],
      "stateMutability": "view",
      "type": "function"
    },
    {
      "inputs": [
        {
          "internalType": "address",
          "name": "newOwner",
          "type": "address"
        }
      ],
      "name": "transferOwnership",
      "outputs": [],
      "stateMutability": "nonpayable",
      "type": "function"
    },
    {
      "inputs": [
        {
          "internalType": "address",
          "name": "_owner",
          "type": "address"
        }
      ],
      "name": "verifyOwnerEmail",
      "outputs": [],
      "stateMutability": "nonpayable",
      "type": "function"
    }
  ],
  "bytecode": "0x60806040523480156200001157600080fd5b5062000032620000266200003860201b60201c565b6200004060201b60201c565b62000104565b600033905090565b60008060009054906101000a900473ffffffffffffffffffffffffffffffffffffffff169050816000806101000a81548173ffffffffffffffffffffffffffffffffffffffff021916908373ffffffffffffffffffffffffffffffffffffffff1602179055508173ffffffffffffffffffffffffffffffffffffffff168173ffffffffffffffffffffffffffffffffffffffff167f8be0079c531659141344cd1fd0a4f28419497f9722a3daafe3b4186f6b6457e060405160405180910390a35050565b6144c280620001146000396000f3fe608060405234801561001057600080fd5b50600436106102535760003560e01c80638258d02111610146578063baab9797116100c3578063cf751c4411610087578063cf751c4414610793578063d152fd8f146107c4578063db23f9f3146107f4578063e62d4f7c14610812578063f2fde38b14610842578063f80097851461085e57610253565b8063baab9797146106df578063bece99681461070f578063c3bb81211461072b578063c47f9b971461075b578063cb144b391461077757610253565b80639979d30e1161010a5780639979d30e14610638578063a0e67e2b1461066d578063a1d5a9981461068b578063a5394b39146106a7578063a6072445146106c357610253565b80638258d021146105965780638da5cb5b146105b25780638dde3dc4146105d05780638f25dac9146105ec57806392f820481461061c57610253565b80633d06305b116101d45780635a863c11116101985780635a863c11146104c95780636199997f146104fc5780636a5e89381461052c578063715018a61461055c57806376f0ffc61461056657610253565b80633d06305b146103ed578063433a05b01461041d5780634950956e1461044d578063511865e91461047d57806354add3e7146104ad57610253565b806320ff42601161021b57806320ff4260146103115780632358fd071461034157806329ce480e14610371578063348f0a93146103a157806335321c40146103bd57610253565b8063025e7c271461025857806306d1681d146102885780630a507825146102a4578063159305e1146102c05780631e83409a146102f5575b600080fd5b610272600480360381019061026d9190613082565b61088e565b60405161027f91906130f0565b60405180910390f35b6102a2600480360381019061029d9190613137565b6108cd565b005b6102be60048036038101906102b991906132bd565b610a4e565b005b6102da60048036038101906102d59190613137565b610d2e565b6040516102ec969594939291906133da565b60405180910390f35b61030f600480360381019061030a9190613137565b610f3c565b005b61032b60048036038101906103269190613450565b610f9a565b60405161033891906130f0565b60405180910390f35b61035b600480360381019061035691906134a3565b610ff5565b60405161036891906134f6565b60405180910390f35b61038b60048036038101906103869190613511565b6110c7565b604051610398919061360f565b60405180910390f35b6103bb60048036038101906103b69190613631565b6111d2565b005b6103d760048036038101906103d29190613137565b61123f565b6040516103e491906134f6565b60405180910390f35b61040760048036038101906104029190613511565b611298565b604051610414919061360f565b60405180910390f35b61043760048036038101906104329190613137565b6113a3565b60405161044491906134f6565b60405180910390f35b61046760048036038101906104629190613137565b6113fc565b6040516104749190613734565b60405180910390f35b61049760048036038101906104929190613137565b6115ea565b6040516104a491906130f0565b60405180910390f35b6104c760048036038101906104c2919061380b565b611656565b005b6104e360048036038101906104de9190613137565b6116b2565b6040516104f39493929190613867565b60405180910390f35b61051660048036038101906105119190613137565b61181f565b60405161052391906134f6565b60405180910390f35b61054660048036038101906105419190613137565b611878565b60405161055391906138ba565b60405180910390f35b61056461194c565b005b610580600480360381019061057b9190613137565b611960565b60405161058d91906134f6565b60405180910390f35b6105b060048036038101906105ab91906138dc565b611980565b005b6105ba611c38565b6040516105c791906130f0565b60405180910390f35b6105ea60048036038101906105e591906134a3565b611c61565b005b610606600480360381019061060191906134a3565b611d38565b60405161061391906134f6565b60405180910390f35b61063660048036038101906106319190613983565b611d74565b005b610652600480360381019061064d9190613137565b612128565b60405161066496959493929190613a45565b60405180910390f35b610675612233565b604051610682919061360f565b60405180910390f35b6106a560048036038101906106a09190613ad9565b6122c1565b005b6106c160048036038101906106bc9190613137565b61241b565b005b6106dd60048036038101906106d89190613b70565b612481565b005b6106f960048036038101906106f49190613137565b6124df565b60405161070691906134f6565b60405180910390f35b61072960048036038101906107249190613511565b612538565b005b61074560048036038101906107409190613137565b6125bd565b6040516107529190613da9565b60405180910390f35b61077560048036038101906107709190613631565b61293f565b005b610791600480360381019061078c9190613dcb565b61298a565b005b6107ad60048036038101906107a89190613137565b612b41565b6040516107bb929190613e56565b60405180910390f35b6107de60048036038101906107d99190613450565b612bfa565b6040516107eb91906130f0565b60405180910390f35b6107fc612c55565b6040516108099190613e86565b60405180910390f35b61082c60048036038101906108279190613137565b612c62565b6040516108399190613f10565b60405180910390f35b61085c60048036038101906108579190613137565b612cfc565b005b61087860048036038101906108739190613137565b612d7f565b604051610885919061360f565b60405180910390f35b6001818154811061089e57600080fd5b906000526020600020016000915054906101000a900473ffffffffffffffffffffffffffffffffffffffff1681565b6108d5612e4f565b600260008273ffffffffffffffffffffffffffffffffffffffff1673ffffffffffffffffffffffffffffffffffffffff16815260200190815260200160002060009054906101000a900460ff16610961576040517f08c379a000000000000000000000000000000000000000000000000000000000815260040161095890613f7e565b60405180910390fd5b600360008273ffffffffffffffffffffffffffffffffffffffff1673ffffffffffffffffffffffffffffffffffffffff16815260200190815260200160002060030160009054906101000a900460ff166109f0576040517f08c379a00000000000000000000000000000000000000000000000000000000081526004016109e790613fea565b60405180910390fd5b6001600360008373ffffffffffffffffffffffffffffffffffffffff1673ffffffffffffffffffffffffffffffffffffffff16815260200190815260200160002060030160006101000a81548160ff02191690831515021790555050565b600660008573ffffffffffffffffffffffffffffffffffffffff1673ffffffffffffffffffffffffffffffffffffffff16815260200190815260200160002060008473ffffffffffffffffffffffffffffffffffffffff1673ffffffffffffffffffffffffffffffffffffffff168152602001908152602001600020828281518110610add57610adc61400a565b5b60200260200101519080600181540180825580915050600190039060005260206000200160009091909190916101000a81548173ffffffffffffffffffffffffffffffffffffffff021916908373ffffffffffffffffffffffffffffffffffffffff160217905550600760008573ffffffffffffffffffffffffffffffffffffffff1673ffffffffffffffffffffffffffffffffffffffff1681526020019081526020016000206000838381518110610b9957610b9861400a565b5b602002602001015173ffffffffffffffffffffffffffffffffffffffff1673ffffffffffffffffffffffffffffffffffffffff168152602001908152602001600020839080600181540180825580915050600190039060005260206000200160009091909190916101000a81548173ffffffffffffffffffffffffffffffffffffffff021916908373ffffffffffffffffffffffffffffffffffffffff1602179055506001600860008673ffffffffffffffffffffffffffffffffffffffff1673ffffffffffffffffffffffffffffffffffffffff1681526020019081526020016000206000848481518110610c9257610c9161400a565b5b602002602001015173ffffffffffffffffffffffffffffffffffffffff1673ffffffffffffffffffffffffffffffffffffffff16815260200190815260200160002060008573ffffffffffffffffffffffffffffffffffffffff1673ffffffffffffffffffffffffffffffffffffffff16815260200190815260200160002060006101000a81548160ff02191690831515021790555050505050565b6003602052806000526040600020600091509050806000018054610d5190614068565b80601f0160208091040260200160405190810160405280929190818152602001828054610d7d90614068565b8015610dca5780601f10610d9f57610100808354040283529160200191610dca565b820191906000526020600020905b815481529060010190602001808311610dad57829003601f168201915b505050505090806001018054610ddf90614068565b80601f0160208091040260200160405190810160405280929190818152602001828054610e0b90614068565b8015610e585780601f10610e2d57610100808354040283529160200191610e58565b820191906000526020600020905b815481529060010190602001808311610e3b57829003601f168201915b505050505090806002018054610e6d90614068565b80601f0160208091040260200160405190810160405280929190818152602001828054610e9990614068565b8015610ee65780601f10610ebb57610100808354040283529160200191610ee6565b820191906000526020600020905b815481529060010190602001808311610ec957829003601f168201915b5050505050908060030160009054906101000a900460ff16908060030160019054906101000a900460ff16908060030160029054906101000a900473ffffffffffffffffffffffffffffffffffffffff16905086565b6001600460008373ffffffffffffffffffffffffffffffffffffffff1673ffffffffffffffffffffffffffffffffffffffff16815260200190815260200160002060020160146101000a81548160ff02191690831515021790555050565b60066020528260005260406000206020528160005260406000208181548110610fc257600080fd5b90600052602060002001600092509250509054906101000a900473ffffffffffffffffffffffffffffffffffffffff1681565b6000600860008573ffffffffffffffffffffffffffffffffffffffff1673ffffffffffffffffffffffffffffffffffffffff16815260200190815260200160002060008473ffffffffffffffffffffffffffffffffffffffff1673ffffffffffffffffffffffffffffffffffffffff16815260200190815260200160002060008373ffffffffffffffffffffffffffffffffffffffff1673ffffffffffffffffffffffffffffffffffffffff16815260200190815260200160002060009054906101000a900460ff1690509392505050565b6060600660008473ffffffffffffffffffffffffffffffffffffffff1673ffffffffffffffffffffffffffffffffffffffff16815260200190815260200160002060008373ffffffffffffffffffffffffffffffffffffffff1673ffffffffffffffffffffffffffffffffffffffff1681526020019081526020016000208054806020026020016040519081016040528092919081815260200182805480156111c557602002820191906000526020600020905b8160009054906101000a900473ffffffffffffffffffffffffffffffffffffffff1673ffffffffffffffffffffffffffffffffffffffff168152602001906001019080831161117b575b5050505050905092915050565b600360008373ffffffffffffffffffffffffffffffffffffffff1673ffffffffffffffffffffffffffffffffffffffff1681526020019081526020016000206005018190806001815401808255809150506001900390600052602060002001600090919091909150555050565b6000600560008373ffffffffffffffffffffffffffffffffffffffff1673ffffffffffffffffffffffffffffffffffffffff16815260200190815260200160002060030160029054906101000a900460ff169050919050565b6060600760008473ffffffffffffffffffffffffffffffffffffffff1673ffffffffffffffffffffffffffffffffffffffff16815260200190815260200160002060008373ffffffffffffffffffffffffffffffffffffffff1673ffffffffffffffffffffffffffffffffffffffff16815260200190815260200160002080548060200260200160405190810160405280929190818152602001828054801561139657602002820191906000526020600020905b8160009054906101000a900473ffffffffffffffffffffffffffffffffffffffff1673ffffffffffffffffffffffffffffffffffffffff168152602001906001019080831161134c575b5050505050905092915050565b6000600960008373ffffffffffffffffffffffffffffffffffffffff1673ffffffffffffffffffffffffffffffffffffffff16815260200190815260200160002060010160009054906101000a900460ff169050919050565b611404612f99565b600460008373ffffffffffffffffffffffffffffffffffffffff1673ffffffffffffffffffffffffffffffffffffffff16815260200190815260200160002060405180608001604052908160008201805461145e90614068565b80601f016020809104026020016040519081016040528092919081815260200182805461148a90614068565b80156114d75780601f106114ac576101008083540402835291602001916114d7565b820191906000526020600020905b8154815290600101906020018083116114ba57829003601f168201915b505050505081526020016001820180546114f090614068565b80601f016020809104026020016040519081016040528092919081815260200182805461151c90614068565b80156115695780601f1061153e57610100808354040283529160200191611569565b820191906000526020600020905b81548152906001019060200180831161154c57829003601f168201915b505050505081526020016002820160009054906101000a900473ffffffffffffffffffffffffffffffffffffffff1673ffffffffffffffffffffffffffffffffffffffff1673ffffffffffffffffffffffffffffffffffffffff1681526020016002820160149054906101000a900460ff1615151515815250509050919050565b6000600360008373ffffffffffffffffffffffffffffffffffffffff1673ffffffffffffffffffffffffffffffffffffffff16815260200190815260200160002060030160029054906101000a900473ffffffffffffffffffffffffffffffffffffffff169050919050565b61165e612e4f565b80600960008473ffffffffffffffffffffffffffffffffffffffff1673ffffffffffffffffffffffffffffffffffffffff16815260200190815260200160002060000190816116ad9190614245565b505050565b60046020528060005260406000206000915090508060000180546116d590614068565b80601f016020809104026020016040519081016040528092919081815260200182805461170190614068565b801561174e5780601f106117235761010080835404028352916020019161174e565b820191906000526020600020905b81548152906001019060200180831161173157829003601f168201915b50505050509080600101805461176390614068565b80601f016020809104026020016040519081016040528092919081815260200182805461178f90614068565b80156117dc5780601f106117b1576101008083540402835291602001916117dc565b820191906000526020600020905b8154815290600101906020018083116117bf57829003601f168201915b5050505050908060020160009054906101000a900473ffffffffffffffffffffffffffffffffffffffff16908060020160149054906101000a900460ff16905084565b6000600360008373ffffffffffffffffffffffffffffffffffffffff1673ffffffffffffffffffffffffffffffffffffffff16815260200190815260200160002060030160019054906101000a900460ff169050919050565b6060600960008373ffffffffffffffffffffffffffffffffffffffff1673ffffffffffffffffffffffffffffffffffffffff16815260200190815260200160002060000180546118c790614068565b80601f01602080910402602001604051908101604052809291908181526020018280546118f390614068565b80156119405780601f1061191557610100808354040283529160200191611940565b820191906000526020600020905b81548152906001019060200180831161192357829003601f168201915b50505050509050919050565b611954612e4f565b61195e6000612ecd565b565b60026020528060005260406000206000915054906101000a900460ff1681565b600260003373ffffffffffffffffffffffffffffffffffffffff1673ffffffffffffffffffffffffffffffffffffffff16815260200190815260200160002060009054906101000a900460ff16611c33576001339080600181540180825580915050600190039060005260206000200160009091909190916101000a81548173ffffffffffffffffffffffffffffffffffffffff021916908373ffffffffffffffffffffffffffffffffffffffff16021790555082600360003373ffffffffffffffffffffffffffffffffffffffff1673ffffffffffffffffffffffffffffffffffffffff1681526020019081526020016000206000019081611a839190614245565b5081600360003373ffffffffffffffffffffffffffffffffffffffff1673ffffffffffffffffffffffffffffffffffffffff1681526020019081526020016000206001019081611ad39190614245565b5080600360003373ffffffffffffffffffffffffffffffffffffffff1673ffffffffffffffffffffffffffffffffffffffff1681526020019081526020016000206002019081611b239190614245565b506000600360003373ffffffffffffffffffffffffffffffffffffffff1673ffffffffffffffffffffffffffffffffffffffff16815260200190815260200160002060030160006101000a81548160ff0219169083151502179055506001600360003373ffffffffffffffffffffffffffffffffffffffff1673ffffffffffffffffffffffffffffffffffffffff16815260200190815260200160002060030160016101000a81548160ff0219169083151502179055506001600260003373ffffffffffffffffffffffffffffffffffffffff1673ffffffffffffffffffffffffffffffffffffffff16815260200190815260200160002060006101000a81548160ff0219169083151502179055505b505050565b60008060009054906101000a900473ffffffffffffffffffffffffffffffffffffffff16905090565b6000600860008573ffffffffffffffffffffffffffffffffffffffff1673ffffffffffffffffffffffffffffffffffffffff16815260200190815260200160002060008473ffffffffffffffffffffffffffffffffffffffff1673ffffffffffffffffffffffffffffffffffffffff16815260200190815260200160002060008373ffffffffffffffffffffffffffffffffffffffff1673ffffffffffffffffffffffffffffffffffffffff16815260200190815260200160002060006101000a81548160ff021916908315150217905550505050565b6008602052826000526040600020602052816000526040600020602052806000526040600020600092509250509054906101000a900460ff1681565b8073ffffffffffffffffffffffffffffffffffffffff168473ffffffffffffffffffffffffffffffffffffffff1603611e4c5782600460008673ffffffffffffffffffffffffffffffffffffffff1673ffffffffffffffffffffffffffffffffffffffff1681526020019081526020016000206000019081611df69190614245565b5081600460008673ffffffffffffffffffffffffffffffffffffffff1673ffffffffffffffffffffffffffffffffffffffff1681526020019081526020016000206001019081611e469190614245565b50612121565b82600460008373ffffffffffffffffffffffffffffffffffffffff1673ffffffffffffffffffffffffffffffffffffffff1681526020019081526020016000206000019081611e9b9190614245565b5081600460008373ffffffffffffffffffffffffffffffffffffffff1673ffffffffffffffffffffffffffffffffffffffff1681526020019081526020016000206001019081611eeb9190614245565b5080600460008373ffffffffffffffffffffffffffffffffffffffff1673ffffffffffffffffffffffffffffffffffffffff16815260200190815260200160002060020160006101000a81548173ffffffffffffffffffffffffffffffffffffffff021916908373ffffffffffffffffffffffffffffffffffffffff16021790555060005b600360008773ffffffffffffffffffffffffffffffffffffffff1673ffffffffffffffffffffffffffffffffffffffff1681526020019081526020016000206004018054905081101561211f578473ffffffffffffffffffffffffffffffffffffffff16600360008873ffffffffffffffffffffffffffffffffffffffff1673ffffffffffffffffffffffffffffffffffffffff16815260200190815260200160002060040182815481106120285761202761400a565b5b9060005260206000200160009054906101000a900473ffffffffffffffffffffffffffffffffffffffff1673ffffffffffffffffffffffffffffffffffffffff160361210c5781600360008873ffffffffffffffffffffffffffffffffffffffff1673ffffffffffffffffffffffffffffffffffffffff16815260200190815260200160002060040182815481106120c3576120c261400a565b5b9060005260206000200160006101000a81548173ffffffffffffffffffffffffffffffffffffffff021916908373ffffffffffffffffffffffffffffffffffffffff1602179055505b808061211790614346565b915050611f70565b505b5050505050565b60056020528060005260406000206000915090508060000160009054906101000a900473ffffffffffffffffffffffffffffffffffffffff169080600101805461217190614068565b80601f016020809104026020016040519081016040528092919081815260200182805461219d90614068565b80156121ea5780601f106121bf576101008083540402835291602001916121ea565b820191906000526020600020905b8154815290600101906020018083116121cd57829003601f168201915b5050505050908060020154908060030160009054906101000a900460ff16908060030160019054906101000a900460ff16908060030160029054906101000a900460ff16905086565b606060018054806020026020016040519081016040528092919081815260200182805480156122b757602002820191906000526020600020905b8160009054906101000a900473ffffffffffffffffffffffffffffffffffffffff1673ffffffffffffffffffffffffffffffffffffffff168152602001906001019080831161226d575b5050505050905090565b6040518060c001604052808673ffffffffffffffffffffffffffffffffffffffff1681526020018581526020018481526020018315158152602001821515815260200160011515815250600560008773ffffffffffffffffffffffffffffffffffffffff1673ffffffffffffffffffffffffffffffffffffffff16815260200190815260200160002060008201518160000160006101000a81548173ffffffffffffffffffffffffffffffffffffffff021916908373ffffffffffffffffffffffffffffffffffffffff16021790555060208201518160010190816123a69190614245565b506040820151816002015560608201518160030160006101000a81548160ff02191690831515021790555060808201518160030160016101000a81548160ff02191690831515021790555060a08201518160030160026101000a81548160ff0219169083151502179055509050505050505050565b612423612e4f565b6000600360008373ffffffffffffffffffffffffffffffffffffffff1673ffffffffffffffffffffffffffffffffffffffff16815260200190815260200160002060030160016101000a81548160ff02191690831515021790555050565b80600960008473ffffffffffffffffffffffffffffffffffffffff1673ffffffffffffffffffffffffffffffffffffffff16815260200190815260200160002060010160006101000a81548160ff0219169083151502179055505050565b6000600360008373ffffffffffffffffffffffffffffffffffffffff1673ffffffffffffffffffffffffffffffffffffffff16815260200190815260200160002060030160009054906101000a900460ff169050919050565b80600360008473ffffffffffffffffffffffffffffffffffffffff1673ffffffffffffffffffffffffffffffffffffffff16815260200190815260200160002060030160026101000a81548173ffffffffffffffffffffffffffffffffffffffff021916908373ffffffffffffffffffffffffffffffffffffffff1602179055505050565b6125c5612fd9565b600360008373ffffffffffffffffffffffffffffffffffffffff1673ffffffffffffffffffffffffffffffffffffffff1681526020019081526020016000206040518061010001604052908160008201805461262090614068565b80601f016020809104026020016040519081016040528092919081815260200182805461264c90614068565b80156126995780601f1061266e57610100808354040283529160200191612699565b820191906000526020600020905b81548152906001019060200180831161267c57829003601f168201915b505050505081526020016001820180546126b290614068565b80601f01602080910402602001604051908101604052809291908181526020018280546126de90614068565b801561272b5780601f106127005761010080835404028352916020019161272b565b820191906000526020600020905b81548152906001019060200180831161270e57829003601f168201915b5050505050815260200160028201805461274490614068565b80601f016020809104026020016040519081016040528092919081815260200182805461277090614068565b80156127bd5780601f10612792576101008083540402835291602001916127bd565b820191906000526020600020905b8154815290600101906020018083116127a057829003601f168201915b505050505081526020016003820160009054906101000a900460ff161515151581526020016003820160019054906101000a900460ff161515151581526020016003820160029054906101000a900473ffffffffffffffffffffffffffffffffffffffff1673ffffffffffffffffffffffffffffffffffffffff1673ffffffffffffffffffffffffffffffffffffffff168152602001600482018054806020026020016040519081016040528092919081815260200182805480156128d757602002820191906000526020600020905b8160009054906101000a900473ffffffffffffffffffffffffffffffffffffffff1673ffffffffffffffffffffffffffffffffffffffff168152602001906001019080831161288d575b505050505081526020016005820180548060200260200160405190810160405280929190818152602001828054801561292f57602002820191906000526020600020905b81548152602001906001019080831161291b575b5050505050815250509050919050565b80600560008473ffffffffffffffffffffffffffffffffffffffff1673ffffffffffffffffffffffffffffffffffffffff168152602001908152602001600020600201819055505050565b60405180608001604052808481526020018381526020018273ffffffffffffffffffffffffffffffffffffffff16815260200160001515815250600460008373ffffffffffffffffffffffffffffffffffffffff1673ffffffffffffffffffffffffffffffffffffffff1681526020019081526020016000206000820151816000019081612a189190614245565b506020820151816001019081612a2e9190614245565b5060408201518160020160006101000a81548173ffffffffffffffffffffffffffffffffffffffff021916908373ffffffffffffffffffffffffffffffffffffffff16021790555060608201518160020160146101000a81548160ff021916908315150217905550905050600360003373ffffffffffffffffffffffffffffffffffffffff1673ffffffffffffffffffffffffffffffffffffffff168152602001908152602001600020600401819080600181540180825580915050600190039060005260206000200160009091909190916101000a81548173ffffffffffffffffffffffffffffffffffffffff021916908373ffffffffffffffffffffffffffffffffffffffff160217905550505050565b6009602052806000526040600020600091509050806000018054612b6490614068565b80601f0160208091040260200160405190810160405280929190818152602001828054612b9090614068565b8015612bdd5780601f10612bb257610100808354040283529160200191612bdd565b820191906000526020600020905b815481529060010190602001808311612bc057829003601f168201915b5050505050908060010160009054906101000a900460ff16905082565b60076020528260005260406000206020528160005260406000208181548110612c2257600080fd5b90600052602060002001600092509250509054906101000a900473ffffffffffffffffffffffffffffffffffffffff1681565b6000600180549050905090565b6060600360008373ffffffffffffffffffffffffffffffffffffffff1673ffffffffffffffffffffffffffffffffffffffff168152602001908152602001600020600501805480602002602001604051908101604052809291908181526020018280548015612cf057602002820191906000526020600020905b815481526020019060010190808311612cdc575b50505050509050919050565b612d04612e4f565b600073ffffffffffffffffffffffffffffffffffffffff168173ffffffffffffffffffffffffffffffffffffffff1603612d73576040517f08c379a0000000000000000000000000000000000000000000000000000000008152600401612d6a90614400565b60405180910390fd5b612d7c81612ecd565b50565b6060600360008373ffffffffffffffffffffffffffffffffffffffff1673ffffffffffffffffffffffffffffffffffffffff168152602001908152602001600020600401805480602002602001604051908101604052809291908181526020018280548015612e4357602002820191906000526020600020905b8160009054906101000a900473ffffffffffffffffffffffffffffffffffffffff1673ffffffffffffffffffffffffffffffffffffffff1681526020019060010190808311612df9575b50505050509050919050565b612e57612f91565b73ffffffffffffffffffffffffffffffffffffffff16612e75611c38565b73ffffffffffffffffffffffffffffffffffffffff1614612ecb576040517f08c379a0000000000000000000000000000000000000000000000000000000008152600401612ec29061446c565b60405180910390fd5b565b60008060009054906101000a900473ffffffffffffffffffffffffffffffffffffffff169050816000806101000a81548173ffffffffffffffffffffffffffffffffffffffff021916908373ffffffffffffffffffffffffffffffffffffffff1602179055508173ffffffffffffffffffffffffffffffffffffffff168173ffffffffffffffffffffffffffffffffffffffff167f8be0079c531659141344cd1fd0a4f28419497f9722a3daafe3b4186f6b6457e060405160405180910390a35050565b600033905090565b60405180608001604052806060815260200160608152602001600073ffffffffffffffffffffffffffffffffffffffff1681526020016000151581525090565b604051806101000160405280606081526020016060815260200160608152602001600015158152602001600015158152602001600073ffffffffffffffffffffffffffffffffffffffff16815260200160608152602001606081525090565b6000604051905090565b600080fd5b600080fd5b6000819050919050565b61305f8161304c565b811461306a57600080fd5b50565b60008135905061307c81613056565b92915050565b60006020828403121561309857613097613042565b5b60006130a68482850161306d565b91505092915050565b600073ffffffffffffffffffffffffffffffffffffffff82169050919050565b60006130da826130af565b9050919050565b6130ea816130cf565b82525050565b600060208201905061310560008301846130e1565b92915050565b613114816130cf565b811461311f57600080fd5b50565b6000813590506131318161310b565b92915050565b60006020828403121561314d5761314c613042565b5b600061315b84828501613122565b91505092915050565b600080fd5b6000601f19601f8301169050919050565b7f4e487b7100000000000000000000000000000000000000000000000000000000600052604160045260246000fd5b6131b282613169565b810181811067ffffffffffffffff821117156131d1576131d061317a565b5b80604052505050565b60006131e4613038565b90506131f082826131a9565b919050565b600067ffffffffffffffff8211156132105761320f61317a565b5b602082029050602081019050919050565b600080fd5b6000613239613234846131f5565b6131da565b9050808382526020820190506020840283018581111561325c5761325b613221565b5b835b8181101561328557806132718882613122565b84526020840193505060208101905061325e565b5050509392505050565b600082601f8301126132a4576132a3613164565b5b81356132b4848260208601613226565b91505092915050565b600080600080608085870312156132d7576132d6613042565b5b60006132e587828801613122565b94505060206132f687828801613122565b935050604085013567ffffffffffffffff81111561331757613316613047565b5b6133238782880161328f565b92505060606133348782880161306d565b91505092959194509250565b600081519050919050565b600082825260208201905092915050565b60005b8381101561337a57808201518184015260208101905061335f565b60008484015250505050565b600061339182613340565b61339b818561334b565b93506133ab81856020860161335c565b6133b481613169565b840191505092915050565b60008115159050919050565b6133d4816133bf565b82525050565b600060c08201905081810360008301526133f48189613386565b905081810360208301526134088188613386565b9050818103604083015261341c8187613386565b905061342b60608301866133cb565b61343860808301856133cb565b61344560a08301846130e1565b979650505050505050565b60008060006060848603121561346957613468613042565b5b600061347786828701613122565b935050602061348886828701613122565b92505060406134998682870161306d565b9150509250925092565b6000806000606084860312156134bc576134bb613042565b5b60006134ca86828701613122565b93505060206134db86828701613122565b92505060406134ec86828701613122565b9150509250925092565b600060208201905061350b60008301846133cb565b92915050565b6000806040838503121561352857613527613042565b5b600061353685828601613122565b925050602061354785828601613122565b9150509250929050565b600081519050919050565b600082825260208201905092915050565b6000819050602082019050919050565b613586816130cf565b82525050565b6000613598838361357d565b60208301905092915050565b6000602082019050919050565b60006135bc82613551565b6135c6818561355c565b93506135d18361356d565b8060005b838110156136025781516135e9888261358c565b97506135f4836135a4565b9250506001810190506135d5565b5085935050505092915050565b6000602082019050818103600083015261362981846135b1565b905092915050565b6000806040838503121561364857613647613042565b5b600061365685828601613122565b92505060206136678582860161306d565b9150509250929050565b600082825260208201905092915050565b600061368d82613340565b6136978185613671565b93506136a781856020860161335c565b6136b081613169565b840191505092915050565b6136c4816133bf565b82525050565b600060808301600083015184820360008601526136e78282613682565b915050602083015184820360208601526137018282613682565b9150506040830151613716604086018261357d565b50606083015161372960608601826136bb565b508091505092915050565b6000602082019050818103600083015261374e81846136ca565b905092915050565b600080fd5b600067ffffffffffffffff8211156137765761377561317a565b5b61377f82613169565b9050602081019050919050565b82818337600083830152505050565b60006137ae6137a98461375b565b6131da565b9050828152602081018484840111156137ca576137c9613756565b5b6137d584828561378c565b509392505050565b600082601f8301126137f2576137f1613164565b5b813561380284826020860161379b565b91505092915050565b6000806040838503121561382257613821613042565b5b600061383085828601613122565b925050602083013567ffffffffffffffff81111561385157613850613047565b5b61385d858286016137dd565b9150509250929050565b600060808201905081810360008301526138818187613386565b905081810360208301526138958186613386565b90506138a460408301856130e1565b6138b160608301846133cb565b95945050505050565b600060208201905081810360008301526138d48184613386565b905092915050565b6000806000606084860312156138f5576138f4613042565b5b600084013567ffffffffffffffff81111561391357613912613047565b5b61391f868287016137dd565b935050602084013567ffffffffffffffff8111156139405761393f613047565b5b61394c868287016137dd565b925050604084013567ffffffffffffffff81111561396d5761396c613047565b5b613979868287016137dd565b9150509250925092565b600080600080600060a0868803121561399f5761399e613042565b5b60006139ad88828901613122565b95505060206139be88828901613122565b945050604086013567ffffffffffffffff8111156139df576139de613047565b5b6139eb888289016137dd565b935050606086013567ffffffffffffffff811115613a0c57613a0b613047565b5b613a18888289016137dd565b9250506080613a2988828901613122565b9150509295509295909350565b613a3f8161304c565b82525050565b600060c082019050613a5a60008301896130e1565b8181036020830152613a6c8188613386565b9050613a7b6040830187613a36565b613a8860608301866133cb565b613a9560808301856133cb565b613aa260a08301846133cb565b979650505050505050565b613ab6816133bf565b8114613ac157600080fd5b50565b600081359050613ad381613aad565b92915050565b600080600080600060a08688031215613af557613af4613042565b5b6000613b0388828901613122565b955050602086013567ffffffffffffffff811115613b2457613b23613047565b5b613b30888289016137dd565b9450506040613b418882890161306d565b9350506060613b5288828901613ac4565b9250506080613b6388828901613ac4565b9150509295509295909350565b60008060408385031215613b8757613b86613042565b5b6000613b9585828601613122565b9250506020613ba685828601613ac4565b9150509250929050565b600082825260208201905092915050565b6000613bcc82613551565b613bd68185613bb0565b9350613be18361356d565b8060005b83811015613c12578151613bf9888261358c565b9750613c04836135a4565b925050600181019050613be5565b5085935050505092915050565b600081519050919050565b600082825260208201905092915050565b6000819050602082019050919050565b613c548161304c565b82525050565b6000613c668383613c4b565b60208301905092915050565b6000602082019050919050565b6000613c8a82613c1f565b613c948185613c2a565b9350613c9f83613c3b565b8060005b83811015613cd0578151613cb78882613c5a565b9750613cc283613c72565b925050600181019050613ca3565b5085935050505092915050565b6000610100830160008301518482036000860152613cfb8282613682565b91505060208301518482036020860152613d158282613682565b91505060408301518482036040860152613d2f8282613682565b9150506060830151613d4460608601826136bb565b506080830151613d5760808601826136bb565b5060a0830151613d6a60a086018261357d565b5060c083015184820360c0860152613d828282613bc1565b91505060e083015184820360e0860152613d9c8282613c7f565b9150508091505092915050565b60006020820190508181036000830152613dc38184613cdd565b905092915050565b600080600060608486031215613de457613de3613042565b5b600084013567ffffffffffffffff811115613e0257613e01613047565b5b613e0e868287016137dd565b935050602084013567ffffffffffffffff811115613e2f57613e2e613047565b5b613e3b868287016137dd565b9250506040613e4c86828701613122565b9150509250925092565b60006040820190508181036000830152613e708185613386565b9050613e7f60208301846133cb565b9392505050565b6000602082019050613e9b6000830184613a36565b92915050565b600082825260208201905092915050565b6000613ebd82613c1f565b613ec78185613ea1565b9350613ed283613c3b565b8060005b83811015613f03578151613eea8882613c5a565b9750613ef583613c72565b925050600181019050613ed6565b5085935050505092915050565b60006020820190508181036000830152613f2a8184613eb2565b905092915050565b7f466972737420646f20726567697374726174696f6e0000000000000000000000600082015250565b6000613f6860158361334b565b9150613f7382613f32565b602082019050919050565b60006020820190508181036000830152613f9781613f5b565b9050919050565b7f416c726561647920796f757220656d61696c2069732076657269666965640000600082015250565b6000613fd4601e8361334b565b9150613fdf82613f9e565b602082019050919050565b6000602082019050818103600083015261400381613fc7565b9050919050565b7f4e487b7100000000000000000000000000000000000000000000000000000000600052603260045260246000fd5b7f4e487b7100000000000000000000000000000000000000000000000000000000600052602260045260246000fd5b6000600282049050600182168061408057607f821691505b60208210810361409357614092614039565b5b50919050565b60008190508160005260206000209050919050565b60006020601f8301049050919050565b600082821b905092915050565b6000600883026140fb7fffffffffffffffffffffffffffffffffffffffffffffffffffffffffffffffff826140be565b61410586836140be565b95508019841693508086168417925050509392505050565b6000819050919050565b600061414261413d6141388461304c565b61411d565b61304c565b9050919050565b6000819050919050565b61415c83614127565b61417061416882614149565b8484546140cb565b825550505050565b600090565b614185614178565b614190818484614153565b505050565b5b818110156141b4576141a960008261417d565b600181019050614196565b5050565b601f8211156141f9576141ca81614099565b6141d3846140ae565b810160208510156141e2578190505b6141f66141ee856140ae565b830182614195565b50505b505050565b600082821c905092915050565b600061421c600019846008026141fe565b1980831691505092915050565b6000614235838361420b565b9150826002028217905092915050565b61424e82613340565b67ffffffffffffffff8111156142675761426661317a565b5b6142718254614068565b61427c8282856141b8565b600060209050601f8311600181146142af576000841561429d578287015190505b6142a78582614229565b86555061430f565b601f1984166142bd86614099565b60005b828110156142e5578489015182556001820191506020850194506020810190506142c0565b8683101561430257848901516142fe601f89168261420b565b8355505b6001600288020188555050505b505050505050565b7f4e487b7100000000000000000000000000000000000000000000000000000000600052601160045260246000fd5b60006143518261304c565b91507fffffffffffffffffffffffffffffffffffffffffffffffffffffffffffffffff820361438357614382614317565b5b600182019050919050565b7f4f776e61626c653a206e6577206f776e657220697320746865207a65726f206160008201527f6464726573730000000000000000000000000000000000000000000000000000602082015250565b60006143ea60268361334b565b91506143f58261438e565b604082019050919050565b60006020820190508181036000830152614419816143dd565b9050919050565b7f4f776e61626c653a2063616c6c6572206973206e6f7420746865206f776e6572600082015250565b600061445660208361334b565b915061446182614420565b602082019050919050565b6000602082019050818103600083015261448581614449565b905091905056fea264697066735822122063e0ea3d190c6e0cd2d4a4904b7236dac0ca74e5236a1435845bc8005972a23164736f6c63430008110033",
  "linkReferences": {},
  "deployedLinkReferences": {}
}