{
  "_format": "hh-sol-artifact-1",
  "contractName": "Inheritokens",
  "sourceName": "contracts/Inheritokens.sol",
  "abi": [
    {
      "inputs": [],
      "stateMutability": "nonpayable",
      "type": "constructor"
    },
    {
      "anonymous": false,
      "inputs": [
        {
          "indexed": true,
          "internalType": "address",
          "name": "previousOwner",
          "type": "address"
        },
        {
          "indexed": true,
          "internalType": "address",
          "name": "newOwner",
          "type": "address"
        }
      ],
      "name": "OwnershipTransferred",
      "type": "event"
    },
    {
      "inputs": [
        {
          "internalType": "string",
          "name": "_name",
          "type": "string"
        },
        {
          "internalType": "string",
          "name": "_email",
          "type": "string"
        },
        {
          "internalType": "address",
          "name": "_nominee",
          "type": "address"
        }
      ],
      "name": "addNomineesDetails",
      "outputs": [],
      "stateMutability": "nonpayable",
      "type": "function"
    },
    {
      "inputs": [
        {
          "internalType": "string",
          "name": "_name",
          "type": "string"
        },
        {
          "internalType": "string",
          "name": "_email",
          "type": "string"
        },
        {
          "internalType": "string",
          "name": "_cid",
          "type": "string"
        }
      ],
      "name": "addOwnerDetails",
      "outputs": [],
      "stateMutability": "nonpayable",
      "type": "function"
    },
    {
      "inputs": [
        {
          "internalType": "address",
          "name": "_owner",
          "type": "address"
        },
        {
          "internalType": "address",
          "name": "_recoveryAddress",
          "type": "address"
        }
      ],
      "name": "addWalletRecovery",
      "outputs": [],
      "stateMutability": "nonpayable",
      "type": "function"
    },
    {
      "inputs": [
        {
          "internalType": "address",
          "name": "",
          "type": "address"
        }
      ],
      "name": "addressToNominee",
      "outputs": [
        {
          "internalType": "string",
          "name": "nominee_name",
          "type": "string"
        },
        {
          "internalType": "string",
          "name": "nominee_email",
          "type": "string"
        },
        {
          "internalType": "address",
          "name": "nominee_address",
          "type": "address"
        },
        {
          "internalType": "bool",
          "name": "hasClaimed",
          "type": "bool"
        }
      ],
      "stateMutability": "view",
      "type": "function"
    },
    {
      "inputs": [
        {
          "internalType": "address",
          "name": "",
          "type": "address"
        }
      ],
      "name": "addressToOwner",
      "outputs": [
        {
          "internalType": "string",
          "name": "owner_name",
          "type": "string"
        },
        {
          "internalType": "string",
          "name": "owner_email",
          "type": "string"
        },
        {
          "internalType": "string",
          "name": "image_cid",
          "type": "string"
        },
        {
          "internalType": "bool",
          "name": "isEmailVerified",
          "type": "bool"
        },
        {
          "internalType": "bool",
          "name": "isAlive",
          "type": "bool"
        },
        {
          "internalType": "address",
          "name": "recoveryAddress",
          "type": "address"
        }
      ],
      "stateMutability": "view",
      "type": "function"
    },
    {
      "inputs": [
        {
          "internalType": "address",
          "name": "_owner",
          "type": "address"
        },
        {
          "internalType": "address",
          "name": "_tokenAddress",
          "type": "address"
        },
        {
          "internalType": "string",
          "name": "_tokenName",
          "type": "string"
        },
        {
          "internalType": "string",
          "name": "_category",
          "type": "string"
        },
        {
          "internalType": "uint256",
          "name": "_tokenId",
          "type": "uint256"
        },
        {
          "internalType": "uint256",
          "name": "amount",
          "type": "uint256"
        }
      ],
      "name": "assignTokenStruct",
      "outputs": [],
      "stateMutability": "nonpayable",
      "type": "function"
    },
    {
      "inputs": [
        {
          "internalType": "address",
          "name": "_owner",
          "type": "address"
        }
      ],
      "name": "checkVerification",
      "outputs": [
        {
          "internalType": "bool",
          "name": "",
          "type": "bool"
        }
      ],
      "stateMutability": "view",
      "type": "function"
    },
    {
      "inputs": [
        {
          "internalType": "address",
          "name": "_nominee",
          "type": "address"
        }
      ],
      "name": "claim",
      "outputs": [],
      "stateMutability": "nonpayable",
      "type": "function"
    },
    {
      "inputs": [
        {
          "internalType": "address",
          "name": "_owner",
          "type": "address"
        },
        {
          "internalType": "address",
          "name": "_oldNomineeAddress",
          "type": "address"
        },
        {
          "internalType": "string",
          "name": "_name",
          "type": "string"
        },
        {
          "internalType": "string",
          "name": "_email",
          "type": "string"
        },
        {
          "internalType": "address",
          "name": "_newNomineeAddress",
          "type": "address"
        }
      ],
      "name": "editNomineeDetails",
      "outputs": [],
      "stateMutability": "nonpayable",
      "type": "function"
    },
    {
      "inputs": [
        {
          "internalType": "address",
          "name": "_owner",
          "type": "address"
        }
      ],
      "name": "getAllNominees",
      "outputs": [
        {
          "internalType": "address[]",
          "name": "",
          "type": "address[]"
        }
      ],
      "stateMutability": "view",
      "type": "function"
    },
    {
      "inputs": [
        {
          "internalType": "address",
          "name": "_owner",
          "type": "address"
        }
      ],
      "name": "getAllWhiteListedCharities",
      "outputs": [
        {
          "internalType": "uint256[]",
          "name": "",
          "type": "uint256[]"
        }
      ],
      "stateMutability": "view",
      "type": "function"
    },
    {
      "inputs": [
        {
          "internalType": "address",
          "name": "_owner",
          "type": "address"
        },
        {
          "internalType": "address",
          "name": "_tokenAddress",
          "type": "address"
        }
      ],
      "name": "getIsNominated",
      "outputs": [
        {
          "internalType": "bool",
          "name": "",
          "type": "bool"
        }
      ],
      "stateMutability": "view",
      "type": "function"
    },
    {
      "inputs": [
        {
          "internalType": "address",
          "name": "_nominee",
          "type": "address"
        }
      ],
      "name": "getNomineeDetails",
      "outputs": [
        {
          "components": [
            {
              "internalType": "string",
              "name": "nominee_name",
              "type": "string"
            },
            {
              "internalType": "string",
              "name": "nominee_email",
              "type": "string"
            },
            {
              "internalType": "address",
              "name": "nominee_address",
              "type": "address"
            },
            {
              "internalType": "bool",
              "name": "hasClaimed",
              "type": "bool"
            }
          ],
          "internalType": "struct Inheritokens.Nominee",
          "name": "",
          "type": "tuple"
        }
      ],
      "stateMutability": "view",
      "type": "function"
    },
    {
      "inputs": [
        {
          "internalType": "address",
          "name": "_owner",
          "type": "address"
        }
      ],
      "name": "getOwnerAlive",
      "outputs": [
        {
          "internalType": "bool",
          "name": "",
          "type": "bool"
        }
      ],
      "stateMutability": "view",
      "type": "function"
    },
    {
      "inputs": [
        {
          "internalType": "address",
          "name": "_owner",
          "type": "address"
        }
      ],
      "name": "getOwnerDetails",
      "outputs": [
        {
          "components": [
            {
              "internalType": "string",
              "name": "owner_name",
              "type": "string"
            },
            {
              "internalType": "string",
              "name": "owner_email",
              "type": "string"
            },
            {
              "internalType": "string",
              "name": "image_cid",
              "type": "string"
            },
            {
              "internalType": "bool",
              "name": "isEmailVerified",
              "type": "bool"
            },
            {
              "internalType": "bool",
              "name": "isAlive",
              "type": "bool"
            },
            {
              "internalType": "address",
              "name": "recoveryAddress",
              "type": "address"
            },
            {
              "internalType": "address[]",
              "name": "nominees",
              "type": "address[]"
            },
            {
              "internalType": "uint256[]",
              "name": "charities",
              "type": "uint256[]"
            }
          ],
          "internalType": "struct Inheritokens.Owner",
          "name": "",
          "type": "tuple"
        }
      ],
      "stateMutability": "view",
      "type": "function"
    },
    {
      "inputs": [],
      "name": "getOwners",
      "outputs": [
        {
          "internalType": "address[]",
          "name": "",
          "type": "address[]"
        }
      ],
      "stateMutability": "view",
      "type": "function"
    },
    {
      "inputs": [
        {
          "internalType": "address",
          "name": "_owner",
          "type": "address"
        }
      ],
      "name": "getRecoveryAddress",
      "outputs": [
        {
          "internalType": "address",
          "name": "",
          "type": "address"
        }
      ],
      "stateMutability": "view",
      "type": "function"
    },
    {
      "inputs": [
        {
          "internalType": "address",
          "name": "_owner",
          "type": "address"
        }
      ],
      "name": "getResponse",
      "outputs": [
        {
          "internalType": "bool",
          "name": "",
          "type": "bool"
        }
      ],
      "stateMutability": "view",
      "type": "function"
    },
    {
      "inputs": [
        {
          "internalType": "address",
          "name": "_owner",
          "type": "address"
        }
      ],
      "name": "getResponseDate",
      "outputs": [
        {
          "internalType": "string",
          "name": "",
          "type": "string"
        }
      ],
      "stateMutability": "view",
      "type": "function"
    },
    {
      "inputs": [],
      "name": "getTotalOwners",
      "outputs": [
        {
          "internalType": "uint256",
          "name": "",
          "type": "uint256"
        }
      ],
      "stateMutability": "view",
      "type": "function"
    },
    {
      "inputs": [
        {
          "internalType": "address",
          "name": "",
          "type": "address"
        }
      ],
      "name": "isOwnerAdded",
      "outputs": [
        {
          "internalType": "bool",
          "name": "",
          "type": "bool"
        }
      ],
      "stateMutability": "view",
      "type": "function"
    },
    {
      "inputs": [],
      "name": "owner",
      "outputs": [
        {
          "internalType": "address",
          "name": "",
          "type": "address"
        }
      ],
      "stateMutability": "view",
      "type": "function"
    },
    {
      "inputs": [
        {
          "internalType": "address",
          "name": "",
          "type": "address"
        }
      ],
      "name": "ownerToResponse",
      "outputs": [
        {
          "internalType": "string",
          "name": "date",
          "type": "string"
        },
        {
          "internalType": "bool",
          "name": "isResponsed",
          "type": "bool"
        }
      ],
      "stateMutability": "view",
      "type": "function"
    },
    {
      "inputs": [
        {
          "internalType": "uint256",
          "name": "",
          "type": "uint256"
        }
      ],
      "name": "owners",
      "outputs": [
        {
          "internalType": "address",
          "name": "",
          "type": "address"
        }
      ],
      "stateMutability": "view",
      "type": "function"
    },
    {
      "inputs": [],
      "name": "renounceOwnership",
      "outputs": [],
      "stateMutability": "nonpayable",
      "type": "function"
    },
    {
      "inputs": [
        {
          "internalType": "address",
          "name": "_owner",
          "type": "address"
        }
      ],
      "name": "setOwnerNotAlive",
      "outputs": [],
      "stateMutability": "nonpayable",
      "type": "function"
    },
    {
      "inputs": [
        {
          "internalType": "address",
          "name": "_owner",
          "type": "address"
        },
        {
          "internalType": "bool",
          "name": "_response",
          "type": "bool"
        }
      ],
      "name": "setResponse",
      "outputs": [],
      "stateMutability": "nonpayable",
      "type": "function"
    },
    {
      "inputs": [
        {
          "internalType": "address",
          "name": "_owner",
          "type": "address"
        },
        {
          "internalType": "string",
          "name": "_date",
          "type": "string"
        }
      ],
      "name": "setResponseDate",
      "outputs": [],
      "stateMutability": "nonpayable",
      "type": "function"
    },
    {
      "inputs": [
        {
          "internalType": "address",
          "name": "_owner",
          "type": "address"
        },
        {
          "internalType": "uint256",
          "name": "_charityId",
          "type": "uint256"
        }
      ],
      "name": "setWhiteListedCharities",
      "outputs": [],
      "stateMutability": "nonpayable",
      "type": "function"
    },
    {
      "inputs": [
        {
          "internalType": "address",
          "name": "",
          "type": "address"
        },
        {
          "internalType": "address",
          "name": "",
          "type": "address"
        }
      ],
      "name": "tokenAddressToTokenStruct",
      "outputs": [
        {
          "internalType": "address",
          "name": "token_address",
          "type": "address"
        },
        {
          "internalType": "string",
          "name": "token_name",
          "type": "string"
        },
        {
          "internalType": "string",
          "name": "category",
          "type": "string"
        },
        {
          "internalType": "uint256",
          "name": "token_id",
          "type": "uint256"
        },
        {
          "internalType": "uint256",
          "name": "allocated_share",
          "type": "uint256"
        },
        {
          "internalType": "bool",
          "name": "isNominated",
          "type": "bool"
        }
      ],
      "stateMutability": "view",
      "type": "function"
    },
    {
      "inputs": [
        {
          "internalType": "address",
          "name": "newOwner",
          "type": "address"
        }
      ],
      "name": "transferOwnership",
      "outputs": [],
      "stateMutability": "nonpayable",
      "type": "function"
    },
    {
      "inputs": [
        {
          "internalType": "address",
          "name": "_owner",
          "type": "address"
        },
        {
          "internalType": "address",
          "name": "_tokenAddress",
          "type": "address"
        },
        {
          "internalType": "uint256",
          "name": "amount",
          "type": "uint256"
        }
      ],
      "name": "updateAllocatedShare",
      "outputs": [],
      "stateMutability": "nonpayable",
      "type": "function"
    },
    {
      "inputs": [
        {
          "internalType": "address",
          "name": "_owner",
          "type": "address"
        }
      ],
      "name": "verifyOwnerEmail",
      "outputs": [],
      "stateMutability": "nonpayable",
      "type": "function"
    }
  ],
  "bytecode": "0x60806040523480156200001157600080fd5b5062000032620000266200003860201b60201c565b6200004060201b60201c565b62000104565b600033905090565b60008060009054906101000a900473ffffffffffffffffffffffffffffffffffffffff169050816000806101000a81548173ffffffffffffffffffffffffffffffffffffffff021916908373ffffffffffffffffffffffffffffffffffffffff1602179055508173ffffffffffffffffffffffffffffffffffffffff168173ffffffffffffffffffffffffffffffffffffffff167f8be0079c531659141344cd1fd0a4f28419497f9722a3daafe3b4186f6b6457e060405160405180910390a35050565b613cef80620001146000396000f3fe608060405234801561001057600080fd5b50600436106101fb5760003560e01c80638da5cb5b1161011a578063c3bb8121116100ad578063de508c5b1161007c578063de508c5b14610611578063e62d4f7c14610646578063e9c1555514610676578063f2fde38b14610692578063f8009785146106ae576101fb565b8063c3bb812114610576578063cb144b39146105a6578063cf751c44146105c2578063db23f9f3146105f3576101fb565b8063a5394b39116100e9578063a5394b39146104f2578063a60724451461050e578063baab97971461052a578063bece99681461055a576101fb565b80638da5cb5b1461046a5780638e5d20991461048857806392f82048146104b8578063a0e67e2b146104d4576101fb565b8063511865e9116101925780636a5e8938116101615780636a5e8938146103e4578063715018a61461041457806376f0ffc61461041e5780638258d0211461044e576101fb565b8063511865e91461033557806354add3e7146103655780635a863c11146103815780636199997f146103b4576101fb565b8063348f0a93116101ce578063348f0a931461029d5780633bf01bf8146102b9578063433a05b0146102d55780634950956e14610305576101fb565b8063025e7c271461020057806306d1681d14610230578063159305e11461024c5780631e83409a14610281575b600080fd5b61021a6004803603810190610215919061291a565b6106de565b6040516102279190612988565b60405180910390f35b61024a600480360381019061024591906129cf565b61071d565b005b610266600480360381019061026191906129cf565b61089f565b60405161027896959493929190612aa7565b60405180910390f35b61029b600480360381019061029691906129cf565b610aad565b005b6102b760048036038101906102b29190612b1d565b610b0b565b005b6102d360048036038101906102ce9190612c92565b610b78565b005b6102ef60048036038101906102ea91906129cf565b610cec565b6040516102fc9190612d57565b60405180910390f35b61031f600480360381019061031a91906129cf565b610d45565b60405161032c9190612e44565b60405180910390f35b61034f600480360381019061034a91906129cf565b610f33565b60405161035c9190612988565b60405180910390f35b61037f600480360381019061037a9190612e66565b610f9f565b005b61039b600480360381019061039691906129cf565b610ffb565b6040516103ab9493929190612ec2565b60405180910390f35b6103ce60048036038101906103c991906129cf565b611168565b6040516103db9190612d57565b60405180910390f35b6103fe60048036038101906103f991906129cf565b6111c1565b60405161040b9190612f15565b60405180910390f35b61041c611295565b005b610438600480360381019061043391906129cf565b6112a9565b6040516104459190612d57565b60405180910390f35b61046860048036038101906104639190612f37565b6112c9565b005b6104726115bc565b60405161047f9190612988565b60405180910390f35b6104a2600480360381019061049d9190612fde565b6115e5565b6040516104af9190612d57565b60405180910390f35b6104d260048036038101906104cd919061301e565b61167c565b005b6104dc611a30565b6040516104e99190613180565b60405180910390f35b61050c600480360381019061050791906129cf565b611abe565b005b610528600480360381019061052391906131ce565b611b24565b005b610544600480360381019061053f91906129cf565b611b82565b6040516105519190612d57565b60405180910390f35b610574600480360381019061056f9190612fde565b611bdb565b005b610590600480360381019061058b91906129cf565b611c60565b60405161059d9190613407565b60405180910390f35b6105c060048036038101906105bb9190613429565b611fe2565b005b6105dc60048036038101906105d791906129cf565b612225565b6040516105ea9291906134b4565b60405180910390f35b6105fb6122de565b60405161060891906134f3565b60405180910390f35b61062b60048036038101906106269190612fde565b6122eb565b60405161063d9695949392919061350e565b60405180910390f35b610660600480360381019061065b91906129cf565b612471565b60405161066d91906135ec565b60405180910390f35b610690600480360381019061068b919061360e565b61250b565b005b6106ac60048036038101906106a791906129cf565b612594565b005b6106c860048036038101906106c391906129cf565b612617565b6040516106d59190613180565b60405180910390f35b600181815481106106ee57600080fd5b906000526020600020016000915054906101000a900473ffffffffffffffffffffffffffffffffffffffff1681565b6107256126e7565b600260008273ffffffffffffffffffffffffffffffffffffffff1673ffffffffffffffffffffffffffffffffffffffff16815260200190815260200160002060009054906101000a900460ff166107b1576040517f08c379a00000000000000000000000000000000000000000000000000000000081526004016107a8906136ad565b60405180910390fd5b600360008273ffffffffffffffffffffffffffffffffffffffff1673ffffffffffffffffffffffffffffffffffffffff16815260200190815260200160002060030160009054906101000a900460ff1615610841576040517f08c379a000000000000000000000000000000000000000000000000000000000815260040161083890613719565b60405180910390fd5b6001600360008373ffffffffffffffffffffffffffffffffffffffff1673ffffffffffffffffffffffffffffffffffffffff16815260200190815260200160002060030160006101000a81548160ff02191690831515021790555050565b60036020528060005260406000206000915090508060000180546108c290613768565b80601f01602080910402602001604051908101604052809291908181526020018280546108ee90613768565b801561093b5780601f106109105761010080835404028352916020019161093b565b820191906000526020600020905b81548152906001019060200180831161091e57829003601f168201915b50505050509080600101805461095090613768565b80601f016020809104026020016040519081016040528092919081815260200182805461097c90613768565b80156109c95780601f1061099e576101008083540402835291602001916109c9565b820191906000526020600020905b8154815290600101906020018083116109ac57829003601f168201915b5050505050908060020180546109de90613768565b80601f0160208091040260200160405190810160405280929190818152602001828054610a0a90613768565b8015610a575780601f10610a2c57610100808354040283529160200191610a57565b820191906000526020600020905b815481529060010190602001808311610a3a57829003601f168201915b5050505050908060030160009054906101000a900460ff16908060030160019054906101000a900460ff16908060030160029054906101000a900473ffffffffffffffffffffffffffffffffffffffff16905086565b6001600460008373ffffffffffffffffffffffffffffffffffffffff1673ffffffffffffffffffffffffffffffffffffffff16815260200190815260200160002060020160146101000a81548160ff02191690831515021790555050565b600360008373ffffffffffffffffffffffffffffffffffffffff1673ffffffffffffffffffffffffffffffffffffffff1681526020019081526020016000206005018190806001815401808255809150506001900390600052602060002001600090919091909150555050565b6040518060c001604052808673ffffffffffffffffffffffffffffffffffffffff16815260200185815260200184815260200183815260200182815260200160011515815250600560008873ffffffffffffffffffffffffffffffffffffffff1673ffffffffffffffffffffffffffffffffffffffff16815260200190815260200160002060008773ffffffffffffffffffffffffffffffffffffffff1673ffffffffffffffffffffffffffffffffffffffff16815260200190815260200160002060008201518160000160006101000a81548173ffffffffffffffffffffffffffffffffffffffff021916908373ffffffffffffffffffffffffffffffffffffffff1602179055506020820151816001019081610c969190613945565b506040820151816002019081610cac9190613945565b50606082015181600301556080820151816004015560a08201518160050160006101000a81548160ff021916908315150217905550905050505050505050565b6000600660008373ffffffffffffffffffffffffffffffffffffffff1673ffffffffffffffffffffffffffffffffffffffff16815260200190815260200160002060010160009054906101000a900460ff169050919050565b610d4d612831565b600460008373ffffffffffffffffffffffffffffffffffffffff1673ffffffffffffffffffffffffffffffffffffffff168152602001908152602001600020604051806080016040529081600082018054610da790613768565b80601f0160208091040260200160405190810160405280929190818152602001828054610dd390613768565b8015610e205780601f10610df557610100808354040283529160200191610e20565b820191906000526020600020905b815481529060010190602001808311610e0357829003601f168201915b50505050508152602001600182018054610e3990613768565b80601f0160208091040260200160405190810160405280929190818152602001828054610e6590613768565b8015610eb25780601f10610e8757610100808354040283529160200191610eb2565b820191906000526020600020905b815481529060010190602001808311610e9557829003601f168201915b505050505081526020016002820160009054906101000a900473ffffffffffffffffffffffffffffffffffffffff1673ffffffffffffffffffffffffffffffffffffffff1673ffffffffffffffffffffffffffffffffffffffff1681526020016002820160149054906101000a900460ff1615151515815250509050919050565b6000600360008373ffffffffffffffffffffffffffffffffffffffff1673ffffffffffffffffffffffffffffffffffffffff16815260200190815260200160002060030160029054906101000a900473ffffffffffffffffffffffffffffffffffffffff169050919050565b610fa76126e7565b80600660008473ffffffffffffffffffffffffffffffffffffffff1673ffffffffffffffffffffffffffffffffffffffff1681526020019081526020016000206000019081610ff69190613945565b505050565b600460205280600052604060002060009150905080600001805461101e90613768565b80601f016020809104026020016040519081016040528092919081815260200182805461104a90613768565b80156110975780601f1061106c57610100808354040283529160200191611097565b820191906000526020600020905b81548152906001019060200180831161107a57829003601f168201915b5050505050908060010180546110ac90613768565b80601f01602080910402602001604051908101604052809291908181526020018280546110d890613768565b80156111255780601f106110fa57610100808354040283529160200191611125565b820191906000526020600020905b81548152906001019060200180831161110857829003601f168201915b5050505050908060020160009054906101000a900473ffffffffffffffffffffffffffffffffffffffff16908060020160149054906101000a900460ff16905084565b6000600360008373ffffffffffffffffffffffffffffffffffffffff1673ffffffffffffffffffffffffffffffffffffffff16815260200190815260200160002060030160019054906101000a900460ff169050919050565b6060600660008373ffffffffffffffffffffffffffffffffffffffff1673ffffffffffffffffffffffffffffffffffffffff168152602001908152602001600020600001805461121090613768565b80601f016020809104026020016040519081016040528092919081815260200182805461123c90613768565b80156112895780601f1061125e57610100808354040283529160200191611289565b820191906000526020600020905b81548152906001019060200180831161126c57829003601f168201915b50505050509050919050565b61129d6126e7565b6112a76000612765565b565b60026020528060005260406000206000915054906101000a900460ff1681565b600260003373ffffffffffffffffffffffffffffffffffffffff1673ffffffffffffffffffffffffffffffffffffffff16815260200190815260200160002060009054906101000a900460ff1615611356576040517f08c379a000000000000000000000000000000000000000000000000000000000815260040161134d90613a63565b60405180910390fd5b6001339080600181540180825580915050600190039060005260206000200160009091909190916101000a81548173ffffffffffffffffffffffffffffffffffffffff021916908373ffffffffffffffffffffffffffffffffffffffff16021790555082600360003373ffffffffffffffffffffffffffffffffffffffff1673ffffffffffffffffffffffffffffffffffffffff16815260200190815260200160002060000190816114089190613945565b5081600360003373ffffffffffffffffffffffffffffffffffffffff1673ffffffffffffffffffffffffffffffffffffffff16815260200190815260200160002060010190816114589190613945565b5080600360003373ffffffffffffffffffffffffffffffffffffffff1673ffffffffffffffffffffffffffffffffffffffff16815260200190815260200160002060020190816114a89190613945565b506000600360003373ffffffffffffffffffffffffffffffffffffffff1673ffffffffffffffffffffffffffffffffffffffff16815260200190815260200160002060030160006101000a81548160ff0219169083151502179055506001600360003373ffffffffffffffffffffffffffffffffffffffff1673ffffffffffffffffffffffffffffffffffffffff16815260200190815260200160002060030160016101000a81548160ff0219169083151502179055506001600260003373ffffffffffffffffffffffffffffffffffffffff1673ffffffffffffffffffffffffffffffffffffffff16815260200190815260200160002060006101000a81548160ff021916908315150217905550505050565b60008060009054906101000a900473ffffffffffffffffffffffffffffffffffffffff16905090565b6000600560008473ffffffffffffffffffffffffffffffffffffffff1673ffffffffffffffffffffffffffffffffffffffff16815260200190815260200160002060008373ffffffffffffffffffffffffffffffffffffffff1673ffffffffffffffffffffffffffffffffffffffff16815260200190815260200160002060050160009054906101000a900460ff16905092915050565b8073ffffffffffffffffffffffffffffffffffffffff168473ffffffffffffffffffffffffffffffffffffffff16036117545782600460008673ffffffffffffffffffffffffffffffffffffffff1673ffffffffffffffffffffffffffffffffffffffff16815260200190815260200160002060000190816116fe9190613945565b5081600460008673ffffffffffffffffffffffffffffffffffffffff1673ffffffffffffffffffffffffffffffffffffffff168152602001908152602001600020600101908161174e9190613945565b50611a29565b82600460008373ffffffffffffffffffffffffffffffffffffffff1673ffffffffffffffffffffffffffffffffffffffff16815260200190815260200160002060000190816117a39190613945565b5081600460008373ffffffffffffffffffffffffffffffffffffffff1673ffffffffffffffffffffffffffffffffffffffff16815260200190815260200160002060010190816117f39190613945565b5080600460008373ffffffffffffffffffffffffffffffffffffffff1673ffffffffffffffffffffffffffffffffffffffff16815260200190815260200160002060020160006101000a81548173ffffffffffffffffffffffffffffffffffffffff021916908373ffffffffffffffffffffffffffffffffffffffff16021790555060005b600360008773ffffffffffffffffffffffffffffffffffffffff1673ffffffffffffffffffffffffffffffffffffffff16815260200190815260200160002060040180549050811015611a27578473ffffffffffffffffffffffffffffffffffffffff16600360008873ffffffffffffffffffffffffffffffffffffffff1673ffffffffffffffffffffffffffffffffffffffff16815260200190815260200160002060040182815481106119305761192f613a83565b5b9060005260206000200160009054906101000a900473ffffffffffffffffffffffffffffffffffffffff1673ffffffffffffffffffffffffffffffffffffffff1603611a145781600360008873ffffffffffffffffffffffffffffffffffffffff1673ffffffffffffffffffffffffffffffffffffffff16815260200190815260200160002060040182815481106119cb576119ca613a83565b5b9060005260206000200160006101000a81548173ffffffffffffffffffffffffffffffffffffffff021916908373ffffffffffffffffffffffffffffffffffffffff1602179055505b8080611a1f90613ae1565b915050611878565b505b5050505050565b60606001805480602002602001604051908101604052809291908181526020018280548015611ab457602002820191906000526020600020905b8160009054906101000a900473ffffffffffffffffffffffffffffffffffffffff1673ffffffffffffffffffffffffffffffffffffffff1681526020019060010190808311611a6a575b5050505050905090565b611ac66126e7565b6000600360008373ffffffffffffffffffffffffffffffffffffffff1673ffffffffffffffffffffffffffffffffffffffff16815260200190815260200160002060030160016101000a81548160ff02191690831515021790555050565b80600660008473ffffffffffffffffffffffffffffffffffffffff1673ffffffffffffffffffffffffffffffffffffffff16815260200190815260200160002060010160006101000a81548160ff0219169083151502179055505050565b6000600360008373ffffffffffffffffffffffffffffffffffffffff1673ffffffffffffffffffffffffffffffffffffffff16815260200190815260200160002060030160009054906101000a900460ff169050919050565b80600360008473ffffffffffffffffffffffffffffffffffffffff1673ffffffffffffffffffffffffffffffffffffffff16815260200190815260200160002060030160026101000a81548173ffffffffffffffffffffffffffffffffffffffff021916908373ffffffffffffffffffffffffffffffffffffffff1602179055505050565b611c68612871565b600360008373ffffffffffffffffffffffffffffffffffffffff1673ffffffffffffffffffffffffffffffffffffffff16815260200190815260200160002060405180610100016040529081600082018054611cc390613768565b80601f0160208091040260200160405190810160405280929190818152602001828054611cef90613768565b8015611d3c5780601f10611d1157610100808354040283529160200191611d3c565b820191906000526020600020905b815481529060010190602001808311611d1f57829003601f168201915b50505050508152602001600182018054611d5590613768565b80601f0160208091040260200160405190810160405280929190818152602001828054611d8190613768565b8015611dce5780601f10611da357610100808354040283529160200191611dce565b820191906000526020600020905b815481529060010190602001808311611db157829003601f168201915b50505050508152602001600282018054611de790613768565b80601f0160208091040260200160405190810160405280929190818152602001828054611e1390613768565b8015611e605780601f10611e3557610100808354040283529160200191611e60565b820191906000526020600020905b815481529060010190602001808311611e4357829003601f168201915b505050505081526020016003820160009054906101000a900460ff161515151581526020016003820160019054906101000a900460ff161515151581526020016003820160029054906101000a900473ffffffffffffffffffffffffffffffffffffffff1673ffffffffffffffffffffffffffffffffffffffff1673ffffffffffffffffffffffffffffffffffffffff16815260200160048201805480602002602001604051908101604052809291908181526020018280548015611f7a57602002820191906000526020600020905b8160009054906101000a900473ffffffffffffffffffffffffffffffffffffffff1673ffffffffffffffffffffffffffffffffffffffff1681526020019060010190808311611f30575b5050505050815260200160058201805480602002602001604051908101604052809291908181526020018280548015611fd257602002820191906000526020600020905b815481526020019060010190808311611fbe575b5050505050815250509050919050565b600260003373ffffffffffffffffffffffffffffffffffffffff1673ffffffffffffffffffffffffffffffffffffffff16815260200190815260200160002060009054906101000a900460ff1661206e576040517f08c379a000000000000000000000000000000000000000000000000000000000815260040161206590613b9b565b60405180910390fd5b60405180608001604052808481526020018381526020018273ffffffffffffffffffffffffffffffffffffffff16815260200160001515815250600460008373ffffffffffffffffffffffffffffffffffffffff1673ffffffffffffffffffffffffffffffffffffffff16815260200190815260200160002060008201518160000190816120fc9190613945565b5060208201518160010190816121129190613945565b5060408201518160020160006101000a81548173ffffffffffffffffffffffffffffffffffffffff021916908373ffffffffffffffffffffffffffffffffffffffff16021790555060608201518160020160146101000a81548160ff021916908315150217905550905050600360003373ffffffffffffffffffffffffffffffffffffffff1673ffffffffffffffffffffffffffffffffffffffff168152602001908152602001600020600401819080600181540180825580915050600190039060005260206000200160009091909190916101000a81548173ffffffffffffffffffffffffffffffffffffffff021916908373ffffffffffffffffffffffffffffffffffffffff160217905550505050565b600660205280600052604060002060009150905080600001805461224890613768565b80601f016020809104026020016040519081016040528092919081815260200182805461227490613768565b80156122c15780601f10612296576101008083540402835291602001916122c1565b820191906000526020600020905b8154815290600101906020018083116122a457829003601f168201915b5050505050908060010160009054906101000a900460ff16905082565b6000600180549050905090565b6005602052816000526040600020602052806000526040600020600091509150508060000160009054906101000a900473ffffffffffffffffffffffffffffffffffffffff169080600101805461234190613768565b80601f016020809104026020016040519081016040528092919081815260200182805461236d90613768565b80156123ba5780601f1061238f576101008083540402835291602001916123ba565b820191906000526020600020905b81548152906001019060200180831161239d57829003601f168201915b5050505050908060020180546123cf90613768565b80601f01602080910402602001604051908101604052809291908181526020018280546123fb90613768565b80156124485780601f1061241d57610100808354040283529160200191612448565b820191906000526020600020905b81548152906001019060200180831161242b57829003601f168201915b5050505050908060030154908060040154908060050160009054906101000a900460ff16905086565b6060600360008373ffffffffffffffffffffffffffffffffffffffff1673ffffffffffffffffffffffffffffffffffffffff1681526020019081526020016000206005018054806020026020016040519081016040528092919081815260200182805480156124ff57602002820191906000526020600020905b8154815260200190600101908083116124eb575b50505050509050919050565b80600560008573ffffffffffffffffffffffffffffffffffffffff1673ffffffffffffffffffffffffffffffffffffffff16815260200190815260200160002060008473ffffffffffffffffffffffffffffffffffffffff1673ffffffffffffffffffffffffffffffffffffffff16815260200190815260200160002060040181905550505050565b61259c6126e7565b600073ffffffffffffffffffffffffffffffffffffffff168173ffffffffffffffffffffffffffffffffffffffff160361260b576040517f08c379a000000000000000000000000000000000000000000000000000000000815260040161260290613c2d565b60405180910390fd5b61261481612765565b50565b6060600360008373ffffffffffffffffffffffffffffffffffffffff1673ffffffffffffffffffffffffffffffffffffffff1681526020019081526020016000206004018054806020026020016040519081016040528092919081815260200182805480156126db57602002820191906000526020600020905b8160009054906101000a900473ffffffffffffffffffffffffffffffffffffffff1673ffffffffffffffffffffffffffffffffffffffff1681526020019060010190808311612691575b50505050509050919050565b6126ef612829565b73ffffffffffffffffffffffffffffffffffffffff1661270d6115bc565b73ffffffffffffffffffffffffffffffffffffffff1614612763576040517f08c379a000000000000000000000000000000000000000000000000000000000815260040161275a90613c99565b60405180910390fd5b565b60008060009054906101000a900473ffffffffffffffffffffffffffffffffffffffff169050816000806101000a81548173ffffffffffffffffffffffffffffffffffffffff021916908373ffffffffffffffffffffffffffffffffffffffff1602179055508173ffffffffffffffffffffffffffffffffffffffff168173ffffffffffffffffffffffffffffffffffffffff167f8be0079c531659141344cd1fd0a4f28419497f9722a3daafe3b4186f6b6457e060405160405180910390a35050565b600033905090565b60405180608001604052806060815260200160608152602001600073ffffffffffffffffffffffffffffffffffffffff1681526020016000151581525090565b604051806101000160405280606081526020016060815260200160608152602001600015158152602001600015158152602001600073ffffffffffffffffffffffffffffffffffffffff16815260200160608152602001606081525090565b6000604051905090565b600080fd5b600080fd5b6000819050919050565b6128f7816128e4565b811461290257600080fd5b50565b600081359050612914816128ee565b92915050565b6000602082840312156129305761292f6128da565b5b600061293e84828501612905565b91505092915050565b600073ffffffffffffffffffffffffffffffffffffffff82169050919050565b600061297282612947565b9050919050565b61298281612967565b82525050565b600060208201905061299d6000830184612979565b92915050565b6129ac81612967565b81146129b757600080fd5b50565b6000813590506129c9816129a3565b92915050565b6000602082840312156129e5576129e46128da565b5b60006129f3848285016129ba565b91505092915050565b600081519050919050565b600082825260208201905092915050565b60005b83811015612a36578082015181840152602081019050612a1b565b60008484015250505050565b6000601f19601f8301169050919050565b6000612a5e826129fc565b612a688185612a07565b9350612a78818560208601612a18565b612a8181612a42565b840191505092915050565b60008115159050919050565b612aa181612a8c565b82525050565b600060c0820190508181036000830152612ac18189612a53565b90508181036020830152612ad58188612a53565b90508181036040830152612ae98187612a53565b9050612af86060830186612a98565b612b056080830185612a98565b612b1260a0830184612979565b979650505050505050565b60008060408385031215612b3457612b336128da565b5b6000612b42858286016129ba565b9250506020612b5385828601612905565b9150509250929050565b600080fd5b600080fd5b7f4e487b7100000000000000000000000000000000000000000000000000000000600052604160045260246000fd5b612b9f82612a42565b810181811067ffffffffffffffff82111715612bbe57612bbd612b67565b5b80604052505050565b6000612bd16128d0565b9050612bdd8282612b96565b919050565b600067ffffffffffffffff821115612bfd57612bfc612b67565b5b612c0682612a42565b9050602081019050919050565b82818337600083830152505050565b6000612c35612c3084612be2565b612bc7565b905082815260208101848484011115612c5157612c50612b62565b5b612c5c848285612c13565b509392505050565b600082601f830112612c7957612c78612b5d565b5b8135612c89848260208601612c22565b91505092915050565b60008060008060008060c08789031215612caf57612cae6128da565b5b6000612cbd89828a016129ba565b9650506020612cce89828a016129ba565b955050604087013567ffffffffffffffff811115612cef57612cee6128df565b5b612cfb89828a01612c64565b945050606087013567ffffffffffffffff811115612d1c57612d1b6128df565b5b612d2889828a01612c64565b9350506080612d3989828a01612905565b92505060a0612d4a89828a01612905565b9150509295509295509295565b6000602082019050612d6c6000830184612a98565b92915050565b600082825260208201905092915050565b6000612d8e826129fc565b612d988185612d72565b9350612da8818560208601612a18565b612db181612a42565b840191505092915050565b612dc581612967565b82525050565b612dd481612a8c565b82525050565b60006080830160008301518482036000860152612df78282612d83565b91505060208301518482036020860152612e118282612d83565b9150506040830151612e266040860182612dbc565b506060830151612e396060860182612dcb565b508091505092915050565b60006020820190508181036000830152612e5e8184612dda565b905092915050565b60008060408385031215612e7d57612e7c6128da565b5b6000612e8b858286016129ba565b925050602083013567ffffffffffffffff811115612eac57612eab6128df565b5b612eb885828601612c64565b9150509250929050565b60006080820190508181036000830152612edc8187612a53565b90508181036020830152612ef08186612a53565b9050612eff6040830185612979565b612f0c6060830184612a98565b95945050505050565b60006020820190508181036000830152612f2f8184612a53565b905092915050565b600080600060608486031215612f5057612f4f6128da565b5b600084013567ffffffffffffffff811115612f6e57612f6d6128df565b5b612f7a86828701612c64565b935050602084013567ffffffffffffffff811115612f9b57612f9a6128df565b5b612fa786828701612c64565b925050604084013567ffffffffffffffff811115612fc857612fc76128df565b5b612fd486828701612c64565b9150509250925092565b60008060408385031215612ff557612ff46128da565b5b6000613003858286016129ba565b9250506020613014858286016129ba565b9150509250929050565b600080600080600060a0868803121561303a576130396128da565b5b6000613048888289016129ba565b9550506020613059888289016129ba565b945050604086013567ffffffffffffffff81111561307a576130796128df565b5b61308688828901612c64565b935050606086013567ffffffffffffffff8111156130a7576130a66128df565b5b6130b388828901612c64565b92505060806130c4888289016129ba565b9150509295509295909350565b600081519050919050565b600082825260208201905092915050565b6000819050602082019050919050565b60006131098383612dbc565b60208301905092915050565b6000602082019050919050565b600061312d826130d1565b61313781856130dc565b9350613142836130ed565b8060005b8381101561317357815161315a88826130fd565b975061316583613115565b925050600181019050613146565b5085935050505092915050565b6000602082019050818103600083015261319a8184613122565b905092915050565b6131ab81612a8c565b81146131b657600080fd5b50565b6000813590506131c8816131a2565b92915050565b600080604083850312156131e5576131e46128da565b5b60006131f3858286016129ba565b9250506020613204858286016131b9565b9150509250929050565b600082825260208201905092915050565b600061322a826130d1565b613234818561320e565b935061323f836130ed565b8060005b8381101561327057815161325788826130fd565b975061326283613115565b925050600181019050613243565b5085935050505092915050565b600081519050919050565b600082825260208201905092915050565b6000819050602082019050919050565b6132b2816128e4565b82525050565b60006132c483836132a9565b60208301905092915050565b6000602082019050919050565b60006132e88261327d565b6132f28185613288565b93506132fd83613299565b8060005b8381101561332e57815161331588826132b8565b9750613320836132d0565b925050600181019050613301565b5085935050505092915050565b60006101008301600083015184820360008601526133598282612d83565b915050602083015184820360208601526133738282612d83565b9150506040830151848203604086015261338d8282612d83565b91505060608301516133a26060860182612dcb565b5060808301516133b56080860182612dcb565b5060a08301516133c860a0860182612dbc565b5060c083015184820360c08601526133e0828261321f565b91505060e083015184820360e08601526133fa82826132dd565b9150508091505092915050565b60006020820190508181036000830152613421818461333b565b905092915050565b600080600060608486031215613442576134416128da565b5b600084013567ffffffffffffffff8111156134605761345f6128df565b5b61346c86828701612c64565b935050602084013567ffffffffffffffff81111561348d5761348c6128df565b5b61349986828701612c64565b92505060406134aa868287016129ba565b9150509250925092565b600060408201905081810360008301526134ce8185612a53565b90506134dd6020830184612a98565b9392505050565b6134ed816128e4565b82525050565b600060208201905061350860008301846134e4565b92915050565b600060c0820190506135236000830189612979565b81810360208301526135358188612a53565b905081810360408301526135498187612a53565b905061355860608301866134e4565b61356560808301856134e4565b61357260a0830184612a98565b979650505050505050565b600082825260208201905092915050565b60006135998261327d565b6135a3818561357d565b93506135ae83613299565b8060005b838110156135df5781516135c688826132b8565b97506135d1836132d0565b9250506001810190506135b2565b5085935050505092915050565b60006020820190508181036000830152613606818461358e565b905092915050565b600080600060608486031215613627576136266128da565b5b6000613635868287016129ba565b9350506020613646868287016129ba565b925050604061365786828701612905565b9150509250925092565b7f466972737420646f20726567697374726174696f6e0000000000000000000000600082015250565b6000613697601583612a07565b91506136a282613661565b602082019050919050565b600060208201905081810360008301526136c68161368a565b9050919050565b7f416c726561647920796f757220656d61696c2069732076657269666965640000600082015250565b6000613703601e83612a07565b915061370e826136cd565b602082019050919050565b60006020820190508181036000830152613732816136f6565b9050919050565b7f4e487b7100000000000000000000000000000000000000000000000000000000600052602260045260246000fd5b6000600282049050600182168061378057607f821691505b60208210810361379357613792613739565b5b50919050565b60008190508160005260206000209050919050565b60006020601f8301049050919050565b600082821b905092915050565b6000600883026137fb7fffffffffffffffffffffffffffffffffffffffffffffffffffffffffffffffff826137be565b61380586836137be565b95508019841693508086168417925050509392505050565b6000819050919050565b600061384261383d613838846128e4565b61381d565b6128e4565b9050919050565b6000819050919050565b61385c83613827565b61387061386882613849565b8484546137cb565b825550505050565b600090565b613885613878565b613890818484613853565b505050565b5b818110156138b4576138a960008261387d565b600181019050613896565b5050565b601f8211156138f9576138ca81613799565b6138d3846137ae565b810160208510156138e2578190505b6138f66138ee856137ae565b830182613895565b50505b505050565b600082821c905092915050565b600061391c600019846008026138fe565b1980831691505092915050565b6000613935838361390b565b9150826002028217905092915050565b61394e826129fc565b67ffffffffffffffff81111561396757613966612b67565b5b6139718254613768565b61397c8282856138b8565b600060209050601f8311600181146139af576000841561399d578287015190505b6139a78582613929565b865550613a0f565b601f1984166139bd86613799565b60005b828110156139e5578489015182556001820191506020850194506020810190506139c0565b86831015613a0257848901516139fe601f89168261390b565b8355505b6001600288020188555050505b505050505050565b7f416c726561647920726567697374657265640000000000000000000000000000600082015250565b6000613a4d601283612a07565b9150613a5882613a17565b602082019050919050565b60006020820190508181036000830152613a7c81613a40565b9050919050565b7f4e487b7100000000000000000000000000000000000000000000000000000000600052603260045260246000fd5b7f4e487b7100000000000000000000000000000000000000000000000000000000600052601160045260246000fd5b6000613aec826128e4565b91507fffffffffffffffffffffffffffffffffffffffffffffffffffffffffffffffff8203613b1e57613b1d613ab2565b5b600182019050919050565b7f466972737420726567697374657220616e642076657269667920796f7572206560008201527f6d61696c00000000000000000000000000000000000000000000000000000000602082015250565b6000613b85602483612a07565b9150613b9082613b29565b604082019050919050565b60006020820190508181036000830152613bb481613b78565b9050919050565b7f4f776e61626c653a206e6577206f776e657220697320746865207a65726f206160008201527f6464726573730000000000000000000000000000000000000000000000000000602082015250565b6000613c17602683612a07565b9150613c2282613bbb565b604082019050919050565b60006020820190508181036000830152613c4681613c0a565b9050919050565b7f4f776e61626c653a2063616c6c6572206973206e6f7420746865206f776e6572600082015250565b6000613c83602083612a07565b9150613c8e82613c4d565b602082019050919050565b60006020820190508181036000830152613cb281613c76565b905091905056fea2646970667358221220228c5cb492f0682af2e64e26621cc89843ca35a111da0323405fb98653bd9c5764736f6c63430008110033",
  "linkReferences": {},
  "deployedLinkReferences": {}
}