{"contracts/MultiplePriorityNominee.sol":{"MultiplePriorityNominee":{"abi":[{"inputs":[{"internalType":"address","name":"_inheritokensAddress","type":"address"},{"internalType":"address","name":"_charityContractAddress","type":"address"}],"stateMutability":"nonpayable","type":"constructor"},{"anonymous":false,"inputs":[{"indexed":true,"internalType":"address","name":"_owner","type":"address"},{"indexed":true,"internalType":"address","name":"_nominee","type":"address"},{"indexed":true,"internalType":"address","name":"_tokenAddress","type":"address"},{"indexed":false,"internalType":"uint256","name":"_tokenId","type":"uint256"},{"indexed":false,"internalType":"uint256","name":"_amount","type":"uint256"},{"indexed":false,"internalType":"uint256","name":"_category","type":"uint256"}],"name":"Claimed","type":"event"},{"anonymous":false,"inputs":[{"indexed":true,"internalType":"address","name":"previousOwner","type":"address"},{"indexed":true,"internalType":"address","name":"newOwner","type":"address"}],"name":"OwnershipTransferred","type":"event"},{"anonymous":false,"inputs":[{"indexed":true,"internalType":"address","name":"_owner","type":"address"},{"indexed":true,"internalType":"address","name":"_tokenAddress","type":"address"},{"indexed":false,"internalType":"uint256","name":"_tokenId","type":"uint256"},{"indexed":false,"internalType":"uint256","name":"_amount","type":"uint256"},{"indexed":false,"internalType":"uint256","name":"_category","type":"uint256"}],"name":"Recovered","type":"event"},{"anonymous":false,"inputs":[{"indexed":true,"internalType":"address","name":"_owner","type":"address"},{"indexed":false,"internalType":"address","name":"_tokenAddress","type":"address"},{"indexed":false,"internalType":"uint256","name":"_tokenId","type":"uint256"},{"indexed":false,"internalType":"uint256","name":"_category","type":"uint256"}],"name":"TokensAssigned","type":"event"},{"inputs":[{"internalType":"address","name":"_tokenAddress","type":"address"},{"internalType":"string","name":"_tokenName","type":"string"},{"internalType":"uint256","name":"_category","type":"uint256"},{"internalType":"uint256","name":"_tokenId","type":"uint256"},{"components":[{"internalType":"uint256","name":"share","type":"uint256"},{"internalType":"address","name":"charityAddress","type":"address"},{"internalType":"address","name":"canClaim","type":"address"},{"internalType":"address[]","name":"nominee","type":"address[]"},{"internalType":"bool","name":"isClaimed","type":"bool"}],"internalType":"struct MultiplePriorityNominee.MultiplePriority[]","name":"data","type":"tuple[]"}],"name":"assignTokensToMultipleNominees","outputs":[],"stateMutability":"nonpayable","type":"function"},{"inputs":[{"internalType":"address","name":"_tokenAddress","type":"address"},{"internalType":"uint256","name":"_tokenCharge","type":"uint256"},{"internalType":"uint256","name":"_nftCharge","type":"uint256"},{"internalType":"uint256","name":"_percentage","type":"uint256"}],"name":"changeCharges","outputs":[],"stateMutability":"nonpayable","type":"function"},{"inputs":[],"name":"chargeTokenAddress","outputs":[{"internalType":"address","name":"","type":"address"}],"stateMutability":"view","type":"function"},{"inputs":[],"name":"charityContract","outputs":[{"internalType":"contract CharityContract","name":"","type":"address"}],"stateMutability":"view","type":"function"},{"inputs":[],"name":"charityContractAddress","outputs":[{"internalType":"address","name":"","type":"address"}],"stateMutability":"view","type":"function"},{"inputs":[{"internalType":"address","name":"_owner","type":"address"},{"internalType":"address","name":"_tokenAddress","type":"address"},{"internalType":"uint256","name":"_tokenId","type":"uint256"},{"internalType":"uint256","name":"_category","type":"uint256"}],"name":"claim","outputs":[],"stateMutability":"nonpayable","type":"function"},{"inputs":[],"name":"inheritokens","outputs":[{"internalType":"contract Inheritokens","name":"","type":"address"}],"stateMutability":"view","type":"function"},{"inputs":[],"name":"inheritokensAddress","outputs":[{"internalType":"address","name":"","type":"address"}],"stateMutability":"view","type":"function"},{"inputs":[],"name":"nftCharge","outputs":[{"internalType":"uint256","name":"","type":"uint256"}],"stateMutability":"view","type":"function"},{"inputs":[{"internalType":"address","name":"_owner","type":"address"},{"internalType":"address","name":"_tokenAddress","type":"address"},{"internalType":"uint256","name":"_tokenId","type":"uint256"}],"name":"nftTransferLogic","outputs":[],"stateMutability":"nonpayable","type":"function"},{"inputs":[],"name":"owner","outputs":[{"internalType":"address","name":"","type":"address"}],"stateMutability":"view","type":"function"},{"inputs":[{"internalType":"address","name":"","type":"address"},{"internalType":"address","name":"","type":"address"},{"internalType":"uint256","name":"","type":"uint256"},{"internalType":"uint256","name":"","type":"uint256"}],"name":"ownerToNFTToStruct","outputs":[{"internalType":"uint256","name":"share","type":"uint256"},{"internalType":"address","name":"charityAddress","type":"address"},{"internalType":"address","name":"canClaim","type":"address"},{"internalType":"bool","name":"isClaimed","type":"bool"}],"stateMutability":"view","type":"function"},{"inputs":[{"internalType":"address","name":"","type":"address"},{"internalType":"address","name":"","type":"address"},{"internalType":"uint256","name":"","type":"uint256"}],"name":"ownerToTokenToStruct","outputs":[{"internalType":"uint256","name":"share","type":"uint256"},{"internalType":"address","name":"charityAddress","type":"address"},{"internalType":"address","name":"canClaim","type":"address"},{"internalType":"bool","name":"isClaimed","type":"bool"}],"stateMutability":"view","type":"function"},{"inputs":[],"name":"percentage","outputs":[{"internalType":"uint256","name":"","type":"uint256"}],"stateMutability":"view","type":"function"},{"inputs":[{"internalType":"address","name":"_owner","type":"address"},{"internalType":"address","name":"_tokenAddress","type":"address"},{"internalType":"uint256","name":"_tokenId","type":"uint256"},{"internalType":"uint256","name":"_category","type":"uint256"}],"name":"recoveryClaim","outputs":[],"stateMutability":"nonpayable","type":"function"},{"inputs":[],"name":"renounceOwnership","outputs":[],"stateMutability":"nonpayable","type":"function"},{"inputs":[],"name":"tokenCharge","outputs":[{"internalType":"uint256","name":"","type":"uint256"}],"stateMutability":"view","type":"function"},{"inputs":[{"internalType":"address","name":"_owner","type":"address"},{"internalType":"address","name":"_tokenAddress","type":"address"},{"internalType":"uint256","name":"_share","type":"uint256"}],"name":"tokenTransferLogic","outputs":[],"stateMutability":"nonpayable","type":"function"},{"inputs":[{"internalType":"address","name":"newOwner","type":"address"}],"name":"transferOwnership","outputs":[],"stateMutability":"nonpayable","type":"function"},{"inputs":[{"internalType":"uint256","name":"_amount","type":"uint256"},{"internalType":"address","name":"_tokenAddress","type":"address"}],"name":"withdrawFromContract","outputs":[],"stateMutability":"payable","type":"function"}],"evm":{"bytecode":{"linkReferences":{},"object":"6080604052620f4240600555624c4b40600655600160075573e9dce89b076ba6107bb64ef30678efec11939234600860006101000a81548173ffffffffffffffffffffffffffffffffffffffff021916908373ffffffffffffffffffffffffffffffffffffffff1602179055503480156200007957600080fd5b50604051620045d0380380620045d083398181016040528101906200009f919062000345565b620000bf620000b36200020f60201b60201c565b6200021760201b60201c565b81600160006101000a81548173ffffffffffffffffffffffffffffffffffffffff021916908373ffffffffffffffffffffffffffffffffffffffff160217905550600160009054906101000a900473ffffffffffffffffffffffffffffffffffffffff16600260006101000a81548173ffffffffffffffffffffffffffffffffffffffff021916908373ffffffffffffffffffffffffffffffffffffffff16021790555080600360006101000a81548173ffffffffffffffffffffffffffffffffffffffff021916908373ffffffffffffffffffffffffffffffffffffffff160217905550600360009054906101000a900473ffffffffffffffffffffffffffffffffffffffff16600460006101000a81548173ffffffffffffffffffffffffffffffffffffffff021916908373ffffffffffffffffffffffffffffffffffffffff16021790555050506200038c565b600033905090565b60008060009054906101000a900473ffffffffffffffffffffffffffffffffffffffff169050816000806101000a81548173ffffffffffffffffffffffffffffffffffffffff021916908373ffffffffffffffffffffffffffffffffffffffff1602179055508173ffffffffffffffffffffffffffffffffffffffff168173ffffffffffffffffffffffffffffffffffffffff167f8be0079c531659141344cd1fd0a4f28419497f9722a3daafe3b4186f6b6457e060405160405180910390a35050565b600080fd5b600073ffffffffffffffffffffffffffffffffffffffff82169050919050565b60006200030d82620002e0565b9050919050565b6200031f8162000300565b81146200032b57600080fd5b50565b6000815190506200033f8162000314565b92915050565b600080604083850312156200035f576200035e620002db565b5b60006200036f858286016200032e565b925050602062000382858286016200032e565b9150509250929050565b614234806200039c6000396000f3fe60806040526004361061011f5760003560e01c80639605f505116100a0578063c407695b11610064578063c407695b146103a4578063c78ad77f146103cf578063f1d8eefc146103fa578063f2fde38b14610425578063f4cd54651461044e5761011f565b80639605f505146102b25780639b252023146102ce578063a64ad61f146102f9578063be27c3fe14610339578063bea7d6ac146103645761011f565b80635c042ae7116100e75780635c042ae7146101f35780635e7717751461021e578063715018a61461024757806379cf30771461025e5780638da5cb5b146102875761011f565b806303cd42481461012457806322d5dfbf1461014d57806326af48321461017657806346f171521461019f5780634ab3a732146101ca575b600080fd5b34801561013057600080fd5b5061014b6004803603810190610146919061289f565b610479565b005b34801561015957600080fd5b50610174600480360381019061016f9190612906565b6104dd565b005b34801561018257600080fd5b5061019d60048036038101906101989190612959565b610557565b005b3480156101ab57600080fd5b506101b4610ccc565b6040516101c191906129cf565b60405180910390f35b3480156101d657600080fd5b506101f160048036038101906101ec9190612959565b610cf2565b005b3480156101ff57600080fd5b50610208610ea4565b60405161021591906129cf565b60405180910390f35b34801561022a57600080fd5b5061024560048036038101906102409190612dc3565b610eca565b005b34801561025357600080fd5b5061025c61202c565b005b34801561026a57600080fd5b5061028560048036038101906102809190612906565b612040565b005b34801561029357600080fd5b5061029c612214565b6040516102a991906129cf565b60405180910390f35b6102cc60048036038101906102c79190612e76565b61223d565b005b3480156102da57600080fd5b506102e36122ce565b6040516102f09190612ec5565b60405180910390f35b34801561030557600080fd5b50610320600480360381019061031b9190612959565b6122d4565b6040516103309493929190612eef565b60405180910390f35b34801561034557600080fd5b5061034e612388565b60405161035b9190612f93565b60405180910390f35b34801561037057600080fd5b5061038b60048036038101906103869190612906565b6123ae565b60405161039b9493929190612eef565b60405180910390f35b3480156103b057600080fd5b506103b9612455565b6040516103c69190612ec5565b60405180910390f35b3480156103db57600080fd5b506103e461245b565b6040516103f19190612ec5565b60405180910390f35b34801561040657600080fd5b5061040f612461565b60405161041c91906129cf565b60405180910390f35b34801561043157600080fd5b5061044c60048036038101906104479190612fae565b612487565b005b34801561045a57600080fd5b5061046361250a565b6040516104709190612ffc565b60405180910390f35b610481612530565b83600860006101000a81548173ffffffffffffffffffffffffffffffffffffffff021916908373ffffffffffffffffffffffffffffffffffffffff16021790555082600581905550816006819055508060078190555050505050565b60008290508073ffffffffffffffffffffffffffffffffffffffff166323b872dd8533856040518463ffffffff1660e01b815260040161051f93929190613017565b600060405180830381600087803b15801561053957600080fd5b505af115801561054d573d6000803e3d6000fd5b5050505050505050565b600260009054906101000a900473ffffffffffffffffffffffffffffffffffffffff1673ffffffffffffffffffffffffffffffffffffffff16633d4c12d7856040518263ffffffff1660e01b81526004016105b291906129cf565b602060405180830381865afa1580156105cf573d6000803e3d6000fd5b505050506040513d601f19601f820116820180604052508101906105f39190613063565b610632576040517f08c379a000000000000000000000000000000000000000000000000000000000815260040161062990613113565b60405180910390fd5b600080600083036109865760005b600960008873ffffffffffffffffffffffffffffffffffffffff1673ffffffffffffffffffffffffffffffffffffffff16815260200190815260200160002060008773ffffffffffffffffffffffffffffffffffffffff1673ffffffffffffffffffffffffffffffffffffffff16815260200190815260200160002080549050811015610939573373ffffffffffffffffffffffffffffffffffffffff16600960008973ffffffffffffffffffffffffffffffffffffffff1673ffffffffffffffffffffffffffffffffffffffff16815260200190815260200160002060008873ffffffffffffffffffffffffffffffffffffffff1673ffffffffffffffffffffffffffffffffffffffff168152602001908152602001600020828154811061076c5761076b613133565b5b906000526020600020906005020160020160009054906101000a900473ffffffffffffffffffffffffffffffffffffffff1673ffffffffffffffffffffffffffffffffffffffff1603610926576000600960008973ffffffffffffffffffffffffffffffffffffffff1673ffffffffffffffffffffffffffffffffffffffff16815260200190815260200160002060008873ffffffffffffffffffffffffffffffffffffffff1673ffffffffffffffffffffffffffffffffffffffff168152602001908152602001600020828154811061084957610848613133565b5b9060005260206000209060050201600001549050610868888883612040565b6001600960008a73ffffffffffffffffffffffffffffffffffffffff1673ffffffffffffffffffffffffffffffffffffffff16815260200190815260200160002060008973ffffffffffffffffffffffffffffffffffffffff1673ffffffffffffffffffffffffffffffffffffffff16815260200190815260200160002083815481106108f8576108f7613133565b5b906000526020600020906005020160040160006101000a81548160ff02191690831515021790555060019250505b808061093190613191565b915050610640565b506000151581151503610981576040517f08c379a000000000000000000000000000000000000000000000000000000000815260040161097890613271565b60405180910390fd5b610c44565b60018303610c435760005b600960008873ffffffffffffffffffffffffffffffffffffffff1673ffffffffffffffffffffffffffffffffffffffff16815260200190815260200160002060008773ffffffffffffffffffffffffffffffffffffffff1673ffffffffffffffffffffffffffffffffffffffff16815260200190815260200160002080549050811015610bfa573373ffffffffffffffffffffffffffffffffffffffff16600a60008973ffffffffffffffffffffffffffffffffffffffff1673ffffffffffffffffffffffffffffffffffffffff16815260200190815260200160002060008873ffffffffffffffffffffffffffffffffffffffff1673ffffffffffffffffffffffffffffffffffffffff16815260200190815260200160002060008781526020019081526020016000208281548110610ace57610acd613133565b5b906000526020600020906005020160020160009054906101000a900473ffffffffffffffffffffffffffffffffffffffff1673ffffffffffffffffffffffffffffffffffffffff1603610be757610b268787876104dd565b6001600960008973ffffffffffffffffffffffffffffffffffffffff1673ffffffffffffffffffffffffffffffffffffffff16815260200190815260200160002060008873ffffffffffffffffffffffffffffffffffffffff1673ffffffffffffffffffffffffffffffffffffffff1681526020019081526020016000208281548110610bb657610bb5613133565b5b906000526020600020906005020160040160006101000a81548160ff02191690831515021790555060019150610bfa565b8080610bf290613191565b915050610991565b506000151581151503610c42576040517f08c379a0000000000000000000000000000000000000000000000000000000008152600401610c3990613271565b60405180910390fd5b5b5b8473ffffffffffffffffffffffffffffffffffffffff163373ffffffffffffffffffffffffffffffffffffffff168773ffffffffffffffffffffffffffffffffffffffff167f5ccac6a981ee0d2404d2487672d204c80cc526da4f51e90dd5ae4cfe880a9add878688604051610cbc93929190613291565b60405180910390a4505050505050565b600160009054906101000a900473ffffffffffffffffffffffffffffffffffffffff1681565b3373ffffffffffffffffffffffffffffffffffffffff16600260009054906101000a900473ffffffffffffffffffffffffffffffffffffffff1673ffffffffffffffffffffffffffffffffffffffff1663c3bb8121866040518263ffffffff1660e01b8152600401610d6491906129cf565b600060405180830381865afa158015610d81573d6000803e3d6000fd5b505050506040513d6000823e3d601f19601f82011682018060405250810190610daa91906136c6565b60e0015173ffffffffffffffffffffffffffffffffffffffff1614610e04576040517f08c379a0000000000000000000000000000000000000000000000000000000008152600401610dfb90613781565b60405180910390fd5b6000808203610e1e57610e1985856064612040565b610e34565b6000831115610e3357610e328585856104dd565b5b5b8373ffffffffffffffffffffffffffffffffffffffff168573ffffffffffffffffffffffffffffffffffffffff167faa3446f866f557932f6c5a4933379c0e3e3fd6dcc0a20cfae5222255ffd16bdd858486604051610e9593929190613291565b60405180910390a35050505050565b600860009054906101000a900473ffffffffffffffffffffffffffffffffffffffff1681565b600260009054906101000a900473ffffffffffffffffffffffffffffffffffffffff1673ffffffffffffffffffffffffffffffffffffffff16630f1f8c05336040518263ffffffff1660e01b8152600401610f2591906129cf565b602060405180830381865afa158015610f42573d6000803e3d6000fd5b505050506040513d601f19601f82011682018060405250810190610f669190613063565b610fa5576040517f08c379a0000000000000000000000000000000000000000000000000000000008152600401610f9c90613813565b60405180910390fd5b600260009054906101000a900473ffffffffffffffffffffffffffffffffffffffff1673ffffffffffffffffffffffffffffffffffffffff166315b79630336040518263ffffffff1660e01b815260040161100091906129cf565b602060405180830381865afa15801561101d573d6000803e3d6000fd5b505050506040513d601f19601f820116820180604052508101906110419190613063565b611080576040517f08c379a0000000000000000000000000000000000000000000000000000000008152600401611077906138cb565b60405180910390fd5b6000600260009054906101000a900473ffffffffffffffffffffffffffffffffffffffff1673ffffffffffffffffffffffffffffffffffffffff166320e4ab6a336040518263ffffffff1660e01b81526004016110dd91906129cf565b600060405180830381865afa1580156110fa573d6000803e3d6000fd5b505050506040513d6000823e3d601f19601f8201168201806040525081019061112391906138eb565b9050600080600260009054906101000a900473ffffffffffffffffffffffffffffffffffffffff1673ffffffffffffffffffffffffffffffffffffffff166345bceabd336040518263ffffffff1660e01b815260040161118391906129cf565b600060405180830381865afa1580156111a0573d6000803e3d6000fd5b505050506040513d6000823e3d601f19601f820116820180604052508101906111c99190613934565b9050600080600090505b85518110156114b55760005b8682815181106111f2576111f1613133565b5b60200260200101516060015151811015611312576000945060005b86518110156112b75786818151811061122957611228613133565b5b602002602001015173ffffffffffffffffffffffffffffffffffffffff1688848151811061125a57611259613133565b5b602002602001015160600151838151811061127857611277613133565b5b602002602001015173ffffffffffffffffffffffffffffffffffffffff16036112a457600195506112b7565b80806112af90613191565b91505061120d565b5060001515851515036112ff576040517f08c379a00000000000000000000000000000000000000000000000000000000081526004016112f690613a15565b60405180910390fd5b808061130a90613191565b9150506111df565b5060005b835181101561145a576000600460009054906101000a900473ffffffffffffffffffffffffffffffffffffffff1673ffffffffffffffffffffffffffffffffffffffff16637f3d39bd86848151811061137257611371613133565b5b60200260200101516040518263ffffffff1660e01b81526004016113969190612ec5565b600060405180830381865afa1580156113b3573d6000803e3d6000fd5b505050506040513d6000823e3d601f19601f820116820180604052508101906113dc9190613a35565b9091929350909150905050809150508073ffffffffffffffffffffffffffffffffffffffff1688848151811061141557611414613133565b5b60200260200101516020015173ffffffffffffffffffffffffffffffffffffffff160361144657600193505061145a565b50808061145290613191565b915050611316565b5060001515821515036114a2576040517f08c379a000000000000000000000000000000000000000000000000000000000815260040161149990613b9c565b60405180910390fd5b80806114ad90613191565b9150506111d3565b50600080880361157f57600260009054906101000a900473ffffffffffffffffffffffffffffffffffffffff1673ffffffffffffffffffffffffffffffffffffffff1663de508c5b338c6040518363ffffffff1660e01b815260040161151c929190613bbc565b600060405180830381865afa158015611539573d6000803e3d6000fd5b505050506040513d6000823e3d601f19601f820116820180604052508101906115629190613be5565b909192939450909192935090919250909150905080915050611646565b6001880361164557600260009054906101000a900473ffffffffffffffffffffffffffffffffffffffff1673ffffffffffffffffffffffffffffffffffffffff16630220044b338c8a6040518463ffffffff1660e01b81526004016115e693929190613017565b600060405180830381865afa158015611603573d6000803e3d6000fd5b505050506040513d6000823e3d601f19601f8201168201806040525081019061162c9190613be5565b9091929394509091929350909192509091509050809150505b5b600080600090505b87518110156116965787818151811061166a57611669613133565b5b602002602001015160000151826116819190613c8e565b9150808061168e90613191565b91505061164e565b5060648111156116db576040517f08c379a00000000000000000000000000000000000000000000000000000000081526004016116d290613d5a565b60405180910390fd5b8161177c57600260009054906101000a900473ffffffffffffffffffffffffffffffffffffffff1673ffffffffffffffffffffffffffffffffffffffff166325cb763a338d8d8d868e6040518763ffffffff1660e01b815260040161174596959493929190613dbe565b600060405180830381600087803b15801561175f57600080fd5b505af1158015611773573d6000803e3d6000fd5b50505050611ba2565b6000600860009054906101000a900473ffffffffffffffffffffffffffffffffffffffff16905060008a0361197b576005548173ffffffffffffffffffffffffffffffffffffffff1663dd62ed3e33306040518363ffffffff1660e01b81526004016117e9929190613bbc565b602060405180830381865afa158015611806573d6000803e3d6000fd5b505050506040513d601f19601f8201168201806040525081019061182a9190613e26565b101561186b576040517f08c379a000000000000000000000000000000000000000000000000000000000815260040161186290613ec5565b60405180910390fd5b8073ffffffffffffffffffffffffffffffffffffffff166323b872dd33306005546040518463ffffffff1660e01b81526004016118aa93929190613017565b6020604051808303816000875af11580156118c9573d6000803e3d6000fd5b505050506040513d601f19601f820116820180604052508101906118ed9190613063565b50600960003373ffffffffffffffffffffffffffffffffffffffff1673ffffffffffffffffffffffffffffffffffffffff16815260200190815260200160002060008d73ffffffffffffffffffffffffffffffffffffffff1673ffffffffffffffffffffffffffffffffffffffff1681526020019081526020016000206000611976919061267a565b611ba0565b60018a03611b64576006548173ffffffffffffffffffffffffffffffffffffffff1663dd62ed3e33306040518363ffffffff1660e01b81526004016119c1929190613bbc565b602060405180830381865afa1580156119de573d6000803e3d6000fd5b505050506040513d601f19601f82011682018060405250810190611a029190613e26565b1015611a43576040517f08c379a0000000000000000000000000000000000000000000000000000000008152600401611a3a90613ec5565b60405180910390fd5b8073ffffffffffffffffffffffffffffffffffffffff166323b872dd33306006546040518463ffffffff1660e01b8152600401611a8293929190613017565b6020604051808303816000875af1158015611aa1573d6000803e3d6000fd5b505050506040513d601f19601f82011682018060405250810190611ac59190613063565b50600a60003373ffffffffffffffffffffffffffffffffffffffff1673ffffffffffffffffffffffffffffffffffffffff16815260200190815260200160002060008d73ffffffffffffffffffffffffffffffffffffffff1673ffffffffffffffffffffffffffffffffffffffff16815260200190815260200160002060008a81526020019081526020016000206000611b5f919061267a565b611b9f565b6040517f08c379a0000000000000000000000000000000000000000000000000000000008152600401611b9690613f57565b60405180910390fd5b5b505b600260009054906101000a900473ffffffffffffffffffffffffffffffffffffffff1673ffffffffffffffffffffffffffffffffffffffff1663b69bd77f338d8b858e6040518663ffffffff1660e01b8152600401611c05959493929190613f77565b600060405180830381600087803b158015611c1f57600080fd5b505af1158015611c33573d6000803e3d6000fd5b5050505060008903611dfb5760005b8751811015611df557600960003373ffffffffffffffffffffffffffffffffffffffff1673ffffffffffffffffffffffffffffffffffffffff16815260200190815260200160002060008d73ffffffffffffffffffffffffffffffffffffffff1673ffffffffffffffffffffffffffffffffffffffff168152602001908152602001600020888281518110611cda57611cd9613133565b5b602002602001015190806001815401808255809150506001900390600052602060002090600502016000909190919091506000820151816000015560208201518160010160006101000a81548173ffffffffffffffffffffffffffffffffffffffff021916908373ffffffffffffffffffffffffffffffffffffffff16021790555060408201518160020160006101000a81548173ffffffffffffffffffffffffffffffffffffffff021916908373ffffffffffffffffffffffffffffffffffffffff1602179055506060820151816003019080519060200190611dbf92919061269e565b5060808201518160040160006101000a81548160ff02191690831515021790555050508080611ded90613191565b915050611c42565b50611fcd565b60018903611fcc5760005b8751811015611fca57600a60003373ffffffffffffffffffffffffffffffffffffffff1673ffffffffffffffffffffffffffffffffffffffff16815260200190815260200160002060008d73ffffffffffffffffffffffffffffffffffffffff1673ffffffffffffffffffffffffffffffffffffffff16815260200190815260200160002060008a8152602001908152602001600020888281518110611eaf57611eae613133565b5b602002602001015190806001815401808255809150506001900390600052602060002090600502016000909190919091506000820151816000015560208201518160010160006101000a81548173ffffffffffffffffffffffffffffffffffffffff021916908373ffffffffffffffffffffffffffffffffffffffff16021790555060408201518160020160006101000a81548173ffffffffffffffffffffffffffffffffffffffff021916908373ffffffffffffffffffffffffffffffffffffffff1602179055506060820151816003019080519060200190611f9492919061269e565b5060808201518160040160006101000a81548160ff02191690831515021790555050508080611fc290613191565b915050611e06565b505b5b3373ffffffffffffffffffffffffffffffffffffffff167f356b94cb07d152dfb4f8876f9a6f4c7007027dd30aecb0ac9b698849e14e0e718c8a8c60405161201793929190613fca565b60405180910390a25050505050505050505050565b612034612530565b61203e60006125ae565b565b600082905060006064838373ffffffffffffffffffffffffffffffffffffffff166370a08231886040518263ffffffff1660e01b815260040161208391906129cf565b602060405180830381865afa1580156120a0573d6000803e3d6000fd5b505050506040513d601f19601f820116820180604052508101906120c49190613e26565b6120ce9190614001565b6120d89190614072565b90506000612710600754836120ed9190614001565b6120f79190614072565b90506000818361210791906140a3565b90508373ffffffffffffffffffffffffffffffffffffffff166323b872dd8830856040518463ffffffff1660e01b815260040161214693929190613017565b6020604051808303816000875af1158015612165573d6000803e3d6000fd5b505050506040513d601f19601f820116820180604052508101906121899190613063565b508373ffffffffffffffffffffffffffffffffffffffff166323b872dd8833846040518463ffffffff1660e01b81526004016121c793929190613017565b6020604051808303816000875af11580156121e6573d6000803e3d6000fd5b505050506040513d601f19601f8201168201806040525081019061220a9190613063565b5050505050505050565b60008060009054906101000a900473ffffffffffffffffffffffffffffffffffffffff16905090565b612245612530565b60008190508073ffffffffffffffffffffffffffffffffffffffff1663a9059cbb33856040518363ffffffff1660e01b81526004016122859291906140d7565b6020604051808303816000875af11580156122a4573d6000803e3d6000fd5b505050506040513d601f19601f820116820180604052508101906122c89190613063565b50505050565b60055481565b600a602052836000526040600020602052826000526040600020602052816000526040600020818154811061230857600080fd5b90600052602060002090600502016000935093505050508060000154908060010160009054906101000a900473ffffffffffffffffffffffffffffffffffffffff16908060020160009054906101000a900473ffffffffffffffffffffffffffffffffffffffff16908060040160009054906101000a900460ff16905084565b600260009054906101000a900473ffffffffffffffffffffffffffffffffffffffff1681565b600960205282600052604060002060205281600052604060002081815481106123d657600080fd5b906000526020600020906005020160009250925050508060000154908060010160009054906101000a900473ffffffffffffffffffffffffffffffffffffffff16908060020160009054906101000a900473ffffffffffffffffffffffffffffffffffffffff16908060040160009054906101000a900460ff16905084565b60065481565b60075481565b600360009054906101000a900473ffffffffffffffffffffffffffffffffffffffff1681565b61248f612530565b600073ffffffffffffffffffffffffffffffffffffffff168173ffffffffffffffffffffffffffffffffffffffff16036124fe576040517f08c379a00000000000000000000000000000000000000000000000000000000081526004016124f590614172565b60405180910390fd5b612507816125ae565b50565b600460009054906101000a900473ffffffffffffffffffffffffffffffffffffffff1681565b612538612672565b73ffffffffffffffffffffffffffffffffffffffff16612556612214565b73ffffffffffffffffffffffffffffffffffffffff16146125ac576040517f08c379a00000000000000000000000000000000000000000000000000000000081526004016125a3906141de565b60405180910390fd5b565b60008060009054906101000a900473ffffffffffffffffffffffffffffffffffffffff169050816000806101000a81548173ffffffffffffffffffffffffffffffffffffffff021916908373ffffffffffffffffffffffffffffffffffffffff1602179055508173ffffffffffffffffffffffffffffffffffffffff168173ffffffffffffffffffffffffffffffffffffffff167f8be0079c531659141344cd1fd0a4f28419497f9722a3daafe3b4186f6b6457e060405160405180910390a35050565b600033905090565b508054600082556005029060005260206000209081019061269b9190612728565b50565b828054828255906000526020600020908101928215612717579160200282015b828111156127165782518260006101000a81548173ffffffffffffffffffffffffffffffffffffffff021916908373ffffffffffffffffffffffffffffffffffffffff160217905550916020019190600101906126be565b5b50905061272491906127b9565b5090565b5b808211156127b5576000808201600090556001820160006101000a81549073ffffffffffffffffffffffffffffffffffffffff02191690556002820160006101000a81549073ffffffffffffffffffffffffffffffffffffffff021916905560038201600061279891906127d6565b6004820160006101000a81549060ff021916905550600501612729565b5090565b5b808211156127d25760008160009055506001016127ba565b5090565b50805460008255906000526020600020908101906127f491906127b9565b50565b6000604051905090565b600080fd5b600080fd5b600073ffffffffffffffffffffffffffffffffffffffff82169050919050565b60006128368261280b565b9050919050565b6128468161282b565b811461285157600080fd5b50565b6000813590506128638161283d565b92915050565b6000819050919050565b61287c81612869565b811461288757600080fd5b50565b60008135905061289981612873565b92915050565b600080600080608085870312156128b9576128b8612801565b5b60006128c787828801612854565b94505060206128d88782880161288a565b93505060406128e98782880161288a565b92505060606128fa8782880161288a565b91505092959194509250565b60008060006060848603121561291f5761291e612801565b5b600061292d86828701612854565b935050602061293e86828701612854565b925050604061294f8682870161288a565b9150509250925092565b6000806000806080858703121561297357612972612801565b5b600061298187828801612854565b945050602061299287828801612854565b93505060406129a38782880161288a565b92505060606129b48782880161288a565b91505092959194509250565b6129c98161282b565b82525050565b60006020820190506129e460008301846129c0565b92915050565b600080fd5b600080fd5b6000601f19601f8301169050919050565b7f4e487b7100000000000000000000000000000000000000000000000000000000600052604160045260246000fd5b612a3d826129f4565b810181811067ffffffffffffffff82111715612a5c57612a5b612a05565b5b80604052505050565b6000612a6f6127f7565b9050612a7b8282612a34565b919050565b600067ffffffffffffffff821115612a9b57612a9a612a05565b5b612aa4826129f4565b9050602081019050919050565b82818337600083830152505050565b6000612ad3612ace84612a80565b612a65565b905082815260208101848484011115612aef57612aee6129ef565b5b612afa848285612ab1565b509392505050565b600082601f830112612b1757612b166129ea565b5b8135612b27848260208601612ac0565b91505092915050565b600067ffffffffffffffff821115612b4b57612b4a612a05565b5b602082029050602081019050919050565b600080fd5b600080fd5b600080fd5b600067ffffffffffffffff821115612b8657612b85612a05565b5b602082029050602081019050919050565b6000612baa612ba584612b6b565b612a65565b90508083825260208201905060208402830185811115612bcd57612bcc612b5c565b5b835b81811015612bf65780612be28882612854565b845260208401935050602081019050612bcf565b5050509392505050565b600082601f830112612c1557612c146129ea565b5b8135612c25848260208601612b97565b91505092915050565b60008115159050919050565b612c4381612c2e565b8114612c4e57600080fd5b50565b600081359050612c6081612c3a565b92915050565b600060a08284031215612c7c57612c7b612b61565b5b612c8660a0612a65565b90506000612c968482850161288a565b6000830152506020612caa84828501612854565b6020830152506040612cbe84828501612854565b604083015250606082013567ffffffffffffffff811115612ce257612ce1612b66565b5b612cee84828501612c00565b6060830152506080612d0284828501612c51565b60808301525092915050565b6000612d21612d1c84612b30565b612a65565b90508083825260208201905060208402830185811115612d4457612d43612b5c565b5b835b81811015612d8b57803567ffffffffffffffff811115612d6957612d686129ea565b5b808601612d768982612c66565b85526020850194505050602081019050612d46565b5050509392505050565b600082601f830112612daa57612da96129ea565b5b8135612dba848260208601612d0e565b91505092915050565b600080600080600060a08688031215612ddf57612dde612801565b5b6000612ded88828901612854565b955050602086013567ffffffffffffffff811115612e0e57612e0d612806565b5b612e1a88828901612b02565b9450506040612e2b8882890161288a565b9350506060612e3c8882890161288a565b925050608086013567ffffffffffffffff811115612e5d57612e5c612806565b5b612e6988828901612d95565b9150509295509295909350565b60008060408385031215612e8d57612e8c612801565b5b6000612e9b8582860161288a565b9250506020612eac85828601612854565b9150509250929050565b612ebf81612869565b82525050565b6000602082019050612eda6000830184612eb6565b92915050565b612ee981612c2e565b82525050565b6000608082019050612f046000830187612eb6565b612f1160208301866129c0565b612f1e60408301856129c0565b612f2b6060830184612ee0565b95945050505050565b6000819050919050565b6000612f59612f54612f4f8461280b565b612f34565b61280b565b9050919050565b6000612f6b82612f3e565b9050919050565b6000612f7d82612f60565b9050919050565b612f8d81612f72565b82525050565b6000602082019050612fa86000830184612f84565b92915050565b600060208284031215612fc457612fc3612801565b5b6000612fd284828501612854565b91505092915050565b6000612fe682612f60565b9050919050565b612ff681612fdb565b82525050565b60006020820190506130116000830184612fed565b92915050565b600060608201905061302c60008301866129c0565b61303960208301856129c0565b6130466040830184612eb6565b949350505050565b60008151905061305d81612c3a565b92915050565b60006020828403121561307957613078612801565b5b60006130878482850161304e565b91505092915050565b600082825260208201905092915050565b7f536f7272792120596f752063616e277420636c61696d20746869732e2057652060008201527f77696c6c206d61696c20796f7520746f20636c61696d20746869732e00000000602082015250565b60006130fd603c83613090565b9150613108826130a1565b604082019050919050565b6000602082019050818103600083015261312c816130f0565b9050919050565b7f4e487b7100000000000000000000000000000000000000000000000000000000600052603260045260246000fd5b7f4e487b7100000000000000000000000000000000000000000000000000000000600052601160045260246000fd5b600061319c82612869565b91507fffffffffffffffffffffffffffffffffffffffffffffffffffffffffffffffff82036131ce576131cd613162565b5b600182019050919050565b7f4f6f70732120596f752063616e277420636c61696d207468697320726967687460008201527f206e6f772e2057652077696c6c20696e666f726d20796f75207768656e20796f60208201527f752063616e20636c61696d2074686520746f6b656e2e00000000000000000000604082015250565b600061325b605683613090565b9150613266826131d9565b606082019050919050565b6000602082019050818103600083015261328a8161324e565b9050919050565b60006060820190506132a66000830186612eb6565b6132b36020830185612eb6565b6132c06040830184612eb6565b949350505050565b60005b838110156132e65780820151818401526020810190506132cb565b60008484015250505050565b600061330561330084612a80565b612a65565b905082815260208101848484011115613321576133206129ef565b5b61332c8482856132c8565b509392505050565b600082601f830112613349576133486129ea565b5b81516133598482602086016132f2565b91505092915050565b6000815190506133718161283d565b92915050565b600061338a61338584612b6b565b612a65565b905080838252602082019050602084028301858111156133ad576133ac612b5c565b5b835b818110156133d657806133c28882613362565b8452602084019350506020810190506133af565b5050509392505050565b600082601f8301126133f5576133f46129ea565b5b8151613405848260208601613377565b91505092915050565b600067ffffffffffffffff82111561342957613428612a05565b5b602082029050602081019050919050565b60008151905061344981612873565b92915050565b600061346261345d8461340e565b612a65565b9050808382526020820190506020840283018581111561348557613484612b5c565b5b835b818110156134ae578061349a888261343a565b845260208401935050602081019050613487565b5050509392505050565b600082601f8301126134cd576134cc6129ea565b5b81516134dd84826020860161344f565b91505092915050565b60006101a082840312156134fd576134fc612b61565b5b6135086101a0612a65565b9050600082015167ffffffffffffffff81111561352857613527612b66565b5b61353484828501613334565b600083015250602082015167ffffffffffffffff81111561355857613557612b66565b5b61356484828501613334565b602083015250604082015167ffffffffffffffff81111561358857613587612b66565b5b61359484828501613334565b604083015250606082015167ffffffffffffffff8111156135b8576135b7612b66565b5b6135c484828501613334565b60608301525060806135d88482850161304e565b60808301525060a06135ec8482850161304e565b60a08301525060c06136008482850161304e565b60c08301525060e061361484828501613362565b60e08301525061010082015167ffffffffffffffff81111561363957613638612b66565b5b613645848285016133e0565b6101008301525061012082015167ffffffffffffffff81111561366b5761366a612b66565b5b613677848285016134b8565b6101208301525061014061368d8482850161343a565b610140830152506101606136a38482850161343a565b610160830152506101806136b98482850161343a565b6101808301525092915050565b6000602082840312156136dc576136db612801565b5b600082015167ffffffffffffffff8111156136fa576136f9612806565b5b613706848285016134e6565b91505092915050565b7f546865207265636f766572792061646472657373206f72206f776e657220616460008201527f647265737320697320696e636f72726563742100000000000000000000000000602082015250565b600061376b603383613090565b91506137768261370f565b604082019050919050565b6000602082019050818103600083015261379a8161375e565b9050919050565b7f596f75206d757374206669727374207369676e20757020666f7220616e20616360008201527f636f756e742e0000000000000000000000000000000000000000000000000000602082015250565b60006137fd602683613090565b9150613808826137a1565b604082019050919050565b6000602082019050818103600083015261382c816137f0565b9050919050565b7f596f757220656d61696c20686173206e6f7420796574206265656e2076616c6960008201527f64617465642e2056657269667920796f7572207265676973746572656420656d60208201527f61696c20616464726573732066697273742e0000000000000000000000000000604082015250565b60006138b5605283613090565b91506138c082613833565b606082019050919050565b600060208201905081810360008301526138e4816138a8565b9050919050565b60006020828403121561390157613900612801565b5b600082015167ffffffffffffffff81111561391f5761391e612806565b5b61392b848285016133e0565b91505092915050565b60006020828403121561394a57613949612801565b5b600082015167ffffffffffffffff81111561396857613967612806565b5b613974848285016134b8565b91505092915050565b7f436865636b207468617420616c6c20746865206e6f6d696e65657320796f752060008201527f617265206e6f6d696e6174696e6720617265206164646564206173206e6f6d6960208201527f6e6565732e000000000000000000000000000000000000000000000000000000604082015250565b60006139ff604583613090565b9150613a0a8261397d565b606082019050919050565b60006020820190508181036000830152613a2e816139f2565b9050919050565b600080600080600060a08688031215613a5157613a50612801565b5b6000613a5f8882890161343a565b9550506020613a7088828901613362565b945050604086015167ffffffffffffffff811115613a9157613a90612806565b5b613a9d88828901613334565b935050606086015167ffffffffffffffff811115613abe57613abd612806565b5b613aca88828901613334565b925050608086015167ffffffffffffffff811115613aeb57613aea612806565b5b613af788828901613334565b9150509295509295909350565b7f436865636b207468617420746865206368617269747920796f7520617265206e60008201527f6f6d696e6174696e67206973206c697374656420617320612077686974652d6c60208201527f697374656420636861726974792e000000000000000000000000000000000000604082015250565b6000613b86604e83613090565b9150613b9182613b04565b606082019050919050565b60006020820190508181036000830152613bb581613b79565b9050919050565b6000604082019050613bd160008301856129c0565b613bde60208301846129c0565b9392505050565b60008060008060008060c08789031215613c0257613c01612801565b5b6000613c1089828a01613362565b965050602087015167ffffffffffffffff811115613c3157613c30612806565b5b613c3d89828a01613334565b9550506040613c4e89828a0161343a565b9450506060613c5f89828a0161343a565b9350506080613c7089828a0161343a565b92505060a0613c8189828a0161304e565b9150509295509295509295565b6000613c9982612869565b9150613ca483612869565b9250828201905080821115613cbc57613cbb613162565b5b92915050565b7f4f6f70732120596f752063616e206f6e6c7920616c6c6f63617465206120313060008201527f30252073686172652e2054727920746f2072656475636520746865207368617260208201527f6520616d6f756e742e0000000000000000000000000000000000000000000000604082015250565b6000613d44604983613090565b9150613d4f82613cc2565b606082019050919050565b60006020820190508181036000830152613d7381613d37565b9050919050565b600081519050919050565b6000613d9082613d7a565b613d9a8185613090565b9350613daa8185602086016132c8565b613db3816129f4565b840191505092915050565b600060c082019050613dd360008301896129c0565b613de060208301886129c0565b8181036040830152613df28187613d85565b9050613e016060830186612eb6565b613e0e6080830185612eb6565b613e1b60a0830184612eb6565b979650505050505050565b600060208284031215613e3c57613e3b612801565b5b6000613e4a8482850161343a565b91505092915050565b7f54686520616c6c6f77616e636520746f2074686520636f6e747261637420697360008201527f206e6f7420656e6f756768210000000000000000000000000000000000000000602082015250565b6000613eaf602c83613090565b9150613eba82613e53565b604082019050919050565b60006020820190508181036000830152613ede81613ea2565b9050919050565b7f5468652063617465676f72792076616c7565206d757374206265203020666f7260008201527f20746f6b656e7320616e64203120666f72204e46542e00000000000000000000602082015250565b6000613f41603683613090565b9150613f4c82613ee5565b604082019050919050565b60006020820190508181036000830152613f7081613f34565b9050919050565b600060a082019050613f8c60008301886129c0565b613f9960208301876129c0565b613fa66040830186612eb6565b613fb36060830185612eb6565b613fc06080830184612eb6565b9695505050505050565b6000606082019050613fdf60008301866129c0565b613fec6020830185612eb6565b613ff96040830184612eb6565b949350505050565b600061400c82612869565b915061401783612869565b925082820261402581612869565b9150828204841483151761403c5761403b613162565b5b5092915050565b7f4e487b7100000000000000000000000000000000000000000000000000000000600052601260045260246000fd5b600061407d82612869565b915061408883612869565b92508261409857614097614043565b5b828204905092915050565b60006140ae82612869565b91506140b983612869565b92508282039050818111156140d1576140d0613162565b5b92915050565b60006040820190506140ec60008301856129c0565b6140f96020830184612eb6565b9392505050565b7f4f776e61626c653a206e6577206f776e657220697320746865207a65726f206160008201527f6464726573730000000000000000000000000000000000000000000000000000602082015250565b600061415c602683613090565b915061416782614100565b604082019050919050565b6000602082019050818103600083015261418b8161414f565b9050919050565b7f4f776e61626c653a2063616c6c6572206973206e6f7420746865206f776e6572600082015250565b60006141c8602083613090565b91506141d382614192565b602082019050919050565b600060208201905081810360008301526141f7816141bb565b905091905056fea264697066735822122060386ba75b89cbd64b3ab3f4f0d21824d9395cfcf914b4342192217665b01f4664736f6c63430008110033","opcodes":"PUSH1 0x80 PUSH1 0x40 MSTORE PUSH3 0xF4240 PUSH1 0x5 SSTORE PUSH3 0x4C4B40 PUSH1 0x6 SSTORE PUSH1 0x1 PUSH1 0x7 SSTORE PUSH20 0xE9DCE89B076BA6107BB64EF30678EFEC11939234 PUSH1 0x8 PUSH1 0x0 PUSH2 0x100 EXP DUP2 SLOAD DUP2 PUSH20 0xFFFFFFFFFFFFFFFFFFFFFFFFFFFFFFFFFFFFFFFF MUL NOT AND SWAP1 DUP4 PUSH20 0xFFFFFFFFFFFFFFFFFFFFFFFFFFFFFFFFFFFFFFFF AND MUL OR SWAP1 SSTORE POP CALLVALUE DUP1 ISZERO PUSH3 0x79 JUMPI PUSH1 0x0 DUP1 REVERT JUMPDEST POP PUSH1 0x40 MLOAD PUSH3 0x45D0 CODESIZE SUB DUP1 PUSH3 0x45D0 DUP4 CODECOPY DUP2 DUP2 ADD PUSH1 0x40 MSTORE DUP2 ADD SWAP1 PUSH3 0x9F SWAP2 SWAP1 PUSH3 0x345 JUMP JUMPDEST PUSH3 0xBF PUSH3 0xB3 PUSH3 0x20F PUSH1 0x20 SHL PUSH1 0x20 SHR JUMP JUMPDEST PUSH3 0x217 PUSH1 0x20 SHL PUSH1 0x20 SHR JUMP JUMPDEST DUP2 PUSH1 0x1 PUSH1 0x0 PUSH2 0x100 EXP DUP2 SLOAD DUP2 PUSH20 0xFFFFFFFFFFFFFFFFFFFFFFFFFFFFFFFFFFFFFFFF MUL NOT AND SWAP1 DUP4 PUSH20 0xFFFFFFFFFFFFFFFFFFFFFFFFFFFFFFFFFFFFFFFF AND MUL OR SWAP1 SSTORE POP PUSH1 0x1 PUSH1 0x0 SWAP1 SLOAD SWAP1 PUSH2 0x100 EXP SWAP1 DIV PUSH20 0xFFFFFFFFFFFFFFFFFFFFFFFFFFFFFFFFFFFFFFFF AND PUSH1 0x2 PUSH1 0x0 PUSH2 0x100 EXP DUP2 SLOAD DUP2 PUSH20 0xFFFFFFFFFFFFFFFFFFFFFFFFFFFFFFFFFFFFFFFF MUL NOT AND SWAP1 DUP4 PUSH20 0xFFFFFFFFFFFFFFFFFFFFFFFFFFFFFFFFFFFFFFFF AND MUL OR SWAP1 SSTORE POP DUP1 PUSH1 0x3 PUSH1 0x0 PUSH2 0x100 EXP DUP2 SLOAD DUP2 PUSH20 0xFFFFFFFFFFFFFFFFFFFFFFFFFFFFFFFFFFFFFFFF MUL NOT AND SWAP1 DUP4 PUSH20 0xFFFFFFFFFFFFFFFFFFFFFFFFFFFFFFFFFFFFFFFF AND MUL OR SWAP1 SSTORE POP PUSH1 0x3 PUSH1 0x0 SWAP1 SLOAD SWAP1 PUSH2 0x100 EXP SWAP1 DIV PUSH20 0xFFFFFFFFFFFFFFFFFFFFFFFFFFFFFFFFFFFFFFFF AND PUSH1 0x4 PUSH1 0x0 PUSH2 0x100 EXP DUP2 SLOAD DUP2 PUSH20 0xFFFFFFFFFFFFFFFFFFFFFFFFFFFFFFFFFFFFFFFF MUL NOT AND SWAP1 DUP4 PUSH20 0xFFFFFFFFFFFFFFFFFFFFFFFFFFFFFFFFFFFFFFFF AND MUL OR SWAP1 SSTORE POP POP POP PUSH3 0x38C JUMP JUMPDEST PUSH1 0x0 CALLER SWAP1 POP SWAP1 JUMP JUMPDEST PUSH1 0x0 DUP1 PUSH1 0x0 SWAP1 SLOAD SWAP1 PUSH2 0x100 EXP SWAP1 DIV PUSH20 0xFFFFFFFFFFFFFFFFFFFFFFFFFFFFFFFFFFFFFFFF AND SWAP1 POP DUP2 PUSH1 0x0 DUP1 PUSH2 0x100 EXP DUP2 SLOAD DUP2 PUSH20 0xFFFFFFFFFFFFFFFFFFFFFFFFFFFFFFFFFFFFFFFF MUL NOT AND SWAP1 DUP4 PUSH20 0xFFFFFFFFFFFFFFFFFFFFFFFFFFFFFFFFFFFFFFFF AND MUL OR SWAP1 SSTORE POP DUP2 PUSH20 0xFFFFFFFFFFFFFFFFFFFFFFFFFFFFFFFFFFFFFFFF AND DUP2 PUSH20 0xFFFFFFFFFFFFFFFFFFFFFFFFFFFFFFFFFFFFFFFF AND PUSH32 0x8BE0079C531659141344CD1FD0A4F28419497F9722A3DAAFE3B4186F6B6457E0 PUSH1 0x40 MLOAD PUSH1 0x40 MLOAD DUP1 SWAP2 SUB SWAP1 LOG3 POP POP JUMP JUMPDEST PUSH1 0x0 DUP1 REVERT JUMPDEST PUSH1 0x0 PUSH20 0xFFFFFFFFFFFFFFFFFFFFFFFFFFFFFFFFFFFFFFFF DUP3 AND SWAP1 POP SWAP2 SWAP1 POP JUMP JUMPDEST PUSH1 0x0 PUSH3 0x30D DUP3 PUSH3 0x2E0 JUMP JUMPDEST SWAP1 POP SWAP2 SWAP1 POP JUMP JUMPDEST PUSH3 0x31F DUP2 PUSH3 0x300 JUMP JUMPDEST DUP2 EQ PUSH3 0x32B JUMPI PUSH1 0x0 DUP1 REVERT JUMPDEST POP JUMP JUMPDEST PUSH1 0x0 DUP2 MLOAD SWAP1 POP PUSH3 0x33F DUP2 PUSH3 0x314 JUMP JUMPDEST SWAP3 SWAP2 POP POP JUMP JUMPDEST PUSH1 0x0 DUP1 PUSH1 0x40 DUP4 DUP6 SUB SLT ISZERO PUSH3 0x35F JUMPI PUSH3 0x35E PUSH3 0x2DB JUMP JUMPDEST JUMPDEST PUSH1 0x0 PUSH3 0x36F DUP6 DUP3 DUP7 ADD PUSH3 0x32E JUMP JUMPDEST SWAP3 POP POP PUSH1 0x20 PUSH3 0x382 DUP6 DUP3 DUP7 ADD PUSH3 0x32E JUMP JUMPDEST SWAP2 POP POP SWAP3 POP SWAP3 SWAP1 POP JUMP JUMPDEST PUSH2 0x4234 DUP1 PUSH3 0x39C PUSH1 0x0 CODECOPY PUSH1 0x0 RETURN INVALID PUSH1 0x80 PUSH1 0x40 MSTORE PUSH1 0x4 CALLDATASIZE LT PUSH2 0x11F JUMPI PUSH1 0x0 CALLDATALOAD PUSH1 0xE0 SHR DUP1 PUSH4 0x9605F505 GT PUSH2 0xA0 JUMPI DUP1 PUSH4 0xC407695B GT PUSH2 0x64 JUMPI DUP1 PUSH4 0xC407695B EQ PUSH2 0x3A4 JUMPI DUP1 PUSH4 0xC78AD77F EQ PUSH2 0x3CF JUMPI DUP1 PUSH4 0xF1D8EEFC EQ PUSH2 0x3FA JUMPI DUP1 PUSH4 0xF2FDE38B EQ PUSH2 0x425 JUMPI DUP1 PUSH4 0xF4CD5465 EQ PUSH2 0x44E JUMPI PUSH2 0x11F JUMP JUMPDEST DUP1 PUSH4 0x9605F505 EQ PUSH2 0x2B2 JUMPI DUP1 PUSH4 0x9B252023 EQ PUSH2 0x2CE JUMPI DUP1 PUSH4 0xA64AD61F EQ PUSH2 0x2F9 JUMPI DUP1 PUSH4 0xBE27C3FE EQ PUSH2 0x339 JUMPI DUP1 PUSH4 0xBEA7D6AC EQ PUSH2 0x364 JUMPI PUSH2 0x11F JUMP JUMPDEST DUP1 PUSH4 0x5C042AE7 GT PUSH2 0xE7 JUMPI DUP1 PUSH4 0x5C042AE7 EQ PUSH2 0x1F3 JUMPI DUP1 PUSH4 0x5E771775 EQ PUSH2 0x21E JUMPI DUP1 PUSH4 0x715018A6 EQ PUSH2 0x247 JUMPI DUP1 PUSH4 0x79CF3077 EQ PUSH2 0x25E JUMPI DUP1 PUSH4 0x8DA5CB5B EQ PUSH2 0x287 JUMPI PUSH2 0x11F JUMP JUMPDEST DUP1 PUSH4 0x3CD4248 EQ PUSH2 0x124 JUMPI DUP1 PUSH4 0x22D5DFBF EQ PUSH2 0x14D JUMPI DUP1 PUSH4 0x26AF4832 EQ PUSH2 0x176 JUMPI DUP1 PUSH4 0x46F17152 EQ PUSH2 0x19F JUMPI DUP1 PUSH4 0x4AB3A732 EQ PUSH2 0x1CA JUMPI JUMPDEST PUSH1 0x0 DUP1 REVERT JUMPDEST CALLVALUE DUP1 ISZERO PUSH2 0x130 JUMPI PUSH1 0x0 DUP1 REVERT JUMPDEST POP PUSH2 0x14B PUSH1 0x4 DUP1 CALLDATASIZE SUB DUP2 ADD SWAP1 PUSH2 0x146 SWAP2 SWAP1 PUSH2 0x289F JUMP JUMPDEST PUSH2 0x479 JUMP JUMPDEST STOP JUMPDEST CALLVALUE DUP1 ISZERO PUSH2 0x159 JUMPI PUSH1 0x0 DUP1 REVERT JUMPDEST POP PUSH2 0x174 PUSH1 0x4 DUP1 CALLDATASIZE SUB DUP2 ADD SWAP1 PUSH2 0x16F SWAP2 SWAP1 PUSH2 0x2906 JUMP JUMPDEST PUSH2 0x4DD JUMP JUMPDEST STOP JUMPDEST CALLVALUE DUP1 ISZERO PUSH2 0x182 JUMPI PUSH1 0x0 DUP1 REVERT JUMPDEST POP PUSH2 0x19D PUSH1 0x4 DUP1 CALLDATASIZE SUB DUP2 ADD SWAP1 PUSH2 0x198 SWAP2 SWAP1 PUSH2 0x2959 JUMP JUMPDEST PUSH2 0x557 JUMP JUMPDEST STOP JUMPDEST CALLVALUE DUP1 ISZERO PUSH2 0x1AB JUMPI PUSH1 0x0 DUP1 REVERT JUMPDEST POP PUSH2 0x1B4 PUSH2 0xCCC JUMP JUMPDEST PUSH1 0x40 MLOAD PUSH2 0x1C1 SWAP2 SWAP1 PUSH2 0x29CF JUMP JUMPDEST PUSH1 0x40 MLOAD DUP1 SWAP2 SUB SWAP1 RETURN JUMPDEST CALLVALUE DUP1 ISZERO PUSH2 0x1D6 JUMPI PUSH1 0x0 DUP1 REVERT JUMPDEST POP PUSH2 0x1F1 PUSH1 0x4 DUP1 CALLDATASIZE SUB DUP2 ADD SWAP1 PUSH2 0x1EC SWAP2 SWAP1 PUSH2 0x2959 JUMP JUMPDEST PUSH2 0xCF2 JUMP JUMPDEST STOP JUMPDEST CALLVALUE DUP1 ISZERO PUSH2 0x1FF JUMPI PUSH1 0x0 DUP1 REVERT JUMPDEST POP PUSH2 0x208 PUSH2 0xEA4 JUMP JUMPDEST PUSH1 0x40 MLOAD PUSH2 0x215 SWAP2 SWAP1 PUSH2 0x29CF JUMP JUMPDEST PUSH1 0x40 MLOAD DUP1 SWAP2 SUB SWAP1 RETURN JUMPDEST CALLVALUE DUP1 ISZERO PUSH2 0x22A JUMPI PUSH1 0x0 DUP1 REVERT JUMPDEST POP PUSH2 0x245 PUSH1 0x4 DUP1 CALLDATASIZE SUB DUP2 ADD SWAP1 PUSH2 0x240 SWAP2 SWAP1 PUSH2 0x2DC3 JUMP JUMPDEST PUSH2 0xECA JUMP JUMPDEST STOP JUMPDEST CALLVALUE DUP1 ISZERO PUSH2 0x253 JUMPI PUSH1 0x0 DUP1 REVERT JUMPDEST POP PUSH2 0x25C PUSH2 0x202C JUMP JUMPDEST STOP JUMPDEST CALLVALUE DUP1 ISZERO PUSH2 0x26A JUMPI PUSH1 0x0 DUP1 REVERT JUMPDEST POP PUSH2 0x285 PUSH1 0x4 DUP1 CALLDATASIZE SUB DUP2 ADD SWAP1 PUSH2 0x280 SWAP2 SWAP1 PUSH2 0x2906 JUMP JUMPDEST PUSH2 0x2040 JUMP JUMPDEST STOP JUMPDEST CALLVALUE DUP1 ISZERO PUSH2 0x293 JUMPI PUSH1 0x0 DUP1 REVERT JUMPDEST POP PUSH2 0x29C PUSH2 0x2214 JUMP JUMPDEST PUSH1 0x40 MLOAD PUSH2 0x2A9 SWAP2 SWAP1 PUSH2 0x29CF JUMP JUMPDEST PUSH1 0x40 MLOAD DUP1 SWAP2 SUB SWAP1 RETURN JUMPDEST PUSH2 0x2CC PUSH1 0x4 DUP1 CALLDATASIZE SUB DUP2 ADD SWAP1 PUSH2 0x2C7 SWAP2 SWAP1 PUSH2 0x2E76 JUMP JUMPDEST PUSH2 0x223D JUMP JUMPDEST STOP JUMPDEST CALLVALUE DUP1 ISZERO PUSH2 0x2DA JUMPI PUSH1 0x0 DUP1 REVERT JUMPDEST POP PUSH2 0x2E3 PUSH2 0x22CE JUMP JUMPDEST PUSH1 0x40 MLOAD PUSH2 0x2F0 SWAP2 SWAP1 PUSH2 0x2EC5 JUMP JUMPDEST PUSH1 0x40 MLOAD DUP1 SWAP2 SUB SWAP1 RETURN JUMPDEST CALLVALUE DUP1 ISZERO PUSH2 0x305 JUMPI PUSH1 0x0 DUP1 REVERT JUMPDEST POP PUSH2 0x320 PUSH1 0x4 DUP1 CALLDATASIZE SUB DUP2 ADD SWAP1 PUSH2 0x31B SWAP2 SWAP1 PUSH2 0x2959 JUMP JUMPDEST PUSH2 0x22D4 JUMP JUMPDEST PUSH1 0x40 MLOAD PUSH2 0x330 SWAP5 SWAP4 SWAP3 SWAP2 SWAP1 PUSH2 0x2EEF JUMP JUMPDEST PUSH1 0x40 MLOAD DUP1 SWAP2 SUB SWAP1 RETURN JUMPDEST CALLVALUE DUP1 ISZERO PUSH2 0x345 JUMPI PUSH1 0x0 DUP1 REVERT JUMPDEST POP PUSH2 0x34E PUSH2 0x2388 JUMP JUMPDEST PUSH1 0x40 MLOAD PUSH2 0x35B SWAP2 SWAP1 PUSH2 0x2F93 JUMP JUMPDEST PUSH1 0x40 MLOAD DUP1 SWAP2 SUB SWAP1 RETURN JUMPDEST CALLVALUE DUP1 ISZERO PUSH2 0x370 JUMPI PUSH1 0x0 DUP1 REVERT JUMPDEST POP PUSH2 0x38B PUSH1 0x4 DUP1 CALLDATASIZE SUB DUP2 ADD SWAP1 PUSH2 0x386 SWAP2 SWAP1 PUSH2 0x2906 JUMP JUMPDEST PUSH2 0x23AE JUMP JUMPDEST PUSH1 0x40 MLOAD PUSH2 0x39B SWAP5 SWAP4 SWAP3 SWAP2 SWAP1 PUSH2 0x2EEF JUMP JUMPDEST PUSH1 0x40 MLOAD DUP1 SWAP2 SUB SWAP1 RETURN JUMPDEST CALLVALUE DUP1 ISZERO PUSH2 0x3B0 JUMPI PUSH1 0x0 DUP1 REVERT JUMPDEST POP PUSH2 0x3B9 PUSH2 0x2455 JUMP JUMPDEST PUSH1 0x40 MLOAD PUSH2 0x3C6 SWAP2 SWAP1 PUSH2 0x2EC5 JUMP JUMPDEST PUSH1 0x40 MLOAD DUP1 SWAP2 SUB SWAP1 RETURN JUMPDEST CALLVALUE DUP1 ISZERO PUSH2 0x3DB JUMPI PUSH1 0x0 DUP1 REVERT JUMPDEST POP PUSH2 0x3E4 PUSH2 0x245B JUMP JUMPDEST PUSH1 0x40 MLOAD PUSH2 0x3F1 SWAP2 SWAP1 PUSH2 0x2EC5 JUMP JUMPDEST PUSH1 0x40 MLOAD DUP1 SWAP2 SUB SWAP1 RETURN JUMPDEST CALLVALUE DUP1 ISZERO PUSH2 0x406 JUMPI PUSH1 0x0 DUP1 REVERT JUMPDEST POP PUSH2 0x40F PUSH2 0x2461 JUMP JUMPDEST PUSH1 0x40 MLOAD PUSH2 0x41C SWAP2 SWAP1 PUSH2 0x29CF JUMP JUMPDEST PUSH1 0x40 MLOAD DUP1 SWAP2 SUB SWAP1 RETURN JUMPDEST CALLVALUE DUP1 ISZERO PUSH2 0x431 JUMPI PUSH1 0x0 DUP1 REVERT JUMPDEST POP PUSH2 0x44C PUSH1 0x4 DUP1 CALLDATASIZE SUB DUP2 ADD SWAP1 PUSH2 0x447 SWAP2 SWAP1 PUSH2 0x2FAE JUMP JUMPDEST PUSH2 0x2487 JUMP JUMPDEST STOP JUMPDEST CALLVALUE DUP1 ISZERO PUSH2 0x45A JUMPI PUSH1 0x0 DUP1 REVERT JUMPDEST POP PUSH2 0x463 PUSH2 0x250A JUMP JUMPDEST PUSH1 0x40 MLOAD PUSH2 0x470 SWAP2 SWAP1 PUSH2 0x2FFC JUMP JUMPDEST PUSH1 0x40 MLOAD DUP1 SWAP2 SUB SWAP1 RETURN JUMPDEST PUSH2 0x481 PUSH2 0x2530 JUMP JUMPDEST DUP4 PUSH1 0x8 PUSH1 0x0 PUSH2 0x100 EXP DUP2 SLOAD DUP2 PUSH20 0xFFFFFFFFFFFFFFFFFFFFFFFFFFFFFFFFFFFFFFFF MUL NOT AND SWAP1 DUP4 PUSH20 0xFFFFFFFFFFFFFFFFFFFFFFFFFFFFFFFFFFFFFFFF AND MUL OR SWAP1 SSTORE POP DUP3 PUSH1 0x5 DUP2 SWAP1 SSTORE POP DUP2 PUSH1 0x6 DUP2 SWAP1 SSTORE POP DUP1 PUSH1 0x7 DUP2 SWAP1 SSTORE POP POP POP POP POP JUMP JUMPDEST PUSH1 0x0 DUP3 SWAP1 POP DUP1 PUSH20 0xFFFFFFFFFFFFFFFFFFFFFFFFFFFFFFFFFFFFFFFF AND PUSH4 0x23B872DD DUP6 CALLER DUP6 PUSH1 0x40 MLOAD DUP5 PUSH4 0xFFFFFFFF AND PUSH1 0xE0 SHL DUP2 MSTORE PUSH1 0x4 ADD PUSH2 0x51F SWAP4 SWAP3 SWAP2 SWAP1 PUSH2 0x3017 JUMP JUMPDEST PUSH1 0x0 PUSH1 0x40 MLOAD DUP1 DUP4 SUB DUP2 PUSH1 0x0 DUP8 DUP1 EXTCODESIZE ISZERO DUP1 ISZERO PUSH2 0x539 JUMPI PUSH1 0x0 DUP1 REVERT JUMPDEST POP GAS CALL ISZERO DUP1 ISZERO PUSH2 0x54D JUMPI RETURNDATASIZE PUSH1 0x0 DUP1 RETURNDATACOPY RETURNDATASIZE PUSH1 0x0 REVERT JUMPDEST POP POP POP POP POP POP POP POP JUMP JUMPDEST PUSH1 0x2 PUSH1 0x0 SWAP1 SLOAD SWAP1 PUSH2 0x100 EXP SWAP1 DIV PUSH20 0xFFFFFFFFFFFFFFFFFFFFFFFFFFFFFFFFFFFFFFFF AND PUSH20 0xFFFFFFFFFFFFFFFFFFFFFFFFFFFFFFFFFFFFFFFF AND PUSH4 0x3D4C12D7 DUP6 PUSH1 0x40 MLOAD DUP3 PUSH4 0xFFFFFFFF AND PUSH1 0xE0 SHL DUP2 MSTORE PUSH1 0x4 ADD PUSH2 0x5B2 SWAP2 SWAP1 PUSH2 0x29CF JUMP JUMPDEST PUSH1 0x20 PUSH1 0x40 MLOAD DUP1 DUP4 SUB DUP2 DUP7 GAS STATICCALL ISZERO DUP1 ISZERO PUSH2 0x5CF JUMPI RETURNDATASIZE PUSH1 0x0 DUP1 RETURNDATACOPY RETURNDATASIZE PUSH1 0x0 REVERT JUMPDEST POP POP POP POP PUSH1 0x40 MLOAD RETURNDATASIZE PUSH1 0x1F NOT PUSH1 0x1F DUP3 ADD AND DUP3 ADD DUP1 PUSH1 0x40 MSTORE POP DUP2 ADD SWAP1 PUSH2 0x5F3 SWAP2 SWAP1 PUSH2 0x3063 JUMP JUMPDEST PUSH2 0x632 JUMPI PUSH1 0x40 MLOAD PUSH32 0x8C379A000000000000000000000000000000000000000000000000000000000 DUP2 MSTORE PUSH1 0x4 ADD PUSH2 0x629 SWAP1 PUSH2 0x3113 JUMP JUMPDEST PUSH1 0x40 MLOAD DUP1 SWAP2 SUB SWAP1 REVERT JUMPDEST PUSH1 0x0 DUP1 PUSH1 0x0 DUP4 SUB PUSH2 0x986 JUMPI PUSH1 0x0 JUMPDEST PUSH1 0x9 PUSH1 0x0 DUP9 PUSH20 0xFFFFFFFFFFFFFFFFFFFFFFFFFFFFFFFFFFFFFFFF AND PUSH20 0xFFFFFFFFFFFFFFFFFFFFFFFFFFFFFFFFFFFFFFFF AND DUP2 MSTORE PUSH1 0x20 ADD SWAP1 DUP2 MSTORE PUSH1 0x20 ADD PUSH1 0x0 KECCAK256 PUSH1 0x0 DUP8 PUSH20 0xFFFFFFFFFFFFFFFFFFFFFFFFFFFFFFFFFFFFFFFF AND PUSH20 0xFFFFFFFFFFFFFFFFFFFFFFFFFFFFFFFFFFFFFFFF AND DUP2 MSTORE PUSH1 0x20 ADD SWAP1 DUP2 MSTORE PUSH1 0x20 ADD PUSH1 0x0 KECCAK256 DUP1 SLOAD SWAP1 POP DUP2 LT ISZERO PUSH2 0x939 JUMPI CALLER PUSH20 0xFFFFFFFFFFFFFFFFFFFFFFFFFFFFFFFFFFFFFFFF AND PUSH1 0x9 PUSH1 0x0 DUP10 PUSH20 0xFFFFFFFFFFFFFFFFFFFFFFFFFFFFFFFFFFFFFFFF AND PUSH20 0xFFFFFFFFFFFFFFFFFFFFFFFFFFFFFFFFFFFFFFFF AND DUP2 MSTORE PUSH1 0x20 ADD SWAP1 DUP2 MSTORE PUSH1 0x20 ADD PUSH1 0x0 KECCAK256 PUSH1 0x0 DUP9 PUSH20 0xFFFFFFFFFFFFFFFFFFFFFFFFFFFFFFFFFFFFFFFF AND PUSH20 0xFFFFFFFFFFFFFFFFFFFFFFFFFFFFFFFFFFFFFFFF AND DUP2 MSTORE PUSH1 0x20 ADD SWAP1 DUP2 MSTORE PUSH1 0x20 ADD PUSH1 0x0 KECCAK256 DUP3 DUP2 SLOAD DUP2 LT PUSH2 0x76C JUMPI PUSH2 0x76B PUSH2 0x3133 JUMP JUMPDEST JUMPDEST SWAP1 PUSH1 0x0 MSTORE PUSH1 0x20 PUSH1 0x0 KECCAK256 SWAP1 PUSH1 0x5 MUL ADD PUSH1 0x2 ADD PUSH1 0x0 SWAP1 SLOAD SWAP1 PUSH2 0x100 EXP SWAP1 DIV PUSH20 0xFFFFFFFFFFFFFFFFFFFFFFFFFFFFFFFFFFFFFFFF AND PUSH20 0xFFFFFFFFFFFFFFFFFFFFFFFFFFFFFFFFFFFFFFFF AND SUB PUSH2 0x926 JUMPI PUSH1 0x0 PUSH1 0x9 PUSH1 0x0 DUP10 PUSH20 0xFFFFFFFFFFFFFFFFFFFFFFFFFFFFFFFFFFFFFFFF AND PUSH20 0xFFFFFFFFFFFFFFFFFFFFFFFFFFFFFFFFFFFFFFFF AND DUP2 MSTORE PUSH1 0x20 ADD SWAP1 DUP2 MSTORE PUSH1 0x20 ADD PUSH1 0x0 KECCAK256 PUSH1 0x0 DUP9 PUSH20 0xFFFFFFFFFFFFFFFFFFFFFFFFFFFFFFFFFFFFFFFF AND PUSH20 0xFFFFFFFFFFFFFFFFFFFFFFFFFFFFFFFFFFFFFFFF AND DUP2 MSTORE PUSH1 0x20 ADD SWAP1 DUP2 MSTORE PUSH1 0x20 ADD PUSH1 0x0 KECCAK256 DUP3 DUP2 SLOAD DUP2 LT PUSH2 0x849 JUMPI PUSH2 0x848 PUSH2 0x3133 JUMP JUMPDEST JUMPDEST SWAP1 PUSH1 0x0 MSTORE PUSH1 0x20 PUSH1 0x0 KECCAK256 SWAP1 PUSH1 0x5 MUL ADD PUSH1 0x0 ADD SLOAD SWAP1 POP PUSH2 0x868 DUP9 DUP9 DUP4 PUSH2 0x2040 JUMP JUMPDEST PUSH1 0x1 PUSH1 0x9 PUSH1 0x0 DUP11 PUSH20 0xFFFFFFFFFFFFFFFFFFFFFFFFFFFFFFFFFFFFFFFF AND PUSH20 0xFFFFFFFFFFFFFFFFFFFFFFFFFFFFFFFFFFFFFFFF AND DUP2 MSTORE PUSH1 0x20 ADD SWAP1 DUP2 MSTORE PUSH1 0x20 ADD PUSH1 0x0 KECCAK256 PUSH1 0x0 DUP10 PUSH20 0xFFFFFFFFFFFFFFFFFFFFFFFFFFFFFFFFFFFFFFFF AND PUSH20 0xFFFFFFFFFFFFFFFFFFFFFFFFFFFFFFFFFFFFFFFF AND DUP2 MSTORE PUSH1 0x20 ADD SWAP1 DUP2 MSTORE PUSH1 0x20 ADD PUSH1 0x0 KECCAK256 DUP4 DUP2 SLOAD DUP2 LT PUSH2 0x8F8 JUMPI PUSH2 0x8F7 PUSH2 0x3133 JUMP JUMPDEST JUMPDEST SWAP1 PUSH1 0x0 MSTORE PUSH1 0x20 PUSH1 0x0 KECCAK256 SWAP1 PUSH1 0x5 MUL ADD PUSH1 0x4 ADD PUSH1 0x0 PUSH2 0x100 EXP DUP2 SLOAD DUP2 PUSH1 0xFF MUL NOT AND SWAP1 DUP4 ISZERO ISZERO MUL OR SWAP1 SSTORE POP PUSH1 0x1 SWAP3 POP POP JUMPDEST DUP1 DUP1 PUSH2 0x931 SWAP1 PUSH2 0x3191 JUMP JUMPDEST SWAP2 POP POP PUSH2 0x640 JUMP JUMPDEST POP PUSH1 0x0 ISZERO ISZERO DUP2 ISZERO ISZERO SUB PUSH2 0x981 JUMPI PUSH1 0x40 MLOAD PUSH32 0x8C379A000000000000000000000000000000000000000000000000000000000 DUP2 MSTORE PUSH1 0x4 ADD PUSH2 0x978 SWAP1 PUSH2 0x3271 JUMP JUMPDEST PUSH1 0x40 MLOAD DUP1 SWAP2 SUB SWAP1 REVERT JUMPDEST PUSH2 0xC44 JUMP JUMPDEST PUSH1 0x1 DUP4 SUB PUSH2 0xC43 JUMPI PUSH1 0x0 JUMPDEST PUSH1 0x9 PUSH1 0x0 DUP9 PUSH20 0xFFFFFFFFFFFFFFFFFFFFFFFFFFFFFFFFFFFFFFFF AND PUSH20 0xFFFFFFFFFFFFFFFFFFFFFFFFFFFFFFFFFFFFFFFF AND DUP2 MSTORE PUSH1 0x20 ADD SWAP1 DUP2 MSTORE PUSH1 0x20 ADD PUSH1 0x0 KECCAK256 PUSH1 0x0 DUP8 PUSH20 0xFFFFFFFFFFFFFFFFFFFFFFFFFFFFFFFFFFFFFFFF AND PUSH20 0xFFFFFFFFFFFFFFFFFFFFFFFFFFFFFFFFFFFFFFFF AND DUP2 MSTORE PUSH1 0x20 ADD SWAP1 DUP2 MSTORE PUSH1 0x20 ADD PUSH1 0x0 KECCAK256 DUP1 SLOAD SWAP1 POP DUP2 LT ISZERO PUSH2 0xBFA JUMPI CALLER PUSH20 0xFFFFFFFFFFFFFFFFFFFFFFFFFFFFFFFFFFFFFFFF AND PUSH1 0xA PUSH1 0x0 DUP10 PUSH20 0xFFFFFFFFFFFFFFFFFFFFFFFFFFFFFFFFFFFFFFFF AND PUSH20 0xFFFFFFFFFFFFFFFFFFFFFFFFFFFFFFFFFFFFFFFF AND DUP2 MSTORE PUSH1 0x20 ADD SWAP1 DUP2 MSTORE PUSH1 0x20 ADD PUSH1 0x0 KECCAK256 PUSH1 0x0 DUP9 PUSH20 0xFFFFFFFFFFFFFFFFFFFFFFFFFFFFFFFFFFFFFFFF AND PUSH20 0xFFFFFFFFFFFFFFFFFFFFFFFFFFFFFFFFFFFFFFFF AND DUP2 MSTORE PUSH1 0x20 ADD SWAP1 DUP2 MSTORE PUSH1 0x20 ADD PUSH1 0x0 KECCAK256 PUSH1 0x0 DUP8 DUP2 MSTORE PUSH1 0x20 ADD SWAP1 DUP2 MSTORE PUSH1 0x20 ADD PUSH1 0x0 KECCAK256 DUP3 DUP2 SLOAD DUP2 LT PUSH2 0xACE JUMPI PUSH2 0xACD PUSH2 0x3133 JUMP JUMPDEST JUMPDEST SWAP1 PUSH1 0x0 MSTORE PUSH1 0x20 PUSH1 0x0 KECCAK256 SWAP1 PUSH1 0x5 MUL ADD PUSH1 0x2 ADD PUSH1 0x0 SWAP1 SLOAD SWAP1 PUSH2 0x100 EXP SWAP1 DIV PUSH20 0xFFFFFFFFFFFFFFFFFFFFFFFFFFFFFFFFFFFFFFFF AND PUSH20 0xFFFFFFFFFFFFFFFFFFFFFFFFFFFFFFFFFFFFFFFF AND SUB PUSH2 0xBE7 JUMPI PUSH2 0xB26 DUP8 DUP8 DUP8 PUSH2 0x4DD JUMP JUMPDEST PUSH1 0x1 PUSH1 0x9 PUSH1 0x0 DUP10 PUSH20 0xFFFFFFFFFFFFFFFFFFFFFFFFFFFFFFFFFFFFFFFF AND PUSH20 0xFFFFFFFFFFFFFFFFFFFFFFFFFFFFFFFFFFFFFFFF AND DUP2 MSTORE PUSH1 0x20 ADD SWAP1 DUP2 MSTORE PUSH1 0x20 ADD PUSH1 0x0 KECCAK256 PUSH1 0x0 DUP9 PUSH20 0xFFFFFFFFFFFFFFFFFFFFFFFFFFFFFFFFFFFFFFFF AND PUSH20 0xFFFFFFFFFFFFFFFFFFFFFFFFFFFFFFFFFFFFFFFF AND DUP2 MSTORE PUSH1 0x20 ADD SWAP1 DUP2 MSTORE PUSH1 0x20 ADD PUSH1 0x0 KECCAK256 DUP3 DUP2 SLOAD DUP2 LT PUSH2 0xBB6 JUMPI PUSH2 0xBB5 PUSH2 0x3133 JUMP JUMPDEST JUMPDEST SWAP1 PUSH1 0x0 MSTORE PUSH1 0x20 PUSH1 0x0 KECCAK256 SWAP1 PUSH1 0x5 MUL ADD PUSH1 0x4 ADD PUSH1 0x0 PUSH2 0x100 EXP DUP2 SLOAD DUP2 PUSH1 0xFF MUL NOT AND SWAP1 DUP4 ISZERO ISZERO MUL OR SWAP1 SSTORE POP PUSH1 0x1 SWAP2 POP PUSH2 0xBFA JUMP JUMPDEST DUP1 DUP1 PUSH2 0xBF2 SWAP1 PUSH2 0x3191 JUMP JUMPDEST SWAP2 POP POP PUSH2 0x991 JUMP JUMPDEST POP PUSH1 0x0 ISZERO ISZERO DUP2 ISZERO ISZERO SUB PUSH2 0xC42 JUMPI PUSH1 0x40 MLOAD PUSH32 0x8C379A000000000000000000000000000000000000000000000000000000000 DUP2 MSTORE PUSH1 0x4 ADD PUSH2 0xC39 SWAP1 PUSH2 0x3271 JUMP JUMPDEST PUSH1 0x40 MLOAD DUP1 SWAP2 SUB SWAP1 REVERT JUMPDEST JUMPDEST JUMPDEST DUP5 PUSH20 0xFFFFFFFFFFFFFFFFFFFFFFFFFFFFFFFFFFFFFFFF AND CALLER PUSH20 0xFFFFFFFFFFFFFFFFFFFFFFFFFFFFFFFFFFFFFFFF AND DUP8 PUSH20 0xFFFFFFFFFFFFFFFFFFFFFFFFFFFFFFFFFFFFFFFF AND PUSH32 0x5CCAC6A981EE0D2404D2487672D204C80CC526DA4F51E90DD5AE4CFE880A9ADD DUP8 DUP7 DUP9 PUSH1 0x40 MLOAD PUSH2 0xCBC SWAP4 SWAP3 SWAP2 SWAP1 PUSH2 0x3291 JUMP JUMPDEST PUSH1 0x40 MLOAD DUP1 SWAP2 SUB SWAP1 LOG4 POP POP POP POP POP POP JUMP JUMPDEST PUSH1 0x1 PUSH1 0x0 SWAP1 SLOAD SWAP1 PUSH2 0x100 EXP SWAP1 DIV PUSH20 0xFFFFFFFFFFFFFFFFFFFFFFFFFFFFFFFFFFFFFFFF AND DUP2 JUMP JUMPDEST CALLER PUSH20 0xFFFFFFFFFFFFFFFFFFFFFFFFFFFFFFFFFFFFFFFF AND PUSH1 0x2 PUSH1 0x0 SWAP1 SLOAD SWAP1 PUSH2 0x100 EXP SWAP1 DIV PUSH20 0xFFFFFFFFFFFFFFFFFFFFFFFFFFFFFFFFFFFFFFFF AND PUSH20 0xFFFFFFFFFFFFFFFFFFFFFFFFFFFFFFFFFFFFFFFF AND PUSH4 0xC3BB8121 DUP7 PUSH1 0x40 MLOAD DUP3 PUSH4 0xFFFFFFFF AND PUSH1 0xE0 SHL DUP2 MSTORE PUSH1 0x4 ADD PUSH2 0xD64 SWAP2 SWAP1 PUSH2 0x29CF JUMP JUMPDEST PUSH1 0x0 PUSH1 0x40 MLOAD DUP1 DUP4 SUB DUP2 DUP7 GAS STATICCALL ISZERO DUP1 ISZERO PUSH2 0xD81 JUMPI RETURNDATASIZE PUSH1 0x0 DUP1 RETURNDATACOPY RETURNDATASIZE PUSH1 0x0 REVERT JUMPDEST POP POP POP POP PUSH1 0x40 MLOAD RETURNDATASIZE PUSH1 0x0 DUP3 RETURNDATACOPY RETURNDATASIZE PUSH1 0x1F NOT PUSH1 0x1F DUP3 ADD AND DUP3 ADD DUP1 PUSH1 0x40 MSTORE POP DUP2 ADD SWAP1 PUSH2 0xDAA SWAP2 SWAP1 PUSH2 0x36C6 JUMP JUMPDEST PUSH1 0xE0 ADD MLOAD PUSH20 0xFFFFFFFFFFFFFFFFFFFFFFFFFFFFFFFFFFFFFFFF AND EQ PUSH2 0xE04 JUMPI PUSH1 0x40 MLOAD PUSH32 0x8C379A000000000000000000000000000000000000000000000000000000000 DUP2 MSTORE PUSH1 0x4 ADD PUSH2 0xDFB SWAP1 PUSH2 0x3781 JUMP JUMPDEST PUSH1 0x40 MLOAD DUP1 SWAP2 SUB SWAP1 REVERT JUMPDEST PUSH1 0x0 DUP1 DUP3 SUB PUSH2 0xE1E JUMPI PUSH2 0xE19 DUP6 DUP6 PUSH1 0x64 PUSH2 0x2040 JUMP JUMPDEST PUSH2 0xE34 JUMP JUMPDEST PUSH1 0x0 DUP4 GT ISZERO PUSH2 0xE33 JUMPI PUSH2 0xE32 DUP6 DUP6 DUP6 PUSH2 0x4DD JUMP JUMPDEST JUMPDEST JUMPDEST DUP4 PUSH20 0xFFFFFFFFFFFFFFFFFFFFFFFFFFFFFFFFFFFFFFFF AND DUP6 PUSH20 0xFFFFFFFFFFFFFFFFFFFFFFFFFFFFFFFFFFFFFFFF AND PUSH32 0xAA3446F866F557932F6C5A4933379C0E3E3FD6DCC0A20CFAE5222255FFD16BDD DUP6 DUP5 DUP7 PUSH1 0x40 MLOAD PUSH2 0xE95 SWAP4 SWAP3 SWAP2 SWAP1 PUSH2 0x3291 JUMP JUMPDEST PUSH1 0x40 MLOAD DUP1 SWAP2 SUB SWAP1 LOG3 POP POP POP POP POP JUMP JUMPDEST PUSH1 0x8 PUSH1 0x0 SWAP1 SLOAD SWAP1 PUSH2 0x100 EXP SWAP1 DIV PUSH20 0xFFFFFFFFFFFFFFFFFFFFFFFFFFFFFFFFFFFFFFFF AND DUP2 JUMP JUMPDEST PUSH1 0x2 PUSH1 0x0 SWAP1 SLOAD SWAP1 PUSH2 0x100 EXP SWAP1 DIV PUSH20 0xFFFFFFFFFFFFFFFFFFFFFFFFFFFFFFFFFFFFFFFF AND PUSH20 0xFFFFFFFFFFFFFFFFFFFFFFFFFFFFFFFFFFFFFFFF AND PUSH4 0xF1F8C05 CALLER PUSH1 0x40 MLOAD DUP3 PUSH4 0xFFFFFFFF AND PUSH1 0xE0 SHL DUP2 MSTORE PUSH1 0x4 ADD PUSH2 0xF25 SWAP2 SWAP1 PUSH2 0x29CF JUMP JUMPDEST PUSH1 0x20 PUSH1 0x40 MLOAD DUP1 DUP4 SUB DUP2 DUP7 GAS STATICCALL ISZERO DUP1 ISZERO PUSH2 0xF42 JUMPI RETURNDATASIZE PUSH1 0x0 DUP1 RETURNDATACOPY RETURNDATASIZE PUSH1 0x0 REVERT JUMPDEST POP POP POP POP PUSH1 0x40 MLOAD RETURNDATASIZE PUSH1 0x1F NOT PUSH1 0x1F DUP3 ADD AND DUP3 ADD DUP1 PUSH1 0x40 MSTORE POP DUP2 ADD SWAP1 PUSH2 0xF66 SWAP2 SWAP1 PUSH2 0x3063 JUMP JUMPDEST PUSH2 0xFA5 JUMPI PUSH1 0x40 MLOAD PUSH32 0x8C379A000000000000000000000000000000000000000000000000000000000 DUP2 MSTORE PUSH1 0x4 ADD PUSH2 0xF9C SWAP1 PUSH2 0x3813 JUMP JUMPDEST PUSH1 0x40 MLOAD DUP1 SWAP2 SUB SWAP1 REVERT JUMPDEST PUSH1 0x2 PUSH1 0x0 SWAP1 SLOAD SWAP1 PUSH2 0x100 EXP SWAP1 DIV PUSH20 0xFFFFFFFFFFFFFFFFFFFFFFFFFFFFFFFFFFFFFFFF AND PUSH20 0xFFFFFFFFFFFFFFFFFFFFFFFFFFFFFFFFFFFFFFFF AND PUSH4 0x15B79630 CALLER PUSH1 0x40 MLOAD DUP3 PUSH4 0xFFFFFFFF AND PUSH1 0xE0 SHL DUP2 MSTORE PUSH1 0x4 ADD PUSH2 0x1000 SWAP2 SWAP1 PUSH2 0x29CF JUMP JUMPDEST PUSH1 0x20 PUSH1 0x40 MLOAD DUP1 DUP4 SUB DUP2 DUP7 GAS STATICCALL ISZERO DUP1 ISZERO PUSH2 0x101D JUMPI RETURNDATASIZE PUSH1 0x0 DUP1 RETURNDATACOPY RETURNDATASIZE PUSH1 0x0 REVERT JUMPDEST POP POP POP POP PUSH1 0x40 MLOAD RETURNDATASIZE PUSH1 0x1F NOT PUSH1 0x1F DUP3 ADD AND DUP3 ADD DUP1 PUSH1 0x40 MSTORE POP DUP2 ADD SWAP1 PUSH2 0x1041 SWAP2 SWAP1 PUSH2 0x3063 JUMP JUMPDEST PUSH2 0x1080 JUMPI PUSH1 0x40 MLOAD PUSH32 0x8C379A000000000000000000000000000000000000000000000000000000000 DUP2 MSTORE PUSH1 0x4 ADD PUSH2 0x1077 SWAP1 PUSH2 0x38CB JUMP JUMPDEST PUSH1 0x40 MLOAD DUP1 SWAP2 SUB SWAP1 REVERT JUMPDEST PUSH1 0x0 PUSH1 0x2 PUSH1 0x0 SWAP1 SLOAD SWAP1 PUSH2 0x100 EXP SWAP1 DIV PUSH20 0xFFFFFFFFFFFFFFFFFFFFFFFFFFFFFFFFFFFFFFFF AND PUSH20 0xFFFFFFFFFFFFFFFFFFFFFFFFFFFFFFFFFFFFFFFF AND PUSH4 0x20E4AB6A CALLER PUSH1 0x40 MLOAD DUP3 PUSH4 0xFFFFFFFF AND PUSH1 0xE0 SHL DUP2 MSTORE PUSH1 0x4 ADD PUSH2 0x10DD SWAP2 SWAP1 PUSH2 0x29CF JUMP JUMPDEST PUSH1 0x0 PUSH1 0x40 MLOAD DUP1 DUP4 SUB DUP2 DUP7 GAS STATICCALL ISZERO DUP1 ISZERO PUSH2 0x10FA JUMPI RETURNDATASIZE PUSH1 0x0 DUP1 RETURNDATACOPY RETURNDATASIZE PUSH1 0x0 REVERT JUMPDEST POP POP POP POP PUSH1 0x40 MLOAD RETURNDATASIZE PUSH1 0x0 DUP3 RETURNDATACOPY RETURNDATASIZE PUSH1 0x1F NOT PUSH1 0x1F DUP3 ADD AND DUP3 ADD DUP1 PUSH1 0x40 MSTORE POP DUP2 ADD SWAP1 PUSH2 0x1123 SWAP2 SWAP1 PUSH2 0x38EB JUMP JUMPDEST SWAP1 POP PUSH1 0x0 DUP1 PUSH1 0x2 PUSH1 0x0 SWAP1 SLOAD SWAP1 PUSH2 0x100 EXP SWAP1 DIV PUSH20 0xFFFFFFFFFFFFFFFFFFFFFFFFFFFFFFFFFFFFFFFF AND PUSH20 0xFFFFFFFFFFFFFFFFFFFFFFFFFFFFFFFFFFFFFFFF AND PUSH4 0x45BCEABD CALLER PUSH1 0x40 MLOAD DUP3 PUSH4 0xFFFFFFFF AND PUSH1 0xE0 SHL DUP2 MSTORE PUSH1 0x4 ADD PUSH2 0x1183 SWAP2 SWAP1 PUSH2 0x29CF JUMP JUMPDEST PUSH1 0x0 PUSH1 0x40 MLOAD DUP1 DUP4 SUB DUP2 DUP7 GAS STATICCALL ISZERO DUP1 ISZERO PUSH2 0x11A0 JUMPI RETURNDATASIZE PUSH1 0x0 DUP1 RETURNDATACOPY RETURNDATASIZE PUSH1 0x0 REVERT JUMPDEST POP POP POP POP PUSH1 0x40 MLOAD RETURNDATASIZE PUSH1 0x0 DUP3 RETURNDATACOPY RETURNDATASIZE PUSH1 0x1F NOT PUSH1 0x1F DUP3 ADD AND DUP3 ADD DUP1 PUSH1 0x40 MSTORE POP DUP2 ADD SWAP1 PUSH2 0x11C9 SWAP2 SWAP1 PUSH2 0x3934 JUMP JUMPDEST SWAP1 POP PUSH1 0x0 DUP1 PUSH1 0x0 SWAP1 POP JUMPDEST DUP6 MLOAD DUP2 LT ISZERO PUSH2 0x14B5 JUMPI PUSH1 0x0 JUMPDEST DUP7 DUP3 DUP2 MLOAD DUP2 LT PUSH2 0x11F2 JUMPI PUSH2 0x11F1 PUSH2 0x3133 JUMP JUMPDEST JUMPDEST PUSH1 0x20 MUL PUSH1 0x20 ADD ADD MLOAD PUSH1 0x60 ADD MLOAD MLOAD DUP2 LT ISZERO PUSH2 0x1312 JUMPI PUSH1 0x0 SWAP5 POP PUSH1 0x0 JUMPDEST DUP7 MLOAD DUP2 LT ISZERO PUSH2 0x12B7 JUMPI DUP7 DUP2 DUP2 MLOAD DUP2 LT PUSH2 0x1229 JUMPI PUSH2 0x1228 PUSH2 0x3133 JUMP JUMPDEST JUMPDEST PUSH1 0x20 MUL PUSH1 0x20 ADD ADD MLOAD PUSH20 0xFFFFFFFFFFFFFFFFFFFFFFFFFFFFFFFFFFFFFFFF AND DUP9 DUP5 DUP2 MLOAD DUP2 LT PUSH2 0x125A JUMPI PUSH2 0x1259 PUSH2 0x3133 JUMP JUMPDEST JUMPDEST PUSH1 0x20 MUL PUSH1 0x20 ADD ADD MLOAD PUSH1 0x60 ADD MLOAD DUP4 DUP2 MLOAD DUP2 LT PUSH2 0x1278 JUMPI PUSH2 0x1277 PUSH2 0x3133 JUMP JUMPDEST JUMPDEST PUSH1 0x20 MUL PUSH1 0x20 ADD ADD MLOAD PUSH20 0xFFFFFFFFFFFFFFFFFFFFFFFFFFFFFFFFFFFFFFFF AND SUB PUSH2 0x12A4 JUMPI PUSH1 0x1 SWAP6 POP PUSH2 0x12B7 JUMP JUMPDEST DUP1 DUP1 PUSH2 0x12AF SWAP1 PUSH2 0x3191 JUMP JUMPDEST SWAP2 POP POP PUSH2 0x120D JUMP JUMPDEST POP PUSH1 0x0 ISZERO ISZERO DUP6 ISZERO ISZERO SUB PUSH2 0x12FF JUMPI PUSH1 0x40 MLOAD PUSH32 0x8C379A000000000000000000000000000000000000000000000000000000000 DUP2 MSTORE PUSH1 0x4 ADD PUSH2 0x12F6 SWAP1 PUSH2 0x3A15 JUMP JUMPDEST PUSH1 0x40 MLOAD DUP1 SWAP2 SUB SWAP1 REVERT JUMPDEST DUP1 DUP1 PUSH2 0x130A SWAP1 PUSH2 0x3191 JUMP JUMPDEST SWAP2 POP POP PUSH2 0x11DF JUMP JUMPDEST POP PUSH1 0x0 JUMPDEST DUP4 MLOAD DUP2 LT ISZERO PUSH2 0x145A JUMPI PUSH1 0x0 PUSH1 0x4 PUSH1 0x0 SWAP1 SLOAD SWAP1 PUSH2 0x100 EXP SWAP1 DIV PUSH20 0xFFFFFFFFFFFFFFFFFFFFFFFFFFFFFFFFFFFFFFFF AND PUSH20 0xFFFFFFFFFFFFFFFFFFFFFFFFFFFFFFFFFFFFFFFF AND PUSH4 0x7F3D39BD DUP7 DUP5 DUP2 MLOAD DUP2 LT PUSH2 0x1372 JUMPI PUSH2 0x1371 PUSH2 0x3133 JUMP JUMPDEST JUMPDEST PUSH1 0x20 MUL PUSH1 0x20 ADD ADD MLOAD PUSH1 0x40 MLOAD DUP3 PUSH4 0xFFFFFFFF AND PUSH1 0xE0 SHL DUP2 MSTORE PUSH1 0x4 ADD PUSH2 0x1396 SWAP2 SWAP1 PUSH2 0x2EC5 JUMP JUMPDEST PUSH1 0x0 PUSH1 0x40 MLOAD DUP1 DUP4 SUB DUP2 DUP7 GAS STATICCALL ISZERO DUP1 ISZERO PUSH2 0x13B3 JUMPI RETURNDATASIZE PUSH1 0x0 DUP1 RETURNDATACOPY RETURNDATASIZE PUSH1 0x0 REVERT JUMPDEST POP POP POP POP PUSH1 0x40 MLOAD RETURNDATASIZE PUSH1 0x0 DUP3 RETURNDATACOPY RETURNDATASIZE PUSH1 0x1F NOT PUSH1 0x1F DUP3 ADD AND DUP3 ADD DUP1 PUSH1 0x40 MSTORE POP DUP2 ADD SWAP1 PUSH2 0x13DC SWAP2 SWAP1 PUSH2 0x3A35 JUMP JUMPDEST SWAP1 SWAP2 SWAP3 SWAP4 POP SWAP1 SWAP2 POP SWAP1 POP POP DUP1 SWAP2 POP POP DUP1 PUSH20 0xFFFFFFFFFFFFFFFFFFFFFFFFFFFFFFFFFFFFFFFF AND DUP9 DUP5 DUP2 MLOAD DUP2 LT PUSH2 0x1415 JUMPI PUSH2 0x1414 PUSH2 0x3133 JUMP JUMPDEST JUMPDEST PUSH1 0x20 MUL PUSH1 0x20 ADD ADD MLOAD PUSH1 0x20 ADD MLOAD PUSH20 0xFFFFFFFFFFFFFFFFFFFFFFFFFFFFFFFFFFFFFFFF AND SUB PUSH2 0x1446 JUMPI PUSH1 0x1 SWAP4 POP POP PUSH2 0x145A JUMP JUMPDEST POP DUP1 DUP1 PUSH2 0x1452 SWAP1 PUSH2 0x3191 JUMP JUMPDEST SWAP2 POP POP PUSH2 0x1316 JUMP JUMPDEST POP PUSH1 0x0 ISZERO ISZERO DUP3 ISZERO ISZERO SUB PUSH2 0x14A2 JUMPI PUSH1 0x40 MLOAD PUSH32 0x8C379A000000000000000000000000000000000000000000000000000000000 DUP2 MSTORE PUSH1 0x4 ADD PUSH2 0x1499 SWAP1 PUSH2 0x3B9C JUMP JUMPDEST PUSH1 0x40 MLOAD DUP1 SWAP2 SUB SWAP1 REVERT JUMPDEST DUP1 DUP1 PUSH2 0x14AD SWAP1 PUSH2 0x3191 JUMP JUMPDEST SWAP2 POP POP PUSH2 0x11D3 JUMP JUMPDEST POP PUSH1 0x0 DUP1 DUP9 SUB PUSH2 0x157F JUMPI PUSH1 0x2 PUSH1 0x0 SWAP1 SLOAD SWAP1 PUSH2 0x100 EXP SWAP1 DIV PUSH20 0xFFFFFFFFFFFFFFFFFFFFFFFFFFFFFFFFFFFFFFFF AND PUSH20 0xFFFFFFFFFFFFFFFFFFFFFFFFFFFFFFFFFFFFFFFF AND PUSH4 0xDE508C5B CALLER DUP13 PUSH1 0x40 MLOAD DUP4 PUSH4 0xFFFFFFFF AND PUSH1 0xE0 SHL DUP2 MSTORE PUSH1 0x4 ADD PUSH2 0x151C SWAP3 SWAP2 SWAP1 PUSH2 0x3BBC JUMP JUMPDEST PUSH1 0x0 PUSH1 0x40 MLOAD DUP1 DUP4 SUB DUP2 DUP7 GAS STATICCALL ISZERO DUP1 ISZERO PUSH2 0x1539 JUMPI RETURNDATASIZE PUSH1 0x0 DUP1 RETURNDATACOPY RETURNDATASIZE PUSH1 0x0 REVERT JUMPDEST POP POP POP POP PUSH1 0x40 MLOAD RETURNDATASIZE PUSH1 0x0 DUP3 RETURNDATACOPY RETURNDATASIZE PUSH1 0x1F NOT PUSH1 0x1F DUP3 ADD AND DUP3 ADD DUP1 PUSH1 0x40 MSTORE POP DUP2 ADD SWAP1 PUSH2 0x1562 SWAP2 SWAP1 PUSH2 0x3BE5 JUMP JUMPDEST SWAP1 SWAP2 SWAP3 SWAP4 SWAP5 POP SWAP1 SWAP2 SWAP3 SWAP4 POP SWAP1 SWAP2 SWAP3 POP SWAP1 SWAP2 POP SWAP1 POP DUP1 SWAP2 POP POP PUSH2 0x1646 JUMP JUMPDEST PUSH1 0x1 DUP9 SUB PUSH2 0x1645 JUMPI PUSH1 0x2 PUSH1 0x0 SWAP1 SLOAD SWAP1 PUSH2 0x100 EXP SWAP1 DIV PUSH20 0xFFFFFFFFFFFFFFFFFFFFFFFFFFFFFFFFFFFFFFFF AND PUSH20 0xFFFFFFFFFFFFFFFFFFFFFFFFFFFFFFFFFFFFFFFF AND PUSH4 0x220044B CALLER DUP13 DUP11 PUSH1 0x40 MLOAD DUP5 PUSH4 0xFFFFFFFF AND PUSH1 0xE0 SHL DUP2 MSTORE PUSH1 0x4 ADD PUSH2 0x15E6 SWAP4 SWAP3 SWAP2 SWAP1 PUSH2 0x3017 JUMP JUMPDEST PUSH1 0x0 PUSH1 0x40 MLOAD DUP1 DUP4 SUB DUP2 DUP7 GAS STATICCALL ISZERO DUP1 ISZERO PUSH2 0x1603 JUMPI RETURNDATASIZE PUSH1 0x0 DUP1 RETURNDATACOPY RETURNDATASIZE PUSH1 0x0 REVERT JUMPDEST POP POP POP POP PUSH1 0x40 MLOAD RETURNDATASIZE PUSH1 0x0 DUP3 RETURNDATACOPY RETURNDATASIZE PUSH1 0x1F NOT PUSH1 0x1F DUP3 ADD AND DUP3 ADD DUP1 PUSH1 0x40 MSTORE POP DUP2 ADD SWAP1 PUSH2 0x162C SWAP2 SWAP1 PUSH2 0x3BE5 JUMP JUMPDEST SWAP1 SWAP2 SWAP3 SWAP4 SWAP5 POP SWAP1 SWAP2 SWAP3 SWAP4 POP SWAP1 SWAP2 SWAP3 POP SWAP1 SWAP2 POP SWAP1 POP DUP1 SWAP2 POP POP JUMPDEST JUMPDEST PUSH1 0x0 DUP1 PUSH1 0x0 SWAP1 POP JUMPDEST DUP8 MLOAD DUP2 LT ISZERO PUSH2 0x1696 JUMPI DUP8 DUP2 DUP2 MLOAD DUP2 LT PUSH2 0x166A JUMPI PUSH2 0x1669 PUSH2 0x3133 JUMP JUMPDEST JUMPDEST PUSH1 0x20 MUL PUSH1 0x20 ADD ADD MLOAD PUSH1 0x0 ADD MLOAD DUP3 PUSH2 0x1681 SWAP2 SWAP1 PUSH2 0x3C8E JUMP JUMPDEST SWAP2 POP DUP1 DUP1 PUSH2 0x168E SWAP1 PUSH2 0x3191 JUMP JUMPDEST SWAP2 POP POP PUSH2 0x164E JUMP JUMPDEST POP PUSH1 0x64 DUP2 GT ISZERO PUSH2 0x16DB JUMPI PUSH1 0x40 MLOAD PUSH32 0x8C379A000000000000000000000000000000000000000000000000000000000 DUP2 MSTORE PUSH1 0x4 ADD PUSH2 0x16D2 SWAP1 PUSH2 0x3D5A JUMP JUMPDEST PUSH1 0x40 MLOAD DUP1 SWAP2 SUB SWAP1 REVERT JUMPDEST DUP2 PUSH2 0x177C JUMPI PUSH1 0x2 PUSH1 0x0 SWAP1 SLOAD SWAP1 PUSH2 0x100 EXP SWAP1 DIV PUSH20 0xFFFFFFFFFFFFFFFFFFFFFFFFFFFFFFFFFFFFFFFF AND PUSH20 0xFFFFFFFFFFFFFFFFFFFFFFFFFFFFFFFFFFFFFFFF AND PUSH4 0x25CB763A CALLER DUP14 DUP14 DUP14 DUP7 DUP15 PUSH1 0x40 MLOAD DUP8 PUSH4 0xFFFFFFFF AND PUSH1 0xE0 SHL DUP2 MSTORE PUSH1 0x4 ADD PUSH2 0x1745 SWAP7 SWAP6 SWAP5 SWAP4 SWAP3 SWAP2 SWAP1 PUSH2 0x3DBE JUMP JUMPDEST PUSH1 0x0 PUSH1 0x40 MLOAD DUP1 DUP4 SUB DUP2 PUSH1 0x0 DUP8 DUP1 EXTCODESIZE ISZERO DUP1 ISZERO PUSH2 0x175F JUMPI PUSH1 0x0 DUP1 REVERT JUMPDEST POP GAS CALL ISZERO DUP1 ISZERO PUSH2 0x1773 JUMPI RETURNDATASIZE PUSH1 0x0 DUP1 RETURNDATACOPY RETURNDATASIZE PUSH1 0x0 REVERT JUMPDEST POP POP POP POP PUSH2 0x1BA2 JUMP JUMPDEST PUSH1 0x0 PUSH1 0x8 PUSH1 0x0 SWAP1 SLOAD SWAP1 PUSH2 0x100 EXP SWAP1 DIV PUSH20 0xFFFFFFFFFFFFFFFFFFFFFFFFFFFFFFFFFFFFFFFF AND SWAP1 POP PUSH1 0x0 DUP11 SUB PUSH2 0x197B JUMPI PUSH1 0x5 SLOAD DUP2 PUSH20 0xFFFFFFFFFFFFFFFFFFFFFFFFFFFFFFFFFFFFFFFF AND PUSH4 0xDD62ED3E CALLER ADDRESS PUSH1 0x40 MLOAD DUP4 PUSH4 0xFFFFFFFF AND PUSH1 0xE0 SHL DUP2 MSTORE PUSH1 0x4 ADD PUSH2 0x17E9 SWAP3 SWAP2 SWAP1 PUSH2 0x3BBC JUMP JUMPDEST PUSH1 0x20 PUSH1 0x40 MLOAD DUP1 DUP4 SUB DUP2 DUP7 GAS STATICCALL ISZERO DUP1 ISZERO PUSH2 0x1806 JUMPI RETURNDATASIZE PUSH1 0x0 DUP1 RETURNDATACOPY RETURNDATASIZE PUSH1 0x0 REVERT JUMPDEST POP POP POP POP PUSH1 0x40 MLOAD RETURNDATASIZE PUSH1 0x1F NOT PUSH1 0x1F DUP3 ADD AND DUP3 ADD DUP1 PUSH1 0x40 MSTORE POP DUP2 ADD SWAP1 PUSH2 0x182A SWAP2 SWAP1 PUSH2 0x3E26 JUMP JUMPDEST LT ISZERO PUSH2 0x186B JUMPI PUSH1 0x40 MLOAD PUSH32 0x8C379A000000000000000000000000000000000000000000000000000000000 DUP2 MSTORE PUSH1 0x4 ADD PUSH2 0x1862 SWAP1 PUSH2 0x3EC5 JUMP JUMPDEST PUSH1 0x40 MLOAD DUP1 SWAP2 SUB SWAP1 REVERT JUMPDEST DUP1 PUSH20 0xFFFFFFFFFFFFFFFFFFFFFFFFFFFFFFFFFFFFFFFF AND PUSH4 0x23B872DD CALLER ADDRESS PUSH1 0x5 SLOAD PUSH1 0x40 MLOAD DUP5 PUSH4 0xFFFFFFFF AND PUSH1 0xE0 SHL DUP2 MSTORE PUSH1 0x4 ADD PUSH2 0x18AA SWAP4 SWAP3 SWAP2 SWAP1 PUSH2 0x3017 JUMP JUMPDEST PUSH1 0x20 PUSH1 0x40 MLOAD DUP1 DUP4 SUB DUP2 PUSH1 0x0 DUP8 GAS CALL ISZERO DUP1 ISZERO PUSH2 0x18C9 JUMPI RETURNDATASIZE PUSH1 0x0 DUP1 RETURNDATACOPY RETURNDATASIZE PUSH1 0x0 REVERT JUMPDEST POP POP POP POP PUSH1 0x40 MLOAD RETURNDATASIZE PUSH1 0x1F NOT PUSH1 0x1F DUP3 ADD AND DUP3 ADD DUP1 PUSH1 0x40 MSTORE POP DUP2 ADD SWAP1 PUSH2 0x18ED SWAP2 SWAP1 PUSH2 0x3063 JUMP JUMPDEST POP PUSH1 0x9 PUSH1 0x0 CALLER PUSH20 0xFFFFFFFFFFFFFFFFFFFFFFFFFFFFFFFFFFFFFFFF AND PUSH20 0xFFFFFFFFFFFFFFFFFFFFFFFFFFFFFFFFFFFFFFFF AND DUP2 MSTORE PUSH1 0x20 ADD SWAP1 DUP2 MSTORE PUSH1 0x20 ADD PUSH1 0x0 KECCAK256 PUSH1 0x0 DUP14 PUSH20 0xFFFFFFFFFFFFFFFFFFFFFFFFFFFFFFFFFFFFFFFF AND PUSH20 0xFFFFFFFFFFFFFFFFFFFFFFFFFFFFFFFFFFFFFFFF AND DUP2 MSTORE PUSH1 0x20 ADD SWAP1 DUP2 MSTORE PUSH1 0x20 ADD PUSH1 0x0 KECCAK256 PUSH1 0x0 PUSH2 0x1976 SWAP2 SWAP1 PUSH2 0x267A JUMP JUMPDEST PUSH2 0x1BA0 JUMP JUMPDEST PUSH1 0x1 DUP11 SUB PUSH2 0x1B64 JUMPI PUSH1 0x6 SLOAD DUP2 PUSH20 0xFFFFFFFFFFFFFFFFFFFFFFFFFFFFFFFFFFFFFFFF AND PUSH4 0xDD62ED3E CALLER ADDRESS PUSH1 0x40 MLOAD DUP4 PUSH4 0xFFFFFFFF AND PUSH1 0xE0 SHL DUP2 MSTORE PUSH1 0x4 ADD PUSH2 0x19C1 SWAP3 SWAP2 SWAP1 PUSH2 0x3BBC JUMP JUMPDEST PUSH1 0x20 PUSH1 0x40 MLOAD DUP1 DUP4 SUB DUP2 DUP7 GAS STATICCALL ISZERO DUP1 ISZERO PUSH2 0x19DE JUMPI RETURNDATASIZE PUSH1 0x0 DUP1 RETURNDATACOPY RETURNDATASIZE PUSH1 0x0 REVERT JUMPDEST POP POP POP POP PUSH1 0x40 MLOAD RETURNDATASIZE PUSH1 0x1F NOT PUSH1 0x1F DUP3 ADD AND DUP3 ADD DUP1 PUSH1 0x40 MSTORE POP DUP2 ADD SWAP1 PUSH2 0x1A02 SWAP2 SWAP1 PUSH2 0x3E26 JUMP JUMPDEST LT ISZERO PUSH2 0x1A43 JUMPI PUSH1 0x40 MLOAD PUSH32 0x8C379A000000000000000000000000000000000000000000000000000000000 DUP2 MSTORE PUSH1 0x4 ADD PUSH2 0x1A3A SWAP1 PUSH2 0x3EC5 JUMP JUMPDEST PUSH1 0x40 MLOAD DUP1 SWAP2 SUB SWAP1 REVERT JUMPDEST DUP1 PUSH20 0xFFFFFFFFFFFFFFFFFFFFFFFFFFFFFFFFFFFFFFFF AND PUSH4 0x23B872DD CALLER ADDRESS PUSH1 0x6 SLOAD PUSH1 0x40 MLOAD DUP5 PUSH4 0xFFFFFFFF AND PUSH1 0xE0 SHL DUP2 MSTORE PUSH1 0x4 ADD PUSH2 0x1A82 SWAP4 SWAP3 SWAP2 SWAP1 PUSH2 0x3017 JUMP JUMPDEST PUSH1 0x20 PUSH1 0x40 MLOAD DUP1 DUP4 SUB DUP2 PUSH1 0x0 DUP8 GAS CALL ISZERO DUP1 ISZERO PUSH2 0x1AA1 JUMPI RETURNDATASIZE PUSH1 0x0 DUP1 RETURNDATACOPY RETURNDATASIZE PUSH1 0x0 REVERT JUMPDEST POP POP POP POP PUSH1 0x40 MLOAD RETURNDATASIZE PUSH1 0x1F NOT PUSH1 0x1F DUP3 ADD AND DUP3 ADD DUP1 PUSH1 0x40 MSTORE POP DUP2 ADD SWAP1 PUSH2 0x1AC5 SWAP2 SWAP1 PUSH2 0x3063 JUMP JUMPDEST POP PUSH1 0xA PUSH1 0x0 CALLER PUSH20 0xFFFFFFFFFFFFFFFFFFFFFFFFFFFFFFFFFFFFFFFF AND PUSH20 0xFFFFFFFFFFFFFFFFFFFFFFFFFFFFFFFFFFFFFFFF AND DUP2 MSTORE PUSH1 0x20 ADD SWAP1 DUP2 MSTORE PUSH1 0x20 ADD PUSH1 0x0 KECCAK256 PUSH1 0x0 DUP14 PUSH20 0xFFFFFFFFFFFFFFFFFFFFFFFFFFFFFFFFFFFFFFFF AND PUSH20 0xFFFFFFFFFFFFFFFFFFFFFFFFFFFFFFFFFFFFFFFF AND DUP2 MSTORE PUSH1 0x20 ADD SWAP1 DUP2 MSTORE PUSH1 0x20 ADD PUSH1 0x0 KECCAK256 PUSH1 0x0 DUP11 DUP2 MSTORE PUSH1 0x20 ADD SWAP1 DUP2 MSTORE PUSH1 0x20 ADD PUSH1 0x0 KECCAK256 PUSH1 0x0 PUSH2 0x1B5F SWAP2 SWAP1 PUSH2 0x267A JUMP JUMPDEST PUSH2 0x1B9F JUMP JUMPDEST PUSH1 0x40 MLOAD PUSH32 0x8C379A000000000000000000000000000000000000000000000000000000000 DUP2 MSTORE PUSH1 0x4 ADD PUSH2 0x1B96 SWAP1 PUSH2 0x3F57 JUMP JUMPDEST PUSH1 0x40 MLOAD DUP1 SWAP2 SUB SWAP1 REVERT JUMPDEST JUMPDEST POP JUMPDEST PUSH1 0x2 PUSH1 0x0 SWAP1 SLOAD SWAP1 PUSH2 0x100 EXP SWAP1 DIV PUSH20 0xFFFFFFFFFFFFFFFFFFFFFFFFFFFFFFFFFFFFFFFF AND PUSH20 0xFFFFFFFFFFFFFFFFFFFFFFFFFFFFFFFFFFFFFFFF AND PUSH4 0xB69BD77F CALLER DUP14 DUP12 DUP6 DUP15 PUSH1 0x40 MLOAD DUP7 PUSH4 0xFFFFFFFF AND PUSH1 0xE0 SHL DUP2 MSTORE PUSH1 0x4 ADD PUSH2 0x1C05 SWAP6 SWAP5 SWAP4 SWAP3 SWAP2 SWAP1 PUSH2 0x3F77 JUMP JUMPDEST PUSH1 0x0 PUSH1 0x40 MLOAD DUP1 DUP4 SUB DUP2 PUSH1 0x0 DUP8 DUP1 EXTCODESIZE ISZERO DUP1 ISZERO PUSH2 0x1C1F JUMPI PUSH1 0x0 DUP1 REVERT JUMPDEST POP GAS CALL ISZERO DUP1 ISZERO PUSH2 0x1C33 JUMPI RETURNDATASIZE PUSH1 0x0 DUP1 RETURNDATACOPY RETURNDATASIZE PUSH1 0x0 REVERT JUMPDEST POP POP POP POP PUSH1 0x0 DUP10 SUB PUSH2 0x1DFB JUMPI PUSH1 0x0 JUMPDEST DUP8 MLOAD DUP2 LT ISZERO PUSH2 0x1DF5 JUMPI PUSH1 0x9 PUSH1 0x0 CALLER PUSH20 0xFFFFFFFFFFFFFFFFFFFFFFFFFFFFFFFFFFFFFFFF AND PUSH20 0xFFFFFFFFFFFFFFFFFFFFFFFFFFFFFFFFFFFFFFFF AND DUP2 MSTORE PUSH1 0x20 ADD SWAP1 DUP2 MSTORE PUSH1 0x20 ADD PUSH1 0x0 KECCAK256 PUSH1 0x0 DUP14 PUSH20 0xFFFFFFFFFFFFFFFFFFFFFFFFFFFFFFFFFFFFFFFF AND PUSH20 0xFFFFFFFFFFFFFFFFFFFFFFFFFFFFFFFFFFFFFFFF AND DUP2 MSTORE PUSH1 0x20 ADD SWAP1 DUP2 MSTORE PUSH1 0x20 ADD PUSH1 0x0 KECCAK256 DUP9 DUP3 DUP2 MLOAD DUP2 LT PUSH2 0x1CDA JUMPI PUSH2 0x1CD9 PUSH2 0x3133 JUMP JUMPDEST JUMPDEST PUSH1 0x20 MUL PUSH1 0x20 ADD ADD MLOAD SWAP1 DUP1 PUSH1 0x1 DUP2 SLOAD ADD DUP1 DUP3 SSTORE DUP1 SWAP2 POP POP PUSH1 0x1 SWAP1 SUB SWAP1 PUSH1 0x0 MSTORE PUSH1 0x20 PUSH1 0x0 KECCAK256 SWAP1 PUSH1 0x5 MUL ADD PUSH1 0x0 SWAP1 SWAP2 SWAP1 SWAP2 SWAP1 SWAP2 POP PUSH1 0x0 DUP3 ADD MLOAD DUP2 PUSH1 0x0 ADD SSTORE PUSH1 0x20 DUP3 ADD MLOAD DUP2 PUSH1 0x1 ADD PUSH1 0x0 PUSH2 0x100 EXP DUP2 SLOAD DUP2 PUSH20 0xFFFFFFFFFFFFFFFFFFFFFFFFFFFFFFFFFFFFFFFF MUL NOT AND SWAP1 DUP4 PUSH20 0xFFFFFFFFFFFFFFFFFFFFFFFFFFFFFFFFFFFFFFFF AND MUL OR SWAP1 SSTORE POP PUSH1 0x40 DUP3 ADD MLOAD DUP2 PUSH1 0x2 ADD PUSH1 0x0 PUSH2 0x100 EXP DUP2 SLOAD DUP2 PUSH20 0xFFFFFFFFFFFFFFFFFFFFFFFFFFFFFFFFFFFFFFFF MUL NOT AND SWAP1 DUP4 PUSH20 0xFFFFFFFFFFFFFFFFFFFFFFFFFFFFFFFFFFFFFFFF AND MUL OR SWAP1 SSTORE POP PUSH1 0x60 DUP3 ADD MLOAD DUP2 PUSH1 0x3 ADD SWAP1 DUP1 MLOAD SWAP1 PUSH1 0x20 ADD SWAP1 PUSH2 0x1DBF SWAP3 SWAP2 SWAP1 PUSH2 0x269E JUMP JUMPDEST POP PUSH1 0x80 DUP3 ADD MLOAD DUP2 PUSH1 0x4 ADD PUSH1 0x0 PUSH2 0x100 EXP DUP2 SLOAD DUP2 PUSH1 0xFF MUL NOT AND SWAP1 DUP4 ISZERO ISZERO MUL OR SWAP1 SSTORE POP POP POP DUP1 DUP1 PUSH2 0x1DED SWAP1 PUSH2 0x3191 JUMP JUMPDEST SWAP2 POP POP PUSH2 0x1C42 JUMP JUMPDEST POP PUSH2 0x1FCD JUMP JUMPDEST PUSH1 0x1 DUP10 SUB PUSH2 0x1FCC JUMPI PUSH1 0x0 JUMPDEST DUP8 MLOAD DUP2 LT ISZERO PUSH2 0x1FCA JUMPI PUSH1 0xA PUSH1 0x0 CALLER PUSH20 0xFFFFFFFFFFFFFFFFFFFFFFFFFFFFFFFFFFFFFFFF AND PUSH20 0xFFFFFFFFFFFFFFFFFFFFFFFFFFFFFFFFFFFFFFFF AND DUP2 MSTORE PUSH1 0x20 ADD SWAP1 DUP2 MSTORE PUSH1 0x20 ADD PUSH1 0x0 KECCAK256 PUSH1 0x0 DUP14 PUSH20 0xFFFFFFFFFFFFFFFFFFFFFFFFFFFFFFFFFFFFFFFF AND PUSH20 0xFFFFFFFFFFFFFFFFFFFFFFFFFFFFFFFFFFFFFFFF AND DUP2 MSTORE PUSH1 0x20 ADD SWAP1 DUP2 MSTORE PUSH1 0x20 ADD PUSH1 0x0 KECCAK256 PUSH1 0x0 DUP11 DUP2 MSTORE PUSH1 0x20 ADD SWAP1 DUP2 MSTORE PUSH1 0x20 ADD PUSH1 0x0 KECCAK256 DUP9 DUP3 DUP2 MLOAD DUP2 LT PUSH2 0x1EAF JUMPI PUSH2 0x1EAE PUSH2 0x3133 JUMP JUMPDEST JUMPDEST PUSH1 0x20 MUL PUSH1 0x20 ADD ADD MLOAD SWAP1 DUP1 PUSH1 0x1 DUP2 SLOAD ADD DUP1 DUP3 SSTORE DUP1 SWAP2 POP POP PUSH1 0x1 SWAP1 SUB SWAP1 PUSH1 0x0 MSTORE PUSH1 0x20 PUSH1 0x0 KECCAK256 SWAP1 PUSH1 0x5 MUL ADD PUSH1 0x0 SWAP1 SWAP2 SWAP1 SWAP2 SWAP1 SWAP2 POP PUSH1 0x0 DUP3 ADD MLOAD DUP2 PUSH1 0x0 ADD SSTORE PUSH1 0x20 DUP3 ADD MLOAD DUP2 PUSH1 0x1 ADD PUSH1 0x0 PUSH2 0x100 EXP DUP2 SLOAD DUP2 PUSH20 0xFFFFFFFFFFFFFFFFFFFFFFFFFFFFFFFFFFFFFFFF MUL NOT AND SWAP1 DUP4 PUSH20 0xFFFFFFFFFFFFFFFFFFFFFFFFFFFFFFFFFFFFFFFF AND MUL OR SWAP1 SSTORE POP PUSH1 0x40 DUP3 ADD MLOAD DUP2 PUSH1 0x2 ADD PUSH1 0x0 PUSH2 0x100 EXP DUP2 SLOAD DUP2 PUSH20 0xFFFFFFFFFFFFFFFFFFFFFFFFFFFFFFFFFFFFFFFF MUL NOT AND SWAP1 DUP4 PUSH20 0xFFFFFFFFFFFFFFFFFFFFFFFFFFFFFFFFFFFFFFFF AND MUL OR SWAP1 SSTORE POP PUSH1 0x60 DUP3 ADD MLOAD DUP2 PUSH1 0x3 ADD SWAP1 DUP1 MLOAD SWAP1 PUSH1 0x20 ADD SWAP1 PUSH2 0x1F94 SWAP3 SWAP2 SWAP1 PUSH2 0x269E JUMP JUMPDEST POP PUSH1 0x80 DUP3 ADD MLOAD DUP2 PUSH1 0x4 ADD PUSH1 0x0 PUSH2 0x100 EXP DUP2 SLOAD DUP2 PUSH1 0xFF MUL NOT AND SWAP1 DUP4 ISZERO ISZERO MUL OR SWAP1 SSTORE POP POP POP DUP1 DUP1 PUSH2 0x1FC2 SWAP1 PUSH2 0x3191 JUMP JUMPDEST SWAP2 POP POP PUSH2 0x1E06 JUMP JUMPDEST POP JUMPDEST JUMPDEST CALLER PUSH20 0xFFFFFFFFFFFFFFFFFFFFFFFFFFFFFFFFFFFFFFFF AND PUSH32 0x356B94CB07D152DFB4F8876F9A6F4C7007027DD30AECB0AC9B698849E14E0E71 DUP13 DUP11 DUP13 PUSH1 0x40 MLOAD PUSH2 0x2017 SWAP4 SWAP3 SWAP2 SWAP1 PUSH2 0x3FCA JUMP JUMPDEST PUSH1 0x40 MLOAD DUP1 SWAP2 SUB SWAP1 LOG2 POP POP POP POP POP POP POP POP POP POP POP JUMP JUMPDEST PUSH2 0x2034 PUSH2 0x2530 JUMP JUMPDEST PUSH2 0x203E PUSH1 0x0 PUSH2 0x25AE JUMP JUMPDEST JUMP JUMPDEST PUSH1 0x0 DUP3 SWAP1 POP PUSH1 0x0 PUSH1 0x64 DUP4 DUP4 PUSH20 0xFFFFFFFFFFFFFFFFFFFFFFFFFFFFFFFFFFFFFFFF AND PUSH4 0x70A08231 DUP9 PUSH1 0x40 MLOAD DUP3 PUSH4 0xFFFFFFFF AND PUSH1 0xE0 SHL DUP2 MSTORE PUSH1 0x4 ADD PUSH2 0x2083 SWAP2 SWAP1 PUSH2 0x29CF JUMP JUMPDEST PUSH1 0x20 PUSH1 0x40 MLOAD DUP1 DUP4 SUB DUP2 DUP7 GAS STATICCALL ISZERO DUP1 ISZERO PUSH2 0x20A0 JUMPI RETURNDATASIZE PUSH1 0x0 DUP1 RETURNDATACOPY RETURNDATASIZE PUSH1 0x0 REVERT JUMPDEST POP POP POP POP PUSH1 0x40 MLOAD RETURNDATASIZE PUSH1 0x1F NOT PUSH1 0x1F DUP3 ADD AND DUP3 ADD DUP1 PUSH1 0x40 MSTORE POP DUP2 ADD SWAP1 PUSH2 0x20C4 SWAP2 SWAP1 PUSH2 0x3E26 JUMP JUMPDEST PUSH2 0x20CE SWAP2 SWAP1 PUSH2 0x4001 JUMP JUMPDEST PUSH2 0x20D8 SWAP2 SWAP1 PUSH2 0x4072 JUMP JUMPDEST SWAP1 POP PUSH1 0x0 PUSH2 0x2710 PUSH1 0x7 SLOAD DUP4 PUSH2 0x20ED SWAP2 SWAP1 PUSH2 0x4001 JUMP JUMPDEST PUSH2 0x20F7 SWAP2 SWAP1 PUSH2 0x4072 JUMP JUMPDEST SWAP1 POP PUSH1 0x0 DUP2 DUP4 PUSH2 0x2107 SWAP2 SWAP1 PUSH2 0x40A3 JUMP JUMPDEST SWAP1 POP DUP4 PUSH20 0xFFFFFFFFFFFFFFFFFFFFFFFFFFFFFFFFFFFFFFFF AND PUSH4 0x23B872DD DUP9 ADDRESS DUP6 PUSH1 0x40 MLOAD DUP5 PUSH4 0xFFFFFFFF AND PUSH1 0xE0 SHL DUP2 MSTORE PUSH1 0x4 ADD PUSH2 0x2146 SWAP4 SWAP3 SWAP2 SWAP1 PUSH2 0x3017 JUMP JUMPDEST PUSH1 0x20 PUSH1 0x40 MLOAD DUP1 DUP4 SUB DUP2 PUSH1 0x0 DUP8 GAS CALL ISZERO DUP1 ISZERO PUSH2 0x2165 JUMPI RETURNDATASIZE PUSH1 0x0 DUP1 RETURNDATACOPY RETURNDATASIZE PUSH1 0x0 REVERT JUMPDEST POP POP POP POP PUSH1 0x40 MLOAD RETURNDATASIZE PUSH1 0x1F NOT PUSH1 0x1F DUP3 ADD AND DUP3 ADD DUP1 PUSH1 0x40 MSTORE POP DUP2 ADD SWAP1 PUSH2 0x2189 SWAP2 SWAP1 PUSH2 0x3063 JUMP JUMPDEST POP DUP4 PUSH20 0xFFFFFFFFFFFFFFFFFFFFFFFFFFFFFFFFFFFFFFFF AND PUSH4 0x23B872DD DUP9 CALLER DUP5 PUSH1 0x40 MLOAD DUP5 PUSH4 0xFFFFFFFF AND PUSH1 0xE0 SHL DUP2 MSTORE PUSH1 0x4 ADD PUSH2 0x21C7 SWAP4 SWAP3 SWAP2 SWAP1 PUSH2 0x3017 JUMP JUMPDEST PUSH1 0x20 PUSH1 0x40 MLOAD DUP1 DUP4 SUB DUP2 PUSH1 0x0 DUP8 GAS CALL ISZERO DUP1 ISZERO PUSH2 0x21E6 JUMPI RETURNDATASIZE PUSH1 0x0 DUP1 RETURNDATACOPY RETURNDATASIZE PUSH1 0x0 REVERT JUMPDEST POP POP POP POP PUSH1 0x40 MLOAD RETURNDATASIZE PUSH1 0x1F NOT PUSH1 0x1F DUP3 ADD AND DUP3 ADD DUP1 PUSH1 0x40 MSTORE POP DUP2 ADD SWAP1 PUSH2 0x220A SWAP2 SWAP1 PUSH2 0x3063 JUMP JUMPDEST POP POP POP POP POP POP POP POP JUMP JUMPDEST PUSH1 0x0 DUP1 PUSH1 0x0 SWAP1 SLOAD SWAP1 PUSH2 0x100 EXP SWAP1 DIV PUSH20 0xFFFFFFFFFFFFFFFFFFFFFFFFFFFFFFFFFFFFFFFF AND SWAP1 POP SWAP1 JUMP JUMPDEST PUSH2 0x2245 PUSH2 0x2530 JUMP JUMPDEST PUSH1 0x0 DUP2 SWAP1 POP DUP1 PUSH20 0xFFFFFFFFFFFFFFFFFFFFFFFFFFFFFFFFFFFFFFFF AND PUSH4 0xA9059CBB CALLER DUP6 PUSH1 0x40 MLOAD DUP4 PUSH4 0xFFFFFFFF AND PUSH1 0xE0 SHL DUP2 MSTORE PUSH1 0x4 ADD PUSH2 0x2285 SWAP3 SWAP2 SWAP1 PUSH2 0x40D7 JUMP JUMPDEST PUSH1 0x20 PUSH1 0x40 MLOAD DUP1 DUP4 SUB DUP2 PUSH1 0x0 DUP8 GAS CALL ISZERO DUP1 ISZERO PUSH2 0x22A4 JUMPI RETURNDATASIZE PUSH1 0x0 DUP1 RETURNDATACOPY RETURNDATASIZE PUSH1 0x0 REVERT JUMPDEST POP POP POP POP PUSH1 0x40 MLOAD RETURNDATASIZE PUSH1 0x1F NOT PUSH1 0x1F DUP3 ADD AND DUP3 ADD DUP1 PUSH1 0x40 MSTORE POP DUP2 ADD SWAP1 PUSH2 0x22C8 SWAP2 SWAP1 PUSH2 0x3063 JUMP JUMPDEST POP POP POP POP JUMP JUMPDEST PUSH1 0x5 SLOAD DUP2 JUMP JUMPDEST PUSH1 0xA PUSH1 0x20 MSTORE DUP4 PUSH1 0x0 MSTORE PUSH1 0x40 PUSH1 0x0 KECCAK256 PUSH1 0x20 MSTORE DUP3 PUSH1 0x0 MSTORE PUSH1 0x40 PUSH1 0x0 KECCAK256 PUSH1 0x20 MSTORE DUP2 PUSH1 0x0 MSTORE PUSH1 0x40 PUSH1 0x0 KECCAK256 DUP2 DUP2 SLOAD DUP2 LT PUSH2 0x2308 JUMPI PUSH1 0x0 DUP1 REVERT JUMPDEST SWAP1 PUSH1 0x0 MSTORE PUSH1 0x20 PUSH1 0x0 KECCAK256 SWAP1 PUSH1 0x5 MUL ADD PUSH1 0x0 SWAP4 POP SWAP4 POP POP POP POP DUP1 PUSH1 0x0 ADD SLOAD SWAP1 DUP1 PUSH1 0x1 ADD PUSH1 0x0 SWAP1 SLOAD SWAP1 PUSH2 0x100 EXP SWAP1 DIV PUSH20 0xFFFFFFFFFFFFFFFFFFFFFFFFFFFFFFFFFFFFFFFF AND SWAP1 DUP1 PUSH1 0x2 ADD PUSH1 0x0 SWAP1 SLOAD SWAP1 PUSH2 0x100 EXP SWAP1 DIV PUSH20 0xFFFFFFFFFFFFFFFFFFFFFFFFFFFFFFFFFFFFFFFF AND SWAP1 DUP1 PUSH1 0x4 ADD PUSH1 0x0 SWAP1 SLOAD SWAP1 PUSH2 0x100 EXP SWAP1 DIV PUSH1 0xFF AND SWAP1 POP DUP5 JUMP JUMPDEST PUSH1 0x2 PUSH1 0x0 SWAP1 SLOAD SWAP1 PUSH2 0x100 EXP SWAP1 DIV PUSH20 0xFFFFFFFFFFFFFFFFFFFFFFFFFFFFFFFFFFFFFFFF AND DUP2 JUMP JUMPDEST PUSH1 0x9 PUSH1 0x20 MSTORE DUP3 PUSH1 0x0 MSTORE PUSH1 0x40 PUSH1 0x0 KECCAK256 PUSH1 0x20 MSTORE DUP2 PUSH1 0x0 MSTORE PUSH1 0x40 PUSH1 0x0 KECCAK256 DUP2 DUP2 SLOAD DUP2 LT PUSH2 0x23D6 JUMPI PUSH1 0x0 DUP1 REVERT JUMPDEST SWAP1 PUSH1 0x0 MSTORE PUSH1 0x20 PUSH1 0x0 KECCAK256 SWAP1 PUSH1 0x5 MUL ADD PUSH1 0x0 SWAP3 POP SWAP3 POP POP POP DUP1 PUSH1 0x0 ADD SLOAD SWAP1 DUP1 PUSH1 0x1 ADD PUSH1 0x0 SWAP1 SLOAD SWAP1 PUSH2 0x100 EXP SWAP1 DIV PUSH20 0xFFFFFFFFFFFFFFFFFFFFFFFFFFFFFFFFFFFFFFFF AND SWAP1 DUP1 PUSH1 0x2 ADD PUSH1 0x0 SWAP1 SLOAD SWAP1 PUSH2 0x100 EXP SWAP1 DIV PUSH20 0xFFFFFFFFFFFFFFFFFFFFFFFFFFFFFFFFFFFFFFFF AND SWAP1 DUP1 PUSH1 0x4 ADD PUSH1 0x0 SWAP1 SLOAD SWAP1 PUSH2 0x100 EXP SWAP1 DIV PUSH1 0xFF AND SWAP1 POP DUP5 JUMP JUMPDEST PUSH1 0x6 SLOAD DUP2 JUMP JUMPDEST PUSH1 0x7 SLOAD DUP2 JUMP JUMPDEST PUSH1 0x3 PUSH1 0x0 SWAP1 SLOAD SWAP1 PUSH2 0x100 EXP SWAP1 DIV PUSH20 0xFFFFFFFFFFFFFFFFFFFFFFFFFFFFFFFFFFFFFFFF AND DUP2 JUMP JUMPDEST PUSH2 0x248F PUSH2 0x2530 JUMP JUMPDEST PUSH1 0x0 PUSH20 0xFFFFFFFFFFFFFFFFFFFFFFFFFFFFFFFFFFFFFFFF AND DUP2 PUSH20 0xFFFFFFFFFFFFFFFFFFFFFFFFFFFFFFFFFFFFFFFF AND SUB PUSH2 0x24FE JUMPI PUSH1 0x40 MLOAD PUSH32 0x8C379A000000000000000000000000000000000000000000000000000000000 DUP2 MSTORE PUSH1 0x4 ADD PUSH2 0x24F5 SWAP1 PUSH2 0x4172 JUMP JUMPDEST PUSH1 0x40 MLOAD DUP1 SWAP2 SUB SWAP1 REVERT JUMPDEST PUSH2 0x2507 DUP2 PUSH2 0x25AE JUMP JUMPDEST POP JUMP JUMPDEST PUSH1 0x4 PUSH1 0x0 SWAP1 SLOAD SWAP1 PUSH2 0x100 EXP SWAP1 DIV PUSH20 0xFFFFFFFFFFFFFFFFFFFFFFFFFFFFFFFFFFFFFFFF AND DUP2 JUMP JUMPDEST PUSH2 0x2538 PUSH2 0x2672 JUMP JUMPDEST PUSH20 0xFFFFFFFFFFFFFFFFFFFFFFFFFFFFFFFFFFFFFFFF AND PUSH2 0x2556 PUSH2 0x2214 JUMP JUMPDEST PUSH20 0xFFFFFFFFFFFFFFFFFFFFFFFFFFFFFFFFFFFFFFFF AND EQ PUSH2 0x25AC JUMPI PUSH1 0x40 MLOAD PUSH32 0x8C379A000000000000000000000000000000000000000000000000000000000 DUP2 MSTORE PUSH1 0x4 ADD PUSH2 0x25A3 SWAP1 PUSH2 0x41DE JUMP JUMPDEST PUSH1 0x40 MLOAD DUP1 SWAP2 SUB SWAP1 REVERT JUMPDEST JUMP JUMPDEST PUSH1 0x0 DUP1 PUSH1 0x0 SWAP1 SLOAD SWAP1 PUSH2 0x100 EXP SWAP1 DIV PUSH20 0xFFFFFFFFFFFFFFFFFFFFFFFFFFFFFFFFFFFFFFFF AND SWAP1 POP DUP2 PUSH1 0x0 DUP1 PUSH2 0x100 EXP DUP2 SLOAD DUP2 PUSH20 0xFFFFFFFFFFFFFFFFFFFFFFFFFFFFFFFFFFFFFFFF MUL NOT AND SWAP1 DUP4 PUSH20 0xFFFFFFFFFFFFFFFFFFFFFFFFFFFFFFFFFFFFFFFF AND MUL OR SWAP1 SSTORE POP DUP2 PUSH20 0xFFFFFFFFFFFFFFFFFFFFFFFFFFFFFFFFFFFFFFFF AND DUP2 PUSH20 0xFFFFFFFFFFFFFFFFFFFFFFFFFFFFFFFFFFFFFFFF AND PUSH32 0x8BE0079C531659141344CD1FD0A4F28419497F9722A3DAAFE3B4186F6B6457E0 PUSH1 0x40 MLOAD PUSH1 0x40 MLOAD DUP1 SWAP2 SUB SWAP1 LOG3 POP POP JUMP JUMPDEST PUSH1 0x0 CALLER SWAP1 POP SWAP1 JUMP JUMPDEST POP DUP1 SLOAD PUSH1 0x0 DUP3 SSTORE PUSH1 0x5 MUL SWAP1 PUSH1 0x0 MSTORE PUSH1 0x20 PUSH1 0x0 KECCAK256 SWAP1 DUP2 ADD SWAP1 PUSH2 0x269B SWAP2 SWAP1 PUSH2 0x2728 JUMP JUMPDEST POP JUMP JUMPDEST DUP3 DUP1 SLOAD DUP3 DUP3 SSTORE SWAP1 PUSH1 0x0 MSTORE PUSH1 0x20 PUSH1 0x0 KECCAK256 SWAP1 DUP2 ADD SWAP3 DUP3 ISZERO PUSH2 0x2717 JUMPI SWAP2 PUSH1 0x20 MUL DUP3 ADD JUMPDEST DUP3 DUP2 GT ISZERO PUSH2 0x2716 JUMPI DUP3 MLOAD DUP3 PUSH1 0x0 PUSH2 0x100 EXP DUP2 SLOAD DUP2 PUSH20 0xFFFFFFFFFFFFFFFFFFFFFFFFFFFFFFFFFFFFFFFF MUL NOT AND SWAP1 DUP4 PUSH20 0xFFFFFFFFFFFFFFFFFFFFFFFFFFFFFFFFFFFFFFFF AND MUL OR SWAP1 SSTORE POP SWAP2 PUSH1 0x20 ADD SWAP2 SWAP1 PUSH1 0x1 ADD SWAP1 PUSH2 0x26BE JUMP JUMPDEST JUMPDEST POP SWAP1 POP PUSH2 0x2724 SWAP2 SWAP1 PUSH2 0x27B9 JUMP JUMPDEST POP SWAP1 JUMP JUMPDEST JUMPDEST DUP1 DUP3 GT ISZERO PUSH2 0x27B5 JUMPI PUSH1 0x0 DUP1 DUP3 ADD PUSH1 0x0 SWAP1 SSTORE PUSH1 0x1 DUP3 ADD PUSH1 0x0 PUSH2 0x100 EXP DUP2 SLOAD SWAP1 PUSH20 0xFFFFFFFFFFFFFFFFFFFFFFFFFFFFFFFFFFFFFFFF MUL NOT AND SWAP1 SSTORE PUSH1 0x2 DUP3 ADD PUSH1 0x0 PUSH2 0x100 EXP DUP2 SLOAD SWAP1 PUSH20 0xFFFFFFFFFFFFFFFFFFFFFFFFFFFFFFFFFFFFFFFF MUL NOT AND SWAP1 SSTORE PUSH1 0x3 DUP3 ADD PUSH1 0x0 PUSH2 0x2798 SWAP2 SWAP1 PUSH2 0x27D6 JUMP JUMPDEST PUSH1 0x4 DUP3 ADD PUSH1 0x0 PUSH2 0x100 EXP DUP2 SLOAD SWAP1 PUSH1 0xFF MUL NOT AND SWAP1 SSTORE POP PUSH1 0x5 ADD PUSH2 0x2729 JUMP JUMPDEST POP SWAP1 JUMP JUMPDEST JUMPDEST DUP1 DUP3 GT ISZERO PUSH2 0x27D2 JUMPI PUSH1 0x0 DUP2 PUSH1 0x0 SWAP1 SSTORE POP PUSH1 0x1 ADD PUSH2 0x27BA JUMP JUMPDEST POP SWAP1 JUMP JUMPDEST POP DUP1 SLOAD PUSH1 0x0 DUP3 SSTORE SWAP1 PUSH1 0x0 MSTORE PUSH1 0x20 PUSH1 0x0 KECCAK256 SWAP1 DUP2 ADD SWAP1 PUSH2 0x27F4 SWAP2 SWAP1 PUSH2 0x27B9 JUMP JUMPDEST POP JUMP JUMPDEST PUSH1 0x0 PUSH1 0x40 MLOAD SWAP1 POP SWAP1 JUMP JUMPDEST PUSH1 0x0 DUP1 REVERT JUMPDEST PUSH1 0x0 DUP1 REVERT JUMPDEST PUSH1 0x0 PUSH20 0xFFFFFFFFFFFFFFFFFFFFFFFFFFFFFFFFFFFFFFFF DUP3 AND SWAP1 POP SWAP2 SWAP1 POP JUMP JUMPDEST PUSH1 0x0 PUSH2 0x2836 DUP3 PUSH2 0x280B JUMP JUMPDEST SWAP1 POP SWAP2 SWAP1 POP JUMP JUMPDEST PUSH2 0x2846 DUP2 PUSH2 0x282B JUMP JUMPDEST DUP2 EQ PUSH2 0x2851 JUMPI PUSH1 0x0 DUP1 REVERT JUMPDEST POP JUMP JUMPDEST PUSH1 0x0 DUP2 CALLDATALOAD SWAP1 POP PUSH2 0x2863 DUP2 PUSH2 0x283D JUMP JUMPDEST SWAP3 SWAP2 POP POP JUMP JUMPDEST PUSH1 0x0 DUP2 SWAP1 POP SWAP2 SWAP1 POP JUMP JUMPDEST PUSH2 0x287C DUP2 PUSH2 0x2869 JUMP JUMPDEST DUP2 EQ PUSH2 0x2887 JUMPI PUSH1 0x0 DUP1 REVERT JUMPDEST POP JUMP JUMPDEST PUSH1 0x0 DUP2 CALLDATALOAD SWAP1 POP PUSH2 0x2899 DUP2 PUSH2 0x2873 JUMP JUMPDEST SWAP3 SWAP2 POP POP JUMP JUMPDEST PUSH1 0x0 DUP1 PUSH1 0x0 DUP1 PUSH1 0x80 DUP6 DUP8 SUB SLT ISZERO PUSH2 0x28B9 JUMPI PUSH2 0x28B8 PUSH2 0x2801 JUMP JUMPDEST JUMPDEST PUSH1 0x0 PUSH2 0x28C7 DUP8 DUP3 DUP9 ADD PUSH2 0x2854 JUMP JUMPDEST SWAP5 POP POP PUSH1 0x20 PUSH2 0x28D8 DUP8 DUP3 DUP9 ADD PUSH2 0x288A JUMP JUMPDEST SWAP4 POP POP PUSH1 0x40 PUSH2 0x28E9 DUP8 DUP3 DUP9 ADD PUSH2 0x288A JUMP JUMPDEST SWAP3 POP POP PUSH1 0x60 PUSH2 0x28FA DUP8 DUP3 DUP9 ADD PUSH2 0x288A JUMP JUMPDEST SWAP2 POP POP SWAP3 SWAP6 SWAP2 SWAP5 POP SWAP3 POP JUMP JUMPDEST PUSH1 0x0 DUP1 PUSH1 0x0 PUSH1 0x60 DUP5 DUP7 SUB SLT ISZERO PUSH2 0x291F JUMPI PUSH2 0x291E PUSH2 0x2801 JUMP JUMPDEST JUMPDEST PUSH1 0x0 PUSH2 0x292D DUP7 DUP3 DUP8 ADD PUSH2 0x2854 JUMP JUMPDEST SWAP4 POP POP PUSH1 0x20 PUSH2 0x293E DUP7 DUP3 DUP8 ADD PUSH2 0x2854 JUMP JUMPDEST SWAP3 POP POP PUSH1 0x40 PUSH2 0x294F DUP7 DUP3 DUP8 ADD PUSH2 0x288A JUMP JUMPDEST SWAP2 POP POP SWAP3 POP SWAP3 POP SWAP3 JUMP JUMPDEST PUSH1 0x0 DUP1 PUSH1 0x0 DUP1 PUSH1 0x80 DUP6 DUP8 SUB SLT ISZERO PUSH2 0x2973 JUMPI PUSH2 0x2972 PUSH2 0x2801 JUMP JUMPDEST JUMPDEST PUSH1 0x0 PUSH2 0x2981 DUP8 DUP3 DUP9 ADD PUSH2 0x2854 JUMP JUMPDEST SWAP5 POP POP PUSH1 0x20 PUSH2 0x2992 DUP8 DUP3 DUP9 ADD PUSH2 0x2854 JUMP JUMPDEST SWAP4 POP POP PUSH1 0x40 PUSH2 0x29A3 DUP8 DUP3 DUP9 ADD PUSH2 0x288A JUMP JUMPDEST SWAP3 POP POP PUSH1 0x60 PUSH2 0x29B4 DUP8 DUP3 DUP9 ADD PUSH2 0x288A JUMP JUMPDEST SWAP2 POP POP SWAP3 SWAP6 SWAP2 SWAP5 POP SWAP3 POP JUMP JUMPDEST PUSH2 0x29C9 DUP2 PUSH2 0x282B JUMP JUMPDEST DUP3 MSTORE POP POP JUMP JUMPDEST PUSH1 0x0 PUSH1 0x20 DUP3 ADD SWAP1 POP PUSH2 0x29E4 PUSH1 0x0 DUP4 ADD DUP5 PUSH2 0x29C0 JUMP JUMPDEST SWAP3 SWAP2 POP POP JUMP JUMPDEST PUSH1 0x0 DUP1 REVERT JUMPDEST PUSH1 0x0 DUP1 REVERT JUMPDEST PUSH1 0x0 PUSH1 0x1F NOT PUSH1 0x1F DUP4 ADD AND SWAP1 POP SWAP2 SWAP1 POP JUMP JUMPDEST PUSH32 0x4E487B7100000000000000000000000000000000000000000000000000000000 PUSH1 0x0 MSTORE PUSH1 0x41 PUSH1 0x4 MSTORE PUSH1 0x24 PUSH1 0x0 REVERT JUMPDEST PUSH2 0x2A3D DUP3 PUSH2 0x29F4 JUMP JUMPDEST DUP2 ADD DUP2 DUP2 LT PUSH8 0xFFFFFFFFFFFFFFFF DUP3 GT OR ISZERO PUSH2 0x2A5C JUMPI PUSH2 0x2A5B PUSH2 0x2A05 JUMP JUMPDEST JUMPDEST DUP1 PUSH1 0x40 MSTORE POP POP POP JUMP JUMPDEST PUSH1 0x0 PUSH2 0x2A6F PUSH2 0x27F7 JUMP JUMPDEST SWAP1 POP PUSH2 0x2A7B DUP3 DUP3 PUSH2 0x2A34 JUMP JUMPDEST SWAP2 SWAP1 POP JUMP JUMPDEST PUSH1 0x0 PUSH8 0xFFFFFFFFFFFFFFFF DUP3 GT ISZERO PUSH2 0x2A9B JUMPI PUSH2 0x2A9A PUSH2 0x2A05 JUMP JUMPDEST JUMPDEST PUSH2 0x2AA4 DUP3 PUSH2 0x29F4 JUMP JUMPDEST SWAP1 POP PUSH1 0x20 DUP2 ADD SWAP1 POP SWAP2 SWAP1 POP JUMP JUMPDEST DUP3 DUP2 DUP4 CALLDATACOPY PUSH1 0x0 DUP4 DUP4 ADD MSTORE POP POP POP JUMP JUMPDEST PUSH1 0x0 PUSH2 0x2AD3 PUSH2 0x2ACE DUP5 PUSH2 0x2A80 JUMP JUMPDEST PUSH2 0x2A65 JUMP JUMPDEST SWAP1 POP DUP3 DUP2 MSTORE PUSH1 0x20 DUP2 ADD DUP5 DUP5 DUP5 ADD GT ISZERO PUSH2 0x2AEF JUMPI PUSH2 0x2AEE PUSH2 0x29EF JUMP JUMPDEST JUMPDEST PUSH2 0x2AFA DUP5 DUP3 DUP6 PUSH2 0x2AB1 JUMP JUMPDEST POP SWAP4 SWAP3 POP POP POP JUMP JUMPDEST PUSH1 0x0 DUP3 PUSH1 0x1F DUP4 ADD SLT PUSH2 0x2B17 JUMPI PUSH2 0x2B16 PUSH2 0x29EA JUMP JUMPDEST JUMPDEST DUP2 CALLDATALOAD PUSH2 0x2B27 DUP5 DUP3 PUSH1 0x20 DUP7 ADD PUSH2 0x2AC0 JUMP JUMPDEST SWAP2 POP POP SWAP3 SWAP2 POP POP JUMP JUMPDEST PUSH1 0x0 PUSH8 0xFFFFFFFFFFFFFFFF DUP3 GT ISZERO PUSH2 0x2B4B JUMPI PUSH2 0x2B4A PUSH2 0x2A05 JUMP JUMPDEST JUMPDEST PUSH1 0x20 DUP3 MUL SWAP1 POP PUSH1 0x20 DUP2 ADD SWAP1 POP SWAP2 SWAP1 POP JUMP JUMPDEST PUSH1 0x0 DUP1 REVERT JUMPDEST PUSH1 0x0 DUP1 REVERT JUMPDEST PUSH1 0x0 DUP1 REVERT JUMPDEST PUSH1 0x0 PUSH8 0xFFFFFFFFFFFFFFFF DUP3 GT ISZERO PUSH2 0x2B86 JUMPI PUSH2 0x2B85 PUSH2 0x2A05 JUMP JUMPDEST JUMPDEST PUSH1 0x20 DUP3 MUL SWAP1 POP PUSH1 0x20 DUP2 ADD SWAP1 POP SWAP2 SWAP1 POP JUMP JUMPDEST PUSH1 0x0 PUSH2 0x2BAA PUSH2 0x2BA5 DUP5 PUSH2 0x2B6B JUMP JUMPDEST PUSH2 0x2A65 JUMP JUMPDEST SWAP1 POP DUP1 DUP4 DUP3 MSTORE PUSH1 0x20 DUP3 ADD SWAP1 POP PUSH1 0x20 DUP5 MUL DUP4 ADD DUP6 DUP2 GT ISZERO PUSH2 0x2BCD JUMPI PUSH2 0x2BCC PUSH2 0x2B5C JUMP JUMPDEST JUMPDEST DUP4 JUMPDEST DUP2 DUP2 LT ISZERO PUSH2 0x2BF6 JUMPI DUP1 PUSH2 0x2BE2 DUP9 DUP3 PUSH2 0x2854 JUMP JUMPDEST DUP5 MSTORE PUSH1 0x20 DUP5 ADD SWAP4 POP POP PUSH1 0x20 DUP2 ADD SWAP1 POP PUSH2 0x2BCF JUMP JUMPDEST POP POP POP SWAP4 SWAP3 POP POP POP JUMP JUMPDEST PUSH1 0x0 DUP3 PUSH1 0x1F DUP4 ADD SLT PUSH2 0x2C15 JUMPI PUSH2 0x2C14 PUSH2 0x29EA JUMP JUMPDEST JUMPDEST DUP2 CALLDATALOAD PUSH2 0x2C25 DUP5 DUP3 PUSH1 0x20 DUP7 ADD PUSH2 0x2B97 JUMP JUMPDEST SWAP2 POP POP SWAP3 SWAP2 POP POP JUMP JUMPDEST PUSH1 0x0 DUP2 ISZERO ISZERO SWAP1 POP SWAP2 SWAP1 POP JUMP JUMPDEST PUSH2 0x2C43 DUP2 PUSH2 0x2C2E JUMP JUMPDEST DUP2 EQ PUSH2 0x2C4E JUMPI PUSH1 0x0 DUP1 REVERT JUMPDEST POP JUMP JUMPDEST PUSH1 0x0 DUP2 CALLDATALOAD SWAP1 POP PUSH2 0x2C60 DUP2 PUSH2 0x2C3A JUMP JUMPDEST SWAP3 SWAP2 POP POP JUMP JUMPDEST PUSH1 0x0 PUSH1 0xA0 DUP3 DUP5 SUB SLT ISZERO PUSH2 0x2C7C JUMPI PUSH2 0x2C7B PUSH2 0x2B61 JUMP JUMPDEST JUMPDEST PUSH2 0x2C86 PUSH1 0xA0 PUSH2 0x2A65 JUMP JUMPDEST SWAP1 POP PUSH1 0x0 PUSH2 0x2C96 DUP5 DUP3 DUP6 ADD PUSH2 0x288A JUMP JUMPDEST PUSH1 0x0 DUP4 ADD MSTORE POP PUSH1 0x20 PUSH2 0x2CAA DUP5 DUP3 DUP6 ADD PUSH2 0x2854 JUMP JUMPDEST PUSH1 0x20 DUP4 ADD MSTORE POP PUSH1 0x40 PUSH2 0x2CBE DUP5 DUP3 DUP6 ADD PUSH2 0x2854 JUMP JUMPDEST PUSH1 0x40 DUP4 ADD MSTORE POP PUSH1 0x60 DUP3 ADD CALLDATALOAD PUSH8 0xFFFFFFFFFFFFFFFF DUP2 GT ISZERO PUSH2 0x2CE2 JUMPI PUSH2 0x2CE1 PUSH2 0x2B66 JUMP JUMPDEST JUMPDEST PUSH2 0x2CEE DUP5 DUP3 DUP6 ADD PUSH2 0x2C00 JUMP JUMPDEST PUSH1 0x60 DUP4 ADD MSTORE POP PUSH1 0x80 PUSH2 0x2D02 DUP5 DUP3 DUP6 ADD PUSH2 0x2C51 JUMP JUMPDEST PUSH1 0x80 DUP4 ADD MSTORE POP SWAP3 SWAP2 POP POP JUMP JUMPDEST PUSH1 0x0 PUSH2 0x2D21 PUSH2 0x2D1C DUP5 PUSH2 0x2B30 JUMP JUMPDEST PUSH2 0x2A65 JUMP JUMPDEST SWAP1 POP DUP1 DUP4 DUP3 MSTORE PUSH1 0x20 DUP3 ADD SWAP1 POP PUSH1 0x20 DUP5 MUL DUP4 ADD DUP6 DUP2 GT ISZERO PUSH2 0x2D44 JUMPI PUSH2 0x2D43 PUSH2 0x2B5C JUMP JUMPDEST JUMPDEST DUP4 JUMPDEST DUP2 DUP2 LT ISZERO PUSH2 0x2D8B JUMPI DUP1 CALLDATALOAD PUSH8 0xFFFFFFFFFFFFFFFF DUP2 GT ISZERO PUSH2 0x2D69 JUMPI PUSH2 0x2D68 PUSH2 0x29EA JUMP JUMPDEST JUMPDEST DUP1 DUP7 ADD PUSH2 0x2D76 DUP10 DUP3 PUSH2 0x2C66 JUMP JUMPDEST DUP6 MSTORE PUSH1 0x20 DUP6 ADD SWAP5 POP POP POP PUSH1 0x20 DUP2 ADD SWAP1 POP PUSH2 0x2D46 JUMP JUMPDEST POP POP POP SWAP4 SWAP3 POP POP POP JUMP JUMPDEST PUSH1 0x0 DUP3 PUSH1 0x1F DUP4 ADD SLT PUSH2 0x2DAA JUMPI PUSH2 0x2DA9 PUSH2 0x29EA JUMP JUMPDEST JUMPDEST DUP2 CALLDATALOAD PUSH2 0x2DBA DUP5 DUP3 PUSH1 0x20 DUP7 ADD PUSH2 0x2D0E JUMP JUMPDEST SWAP2 POP POP SWAP3 SWAP2 POP POP JUMP JUMPDEST PUSH1 0x0 DUP1 PUSH1 0x0 DUP1 PUSH1 0x0 PUSH1 0xA0 DUP7 DUP9 SUB SLT ISZERO PUSH2 0x2DDF JUMPI PUSH2 0x2DDE PUSH2 0x2801 JUMP JUMPDEST JUMPDEST PUSH1 0x0 PUSH2 0x2DED DUP9 DUP3 DUP10 ADD PUSH2 0x2854 JUMP JUMPDEST SWAP6 POP POP PUSH1 0x20 DUP7 ADD CALLDATALOAD PUSH8 0xFFFFFFFFFFFFFFFF DUP2 GT ISZERO PUSH2 0x2E0E JUMPI PUSH2 0x2E0D PUSH2 0x2806 JUMP JUMPDEST JUMPDEST PUSH2 0x2E1A DUP9 DUP3 DUP10 ADD PUSH2 0x2B02 JUMP JUMPDEST SWAP5 POP POP PUSH1 0x40 PUSH2 0x2E2B DUP9 DUP3 DUP10 ADD PUSH2 0x288A JUMP JUMPDEST SWAP4 POP POP PUSH1 0x60 PUSH2 0x2E3C DUP9 DUP3 DUP10 ADD PUSH2 0x288A JUMP JUMPDEST SWAP3 POP POP PUSH1 0x80 DUP7 ADD CALLDATALOAD PUSH8 0xFFFFFFFFFFFFFFFF DUP2 GT ISZERO PUSH2 0x2E5D JUMPI PUSH2 0x2E5C PUSH2 0x2806 JUMP JUMPDEST JUMPDEST PUSH2 0x2E69 DUP9 DUP3 DUP10 ADD PUSH2 0x2D95 JUMP JUMPDEST SWAP2 POP POP SWAP3 SWAP6 POP SWAP3 SWAP6 SWAP1 SWAP4 POP JUMP JUMPDEST PUSH1 0x0 DUP1 PUSH1 0x40 DUP4 DUP6 SUB SLT ISZERO PUSH2 0x2E8D JUMPI PUSH2 0x2E8C PUSH2 0x2801 JUMP JUMPDEST JUMPDEST PUSH1 0x0 PUSH2 0x2E9B DUP6 DUP3 DUP7 ADD PUSH2 0x288A JUMP JUMPDEST SWAP3 POP POP PUSH1 0x20 PUSH2 0x2EAC DUP6 DUP3 DUP7 ADD PUSH2 0x2854 JUMP JUMPDEST SWAP2 POP POP SWAP3 POP SWAP3 SWAP1 POP JUMP JUMPDEST PUSH2 0x2EBF DUP2 PUSH2 0x2869 JUMP JUMPDEST DUP3 MSTORE POP POP JUMP JUMPDEST PUSH1 0x0 PUSH1 0x20 DUP3 ADD SWAP1 POP PUSH2 0x2EDA PUSH1 0x0 DUP4 ADD DUP5 PUSH2 0x2EB6 JUMP JUMPDEST SWAP3 SWAP2 POP POP JUMP JUMPDEST PUSH2 0x2EE9 DUP2 PUSH2 0x2C2E JUMP JUMPDEST DUP3 MSTORE POP POP JUMP JUMPDEST PUSH1 0x0 PUSH1 0x80 DUP3 ADD SWAP1 POP PUSH2 0x2F04 PUSH1 0x0 DUP4 ADD DUP8 PUSH2 0x2EB6 JUMP JUMPDEST PUSH2 0x2F11 PUSH1 0x20 DUP4 ADD DUP7 PUSH2 0x29C0 JUMP JUMPDEST PUSH2 0x2F1E PUSH1 0x40 DUP4 ADD DUP6 PUSH2 0x29C0 JUMP JUMPDEST PUSH2 0x2F2B PUSH1 0x60 DUP4 ADD DUP5 PUSH2 0x2EE0 JUMP JUMPDEST SWAP6 SWAP5 POP POP POP POP POP JUMP JUMPDEST PUSH1 0x0 DUP2 SWAP1 POP SWAP2 SWAP1 POP JUMP JUMPDEST PUSH1 0x0 PUSH2 0x2F59 PUSH2 0x2F54 PUSH2 0x2F4F DUP5 PUSH2 0x280B JUMP JUMPDEST PUSH2 0x2F34 JUMP JUMPDEST PUSH2 0x280B JUMP JUMPDEST SWAP1 POP SWAP2 SWAP1 POP JUMP JUMPDEST PUSH1 0x0 PUSH2 0x2F6B DUP3 PUSH2 0x2F3E JUMP JUMPDEST SWAP1 POP SWAP2 SWAP1 POP JUMP JUMPDEST PUSH1 0x0 PUSH2 0x2F7D DUP3 PUSH2 0x2F60 JUMP JUMPDEST SWAP1 POP SWAP2 SWAP1 POP JUMP JUMPDEST PUSH2 0x2F8D DUP2 PUSH2 0x2F72 JUMP JUMPDEST DUP3 MSTORE POP POP JUMP JUMPDEST PUSH1 0x0 PUSH1 0x20 DUP3 ADD SWAP1 POP PUSH2 0x2FA8 PUSH1 0x0 DUP4 ADD DUP5 PUSH2 0x2F84 JUMP JUMPDEST SWAP3 SWAP2 POP POP JUMP JUMPDEST PUSH1 0x0 PUSH1 0x20 DUP3 DUP5 SUB SLT ISZERO PUSH2 0x2FC4 JUMPI PUSH2 0x2FC3 PUSH2 0x2801 JUMP JUMPDEST JUMPDEST PUSH1 0x0 PUSH2 0x2FD2 DUP5 DUP3 DUP6 ADD PUSH2 0x2854 JUMP JUMPDEST SWAP2 POP POP SWAP3 SWAP2 POP POP JUMP JUMPDEST PUSH1 0x0 PUSH2 0x2FE6 DUP3 PUSH2 0x2F60 JUMP JUMPDEST SWAP1 POP SWAP2 SWAP1 POP JUMP JUMPDEST PUSH2 0x2FF6 DUP2 PUSH2 0x2FDB JUMP JUMPDEST DUP3 MSTORE POP POP JUMP JUMPDEST PUSH1 0x0 PUSH1 0x20 DUP3 ADD SWAP1 POP PUSH2 0x3011 PUSH1 0x0 DUP4 ADD DUP5 PUSH2 0x2FED JUMP JUMPDEST SWAP3 SWAP2 POP POP JUMP JUMPDEST PUSH1 0x0 PUSH1 0x60 DUP3 ADD SWAP1 POP PUSH2 0x302C PUSH1 0x0 DUP4 ADD DUP7 PUSH2 0x29C0 JUMP JUMPDEST PUSH2 0x3039 PUSH1 0x20 DUP4 ADD DUP6 PUSH2 0x29C0 JUMP JUMPDEST PUSH2 0x3046 PUSH1 0x40 DUP4 ADD DUP5 PUSH2 0x2EB6 JUMP JUMPDEST SWAP5 SWAP4 POP POP POP POP JUMP JUMPDEST PUSH1 0x0 DUP2 MLOAD SWAP1 POP PUSH2 0x305D DUP2 PUSH2 0x2C3A JUMP JUMPDEST SWAP3 SWAP2 POP POP JUMP JUMPDEST PUSH1 0x0 PUSH1 0x20 DUP3 DUP5 SUB SLT ISZERO PUSH2 0x3079 JUMPI PUSH2 0x3078 PUSH2 0x2801 JUMP JUMPDEST JUMPDEST PUSH1 0x0 PUSH2 0x3087 DUP5 DUP3 DUP6 ADD PUSH2 0x304E JUMP JUMPDEST SWAP2 POP POP SWAP3 SWAP2 POP POP JUMP JUMPDEST PUSH1 0x0 DUP3 DUP3 MSTORE PUSH1 0x20 DUP3 ADD SWAP1 POP SWAP3 SWAP2 POP POP JUMP JUMPDEST PUSH32 0x536F7272792120596F752063616E277420636C61696D20746869732E20576520 PUSH1 0x0 DUP3 ADD MSTORE PUSH32 0x77696C6C206D61696C20796F7520746F20636C61696D20746869732E00000000 PUSH1 0x20 DUP3 ADD MSTORE POP JUMP JUMPDEST PUSH1 0x0 PUSH2 0x30FD PUSH1 0x3C DUP4 PUSH2 0x3090 JUMP JUMPDEST SWAP2 POP PUSH2 0x3108 DUP3 PUSH2 0x30A1 JUMP JUMPDEST PUSH1 0x40 DUP3 ADD SWAP1 POP SWAP2 SWAP1 POP JUMP JUMPDEST PUSH1 0x0 PUSH1 0x20 DUP3 ADD SWAP1 POP DUP2 DUP2 SUB PUSH1 0x0 DUP4 ADD MSTORE PUSH2 0x312C DUP2 PUSH2 0x30F0 JUMP JUMPDEST SWAP1 POP SWAP2 SWAP1 POP JUMP JUMPDEST PUSH32 0x4E487B7100000000000000000000000000000000000000000000000000000000 PUSH1 0x0 MSTORE PUSH1 0x32 PUSH1 0x4 MSTORE PUSH1 0x24 PUSH1 0x0 REVERT JUMPDEST PUSH32 0x4E487B7100000000000000000000000000000000000000000000000000000000 PUSH1 0x0 MSTORE PUSH1 0x11 PUSH1 0x4 MSTORE PUSH1 0x24 PUSH1 0x0 REVERT JUMPDEST PUSH1 0x0 PUSH2 0x319C DUP3 PUSH2 0x2869 JUMP JUMPDEST SWAP2 POP PUSH32 0xFFFFFFFFFFFFFFFFFFFFFFFFFFFFFFFFFFFFFFFFFFFFFFFFFFFFFFFFFFFFFFFF DUP3 SUB PUSH2 0x31CE JUMPI PUSH2 0x31CD PUSH2 0x3162 JUMP JUMPDEST JUMPDEST PUSH1 0x1 DUP3 ADD SWAP1 POP SWAP2 SWAP1 POP JUMP JUMPDEST PUSH32 0x4F6F70732120596F752063616E277420636C61696D2074686973207269676874 PUSH1 0x0 DUP3 ADD MSTORE PUSH32 0x206E6F772E2057652077696C6C20696E666F726D20796F75207768656E20796F PUSH1 0x20 DUP3 ADD MSTORE PUSH32 0x752063616E20636C61696D2074686520746F6B656E2E00000000000000000000 PUSH1 0x40 DUP3 ADD MSTORE POP JUMP JUMPDEST PUSH1 0x0 PUSH2 0x325B PUSH1 0x56 DUP4 PUSH2 0x3090 JUMP JUMPDEST SWAP2 POP PUSH2 0x3266 DUP3 PUSH2 0x31D9 JUMP JUMPDEST PUSH1 0x60 DUP3 ADD SWAP1 POP SWAP2 SWAP1 POP JUMP JUMPDEST PUSH1 0x0 PUSH1 0x20 DUP3 ADD SWAP1 POP DUP2 DUP2 SUB PUSH1 0x0 DUP4 ADD MSTORE PUSH2 0x328A DUP2 PUSH2 0x324E JUMP JUMPDEST SWAP1 POP SWAP2 SWAP1 POP JUMP JUMPDEST PUSH1 0x0 PUSH1 0x60 DUP3 ADD SWAP1 POP PUSH2 0x32A6 PUSH1 0x0 DUP4 ADD DUP7 PUSH2 0x2EB6 JUMP JUMPDEST PUSH2 0x32B3 PUSH1 0x20 DUP4 ADD DUP6 PUSH2 0x2EB6 JUMP JUMPDEST PUSH2 0x32C0 PUSH1 0x40 DUP4 ADD DUP5 PUSH2 0x2EB6 JUMP JUMPDEST SWAP5 SWAP4 POP POP POP POP JUMP JUMPDEST PUSH1 0x0 JUMPDEST DUP4 DUP2 LT ISZERO PUSH2 0x32E6 JUMPI DUP1 DUP3 ADD MLOAD DUP2 DUP5 ADD MSTORE PUSH1 0x20 DUP2 ADD SWAP1 POP PUSH2 0x32CB JUMP JUMPDEST PUSH1 0x0 DUP5 DUP5 ADD MSTORE POP POP POP POP JUMP JUMPDEST PUSH1 0x0 PUSH2 0x3305 PUSH2 0x3300 DUP5 PUSH2 0x2A80 JUMP JUMPDEST PUSH2 0x2A65 JUMP JUMPDEST SWAP1 POP DUP3 DUP2 MSTORE PUSH1 0x20 DUP2 ADD DUP5 DUP5 DUP5 ADD GT ISZERO PUSH2 0x3321 JUMPI PUSH2 0x3320 PUSH2 0x29EF JUMP JUMPDEST JUMPDEST PUSH2 0x332C DUP5 DUP3 DUP6 PUSH2 0x32C8 JUMP JUMPDEST POP SWAP4 SWAP3 POP POP POP JUMP JUMPDEST PUSH1 0x0 DUP3 PUSH1 0x1F DUP4 ADD SLT PUSH2 0x3349 JUMPI PUSH2 0x3348 PUSH2 0x29EA JUMP JUMPDEST JUMPDEST DUP2 MLOAD PUSH2 0x3359 DUP5 DUP3 PUSH1 0x20 DUP7 ADD PUSH2 0x32F2 JUMP JUMPDEST SWAP2 POP POP SWAP3 SWAP2 POP POP JUMP JUMPDEST PUSH1 0x0 DUP2 MLOAD SWAP1 POP PUSH2 0x3371 DUP2 PUSH2 0x283D JUMP JUMPDEST SWAP3 SWAP2 POP POP JUMP JUMPDEST PUSH1 0x0 PUSH2 0x338A PUSH2 0x3385 DUP5 PUSH2 0x2B6B JUMP JUMPDEST PUSH2 0x2A65 JUMP JUMPDEST SWAP1 POP DUP1 DUP4 DUP3 MSTORE PUSH1 0x20 DUP3 ADD SWAP1 POP PUSH1 0x20 DUP5 MUL DUP4 ADD DUP6 DUP2 GT ISZERO PUSH2 0x33AD JUMPI PUSH2 0x33AC PUSH2 0x2B5C JUMP JUMPDEST JUMPDEST DUP4 JUMPDEST DUP2 DUP2 LT ISZERO PUSH2 0x33D6 JUMPI DUP1 PUSH2 0x33C2 DUP9 DUP3 PUSH2 0x3362 JUMP JUMPDEST DUP5 MSTORE PUSH1 0x20 DUP5 ADD SWAP4 POP POP PUSH1 0x20 DUP2 ADD SWAP1 POP PUSH2 0x33AF JUMP JUMPDEST POP POP POP SWAP4 SWAP3 POP POP POP JUMP JUMPDEST PUSH1 0x0 DUP3 PUSH1 0x1F DUP4 ADD SLT PUSH2 0x33F5 JUMPI PUSH2 0x33F4 PUSH2 0x29EA JUMP JUMPDEST JUMPDEST DUP2 MLOAD PUSH2 0x3405 DUP5 DUP3 PUSH1 0x20 DUP7 ADD PUSH2 0x3377 JUMP JUMPDEST SWAP2 POP POP SWAP3 SWAP2 POP POP JUMP JUMPDEST PUSH1 0x0 PUSH8 0xFFFFFFFFFFFFFFFF DUP3 GT ISZERO PUSH2 0x3429 JUMPI PUSH2 0x3428 PUSH2 0x2A05 JUMP JUMPDEST JUMPDEST PUSH1 0x20 DUP3 MUL SWAP1 POP PUSH1 0x20 DUP2 ADD SWAP1 POP SWAP2 SWAP1 POP JUMP JUMPDEST PUSH1 0x0 DUP2 MLOAD SWAP1 POP PUSH2 0x3449 DUP2 PUSH2 0x2873 JUMP JUMPDEST SWAP3 SWAP2 POP POP JUMP JUMPDEST PUSH1 0x0 PUSH2 0x3462 PUSH2 0x345D DUP5 PUSH2 0x340E JUMP JUMPDEST PUSH2 0x2A65 JUMP JUMPDEST SWAP1 POP DUP1 DUP4 DUP3 MSTORE PUSH1 0x20 DUP3 ADD SWAP1 POP PUSH1 0x20 DUP5 MUL DUP4 ADD DUP6 DUP2 GT ISZERO PUSH2 0x3485 JUMPI PUSH2 0x3484 PUSH2 0x2B5C JUMP JUMPDEST JUMPDEST DUP4 JUMPDEST DUP2 DUP2 LT ISZERO PUSH2 0x34AE JUMPI DUP1 PUSH2 0x349A DUP9 DUP3 PUSH2 0x343A JUMP JUMPDEST DUP5 MSTORE PUSH1 0x20 DUP5 ADD SWAP4 POP POP PUSH1 0x20 DUP2 ADD SWAP1 POP PUSH2 0x3487 JUMP JUMPDEST POP POP POP SWAP4 SWAP3 POP POP POP JUMP JUMPDEST PUSH1 0x0 DUP3 PUSH1 0x1F DUP4 ADD SLT PUSH2 0x34CD JUMPI PUSH2 0x34CC PUSH2 0x29EA JUMP JUMPDEST JUMPDEST DUP2 MLOAD PUSH2 0x34DD DUP5 DUP3 PUSH1 0x20 DUP7 ADD PUSH2 0x344F JUMP JUMPDEST SWAP2 POP POP SWAP3 SWAP2 POP POP JUMP JUMPDEST PUSH1 0x0 PUSH2 0x1A0 DUP3 DUP5 SUB SLT ISZERO PUSH2 0x34FD JUMPI PUSH2 0x34FC PUSH2 0x2B61 JUMP JUMPDEST JUMPDEST PUSH2 0x3508 PUSH2 0x1A0 PUSH2 0x2A65 JUMP JUMPDEST SWAP1 POP PUSH1 0x0 DUP3 ADD MLOAD PUSH8 0xFFFFFFFFFFFFFFFF DUP2 GT ISZERO PUSH2 0x3528 JUMPI PUSH2 0x3527 PUSH2 0x2B66 JUMP JUMPDEST JUMPDEST PUSH2 0x3534 DUP5 DUP3 DUP6 ADD PUSH2 0x3334 JUMP JUMPDEST PUSH1 0x0 DUP4 ADD MSTORE POP PUSH1 0x20 DUP3 ADD MLOAD PUSH8 0xFFFFFFFFFFFFFFFF DUP2 GT ISZERO PUSH2 0x3558 JUMPI PUSH2 0x3557 PUSH2 0x2B66 JUMP JUMPDEST JUMPDEST PUSH2 0x3564 DUP5 DUP3 DUP6 ADD PUSH2 0x3334 JUMP JUMPDEST PUSH1 0x20 DUP4 ADD MSTORE POP PUSH1 0x40 DUP3 ADD MLOAD PUSH8 0xFFFFFFFFFFFFFFFF DUP2 GT ISZERO PUSH2 0x3588 JUMPI PUSH2 0x3587 PUSH2 0x2B66 JUMP JUMPDEST JUMPDEST PUSH2 0x3594 DUP5 DUP3 DUP6 ADD PUSH2 0x3334 JUMP JUMPDEST PUSH1 0x40 DUP4 ADD MSTORE POP PUSH1 0x60 DUP3 ADD MLOAD PUSH8 0xFFFFFFFFFFFFFFFF DUP2 GT ISZERO PUSH2 0x35B8 JUMPI PUSH2 0x35B7 PUSH2 0x2B66 JUMP JUMPDEST JUMPDEST PUSH2 0x35C4 DUP5 DUP3 DUP6 ADD PUSH2 0x3334 JUMP JUMPDEST PUSH1 0x60 DUP4 ADD MSTORE POP PUSH1 0x80 PUSH2 0x35D8 DUP5 DUP3 DUP6 ADD PUSH2 0x304E JUMP JUMPDEST PUSH1 0x80 DUP4 ADD MSTORE POP PUSH1 0xA0 PUSH2 0x35EC DUP5 DUP3 DUP6 ADD PUSH2 0x304E JUMP JUMPDEST PUSH1 0xA0 DUP4 ADD MSTORE POP PUSH1 0xC0 PUSH2 0x3600 DUP5 DUP3 DUP6 ADD PUSH2 0x304E JUMP JUMPDEST PUSH1 0xC0 DUP4 ADD MSTORE POP PUSH1 0xE0 PUSH2 0x3614 DUP5 DUP3 DUP6 ADD PUSH2 0x3362 JUMP JUMPDEST PUSH1 0xE0 DUP4 ADD MSTORE POP PUSH2 0x100 DUP3 ADD MLOAD PUSH8 0xFFFFFFFFFFFFFFFF DUP2 GT ISZERO PUSH2 0x3639 JUMPI PUSH2 0x3638 PUSH2 0x2B66 JUMP JUMPDEST JUMPDEST PUSH2 0x3645 DUP5 DUP3 DUP6 ADD PUSH2 0x33E0 JUMP JUMPDEST PUSH2 0x100 DUP4 ADD MSTORE POP PUSH2 0x120 DUP3 ADD MLOAD PUSH8 0xFFFFFFFFFFFFFFFF DUP2 GT ISZERO PUSH2 0x366B JUMPI PUSH2 0x366A PUSH2 0x2B66 JUMP JUMPDEST JUMPDEST PUSH2 0x3677 DUP5 DUP3 DUP6 ADD PUSH2 0x34B8 JUMP JUMPDEST PUSH2 0x120 DUP4 ADD MSTORE POP PUSH2 0x140 PUSH2 0x368D DUP5 DUP3 DUP6 ADD PUSH2 0x343A JUMP JUMPDEST PUSH2 0x140 DUP4 ADD MSTORE POP PUSH2 0x160 PUSH2 0x36A3 DUP5 DUP3 DUP6 ADD PUSH2 0x343A JUMP JUMPDEST PUSH2 0x160 DUP4 ADD MSTORE POP PUSH2 0x180 PUSH2 0x36B9 DUP5 DUP3 DUP6 ADD PUSH2 0x343A JUMP JUMPDEST PUSH2 0x180 DUP4 ADD MSTORE POP SWAP3 SWAP2 POP POP JUMP JUMPDEST PUSH1 0x0 PUSH1 0x20 DUP3 DUP5 SUB SLT ISZERO PUSH2 0x36DC JUMPI PUSH2 0x36DB PUSH2 0x2801 JUMP JUMPDEST JUMPDEST PUSH1 0x0 DUP3 ADD MLOAD PUSH8 0xFFFFFFFFFFFFFFFF DUP2 GT ISZERO PUSH2 0x36FA JUMPI PUSH2 0x36F9 PUSH2 0x2806 JUMP JUMPDEST JUMPDEST PUSH2 0x3706 DUP5 DUP3 DUP6 ADD PUSH2 0x34E6 JUMP JUMPDEST SWAP2 POP POP SWAP3 SWAP2 POP POP JUMP JUMPDEST PUSH32 0x546865207265636F766572792061646472657373206F72206F776E6572206164 PUSH1 0x0 DUP3 ADD MSTORE PUSH32 0x647265737320697320696E636F72726563742100000000000000000000000000 PUSH1 0x20 DUP3 ADD MSTORE POP JUMP JUMPDEST PUSH1 0x0 PUSH2 0x376B PUSH1 0x33 DUP4 PUSH2 0x3090 JUMP JUMPDEST SWAP2 POP PUSH2 0x3776 DUP3 PUSH2 0x370F JUMP JUMPDEST PUSH1 0x40 DUP3 ADD SWAP1 POP SWAP2 SWAP1 POP JUMP JUMPDEST PUSH1 0x0 PUSH1 0x20 DUP3 ADD SWAP1 POP DUP2 DUP2 SUB PUSH1 0x0 DUP4 ADD MSTORE PUSH2 0x379A DUP2 PUSH2 0x375E JUMP JUMPDEST SWAP1 POP SWAP2 SWAP1 POP JUMP JUMPDEST PUSH32 0x596F75206D757374206669727374207369676E20757020666F7220616E206163 PUSH1 0x0 DUP3 ADD MSTORE PUSH32 0x636F756E742E0000000000000000000000000000000000000000000000000000 PUSH1 0x20 DUP3 ADD MSTORE POP JUMP JUMPDEST PUSH1 0x0 PUSH2 0x37FD PUSH1 0x26 DUP4 PUSH2 0x3090 JUMP JUMPDEST SWAP2 POP PUSH2 0x3808 DUP3 PUSH2 0x37A1 JUMP JUMPDEST PUSH1 0x40 DUP3 ADD SWAP1 POP SWAP2 SWAP1 POP JUMP JUMPDEST PUSH1 0x0 PUSH1 0x20 DUP3 ADD SWAP1 POP DUP2 DUP2 SUB PUSH1 0x0 DUP4 ADD MSTORE PUSH2 0x382C DUP2 PUSH2 0x37F0 JUMP JUMPDEST SWAP1 POP SWAP2 SWAP1 POP JUMP JUMPDEST PUSH32 0x596F757220656D61696C20686173206E6F7420796574206265656E2076616C69 PUSH1 0x0 DUP3 ADD MSTORE PUSH32 0x64617465642E2056657269667920796F7572207265676973746572656420656D PUSH1 0x20 DUP3 ADD MSTORE PUSH32 0x61696C20616464726573732066697273742E0000000000000000000000000000 PUSH1 0x40 DUP3 ADD MSTORE POP JUMP JUMPDEST PUSH1 0x0 PUSH2 0x38B5 PUSH1 0x52 DUP4 PUSH2 0x3090 JUMP JUMPDEST SWAP2 POP PUSH2 0x38C0 DUP3 PUSH2 0x3833 JUMP JUMPDEST PUSH1 0x60 DUP3 ADD SWAP1 POP SWAP2 SWAP1 POP JUMP JUMPDEST PUSH1 0x0 PUSH1 0x20 DUP3 ADD SWAP1 POP DUP2 DUP2 SUB PUSH1 0x0 DUP4 ADD MSTORE PUSH2 0x38E4 DUP2 PUSH2 0x38A8 JUMP JUMPDEST SWAP1 POP SWAP2 SWAP1 POP JUMP JUMPDEST PUSH1 0x0 PUSH1 0x20 DUP3 DUP5 SUB SLT ISZERO PUSH2 0x3901 JUMPI PUSH2 0x3900 PUSH2 0x2801 JUMP JUMPDEST JUMPDEST PUSH1 0x0 DUP3 ADD MLOAD PUSH8 0xFFFFFFFFFFFFFFFF DUP2 GT ISZERO PUSH2 0x391F JUMPI PUSH2 0x391E PUSH2 0x2806 JUMP JUMPDEST JUMPDEST PUSH2 0x392B DUP5 DUP3 DUP6 ADD PUSH2 0x33E0 JUMP JUMPDEST SWAP2 POP POP SWAP3 SWAP2 POP POP JUMP JUMPDEST PUSH1 0x0 PUSH1 0x20 DUP3 DUP5 SUB SLT ISZERO PUSH2 0x394A JUMPI PUSH2 0x3949 PUSH2 0x2801 JUMP JUMPDEST JUMPDEST PUSH1 0x0 DUP3 ADD MLOAD PUSH8 0xFFFFFFFFFFFFFFFF DUP2 GT ISZERO PUSH2 0x3968 JUMPI PUSH2 0x3967 PUSH2 0x2806 JUMP JUMPDEST JUMPDEST PUSH2 0x3974 DUP5 DUP3 DUP6 ADD PUSH2 0x34B8 JUMP JUMPDEST SWAP2 POP POP SWAP3 SWAP2 POP POP JUMP JUMPDEST PUSH32 0x436865636B207468617420616C6C20746865206E6F6D696E65657320796F7520 PUSH1 0x0 DUP3 ADD MSTORE PUSH32 0x617265206E6F6D696E6174696E6720617265206164646564206173206E6F6D69 PUSH1 0x20 DUP3 ADD MSTORE PUSH32 0x6E6565732E000000000000000000000000000000000000000000000000000000 PUSH1 0x40 DUP3 ADD MSTORE POP JUMP JUMPDEST PUSH1 0x0 PUSH2 0x39FF PUSH1 0x45 DUP4 PUSH2 0x3090 JUMP JUMPDEST SWAP2 POP PUSH2 0x3A0A DUP3 PUSH2 0x397D JUMP JUMPDEST PUSH1 0x60 DUP3 ADD SWAP1 POP SWAP2 SWAP1 POP JUMP JUMPDEST PUSH1 0x0 PUSH1 0x20 DUP3 ADD SWAP1 POP DUP2 DUP2 SUB PUSH1 0x0 DUP4 ADD MSTORE PUSH2 0x3A2E DUP2 PUSH2 0x39F2 JUMP JUMPDEST SWAP1 POP SWAP2 SWAP1 POP JUMP JUMPDEST PUSH1 0x0 DUP1 PUSH1 0x0 DUP1 PUSH1 0x0 PUSH1 0xA0 DUP7 DUP9 SUB SLT ISZERO PUSH2 0x3A51 JUMPI PUSH2 0x3A50 PUSH2 0x2801 JUMP JUMPDEST JUMPDEST PUSH1 0x0 PUSH2 0x3A5F DUP9 DUP3 DUP10 ADD PUSH2 0x343A JUMP JUMPDEST SWAP6 POP POP PUSH1 0x20 PUSH2 0x3A70 DUP9 DUP3 DUP10 ADD PUSH2 0x3362 JUMP JUMPDEST SWAP5 POP POP PUSH1 0x40 DUP7 ADD MLOAD PUSH8 0xFFFFFFFFFFFFFFFF DUP2 GT ISZERO PUSH2 0x3A91 JUMPI PUSH2 0x3A90 PUSH2 0x2806 JUMP JUMPDEST JUMPDEST PUSH2 0x3A9D DUP9 DUP3 DUP10 ADD PUSH2 0x3334 JUMP JUMPDEST SWAP4 POP POP PUSH1 0x60 DUP7 ADD MLOAD PUSH8 0xFFFFFFFFFFFFFFFF DUP2 GT ISZERO PUSH2 0x3ABE JUMPI PUSH2 0x3ABD PUSH2 0x2806 JUMP JUMPDEST JUMPDEST PUSH2 0x3ACA DUP9 DUP3 DUP10 ADD PUSH2 0x3334 JUMP JUMPDEST SWAP3 POP POP PUSH1 0x80 DUP7 ADD MLOAD PUSH8 0xFFFFFFFFFFFFFFFF DUP2 GT ISZERO PUSH2 0x3AEB JUMPI PUSH2 0x3AEA PUSH2 0x2806 JUMP JUMPDEST JUMPDEST PUSH2 0x3AF7 DUP9 DUP3 DUP10 ADD PUSH2 0x3334 JUMP JUMPDEST SWAP2 POP POP SWAP3 SWAP6 POP SWAP3 SWAP6 SWAP1 SWAP4 POP JUMP JUMPDEST PUSH32 0x436865636B207468617420746865206368617269747920796F7520617265206E PUSH1 0x0 DUP3 ADD MSTORE PUSH32 0x6F6D696E6174696E67206973206C697374656420617320612077686974652D6C PUSH1 0x20 DUP3 ADD MSTORE PUSH32 0x697374656420636861726974792E000000000000000000000000000000000000 PUSH1 0x40 DUP3 ADD MSTORE POP JUMP JUMPDEST PUSH1 0x0 PUSH2 0x3B86 PUSH1 0x4E DUP4 PUSH2 0x3090 JUMP JUMPDEST SWAP2 POP PUSH2 0x3B91 DUP3 PUSH2 0x3B04 JUMP JUMPDEST PUSH1 0x60 DUP3 ADD SWAP1 POP SWAP2 SWAP1 POP JUMP JUMPDEST PUSH1 0x0 PUSH1 0x20 DUP3 ADD SWAP1 POP DUP2 DUP2 SUB PUSH1 0x0 DUP4 ADD MSTORE PUSH2 0x3BB5 DUP2 PUSH2 0x3B79 JUMP JUMPDEST SWAP1 POP SWAP2 SWAP1 POP JUMP JUMPDEST PUSH1 0x0 PUSH1 0x40 DUP3 ADD SWAP1 POP PUSH2 0x3BD1 PUSH1 0x0 DUP4 ADD DUP6 PUSH2 0x29C0 JUMP JUMPDEST PUSH2 0x3BDE PUSH1 0x20 DUP4 ADD DUP5 PUSH2 0x29C0 JUMP JUMPDEST SWAP4 SWAP3 POP POP POP JUMP JUMPDEST PUSH1 0x0 DUP1 PUSH1 0x0 DUP1 PUSH1 0x0 DUP1 PUSH1 0xC0 DUP8 DUP10 SUB SLT ISZERO PUSH2 0x3C02 JUMPI PUSH2 0x3C01 PUSH2 0x2801 JUMP JUMPDEST JUMPDEST PUSH1 0x0 PUSH2 0x3C10 DUP10 DUP3 DUP11 ADD PUSH2 0x3362 JUMP JUMPDEST SWAP7 POP POP PUSH1 0x20 DUP8 ADD MLOAD PUSH8 0xFFFFFFFFFFFFFFFF DUP2 GT ISZERO PUSH2 0x3C31 JUMPI PUSH2 0x3C30 PUSH2 0x2806 JUMP JUMPDEST JUMPDEST PUSH2 0x3C3D DUP10 DUP3 DUP11 ADD PUSH2 0x3334 JUMP JUMPDEST SWAP6 POP POP PUSH1 0x40 PUSH2 0x3C4E DUP10 DUP3 DUP11 ADD PUSH2 0x343A JUMP JUMPDEST SWAP5 POP POP PUSH1 0x60 PUSH2 0x3C5F DUP10 DUP3 DUP11 ADD PUSH2 0x343A JUMP JUMPDEST SWAP4 POP POP PUSH1 0x80 PUSH2 0x3C70 DUP10 DUP3 DUP11 ADD PUSH2 0x343A JUMP JUMPDEST SWAP3 POP POP PUSH1 0xA0 PUSH2 0x3C81 DUP10 DUP3 DUP11 ADD PUSH2 0x304E JUMP JUMPDEST SWAP2 POP POP SWAP3 SWAP6 POP SWAP3 SWAP6 POP SWAP3 SWAP6 JUMP JUMPDEST PUSH1 0x0 PUSH2 0x3C99 DUP3 PUSH2 0x2869 JUMP JUMPDEST SWAP2 POP PUSH2 0x3CA4 DUP4 PUSH2 0x2869 JUMP JUMPDEST SWAP3 POP DUP3 DUP3 ADD SWAP1 POP DUP1 DUP3 GT ISZERO PUSH2 0x3CBC JUMPI PUSH2 0x3CBB PUSH2 0x3162 JUMP JUMPDEST JUMPDEST SWAP3 SWAP2 POP POP JUMP JUMPDEST PUSH32 0x4F6F70732120596F752063616E206F6E6C7920616C6C6F636174652061203130 PUSH1 0x0 DUP3 ADD MSTORE PUSH32 0x30252073686172652E2054727920746F20726564756365207468652073686172 PUSH1 0x20 DUP3 ADD MSTORE PUSH32 0x6520616D6F756E742E0000000000000000000000000000000000000000000000 PUSH1 0x40 DUP3 ADD MSTORE POP JUMP JUMPDEST PUSH1 0x0 PUSH2 0x3D44 PUSH1 0x49 DUP4 PUSH2 0x3090 JUMP JUMPDEST SWAP2 POP PUSH2 0x3D4F DUP3 PUSH2 0x3CC2 JUMP JUMPDEST PUSH1 0x60 DUP3 ADD SWAP1 POP SWAP2 SWAP1 POP JUMP JUMPDEST PUSH1 0x0 PUSH1 0x20 DUP3 ADD SWAP1 POP DUP2 DUP2 SUB PUSH1 0x0 DUP4 ADD MSTORE PUSH2 0x3D73 DUP2 PUSH2 0x3D37 JUMP JUMPDEST SWAP1 POP SWAP2 SWAP1 POP JUMP JUMPDEST PUSH1 0x0 DUP2 MLOAD SWAP1 POP SWAP2 SWAP1 POP JUMP JUMPDEST PUSH1 0x0 PUSH2 0x3D90 DUP3 PUSH2 0x3D7A JUMP JUMPDEST PUSH2 0x3D9A DUP2 DUP6 PUSH2 0x3090 JUMP JUMPDEST SWAP4 POP PUSH2 0x3DAA DUP2 DUP6 PUSH1 0x20 DUP7 ADD PUSH2 0x32C8 JUMP JUMPDEST PUSH2 0x3DB3 DUP2 PUSH2 0x29F4 JUMP JUMPDEST DUP5 ADD SWAP2 POP POP SWAP3 SWAP2 POP POP JUMP JUMPDEST PUSH1 0x0 PUSH1 0xC0 DUP3 ADD SWAP1 POP PUSH2 0x3DD3 PUSH1 0x0 DUP4 ADD DUP10 PUSH2 0x29C0 JUMP JUMPDEST PUSH2 0x3DE0 PUSH1 0x20 DUP4 ADD DUP9 PUSH2 0x29C0 JUMP JUMPDEST DUP2 DUP2 SUB PUSH1 0x40 DUP4 ADD MSTORE PUSH2 0x3DF2 DUP2 DUP8 PUSH2 0x3D85 JUMP JUMPDEST SWAP1 POP PUSH2 0x3E01 PUSH1 0x60 DUP4 ADD DUP7 PUSH2 0x2EB6 JUMP JUMPDEST PUSH2 0x3E0E PUSH1 0x80 DUP4 ADD DUP6 PUSH2 0x2EB6 JUMP JUMPDEST PUSH2 0x3E1B PUSH1 0xA0 DUP4 ADD DUP5 PUSH2 0x2EB6 JUMP JUMPDEST SWAP8 SWAP7 POP POP POP POP POP POP POP JUMP JUMPDEST PUSH1 0x0 PUSH1 0x20 DUP3 DUP5 SUB SLT ISZERO PUSH2 0x3E3C JUMPI PUSH2 0x3E3B PUSH2 0x2801 JUMP JUMPDEST JUMPDEST PUSH1 0x0 PUSH2 0x3E4A DUP5 DUP3 DUP6 ADD PUSH2 0x343A JUMP JUMPDEST SWAP2 POP POP SWAP3 SWAP2 POP POP JUMP JUMPDEST PUSH32 0x54686520616C6C6F77616E636520746F2074686520636F6E7472616374206973 PUSH1 0x0 DUP3 ADD MSTORE PUSH32 0x206E6F7420656E6F756768210000000000000000000000000000000000000000 PUSH1 0x20 DUP3 ADD MSTORE POP JUMP JUMPDEST PUSH1 0x0 PUSH2 0x3EAF PUSH1 0x2C DUP4 PUSH2 0x3090 JUMP JUMPDEST SWAP2 POP PUSH2 0x3EBA DUP3 PUSH2 0x3E53 JUMP JUMPDEST PUSH1 0x40 DUP3 ADD SWAP1 POP SWAP2 SWAP1 POP JUMP JUMPDEST PUSH1 0x0 PUSH1 0x20 DUP3 ADD SWAP1 POP DUP2 DUP2 SUB PUSH1 0x0 DUP4 ADD MSTORE PUSH2 0x3EDE DUP2 PUSH2 0x3EA2 JUMP JUMPDEST SWAP1 POP SWAP2 SWAP1 POP JUMP JUMPDEST PUSH32 0x5468652063617465676F72792076616C7565206D757374206265203020666F72 PUSH1 0x0 DUP3 ADD MSTORE PUSH32 0x20746F6B656E7320616E64203120666F72204E46542E00000000000000000000 PUSH1 0x20 DUP3 ADD MSTORE POP JUMP JUMPDEST PUSH1 0x0 PUSH2 0x3F41 PUSH1 0x36 DUP4 PUSH2 0x3090 JUMP JUMPDEST SWAP2 POP PUSH2 0x3F4C DUP3 PUSH2 0x3EE5 JUMP JUMPDEST PUSH1 0x40 DUP3 ADD SWAP1 POP SWAP2 SWAP1 POP JUMP JUMPDEST PUSH1 0x0 PUSH1 0x20 DUP3 ADD SWAP1 POP DUP2 DUP2 SUB PUSH1 0x0 DUP4 ADD MSTORE PUSH2 0x3F70 DUP2 PUSH2 0x3F34 JUMP JUMPDEST SWAP1 POP SWAP2 SWAP1 POP JUMP JUMPDEST PUSH1 0x0 PUSH1 0xA0 DUP3 ADD SWAP1 POP PUSH2 0x3F8C PUSH1 0x0 DUP4 ADD DUP9 PUSH2 0x29C0 JUMP JUMPDEST PUSH2 0x3F99 PUSH1 0x20 DUP4 ADD DUP8 PUSH2 0x29C0 JUMP JUMPDEST PUSH2 0x3FA6 PUSH1 0x40 DUP4 ADD DUP7 PUSH2 0x2EB6 JUMP JUMPDEST PUSH2 0x3FB3 PUSH1 0x60 DUP4 ADD DUP6 PUSH2 0x2EB6 JUMP JUMPDEST PUSH2 0x3FC0 PUSH1 0x80 DUP4 ADD DUP5 PUSH2 0x2EB6 JUMP JUMPDEST SWAP7 SWAP6 POP POP POP POP POP POP JUMP JUMPDEST PUSH1 0x0 PUSH1 0x60 DUP3 ADD SWAP1 POP PUSH2 0x3FDF PUSH1 0x0 DUP4 ADD DUP7 PUSH2 0x29C0 JUMP JUMPDEST PUSH2 0x3FEC PUSH1 0x20 DUP4 ADD DUP6 PUSH2 0x2EB6 JUMP JUMPDEST PUSH2 0x3FF9 PUSH1 0x40 DUP4 ADD DUP5 PUSH2 0x2EB6 JUMP JUMPDEST SWAP5 SWAP4 POP POP POP POP JUMP JUMPDEST PUSH1 0x0 PUSH2 0x400C DUP3 PUSH2 0x2869 JUMP JUMPDEST SWAP2 POP PUSH2 0x4017 DUP4 PUSH2 0x2869 JUMP JUMPDEST SWAP3 POP DUP3 DUP3 MUL PUSH2 0x4025 DUP2 PUSH2 0x2869 JUMP JUMPDEST SWAP2 POP DUP3 DUP3 DIV DUP5 EQ DUP4 ISZERO OR PUSH2 0x403C JUMPI PUSH2 0x403B PUSH2 0x3162 JUMP JUMPDEST JUMPDEST POP SWAP3 SWAP2 POP POP JUMP JUMPDEST PUSH32 0x4E487B7100000000000000000000000000000000000000000000000000000000 PUSH1 0x0 MSTORE PUSH1 0x12 PUSH1 0x4 MSTORE PUSH1 0x24 PUSH1 0x0 REVERT JUMPDEST PUSH1 0x0 PUSH2 0x407D DUP3 PUSH2 0x2869 JUMP JUMPDEST SWAP2 POP PUSH2 0x4088 DUP4 PUSH2 0x2869 JUMP JUMPDEST SWAP3 POP DUP3 PUSH2 0x4098 JUMPI PUSH2 0x4097 PUSH2 0x4043 JUMP JUMPDEST JUMPDEST DUP3 DUP3 DIV SWAP1 POP SWAP3 SWAP2 POP POP JUMP JUMPDEST PUSH1 0x0 PUSH2 0x40AE DUP3 PUSH2 0x2869 JUMP JUMPDEST SWAP2 POP PUSH2 0x40B9 DUP4 PUSH2 0x2869 JUMP JUMPDEST SWAP3 POP DUP3 DUP3 SUB SWAP1 POP DUP2 DUP2 GT ISZERO PUSH2 0x40D1 JUMPI PUSH2 0x40D0 PUSH2 0x3162 JUMP JUMPDEST JUMPDEST SWAP3 SWAP2 POP POP JUMP JUMPDEST PUSH1 0x0 PUSH1 0x40 DUP3 ADD SWAP1 POP PUSH2 0x40EC PUSH1 0x0 DUP4 ADD DUP6 PUSH2 0x29C0 JUMP JUMPDEST PUSH2 0x40F9 PUSH1 0x20 DUP4 ADD DUP5 PUSH2 0x2EB6 JUMP JUMPDEST SWAP4 SWAP3 POP POP POP JUMP JUMPDEST PUSH32 0x4F776E61626C653A206E6577206F776E657220697320746865207A65726F2061 PUSH1 0x0 DUP3 ADD MSTORE PUSH32 0x6464726573730000000000000000000000000000000000000000000000000000 PUSH1 0x20 DUP3 ADD MSTORE POP JUMP JUMPDEST PUSH1 0x0 PUSH2 0x415C PUSH1 0x26 DUP4 PUSH2 0x3090 JUMP JUMPDEST SWAP2 POP PUSH2 0x4167 DUP3 PUSH2 0x4100 JUMP JUMPDEST PUSH1 0x40 DUP3 ADD SWAP1 POP SWAP2 SWAP1 POP JUMP JUMPDEST PUSH1 0x0 PUSH1 0x20 DUP3 ADD SWAP1 POP DUP2 DUP2 SUB PUSH1 0x0 DUP4 ADD MSTORE PUSH2 0x418B DUP2 PUSH2 0x414F JUMP JUMPDEST SWAP1 POP SWAP2 SWAP1 POP JUMP JUMPDEST PUSH32 0x4F776E61626C653A2063616C6C6572206973206E6F7420746865206F776E6572 PUSH1 0x0 DUP3 ADD MSTORE POP JUMP JUMPDEST PUSH1 0x0 PUSH2 0x41C8 PUSH1 0x20 DUP4 PUSH2 0x3090 JUMP JUMPDEST SWAP2 POP PUSH2 0x41D3 DUP3 PUSH2 0x4192 JUMP JUMPDEST PUSH1 0x20 DUP3 ADD SWAP1 POP SWAP2 SWAP1 POP JUMP JUMPDEST PUSH1 0x0 PUSH1 0x20 DUP3 ADD SWAP1 POP DUP2 DUP2 SUB PUSH1 0x0 DUP4 ADD MSTORE PUSH2 0x41F7 DUP2 PUSH2 0x41BB JUMP JUMPDEST SWAP1 POP SWAP2 SWAP1 POP JUMP INVALID LOG2 PUSH5 0x6970667358 0x22 SLT KECCAK256 PUSH1 0x38 PUSH12 0xA75B89CBD64B3AB3F4F0D218 0x24 0xD9 CODECOPY 0x5C 0xFC 0xF9 EQ 0xB4 CALLVALUE 0x21 SWAP3 0x21 PUSH23 0x65B01F4664736F6C634300081100330000000000000000 "},"methodIdentifiers":{"assignTokensToMultipleNominees(address,string,uint256,uint256,(uint256,address,address,address[],bool)[])":"5e771775","changeCharges(address,uint256,uint256,uint256)":"03cd4248","chargeTokenAddress()":"5c042ae7","charityContract()":"f4cd5465","charityContractAddress()":"f1d8eefc","claim(address,address,uint256,uint256)":"26af4832","inheritokens()":"be27c3fe","inheritokensAddress()":"46f17152","nftCharge()":"c407695b","nftTransferLogic(address,address,uint256)":"22d5dfbf","owner()":"8da5cb5b","ownerToNFTToStruct(address,address,uint256,uint256)":"a64ad61f","ownerToTokenToStruct(address,address,uint256)":"bea7d6ac","percentage()":"c78ad77f","recoveryClaim(address,address,uint256,uint256)":"4ab3a732","renounceOwnership()":"715018a6","tokenCharge()":"9b252023","tokenTransferLogic(address,address,uint256)":"79cf3077","transferOwnership(address)":"f2fde38b","withdrawFromContract(uint256,address)":"9605f505"}}}}}