{"contracts/MultiplePriorityNominee.sol":{"MultiplePriorityNominee":{"abi":[{"inputs":[{"internalType":"address","name":"_inheritokensAddress","type":"address"}],"stateMutability":"nonpayable","type":"constructor"},{"anonymous":false,"inputs":[{"indexed":true,"internalType":"address","name":"_owner","type":"address"},{"indexed":true,"internalType":"address","name":"_nominee","type":"address"},{"indexed":true,"internalType":"address","name":"_tokenAddress","type":"address"},{"indexed":false,"internalType":"uint256","name":"_tokenId","type":"uint256"},{"indexed":false,"internalType":"uint256","name":"_amount","type":"uint256"}],"name":"Claimed","type":"event"},{"anonymous":false,"inputs":[{"indexed":true,"internalType":"address","name":"previousOwner","type":"address"},{"indexed":true,"internalType":"address","name":"newOwner","type":"address"}],"name":"OwnershipTransferred","type":"event"},{"anonymous":false,"inputs":[{"indexed":true,"internalType":"address","name":"_owner","type":"address"},{"indexed":false,"internalType":"address","name":"_tokenAddress","type":"address"},{"indexed":false,"internalType":"uint256","name":"_tokenId","type":"uint256"}],"name":"TokensAssigned","type":"event"},{"inputs":[{"internalType":"address","name":"_tokenAddress","type":"address"},{"internalType":"string","name":"_tokenName","type":"string"},{"internalType":"uint256","name":"_category","type":"uint256"},{"internalType":"uint256","name":"_tokenId","type":"uint256"},{"components":[{"internalType":"uint256","name":"share","type":"uint256"},{"internalType":"address[]","name":"nominee","type":"address[]"},{"internalType":"bool[]","name":"isNotAvailable","type":"bool[]"},{"internalType":"bool[]","name":"isClaimed","type":"bool[]"}],"internalType":"struct MultiplePriorityNominee.MultiplePriority[]","name":"data","type":"tuple[]"}],"name":"assignTokensToMultipleNominees","outputs":[],"stateMutability":"nonpayable","type":"function"},{"inputs":[{"internalType":"address","name":"_tokenAddress","type":"address"}],"name":"changeChargeTokenAddress","outputs":[],"stateMutability":"nonpayable","type":"function"},{"inputs":[{"internalType":"uint256","name":"_charge","type":"uint256"}],"name":"changeNFTCharge","outputs":[],"stateMutability":"nonpayable","type":"function"},{"inputs":[{"internalType":"uint256","name":"_amount","type":"uint256"}],"name":"changePercentage","outputs":[],"stateMutability":"nonpayable","type":"function"},{"inputs":[{"internalType":"uint256","name":"_charge","type":"uint256"}],"name":"changeTokenCharge","outputs":[],"stateMutability":"nonpayable","type":"function"},{"inputs":[{"internalType":"address","name":"_owner","type":"address"},{"internalType":"address","name":"_tokenAddress","type":"address"},{"internalType":"uint256","name":"_tokenId","type":"uint256"},{"internalType":"uint256","name":"_totalToken","type":"uint256"},{"internalType":"uint256","name":"_category","type":"uint256"}],"name":"claim","outputs":[],"stateMutability":"nonpayable","type":"function"},{"inputs":[{"internalType":"address","name":"_owner","type":"address"},{"internalType":"address","name":"_tokenAddress","type":"address"},{"internalType":"uint256","name":"_tokenId","type":"uint256"},{"internalType":"uint256","name":"_category","type":"uint256"}],"name":"getAllStructs","outputs":[{"components":[{"internalType":"uint256","name":"share","type":"uint256"},{"internalType":"address[]","name":"nominee","type":"address[]"},{"internalType":"bool[]","name":"isNotAvailable","type":"bool[]"},{"internalType":"bool[]","name":"isClaimed","type":"bool[]"}],"internalType":"struct MultiplePriorityNominee.MultiplePriority[]","name":"","type":"tuple[]"}],"stateMutability":"view","type":"function"},{"inputs":[],"name":"getValues","outputs":[{"internalType":"address","name":"","type":"address"},{"internalType":"uint256","name":"","type":"uint256"},{"internalType":"uint256","name":"","type":"uint256"},{"internalType":"uint256","name":"","type":"uint256"}],"stateMutability":"view","type":"function"},{"inputs":[],"name":"inheritokens","outputs":[{"internalType":"contract Inheritokens","name":"","type":"address"}],"stateMutability":"view","type":"function"},{"inputs":[],"name":"inheritokensAddress","outputs":[{"internalType":"address","name":"","type":"address"}],"stateMutability":"view","type":"function"},{"inputs":[],"name":"owner","outputs":[{"internalType":"address","name":"","type":"address"}],"stateMutability":"view","type":"function"},{"inputs":[{"internalType":"address","name":"","type":"address"},{"internalType":"address","name":"","type":"address"},{"internalType":"uint256","name":"","type":"uint256"},{"internalType":"uint256","name":"","type":"uint256"}],"name":"ownerToNFTToStruct","outputs":[{"internalType":"uint256","name":"share","type":"uint256"}],"stateMutability":"view","type":"function"},{"inputs":[{"internalType":"address","name":"","type":"address"},{"internalType":"address","name":"","type":"address"},{"internalType":"uint256","name":"","type":"uint256"}],"name":"ownerToTokenToStruct","outputs":[{"internalType":"uint256","name":"share","type":"uint256"}],"stateMutability":"view","type":"function"},{"inputs":[{"internalType":"address","name":"_owner","type":"address"},{"internalType":"address","name":"_tokenAddress","type":"address"},{"internalType":"uint256","name":"_amount","type":"uint256"},{"internalType":"uint256","name":"_tokenId","type":"uint256"},{"internalType":"uint256","name":"_category","type":"uint256"}],"name":"recoveryClaim","outputs":[],"stateMutability":"nonpayable","type":"function"},{"inputs":[],"name":"renounceOwnership","outputs":[],"stateMutability":"nonpayable","type":"function"},{"inputs":[{"internalType":"address","name":"newOwner","type":"address"}],"name":"transferOwnership","outputs":[],"stateMutability":"nonpayable","type":"function"},{"inputs":[{"internalType":"uint256","name":"_amount","type":"uint256"},{"internalType":"address","name":"_tokenAddress","type":"address"}],"name":"withdrawFromContract","outputs":[],"stateMutability":"payable","type":"function"}],"evm":{"bytecode":{"linkReferences":{},"object":"6080604052620f4240600355624c4b40600455600160055573e9dce89b076ba6107bb64ef30678efec11939234600660006101000a81548173ffffffffffffffffffffffffffffffffffffffff021916908373ffffffffffffffffffffffffffffffffffffffff1602179055503480156200007957600080fd5b50604051620046813803806200468183398181016040528101906200009f9190620002a0565b620000bf620000b36200016a60201b60201c565b6200017260201b60201c565b80600160006101000a81548173ffffffffffffffffffffffffffffffffffffffff021916908373ffffffffffffffffffffffffffffffffffffffff160217905550600160009054906101000a900473ffffffffffffffffffffffffffffffffffffffff16600260006101000a81548173ffffffffffffffffffffffffffffffffffffffff021916908373ffffffffffffffffffffffffffffffffffffffff16021790555050620002d2565b600033905090565b60008060009054906101000a900473ffffffffffffffffffffffffffffffffffffffff169050816000806101000a81548173ffffffffffffffffffffffffffffffffffffffff021916908373ffffffffffffffffffffffffffffffffffffffff1602179055508173ffffffffffffffffffffffffffffffffffffffff168173ffffffffffffffffffffffffffffffffffffffff167f8be0079c531659141344cd1fd0a4f28419497f9722a3daafe3b4186f6b6457e060405160405180910390a35050565b600080fd5b600073ffffffffffffffffffffffffffffffffffffffff82169050919050565b600062000268826200023b565b9050919050565b6200027a816200025b565b81146200028657600080fd5b50565b6000815190506200029a816200026f565b92915050565b600060208284031215620002b957620002b862000236565b5b6000620002c98482850162000289565b91505092915050565b61439f80620002e26000396000f3fe6080604052600436106100fe5760003560e01c80638df6132511610095578063b67f82dc11610064578063b67f82dc14610301578063be27c3fe1461032a578063bea7d6ac14610355578063d41ab7b514610392578063f2fde38b146103bb576100fe565b80638df61325146102565780639605f5051461027f5780639b785daa1461029b578063a64ad61f146102c4576100fe565b80635128eeef116100d15780635128eeef146101ae5780635cdb4ce4146101d7578063715018a6146102145780638da5cb5b1461022b576100fe565b806319eb4a9014610103578063397e2f1a146101315780633c8249191461015a57806346f1715214610183575b600080fd5b34801561010f57600080fd5b506101186103e4565b6040516101289493929190612b01565b60405180910390f35b34801561013d57600080fd5b5061015860048036038101906101539190613072565b610424565b005b34801561016657600080fd5b50610181600480360381019061017c9190613125565b611150565b005b34801561018f57600080fd5b50610198611c66565b6040516101a591906131a0565b60405180910390f35b3480156101ba57600080fd5b506101d560048036038101906101d091906131bb565b611c8c565b005b3480156101e357600080fd5b506101fe60048036038101906101f991906131e8565b611c96565b60405161020b919061350d565b60405180910390f35b34801561022057600080fd5b5061022961218b565b005b34801561023757600080fd5b5061024061219f565b60405161024d91906131a0565b60405180910390f35b34801561026257600080fd5b5061027d600480360381019061027891906131bb565b6121c8565b005b6102996004803603810190610294919061352f565b6121d2565b005b3480156102a757600080fd5b506102c260048036038101906102bd919061356f565b612263565b005b3480156102d057600080fd5b506102eb60048036038101906102e691906131e8565b6122a7565b6040516102f8919061359c565b60405180910390f35b34801561030d57600080fd5b5061032860048036038101906103239190613125565b6122fc565b005b34801561033657600080fd5b5061033f612659565b60405161034c9190613616565b60405180910390f35b34801561036157600080fd5b5061037c60048036038101906103779190613631565b61267f565b604051610389919061359c565b60405180910390f35b34801561039e57600080fd5b506103b960048036038101906103b491906131bb565b6126c7565b005b3480156103c757600080fd5b506103e260048036038101906103dd919061356f565b6126d1565b005b600080600080600660009054906101000a900473ffffffffffffffffffffffffffffffffffffffff16600354600454600554935093509350935090919293565b6000600260009054906101000a900473ffffffffffffffffffffffffffffffffffffffff1673ffffffffffffffffffffffffffffffffffffffff16630f1f8c05336040518263ffffffff1660e01b815260040161048191906131a0565b602060405180830381865afa15801561049e573d6000803e3d6000fd5b505050506040513d601f19601f820116820180604052508101906104c29190613699565b90506000600260009054906101000a900473ffffffffffffffffffffffffffffffffffffffff1673ffffffffffffffffffffffffffffffffffffffff166315b79630336040518263ffffffff1660e01b815260040161052191906131a0565b602060405180830381865afa15801561053e573d6000803e3d6000fd5b505050506040513d601f19601f820116820180604052508101906105629190613699565b9050816105a4576040517f08c379a000000000000000000000000000000000000000000000000000000000815260040161059b90613723565b60405180910390fd5b806105e4576040517f08c379a00000000000000000000000000000000000000000000000000000000081526004016105db9061378f565b60405180910390fd5b6000600260009054906101000a900473ffffffffffffffffffffffffffffffffffffffff1673ffffffffffffffffffffffffffffffffffffffff166320e4ab6a336040518263ffffffff1660e01b815260040161064191906131a0565b600060405180830381865afa15801561065e573d6000803e3d6000fd5b505050506040513d6000823e3d601f19601f82011682018060405250810190610687919061385b565b9050600080600090505b85518110156107e45760005b8682815181106106b0576106af6138a4565b5b602002602001015160200151518110156107d0576000925060005b8451811015610775578481815181106106e7576106e66138a4565b5b602002602001015173ffffffffffffffffffffffffffffffffffffffff16888481518110610718576107176138a4565b5b6020026020010151602001518381518110610736576107356138a4565b5b602002602001015173ffffffffffffffffffffffffffffffffffffffff16036107625760019350610775565b808061076d90613902565b9150506106cb565b5060001515831515036107bd576040517f08c379a00000000000000000000000000000000000000000000000000000000081526004016107b4906139bc565b60405180910390fd5b80806107c890613902565b91505061069d565b5080806107dc90613902565b915050610691565b506000600260009054906101000a900473ffffffffffffffffffffffffffffffffffffffff1673ffffffffffffffffffffffffffffffffffffffff1663de508c5b338c6040518363ffffffff1660e01b81526004016108449291906139dc565b600060405180830381865afa158015610861573d6000803e3d6000fd5b505050506040513d6000823e3d601f19601f8201168201806040525081019061088a9190613ab4565b909192939450909192935090919250909150905080915050600080600090505b87518110156108f2578781815181106108c6576108c56138a4565b5b602002602001015160000151826108dd9190613b5d565b915080806108ea90613902565b9150506108aa565b506064811115610937576040517f08c379a000000000000000000000000000000000000000000000000000000000815260040161092e90613bdd565b60405180910390fd5b816109d457600260009054906101000a900473ffffffffffffffffffffffffffffffffffffffff1673ffffffffffffffffffffffffffffffffffffffff166325cb763a338d8d8d868e6040518763ffffffff1660e01b81526004016109a196959493929190613c41565b600060405180830381600087803b1580156109bb57600080fd5b505af11580156109cf573d6000803e3d6000fd5b505050505b8115610b5f576000600660009054906101000a900473ffffffffffffffffffffffffffffffffffffffff16905060008a03610a91578073ffffffffffffffffffffffffffffffffffffffff166323b872dd33306003546040518463ffffffff1660e01b8152600401610a4893929190613ca9565b6020604051808303816000875af1158015610a67573d6000803e3d6000fd5b505050506040513d601f19601f82011682018060405250810190610a8b9190613699565b50610b5d565b60018a03610b21578073ffffffffffffffffffffffffffffffffffffffff166323b872dd33306004546040518463ffffffff1660e01b8152600401610ad893929190613ca9565b6020604051808303816000875af1158015610af7573d6000803e3d6000fd5b505050506040513d601f19601f82011682018060405250810190610b1b9190613699565b50610b5c565b6040517f08c379a0000000000000000000000000000000000000000000000000000000008152600401610b5390613d52565b60405180910390fd5b5b505b6000808a03610c8157600760003373ffffffffffffffffffffffffffffffffffffffff1673ffffffffffffffffffffffffffffffffffffffff16815260200190815260200160002060008d73ffffffffffffffffffffffffffffffffffffffff1673ffffffffffffffffffffffffffffffffffffffff1681526020019081526020016000208054905090506000811115610c7c57600760003373ffffffffffffffffffffffffffffffffffffffff1673ffffffffffffffffffffffffffffffffffffffff16815260200190815260200160002060008d73ffffffffffffffffffffffffffffffffffffffff1673ffffffffffffffffffffffffffffffffffffffff1681526020019081526020016000206000610c7b919061289e565b5b610db8565b600860003373ffffffffffffffffffffffffffffffffffffffff1673ffffffffffffffffffffffffffffffffffffffff16815260200190815260200160002060008d73ffffffffffffffffffffffffffffffffffffffff1673ffffffffffffffffffffffffffffffffffffffff16815260200190815260200160002060008a81526020019081526020016000208054905090506000811115610db757600860003373ffffffffffffffffffffffffffffffffffffffff1673ffffffffffffffffffffffffffffffffffffffff16815260200190815260200160002060008d73ffffffffffffffffffffffffffffffffffffffff1673ffffffffffffffffffffffffffffffffffffffff16815260200190815260200160002060008a81526020019081526020016000206000610db6919061289e565b5b5b600260009054906101000a900473ffffffffffffffffffffffffffffffffffffffff1673ffffffffffffffffffffffffffffffffffffffff1663b69bd77f338e8c868f6040518663ffffffff1660e01b8152600401610e1b959493929190613d72565b600060405180830381600087803b158015610e3557600080fd5b505af1158015610e49573d6000803e3d6000fd5b5050505060008a03610f9d5760005b8851811015610f9757600760003373ffffffffffffffffffffffffffffffffffffffff1673ffffffffffffffffffffffffffffffffffffffff16815260200190815260200160002060008e73ffffffffffffffffffffffffffffffffffffffff1673ffffffffffffffffffffffffffffffffffffffff168152602001908152602001600020898281518110610ef057610eef6138a4565b5b60200260200101519080600181540180825580915050600190039060005260206000209060040201600090919091909150600082015181600001556020820151816001019080519060200190610f479291906128c2565b506040820151816002019080519060200190610f6492919061294c565b506060820151816003019080519060200190610f8192919061294c565b5050508080610f8f90613902565b915050610e58565b506110f2565b60005b88518110156110f057600860003373ffffffffffffffffffffffffffffffffffffffff1673ffffffffffffffffffffffffffffffffffffffff16815260200190815260200160002060008e73ffffffffffffffffffffffffffffffffffffffff1673ffffffffffffffffffffffffffffffffffffffff16815260200190815260200160002060008b8152602001908152602001600020898281518110611049576110486138a4565b5b602002602001015190806001815401808255809150506001900390600052602060002090600402016000909190919091506000820151816000015560208201518160010190805190602001906110a09291906128c2565b5060408201518160020190805190602001906110bd92919061294c565b5060608201518160030190805190602001906110da92919061294c565b50505080806110e890613902565b915050610fa0565b505b3373ffffffffffffffffffffffffffffffffffffffff167f82a2341a42c146a8b1818f7e04fe56be41f008d10c140cf4fe8b4ef801628ea18d8b60405161113a929190613dc5565b60405180910390a2505050505050505050505050565b6000600260009054906101000a900473ffffffffffffffffffffffffffffffffffffffff1673ffffffffffffffffffffffffffffffffffffffff166320e4ab6a876040518263ffffffff1660e01b81526004016111ad91906131a0565b600060405180830381865afa1580156111ca573d6000803e3d6000fd5b505050506040513d6000823e3d601f19601f820116820180604052508101906111f3919061385b565b9050600080600090505b8251811015611c5c573373ffffffffffffffffffffffffffffffffffffffff168382815181106112305761122f6138a4565b5b602002602001015173ffffffffffffffffffffffffffffffffffffffff1603611bcb5760005b600760008a73ffffffffffffffffffffffffffffffffffffffff1673ffffffffffffffffffffffffffffffffffffffff16815260200190815260200160002060008973ffffffffffffffffffffffffffffffffffffffff1673ffffffffffffffffffffffffffffffffffffffff1681526020019081526020016000208054905081101561165c5760005b600760008b73ffffffffffffffffffffffffffffffffffffffff1673ffffffffffffffffffffffffffffffffffffffff16815260200190815260200160002060008a73ffffffffffffffffffffffffffffffffffffffff1673ffffffffffffffffffffffffffffffffffffffff168152602001908152602001600020828154811061136e5761136d6138a4565b5b9060005260206000209060040201600101805490508110156116485784838151811061139d5761139c6138a4565b5b602002602001015173ffffffffffffffffffffffffffffffffffffffff16600760008c73ffffffffffffffffffffffffffffffffffffffff1673ffffffffffffffffffffffffffffffffffffffff16815260200190815260200160002060008b73ffffffffffffffffffffffffffffffffffffffff1673ffffffffffffffffffffffffffffffffffffffff1681526020019081526020016000208381548110611449576114486138a4565b5b9060005260206000209060040201600101828154811061146c5761146b6138a4565b5b9060005260206000200160009054906101000a900473ffffffffffffffffffffffffffffffffffffffff1673ffffffffffffffffffffffffffffffffffffffff160361163557600760008b73ffffffffffffffffffffffffffffffffffffffff1673ffffffffffffffffffffffffffffffffffffffff16815260200190815260200160002060008a73ffffffffffffffffffffffffffffffffffffffff1673ffffffffffffffffffffffffffffffffffffffff16815260200190815260200160002082815481106115405761153f6138a4565b5b90600052602060002090600402016000015493506001600760008c73ffffffffffffffffffffffffffffffffffffffff1673ffffffffffffffffffffffffffffffffffffffff16815260200190815260200160002060008b73ffffffffffffffffffffffffffffffffffffffff1673ffffffffffffffffffffffffffffffffffffffff16815260200190815260200160002083815481106115e4576115e36138a4565b5b90600052602060002090600402016003018281548110611607576116066138a4565b5b90600052602060002090602091828204019190066101000a81548160ff021916908315150217905550611648565b808061164090613902565b9150506112e0565b50808061165490613902565b915050611256565b50600084036117af576000620f4240600554848861167a9190613dee565b6116849190613dee565b61168e9190613e5f565b90506000818761169e9190613e90565b905060008990508073ffffffffffffffffffffffffffffffffffffffff166323b872dd8c30866040518463ffffffff1660e01b81526004016116e293929190613ca9565b6020604051808303816000875af1158015611701573d6000803e3d6000fd5b505050506040513d601f19601f820116820180604052508101906117259190613699565b508073ffffffffffffffffffffffffffffffffffffffff166323b872dd8c33856040518463ffffffff1660e01b815260040161176393929190613ca9565b6020604051808303816000875af1158015611782573d6000803e3d6000fd5b505050506040513d601f19601f820116820180604052508101906117a69190613699565b50505050611bca565b6000861115611bc95760008790508073ffffffffffffffffffffffffffffffffffffffff166323b872dd8a338a6040518463ffffffff1660e01b81526004016117fa93929190613ca9565b600060405180830381600087803b15801561181457600080fd5b505af1158015611828573d6000803e3d6000fd5b5050505060005b600760008b73ffffffffffffffffffffffffffffffffffffffff1673ffffffffffffffffffffffffffffffffffffffff16815260200190815260200160002060008a73ffffffffffffffffffffffffffffffffffffffff1673ffffffffffffffffffffffffffffffffffffffff16815260200190815260200160002080549050811015611bc65760005b600860008c73ffffffffffffffffffffffffffffffffffffffff1673ffffffffffffffffffffffffffffffffffffffff16815260200190815260200160002060008b73ffffffffffffffffffffffffffffffffffffffff1673ffffffffffffffffffffffffffffffffffffffff16815260200190815260200160002060008a81526020019081526020016000208281548110611958576119576138a4565b5b906000526020600020906004020160010180549050811015611bb257858481518110611987576119866138a4565b5b602002602001015173ffffffffffffffffffffffffffffffffffffffff16600860008d73ffffffffffffffffffffffffffffffffffffffff1673ffffffffffffffffffffffffffffffffffffffff16815260200190815260200160002060008c73ffffffffffffffffffffffffffffffffffffffff1673ffffffffffffffffffffffffffffffffffffffff16815260200190815260200160002060008b81526020019081526020016000208381548110611a4457611a436138a4565b5b90600052602060002090600402016001018281548110611a6757611a666138a4565b5b9060005260206000200160009054906101000a900473ffffffffffffffffffffffffffffffffffffffff1673ffffffffffffffffffffffffffffffffffffffff1603611b9f576001600860008d73ffffffffffffffffffffffffffffffffffffffff1673ffffffffffffffffffffffffffffffffffffffff16815260200190815260200160002060008c73ffffffffffffffffffffffffffffffffffffffff1673ffffffffffffffffffffffffffffffffffffffff16815260200190815260200160002060008b81526020019081526020016000208381548110611b4e57611b4d6138a4565b5b90600052602060002090600402016003018281548110611b7157611b706138a4565b5b90600052602060002090602091828204019190066101000a81548160ff021916908315150217905550611bb2565b8080611baa90613902565b9150506118b9565b508080611bbe90613902565b91505061182f565b50505b5b5b8673ffffffffffffffffffffffffffffffffffffffff163373ffffffffffffffffffffffffffffffffffffffff168973ffffffffffffffffffffffffffffffffffffffff167f2442e7ccfd30564dcfd95cc7cfdaefdfc6298925b0c609461d5c69ca18ab18128986604051611c41929190613ec4565b60405180910390a48080611c5490613902565b9150506111fd565b5050505050505050565b600160009054906101000a900473ffffffffffffffffffffffffffffffffffffffff1681565b8060038190555050565b606060008203611f0b57600760008673ffffffffffffffffffffffffffffffffffffffff1673ffffffffffffffffffffffffffffffffffffffff16815260200190815260200160002060008573ffffffffffffffffffffffffffffffffffffffff1673ffffffffffffffffffffffffffffffffffffffff168152602001908152602001600020805480602002602001604051908101604052809291908181526020016000905b82821015611f0057838290600052602060002090600402016040518060800160405290816000820154815260200160018201805480602002602001604051908101604052809291908181526020018280548015611dee57602002820191906000526020600020905b8160009054906101000a900473ffffffffffffffffffffffffffffffffffffffff1673ffffffffffffffffffffffffffffffffffffffff1681526020019060010190808311611da4575b5050505050815260200160028201805480602002602001604051908101604052809291908181526020018280548015611e6b57602002820191906000526020600020906000905b82829054906101000a900460ff16151581526020019060010190602082600001049283019260010382029150808411611e355790505b5050505050815260200160038201805480602002602001604051908101604052809291908181526020018280548015611ee857602002820191906000526020600020906000905b82829054906101000a900460ff16151581526020019060010190602082600001049283019260010382029150808411611eb25790505b50505050508152505081526020019060010190611d3c565b505050509050612183565b600860008673ffffffffffffffffffffffffffffffffffffffff1673ffffffffffffffffffffffffffffffffffffffff16815260200190815260200160002060008573ffffffffffffffffffffffffffffffffffffffff1673ffffffffffffffffffffffffffffffffffffffff1681526020019081526020016000206000848152602001908152602001600020805480602002602001604051908101604052809291908181526020016000905b8282101561217c5783829060005260206000209060040201604051806080016040529081600082015481526020016001820180548060200260200160405190810160405280929190818152602001828054801561206a57602002820191906000526020600020905b8160009054906101000a900473ffffffffffffffffffffffffffffffffffffffff1673ffffffffffffffffffffffffffffffffffffffff1681526020019060010190808311612020575b50505050508152602001600282018054806020026020016040519081016040528092919081815260200182805480156120e757602002820191906000526020600020906000905b82829054906101000a900460ff161515815260200190600101906020826000010492830192600103820291508084116120b15790505b505050505081526020016003820180548060200260200160405190810160405280929190818152602001828054801561216457602002820191906000526020600020906000905b82829054906101000a900460ff1615158152602001906001019060208260000104928301926001038202915080841161212e5790505b50505050508152505081526020019060010190611fb8565b5050505090505b949350505050565b612193612754565b61219d60006127d2565b565b60008060009054906101000a900473ffffffffffffffffffffffffffffffffffffffff16905090565b8060048190555050565b6121da612754565b60008190508073ffffffffffffffffffffffffffffffffffffffff1663a9059cbb33856040518363ffffffff1660e01b815260040161221a929190613dc5565b6020604051808303816000875af1158015612239573d6000803e3d6000fd5b505050506040513d601f19601f8201168201806040525081019061225d9190613699565b50505050565b80600660006101000a81548173ffffffffffffffffffffffffffffffffffffffff021916908373ffffffffffffffffffffffffffffffffffffffff16021790555050565b600860205283600052604060002060205282600052604060002060205281600052604060002081815481106122db57600080fd5b90600052602060002090600402016000935093505050508060000154905081565b3373ffffffffffffffffffffffffffffffffffffffff16600260009054906101000a900473ffffffffffffffffffffffffffffffffffffffff1673ffffffffffffffffffffffffffffffffffffffff1663c3bb8121876040518263ffffffff1660e01b815260040161236e91906131a0565b600060405180830381865afa15801561238b573d6000803e3d6000fd5b505050506040513d6000823e3d601f19601f820116820180604052508101906123b49190614190565b60e0015173ffffffffffffffffffffffffffffffffffffffff161461240e576040517f08c379a00000000000000000000000000000000000000000000000000000000081526004016124059061424b565b60405180910390fd5b60008103612554576000612710600554856124299190613dee565b6124339190613e5f565b9050600081856124439190613e90565b905060008690508073ffffffffffffffffffffffffffffffffffffffff166323b872dd8930866040518463ffffffff1660e01b815260040161248793929190613ca9565b6020604051808303816000875af11580156124a6573d6000803e3d6000fd5b505050506040513d601f19601f820116820180604052508101906124ca9190613699565b508073ffffffffffffffffffffffffffffffffffffffff166323b872dd8933856040518463ffffffff1660e01b815260040161250893929190613ca9565b6020604051808303816000875af1158015612527573d6000803e3d6000fd5b505050506040513d601f19601f8201168201806040525081019061254b9190613699565b50505050612652565b60008211156126515760008490508073ffffffffffffffffffffffffffffffffffffffff166323b872dd8733866040518463ffffffff1660e01b815260040161259f93929190613ca9565b600060405180830381600087803b1580156125b957600080fd5b505af11580156125cd573d6000803e3d6000fd5b505050508473ffffffffffffffffffffffffffffffffffffffff163373ffffffffffffffffffffffffffffffffffffffff168773ffffffffffffffffffffffffffffffffffffffff167f2442e7ccfd30564dcfd95cc7cfdaefdfc6298925b0c609461d5c69ca18ab18128688604051612647929190613ec4565b60405180910390a4505b5b5050505050565b600260009054906101000a900473ffffffffffffffffffffffffffffffffffffffff1681565b600760205282600052604060002060205281600052604060002081815481106126a757600080fd5b906000526020600020906004020160009250925050508060000154905081565b8060058190555050565b6126d9612754565b600073ffffffffffffffffffffffffffffffffffffffff168173ffffffffffffffffffffffffffffffffffffffff1603612748576040517f08c379a000000000000000000000000000000000000000000000000000000000815260040161273f906142dd565b60405180910390fd5b612751816127d2565b50565b61275c612896565b73ffffffffffffffffffffffffffffffffffffffff1661277a61219f565b73ffffffffffffffffffffffffffffffffffffffff16146127d0576040517f08c379a00000000000000000000000000000000000000000000000000000000081526004016127c790614349565b60405180910390fd5b565b60008060009054906101000a900473ffffffffffffffffffffffffffffffffffffffff169050816000806101000a81548173ffffffffffffffffffffffffffffffffffffffff021916908373ffffffffffffffffffffffffffffffffffffffff1602179055508173ffffffffffffffffffffffffffffffffffffffff168173ffffffffffffffffffffffffffffffffffffffff167f8be0079c531659141344cd1fd0a4f28419497f9722a3daafe3b4186f6b6457e060405160405180910390a35050565b600033905090565b50805460008255600402906000526020600020908101906128bf91906129f2565b50565b82805482825590600052602060002090810192821561293b579160200282015b8281111561293a5782518260006101000a81548173ffffffffffffffffffffffffffffffffffffffff021916908373ffffffffffffffffffffffffffffffffffffffff160217905550916020019190600101906128e2565b5b5090506129489190612a41565b5090565b82805482825590600052602060002090601f016020900481019282156129e15791602002820160005b838211156129b257835183826101000a81548160ff0219169083151502179055509260200192600101602081600001049283019260010302612975565b80156129df5782816101000a81549060ff02191690556001016020816000010492830192600103026129b2565b505b5090506129ee9190612a41565b5090565b5b80821115612a3d57600080820160009055600182016000612a149190612a5e565b600282016000612a249190612a7f565b600382016000612a349190612a7f565b506004016129f3565b5090565b5b80821115612a5a576000816000905550600101612a42565b5090565b5080546000825590600052602060002090810190612a7c9190612a41565b50565b50805460008255601f016020900490600052602060002090810190612aa49190612a41565b50565b600073ffffffffffffffffffffffffffffffffffffffff82169050919050565b6000612ad282612aa7565b9050919050565b612ae281612ac7565b82525050565b6000819050919050565b612afb81612ae8565b82525050565b6000608082019050612b166000830187612ad9565b612b236020830186612af2565b612b306040830185612af2565b612b3d6060830184612af2565b95945050505050565b6000604051905090565b600080fd5b600080fd5b612b6381612ac7565b8114612b6e57600080fd5b50565b600081359050612b8081612b5a565b92915050565b600080fd5b600080fd5b6000601f19601f8301169050919050565b7f4e487b7100000000000000000000000000000000000000000000000000000000600052604160045260246000fd5b612bd982612b90565b810181811067ffffffffffffffff82111715612bf857612bf7612ba1565b5b80604052505050565b6000612c0b612b46565b9050612c178282612bd0565b919050565b600067ffffffffffffffff821115612c3757612c36612ba1565b5b612c4082612b90565b9050602081019050919050565b82818337600083830152505050565b6000612c6f612c6a84612c1c565b612c01565b905082815260208101848484011115612c8b57612c8a612b8b565b5b612c96848285612c4d565b509392505050565b600082601f830112612cb357612cb2612b86565b5b8135612cc3848260208601612c5c565b91505092915050565b612cd581612ae8565b8114612ce057600080fd5b50565b600081359050612cf281612ccc565b92915050565b600067ffffffffffffffff821115612d1357612d12612ba1565b5b602082029050602081019050919050565b600080fd5b600080fd5b600080fd5b600067ffffffffffffffff821115612d4e57612d4d612ba1565b5b602082029050602081019050919050565b6000612d72612d6d84612d33565b612c01565b90508083825260208201905060208402830185811115612d9557612d94612d24565b5b835b81811015612dbe5780612daa8882612b71565b845260208401935050602081019050612d97565b5050509392505050565b600082601f830112612ddd57612ddc612b86565b5b8135612ded848260208601612d5f565b91505092915050565b600067ffffffffffffffff821115612e1157612e10612ba1565b5b602082029050602081019050919050565b60008115159050919050565b612e3781612e22565b8114612e4257600080fd5b50565b600081359050612e5481612e2e565b92915050565b6000612e6d612e6884612df6565b612c01565b90508083825260208201905060208402830185811115612e9057612e8f612d24565b5b835b81811015612eb95780612ea58882612e45565b845260208401935050602081019050612e92565b5050509392505050565b600082601f830112612ed857612ed7612b86565b5b8135612ee8848260208601612e5a565b91505092915050565b600060808284031215612f0757612f06612d29565b5b612f116080612c01565b90506000612f2184828501612ce3565b600083015250602082013567ffffffffffffffff811115612f4557612f44612d2e565b5b612f5184828501612dc8565b602083015250604082013567ffffffffffffffff811115612f7557612f74612d2e565b5b612f8184828501612ec3565b604083015250606082013567ffffffffffffffff811115612fa557612fa4612d2e565b5b612fb184828501612ec3565b60608301525092915050565b6000612fd0612fcb84612cf8565b612c01565b90508083825260208201905060208402830185811115612ff357612ff2612d24565b5b835b8181101561303a57803567ffffffffffffffff81111561301857613017612b86565b5b8086016130258982612ef1565b85526020850194505050602081019050612ff5565b5050509392505050565b600082601f83011261305957613058612b86565b5b8135613069848260208601612fbd565b91505092915050565b600080600080600060a0868803121561308e5761308d612b50565b5b600061309c88828901612b71565b955050602086013567ffffffffffffffff8111156130bd576130bc612b55565b5b6130c988828901612c9e565b94505060406130da88828901612ce3565b93505060606130eb88828901612ce3565b925050608086013567ffffffffffffffff81111561310c5761310b612b55565b5b61311888828901613044565b9150509295509295909350565b600080600080600060a0868803121561314157613140612b50565b5b600061314f88828901612b71565b955050602061316088828901612b71565b945050604061317188828901612ce3565b935050606061318288828901612ce3565b925050608061319388828901612ce3565b9150509295509295909350565b60006020820190506131b56000830184612ad9565b92915050565b6000602082840312156131d1576131d0612b50565b5b60006131df84828501612ce3565b91505092915050565b6000806000806080858703121561320257613201612b50565b5b600061321087828801612b71565b945050602061322187828801612b71565b935050604061323287828801612ce3565b925050606061324387828801612ce3565b91505092959194509250565b600081519050919050565b600082825260208201905092915050565b6000819050602082019050919050565b61328481612ae8565b82525050565b600081519050919050565b600082825260208201905092915050565b6000819050602082019050919050565b6132bf81612ac7565b82525050565b60006132d183836132b6565b60208301905092915050565b6000602082019050919050565b60006132f58261328a565b6132ff8185613295565b935061330a836132a6565b8060005b8381101561333b57815161332288826132c5565b975061332d836132dd565b92505060018101905061330e565b5085935050505092915050565b600081519050919050565b600082825260208201905092915050565b6000819050602082019050919050565b61337d81612e22565b82525050565b600061338f8383613374565b60208301905092915050565b6000602082019050919050565b60006133b382613348565b6133bd8185613353565b93506133c883613364565b8060005b838110156133f95781516133e08882613383565b97506133eb8361339b565b9250506001810190506133cc565b5085935050505092915050565b600060808301600083015161341e600086018261327b565b506020830151848203602086015261343682826132ea565b9150506040830151848203604086015261345082826133a8565b9150506060830151848203606086015261346a82826133a8565b9150508091505092915050565b60006134838383613406565b905092915050565b6000602082019050919050565b60006134a38261324f565b6134ad818561325a565b9350836020820285016134bf8561326b565b8060005b858110156134fb57848403895281516134dc8582613477565b94506134e78361348b565b925060208a019950506001810190506134c3565b50829750879550505050505092915050565b600060208201905081810360008301526135278184613498565b905092915050565b6000806040838503121561354657613545612b50565b5b600061355485828601612ce3565b925050602061356585828601612b71565b9150509250929050565b60006020828403121561358557613584612b50565b5b600061359384828501612b71565b91505092915050565b60006020820190506135b16000830184612af2565b92915050565b6000819050919050565b60006135dc6135d76135d284612aa7565b6135b7565b612aa7565b9050919050565b60006135ee826135c1565b9050919050565b6000613600826135e3565b9050919050565b613610816135f5565b82525050565b600060208201905061362b6000830184613607565b92915050565b60008060006060848603121561364a57613649612b50565b5b600061365886828701612b71565b935050602061366986828701612b71565b925050604061367a86828701612ce3565b9150509250925092565b60008151905061369381612e2e565b92915050565b6000602082840312156136af576136ae612b50565b5b60006136bd84828501613684565b91505092915050565b600082825260208201905092915050565b7f466972737420726567697374657220796f757273656c66210000000000000000600082015250565b600061370d6018836136c6565b9150613718826136d7565b602082019050919050565b6000602082019050818103600083015261373c81613700565b9050919050565b7f46697273742076657269667920796f757220656d61696c000000000000000000600082015250565b60006137796017836136c6565b915061378482613743565b602082019050919050565b600060208201905081810360008301526137a88161376c565b9050919050565b6000815190506137be81612b5a565b92915050565b60006137d76137d284612d33565b612c01565b905080838252602082019050602084028301858111156137fa576137f9612d24565b5b835b81811015613823578061380f88826137af565b8452602084019350506020810190506137fc565b5050509392505050565b600082601f83011261384257613841612b86565b5b81516138528482602086016137c4565b91505092915050565b60006020828403121561387157613870612b50565b5b600082015167ffffffffffffffff81111561388f5761388e612b55565b5b61389b8482850161382d565b91505092915050565b7f4e487b7100000000000000000000000000000000000000000000000000000000600052603260045260246000fd5b7f4e487b7100000000000000000000000000000000000000000000000000000000600052601160045260246000fd5b600061390d82612ae8565b91507fffffffffffffffffffffffffffffffffffffffffffffffffffffffffffffffff820361393f5761393e6138d3565b5b600182019050919050565b7f636865636b20616c6c20746865206e6f6d696e65657320796f7520617265206560008201527f6e746572696e67206172652061646465642e0000000000000000000000000000602082015250565b60006139a66032836136c6565b91506139b18261394a565b604082019050919050565b600060208201905081810360008301526139d581613999565b9050919050565b60006040820190506139f16000830185612ad9565b6139fe6020830184612ad9565b9392505050565b60005b83811015613a23578082015181840152602081019050613a08565b60008484015250505050565b6000613a42613a3d84612c1c565b612c01565b905082815260208101848484011115613a5e57613a5d612b8b565b5b613a69848285613a05565b509392505050565b600082601f830112613a8657613a85612b86565b5b8151613a96848260208601613a2f565b91505092915050565b600081519050613aae81612ccc565b92915050565b60008060008060008060c08789031215613ad157613ad0612b50565b5b6000613adf89828a016137af565b965050602087015167ffffffffffffffff811115613b0057613aff612b55565b5b613b0c89828a01613a71565b9550506040613b1d89828a01613a9f565b9450506060613b2e89828a01613a9f565b9350506080613b3f89828a01613a9f565b92505060a0613b5089828a01613684565b9150509295509295509295565b6000613b6882612ae8565b9150613b7383612ae8565b9250828201905080821115613b8b57613b8a6138d3565b5b92915050565b7f5265647563652074686520736861726520616d6f756e742e2e2e000000000000600082015250565b6000613bc7601a836136c6565b9150613bd282613b91565b602082019050919050565b60006020820190508181036000830152613bf681613bba565b9050919050565b600081519050919050565b6000613c1382613bfd565b613c1d81856136c6565b9350613c2d818560208601613a05565b613c3681612b90565b840191505092915050565b600060c082019050613c566000830189612ad9565b613c636020830188612ad9565b8181036040830152613c758187613c08565b9050613c846060830186612af2565b613c916080830185612af2565b613c9e60a0830184612af2565b979650505050505050565b6000606082019050613cbe6000830186612ad9565b613ccb6020830185612ad9565b613cd86040830184612af2565b949350505050565b7f43617465676f72792076616c7565206973203020666f7220746f6b656e73206160008201527f6e64203120666f72204e46540000000000000000000000000000000000000000602082015250565b6000613d3c602c836136c6565b9150613d4782613ce0565b604082019050919050565b60006020820190508181036000830152613d6b81613d2f565b9050919050565b600060a082019050613d876000830188612ad9565b613d946020830187612ad9565b613da16040830186612af2565b613dae6060830185612af2565b613dbb6080830184612af2565b9695505050505050565b6000604082019050613dda6000830185612ad9565b613de76020830184612af2565b9392505050565b6000613df982612ae8565b9150613e0483612ae8565b9250828202613e1281612ae8565b91508282048414831517613e2957613e286138d3565b5b5092915050565b7f4e487b7100000000000000000000000000000000000000000000000000000000600052601260045260246000fd5b6000613e6a82612ae8565b9150613e7583612ae8565b925082613e8557613e84613e30565b5b828204905092915050565b6000613e9b82612ae8565b9150613ea683612ae8565b9250828203905081811115613ebe57613ebd6138d3565b5b92915050565b6000604082019050613ed96000830185612af2565b613ee66020830184612af2565b9392505050565b600067ffffffffffffffff821115613f0857613f07612ba1565b5b602082029050602081019050919050565b6000613f2c613f2784613eed565b612c01565b90508083825260208201905060208402830185811115613f4f57613f4e612d24565b5b835b81811015613f785780613f648882613a9f565b845260208401935050602081019050613f51565b5050509392505050565b600082601f830112613f9757613f96612b86565b5b8151613fa7848260208601613f19565b91505092915050565b60006101a08284031215613fc757613fc6612d29565b5b613fd26101a0612c01565b9050600082015167ffffffffffffffff811115613ff257613ff1612d2e565b5b613ffe84828501613a71565b600083015250602082015167ffffffffffffffff81111561402257614021612d2e565b5b61402e84828501613a71565b602083015250604082015167ffffffffffffffff81111561405257614051612d2e565b5b61405e84828501613a71565b604083015250606082015167ffffffffffffffff81111561408257614081612d2e565b5b61408e84828501613a71565b60608301525060806140a284828501613684565b60808301525060a06140b684828501613684565b60a08301525060c06140ca84828501613684565b60c08301525060e06140de848285016137af565b60e08301525061010082015167ffffffffffffffff81111561410357614102612d2e565b5b61410f8482850161382d565b6101008301525061012082015167ffffffffffffffff81111561413557614134612d2e565b5b61414184828501613f82565b6101208301525061014061415784828501613a9f565b6101408301525061016061416d84828501613a9f565b6101608301525061018061418384828501613a9f565b6101808301525092915050565b6000602082840312156141a6576141a5612b50565b5b600082015167ffffffffffffffff8111156141c4576141c3612b55565b5b6141d084828501613fb0565b91505092915050565b7f5265636f766572792041646472657373206f72204f776e65722041646472657360008201527f7320697320696e636f7272656374210000000000000000000000000000000000602082015250565b6000614235602f836136c6565b9150614240826141d9565b604082019050919050565b6000602082019050818103600083015261426481614228565b9050919050565b7f4f776e61626c653a206e6577206f776e657220697320746865207a65726f206160008201527f6464726573730000000000000000000000000000000000000000000000000000602082015250565b60006142c76026836136c6565b91506142d28261426b565b604082019050919050565b600060208201905081810360008301526142f6816142ba565b9050919050565b7f4f776e61626c653a2063616c6c6572206973206e6f7420746865206f776e6572600082015250565b60006143336020836136c6565b915061433e826142fd565b602082019050919050565b6000602082019050818103600083015261436281614326565b905091905056fea2646970667358221220564a18c9a650d51ad063a23f769278a012273be9281f2c954310f5e9f78e271364736f6c63430008110033","opcodes":"PUSH1 0x80 PUSH1 0x40 MSTORE PUSH3 0xF4240 PUSH1 0x3 SSTORE PUSH3 0x4C4B40 PUSH1 0x4 SSTORE PUSH1 0x1 PUSH1 0x5 SSTORE PUSH20 0xE9DCE89B076BA6107BB64EF30678EFEC11939234 PUSH1 0x6 PUSH1 0x0 PUSH2 0x100 EXP DUP2 SLOAD DUP2 PUSH20 0xFFFFFFFFFFFFFFFFFFFFFFFFFFFFFFFFFFFFFFFF MUL NOT AND SWAP1 DUP4 PUSH20 0xFFFFFFFFFFFFFFFFFFFFFFFFFFFFFFFFFFFFFFFF AND MUL OR SWAP1 SSTORE POP CALLVALUE DUP1 ISZERO PUSH3 0x79 JUMPI PUSH1 0x0 DUP1 REVERT JUMPDEST POP PUSH1 0x40 MLOAD PUSH3 0x4681 CODESIZE SUB DUP1 PUSH3 0x4681 DUP4 CODECOPY DUP2 DUP2 ADD PUSH1 0x40 MSTORE DUP2 ADD SWAP1 PUSH3 0x9F SWAP2 SWAP1 PUSH3 0x2A0 JUMP JUMPDEST PUSH3 0xBF PUSH3 0xB3 PUSH3 0x16A PUSH1 0x20 SHL PUSH1 0x20 SHR JUMP JUMPDEST PUSH3 0x172 PUSH1 0x20 SHL PUSH1 0x20 SHR JUMP JUMPDEST DUP1 PUSH1 0x1 PUSH1 0x0 PUSH2 0x100 EXP DUP2 SLOAD DUP2 PUSH20 0xFFFFFFFFFFFFFFFFFFFFFFFFFFFFFFFFFFFFFFFF MUL NOT AND SWAP1 DUP4 PUSH20 0xFFFFFFFFFFFFFFFFFFFFFFFFFFFFFFFFFFFFFFFF AND MUL OR SWAP1 SSTORE POP PUSH1 0x1 PUSH1 0x0 SWAP1 SLOAD SWAP1 PUSH2 0x100 EXP SWAP1 DIV PUSH20 0xFFFFFFFFFFFFFFFFFFFFFFFFFFFFFFFFFFFFFFFF AND PUSH1 0x2 PUSH1 0x0 PUSH2 0x100 EXP DUP2 SLOAD DUP2 PUSH20 0xFFFFFFFFFFFFFFFFFFFFFFFFFFFFFFFFFFFFFFFF MUL NOT AND SWAP1 DUP4 PUSH20 0xFFFFFFFFFFFFFFFFFFFFFFFFFFFFFFFFFFFFFFFF AND MUL OR SWAP1 SSTORE POP POP PUSH3 0x2D2 JUMP JUMPDEST PUSH1 0x0 CALLER SWAP1 POP SWAP1 JUMP JUMPDEST PUSH1 0x0 DUP1 PUSH1 0x0 SWAP1 SLOAD SWAP1 PUSH2 0x100 EXP SWAP1 DIV PUSH20 0xFFFFFFFFFFFFFFFFFFFFFFFFFFFFFFFFFFFFFFFF AND SWAP1 POP DUP2 PUSH1 0x0 DUP1 PUSH2 0x100 EXP DUP2 SLOAD DUP2 PUSH20 0xFFFFFFFFFFFFFFFFFFFFFFFFFFFFFFFFFFFFFFFF MUL NOT AND SWAP1 DUP4 PUSH20 0xFFFFFFFFFFFFFFFFFFFFFFFFFFFFFFFFFFFFFFFF AND MUL OR SWAP1 SSTORE POP DUP2 PUSH20 0xFFFFFFFFFFFFFFFFFFFFFFFFFFFFFFFFFFFFFFFF AND DUP2 PUSH20 0xFFFFFFFFFFFFFFFFFFFFFFFFFFFFFFFFFFFFFFFF AND PUSH32 0x8BE0079C531659141344CD1FD0A4F28419497F9722A3DAAFE3B4186F6B6457E0 PUSH1 0x40 MLOAD PUSH1 0x40 MLOAD DUP1 SWAP2 SUB SWAP1 LOG3 POP POP JUMP JUMPDEST PUSH1 0x0 DUP1 REVERT JUMPDEST PUSH1 0x0 PUSH20 0xFFFFFFFFFFFFFFFFFFFFFFFFFFFFFFFFFFFFFFFF DUP3 AND SWAP1 POP SWAP2 SWAP1 POP JUMP JUMPDEST PUSH1 0x0 PUSH3 0x268 DUP3 PUSH3 0x23B JUMP JUMPDEST SWAP1 POP SWAP2 SWAP1 POP JUMP JUMPDEST PUSH3 0x27A DUP2 PUSH3 0x25B JUMP JUMPDEST DUP2 EQ PUSH3 0x286 JUMPI PUSH1 0x0 DUP1 REVERT JUMPDEST POP JUMP JUMPDEST PUSH1 0x0 DUP2 MLOAD SWAP1 POP PUSH3 0x29A DUP2 PUSH3 0x26F JUMP JUMPDEST SWAP3 SWAP2 POP POP JUMP JUMPDEST PUSH1 0x0 PUSH1 0x20 DUP3 DUP5 SUB SLT ISZERO PUSH3 0x2B9 JUMPI PUSH3 0x2B8 PUSH3 0x236 JUMP JUMPDEST JUMPDEST PUSH1 0x0 PUSH3 0x2C9 DUP5 DUP3 DUP6 ADD PUSH3 0x289 JUMP JUMPDEST SWAP2 POP POP SWAP3 SWAP2 POP POP JUMP JUMPDEST PUSH2 0x439F DUP1 PUSH3 0x2E2 PUSH1 0x0 CODECOPY PUSH1 0x0 RETURN INVALID PUSH1 0x80 PUSH1 0x40 MSTORE PUSH1 0x4 CALLDATASIZE LT PUSH2 0xFE JUMPI PUSH1 0x0 CALLDATALOAD PUSH1 0xE0 SHR DUP1 PUSH4 0x8DF61325 GT PUSH2 0x95 JUMPI DUP1 PUSH4 0xB67F82DC GT PUSH2 0x64 JUMPI DUP1 PUSH4 0xB67F82DC EQ PUSH2 0x301 JUMPI DUP1 PUSH4 0xBE27C3FE EQ PUSH2 0x32A JUMPI DUP1 PUSH4 0xBEA7D6AC EQ PUSH2 0x355 JUMPI DUP1 PUSH4 0xD41AB7B5 EQ PUSH2 0x392 JUMPI DUP1 PUSH4 0xF2FDE38B EQ PUSH2 0x3BB JUMPI PUSH2 0xFE JUMP JUMPDEST DUP1 PUSH4 0x8DF61325 EQ PUSH2 0x256 JUMPI DUP1 PUSH4 0x9605F505 EQ PUSH2 0x27F JUMPI DUP1 PUSH4 0x9B785DAA EQ PUSH2 0x29B JUMPI DUP1 PUSH4 0xA64AD61F EQ PUSH2 0x2C4 JUMPI PUSH2 0xFE JUMP JUMPDEST DUP1 PUSH4 0x5128EEEF GT PUSH2 0xD1 JUMPI DUP1 PUSH4 0x5128EEEF EQ PUSH2 0x1AE JUMPI DUP1 PUSH4 0x5CDB4CE4 EQ PUSH2 0x1D7 JUMPI DUP1 PUSH4 0x715018A6 EQ PUSH2 0x214 JUMPI DUP1 PUSH4 0x8DA5CB5B EQ PUSH2 0x22B JUMPI PUSH2 0xFE JUMP JUMPDEST DUP1 PUSH4 0x19EB4A90 EQ PUSH2 0x103 JUMPI DUP1 PUSH4 0x397E2F1A EQ PUSH2 0x131 JUMPI DUP1 PUSH4 0x3C824919 EQ PUSH2 0x15A JUMPI DUP1 PUSH4 0x46F17152 EQ PUSH2 0x183 JUMPI JUMPDEST PUSH1 0x0 DUP1 REVERT JUMPDEST CALLVALUE DUP1 ISZERO PUSH2 0x10F JUMPI PUSH1 0x0 DUP1 REVERT JUMPDEST POP PUSH2 0x118 PUSH2 0x3E4 JUMP JUMPDEST PUSH1 0x40 MLOAD PUSH2 0x128 SWAP5 SWAP4 SWAP3 SWAP2 SWAP1 PUSH2 0x2B01 JUMP JUMPDEST PUSH1 0x40 MLOAD DUP1 SWAP2 SUB SWAP1 RETURN JUMPDEST CALLVALUE DUP1 ISZERO PUSH2 0x13D JUMPI PUSH1 0x0 DUP1 REVERT JUMPDEST POP PUSH2 0x158 PUSH1 0x4 DUP1 CALLDATASIZE SUB DUP2 ADD SWAP1 PUSH2 0x153 SWAP2 SWAP1 PUSH2 0x3072 JUMP JUMPDEST PUSH2 0x424 JUMP JUMPDEST STOP JUMPDEST CALLVALUE DUP1 ISZERO PUSH2 0x166 JUMPI PUSH1 0x0 DUP1 REVERT JUMPDEST POP PUSH2 0x181 PUSH1 0x4 DUP1 CALLDATASIZE SUB DUP2 ADD SWAP1 PUSH2 0x17C SWAP2 SWAP1 PUSH2 0x3125 JUMP JUMPDEST PUSH2 0x1150 JUMP JUMPDEST STOP JUMPDEST CALLVALUE DUP1 ISZERO PUSH2 0x18F JUMPI PUSH1 0x0 DUP1 REVERT JUMPDEST POP PUSH2 0x198 PUSH2 0x1C66 JUMP JUMPDEST PUSH1 0x40 MLOAD PUSH2 0x1A5 SWAP2 SWAP1 PUSH2 0x31A0 JUMP JUMPDEST PUSH1 0x40 MLOAD DUP1 SWAP2 SUB SWAP1 RETURN JUMPDEST CALLVALUE DUP1 ISZERO PUSH2 0x1BA JUMPI PUSH1 0x0 DUP1 REVERT JUMPDEST POP PUSH2 0x1D5 PUSH1 0x4 DUP1 CALLDATASIZE SUB DUP2 ADD SWAP1 PUSH2 0x1D0 SWAP2 SWAP1 PUSH2 0x31BB JUMP JUMPDEST PUSH2 0x1C8C JUMP JUMPDEST STOP JUMPDEST CALLVALUE DUP1 ISZERO PUSH2 0x1E3 JUMPI PUSH1 0x0 DUP1 REVERT JUMPDEST POP PUSH2 0x1FE PUSH1 0x4 DUP1 CALLDATASIZE SUB DUP2 ADD SWAP1 PUSH2 0x1F9 SWAP2 SWAP1 PUSH2 0x31E8 JUMP JUMPDEST PUSH2 0x1C96 JUMP JUMPDEST PUSH1 0x40 MLOAD PUSH2 0x20B SWAP2 SWAP1 PUSH2 0x350D JUMP JUMPDEST PUSH1 0x40 MLOAD DUP1 SWAP2 SUB SWAP1 RETURN JUMPDEST CALLVALUE DUP1 ISZERO PUSH2 0x220 JUMPI PUSH1 0x0 DUP1 REVERT JUMPDEST POP PUSH2 0x229 PUSH2 0x218B JUMP JUMPDEST STOP JUMPDEST CALLVALUE DUP1 ISZERO PUSH2 0x237 JUMPI PUSH1 0x0 DUP1 REVERT JUMPDEST POP PUSH2 0x240 PUSH2 0x219F JUMP JUMPDEST PUSH1 0x40 MLOAD PUSH2 0x24D SWAP2 SWAP1 PUSH2 0x31A0 JUMP JUMPDEST PUSH1 0x40 MLOAD DUP1 SWAP2 SUB SWAP1 RETURN JUMPDEST CALLVALUE DUP1 ISZERO PUSH2 0x262 JUMPI PUSH1 0x0 DUP1 REVERT JUMPDEST POP PUSH2 0x27D PUSH1 0x4 DUP1 CALLDATASIZE SUB DUP2 ADD SWAP1 PUSH2 0x278 SWAP2 SWAP1 PUSH2 0x31BB JUMP JUMPDEST PUSH2 0x21C8 JUMP JUMPDEST STOP JUMPDEST PUSH2 0x299 PUSH1 0x4 DUP1 CALLDATASIZE SUB DUP2 ADD SWAP1 PUSH2 0x294 SWAP2 SWAP1 PUSH2 0x352F JUMP JUMPDEST PUSH2 0x21D2 JUMP JUMPDEST STOP JUMPDEST CALLVALUE DUP1 ISZERO PUSH2 0x2A7 JUMPI PUSH1 0x0 DUP1 REVERT JUMPDEST POP PUSH2 0x2C2 PUSH1 0x4 DUP1 CALLDATASIZE SUB DUP2 ADD SWAP1 PUSH2 0x2BD SWAP2 SWAP1 PUSH2 0x356F JUMP JUMPDEST PUSH2 0x2263 JUMP JUMPDEST STOP JUMPDEST CALLVALUE DUP1 ISZERO PUSH2 0x2D0 JUMPI PUSH1 0x0 DUP1 REVERT JUMPDEST POP PUSH2 0x2EB PUSH1 0x4 DUP1 CALLDATASIZE SUB DUP2 ADD SWAP1 PUSH2 0x2E6 SWAP2 SWAP1 PUSH2 0x31E8 JUMP JUMPDEST PUSH2 0x22A7 JUMP JUMPDEST PUSH1 0x40 MLOAD PUSH2 0x2F8 SWAP2 SWAP1 PUSH2 0x359C JUMP JUMPDEST PUSH1 0x40 MLOAD DUP1 SWAP2 SUB SWAP1 RETURN JUMPDEST CALLVALUE DUP1 ISZERO PUSH2 0x30D JUMPI PUSH1 0x0 DUP1 REVERT JUMPDEST POP PUSH2 0x328 PUSH1 0x4 DUP1 CALLDATASIZE SUB DUP2 ADD SWAP1 PUSH2 0x323 SWAP2 SWAP1 PUSH2 0x3125 JUMP JUMPDEST PUSH2 0x22FC JUMP JUMPDEST STOP JUMPDEST CALLVALUE DUP1 ISZERO PUSH2 0x336 JUMPI PUSH1 0x0 DUP1 REVERT JUMPDEST POP PUSH2 0x33F PUSH2 0x2659 JUMP JUMPDEST PUSH1 0x40 MLOAD PUSH2 0x34C SWAP2 SWAP1 PUSH2 0x3616 JUMP JUMPDEST PUSH1 0x40 MLOAD DUP1 SWAP2 SUB SWAP1 RETURN JUMPDEST CALLVALUE DUP1 ISZERO PUSH2 0x361 JUMPI PUSH1 0x0 DUP1 REVERT JUMPDEST POP PUSH2 0x37C PUSH1 0x4 DUP1 CALLDATASIZE SUB DUP2 ADD SWAP1 PUSH2 0x377 SWAP2 SWAP1 PUSH2 0x3631 JUMP JUMPDEST PUSH2 0x267F JUMP JUMPDEST PUSH1 0x40 MLOAD PUSH2 0x389 SWAP2 SWAP1 PUSH2 0x359C JUMP JUMPDEST PUSH1 0x40 MLOAD DUP1 SWAP2 SUB SWAP1 RETURN JUMPDEST CALLVALUE DUP1 ISZERO PUSH2 0x39E JUMPI PUSH1 0x0 DUP1 REVERT JUMPDEST POP PUSH2 0x3B9 PUSH1 0x4 DUP1 CALLDATASIZE SUB DUP2 ADD SWAP1 PUSH2 0x3B4 SWAP2 SWAP1 PUSH2 0x31BB JUMP JUMPDEST PUSH2 0x26C7 JUMP JUMPDEST STOP JUMPDEST CALLVALUE DUP1 ISZERO PUSH2 0x3C7 JUMPI PUSH1 0x0 DUP1 REVERT JUMPDEST POP PUSH2 0x3E2 PUSH1 0x4 DUP1 CALLDATASIZE SUB DUP2 ADD SWAP1 PUSH2 0x3DD SWAP2 SWAP1 PUSH2 0x356F JUMP JUMPDEST PUSH2 0x26D1 JUMP JUMPDEST STOP JUMPDEST PUSH1 0x0 DUP1 PUSH1 0x0 DUP1 PUSH1 0x6 PUSH1 0x0 SWAP1 SLOAD SWAP1 PUSH2 0x100 EXP SWAP1 DIV PUSH20 0xFFFFFFFFFFFFFFFFFFFFFFFFFFFFFFFFFFFFFFFF AND PUSH1 0x3 SLOAD PUSH1 0x4 SLOAD PUSH1 0x5 SLOAD SWAP4 POP SWAP4 POP SWAP4 POP SWAP4 POP SWAP1 SWAP2 SWAP3 SWAP4 JUMP JUMPDEST PUSH1 0x0 PUSH1 0x2 PUSH1 0x0 SWAP1 SLOAD SWAP1 PUSH2 0x100 EXP SWAP1 DIV PUSH20 0xFFFFFFFFFFFFFFFFFFFFFFFFFFFFFFFFFFFFFFFF AND PUSH20 0xFFFFFFFFFFFFFFFFFFFFFFFFFFFFFFFFFFFFFFFF AND PUSH4 0xF1F8C05 CALLER PUSH1 0x40 MLOAD DUP3 PUSH4 0xFFFFFFFF AND PUSH1 0xE0 SHL DUP2 MSTORE PUSH1 0x4 ADD PUSH2 0x481 SWAP2 SWAP1 PUSH2 0x31A0 JUMP JUMPDEST PUSH1 0x20 PUSH1 0x40 MLOAD DUP1 DUP4 SUB DUP2 DUP7 GAS STATICCALL ISZERO DUP1 ISZERO PUSH2 0x49E JUMPI RETURNDATASIZE PUSH1 0x0 DUP1 RETURNDATACOPY RETURNDATASIZE PUSH1 0x0 REVERT JUMPDEST POP POP POP POP PUSH1 0x40 MLOAD RETURNDATASIZE PUSH1 0x1F NOT PUSH1 0x1F DUP3 ADD AND DUP3 ADD DUP1 PUSH1 0x40 MSTORE POP DUP2 ADD SWAP1 PUSH2 0x4C2 SWAP2 SWAP1 PUSH2 0x3699 JUMP JUMPDEST SWAP1 POP PUSH1 0x0 PUSH1 0x2 PUSH1 0x0 SWAP1 SLOAD SWAP1 PUSH2 0x100 EXP SWAP1 DIV PUSH20 0xFFFFFFFFFFFFFFFFFFFFFFFFFFFFFFFFFFFFFFFF AND PUSH20 0xFFFFFFFFFFFFFFFFFFFFFFFFFFFFFFFFFFFFFFFF AND PUSH4 0x15B79630 CALLER PUSH1 0x40 MLOAD DUP3 PUSH4 0xFFFFFFFF AND PUSH1 0xE0 SHL DUP2 MSTORE PUSH1 0x4 ADD PUSH2 0x521 SWAP2 SWAP1 PUSH2 0x31A0 JUMP JUMPDEST PUSH1 0x20 PUSH1 0x40 MLOAD DUP1 DUP4 SUB DUP2 DUP7 GAS STATICCALL ISZERO DUP1 ISZERO PUSH2 0x53E JUMPI RETURNDATASIZE PUSH1 0x0 DUP1 RETURNDATACOPY RETURNDATASIZE PUSH1 0x0 REVERT JUMPDEST POP POP POP POP PUSH1 0x40 MLOAD RETURNDATASIZE PUSH1 0x1F NOT PUSH1 0x1F DUP3 ADD AND DUP3 ADD DUP1 PUSH1 0x40 MSTORE POP DUP2 ADD SWAP1 PUSH2 0x562 SWAP2 SWAP1 PUSH2 0x3699 JUMP JUMPDEST SWAP1 POP DUP2 PUSH2 0x5A4 JUMPI PUSH1 0x40 MLOAD PUSH32 0x8C379A000000000000000000000000000000000000000000000000000000000 DUP2 MSTORE PUSH1 0x4 ADD PUSH2 0x59B SWAP1 PUSH2 0x3723 JUMP JUMPDEST PUSH1 0x40 MLOAD DUP1 SWAP2 SUB SWAP1 REVERT JUMPDEST DUP1 PUSH2 0x5E4 JUMPI PUSH1 0x40 MLOAD PUSH32 0x8C379A000000000000000000000000000000000000000000000000000000000 DUP2 MSTORE PUSH1 0x4 ADD PUSH2 0x5DB SWAP1 PUSH2 0x378F JUMP JUMPDEST PUSH1 0x40 MLOAD DUP1 SWAP2 SUB SWAP1 REVERT JUMPDEST PUSH1 0x0 PUSH1 0x2 PUSH1 0x0 SWAP1 SLOAD SWAP1 PUSH2 0x100 EXP SWAP1 DIV PUSH20 0xFFFFFFFFFFFFFFFFFFFFFFFFFFFFFFFFFFFFFFFF AND PUSH20 0xFFFFFFFFFFFFFFFFFFFFFFFFFFFFFFFFFFFFFFFF AND PUSH4 0x20E4AB6A CALLER PUSH1 0x40 MLOAD DUP3 PUSH4 0xFFFFFFFF AND PUSH1 0xE0 SHL DUP2 MSTORE PUSH1 0x4 ADD PUSH2 0x641 SWAP2 SWAP1 PUSH2 0x31A0 JUMP JUMPDEST PUSH1 0x0 PUSH1 0x40 MLOAD DUP1 DUP4 SUB DUP2 DUP7 GAS STATICCALL ISZERO DUP1 ISZERO PUSH2 0x65E JUMPI RETURNDATASIZE PUSH1 0x0 DUP1 RETURNDATACOPY RETURNDATASIZE PUSH1 0x0 REVERT JUMPDEST POP POP POP POP PUSH1 0x40 MLOAD RETURNDATASIZE PUSH1 0x0 DUP3 RETURNDATACOPY RETURNDATASIZE PUSH1 0x1F NOT PUSH1 0x1F DUP3 ADD AND DUP3 ADD DUP1 PUSH1 0x40 MSTORE POP DUP2 ADD SWAP1 PUSH2 0x687 SWAP2 SWAP1 PUSH2 0x385B JUMP JUMPDEST SWAP1 POP PUSH1 0x0 DUP1 PUSH1 0x0 SWAP1 POP JUMPDEST DUP6 MLOAD DUP2 LT ISZERO PUSH2 0x7E4 JUMPI PUSH1 0x0 JUMPDEST DUP7 DUP3 DUP2 MLOAD DUP2 LT PUSH2 0x6B0 JUMPI PUSH2 0x6AF PUSH2 0x38A4 JUMP JUMPDEST JUMPDEST PUSH1 0x20 MUL PUSH1 0x20 ADD ADD MLOAD PUSH1 0x20 ADD MLOAD MLOAD DUP2 LT ISZERO PUSH2 0x7D0 JUMPI PUSH1 0x0 SWAP3 POP PUSH1 0x0 JUMPDEST DUP5 MLOAD DUP2 LT ISZERO PUSH2 0x775 JUMPI DUP5 DUP2 DUP2 MLOAD DUP2 LT PUSH2 0x6E7 JUMPI PUSH2 0x6E6 PUSH2 0x38A4 JUMP JUMPDEST JUMPDEST PUSH1 0x20 MUL PUSH1 0x20 ADD ADD MLOAD PUSH20 0xFFFFFFFFFFFFFFFFFFFFFFFFFFFFFFFFFFFFFFFF AND DUP9 DUP5 DUP2 MLOAD DUP2 LT PUSH2 0x718 JUMPI PUSH2 0x717 PUSH2 0x38A4 JUMP JUMPDEST JUMPDEST PUSH1 0x20 MUL PUSH1 0x20 ADD ADD MLOAD PUSH1 0x20 ADD MLOAD DUP4 DUP2 MLOAD DUP2 LT PUSH2 0x736 JUMPI PUSH2 0x735 PUSH2 0x38A4 JUMP JUMPDEST JUMPDEST PUSH1 0x20 MUL PUSH1 0x20 ADD ADD MLOAD PUSH20 0xFFFFFFFFFFFFFFFFFFFFFFFFFFFFFFFFFFFFFFFF AND SUB PUSH2 0x762 JUMPI PUSH1 0x1 SWAP4 POP PUSH2 0x775 JUMP JUMPDEST DUP1 DUP1 PUSH2 0x76D SWAP1 PUSH2 0x3902 JUMP JUMPDEST SWAP2 POP POP PUSH2 0x6CB JUMP JUMPDEST POP PUSH1 0x0 ISZERO ISZERO DUP4 ISZERO ISZERO SUB PUSH2 0x7BD JUMPI PUSH1 0x40 MLOAD PUSH32 0x8C379A000000000000000000000000000000000000000000000000000000000 DUP2 MSTORE PUSH1 0x4 ADD PUSH2 0x7B4 SWAP1 PUSH2 0x39BC JUMP JUMPDEST PUSH1 0x40 MLOAD DUP1 SWAP2 SUB SWAP1 REVERT JUMPDEST DUP1 DUP1 PUSH2 0x7C8 SWAP1 PUSH2 0x3902 JUMP JUMPDEST SWAP2 POP POP PUSH2 0x69D JUMP JUMPDEST POP DUP1 DUP1 PUSH2 0x7DC SWAP1 PUSH2 0x3902 JUMP JUMPDEST SWAP2 POP POP PUSH2 0x691 JUMP JUMPDEST POP PUSH1 0x0 PUSH1 0x2 PUSH1 0x0 SWAP1 SLOAD SWAP1 PUSH2 0x100 EXP SWAP1 DIV PUSH20 0xFFFFFFFFFFFFFFFFFFFFFFFFFFFFFFFFFFFFFFFF AND PUSH20 0xFFFFFFFFFFFFFFFFFFFFFFFFFFFFFFFFFFFFFFFF AND PUSH4 0xDE508C5B CALLER DUP13 PUSH1 0x40 MLOAD DUP4 PUSH4 0xFFFFFFFF AND PUSH1 0xE0 SHL DUP2 MSTORE PUSH1 0x4 ADD PUSH2 0x844 SWAP3 SWAP2 SWAP1 PUSH2 0x39DC JUMP JUMPDEST PUSH1 0x0 PUSH1 0x40 MLOAD DUP1 DUP4 SUB DUP2 DUP7 GAS STATICCALL ISZERO DUP1 ISZERO PUSH2 0x861 JUMPI RETURNDATASIZE PUSH1 0x0 DUP1 RETURNDATACOPY RETURNDATASIZE PUSH1 0x0 REVERT JUMPDEST POP POP POP POP PUSH1 0x40 MLOAD RETURNDATASIZE PUSH1 0x0 DUP3 RETURNDATACOPY RETURNDATASIZE PUSH1 0x1F NOT PUSH1 0x1F DUP3 ADD AND DUP3 ADD DUP1 PUSH1 0x40 MSTORE POP DUP2 ADD SWAP1 PUSH2 0x88A SWAP2 SWAP1 PUSH2 0x3AB4 JUMP JUMPDEST SWAP1 SWAP2 SWAP3 SWAP4 SWAP5 POP SWAP1 SWAP2 SWAP3 SWAP4 POP SWAP1 SWAP2 SWAP3 POP SWAP1 SWAP2 POP SWAP1 POP DUP1 SWAP2 POP POP PUSH1 0x0 DUP1 PUSH1 0x0 SWAP1 POP JUMPDEST DUP8 MLOAD DUP2 LT ISZERO PUSH2 0x8F2 JUMPI DUP8 DUP2 DUP2 MLOAD DUP2 LT PUSH2 0x8C6 JUMPI PUSH2 0x8C5 PUSH2 0x38A4 JUMP JUMPDEST JUMPDEST PUSH1 0x20 MUL PUSH1 0x20 ADD ADD MLOAD PUSH1 0x0 ADD MLOAD DUP3 PUSH2 0x8DD SWAP2 SWAP1 PUSH2 0x3B5D JUMP JUMPDEST SWAP2 POP DUP1 DUP1 PUSH2 0x8EA SWAP1 PUSH2 0x3902 JUMP JUMPDEST SWAP2 POP POP PUSH2 0x8AA JUMP JUMPDEST POP PUSH1 0x64 DUP2 GT ISZERO PUSH2 0x937 JUMPI PUSH1 0x40 MLOAD PUSH32 0x8C379A000000000000000000000000000000000000000000000000000000000 DUP2 MSTORE PUSH1 0x4 ADD PUSH2 0x92E SWAP1 PUSH2 0x3BDD JUMP JUMPDEST PUSH1 0x40 MLOAD DUP1 SWAP2 SUB SWAP1 REVERT JUMPDEST DUP2 PUSH2 0x9D4 JUMPI PUSH1 0x2 PUSH1 0x0 SWAP1 SLOAD SWAP1 PUSH2 0x100 EXP SWAP1 DIV PUSH20 0xFFFFFFFFFFFFFFFFFFFFFFFFFFFFFFFFFFFFFFFF AND PUSH20 0xFFFFFFFFFFFFFFFFFFFFFFFFFFFFFFFFFFFFFFFF AND PUSH4 0x25CB763A CALLER DUP14 DUP14 DUP14 DUP7 DUP15 PUSH1 0x40 MLOAD DUP8 PUSH4 0xFFFFFFFF AND PUSH1 0xE0 SHL DUP2 MSTORE PUSH1 0x4 ADD PUSH2 0x9A1 SWAP7 SWAP6 SWAP5 SWAP4 SWAP3 SWAP2 SWAP1 PUSH2 0x3C41 JUMP JUMPDEST PUSH1 0x0 PUSH1 0x40 MLOAD DUP1 DUP4 SUB DUP2 PUSH1 0x0 DUP8 DUP1 EXTCODESIZE ISZERO DUP1 ISZERO PUSH2 0x9BB JUMPI PUSH1 0x0 DUP1 REVERT JUMPDEST POP GAS CALL ISZERO DUP1 ISZERO PUSH2 0x9CF JUMPI RETURNDATASIZE PUSH1 0x0 DUP1 RETURNDATACOPY RETURNDATASIZE PUSH1 0x0 REVERT JUMPDEST POP POP POP POP JUMPDEST DUP2 ISZERO PUSH2 0xB5F JUMPI PUSH1 0x0 PUSH1 0x6 PUSH1 0x0 SWAP1 SLOAD SWAP1 PUSH2 0x100 EXP SWAP1 DIV PUSH20 0xFFFFFFFFFFFFFFFFFFFFFFFFFFFFFFFFFFFFFFFF AND SWAP1 POP PUSH1 0x0 DUP11 SUB PUSH2 0xA91 JUMPI DUP1 PUSH20 0xFFFFFFFFFFFFFFFFFFFFFFFFFFFFFFFFFFFFFFFF AND PUSH4 0x23B872DD CALLER ADDRESS PUSH1 0x3 SLOAD PUSH1 0x40 MLOAD DUP5 PUSH4 0xFFFFFFFF AND PUSH1 0xE0 SHL DUP2 MSTORE PUSH1 0x4 ADD PUSH2 0xA48 SWAP4 SWAP3 SWAP2 SWAP1 PUSH2 0x3CA9 JUMP JUMPDEST PUSH1 0x20 PUSH1 0x40 MLOAD DUP1 DUP4 SUB DUP2 PUSH1 0x0 DUP8 GAS CALL ISZERO DUP1 ISZERO PUSH2 0xA67 JUMPI RETURNDATASIZE PUSH1 0x0 DUP1 RETURNDATACOPY RETURNDATASIZE PUSH1 0x0 REVERT JUMPDEST POP POP POP POP PUSH1 0x40 MLOAD RETURNDATASIZE PUSH1 0x1F NOT PUSH1 0x1F DUP3 ADD AND DUP3 ADD DUP1 PUSH1 0x40 MSTORE POP DUP2 ADD SWAP1 PUSH2 0xA8B SWAP2 SWAP1 PUSH2 0x3699 JUMP JUMPDEST POP PUSH2 0xB5D JUMP JUMPDEST PUSH1 0x1 DUP11 SUB PUSH2 0xB21 JUMPI DUP1 PUSH20 0xFFFFFFFFFFFFFFFFFFFFFFFFFFFFFFFFFFFFFFFF AND PUSH4 0x23B872DD CALLER ADDRESS PUSH1 0x4 SLOAD PUSH1 0x40 MLOAD DUP5 PUSH4 0xFFFFFFFF AND PUSH1 0xE0 SHL DUP2 MSTORE PUSH1 0x4 ADD PUSH2 0xAD8 SWAP4 SWAP3 SWAP2 SWAP1 PUSH2 0x3CA9 JUMP JUMPDEST PUSH1 0x20 PUSH1 0x40 MLOAD DUP1 DUP4 SUB DUP2 PUSH1 0x0 DUP8 GAS CALL ISZERO DUP1 ISZERO PUSH2 0xAF7 JUMPI RETURNDATASIZE PUSH1 0x0 DUP1 RETURNDATACOPY RETURNDATASIZE PUSH1 0x0 REVERT JUMPDEST POP POP POP POP PUSH1 0x40 MLOAD RETURNDATASIZE PUSH1 0x1F NOT PUSH1 0x1F DUP3 ADD AND DUP3 ADD DUP1 PUSH1 0x40 MSTORE POP DUP2 ADD SWAP1 PUSH2 0xB1B SWAP2 SWAP1 PUSH2 0x3699 JUMP JUMPDEST POP PUSH2 0xB5C JUMP JUMPDEST PUSH1 0x40 MLOAD PUSH32 0x8C379A000000000000000000000000000000000000000000000000000000000 DUP2 MSTORE PUSH1 0x4 ADD PUSH2 0xB53 SWAP1 PUSH2 0x3D52 JUMP JUMPDEST PUSH1 0x40 MLOAD DUP1 SWAP2 SUB SWAP1 REVERT JUMPDEST JUMPDEST POP JUMPDEST PUSH1 0x0 DUP1 DUP11 SUB PUSH2 0xC81 JUMPI PUSH1 0x7 PUSH1 0x0 CALLER PUSH20 0xFFFFFFFFFFFFFFFFFFFFFFFFFFFFFFFFFFFFFFFF AND PUSH20 0xFFFFFFFFFFFFFFFFFFFFFFFFFFFFFFFFFFFFFFFF AND DUP2 MSTORE PUSH1 0x20 ADD SWAP1 DUP2 MSTORE PUSH1 0x20 ADD PUSH1 0x0 KECCAK256 PUSH1 0x0 DUP14 PUSH20 0xFFFFFFFFFFFFFFFFFFFFFFFFFFFFFFFFFFFFFFFF AND PUSH20 0xFFFFFFFFFFFFFFFFFFFFFFFFFFFFFFFFFFFFFFFF AND DUP2 MSTORE PUSH1 0x20 ADD SWAP1 DUP2 MSTORE PUSH1 0x20 ADD PUSH1 0x0 KECCAK256 DUP1 SLOAD SWAP1 POP SWAP1 POP PUSH1 0x0 DUP2 GT ISZERO PUSH2 0xC7C JUMPI PUSH1 0x7 PUSH1 0x0 CALLER PUSH20 0xFFFFFFFFFFFFFFFFFFFFFFFFFFFFFFFFFFFFFFFF AND PUSH20 0xFFFFFFFFFFFFFFFFFFFFFFFFFFFFFFFFFFFFFFFF AND DUP2 MSTORE PUSH1 0x20 ADD SWAP1 DUP2 MSTORE PUSH1 0x20 ADD PUSH1 0x0 KECCAK256 PUSH1 0x0 DUP14 PUSH20 0xFFFFFFFFFFFFFFFFFFFFFFFFFFFFFFFFFFFFFFFF AND PUSH20 0xFFFFFFFFFFFFFFFFFFFFFFFFFFFFFFFFFFFFFFFF AND DUP2 MSTORE PUSH1 0x20 ADD SWAP1 DUP2 MSTORE PUSH1 0x20 ADD PUSH1 0x0 KECCAK256 PUSH1 0x0 PUSH2 0xC7B SWAP2 SWAP1 PUSH2 0x289E JUMP JUMPDEST JUMPDEST PUSH2 0xDB8 JUMP JUMPDEST PUSH1 0x8 PUSH1 0x0 CALLER PUSH20 0xFFFFFFFFFFFFFFFFFFFFFFFFFFFFFFFFFFFFFFFF AND PUSH20 0xFFFFFFFFFFFFFFFFFFFFFFFFFFFFFFFFFFFFFFFF AND DUP2 MSTORE PUSH1 0x20 ADD SWAP1 DUP2 MSTORE PUSH1 0x20 ADD PUSH1 0x0 KECCAK256 PUSH1 0x0 DUP14 PUSH20 0xFFFFFFFFFFFFFFFFFFFFFFFFFFFFFFFFFFFFFFFF AND PUSH20 0xFFFFFFFFFFFFFFFFFFFFFFFFFFFFFFFFFFFFFFFF AND DUP2 MSTORE PUSH1 0x20 ADD SWAP1 DUP2 MSTORE PUSH1 0x20 ADD PUSH1 0x0 KECCAK256 PUSH1 0x0 DUP11 DUP2 MSTORE PUSH1 0x20 ADD SWAP1 DUP2 MSTORE PUSH1 0x20 ADD PUSH1 0x0 KECCAK256 DUP1 SLOAD SWAP1 POP SWAP1 POP PUSH1 0x0 DUP2 GT ISZERO PUSH2 0xDB7 JUMPI PUSH1 0x8 PUSH1 0x0 CALLER PUSH20 0xFFFFFFFFFFFFFFFFFFFFFFFFFFFFFFFFFFFFFFFF AND PUSH20 0xFFFFFFFFFFFFFFFFFFFFFFFFFFFFFFFFFFFFFFFF AND DUP2 MSTORE PUSH1 0x20 ADD SWAP1 DUP2 MSTORE PUSH1 0x20 ADD PUSH1 0x0 KECCAK256 PUSH1 0x0 DUP14 PUSH20 0xFFFFFFFFFFFFFFFFFFFFFFFFFFFFFFFFFFFFFFFF AND PUSH20 0xFFFFFFFFFFFFFFFFFFFFFFFFFFFFFFFFFFFFFFFF AND DUP2 MSTORE PUSH1 0x20 ADD SWAP1 DUP2 MSTORE PUSH1 0x20 ADD PUSH1 0x0 KECCAK256 PUSH1 0x0 DUP11 DUP2 MSTORE PUSH1 0x20 ADD SWAP1 DUP2 MSTORE PUSH1 0x20 ADD PUSH1 0x0 KECCAK256 PUSH1 0x0 PUSH2 0xDB6 SWAP2 SWAP1 PUSH2 0x289E JUMP JUMPDEST JUMPDEST JUMPDEST PUSH1 0x2 PUSH1 0x0 SWAP1 SLOAD SWAP1 PUSH2 0x100 EXP SWAP1 DIV PUSH20 0xFFFFFFFFFFFFFFFFFFFFFFFFFFFFFFFFFFFFFFFF AND PUSH20 0xFFFFFFFFFFFFFFFFFFFFFFFFFFFFFFFFFFFFFFFF AND PUSH4 0xB69BD77F CALLER DUP15 DUP13 DUP7 DUP16 PUSH1 0x40 MLOAD DUP7 PUSH4 0xFFFFFFFF AND PUSH1 0xE0 SHL DUP2 MSTORE PUSH1 0x4 ADD PUSH2 0xE1B SWAP6 SWAP5 SWAP4 SWAP3 SWAP2 SWAP1 PUSH2 0x3D72 JUMP JUMPDEST PUSH1 0x0 PUSH1 0x40 MLOAD DUP1 DUP4 SUB DUP2 PUSH1 0x0 DUP8 DUP1 EXTCODESIZE ISZERO DUP1 ISZERO PUSH2 0xE35 JUMPI PUSH1 0x0 DUP1 REVERT JUMPDEST POP GAS CALL ISZERO DUP1 ISZERO PUSH2 0xE49 JUMPI RETURNDATASIZE PUSH1 0x0 DUP1 RETURNDATACOPY RETURNDATASIZE PUSH1 0x0 REVERT JUMPDEST POP POP POP POP PUSH1 0x0 DUP11 SUB PUSH2 0xF9D JUMPI PUSH1 0x0 JUMPDEST DUP9 MLOAD DUP2 LT ISZERO PUSH2 0xF97 JUMPI PUSH1 0x7 PUSH1 0x0 CALLER PUSH20 0xFFFFFFFFFFFFFFFFFFFFFFFFFFFFFFFFFFFFFFFF AND PUSH20 0xFFFFFFFFFFFFFFFFFFFFFFFFFFFFFFFFFFFFFFFF AND DUP2 MSTORE PUSH1 0x20 ADD SWAP1 DUP2 MSTORE PUSH1 0x20 ADD PUSH1 0x0 KECCAK256 PUSH1 0x0 DUP15 PUSH20 0xFFFFFFFFFFFFFFFFFFFFFFFFFFFFFFFFFFFFFFFF AND PUSH20 0xFFFFFFFFFFFFFFFFFFFFFFFFFFFFFFFFFFFFFFFF AND DUP2 MSTORE PUSH1 0x20 ADD SWAP1 DUP2 MSTORE PUSH1 0x20 ADD PUSH1 0x0 KECCAK256 DUP10 DUP3 DUP2 MLOAD DUP2 LT PUSH2 0xEF0 JUMPI PUSH2 0xEEF PUSH2 0x38A4 JUMP JUMPDEST JUMPDEST PUSH1 0x20 MUL PUSH1 0x20 ADD ADD MLOAD SWAP1 DUP1 PUSH1 0x1 DUP2 SLOAD ADD DUP1 DUP3 SSTORE DUP1 SWAP2 POP POP PUSH1 0x1 SWAP1 SUB SWAP1 PUSH1 0x0 MSTORE PUSH1 0x20 PUSH1 0x0 KECCAK256 SWAP1 PUSH1 0x4 MUL ADD PUSH1 0x0 SWAP1 SWAP2 SWAP1 SWAP2 SWAP1 SWAP2 POP PUSH1 0x0 DUP3 ADD MLOAD DUP2 PUSH1 0x0 ADD SSTORE PUSH1 0x20 DUP3 ADD MLOAD DUP2 PUSH1 0x1 ADD SWAP1 DUP1 MLOAD SWAP1 PUSH1 0x20 ADD SWAP1 PUSH2 0xF47 SWAP3 SWAP2 SWAP1 PUSH2 0x28C2 JUMP JUMPDEST POP PUSH1 0x40 DUP3 ADD MLOAD DUP2 PUSH1 0x2 ADD SWAP1 DUP1 MLOAD SWAP1 PUSH1 0x20 ADD SWAP1 PUSH2 0xF64 SWAP3 SWAP2 SWAP1 PUSH2 0x294C JUMP JUMPDEST POP PUSH1 0x60 DUP3 ADD MLOAD DUP2 PUSH1 0x3 ADD SWAP1 DUP1 MLOAD SWAP1 PUSH1 0x20 ADD SWAP1 PUSH2 0xF81 SWAP3 SWAP2 SWAP1 PUSH2 0x294C JUMP JUMPDEST POP POP POP DUP1 DUP1 PUSH2 0xF8F SWAP1 PUSH2 0x3902 JUMP JUMPDEST SWAP2 POP POP PUSH2 0xE58 JUMP JUMPDEST POP PUSH2 0x10F2 JUMP JUMPDEST PUSH1 0x0 JUMPDEST DUP9 MLOAD DUP2 LT ISZERO PUSH2 0x10F0 JUMPI PUSH1 0x8 PUSH1 0x0 CALLER PUSH20 0xFFFFFFFFFFFFFFFFFFFFFFFFFFFFFFFFFFFFFFFF AND PUSH20 0xFFFFFFFFFFFFFFFFFFFFFFFFFFFFFFFFFFFFFFFF AND DUP2 MSTORE PUSH1 0x20 ADD SWAP1 DUP2 MSTORE PUSH1 0x20 ADD PUSH1 0x0 KECCAK256 PUSH1 0x0 DUP15 PUSH20 0xFFFFFFFFFFFFFFFFFFFFFFFFFFFFFFFFFFFFFFFF AND PUSH20 0xFFFFFFFFFFFFFFFFFFFFFFFFFFFFFFFFFFFFFFFF AND DUP2 MSTORE PUSH1 0x20 ADD SWAP1 DUP2 MSTORE PUSH1 0x20 ADD PUSH1 0x0 KECCAK256 PUSH1 0x0 DUP12 DUP2 MSTORE PUSH1 0x20 ADD SWAP1 DUP2 MSTORE PUSH1 0x20 ADD PUSH1 0x0 KECCAK256 DUP10 DUP3 DUP2 MLOAD DUP2 LT PUSH2 0x1049 JUMPI PUSH2 0x1048 PUSH2 0x38A4 JUMP JUMPDEST JUMPDEST PUSH1 0x20 MUL PUSH1 0x20 ADD ADD MLOAD SWAP1 DUP1 PUSH1 0x1 DUP2 SLOAD ADD DUP1 DUP3 SSTORE DUP1 SWAP2 POP POP PUSH1 0x1 SWAP1 SUB SWAP1 PUSH1 0x0 MSTORE PUSH1 0x20 PUSH1 0x0 KECCAK256 SWAP1 PUSH1 0x4 MUL ADD PUSH1 0x0 SWAP1 SWAP2 SWAP1 SWAP2 SWAP1 SWAP2 POP PUSH1 0x0 DUP3 ADD MLOAD DUP2 PUSH1 0x0 ADD SSTORE PUSH1 0x20 DUP3 ADD MLOAD DUP2 PUSH1 0x1 ADD SWAP1 DUP1 MLOAD SWAP1 PUSH1 0x20 ADD SWAP1 PUSH2 0x10A0 SWAP3 SWAP2 SWAP1 PUSH2 0x28C2 JUMP JUMPDEST POP PUSH1 0x40 DUP3 ADD MLOAD DUP2 PUSH1 0x2 ADD SWAP1 DUP1 MLOAD SWAP1 PUSH1 0x20 ADD SWAP1 PUSH2 0x10BD SWAP3 SWAP2 SWAP1 PUSH2 0x294C JUMP JUMPDEST POP PUSH1 0x60 DUP3 ADD MLOAD DUP2 PUSH1 0x3 ADD SWAP1 DUP1 MLOAD SWAP1 PUSH1 0x20 ADD SWAP1 PUSH2 0x10DA SWAP3 SWAP2 SWAP1 PUSH2 0x294C JUMP JUMPDEST POP POP POP DUP1 DUP1 PUSH2 0x10E8 SWAP1 PUSH2 0x3902 JUMP JUMPDEST SWAP2 POP POP PUSH2 0xFA0 JUMP JUMPDEST POP JUMPDEST CALLER PUSH20 0xFFFFFFFFFFFFFFFFFFFFFFFFFFFFFFFFFFFFFFFF AND PUSH32 0x82A2341A42C146A8B1818F7E04FE56BE41F008D10C140CF4FE8B4EF801628EA1 DUP14 DUP12 PUSH1 0x40 MLOAD PUSH2 0x113A SWAP3 SWAP2 SWAP1 PUSH2 0x3DC5 JUMP JUMPDEST PUSH1 0x40 MLOAD DUP1 SWAP2 SUB SWAP1 LOG2 POP POP POP POP POP POP POP POP POP POP POP POP JUMP JUMPDEST PUSH1 0x0 PUSH1 0x2 PUSH1 0x0 SWAP1 SLOAD SWAP1 PUSH2 0x100 EXP SWAP1 DIV PUSH20 0xFFFFFFFFFFFFFFFFFFFFFFFFFFFFFFFFFFFFFFFF AND PUSH20 0xFFFFFFFFFFFFFFFFFFFFFFFFFFFFFFFFFFFFFFFF AND PUSH4 0x20E4AB6A DUP8 PUSH1 0x40 MLOAD DUP3 PUSH4 0xFFFFFFFF AND PUSH1 0xE0 SHL DUP2 MSTORE PUSH1 0x4 ADD PUSH2 0x11AD SWAP2 SWAP1 PUSH2 0x31A0 JUMP JUMPDEST PUSH1 0x0 PUSH1 0x40 MLOAD DUP1 DUP4 SUB DUP2 DUP7 GAS STATICCALL ISZERO DUP1 ISZERO PUSH2 0x11CA JUMPI RETURNDATASIZE PUSH1 0x0 DUP1 RETURNDATACOPY RETURNDATASIZE PUSH1 0x0 REVERT JUMPDEST POP POP POP POP PUSH1 0x40 MLOAD RETURNDATASIZE PUSH1 0x0 DUP3 RETURNDATACOPY RETURNDATASIZE PUSH1 0x1F NOT PUSH1 0x1F DUP3 ADD AND DUP3 ADD DUP1 PUSH1 0x40 MSTORE POP DUP2 ADD SWAP1 PUSH2 0x11F3 SWAP2 SWAP1 PUSH2 0x385B JUMP JUMPDEST SWAP1 POP PUSH1 0x0 DUP1 PUSH1 0x0 SWAP1 POP JUMPDEST DUP3 MLOAD DUP2 LT ISZERO PUSH2 0x1C5C JUMPI CALLER PUSH20 0xFFFFFFFFFFFFFFFFFFFFFFFFFFFFFFFFFFFFFFFF AND DUP4 DUP3 DUP2 MLOAD DUP2 LT PUSH2 0x1230 JUMPI PUSH2 0x122F PUSH2 0x38A4 JUMP JUMPDEST JUMPDEST PUSH1 0x20 MUL PUSH1 0x20 ADD ADD MLOAD PUSH20 0xFFFFFFFFFFFFFFFFFFFFFFFFFFFFFFFFFFFFFFFF AND SUB PUSH2 0x1BCB JUMPI PUSH1 0x0 JUMPDEST PUSH1 0x7 PUSH1 0x0 DUP11 PUSH20 0xFFFFFFFFFFFFFFFFFFFFFFFFFFFFFFFFFFFFFFFF AND PUSH20 0xFFFFFFFFFFFFFFFFFFFFFFFFFFFFFFFFFFFFFFFF AND DUP2 MSTORE PUSH1 0x20 ADD SWAP1 DUP2 MSTORE PUSH1 0x20 ADD PUSH1 0x0 KECCAK256 PUSH1 0x0 DUP10 PUSH20 0xFFFFFFFFFFFFFFFFFFFFFFFFFFFFFFFFFFFFFFFF AND PUSH20 0xFFFFFFFFFFFFFFFFFFFFFFFFFFFFFFFFFFFFFFFF AND DUP2 MSTORE PUSH1 0x20 ADD SWAP1 DUP2 MSTORE PUSH1 0x20 ADD PUSH1 0x0 KECCAK256 DUP1 SLOAD SWAP1 POP DUP2 LT ISZERO PUSH2 0x165C JUMPI PUSH1 0x0 JUMPDEST PUSH1 0x7 PUSH1 0x0 DUP12 PUSH20 0xFFFFFFFFFFFFFFFFFFFFFFFFFFFFFFFFFFFFFFFF AND PUSH20 0xFFFFFFFFFFFFFFFFFFFFFFFFFFFFFFFFFFFFFFFF AND DUP2 MSTORE PUSH1 0x20 ADD SWAP1 DUP2 MSTORE PUSH1 0x20 ADD PUSH1 0x0 KECCAK256 PUSH1 0x0 DUP11 PUSH20 0xFFFFFFFFFFFFFFFFFFFFFFFFFFFFFFFFFFFFFFFF AND PUSH20 0xFFFFFFFFFFFFFFFFFFFFFFFFFFFFFFFFFFFFFFFF AND DUP2 MSTORE PUSH1 0x20 ADD SWAP1 DUP2 MSTORE PUSH1 0x20 ADD PUSH1 0x0 KECCAK256 DUP3 DUP2 SLOAD DUP2 LT PUSH2 0x136E JUMPI PUSH2 0x136D PUSH2 0x38A4 JUMP JUMPDEST JUMPDEST SWAP1 PUSH1 0x0 MSTORE PUSH1 0x20 PUSH1 0x0 KECCAK256 SWAP1 PUSH1 0x4 MUL ADD PUSH1 0x1 ADD DUP1 SLOAD SWAP1 POP DUP2 LT ISZERO PUSH2 0x1648 JUMPI DUP5 DUP4 DUP2 MLOAD DUP2 LT PUSH2 0x139D JUMPI PUSH2 0x139C PUSH2 0x38A4 JUMP JUMPDEST JUMPDEST PUSH1 0x20 MUL PUSH1 0x20 ADD ADD MLOAD PUSH20 0xFFFFFFFFFFFFFFFFFFFFFFFFFFFFFFFFFFFFFFFF AND PUSH1 0x7 PUSH1 0x0 DUP13 PUSH20 0xFFFFFFFFFFFFFFFFFFFFFFFFFFFFFFFFFFFFFFFF AND PUSH20 0xFFFFFFFFFFFFFFFFFFFFFFFFFFFFFFFFFFFFFFFF AND DUP2 MSTORE PUSH1 0x20 ADD SWAP1 DUP2 MSTORE PUSH1 0x20 ADD PUSH1 0x0 KECCAK256 PUSH1 0x0 DUP12 PUSH20 0xFFFFFFFFFFFFFFFFFFFFFFFFFFFFFFFFFFFFFFFF AND PUSH20 0xFFFFFFFFFFFFFFFFFFFFFFFFFFFFFFFFFFFFFFFF AND DUP2 MSTORE PUSH1 0x20 ADD SWAP1 DUP2 MSTORE PUSH1 0x20 ADD PUSH1 0x0 KECCAK256 DUP4 DUP2 SLOAD DUP2 LT PUSH2 0x1449 JUMPI PUSH2 0x1448 PUSH2 0x38A4 JUMP JUMPDEST JUMPDEST SWAP1 PUSH1 0x0 MSTORE PUSH1 0x20 PUSH1 0x0 KECCAK256 SWAP1 PUSH1 0x4 MUL ADD PUSH1 0x1 ADD DUP3 DUP2 SLOAD DUP2 LT PUSH2 0x146C JUMPI PUSH2 0x146B PUSH2 0x38A4 JUMP JUMPDEST JUMPDEST SWAP1 PUSH1 0x0 MSTORE PUSH1 0x20 PUSH1 0x0 KECCAK256 ADD PUSH1 0x0 SWAP1 SLOAD SWAP1 PUSH2 0x100 EXP SWAP1 DIV PUSH20 0xFFFFFFFFFFFFFFFFFFFFFFFFFFFFFFFFFFFFFFFF AND PUSH20 0xFFFFFFFFFFFFFFFFFFFFFFFFFFFFFFFFFFFFFFFF AND SUB PUSH2 0x1635 JUMPI PUSH1 0x7 PUSH1 0x0 DUP12 PUSH20 0xFFFFFFFFFFFFFFFFFFFFFFFFFFFFFFFFFFFFFFFF AND PUSH20 0xFFFFFFFFFFFFFFFFFFFFFFFFFFFFFFFFFFFFFFFF AND DUP2 MSTORE PUSH1 0x20 ADD SWAP1 DUP2 MSTORE PUSH1 0x20 ADD PUSH1 0x0 KECCAK256 PUSH1 0x0 DUP11 PUSH20 0xFFFFFFFFFFFFFFFFFFFFFFFFFFFFFFFFFFFFFFFF AND PUSH20 0xFFFFFFFFFFFFFFFFFFFFFFFFFFFFFFFFFFFFFFFF AND DUP2 MSTORE PUSH1 0x20 ADD SWAP1 DUP2 MSTORE PUSH1 0x20 ADD PUSH1 0x0 KECCAK256 DUP3 DUP2 SLOAD DUP2 LT PUSH2 0x1540 JUMPI PUSH2 0x153F PUSH2 0x38A4 JUMP JUMPDEST JUMPDEST SWAP1 PUSH1 0x0 MSTORE PUSH1 0x20 PUSH1 0x0 KECCAK256 SWAP1 PUSH1 0x4 MUL ADD PUSH1 0x0 ADD SLOAD SWAP4 POP PUSH1 0x1 PUSH1 0x7 PUSH1 0x0 DUP13 PUSH20 0xFFFFFFFFFFFFFFFFFFFFFFFFFFFFFFFFFFFFFFFF AND PUSH20 0xFFFFFFFFFFFFFFFFFFFFFFFFFFFFFFFFFFFFFFFF AND DUP2 MSTORE PUSH1 0x20 ADD SWAP1 DUP2 MSTORE PUSH1 0x20 ADD PUSH1 0x0 KECCAK256 PUSH1 0x0 DUP12 PUSH20 0xFFFFFFFFFFFFFFFFFFFFFFFFFFFFFFFFFFFFFFFF AND PUSH20 0xFFFFFFFFFFFFFFFFFFFFFFFFFFFFFFFFFFFFFFFF AND DUP2 MSTORE PUSH1 0x20 ADD SWAP1 DUP2 MSTORE PUSH1 0x20 ADD PUSH1 0x0 KECCAK256 DUP4 DUP2 SLOAD DUP2 LT PUSH2 0x15E4 JUMPI PUSH2 0x15E3 PUSH2 0x38A4 JUMP JUMPDEST JUMPDEST SWAP1 PUSH1 0x0 MSTORE PUSH1 0x20 PUSH1 0x0 KECCAK256 SWAP1 PUSH1 0x4 MUL ADD PUSH1 0x3 ADD DUP3 DUP2 SLOAD DUP2 LT PUSH2 0x1607 JUMPI PUSH2 0x1606 PUSH2 0x38A4 JUMP JUMPDEST JUMPDEST SWAP1 PUSH1 0x0 MSTORE PUSH1 0x20 PUSH1 0x0 KECCAK256 SWAP1 PUSH1 0x20 SWAP2 DUP3 DUP3 DIV ADD SWAP2 SWAP1 MOD PUSH2 0x100 EXP DUP2 SLOAD DUP2 PUSH1 0xFF MUL NOT AND SWAP1 DUP4 ISZERO ISZERO MUL OR SWAP1 SSTORE POP PUSH2 0x1648 JUMP JUMPDEST DUP1 DUP1 PUSH2 0x1640 SWAP1 PUSH2 0x3902 JUMP JUMPDEST SWAP2 POP POP PUSH2 0x12E0 JUMP JUMPDEST POP DUP1 DUP1 PUSH2 0x1654 SWAP1 PUSH2 0x3902 JUMP JUMPDEST SWAP2 POP POP PUSH2 0x1256 JUMP JUMPDEST POP PUSH1 0x0 DUP5 SUB PUSH2 0x17AF JUMPI PUSH1 0x0 PUSH3 0xF4240 PUSH1 0x5 SLOAD DUP5 DUP9 PUSH2 0x167A SWAP2 SWAP1 PUSH2 0x3DEE JUMP JUMPDEST PUSH2 0x1684 SWAP2 SWAP1 PUSH2 0x3DEE JUMP JUMPDEST PUSH2 0x168E SWAP2 SWAP1 PUSH2 0x3E5F JUMP JUMPDEST SWAP1 POP PUSH1 0x0 DUP2 DUP8 PUSH2 0x169E SWAP2 SWAP1 PUSH2 0x3E90 JUMP JUMPDEST SWAP1 POP PUSH1 0x0 DUP10 SWAP1 POP DUP1 PUSH20 0xFFFFFFFFFFFFFFFFFFFFFFFFFFFFFFFFFFFFFFFF AND PUSH4 0x23B872DD DUP13 ADDRESS DUP7 PUSH1 0x40 MLOAD DUP5 PUSH4 0xFFFFFFFF AND PUSH1 0xE0 SHL DUP2 MSTORE PUSH1 0x4 ADD PUSH2 0x16E2 SWAP4 SWAP3 SWAP2 SWAP1 PUSH2 0x3CA9 JUMP JUMPDEST PUSH1 0x20 PUSH1 0x40 MLOAD DUP1 DUP4 SUB DUP2 PUSH1 0x0 DUP8 GAS CALL ISZERO DUP1 ISZERO PUSH2 0x1701 JUMPI RETURNDATASIZE PUSH1 0x0 DUP1 RETURNDATACOPY RETURNDATASIZE PUSH1 0x0 REVERT JUMPDEST POP POP POP POP PUSH1 0x40 MLOAD RETURNDATASIZE PUSH1 0x1F NOT PUSH1 0x1F DUP3 ADD AND DUP3 ADD DUP1 PUSH1 0x40 MSTORE POP DUP2 ADD SWAP1 PUSH2 0x1725 SWAP2 SWAP1 PUSH2 0x3699 JUMP JUMPDEST POP DUP1 PUSH20 0xFFFFFFFFFFFFFFFFFFFFFFFFFFFFFFFFFFFFFFFF AND PUSH4 0x23B872DD DUP13 CALLER DUP6 PUSH1 0x40 MLOAD DUP5 PUSH4 0xFFFFFFFF AND PUSH1 0xE0 SHL DUP2 MSTORE PUSH1 0x4 ADD PUSH2 0x1763 SWAP4 SWAP3 SWAP2 SWAP1 PUSH2 0x3CA9 JUMP JUMPDEST PUSH1 0x20 PUSH1 0x40 MLOAD DUP1 DUP4 SUB DUP2 PUSH1 0x0 DUP8 GAS CALL ISZERO DUP1 ISZERO PUSH2 0x1782 JUMPI RETURNDATASIZE PUSH1 0x0 DUP1 RETURNDATACOPY RETURNDATASIZE PUSH1 0x0 REVERT JUMPDEST POP POP POP POP PUSH1 0x40 MLOAD RETURNDATASIZE PUSH1 0x1F NOT PUSH1 0x1F DUP3 ADD AND DUP3 ADD DUP1 PUSH1 0x40 MSTORE POP DUP2 ADD SWAP1 PUSH2 0x17A6 SWAP2 SWAP1 PUSH2 0x3699 JUMP JUMPDEST POP POP POP POP PUSH2 0x1BCA JUMP JUMPDEST PUSH1 0x0 DUP7 GT ISZERO PUSH2 0x1BC9 JUMPI PUSH1 0x0 DUP8 SWAP1 POP DUP1 PUSH20 0xFFFFFFFFFFFFFFFFFFFFFFFFFFFFFFFFFFFFFFFF AND PUSH4 0x23B872DD DUP11 CALLER DUP11 PUSH1 0x40 MLOAD DUP5 PUSH4 0xFFFFFFFF AND PUSH1 0xE0 SHL DUP2 MSTORE PUSH1 0x4 ADD PUSH2 0x17FA SWAP4 SWAP3 SWAP2 SWAP1 PUSH2 0x3CA9 JUMP JUMPDEST PUSH1 0x0 PUSH1 0x40 MLOAD DUP1 DUP4 SUB DUP2 PUSH1 0x0 DUP8 DUP1 EXTCODESIZE ISZERO DUP1 ISZERO PUSH2 0x1814 JUMPI PUSH1 0x0 DUP1 REVERT JUMPDEST POP GAS CALL ISZERO DUP1 ISZERO PUSH2 0x1828 JUMPI RETURNDATASIZE PUSH1 0x0 DUP1 RETURNDATACOPY RETURNDATASIZE PUSH1 0x0 REVERT JUMPDEST POP POP POP POP PUSH1 0x0 JUMPDEST PUSH1 0x7 PUSH1 0x0 DUP12 PUSH20 0xFFFFFFFFFFFFFFFFFFFFFFFFFFFFFFFFFFFFFFFF AND PUSH20 0xFFFFFFFFFFFFFFFFFFFFFFFFFFFFFFFFFFFFFFFF AND DUP2 MSTORE PUSH1 0x20 ADD SWAP1 DUP2 MSTORE PUSH1 0x20 ADD PUSH1 0x0 KECCAK256 PUSH1 0x0 DUP11 PUSH20 0xFFFFFFFFFFFFFFFFFFFFFFFFFFFFFFFFFFFFFFFF AND PUSH20 0xFFFFFFFFFFFFFFFFFFFFFFFFFFFFFFFFFFFFFFFF AND DUP2 MSTORE PUSH1 0x20 ADD SWAP1 DUP2 MSTORE PUSH1 0x20 ADD PUSH1 0x0 KECCAK256 DUP1 SLOAD SWAP1 POP DUP2 LT ISZERO PUSH2 0x1BC6 JUMPI PUSH1 0x0 JUMPDEST PUSH1 0x8 PUSH1 0x0 DUP13 PUSH20 0xFFFFFFFFFFFFFFFFFFFFFFFFFFFFFFFFFFFFFFFF AND PUSH20 0xFFFFFFFFFFFFFFFFFFFFFFFFFFFFFFFFFFFFFFFF AND DUP2 MSTORE PUSH1 0x20 ADD SWAP1 DUP2 MSTORE PUSH1 0x20 ADD PUSH1 0x0 KECCAK256 PUSH1 0x0 DUP12 PUSH20 0xFFFFFFFFFFFFFFFFFFFFFFFFFFFFFFFFFFFFFFFF AND PUSH20 0xFFFFFFFFFFFFFFFFFFFFFFFFFFFFFFFFFFFFFFFF AND DUP2 MSTORE PUSH1 0x20 ADD SWAP1 DUP2 MSTORE PUSH1 0x20 ADD PUSH1 0x0 KECCAK256 PUSH1 0x0 DUP11 DUP2 MSTORE PUSH1 0x20 ADD SWAP1 DUP2 MSTORE PUSH1 0x20 ADD PUSH1 0x0 KECCAK256 DUP3 DUP2 SLOAD DUP2 LT PUSH2 0x1958 JUMPI PUSH2 0x1957 PUSH2 0x38A4 JUMP JUMPDEST JUMPDEST SWAP1 PUSH1 0x0 MSTORE PUSH1 0x20 PUSH1 0x0 KECCAK256 SWAP1 PUSH1 0x4 MUL ADD PUSH1 0x1 ADD DUP1 SLOAD SWAP1 POP DUP2 LT ISZERO PUSH2 0x1BB2 JUMPI DUP6 DUP5 DUP2 MLOAD DUP2 LT PUSH2 0x1987 JUMPI PUSH2 0x1986 PUSH2 0x38A4 JUMP JUMPDEST JUMPDEST PUSH1 0x20 MUL PUSH1 0x20 ADD ADD MLOAD PUSH20 0xFFFFFFFFFFFFFFFFFFFFFFFFFFFFFFFFFFFFFFFF AND PUSH1 0x8 PUSH1 0x0 DUP14 PUSH20 0xFFFFFFFFFFFFFFFFFFFFFFFFFFFFFFFFFFFFFFFF AND PUSH20 0xFFFFFFFFFFFFFFFFFFFFFFFFFFFFFFFFFFFFFFFF AND DUP2 MSTORE PUSH1 0x20 ADD SWAP1 DUP2 MSTORE PUSH1 0x20 ADD PUSH1 0x0 KECCAK256 PUSH1 0x0 DUP13 PUSH20 0xFFFFFFFFFFFFFFFFFFFFFFFFFFFFFFFFFFFFFFFF AND PUSH20 0xFFFFFFFFFFFFFFFFFFFFFFFFFFFFFFFFFFFFFFFF AND DUP2 MSTORE PUSH1 0x20 ADD SWAP1 DUP2 MSTORE PUSH1 0x20 ADD PUSH1 0x0 KECCAK256 PUSH1 0x0 DUP12 DUP2 MSTORE PUSH1 0x20 ADD SWAP1 DUP2 MSTORE PUSH1 0x20 ADD PUSH1 0x0 KECCAK256 DUP4 DUP2 SLOAD DUP2 LT PUSH2 0x1A44 JUMPI PUSH2 0x1A43 PUSH2 0x38A4 JUMP JUMPDEST JUMPDEST SWAP1 PUSH1 0x0 MSTORE PUSH1 0x20 PUSH1 0x0 KECCAK256 SWAP1 PUSH1 0x4 MUL ADD PUSH1 0x1 ADD DUP3 DUP2 SLOAD DUP2 LT PUSH2 0x1A67 JUMPI PUSH2 0x1A66 PUSH2 0x38A4 JUMP JUMPDEST JUMPDEST SWAP1 PUSH1 0x0 MSTORE PUSH1 0x20 PUSH1 0x0 KECCAK256 ADD PUSH1 0x0 SWAP1 SLOAD SWAP1 PUSH2 0x100 EXP SWAP1 DIV PUSH20 0xFFFFFFFFFFFFFFFFFFFFFFFFFFFFFFFFFFFFFFFF AND PUSH20 0xFFFFFFFFFFFFFFFFFFFFFFFFFFFFFFFFFFFFFFFF AND SUB PUSH2 0x1B9F JUMPI PUSH1 0x1 PUSH1 0x8 PUSH1 0x0 DUP14 PUSH20 0xFFFFFFFFFFFFFFFFFFFFFFFFFFFFFFFFFFFFFFFF AND PUSH20 0xFFFFFFFFFFFFFFFFFFFFFFFFFFFFFFFFFFFFFFFF AND DUP2 MSTORE PUSH1 0x20 ADD SWAP1 DUP2 MSTORE PUSH1 0x20 ADD PUSH1 0x0 KECCAK256 PUSH1 0x0 DUP13 PUSH20 0xFFFFFFFFFFFFFFFFFFFFFFFFFFFFFFFFFFFFFFFF AND PUSH20 0xFFFFFFFFFFFFFFFFFFFFFFFFFFFFFFFFFFFFFFFF AND DUP2 MSTORE PUSH1 0x20 ADD SWAP1 DUP2 MSTORE PUSH1 0x20 ADD PUSH1 0x0 KECCAK256 PUSH1 0x0 DUP12 DUP2 MSTORE PUSH1 0x20 ADD SWAP1 DUP2 MSTORE PUSH1 0x20 ADD PUSH1 0x0 KECCAK256 DUP4 DUP2 SLOAD DUP2 LT PUSH2 0x1B4E JUMPI PUSH2 0x1B4D PUSH2 0x38A4 JUMP JUMPDEST JUMPDEST SWAP1 PUSH1 0x0 MSTORE PUSH1 0x20 PUSH1 0x0 KECCAK256 SWAP1 PUSH1 0x4 MUL ADD PUSH1 0x3 ADD DUP3 DUP2 SLOAD DUP2 LT PUSH2 0x1B71 JUMPI PUSH2 0x1B70 PUSH2 0x38A4 JUMP JUMPDEST JUMPDEST SWAP1 PUSH1 0x0 MSTORE PUSH1 0x20 PUSH1 0x0 KECCAK256 SWAP1 PUSH1 0x20 SWAP2 DUP3 DUP3 DIV ADD SWAP2 SWAP1 MOD PUSH2 0x100 EXP DUP2 SLOAD DUP2 PUSH1 0xFF MUL NOT AND SWAP1 DUP4 ISZERO ISZERO MUL OR SWAP1 SSTORE POP PUSH2 0x1BB2 JUMP JUMPDEST DUP1 DUP1 PUSH2 0x1BAA SWAP1 PUSH2 0x3902 JUMP JUMPDEST SWAP2 POP POP PUSH2 0x18B9 JUMP JUMPDEST POP DUP1 DUP1 PUSH2 0x1BBE SWAP1 PUSH2 0x3902 JUMP JUMPDEST SWAP2 POP POP PUSH2 0x182F JUMP JUMPDEST POP POP JUMPDEST JUMPDEST JUMPDEST DUP7 PUSH20 0xFFFFFFFFFFFFFFFFFFFFFFFFFFFFFFFFFFFFFFFF AND CALLER PUSH20 0xFFFFFFFFFFFFFFFFFFFFFFFFFFFFFFFFFFFFFFFF AND DUP10 PUSH20 0xFFFFFFFFFFFFFFFFFFFFFFFFFFFFFFFFFFFFFFFF AND PUSH32 0x2442E7CCFD30564DCFD95CC7CFDAEFDFC6298925B0C609461D5C69CA18AB1812 DUP10 DUP7 PUSH1 0x40 MLOAD PUSH2 0x1C41 SWAP3 SWAP2 SWAP1 PUSH2 0x3EC4 JUMP JUMPDEST PUSH1 0x40 MLOAD DUP1 SWAP2 SUB SWAP1 LOG4 DUP1 DUP1 PUSH2 0x1C54 SWAP1 PUSH2 0x3902 JUMP JUMPDEST SWAP2 POP POP PUSH2 0x11FD JUMP JUMPDEST POP POP POP POP POP POP POP POP JUMP JUMPDEST PUSH1 0x1 PUSH1 0x0 SWAP1 SLOAD SWAP1 PUSH2 0x100 EXP SWAP1 DIV PUSH20 0xFFFFFFFFFFFFFFFFFFFFFFFFFFFFFFFFFFFFFFFF AND DUP2 JUMP JUMPDEST DUP1 PUSH1 0x3 DUP2 SWAP1 SSTORE POP POP JUMP JUMPDEST PUSH1 0x60 PUSH1 0x0 DUP3 SUB PUSH2 0x1F0B JUMPI PUSH1 0x7 PUSH1 0x0 DUP7 PUSH20 0xFFFFFFFFFFFFFFFFFFFFFFFFFFFFFFFFFFFFFFFF AND PUSH20 0xFFFFFFFFFFFFFFFFFFFFFFFFFFFFFFFFFFFFFFFF AND DUP2 MSTORE PUSH1 0x20 ADD SWAP1 DUP2 MSTORE PUSH1 0x20 ADD PUSH1 0x0 KECCAK256 PUSH1 0x0 DUP6 PUSH20 0xFFFFFFFFFFFFFFFFFFFFFFFFFFFFFFFFFFFFFFFF AND PUSH20 0xFFFFFFFFFFFFFFFFFFFFFFFFFFFFFFFFFFFFFFFF AND DUP2 MSTORE PUSH1 0x20 ADD SWAP1 DUP2 MSTORE PUSH1 0x20 ADD PUSH1 0x0 KECCAK256 DUP1 SLOAD DUP1 PUSH1 0x20 MUL PUSH1 0x20 ADD PUSH1 0x40 MLOAD SWAP1 DUP2 ADD PUSH1 0x40 MSTORE DUP1 SWAP3 SWAP2 SWAP1 DUP2 DUP2 MSTORE PUSH1 0x20 ADD PUSH1 0x0 SWAP1 JUMPDEST DUP3 DUP3 LT ISZERO PUSH2 0x1F00 JUMPI DUP4 DUP3 SWAP1 PUSH1 0x0 MSTORE PUSH1 0x20 PUSH1 0x0 KECCAK256 SWAP1 PUSH1 0x4 MUL ADD PUSH1 0x40 MLOAD DUP1 PUSH1 0x80 ADD PUSH1 0x40 MSTORE SWAP1 DUP2 PUSH1 0x0 DUP3 ADD SLOAD DUP2 MSTORE PUSH1 0x20 ADD PUSH1 0x1 DUP3 ADD DUP1 SLOAD DUP1 PUSH1 0x20 MUL PUSH1 0x20 ADD PUSH1 0x40 MLOAD SWAP1 DUP2 ADD PUSH1 0x40 MSTORE DUP1 SWAP3 SWAP2 SWAP1 DUP2 DUP2 MSTORE PUSH1 0x20 ADD DUP3 DUP1 SLOAD DUP1 ISZERO PUSH2 0x1DEE JUMPI PUSH1 0x20 MUL DUP3 ADD SWAP2 SWAP1 PUSH1 0x0 MSTORE PUSH1 0x20 PUSH1 0x0 KECCAK256 SWAP1 JUMPDEST DUP2 PUSH1 0x0 SWAP1 SLOAD SWAP1 PUSH2 0x100 EXP SWAP1 DIV PUSH20 0xFFFFFFFFFFFFFFFFFFFFFFFFFFFFFFFFFFFFFFFF AND PUSH20 0xFFFFFFFFFFFFFFFFFFFFFFFFFFFFFFFFFFFFFFFF AND DUP2 MSTORE PUSH1 0x20 ADD SWAP1 PUSH1 0x1 ADD SWAP1 DUP1 DUP4 GT PUSH2 0x1DA4 JUMPI JUMPDEST POP POP POP POP POP DUP2 MSTORE PUSH1 0x20 ADD PUSH1 0x2 DUP3 ADD DUP1 SLOAD DUP1 PUSH1 0x20 MUL PUSH1 0x20 ADD PUSH1 0x40 MLOAD SWAP1 DUP2 ADD PUSH1 0x40 MSTORE DUP1 SWAP3 SWAP2 SWAP1 DUP2 DUP2 MSTORE PUSH1 0x20 ADD DUP3 DUP1 SLOAD DUP1 ISZERO PUSH2 0x1E6B JUMPI PUSH1 0x20 MUL DUP3 ADD SWAP2 SWAP1 PUSH1 0x0 MSTORE PUSH1 0x20 PUSH1 0x0 KECCAK256 SWAP1 PUSH1 0x0 SWAP1 JUMPDEST DUP3 DUP3 SWAP1 SLOAD SWAP1 PUSH2 0x100 EXP SWAP1 DIV PUSH1 0xFF AND ISZERO ISZERO DUP2 MSTORE PUSH1 0x20 ADD SWAP1 PUSH1 0x1 ADD SWAP1 PUSH1 0x20 DUP3 PUSH1 0x0 ADD DIV SWAP3 DUP4 ADD SWAP3 PUSH1 0x1 SUB DUP3 MUL SWAP2 POP DUP1 DUP5 GT PUSH2 0x1E35 JUMPI SWAP1 POP JUMPDEST POP POP POP POP POP DUP2 MSTORE PUSH1 0x20 ADD PUSH1 0x3 DUP3 ADD DUP1 SLOAD DUP1 PUSH1 0x20 MUL PUSH1 0x20 ADD PUSH1 0x40 MLOAD SWAP1 DUP2 ADD PUSH1 0x40 MSTORE DUP1 SWAP3 SWAP2 SWAP1 DUP2 DUP2 MSTORE PUSH1 0x20 ADD DUP3 DUP1 SLOAD DUP1 ISZERO PUSH2 0x1EE8 JUMPI PUSH1 0x20 MUL DUP3 ADD SWAP2 SWAP1 PUSH1 0x0 MSTORE PUSH1 0x20 PUSH1 0x0 KECCAK256 SWAP1 PUSH1 0x0 SWAP1 JUMPDEST DUP3 DUP3 SWAP1 SLOAD SWAP1 PUSH2 0x100 EXP SWAP1 DIV PUSH1 0xFF AND ISZERO ISZERO DUP2 MSTORE PUSH1 0x20 ADD SWAP1 PUSH1 0x1 ADD SWAP1 PUSH1 0x20 DUP3 PUSH1 0x0 ADD DIV SWAP3 DUP4 ADD SWAP3 PUSH1 0x1 SUB DUP3 MUL SWAP2 POP DUP1 DUP5 GT PUSH2 0x1EB2 JUMPI SWAP1 POP JUMPDEST POP POP POP POP POP DUP2 MSTORE POP POP DUP2 MSTORE PUSH1 0x20 ADD SWAP1 PUSH1 0x1 ADD SWAP1 PUSH2 0x1D3C JUMP JUMPDEST POP POP POP POP SWAP1 POP PUSH2 0x2183 JUMP JUMPDEST PUSH1 0x8 PUSH1 0x0 DUP7 PUSH20 0xFFFFFFFFFFFFFFFFFFFFFFFFFFFFFFFFFFFFFFFF AND PUSH20 0xFFFFFFFFFFFFFFFFFFFFFFFFFFFFFFFFFFFFFFFF AND DUP2 MSTORE PUSH1 0x20 ADD SWAP1 DUP2 MSTORE PUSH1 0x20 ADD PUSH1 0x0 KECCAK256 PUSH1 0x0 DUP6 PUSH20 0xFFFFFFFFFFFFFFFFFFFFFFFFFFFFFFFFFFFFFFFF AND PUSH20 0xFFFFFFFFFFFFFFFFFFFFFFFFFFFFFFFFFFFFFFFF AND DUP2 MSTORE PUSH1 0x20 ADD SWAP1 DUP2 MSTORE PUSH1 0x20 ADD PUSH1 0x0 KECCAK256 PUSH1 0x0 DUP5 DUP2 MSTORE PUSH1 0x20 ADD SWAP1 DUP2 MSTORE PUSH1 0x20 ADD PUSH1 0x0 KECCAK256 DUP1 SLOAD DUP1 PUSH1 0x20 MUL PUSH1 0x20 ADD PUSH1 0x40 MLOAD SWAP1 DUP2 ADD PUSH1 0x40 MSTORE DUP1 SWAP3 SWAP2 SWAP1 DUP2 DUP2 MSTORE PUSH1 0x20 ADD PUSH1 0x0 SWAP1 JUMPDEST DUP3 DUP3 LT ISZERO PUSH2 0x217C JUMPI DUP4 DUP3 SWAP1 PUSH1 0x0 MSTORE PUSH1 0x20 PUSH1 0x0 KECCAK256 SWAP1 PUSH1 0x4 MUL ADD PUSH1 0x40 MLOAD DUP1 PUSH1 0x80 ADD PUSH1 0x40 MSTORE SWAP1 DUP2 PUSH1 0x0 DUP3 ADD SLOAD DUP2 MSTORE PUSH1 0x20 ADD PUSH1 0x1 DUP3 ADD DUP1 SLOAD DUP1 PUSH1 0x20 MUL PUSH1 0x20 ADD PUSH1 0x40 MLOAD SWAP1 DUP2 ADD PUSH1 0x40 MSTORE DUP1 SWAP3 SWAP2 SWAP1 DUP2 DUP2 MSTORE PUSH1 0x20 ADD DUP3 DUP1 SLOAD DUP1 ISZERO PUSH2 0x206A JUMPI PUSH1 0x20 MUL DUP3 ADD SWAP2 SWAP1 PUSH1 0x0 MSTORE PUSH1 0x20 PUSH1 0x0 KECCAK256 SWAP1 JUMPDEST DUP2 PUSH1 0x0 SWAP1 SLOAD SWAP1 PUSH2 0x100 EXP SWAP1 DIV PUSH20 0xFFFFFFFFFFFFFFFFFFFFFFFFFFFFFFFFFFFFFFFF AND PUSH20 0xFFFFFFFFFFFFFFFFFFFFFFFFFFFFFFFFFFFFFFFF AND DUP2 MSTORE PUSH1 0x20 ADD SWAP1 PUSH1 0x1 ADD SWAP1 DUP1 DUP4 GT PUSH2 0x2020 JUMPI JUMPDEST POP POP POP POP POP DUP2 MSTORE PUSH1 0x20 ADD PUSH1 0x2 DUP3 ADD DUP1 SLOAD DUP1 PUSH1 0x20 MUL PUSH1 0x20 ADD PUSH1 0x40 MLOAD SWAP1 DUP2 ADD PUSH1 0x40 MSTORE DUP1 SWAP3 SWAP2 SWAP1 DUP2 DUP2 MSTORE PUSH1 0x20 ADD DUP3 DUP1 SLOAD DUP1 ISZERO PUSH2 0x20E7 JUMPI PUSH1 0x20 MUL DUP3 ADD SWAP2 SWAP1 PUSH1 0x0 MSTORE PUSH1 0x20 PUSH1 0x0 KECCAK256 SWAP1 PUSH1 0x0 SWAP1 JUMPDEST DUP3 DUP3 SWAP1 SLOAD SWAP1 PUSH2 0x100 EXP SWAP1 DIV PUSH1 0xFF AND ISZERO ISZERO DUP2 MSTORE PUSH1 0x20 ADD SWAP1 PUSH1 0x1 ADD SWAP1 PUSH1 0x20 DUP3 PUSH1 0x0 ADD DIV SWAP3 DUP4 ADD SWAP3 PUSH1 0x1 SUB DUP3 MUL SWAP2 POP DUP1 DUP5 GT PUSH2 0x20B1 JUMPI SWAP1 POP JUMPDEST POP POP POP POP POP DUP2 MSTORE PUSH1 0x20 ADD PUSH1 0x3 DUP3 ADD DUP1 SLOAD DUP1 PUSH1 0x20 MUL PUSH1 0x20 ADD PUSH1 0x40 MLOAD SWAP1 DUP2 ADD PUSH1 0x40 MSTORE DUP1 SWAP3 SWAP2 SWAP1 DUP2 DUP2 MSTORE PUSH1 0x20 ADD DUP3 DUP1 SLOAD DUP1 ISZERO PUSH2 0x2164 JUMPI PUSH1 0x20 MUL DUP3 ADD SWAP2 SWAP1 PUSH1 0x0 MSTORE PUSH1 0x20 PUSH1 0x0 KECCAK256 SWAP1 PUSH1 0x0 SWAP1 JUMPDEST DUP3 DUP3 SWAP1 SLOAD SWAP1 PUSH2 0x100 EXP SWAP1 DIV PUSH1 0xFF AND ISZERO ISZERO DUP2 MSTORE PUSH1 0x20 ADD SWAP1 PUSH1 0x1 ADD SWAP1 PUSH1 0x20 DUP3 PUSH1 0x0 ADD DIV SWAP3 DUP4 ADD SWAP3 PUSH1 0x1 SUB DUP3 MUL SWAP2 POP DUP1 DUP5 GT PUSH2 0x212E JUMPI SWAP1 POP JUMPDEST POP POP POP POP POP DUP2 MSTORE POP POP DUP2 MSTORE PUSH1 0x20 ADD SWAP1 PUSH1 0x1 ADD SWAP1 PUSH2 0x1FB8 JUMP JUMPDEST POP POP POP POP SWAP1 POP JUMPDEST SWAP5 SWAP4 POP POP POP POP JUMP JUMPDEST PUSH2 0x2193 PUSH2 0x2754 JUMP JUMPDEST PUSH2 0x219D PUSH1 0x0 PUSH2 0x27D2 JUMP JUMPDEST JUMP JUMPDEST PUSH1 0x0 DUP1 PUSH1 0x0 SWAP1 SLOAD SWAP1 PUSH2 0x100 EXP SWAP1 DIV PUSH20 0xFFFFFFFFFFFFFFFFFFFFFFFFFFFFFFFFFFFFFFFF AND SWAP1 POP SWAP1 JUMP JUMPDEST DUP1 PUSH1 0x4 DUP2 SWAP1 SSTORE POP POP JUMP JUMPDEST PUSH2 0x21DA PUSH2 0x2754 JUMP JUMPDEST PUSH1 0x0 DUP2 SWAP1 POP DUP1 PUSH20 0xFFFFFFFFFFFFFFFFFFFFFFFFFFFFFFFFFFFFFFFF AND PUSH4 0xA9059CBB CALLER DUP6 PUSH1 0x40 MLOAD DUP4 PUSH4 0xFFFFFFFF AND PUSH1 0xE0 SHL DUP2 MSTORE PUSH1 0x4 ADD PUSH2 0x221A SWAP3 SWAP2 SWAP1 PUSH2 0x3DC5 JUMP JUMPDEST PUSH1 0x20 PUSH1 0x40 MLOAD DUP1 DUP4 SUB DUP2 PUSH1 0x0 DUP8 GAS CALL ISZERO DUP1 ISZERO PUSH2 0x2239 JUMPI RETURNDATASIZE PUSH1 0x0 DUP1 RETURNDATACOPY RETURNDATASIZE PUSH1 0x0 REVERT JUMPDEST POP POP POP POP PUSH1 0x40 MLOAD RETURNDATASIZE PUSH1 0x1F NOT PUSH1 0x1F DUP3 ADD AND DUP3 ADD DUP1 PUSH1 0x40 MSTORE POP DUP2 ADD SWAP1 PUSH2 0x225D SWAP2 SWAP1 PUSH2 0x3699 JUMP JUMPDEST POP POP POP POP JUMP JUMPDEST DUP1 PUSH1 0x6 PUSH1 0x0 PUSH2 0x100 EXP DUP2 SLOAD DUP2 PUSH20 0xFFFFFFFFFFFFFFFFFFFFFFFFFFFFFFFFFFFFFFFF MUL NOT AND SWAP1 DUP4 PUSH20 0xFFFFFFFFFFFFFFFFFFFFFFFFFFFFFFFFFFFFFFFF AND MUL OR SWAP1 SSTORE POP POP JUMP JUMPDEST PUSH1 0x8 PUSH1 0x20 MSTORE DUP4 PUSH1 0x0 MSTORE PUSH1 0x40 PUSH1 0x0 KECCAK256 PUSH1 0x20 MSTORE DUP3 PUSH1 0x0 MSTORE PUSH1 0x40 PUSH1 0x0 KECCAK256 PUSH1 0x20 MSTORE DUP2 PUSH1 0x0 MSTORE PUSH1 0x40 PUSH1 0x0 KECCAK256 DUP2 DUP2 SLOAD DUP2 LT PUSH2 0x22DB JUMPI PUSH1 0x0 DUP1 REVERT JUMPDEST SWAP1 PUSH1 0x0 MSTORE PUSH1 0x20 PUSH1 0x0 KECCAK256 SWAP1 PUSH1 0x4 MUL ADD PUSH1 0x0 SWAP4 POP SWAP4 POP POP POP POP DUP1 PUSH1 0x0 ADD SLOAD SWAP1 POP DUP2 JUMP JUMPDEST CALLER PUSH20 0xFFFFFFFFFFFFFFFFFFFFFFFFFFFFFFFFFFFFFFFF AND PUSH1 0x2 PUSH1 0x0 SWAP1 SLOAD SWAP1 PUSH2 0x100 EXP SWAP1 DIV PUSH20 0xFFFFFFFFFFFFFFFFFFFFFFFFFFFFFFFFFFFFFFFF AND PUSH20 0xFFFFFFFFFFFFFFFFFFFFFFFFFFFFFFFFFFFFFFFF AND PUSH4 0xC3BB8121 DUP8 PUSH1 0x40 MLOAD DUP3 PUSH4 0xFFFFFFFF AND PUSH1 0xE0 SHL DUP2 MSTORE PUSH1 0x4 ADD PUSH2 0x236E SWAP2 SWAP1 PUSH2 0x31A0 JUMP JUMPDEST PUSH1 0x0 PUSH1 0x40 MLOAD DUP1 DUP4 SUB DUP2 DUP7 GAS STATICCALL ISZERO DUP1 ISZERO PUSH2 0x238B JUMPI RETURNDATASIZE PUSH1 0x0 DUP1 RETURNDATACOPY RETURNDATASIZE PUSH1 0x0 REVERT JUMPDEST POP POP POP POP PUSH1 0x40 MLOAD RETURNDATASIZE PUSH1 0x0 DUP3 RETURNDATACOPY RETURNDATASIZE PUSH1 0x1F NOT PUSH1 0x1F DUP3 ADD AND DUP3 ADD DUP1 PUSH1 0x40 MSTORE POP DUP2 ADD SWAP1 PUSH2 0x23B4 SWAP2 SWAP1 PUSH2 0x4190 JUMP JUMPDEST PUSH1 0xE0 ADD MLOAD PUSH20 0xFFFFFFFFFFFFFFFFFFFFFFFFFFFFFFFFFFFFFFFF AND EQ PUSH2 0x240E JUMPI PUSH1 0x40 MLOAD PUSH32 0x8C379A000000000000000000000000000000000000000000000000000000000 DUP2 MSTORE PUSH1 0x4 ADD PUSH2 0x2405 SWAP1 PUSH2 0x424B JUMP JUMPDEST PUSH1 0x40 MLOAD DUP1 SWAP2 SUB SWAP1 REVERT JUMPDEST PUSH1 0x0 DUP2 SUB PUSH2 0x2554 JUMPI PUSH1 0x0 PUSH2 0x2710 PUSH1 0x5 SLOAD DUP6 PUSH2 0x2429 SWAP2 SWAP1 PUSH2 0x3DEE JUMP JUMPDEST PUSH2 0x2433 SWAP2 SWAP1 PUSH2 0x3E5F JUMP JUMPDEST SWAP1 POP PUSH1 0x0 DUP2 DUP6 PUSH2 0x2443 SWAP2 SWAP1 PUSH2 0x3E90 JUMP JUMPDEST SWAP1 POP PUSH1 0x0 DUP7 SWAP1 POP DUP1 PUSH20 0xFFFFFFFFFFFFFFFFFFFFFFFFFFFFFFFFFFFFFFFF AND PUSH4 0x23B872DD DUP10 ADDRESS DUP7 PUSH1 0x40 MLOAD DUP5 PUSH4 0xFFFFFFFF AND PUSH1 0xE0 SHL DUP2 MSTORE PUSH1 0x4 ADD PUSH2 0x2487 SWAP4 SWAP3 SWAP2 SWAP1 PUSH2 0x3CA9 JUMP JUMPDEST PUSH1 0x20 PUSH1 0x40 MLOAD DUP1 DUP4 SUB DUP2 PUSH1 0x0 DUP8 GAS CALL ISZERO DUP1 ISZERO PUSH2 0x24A6 JUMPI RETURNDATASIZE PUSH1 0x0 DUP1 RETURNDATACOPY RETURNDATASIZE PUSH1 0x0 REVERT JUMPDEST POP POP POP POP PUSH1 0x40 MLOAD RETURNDATASIZE PUSH1 0x1F NOT PUSH1 0x1F DUP3 ADD AND DUP3 ADD DUP1 PUSH1 0x40 MSTORE POP DUP2 ADD SWAP1 PUSH2 0x24CA SWAP2 SWAP1 PUSH2 0x3699 JUMP JUMPDEST POP DUP1 PUSH20 0xFFFFFFFFFFFFFFFFFFFFFFFFFFFFFFFFFFFFFFFF AND PUSH4 0x23B872DD DUP10 CALLER DUP6 PUSH1 0x40 MLOAD DUP5 PUSH4 0xFFFFFFFF AND PUSH1 0xE0 SHL DUP2 MSTORE PUSH1 0x4 ADD PUSH2 0x2508 SWAP4 SWAP3 SWAP2 SWAP1 PUSH2 0x3CA9 JUMP JUMPDEST PUSH1 0x20 PUSH1 0x40 MLOAD DUP1 DUP4 SUB DUP2 PUSH1 0x0 DUP8 GAS CALL ISZERO DUP1 ISZERO PUSH2 0x2527 JUMPI RETURNDATASIZE PUSH1 0x0 DUP1 RETURNDATACOPY RETURNDATASIZE PUSH1 0x0 REVERT JUMPDEST POP POP POP POP PUSH1 0x40 MLOAD RETURNDATASIZE PUSH1 0x1F NOT PUSH1 0x1F DUP3 ADD AND DUP3 ADD DUP1 PUSH1 0x40 MSTORE POP DUP2 ADD SWAP1 PUSH2 0x254B SWAP2 SWAP1 PUSH2 0x3699 JUMP JUMPDEST POP POP POP POP PUSH2 0x2652 JUMP JUMPDEST PUSH1 0x0 DUP3 GT ISZERO PUSH2 0x2651 JUMPI PUSH1 0x0 DUP5 SWAP1 POP DUP1 PUSH20 0xFFFFFFFFFFFFFFFFFFFFFFFFFFFFFFFFFFFFFFFF AND PUSH4 0x23B872DD DUP8 CALLER DUP7 PUSH1 0x40 MLOAD DUP5 PUSH4 0xFFFFFFFF AND PUSH1 0xE0 SHL DUP2 MSTORE PUSH1 0x4 ADD PUSH2 0x259F SWAP4 SWAP3 SWAP2 SWAP1 PUSH2 0x3CA9 JUMP JUMPDEST PUSH1 0x0 PUSH1 0x40 MLOAD DUP1 DUP4 SUB DUP2 PUSH1 0x0 DUP8 DUP1 EXTCODESIZE ISZERO DUP1 ISZERO PUSH2 0x25B9 JUMPI PUSH1 0x0 DUP1 REVERT JUMPDEST POP GAS CALL ISZERO DUP1 ISZERO PUSH2 0x25CD JUMPI RETURNDATASIZE PUSH1 0x0 DUP1 RETURNDATACOPY RETURNDATASIZE PUSH1 0x0 REVERT JUMPDEST POP POP POP POP DUP5 PUSH20 0xFFFFFFFFFFFFFFFFFFFFFFFFFFFFFFFFFFFFFFFF AND CALLER PUSH20 0xFFFFFFFFFFFFFFFFFFFFFFFFFFFFFFFFFFFFFFFF AND DUP8 PUSH20 0xFFFFFFFFFFFFFFFFFFFFFFFFFFFFFFFFFFFFFFFF AND PUSH32 0x2442E7CCFD30564DCFD95CC7CFDAEFDFC6298925B0C609461D5C69CA18AB1812 DUP7 DUP9 PUSH1 0x40 MLOAD PUSH2 0x2647 SWAP3 SWAP2 SWAP1 PUSH2 0x3EC4 JUMP JUMPDEST PUSH1 0x40 MLOAD DUP1 SWAP2 SUB SWAP1 LOG4 POP JUMPDEST JUMPDEST POP POP POP POP POP JUMP JUMPDEST PUSH1 0x2 PUSH1 0x0 SWAP1 SLOAD SWAP1 PUSH2 0x100 EXP SWAP1 DIV PUSH20 0xFFFFFFFFFFFFFFFFFFFFFFFFFFFFFFFFFFFFFFFF AND DUP2 JUMP JUMPDEST PUSH1 0x7 PUSH1 0x20 MSTORE DUP3 PUSH1 0x0 MSTORE PUSH1 0x40 PUSH1 0x0 KECCAK256 PUSH1 0x20 MSTORE DUP2 PUSH1 0x0 MSTORE PUSH1 0x40 PUSH1 0x0 KECCAK256 DUP2 DUP2 SLOAD DUP2 LT PUSH2 0x26A7 JUMPI PUSH1 0x0 DUP1 REVERT JUMPDEST SWAP1 PUSH1 0x0 MSTORE PUSH1 0x20 PUSH1 0x0 KECCAK256 SWAP1 PUSH1 0x4 MUL ADD PUSH1 0x0 SWAP3 POP SWAP3 POP POP POP DUP1 PUSH1 0x0 ADD SLOAD SWAP1 POP DUP2 JUMP JUMPDEST DUP1 PUSH1 0x5 DUP2 SWAP1 SSTORE POP POP JUMP JUMPDEST PUSH2 0x26D9 PUSH2 0x2754 JUMP JUMPDEST PUSH1 0x0 PUSH20 0xFFFFFFFFFFFFFFFFFFFFFFFFFFFFFFFFFFFFFFFF AND DUP2 PUSH20 0xFFFFFFFFFFFFFFFFFFFFFFFFFFFFFFFFFFFFFFFF AND SUB PUSH2 0x2748 JUMPI PUSH1 0x40 MLOAD PUSH32 0x8C379A000000000000000000000000000000000000000000000000000000000 DUP2 MSTORE PUSH1 0x4 ADD PUSH2 0x273F SWAP1 PUSH2 0x42DD JUMP JUMPDEST PUSH1 0x40 MLOAD DUP1 SWAP2 SUB SWAP1 REVERT JUMPDEST PUSH2 0x2751 DUP2 PUSH2 0x27D2 JUMP JUMPDEST POP JUMP JUMPDEST PUSH2 0x275C PUSH2 0x2896 JUMP JUMPDEST PUSH20 0xFFFFFFFFFFFFFFFFFFFFFFFFFFFFFFFFFFFFFFFF AND PUSH2 0x277A PUSH2 0x219F JUMP JUMPDEST PUSH20 0xFFFFFFFFFFFFFFFFFFFFFFFFFFFFFFFFFFFFFFFF AND EQ PUSH2 0x27D0 JUMPI PUSH1 0x40 MLOAD PUSH32 0x8C379A000000000000000000000000000000000000000000000000000000000 DUP2 MSTORE PUSH1 0x4 ADD PUSH2 0x27C7 SWAP1 PUSH2 0x4349 JUMP JUMPDEST PUSH1 0x40 MLOAD DUP1 SWAP2 SUB SWAP1 REVERT JUMPDEST JUMP JUMPDEST PUSH1 0x0 DUP1 PUSH1 0x0 SWAP1 SLOAD SWAP1 PUSH2 0x100 EXP SWAP1 DIV PUSH20 0xFFFFFFFFFFFFFFFFFFFFFFFFFFFFFFFFFFFFFFFF AND SWAP1 POP DUP2 PUSH1 0x0 DUP1 PUSH2 0x100 EXP DUP2 SLOAD DUP2 PUSH20 0xFFFFFFFFFFFFFFFFFFFFFFFFFFFFFFFFFFFFFFFF MUL NOT AND SWAP1 DUP4 PUSH20 0xFFFFFFFFFFFFFFFFFFFFFFFFFFFFFFFFFFFFFFFF AND MUL OR SWAP1 SSTORE POP DUP2 PUSH20 0xFFFFFFFFFFFFFFFFFFFFFFFFFFFFFFFFFFFFFFFF AND DUP2 PUSH20 0xFFFFFFFFFFFFFFFFFFFFFFFFFFFFFFFFFFFFFFFF AND PUSH32 0x8BE0079C531659141344CD1FD0A4F28419497F9722A3DAAFE3B4186F6B6457E0 PUSH1 0x40 MLOAD PUSH1 0x40 MLOAD DUP1 SWAP2 SUB SWAP1 LOG3 POP POP JUMP JUMPDEST PUSH1 0x0 CALLER SWAP1 POP SWAP1 JUMP JUMPDEST POP DUP1 SLOAD PUSH1 0x0 DUP3 SSTORE PUSH1 0x4 MUL SWAP1 PUSH1 0x0 MSTORE PUSH1 0x20 PUSH1 0x0 KECCAK256 SWAP1 DUP2 ADD SWAP1 PUSH2 0x28BF SWAP2 SWAP1 PUSH2 0x29F2 JUMP JUMPDEST POP JUMP JUMPDEST DUP3 DUP1 SLOAD DUP3 DUP3 SSTORE SWAP1 PUSH1 0x0 MSTORE PUSH1 0x20 PUSH1 0x0 KECCAK256 SWAP1 DUP2 ADD SWAP3 DUP3 ISZERO PUSH2 0x293B JUMPI SWAP2 PUSH1 0x20 MUL DUP3 ADD JUMPDEST DUP3 DUP2 GT ISZERO PUSH2 0x293A JUMPI DUP3 MLOAD DUP3 PUSH1 0x0 PUSH2 0x100 EXP DUP2 SLOAD DUP2 PUSH20 0xFFFFFFFFFFFFFFFFFFFFFFFFFFFFFFFFFFFFFFFF MUL NOT AND SWAP1 DUP4 PUSH20 0xFFFFFFFFFFFFFFFFFFFFFFFFFFFFFFFFFFFFFFFF AND MUL OR SWAP1 SSTORE POP SWAP2 PUSH1 0x20 ADD SWAP2 SWAP1 PUSH1 0x1 ADD SWAP1 PUSH2 0x28E2 JUMP JUMPDEST JUMPDEST POP SWAP1 POP PUSH2 0x2948 SWAP2 SWAP1 PUSH2 0x2A41 JUMP JUMPDEST POP SWAP1 JUMP JUMPDEST DUP3 DUP1 SLOAD DUP3 DUP3 SSTORE SWAP1 PUSH1 0x0 MSTORE PUSH1 0x20 PUSH1 0x0 KECCAK256 SWAP1 PUSH1 0x1F ADD PUSH1 0x20 SWAP1 DIV DUP2 ADD SWAP3 DUP3 ISZERO PUSH2 0x29E1 JUMPI SWAP2 PUSH1 0x20 MUL DUP3 ADD PUSH1 0x0 JUMPDEST DUP4 DUP3 GT ISZERO PUSH2 0x29B2 JUMPI DUP4 MLOAD DUP4 DUP3 PUSH2 0x100 EXP DUP2 SLOAD DUP2 PUSH1 0xFF MUL NOT AND SWAP1 DUP4 ISZERO ISZERO MUL OR SWAP1 SSTORE POP SWAP3 PUSH1 0x20 ADD SWAP3 PUSH1 0x1 ADD PUSH1 0x20 DUP2 PUSH1 0x0 ADD DIV SWAP3 DUP4 ADD SWAP3 PUSH1 0x1 SUB MUL PUSH2 0x2975 JUMP JUMPDEST DUP1 ISZERO PUSH2 0x29DF JUMPI DUP3 DUP2 PUSH2 0x100 EXP DUP2 SLOAD SWAP1 PUSH1 0xFF MUL NOT AND SWAP1 SSTORE PUSH1 0x1 ADD PUSH1 0x20 DUP2 PUSH1 0x0 ADD DIV SWAP3 DUP4 ADD SWAP3 PUSH1 0x1 SUB MUL PUSH2 0x29B2 JUMP JUMPDEST POP JUMPDEST POP SWAP1 POP PUSH2 0x29EE SWAP2 SWAP1 PUSH2 0x2A41 JUMP JUMPDEST POP SWAP1 JUMP JUMPDEST JUMPDEST DUP1 DUP3 GT ISZERO PUSH2 0x2A3D JUMPI PUSH1 0x0 DUP1 DUP3 ADD PUSH1 0x0 SWAP1 SSTORE PUSH1 0x1 DUP3 ADD PUSH1 0x0 PUSH2 0x2A14 SWAP2 SWAP1 PUSH2 0x2A5E JUMP JUMPDEST PUSH1 0x2 DUP3 ADD PUSH1 0x0 PUSH2 0x2A24 SWAP2 SWAP1 PUSH2 0x2A7F JUMP JUMPDEST PUSH1 0x3 DUP3 ADD PUSH1 0x0 PUSH2 0x2A34 SWAP2 SWAP1 PUSH2 0x2A7F JUMP JUMPDEST POP PUSH1 0x4 ADD PUSH2 0x29F3 JUMP JUMPDEST POP SWAP1 JUMP JUMPDEST JUMPDEST DUP1 DUP3 GT ISZERO PUSH2 0x2A5A JUMPI PUSH1 0x0 DUP2 PUSH1 0x0 SWAP1 SSTORE POP PUSH1 0x1 ADD PUSH2 0x2A42 JUMP JUMPDEST POP SWAP1 JUMP JUMPDEST POP DUP1 SLOAD PUSH1 0x0 DUP3 SSTORE SWAP1 PUSH1 0x0 MSTORE PUSH1 0x20 PUSH1 0x0 KECCAK256 SWAP1 DUP2 ADD SWAP1 PUSH2 0x2A7C SWAP2 SWAP1 PUSH2 0x2A41 JUMP JUMPDEST POP JUMP JUMPDEST POP DUP1 SLOAD PUSH1 0x0 DUP3 SSTORE PUSH1 0x1F ADD PUSH1 0x20 SWAP1 DIV SWAP1 PUSH1 0x0 MSTORE PUSH1 0x20 PUSH1 0x0 KECCAK256 SWAP1 DUP2 ADD SWAP1 PUSH2 0x2AA4 SWAP2 SWAP1 PUSH2 0x2A41 JUMP JUMPDEST POP JUMP JUMPDEST PUSH1 0x0 PUSH20 0xFFFFFFFFFFFFFFFFFFFFFFFFFFFFFFFFFFFFFFFF DUP3 AND SWAP1 POP SWAP2 SWAP1 POP JUMP JUMPDEST PUSH1 0x0 PUSH2 0x2AD2 DUP3 PUSH2 0x2AA7 JUMP JUMPDEST SWAP1 POP SWAP2 SWAP1 POP JUMP JUMPDEST PUSH2 0x2AE2 DUP2 PUSH2 0x2AC7 JUMP JUMPDEST DUP3 MSTORE POP POP JUMP JUMPDEST PUSH1 0x0 DUP2 SWAP1 POP SWAP2 SWAP1 POP JUMP JUMPDEST PUSH2 0x2AFB DUP2 PUSH2 0x2AE8 JUMP JUMPDEST DUP3 MSTORE POP POP JUMP JUMPDEST PUSH1 0x0 PUSH1 0x80 DUP3 ADD SWAP1 POP PUSH2 0x2B16 PUSH1 0x0 DUP4 ADD DUP8 PUSH2 0x2AD9 JUMP JUMPDEST PUSH2 0x2B23 PUSH1 0x20 DUP4 ADD DUP7 PUSH2 0x2AF2 JUMP JUMPDEST PUSH2 0x2B30 PUSH1 0x40 DUP4 ADD DUP6 PUSH2 0x2AF2 JUMP JUMPDEST PUSH2 0x2B3D PUSH1 0x60 DUP4 ADD DUP5 PUSH2 0x2AF2 JUMP JUMPDEST SWAP6 SWAP5 POP POP POP POP POP JUMP JUMPDEST PUSH1 0x0 PUSH1 0x40 MLOAD SWAP1 POP SWAP1 JUMP JUMPDEST PUSH1 0x0 DUP1 REVERT JUMPDEST PUSH1 0x0 DUP1 REVERT JUMPDEST PUSH2 0x2B63 DUP2 PUSH2 0x2AC7 JUMP JUMPDEST DUP2 EQ PUSH2 0x2B6E JUMPI PUSH1 0x0 DUP1 REVERT JUMPDEST POP JUMP JUMPDEST PUSH1 0x0 DUP2 CALLDATALOAD SWAP1 POP PUSH2 0x2B80 DUP2 PUSH2 0x2B5A JUMP JUMPDEST SWAP3 SWAP2 POP POP JUMP JUMPDEST PUSH1 0x0 DUP1 REVERT JUMPDEST PUSH1 0x0 DUP1 REVERT JUMPDEST PUSH1 0x0 PUSH1 0x1F NOT PUSH1 0x1F DUP4 ADD AND SWAP1 POP SWAP2 SWAP1 POP JUMP JUMPDEST PUSH32 0x4E487B7100000000000000000000000000000000000000000000000000000000 PUSH1 0x0 MSTORE PUSH1 0x41 PUSH1 0x4 MSTORE PUSH1 0x24 PUSH1 0x0 REVERT JUMPDEST PUSH2 0x2BD9 DUP3 PUSH2 0x2B90 JUMP JUMPDEST DUP2 ADD DUP2 DUP2 LT PUSH8 0xFFFFFFFFFFFFFFFF DUP3 GT OR ISZERO PUSH2 0x2BF8 JUMPI PUSH2 0x2BF7 PUSH2 0x2BA1 JUMP JUMPDEST JUMPDEST DUP1 PUSH1 0x40 MSTORE POP POP POP JUMP JUMPDEST PUSH1 0x0 PUSH2 0x2C0B PUSH2 0x2B46 JUMP JUMPDEST SWAP1 POP PUSH2 0x2C17 DUP3 DUP3 PUSH2 0x2BD0 JUMP JUMPDEST SWAP2 SWAP1 POP JUMP JUMPDEST PUSH1 0x0 PUSH8 0xFFFFFFFFFFFFFFFF DUP3 GT ISZERO PUSH2 0x2C37 JUMPI PUSH2 0x2C36 PUSH2 0x2BA1 JUMP JUMPDEST JUMPDEST PUSH2 0x2C40 DUP3 PUSH2 0x2B90 JUMP JUMPDEST SWAP1 POP PUSH1 0x20 DUP2 ADD SWAP1 POP SWAP2 SWAP1 POP JUMP JUMPDEST DUP3 DUP2 DUP4 CALLDATACOPY PUSH1 0x0 DUP4 DUP4 ADD MSTORE POP POP POP JUMP JUMPDEST PUSH1 0x0 PUSH2 0x2C6F PUSH2 0x2C6A DUP5 PUSH2 0x2C1C JUMP JUMPDEST PUSH2 0x2C01 JUMP JUMPDEST SWAP1 POP DUP3 DUP2 MSTORE PUSH1 0x20 DUP2 ADD DUP5 DUP5 DUP5 ADD GT ISZERO PUSH2 0x2C8B JUMPI PUSH2 0x2C8A PUSH2 0x2B8B JUMP JUMPDEST JUMPDEST PUSH2 0x2C96 DUP5 DUP3 DUP6 PUSH2 0x2C4D JUMP JUMPDEST POP SWAP4 SWAP3 POP POP POP JUMP JUMPDEST PUSH1 0x0 DUP3 PUSH1 0x1F DUP4 ADD SLT PUSH2 0x2CB3 JUMPI PUSH2 0x2CB2 PUSH2 0x2B86 JUMP JUMPDEST JUMPDEST DUP2 CALLDATALOAD PUSH2 0x2CC3 DUP5 DUP3 PUSH1 0x20 DUP7 ADD PUSH2 0x2C5C JUMP JUMPDEST SWAP2 POP POP SWAP3 SWAP2 POP POP JUMP JUMPDEST PUSH2 0x2CD5 DUP2 PUSH2 0x2AE8 JUMP JUMPDEST DUP2 EQ PUSH2 0x2CE0 JUMPI PUSH1 0x0 DUP1 REVERT JUMPDEST POP JUMP JUMPDEST PUSH1 0x0 DUP2 CALLDATALOAD SWAP1 POP PUSH2 0x2CF2 DUP2 PUSH2 0x2CCC JUMP JUMPDEST SWAP3 SWAP2 POP POP JUMP JUMPDEST PUSH1 0x0 PUSH8 0xFFFFFFFFFFFFFFFF DUP3 GT ISZERO PUSH2 0x2D13 JUMPI PUSH2 0x2D12 PUSH2 0x2BA1 JUMP JUMPDEST JUMPDEST PUSH1 0x20 DUP3 MUL SWAP1 POP PUSH1 0x20 DUP2 ADD SWAP1 POP SWAP2 SWAP1 POP JUMP JUMPDEST PUSH1 0x0 DUP1 REVERT JUMPDEST PUSH1 0x0 DUP1 REVERT JUMPDEST PUSH1 0x0 DUP1 REVERT JUMPDEST PUSH1 0x0 PUSH8 0xFFFFFFFFFFFFFFFF DUP3 GT ISZERO PUSH2 0x2D4E JUMPI PUSH2 0x2D4D PUSH2 0x2BA1 JUMP JUMPDEST JUMPDEST PUSH1 0x20 DUP3 MUL SWAP1 POP PUSH1 0x20 DUP2 ADD SWAP1 POP SWAP2 SWAP1 POP JUMP JUMPDEST PUSH1 0x0 PUSH2 0x2D72 PUSH2 0x2D6D DUP5 PUSH2 0x2D33 JUMP JUMPDEST PUSH2 0x2C01 JUMP JUMPDEST SWAP1 POP DUP1 DUP4 DUP3 MSTORE PUSH1 0x20 DUP3 ADD SWAP1 POP PUSH1 0x20 DUP5 MUL DUP4 ADD DUP6 DUP2 GT ISZERO PUSH2 0x2D95 JUMPI PUSH2 0x2D94 PUSH2 0x2D24 JUMP JUMPDEST JUMPDEST DUP4 JUMPDEST DUP2 DUP2 LT ISZERO PUSH2 0x2DBE JUMPI DUP1 PUSH2 0x2DAA DUP9 DUP3 PUSH2 0x2B71 JUMP JUMPDEST DUP5 MSTORE PUSH1 0x20 DUP5 ADD SWAP4 POP POP PUSH1 0x20 DUP2 ADD SWAP1 POP PUSH2 0x2D97 JUMP JUMPDEST POP POP POP SWAP4 SWAP3 POP POP POP JUMP JUMPDEST PUSH1 0x0 DUP3 PUSH1 0x1F DUP4 ADD SLT PUSH2 0x2DDD JUMPI PUSH2 0x2DDC PUSH2 0x2B86 JUMP JUMPDEST JUMPDEST DUP2 CALLDATALOAD PUSH2 0x2DED DUP5 DUP3 PUSH1 0x20 DUP7 ADD PUSH2 0x2D5F JUMP JUMPDEST SWAP2 POP POP SWAP3 SWAP2 POP POP JUMP JUMPDEST PUSH1 0x0 PUSH8 0xFFFFFFFFFFFFFFFF DUP3 GT ISZERO PUSH2 0x2E11 JUMPI PUSH2 0x2E10 PUSH2 0x2BA1 JUMP JUMPDEST JUMPDEST PUSH1 0x20 DUP3 MUL SWAP1 POP PUSH1 0x20 DUP2 ADD SWAP1 POP SWAP2 SWAP1 POP JUMP JUMPDEST PUSH1 0x0 DUP2 ISZERO ISZERO SWAP1 POP SWAP2 SWAP1 POP JUMP JUMPDEST PUSH2 0x2E37 DUP2 PUSH2 0x2E22 JUMP JUMPDEST DUP2 EQ PUSH2 0x2E42 JUMPI PUSH1 0x0 DUP1 REVERT JUMPDEST POP JUMP JUMPDEST PUSH1 0x0 DUP2 CALLDATALOAD SWAP1 POP PUSH2 0x2E54 DUP2 PUSH2 0x2E2E JUMP JUMPDEST SWAP3 SWAP2 POP POP JUMP JUMPDEST PUSH1 0x0 PUSH2 0x2E6D PUSH2 0x2E68 DUP5 PUSH2 0x2DF6 JUMP JUMPDEST PUSH2 0x2C01 JUMP JUMPDEST SWAP1 POP DUP1 DUP4 DUP3 MSTORE PUSH1 0x20 DUP3 ADD SWAP1 POP PUSH1 0x20 DUP5 MUL DUP4 ADD DUP6 DUP2 GT ISZERO PUSH2 0x2E90 JUMPI PUSH2 0x2E8F PUSH2 0x2D24 JUMP JUMPDEST JUMPDEST DUP4 JUMPDEST DUP2 DUP2 LT ISZERO PUSH2 0x2EB9 JUMPI DUP1 PUSH2 0x2EA5 DUP9 DUP3 PUSH2 0x2E45 JUMP JUMPDEST DUP5 MSTORE PUSH1 0x20 DUP5 ADD SWAP4 POP POP PUSH1 0x20 DUP2 ADD SWAP1 POP PUSH2 0x2E92 JUMP JUMPDEST POP POP POP SWAP4 SWAP3 POP POP POP JUMP JUMPDEST PUSH1 0x0 DUP3 PUSH1 0x1F DUP4 ADD SLT PUSH2 0x2ED8 JUMPI PUSH2 0x2ED7 PUSH2 0x2B86 JUMP JUMPDEST JUMPDEST DUP2 CALLDATALOAD PUSH2 0x2EE8 DUP5 DUP3 PUSH1 0x20 DUP7 ADD PUSH2 0x2E5A JUMP JUMPDEST SWAP2 POP POP SWAP3 SWAP2 POP POP JUMP JUMPDEST PUSH1 0x0 PUSH1 0x80 DUP3 DUP5 SUB SLT ISZERO PUSH2 0x2F07 JUMPI PUSH2 0x2F06 PUSH2 0x2D29 JUMP JUMPDEST JUMPDEST PUSH2 0x2F11 PUSH1 0x80 PUSH2 0x2C01 JUMP JUMPDEST SWAP1 POP PUSH1 0x0 PUSH2 0x2F21 DUP5 DUP3 DUP6 ADD PUSH2 0x2CE3 JUMP JUMPDEST PUSH1 0x0 DUP4 ADD MSTORE POP PUSH1 0x20 DUP3 ADD CALLDATALOAD PUSH8 0xFFFFFFFFFFFFFFFF DUP2 GT ISZERO PUSH2 0x2F45 JUMPI PUSH2 0x2F44 PUSH2 0x2D2E JUMP JUMPDEST JUMPDEST PUSH2 0x2F51 DUP5 DUP3 DUP6 ADD PUSH2 0x2DC8 JUMP JUMPDEST PUSH1 0x20 DUP4 ADD MSTORE POP PUSH1 0x40 DUP3 ADD CALLDATALOAD PUSH8 0xFFFFFFFFFFFFFFFF DUP2 GT ISZERO PUSH2 0x2F75 JUMPI PUSH2 0x2F74 PUSH2 0x2D2E JUMP JUMPDEST JUMPDEST PUSH2 0x2F81 DUP5 DUP3 DUP6 ADD PUSH2 0x2EC3 JUMP JUMPDEST PUSH1 0x40 DUP4 ADD MSTORE POP PUSH1 0x60 DUP3 ADD CALLDATALOAD PUSH8 0xFFFFFFFFFFFFFFFF DUP2 GT ISZERO PUSH2 0x2FA5 JUMPI PUSH2 0x2FA4 PUSH2 0x2D2E JUMP JUMPDEST JUMPDEST PUSH2 0x2FB1 DUP5 DUP3 DUP6 ADD PUSH2 0x2EC3 JUMP JUMPDEST PUSH1 0x60 DUP4 ADD MSTORE POP SWAP3 SWAP2 POP POP JUMP JUMPDEST PUSH1 0x0 PUSH2 0x2FD0 PUSH2 0x2FCB DUP5 PUSH2 0x2CF8 JUMP JUMPDEST PUSH2 0x2C01 JUMP JUMPDEST SWAP1 POP DUP1 DUP4 DUP3 MSTORE PUSH1 0x20 DUP3 ADD SWAP1 POP PUSH1 0x20 DUP5 MUL DUP4 ADD DUP6 DUP2 GT ISZERO PUSH2 0x2FF3 JUMPI PUSH2 0x2FF2 PUSH2 0x2D24 JUMP JUMPDEST JUMPDEST DUP4 JUMPDEST DUP2 DUP2 LT ISZERO PUSH2 0x303A JUMPI DUP1 CALLDATALOAD PUSH8 0xFFFFFFFFFFFFFFFF DUP2 GT ISZERO PUSH2 0x3018 JUMPI PUSH2 0x3017 PUSH2 0x2B86 JUMP JUMPDEST JUMPDEST DUP1 DUP7 ADD PUSH2 0x3025 DUP10 DUP3 PUSH2 0x2EF1 JUMP JUMPDEST DUP6 MSTORE PUSH1 0x20 DUP6 ADD SWAP5 POP POP POP PUSH1 0x20 DUP2 ADD SWAP1 POP PUSH2 0x2FF5 JUMP JUMPDEST POP POP POP SWAP4 SWAP3 POP POP POP JUMP JUMPDEST PUSH1 0x0 DUP3 PUSH1 0x1F DUP4 ADD SLT PUSH2 0x3059 JUMPI PUSH2 0x3058 PUSH2 0x2B86 JUMP JUMPDEST JUMPDEST DUP2 CALLDATALOAD PUSH2 0x3069 DUP5 DUP3 PUSH1 0x20 DUP7 ADD PUSH2 0x2FBD JUMP JUMPDEST SWAP2 POP POP SWAP3 SWAP2 POP POP JUMP JUMPDEST PUSH1 0x0 DUP1 PUSH1 0x0 DUP1 PUSH1 0x0 PUSH1 0xA0 DUP7 DUP9 SUB SLT ISZERO PUSH2 0x308E JUMPI PUSH2 0x308D PUSH2 0x2B50 JUMP JUMPDEST JUMPDEST PUSH1 0x0 PUSH2 0x309C DUP9 DUP3 DUP10 ADD PUSH2 0x2B71 JUMP JUMPDEST SWAP6 POP POP PUSH1 0x20 DUP7 ADD CALLDATALOAD PUSH8 0xFFFFFFFFFFFFFFFF DUP2 GT ISZERO PUSH2 0x30BD JUMPI PUSH2 0x30BC PUSH2 0x2B55 JUMP JUMPDEST JUMPDEST PUSH2 0x30C9 DUP9 DUP3 DUP10 ADD PUSH2 0x2C9E JUMP JUMPDEST SWAP5 POP POP PUSH1 0x40 PUSH2 0x30DA DUP9 DUP3 DUP10 ADD PUSH2 0x2CE3 JUMP JUMPDEST SWAP4 POP POP PUSH1 0x60 PUSH2 0x30EB DUP9 DUP3 DUP10 ADD PUSH2 0x2CE3 JUMP JUMPDEST SWAP3 POP POP PUSH1 0x80 DUP7 ADD CALLDATALOAD PUSH8 0xFFFFFFFFFFFFFFFF DUP2 GT ISZERO PUSH2 0x310C JUMPI PUSH2 0x310B PUSH2 0x2B55 JUMP JUMPDEST JUMPDEST PUSH2 0x3118 DUP9 DUP3 DUP10 ADD PUSH2 0x3044 JUMP JUMPDEST SWAP2 POP POP SWAP3 SWAP6 POP SWAP3 SWAP6 SWAP1 SWAP4 POP JUMP JUMPDEST PUSH1 0x0 DUP1 PUSH1 0x0 DUP1 PUSH1 0x0 PUSH1 0xA0 DUP7 DUP9 SUB SLT ISZERO PUSH2 0x3141 JUMPI PUSH2 0x3140 PUSH2 0x2B50 JUMP JUMPDEST JUMPDEST PUSH1 0x0 PUSH2 0x314F DUP9 DUP3 DUP10 ADD PUSH2 0x2B71 JUMP JUMPDEST SWAP6 POP POP PUSH1 0x20 PUSH2 0x3160 DUP9 DUP3 DUP10 ADD PUSH2 0x2B71 JUMP JUMPDEST SWAP5 POP POP PUSH1 0x40 PUSH2 0x3171 DUP9 DUP3 DUP10 ADD PUSH2 0x2CE3 JUMP JUMPDEST SWAP4 POP POP PUSH1 0x60 PUSH2 0x3182 DUP9 DUP3 DUP10 ADD PUSH2 0x2CE3 JUMP JUMPDEST SWAP3 POP POP PUSH1 0x80 PUSH2 0x3193 DUP9 DUP3 DUP10 ADD PUSH2 0x2CE3 JUMP JUMPDEST SWAP2 POP POP SWAP3 SWAP6 POP SWAP3 SWAP6 SWAP1 SWAP4 POP JUMP JUMPDEST PUSH1 0x0 PUSH1 0x20 DUP3 ADD SWAP1 POP PUSH2 0x31B5 PUSH1 0x0 DUP4 ADD DUP5 PUSH2 0x2AD9 JUMP JUMPDEST SWAP3 SWAP2 POP POP JUMP JUMPDEST PUSH1 0x0 PUSH1 0x20 DUP3 DUP5 SUB SLT ISZERO PUSH2 0x31D1 JUMPI PUSH2 0x31D0 PUSH2 0x2B50 JUMP JUMPDEST JUMPDEST PUSH1 0x0 PUSH2 0x31DF DUP5 DUP3 DUP6 ADD PUSH2 0x2CE3 JUMP JUMPDEST SWAP2 POP POP SWAP3 SWAP2 POP POP JUMP JUMPDEST PUSH1 0x0 DUP1 PUSH1 0x0 DUP1 PUSH1 0x80 DUP6 DUP8 SUB SLT ISZERO PUSH2 0x3202 JUMPI PUSH2 0x3201 PUSH2 0x2B50 JUMP JUMPDEST JUMPDEST PUSH1 0x0 PUSH2 0x3210 DUP8 DUP3 DUP9 ADD PUSH2 0x2B71 JUMP JUMPDEST SWAP5 POP POP PUSH1 0x20 PUSH2 0x3221 DUP8 DUP3 DUP9 ADD PUSH2 0x2B71 JUMP JUMPDEST SWAP4 POP POP PUSH1 0x40 PUSH2 0x3232 DUP8 DUP3 DUP9 ADD PUSH2 0x2CE3 JUMP JUMPDEST SWAP3 POP POP PUSH1 0x60 PUSH2 0x3243 DUP8 DUP3 DUP9 ADD PUSH2 0x2CE3 JUMP JUMPDEST SWAP2 POP POP SWAP3 SWAP6 SWAP2 SWAP5 POP SWAP3 POP JUMP JUMPDEST PUSH1 0x0 DUP2 MLOAD SWAP1 POP SWAP2 SWAP1 POP JUMP JUMPDEST PUSH1 0x0 DUP3 DUP3 MSTORE PUSH1 0x20 DUP3 ADD SWAP1 POP SWAP3 SWAP2 POP POP JUMP JUMPDEST PUSH1 0x0 DUP2 SWAP1 POP PUSH1 0x20 DUP3 ADD SWAP1 POP SWAP2 SWAP1 POP JUMP JUMPDEST PUSH2 0x3284 DUP2 PUSH2 0x2AE8 JUMP JUMPDEST DUP3 MSTORE POP POP JUMP JUMPDEST PUSH1 0x0 DUP2 MLOAD SWAP1 POP SWAP2 SWAP1 POP JUMP JUMPDEST PUSH1 0x0 DUP3 DUP3 MSTORE PUSH1 0x20 DUP3 ADD SWAP1 POP SWAP3 SWAP2 POP POP JUMP JUMPDEST PUSH1 0x0 DUP2 SWAP1 POP PUSH1 0x20 DUP3 ADD SWAP1 POP SWAP2 SWAP1 POP JUMP JUMPDEST PUSH2 0x32BF DUP2 PUSH2 0x2AC7 JUMP JUMPDEST DUP3 MSTORE POP POP JUMP JUMPDEST PUSH1 0x0 PUSH2 0x32D1 DUP4 DUP4 PUSH2 0x32B6 JUMP JUMPDEST PUSH1 0x20 DUP4 ADD SWAP1 POP SWAP3 SWAP2 POP POP JUMP JUMPDEST PUSH1 0x0 PUSH1 0x20 DUP3 ADD SWAP1 POP SWAP2 SWAP1 POP JUMP JUMPDEST PUSH1 0x0 PUSH2 0x32F5 DUP3 PUSH2 0x328A JUMP JUMPDEST PUSH2 0x32FF DUP2 DUP6 PUSH2 0x3295 JUMP JUMPDEST SWAP4 POP PUSH2 0x330A DUP4 PUSH2 0x32A6 JUMP JUMPDEST DUP1 PUSH1 0x0 JUMPDEST DUP4 DUP2 LT ISZERO PUSH2 0x333B JUMPI DUP2 MLOAD PUSH2 0x3322 DUP9 DUP3 PUSH2 0x32C5 JUMP JUMPDEST SWAP8 POP PUSH2 0x332D DUP4 PUSH2 0x32DD JUMP JUMPDEST SWAP3 POP POP PUSH1 0x1 DUP2 ADD SWAP1 POP PUSH2 0x330E JUMP JUMPDEST POP DUP6 SWAP4 POP POP POP POP SWAP3 SWAP2 POP POP JUMP JUMPDEST PUSH1 0x0 DUP2 MLOAD SWAP1 POP SWAP2 SWAP1 POP JUMP JUMPDEST PUSH1 0x0 DUP3 DUP3 MSTORE PUSH1 0x20 DUP3 ADD SWAP1 POP SWAP3 SWAP2 POP POP JUMP JUMPDEST PUSH1 0x0 DUP2 SWAP1 POP PUSH1 0x20 DUP3 ADD SWAP1 POP SWAP2 SWAP1 POP JUMP JUMPDEST PUSH2 0x337D DUP2 PUSH2 0x2E22 JUMP JUMPDEST DUP3 MSTORE POP POP JUMP JUMPDEST PUSH1 0x0 PUSH2 0x338F DUP4 DUP4 PUSH2 0x3374 JUMP JUMPDEST PUSH1 0x20 DUP4 ADD SWAP1 POP SWAP3 SWAP2 POP POP JUMP JUMPDEST PUSH1 0x0 PUSH1 0x20 DUP3 ADD SWAP1 POP SWAP2 SWAP1 POP JUMP JUMPDEST PUSH1 0x0 PUSH2 0x33B3 DUP3 PUSH2 0x3348 JUMP JUMPDEST PUSH2 0x33BD DUP2 DUP6 PUSH2 0x3353 JUMP JUMPDEST SWAP4 POP PUSH2 0x33C8 DUP4 PUSH2 0x3364 JUMP JUMPDEST DUP1 PUSH1 0x0 JUMPDEST DUP4 DUP2 LT ISZERO PUSH2 0x33F9 JUMPI DUP2 MLOAD PUSH2 0x33E0 DUP9 DUP3 PUSH2 0x3383 JUMP JUMPDEST SWAP8 POP PUSH2 0x33EB DUP4 PUSH2 0x339B JUMP JUMPDEST SWAP3 POP POP PUSH1 0x1 DUP2 ADD SWAP1 POP PUSH2 0x33CC JUMP JUMPDEST POP DUP6 SWAP4 POP POP POP POP SWAP3 SWAP2 POP POP JUMP JUMPDEST PUSH1 0x0 PUSH1 0x80 DUP4 ADD PUSH1 0x0 DUP4 ADD MLOAD PUSH2 0x341E PUSH1 0x0 DUP7 ADD DUP3 PUSH2 0x327B JUMP JUMPDEST POP PUSH1 0x20 DUP4 ADD MLOAD DUP5 DUP3 SUB PUSH1 0x20 DUP7 ADD MSTORE PUSH2 0x3436 DUP3 DUP3 PUSH2 0x32EA JUMP JUMPDEST SWAP2 POP POP PUSH1 0x40 DUP4 ADD MLOAD DUP5 DUP3 SUB PUSH1 0x40 DUP7 ADD MSTORE PUSH2 0x3450 DUP3 DUP3 PUSH2 0x33A8 JUMP JUMPDEST SWAP2 POP POP PUSH1 0x60 DUP4 ADD MLOAD DUP5 DUP3 SUB PUSH1 0x60 DUP7 ADD MSTORE PUSH2 0x346A DUP3 DUP3 PUSH2 0x33A8 JUMP JUMPDEST SWAP2 POP POP DUP1 SWAP2 POP POP SWAP3 SWAP2 POP POP JUMP JUMPDEST PUSH1 0x0 PUSH2 0x3483 DUP4 DUP4 PUSH2 0x3406 JUMP JUMPDEST SWAP1 POP SWAP3 SWAP2 POP POP JUMP JUMPDEST PUSH1 0x0 PUSH1 0x20 DUP3 ADD SWAP1 POP SWAP2 SWAP1 POP JUMP JUMPDEST PUSH1 0x0 PUSH2 0x34A3 DUP3 PUSH2 0x324F JUMP JUMPDEST PUSH2 0x34AD DUP2 DUP6 PUSH2 0x325A JUMP JUMPDEST SWAP4 POP DUP4 PUSH1 0x20 DUP3 MUL DUP6 ADD PUSH2 0x34BF DUP6 PUSH2 0x326B JUMP JUMPDEST DUP1 PUSH1 0x0 JUMPDEST DUP6 DUP2 LT ISZERO PUSH2 0x34FB JUMPI DUP5 DUP5 SUB DUP10 MSTORE DUP2 MLOAD PUSH2 0x34DC DUP6 DUP3 PUSH2 0x3477 JUMP JUMPDEST SWAP5 POP PUSH2 0x34E7 DUP4 PUSH2 0x348B JUMP JUMPDEST SWAP3 POP PUSH1 0x20 DUP11 ADD SWAP10 POP POP PUSH1 0x1 DUP2 ADD SWAP1 POP PUSH2 0x34C3 JUMP JUMPDEST POP DUP3 SWAP8 POP DUP8 SWAP6 POP POP POP POP POP POP SWAP3 SWAP2 POP POP JUMP JUMPDEST PUSH1 0x0 PUSH1 0x20 DUP3 ADD SWAP1 POP DUP2 DUP2 SUB PUSH1 0x0 DUP4 ADD MSTORE PUSH2 0x3527 DUP2 DUP5 PUSH2 0x3498 JUMP JUMPDEST SWAP1 POP SWAP3 SWAP2 POP POP JUMP JUMPDEST PUSH1 0x0 DUP1 PUSH1 0x40 DUP4 DUP6 SUB SLT ISZERO PUSH2 0x3546 JUMPI PUSH2 0x3545 PUSH2 0x2B50 JUMP JUMPDEST JUMPDEST PUSH1 0x0 PUSH2 0x3554 DUP6 DUP3 DUP7 ADD PUSH2 0x2CE3 JUMP JUMPDEST SWAP3 POP POP PUSH1 0x20 PUSH2 0x3565 DUP6 DUP3 DUP7 ADD PUSH2 0x2B71 JUMP JUMPDEST SWAP2 POP POP SWAP3 POP SWAP3 SWAP1 POP JUMP JUMPDEST PUSH1 0x0 PUSH1 0x20 DUP3 DUP5 SUB SLT ISZERO PUSH2 0x3585 JUMPI PUSH2 0x3584 PUSH2 0x2B50 JUMP JUMPDEST JUMPDEST PUSH1 0x0 PUSH2 0x3593 DUP5 DUP3 DUP6 ADD PUSH2 0x2B71 JUMP JUMPDEST SWAP2 POP POP SWAP3 SWAP2 POP POP JUMP JUMPDEST PUSH1 0x0 PUSH1 0x20 DUP3 ADD SWAP1 POP PUSH2 0x35B1 PUSH1 0x0 DUP4 ADD DUP5 PUSH2 0x2AF2 JUMP JUMPDEST SWAP3 SWAP2 POP POP JUMP JUMPDEST PUSH1 0x0 DUP2 SWAP1 POP SWAP2 SWAP1 POP JUMP JUMPDEST PUSH1 0x0 PUSH2 0x35DC PUSH2 0x35D7 PUSH2 0x35D2 DUP5 PUSH2 0x2AA7 JUMP JUMPDEST PUSH2 0x35B7 JUMP JUMPDEST PUSH2 0x2AA7 JUMP JUMPDEST SWAP1 POP SWAP2 SWAP1 POP JUMP JUMPDEST PUSH1 0x0 PUSH2 0x35EE DUP3 PUSH2 0x35C1 JUMP JUMPDEST SWAP1 POP SWAP2 SWAP1 POP JUMP JUMPDEST PUSH1 0x0 PUSH2 0x3600 DUP3 PUSH2 0x35E3 JUMP JUMPDEST SWAP1 POP SWAP2 SWAP1 POP JUMP JUMPDEST PUSH2 0x3610 DUP2 PUSH2 0x35F5 JUMP JUMPDEST DUP3 MSTORE POP POP JUMP JUMPDEST PUSH1 0x0 PUSH1 0x20 DUP3 ADD SWAP1 POP PUSH2 0x362B PUSH1 0x0 DUP4 ADD DUP5 PUSH2 0x3607 JUMP JUMPDEST SWAP3 SWAP2 POP POP JUMP JUMPDEST PUSH1 0x0 DUP1 PUSH1 0x0 PUSH1 0x60 DUP5 DUP7 SUB SLT ISZERO PUSH2 0x364A JUMPI PUSH2 0x3649 PUSH2 0x2B50 JUMP JUMPDEST JUMPDEST PUSH1 0x0 PUSH2 0x3658 DUP7 DUP3 DUP8 ADD PUSH2 0x2B71 JUMP JUMPDEST SWAP4 POP POP PUSH1 0x20 PUSH2 0x3669 DUP7 DUP3 DUP8 ADD PUSH2 0x2B71 JUMP JUMPDEST SWAP3 POP POP PUSH1 0x40 PUSH2 0x367A DUP7 DUP3 DUP8 ADD PUSH2 0x2CE3 JUMP JUMPDEST SWAP2 POP POP SWAP3 POP SWAP3 POP SWAP3 JUMP JUMPDEST PUSH1 0x0 DUP2 MLOAD SWAP1 POP PUSH2 0x3693 DUP2 PUSH2 0x2E2E JUMP JUMPDEST SWAP3 SWAP2 POP POP JUMP JUMPDEST PUSH1 0x0 PUSH1 0x20 DUP3 DUP5 SUB SLT ISZERO PUSH2 0x36AF JUMPI PUSH2 0x36AE PUSH2 0x2B50 JUMP JUMPDEST JUMPDEST PUSH1 0x0 PUSH2 0x36BD DUP5 DUP3 DUP6 ADD PUSH2 0x3684 JUMP JUMPDEST SWAP2 POP POP SWAP3 SWAP2 POP POP JUMP JUMPDEST PUSH1 0x0 DUP3 DUP3 MSTORE PUSH1 0x20 DUP3 ADD SWAP1 POP SWAP3 SWAP2 POP POP JUMP JUMPDEST PUSH32 0x466972737420726567697374657220796F757273656C66210000000000000000 PUSH1 0x0 DUP3 ADD MSTORE POP JUMP JUMPDEST PUSH1 0x0 PUSH2 0x370D PUSH1 0x18 DUP4 PUSH2 0x36C6 JUMP JUMPDEST SWAP2 POP PUSH2 0x3718 DUP3 PUSH2 0x36D7 JUMP JUMPDEST PUSH1 0x20 DUP3 ADD SWAP1 POP SWAP2 SWAP1 POP JUMP JUMPDEST PUSH1 0x0 PUSH1 0x20 DUP3 ADD SWAP1 POP DUP2 DUP2 SUB PUSH1 0x0 DUP4 ADD MSTORE PUSH2 0x373C DUP2 PUSH2 0x3700 JUMP JUMPDEST SWAP1 POP SWAP2 SWAP1 POP JUMP JUMPDEST PUSH32 0x46697273742076657269667920796F757220656D61696C000000000000000000 PUSH1 0x0 DUP3 ADD MSTORE POP JUMP JUMPDEST PUSH1 0x0 PUSH2 0x3779 PUSH1 0x17 DUP4 PUSH2 0x36C6 JUMP JUMPDEST SWAP2 POP PUSH2 0x3784 DUP3 PUSH2 0x3743 JUMP JUMPDEST PUSH1 0x20 DUP3 ADD SWAP1 POP SWAP2 SWAP1 POP JUMP JUMPDEST PUSH1 0x0 PUSH1 0x20 DUP3 ADD SWAP1 POP DUP2 DUP2 SUB PUSH1 0x0 DUP4 ADD MSTORE PUSH2 0x37A8 DUP2 PUSH2 0x376C JUMP JUMPDEST SWAP1 POP SWAP2 SWAP1 POP JUMP JUMPDEST PUSH1 0x0 DUP2 MLOAD SWAP1 POP PUSH2 0x37BE DUP2 PUSH2 0x2B5A JUMP JUMPDEST SWAP3 SWAP2 POP POP JUMP JUMPDEST PUSH1 0x0 PUSH2 0x37D7 PUSH2 0x37D2 DUP5 PUSH2 0x2D33 JUMP JUMPDEST PUSH2 0x2C01 JUMP JUMPDEST SWAP1 POP DUP1 DUP4 DUP3 MSTORE PUSH1 0x20 DUP3 ADD SWAP1 POP PUSH1 0x20 DUP5 MUL DUP4 ADD DUP6 DUP2 GT ISZERO PUSH2 0x37FA JUMPI PUSH2 0x37F9 PUSH2 0x2D24 JUMP JUMPDEST JUMPDEST DUP4 JUMPDEST DUP2 DUP2 LT ISZERO PUSH2 0x3823 JUMPI DUP1 PUSH2 0x380F DUP9 DUP3 PUSH2 0x37AF JUMP JUMPDEST DUP5 MSTORE PUSH1 0x20 DUP5 ADD SWAP4 POP POP PUSH1 0x20 DUP2 ADD SWAP1 POP PUSH2 0x37FC JUMP JUMPDEST POP POP POP SWAP4 SWAP3 POP POP POP JUMP JUMPDEST PUSH1 0x0 DUP3 PUSH1 0x1F DUP4 ADD SLT PUSH2 0x3842 JUMPI PUSH2 0x3841 PUSH2 0x2B86 JUMP JUMPDEST JUMPDEST DUP2 MLOAD PUSH2 0x3852 DUP5 DUP3 PUSH1 0x20 DUP7 ADD PUSH2 0x37C4 JUMP JUMPDEST SWAP2 POP POP SWAP3 SWAP2 POP POP JUMP JUMPDEST PUSH1 0x0 PUSH1 0x20 DUP3 DUP5 SUB SLT ISZERO PUSH2 0x3871 JUMPI PUSH2 0x3870 PUSH2 0x2B50 JUMP JUMPDEST JUMPDEST PUSH1 0x0 DUP3 ADD MLOAD PUSH8 0xFFFFFFFFFFFFFFFF DUP2 GT ISZERO PUSH2 0x388F JUMPI PUSH2 0x388E PUSH2 0x2B55 JUMP JUMPDEST JUMPDEST PUSH2 0x389B DUP5 DUP3 DUP6 ADD PUSH2 0x382D JUMP JUMPDEST SWAP2 POP POP SWAP3 SWAP2 POP POP JUMP JUMPDEST PUSH32 0x4E487B7100000000000000000000000000000000000000000000000000000000 PUSH1 0x0 MSTORE PUSH1 0x32 PUSH1 0x4 MSTORE PUSH1 0x24 PUSH1 0x0 REVERT JUMPDEST PUSH32 0x4E487B7100000000000000000000000000000000000000000000000000000000 PUSH1 0x0 MSTORE PUSH1 0x11 PUSH1 0x4 MSTORE PUSH1 0x24 PUSH1 0x0 REVERT JUMPDEST PUSH1 0x0 PUSH2 0x390D DUP3 PUSH2 0x2AE8 JUMP JUMPDEST SWAP2 POP PUSH32 0xFFFFFFFFFFFFFFFFFFFFFFFFFFFFFFFFFFFFFFFFFFFFFFFFFFFFFFFFFFFFFFFF DUP3 SUB PUSH2 0x393F JUMPI PUSH2 0x393E PUSH2 0x38D3 JUMP JUMPDEST JUMPDEST PUSH1 0x1 DUP3 ADD SWAP1 POP SWAP2 SWAP1 POP JUMP JUMPDEST PUSH32 0x636865636B20616C6C20746865206E6F6D696E65657320796F75206172652065 PUSH1 0x0 DUP3 ADD MSTORE PUSH32 0x6E746572696E67206172652061646465642E0000000000000000000000000000 PUSH1 0x20 DUP3 ADD MSTORE POP JUMP JUMPDEST PUSH1 0x0 PUSH2 0x39A6 PUSH1 0x32 DUP4 PUSH2 0x36C6 JUMP JUMPDEST SWAP2 POP PUSH2 0x39B1 DUP3 PUSH2 0x394A JUMP JUMPDEST PUSH1 0x40 DUP3 ADD SWAP1 POP SWAP2 SWAP1 POP JUMP JUMPDEST PUSH1 0x0 PUSH1 0x20 DUP3 ADD SWAP1 POP DUP2 DUP2 SUB PUSH1 0x0 DUP4 ADD MSTORE PUSH2 0x39D5 DUP2 PUSH2 0x3999 JUMP JUMPDEST SWAP1 POP SWAP2 SWAP1 POP JUMP JUMPDEST PUSH1 0x0 PUSH1 0x40 DUP3 ADD SWAP1 POP PUSH2 0x39F1 PUSH1 0x0 DUP4 ADD DUP6 PUSH2 0x2AD9 JUMP JUMPDEST PUSH2 0x39FE PUSH1 0x20 DUP4 ADD DUP5 PUSH2 0x2AD9 JUMP JUMPDEST SWAP4 SWAP3 POP POP POP JUMP JUMPDEST PUSH1 0x0 JUMPDEST DUP4 DUP2 LT ISZERO PUSH2 0x3A23 JUMPI DUP1 DUP3 ADD MLOAD DUP2 DUP5 ADD MSTORE PUSH1 0x20 DUP2 ADD SWAP1 POP PUSH2 0x3A08 JUMP JUMPDEST PUSH1 0x0 DUP5 DUP5 ADD MSTORE POP POP POP POP JUMP JUMPDEST PUSH1 0x0 PUSH2 0x3A42 PUSH2 0x3A3D DUP5 PUSH2 0x2C1C JUMP JUMPDEST PUSH2 0x2C01 JUMP JUMPDEST SWAP1 POP DUP3 DUP2 MSTORE PUSH1 0x20 DUP2 ADD DUP5 DUP5 DUP5 ADD GT ISZERO PUSH2 0x3A5E JUMPI PUSH2 0x3A5D PUSH2 0x2B8B JUMP JUMPDEST JUMPDEST PUSH2 0x3A69 DUP5 DUP3 DUP6 PUSH2 0x3A05 JUMP JUMPDEST POP SWAP4 SWAP3 POP POP POP JUMP JUMPDEST PUSH1 0x0 DUP3 PUSH1 0x1F DUP4 ADD SLT PUSH2 0x3A86 JUMPI PUSH2 0x3A85 PUSH2 0x2B86 JUMP JUMPDEST JUMPDEST DUP2 MLOAD PUSH2 0x3A96 DUP5 DUP3 PUSH1 0x20 DUP7 ADD PUSH2 0x3A2F JUMP JUMPDEST SWAP2 POP POP SWAP3 SWAP2 POP POP JUMP JUMPDEST PUSH1 0x0 DUP2 MLOAD SWAP1 POP PUSH2 0x3AAE DUP2 PUSH2 0x2CCC JUMP JUMPDEST SWAP3 SWAP2 POP POP JUMP JUMPDEST PUSH1 0x0 DUP1 PUSH1 0x0 DUP1 PUSH1 0x0 DUP1 PUSH1 0xC0 DUP8 DUP10 SUB SLT ISZERO PUSH2 0x3AD1 JUMPI PUSH2 0x3AD0 PUSH2 0x2B50 JUMP JUMPDEST JUMPDEST PUSH1 0x0 PUSH2 0x3ADF DUP10 DUP3 DUP11 ADD PUSH2 0x37AF JUMP JUMPDEST SWAP7 POP POP PUSH1 0x20 DUP8 ADD MLOAD PUSH8 0xFFFFFFFFFFFFFFFF DUP2 GT ISZERO PUSH2 0x3B00 JUMPI PUSH2 0x3AFF PUSH2 0x2B55 JUMP JUMPDEST JUMPDEST PUSH2 0x3B0C DUP10 DUP3 DUP11 ADD PUSH2 0x3A71 JUMP JUMPDEST SWAP6 POP POP PUSH1 0x40 PUSH2 0x3B1D DUP10 DUP3 DUP11 ADD PUSH2 0x3A9F JUMP JUMPDEST SWAP5 POP POP PUSH1 0x60 PUSH2 0x3B2E DUP10 DUP3 DUP11 ADD PUSH2 0x3A9F JUMP JUMPDEST SWAP4 POP POP PUSH1 0x80 PUSH2 0x3B3F DUP10 DUP3 DUP11 ADD PUSH2 0x3A9F JUMP JUMPDEST SWAP3 POP POP PUSH1 0xA0 PUSH2 0x3B50 DUP10 DUP3 DUP11 ADD PUSH2 0x3684 JUMP JUMPDEST SWAP2 POP POP SWAP3 SWAP6 POP SWAP3 SWAP6 POP SWAP3 SWAP6 JUMP JUMPDEST PUSH1 0x0 PUSH2 0x3B68 DUP3 PUSH2 0x2AE8 JUMP JUMPDEST SWAP2 POP PUSH2 0x3B73 DUP4 PUSH2 0x2AE8 JUMP JUMPDEST SWAP3 POP DUP3 DUP3 ADD SWAP1 POP DUP1 DUP3 GT ISZERO PUSH2 0x3B8B JUMPI PUSH2 0x3B8A PUSH2 0x38D3 JUMP JUMPDEST JUMPDEST SWAP3 SWAP2 POP POP JUMP JUMPDEST PUSH32 0x5265647563652074686520736861726520616D6F756E742E2E2E000000000000 PUSH1 0x0 DUP3 ADD MSTORE POP JUMP JUMPDEST PUSH1 0x0 PUSH2 0x3BC7 PUSH1 0x1A DUP4 PUSH2 0x36C6 JUMP JUMPDEST SWAP2 POP PUSH2 0x3BD2 DUP3 PUSH2 0x3B91 JUMP JUMPDEST PUSH1 0x20 DUP3 ADD SWAP1 POP SWAP2 SWAP1 POP JUMP JUMPDEST PUSH1 0x0 PUSH1 0x20 DUP3 ADD SWAP1 POP DUP2 DUP2 SUB PUSH1 0x0 DUP4 ADD MSTORE PUSH2 0x3BF6 DUP2 PUSH2 0x3BBA JUMP JUMPDEST SWAP1 POP SWAP2 SWAP1 POP JUMP JUMPDEST PUSH1 0x0 DUP2 MLOAD SWAP1 POP SWAP2 SWAP1 POP JUMP JUMPDEST PUSH1 0x0 PUSH2 0x3C13 DUP3 PUSH2 0x3BFD JUMP JUMPDEST PUSH2 0x3C1D DUP2 DUP6 PUSH2 0x36C6 JUMP JUMPDEST SWAP4 POP PUSH2 0x3C2D DUP2 DUP6 PUSH1 0x20 DUP7 ADD PUSH2 0x3A05 JUMP JUMPDEST PUSH2 0x3C36 DUP2 PUSH2 0x2B90 JUMP JUMPDEST DUP5 ADD SWAP2 POP POP SWAP3 SWAP2 POP POP JUMP JUMPDEST PUSH1 0x0 PUSH1 0xC0 DUP3 ADD SWAP1 POP PUSH2 0x3C56 PUSH1 0x0 DUP4 ADD DUP10 PUSH2 0x2AD9 JUMP JUMPDEST PUSH2 0x3C63 PUSH1 0x20 DUP4 ADD DUP9 PUSH2 0x2AD9 JUMP JUMPDEST DUP2 DUP2 SUB PUSH1 0x40 DUP4 ADD MSTORE PUSH2 0x3C75 DUP2 DUP8 PUSH2 0x3C08 JUMP JUMPDEST SWAP1 POP PUSH2 0x3C84 PUSH1 0x60 DUP4 ADD DUP7 PUSH2 0x2AF2 JUMP JUMPDEST PUSH2 0x3C91 PUSH1 0x80 DUP4 ADD DUP6 PUSH2 0x2AF2 JUMP JUMPDEST PUSH2 0x3C9E PUSH1 0xA0 DUP4 ADD DUP5 PUSH2 0x2AF2 JUMP JUMPDEST SWAP8 SWAP7 POP POP POP POP POP POP POP JUMP JUMPDEST PUSH1 0x0 PUSH1 0x60 DUP3 ADD SWAP1 POP PUSH2 0x3CBE PUSH1 0x0 DUP4 ADD DUP7 PUSH2 0x2AD9 JUMP JUMPDEST PUSH2 0x3CCB PUSH1 0x20 DUP4 ADD DUP6 PUSH2 0x2AD9 JUMP JUMPDEST PUSH2 0x3CD8 PUSH1 0x40 DUP4 ADD DUP5 PUSH2 0x2AF2 JUMP JUMPDEST SWAP5 SWAP4 POP POP POP POP JUMP JUMPDEST PUSH32 0x43617465676F72792076616C7565206973203020666F7220746F6B656E732061 PUSH1 0x0 DUP3 ADD MSTORE PUSH32 0x6E64203120666F72204E46540000000000000000000000000000000000000000 PUSH1 0x20 DUP3 ADD MSTORE POP JUMP JUMPDEST PUSH1 0x0 PUSH2 0x3D3C PUSH1 0x2C DUP4 PUSH2 0x36C6 JUMP JUMPDEST SWAP2 POP PUSH2 0x3D47 DUP3 PUSH2 0x3CE0 JUMP JUMPDEST PUSH1 0x40 DUP3 ADD SWAP1 POP SWAP2 SWAP1 POP JUMP JUMPDEST PUSH1 0x0 PUSH1 0x20 DUP3 ADD SWAP1 POP DUP2 DUP2 SUB PUSH1 0x0 DUP4 ADD MSTORE PUSH2 0x3D6B DUP2 PUSH2 0x3D2F JUMP JUMPDEST SWAP1 POP SWAP2 SWAP1 POP JUMP JUMPDEST PUSH1 0x0 PUSH1 0xA0 DUP3 ADD SWAP1 POP PUSH2 0x3D87 PUSH1 0x0 DUP4 ADD DUP9 PUSH2 0x2AD9 JUMP JUMPDEST PUSH2 0x3D94 PUSH1 0x20 DUP4 ADD DUP8 PUSH2 0x2AD9 JUMP JUMPDEST PUSH2 0x3DA1 PUSH1 0x40 DUP4 ADD DUP7 PUSH2 0x2AF2 JUMP JUMPDEST PUSH2 0x3DAE PUSH1 0x60 DUP4 ADD DUP6 PUSH2 0x2AF2 JUMP JUMPDEST PUSH2 0x3DBB PUSH1 0x80 DUP4 ADD DUP5 PUSH2 0x2AF2 JUMP JUMPDEST SWAP7 SWAP6 POP POP POP POP POP POP JUMP JUMPDEST PUSH1 0x0 PUSH1 0x40 DUP3 ADD SWAP1 POP PUSH2 0x3DDA PUSH1 0x0 DUP4 ADD DUP6 PUSH2 0x2AD9 JUMP JUMPDEST PUSH2 0x3DE7 PUSH1 0x20 DUP4 ADD DUP5 PUSH2 0x2AF2 JUMP JUMPDEST SWAP4 SWAP3 POP POP POP JUMP JUMPDEST PUSH1 0x0 PUSH2 0x3DF9 DUP3 PUSH2 0x2AE8 JUMP JUMPDEST SWAP2 POP PUSH2 0x3E04 DUP4 PUSH2 0x2AE8 JUMP JUMPDEST SWAP3 POP DUP3 DUP3 MUL PUSH2 0x3E12 DUP2 PUSH2 0x2AE8 JUMP JUMPDEST SWAP2 POP DUP3 DUP3 DIV DUP5 EQ DUP4 ISZERO OR PUSH2 0x3E29 JUMPI PUSH2 0x3E28 PUSH2 0x38D3 JUMP JUMPDEST JUMPDEST POP SWAP3 SWAP2 POP POP JUMP JUMPDEST PUSH32 0x4E487B7100000000000000000000000000000000000000000000000000000000 PUSH1 0x0 MSTORE PUSH1 0x12 PUSH1 0x4 MSTORE PUSH1 0x24 PUSH1 0x0 REVERT JUMPDEST PUSH1 0x0 PUSH2 0x3E6A DUP3 PUSH2 0x2AE8 JUMP JUMPDEST SWAP2 POP PUSH2 0x3E75 DUP4 PUSH2 0x2AE8 JUMP JUMPDEST SWAP3 POP DUP3 PUSH2 0x3E85 JUMPI PUSH2 0x3E84 PUSH2 0x3E30 JUMP JUMPDEST JUMPDEST DUP3 DUP3 DIV SWAP1 POP SWAP3 SWAP2 POP POP JUMP JUMPDEST PUSH1 0x0 PUSH2 0x3E9B DUP3 PUSH2 0x2AE8 JUMP JUMPDEST SWAP2 POP PUSH2 0x3EA6 DUP4 PUSH2 0x2AE8 JUMP JUMPDEST SWAP3 POP DUP3 DUP3 SUB SWAP1 POP DUP2 DUP2 GT ISZERO PUSH2 0x3EBE JUMPI PUSH2 0x3EBD PUSH2 0x38D3 JUMP JUMPDEST JUMPDEST SWAP3 SWAP2 POP POP JUMP JUMPDEST PUSH1 0x0 PUSH1 0x40 DUP3 ADD SWAP1 POP PUSH2 0x3ED9 PUSH1 0x0 DUP4 ADD DUP6 PUSH2 0x2AF2 JUMP JUMPDEST PUSH2 0x3EE6 PUSH1 0x20 DUP4 ADD DUP5 PUSH2 0x2AF2 JUMP JUMPDEST SWAP4 SWAP3 POP POP POP JUMP JUMPDEST PUSH1 0x0 PUSH8 0xFFFFFFFFFFFFFFFF DUP3 GT ISZERO PUSH2 0x3F08 JUMPI PUSH2 0x3F07 PUSH2 0x2BA1 JUMP JUMPDEST JUMPDEST PUSH1 0x20 DUP3 MUL SWAP1 POP PUSH1 0x20 DUP2 ADD SWAP1 POP SWAP2 SWAP1 POP JUMP JUMPDEST PUSH1 0x0 PUSH2 0x3F2C PUSH2 0x3F27 DUP5 PUSH2 0x3EED JUMP JUMPDEST PUSH2 0x2C01 JUMP JUMPDEST SWAP1 POP DUP1 DUP4 DUP3 MSTORE PUSH1 0x20 DUP3 ADD SWAP1 POP PUSH1 0x20 DUP5 MUL DUP4 ADD DUP6 DUP2 GT ISZERO PUSH2 0x3F4F JUMPI PUSH2 0x3F4E PUSH2 0x2D24 JUMP JUMPDEST JUMPDEST DUP4 JUMPDEST DUP2 DUP2 LT ISZERO PUSH2 0x3F78 JUMPI DUP1 PUSH2 0x3F64 DUP9 DUP3 PUSH2 0x3A9F JUMP JUMPDEST DUP5 MSTORE PUSH1 0x20 DUP5 ADD SWAP4 POP POP PUSH1 0x20 DUP2 ADD SWAP1 POP PUSH2 0x3F51 JUMP JUMPDEST POP POP POP SWAP4 SWAP3 POP POP POP JUMP JUMPDEST PUSH1 0x0 DUP3 PUSH1 0x1F DUP4 ADD SLT PUSH2 0x3F97 JUMPI PUSH2 0x3F96 PUSH2 0x2B86 JUMP JUMPDEST JUMPDEST DUP2 MLOAD PUSH2 0x3FA7 DUP5 DUP3 PUSH1 0x20 DUP7 ADD PUSH2 0x3F19 JUMP JUMPDEST SWAP2 POP POP SWAP3 SWAP2 POP POP JUMP JUMPDEST PUSH1 0x0 PUSH2 0x1A0 DUP3 DUP5 SUB SLT ISZERO PUSH2 0x3FC7 JUMPI PUSH2 0x3FC6 PUSH2 0x2D29 JUMP JUMPDEST JUMPDEST PUSH2 0x3FD2 PUSH2 0x1A0 PUSH2 0x2C01 JUMP JUMPDEST SWAP1 POP PUSH1 0x0 DUP3 ADD MLOAD PUSH8 0xFFFFFFFFFFFFFFFF DUP2 GT ISZERO PUSH2 0x3FF2 JUMPI PUSH2 0x3FF1 PUSH2 0x2D2E JUMP JUMPDEST JUMPDEST PUSH2 0x3FFE DUP5 DUP3 DUP6 ADD PUSH2 0x3A71 JUMP JUMPDEST PUSH1 0x0 DUP4 ADD MSTORE POP PUSH1 0x20 DUP3 ADD MLOAD PUSH8 0xFFFFFFFFFFFFFFFF DUP2 GT ISZERO PUSH2 0x4022 JUMPI PUSH2 0x4021 PUSH2 0x2D2E JUMP JUMPDEST JUMPDEST PUSH2 0x402E DUP5 DUP3 DUP6 ADD PUSH2 0x3A71 JUMP JUMPDEST PUSH1 0x20 DUP4 ADD MSTORE POP PUSH1 0x40 DUP3 ADD MLOAD PUSH8 0xFFFFFFFFFFFFFFFF DUP2 GT ISZERO PUSH2 0x4052 JUMPI PUSH2 0x4051 PUSH2 0x2D2E JUMP JUMPDEST JUMPDEST PUSH2 0x405E DUP5 DUP3 DUP6 ADD PUSH2 0x3A71 JUMP JUMPDEST PUSH1 0x40 DUP4 ADD MSTORE POP PUSH1 0x60 DUP3 ADD MLOAD PUSH8 0xFFFFFFFFFFFFFFFF DUP2 GT ISZERO PUSH2 0x4082 JUMPI PUSH2 0x4081 PUSH2 0x2D2E JUMP JUMPDEST JUMPDEST PUSH2 0x408E DUP5 DUP3 DUP6 ADD PUSH2 0x3A71 JUMP JUMPDEST PUSH1 0x60 DUP4 ADD MSTORE POP PUSH1 0x80 PUSH2 0x40A2 DUP5 DUP3 DUP6 ADD PUSH2 0x3684 JUMP JUMPDEST PUSH1 0x80 DUP4 ADD MSTORE POP PUSH1 0xA0 PUSH2 0x40B6 DUP5 DUP3 DUP6 ADD PUSH2 0x3684 JUMP JUMPDEST PUSH1 0xA0 DUP4 ADD MSTORE POP PUSH1 0xC0 PUSH2 0x40CA DUP5 DUP3 DUP6 ADD PUSH2 0x3684 JUMP JUMPDEST PUSH1 0xC0 DUP4 ADD MSTORE POP PUSH1 0xE0 PUSH2 0x40DE DUP5 DUP3 DUP6 ADD PUSH2 0x37AF JUMP JUMPDEST PUSH1 0xE0 DUP4 ADD MSTORE POP PUSH2 0x100 DUP3 ADD MLOAD PUSH8 0xFFFFFFFFFFFFFFFF DUP2 GT ISZERO PUSH2 0x4103 JUMPI PUSH2 0x4102 PUSH2 0x2D2E JUMP JUMPDEST JUMPDEST PUSH2 0x410F DUP5 DUP3 DUP6 ADD PUSH2 0x382D JUMP JUMPDEST PUSH2 0x100 DUP4 ADD MSTORE POP PUSH2 0x120 DUP3 ADD MLOAD PUSH8 0xFFFFFFFFFFFFFFFF DUP2 GT ISZERO PUSH2 0x4135 JUMPI PUSH2 0x4134 PUSH2 0x2D2E JUMP JUMPDEST JUMPDEST PUSH2 0x4141 DUP5 DUP3 DUP6 ADD PUSH2 0x3F82 JUMP JUMPDEST PUSH2 0x120 DUP4 ADD MSTORE POP PUSH2 0x140 PUSH2 0x4157 DUP5 DUP3 DUP6 ADD PUSH2 0x3A9F JUMP JUMPDEST PUSH2 0x140 DUP4 ADD MSTORE POP PUSH2 0x160 PUSH2 0x416D DUP5 DUP3 DUP6 ADD PUSH2 0x3A9F JUMP JUMPDEST PUSH2 0x160 DUP4 ADD MSTORE POP PUSH2 0x180 PUSH2 0x4183 DUP5 DUP3 DUP6 ADD PUSH2 0x3A9F JUMP JUMPDEST PUSH2 0x180 DUP4 ADD MSTORE POP SWAP3 SWAP2 POP POP JUMP JUMPDEST PUSH1 0x0 PUSH1 0x20 DUP3 DUP5 SUB SLT ISZERO PUSH2 0x41A6 JUMPI PUSH2 0x41A5 PUSH2 0x2B50 JUMP JUMPDEST JUMPDEST PUSH1 0x0 DUP3 ADD MLOAD PUSH8 0xFFFFFFFFFFFFFFFF DUP2 GT ISZERO PUSH2 0x41C4 JUMPI PUSH2 0x41C3 PUSH2 0x2B55 JUMP JUMPDEST JUMPDEST PUSH2 0x41D0 DUP5 DUP3 DUP6 ADD PUSH2 0x3FB0 JUMP JUMPDEST SWAP2 POP POP SWAP3 SWAP2 POP POP JUMP JUMPDEST PUSH32 0x5265636F766572792041646472657373206F72204F776E657220416464726573 PUSH1 0x0 DUP3 ADD MSTORE PUSH32 0x7320697320696E636F7272656374210000000000000000000000000000000000 PUSH1 0x20 DUP3 ADD MSTORE POP JUMP JUMPDEST PUSH1 0x0 PUSH2 0x4235 PUSH1 0x2F DUP4 PUSH2 0x36C6 JUMP JUMPDEST SWAP2 POP PUSH2 0x4240 DUP3 PUSH2 0x41D9 JUMP JUMPDEST PUSH1 0x40 DUP3 ADD SWAP1 POP SWAP2 SWAP1 POP JUMP JUMPDEST PUSH1 0x0 PUSH1 0x20 DUP3 ADD SWAP1 POP DUP2 DUP2 SUB PUSH1 0x0 DUP4 ADD MSTORE PUSH2 0x4264 DUP2 PUSH2 0x4228 JUMP JUMPDEST SWAP1 POP SWAP2 SWAP1 POP JUMP JUMPDEST PUSH32 0x4F776E61626C653A206E6577206F776E657220697320746865207A65726F2061 PUSH1 0x0 DUP3 ADD MSTORE PUSH32 0x6464726573730000000000000000000000000000000000000000000000000000 PUSH1 0x20 DUP3 ADD MSTORE POP JUMP JUMPDEST PUSH1 0x0 PUSH2 0x42C7 PUSH1 0x26 DUP4 PUSH2 0x36C6 JUMP JUMPDEST SWAP2 POP PUSH2 0x42D2 DUP3 PUSH2 0x426B JUMP JUMPDEST PUSH1 0x40 DUP3 ADD SWAP1 POP SWAP2 SWAP1 POP JUMP JUMPDEST PUSH1 0x0 PUSH1 0x20 DUP3 ADD SWAP1 POP DUP2 DUP2 SUB PUSH1 0x0 DUP4 ADD MSTORE PUSH2 0x42F6 DUP2 PUSH2 0x42BA JUMP JUMPDEST SWAP1 POP SWAP2 SWAP1 POP JUMP JUMPDEST PUSH32 0x4F776E61626C653A2063616C6C6572206973206E6F7420746865206F776E6572 PUSH1 0x0 DUP3 ADD MSTORE POP JUMP JUMPDEST PUSH1 0x0 PUSH2 0x4333 PUSH1 0x20 DUP4 PUSH2 0x36C6 JUMP JUMPDEST SWAP2 POP PUSH2 0x433E DUP3 PUSH2 0x42FD JUMP JUMPDEST PUSH1 0x20 DUP3 ADD SWAP1 POP SWAP2 SWAP1 POP JUMP JUMPDEST PUSH1 0x0 PUSH1 0x20 DUP3 ADD SWAP1 POP DUP2 DUP2 SUB PUSH1 0x0 DUP4 ADD MSTORE PUSH2 0x4362 DUP2 PUSH2 0x4326 JUMP JUMPDEST SWAP1 POP SWAP2 SWAP1 POP JUMP INVALID LOG2 PUSH5 0x6970667358 0x22 SLT KECCAK256 JUMP 0x4A XOR 0xC9 0xA6 POP 0xD5 BYTE 0xD0 PUSH4 0xA23F7692 PUSH25 0xA012273BE9281F2C954310F5E9F78E271364736F6C63430008 GT STOP CALLER "},"methodIdentifiers":{"assignTokensToMultipleNominees(address,string,uint256,uint256,(uint256,address[],bool[],bool[])[])":"397e2f1a","changeChargeTokenAddress(address)":"9b785daa","changeNFTCharge(uint256)":"8df61325","changePercentage(uint256)":"d41ab7b5","changeTokenCharge(uint256)":"5128eeef","claim(address,address,uint256,uint256,uint256)":"3c824919","getAllStructs(address,address,uint256,uint256)":"5cdb4ce4","getValues()":"19eb4a90","inheritokens()":"be27c3fe","inheritokensAddress()":"46f17152","owner()":"8da5cb5b","ownerToNFTToStruct(address,address,uint256,uint256)":"a64ad61f","ownerToTokenToStruct(address,address,uint256)":"bea7d6ac","recoveryClaim(address,address,uint256,uint256,uint256)":"b67f82dc","renounceOwnership()":"715018a6","transferOwnership(address)":"f2fde38b","withdrawFromContract(uint256,address)":"9605f505"}}}}}