{
  "_format": "hh-sol-artifact-1",
  "contractName": "MultipleNominee",
  "sourceName": "contracts/MultipleNominee.sol",
  "abi": [
    {
      "inputs": [
        {
          "internalType": "address",
          "name": "_owner",
          "type": "address"
        },
        {
          "internalType": "address[]",
          "name": "_nominee",
          "type": "address[]"
        },
        {
          "internalType": "address",
          "name": "_tokenAddress",
          "type": "address"
        },
        {
          "internalType": "string",
          "name": "_tokenName",
          "type": "string"
        },
        {
          "internalType": "uint256[]",
          "name": "_share",
          "type": "uint256[]"
        },
        {
          "internalType": "bool",
          "name": "_isMultipleNominee",
          "type": "bool"
        },
        {
          "internalType": "bool",
          "name": "_isPriorityNominee",
          "type": "bool"
        }
      ],
      "name": "assignTokensToMultipleNominees",
      "outputs": [],
      "stateMutability": "nonpayable",
      "type": "function"
    },
    {
      "inputs": [
        {
          "internalType": "address",
          "name": "_owner",
          "type": "address"
        },
        {
          "internalType": "address[]",
          "name": "_nominee",
          "type": "address[]"
        },
        {
          "internalType": "address",
          "name": "_tokenAddress",
          "type": "address"
        },
        {
          "internalType": "uint256[]",
          "name": "_share",
          "type": "uint256[]"
        },
        {
          "internalType": "bool",
          "name": "_isMultipleNominee",
          "type": "bool"
        }
      ],
      "name": "editAssignedTokensToMultipleNominees",
      "outputs": [],
      "stateMutability": "nonpayable",
      "type": "function"
    },
    {
      "inputs": [
        {
          "internalType": "address",
          "name": "_owner",
          "type": "address"
        },
        {
          "internalType": "address",
          "name": "_nominee",
          "type": "address"
        },
        {
          "internalType": "address",
          "name": "_tokenAddress",
          "type": "address"
        }
      ],
      "name": "getNomineeToTokenShare",
      "outputs": [
        {
          "internalType": "uint256",
          "name": "",
          "type": "uint256"
        }
      ],
      "stateMutability": "view",
      "type": "function"
    },
    {
      "inputs": [
        {
          "internalType": "address",
          "name": "",
          "type": "address"
        },
        {
          "internalType": "address",
          "name": "",
          "type": "address"
        },
        {
          "internalType": "uint256",
          "name": "",
          "type": "uint256"
        }
      ],
      "name": "ownerToTokenToMultipleStruct",
      "outputs": [
        {
          "internalType": "address",
          "name": "nominee",
          "type": "address"
        },
        {
          "internalType": "uint256",
          "name": "share",
          "type": "uint256"
        }
      ],
      "stateMutability": "view",
      "type": "function"
    }
  ],
  "bytecode": "0x608060405273d8b934580fce35a11b58c6d73adee468a2833fa86000806101000a81548173ffffffffffffffffffffffffffffffffffffffff021916908373ffffffffffffffffffffffffffffffffffffffff16021790555034801561006457600080fd5b50612024806100746000396000f3fe608060405234801561001057600080fd5b506004361061004c5760003560e01c80632cc9991b146100515780637276f8ed1461006d578063955f59f91461009e578063e15a8e04146100ce575b600080fd5b61006b60048036038101906100669190611688565b6100ea565b005b6100876004803603810190610082919061177e565b61058d565b6040516100959291906117ef565b60405180910390f35b6100b860048036038101906100b39190611818565b6105fb565b6040516100c5919061186b565b60405180910390f35b6100e860048036038101906100e39190611886565b610840565b005b60008060008054906101000a900473ffffffffffffffffffffffffffffffffffffffff1673ffffffffffffffffffffffffffffffffffffffff16639979d30e886040518263ffffffff1660e01b81526004016101469190611939565b600060405180830381865afa158015610163573d6000803e3d6000fd5b505050506040513d6000823e3d601f19601f8201168201806040525081019061018c9190611a2d565b90919293945090919293509091509050809350819250505081156101e5576040517f08c379a00000000000000000000000000000000000000000000000000000000081526004016101dc90611b33565b60405180910390fd5b60005b885181101561058157600086828151811061020657610205611b53565b5b6020026020010151836102199190611bb1565b9050606481111561025f576040517f08c379a000000000000000000000000000000000000000000000000000000000815260040161025690611c31565b60405180910390fd5b836102f85760008054906101000a900473ffffffffffffffffffffffffffffffffffffffff1673ffffffffffffffffffffffffffffffffffffffff1663a1d5a9988a8a848a8a6040518663ffffffff1660e01b81526004016102c5959493929190611ca4565b600060405180830381600087803b1580156102df57600080fd5b505af11580156102f3573d6000803e3d6000fd5b505050505b60008054906101000a900473ffffffffffffffffffffffffffffffffffffffff1673ffffffffffffffffffffffffffffffffffffffff1663c47f9b978a836040518363ffffffff1660e01b81526004016103539291906117ef565b600060405180830381600087803b15801561036d57600080fd5b505af1158015610381573d6000803e3d6000fd5b5050505060008054906101000a900473ffffffffffffffffffffffffffffffffffffffff1673ffffffffffffffffffffffffffffffffffffffff16630a5078258c8b8d866040518563ffffffff1660e01b81526004016103e49493929190611dbc565b600060405180830381600087803b1580156103fe57600080fd5b505af1158015610412573d6000803e3d6000fd5b50505050600160008c73ffffffffffffffffffffffffffffffffffffffff1673ffffffffffffffffffffffffffffffffffffffff16815260200190815260200160002060008a73ffffffffffffffffffffffffffffffffffffffff1673ffffffffffffffffffffffffffffffffffffffff16815260200190815260200160002060405180604001604052808c85815181106104b0576104af611b53565b5b602002602001015173ffffffffffffffffffffffffffffffffffffffff1681526020018985815181106104e6576104e5611b53565b5b6020026020010151815250908060018154018082558091505060019003906000526020600020906002020160009091909190915060008201518160000160006101000a81548173ffffffffffffffffffffffffffffffffffffffff021916908373ffffffffffffffffffffffffffffffffffffffff16021790555060208201518160010155505050808061057990611e08565b9150506101e8565b50505050505050505050565b600160205282600052604060002060205281600052604060002081815481106105b557600080fd5b906000526020600020906002020160009250925050508060000160009054906101000a900473ffffffffffffffffffffffffffffffffffffffff16908060010154905082565b60008060005b600160008773ffffffffffffffffffffffffffffffffffffffff1673ffffffffffffffffffffffffffffffffffffffff16815260200190815260200160002060008573ffffffffffffffffffffffffffffffffffffffff1673ffffffffffffffffffffffffffffffffffffffff16815260200190815260200160002080549050811015610834578473ffffffffffffffffffffffffffffffffffffffff16600160008873ffffffffffffffffffffffffffffffffffffffff1673ffffffffffffffffffffffffffffffffffffffff16815260200190815260200160002060008673ffffffffffffffffffffffffffffffffffffffff1673ffffffffffffffffffffffffffffffffffffffff168152602001908152602001600020828154811061072d5761072c611b53565b5b906000526020600020906002020160000160009054906101000a900473ffffffffffffffffffffffffffffffffffffffff1673ffffffffffffffffffffffffffffffffffffffff160361082157600160008773ffffffffffffffffffffffffffffffffffffffff1673ffffffffffffffffffffffffffffffffffffffff16815260200190815260200160002060008573ffffffffffffffffffffffffffffffffffffffff1673ffffffffffffffffffffffffffffffffffffffff168152602001908152602001600020818154811061080857610807611b53565b5b9060005260206000209060020201600101549150610834565b808061082c90611e08565b915050610601565b50809150509392505050565b60008060008054906101000a900473ffffffffffffffffffffffffffffffffffffffff1673ffffffffffffffffffffffffffffffffffffffff16639979d30e866040518263ffffffff1660e01b815260040161089c9190611939565b600060405180830381865afa1580156108b9573d6000803e3d6000fd5b505050506040513d6000823e3d601f19601f820116820180604052508101906108e29190611a2d565b9091929394509091929350909150905080935081925050508261093a576040517f08c379a000000000000000000000000000000000000000000000000000000000815260040161093190611e9c565b60405180910390fd5b8161097a576040517f08c379a000000000000000000000000000000000000000000000000000000000815260040161097190611f08565b60405180910390fd5b600080600090505b87518110156112cc5760005b600160008b73ffffffffffffffffffffffffffffffffffffffff1673ffffffffffffffffffffffffffffffffffffffff16815260200190815260200160002060008973ffffffffffffffffffffffffffffffffffffffff1673ffffffffffffffffffffffffffffffffffffffff16815260200190815260200160002080549050811015610fc757888281518110610a2857610a27611b53565b5b602002602001015173ffffffffffffffffffffffffffffffffffffffff16600160008c73ffffffffffffffffffffffffffffffffffffffff1673ffffffffffffffffffffffffffffffffffffffff16815260200190815260200160002060008a73ffffffffffffffffffffffffffffffffffffffff1673ffffffffffffffffffffffffffffffffffffffff1681526020019081526020016000208281548110610ad457610ad3611b53565b5b906000526020600020906002020160000160009054906101000a900473ffffffffffffffffffffffffffffffffffffffff1673ffffffffffffffffffffffffffffffffffffffff1603610d8e576000878381518110610b3657610b35611b53565b5b6020026020010151600160008d73ffffffffffffffffffffffffffffffffffffffff1673ffffffffffffffffffffffffffffffffffffffff16815260200190815260200160002060008b73ffffffffffffffffffffffffffffffffffffffff1673ffffffffffffffffffffffffffffffffffffffff1681526020019081526020016000208381548110610bcc57610bcb611b53565b5b90600052602060002090600202016001015486610be99190611f28565b610bf39190611bb1565b90506064811115610c39576040517f08c379a0000000000000000000000000000000000000000000000000000000008152600401610c3090611fce565b60405180910390fd5b878381518110610c4c57610c4b611b53565b5b6020026020010151600160008d73ffffffffffffffffffffffffffffffffffffffff1673ffffffffffffffffffffffffffffffffffffffff16815260200190815260200160002060008b73ffffffffffffffffffffffffffffffffffffffff1673ffffffffffffffffffffffffffffffffffffffff1681526020019081526020016000208381548110610ce257610ce1611b53565b5b90600052602060002090600202016001018190555060008054906101000a900473ffffffffffffffffffffffffffffffffffffffff1673ffffffffffffffffffffffffffffffffffffffff1663c47f9b978a836040518363ffffffff1660e01b8152600401610d529291906117ef565b600060405180830381600087803b158015610d6c57600080fd5b505af1158015610d80573d6000803e3d6000fd5b505050506001935050610fc7565b6000600160008c73ffffffffffffffffffffffffffffffffffffffff1673ffffffffffffffffffffffffffffffffffffffff16815260200190815260200160002060008a73ffffffffffffffffffffffffffffffffffffffff1673ffffffffffffffffffffffffffffffffffffffff1681526020019081526020016000208281548110610e1e57610e1d611b53565b5b90600052602060002090600202016001015485610e3b9190611f28565b90506064811115610e81576040517f08c379a0000000000000000000000000000000000000000000000000000000008152600401610e7890611fce565b60405180910390fd5b6000600160008d73ffffffffffffffffffffffffffffffffffffffff1673ffffffffffffffffffffffffffffffffffffffff16815260200190815260200160002060008b73ffffffffffffffffffffffffffffffffffffffff1673ffffffffffffffffffffffffffffffffffffffff1681526020019081526020016000208381548110610f1157610f10611b53565b5b90600052602060002090600202016001018190555060008054906101000a900473ffffffffffffffffffffffffffffffffffffffff1673ffffffffffffffffffffffffffffffffffffffff1663c47f9b978a836040518363ffffffff1660e01b8152600401610f819291906117ef565b600060405180830381600087803b158015610f9b57600080fd5b505af1158015610faf573d6000803e3d6000fd5b50505050508080610fbf90611e08565b91505061098e565b5060001515821515036112b9576000868281518110610fe957610fe8611b53565b5b602002602001015184610ffc9190611bb1565b90506064811115611042576040517f08c379a000000000000000000000000000000000000000000000000000000000815260040161103990611fce565b60405180910390fd5b600160008b73ffffffffffffffffffffffffffffffffffffffff1673ffffffffffffffffffffffffffffffffffffffff16815260200190815260200160002060008973ffffffffffffffffffffffffffffffffffffffff1673ffffffffffffffffffffffffffffffffffffffff16815260200190815260200160002060405180604001604052808b85815181106110dc576110db611b53565b5b602002602001015173ffffffffffffffffffffffffffffffffffffffff16815260200189858151811061111257611111611b53565b5b6020026020010151815250908060018154018082558091505060019003906000526020600020906002020160009091909190915060008201518160000160006101000a81548173ffffffffffffffffffffffffffffffffffffffff021916908373ffffffffffffffffffffffffffffffffffffffff16021790555060208201518160010155505060008054906101000a900473ffffffffffffffffffffffffffffffffffffffff1673ffffffffffffffffffffffffffffffffffffffff1663c47f9b9789836040518363ffffffff1660e01b81526004016111f49291906117ef565b600060405180830381600087803b15801561120e57600080fd5b505af1158015611222573d6000803e3d6000fd5b5050505060008054906101000a900473ffffffffffffffffffffffffffffffffffffffff1673ffffffffffffffffffffffffffffffffffffffff16630a5078258b8a8c866040518563ffffffff1660e01b81526004016112859493929190611dbc565b600060405180830381600087803b15801561129f57600080fd5b505af11580156112b3573d6000803e3d6000fd5b50505050505b80806112c490611e08565b915050610982565b505050505050505050565b6000604051905090565b600080fd5b600080fd5b600073ffffffffffffffffffffffffffffffffffffffff82169050919050565b6000611316826112eb565b9050919050565b6113268161130b565b811461133157600080fd5b50565b6000813590506113438161131d565b92915050565b600080fd5b6000601f19601f8301169050919050565b7f4e487b7100000000000000000000000000000000000000000000000000000000600052604160045260246000fd5b6113978261134e565b810181811067ffffffffffffffff821117156113b6576113b561135f565b5b80604052505050565b60006113c96112d7565b90506113d5828261138e565b919050565b600067ffffffffffffffff8211156113f5576113f461135f565b5b602082029050602081019050919050565b600080fd5b600061141e611419846113da565b6113bf565b9050808382526020820190506020840283018581111561144157611440611406565b5b835b8181101561146a57806114568882611334565b845260208401935050602081019050611443565b5050509392505050565b600082601f83011261148957611488611349565b5b813561149984826020860161140b565b91505092915050565b600080fd5b600067ffffffffffffffff8211156114c2576114c161135f565b5b6114cb8261134e565b9050602081019050919050565b82818337600083830152505050565b60006114fa6114f5846114a7565b6113bf565b905082815260208101848484011115611516576115156114a2565b5b6115218482856114d8565b509392505050565b600082601f83011261153e5761153d611349565b5b813561154e8482602086016114e7565b91505092915050565b600067ffffffffffffffff8211156115725761157161135f565b5b602082029050602081019050919050565b6000819050919050565b61159681611583565b81146115a157600080fd5b50565b6000813590506115b38161158d565b92915050565b60006115cc6115c784611557565b6113bf565b905080838252602082019050602084028301858111156115ef576115ee611406565b5b835b81811015611618578061160488826115a4565b8452602084019350506020810190506115f1565b5050509392505050565b600082601f83011261163757611636611349565b5b81356116478482602086016115b9565b91505092915050565b60008115159050919050565b61166581611650565b811461167057600080fd5b50565b6000813590506116828161165c565b92915050565b600080600080600080600060e0888a0312156116a7576116a66112e1565b5b60006116b58a828b01611334565b975050602088013567ffffffffffffffff8111156116d6576116d56112e6565b5b6116e28a828b01611474565b96505060406116f38a828b01611334565b955050606088013567ffffffffffffffff811115611714576117136112e6565b5b6117208a828b01611529565b945050608088013567ffffffffffffffff811115611741576117406112e6565b5b61174d8a828b01611622565b93505060a061175e8a828b01611673565b92505060c061176f8a828b01611673565b91505092959891949750929550565b600080600060608486031215611797576117966112e1565b5b60006117a586828701611334565b93505060206117b686828701611334565b92505060406117c7868287016115a4565b9150509250925092565b6117da8161130b565b82525050565b6117e981611583565b82525050565b600060408201905061180460008301856117d1565b61181160208301846117e0565b9392505050565b600080600060608486031215611831576118306112e1565b5b600061183f86828701611334565b935050602061185086828701611334565b925050604061186186828701611334565b9150509250925092565b600060208201905061188060008301846117e0565b92915050565b600080600080600060a086880312156118a2576118a16112e1565b5b60006118b088828901611334565b955050602086013567ffffffffffffffff8111156118d1576118d06112e6565b5b6118dd88828901611474565b94505060406118ee88828901611334565b935050606086013567ffffffffffffffff81111561190f5761190e6112e6565b5b61191b88828901611622565b925050608061192c88828901611673565b9150509295509295909350565b600060208201905061194e60008301846117d1565b92915050565b6000815190506119638161131d565b92915050565b60005b8381101561198757808201518184015260208101905061196c565b60008484015250505050565b60006119a66119a1846114a7565b6113bf565b9050828152602081018484840111156119c2576119c16114a2565b5b6119cd848285611969565b509392505050565b600082601f8301126119ea576119e9611349565b5b81516119fa848260208601611993565b91505092915050565b600081519050611a128161158d565b92915050565b600081519050611a278161165c565b92915050565b60008060008060008060c08789031215611a4a57611a496112e1565b5b6000611a5889828a01611954565b965050602087015167ffffffffffffffff811115611a7957611a786112e6565b5b611a8589828a016119d5565b9550506040611a9689828a01611a03565b9450506060611aa789828a01611a18565b9350506080611ab889828a01611a18565b92505060a0611ac989828a01611a18565b9150509295509295509295565b600082825260208201905092915050565b7f416c726561647920746f6b656e206973206e6f6d696e61746564000000000000600082015250565b6000611b1d601a83611ad6565b9150611b2882611ae7565b602082019050919050565b60006020820190508181036000830152611b4c81611b10565b9050919050565b7f4e487b7100000000000000000000000000000000000000000000000000000000600052603260045260246000fd5b7f4e487b7100000000000000000000000000000000000000000000000000000000600052601160045260246000fd5b6000611bbc82611583565b9150611bc783611583565b9250828201905080821115611bdf57611bde611b82565b5b92915050565b7f5265647563652074686520736861726520616d6f756e742e2e2e000000000000600082015250565b6000611c1b601a83611ad6565b9150611c2682611be5565b602082019050919050565b60006020820190508181036000830152611c4a81611c0e565b9050919050565b600081519050919050565b6000611c6782611c51565b611c718185611ad6565b9350611c81818560208601611969565b611c8a8161134e565b840191505092915050565b611c9e81611650565b82525050565b600060a082019050611cb960008301886117d1565b8181036020830152611ccb8187611c5c565b9050611cda60408301866117e0565b611ce76060830185611c95565b611cf46080830184611c95565b9695505050505050565b600081519050919050565b600082825260208201905092915050565b6000819050602082019050919050565b611d338161130b565b82525050565b6000611d458383611d2a565b60208301905092915050565b6000602082019050919050565b6000611d6982611cfe565b611d738185611d09565b9350611d7e83611d1a565b8060005b83811015611daf578151611d968882611d39565b9750611da183611d51565b925050600181019050611d82565b5085935050505092915050565b6000608082019050611dd160008301876117d1565b611dde60208301866117d1565b8181036040830152611df08185611d5e565b9050611dff60608301846117e0565b95945050505050565b6000611e1382611583565b91507fffffffffffffffffffffffffffffffffffffffffffffffffffffffffffffffff8203611e4557611e44611b82565b5b600182019050919050565b7f4974206973206f6e6c7920666f72206d756c7469706c65206e6f6d696e656500600082015250565b6000611e86601f83611ad6565b9150611e9182611e50565b602082019050919050565b60006020820190508181036000830152611eb581611e79565b9050919050565b7f4669727374206e6f6d696e617465207468652041737365742100000000000000600082015250565b6000611ef2601983611ad6565b9150611efd82611ebc565b602082019050919050565b60006020820190508181036000830152611f2181611ee5565b9050919050565b6000611f3382611583565b9150611f3e83611583565b9250828203905081811115611f5657611f55611b82565b5b92915050565b7f3130302520736861726520697320616c726561647920616c6c6f63617465642e60008201527f2e2e000000000000000000000000000000000000000000000000000000000000602082015250565b6000611fb8602283611ad6565b9150611fc382611f5c565b604082019050919050565b60006020820190508181036000830152611fe781611fab565b905091905056fea26469706673582212200c60e264250c800eeadcf8f25984fd485b8824b408cd09c0e0e74c7823a7193464736f6c63430008110033",
  "linkReferences": {},
  "deployedLinkReferences": {}
}