{
  "_format": "hh-sol-artifact-1",
  "contractName": "MultipleNominee",
  "sourceName": "contracts/MultipleNominee.sol",
  "abi": [
    {
      "inputs": [
        {
          "internalType": "address",
          "name": "_inheritokensAddress",
          "type": "address"
        }
      ],
      "stateMutability": "nonpayable",
      "type": "constructor"
    },
    {
      "inputs": [
        {
          "internalType": "address",
          "name": "_owner",
          "type": "address"
        },
        {
          "internalType": "address[]",
          "name": "_nominee",
          "type": "address[]"
        },
        {
          "internalType": "address",
          "name": "_tokenAddress",
          "type": "address"
        },
        {
          "internalType": "string",
          "name": "_tokenName",
          "type": "string"
        },
        {
          "internalType": "uint256[]",
          "name": "_share",
          "type": "uint256[]"
        },
        {
          "internalType": "bool",
          "name": "_isMultipleNominee",
          "type": "bool"
        },
        {
          "internalType": "bool",
          "name": "_isPriorityNominee",
          "type": "bool"
        }
      ],
      "name": "assignTokensToMultipleNominees",
      "outputs": [],
      "stateMutability": "nonpayable",
      "type": "function"
    },
    {
      "inputs": [
        {
          "internalType": "address",
          "name": "_owner",
          "type": "address"
        },
        {
          "internalType": "address[]",
          "name": "_nominee",
          "type": "address[]"
        },
        {
          "internalType": "address",
          "name": "_tokenAddress",
          "type": "address"
        },
        {
          "internalType": "uint256[]",
          "name": "_share",
          "type": "uint256[]"
        },
        {
          "internalType": "bool",
          "name": "_isMultipleNominee",
          "type": "bool"
        }
      ],
      "name": "editAssignedTokensToMultipleNominees",
      "outputs": [],
      "stateMutability": "nonpayable",
      "type": "function"
    },
    {
      "inputs": [
        {
          "internalType": "address",
          "name": "_owner",
          "type": "address"
        },
        {
          "internalType": "address",
          "name": "_nominee",
          "type": "address"
        },
        {
          "internalType": "address",
          "name": "_tokenAddress",
          "type": "address"
        }
      ],
      "name": "getNomineeToTokenShare",
      "outputs": [
        {
          "internalType": "uint256",
          "name": "",
          "type": "uint256"
        }
      ],
      "stateMutability": "view",
      "type": "function"
    },
    {
      "inputs": [],
      "name": "inheritokens",
      "outputs": [
        {
          "internalType": "contract Inheritokens",
          "name": "",
          "type": "address"
        }
      ],
      "stateMutability": "view",
      "type": "function"
    },
    {
      "inputs": [],
      "name": "inheritokensAddress",
      "outputs": [
        {
          "internalType": "address",
          "name": "",
          "type": "address"
        }
      ],
      "stateMutability": "view",
      "type": "function"
    },
    {
      "inputs": [
        {
          "internalType": "address",
          "name": "",
          "type": "address"
        },
        {
          "internalType": "address",
          "name": "",
          "type": "address"
        },
        {
          "internalType": "uint256",
          "name": "",
          "type": "uint256"
        }
      ],
      "name": "ownerToTokenToMultipleStruct",
      "outputs": [
        {
          "internalType": "address",
          "name": "nominee",
          "type": "address"
        },
        {
          "internalType": "uint256",
          "name": "share",
          "type": "uint256"
        }
      ],
      "stateMutability": "view",
      "type": "function"
    }
  ],
  "bytecode": "0x60806040523480156200001157600080fd5b506040516200239038038062002390833981810160405281019062000037919062000149565b806000806101000a81548173ffffffffffffffffffffffffffffffffffffffff021916908373ffffffffffffffffffffffffffffffffffffffff16021790555060008054906101000a900473ffffffffffffffffffffffffffffffffffffffff16600160006101000a81548173ffffffffffffffffffffffffffffffffffffffff021916908373ffffffffffffffffffffffffffffffffffffffff160217905550506200017b565b600080fd5b600073ffffffffffffffffffffffffffffffffffffffff82169050919050565b60006200011182620000e4565b9050919050565b620001238162000104565b81146200012f57600080fd5b50565b600081519050620001438162000118565b92915050565b600060208284031215620001625762000161620000df565b5b6000620001728482850162000132565b91505092915050565b612205806200018b6000396000f3fe608060405234801561001057600080fd5b50600436106100625760003560e01c80632cc9991b1461006757806346f17152146100835780637276f8ed146100a1578063955f59f9146100d2578063be27c3fe14610102578063e15a8e0414610120575b600080fd5b610081600480360381019061007c91906117ef565b61013c565b005b61008b6106a0565b60405161009891906118f4565b60405180910390f35b6100bb60048036038101906100b6919061190f565b6106c4565b6040516100c9929190611971565b60405180910390f35b6100ec60048036038101906100e7919061199a565b610732565b6040516100f991906119ed565b60405180910390f35b61010a610977565b6040516101179190611a67565b60405180910390f35b61013a60048036038101906101359190611a82565b61099d565b005b600080600160009054906101000a900473ffffffffffffffffffffffffffffffffffffffff1673ffffffffffffffffffffffffffffffffffffffff16639979d30e886040518263ffffffff1660e01b815260040161019a91906118f4565b600060405180830381865afa1580156101b7573d6000803e3d6000fd5b505050506040513d6000823e3d601f19601f820116820180604052508101906101e09190611c0e565b9091929394509091929350909150905080935081925050508115610239576040517f08c379a000000000000000000000000000000000000000000000000000000000815260040161023090611d14565b60405180910390fd5b60005b885181101561069457600160009054906101000a900473ffffffffffffffffffffffffffffffffffffffff1673ffffffffffffffffffffffffffffffffffffffff16639979d30e896040518263ffffffff1660e01b81526004016102a091906118f4565b600060405180830381865afa1580156102bd573d6000803e3d6000fd5b505050506040513d6000823e3d601f19601f820116820180604052508101906102e69190611c0e565b909192939450909192935090915090508094508193505050600086828151811061031357610312611d34565b5b6020026020010151836103269190611d92565b9050606481111561036c576040517f08c379a000000000000000000000000000000000000000000000000000000000815260040161036390611e12565b60405180910390fd5b8361040757600160009054906101000a900473ffffffffffffffffffffffffffffffffffffffff1673ffffffffffffffffffffffffffffffffffffffff1663a1d5a9988a8a848a8a6040518663ffffffff1660e01b81526004016103d4959493929190611e85565b600060405180830381600087803b1580156103ee57600080fd5b505af1158015610402573d6000803e3d6000fd5b505050505b600160009054906101000a900473ffffffffffffffffffffffffffffffffffffffff1673ffffffffffffffffffffffffffffffffffffffff1663c47f9b978a836040518363ffffffff1660e01b8152600401610464929190611971565b600060405180830381600087803b15801561047e57600080fd5b505af1158015610492573d6000803e3d6000fd5b50505050600160009054906101000a900473ffffffffffffffffffffffffffffffffffffffff1673ffffffffffffffffffffffffffffffffffffffff16630a5078258c8b8d866040518563ffffffff1660e01b81526004016104f79493929190611f9d565b600060405180830381600087803b15801561051157600080fd5b505af1158015610525573d6000803e3d6000fd5b50505050600260008c73ffffffffffffffffffffffffffffffffffffffff1673ffffffffffffffffffffffffffffffffffffffff16815260200190815260200160002060008a73ffffffffffffffffffffffffffffffffffffffff1673ffffffffffffffffffffffffffffffffffffffff16815260200190815260200160002060405180604001604052808c85815181106105c3576105c2611d34565b5b602002602001015173ffffffffffffffffffffffffffffffffffffffff1681526020018985815181106105f9576105f8611d34565b5b6020026020010151815250908060018154018082558091505060019003906000526020600020906002020160009091909190915060008201518160000160006101000a81548173ffffffffffffffffffffffffffffffffffffffff021916908373ffffffffffffffffffffffffffffffffffffffff16021790555060208201518160010155505050808061068c90611fe9565b91505061023c565b50505050505050505050565b60008054906101000a900473ffffffffffffffffffffffffffffffffffffffff1681565b600260205282600052604060002060205281600052604060002081815481106106ec57600080fd5b906000526020600020906002020160009250925050508060000160009054906101000a900473ffffffffffffffffffffffffffffffffffffffff16908060010154905082565b60008060005b600260008773ffffffffffffffffffffffffffffffffffffffff1673ffffffffffffffffffffffffffffffffffffffff16815260200190815260200160002060008573ffffffffffffffffffffffffffffffffffffffff1673ffffffffffffffffffffffffffffffffffffffff1681526020019081526020016000208054905081101561096b578473ffffffffffffffffffffffffffffffffffffffff16600260008873ffffffffffffffffffffffffffffffffffffffff1673ffffffffffffffffffffffffffffffffffffffff16815260200190815260200160002060008673ffffffffffffffffffffffffffffffffffffffff1673ffffffffffffffffffffffffffffffffffffffff168152602001908152602001600020828154811061086457610863611d34565b5b906000526020600020906002020160000160009054906101000a900473ffffffffffffffffffffffffffffffffffffffff1673ffffffffffffffffffffffffffffffffffffffff160361095857600260008773ffffffffffffffffffffffffffffffffffffffff1673ffffffffffffffffffffffffffffffffffffffff16815260200190815260200160002060008573ffffffffffffffffffffffffffffffffffffffff1673ffffffffffffffffffffffffffffffffffffffff168152602001908152602001600020818154811061093f5761093e611d34565b5b906000526020600020906002020160010154915061096b565b808061096390611fe9565b915050610738565b50809150509392505050565b600160009054906101000a900473ffffffffffffffffffffffffffffffffffffffff1681565b600080600160009054906101000a900473ffffffffffffffffffffffffffffffffffffffff1673ffffffffffffffffffffffffffffffffffffffff16639979d30e866040518263ffffffff1660e01b81526004016109fb91906118f4565b600060405180830381865afa158015610a18573d6000803e3d6000fd5b505050506040513d6000823e3d601f19601f82011682018060405250810190610a419190611c0e565b90919293945090919293509091509050809350819250505082610a99576040517f08c379a0000000000000000000000000000000000000000000000000000000008152600401610a909061207d565b60405180910390fd5b81610ad9576040517f08c379a0000000000000000000000000000000000000000000000000000000008152600401610ad0906120e9565b60405180910390fd5b600080600090505b87518110156114335760005b600260008b73ffffffffffffffffffffffffffffffffffffffff1673ffffffffffffffffffffffffffffffffffffffff16815260200190815260200160002060008973ffffffffffffffffffffffffffffffffffffffff1673ffffffffffffffffffffffffffffffffffffffff1681526020019081526020016000208054905081101561112a57888281518110610b8757610b86611d34565b5b602002602001015173ffffffffffffffffffffffffffffffffffffffff16600260008c73ffffffffffffffffffffffffffffffffffffffff1673ffffffffffffffffffffffffffffffffffffffff16815260200190815260200160002060008a73ffffffffffffffffffffffffffffffffffffffff1673ffffffffffffffffffffffffffffffffffffffff1681526020019081526020016000208281548110610c3357610c32611d34565b5b906000526020600020906002020160000160009054906101000a900473ffffffffffffffffffffffffffffffffffffffff1673ffffffffffffffffffffffffffffffffffffffff1603610eef576000878381518110610c9557610c94611d34565b5b6020026020010151600260008d73ffffffffffffffffffffffffffffffffffffffff1673ffffffffffffffffffffffffffffffffffffffff16815260200190815260200160002060008b73ffffffffffffffffffffffffffffffffffffffff1673ffffffffffffffffffffffffffffffffffffffff1681526020019081526020016000208381548110610d2b57610d2a611d34565b5b90600052602060002090600202016001015486610d489190612109565b610d529190611d92565b90506064811115610d98576040517f08c379a0000000000000000000000000000000000000000000000000000000008152600401610d8f906121af565b60405180910390fd5b878381518110610dab57610daa611d34565b5b6020026020010151600260008d73ffffffffffffffffffffffffffffffffffffffff1673ffffffffffffffffffffffffffffffffffffffff16815260200190815260200160002060008b73ffffffffffffffffffffffffffffffffffffffff1673ffffffffffffffffffffffffffffffffffffffff1681526020019081526020016000208381548110610e4157610e40611d34565b5b906000526020600020906002020160010181905550600160009054906101000a900473ffffffffffffffffffffffffffffffffffffffff1673ffffffffffffffffffffffffffffffffffffffff1663c47f9b978a836040518363ffffffff1660e01b8152600401610eb3929190611971565b600060405180830381600087803b158015610ecd57600080fd5b505af1158015610ee1573d6000803e3d6000fd5b50505050600193505061112a565b6000600260008c73ffffffffffffffffffffffffffffffffffffffff1673ffffffffffffffffffffffffffffffffffffffff16815260200190815260200160002060008a73ffffffffffffffffffffffffffffffffffffffff1673ffffffffffffffffffffffffffffffffffffffff1681526020019081526020016000208281548110610f7f57610f7e611d34565b5b90600052602060002090600202016001015485610f9c9190612109565b90506064811115610fe2576040517f08c379a0000000000000000000000000000000000000000000000000000000008152600401610fd9906121af565b60405180910390fd5b6000600260008d73ffffffffffffffffffffffffffffffffffffffff1673ffffffffffffffffffffffffffffffffffffffff16815260200190815260200160002060008b73ffffffffffffffffffffffffffffffffffffffff1673ffffffffffffffffffffffffffffffffffffffff168152602001908152602001600020838154811061107257611071611d34565b5b906000526020600020906002020160010181905550600160009054906101000a900473ffffffffffffffffffffffffffffffffffffffff1673ffffffffffffffffffffffffffffffffffffffff1663c47f9b978a836040518363ffffffff1660e01b81526004016110e4929190611971565b600060405180830381600087803b1580156110fe57600080fd5b505af1158015611112573d6000803e3d6000fd5b5050505050808061112290611fe9565b915050610aed565b50600015158215150361142057600086828151811061114c5761114b611d34565b5b60200260200101518461115f9190611d92565b905060648111156111a5576040517f08c379a000000000000000000000000000000000000000000000000000000000815260040161119c906121af565b60405180910390fd5b600260008b73ffffffffffffffffffffffffffffffffffffffff1673ffffffffffffffffffffffffffffffffffffffff16815260200190815260200160002060008973ffffffffffffffffffffffffffffffffffffffff1673ffffffffffffffffffffffffffffffffffffffff16815260200190815260200160002060405180604001604052808b858151811061123f5761123e611d34565b5b602002602001015173ffffffffffffffffffffffffffffffffffffffff16815260200189858151811061127557611274611d34565b5b6020026020010151815250908060018154018082558091505060019003906000526020600020906002020160009091909190915060008201518160000160006101000a81548173ffffffffffffffffffffffffffffffffffffffff021916908373ffffffffffffffffffffffffffffffffffffffff160217905550602082015181600101555050600160009054906101000a900473ffffffffffffffffffffffffffffffffffffffff1673ffffffffffffffffffffffffffffffffffffffff1663c47f9b9789836040518363ffffffff1660e01b8152600401611359929190611971565b600060405180830381600087803b15801561137357600080fd5b505af1158015611387573d6000803e3d6000fd5b50505050600160009054906101000a900473ffffffffffffffffffffffffffffffffffffffff1673ffffffffffffffffffffffffffffffffffffffff16630a5078258b8a8c866040518563ffffffff1660e01b81526004016113ec9493929190611f9d565b600060405180830381600087803b15801561140657600080fd5b505af115801561141a573d6000803e3d6000fd5b50505050505b808061142b90611fe9565b915050610ae1565b505050505050505050565b6000604051905090565b600080fd5b600080fd5b600073ffffffffffffffffffffffffffffffffffffffff82169050919050565b600061147d82611452565b9050919050565b61148d81611472565b811461149857600080fd5b50565b6000813590506114aa81611484565b92915050565b600080fd5b6000601f19601f8301169050919050565b7f4e487b7100000000000000000000000000000000000000000000000000000000600052604160045260246000fd5b6114fe826114b5565b810181811067ffffffffffffffff8211171561151d5761151c6114c6565b5b80604052505050565b600061153061143e565b905061153c82826114f5565b919050565b600067ffffffffffffffff82111561155c5761155b6114c6565b5b602082029050602081019050919050565b600080fd5b600061158561158084611541565b611526565b905080838252602082019050602084028301858111156115a8576115a761156d565b5b835b818110156115d157806115bd888261149b565b8452602084019350506020810190506115aa565b5050509392505050565b600082601f8301126115f0576115ef6114b0565b5b8135611600848260208601611572565b91505092915050565b600080fd5b600067ffffffffffffffff821115611629576116286114c6565b5b611632826114b5565b9050602081019050919050565b82818337600083830152505050565b600061166161165c8461160e565b611526565b90508281526020810184848401111561167d5761167c611609565b5b61168884828561163f565b509392505050565b600082601f8301126116a5576116a46114b0565b5b81356116b584826020860161164e565b91505092915050565b600067ffffffffffffffff8211156116d9576116d86114c6565b5b602082029050602081019050919050565b6000819050919050565b6116fd816116ea565b811461170857600080fd5b50565b60008135905061171a816116f4565b92915050565b600061173361172e846116be565b611526565b905080838252602082019050602084028301858111156117565761175561156d565b5b835b8181101561177f578061176b888261170b565b845260208401935050602081019050611758565b5050509392505050565b600082601f83011261179e5761179d6114b0565b5b81356117ae848260208601611720565b91505092915050565b60008115159050919050565b6117cc816117b7565b81146117d757600080fd5b50565b6000813590506117e9816117c3565b92915050565b600080600080600080600060e0888a03121561180e5761180d611448565b5b600061181c8a828b0161149b565b975050602088013567ffffffffffffffff81111561183d5761183c61144d565b5b6118498a828b016115db565b965050604061185a8a828b0161149b565b955050606088013567ffffffffffffffff81111561187b5761187a61144d565b5b6118878a828b01611690565b945050608088013567ffffffffffffffff8111156118a8576118a761144d565b5b6118b48a828b01611789565b93505060a06118c58a828b016117da565b92505060c06118d68a828b016117da565b91505092959891949750929550565b6118ee81611472565b82525050565b600060208201905061190960008301846118e5565b92915050565b60008060006060848603121561192857611927611448565b5b60006119368682870161149b565b93505060206119478682870161149b565b92505060406119588682870161170b565b9150509250925092565b61196b816116ea565b82525050565b600060408201905061198660008301856118e5565b6119936020830184611962565b9392505050565b6000806000606084860312156119b3576119b2611448565b5b60006119c18682870161149b565b93505060206119d28682870161149b565b92505060406119e38682870161149b565b9150509250925092565b6000602082019050611a026000830184611962565b92915050565b6000819050919050565b6000611a2d611a28611a2384611452565b611a08565b611452565b9050919050565b6000611a3f82611a12565b9050919050565b6000611a5182611a34565b9050919050565b611a6181611a46565b82525050565b6000602082019050611a7c6000830184611a58565b92915050565b600080600080600060a08688031215611a9e57611a9d611448565b5b6000611aac8882890161149b565b955050602086013567ffffffffffffffff811115611acd57611acc61144d565b5b611ad9888289016115db565b9450506040611aea8882890161149b565b935050606086013567ffffffffffffffff811115611b0b57611b0a61144d565b5b611b1788828901611789565b9250506080611b28888289016117da565b9150509295509295909350565b600081519050611b4481611484565b92915050565b60005b83811015611b68578082015181840152602081019050611b4d565b60008484015250505050565b6000611b87611b828461160e565b611526565b905082815260208101848484011115611ba357611ba2611609565b5b611bae848285611b4a565b509392505050565b600082601f830112611bcb57611bca6114b0565b5b8151611bdb848260208601611b74565b91505092915050565b600081519050611bf3816116f4565b92915050565b600081519050611c08816117c3565b92915050565b60008060008060008060c08789031215611c2b57611c2a611448565b5b6000611c3989828a01611b35565b965050602087015167ffffffffffffffff811115611c5a57611c5961144d565b5b611c6689828a01611bb6565b9550506040611c7789828a01611be4565b9450506060611c8889828a01611bf9565b9350506080611c9989828a01611bf9565b92505060a0611caa89828a01611bf9565b9150509295509295509295565b600082825260208201905092915050565b7f416c726561647920746f6b656e206973206e6f6d696e61746564000000000000600082015250565b6000611cfe601a83611cb7565b9150611d0982611cc8565b602082019050919050565b60006020820190508181036000830152611d2d81611cf1565b9050919050565b7f4e487b7100000000000000000000000000000000000000000000000000000000600052603260045260246000fd5b7f4e487b7100000000000000000000000000000000000000000000000000000000600052601160045260246000fd5b6000611d9d826116ea565b9150611da8836116ea565b9250828201905080821115611dc057611dbf611d63565b5b92915050565b7f5265647563652074686520736861726520616d6f756e742e2e2e000000000000600082015250565b6000611dfc601a83611cb7565b9150611e0782611dc6565b602082019050919050565b60006020820190508181036000830152611e2b81611def565b9050919050565b600081519050919050565b6000611e4882611e32565b611e528185611cb7565b9350611e62818560208601611b4a565b611e6b816114b5565b840191505092915050565b611e7f816117b7565b82525050565b600060a082019050611e9a60008301886118e5565b8181036020830152611eac8187611e3d565b9050611ebb6040830186611962565b611ec86060830185611e76565b611ed56080830184611e76565b9695505050505050565b600081519050919050565b600082825260208201905092915050565b6000819050602082019050919050565b611f1481611472565b82525050565b6000611f268383611f0b565b60208301905092915050565b6000602082019050919050565b6000611f4a82611edf565b611f548185611eea565b9350611f5f83611efb565b8060005b83811015611f90578151611f778882611f1a565b9750611f8283611f32565b925050600181019050611f63565b5085935050505092915050565b6000608082019050611fb260008301876118e5565b611fbf60208301866118e5565b8181036040830152611fd18185611f3f565b9050611fe06060830184611962565b95945050505050565b6000611ff4826116ea565b91507fffffffffffffffffffffffffffffffffffffffffffffffffffffffffffffffff820361202657612025611d63565b5b600182019050919050565b7f4974206973206f6e6c7920666f72206d756c7469706c65206e6f6d696e656500600082015250565b6000612067601f83611cb7565b915061207282612031565b602082019050919050565b600060208201905081810360008301526120968161205a565b9050919050565b7f4669727374206e6f6d696e617465207468652041737365742100000000000000600082015250565b60006120d3601983611cb7565b91506120de8261209d565b602082019050919050565b60006020820190508181036000830152612102816120c6565b9050919050565b6000612114826116ea565b915061211f836116ea565b925082820390508181111561213757612136611d63565b5b92915050565b7f3130302520736861726520697320616c726561647920616c6c6f63617465642e60008201527f2e2e000000000000000000000000000000000000000000000000000000000000602082015250565b6000612199602283611cb7565b91506121a48261213d565b604082019050919050565b600060208201905081810360008301526121c88161218c565b905091905056fea2646970667358221220fb3be16e3e87d1ebd4568088a99af5abf9f08f9ca98b5e3a12ddbc611299e20364736f6c63430008110033",
  "linkReferences": {},
  "deployedLinkReferences": {}
}