{
  "_format": "hh-sol-artifact-1",
  "contractName": "MultipleNominee",
  "sourceName": "contracts/MultipleNominee.sol",
  "abi": [
    {
      "inputs": [
        {
          "internalType": "address",
          "name": "_inheritokensAddress",
          "type": "address"
        }
      ],
      "stateMutability": "nonpayable",
      "type": "constructor"
    },
    {
      "inputs": [
        {
          "internalType": "address",
          "name": "_owner",
          "type": "address"
        },
        {
          "internalType": "address[]",
          "name": "_nominee",
          "type": "address[]"
        },
        {
          "internalType": "address",
          "name": "_tokenAddress",
          "type": "address"
        },
        {
          "internalType": "string",
          "name": "_tokenName",
          "type": "string"
        },
        {
          "internalType": "uint256[]",
          "name": "_share",
          "type": "uint256[]"
        },
        {
          "internalType": "bool",
          "name": "_isMultipleNominee",
          "type": "bool"
        },
        {
          "internalType": "bool",
          "name": "_isPriorityNominee",
          "type": "bool"
        }
      ],
      "name": "assignTokensToMultipleNominees",
      "outputs": [],
      "stateMutability": "nonpayable",
      "type": "function"
    },
    {
      "inputs": [
        {
          "internalType": "address",
          "name": "_owner",
          "type": "address"
        },
        {
          "internalType": "address[]",
          "name": "_nominee",
          "type": "address[]"
        },
        {
          "internalType": "address",
          "name": "_tokenAddress",
          "type": "address"
        },
        {
          "internalType": "uint256[]",
          "name": "_share",
          "type": "uint256[]"
        },
        {
          "internalType": "bool",
          "name": "_isMultipleNominee",
          "type": "bool"
        }
      ],
      "name": "editAssignedTokensToMultipleNominees",
      "outputs": [],
      "stateMutability": "nonpayable",
      "type": "function"
    },
    {
      "inputs": [
        {
          "internalType": "address",
          "name": "_owner",
          "type": "address"
        },
        {
          "internalType": "address",
          "name": "_nominee",
          "type": "address"
        },
        {
          "internalType": "address",
          "name": "_tokenAddress",
          "type": "address"
        }
      ],
      "name": "getNomineeToTokenShare",
      "outputs": [
        {
          "internalType": "uint256",
          "name": "",
          "type": "uint256"
        }
      ],
      "stateMutability": "view",
      "type": "function"
    },
    {
      "inputs": [],
      "name": "inheritokensAddress",
      "outputs": [
        {
          "internalType": "address",
          "name": "",
          "type": "address"
        }
      ],
      "stateMutability": "view",
      "type": "function"
    },
    {
      "inputs": [
        {
          "internalType": "address",
          "name": "",
          "type": "address"
        },
        {
          "internalType": "address",
          "name": "",
          "type": "address"
        },
        {
          "internalType": "uint256",
          "name": "",
          "type": "uint256"
        }
      ],
      "name": "ownerToTokenToMultipleStruct",
      "outputs": [
        {
          "internalType": "address",
          "name": "nominee",
          "type": "address"
        },
        {
          "internalType": "uint256",
          "name": "share",
          "type": "uint256"
        }
      ],
      "stateMutability": "view",
      "type": "function"
    }
  ],
  "bytecode": "0x608060405260008054906101000a900473ffffffffffffffffffffffffffffffffffffffff16600160006101000a81548173ffffffffffffffffffffffffffffffffffffffff021916908373ffffffffffffffffffffffffffffffffffffffff1602179055503480156200007257600080fd5b506040516200220e3803806200220e833981810160405281019062000098919062000149565b806000806101000a81548173ffffffffffffffffffffffffffffffffffffffff021916908373ffffffffffffffffffffffffffffffffffffffff160217905550506200017b565b600080fd5b600073ffffffffffffffffffffffffffffffffffffffff82169050919050565b60006200011182620000e4565b9050919050565b620001238162000104565b81146200012f57600080fd5b50565b600081519050620001438162000118565b92915050565b600060208284031215620001625762000161620000df565b5b6000620001728482850162000132565b91505092915050565b612083806200018b6000396000f3fe608060405234801561001057600080fd5b50600436106100575760003560e01c80632cc9991b1461005c57806346f17152146100785780637276f8ed14610096578063955f59f9146100c7578063e15a8e04146100f7575b600080fd5b610076600480360381019061007191906116e7565b610113565b005b6100806105be565b60405161008d91906117ec565b60405180910390f35b6100b060048036038101906100ab9190611807565b6105e2565b6040516100be929190611869565b60405180910390f35b6100e160048036038101906100dc9190611892565b610650565b6040516100ee91906118e5565b60405180910390f35b610111600480360381019061010c9190611900565b610895565b005b600080600160009054906101000a900473ffffffffffffffffffffffffffffffffffffffff1673ffffffffffffffffffffffffffffffffffffffff16639979d30e886040518263ffffffff1660e01b815260040161017191906117ec565b600060405180830381865afa15801561018e573d6000803e3d6000fd5b505050506040513d6000823e3d601f19601f820116820180604052508101906101b79190611a8c565b9091929394509091929350909150905080935081925050508115610210576040517f08c379a000000000000000000000000000000000000000000000000000000000815260040161020790611b92565b60405180910390fd5b60005b88518110156105b257600086828151811061023157610230611bb2565b5b6020026020010151836102449190611c10565b9050606481111561028a576040517f08c379a000000000000000000000000000000000000000000000000000000000815260040161028190611c90565b60405180910390fd5b8361032557600160009054906101000a900473ffffffffffffffffffffffffffffffffffffffff1673ffffffffffffffffffffffffffffffffffffffff1663a1d5a9988a8a848a8a6040518663ffffffff1660e01b81526004016102f2959493929190611d03565b600060405180830381600087803b15801561030c57600080fd5b505af1158015610320573d6000803e3d6000fd5b505050505b600160009054906101000a900473ffffffffffffffffffffffffffffffffffffffff1673ffffffffffffffffffffffffffffffffffffffff1663c47f9b978a836040518363ffffffff1660e01b8152600401610382929190611869565b600060405180830381600087803b15801561039c57600080fd5b505af11580156103b0573d6000803e3d6000fd5b50505050600160009054906101000a900473ffffffffffffffffffffffffffffffffffffffff1673ffffffffffffffffffffffffffffffffffffffff16630a5078258c8b8d866040518563ffffffff1660e01b81526004016104159493929190611e1b565b600060405180830381600087803b15801561042f57600080fd5b505af1158015610443573d6000803e3d6000fd5b50505050600260008c73ffffffffffffffffffffffffffffffffffffffff1673ffffffffffffffffffffffffffffffffffffffff16815260200190815260200160002060008a73ffffffffffffffffffffffffffffffffffffffff1673ffffffffffffffffffffffffffffffffffffffff16815260200190815260200160002060405180604001604052808c85815181106104e1576104e0611bb2565b5b602002602001015173ffffffffffffffffffffffffffffffffffffffff16815260200189858151811061051757610516611bb2565b5b6020026020010151815250908060018154018082558091505060019003906000526020600020906002020160009091909190915060008201518160000160006101000a81548173ffffffffffffffffffffffffffffffffffffffff021916908373ffffffffffffffffffffffffffffffffffffffff1602179055506020820151816001015550505080806105aa90611e67565b915050610213565b50505050505050505050565b60008054906101000a900473ffffffffffffffffffffffffffffffffffffffff1681565b6002602052826000526040600020602052816000526040600020818154811061060a57600080fd5b906000526020600020906002020160009250925050508060000160009054906101000a900473ffffffffffffffffffffffffffffffffffffffff16908060010154905082565b60008060005b600260008773ffffffffffffffffffffffffffffffffffffffff1673ffffffffffffffffffffffffffffffffffffffff16815260200190815260200160002060008573ffffffffffffffffffffffffffffffffffffffff1673ffffffffffffffffffffffffffffffffffffffff16815260200190815260200160002080549050811015610889578473ffffffffffffffffffffffffffffffffffffffff16600260008873ffffffffffffffffffffffffffffffffffffffff1673ffffffffffffffffffffffffffffffffffffffff16815260200190815260200160002060008673ffffffffffffffffffffffffffffffffffffffff1673ffffffffffffffffffffffffffffffffffffffff168152602001908152602001600020828154811061078257610781611bb2565b5b906000526020600020906002020160000160009054906101000a900473ffffffffffffffffffffffffffffffffffffffff1673ffffffffffffffffffffffffffffffffffffffff160361087657600260008773ffffffffffffffffffffffffffffffffffffffff1673ffffffffffffffffffffffffffffffffffffffff16815260200190815260200160002060008573ffffffffffffffffffffffffffffffffffffffff1673ffffffffffffffffffffffffffffffffffffffff168152602001908152602001600020818154811061085d5761085c611bb2565b5b9060005260206000209060020201600101549150610889565b808061088190611e67565b915050610656565b50809150509392505050565b600080600160009054906101000a900473ffffffffffffffffffffffffffffffffffffffff1673ffffffffffffffffffffffffffffffffffffffff16639979d30e866040518263ffffffff1660e01b81526004016108f391906117ec565b600060405180830381865afa158015610910573d6000803e3d6000fd5b505050506040513d6000823e3d601f19601f820116820180604052508101906109399190611a8c565b90919293945090919293509091509050809350819250505082610991576040517f08c379a000000000000000000000000000000000000000000000000000000000815260040161098890611efb565b60405180910390fd5b816109d1576040517f08c379a00000000000000000000000000000000000000000000000000000000081526004016109c890611f67565b60405180910390fd5b600080600090505b875181101561132b5760005b600260008b73ffffffffffffffffffffffffffffffffffffffff1673ffffffffffffffffffffffffffffffffffffffff16815260200190815260200160002060008973ffffffffffffffffffffffffffffffffffffffff1673ffffffffffffffffffffffffffffffffffffffff1681526020019081526020016000208054905081101561102257888281518110610a7f57610a7e611bb2565b5b602002602001015173ffffffffffffffffffffffffffffffffffffffff16600260008c73ffffffffffffffffffffffffffffffffffffffff1673ffffffffffffffffffffffffffffffffffffffff16815260200190815260200160002060008a73ffffffffffffffffffffffffffffffffffffffff1673ffffffffffffffffffffffffffffffffffffffff1681526020019081526020016000208281548110610b2b57610b2a611bb2565b5b906000526020600020906002020160000160009054906101000a900473ffffffffffffffffffffffffffffffffffffffff1673ffffffffffffffffffffffffffffffffffffffff1603610de7576000878381518110610b8d57610b8c611bb2565b5b6020026020010151600260008d73ffffffffffffffffffffffffffffffffffffffff1673ffffffffffffffffffffffffffffffffffffffff16815260200190815260200160002060008b73ffffffffffffffffffffffffffffffffffffffff1673ffffffffffffffffffffffffffffffffffffffff1681526020019081526020016000208381548110610c2357610c22611bb2565b5b90600052602060002090600202016001015486610c409190611f87565b610c4a9190611c10565b90506064811115610c90576040517f08c379a0000000000000000000000000000000000000000000000000000000008152600401610c879061202d565b60405180910390fd5b878381518110610ca357610ca2611bb2565b5b6020026020010151600260008d73ffffffffffffffffffffffffffffffffffffffff1673ffffffffffffffffffffffffffffffffffffffff16815260200190815260200160002060008b73ffffffffffffffffffffffffffffffffffffffff1673ffffffffffffffffffffffffffffffffffffffff1681526020019081526020016000208381548110610d3957610d38611bb2565b5b906000526020600020906002020160010181905550600160009054906101000a900473ffffffffffffffffffffffffffffffffffffffff1673ffffffffffffffffffffffffffffffffffffffff1663c47f9b978a836040518363ffffffff1660e01b8152600401610dab929190611869565b600060405180830381600087803b158015610dc557600080fd5b505af1158015610dd9573d6000803e3d6000fd5b505050506001935050611022565b6000600260008c73ffffffffffffffffffffffffffffffffffffffff1673ffffffffffffffffffffffffffffffffffffffff16815260200190815260200160002060008a73ffffffffffffffffffffffffffffffffffffffff1673ffffffffffffffffffffffffffffffffffffffff1681526020019081526020016000208281548110610e7757610e76611bb2565b5b90600052602060002090600202016001015485610e949190611f87565b90506064811115610eda576040517f08c379a0000000000000000000000000000000000000000000000000000000008152600401610ed19061202d565b60405180910390fd5b6000600260008d73ffffffffffffffffffffffffffffffffffffffff1673ffffffffffffffffffffffffffffffffffffffff16815260200190815260200160002060008b73ffffffffffffffffffffffffffffffffffffffff1673ffffffffffffffffffffffffffffffffffffffff1681526020019081526020016000208381548110610f6a57610f69611bb2565b5b906000526020600020906002020160010181905550600160009054906101000a900473ffffffffffffffffffffffffffffffffffffffff1673ffffffffffffffffffffffffffffffffffffffff1663c47f9b978a836040518363ffffffff1660e01b8152600401610fdc929190611869565b600060405180830381600087803b158015610ff657600080fd5b505af115801561100a573d6000803e3d6000fd5b5050505050808061101a90611e67565b9150506109e5565b50600015158215150361131857600086828151811061104457611043611bb2565b5b6020026020010151846110579190611c10565b9050606481111561109d576040517f08c379a00000000000000000000000000000000000000000000000000000000081526004016110949061202d565b60405180910390fd5b600260008b73ffffffffffffffffffffffffffffffffffffffff1673ffffffffffffffffffffffffffffffffffffffff16815260200190815260200160002060008973ffffffffffffffffffffffffffffffffffffffff1673ffffffffffffffffffffffffffffffffffffffff16815260200190815260200160002060405180604001604052808b858151811061113757611136611bb2565b5b602002602001015173ffffffffffffffffffffffffffffffffffffffff16815260200189858151811061116d5761116c611bb2565b5b6020026020010151815250908060018154018082558091505060019003906000526020600020906002020160009091909190915060008201518160000160006101000a81548173ffffffffffffffffffffffffffffffffffffffff021916908373ffffffffffffffffffffffffffffffffffffffff160217905550602082015181600101555050600160009054906101000a900473ffffffffffffffffffffffffffffffffffffffff1673ffffffffffffffffffffffffffffffffffffffff1663c47f9b9789836040518363ffffffff1660e01b8152600401611251929190611869565b600060405180830381600087803b15801561126b57600080fd5b505af115801561127f573d6000803e3d6000fd5b50505050600160009054906101000a900473ffffffffffffffffffffffffffffffffffffffff1673ffffffffffffffffffffffffffffffffffffffff16630a5078258b8a8c866040518563ffffffff1660e01b81526004016112e49493929190611e1b565b600060405180830381600087803b1580156112fe57600080fd5b505af1158015611312573d6000803e3d6000fd5b50505050505b808061132390611e67565b9150506109d9565b505050505050505050565b6000604051905090565b600080fd5b600080fd5b600073ffffffffffffffffffffffffffffffffffffffff82169050919050565b60006113758261134a565b9050919050565b6113858161136a565b811461139057600080fd5b50565b6000813590506113a28161137c565b92915050565b600080fd5b6000601f19601f8301169050919050565b7f4e487b7100000000000000000000000000000000000000000000000000000000600052604160045260246000fd5b6113f6826113ad565b810181811067ffffffffffffffff82111715611415576114146113be565b5b80604052505050565b6000611428611336565b905061143482826113ed565b919050565b600067ffffffffffffffff821115611454576114536113be565b5b602082029050602081019050919050565b600080fd5b600061147d61147884611439565b61141e565b905080838252602082019050602084028301858111156114a05761149f611465565b5b835b818110156114c957806114b58882611393565b8452602084019350506020810190506114a2565b5050509392505050565b600082601f8301126114e8576114e76113a8565b5b81356114f884826020860161146a565b91505092915050565b600080fd5b600067ffffffffffffffff821115611521576115206113be565b5b61152a826113ad565b9050602081019050919050565b82818337600083830152505050565b600061155961155484611506565b61141e565b90508281526020810184848401111561157557611574611501565b5b611580848285611537565b509392505050565b600082601f83011261159d5761159c6113a8565b5b81356115ad848260208601611546565b91505092915050565b600067ffffffffffffffff8211156115d1576115d06113be565b5b602082029050602081019050919050565b6000819050919050565b6115f5816115e2565b811461160057600080fd5b50565b600081359050611612816115ec565b92915050565b600061162b611626846115b6565b61141e565b9050808382526020820190506020840283018581111561164e5761164d611465565b5b835b8181101561167757806116638882611603565b845260208401935050602081019050611650565b5050509392505050565b600082601f830112611696576116956113a8565b5b81356116a6848260208601611618565b91505092915050565b60008115159050919050565b6116c4816116af565b81146116cf57600080fd5b50565b6000813590506116e1816116bb565b92915050565b600080600080600080600060e0888a03121561170657611705611340565b5b60006117148a828b01611393565b975050602088013567ffffffffffffffff81111561173557611734611345565b5b6117418a828b016114d3565b96505060406117528a828b01611393565b955050606088013567ffffffffffffffff81111561177357611772611345565b5b61177f8a828b01611588565b945050608088013567ffffffffffffffff8111156117a05761179f611345565b5b6117ac8a828b01611681565b93505060a06117bd8a828b016116d2565b92505060c06117ce8a828b016116d2565b91505092959891949750929550565b6117e68161136a565b82525050565b600060208201905061180160008301846117dd565b92915050565b6000806000606084860312156118205761181f611340565b5b600061182e86828701611393565b935050602061183f86828701611393565b925050604061185086828701611603565b9150509250925092565b611863816115e2565b82525050565b600060408201905061187e60008301856117dd565b61188b602083018461185a565b9392505050565b6000806000606084860312156118ab576118aa611340565b5b60006118b986828701611393565b93505060206118ca86828701611393565b92505060406118db86828701611393565b9150509250925092565b60006020820190506118fa600083018461185a565b92915050565b600080600080600060a0868803121561191c5761191b611340565b5b600061192a88828901611393565b955050602086013567ffffffffffffffff81111561194b5761194a611345565b5b611957888289016114d3565b945050604061196888828901611393565b935050606086013567ffffffffffffffff81111561198957611988611345565b5b61199588828901611681565b92505060806119a6888289016116d2565b9150509295509295909350565b6000815190506119c28161137c565b92915050565b60005b838110156119e65780820151818401526020810190506119cb565b60008484015250505050565b6000611a05611a0084611506565b61141e565b905082815260208101848484011115611a2157611a20611501565b5b611a2c8482856119c8565b509392505050565b600082601f830112611a4957611a486113a8565b5b8151611a598482602086016119f2565b91505092915050565b600081519050611a71816115ec565b92915050565b600081519050611a86816116bb565b92915050565b60008060008060008060c08789031215611aa957611aa8611340565b5b6000611ab789828a016119b3565b965050602087015167ffffffffffffffff811115611ad857611ad7611345565b5b611ae489828a01611a34565b9550506040611af589828a01611a62565b9450506060611b0689828a01611a77565b9350506080611b1789828a01611a77565b92505060a0611b2889828a01611a77565b9150509295509295509295565b600082825260208201905092915050565b7f416c726561647920746f6b656e206973206e6f6d696e61746564000000000000600082015250565b6000611b7c601a83611b35565b9150611b8782611b46565b602082019050919050565b60006020820190508181036000830152611bab81611b6f565b9050919050565b7f4e487b7100000000000000000000000000000000000000000000000000000000600052603260045260246000fd5b7f4e487b7100000000000000000000000000000000000000000000000000000000600052601160045260246000fd5b6000611c1b826115e2565b9150611c26836115e2565b9250828201905080821115611c3e57611c3d611be1565b5b92915050565b7f5265647563652074686520736861726520616d6f756e742e2e2e000000000000600082015250565b6000611c7a601a83611b35565b9150611c8582611c44565b602082019050919050565b60006020820190508181036000830152611ca981611c6d565b9050919050565b600081519050919050565b6000611cc682611cb0565b611cd08185611b35565b9350611ce08185602086016119c8565b611ce9816113ad565b840191505092915050565b611cfd816116af565b82525050565b600060a082019050611d1860008301886117dd565b8181036020830152611d2a8187611cbb565b9050611d39604083018661185a565b611d466060830185611cf4565b611d536080830184611cf4565b9695505050505050565b600081519050919050565b600082825260208201905092915050565b6000819050602082019050919050565b611d928161136a565b82525050565b6000611da48383611d89565b60208301905092915050565b6000602082019050919050565b6000611dc882611d5d565b611dd28185611d68565b9350611ddd83611d79565b8060005b83811015611e0e578151611df58882611d98565b9750611e0083611db0565b925050600181019050611de1565b5085935050505092915050565b6000608082019050611e3060008301876117dd565b611e3d60208301866117dd565b8181036040830152611e4f8185611dbd565b9050611e5e606083018461185a565b95945050505050565b6000611e72826115e2565b91507fffffffffffffffffffffffffffffffffffffffffffffffffffffffffffffffff8203611ea457611ea3611be1565b5b600182019050919050565b7f4974206973206f6e6c7920666f72206d756c7469706c65206e6f6d696e656500600082015250565b6000611ee5601f83611b35565b9150611ef082611eaf565b602082019050919050565b60006020820190508181036000830152611f1481611ed8565b9050919050565b7f4669727374206e6f6d696e617465207468652041737365742100000000000000600082015250565b6000611f51601983611b35565b9150611f5c82611f1b565b602082019050919050565b60006020820190508181036000830152611f8081611f44565b9050919050565b6000611f92826115e2565b9150611f9d836115e2565b9250828203905081811115611fb557611fb4611be1565b5b92915050565b7f3130302520736861726520697320616c726561647920616c6c6f63617465642e60008201527f2e2e000000000000000000000000000000000000000000000000000000000000602082015250565b6000612017602283611b35565b915061202282611fbb565b604082019050919050565b600060208201905081810360008301526120468161200a565b905091905056fea2646970667358221220602c47519fa662722867b268809c0145426abc13ee8b127b45c1dee2b75a1a5864736f6c63430008110033",
  "linkReferences": {},
  "deployedLinkReferences": {}
}