{
  "_format": "hh-sol-artifact-1",
  "contractName": "MultipleNominee",
  "sourceName": "contracts/MultipleNominee.sol",
  "abi": [
    {
      "inputs": [
        {
          "internalType": "address",
          "name": "_inheritokensAddress",
          "type": "address"
        }
      ],
      "stateMutability": "nonpayable",
      "type": "constructor"
    },
    {
      "inputs": [
        {
          "internalType": "address",
          "name": "_owner",
          "type": "address"
        },
        {
          "internalType": "address",
          "name": "_tokenAddress",
          "type": "address"
        },
        {
          "internalType": "string",
          "name": "_tokenName",
          "type": "string"
        },
        {
          "internalType": "string",
          "name": "_category",
          "type": "string"
        },
        {
          "internalType": "uint256",
          "name": "_tokenId",
          "type": "uint256"
        },
        {
          "internalType": "uint256",
          "name": "_totalShare",
          "type": "uint256"
        },
        {
          "components": [
            {
              "internalType": "uint256",
              "name": "share",
              "type": "uint256"
            },
            {
              "internalType": "address[]",
              "name": "nominee",
              "type": "address[]"
            },
            {
              "internalType": "bool[]",
              "name": "isNotAvailable",
              "type": "bool[]"
            },
            {
              "internalType": "uint256[]",
              "name": "months",
              "type": "uint256[]"
            }
          ],
          "internalType": "struct MultipleNominee.Multiple[]",
          "name": "data",
          "type": "tuple[]"
        }
      ],
      "name": "assignTokensToMultipleNominees",
      "outputs": [],
      "stateMutability": "nonpayable",
      "type": "function"
    },
    {
      "inputs": [
        {
          "internalType": "address",
          "name": "_owner",
          "type": "address"
        },
        {
          "internalType": "address",
          "name": "_tokenAddress",
          "type": "address"
        },
        {
          "internalType": "uint256",
          "name": "_tokenId",
          "type": "uint256"
        }
      ],
      "name": "getAllStructs",
      "outputs": [
        {
          "components": [
            {
              "internalType": "uint256",
              "name": "share",
              "type": "uint256"
            },
            {
              "internalType": "address[]",
              "name": "nominee",
              "type": "address[]"
            },
            {
              "internalType": "bool[]",
              "name": "isNotAvailable",
              "type": "bool[]"
            },
            {
              "internalType": "uint256[]",
              "name": "months",
              "type": "uint256[]"
            }
          ],
          "internalType": "struct MultipleNominee.Multiple[]",
          "name": "",
          "type": "tuple[]"
        }
      ],
      "stateMutability": "view",
      "type": "function"
    },
    {
      "inputs": [
        {
          "internalType": "address",
          "name": "_owner",
          "type": "address"
        },
        {
          "internalType": "address",
          "name": "_tokenAddress",
          "type": "address"
        },
        {
          "internalType": "uint256",
          "name": "_tokenId",
          "type": "uint256"
        },
        {
          "internalType": "uint256",
          "name": "index",
          "type": "uint256"
        }
      ],
      "name": "getMultipleStruct",
      "outputs": [
        {
          "components": [
            {
              "internalType": "uint256",
              "name": "share",
              "type": "uint256"
            },
            {
              "internalType": "address[]",
              "name": "nominee",
              "type": "address[]"
            },
            {
              "internalType": "bool[]",
              "name": "isNotAvailable",
              "type": "bool[]"
            },
            {
              "internalType": "uint256[]",
              "name": "months",
              "type": "uint256[]"
            }
          ],
          "internalType": "struct MultipleNominee.Multiple",
          "name": "",
          "type": "tuple"
        }
      ],
      "stateMutability": "view",
      "type": "function"
    },
    {
      "inputs": [],
      "name": "inheritokens",
      "outputs": [
        {
          "internalType": "contract Inheritokens",
          "name": "",
          "type": "address"
        }
      ],
      "stateMutability": "view",
      "type": "function"
    },
    {
      "inputs": [],
      "name": "inheritokensAddress",
      "outputs": [
        {
          "internalType": "address",
          "name": "",
          "type": "address"
        }
      ],
      "stateMutability": "view",
      "type": "function"
    },
    {
      "inputs": [
        {
          "internalType": "address",
          "name": "",
          "type": "address"
        },
        {
          "internalType": "address",
          "name": "",
          "type": "address"
        },
        {
          "internalType": "uint256",
          "name": "",
          "type": "uint256"
        },
        {
          "internalType": "uint256",
          "name": "",
          "type": "uint256"
        }
      ],
      "name": "ownerToTokenToMultipleStruct",
      "outputs": [
        {
          "internalType": "uint256",
          "name": "share",
          "type": "uint256"
        }
      ],
      "stateMutability": "view",
      "type": "function"
    }
  ],
  "bytecode": "0x60806040523480156200001157600080fd5b506040516200214d3803806200214d833981810160405281019062000037919062000149565b806000806101000a81548173ffffffffffffffffffffffffffffffffffffffff021916908373ffffffffffffffffffffffffffffffffffffffff16021790555060008054906101000a900473ffffffffffffffffffffffffffffffffffffffff16600160006101000a81548173ffffffffffffffffffffffffffffffffffffffff021916908373ffffffffffffffffffffffffffffffffffffffff160217905550506200017b565b600080fd5b600073ffffffffffffffffffffffffffffffffffffffff82169050919050565b60006200011182620000e4565b9050919050565b620001238162000104565b81146200012f57600080fd5b50565b600081519050620001438162000118565b92915050565b600060208284031215620001625762000161620000df565b5b6000620001728482850162000132565b91505092915050565b611fc2806200018b6000396000f3fe608060405234801561001057600080fd5b50600436106100625760003560e01c806302a56e811461006757806346f17152146100975780639ffdabf4146100b5578063b7f61bb3146100e5578063be27c3fe14610101578063c80bb69e1461011f575b600080fd5b610081600480360381019061007c9190610f23565b61014f565b60405161008e91906112ef565b60405180910390f35b61009f6103aa565b6040516100ac9190611320565b60405180910390f35b6100cf60048036038101906100ca919061133b565b6103ce565b6040516100dc9190611413565b60405180910390f35b6100ff60048036038101906100fa91906119ac565b610605565b005b610109610b61565b6040516101169190611b01565b60405180910390f35b6101396004803603810190610134919061133b565b610b87565b6040516101469190611b2b565b60405180910390f35b6060600260008573ffffffffffffffffffffffffffffffffffffffff1673ffffffffffffffffffffffffffffffffffffffff16815260200190815260200160002060008473ffffffffffffffffffffffffffffffffffffffff1673ffffffffffffffffffffffffffffffffffffffff1681526020019081526020016000206000838152602001908152602001600020805480602002602001604051908101604052809291908181526020016000905b8282101561039d578382906000526020600020906004020160405180608001604052908160008201548152602001600182018054806020026020016040519081016040528092919081815260200182805480156102b057602002820191906000526020600020905b8160009054906101000a900473ffffffffffffffffffffffffffffffffffffffff1673ffffffffffffffffffffffffffffffffffffffff1681526020019060010190808311610266575b505050505081526020016002820180548060200260200160405190810160405280929190818152602001828054801561032d57602002820191906000526020600020906000905b82829054906101000a900460ff161515815260200190600101906020826000010492830192600103820291508084116102f75790505b505050505081526020016003820180548060200260200160405190810160405280929190818152602001828054801561038557602002820191906000526020600020905b815481526020019060010190808311610371575b505050505081525050815260200190600101906101fe565b5050505090509392505050565b60008054906101000a900473ffffffffffffffffffffffffffffffffffffffff1681565b6103d6610bdc565b600260008673ffffffffffffffffffffffffffffffffffffffff1673ffffffffffffffffffffffffffffffffffffffff16815260200190815260200160002060008573ffffffffffffffffffffffffffffffffffffffff1673ffffffffffffffffffffffffffffffffffffffff1681526020019081526020016000206000848152602001908152602001600020828154811061047557610474611b46565b5b9060005260206000209060040201604051806080016040529081600082015481526020016001820180548060200260200160405190810160405280929190818152602001828054801561051d57602002820191906000526020600020905b8160009054906101000a900473ffffffffffffffffffffffffffffffffffffffff1673ffffffffffffffffffffffffffffffffffffffff16815260200190600101908083116104d3575b505050505081526020016002820180548060200260200160405190810160405280929190818152602001828054801561059a57602002820191906000526020600020906000905b82829054906101000a900460ff161515815260200190600101906020826000010492830192600103820291508084116105645790505b50505050508152602001600382018054806020026020016040519081016040528092919081815260200182805480156105f257602002820191906000526020600020905b8154815260200190600101908083116105de575b5050505050815250509050949350505050565b600080600160009054906101000a900473ffffffffffffffffffffffffffffffffffffffff1673ffffffffffffffffffffffffffffffffffffffff1663de508c5b8a8a6040518363ffffffff1660e01b8152600401610665929190611b75565b600060405180830381865afa158015610682573d6000803e3d6000fd5b505050506040513d6000823e3d601f19601f820116820180604052508101906106ab9190611c77565b90919293945090919293509091925090915080935081925050508161076257600160009054906101000a900473ffffffffffffffffffffffffffffffffffffffff1673ffffffffffffffffffffffffffffffffffffffff16633bf01bf88a8a8a8a868b6040518763ffffffff1660e01b815260040161072f96959493929190611d91565b600060405180830381600087803b15801561074957600080fd5b505af115801561075d573d6000803e3d6000fd5b505050505b6000600260008b73ffffffffffffffffffffffffffffffffffffffff1673ffffffffffffffffffffffffffffffffffffffff16815260200190815260200160002060008a73ffffffffffffffffffffffffffffffffffffffff1673ffffffffffffffffffffffffffffffffffffffff1681526020019081526020016000206000878152602001908152602001600020805490509050600081111561092c57600260008b73ffffffffffffffffffffffffffffffffffffffff1673ffffffffffffffffffffffffffffffffffffffff16815260200190815260200160002060008a73ffffffffffffffffffffffffffffffffffffffff1673ffffffffffffffffffffffffffffffffffffffff168152602001908152602001600020600087815260200190815260200160002060006108999190610c04565b600160009054906101000a900473ffffffffffffffffffffffffffffffffffffffff1673ffffffffffffffffffffffffffffffffffffffff1663e9c155558b8b60006040518463ffffffff1660e01b81526004016108f993929190611e3b565b600060405180830381600087803b15801561091357600080fd5b505af1158015610927573d6000803e3d6000fd5b505050505b6064851115610970576040517f08c379a000000000000000000000000000000000000000000000000000000000815260040161096790611ebe565b60405180910390fd5b600160009054906101000a900473ffffffffffffffffffffffffffffffffffffffff1673ffffffffffffffffffffffffffffffffffffffff1663e9c155558b8b886040518463ffffffff1660e01b81526004016109cf93929190611ede565b600060405180830381600087803b1580156109e957600080fd5b505af11580156109fd573d6000803e3d6000fd5b5050505060005b8451811015610b5457600260008c73ffffffffffffffffffffffffffffffffffffffff1673ffffffffffffffffffffffffffffffffffffffff16815260200190815260200160002060008b73ffffffffffffffffffffffffffffffffffffffff1673ffffffffffffffffffffffffffffffffffffffff1681526020019081526020016000206000888152602001908152602001600020858281518110610aad57610aac611b46565b5b60200260200101519080600181540180825580915050600190039060005260206000209060040201600090919091909150600082015181600001556020820151816001019080519060200190610b04929190610c28565b506040820151816002019080519060200190610b21929190610cb2565b506060820151816003019080519060200190610b3e929190610d58565b5050508080610b4c90611f44565b915050610a04565b5050505050505050505050565b600160009054906101000a900473ffffffffffffffffffffffffffffffffffffffff1681565b60026020528360005260406000206020528260005260406000206020528160005260406000208181548110610bbb57600080fd5b90600052602060002090600402016000935093505050508060000154905081565b6040518060800160405280600081526020016060815260200160608152602001606081525090565b5080546000825560040290600052602060002090810190610c259190610da5565b50565b828054828255906000526020600020908101928215610ca1579160200282015b82811115610ca05782518260006101000a81548173ffffffffffffffffffffffffffffffffffffffff021916908373ffffffffffffffffffffffffffffffffffffffff16021790555091602001919060010190610c48565b5b509050610cae9190610df4565b5090565b82805482825590600052602060002090601f01602090048101928215610d475791602002820160005b83821115610d1857835183826101000a81548160ff0219169083151502179055509260200192600101602081600001049283019260010302610cdb565b8015610d455782816101000a81549060ff0219169055600101602081600001049283019260010302610d18565b505b509050610d549190610df4565b5090565b828054828255906000526020600020908101928215610d94579160200282015b82811115610d93578251825591602001919060010190610d78565b5b509050610da19190610df4565b5090565b5b80821115610df057600080820160009055600182016000610dc79190610e11565b600282016000610dd79190610e32565b600382016000610de79190610e5a565b50600401610da6565b5090565b5b80821115610e0d576000816000905550600101610df5565b5090565b5080546000825590600052602060002090810190610e2f9190610df4565b50565b50805460008255601f016020900490600052602060002090810190610e579190610df4565b50565b5080546000825590600052602060002090810190610e789190610df4565b50565b6000604051905090565b600080fd5b600080fd5b600073ffffffffffffffffffffffffffffffffffffffff82169050919050565b6000610eba82610e8f565b9050919050565b610eca81610eaf565b8114610ed557600080fd5b50565b600081359050610ee781610ec1565b92915050565b6000819050919050565b610f0081610eed565b8114610f0b57600080fd5b50565b600081359050610f1d81610ef7565b92915050565b600080600060608486031215610f3c57610f3b610e85565b5b6000610f4a86828701610ed8565b9350506020610f5b86828701610ed8565b9250506040610f6c86828701610f0e565b9150509250925092565b600081519050919050565b600082825260208201905092915050565b6000819050602082019050919050565b610fab81610eed565b82525050565b600081519050919050565b600082825260208201905092915050565b6000819050602082019050919050565b610fe681610eaf565b82525050565b6000610ff88383610fdd565b60208301905092915050565b6000602082019050919050565b600061101c82610fb1565b6110268185610fbc565b935061103183610fcd565b8060005b838110156110625781516110498882610fec565b975061105483611004565b925050600181019050611035565b5085935050505092915050565b600081519050919050565b600082825260208201905092915050565b6000819050602082019050919050565b60008115159050919050565b6110b08161109b565b82525050565b60006110c283836110a7565b60208301905092915050565b6000602082019050919050565b60006110e68261106f565b6110f0818561107a565b93506110fb8361108b565b8060005b8381101561112c57815161111388826110b6565b975061111e836110ce565b9250506001810190506110ff565b5085935050505092915050565b600081519050919050565b600082825260208201905092915050565b6000819050602082019050919050565b60006111718383610fa2565b60208301905092915050565b6000602082019050919050565b600061119582611139565b61119f8185611144565b93506111aa83611155565b8060005b838110156111db5781516111c28882611165565b97506111cd8361117d565b9250506001810190506111ae565b5085935050505092915050565b60006080830160008301516112006000860182610fa2565b50602083015184820360208601526112188282611011565b9150506040830151848203604086015261123282826110db565b9150506060830151848203606086015261124c828261118a565b9150508091505092915050565b600061126583836111e8565b905092915050565b6000602082019050919050565b600061128582610f76565b61128f8185610f81565b9350836020820285016112a185610f92565b8060005b858110156112dd57848403895281516112be8582611259565b94506112c98361126d565b925060208a019950506001810190506112a5565b50829750879550505050505092915050565b60006020820190508181036000830152611309818461127a565b905092915050565b61131a81610eaf565b82525050565b60006020820190506113356000830184611311565b92915050565b6000806000806080858703121561135557611354610e85565b5b600061136387828801610ed8565b945050602061137487828801610ed8565b935050604061138587828801610f0e565b925050606061139687828801610f0e565b91505092959194509250565b60006080830160008301516113ba6000860182610fa2565b50602083015184820360208601526113d28282611011565b915050604083015184820360408601526113ec82826110db565b91505060608301518482036060860152611406828261118a565b9150508091505092915050565b6000602082019050818103600083015261142d81846113a2565b905092915050565b600080fd5b600080fd5b6000601f19601f8301169050919050565b7f4e487b7100000000000000000000000000000000000000000000000000000000600052604160045260246000fd5b6114888261143f565b810181811067ffffffffffffffff821117156114a7576114a6611450565b5b80604052505050565b60006114ba610e7b565b90506114c6828261147f565b919050565b600067ffffffffffffffff8211156114e6576114e5611450565b5b6114ef8261143f565b9050602081019050919050565b82818337600083830152505050565b600061151e611519846114cb565b6114b0565b90508281526020810184848401111561153a5761153961143a565b5b6115458482856114fc565b509392505050565b600082601f83011261156257611561611435565b5b813561157284826020860161150b565b91505092915050565b600067ffffffffffffffff82111561159657611595611450565b5b602082029050602081019050919050565b600080fd5b600080fd5b600080fd5b600067ffffffffffffffff8211156115d1576115d0611450565b5b602082029050602081019050919050565b60006115f56115f0846115b6565b6114b0565b90508083825260208201905060208402830185811115611618576116176115a7565b5b835b81811015611641578061162d8882610ed8565b84526020840193505060208101905061161a565b5050509392505050565b600082601f8301126116605761165f611435565b5b81356116708482602086016115e2565b91505092915050565b600067ffffffffffffffff82111561169457611693611450565b5b602082029050602081019050919050565b6116ae8161109b565b81146116b957600080fd5b50565b6000813590506116cb816116a5565b92915050565b60006116e46116df84611679565b6114b0565b90508083825260208201905060208402830185811115611707576117066115a7565b5b835b81811015611730578061171c88826116bc565b845260208401935050602081019050611709565b5050509392505050565b600082601f83011261174f5761174e611435565b5b813561175f8482602086016116d1565b91505092915050565b600067ffffffffffffffff82111561178357611782611450565b5b602082029050602081019050919050565b60006117a76117a284611768565b6114b0565b905080838252602082019050602084028301858111156117ca576117c96115a7565b5b835b818110156117f357806117df8882610f0e565b8452602084019350506020810190506117cc565b5050509392505050565b600082601f83011261181257611811611435565b5b8135611822848260208601611794565b91505092915050565b600060808284031215611841576118406115ac565b5b61184b60806114b0565b9050600061185b84828501610f0e565b600083015250602082013567ffffffffffffffff81111561187f5761187e6115b1565b5b61188b8482850161164b565b602083015250604082013567ffffffffffffffff8111156118af576118ae6115b1565b5b6118bb8482850161173a565b604083015250606082013567ffffffffffffffff8111156118df576118de6115b1565b5b6118eb848285016117fd565b60608301525092915050565b600061190a6119058461157b565b6114b0565b9050808382526020820190506020840283018581111561192d5761192c6115a7565b5b835b8181101561197457803567ffffffffffffffff81111561195257611951611435565b5b80860161195f898261182b565b8552602085019450505060208101905061192f565b5050509392505050565b600082601f83011261199357611992611435565b5b81356119a38482602086016118f7565b91505092915050565b600080600080600080600060e0888a0312156119cb576119ca610e85565b5b60006119d98a828b01610ed8565b97505060206119ea8a828b01610ed8565b965050604088013567ffffffffffffffff811115611a0b57611a0a610e8a565b5b611a178a828b0161154d565b955050606088013567ffffffffffffffff811115611a3857611a37610e8a565b5b611a448a828b0161154d565b9450506080611a558a828b01610f0e565b93505060a0611a668a828b01610f0e565b92505060c088013567ffffffffffffffff811115611a8757611a86610e8a565b5b611a938a828b0161197e565b91505092959891949750929550565b6000819050919050565b6000611ac7611ac2611abd84610e8f565b611aa2565b610e8f565b9050919050565b6000611ad982611aac565b9050919050565b6000611aeb82611ace565b9050919050565b611afb81611ae0565b82525050565b6000602082019050611b166000830184611af2565b92915050565b611b2581610eed565b82525050565b6000602082019050611b406000830184611b1c565b92915050565b7f4e487b7100000000000000000000000000000000000000000000000000000000600052603260045260246000fd5b6000604082019050611b8a6000830185611311565b611b976020830184611311565b9392505050565b600081519050611bad81610ec1565b92915050565b60005b83811015611bd1578082015181840152602081019050611bb6565b60008484015250505050565b6000611bf0611beb846114cb565b6114b0565b905082815260208101848484011115611c0c57611c0b61143a565b5b611c17848285611bb3565b509392505050565b600082601f830112611c3457611c33611435565b5b8151611c44848260208601611bdd565b91505092915050565b600081519050611c5c81610ef7565b92915050565b600081519050611c71816116a5565b92915050565b60008060008060008060c08789031215611c9457611c93610e85565b5b6000611ca289828a01611b9e565b965050602087015167ffffffffffffffff811115611cc357611cc2610e8a565b5b611ccf89828a01611c1f565b955050604087015167ffffffffffffffff811115611cf057611cef610e8a565b5b611cfc89828a01611c1f565b9450506060611d0d89828a01611c4d565b9350506080611d1e89828a01611c4d565b92505060a0611d2f89828a01611c62565b9150509295509295509295565b600081519050919050565b600082825260208201905092915050565b6000611d6382611d3c565b611d6d8185611d47565b9350611d7d818560208601611bb3565b611d868161143f565b840191505092915050565b600060c082019050611da66000830189611311565b611db36020830188611311565b8181036040830152611dc58187611d58565b90508181036060830152611dd98186611d58565b9050611de86080830185611b1c565b611df560a0830184611b1c565b979650505050505050565b6000819050919050565b6000611e25611e20611e1b84611e00565b611aa2565b610eed565b9050919050565b611e3581611e0a565b82525050565b6000606082019050611e506000830186611311565b611e5d6020830185611311565b611e6a6040830184611e2c565b949350505050565b7f5265647563652074686520736861726520616d6f756e742e2e2e000000000000600082015250565b6000611ea8601a83611d47565b9150611eb382611e72565b602082019050919050565b60006020820190508181036000830152611ed781611e9b565b9050919050565b6000606082019050611ef36000830186611311565b611f006020830185611311565b611f0d6040830184611b1c565b949350505050565b7f4e487b7100000000000000000000000000000000000000000000000000000000600052601160045260246000fd5b6000611f4f82610eed565b91507fffffffffffffffffffffffffffffffffffffffffffffffffffffffffffffffff8203611f8157611f80611f15565b5b60018201905091905056fea26469706673582212201e6a88954d3e10b72dc2cbbf98ae755c93961f045e5617c7cdd278493d7e453a64736f6c63430008110033",
  "linkReferences": {},
  "deployedLinkReferences": {}
}