{
  "_format": "hh-sol-artifact-1",
  "contractName": "MultipleNominee",
  "sourceName": "contracts/MultipleNominee.sol",
  "abi": [
    {
      "inputs": [
        {
          "internalType": "address",
          "name": "_inheritokensAddress",
          "type": "address"
        }
      ],
      "stateMutability": "nonpayable",
      "type": "constructor"
    },
    {
      "inputs": [
        {
          "internalType": "address",
          "name": "_owner",
          "type": "address"
        },
        {
          "internalType": "address[]",
          "name": "_nominee",
          "type": "address[]"
        },
        {
          "internalType": "address",
          "name": "_tokenAddress",
          "type": "address"
        },
        {
          "internalType": "string",
          "name": "_tokenName",
          "type": "string"
        },
        {
          "internalType": "uint256[]",
          "name": "_share",
          "type": "uint256[]"
        }
      ],
      "name": "assignTokensToMultipleNominees",
      "outputs": [],
      "stateMutability": "nonpayable",
      "type": "function"
    },
    {
      "inputs": [
        {
          "internalType": "address",
          "name": "_owner",
          "type": "address"
        },
        {
          "internalType": "address[]",
          "name": "_nominee",
          "type": "address[]"
        },
        {
          "internalType": "address",
          "name": "_tokenAddress",
          "type": "address"
        },
        {
          "internalType": "uint256[]",
          "name": "_share",
          "type": "uint256[]"
        }
      ],
      "name": "editAssignedTokensToMultipleNominees",
      "outputs": [],
      "stateMutability": "nonpayable",
      "type": "function"
    },
    {
      "inputs": [
        {
          "internalType": "address",
          "name": "_owner",
          "type": "address"
        },
        {
          "internalType": "address",
          "name": "_nominee",
          "type": "address"
        },
        {
          "internalType": "address",
          "name": "_tokenAddress",
          "type": "address"
        }
      ],
      "name": "getNomineeToTokenShare",
      "outputs": [
        {
          "internalType": "uint256",
          "name": "",
          "type": "uint256"
        }
      ],
      "stateMutability": "view",
      "type": "function"
    },
    {
      "inputs": [],
      "name": "inheritokens",
      "outputs": [
        {
          "internalType": "contract Inheritokens",
          "name": "",
          "type": "address"
        }
      ],
      "stateMutability": "view",
      "type": "function"
    },
    {
      "inputs": [],
      "name": "inheritokensAddress",
      "outputs": [
        {
          "internalType": "address",
          "name": "",
          "type": "address"
        }
      ],
      "stateMutability": "view",
      "type": "function"
    },
    {
      "inputs": [
        {
          "internalType": "address",
          "name": "",
          "type": "address"
        },
        {
          "internalType": "address",
          "name": "",
          "type": "address"
        },
        {
          "internalType": "uint256",
          "name": "",
          "type": "uint256"
        }
      ],
      "name": "ownerToTokenToMultipleStruct",
      "outputs": [
        {
          "internalType": "address",
          "name": "nominee",
          "type": "address"
        },
        {
          "internalType": "uint256",
          "name": "share",
          "type": "uint256"
        }
      ],
      "stateMutability": "view",
      "type": "function"
    }
  ],
  "bytecode": "0x60806040523480156200001157600080fd5b5060405162001e0b38038062001e0b833981810160405281019062000037919062000149565b806000806101000a81548173ffffffffffffffffffffffffffffffffffffffff021916908373ffffffffffffffffffffffffffffffffffffffff16021790555060008054906101000a900473ffffffffffffffffffffffffffffffffffffffff16600160006101000a81548173ffffffffffffffffffffffffffffffffffffffff021916908373ffffffffffffffffffffffffffffffffffffffff160217905550506200017b565b600080fd5b600073ffffffffffffffffffffffffffffffffffffffff82169050919050565b60006200011182620000e4565b9050919050565b620001238162000104565b81146200012f57600080fd5b50565b600081519050620001438162000118565b92915050565b600060208284031215620001625762000161620000df565b5b6000620001728482850162000132565b91505092915050565b611c80806200018b6000396000f3fe608060405234801561001057600080fd5b50600436106100625760003560e01c806336f968a81461006757806346f17152146100835780636d5e2e20146100a15780637276f8ed146100bd578063955f59f9146100ee578063be27c3fe1461011e575b600080fd5b610081600480360381019061007c91906112dc565b61013c565b005b61008b6105f5565b604051610098919061138a565b60405180910390f35b6100bb60048036038101906100b6919061145a565b610619565b005b6100d760048036038101906100d29190611529565b610cd5565b6040516100e592919061158b565b60405180910390f35b610108600480360381019061010391906115b4565b610d43565b6040516101159190611607565b60405180910390f35b610126610f88565b6040516101339190611681565b60405180910390f35b600080600160009054906101000a900473ffffffffffffffffffffffffffffffffffffffff1673ffffffffffffffffffffffffffffffffffffffff1663de508c5b87866040518363ffffffff1660e01b815260040161019c92919061169c565b600060405180830381865afa1580156101b9573d6000803e3d6000fd5b505050506040513d6000823e3d601f19601f820116820180604052508101906101e291906117c1565b90919250909150809350819250505081610231576040517f08c379a0000000000000000000000000000000000000000000000000000000008152600401610228906118a1565b60405180910390fd5b60005b85518110156105ec57600160009054906101000a900473ffffffffffffffffffffffffffffffffffffffff1673ffffffffffffffffffffffffffffffffffffffff1663de508c5b88876040518363ffffffff1660e01b815260040161029a92919061169c565b600060405180830381865afa1580156102b7573d6000803e3d6000fd5b505050506040513d6000823e3d601f19601f820116820180604052508101906102e091906117c1565b9091925090915080945081935050506000848281518110610304576103036118c1565b5b602002602001015183610317919061191f565b9050606481111561035d576040517f08c379a00000000000000000000000000000000000000000000000000000000081526004016103549061199f565b60405180910390fd5b600160009054906101000a900473ffffffffffffffffffffffffffffffffffffffff1673ffffffffffffffffffffffffffffffffffffffff1663e9c155558988846040518463ffffffff1660e01b81526004016103bc939291906119bf565b600060405180830381600087803b1580156103d657600080fd5b505af11580156103ea573d6000803e3d6000fd5b50505050600160009054906101000a900473ffffffffffffffffffffffffffffffffffffffff1673ffffffffffffffffffffffffffffffffffffffff16630a50782589888a866040518563ffffffff1660e01b815260040161044f9493929190611ab4565b600060405180830381600087803b15801561046957600080fd5b505af115801561047d573d6000803e3d6000fd5b50505050600260008973ffffffffffffffffffffffffffffffffffffffff1673ffffffffffffffffffffffffffffffffffffffff16815260200190815260200160002060008773ffffffffffffffffffffffffffffffffffffffff1673ffffffffffffffffffffffffffffffffffffffff168152602001908152602001600020604051806040016040528089858151811061051b5761051a6118c1565b5b602002602001015173ffffffffffffffffffffffffffffffffffffffff168152602001878581518110610551576105506118c1565b5b6020026020010151815250908060018154018082558091505060019003906000526020600020906002020160009091909190915060008201518160000160006101000a81548173ffffffffffffffffffffffffffffffffffffffff021916908373ffffffffffffffffffffffffffffffffffffffff1602179055506020820151816001015550505080806105e490611b00565b915050610234565b50505050505050565b60008054906101000a900473ffffffffffffffffffffffffffffffffffffffff1681565b600080600160009054906101000a900473ffffffffffffffffffffffffffffffffffffffff1673ffffffffffffffffffffffffffffffffffffffff1663de508c5b88876040518363ffffffff1660e01b815260040161067992919061169c565b600060405180830381865afa158015610696573d6000803e3d6000fd5b505050506040513d6000823e3d601f19601f820116820180604052508101906106bf91906117c1565b9091925090915080935081925050508161076757600160009054906101000a900473ffffffffffffffffffffffffffffffffffffffff1673ffffffffffffffffffffffffffffffffffffffff1663203e5854888787856040518563ffffffff1660e01b81526004016107349493929190611b8c565b600060405180830381600087803b15801561074e57600080fd5b505af1158015610762573d6000803e3d6000fd5b505050505b6000600260008973ffffffffffffffffffffffffffffffffffffffff1673ffffffffffffffffffffffffffffffffffffffff16815260200190815260200160002060008773ffffffffffffffffffffffffffffffffffffffff1673ffffffffffffffffffffffffffffffffffffffff168152602001908152602001600020805490509050600081111561090f57600260008973ffffffffffffffffffffffffffffffffffffffff1673ffffffffffffffffffffffffffffffffffffffff16815260200190815260200160002060008773ffffffffffffffffffffffffffffffffffffffff1673ffffffffffffffffffffffffffffffffffffffff168152602001908152602001600020600061087c9190610fae565b600160009054906101000a900473ffffffffffffffffffffffffffffffffffffffff1673ffffffffffffffffffffffffffffffffffffffff1663e9c15555898860006040518463ffffffff1660e01b81526004016108dc93929190611c13565b600060405180830381600087803b1580156108f657600080fd5b505af115801561090a573d6000803e3d6000fd5b505050505b60005b8751811015610cca57600160009054906101000a900473ffffffffffffffffffffffffffffffffffffffff1673ffffffffffffffffffffffffffffffffffffffff1663de508c5b8a896040518363ffffffff1660e01b815260040161097892919061169c565b600060405180830381865afa158015610995573d6000803e3d6000fd5b505050506040513d6000823e3d601f19601f820116820180604052508101906109be91906117c1565b90919250909150809550819450505060008582815181106109e2576109e16118c1565b5b6020026020010151846109f5919061191f565b90506064811115610a3b576040517f08c379a0000000000000000000000000000000000000000000000000000000008152600401610a329061199f565b60405180910390fd5b600160009054906101000a900473ffffffffffffffffffffffffffffffffffffffff1673ffffffffffffffffffffffffffffffffffffffff1663e9c155558b8a846040518463ffffffff1660e01b8152600401610a9a939291906119bf565b600060405180830381600087803b158015610ab457600080fd5b505af1158015610ac8573d6000803e3d6000fd5b50505050600160009054906101000a900473ffffffffffffffffffffffffffffffffffffffff1673ffffffffffffffffffffffffffffffffffffffff16630a5078258b8a8c866040518563ffffffff1660e01b8152600401610b2d9493929190611ab4565b600060405180830381600087803b158015610b4757600080fd5b505af1158015610b5b573d6000803e3d6000fd5b50505050600260008b73ffffffffffffffffffffffffffffffffffffffff1673ffffffffffffffffffffffffffffffffffffffff16815260200190815260200160002060008973ffffffffffffffffffffffffffffffffffffffff1673ffffffffffffffffffffffffffffffffffffffff16815260200190815260200160002060405180604001604052808b8581518110610bf957610bf86118c1565b5b602002602001015173ffffffffffffffffffffffffffffffffffffffff168152602001888581518110610c2f57610c2e6118c1565b5b6020026020010151815250908060018154018082558091505060019003906000526020600020906002020160009091909190915060008201518160000160006101000a81548173ffffffffffffffffffffffffffffffffffffffff021916908373ffffffffffffffffffffffffffffffffffffffff160217905550602082015181600101555050508080610cc290611b00565b915050610912565b505050505050505050565b60026020528260005260406000206020528160005260406000208181548110610cfd57600080fd5b906000526020600020906002020160009250925050508060000160009054906101000a900473ffffffffffffffffffffffffffffffffffffffff16908060010154905082565b60008060005b600260008773ffffffffffffffffffffffffffffffffffffffff1673ffffffffffffffffffffffffffffffffffffffff16815260200190815260200160002060008573ffffffffffffffffffffffffffffffffffffffff1673ffffffffffffffffffffffffffffffffffffffff16815260200190815260200160002080549050811015610f7c578473ffffffffffffffffffffffffffffffffffffffff16600260008873ffffffffffffffffffffffffffffffffffffffff1673ffffffffffffffffffffffffffffffffffffffff16815260200190815260200160002060008673ffffffffffffffffffffffffffffffffffffffff1673ffffffffffffffffffffffffffffffffffffffff1681526020019081526020016000208281548110610e7557610e746118c1565b5b906000526020600020906002020160000160009054906101000a900473ffffffffffffffffffffffffffffffffffffffff1673ffffffffffffffffffffffffffffffffffffffff1603610f6957600260008773ffffffffffffffffffffffffffffffffffffffff1673ffffffffffffffffffffffffffffffffffffffff16815260200190815260200160002060008573ffffffffffffffffffffffffffffffffffffffff1673ffffffffffffffffffffffffffffffffffffffff1681526020019081526020016000208181548110610f5057610f4f6118c1565b5b9060005260206000209060020201600101549150610f7c565b8080610f7490611b00565b915050610d49565b50809150509392505050565b600160009054906101000a900473ffffffffffffffffffffffffffffffffffffffff1681565b5080546000825560020290600052602060002090810190610fcf9190610fd2565b50565b5b8082111561101457600080820160006101000a81549073ffffffffffffffffffffffffffffffffffffffff0219169055600182016000905550600201610fd3565b5090565b6000604051905090565b600080fd5b600080fd5b600073ffffffffffffffffffffffffffffffffffffffff82169050919050565b60006110578261102c565b9050919050565b6110678161104c565b811461107257600080fd5b50565b6000813590506110848161105e565b92915050565b600080fd5b6000601f19601f8301169050919050565b7f4e487b7100000000000000000000000000000000000000000000000000000000600052604160045260246000fd5b6110d88261108f565b810181811067ffffffffffffffff821117156110f7576110f66110a0565b5b80604052505050565b600061110a611018565b905061111682826110cf565b919050565b600067ffffffffffffffff821115611136576111356110a0565b5b602082029050602081019050919050565b600080fd5b600061115f61115a8461111b565b611100565b9050808382526020820190506020840283018581111561118257611181611147565b5b835b818110156111ab57806111978882611075565b845260208401935050602081019050611184565b5050509392505050565b600082601f8301126111ca576111c961108a565b5b81356111da84826020860161114c565b91505092915050565b600067ffffffffffffffff8211156111fe576111fd6110a0565b5b602082029050602081019050919050565b6000819050919050565b6112228161120f565b811461122d57600080fd5b50565b60008135905061123f81611219565b92915050565b6000611258611253846111e3565b611100565b9050808382526020820190506020840283018581111561127b5761127a611147565b5b835b818110156112a457806112908882611230565b84526020840193505060208101905061127d565b5050509392505050565b600082601f8301126112c3576112c261108a565b5b81356112d3848260208601611245565b91505092915050565b600080600080608085870312156112f6576112f5611022565b5b600061130487828801611075565b945050602085013567ffffffffffffffff81111561132557611324611027565b5b611331878288016111b5565b935050604061134287828801611075565b925050606085013567ffffffffffffffff81111561136357611362611027565b5b61136f878288016112ae565b91505092959194509250565b6113848161104c565b82525050565b600060208201905061139f600083018461137b565b92915050565b600080fd5b600067ffffffffffffffff8211156113c5576113c46110a0565b5b6113ce8261108f565b9050602081019050919050565b82818337600083830152505050565b60006113fd6113f8846113aa565b611100565b905082815260208101848484011115611419576114186113a5565b5b6114248482856113db565b509392505050565b600082601f8301126114415761144061108a565b5b81356114518482602086016113ea565b91505092915050565b600080600080600060a0868803121561147657611475611022565b5b600061148488828901611075565b955050602086013567ffffffffffffffff8111156114a5576114a4611027565b5b6114b1888289016111b5565b94505060406114c288828901611075565b935050606086013567ffffffffffffffff8111156114e3576114e2611027565b5b6114ef8882890161142c565b925050608086013567ffffffffffffffff8111156115105761150f611027565b5b61151c888289016112ae565b9150509295509295909350565b60008060006060848603121561154257611541611022565b5b600061155086828701611075565b935050602061156186828701611075565b925050604061157286828701611230565b9150509250925092565b6115858161120f565b82525050565b60006040820190506115a0600083018561137b565b6115ad602083018461157c565b9392505050565b6000806000606084860312156115cd576115cc611022565b5b60006115db86828701611075565b93505060206115ec86828701611075565b92505060406115fd86828701611075565b9150509250925092565b600060208201905061161c600083018461157c565b92915050565b6000819050919050565b600061164761164261163d8461102c565b611622565b61102c565b9050919050565b60006116598261162c565b9050919050565b600061166b8261164e565b9050919050565b61167b81611660565b82525050565b60006020820190506116966000830184611672565b92915050565b60006040820190506116b1600083018561137b565b6116be602083018461137b565b9392505050565b6000815190506116d48161105e565b92915050565b60005b838110156116f85780820151818401526020810190506116dd565b60008484015250505050565b6000611717611712846113aa565b611100565b905082815260208101848484011115611733576117326113a5565b5b61173e8482856116da565b509392505050565b600082601f83011261175b5761175a61108a565b5b815161176b848260208601611704565b91505092915050565b60008151905061178381611219565b92915050565b60008115159050919050565b61179e81611789565b81146117a957600080fd5b50565b6000815190506117bb81611795565b92915050565b600080600080608085870312156117db576117da611022565b5b60006117e9878288016116c5565b945050602085015167ffffffffffffffff81111561180a57611809611027565b5b61181687828801611746565b935050604061182787828801611774565b9250506060611838878288016117ac565b91505092959194509250565b600082825260208201905092915050565b7f4669727374206e6f6d696e617465207468652041737365742100000000000000600082015250565b600061188b601983611844565b915061189682611855565b602082019050919050565b600060208201905081810360008301526118ba8161187e565b9050919050565b7f4e487b7100000000000000000000000000000000000000000000000000000000600052603260045260246000fd5b7f4e487b7100000000000000000000000000000000000000000000000000000000600052601160045260246000fd5b600061192a8261120f565b91506119358361120f565b925082820190508082111561194d5761194c6118f0565b5b92915050565b7f5265647563652074686520736861726520616d6f756e742e2e2e000000000000600082015250565b6000611989601a83611844565b915061199482611953565b602082019050919050565b600060208201905081810360008301526119b88161197c565b9050919050565b60006060820190506119d4600083018661137b565b6119e1602083018561137b565b6119ee604083018461157c565b949350505050565b600081519050919050565b600082825260208201905092915050565b6000819050602082019050919050565b611a2b8161104c565b82525050565b6000611a3d8383611a22565b60208301905092915050565b6000602082019050919050565b6000611a61826119f6565b611a6b8185611a01565b9350611a7683611a12565b8060005b83811015611aa7578151611a8e8882611a31565b9750611a9983611a49565b925050600181019050611a7a565b5085935050505092915050565b6000608082019050611ac9600083018761137b565b611ad6602083018661137b565b8181036040830152611ae88185611a56565b9050611af7606083018461157c565b95945050505050565b6000611b0b8261120f565b91507fffffffffffffffffffffffffffffffffffffffffffffffffffffffffffffffff8203611b3d57611b3c6118f0565b5b600182019050919050565b600081519050919050565b6000611b5e82611b48565b611b688185611844565b9350611b788185602086016116da565b611b818161108f565b840191505092915050565b6000608082019050611ba1600083018761137b565b611bae602083018661137b565b8181036040830152611bc08185611b53565b9050611bcf606083018461157c565b95945050505050565b6000819050919050565b6000611bfd611bf8611bf384611bd8565b611622565b61120f565b9050919050565b611c0d81611be2565b82525050565b6000606082019050611c28600083018661137b565b611c35602083018561137b565b611c426040830184611c04565b94935050505056fea26469706673582212206d8e9328bae8f52f07ef4542335e2b8d38a867a7be8dd70efe8b0a4e35c246b664736f6c63430008110033",
  "linkReferences": {},
  "deployedLinkReferences": {}
}