{
  "_format": "hh-sol-artifact-1",
  "contractName": "MultipleNominee",
  "sourceName": "contracts/MultipleNominee.sol",
  "abi": [
    {
      "inputs": [
        {
          "internalType": "address",
          "name": "_inheritokensAddress",
          "type": "address"
        }
      ],
      "stateMutability": "nonpayable",
      "type": "constructor"
    },
    {
      "inputs": [
        {
          "internalType": "address",
          "name": "_owner",
          "type": "address"
        },
        {
          "internalType": "address[]",
          "name": "_nominee",
          "type": "address[]"
        },
        {
          "internalType": "address",
          "name": "_tokenAddress",
          "type": "address"
        },
        {
          "internalType": "string",
          "name": "_tokenName",
          "type": "string"
        },
        {
          "internalType": "uint256[]",
          "name": "_share",
          "type": "uint256[]"
        },
        {
          "internalType": "bool",
          "name": "_isMultipleNominee",
          "type": "bool"
        },
        {
          "internalType": "bool",
          "name": "_isPriorityNominee",
          "type": "bool"
        }
      ],
      "name": "assignTokensToMultipleNominees",
      "outputs": [],
      "stateMutability": "nonpayable",
      "type": "function"
    },
    {
      "inputs": [
        {
          "internalType": "address",
          "name": "_owner",
          "type": "address"
        },
        {
          "internalType": "address[]",
          "name": "_nominee",
          "type": "address[]"
        },
        {
          "internalType": "address",
          "name": "_tokenAddress",
          "type": "address"
        },
        {
          "internalType": "uint256[]",
          "name": "_share",
          "type": "uint256[]"
        },
        {
          "internalType": "bool",
          "name": "_isMultipleNominee",
          "type": "bool"
        }
      ],
      "name": "editAssignedTokensToMultipleNominees",
      "outputs": [],
      "stateMutability": "nonpayable",
      "type": "function"
    },
    {
      "inputs": [
        {
          "internalType": "address",
          "name": "_owner",
          "type": "address"
        },
        {
          "internalType": "address",
          "name": "_nominee",
          "type": "address"
        },
        {
          "internalType": "address",
          "name": "_tokenAddress",
          "type": "address"
        }
      ],
      "name": "getNomineeToTokenShare",
      "outputs": [
        {
          "internalType": "uint256",
          "name": "",
          "type": "uint256"
        }
      ],
      "stateMutability": "view",
      "type": "function"
    },
    {
      "inputs": [],
      "name": "inheritokens",
      "outputs": [
        {
          "internalType": "contract Inheritokens",
          "name": "",
          "type": "address"
        }
      ],
      "stateMutability": "view",
      "type": "function"
    },
    {
      "inputs": [],
      "name": "inheritokensAddress",
      "outputs": [
        {
          "internalType": "address",
          "name": "",
          "type": "address"
        }
      ],
      "stateMutability": "view",
      "type": "function"
    },
    {
      "inputs": [
        {
          "internalType": "address",
          "name": "",
          "type": "address"
        },
        {
          "internalType": "address",
          "name": "",
          "type": "address"
        },
        {
          "internalType": "uint256",
          "name": "",
          "type": "uint256"
        }
      ],
      "name": "ownerToTokenToMultipleStruct",
      "outputs": [
        {
          "internalType": "address",
          "name": "nominee",
          "type": "address"
        },
        {
          "internalType": "uint256",
          "name": "share",
          "type": "uint256"
        }
      ],
      "stateMutability": "view",
      "type": "function"
    }
  ],
  "bytecode": "0x60806040523480156200001157600080fd5b506040516200184a3803806200184a833981810160405281019062000037919062000149565b806000806101000a81548173ffffffffffffffffffffffffffffffffffffffff021916908373ffffffffffffffffffffffffffffffffffffffff16021790555060008054906101000a900473ffffffffffffffffffffffffffffffffffffffff16600160006101000a81548173ffffffffffffffffffffffffffffffffffffffff021916908373ffffffffffffffffffffffffffffffffffffffff160217905550506200017b565b600080fd5b600073ffffffffffffffffffffffffffffffffffffffff82169050919050565b60006200011182620000e4565b9050919050565b620001238162000104565b81146200012f57600080fd5b50565b600081519050620001438162000118565b92915050565b600060208284031215620001625762000161620000df565b5b6000620001728482850162000132565b91505092915050565b6116bf806200018b6000396000f3fe608060405234801561001057600080fd5b50600436106100625760003560e01c80632cc9991b1461006757806346f17152146100835780637276f8ed146100a1578063955f59f9146100d2578063be27c3fe14610102578063e15a8e0414610120575b600080fd5b610081600480360381019061007c9190610e47565b61013c565b005b61008b6106a0565b6040516100989190610f4c565b60405180910390f35b6100bb60048036038101906100b69190610f67565b6106c4565b6040516100c9929190610fc9565b60405180910390f35b6100ec60048036038101906100e79190610ff2565b610732565b6040516100f99190611045565b60405180910390f35b61010a610977565b60405161011791906110bf565b60405180910390f35b61013a600480360381019061013591906110da565b61099d565b005b600080600160009054906101000a900473ffffffffffffffffffffffffffffffffffffffff1673ffffffffffffffffffffffffffffffffffffffff16639979d30e886040518263ffffffff1660e01b815260040161019a9190610f4c565b600060405180830381865afa1580156101b7573d6000803e3d6000fd5b505050506040513d6000823e3d601f19601f820116820180604052508101906101e09190611266565b9091929394509091929350909150905080935081925050508115610239576040517f08c379a00000000000000000000000000000000000000000000000000000000081526004016102309061136c565b60405180910390fd5b60005b885181101561069457600160009054906101000a900473ffffffffffffffffffffffffffffffffffffffff1673ffffffffffffffffffffffffffffffffffffffff16639979d30e896040518263ffffffff1660e01b81526004016102a09190610f4c565b600060405180830381865afa1580156102bd573d6000803e3d6000fd5b505050506040513d6000823e3d601f19601f820116820180604052508101906102e69190611266565b90919293945090919293509091509050809450819350505060008682815181106103135761031261138c565b5b60200260200101518361032691906113ea565b9050606481111561036c576040517f08c379a00000000000000000000000000000000000000000000000000000000081526004016103639061146a565b60405180910390fd5b8361040757600160009054906101000a900473ffffffffffffffffffffffffffffffffffffffff1673ffffffffffffffffffffffffffffffffffffffff1663a1d5a9988a8a848a8a6040518663ffffffff1660e01b81526004016103d49594939291906114dd565b600060405180830381600087803b1580156103ee57600080fd5b505af1158015610402573d6000803e3d6000fd5b505050505b600160009054906101000a900473ffffffffffffffffffffffffffffffffffffffff1673ffffffffffffffffffffffffffffffffffffffff1663c47f9b978a836040518363ffffffff1660e01b8152600401610464929190610fc9565b600060405180830381600087803b15801561047e57600080fd5b505af1158015610492573d6000803e3d6000fd5b50505050600160009054906101000a900473ffffffffffffffffffffffffffffffffffffffff1673ffffffffffffffffffffffffffffffffffffffff16630a5078258c8b8d866040518563ffffffff1660e01b81526004016104f794939291906115f5565b600060405180830381600087803b15801561051157600080fd5b505af1158015610525573d6000803e3d6000fd5b50505050600260008c73ffffffffffffffffffffffffffffffffffffffff1673ffffffffffffffffffffffffffffffffffffffff16815260200190815260200160002060008a73ffffffffffffffffffffffffffffffffffffffff1673ffffffffffffffffffffffffffffffffffffffff16815260200190815260200160002060405180604001604052808c85815181106105c3576105c261138c565b5b602002602001015173ffffffffffffffffffffffffffffffffffffffff1681526020018985815181106105f9576105f861138c565b5b6020026020010151815250908060018154018082558091505060019003906000526020600020906002020160009091909190915060008201518160000160006101000a81548173ffffffffffffffffffffffffffffffffffffffff021916908373ffffffffffffffffffffffffffffffffffffffff16021790555060208201518160010155505050808061068c90611641565b91505061023c565b50505050505050505050565b60008054906101000a900473ffffffffffffffffffffffffffffffffffffffff1681565b600260205282600052604060002060205281600052604060002081815481106106ec57600080fd5b906000526020600020906002020160009250925050508060000160009054906101000a900473ffffffffffffffffffffffffffffffffffffffff16908060010154905082565b60008060005b600260008773ffffffffffffffffffffffffffffffffffffffff1673ffffffffffffffffffffffffffffffffffffffff16815260200190815260200160002060008573ffffffffffffffffffffffffffffffffffffffff1673ffffffffffffffffffffffffffffffffffffffff1681526020019081526020016000208054905081101561096b578473ffffffffffffffffffffffffffffffffffffffff16600260008873ffffffffffffffffffffffffffffffffffffffff1673ffffffffffffffffffffffffffffffffffffffff16815260200190815260200160002060008673ffffffffffffffffffffffffffffffffffffffff1673ffffffffffffffffffffffffffffffffffffffff16815260200190815260200160002082815481106108645761086361138c565b5b906000526020600020906002020160000160009054906101000a900473ffffffffffffffffffffffffffffffffffffffff1673ffffffffffffffffffffffffffffffffffffffff160361095857600260008773ffffffffffffffffffffffffffffffffffffffff1673ffffffffffffffffffffffffffffffffffffffff16815260200190815260200160002060008573ffffffffffffffffffffffffffffffffffffffff1673ffffffffffffffffffffffffffffffffffffffff168152602001908152602001600020818154811061093f5761093e61138c565b5b906000526020600020906002020160010154915061096b565b808061096390611641565b915050610738565b50809150509392505050565b600160009054906101000a900473ffffffffffffffffffffffffffffffffffffffff1681565b600260008673ffffffffffffffffffffffffffffffffffffffff1673ffffffffffffffffffffffffffffffffffffffff16815260200190815260200160002060008473ffffffffffffffffffffffffffffffffffffffff1673ffffffffffffffffffffffffffffffffffffffff1681526020019081526020016000206000610a259190610a2c565b5050505050565b5080546000825560020290600052602060002090810190610a4d9190610a50565b50565b5b80821115610a9257600080820160006101000a81549073ffffffffffffffffffffffffffffffffffffffff0219169055600182016000905550600201610a51565b5090565b6000604051905090565b600080fd5b600080fd5b600073ffffffffffffffffffffffffffffffffffffffff82169050919050565b6000610ad582610aaa565b9050919050565b610ae581610aca565b8114610af057600080fd5b50565b600081359050610b0281610adc565b92915050565b600080fd5b6000601f19601f8301169050919050565b7f4e487b7100000000000000000000000000000000000000000000000000000000600052604160045260246000fd5b610b5682610b0d565b810181811067ffffffffffffffff82111715610b7557610b74610b1e565b5b80604052505050565b6000610b88610a96565b9050610b948282610b4d565b919050565b600067ffffffffffffffff821115610bb457610bb3610b1e565b5b602082029050602081019050919050565b600080fd5b6000610bdd610bd884610b99565b610b7e565b90508083825260208201905060208402830185811115610c0057610bff610bc5565b5b835b81811015610c295780610c158882610af3565b845260208401935050602081019050610c02565b5050509392505050565b600082601f830112610c4857610c47610b08565b5b8135610c58848260208601610bca565b91505092915050565b600080fd5b600067ffffffffffffffff821115610c8157610c80610b1e565b5b610c8a82610b0d565b9050602081019050919050565b82818337600083830152505050565b6000610cb9610cb484610c66565b610b7e565b905082815260208101848484011115610cd557610cd4610c61565b5b610ce0848285610c97565b509392505050565b600082601f830112610cfd57610cfc610b08565b5b8135610d0d848260208601610ca6565b91505092915050565b600067ffffffffffffffff821115610d3157610d30610b1e565b5b602082029050602081019050919050565b6000819050919050565b610d5581610d42565b8114610d6057600080fd5b50565b600081359050610d7281610d4c565b92915050565b6000610d8b610d8684610d16565b610b7e565b90508083825260208201905060208402830185811115610dae57610dad610bc5565b5b835b81811015610dd75780610dc38882610d63565b845260208401935050602081019050610db0565b5050509392505050565b600082601f830112610df657610df5610b08565b5b8135610e06848260208601610d78565b91505092915050565b60008115159050919050565b610e2481610e0f565b8114610e2f57600080fd5b50565b600081359050610e4181610e1b565b92915050565b600080600080600080600060e0888a031215610e6657610e65610aa0565b5b6000610e748a828b01610af3565b975050602088013567ffffffffffffffff811115610e9557610e94610aa5565b5b610ea18a828b01610c33565b9650506040610eb28a828b01610af3565b955050606088013567ffffffffffffffff811115610ed357610ed2610aa5565b5b610edf8a828b01610ce8565b945050608088013567ffffffffffffffff811115610f0057610eff610aa5565b5b610f0c8a828b01610de1565b93505060a0610f1d8a828b01610e32565b92505060c0610f2e8a828b01610e32565b91505092959891949750929550565b610f4681610aca565b82525050565b6000602082019050610f616000830184610f3d565b92915050565b600080600060608486031215610f8057610f7f610aa0565b5b6000610f8e86828701610af3565b9350506020610f9f86828701610af3565b9250506040610fb086828701610d63565b9150509250925092565b610fc381610d42565b82525050565b6000604082019050610fde6000830185610f3d565b610feb6020830184610fba565b9392505050565b60008060006060848603121561100b5761100a610aa0565b5b600061101986828701610af3565b935050602061102a86828701610af3565b925050604061103b86828701610af3565b9150509250925092565b600060208201905061105a6000830184610fba565b92915050565b6000819050919050565b600061108561108061107b84610aaa565b611060565b610aaa565b9050919050565b60006110978261106a565b9050919050565b60006110a98261108c565b9050919050565b6110b98161109e565b82525050565b60006020820190506110d460008301846110b0565b92915050565b600080600080600060a086880312156110f6576110f5610aa0565b5b600061110488828901610af3565b955050602086013567ffffffffffffffff81111561112557611124610aa5565b5b61113188828901610c33565b945050604061114288828901610af3565b935050606086013567ffffffffffffffff81111561116357611162610aa5565b5b61116f88828901610de1565b925050608061118088828901610e32565b9150509295509295909350565b60008151905061119c81610adc565b92915050565b60005b838110156111c05780820151818401526020810190506111a5565b60008484015250505050565b60006111df6111da84610c66565b610b7e565b9050828152602081018484840111156111fb576111fa610c61565b5b6112068482856111a2565b509392505050565b600082601f83011261122357611222610b08565b5b81516112338482602086016111cc565b91505092915050565b60008151905061124b81610d4c565b92915050565b60008151905061126081610e1b565b92915050565b60008060008060008060c0878903121561128357611282610aa0565b5b600061129189828a0161118d565b965050602087015167ffffffffffffffff8111156112b2576112b1610aa5565b5b6112be89828a0161120e565b95505060406112cf89828a0161123c565b94505060606112e089828a01611251565b93505060806112f189828a01611251565b92505060a061130289828a01611251565b9150509295509295509295565b600082825260208201905092915050565b7f416c726561647920746f6b656e206973206e6f6d696e61746564000000000000600082015250565b6000611356601a8361130f565b915061136182611320565b602082019050919050565b6000602082019050818103600083015261138581611349565b9050919050565b7f4e487b7100000000000000000000000000000000000000000000000000000000600052603260045260246000fd5b7f4e487b7100000000000000000000000000000000000000000000000000000000600052601160045260246000fd5b60006113f582610d42565b915061140083610d42565b9250828201905080821115611418576114176113bb565b5b92915050565b7f5265647563652074686520736861726520616d6f756e742e2e2e000000000000600082015250565b6000611454601a8361130f565b915061145f8261141e565b602082019050919050565b6000602082019050818103600083015261148381611447565b9050919050565b600081519050919050565b60006114a08261148a565b6114aa818561130f565b93506114ba8185602086016111a2565b6114c381610b0d565b840191505092915050565b6114d781610e0f565b82525050565b600060a0820190506114f26000830188610f3d565b81810360208301526115048187611495565b90506115136040830186610fba565b61152060608301856114ce565b61152d60808301846114ce565b9695505050505050565b600081519050919050565b600082825260208201905092915050565b6000819050602082019050919050565b61156c81610aca565b82525050565b600061157e8383611563565b60208301905092915050565b6000602082019050919050565b60006115a282611537565b6115ac8185611542565b93506115b783611553565b8060005b838110156115e85781516115cf8882611572565b97506115da8361158a565b9250506001810190506115bb565b5085935050505092915050565b600060808201905061160a6000830187610f3d565b6116176020830186610f3d565b81810360408301526116298185611597565b90506116386060830184610fba565b95945050505050565b600061164c82610d42565b91507fffffffffffffffffffffffffffffffffffffffffffffffffffffffffffffffff820361167e5761167d6113bb565b5b60018201905091905056fea2646970667358221220393f2723bfc47b6a8363eb09b9257935343c944b4d4d74c293b5548fb502c5e364736f6c63430008110033",
  "linkReferences": {},
  "deployedLinkReferences": {}
}