{
  "_format": "hh-sol-artifact-1",
  "contractName": "MultipleNominee",
  "sourceName": "contracts/MultipleNominee.sol",
  "abi": [
    {
      "inputs": [
        {
          "internalType": "address",
          "name": "_inheritokensAddress",
          "type": "address"
        }
      ],
      "stateMutability": "nonpayable",
      "type": "constructor"
    },
    {
      "anonymous": false,
      "inputs": [
        {
          "indexed": true,
          "internalType": "address",
          "name": "_owner",
          "type": "address"
        },
        {
          "indexed": false,
          "internalType": "address",
          "name": "_tokenAddress",
          "type": "address"
        },
        {
          "indexed": false,
          "internalType": "uint256",
          "name": "_tokenId",
          "type": "uint256"
        }
      ],
      "name": "TokensAssigned",
      "type": "event"
    },
    {
      "inputs": [
        {
          "internalType": "address",
          "name": "_tokenAddress",
          "type": "address"
        },
        {
          "internalType": "string",
          "name": "_tokenName",
          "type": "string"
        },
        {
          "internalType": "string",
          "name": "_category",
          "type": "string"
        },
        {
          "internalType": "uint256",
          "name": "_tokenId",
          "type": "uint256"
        },
        {
          "internalType": "uint256",
          "name": "_totalShare",
          "type": "uint256"
        },
        {
          "components": [
            {
              "internalType": "uint256",
              "name": "share",
              "type": "uint256"
            },
            {
              "internalType": "address[]",
              "name": "nominee",
              "type": "address[]"
            },
            {
              "internalType": "bool[]",
              "name": "isNotAvailable",
              "type": "bool[]"
            },
            {
              "internalType": "bool[]",
              "name": "isClaimed",
              "type": "bool[]"
            }
          ],
          "internalType": "struct MultipleNominee.Multiple[]",
          "name": "data",
          "type": "tuple[]"
        }
      ],
      "name": "assignTokensToMultipleNominees",
      "outputs": [],
      "stateMutability": "nonpayable",
      "type": "function"
    },
    {
      "inputs": [
        {
          "internalType": "address",
          "name": "_owner",
          "type": "address"
        },
        {
          "internalType": "address",
          "name": "_tokenAddress",
          "type": "address"
        },
        {
          "internalType": "uint256",
          "name": "_tokenId",
          "type": "uint256"
        }
      ],
      "name": "getAllStructs",
      "outputs": [
        {
          "components": [
            {
              "internalType": "uint256",
              "name": "share",
              "type": "uint256"
            },
            {
              "internalType": "address[]",
              "name": "nominee",
              "type": "address[]"
            },
            {
              "internalType": "bool[]",
              "name": "isNotAvailable",
              "type": "bool[]"
            },
            {
              "internalType": "bool[]",
              "name": "isClaimed",
              "type": "bool[]"
            }
          ],
          "internalType": "struct MultipleNominee.Multiple[]",
          "name": "",
          "type": "tuple[]"
        }
      ],
      "stateMutability": "view",
      "type": "function"
    },
    {
      "inputs": [
        {
          "internalType": "address",
          "name": "_owner",
          "type": "address"
        },
        {
          "internalType": "address",
          "name": "_tokenAddress",
          "type": "address"
        },
        {
          "internalType": "uint256",
          "name": "_tokenId",
          "type": "uint256"
        },
        {
          "internalType": "uint256",
          "name": "index",
          "type": "uint256"
        }
      ],
      "name": "getMultipleStruct",
      "outputs": [
        {
          "components": [
            {
              "internalType": "uint256",
              "name": "share",
              "type": "uint256"
            },
            {
              "internalType": "address[]",
              "name": "nominee",
              "type": "address[]"
            },
            {
              "internalType": "bool[]",
              "name": "isNotAvailable",
              "type": "bool[]"
            },
            {
              "internalType": "bool[]",
              "name": "isClaimed",
              "type": "bool[]"
            }
          ],
          "internalType": "struct MultipleNominee.Multiple",
          "name": "",
          "type": "tuple"
        }
      ],
      "stateMutability": "view",
      "type": "function"
    },
    {
      "inputs": [],
      "name": "inheritokens",
      "outputs": [
        {
          "internalType": "contract Inheritokens",
          "name": "",
          "type": "address"
        }
      ],
      "stateMutability": "view",
      "type": "function"
    },
    {
      "inputs": [],
      "name": "inheritokensAddress",
      "outputs": [
        {
          "internalType": "address",
          "name": "",
          "type": "address"
        }
      ],
      "stateMutability": "view",
      "type": "function"
    },
    {
      "inputs": [
        {
          "internalType": "address",
          "name": "",
          "type": "address"
        },
        {
          "internalType": "address",
          "name": "",
          "type": "address"
        },
        {
          "internalType": "uint256",
          "name": "",
          "type": "uint256"
        },
        {
          "internalType": "uint256",
          "name": "",
          "type": "uint256"
        }
      ],
      "name": "ownerToTokenToMultipleStruct",
      "outputs": [
        {
          "internalType": "uint256",
          "name": "share",
          "type": "uint256"
        }
      ],
      "stateMutability": "view",
      "type": "function"
    }
  ],
  "bytecode": "0x60806040523480156200001157600080fd5b506040516200201a3803806200201a833981810160405281019062000037919062000149565b806000806101000a81548173ffffffffffffffffffffffffffffffffffffffff021916908373ffffffffffffffffffffffffffffffffffffffff16021790555060008054906101000a900473ffffffffffffffffffffffffffffffffffffffff16600160006101000a81548173ffffffffffffffffffffffffffffffffffffffff021916908373ffffffffffffffffffffffffffffffffffffffff160217905550506200017b565b600080fd5b600073ffffffffffffffffffffffffffffffffffffffff82169050919050565b60006200011182620000e4565b9050919050565b620001238162000104565b81146200012f57600080fd5b50565b600081519050620001438162000118565b92915050565b600060208284031215620001625762000161620000df565b5b6000620001728482850162000132565b91505092915050565b611e8f806200018b6000396000f3fe608060405234801561001057600080fd5b50600436106100625760003560e01c806302a56e811461006757806346f17152146100975780639ffdabf4146100b5578063be27c3fe146100e5578063c80bb69e14610103578063d0bd014614610133575b600080fd5b610081600480360381019061007c9190610f4e565b61014f565b60405161008e919061126b565b60405180910390f35b61009f6103cf565b6040516100ac919061129c565b60405180910390f35b6100cf60048036038101906100ca91906112b7565b6103f3565b6040516100dc919061138f565b60405180910390f35b6100ed61064f565b6040516100fa9190611410565b60405180910390f35b61011d600480360381019061011891906112b7565b610675565b60405161012a919061143a565b60405180910390f35b61014d60048036038101906101489190611909565b6106ca565b005b6060600260008573ffffffffffffffffffffffffffffffffffffffff1673ffffffffffffffffffffffffffffffffffffffff16815260200190815260200160002060008473ffffffffffffffffffffffffffffffffffffffff1673ffffffffffffffffffffffffffffffffffffffff1681526020019081526020016000206000838152602001908152602001600020805480602002602001604051908101604052809291908181526020016000905b828210156103c2578382906000526020600020906004020160405180608001604052908160008201548152602001600182018054806020026020016040519081016040528092919081815260200182805480156102b057602002820191906000526020600020905b8160009054906101000a900473ffffffffffffffffffffffffffffffffffffffff1673ffffffffffffffffffffffffffffffffffffffff1681526020019060010190808311610266575b505050505081526020016002820180548060200260200160405190810160405280929190818152602001828054801561032d57602002820191906000526020600020906000905b82829054906101000a900460ff161515815260200190600101906020826000010492830192600103820291508084116102f75790505b50505050508152602001600382018054806020026020016040519081016040528092919081815260200182805480156103aa57602002820191906000526020600020906000905b82829054906101000a900460ff161515815260200190600101906020826000010492830192600103820291508084116103745790505b505050505081525050815260200190600101906101fe565b5050505090509392505050565b60008054906101000a900473ffffffffffffffffffffffffffffffffffffffff1681565b6103fb610c75565b600260008673ffffffffffffffffffffffffffffffffffffffff1673ffffffffffffffffffffffffffffffffffffffff16815260200190815260200160002060008573ffffffffffffffffffffffffffffffffffffffff1673ffffffffffffffffffffffffffffffffffffffff1681526020019081526020016000206000848152602001908152602001600020828154811061049a576104996119ea565b5b9060005260206000209060040201604051806080016040529081600082015481526020016001820180548060200260200160405190810160405280929190818152602001828054801561054257602002820191906000526020600020905b8160009054906101000a900473ffffffffffffffffffffffffffffffffffffffff1673ffffffffffffffffffffffffffffffffffffffff16815260200190600101908083116104f8575b50505050508152602001600282018054806020026020016040519081016040528092919081815260200182805480156105bf57602002820191906000526020600020906000905b82829054906101000a900460ff161515815260200190600101906020826000010492830192600103820291508084116105895790505b505050505081526020016003820180548060200260200160405190810160405280929190818152602001828054801561063c57602002820191906000526020600020906000905b82829054906101000a900460ff161515815260200190600101906020826000010492830192600103820291508084116106065790505b5050505050815250509050949350505050565b600160009054906101000a900473ffffffffffffffffffffffffffffffffffffffff1681565b600260205283600052604060002060205282600052604060002060205281600052604060002081815481106106a957600080fd5b90600052602060002090600402016000935093505050508060000154905081565b600080600160009054906101000a900473ffffffffffffffffffffffffffffffffffffffff1673ffffffffffffffffffffffffffffffffffffffff1663de508c5b338a6040518363ffffffff1660e01b815260040161072a929190611a19565b600060405180830381865afa158015610747573d6000803e3d6000fd5b505050506040513d6000823e3d601f19601f820116820180604052508101906107709190611b1b565b90919293945090919293509091925090915080935081925050508161082757600160009054906101000a900473ffffffffffffffffffffffffffffffffffffffff1673ffffffffffffffffffffffffffffffffffffffff16633bf01bf8338a8a8a868b6040518763ffffffff1660e01b81526004016107f496959493929190611c35565b600060405180830381600087803b15801561080e57600080fd5b505af1158015610822573d6000803e3d6000fd5b505050505b6000600260003373ffffffffffffffffffffffffffffffffffffffff1673ffffffffffffffffffffffffffffffffffffffff16815260200190815260200160002060008a73ffffffffffffffffffffffffffffffffffffffff1673ffffffffffffffffffffffffffffffffffffffff168152602001908152602001600020600087815260200190815260200160002080549050905060008111156109f157600260003373ffffffffffffffffffffffffffffffffffffffff1673ffffffffffffffffffffffffffffffffffffffff16815260200190815260200160002060008a73ffffffffffffffffffffffffffffffffffffffff1673ffffffffffffffffffffffffffffffffffffffff1681526020019081526020016000206000878152602001908152602001600020600061095e9190610c9d565b600160009054906101000a900473ffffffffffffffffffffffffffffffffffffffff1673ffffffffffffffffffffffffffffffffffffffff1663e9c15555338b60006040518463ffffffff1660e01b81526004016109be93929190611cdf565b600060405180830381600087803b1580156109d857600080fd5b505af11580156109ec573d6000803e3d6000fd5b505050505b6064851115610a35576040517f08c379a0000000000000000000000000000000000000000000000000000000008152600401610a2c90611d62565b60405180910390fd5b600160009054906101000a900473ffffffffffffffffffffffffffffffffffffffff1673ffffffffffffffffffffffffffffffffffffffff1663e9c15555338b886040518463ffffffff1660e01b8152600401610a9493929190611d82565b600060405180830381600087803b158015610aae57600080fd5b505af1158015610ac2573d6000803e3d6000fd5b5050505060005b8451811015610c1957600260003373ffffffffffffffffffffffffffffffffffffffff1673ffffffffffffffffffffffffffffffffffffffff16815260200190815260200160002060008b73ffffffffffffffffffffffffffffffffffffffff1673ffffffffffffffffffffffffffffffffffffffff1681526020019081526020016000206000888152602001908152602001600020858281518110610b7257610b716119ea565b5b60200260200101519080600181540180825580915050600190039060005260206000209060040201600090919091909150600082015181600001556020820151816001019080519060200190610bc9929190610cc1565b506040820151816002019080519060200190610be6929190610d4b565b506060820151816003019080519060200190610c03929190610d4b565b5050508080610c1190611de8565b915050610ac9565b503373ffffffffffffffffffffffffffffffffffffffff167f82a2341a42c146a8b1818f7e04fe56be41f008d10c140cf4fe8b4ef801628ea18a88604051610c62929190611e30565b60405180910390a2505050505050505050565b6040518060800160405280600081526020016060815260200160608152602001606081525090565b5080546000825560040290600052602060002090810190610cbe9190610df1565b50565b828054828255906000526020600020908101928215610d3a579160200282015b82811115610d395782518260006101000a81548173ffffffffffffffffffffffffffffffffffffffff021916908373ffffffffffffffffffffffffffffffffffffffff16021790555091602001919060010190610ce1565b5b509050610d479190610e40565b5090565b82805482825590600052602060002090601f01602090048101928215610de05791602002820160005b83821115610db157835183826101000a81548160ff0219169083151502179055509260200192600101602081600001049283019260010302610d74565b8015610dde5782816101000a81549060ff0219169055600101602081600001049283019260010302610db1565b505b509050610ded9190610e40565b5090565b5b80821115610e3c57600080820160009055600182016000610e139190610e5d565b600282016000610e239190610e7e565b600382016000610e339190610e7e565b50600401610df2565b5090565b5b80821115610e59576000816000905550600101610e41565b5090565b5080546000825590600052602060002090810190610e7b9190610e40565b50565b50805460008255601f016020900490600052602060002090810190610ea39190610e40565b50565b6000604051905090565b600080fd5b600080fd5b600073ffffffffffffffffffffffffffffffffffffffff82169050919050565b6000610ee582610eba565b9050919050565b610ef581610eda565b8114610f0057600080fd5b50565b600081359050610f1281610eec565b92915050565b6000819050919050565b610f2b81610f18565b8114610f3657600080fd5b50565b600081359050610f4881610f22565b92915050565b600080600060608486031215610f6757610f66610eb0565b5b6000610f7586828701610f03565b9350506020610f8686828701610f03565b9250506040610f9786828701610f39565b9150509250925092565b600081519050919050565b600082825260208201905092915050565b6000819050602082019050919050565b610fd681610f18565b82525050565b600081519050919050565b600082825260208201905092915050565b6000819050602082019050919050565b61101181610eda565b82525050565b60006110238383611008565b60208301905092915050565b6000602082019050919050565b600061104782610fdc565b6110518185610fe7565b935061105c83610ff8565b8060005b8381101561108d5781516110748882611017565b975061107f8361102f565b925050600181019050611060565b5085935050505092915050565b600081519050919050565b600082825260208201905092915050565b6000819050602082019050919050565b60008115159050919050565b6110db816110c6565b82525050565b60006110ed83836110d2565b60208301905092915050565b6000602082019050919050565b60006111118261109a565b61111b81856110a5565b9350611126836110b6565b8060005b8381101561115757815161113e88826110e1565b9750611149836110f9565b92505060018101905061112a565b5085935050505092915050565b600060808301600083015161117c6000860182610fcd565b5060208301518482036020860152611194828261103c565b915050604083015184820360408601526111ae8282611106565b915050606083015184820360608601526111c88282611106565b9150508091505092915050565b60006111e18383611164565b905092915050565b6000602082019050919050565b600061120182610fa1565b61120b8185610fac565b93508360208202850161121d85610fbd565b8060005b85811015611259578484038952815161123a85826111d5565b9450611245836111e9565b925060208a01995050600181019050611221565b50829750879550505050505092915050565b6000602082019050818103600083015261128581846111f6565b905092915050565b61129681610eda565b82525050565b60006020820190506112b1600083018461128d565b92915050565b600080600080608085870312156112d1576112d0610eb0565b5b60006112df87828801610f03565b94505060206112f087828801610f03565b935050604061130187828801610f39565b925050606061131287828801610f39565b91505092959194509250565b60006080830160008301516113366000860182610fcd565b506020830151848203602086015261134e828261103c565b915050604083015184820360408601526113688282611106565b915050606083015184820360608601526113828282611106565b9150508091505092915050565b600060208201905081810360008301526113a9818461131e565b905092915050565b6000819050919050565b60006113d66113d16113cc84610eba565b6113b1565b610eba565b9050919050565b60006113e8826113bb565b9050919050565b60006113fa826113dd565b9050919050565b61140a816113ef565b82525050565b60006020820190506114256000830184611401565b92915050565b61143481610f18565b82525050565b600060208201905061144f600083018461142b565b92915050565b600080fd5b600080fd5b6000601f19601f8301169050919050565b7f4e487b7100000000000000000000000000000000000000000000000000000000600052604160045260246000fd5b6114a88261145f565b810181811067ffffffffffffffff821117156114c7576114c6611470565b5b80604052505050565b60006114da610ea6565b90506114e6828261149f565b919050565b600067ffffffffffffffff82111561150657611505611470565b5b61150f8261145f565b9050602081019050919050565b82818337600083830152505050565b600061153e611539846114eb565b6114d0565b90508281526020810184848401111561155a5761155961145a565b5b61156584828561151c565b509392505050565b600082601f83011261158257611581611455565b5b813561159284826020860161152b565b91505092915050565b600067ffffffffffffffff8211156115b6576115b5611470565b5b602082029050602081019050919050565b600080fd5b600080fd5b600080fd5b600067ffffffffffffffff8211156115f1576115f0611470565b5b602082029050602081019050919050565b6000611615611610846115d6565b6114d0565b90508083825260208201905060208402830185811115611638576116376115c7565b5b835b81811015611661578061164d8882610f03565b84526020840193505060208101905061163a565b5050509392505050565b600082601f8301126116805761167f611455565b5b8135611690848260208601611602565b91505092915050565b600067ffffffffffffffff8211156116b4576116b3611470565b5b602082029050602081019050919050565b6116ce816110c6565b81146116d957600080fd5b50565b6000813590506116eb816116c5565b92915050565b60006117046116ff84611699565b6114d0565b90508083825260208201905060208402830185811115611727576117266115c7565b5b835b81811015611750578061173c88826116dc565b845260208401935050602081019050611729565b5050509392505050565b600082601f83011261176f5761176e611455565b5b813561177f8482602086016116f1565b91505092915050565b60006080828403121561179e5761179d6115cc565b5b6117a860806114d0565b905060006117b884828501610f39565b600083015250602082013567ffffffffffffffff8111156117dc576117db6115d1565b5b6117e88482850161166b565b602083015250604082013567ffffffffffffffff81111561180c5761180b6115d1565b5b6118188482850161175a565b604083015250606082013567ffffffffffffffff81111561183c5761183b6115d1565b5b6118488482850161175a565b60608301525092915050565b60006118676118628461159b565b6114d0565b9050808382526020820190506020840283018581111561188a576118896115c7565b5b835b818110156118d157803567ffffffffffffffff8111156118af576118ae611455565b5b8086016118bc8982611788565b8552602085019450505060208101905061188c565b5050509392505050565b600082601f8301126118f0576118ef611455565b5b8135611900848260208601611854565b91505092915050565b60008060008060008060c0878903121561192657611925610eb0565b5b600061193489828a01610f03565b965050602087013567ffffffffffffffff81111561195557611954610eb5565b5b61196189828a0161156d565b955050604087013567ffffffffffffffff81111561198257611981610eb5565b5b61198e89828a0161156d565b945050606061199f89828a01610f39565b93505060806119b089828a01610f39565b92505060a087013567ffffffffffffffff8111156119d1576119d0610eb5565b5b6119dd89828a016118db565b9150509295509295509295565b7f4e487b7100000000000000000000000000000000000000000000000000000000600052603260045260246000fd5b6000604082019050611a2e600083018561128d565b611a3b602083018461128d565b9392505050565b600081519050611a5181610eec565b92915050565b60005b83811015611a75578082015181840152602081019050611a5a565b60008484015250505050565b6000611a94611a8f846114eb565b6114d0565b905082815260208101848484011115611ab057611aaf61145a565b5b611abb848285611a57565b509392505050565b600082601f830112611ad857611ad7611455565b5b8151611ae8848260208601611a81565b91505092915050565b600081519050611b0081610f22565b92915050565b600081519050611b15816116c5565b92915050565b60008060008060008060c08789031215611b3857611b37610eb0565b5b6000611b4689828a01611a42565b965050602087015167ffffffffffffffff811115611b6757611b66610eb5565b5b611b7389828a01611ac3565b955050604087015167ffffffffffffffff811115611b9457611b93610eb5565b5b611ba089828a01611ac3565b9450506060611bb189828a01611af1565b9350506080611bc289828a01611af1565b92505060a0611bd389828a01611b06565b9150509295509295509295565b600081519050919050565b600082825260208201905092915050565b6000611c0782611be0565b611c118185611beb565b9350611c21818560208601611a57565b611c2a8161145f565b840191505092915050565b600060c082019050611c4a600083018961128d565b611c57602083018861128d565b8181036040830152611c698187611bfc565b90508181036060830152611c7d8186611bfc565b9050611c8c608083018561142b565b611c9960a083018461142b565b979650505050505050565b6000819050919050565b6000611cc9611cc4611cbf84611ca4565b6113b1565b610f18565b9050919050565b611cd981611cae565b82525050565b6000606082019050611cf4600083018661128d565b611d01602083018561128d565b611d0e6040830184611cd0565b949350505050565b7f5265647563652074686520736861726520616d6f756e742e2e2e000000000000600082015250565b6000611d4c601a83611beb565b9150611d5782611d16565b602082019050919050565b60006020820190508181036000830152611d7b81611d3f565b9050919050565b6000606082019050611d97600083018661128d565b611da4602083018561128d565b611db1604083018461142b565b949350505050565b7f4e487b7100000000000000000000000000000000000000000000000000000000600052601160045260246000fd5b6000611df382610f18565b91507fffffffffffffffffffffffffffffffffffffffffffffffffffffffffffffffff8203611e2557611e24611db9565b5b600182019050919050565b6000604082019050611e45600083018561128d565b611e52602083018461142b565b939250505056fea26469706673582212209fc4d80d1444bcd4737e5d026373c4754e210e0d3542327e7bc77dd17d6c113364736f6c63430008110033",
  "linkReferences": {},
  "deployedLinkReferences": {}
}