{
  "_format": "hh-sol-artifact-1",
  "contractName": "MultipleNominee",
  "sourceName": "contracts/MultipleNominee.sol",
  "abi": [
    {
      "inputs": [
        {
          "internalType": "address",
          "name": "_inheritokensAddress",
          "type": "address"
        }
      ],
      "stateMutability": "nonpayable",
      "type": "constructor"
    },
    {
      "anonymous": false,
      "inputs": [
        {
          "indexed": true,
          "internalType": "address",
          "name": "_owner",
          "type": "address"
        },
        {
          "indexed": false,
          "internalType": "address",
          "name": "_tokenAddress",
          "type": "address"
        },
        {
          "indexed": false,
          "internalType": "uint256",
          "name": "_tokenId",
          "type": "uint256"
        }
      ],
      "name": "TokensAssigned",
      "type": "event"
    },
    {
      "inputs": [
        {
          "internalType": "address",
          "name": "_tokenAddress",
          "type": "address"
        },
        {
          "internalType": "string",
          "name": "_tokenName",
          "type": "string"
        },
        {
          "internalType": "string",
          "name": "_category",
          "type": "string"
        },
        {
          "internalType": "uint256",
          "name": "_tokenId",
          "type": "uint256"
        },
        {
          "internalType": "uint256",
          "name": "_totalShare",
          "type": "uint256"
        },
        {
          "components": [
            {
              "internalType": "uint256",
              "name": "share",
              "type": "uint256"
            },
            {
              "internalType": "address[]",
              "name": "nominee",
              "type": "address[]"
            },
            {
              "internalType": "bool[]",
              "name": "isNotAvailable",
              "type": "bool[]"
            },
            {
              "internalType": "bool[]",
              "name": "isClaimed",
              "type": "bool[]"
            }
          ],
          "internalType": "struct MultipleNominee.Multiple[]",
          "name": "data",
          "type": "tuple[]"
        }
      ],
      "name": "assignTokensToMultipleNominees",
      "outputs": [],
      "stateMutability": "nonpayable",
      "type": "function"
    },
    {
      "inputs": [
        {
          "internalType": "address",
          "name": "_owner",
          "type": "address"
        },
        {
          "internalType": "address",
          "name": "_tokenAddress",
          "type": "address"
        },
        {
          "internalType": "uint256",
          "name": "_tokenId",
          "type": "uint256"
        }
      ],
      "name": "getAllStructs",
      "outputs": [
        {
          "components": [
            {
              "internalType": "uint256",
              "name": "share",
              "type": "uint256"
            },
            {
              "internalType": "address[]",
              "name": "nominee",
              "type": "address[]"
            },
            {
              "internalType": "bool[]",
              "name": "isNotAvailable",
              "type": "bool[]"
            },
            {
              "internalType": "bool[]",
              "name": "isClaimed",
              "type": "bool[]"
            }
          ],
          "internalType": "struct MultipleNominee.Multiple[]",
          "name": "",
          "type": "tuple[]"
        }
      ],
      "stateMutability": "view",
      "type": "function"
    },
    {
      "inputs": [
        {
          "internalType": "address",
          "name": "_owner",
          "type": "address"
        },
        {
          "internalType": "address",
          "name": "_tokenAddress",
          "type": "address"
        },
        {
          "internalType": "uint256",
          "name": "_tokenId",
          "type": "uint256"
        },
        {
          "internalType": "uint256",
          "name": "index",
          "type": "uint256"
        }
      ],
      "name": "getMultipleStruct",
      "outputs": [
        {
          "components": [
            {
              "internalType": "uint256",
              "name": "share",
              "type": "uint256"
            },
            {
              "internalType": "address[]",
              "name": "nominee",
              "type": "address[]"
            },
            {
              "internalType": "bool[]",
              "name": "isNotAvailable",
              "type": "bool[]"
            },
            {
              "internalType": "bool[]",
              "name": "isClaimed",
              "type": "bool[]"
            }
          ],
          "internalType": "struct MultipleNominee.Multiple",
          "name": "",
          "type": "tuple"
        }
      ],
      "stateMutability": "view",
      "type": "function"
    },
    {
      "inputs": [],
      "name": "inheritokens",
      "outputs": [
        {
          "internalType": "contract Inheritokens",
          "name": "",
          "type": "address"
        }
      ],
      "stateMutability": "view",
      "type": "function"
    },
    {
      "inputs": [],
      "name": "inheritokensAddress",
      "outputs": [
        {
          "internalType": "address",
          "name": "",
          "type": "address"
        }
      ],
      "stateMutability": "view",
      "type": "function"
    },
    {
      "inputs": [
        {
          "internalType": "address",
          "name": "",
          "type": "address"
        },
        {
          "internalType": "address",
          "name": "",
          "type": "address"
        },
        {
          "internalType": "uint256",
          "name": "",
          "type": "uint256"
        },
        {
          "internalType": "uint256",
          "name": "",
          "type": "uint256"
        }
      ],
      "name": "ownerToTokenToMultipleStruct",
      "outputs": [
        {
          "internalType": "uint256",
          "name": "share",
          "type": "uint256"
        }
      ],
      "stateMutability": "view",
      "type": "function"
    }
  ],
  "bytecode": "0x60806040523480156200001157600080fd5b50604051620020e5380380620020e5833981810160405281019062000037919062000149565b806000806101000a81548173ffffffffffffffffffffffffffffffffffffffff021916908373ffffffffffffffffffffffffffffffffffffffff16021790555060008054906101000a900473ffffffffffffffffffffffffffffffffffffffff16600160006101000a81548173ffffffffffffffffffffffffffffffffffffffff021916908373ffffffffffffffffffffffffffffffffffffffff160217905550506200017b565b600080fd5b600073ffffffffffffffffffffffffffffffffffffffff82169050919050565b60006200011182620000e4565b9050919050565b620001238162000104565b81146200012f57600080fd5b50565b600081519050620001438162000118565b92915050565b600060208284031215620001625762000161620000df565b5b6000620001728482850162000132565b91505092915050565b611f5a806200018b6000396000f3fe608060405234801561001057600080fd5b50600436106100625760003560e01c806302a56e811461006757806346f17152146100975780639ffdabf4146100b5578063be27c3fe146100e5578063c80bb69e14610103578063d0bd014614610133575b600080fd5b610081600480360381019061007c9190611019565b61014f565b60405161008e9190611336565b60405180910390f35b61009f6103cf565b6040516100ac9190611367565b60405180910390f35b6100cf60048036038101906100ca9190611382565b6103f3565b6040516100dc919061145a565b60405180910390f35b6100ed61064f565b6040516100fa91906114db565b60405180910390f35b61011d60048036038101906101189190611382565b610675565b60405161012a9190611505565b60405180910390f35b61014d600480360381019061014891906119d4565b6106ca565b005b6060600260008573ffffffffffffffffffffffffffffffffffffffff1673ffffffffffffffffffffffffffffffffffffffff16815260200190815260200160002060008473ffffffffffffffffffffffffffffffffffffffff1673ffffffffffffffffffffffffffffffffffffffff1681526020019081526020016000206000838152602001908152602001600020805480602002602001604051908101604052809291908181526020016000905b828210156103c2578382906000526020600020906004020160405180608001604052908160008201548152602001600182018054806020026020016040519081016040528092919081815260200182805480156102b057602002820191906000526020600020905b8160009054906101000a900473ffffffffffffffffffffffffffffffffffffffff1673ffffffffffffffffffffffffffffffffffffffff1681526020019060010190808311610266575b505050505081526020016002820180548060200260200160405190810160405280929190818152602001828054801561032d57602002820191906000526020600020906000905b82829054906101000a900460ff161515815260200190600101906020826000010492830192600103820291508084116102f75790505b50505050508152602001600382018054806020026020016040519081016040528092919081815260200182805480156103aa57602002820191906000526020600020906000905b82829054906101000a900460ff161515815260200190600101906020826000010492830192600103820291508084116103745790505b505050505081525050815260200190600101906101fe565b5050505090509392505050565b60008054906101000a900473ffffffffffffffffffffffffffffffffffffffff1681565b6103fb610d40565b600260008673ffffffffffffffffffffffffffffffffffffffff1673ffffffffffffffffffffffffffffffffffffffff16815260200190815260200160002060008573ffffffffffffffffffffffffffffffffffffffff1673ffffffffffffffffffffffffffffffffffffffff1681526020019081526020016000206000848152602001908152602001600020828154811061049a57610499611ab5565b5b9060005260206000209060040201604051806080016040529081600082015481526020016001820180548060200260200160405190810160405280929190818152602001828054801561054257602002820191906000526020600020905b8160009054906101000a900473ffffffffffffffffffffffffffffffffffffffff1673ffffffffffffffffffffffffffffffffffffffff16815260200190600101908083116104f8575b50505050508152602001600282018054806020026020016040519081016040528092919081815260200182805480156105bf57602002820191906000526020600020906000905b82829054906101000a900460ff161515815260200190600101906020826000010492830192600103820291508084116105895790505b505050505081526020016003820180548060200260200160405190810160405280929190818152602001828054801561063c57602002820191906000526020600020906000905b82829054906101000a900460ff161515815260200190600101906020826000010492830192600103820291508084116106065790505b5050505050815250509050949350505050565b600160009054906101000a900473ffffffffffffffffffffffffffffffffffffffff1681565b600260205283600052604060002060205282600052604060002060205281600052604060002081815481106106a957600080fd5b90600052602060002090600402016000935093505050508060000154905081565b600080600160009054906101000a900473ffffffffffffffffffffffffffffffffffffffff1673ffffffffffffffffffffffffffffffffffffffff1663de508c5b338a6040518363ffffffff1660e01b815260040161072a929190611ae4565b600060405180830381865afa158015610747573d6000803e3d6000fd5b505050506040513d6000823e3d601f19601f820116820180604052508101906107709190611be6565b909192939450909192935090919250909150809350819250505061079333610c7e565b8161083057600160009054906101000a900473ffffffffffffffffffffffffffffffffffffffff1673ffffffffffffffffffffffffffffffffffffffff16633bf01bf8338a8a8a868b6040518763ffffffff1660e01b81526004016107fd96959493929190611d00565b600060405180830381600087803b15801561081757600080fd5b505af115801561082b573d6000803e3d6000fd5b505050505b6000600260003373ffffffffffffffffffffffffffffffffffffffff1673ffffffffffffffffffffffffffffffffffffffff16815260200190815260200160002060008a73ffffffffffffffffffffffffffffffffffffffff1673ffffffffffffffffffffffffffffffffffffffff168152602001908152602001600020600087815260200190815260200160002080549050905060008111156109fa57600260003373ffffffffffffffffffffffffffffffffffffffff1673ffffffffffffffffffffffffffffffffffffffff16815260200190815260200160002060008a73ffffffffffffffffffffffffffffffffffffffff1673ffffffffffffffffffffffffffffffffffffffff168152602001908152602001600020600087815260200190815260200160002060006109679190610d68565b600160009054906101000a900473ffffffffffffffffffffffffffffffffffffffff1673ffffffffffffffffffffffffffffffffffffffff1663e9c15555338b60006040518463ffffffff1660e01b81526004016109c793929190611daa565b600060405180830381600087803b1580156109e157600080fd5b505af11580156109f5573d6000803e3d6000fd5b505050505b6064851115610a3e576040517f08c379a0000000000000000000000000000000000000000000000000000000008152600401610a3590611e2d565b60405180910390fd5b600160009054906101000a900473ffffffffffffffffffffffffffffffffffffffff1673ffffffffffffffffffffffffffffffffffffffff1663e9c15555338b886040518463ffffffff1660e01b8152600401610a9d93929190611e4d565b600060405180830381600087803b158015610ab757600080fd5b505af1158015610acb573d6000803e3d6000fd5b5050505060005b8451811015610c2257600260003373ffffffffffffffffffffffffffffffffffffffff1673ffffffffffffffffffffffffffffffffffffffff16815260200190815260200160002060008b73ffffffffffffffffffffffffffffffffffffffff1673ffffffffffffffffffffffffffffffffffffffff1681526020019081526020016000206000888152602001908152602001600020858281518110610b7b57610b7a611ab5565b5b60200260200101519080600181540180825580915050600190039060005260206000209060040201600090919091909150600082015181600001556020820151816001019080519060200190610bd2929190610d8c565b506040820151816002019080519060200190610bef929190610e16565b506060820151816003019080519060200190610c0c929190610e16565b5050508080610c1a90611eb3565b915050610ad2565b503373ffffffffffffffffffffffffffffffffffffffff167f82a2341a42c146a8b1818f7e04fe56be41f008d10c140cf4fe8b4ef801628ea18a88604051610c6b929190611efb565b60405180910390a2505050505050505050565b610d1481604051602401610c929190611367565b6040516020818303038152906040527f2c2ecbc2000000000000000000000000000000000000000000000000000000007bffffffffffffffffffffffffffffffffffffffffffffffffffffffff19166020820180517bffffffffffffffffffffffffffffffffffffffffffffffffffffffff8381831617835250505050610d17565b50565b60008151905060006a636f6e736f6c652e6c6f679050602083016000808483855afa5050505050565b6040518060800160405280600081526020016060815260200160608152602001606081525090565b5080546000825560040290600052602060002090810190610d899190610ebc565b50565b828054828255906000526020600020908101928215610e05579160200282015b82811115610e045782518260006101000a81548173ffffffffffffffffffffffffffffffffffffffff021916908373ffffffffffffffffffffffffffffffffffffffff16021790555091602001919060010190610dac565b5b509050610e129190610f0b565b5090565b82805482825590600052602060002090601f01602090048101928215610eab5791602002820160005b83821115610e7c57835183826101000a81548160ff0219169083151502179055509260200192600101602081600001049283019260010302610e3f565b8015610ea95782816101000a81549060ff0219169055600101602081600001049283019260010302610e7c565b505b509050610eb89190610f0b565b5090565b5b80821115610f0757600080820160009055600182016000610ede9190610f28565b600282016000610eee9190610f49565b600382016000610efe9190610f49565b50600401610ebd565b5090565b5b80821115610f24576000816000905550600101610f0c565b5090565b5080546000825590600052602060002090810190610f469190610f0b565b50565b50805460008255601f016020900490600052602060002090810190610f6e9190610f0b565b50565b6000604051905090565b600080fd5b600080fd5b600073ffffffffffffffffffffffffffffffffffffffff82169050919050565b6000610fb082610f85565b9050919050565b610fc081610fa5565b8114610fcb57600080fd5b50565b600081359050610fdd81610fb7565b92915050565b6000819050919050565b610ff681610fe3565b811461100157600080fd5b50565b60008135905061101381610fed565b92915050565b60008060006060848603121561103257611031610f7b565b5b600061104086828701610fce565b935050602061105186828701610fce565b925050604061106286828701611004565b9150509250925092565b600081519050919050565b600082825260208201905092915050565b6000819050602082019050919050565b6110a181610fe3565b82525050565b600081519050919050565b600082825260208201905092915050565b6000819050602082019050919050565b6110dc81610fa5565b82525050565b60006110ee83836110d3565b60208301905092915050565b6000602082019050919050565b6000611112826110a7565b61111c81856110b2565b9350611127836110c3565b8060005b8381101561115857815161113f88826110e2565b975061114a836110fa565b92505060018101905061112b565b5085935050505092915050565b600081519050919050565b600082825260208201905092915050565b6000819050602082019050919050565b60008115159050919050565b6111a681611191565b82525050565b60006111b8838361119d565b60208301905092915050565b6000602082019050919050565b60006111dc82611165565b6111e68185611170565b93506111f183611181565b8060005b8381101561122257815161120988826111ac565b9750611214836111c4565b9250506001810190506111f5565b5085935050505092915050565b60006080830160008301516112476000860182611098565b506020830151848203602086015261125f8282611107565b9150506040830151848203604086015261127982826111d1565b9150506060830151848203606086015261129382826111d1565b9150508091505092915050565b60006112ac838361122f565b905092915050565b6000602082019050919050565b60006112cc8261106c565b6112d68185611077565b9350836020820285016112e885611088565b8060005b85811015611324578484038952815161130585826112a0565b9450611310836112b4565b925060208a019950506001810190506112ec565b50829750879550505050505092915050565b6000602082019050818103600083015261135081846112c1565b905092915050565b61136181610fa5565b82525050565b600060208201905061137c6000830184611358565b92915050565b6000806000806080858703121561139c5761139b610f7b565b5b60006113aa87828801610fce565b94505060206113bb87828801610fce565b93505060406113cc87828801611004565b92505060606113dd87828801611004565b91505092959194509250565b60006080830160008301516114016000860182611098565b50602083015184820360208601526114198282611107565b9150506040830151848203604086015261143382826111d1565b9150506060830151848203606086015261144d82826111d1565b9150508091505092915050565b6000602082019050818103600083015261147481846113e9565b905092915050565b6000819050919050565b60006114a161149c61149784610f85565b61147c565b610f85565b9050919050565b60006114b382611486565b9050919050565b60006114c5826114a8565b9050919050565b6114d5816114ba565b82525050565b60006020820190506114f060008301846114cc565b92915050565b6114ff81610fe3565b82525050565b600060208201905061151a60008301846114f6565b92915050565b600080fd5b600080fd5b6000601f19601f8301169050919050565b7f4e487b7100000000000000000000000000000000000000000000000000000000600052604160045260246000fd5b6115738261152a565b810181811067ffffffffffffffff821117156115925761159161153b565b5b80604052505050565b60006115a5610f71565b90506115b1828261156a565b919050565b600067ffffffffffffffff8211156115d1576115d061153b565b5b6115da8261152a565b9050602081019050919050565b82818337600083830152505050565b6000611609611604846115b6565b61159b565b90508281526020810184848401111561162557611624611525565b5b6116308482856115e7565b509392505050565b600082601f83011261164d5761164c611520565b5b813561165d8482602086016115f6565b91505092915050565b600067ffffffffffffffff8211156116815761168061153b565b5b602082029050602081019050919050565b600080fd5b600080fd5b600080fd5b600067ffffffffffffffff8211156116bc576116bb61153b565b5b602082029050602081019050919050565b60006116e06116db846116a1565b61159b565b9050808382526020820190506020840283018581111561170357611702611692565b5b835b8181101561172c57806117188882610fce565b845260208401935050602081019050611705565b5050509392505050565b600082601f83011261174b5761174a611520565b5b813561175b8482602086016116cd565b91505092915050565b600067ffffffffffffffff82111561177f5761177e61153b565b5b602082029050602081019050919050565b61179981611191565b81146117a457600080fd5b50565b6000813590506117b681611790565b92915050565b60006117cf6117ca84611764565b61159b565b905080838252602082019050602084028301858111156117f2576117f1611692565b5b835b8181101561181b578061180788826117a7565b8452602084019350506020810190506117f4565b5050509392505050565b600082601f83011261183a57611839611520565b5b813561184a8482602086016117bc565b91505092915050565b60006080828403121561186957611868611697565b5b611873608061159b565b9050600061188384828501611004565b600083015250602082013567ffffffffffffffff8111156118a7576118a661169c565b5b6118b384828501611736565b602083015250604082013567ffffffffffffffff8111156118d7576118d661169c565b5b6118e384828501611825565b604083015250606082013567ffffffffffffffff8111156119075761190661169c565b5b61191384828501611825565b60608301525092915050565b600061193261192d84611666565b61159b565b9050808382526020820190506020840283018581111561195557611954611692565b5b835b8181101561199c57803567ffffffffffffffff81111561197a57611979611520565b5b8086016119878982611853565b85526020850194505050602081019050611957565b5050509392505050565b600082601f8301126119bb576119ba611520565b5b81356119cb84826020860161191f565b91505092915050565b60008060008060008060c087890312156119f1576119f0610f7b565b5b60006119ff89828a01610fce565b965050602087013567ffffffffffffffff811115611a2057611a1f610f80565b5b611a2c89828a01611638565b955050604087013567ffffffffffffffff811115611a4d57611a4c610f80565b5b611a5989828a01611638565b9450506060611a6a89828a01611004565b9350506080611a7b89828a01611004565b92505060a087013567ffffffffffffffff811115611a9c57611a9b610f80565b5b611aa889828a016119a6565b9150509295509295509295565b7f4e487b7100000000000000000000000000000000000000000000000000000000600052603260045260246000fd5b6000604082019050611af96000830185611358565b611b066020830184611358565b9392505050565b600081519050611b1c81610fb7565b92915050565b60005b83811015611b40578082015181840152602081019050611b25565b60008484015250505050565b6000611b5f611b5a846115b6565b61159b565b905082815260208101848484011115611b7b57611b7a611525565b5b611b86848285611b22565b509392505050565b600082601f830112611ba357611ba2611520565b5b8151611bb3848260208601611b4c565b91505092915050565b600081519050611bcb81610fed565b92915050565b600081519050611be081611790565b92915050565b60008060008060008060c08789031215611c0357611c02610f7b565b5b6000611c1189828a01611b0d565b965050602087015167ffffffffffffffff811115611c3257611c31610f80565b5b611c3e89828a01611b8e565b955050604087015167ffffffffffffffff811115611c5f57611c5e610f80565b5b611c6b89828a01611b8e565b9450506060611c7c89828a01611bbc565b9350506080611c8d89828a01611bbc565b92505060a0611c9e89828a01611bd1565b9150509295509295509295565b600081519050919050565b600082825260208201905092915050565b6000611cd282611cab565b611cdc8185611cb6565b9350611cec818560208601611b22565b611cf58161152a565b840191505092915050565b600060c082019050611d156000830189611358565b611d226020830188611358565b8181036040830152611d348187611cc7565b90508181036060830152611d488186611cc7565b9050611d5760808301856114f6565b611d6460a08301846114f6565b979650505050505050565b6000819050919050565b6000611d94611d8f611d8a84611d6f565b61147c565b610fe3565b9050919050565b611da481611d79565b82525050565b6000606082019050611dbf6000830186611358565b611dcc6020830185611358565b611dd96040830184611d9b565b949350505050565b7f5265647563652074686520736861726520616d6f756e742e2e2e000000000000600082015250565b6000611e17601a83611cb6565b9150611e2282611de1565b602082019050919050565b60006020820190508181036000830152611e4681611e0a565b9050919050565b6000606082019050611e626000830186611358565b611e6f6020830185611358565b611e7c60408301846114f6565b949350505050565b7f4e487b7100000000000000000000000000000000000000000000000000000000600052601160045260246000fd5b6000611ebe82610fe3565b91507fffffffffffffffffffffffffffffffffffffffffffffffffffffffffffffffff8203611ef057611eef611e84565b5b600182019050919050565b6000604082019050611f106000830185611358565b611f1d60208301846114f6565b939250505056fea26469706673582212204bd50c61c780efc0eb6f6d233a7f75452b037d0f3d3f32c8bea56ff78c0c812364736f6c63430008110033",
  "linkReferences": {},
  "deployedLinkReferences": {}
}